{
  "contractName": "BNum",
  "abi": [
    {
      "inputs": [],
      "name": "BONE",
      "outputs": [
        {
          "internalType": "uint256",
          "name": "",
          "type": "uint256"
        }
      ],
      "stateMutability": "view",
      "type": "function"
    },
    {
      "inputs": [],
      "name": "BPOW_PRECISION",
      "outputs": [
        {
          "internalType": "uint256",
          "name": "",
          "type": "uint256"
        }
      ],
      "stateMutability": "view",
      "type": "function"
    },
    {
      "inputs": [],
      "name": "MAX_BPOW_BASE",
      "outputs": [
        {
          "internalType": "uint256",
          "name": "",
          "type": "uint256"
        }
      ],
      "stateMutability": "view",
      "type": "function"
    },
    {
      "inputs": [],
      "name": "MIN_BPOW_BASE",
      "outputs": [
        {
          "internalType": "uint256",
          "name": "",
          "type": "uint256"
        }
      ],
      "stateMutability": "view",
      "type": "function"
    }
  ],
  "bytecode": "0x608060405234801561001057600080fd5b5061012d806100206000396000f3fe6080604052348015600f57600080fd5b506004361060465760003560e01c8063189d00ca14604b578063ba019dab146067578063bc694ea2146083578063c36596a614609f575b600080fd5b605160bb565b6040518082815260200191505060405180910390f35b606d60d4565b6040518082815260200191505060405180910390f35b608960d9565b6040518082815260200191505060405180910390f35b60a560eb565b6040518082815260200191505060405180910390f35b6402540be400670de0b6b3a76400008160d057fe5b0481565b600181565b6001670de0b6b3a76400006002020381565b670de0b6b3a76400008156fea26469706673582212205a649f5e2173364b8967372b24d423394b19d221f38656393e071d7d390520aa64736f6c634300060c0033",
  "immutableReferences": {},
  "source": "// SPDX-License-Identifier: UNLICENSED\r\npragma solidity ^0.6.0;\r\n\r\ncontract BNum {\r\n    uint public constant BONE = 10**18;\r\n    uint public constant MIN_BPOW_BASE = 1 wei;\r\n    uint public constant MAX_BPOW_BASE = (2 * BONE) - 1 wei;\r\n    uint public constant BPOW_PRECISION = BONE / 10**10;\r\n\r\n    function btoi(uint a)\r\n        internal pure \r\n        returns (uint)\r\n    {\r\n        return a / BONE;\r\n    }\r\n\r\n    function bfloor(uint a)\r\n        internal pure\r\n        returns (uint)\r\n    {\r\n        return btoi(a) * BONE;\r\n    }\r\n\r\n    function badd(uint a, uint b)\r\n        internal pure\r\n        returns (uint)\r\n    {\r\n        uint c = a + b;\r\n        require(c >= a, \"ERR_ADD_OVERFLOW\");\r\n        return c;\r\n    }\r\n\r\n    function bsub(uint a, uint b)\r\n        internal pure\r\n        returns (uint)\r\n    {\r\n        (uint c, bool flag) = bsubSign(a, b);\r\n        require(!flag, \"ERR_SUB_UNDERFLOW\");\r\n        return c;\r\n    }\r\n\r\n    function bsubSign(uint a, uint b)\r\n        internal pure\r\n        returns (uint, bool)\r\n    {\r\n        if (a >= b) {\r\n            return (a - b, false);\r\n        } else {\r\n            return (b - a, true);\r\n        }\r\n    }\r\n\r\n    function bmul(uint a, uint b)\r\n        internal pure\r\n        returns (uint)\r\n    {\r\n        uint c0 = a * b;\r\n        require(a == 0 || c0 / a == b, \"ERR_MUL_OVERFLOW\");\r\n        uint c1 = c0 + (BONE / 2);\r\n        require(c1 >= c0, \"ERR_MUL_OVERFLOW\");\r\n        uint c2 = c1 / BONE;\r\n        return c2;\r\n    }\r\n\r\n    function bdiv(uint a, uint b)\r\n        internal pure\r\n        returns (uint)\r\n    {\r\n        require(b != 0, \"ERR_DIV_ZERO\");\r\n        uint c0 = a * BONE;\r\n        require(a == 0 || c0 / a == BONE, \"ERR_DIV_INTERNAL\"); // bmul overflow\r\n        uint c1 = c0 + (b / 2);\r\n        require(c1 >= c0, \"ERR_DIV_INTERNAL\"); //  badd require\r\n        uint c2 = c1 / b;\r\n        return c2;\r\n    }\r\n\r\n    // DSMath.wpow\r\n    function bpowi(uint a, uint n)\r\n        internal pure\r\n        returns (uint)\r\n    {\r\n        uint z = n % 2 != 0 ? a : BONE;\r\n\r\n        for (n /= 2; n != 0; n /= 2) {\r\n            a = bmul(a, a);\r\n\r\n            if (n % 2 != 0) {\r\n                z = bmul(z, a);\r\n            }\r\n        }\r\n        return z;\r\n    }\r\n\r\n    // Compute b^(e.w) by splitting it into (b^e)*(b^0.w).\r\n    // Use `bpowi` for `b^e` and `bpowK` for k iterations\r\n    // of approximation of b^0.w\r\n    function bpow(uint base, uint exp)\r\n        internal pure\r\n        returns (uint)\r\n    {\r\n        require(base >= MIN_BPOW_BASE, \"ERR_BPOW_BASE_TOO_LOW\");\r\n        require(base <= MAX_BPOW_BASE, \"ERR_BPOW_BASE_TOO_HIGH\");\r\n\r\n        uint whole  = bfloor(exp);   \r\n        uint remain = bsub(exp, whole);\r\n\r\n        uint wholePow = bpowi(base, btoi(whole));\r\n\r\n        if (remain == 0) {\r\n            return wholePow;\r\n        }\r\n\r\n        uint partialResult = bpowApprox(base, remain, BPOW_PRECISION);\r\n        return bmul(wholePow, partialResult);\r\n    }\r\n\r\n    function bpowApprox(uint base, uint exp, uint precision)\r\n        internal pure\r\n        returns (uint)\r\n    {\r\n        // term 0:\r\n        uint a     = exp;\r\n        (uint x, bool xneg)  = bsubSign(base, BONE);\r\n        uint term = BONE;\r\n        uint sum   = term;\r\n        bool negative = false;\r\n\r\n\r\n        // term(k) = numer / denom \r\n        //         = (product(a - i - 1, i=1-->k) * x^k) / (k!)\r\n        // each iteration, multiply previous term by (a-(k-1)) * x / k\r\n        // continue until term is less than precision\r\n        for (uint i = 1; term >= precision; i++) {\r\n            uint bigK = i * BONE;\r\n            (uint c, bool cneg) = bsubSign(a, bsub(bigK, BONE));\r\n            term = bmul(term, bmul(c, x));\r\n            term = bdiv(term, bigK);\r\n            if (term == 0) break;\r\n\r\n            if (xneg) negative = !negative;\r\n            if (cneg) negative = !negative;\r\n            if (negative) {\r\n                sum = bsub(sum, term);\r\n            } else {\r\n                sum = badd(sum, term);\r\n            }\r\n        }\r\n\r\n        return sum;\r\n    }\r\n\r\n}",
  "sourcePath": "C:\\Users\\MayankVats\\Desktop\\WORK\\blockchain\\Royale\\royale-contracts\\contracts\\MathLib.sol",
  "compiler": {
    "name": "solc",
    "version": "0.6.12+commit.27d51765.Emscripten.clang"
  },
  "schemaVersion": "3.3.2",
  "updatedAt": "2020-12-03T07:30:37.585Z",
  "devdoc": {
    "kind": "dev",
    "methods": {},
    "version": 1
  },
  "userdoc": {
    "kind": "user",
    "methods": {},
    "version": 1
  }
}