{
  "contractName": "CurveStrategy",
  "abi": [
    {
      "inputs": [
        {
          "internalType": "address",
          "name": "_wallet",
          "type": "address"
        },
        {
          "internalType": "contract IERC20[3]",
          "name": "coins",
          "type": "address[3]"
        },
        {
          "internalType": "address",
          "name": "_royaleaddress",
          "type": "address"
        },
        {
          "internalType": "address",
          "name": "_crvpool",
          "type": "address"
        },
        {
          "internalType": "address",
          "name": "_poolToken",
          "type": "address"
        },
        {
          "internalType": "address",
          "name": "_gauge",
          "type": "address"
        },
        {
          "internalType": "address",
          "name": "_minter",
          "type": "address"
        }
      ],
      "stateMutability": "nonpayable",
      "type": "constructor"
    },
    {
      "inputs": [],
      "name": "DENOMINATOR",
      "outputs": [
        {
          "internalType": "uint256",
          "name": "",
          "type": "uint256"
        }
      ],
      "stateMutability": "view",
      "type": "function"
    },
    {
      "inputs": [],
      "name": "DepositSlip",
      "outputs": [
        {
          "internalType": "uint256",
          "name": "",
          "type": "uint256"
        }
      ],
      "stateMutability": "view",
      "type": "function"
    },
    {
      "inputs": [],
      "name": "TEST",
      "outputs": [
        {
          "internalType": "bool",
          "name": "",
          "type": "bool"
        }
      ],
      "stateMutability": "view",
      "type": "function"
    },
    {
      "inputs": [],
      "name": "crvAddr",
      "outputs": [
        {
          "internalType": "address",
          "name": "",
          "type": "address"
        }
      ],
      "stateMutability": "view",
      "type": "function"
    },
    {
      "inputs": [],
      "name": "crvBreak",
      "outputs": [
        {
          "internalType": "uint256",
          "name": "",
          "type": "uint256"
        }
      ],
      "stateMutability": "view",
      "type": "function"
    },
    {
      "inputs": [],
      "name": "feeDistributor",
      "outputs": [
        {
          "internalType": "contract FeeDistributor",
          "name": "",
          "type": "address"
        }
      ],
      "stateMutability": "view",
      "type": "function"
    },
    {
      "inputs": [],
      "name": "gauge",
      "outputs": [
        {
          "internalType": "contract PoolGauge",
          "name": "",
          "type": "address"
        }
      ],
      "stateMutability": "view",
      "type": "function"
    },
    {
      "inputs": [],
      "name": "minter",
      "outputs": [
        {
          "internalType": "contract Minter",
          "name": "",
          "type": "address"
        }
      ],
      "stateMutability": "view",
      "type": "function"
    },
    {
      "inputs": [],
      "name": "pool",
      "outputs": [
        {
          "internalType": "contract CurvePool",
          "name": "",
          "type": "address"
        }
      ],
      "stateMutability": "view",
      "type": "function"
    },
    {
      "inputs": [],
      "name": "uniAddr",
      "outputs": [
        {
          "internalType": "address",
          "name": "",
          "type": "address"
        }
      ],
      "stateMutability": "view",
      "type": "function"
    },
    {
      "inputs": [],
      "name": "virtualPrice",
      "outputs": [
        {
          "internalType": "uint256",
          "name": "",
          "type": "uint256"
        }
      ],
      "stateMutability": "view",
      "type": "function"
    },
    {
      "inputs": [],
      "name": "voteEscrow",
      "outputs": [
        {
          "internalType": "contract VoteEscrow",
          "name": "",
          "type": "address"
        }
      ],
      "stateMutability": "view",
      "type": "function"
    },
    {
      "inputs": [],
      "name": "wallet",
      "outputs": [
        {
          "internalType": "address",
          "name": "",
          "type": "address"
        }
      ],
      "stateMutability": "view",
      "type": "function"
    },
    {
      "inputs": [],
      "name": "wethAddr",
      "outputs": [
        {
          "internalType": "address",
          "name": "",
          "type": "address"
        }
      ],
      "stateMutability": "view",
      "type": "function"
    },
    {
      "inputs": [],
      "name": "withdrawSlip",
      "outputs": [
        {
          "internalType": "uint256",
          "name": "",
          "type": "uint256"
        }
      ],
      "stateMutability": "view",
      "type": "function"
    },
    {
      "inputs": [
        {
          "internalType": "uint256",
          "name": "_percentage",
          "type": "uint256"
        }
      ],
      "name": "setCRVBreak",
      "outputs": [],
      "stateMutability": "nonpayable",
      "type": "function"
    },
    {
      "inputs": [
        {
          "internalType": "address",
          "name": "_wallet",
          "type": "address"
        }
      ],
      "name": "transferOwnership",
      "outputs": [],
      "stateMutability": "nonpayable",
      "type": "function"
    },
    {
      "inputs": [
        {
          "internalType": "uint256[3]",
          "name": "amounts",
          "type": "uint256[3]"
        }
      ],
      "name": "deposit",
      "outputs": [],
      "stateMutability": "nonpayable",
      "type": "function"
    },
    {
      "inputs": [
        {
          "internalType": "uint256[3]",
          "name": "amounts",
          "type": "uint256[3]"
        }
      ],
      "name": "withdraw",
      "outputs": [],
      "stateMutability": "nonpayable",
      "type": "function"
    },
    {
      "inputs": [],
      "name": "withdrawAll",
      "outputs": [
        {
          "internalType": "uint256[3]",
          "name": "",
          "type": "uint256[3]"
        }
      ],
      "stateMutability": "nonpayable",
      "type": "function"
    },
    {
      "inputs": [],
      "name": "stakeLP",
      "outputs": [],
      "stateMutability": "nonpayable",
      "type": "function"
    },
    {
      "inputs": [
        {
          "internalType": "uint256",
          "name": "_amount",
          "type": "uint256"
        }
      ],
      "name": "unstakeLP",
      "outputs": [],
      "stateMutability": "nonpayable",
      "type": "function"
    },
    {
      "inputs": [],
      "name": "checkClaimableToken",
      "outputs": [
        {
          "internalType": "uint256",
          "name": "",
          "type": "uint256"
        }
      ],
      "stateMutability": "view",
      "type": "function"
    },
    {
      "inputs": [],
      "name": "claimCRV",
      "outputs": [],
      "stateMutability": "nonpayable",
      "type": "function"
    },
    {
      "inputs": [
        {
          "internalType": "uint256",
          "name": "_value",
          "type": "uint256"
        },
        {
          "internalType": "uint256",
          "name": "_unlockTime",
          "type": "uint256"
        }
      ],
      "name": "createLock",
      "outputs": [],
      "stateMutability": "nonpayable",
      "type": "function"
    },
    {
      "inputs": [
        {
          "internalType": "uint256",
          "name": "_value",
          "type": "uint256"
        }
      ],
      "name": "increaseLockAmount",
      "outputs": [],
      "stateMutability": "nonpayable",
      "type": "function"
    },
    {
      "inputs": [],
      "name": "releaseLock",
      "outputs": [],
      "stateMutability": "nonpayable",
      "type": "function"
    },
    {
      "inputs": [],
      "name": "claim3CRV",
      "outputs": [],
      "stateMutability": "nonpayable",
      "type": "function"
    },
    {
      "inputs": [
        {
          "internalType": "uint8",
          "name": "_index",
          "type": "uint8"
        }
      ],
      "name": "sellCRV",
      "outputs": [
        {
          "internalType": "uint256",
          "name": "",
          "type": "uint256"
        }
      ],
      "stateMutability": "nonpayable",
      "type": "function"
    },
    {
      "inputs": [],
      "name": "calculateProfit",
      "outputs": [
        {
          "internalType": "uint256",
          "name": "",
          "type": "uint256"
        },
        {
          "internalType": "bool",
          "name": "",
          "type": "bool"
        }
      ],
      "stateMutability": "view",
      "type": "function"
    },
    {
      "inputs": [],
      "name": "gaugeBoostCalculator",
      "outputs": [
        {
          "internalType": "uint256",
          "name": "",
          "type": "uint256"
        }
      ],
      "stateMutability": "view",
      "type": "function"
    }
  ],
  "bytecode": "0x60806040526064600a5560c8600b55612710600e556001601060006101000a81548160ff021916908315150217905550737a250d5630b4cf539739df2c5dacb4c659f2488d601060016101000a81548173ffffffffffffffffffffffffffffffffffffffff021916908373ffffffffffffffffffffffffffffffffffffffff160217905550735ddbdbb1d1e691d2994d4a44470eb07dfcbd57c3601160006101000a81548173ffffffffffffffffffffffffffffffffffffffff021916908373ffffffffffffffffffffffffffffffffffffffff16021790555073c02aaa39b223fe8d0a0e5c4f27ead9083c756cc2601260006101000a81548173ffffffffffffffffffffffffffffffffffffffff021916908373ffffffffffffffffffffffffffffffffffffffff1602179055503480156200013b57600080fd5b506040516200472b3803806200472b83398181016040526101208110156200016257600080fd5b8101908080519060200190929190919082606001805190602001909291908051906020019092919080519060200190929190805190602001909291908051906020019092919050505086600c60006101000a81548173ffffffffffffffffffffffffffffffffffffffff021916908373ffffffffffffffffffffffffffffffffffffffff160217905550856002906003620001ff92919062000351565b50846000806101000a81548173ffffffffffffffffffffffffffffffffffffffff021916908373ffffffffffffffffffffffffffffffffffffffff16021790555083600560006101000a81548173ffffffffffffffffffffffffffffffffffffffff021916908373ffffffffffffffffffffffffffffffffffffffff16021790555082600160006101000a81548173ffffffffffffffffffffffffffffffffffffffff021916908373ffffffffffffffffffffffffffffffffffffffff16021790555081600660006101000a81548173ffffffffffffffffffffffffffffffffffffffff021916908373ffffffffffffffffffffffffffffffffffffffff16021790555080600760006101000a81548173ffffffffffffffffffffffffffffffffffffffff021916908373ffffffffffffffffffffffffffffffffffffffff1602179055505050505050505062000410565b8260038101928215620003c0579160200282015b82811115620003bf5782518260006101000a81548173ffffffffffffffffffffffffffffffffffffffff021916908373ffffffffffffffffffffffffffffffffffffffff1602179055509160200191906001019062000365565b5b509050620003cf9190620003d3565b5090565b5b808211156200040c57600081816101000a81549073ffffffffffffffffffffffffffffffffffffffff021916905550600101620003d4565b5090565b61430b80620004206000396000f3fe608060405234801561001057600080fd5b50600436106101e55760003560e01c80637d5aa5f41161010f578063c4778998116100a2578063eda54ad211610071578063eda54ad2146106db578063f166f3e8146106e5578063f2fde38b146106ef578063f87bf3ca14610733576101e5565b8063c47789981461060c578063d3639ae31461063a578063d4e20b0114610658578063dbbcbd3d146106bd576101e5565b8063918f8674116100de578063918f86741461051d578063a6f19c841461053b578063b1b8f1be1461056f578063b52c05fe146105d4576101e5565b80637d5aa5f414610451578063853828b6146104855780638ea875f3146104cb5780639019a285146104e9576101e5565b80634df50a55116101875780636b944998116101565780636b944998146103865780636e75702e146103cb57806374b21fbe146103e95780637b158f381461041d576101e5565b80634df50a55146102e657806351d977a614610314578063521eb273146103345780636009314f14610368576101e5565b806316f0115b116101c357806316f0115b1461025c5780633557ea1e14610290578063403f4447146102ae57806348f8f6d9146102dc576101e5565b806307546172146101ea5780630d43e8ad1461021e57806310ff582d14610252575b600080fd5b6101f261075a565b604051808273ffffffffffffffffffffffffffffffffffffffff16815260200191505060405180910390f35b610226610780565b604051808273ffffffffffffffffffffffffffffffffffffffff16815260200191505060405180910390f35b61025a6107a6565b005b610264610b08565b604051808273ffffffffffffffffffffffffffffffffffffffff16815260200191505060405180910390f35b610298610b2e565b6040518082815260200191505060405180910390f35b6102da600480360360208110156102c457600080fd5b8101908080359060200190929190505050610b34565b005b6102e4610dce565b005b610312600480360360208110156102fc57600080fd5b8101908080359060200190929190505050610fae565b005b61031c6110d1565b60405180821515815260200191505060405180910390f35b61033c6110e4565b604051808273ffffffffffffffffffffffffffffffffffffffff16815260200191505060405180910390f35b61037061110a565b6040518082815260200191505060405180910390f35b6103b56004803603602081101561039c57600080fd5b81019080803560ff169060200190929190505050611450565b6040518082815260200191505060405180910390f35b6103d3611d6b565b6040518082815260200191505060405180910390f35b6103f1611d71565b604051808273ffffffffffffffffffffffffffffffffffffffff16815260200191505060405180910390f35b610425611d97565b604051808273ffffffffffffffffffffffffffffffffffffffff16815260200191505060405180910390f35b610459611dbd565b604051808273ffffffffffffffffffffffffffffffffffffffff16815260200191505060405180910390f35b61048d611de3565b6040518082600360200280838360005b838110156104b857808201518184015260208101905061049d565b5050505090500191505060405180910390f35b6104d3612404565b6040518082815260200191505060405180910390f35b6104f161240a565b604051808273ffffffffffffffffffffffffffffffffffffffff16815260200191505060405180910390f35b610525612430565b6040518082815260200191505060405180910390f35b610543612436565b604051808273ffffffffffffffffffffffffffffffffffffffff16815260200191505060405180910390f35b6105d26004803603606081101561058557600080fd5b8101908080606001906003806020026040519081016040528092919082600360200280828437600081840152601f19601f820116905080830192505050505050919291929050505061245c565b005b61060a600480360360408110156105ea57600080fd5b810190808035906020019092919080359060200190929190505050612a60565b005b6106386004803603602081101561062257600080fd5b8101908080359060200190929190505050612d03565b005b610642612fc8565b6040518082815260200191505060405180910390f35b6106bb6004803603606081101561066e57600080fd5b8101908080606001906003806020026040519081016040528092919082600360200280828437600081840152601f19601f8201169050808301925050505050509192919290505050613093565b005b6106c5613699565b6040518082815260200191505060405180910390f35b6106e361369f565b005b6106ed61383c565b005b6107316004803603602081101561070557600080fd5b81019080803573ffffffffffffffffffffffffffffffffffffffff1690602001909291905050506139d9565b005b61073b613b36565b6040518083815260200182151581526020019250505060405180910390f35b600760009054906101000a900473ffffffffffffffffffffffffffffffffffffffff1681565b600960009054906101000a900473ffffffffffffffffffffffffffffffffffffffff1681565b3373ffffffffffffffffffffffffffffffffffffffff16600c60009054906101000a900473ffffffffffffffffffffffffffffffffffffffff1673ffffffffffffffffffffffffffffffffffffffff16148061084d575060008054906101000a900473ffffffffffffffffffffffffffffffffffffffff1673ffffffffffffffffffffffffffffffffffffffff163373ffffffffffffffffffffffffffffffffffffffff16145b6108bf576040517f08c379a000000000000000000000000000000000000000000000000000000000815260040180806020018281038252600e8152602001807f4e6f7420617574686f72697a656400000000000000000000000000000000000081525060200191505060405180910390fd5b6000600160009054906101000a900473ffffffffffffffffffffffffffffffffffffffff1673ffffffffffffffffffffffffffffffffffffffff166370a08231306040518263ffffffff1660e01b8152600401808273ffffffffffffffffffffffffffffffffffffffff16815260200191505060206040518083038186803b15801561094a57600080fd5b505afa15801561095e573d6000803e3d6000fd5b505050506040513d602081101561097457600080fd5b81019080805190602001909291905050509050600160009054906101000a900473ffffffffffffffffffffffffffffffffffffffff1673ffffffffffffffffffffffffffffffffffffffff1663095ea7b3600660009054906101000a900473ffffffffffffffffffffffffffffffffffffffff16836040518363ffffffff1660e01b8152600401808373ffffffffffffffffffffffffffffffffffffffff16815260200182815260200192505050602060405180830381600087803b158015610a3c57600080fd5b505af1158015610a50573d6000803e3d6000fd5b505050506040513d6020811015610a6657600080fd5b810190808051906020019092919050505050600660009054906101000a900473ffffffffffffffffffffffffffffffffffffffff1673ffffffffffffffffffffffffffffffffffffffff1663b6b55f25826040518263ffffffff1660e01b815260040180828152602001915050600060405180830381600087803b158015610aed57600080fd5b505af1158015610b01573d6000803e3d6000fd5b5050505050565b600560009054906101000a900473ffffffffffffffffffffffffffffffffffffffff1681565b600a5481565b3373ffffffffffffffffffffffffffffffffffffffff16600c60009054906101000a900473ffffffffffffffffffffffffffffffffffffffff1673ffffffffffffffffffffffffffffffffffffffff161480610bdb575060008054906101000a900473ffffffffffffffffffffffffffffffffffffffff1673ffffffffffffffffffffffffffffffffffffffff163373ffffffffffffffffffffffffffffffffffffffff16145b610c4d576040517f08c379a000000000000000000000000000000000000000000000000000000000815260040180806020018281038252600e8152602001807f4e6f7420617574686f72697a656400000000000000000000000000000000000081525060200191505060405180910390fd5b601160009054906101000a900473ffffffffffffffffffffffffffffffffffffffff1673ffffffffffffffffffffffffffffffffffffffff1663095ea7b3600860009054906101000a900473ffffffffffffffffffffffffffffffffffffffff16836040518363ffffffff1660e01b8152600401808373ffffffffffffffffffffffffffffffffffffffff16815260200182815260200192505050602060405180830381600087803b158015610d0257600080fd5b505af1158015610d16573d6000803e3d6000fd5b505050506040513d6020811015610d2c57600080fd5b810190808051906020019092919050505050600860009054906101000a900473ffffffffffffffffffffffffffffffffffffffff1673ffffffffffffffffffffffffffffffffffffffff16634957677c826040518263ffffffff1660e01b815260040180828152602001915050600060405180830381600087803b158015610db357600080fd5b505af1158015610dc7573d6000803e3d6000fd5b5050505050565b3373ffffffffffffffffffffffffffffffffffffffff16600c60009054906101000a900473ffffffffffffffffffffffffffffffffffffffff1673ffffffffffffffffffffffffffffffffffffffff161480610e75575060008054906101000a900473ffffffffffffffffffffffffffffffffffffffff1673ffffffffffffffffffffffffffffffffffffffff163373ffffffffffffffffffffffffffffffffffffffff16145b610ee7576040517f08c379a000000000000000000000000000000000000000000000000000000000815260040180806020018281038252600e8152602001807f4e6f7420617574686f72697a656400000000000000000000000000000000000081525060200191505060405180910390fd5b600760009054906101000a900473ffffffffffffffffffffffffffffffffffffffff1673ffffffffffffffffffffffffffffffffffffffff16636a627842600660009054906101000a900473ffffffffffffffffffffffffffffffffffffffff166040518263ffffffff1660e01b8152600401808273ffffffffffffffffffffffffffffffffffffffff168152602001915050600060405180830381600087803b158015610f9457600080fd5b505af1158015610fa8573d6000803e3d6000fd5b50505050565b3373ffffffffffffffffffffffffffffffffffffffff16600c60009054906101000a900473ffffffffffffffffffffffffffffffffffffffff1673ffffffffffffffffffffffffffffffffffffffff161480611055575060008054906101000a900473ffffffffffffffffffffffffffffffffffffffff1673ffffffffffffffffffffffffffffffffffffffff163373ffffffffffffffffffffffffffffffffffffffff16145b6110c7576040517f08c379a000000000000000000000000000000000000000000000000000000000815260040180806020018281038252600e8152602001807f4e6f7420617574686f72697a656400000000000000000000000000000000000081525060200191505060405180910390fd5b80600e8190555050565b601060009054906101000a900460ff1681565b600c60009054906101000a900473ffffffffffffffffffffffffffffffffffffffff1681565b6000806114476111c6603c600660009054906101000a900473ffffffffffffffffffffffffffffffffffffffff1673ffffffffffffffffffffffffffffffffffffffff166318160ddd6040518163ffffffff1660e01b815260040160206040518083038186803b15801561117d57600080fd5b505afa158015611191573d6000803e3d6000fd5b505050506040513d60208110156111a757600080fd5b8101908080519060200190929190505050613f4690919063ffffffff16565b611439600860009054906101000a900473ffffffffffffffffffffffffffffffffffffffff1673ffffffffffffffffffffffffffffffffffffffff166318160ddd6040518163ffffffff1660e01b815260040160206040518083038186803b15801561123157600080fd5b505afa158015611245573d6000803e3d6000fd5b505050506040513d602081101561125b57600080fd5b810190808051906020019092919050505061142b6113466028600660009054906101000a900473ffffffffffffffffffffffffffffffffffffffff1673ffffffffffffffffffffffffffffffffffffffff166370a08231306040518263ffffffff1660e01b8152600401808273ffffffffffffffffffffffffffffffffffffffff16815260200191505060206040518083038186803b1580156112fd57600080fd5b505afa158015611311573d6000803e3d6000fd5b505050506040513d602081101561132757600080fd5b8101908080519060200190929190505050613f4690919063ffffffff16565b61141d6064600660009054906101000a900473ffffffffffffffffffffffffffffffffffffffff1673ffffffffffffffffffffffffffffffffffffffff166370a08231306040518263ffffffff1660e01b8152600401808273ffffffffffffffffffffffffffffffffffffffff16815260200191505060206040518083038186803b1580156113d457600080fd5b505afa1580156113e8573d6000803e3d6000fd5b505050506040513d60208110156113fe57600080fd5b8101908080519060200190929190505050613f4690919063ffffffff16565b613fcc90919063ffffffff16565b613f4690919063ffffffff16565b61401690919063ffffffff16565b90508091505090565b60003373ffffffffffffffffffffffffffffffffffffffff16600c60009054906101000a900473ffffffffffffffffffffffffffffffffffffffff1673ffffffffffffffffffffffffffffffffffffffff1614806114f9575060008054906101000a900473ffffffffffffffffffffffffffffffffffffffff1673ffffffffffffffffffffffffffffffffffffffff163373ffffffffffffffffffffffffffffffffffffffff16145b61156b576040517f08c379a000000000000000000000000000000000000000000000000000000000815260040180806020018281038252600e8152602001807f4e6f7420617574686f72697a656400000000000000000000000000000000000081525060200191505060405180910390fd5b6000601160009054906101000a900473ffffffffffffffffffffffffffffffffffffffff1673ffffffffffffffffffffffffffffffffffffffff166370a08231306040518263ffffffff1660e01b8152600401808273ffffffffffffffffffffffffffffffffffffffff16815260200191505060206040518083038186803b1580156115f657600080fd5b505afa15801561160a573d6000803e3d6000fd5b505050506040513d602081101561162057600080fd5b81019080805190602001909291905050509050600060028460ff166003811061164557fe5b0160009054906101000a900473ffffffffffffffffffffffffffffffffffffffff1673ffffffffffffffffffffffffffffffffffffffff166370a08231306040518263ffffffff1660e01b8152600401808273ffffffffffffffffffffffffffffffffffffffff16815260200191505060206040518083038186803b1580156116cd57600080fd5b505afa1580156116e1573d6000803e3d6000fd5b505050506040513d60208110156116f757600080fd5b8101908080519060200190929190505050905060008211611780576040517f08c379a00000000000000000000000000000000000000000000000000000000081526004018080602001828103825260108152602001807f696e73756666696369656e74204352560000000000000000000000000000000081525060200191505060405180910390fd5b6117a961271061179b600e5485613f4690919063ffffffff16565b61401690919063ffffffff16565b9150601160009054906101000a900473ffffffffffffffffffffffffffffffffffffffff1673ffffffffffffffffffffffffffffffffffffffff1663095ea7b3601060019054906101000a900473ffffffffffffffffffffffffffffffffffffffff16846040518363ffffffff1660e01b8152600401808373ffffffffffffffffffffffffffffffffffffffff16815260200182815260200192505050602060405180830381600087803b15801561186057600080fd5b505af1158015611874573d6000803e3d6000fd5b505050506040513d602081101561188a57600080fd5b8101908080519060200190929190505050506060601060009054906101000a900460ff16156119e557600267ffffffffffffffff811180156118cb57600080fd5b506040519080825280602002602001820160405280156118fa5781602001602082028036833780820191505090505b509050601160009054906101000a900473ffffffffffffffffffffffffffffffffffffffff168160008151811061192d57fe5b602002602001019073ffffffffffffffffffffffffffffffffffffffff16908173ffffffffffffffffffffffffffffffffffffffff168152505060028560ff166003811061197757fe5b0160009054906101000a900473ffffffffffffffffffffffffffffffffffffffff16816001815181106119a657fe5b602002602001019073ffffffffffffffffffffffffffffffffffffffff16908173ffffffffffffffffffffffffffffffffffffffff1681525050611b7d565b600367ffffffffffffffff811180156119fd57600080fd5b50604051908082528060200260200182016040528015611a2c5781602001602082028036833780820191505090505b509050601160009054906101000a900473ffffffffffffffffffffffffffffffffffffffff1681600081518110611a5f57fe5b602002602001019073ffffffffffffffffffffffffffffffffffffffff16908173ffffffffffffffffffffffffffffffffffffffff1681525050601260009054906101000a900473ffffffffffffffffffffffffffffffffffffffff1681600181518110611ac957fe5b602002602001019073ffffffffffffffffffffffffffffffffffffffff16908173ffffffffffffffffffffffffffffffffffffffff168152505060028560ff1660038110611b1357fe5b0160009054906101000a900473ffffffffffffffffffffffffffffffffffffffff1681600281518110611b4257fe5b602002602001019073ffffffffffffffffffffffffffffffffffffffff16908173ffffffffffffffffffffffffffffffffffffffff16815250505b601060019054906101000a900473ffffffffffffffffffffffffffffffffffffffff1673ffffffffffffffffffffffffffffffffffffffff166338ed1739846000843061070842016040518663ffffffff1660e01b815260040180868152602001858152602001806020018473ffffffffffffffffffffffffffffffffffffffff168152602001838152602001828103825285818151815260200191508051906020019060200280838360005b83811015611c45578082015181840152602081019050611c2a565b505050509050019650505050505050600060405180830381600087803b158015611c6e57600080fd5b505af1158015611c82573d6000803e3d6000fd5b50505050600060028660ff1660038110611c9857fe5b0160009054906101000a900473ffffffffffffffffffffffffffffffffffffffff1673ffffffffffffffffffffffffffffffffffffffff166370a08231306040518263ffffffff1660e01b8152600401808273ffffffffffffffffffffffffffffffffffffffff16815260200191505060206040518083038186803b158015611d2057600080fd5b505afa158015611d34573d6000803e3d6000fd5b505050506040513d6020811015611d4a57600080fd5b81019080805190602001909291905050509050828103945050505050919050565b600b5481565b601160009054906101000a900473ffffffffffffffffffffffffffffffffffffffff1681565b601060019054906101000a900473ffffffffffffffffffffffffffffffffffffffff1681565b601260009054906101000a900473ffffffffffffffffffffffffffffffffffffffff1681565b611deb61426e565b60008054906101000a900473ffffffffffffffffffffffffffffffffffffffff1673ffffffffffffffffffffffffffffffffffffffff163373ffffffffffffffffffffffffffffffffffffffff161480611e43575060015b611eb5576040517f08c379a000000000000000000000000000000000000000000000000000000000815260040180806020018281038252600e8152602001807f4e6f7420617574686f72697a656400000000000000000000000000000000000081525060200191505060405180910390fd5b611f81600660009054906101000a900473ffffffffffffffffffffffffffffffffffffffff1673ffffffffffffffffffffffffffffffffffffffff166370a08231306040518263ffffffff1660e01b8152600401808273ffffffffffffffffffffffffffffffffffffffff16815260200191505060206040518083038186803b158015611f4157600080fd5b505afa158015611f55573d6000803e3d6000fd5b505050506040513d6020811015611f6b57600080fd5b8101908080519060200190929190505050612d03565b611f8961426e565b600560009054906101000a900473ffffffffffffffffffffffffffffffffffffffff1673ffffffffffffffffffffffffffffffffffffffff1663ecb586a5600160009054906101000a900473ffffffffffffffffffffffffffffffffffffffff1673ffffffffffffffffffffffffffffffffffffffff166370a08231306040518263ffffffff1660e01b8152600401808273ffffffffffffffffffffffffffffffffffffffff16815260200191505060206040518083038186803b15801561205057600080fd5b505afa158015612064573d6000803e3d6000fd5b505050506040513d602081101561207a57600080fd5b8101908080519060200190929190505050836040518363ffffffff1660e01b81526004018083815260200182600360200280838360005b838110156120cc5780820151818401526020810190506120b1565b5050505090500192505050600060405180830381600087803b1580156120f157600080fd5b505af1158015612105573d6000803e3d6000fd5b5050505060005b60038160ff1610156123fc57600060028260ff166003811061212a57fe5b0160009054906101000a900473ffffffffffffffffffffffffffffffffffffffff1673ffffffffffffffffffffffffffffffffffffffff166370a08231306040518263ffffffff1660e01b8152600401808273ffffffffffffffffffffffffffffffffffffffff16815260200191505060206040518083038186803b1580156121b257600080fd5b505afa1580156121c6573d6000803e3d6000fd5b505050506040513d60208110156121dc57600080fd5b8101908080519060200190929190505050146123ef5760028160ff166003811061220257fe5b0160009054906101000a900473ffffffffffffffffffffffffffffffffffffffff1673ffffffffffffffffffffffffffffffffffffffff166370a08231306040518263ffffffff1660e01b8152600401808273ffffffffffffffffffffffffffffffffffffffff16815260200191505060206040518083038186803b15801561228a57600080fd5b505afa15801561229e573d6000803e3d6000fd5b505050506040513d60208110156122b457600080fd5b8101908080519060200190929190505050828260ff16600381106122d457fe5b60200201818152505060028160ff16600381106122ed57fe5b0160009054906101000a900473ffffffffffffffffffffffffffffffffffffffff1673ffffffffffffffffffffffffffffffffffffffff1663a9059cbb60008054906101000a900473ffffffffffffffffffffffffffffffffffffffff16848460ff166003811061235a57fe5b60200201516040518363ffffffff1660e01b8152600401808373ffffffffffffffffffffffffffffffffffffffff16815260200182815260200192505050602060405180830381600087803b1580156123b257600080fd5b505af11580156123c6573d6000803e3d6000fd5b505050506040513d60208110156123dc57600080fd5b8101908080519060200190929190505050505b808060010191505061210c565b508091505090565b600f5481565b600860009054906101000a900473ffffffffffffffffffffffffffffffffffffffff1681565b61271081565b600660009054906101000a900473ffffffffffffffffffffffffffffffffffffffff1681565b60008054906101000a900473ffffffffffffffffffffffffffffffffffffffff1673ffffffffffffffffffffffffffffffffffffffff163373ffffffffffffffffffffffffffffffffffffffff1614806124b4575060015b612526576040517f08c379a000000000000000000000000000000000000000000000000000000000815260040180806020018281038252600e8152602001807f4e6f7420617574686f72697a656400000000000000000000000000000000000081525060200191505060405180910390fd5b60008060005b60038160ff161015612670576000848260ff166003811061254957fe5b602002015111156126635760028160ff166003811061256457fe5b0160009054906101000a900473ffffffffffffffffffffffffffffffffffffffff1673ffffffffffffffffffffffffffffffffffffffff1663313ce5676040518163ffffffff1660e01b815260040160206040518083038186803b1580156125cb57600080fd5b505afa1580156125df573d6000803e3d6000fd5b505050506040513d60208110156125f557600080fd5b810190808051906020019092919050505060ff16925061266061265184600a0a612643670de0b6b3a7640000888660ff166003811061263057fe5b6020020151613f4690919063ffffffff16565b61401690919063ffffffff16565b8361406090919063ffffffff16565b91505b808060010191505061252c565b506000612742600560009054906101000a900473ffffffffffffffffffffffffffffffffffffffff1673ffffffffffffffffffffffffffffffffffffffff1663bb7b8b806040518163ffffffff1660e01b815260040160206040518083038186803b1580156126de57600080fd5b505afa1580156126f2573d6000803e3d6000fd5b505050506040513d602081101561270857600080fd5b8101908080519060200190929190505050612734670de0b6b3a764000085613f4690919063ffffffff16565b61401690919063ffffffff16565b9050612781612710612773612764600b5461271061406090919063ffffffff16565b84613f4690919063ffffffff16565b61401690919063ffffffff16565b905061278c81612d03565b600560009054906101000a900473ffffffffffffffffffffffffffffffffffffffff1673ffffffffffffffffffffffffffffffffffffffff16639fdaea0c85836040518363ffffffff1660e01b81526004018083600360200280838360005b838110156128065780820151818401526020810190506127eb565b5050505090500182815260200192505050600060405180830381600087803b15801561283157600080fd5b505af1158015612845573d6000803e3d6000fd5b5050505060005b60038160ff161015612a51576000858260ff166003811061286957fe5b602002015114612a445760028160ff166003811061288357fe5b0160009054906101000a900473ffffffffffffffffffffffffffffffffffffffff1673ffffffffffffffffffffffffffffffffffffffff1663a9059cbb60008054906101000a900473ffffffffffffffffffffffffffffffffffffffff1660028460ff16600381106128f157fe5b0160009054906101000a900473ffffffffffffffffffffffffffffffffffffffff1673ffffffffffffffffffffffffffffffffffffffff166370a08231306040518263ffffffff1660e01b8152600401808273ffffffffffffffffffffffffffffffffffffffff16815260200191505060206040518083038186803b15801561297957600080fd5b505afa15801561298d573d6000803e3d6000fd5b505050506040513d60208110156129a357600080fd5b81019080805190602001909291905050506040518363ffffffff1660e01b8152600401808373ffffffffffffffffffffffffffffffffffffffff16815260200182815260200192505050602060405180830381600087803b158015612a0757600080fd5b505af1158015612a1b573d6000803e3d6000fd5b505050506040513d6020811015612a3157600080fd5b8101908080519060200190929190505050505b808060010191505061284c565b50612a5a6107a6565b50505050565b3373ffffffffffffffffffffffffffffffffffffffff16600c60009054906101000a900473ffffffffffffffffffffffffffffffffffffffff1673ffffffffffffffffffffffffffffffffffffffff161480612b07575060008054906101000a900473ffffffffffffffffffffffffffffffffffffffff1673ffffffffffffffffffffffffffffffffffffffff163373ffffffffffffffffffffffffffffffffffffffff16145b612b79576040517f08c379a000000000000000000000000000000000000000000000000000000000815260040180806020018281038252600e8152602001807f4e6f7420617574686f72697a656400000000000000000000000000000000000081525060200191505060405180910390fd5b601160009054906101000a900473ffffffffffffffffffffffffffffffffffffffff1673ffffffffffffffffffffffffffffffffffffffff1663095ea7b3600860009054906101000a900473ffffffffffffffffffffffffffffffffffffffff16846040518363ffffffff1660e01b8152600401808373ffffffffffffffffffffffffffffffffffffffff16815260200182815260200192505050602060405180830381600087803b158015612c2e57600080fd5b505af1158015612c42573d6000803e3d6000fd5b505050506040513d6020811015612c5857600080fd5b810190808051906020019092919050505050600860009054906101000a900473ffffffffffffffffffffffffffffffffffffffff1673ffffffffffffffffffffffffffffffffffffffff166365fc387383836040518363ffffffff1660e01b81526004018083815260200182815260200192505050600060405180830381600087803b158015612ce757600080fd5b505af1158015612cfb573d6000803e3d6000fd5b505050505050565b3373ffffffffffffffffffffffffffffffffffffffff16600c60009054906101000a900473ffffffffffffffffffffffffffffffffffffffff1673ffffffffffffffffffffffffffffffffffffffff161480612daa575060008054906101000a900473ffffffffffffffffffffffffffffffffffffffff1673ffffffffffffffffffffffffffffffffffffffff163373ffffffffffffffffffffffffffffffffffffffff16145b612e1c576040517f08c379a000000000000000000000000000000000000000000000000000000000815260040180806020018281038252600e8152602001807f4e6f7420617574686f72697a656400000000000000000000000000000000000081525060200191505060405180910390fd5b80600660009054906101000a900473ffffffffffffffffffffffffffffffffffffffff1673ffffffffffffffffffffffffffffffffffffffff166370a08231306040518263ffffffff1660e01b8152600401808273ffffffffffffffffffffffffffffffffffffffff16815260200191505060206040518083038186803b158015612ea657600080fd5b505afa158015612eba573d6000803e3d6000fd5b505050506040513d6020811015612ed057600080fd5b81019080805190602001909291905050501015612f38576040517f08c379a00000000000000000000000000000000000000000000000000000000081526004018080602001828103825260248152602001806142b26024913960400191505060405180910390fd5b600660009054906101000a900473ffffffffffffffffffffffffffffffffffffffff1673ffffffffffffffffffffffffffffffffffffffff16632e1a7d4d826040518263ffffffff1660e01b815260040180828152602001915050600060405180830381600087803b158015612fad57600080fd5b505af1158015612fc1573d6000803e3d6000fd5b5050505050565b6000600660009054906101000a900473ffffffffffffffffffffffffffffffffffffffff1673ffffffffffffffffffffffffffffffffffffffff166333134583306040518263ffffffff1660e01b8152600401808273ffffffffffffffffffffffffffffffffffffffff16815260200191505060206040518083038186803b15801561305357600080fd5b505afa158015613067573d6000803e3d6000fd5b505050506040513d602081101561307d57600080fd5b8101908080519060200190929190505050905090565b60008054906101000a900473ffffffffffffffffffffffffffffffffffffffff1673ffffffffffffffffffffffffffffffffffffffff163373ffffffffffffffffffffffffffffffffffffffff1614806130eb575060015b61315d576040517f08c379a000000000000000000000000000000000000000000000000000000000815260040180806020018281038252600e8152602001807f4e6f7420617574686f72697a656400000000000000000000000000000000000081525060200191505060405180910390fd5b600080600090505b60038160ff1610156133bf576000838260ff166003811061318257fe5b602002015111156133b257600060028260ff166003811061319f57fe5b0160009054906101000a900473ffffffffffffffffffffffffffffffffffffffff1673ffffffffffffffffffffffffffffffffffffffff1663313ce5676040518163ffffffff1660e01b815260040160206040518083038186803b15801561320657600080fd5b505afa15801561321a573d6000803e3d6000fd5b505050506040513d602081101561323057600080fd5b810190808051906020019092919050505060ff16905060028260ff166003811061325657fe5b0160009054906101000a900473ffffffffffffffffffffffffffffffffffffffff1673ffffffffffffffffffffffffffffffffffffffff1663095ea7b3600560009054906101000a900473ffffffffffffffffffffffffffffffffffffffff16868560ff16600381106132c557fe5b60200201516040518363ffffffff1660e01b8152600401808373ffffffffffffffffffffffffffffffffffffffff16815260200182815260200192505050602060405180830381600087803b15801561331d57600080fd5b505af1158015613331573d6000803e3d6000fd5b505050506040513d602081101561334757600080fd5b8101908080519060200190929190505050506133ae61339f82600a0a613391670de0b6b3a7640000888760ff166003811061337e57fe5b6020020151613f4690919063ffffffff16565b61401690919063ffffffff16565b8461406090919063ffffffff16565b9250505b8080600101915050613165565b506000806133cb613b36565b809250819350505080156133f9576133ee82600d5461406090919063ffffffff16565b600d81905550613415565b61340e82600d54613fcc90919063ffffffff16565b600d819055505b60006134e6600560009054906101000a900473ffffffffffffffffffffffffffffffffffffffff1673ffffffffffffffffffffffffffffffffffffffff1663bb7b8b806040518163ffffffff1660e01b815260040160206040518083038186803b15801561348257600080fd5b505afa158015613496573d6000803e3d6000fd5b505050506040513d60208110156134ac57600080fd5b81019080805190602001909291905050506134d8670de0b6b3a764000087613f4690919063ffffffff16565b61401690919063ffffffff16565b9050600560009054906101000a900473ffffffffffffffffffffffffffffffffffffffff1673ffffffffffffffffffffffffffffffffffffffff16634515cef386613564612710613556613547600a54612710613fcc90919063ffffffff16565b87613f4690919063ffffffff16565b61401690919063ffffffff16565b6040518363ffffffff1660e01b81526004018083600360200280838360005b8381101561359e578082015181840152602081019050613583565b5050505090500182815260200192505050600060405180830381600087803b1580156135c957600080fd5b505af11580156135dd573d6000803e3d6000fd5b50505050600560009054906101000a900473ffffffffffffffffffffffffffffffffffffffff1673ffffffffffffffffffffffffffffffffffffffff1663bb7b8b806040518163ffffffff1660e01b815260040160206040518083038186803b15801561364957600080fd5b505afa15801561365d573d6000803e3d6000fd5b505050506040513d602081101561367357600080fd5b8101908080519060200190929190505050600f819055506136926107a6565b5050505050565b600e5481565b3373ffffffffffffffffffffffffffffffffffffffff16600c60009054906101000a900473ffffffffffffffffffffffffffffffffffffffff1673ffffffffffffffffffffffffffffffffffffffff161480613746575060008054906101000a900473ffffffffffffffffffffffffffffffffffffffff1673ffffffffffffffffffffffffffffffffffffffff163373ffffffffffffffffffffffffffffffffffffffff16145b6137b8576040517f08c379a000000000000000000000000000000000000000000000000000000000815260040180806020018281038252600e8152602001807f4e6f7420617574686f72697a656400000000000000000000000000000000000081525060200191505060405180910390fd5b600860009054906101000a900473ffffffffffffffffffffffffffffffffffffffff1673ffffffffffffffffffffffffffffffffffffffff16633ccfd60b6040518163ffffffff1660e01b8152600401600060405180830381600087803b15801561382257600080fd5b505af1158015613836573d6000803e3d6000fd5b50505050565b3373ffffffffffffffffffffffffffffffffffffffff16600c60009054906101000a900473ffffffffffffffffffffffffffffffffffffffff1673ffffffffffffffffffffffffffffffffffffffff1614806138e3575060008054906101000a900473ffffffffffffffffffffffffffffffffffffffff1673ffffffffffffffffffffffffffffffffffffffff163373ffffffffffffffffffffffffffffffffffffffff16145b613955576040517f08c379a000000000000000000000000000000000000000000000000000000000815260040180806020018281038252600e8152602001807f4e6f7420617574686f72697a656400000000000000000000000000000000000081525060200191505060405180910390fd5b600960009054906101000a900473ffffffffffffffffffffffffffffffffffffffff1673ffffffffffffffffffffffffffffffffffffffff16634e71d92d6040518163ffffffff1660e01b8152600401600060405180830381600087803b1580156139bf57600080fd5b505af11580156139d3573d6000803e3d6000fd5b50505050565b3373ffffffffffffffffffffffffffffffffffffffff16600c60009054906101000a900473ffffffffffffffffffffffffffffffffffffffff1673ffffffffffffffffffffffffffffffffffffffff161480613a80575060008054906101000a900473ffffffffffffffffffffffffffffffffffffffff1673ffffffffffffffffffffffffffffffffffffffff163373ffffffffffffffffffffffffffffffffffffffff16145b613af2576040517f08c379a000000000000000000000000000000000000000000000000000000000815260040180806020018281038252600e8152602001807f4e6f7420617574686f72697a656400000000000000000000000000000000000081525060200191505060405180910390fd5b80600c60006101000a81548173ffffffffffffffffffffffffffffffffffffffff021916908373ffffffffffffffffffffffffffffffffffffffff16021790555050565b600080600f54600560009054906101000a900473ffffffffffffffffffffffffffffffffffffffff1673ffffffffffffffffffffffffffffffffffffffff1663bb7b8b806040518163ffffffff1660e01b815260040160206040518083038186803b158015613ba457600080fd5b505afa158015613bb8573d6000803e3d6000fd5b505050506040513d6020811015613bce57600080fd5b810190808051906020019092919050505010613d9557613d8a670de0b6b3a7640000613d7c613caa600f54600560009054906101000a900473ffffffffffffffffffffffffffffffffffffffff1673ffffffffffffffffffffffffffffffffffffffff1663bb7b8b806040518163ffffffff1660e01b815260040160206040518083038186803b158015613c6157600080fd5b505afa158015613c75573d6000803e3d6000fd5b505050506040513d6020811015613c8b57600080fd5b8101908080519060200190929190505050613fcc90919063ffffffff16565b600660009054906101000a900473ffffffffffffffffffffffffffffffffffffffff1673ffffffffffffffffffffffffffffffffffffffff166370a08231306040518263ffffffff1660e01b8152600401808273ffffffffffffffffffffffffffffffffffffffff16815260200191505060206040518083038186803b158015613d3357600080fd5b505afa158015613d47573d6000803e3d6000fd5b505050506040513d6020811015613d5d57600080fd5b8101908080519060200190929190505050613f4690919063ffffffff16565b61401690919063ffffffff16565b600191509150613f42565b613f3b670de0b6b3a7640000613f2d613e5b600560009054906101000a900473ffffffffffffffffffffffffffffffffffffffff1673ffffffffffffffffffffffffffffffffffffffff1663bb7b8b806040518163ffffffff1660e01b815260040160206040518083038186803b158015613e0f57600080fd5b505afa158015613e23573d6000803e3d6000fd5b505050506040513d6020811015613e3957600080fd5b8101908080519060200190929190505050600f54613fcc90919063ffffffff16565b600660009054906101000a900473ffffffffffffffffffffffffffffffffffffffff1673ffffffffffffffffffffffffffffffffffffffff166370a08231306040518263ffffffff1660e01b8152600401808273ffffffffffffffffffffffffffffffffffffffff16815260200191505060206040518083038186803b158015613ee457600080fd5b505afa158015613ef8573d6000803e3d6000fd5b505050506040513d6020811015613f0e57600080fd5b8101908080519060200190929190505050613f4690919063ffffffff16565b61401690919063ffffffff16565b6000915091505b9091565b600080831415613f595760009050613fc6565b6000828402905082848281613f6a57fe5b0414613fc1576040517f08c379a00000000000000000000000000000000000000000000000000000000081526004018080602001828103825260218152602001806142916021913960400191505060405180910390fd5b809150505b92915050565b600061400e83836040518060400160405280601e81526020017f536166654d6174683a207375627472616374696f6e206f766572666c6f7700008152506140e8565b905092915050565b600061405883836040518060400160405280601a81526020017f536166654d6174683a206469766973696f6e206279207a65726f0000000000008152506141a8565b905092915050565b6000808284019050838110156140de576040517f08c379a000000000000000000000000000000000000000000000000000000000815260040180806020018281038252601b8152602001807f536166654d6174683a206164646974696f6e206f766572666c6f77000000000081525060200191505060405180910390fd5b8091505092915050565b6000838311158290614195576040517f08c379a00000000000000000000000000000000000000000000000000000000081526004018080602001828103825283818151815260200191508051906020019080838360005b8381101561415a57808201518184015260208101905061413f565b50505050905090810190601f1680156141875780820380516001836020036101000a031916815260200191505b509250505060405180910390fd5b5060008385039050809150509392505050565b60008083118290614254576040517f08c379a00000000000000000000000000000000000000000000000000000000081526004018080602001828103825283818151815260200191508051906020019080838360005b838110156142195780820151818401526020810190506141fe565b50505050905090810190601f1680156142465780820380516001836020036101000a031916815260200191505b509250505060405180910390fd5b50600083858161426057fe5b049050809150509392505050565b604051806060016040528060039060208202803683378082019150509050509056fe536166654d6174683a206d756c7469706c69636174696f6e206f766572666c6f77596f752068617665206e6f74207374616b65642074686174206d75636820616d6f756e74a2646970667358221220cf4d317e06e6b0bb22f794c21994cb102226fe5ae2871c8c04a17c9dd163755164736f6c634300060c0033",
  "immutableReferences": {},
  "source": "// SPDX-License-Identifier: UNLICENSED\r\npragma solidity ^0.6.0;\r\n\r\nimport '@openzeppelin/contracts/math/SafeMath.sol';\r\nimport '../../Interfaces/IERC20Interface.sol';\r\nimport '../../Interfaces/CurveInterface.sol';\r\nimport '../../Interfaces/UniswapInterface.sol';\r\n\r\ncontract CurveStrategy {\r\n\r\n    using SafeMath for uint256;\r\n\r\n    address royaleAddress;\r\n    IERC20 poolToken;\r\n    IERC20[3] Coins;  // DAI / USDC / USDT\r\n   // IERC20[3] uCoins; // yDAI / yUSDC / yUSDT\r\n    CurvePool public pool;\r\n   // DepositY public depositY;\r\n    PoolGauge public gauge;\r\n    Minter public minter;\r\n    VoteEscrow public voteEscrow;\r\n    FeeDistributor public feeDistributor;\r\n\r\n    uint256 public constant DENOMINATOR = 10000;\r\n\r\n    uint256 public DepositSlip = 100;\r\n\r\n    uint256 public withdrawSlip = 200;\r\n\r\n    address public wallet;\r\n    \r\n    uint256 totalProfit;\r\n    \r\n    uint256 public crvBreak=10000;\r\n    \r\n   // uint256[4] public depositBal;\r\n\r\n   // uint256 public totalDeposited;\r\n\r\n    uint256 public virtualPrice;\r\n \r\n    bool public TEST = true; // For testing uniswap , should be removed on deployment to the mainnet\r\n\r\n    address public uniAddr  = address(0x7a250d5630B4cF539739dF2C5dAcb4c659F2488D);\r\n    address public crvAddr  = address(0x5dDBDBB1D1e691d2994d4A44470EB07dFCbd57C3);\r\n    address public wethAddr = address(0xC02aaA39b223FE8D0A0e5C4F27eAD9083C756Cc2);\r\n\r\n\r\n    modifier onlyWallet(){\r\n      require(wallet == msg.sender|| msg.sender==royaleAddress, \"Not authorized\");\r\n      _;\r\n    }\r\n\r\n    modifier onlyRoyaleLP() {\r\n        require(msg.sender == royaleAddress || true, \"Not authorized\");\r\n        _;\r\n    }\r\n\r\n    constructor(\r\n         address _wallet,\r\n         IERC20[3] memory coins, \r\n         //IERC20[3] memory ucoins,\r\n         address _royaleaddress,\r\n         address _crvpool,\r\n        // address _depositY,\r\n         address _poolToken,\r\n         address _gauge,\r\n         address _minter\r\n         ) public {\r\n\r\n        wallet=_wallet;\r\n        Coins = coins;\r\n        //uCoins=ucoins;\r\n        royaleAddress =_royaleaddress;\r\n        //depositY=DepositY(_depositY);\r\n        pool = CurvePool(_crvpool);\r\n        poolToken = IERC20(_poolToken);\r\n        gauge = PoolGauge(_gauge);\r\n        minter=Minter(_minter);\r\n        \r\n    }\r\n\r\n\r\n    function setCRVBreak(uint256 _percentage)external onlyWallet(){\r\n        crvBreak=_percentage;\r\n    }\r\n\r\n    function transferOwnership(address _wallet) external onlyWallet(){\r\n        wallet=_wallet;\r\n    }\r\n\r\n\r\n// Functions to deposit and withdraw stable coins in the y pool and recieve LP tokens (Ycrv)\r\n\r\n\r\n    function updateArray(uint[3] memory amount) internal pure returns(uint[4] memory){\r\n        uint256[4] memory uamount;\r\n        for(uint8 i=0;i<3;i++){\r\n                uamount[i]=amount[i];\r\n        }\r\n        uamount[3]=0;\r\n        return uamount;\r\n    }\r\n\r\n    function deposit(uint[3] memory amounts) external onlyRoyaleLP(){\r\n        //uint256[4] memory amounts;\r\n        //uint[4] memory damount;\r\n        uint currentTotal;\r\n        //amounts=updateArray(amount);\r\n        for(uint8 i=0; i<3; i++) {\r\n            if(amounts[i] > 0) {\r\n               uint decimal;\r\n               decimal=Coins[i].decimals();\r\n               Coins[i].approve(address(pool), amounts[i]); \r\n               //depositBal[i] =depositBal[i].add(amounts[i]);\r\n               //totalDeposited = totalDeposited.add(amounts[i].mul(1e18).div(10**decimal));\r\n               //damount[i] = amounts[i].mul(1e18).div(uCoins[i].getPricePerFullShare());\r\n               currentTotal =currentTotal.add(amounts[i].mul(1e18).div(10**decimal));\r\n            }\r\n        }\r\n        uint256 returnedAmount;\r\n        bool status;\r\n        (returnedAmount,status)=calculateProfit();\r\n        if(status){\r\n            totalProfit =totalProfit.add(returnedAmount);\r\n        }\r\n        else{\r\n            totalProfit =totalProfit.sub(returnedAmount);\r\n        } \r\n        uint256 mintAmount = currentTotal.mul(1e18).div(pool.get_virtual_price());\r\n        pool.add_liquidity(amounts,  mintAmount.mul(DENOMINATOR.sub(DepositSlip)).div(DENOMINATOR));\r\n        virtualPrice=pool.get_virtual_price();\r\n        stakeLP();   \r\n    }\r\n\r\n    function withdraw(uint[3] memory amounts) external onlyRoyaleLP() {\r\n        //uint256[4] memory amounts;\r\n        //uint[4] memory damount;\r\n        uint decimal;\r\n        uint currentTotal;\r\n        //amounts=updateArray(amount);\r\n        for(uint8 i=0;i<3;i++){\r\n            if(amounts[i]>0){\r\n                decimal = Coins[i].decimals();\r\n                //depositBal[i] =depositBal[i].sub(amounts[i]);\r\n               // totalDeposited =totalDeposited.sub(amounts[i].mul(1e18).div(10**decimal));\r\n                //damount[i] = amounts[i].mul(1e18).div(uCoins[i].getPricePerFullShare());\r\n                currentTotal =currentTotal.add(amounts[i].mul(1e18).div(10**decimal));\r\n            }  \r\n        }\r\n        uint256 max_burn = currentTotal.mul(1e18).div(pool.get_virtual_price());\r\n        max_burn=max_burn.mul(DENOMINATOR.add(withdrawSlip)).div(DENOMINATOR);\r\n        unstakeLP(max_burn);\r\n        pool.remove_liquidity_imbalance(amounts, max_burn);\r\n        for(uint8 i=0;i<3;i++){\r\n            if(amounts[i]!=0){\r\n               Coins[i].transfer(royaleAddress, Coins[i].balanceOf(address(this)));\r\n            }\r\n        } \r\n        //totalDeposited=totalDeposited.sub(currentTotal);\r\n        stakeLP();\r\n    }\r\n\r\n    function withdrawAll() external onlyRoyaleLP() returns(uint256[3] memory){\r\n        unstakeLP(gauge.balanceOf(address(this)));\r\n        uint256[3] memory withdrawAmt;\r\n       \r\n        pool.remove_liquidity(poolToken.balanceOf(address(this)),withdrawAmt);\r\n       /* for(uint8 i=0;i<3;i++){\r\n            uint decimal;\r\n            uint poolTokenShare;\r\n            decimal=Coins[i].decimals();\r\n            if(i==2){\r\n                poolTokenShare =poolTokenBalance.sub(totalBurnt);\r\n            }\r\n            else{\r\n                poolTokenShare= poolTokenBalance.mul(10**(18-decimal)).mul(depositBal[i]).div(totalDeposited);\r\n            }\r\n            totalBurnt =totalBurnt.add(poolTokenShare);\r\n            pool.remove_liquidity_one_coin(poolTokenShare, i, poolTokenShare.mul(10**decimal).mul(DENOMINATOR.sub(withdrawSlip)).div(DENOMINATOR).div(10**18));\r\n        }*/\r\n        for(uint8 i=0;i<3;i++){\r\n           \r\n            if(Coins[i].balanceOf(address(this))!=0){\r\n                withdrawAmt[i]=Coins[i].balanceOf(address(this));\r\n                 Coins[i].transfer(royaleAddress,withdrawAmt[i]);\r\n                 \r\n            }\r\n        }\r\n        return withdrawAmt; \r\n    } \r\n\r\n\r\n\r\n    // Functions to stake and unstake LPTokens(Ycrv) and claim CRV\r\n\r\n    function stakeLP() public onlyWallet {\r\n        uint depositAmt = poolToken.balanceOf(address(this)) ;\r\n        poolToken.approve(address(gauge), depositAmt);\r\n        gauge.deposit(depositAmt);  \r\n    }\r\n\r\n    function unstakeLP(uint _amount) public  onlyWallet{\r\n        require(gauge.balanceOf(address(this)) >= _amount,\"You have not staked that much amount\");\r\n        gauge.withdraw(_amount);\r\n    }\r\n\r\n\r\n    function checkClaimableToken()public view  returns(uint256){\r\n        return gauge.claimable_tokens(address(this));\r\n    }\r\n\r\n    function claimCRV() public onlyWallet{\r\n        minter.mint(address(gauge));\r\n    }\r\n\r\n    // Functions to lock and unlock CRV and recieve VeCRV\r\n\r\n    function createLock(uint256 _value,uint256 _unlockTime) external onlyWallet(){\r\n        IERC20(crvAddr).approve(address(voteEscrow), _value);\r\n        voteEscrow.create_lock(_value, _unlockTime);\r\n    }\r\n\r\n    function increaseLockAmount(uint256 _value) external onlyWallet(){\r\n        IERC20(crvAddr).approve(address(voteEscrow), _value);\r\n        voteEscrow.increase_amount(_value);\r\n    }\r\n\r\n    function releaseLock() external onlyWallet(){\r\n        voteEscrow.withdraw();  \r\n    }\r\n\r\n    function claim3CRV()public onlyWallet(){\r\n        feeDistributor.claim();\r\n    }\r\n\r\n    // Function to sell CRV\r\n\r\n    function sellCRV(uint8 _index) public onlyWallet() returns(uint256) {  //here index=0 means convert crv into DAI , index=1 means crv into USDC , index=2 means crv into USDT\r\n        uint256 crvAmt = IERC20(crvAddr).balanceOf(address(this));\r\n        uint256 prevCoin = Coins[_index].balanceOf(address(this));\r\n        require(crvAmt > 0, \"insufficient CRV\");\r\n        crvAmt=crvAmt.mul(crvBreak).div(DENOMINATOR);\r\n        IERC20(crvAddr).approve(uniAddr, crvAmt);\r\n        address[] memory path; \r\n        if(TEST) {\r\n            path = new address[](2);\r\n            path[0] = crvAddr;\r\n            path[1] = address(Coins[_index]);\r\n\r\n        } else {    \r\n            path = new address[](3);\r\n            path[0] = crvAddr;\r\n            path[1] = wethAddr;\r\n            path[2] = address(Coins[_index]);\r\n        }\r\n        UniswapI(uniAddr).swapExactTokensForTokens(\r\n            crvAmt, \r\n            uint256(0), \r\n            path, \r\n            address(this), \r\n            now + 1800\r\n        );\r\n        uint256 postCoin=Coins[_index].balanceOf(address(this));\r\n        return (postCoin-prevCoin);\r\n    }\r\n\r\n    function calculateProfit()public view returns(uint256,bool) {\r\n        if(pool.get_virtual_price() >= virtualPrice){\r\n            return (gauge.balanceOf(address(this)).mul(pool.get_virtual_price().sub(virtualPrice)).div(10**18),true);\r\n        }    \r\n        else{\r\n            return (gauge.balanceOf(address(this)).mul(virtualPrice.sub(pool.get_virtual_price())).div(10**18),false);\r\n        }\r\n        \r\n    }\r\n\r\n\r\n    function gaugeBoostCalculator() public view returns(uint256){\r\n          uint minimumVeCRV ;\r\n          minimumVeCRV =(gauge.balanceOf(address(this)).mul(100)).sub((gauge.balanceOf(address(this)).mul(40))).mul(voteEscrow.totalSupply()).div(gauge.totalSupply().mul(60));\r\n          return minimumVeCRV;\r\n    }\r\n}",
  "sourcePath": "C:/Users/vishn/OneDrive/Desktop/RoyaleProject/RoyaleFinance/royale-contracts/contracts/Pool/rCurveStrategy.sol",
  "compiler": {
    "name": "solc",
    "version": "0.6.12+commit.27d51765.Emscripten.clang"
  },
  "schemaVersion": "3.3.2",
  "updatedAt": "2021-02-17T14:26:52.447Z",
  "devdoc": {
    "kind": "dev",
    "methods": {},
    "version": 1
  },
  "userdoc": {
    "kind": "user",
    "methods": {},
    "version": 1
  }
}