{
  "contractName": "CurveStrategy",
  "abi": [
    {
      "inputs": [
        {
          "internalType": "address",
          "name": "_wallet",
          "type": "address"
        },
        {
          "internalType": "contract IERC20[3]",
          "name": "coins",
          "type": "address[3]"
        },
        {
          "internalType": "contract IERC20[3]",
          "name": "ucoins",
          "type": "address[3]"
        },
        {
          "internalType": "address",
          "name": "_royaleaddress",
          "type": "address"
        },
        {
          "internalType": "address",
          "name": "_crvpool",
          "type": "address"
        },
        {
          "internalType": "address",
          "name": "_depositY",
          "type": "address"
        },
        {
          "internalType": "address",
          "name": "_poolToken",
          "type": "address"
        },
        {
          "internalType": "address",
          "name": "_gauge",
          "type": "address"
        },
        {
          "internalType": "address",
          "name": "_minter",
          "type": "address"
        }
      ],
      "stateMutability": "nonpayable",
      "type": "constructor"
    },
    {
      "inputs": [],
      "name": "DENOMINATOR",
      "outputs": [
        {
          "internalType": "uint256",
          "name": "",
          "type": "uint256"
        }
      ],
      "stateMutability": "view",
      "type": "function"
    },
    {
      "inputs": [],
      "name": "DepositSlip",
      "outputs": [
        {
          "internalType": "uint256",
          "name": "",
          "type": "uint256"
        }
      ],
      "stateMutability": "view",
      "type": "function"
    },
    {
      "inputs": [],
      "name": "TEST",
      "outputs": [
        {
          "internalType": "bool",
          "name": "",
          "type": "bool"
        }
      ],
      "stateMutability": "view",
      "type": "function"
    },
    {
      "inputs": [],
      "name": "crvAddr",
      "outputs": [
        {
          "internalType": "address",
          "name": "",
          "type": "address"
        }
      ],
      "stateMutability": "view",
      "type": "function"
    },
    {
      "inputs": [],
      "name": "crvBreak",
      "outputs": [
        {
          "internalType": "uint256",
          "name": "",
          "type": "uint256"
        }
      ],
      "stateMutability": "view",
      "type": "function"
    },
    {
      "inputs": [
        {
          "internalType": "uint256",
          "name": "",
          "type": "uint256"
        }
      ],
      "name": "depositBal",
      "outputs": [
        {
          "internalType": "uint256",
          "name": "",
          "type": "uint256"
        }
      ],
      "stateMutability": "view",
      "type": "function"
    },
    {
      "inputs": [],
      "name": "depositY",
      "outputs": [
        {
          "internalType": "contract DepositY",
          "name": "",
          "type": "address"
        }
      ],
      "stateMutability": "view",
      "type": "function"
    },
    {
      "inputs": [],
      "name": "feeDistributor",
      "outputs": [
        {
          "internalType": "contract FeeDistributor",
          "name": "",
          "type": "address"
        }
      ],
      "stateMutability": "view",
      "type": "function"
    },
    {
      "inputs": [],
      "name": "gauge",
      "outputs": [
        {
          "internalType": "contract PoolGauge",
          "name": "",
          "type": "address"
        }
      ],
      "stateMutability": "view",
      "type": "function"
    },
    {
      "inputs": [],
      "name": "minter",
      "outputs": [
        {
          "internalType": "contract Minter",
          "name": "",
          "type": "address"
        }
      ],
      "stateMutability": "view",
      "type": "function"
    },
    {
      "inputs": [],
      "name": "pool",
      "outputs": [
        {
          "internalType": "contract CurvePool",
          "name": "",
          "type": "address"
        }
      ],
      "stateMutability": "view",
      "type": "function"
    },
    {
      "inputs": [],
      "name": "totalDeposited",
      "outputs": [
        {
          "internalType": "uint256",
          "name": "",
          "type": "uint256"
        }
      ],
      "stateMutability": "view",
      "type": "function"
    },
    {
      "inputs": [],
      "name": "uniAddr",
      "outputs": [
        {
          "internalType": "address",
          "name": "",
          "type": "address"
        }
      ],
      "stateMutability": "view",
      "type": "function"
    },
    {
      "inputs": [],
      "name": "virtualPrice",
      "outputs": [
        {
          "internalType": "uint256",
          "name": "",
          "type": "uint256"
        }
      ],
      "stateMutability": "view",
      "type": "function"
    },
    {
      "inputs": [],
      "name": "voteEscrow",
      "outputs": [
        {
          "internalType": "contract VoteEscrow",
          "name": "",
          "type": "address"
        }
      ],
      "stateMutability": "view",
      "type": "function"
    },
    {
      "inputs": [],
      "name": "wallet",
      "outputs": [
        {
          "internalType": "address",
          "name": "",
          "type": "address"
        }
      ],
      "stateMutability": "view",
      "type": "function"
    },
    {
      "inputs": [],
      "name": "wethAddr",
      "outputs": [
        {
          "internalType": "address",
          "name": "",
          "type": "address"
        }
      ],
      "stateMutability": "view",
      "type": "function"
    },
    {
      "inputs": [],
      "name": "withdrawSlip",
      "outputs": [
        {
          "internalType": "uint256",
          "name": "",
          "type": "uint256"
        }
      ],
      "stateMutability": "view",
      "type": "function"
    },
    {
      "inputs": [
        {
          "internalType": "uint256",
          "name": "_percentage",
          "type": "uint256"
        }
      ],
      "name": "setCRVBreak",
      "outputs": [],
      "stateMutability": "nonpayable",
      "type": "function"
    },
    {
      "inputs": [
        {
          "internalType": "address",
          "name": "_wallet",
          "type": "address"
        }
      ],
      "name": "transferOwnership",
      "outputs": [],
      "stateMutability": "nonpayable",
      "type": "function"
    },
    {
      "inputs": [
        {
          "internalType": "uint256[3]",
          "name": "amounts",
          "type": "uint256[3]"
        }
      ],
      "name": "deposit",
      "outputs": [],
      "stateMutability": "nonpayable",
      "type": "function"
    },
    {
      "inputs": [
        {
          "internalType": "uint256[3]",
          "name": "amounts",
          "type": "uint256[3]"
        }
      ],
      "name": "withdraw",
      "outputs": [],
      "stateMutability": "nonpayable",
      "type": "function"
    },
    {
      "inputs": [],
      "name": "withdrawAll",
      "outputs": [
        {
          "internalType": "uint256[3]",
          "name": "",
          "type": "uint256[3]"
        }
      ],
      "stateMutability": "nonpayable",
      "type": "function"
    },
    {
      "inputs": [],
      "name": "stakeLP",
      "outputs": [],
      "stateMutability": "nonpayable",
      "type": "function"
    },
    {
      "inputs": [
        {
          "internalType": "uint256",
          "name": "_amount",
          "type": "uint256"
        }
      ],
      "name": "unstakeLP",
      "outputs": [],
      "stateMutability": "nonpayable",
      "type": "function"
    },
    {
      "inputs": [],
      "name": "unstakeAll",
      "outputs": [],
      "stateMutability": "nonpayable",
      "type": "function"
    },
    {
      "inputs": [],
      "name": "checkClaimableToken",
      "outputs": [
        {
          "internalType": "uint256",
          "name": "",
          "type": "uint256"
        }
      ],
      "stateMutability": "view",
      "type": "function"
    },
    {
      "inputs": [],
      "name": "claimCRV",
      "outputs": [],
      "stateMutability": "nonpayable",
      "type": "function"
    },
    {
      "inputs": [
        {
          "internalType": "uint256",
          "name": "_value",
          "type": "uint256"
        },
        {
          "internalType": "uint256",
          "name": "_unlockTime",
          "type": "uint256"
        }
      ],
      "name": "createLock",
      "outputs": [],
      "stateMutability": "nonpayable",
      "type": "function"
    },
    {
      "inputs": [
        {
          "internalType": "uint256",
          "name": "_value",
          "type": "uint256"
        }
      ],
      "name": "increaseLockAmount",
      "outputs": [],
      "stateMutability": "nonpayable",
      "type": "function"
    },
    {
      "inputs": [],
      "name": "releaseLock",
      "outputs": [],
      "stateMutability": "nonpayable",
      "type": "function"
    },
    {
      "inputs": [],
      "name": "claim3CRV",
      "outputs": [],
      "stateMutability": "nonpayable",
      "type": "function"
    },
    {
      "inputs": [
        {
          "internalType": "uint8",
          "name": "_index",
          "type": "uint8"
        }
      ],
      "name": "sellCRV",
      "outputs": [
        {
          "internalType": "uint256",
          "name": "",
          "type": "uint256"
        }
      ],
      "stateMutability": "nonpayable",
      "type": "function"
    },
    {
      "inputs": [],
      "name": "calculateProfit",
      "outputs": [
        {
          "internalType": "uint256",
          "name": "",
          "type": "uint256"
        },
        {
          "internalType": "bool",
          "name": "",
          "type": "bool"
        }
      ],
      "stateMutability": "view",
      "type": "function"
    },
    {
      "inputs": [],
      "name": "gaugeBoostCalculator",
      "outputs": [
        {
          "internalType": "uint256",
          "name": "",
          "type": "uint256"
        }
      ],
      "stateMutability": "view",
      "type": "function"
    }
  ],
  "bytecode": "0x60806040526064600e5560c8600f556127106012556001601960006101000a81548160ff021916908315150217905550737a250d5630b4cf539739df2c5dacb4c659f2488d601960016101000a81548173ffffffffffffffffffffffffffffffffffffffff021916908373ffffffffffffffffffffffffffffffffffffffff160217905550735ddbdbb1d1e691d2994d4a44470eb07dfcbd57c3601a60006101000a81548173ffffffffffffffffffffffffffffffffffffffff021916908373ffffffffffffffffffffffffffffffffffffffff16021790555073c02aaa39b223fe8d0a0e5c4f27ead9083c756cc2601b60006101000a81548173ffffffffffffffffffffffffffffffffffffffff021916908373ffffffffffffffffffffffffffffffffffffffff1602179055503480156200013b57600080fd5b5060405162004d4238038062004d4283398181016040526101a08110156200016257600080fd5b810190808051906020019092919091908260600191908260600180519060200190929190805190602001909291908051906020019092919080519060200190929190805190602001909291908051906020019092919050505088601060006101000a81548173ffffffffffffffffffffffffffffffffffffffff021916908373ffffffffffffffffffffffffffffffffffffffff1602179055508760029060036200020f929190620003b8565b5086600590600362000223929190620003b8565b50856000806101000a81548173ffffffffffffffffffffffffffffffffffffffff021916908373ffffffffffffffffffffffffffffffffffffffff16021790555083600960006101000a81548173ffffffffffffffffffffffffffffffffffffffff021916908373ffffffffffffffffffffffffffffffffffffffff16021790555084600860006101000a81548173ffffffffffffffffffffffffffffffffffffffff021916908373ffffffffffffffffffffffffffffffffffffffff16021790555082600160006101000a81548173ffffffffffffffffffffffffffffffffffffffff021916908373ffffffffffffffffffffffffffffffffffffffff16021790555081600a60006101000a81548173ffffffffffffffffffffffffffffffffffffffff021916908373ffffffffffffffffffffffffffffffffffffffff16021790555080600b60006101000a81548173ffffffffffffffffffffffffffffffffffffffff021916908373ffffffffffffffffffffffffffffffffffffffff16021790555050505050505050505062000477565b826003810192821562000427579160200282015b82811115620004265782518260006101000a81548173ffffffffffffffffffffffffffffffffffffffff021916908373ffffffffffffffffffffffffffffffffffffffff16021790555091602001919060010190620003cc565b5b5090506200043691906200043a565b5090565b5b808211156200047357600081816101000a81549073ffffffffffffffffffffffffffffffffffffffff0219169055506001016200043b565b5090565b6148bb80620004876000396000f3fe608060405234801561001057600080fd5b50600436106102115760003560e01c8063853828b611610125578063c4778998116100ad578063eda54ad21161007c578063eda54ad214610787578063f166f3e814610791578063f2fde38b1461079b578063f87bf3ca146107df578063ff50abdc1461080657610211565b8063c4778998146106b8578063d3639ae3146106e6578063d4e20b0114610704578063dbbcbd3d1461076957610211565b8063a3c0cd67116100f4578063a3c0cd6714610571578063a6f19c84146105b3578063ad633469146105e7578063b1b8f1be1461061b578063b52c05fe1461068057610211565b8063853828b6146104bb5780638ea875f3146105015780639019a2851461051f578063918f86741461055357610211565b80634df50a55116101a85780636b944998116101775780636b944998146103bc5780636e75702e1461040157806374b21fbe1461041f5780637b158f38146104535780637d5aa5f41461048757610211565b80634df50a551461031c57806351d977a61461034a578063521eb2731461036a5780636009314f1461039e57610211565b806335322f37116101e457806335322f37146102bc5780633557ea1e146102c6578063403f4447146102e457806348f8f6d91461031257610211565b806307546172146102165780630d43e8ad1461024a57806310ff582d1461027e57806316f0115b14610288575b600080fd5b61021e610824565b604051808273ffffffffffffffffffffffffffffffffffffffff16815260200191505060405180910390f35b61025261084a565b604051808273ffffffffffffffffffffffffffffffffffffffff16815260200191505060405180910390f35b610286610870565b005b610290610bd2565b604051808273ffffffffffffffffffffffffffffffffffffffff16815260200191505060405180910390f35b6102c4610bf8565b005b6102ce610e63565b6040518082815260200191505060405180910390f35b610310600480360360208110156102fa57600080fd5b8101908080359060200190929190505050610e69565b005b61031a611103565b005b6103486004803603602081101561033257600080fd5b81019080803590602001909291905050506112e3565b005b610352611406565b60405180821515815260200191505060405180910390f35b610372611419565b604051808273ffffffffffffffffffffffffffffffffffffffff16815260200191505060405180910390f35b6103a661143f565b6040518082815260200191505060405180910390f35b6103eb600480360360208110156103d257600080fd5b81019080803560ff169060200190929190505050611785565b6040518082815260200191505060405180910390f35b6104096120a0565b6040518082815260200191505060405180910390f35b6104276120a6565b604051808273ffffffffffffffffffffffffffffffffffffffff16815260200191505060405180910390f35b61045b6120cc565b604051808273ffffffffffffffffffffffffffffffffffffffff16815260200191505060405180910390f35b61048f6120f2565b604051808273ffffffffffffffffffffffffffffffffffffffff16815260200191505060405180910390f35b6104c3612118565b6040518082600360200280838360005b838110156104ee5780820151818401526020810190506104d3565b5050505090500191505060405180910390f35b610509612852565b6040518082815260200191505060405180910390f35b610527612858565b604051808273ffffffffffffffffffffffffffffffffffffffff16815260200191505060405180910390f35b61055b61287e565b6040518082815260200191505060405180910390f35b61059d6004803603602081101561058757600080fd5b8101908080359060200190929190505050612884565b6040518082815260200191505060405180910390f35b6105bb61289c565b604051808273ffffffffffffffffffffffffffffffffffffffff16815260200191505060405180910390f35b6105ef6128c2565b604051808273ffffffffffffffffffffffffffffffffffffffff16815260200191505060405180910390f35b61067e6004803603606081101561063157600080fd5b8101908080606001906003806020026040519081016040528092919082600360200280828437600081840152601f19601f82011690508083019250505050505091929192905050506128e8565b005b6106b66004803603604081101561069657600080fd5b810190808035906020019092919080359060200190929190505050612f95565b005b6106e4600480360360208110156106ce57600080fd5b8101908080359060200190929190505050613238565b005b6106ee6134fd565b6040518082815260200191505060405180910390f35b6107676004803603606081101561071a57600080fd5b8101908080606001906003806020026040519081016040528092919082600360200280828437600081840152601f19601f82011690508083019250505050505091929192905050506135c8565b005b610771613c77565b6040518082815260200191505060405180910390f35b61078f613c7d565b005b610799613e1a565b005b6107dd600480360360208110156107b157600080fd5b81019080803573ffffffffffffffffffffffffffffffffffffffff169060200190929190505050613fb7565b005b6107e7614114565b6040518083815260200182151581526020019250505060405180910390f35b61080e6144f0565b6040518082815260200191505060405180910390f35b600b60009054906101000a900473ffffffffffffffffffffffffffffffffffffffff1681565b600d60009054906101000a900473ffffffffffffffffffffffffffffffffffffffff1681565b3373ffffffffffffffffffffffffffffffffffffffff16601060009054906101000a900473ffffffffffffffffffffffffffffffffffffffff1673ffffffffffffffffffffffffffffffffffffffff161480610917575060008054906101000a900473ffffffffffffffffffffffffffffffffffffffff1673ffffffffffffffffffffffffffffffffffffffff163373ffffffffffffffffffffffffffffffffffffffff16145b610989576040517f08c379a000000000000000000000000000000000000000000000000000000000815260040180806020018281038252600e8152602001807f4e6f7420617574686f72697a656400000000000000000000000000000000000081525060200191505060405180910390fd5b6000600160009054906101000a900473ffffffffffffffffffffffffffffffffffffffff1673ffffffffffffffffffffffffffffffffffffffff166370a08231306040518263ffffffff1660e01b8152600401808273ffffffffffffffffffffffffffffffffffffffff16815260200191505060206040518083038186803b158015610a1457600080fd5b505afa158015610a28573d6000803e3d6000fd5b505050506040513d6020811015610a3e57600080fd5b81019080805190602001909291905050509050600160009054906101000a900473ffffffffffffffffffffffffffffffffffffffff1673ffffffffffffffffffffffffffffffffffffffff1663095ea7b3600a60009054906101000a900473ffffffffffffffffffffffffffffffffffffffff16836040518363ffffffff1660e01b8152600401808373ffffffffffffffffffffffffffffffffffffffff16815260200182815260200192505050602060405180830381600087803b158015610b0657600080fd5b505af1158015610b1a573d6000803e3d6000fd5b505050506040513d6020811015610b3057600080fd5b810190808051906020019092919050505050600a60009054906101000a900473ffffffffffffffffffffffffffffffffffffffff1673ffffffffffffffffffffffffffffffffffffffff1663b6b55f25826040518263ffffffff1660e01b815260040180828152602001915050600060405180830381600087803b158015610bb757600080fd5b505af1158015610bcb573d6000803e3d6000fd5b5050505050565b600860009054906101000a900473ffffffffffffffffffffffffffffffffffffffff1681565b3373ffffffffffffffffffffffffffffffffffffffff16601060009054906101000a900473ffffffffffffffffffffffffffffffffffffffff1673ffffffffffffffffffffffffffffffffffffffff161480610c9f575060008054906101000a900473ffffffffffffffffffffffffffffffffffffffff1673ffffffffffffffffffffffffffffffffffffffff163373ffffffffffffffffffffffffffffffffffffffff16145b610d11576040517f08c379a000000000000000000000000000000000000000000000000000000000815260040180806020018281038252600e8152602001807f4e6f7420617574686f72697a656400000000000000000000000000000000000081525060200191505060405180910390fd5b600a60009054906101000a900473ffffffffffffffffffffffffffffffffffffffff1673ffffffffffffffffffffffffffffffffffffffff16632e1a7d4d600a60009054906101000a900473ffffffffffffffffffffffffffffffffffffffff1673ffffffffffffffffffffffffffffffffffffffff166370a08231306040518263ffffffff1660e01b8152600401808273ffffffffffffffffffffffffffffffffffffffff16815260200191505060206040518083038186803b158015610dd857600080fd5b505afa158015610dec573d6000803e3d6000fd5b505050506040513d6020811015610e0257600080fd5b81019080805190602001909291905050506040518263ffffffff1660e01b815260040180828152602001915050600060405180830381600087803b158015610e4957600080fd5b505af1158015610e5d573d6000803e3d6000fd5b50505050565b600e5481565b3373ffffffffffffffffffffffffffffffffffffffff16601060009054906101000a900473ffffffffffffffffffffffffffffffffffffffff1673ffffffffffffffffffffffffffffffffffffffff161480610f10575060008054906101000a900473ffffffffffffffffffffffffffffffffffffffff1673ffffffffffffffffffffffffffffffffffffffff163373ffffffffffffffffffffffffffffffffffffffff16145b610f82576040517f08c379a000000000000000000000000000000000000000000000000000000000815260040180806020018281038252600e8152602001807f4e6f7420617574686f72697a656400000000000000000000000000000000000081525060200191505060405180910390fd5b601a60009054906101000a900473ffffffffffffffffffffffffffffffffffffffff1673ffffffffffffffffffffffffffffffffffffffff1663095ea7b3600c60009054906101000a900473ffffffffffffffffffffffffffffffffffffffff16836040518363ffffffff1660e01b8152600401808373ffffffffffffffffffffffffffffffffffffffff16815260200182815260200192505050602060405180830381600087803b15801561103757600080fd5b505af115801561104b573d6000803e3d6000fd5b505050506040513d602081101561106157600080fd5b810190808051906020019092919050505050600c60009054906101000a900473ffffffffffffffffffffffffffffffffffffffff1673ffffffffffffffffffffffffffffffffffffffff16634957677c826040518263ffffffff1660e01b815260040180828152602001915050600060405180830381600087803b1580156110e857600080fd5b505af11580156110fc573d6000803e3d6000fd5b5050505050565b3373ffffffffffffffffffffffffffffffffffffffff16601060009054906101000a900473ffffffffffffffffffffffffffffffffffffffff1673ffffffffffffffffffffffffffffffffffffffff1614806111aa575060008054906101000a900473ffffffffffffffffffffffffffffffffffffffff1673ffffffffffffffffffffffffffffffffffffffff163373ffffffffffffffffffffffffffffffffffffffff16145b61121c576040517f08c379a000000000000000000000000000000000000000000000000000000000815260040180806020018281038252600e8152602001807f4e6f7420617574686f72697a656400000000000000000000000000000000000081525060200191505060405180910390fd5b600b60009054906101000a900473ffffffffffffffffffffffffffffffffffffffff1673ffffffffffffffffffffffffffffffffffffffff16636a627842600a60009054906101000a900473ffffffffffffffffffffffffffffffffffffffff166040518263ffffffff1660e01b8152600401808273ffffffffffffffffffffffffffffffffffffffff168152602001915050600060405180830381600087803b1580156112c957600080fd5b505af11580156112dd573d6000803e3d6000fd5b50505050565b3373ffffffffffffffffffffffffffffffffffffffff16601060009054906101000a900473ffffffffffffffffffffffffffffffffffffffff1673ffffffffffffffffffffffffffffffffffffffff16148061138a575060008054906101000a900473ffffffffffffffffffffffffffffffffffffffff1673ffffffffffffffffffffffffffffffffffffffff163373ffffffffffffffffffffffffffffffffffffffff16145b6113fc576040517f08c379a000000000000000000000000000000000000000000000000000000000815260040180806020018281038252600e8152602001807f4e6f7420617574686f72697a656400000000000000000000000000000000000081525060200191505060405180910390fd5b8060128190555050565b601960009054906101000a900460ff1681565b601060009054906101000a900473ffffffffffffffffffffffffffffffffffffffff1681565b60008061177c6114fb603c600a60009054906101000a900473ffffffffffffffffffffffffffffffffffffffff1673ffffffffffffffffffffffffffffffffffffffff166318160ddd6040518163ffffffff1660e01b815260040160206040518083038186803b1580156114b257600080fd5b505afa1580156114c6573d6000803e3d6000fd5b505050506040513d60208110156114dc57600080fd5b81019080805190602001909291905050506144f690919063ffffffff16565b61176e600c60009054906101000a900473ffffffffffffffffffffffffffffffffffffffff1673ffffffffffffffffffffffffffffffffffffffff166318160ddd6040518163ffffffff1660e01b815260040160206040518083038186803b15801561156657600080fd5b505afa15801561157a573d6000803e3d6000fd5b505050506040513d602081101561159057600080fd5b810190808051906020019092919050505061176061167b6028600a60009054906101000a900473ffffffffffffffffffffffffffffffffffffffff1673ffffffffffffffffffffffffffffffffffffffff166370a08231306040518263ffffffff1660e01b8152600401808273ffffffffffffffffffffffffffffffffffffffff16815260200191505060206040518083038186803b15801561163257600080fd5b505afa158015611646573d6000803e3d6000fd5b505050506040513d602081101561165c57600080fd5b81019080805190602001909291905050506144f690919063ffffffff16565b6117526064600a60009054906101000a900473ffffffffffffffffffffffffffffffffffffffff1673ffffffffffffffffffffffffffffffffffffffff166370a08231306040518263ffffffff1660e01b8152600401808273ffffffffffffffffffffffffffffffffffffffff16815260200191505060206040518083038186803b15801561170957600080fd5b505afa15801561171d573d6000803e3d6000fd5b505050506040513d602081101561173357600080fd5b81019080805190602001909291905050506144f690919063ffffffff16565b61457c90919063ffffffff16565b6144f690919063ffffffff16565b6145c690919063ffffffff16565b90508091505090565b60003373ffffffffffffffffffffffffffffffffffffffff16601060009054906101000a900473ffffffffffffffffffffffffffffffffffffffff1673ffffffffffffffffffffffffffffffffffffffff16148061182e575060008054906101000a900473ffffffffffffffffffffffffffffffffffffffff1673ffffffffffffffffffffffffffffffffffffffff163373ffffffffffffffffffffffffffffffffffffffff16145b6118a0576040517f08c379a000000000000000000000000000000000000000000000000000000000815260040180806020018281038252600e8152602001807f4e6f7420617574686f72697a656400000000000000000000000000000000000081525060200191505060405180910390fd5b6000601a60009054906101000a900473ffffffffffffffffffffffffffffffffffffffff1673ffffffffffffffffffffffffffffffffffffffff166370a08231306040518263ffffffff1660e01b8152600401808273ffffffffffffffffffffffffffffffffffffffff16815260200191505060206040518083038186803b15801561192b57600080fd5b505afa15801561193f573d6000803e3d6000fd5b505050506040513d602081101561195557600080fd5b81019080805190602001909291905050509050600060028460ff166003811061197a57fe5b0160009054906101000a900473ffffffffffffffffffffffffffffffffffffffff1673ffffffffffffffffffffffffffffffffffffffff166370a08231306040518263ffffffff1660e01b8152600401808273ffffffffffffffffffffffffffffffffffffffff16815260200191505060206040518083038186803b158015611a0257600080fd5b505afa158015611a16573d6000803e3d6000fd5b505050506040513d6020811015611a2c57600080fd5b8101908080519060200190929190505050905060008211611ab5576040517f08c379a00000000000000000000000000000000000000000000000000000000081526004018080602001828103825260108152602001807f696e73756666696369656e74204352560000000000000000000000000000000081525060200191505060405180910390fd5b611ade612710611ad0601254856144f690919063ffffffff16565b6145c690919063ffffffff16565b9150601a60009054906101000a900473ffffffffffffffffffffffffffffffffffffffff1673ffffffffffffffffffffffffffffffffffffffff1663095ea7b3601960019054906101000a900473ffffffffffffffffffffffffffffffffffffffff16846040518363ffffffff1660e01b8152600401808373ffffffffffffffffffffffffffffffffffffffff16815260200182815260200192505050602060405180830381600087803b158015611b9557600080fd5b505af1158015611ba9573d6000803e3d6000fd5b505050506040513d6020811015611bbf57600080fd5b8101908080519060200190929190505050506060601960009054906101000a900460ff1615611d1a57600267ffffffffffffffff81118015611c0057600080fd5b50604051908082528060200260200182016040528015611c2f5781602001602082028036833780820191505090505b509050601a60009054906101000a900473ffffffffffffffffffffffffffffffffffffffff1681600081518110611c6257fe5b602002602001019073ffffffffffffffffffffffffffffffffffffffff16908173ffffffffffffffffffffffffffffffffffffffff168152505060028560ff1660038110611cac57fe5b0160009054906101000a900473ffffffffffffffffffffffffffffffffffffffff1681600181518110611cdb57fe5b602002602001019073ffffffffffffffffffffffffffffffffffffffff16908173ffffffffffffffffffffffffffffffffffffffff1681525050611eb2565b600367ffffffffffffffff81118015611d3257600080fd5b50604051908082528060200260200182016040528015611d615781602001602082028036833780820191505090505b509050601a60009054906101000a900473ffffffffffffffffffffffffffffffffffffffff1681600081518110611d9457fe5b602002602001019073ffffffffffffffffffffffffffffffffffffffff16908173ffffffffffffffffffffffffffffffffffffffff1681525050601b60009054906101000a900473ffffffffffffffffffffffffffffffffffffffff1681600181518110611dfe57fe5b602002602001019073ffffffffffffffffffffffffffffffffffffffff16908173ffffffffffffffffffffffffffffffffffffffff168152505060028560ff1660038110611e4857fe5b0160009054906101000a900473ffffffffffffffffffffffffffffffffffffffff1681600281518110611e7757fe5b602002602001019073ffffffffffffffffffffffffffffffffffffffff16908173ffffffffffffffffffffffffffffffffffffffff16815250505b601960019054906101000a900473ffffffffffffffffffffffffffffffffffffffff1673ffffffffffffffffffffffffffffffffffffffff166338ed1739846000843061070842016040518663ffffffff1660e01b815260040180868152602001858152602001806020018473ffffffffffffffffffffffffffffffffffffffff168152602001838152602001828103825285818151815260200191508051906020019060200280838360005b83811015611f7a578082015181840152602081019050611f5f565b505050509050019650505050505050600060405180830381600087803b158015611fa357600080fd5b505af1158015611fb7573d6000803e3d6000fd5b50505050600060028660ff1660038110611fcd57fe5b0160009054906101000a900473ffffffffffffffffffffffffffffffffffffffff1673ffffffffffffffffffffffffffffffffffffffff166370a08231306040518263ffffffff1660e01b8152600401808273ffffffffffffffffffffffffffffffffffffffff16815260200191505060206040518083038186803b15801561205557600080fd5b505afa158015612069573d6000803e3d6000fd5b505050506040513d602081101561207f57600080fd5b81019080805190602001909291905050509050828103945050505050919050565b600f5481565b601a60009054906101000a900473ffffffffffffffffffffffffffffffffffffffff1681565b601960019054906101000a900473ffffffffffffffffffffffffffffffffffffffff1681565b601b60009054906101000a900473ffffffffffffffffffffffffffffffffffffffff1681565b61212061481e565b60008054906101000a900473ffffffffffffffffffffffffffffffffffffffff1673ffffffffffffffffffffffffffffffffffffffff163373ffffffffffffffffffffffffffffffffffffffff161480612178575060015b6121ea576040517f08c379a000000000000000000000000000000000000000000000000000000000815260040180806020018281038252600e8152602001807f4e6f7420617574686f72697a656400000000000000000000000000000000000081525060200191505060405180910390fd5b6121f2610bf8565b60006121fc61481e565b6000600160009054906101000a900473ffffffffffffffffffffffffffffffffffffffff1673ffffffffffffffffffffffffffffffffffffffff166370a08231306040518263ffffffff1660e01b8152600401808273ffffffffffffffffffffffffffffffffffffffff16815260200191505060206040518083038186803b15801561228757600080fd5b505afa15801561229b573d6000803e3d6000fd5b505050506040513d60208110156122b157600080fd5b8101908080519060200190929190505050925060005b60038160ff1610156125355760008060028360ff16600381106122e657fe5b0160009054906101000a900473ffffffffffffffffffffffffffffffffffffffff1673ffffffffffffffffffffffffffffffffffffffff1663313ce5676040518163ffffffff1660e01b815260040160206040518083038186803b15801561234d57600080fd5b505afa158015612361573d6000803e3d6000fd5b505050506040513d602081101561237757600080fd5b810190808051906020019092919050505060ff16915060028360ff1614156123b3576123ac848761457c90919063ffffffff16565b9050612406565b6124036017546123f560138660ff16600481106123cc57fe5b01546123e786601203600a0a8b6144f690919063ffffffff16565b6144f690919063ffffffff16565b6145c690919063ffffffff16565b90505b612419818561461090919063ffffffff16565b9350600860009054906101000a900473ffffffffffffffffffffffffffffffffffffffff1673ffffffffffffffffffffffffffffffffffffffff16631a4d01d282856124c7670de0b6b3a76400006124b96127106124ab612487600f5461271061457c90919063ffffffff16565b61249d8c600a0a8c6144f690919063ffffffff16565b6144f690919063ffffffff16565b6145c690919063ffffffff16565b6145c690919063ffffffff16565b6040518463ffffffff1660e01b8152600401808481526020018360ff1681526020018281526020019350505050600060405180830381600087803b15801561250e57600080fd5b505af1158015612522573d6000803e3d6000fd5b50505050505080806001019150506122c7565b5060005b60038160ff16101561284057600060138260ff166004811061255757fe5b0181905550600060028260ff166003811061256e57fe5b0160009054906101000a900473ffffffffffffffffffffffffffffffffffffffff1673ffffffffffffffffffffffffffffffffffffffff166370a08231306040518263ffffffff1660e01b8152600401808273ffffffffffffffffffffffffffffffffffffffff16815260200191505060206040518083038186803b1580156125f657600080fd5b505afa15801561260a573d6000803e3d6000fd5b505050506040513d602081101561262057600080fd5b8101908080519060200190929190505050146128335760028160ff166003811061264657fe5b0160009054906101000a900473ffffffffffffffffffffffffffffffffffffffff1673ffffffffffffffffffffffffffffffffffffffff166370a08231306040518263ffffffff1660e01b8152600401808273ffffffffffffffffffffffffffffffffffffffff16815260200191505060206040518083038186803b1580156126ce57600080fd5b505afa1580156126e2573d6000803e3d6000fd5b505050506040513d60208110156126f857600080fd5b8101908080519060200190929190505050838260ff166003811061271857fe5b60200201818152505060028160ff166003811061273157fe5b0160009054906101000a900473ffffffffffffffffffffffffffffffffffffffff1673ffffffffffffffffffffffffffffffffffffffff1663a9059cbb60008054906101000a900473ffffffffffffffffffffffffffffffffffffffff16858460ff166003811061279e57fe5b60200201516040518363ffffffff1660e01b8152600401808373ffffffffffffffffffffffffffffffffffffffff16815260200182815260200192505050602060405180830381600087803b1580156127f657600080fd5b505af115801561280a573d6000803e3d6000fd5b505050506040513d602081101561282057600080fd5b8101908080519060200190929190505050505b8080600101915050612539565b50600060178190555081935050505090565b60185481565b600c60009054906101000a900473ffffffffffffffffffffffffffffffffffffffff1681565b61271081565b6013816004811061289157fe5b016000915090505481565b600a60009054906101000a900473ffffffffffffffffffffffffffffffffffffffff1681565b600960009054906101000a900473ffffffffffffffffffffffffffffffffffffffff1681565b60008054906101000a900473ffffffffffffffffffffffffffffffffffffffff1673ffffffffffffffffffffffffffffffffffffffff163373ffffffffffffffffffffffffffffffffffffffff161480612940575060015b6129b2576040517f08c379a000000000000000000000000000000000000000000000000000000000815260040180806020018281038252600e8152602001807f4e6f7420617574686f72697a656400000000000000000000000000000000000081525060200191505060405180910390fd5b60008060005b60038160ff161015612ba5576000848260ff16600381106129d557fe5b60200201511115612b985760028160ff16600381106129f057fe5b0160009054906101000a900473ffffffffffffffffffffffffffffffffffffffff1673ffffffffffffffffffffffffffffffffffffffff1663313ce5676040518163ffffffff1660e01b815260040160206040518083038186803b158015612a5757600080fd5b505afa158015612a6b573d6000803e3d6000fd5b505050506040513d6020811015612a8157600080fd5b810190808051906020019092919050505060ff169250612ace848260ff1660038110612aa957fe5b602002015160138360ff1660048110612abe57fe5b015461457c90919063ffffffff16565b60138260ff1660048110612ade57fe5b0181905550612b3a612b2984600a0a612b1b670de0b6b3a7640000888660ff1660038110612b0857fe5b60200201516144f690919063ffffffff16565b6145c690919063ffffffff16565b60175461457c90919063ffffffff16565b601781905550612b95612b8684600a0a612b78670de0b6b3a7640000888660ff1660038110612b6557fe5b60200201516144f690919063ffffffff16565b6145c690919063ffffffff16565b8361461090919063ffffffff16565b91505b80806001019150506129b8565b506000612c77600860009054906101000a900473ffffffffffffffffffffffffffffffffffffffff1673ffffffffffffffffffffffffffffffffffffffff1663bb7b8b806040518163ffffffff1660e01b815260040160206040518083038186803b158015612c1357600080fd5b505afa158015612c27573d6000803e3d6000fd5b505050506040513d6020811015612c3d57600080fd5b8101908080519060200190929190505050612c69670de0b6b3a7640000856144f690919063ffffffff16565b6145c690919063ffffffff16565b9050612cb6612710612ca8612c99600f5461271061461090919063ffffffff16565b846144f690919063ffffffff16565b6145c690919063ffffffff16565b9050612cc181613238565b600860009054906101000a900473ffffffffffffffffffffffffffffffffffffffff1673ffffffffffffffffffffffffffffffffffffffff16639fdaea0c85836040518363ffffffff1660e01b81526004018083600360200280838360005b83811015612d3b578082015181840152602081019050612d20565b5050505090500182815260200192505050600060405180830381600087803b158015612d6657600080fd5b505af1158015612d7a573d6000803e3d6000fd5b5050505060005b60038160ff161015612f86576000858260ff1660038110612d9e57fe5b602002015114612f795760028160ff1660038110612db857fe5b0160009054906101000a900473ffffffffffffffffffffffffffffffffffffffff1673ffffffffffffffffffffffffffffffffffffffff1663a9059cbb60008054906101000a900473ffffffffffffffffffffffffffffffffffffffff1660028460ff1660038110612e2657fe5b0160009054906101000a900473ffffffffffffffffffffffffffffffffffffffff1673ffffffffffffffffffffffffffffffffffffffff166370a08231306040518263ffffffff1660e01b8152600401808273ffffffffffffffffffffffffffffffffffffffff16815260200191505060206040518083038186803b158015612eae57600080fd5b505afa158015612ec2573d6000803e3d6000fd5b505050506040513d6020811015612ed857600080fd5b81019080805190602001909291905050506040518363ffffffff1660e01b8152600401808373ffffffffffffffffffffffffffffffffffffffff16815260200182815260200192505050602060405180830381600087803b158015612f3c57600080fd5b505af1158015612f50573d6000803e3d6000fd5b505050506040513d6020811015612f6657600080fd5b8101908080519060200190929190505050505b8080600101915050612d81565b50612f8f610870565b50505050565b3373ffffffffffffffffffffffffffffffffffffffff16601060009054906101000a900473ffffffffffffffffffffffffffffffffffffffff1673ffffffffffffffffffffffffffffffffffffffff16148061303c575060008054906101000a900473ffffffffffffffffffffffffffffffffffffffff1673ffffffffffffffffffffffffffffffffffffffff163373ffffffffffffffffffffffffffffffffffffffff16145b6130ae576040517f08c379a000000000000000000000000000000000000000000000000000000000815260040180806020018281038252600e8152602001807f4e6f7420617574686f72697a656400000000000000000000000000000000000081525060200191505060405180910390fd5b601a60009054906101000a900473ffffffffffffffffffffffffffffffffffffffff1673ffffffffffffffffffffffffffffffffffffffff1663095ea7b3600c60009054906101000a900473ffffffffffffffffffffffffffffffffffffffff16846040518363ffffffff1660e01b8152600401808373ffffffffffffffffffffffffffffffffffffffff16815260200182815260200192505050602060405180830381600087803b15801561316357600080fd5b505af1158015613177573d6000803e3d6000fd5b505050506040513d602081101561318d57600080fd5b810190808051906020019092919050505050600c60009054906101000a900473ffffffffffffffffffffffffffffffffffffffff1673ffffffffffffffffffffffffffffffffffffffff166365fc387383836040518363ffffffff1660e01b81526004018083815260200182815260200192505050600060405180830381600087803b15801561321c57600080fd5b505af1158015613230573d6000803e3d6000fd5b505050505050565b3373ffffffffffffffffffffffffffffffffffffffff16601060009054906101000a900473ffffffffffffffffffffffffffffffffffffffff1673ffffffffffffffffffffffffffffffffffffffff1614806132df575060008054906101000a900473ffffffffffffffffffffffffffffffffffffffff1673ffffffffffffffffffffffffffffffffffffffff163373ffffffffffffffffffffffffffffffffffffffff16145b613351576040517f08c379a000000000000000000000000000000000000000000000000000000000815260040180806020018281038252600e8152602001807f4e6f7420617574686f72697a656400000000000000000000000000000000000081525060200191505060405180910390fd5b80600a60009054906101000a900473ffffffffffffffffffffffffffffffffffffffff1673ffffffffffffffffffffffffffffffffffffffff166370a08231306040518263ffffffff1660e01b8152600401808273ffffffffffffffffffffffffffffffffffffffff16815260200191505060206040518083038186803b1580156133db57600080fd5b505afa1580156133ef573d6000803e3d6000fd5b505050506040513d602081101561340557600080fd5b8101908080519060200190929190505050101561346d576040517f08c379a00000000000000000000000000000000000000000000000000000000081526004018080602001828103825260248152602001806148626024913960400191505060405180910390fd5b600a60009054906101000a900473ffffffffffffffffffffffffffffffffffffffff1673ffffffffffffffffffffffffffffffffffffffff16632e1a7d4d826040518263ffffffff1660e01b815260040180828152602001915050600060405180830381600087803b1580156134e257600080fd5b505af11580156134f6573d6000803e3d6000fd5b5050505050565b6000600a60009054906101000a900473ffffffffffffffffffffffffffffffffffffffff1673ffffffffffffffffffffffffffffffffffffffff166333134583306040518263ffffffff1660e01b8152600401808273ffffffffffffffffffffffffffffffffffffffff16815260200191505060206040518083038186803b15801561358857600080fd5b505afa15801561359c573d6000803e3d6000fd5b505050506040513d60208110156135b257600080fd5b8101908080519060200190929190505050905090565b60008054906101000a900473ffffffffffffffffffffffffffffffffffffffff1673ffffffffffffffffffffffffffffffffffffffff163373ffffffffffffffffffffffffffffffffffffffff161480613620575060015b613692576040517f08c379a000000000000000000000000000000000000000000000000000000000815260040180806020018281038252600e8152602001807f4e6f7420617574686f72697a656400000000000000000000000000000000000081525060200191505060405180910390fd5b600080600090505b60038160ff16101561399d576000838260ff16600381106136b757fe5b6020020151111561399057600060028260ff16600381106136d457fe5b0160009054906101000a900473ffffffffffffffffffffffffffffffffffffffff1673ffffffffffffffffffffffffffffffffffffffff1663313ce5676040518163ffffffff1660e01b815260040160206040518083038186803b15801561373b57600080fd5b505afa15801561374f573d6000803e3d6000fd5b505050506040513d602081101561376557600080fd5b810190808051906020019092919050505060ff16905060028260ff166003811061378b57fe5b0160009054906101000a900473ffffffffffffffffffffffffffffffffffffffff1673ffffffffffffffffffffffffffffffffffffffff1663095ea7b3600860009054906101000a900473ffffffffffffffffffffffffffffffffffffffff16868560ff16600381106137fa57fe5b60200201516040518363ffffffff1660e01b8152600401808373ffffffffffffffffffffffffffffffffffffffff16815260200182815260200192505050602060405180830381600087803b15801561385257600080fd5b505af1158015613866573d6000803e3d6000fd5b505050506040513d602081101561387c57600080fd5b8101908080519060200190929190505050506138c5848360ff16600381106138a057fe5b602002015160138460ff16600481106138b557fe5b015461461090919063ffffffff16565b60138360ff16600481106138d557fe5b018190555061393161392082600a0a613912670de0b6b3a7640000888760ff16600381106138ff57fe5b60200201516144f690919063ffffffff16565b6145c690919063ffffffff16565b60175461461090919063ffffffff16565b60178190555061398c61397d82600a0a61396f670de0b6b3a7640000888760ff166003811061395c57fe5b60200201516144f690919063ffffffff16565b6145c690919063ffffffff16565b8461461090919063ffffffff16565b9250505b808060010191505061369a565b506000806139a9614114565b809250819350505080156139d7576139cc8260115461461090919063ffffffff16565b6011819055506139f3565b6139ec8260115461457c90919063ffffffff16565b6011819055505b6000613ac4600860009054906101000a900473ffffffffffffffffffffffffffffffffffffffff1673ffffffffffffffffffffffffffffffffffffffff1663bb7b8b806040518163ffffffff1660e01b815260040160206040518083038186803b158015613a6057600080fd5b505afa158015613a74573d6000803e3d6000fd5b505050506040513d6020811015613a8a57600080fd5b8101908080519060200190929190505050613ab6670de0b6b3a7640000876144f690919063ffffffff16565b6145c690919063ffffffff16565b9050600860009054906101000a900473ffffffffffffffffffffffffffffffffffffffff1673ffffffffffffffffffffffffffffffffffffffff16634515cef386613b42612710613b34613b25600e5461271061457c90919063ffffffff16565b876144f690919063ffffffff16565b6145c690919063ffffffff16565b6040518363ffffffff1660e01b81526004018083600360200280838360005b83811015613b7c578082015181840152602081019050613b61565b5050505090500182815260200192505050600060405180830381600087803b158015613ba757600080fd5b505af1158015613bbb573d6000803e3d6000fd5b50505050600860009054906101000a900473ffffffffffffffffffffffffffffffffffffffff1673ffffffffffffffffffffffffffffffffffffffff1663bb7b8b806040518163ffffffff1660e01b815260040160206040518083038186803b158015613c2757600080fd5b505afa158015613c3b573d6000803e3d6000fd5b505050506040513d6020811015613c5157600080fd5b8101908080519060200190929190505050601881905550613c70610870565b5050505050565b60125481565b3373ffffffffffffffffffffffffffffffffffffffff16601060009054906101000a900473ffffffffffffffffffffffffffffffffffffffff1673ffffffffffffffffffffffffffffffffffffffff161480613d24575060008054906101000a900473ffffffffffffffffffffffffffffffffffffffff1673ffffffffffffffffffffffffffffffffffffffff163373ffffffffffffffffffffffffffffffffffffffff16145b613d96576040517f08c379a000000000000000000000000000000000000000000000000000000000815260040180806020018281038252600e8152602001807f4e6f7420617574686f72697a656400000000000000000000000000000000000081525060200191505060405180910390fd5b600c60009054906101000a900473ffffffffffffffffffffffffffffffffffffffff1673ffffffffffffffffffffffffffffffffffffffff16633ccfd60b6040518163ffffffff1660e01b8152600401600060405180830381600087803b158015613e0057600080fd5b505af1158015613e14573d6000803e3d6000fd5b50505050565b3373ffffffffffffffffffffffffffffffffffffffff16601060009054906101000a900473ffffffffffffffffffffffffffffffffffffffff1673ffffffffffffffffffffffffffffffffffffffff161480613ec1575060008054906101000a900473ffffffffffffffffffffffffffffffffffffffff1673ffffffffffffffffffffffffffffffffffffffff163373ffffffffffffffffffffffffffffffffffffffff16145b613f33576040517f08c379a000000000000000000000000000000000000000000000000000000000815260040180806020018281038252600e8152602001807f4e6f7420617574686f72697a656400000000000000000000000000000000000081525060200191505060405180910390fd5b600d60009054906101000a900473ffffffffffffffffffffffffffffffffffffffff1673ffffffffffffffffffffffffffffffffffffffff16634e71d92d6040518163ffffffff1660e01b8152600401600060405180830381600087803b158015613f9d57600080fd5b505af1158015613fb1573d6000803e3d6000fd5b50505050565b3373ffffffffffffffffffffffffffffffffffffffff16601060009054906101000a900473ffffffffffffffffffffffffffffffffffffffff1673ffffffffffffffffffffffffffffffffffffffff16148061405e575060008054906101000a900473ffffffffffffffffffffffffffffffffffffffff1673ffffffffffffffffffffffffffffffffffffffff163373ffffffffffffffffffffffffffffffffffffffff16145b6140d0576040517f08c379a000000000000000000000000000000000000000000000000000000000815260040180806020018281038252600e8152602001807f4e6f7420617574686f72697a656400000000000000000000000000000000000081525060200191505060405180910390fd5b80601060006101000a81548173ffffffffffffffffffffffffffffffffffffffff021916908373ffffffffffffffffffffffffffffffffffffffff16021790555050565b600080601854600860009054906101000a900473ffffffffffffffffffffffffffffffffffffffff1673ffffffffffffffffffffffffffffffffffffffff1663bb7b8b806040518163ffffffff1660e01b815260040160206040518083038186803b15801561418257600080fd5b505afa158015614196573d6000803e3d6000fd5b505050506040513d60208110156141ac57600080fd5b8101908080519060200190929190505050106143595761434e61427c601854600860009054906101000a900473ffffffffffffffffffffffffffffffffffffffff1673ffffffffffffffffffffffffffffffffffffffff1663bb7b8b806040518163ffffffff1660e01b815260040160206040518083038186803b15801561423357600080fd5b505afa158015614247573d6000803e3d6000fd5b505050506040513d602081101561425d57600080fd5b810190808051906020019092919050505061457c90919063ffffffff16565b600a60009054906101000a900473ffffffffffffffffffffffffffffffffffffffff1673ffffffffffffffffffffffffffffffffffffffff166370a08231306040518263ffffffff1660e01b8152600401808273ffffffffffffffffffffffffffffffffffffffff16815260200191505060206040518083038186803b15801561430557600080fd5b505afa158015614319573d6000803e3d6000fd5b505050506040513d602081101561432f57600080fd5b81019080805190602001909291905050506144f690919063ffffffff16565b6001915091506144ec565b6144e5614413600860009054906101000a900473ffffffffffffffffffffffffffffffffffffffff1673ffffffffffffffffffffffffffffffffffffffff1663bb7b8b806040518163ffffffff1660e01b815260040160206040518083038186803b1580156143c757600080fd5b505afa1580156143db573d6000803e3d6000fd5b505050506040513d60208110156143f157600080fd5b810190808051906020019092919050505060185461457c90919063ffffffff16565b600a60009054906101000a900473ffffffffffffffffffffffffffffffffffffffff1673ffffffffffffffffffffffffffffffffffffffff166370a08231306040518263ffffffff1660e01b8152600401808273ffffffffffffffffffffffffffffffffffffffff16815260200191505060206040518083038186803b15801561449c57600080fd5b505afa1580156144b0573d6000803e3d6000fd5b505050506040513d60208110156144c657600080fd5b81019080805190602001909291905050506144f690919063ffffffff16565b6000915091505b9091565b60175481565b6000808314156145095760009050614576565b600082840290508284828161451a57fe5b0414614571576040517f08c379a00000000000000000000000000000000000000000000000000000000081526004018080602001828103825260218152602001806148416021913960400191505060405180910390fd5b809150505b92915050565b60006145be83836040518060400160405280601e81526020017f536166654d6174683a207375627472616374696f6e206f766572666c6f770000815250614698565b905092915050565b600061460883836040518060400160405280601a81526020017f536166654d6174683a206469766973696f6e206279207a65726f000000000000815250614758565b905092915050565b60008082840190508381101561468e576040517f08c379a000000000000000000000000000000000000000000000000000000000815260040180806020018281038252601b8152602001807f536166654d6174683a206164646974696f6e206f766572666c6f77000000000081525060200191505060405180910390fd5b8091505092915050565b6000838311158290614745576040517f08c379a00000000000000000000000000000000000000000000000000000000081526004018080602001828103825283818151815260200191508051906020019080838360005b8381101561470a5780820151818401526020810190506146ef565b50505050905090810190601f1680156147375780820380516001836020036101000a031916815260200191505b509250505060405180910390fd5b5060008385039050809150509392505050565b60008083118290614804576040517f08c379a00000000000000000000000000000000000000000000000000000000081526004018080602001828103825283818151815260200191508051906020019080838360005b838110156147c95780820151818401526020810190506147ae565b50505050905090810190601f1680156147f65780820380516001836020036101000a031916815260200191505b509250505060405180910390fd5b50600083858161481057fe5b049050809150509392505050565b604051806060016040528060039060208202803683378082019150509050509056fe536166654d6174683a206d756c7469706c69636174696f6e206f766572666c6f77596f752068617665206e6f74207374616b65642074686174206d75636820616d6f756e74a2646970667358221220732733794d2db117560986e179b96ced1499fa269d75ada1bc19e48c07aa436464736f6c634300060c0033",
  "immutableReferences": {},
  "source": "// SPDX-License-Identifier: UNLICENSED\r\npragma solidity ^0.6.0;\r\n\r\nimport '../../Interfaces/IERC20Interface.sol';\r\nimport '../../Interfaces/CurveInterface.sol';\r\nimport '../../Interfaces/UniswapInterface.sol';\r\nimport '@openzeppelin/contracts/math/SafeMath.sol';\r\n\r\ncontract CurveStrategy {\r\n\r\n    using SafeMath for uint256;\r\n\r\n    address royaleAddress;\r\n    IERC20 poolToken;\r\n    IERC20[3] Coins;  // DAI / USDC / USDT\r\n    IERC20[3] uCoins; // yDAI / yUSDC / yUSDT\r\n    CurvePool public pool;\r\n    DepositY public depositY;\r\n    PoolGauge public gauge;\r\n    Minter public minter;\r\n    VoteEscrow public voteEscrow;\r\n    FeeDistributor public feeDistributor;\r\n\r\n    uint256 public constant DENOMINATOR = 10000;\r\n\r\n    uint256 public DepositSlip = 100;\r\n\r\n    uint256 public withdrawSlip = 200;\r\n\r\n    address public wallet;\r\n    \r\n    uint256 totalProfit;\r\n    \r\n    uint256 public crvBreak=10000;\r\n    \r\n    uint256[4] public depositBal;\r\n\r\n    uint256 public totalDeposited;\r\n\r\n    uint256 public virtualPrice;\r\n \r\n    bool public TEST = true; // For testing uniswap , should be removed on deployment to the mainnet\r\n\r\n    address public uniAddr  = address(0x7a250d5630B4cF539739dF2C5dAcb4c659F2488D);\r\n    address public crvAddr  = address(0x5dDBDBB1D1e691d2994d4A44470EB07dFCbd57C3);\r\n    address public wethAddr = address(0xC02aaA39b223FE8D0A0e5C4F27eAD9083C756Cc2);\r\n\r\n\r\n    modifier onlyWallet(){\r\n      require(wallet == msg.sender|| msg.sender==royaleAddress, \"Not authorized\");\r\n      _;\r\n    }\r\n\r\n    modifier onlyRoyaleLP() {\r\n        require(msg.sender == royaleAddress || true, \"Not authorized\");\r\n        _;\r\n    }\r\n\r\n     constructor(\r\n         address _wallet,\r\n         IERC20[3] memory coins, \r\n         IERC20[3] memory ucoins,\r\n         address _royaleaddress,\r\n         address _crvpool,\r\n         address _depositY,\r\n         address _poolToken,\r\n         address _gauge,\r\n         address _minter\r\n         ) public {\r\n\r\n        wallet=_wallet;\r\n        Coins = coins;\r\n        uCoins=ucoins;\r\n        royaleAddress =_royaleaddress;\r\n        depositY=DepositY(_depositY);\r\n        pool = CurvePool(_crvpool);\r\n        poolToken = IERC20(_poolToken);\r\n        gauge = PoolGauge(_gauge);\r\n        minter=Minter(_minter);\r\n        \r\n    }\r\n\r\n\r\n    function setCRVBreak(uint256 _percentage)external onlyWallet(){\r\n        crvBreak=_percentage;\r\n    }\r\n\r\n    function transferOwnership(address _wallet) external onlyWallet(){\r\n        wallet=_wallet;\r\n    }\r\n\r\n\r\n// Functions to deposit and withdraw stable coins in the y pool and recieve LP tokens (Ycrv)\r\n\r\n\r\n    function updateArray(uint[3] memory amount) internal pure returns(uint[4] memory){  // for Y Pool\r\n        uint256[4] memory uamount;\r\n        for(uint8 i=0;i<3;i++){\r\n                uamount[i]=amount[i];\r\n        }\r\n        uamount[3]=0;\r\n        return uamount;\r\n    }\r\n\r\n    function deposit(uint[3] memory amounts) external onlyRoyaleLP(){\r\n        //uint256[4] memory amounts;\r\n        //uint[4] memory damount;\r\n        uint currentTotal;\r\n        //amounts=updateArray(amount);\r\n        for(uint8 i=0; i<3; i++) {\r\n            if(amounts[i] > 0) {\r\n               uint decimal;\r\n               decimal=Coins[i].decimals();\r\n               Coins[i].approve(address(pool), amounts[i]); \r\n               depositBal[i] =depositBal[i].add(amounts[i]);\r\n               totalDeposited = totalDeposited.add(amounts[i].mul(1e18).div(10**decimal));\r\n               //damount[i] = amounts[i].mul(1e18).div(uCoins[i].getPricePerFullShare());\r\n               currentTotal =currentTotal.add(amounts[i].mul(1e18).div(10**decimal));\r\n            }\r\n        }\r\n        uint256 returnedAmount;\r\n        bool status;\r\n        (returnedAmount,status)=calculateProfit();\r\n        if(status){\r\n            totalProfit =totalProfit.add(returnedAmount);\r\n        }\r\n        else{\r\n            totalProfit =totalProfit.sub(returnedAmount);\r\n        } \r\n        uint256 mintAmount = currentTotal.mul(1e18).div(pool.get_virtual_price());\r\n        pool.add_liquidity(amounts,  mintAmount.mul(DENOMINATOR.sub(DepositSlip)).div(DENOMINATOR));\r\n        virtualPrice=pool.get_virtual_price();\r\n        stakeLP();   \r\n    }\r\n\r\n    function withdraw(uint[3] memory amounts) external onlyRoyaleLP() {\r\n        //uint256[4] memory amounts;\r\n        //uint[4] memory damount;\r\n        uint decimal;\r\n        uint currentTotal;\r\n        //amounts=updateArray(amount);\r\n        for(uint8 i=0;i<3;i++){\r\n            if(amounts[i]>0){\r\n                decimal = Coins[i].decimals();\r\n                depositBal[i] =depositBal[i].sub(amounts[i]);\r\n                totalDeposited =totalDeposited.sub(amounts[i].mul(1e18).div(10**decimal));\r\n                //damount[i] = amounts[i].mul(1e18).div(uCoins[i].getPricePerFullShare());\r\n                currentTotal =currentTotal.add(amounts[i].mul(1e18).div(10**decimal));\r\n            }  \r\n        }\r\n        uint256 max_burn = currentTotal.mul(1e18).div(pool.get_virtual_price());\r\n        max_burn=max_burn.mul(DENOMINATOR.add(withdrawSlip)).div(DENOMINATOR);\r\n        unstakeLP(max_burn);\r\n        pool.remove_liquidity_imbalance(amounts, max_burn);\r\n        for(uint8 i=0;i<3;i++){\r\n            if(amounts[i]!=0){\r\n               Coins[i].transfer(royaleAddress, Coins[i].balanceOf(address(this)));\r\n            }\r\n        } \r\n        stakeLP();\r\n    }\r\n\r\n    function withdrawAll() external onlyRoyaleLP() returns(uint256[3] memory){\r\n        unstakeAll();\r\n        uint256 poolTokenBalance;\r\n        uint256[3] memory withdrawAmt;\r\n        uint totalBurnt;\r\n        poolTokenBalance=poolToken.balanceOf(address(this));\r\n        for(uint8 i=0;i<3;i++){\r\n            uint decimal;\r\n            uint poolTokenShare;\r\n            decimal=Coins[i].decimals();\r\n            if(i==2){\r\n                poolTokenShare =poolTokenBalance.sub(totalBurnt);\r\n            }\r\n            else{\r\n                poolTokenShare= poolTokenBalance.mul(10**(18-decimal)).mul(depositBal[i]).div(totalDeposited);\r\n            }\r\n            totalBurnt =totalBurnt.add(poolTokenShare);\r\n            pool.remove_liquidity_one_coin(poolTokenShare, i, poolTokenShare.mul(10**decimal).mul(DENOMINATOR.sub(withdrawSlip)).div(DENOMINATOR).div(10**18));\r\n        }\r\n        for(uint8 i=0;i<3;i++){\r\n            depositBal[i] =0;\r\n            if(Coins[i].balanceOf(address(this))!=0){\r\n                 withdrawAmt[i]= Coins[i].balanceOf(address(this));\r\n                 Coins[i].transfer(royaleAddress,withdrawAmt[i]);\r\n            }\r\n        }\r\n        totalDeposited=0;\r\n        return withdrawAmt; \r\n    } \r\n\r\n\r\n\r\n    // Functions to stake and unstake LPTokens(Ycrv) and claim CRV\r\n\r\n    function stakeLP() public onlyWallet() {\r\n        uint depositAmt = poolToken.balanceOf(address(this)) ;\r\n        poolToken.approve(address(gauge), depositAmt);\r\n        gauge.deposit(depositAmt);  \r\n    }\r\n\r\n    function unstakeLP(uint _amount) public  onlyWallet(){\r\n        require(gauge.balanceOf(address(this)) >= _amount,\"You have not staked that much amount\");\r\n        gauge.withdraw(_amount);\r\n    }\r\n\r\n    function unstakeAll()public onlyWallet(){\r\n        gauge.withdraw(gauge.balanceOf(address(this)));  \r\n    }\r\n\r\n    function checkClaimableToken()public view  returns(uint256){\r\n        return gauge.claimable_tokens(address(this));\r\n    }\r\n\r\n    function claimCRV() public onlyWallet(){\r\n        minter.mint(address(gauge));\r\n    }\r\n\r\n    // Functions to lock and unlock CRV and recieve VeCRV\r\n\r\n    function createLock(uint256 _value,uint256 _unlockTime) external onlyWallet(){\r\n        IERC20(crvAddr).approve(address(voteEscrow), _value);\r\n        voteEscrow.create_lock(_value, _unlockTime);\r\n    }\r\n\r\n    function increaseLockAmount(uint256 _value) external onlyWallet(){\r\n        IERC20(crvAddr).approve(address(voteEscrow), _value);\r\n        voteEscrow.increase_amount(_value);\r\n    }\r\n\r\n    function releaseLock() external onlyWallet(){\r\n        voteEscrow.withdraw();\r\n    }\r\n\r\n    function claim3CRV()public onlyWallet(){\r\n        feeDistributor.claim();\r\n    }\r\n\r\n    // Function to sell CRV\r\n\r\n    function sellCRV(uint8 _index) public onlyWallet() returns(uint256) {  //here index=0 means convert crv into DAI , index=1 means crv into USDC , index=2 means crv into USDT\r\n        uint256 crvAmt = IERC20(crvAddr).balanceOf(address(this));\r\n        uint256 prevCoin = Coins[_index].balanceOf(address(this));\r\n        require(crvAmt > 0, \"insufficient CRV\");\r\n        crvAmt=crvAmt.mul(crvBreak).div(DENOMINATOR);\r\n        IERC20(crvAddr).approve(uniAddr, crvAmt);\r\n        address[] memory path; \r\n        if(TEST) {\r\n            path = new address[](2);\r\n            path[0] = crvAddr;\r\n            path[1] = address(Coins[_index]);\r\n\r\n        } else {\r\n            path = new address[](3);\r\n            path[0] = crvAddr;\r\n            path[1] = wethAddr;\r\n            path[2] = address(Coins[_index]);\r\n        }\r\n        UniswapI(uniAddr).swapExactTokensForTokens(\r\n            crvAmt, \r\n            uint256(0), \r\n            path, \r\n            address(this), \r\n            now + 1800\r\n        );\r\n        uint256 postCoin=Coins[_index].balanceOf(address(this));\r\n        return (postCoin-prevCoin);\r\n    }\r\n\r\n    function calculateProfit()public view returns(uint256,bool) {\r\n        if(pool.get_virtual_price() >= virtualPrice){\r\n            return (gauge.balanceOf(address(this)).mul(pool.get_virtual_price().sub(virtualPrice)),true);\r\n        }    \r\n        else{\r\n            return (gauge.balanceOf(address(this)).mul(virtualPrice.sub(pool.get_virtual_price())),false);\r\n        }\r\n        \r\n    }\r\n\r\n\r\n    function gaugeBoostCalculator() public view returns(uint256){\r\n          uint minimumVeCRV ;\r\n          minimumVeCRV =(gauge.balanceOf(address(this)).mul(100)).sub((gauge.balanceOf(address(this)).mul(40))).mul(voteEscrow.totalSupply()).div(gauge.totalSupply().mul(60));\r\n          return minimumVeCRV;\r\n    }\r\n}",
  "sourcePath": "C:/Users/vishn/OneDrive/Desktop/new/New folder/royale-contracts/contracts/Pool/rCurveStrategy.sol",
  "compiler": {
    "name": "solc",
    "version": "0.6.12+commit.27d51765.Emscripten.clang"
  },
  "schemaVersion": "3.3.2",
  "updatedAt": "2021-02-09T05:36:32.952Z",
  "devdoc": {
    "kind": "dev",
    "methods": {},
    "version": 1
  },
  "userdoc": {
    "kind": "user",
    "methods": {},
    "version": 1
  }
}