{
  "contractName": "CurveStrategy",
  "abi": [
    {
      "inputs": [
        {
          "internalType": "address",
          "name": "_wallet",
          "type": "address"
        },
        {
          "internalType": "contract IERC20[3]",
          "name": "_tokens",
          "type": "address[3]"
        },
        {
          "internalType": "address",
          "name": "_royaleaddress",
          "type": "address"
        },
        {
          "internalType": "address",
          "name": "_yieldDistributor",
          "type": "address"
        },
        {
          "internalType": "address",
          "name": "_crvpool",
          "type": "address"
        },
        {
          "internalType": "address",
          "name": "_poolToken",
          "type": "address"
        },
        {
          "internalType": "address",
          "name": "_gauge",
          "type": "address"
        },
        {
          "internalType": "address",
          "name": "_minter",
          "type": "address"
        },
        {
          "internalType": "address",
          "name": "_uniAddress",
          "type": "address"
        },
        {
          "internalType": "address",
          "name": "_crvAddress",
          "type": "address"
        },
        {
          "internalType": "address",
          "name": "_wethAddress",
          "type": "address"
        }
      ],
      "stateMutability": "nonpayable",
      "type": "constructor"
    },
    {
      "anonymous": false,
      "inputs": [],
      "name": "crvClaimed",
      "type": "event"
    },
    {
      "anonymous": false,
      "inputs": [
        {
          "indexed": false,
          "internalType": "uint256",
          "name": "",
          "type": "uint256"
        }
      ],
      "name": "locked",
      "type": "event"
    },
    {
      "anonymous": false,
      "inputs": [
        {
          "indexed": false,
          "internalType": "uint256",
          "name": "",
          "type": "uint256"
        }
      ],
      "name": "staked",
      "type": "event"
    },
    {
      "anonymous": false,
      "inputs": [],
      "name": "unlocked",
      "type": "event"
    },
    {
      "anonymous": false,
      "inputs": [
        {
          "indexed": false,
          "internalType": "uint256",
          "name": "",
          "type": "uint256"
        }
      ],
      "name": "unstaked",
      "type": "event"
    },
    {
      "anonymous": false,
      "inputs": [
        {
          "indexed": false,
          "internalType": "uint256",
          "name": "",
          "type": "uint256"
        },
        {
          "indexed": false,
          "internalType": "uint256",
          "name": "",
          "type": "uint256"
        }
      ],
      "name": "yieldTransfered",
      "type": "event"
    },
    {
      "anonymous": false,
      "inputs": [],
      "name": "yieldTransfered",
      "type": "event"
    },
    {
      "inputs": [],
      "name": "DENOMINATOR",
      "outputs": [
        {
          "internalType": "uint256",
          "name": "",
          "type": "uint256"
        }
      ],
      "stateMutability": "view",
      "type": "function"
    },
    {
      "inputs": [],
      "name": "DepositSlip",
      "outputs": [
        {
          "internalType": "uint256",
          "name": "",
          "type": "uint256"
        }
      ],
      "stateMutability": "view",
      "type": "function"
    },
    {
      "inputs": [],
      "name": "TEST",
      "outputs": [
        {
          "internalType": "bool",
          "name": "",
          "type": "bool"
        }
      ],
      "stateMutability": "view",
      "type": "function"
    },
    {
      "inputs": [],
      "name": "crvAddr",
      "outputs": [
        {
          "internalType": "contract IERC20",
          "name": "",
          "type": "address"
        }
      ],
      "stateMutability": "view",
      "type": "function"
    },
    {
      "inputs": [],
      "name": "crvBreak",
      "outputs": [
        {
          "internalType": "uint256",
          "name": "",
          "type": "uint256"
        }
      ],
      "stateMutability": "view",
      "type": "function"
    },
    {
      "inputs": [],
      "name": "feeDistributor",
      "outputs": [
        {
          "internalType": "contract FeeDistributor",
          "name": "",
          "type": "address"
        }
      ],
      "stateMutability": "view",
      "type": "function"
    },
    {
      "inputs": [],
      "name": "gauge",
      "outputs": [
        {
          "internalType": "contract PoolGauge",
          "name": "",
          "type": "address"
        }
      ],
      "stateMutability": "view",
      "type": "function"
    },
    {
      "inputs": [],
      "name": "minter",
      "outputs": [
        {
          "internalType": "contract Minter",
          "name": "",
          "type": "address"
        }
      ],
      "stateMutability": "view",
      "type": "function"
    },
    {
      "inputs": [],
      "name": "pool",
      "outputs": [
        {
          "internalType": "contract CurvePool",
          "name": "",
          "type": "address"
        }
      ],
      "stateMutability": "view",
      "type": "function"
    },
    {
      "inputs": [],
      "name": "poolToken",
      "outputs": [
        {
          "internalType": "contract IERC20",
          "name": "",
          "type": "address"
        }
      ],
      "stateMutability": "view",
      "type": "function"
    },
    {
      "inputs": [],
      "name": "royaleAddress",
      "outputs": [
        {
          "internalType": "address",
          "name": "",
          "type": "address"
        }
      ],
      "stateMutability": "view",
      "type": "function"
    },
    {
      "inputs": [
        {
          "internalType": "uint256",
          "name": "",
          "type": "uint256"
        }
      ],
      "name": "tokens",
      "outputs": [
        {
          "internalType": "contract IERC20",
          "name": "",
          "type": "address"
        }
      ],
      "stateMutability": "view",
      "type": "function"
    },
    {
      "inputs": [],
      "name": "uniAddr",
      "outputs": [
        {
          "internalType": "contract UniswapI",
          "name": "",
          "type": "address"
        }
      ],
      "stateMutability": "view",
      "type": "function"
    },
    {
      "inputs": [],
      "name": "voteEscrow",
      "outputs": [
        {
          "internalType": "contract VoteEscrow",
          "name": "",
          "type": "address"
        }
      ],
      "stateMutability": "view",
      "type": "function"
    },
    {
      "inputs": [],
      "name": "wallet",
      "outputs": [
        {
          "internalType": "address",
          "name": "",
          "type": "address"
        }
      ],
      "stateMutability": "view",
      "type": "function"
    },
    {
      "inputs": [],
      "name": "wethAddr",
      "outputs": [
        {
          "internalType": "address",
          "name": "",
          "type": "address"
        }
      ],
      "stateMutability": "view",
      "type": "function"
    },
    {
      "inputs": [],
      "name": "withdrawSlip",
      "outputs": [
        {
          "internalType": "uint256",
          "name": "",
          "type": "uint256"
        }
      ],
      "stateMutability": "view",
      "type": "function"
    },
    {
      "inputs": [],
      "name": "yieldDistributor",
      "outputs": [
        {
          "internalType": "address",
          "name": "",
          "type": "address"
        }
      ],
      "stateMutability": "view",
      "type": "function"
    },
    {
      "inputs": [
        {
          "internalType": "uint256",
          "name": "_percentage",
          "type": "uint256"
        }
      ],
      "name": "setCRVBreak",
      "outputs": [],
      "stateMutability": "nonpayable",
      "type": "function"
    },
    {
      "inputs": [
        {
          "internalType": "address",
          "name": "_wallet",
          "type": "address"
        }
      ],
      "name": "transferOwnership",
      "outputs": [],
      "stateMutability": "nonpayable",
      "type": "function"
    },
    {
      "inputs": [
        {
          "internalType": "address",
          "name": "_address",
          "type": "address"
        }
      ],
      "name": "changeRoyaleLP",
      "outputs": [],
      "stateMutability": "nonpayable",
      "type": "function"
    },
    {
      "inputs": [
        {
          "internalType": "uint256[3]",
          "name": "amounts",
          "type": "uint256[3]"
        }
      ],
      "name": "deposit",
      "outputs": [],
      "stateMutability": "nonpayable",
      "type": "function"
    },
    {
      "inputs": [
        {
          "internalType": "uint256[3]",
          "name": "amounts",
          "type": "uint256[3]"
        }
      ],
      "name": "withdraw",
      "outputs": [],
      "stateMutability": "nonpayable",
      "type": "function"
    },
    {
      "inputs": [],
      "name": "withdrawAll",
      "outputs": [
        {
          "internalType": "uint256[3]",
          "name": "",
          "type": "uint256[3]"
        }
      ],
      "stateMutability": "nonpayable",
      "type": "function"
    },
    {
      "inputs": [],
      "name": "stakeLP",
      "outputs": [],
      "stateMutability": "nonpayable",
      "type": "function"
    },
    {
      "inputs": [
        {
          "internalType": "uint256",
          "name": "_amount",
          "type": "uint256"
        }
      ],
      "name": "unstakeLP",
      "outputs": [],
      "stateMutability": "nonpayable",
      "type": "function"
    },
    {
      "inputs": [],
      "name": "checkClaimableToken",
      "outputs": [
        {
          "internalType": "uint256",
          "name": "",
          "type": "uint256"
        }
      ],
      "stateMutability": "view",
      "type": "function"
    },
    {
      "inputs": [],
      "name": "claimCRV",
      "outputs": [],
      "stateMutability": "nonpayable",
      "type": "function"
    },
    {
      "inputs": [
        {
          "internalType": "uint256",
          "name": "_value",
          "type": "uint256"
        },
        {
          "internalType": "uint256",
          "name": "_unlockTime",
          "type": "uint256"
        }
      ],
      "name": "createLock",
      "outputs": [],
      "stateMutability": "nonpayable",
      "type": "function"
    },
    {
      "inputs": [
        {
          "internalType": "uint256",
          "name": "_value",
          "type": "uint256"
        }
      ],
      "name": "increaseLockAmount",
      "outputs": [],
      "stateMutability": "nonpayable",
      "type": "function"
    },
    {
      "inputs": [],
      "name": "releaseLock",
      "outputs": [],
      "stateMutability": "nonpayable",
      "type": "function"
    },
    {
      "inputs": [],
      "name": "claim3CRV",
      "outputs": [],
      "stateMutability": "nonpayable",
      "type": "function"
    },
    {
      "inputs": [
        {
          "internalType": "uint8",
          "name": "_index",
          "type": "uint8"
        }
      ],
      "name": "sellCRV",
      "outputs": [
        {
          "internalType": "uint256",
          "name": "",
          "type": "uint256"
        }
      ],
      "stateMutability": "nonpayable",
      "type": "function"
    },
    {
      "inputs": [],
      "name": "gaugeVeCRVCalculator",
      "outputs": [
        {
          "internalType": "uint256",
          "name": "",
          "type": "uint256"
        }
      ],
      "stateMutability": "view",
      "type": "function"
    }
  ],
  "bytecode": "0x60806040526064600e5560c8600f556127106011556001601260006101000a81548160ff0219169083151502179055503480156200003c57600080fd5b506040516200486f3803806200486f83398181016040526101a08110156200006357600080fd5b81019080805190602001909291909190826060018051906020019092919080519060200190929190805190602001909291908051906020019092919080519060200190929190805190602001909291908051906020019092919080519060200190929190805190602001909291905050508a601060006101000a81548173ffffffffffffffffffffffffffffffffffffffff021916908373ffffffffffffffffffffffffffffffffffffffff1602179055508960039060036200012892919062000382565b50886000806101000a81548173ffffffffffffffffffffffffffffffffffffffff021916908373ffffffffffffffffffffffffffffffffffffffff16021790555087600160006101000a81548173ffffffffffffffffffffffffffffffffffffffff021916908373ffffffffffffffffffffffffffffffffffffffff16021790555086600660006101000a81548173ffffffffffffffffffffffffffffffffffffffff021916908373ffffffffffffffffffffffffffffffffffffffff16021790555085600260006101000a81548173ffffffffffffffffffffffffffffffffffffffff021916908373ffffffffffffffffffffffffffffffffffffffff16021790555084600760006101000a81548173ffffffffffffffffffffffffffffffffffffffff021916908373ffffffffffffffffffffffffffffffffffffffff16021790555083600860006101000a81548173ffffffffffffffffffffffffffffffffffffffff021916908373ffffffffffffffffffffffffffffffffffffffff16021790555082600b60006101000a81548173ffffffffffffffffffffffffffffffffffffffff021916908373ffffffffffffffffffffffffffffffffffffffff16021790555081600c60006101000a81548173ffffffffffffffffffffffffffffffffffffffff021916908373ffffffffffffffffffffffffffffffffffffffff16021790555080600d60006101000a81548173ffffffffffffffffffffffffffffffffffffffff021916908373ffffffffffffffffffffffffffffffffffffffff160217905550505050505050505050505062000441565b8260038101928215620003f1579160200282015b82811115620003f05782518260006101000a81548173ffffffffffffffffffffffffffffffffffffffff021916908373ffffffffffffffffffffffffffffffffffffffff1602179055509160200191906001019062000396565b5b50905062000400919062000404565b5090565b5b808211156200043d57600081816101000a81549073ffffffffffffffffffffffffffffffffffffffff02191690555060010162000405565b5090565b61441e80620004516000396000f3fe608060405234801561001057600080fd5b50600436106102065760003560e01c80637d5aa5f41161011a578063c4778998116100ad578063dbbcbd3d1161007c578063dbbcbd3d146107b4578063eda54ad2146107d2578063f166f3e8146107dc578063f2fde38b146107e6578063f7ee0b8e1461082a57610206565b8063c4778998146106cf578063cbdf382c146106fd578063d3639ae314610731578063d4e20b011461074f57610206565b8063a38c2c3d116100e9578063a38c2c3d146105ca578063a6f19c84146105fe578063b1b8f1be14610632578063b52c05fe1461069757610206565b80637d5aa5f4146104fe578063853828b6146105325780639019a28514610578578063918f8674146105ac57610206565b806348f8f6d91161019d578063521eb2731161016c578063521eb273146103ff5780636b944998146104335780636e75702e1461047857806374b21fbe146104965780637b158f38146104ca57610206565b806348f8f6d91461034f5780634df50a55146103595780634f64b2be1461038757806351d977a6146103df57610206565b80632b51a095116101d95780632b51a095146102b15780633557ea1e146102e5578063393403b714610303578063403f44471461032157610206565b8063075461721461020b5780630d43e8ad1461023f57806310ff582d1461027357806316f0115b1461027d575b600080fd5b61021361086e565b604051808273ffffffffffffffffffffffffffffffffffffffff16815260200191505060405180910390f35b610247610894565b604051808273ffffffffffffffffffffffffffffffffffffffff16815260200191505060405180910390f35b61027b6108ba565b005b610285610c53565b604051808273ffffffffffffffffffffffffffffffffffffffff16815260200191505060405180910390f35b6102b9610c79565b604051808273ffffffffffffffffffffffffffffffffffffffff16815260200191505060405180910390f35b6102ed610c9d565b6040518082815260200191505060405180910390f35b61030b610ca3565b6040518082815260200191505060405180910390f35b61034d6004803603602081101561033757600080fd5b8101908080359060200190929190505050610fe9565b005b610357611264565b005b6103856004803603602081101561036f57600080fd5b8101908080359060200190929190505050611470565b005b6103b36004803603602081101561039d57600080fd5b810190808035906020019092919050505061153d565b604051808273ffffffffffffffffffffffffffffffffffffffff16815260200191505060405180910390f35b6103e7611570565b60405180821515815260200191505060405180910390f35b610407611583565b604051808273ffffffffffffffffffffffffffffffffffffffff16815260200191505060405180910390f35b6104626004803603602081101561044957600080fd5b81019080803560ff1690602001909291905050506115a9565b6040518082815260200191505060405180910390f35b610480611fcf565b6040518082815260200191505060405180910390f35b61049e611fd5565b604051808273ffffffffffffffffffffffffffffffffffffffff16815260200191505060405180910390f35b6104d2611ffb565b604051808273ffffffffffffffffffffffffffffffffffffffff16815260200191505060405180910390f35b610506612021565b604051808273ffffffffffffffffffffffffffffffffffffffff16815260200191505060405180910390f35b61053a612047565b6040518082600360200280838360005b8381101561056557808201518184015260208101905061054a565b5050505090500191505060405180910390f35b610580612668565b604051808273ffffffffffffffffffffffffffffffffffffffff16815260200191505060405180910390f35b6105b461268e565b6040518082815260200191505060405180910390f35b6105d2612694565b604051808273ffffffffffffffffffffffffffffffffffffffff16815260200191505060405180910390f35b6106066126ba565b604051808273ffffffffffffffffffffffffffffffffffffffff16815260200191505060405180910390f35b6106956004803603606081101561064857600080fd5b8101908080606001906003806020026040519081016040528092919082600360200280828437600081840152601f19601f82011690508083019250505050505091929192905050506126e0565b005b6106cd600480360360408110156106ad57600080fd5b810190808035906020019092919080359060200190929190505050612ba9565b005b6106fb600480360360208110156106e557600080fd5b8101908080359060200190929190505050612e2d565b005b610705613129565b604051808273ffffffffffffffffffffffffffffffffffffffff16815260200191505060405180910390f35b61073961314f565b6040518082815260200191505060405180910390f35b6107b26004803603606081101561076557600080fd5b8101908080606001906003806020026040519081016040528092919082600360200280828437600081840152601f19601f820116905080830192505050505050919291929050505061321a565b005b6107bc613720565b6040518082815260200191505060405180910390f35b6107da613726565b005b6107e4613899565b005b610828600480360360208110156107fc57600080fd5b81019080803573ffffffffffffffffffffffffffffffffffffffff169060200190929190505050613e4c565b005b61086c6004803603602081101561084057600080fd5b81019080803573ffffffffffffffffffffffffffffffffffffffff169060200190929190505050613f53565b005b600860009054906101000a900473ffffffffffffffffffffffffffffffffffffffff1681565b600a60009054906101000a900473ffffffffffffffffffffffffffffffffffffffff1681565b3373ffffffffffffffffffffffffffffffffffffffff16601060009054906101000a900473ffffffffffffffffffffffffffffffffffffffff1673ffffffffffffffffffffffffffffffffffffffff161480610961575060008054906101000a900473ffffffffffffffffffffffffffffffffffffffff1673ffffffffffffffffffffffffffffffffffffffff163373ffffffffffffffffffffffffffffffffffffffff16145b6109d3576040517f08c379a000000000000000000000000000000000000000000000000000000000815260040180806020018281038252600e8152602001807f4e6f7420617574686f72697a656400000000000000000000000000000000000081525060200191505060405180910390fd5b6000600260009054906101000a900473ffffffffffffffffffffffffffffffffffffffff1673ffffffffffffffffffffffffffffffffffffffff166370a08231306040518263ffffffff1660e01b8152600401808273ffffffffffffffffffffffffffffffffffffffff16815260200191505060206040518083038186803b158015610a5e57600080fd5b505afa158015610a72573d6000803e3d6000fd5b505050506040513d6020811015610a8857600080fd5b81019080805190602001909291905050509050600260009054906101000a900473ffffffffffffffffffffffffffffffffffffffff1673ffffffffffffffffffffffffffffffffffffffff1663095ea7b3600760009054906101000a900473ffffffffffffffffffffffffffffffffffffffff16836040518363ffffffff1660e01b8152600401808373ffffffffffffffffffffffffffffffffffffffff16815260200182815260200192505050602060405180830381600087803b158015610b5057600080fd5b505af1158015610b64573d6000803e3d6000fd5b505050506040513d6020811015610b7a57600080fd5b810190808051906020019092919050505050600760009054906101000a900473ffffffffffffffffffffffffffffffffffffffff1673ffffffffffffffffffffffffffffffffffffffff1663b6b55f25826040518263ffffffff1660e01b815260040180828152602001915050600060405180830381600087803b158015610c0157600080fd5b505af1158015610c15573d6000803e3d6000fd5b505050507f5e1bef326bd9222892c5e49c4e6756af0f42c0b91d698bd306965987bc1f9a7e816040518082815260200191505060405180910390a150565b600660009054906101000a900473ffffffffffffffffffffffffffffffffffffffff1681565b60008054906101000a900473ffffffffffffffffffffffffffffffffffffffff1681565b600e5481565b600080610fe0610d5f603c600760009054906101000a900473ffffffffffffffffffffffffffffffffffffffff1673ffffffffffffffffffffffffffffffffffffffff166318160ddd6040518163ffffffff1660e01b815260040160206040518083038186803b158015610d1657600080fd5b505afa158015610d2a573d6000803e3d6000fd5b505050506040513d6020811015610d4057600080fd5b810190808051906020019092919050505061405990919063ffffffff16565b610fd2600960009054906101000a900473ffffffffffffffffffffffffffffffffffffffff1673ffffffffffffffffffffffffffffffffffffffff166318160ddd6040518163ffffffff1660e01b815260040160206040518083038186803b158015610dca57600080fd5b505afa158015610dde573d6000803e3d6000fd5b505050506040513d6020811015610df457600080fd5b8101908080519060200190929190505050610fc4610edf6028600760009054906101000a900473ffffffffffffffffffffffffffffffffffffffff1673ffffffffffffffffffffffffffffffffffffffff166370a08231306040518263ffffffff1660e01b8152600401808273ffffffffffffffffffffffffffffffffffffffff16815260200191505060206040518083038186803b158015610e9657600080fd5b505afa158015610eaa573d6000803e3d6000fd5b505050506040513d6020811015610ec057600080fd5b810190808051906020019092919050505061405990919063ffffffff16565b610fb66064600760009054906101000a900473ffffffffffffffffffffffffffffffffffffffff1673ffffffffffffffffffffffffffffffffffffffff166370a08231306040518263ffffffff1660e01b8152600401808273ffffffffffffffffffffffffffffffffffffffff16815260200191505060206040518083038186803b158015610f6d57600080fd5b505afa158015610f81573d6000803e3d6000fd5b505050506040513d6020811015610f9757600080fd5b810190808051906020019092919050505061405990919063ffffffff16565b6140df90919063ffffffff16565b61405990919063ffffffff16565b61412990919063ffffffff16565b90508091505090565b3373ffffffffffffffffffffffffffffffffffffffff16601060009054906101000a900473ffffffffffffffffffffffffffffffffffffffff1673ffffffffffffffffffffffffffffffffffffffff16146110ac576040517f08c379a000000000000000000000000000000000000000000000000000000000815260040180806020018281038252600e8152602001807f4e6f7420417574686f72697a656400000000000000000000000000000000000081525060200191505060405180910390fd5b600c60009054906101000a900473ffffffffffffffffffffffffffffffffffffffff1673ffffffffffffffffffffffffffffffffffffffff1663095ea7b3600960009054906101000a900473ffffffffffffffffffffffffffffffffffffffff16836040518363ffffffff1660e01b8152600401808373ffffffffffffffffffffffffffffffffffffffff16815260200182815260200192505050602060405180830381600087803b15801561116157600080fd5b505af1158015611175573d6000803e3d6000fd5b505050506040513d602081101561118b57600080fd5b810190808051906020019092919050505050600960009054906101000a900473ffffffffffffffffffffffffffffffffffffffff1673ffffffffffffffffffffffffffffffffffffffff16634957677c826040518263ffffffff1660e01b815260040180828152602001915050600060405180830381600087803b15801561121257600080fd5b505af1158015611226573d6000803e3d6000fd5b505050507fb45a3c0e2dcd2f560d00e18d58bb2bc636f1540eba5f84061a0154f14ca84992816040518082815260200191505060405180910390a150565b3373ffffffffffffffffffffffffffffffffffffffff16601060009054906101000a900473ffffffffffffffffffffffffffffffffffffffff1673ffffffffffffffffffffffffffffffffffffffff16148061130b575060008054906101000a900473ffffffffffffffffffffffffffffffffffffffff1673ffffffffffffffffffffffffffffffffffffffff163373ffffffffffffffffffffffffffffffffffffffff16145b61137d576040517f08c379a000000000000000000000000000000000000000000000000000000000815260040180806020018281038252600e8152602001807f4e6f7420617574686f72697a656400000000000000000000000000000000000081525060200191505060405180910390fd5b600860009054906101000a900473ffffffffffffffffffffffffffffffffffffffff1673ffffffffffffffffffffffffffffffffffffffff16636a627842600760009054906101000a900473ffffffffffffffffffffffffffffffffffffffff166040518263ffffffff1660e01b8152600401808273ffffffffffffffffffffffffffffffffffffffff168152602001915050600060405180830381600087803b15801561142a57600080fd5b505af115801561143e573d6000803e3d6000fd5b505050507f79f93d1b0062276af10ff82b062487b30ed85153e7d3a52ed67d7cf7529ec2b960405160405180910390a1565b3373ffffffffffffffffffffffffffffffffffffffff16601060009054906101000a900473ffffffffffffffffffffffffffffffffffffffff1673ffffffffffffffffffffffffffffffffffffffff1614611533576040517f08c379a000000000000000000000000000000000000000000000000000000000815260040180806020018281038252600e8152602001807f4e6f7420417574686f72697a656400000000000000000000000000000000000081525060200191505060405180910390fd5b8060118190555050565b6003816003811061154a57fe5b016000915054906101000a900473ffffffffffffffffffffffffffffffffffffffff1681565b601260009054906101000a900460ff1681565b601060009054906101000a900473ffffffffffffffffffffffffffffffffffffffff1681565b60003373ffffffffffffffffffffffffffffffffffffffff16601060009054906101000a900473ffffffffffffffffffffffffffffffffffffffff1673ffffffffffffffffffffffffffffffffffffffff161461166e576040517f08c379a000000000000000000000000000000000000000000000000000000000815260040180806020018281038252600e8152602001807f4e6f7420417574686f72697a656400000000000000000000000000000000000081525060200191505060405180910390fd5b6000600c60009054906101000a900473ffffffffffffffffffffffffffffffffffffffff1673ffffffffffffffffffffffffffffffffffffffff166370a08231306040518263ffffffff1660e01b8152600401808273ffffffffffffffffffffffffffffffffffffffff16815260200191505060206040518083038186803b1580156116f957600080fd5b505afa15801561170d573d6000803e3d6000fd5b505050506040513d602081101561172357600080fd5b81019080805190602001909291905050509050600060038460ff166003811061174857fe5b0160009054906101000a900473ffffffffffffffffffffffffffffffffffffffff1673ffffffffffffffffffffffffffffffffffffffff166370a08231306040518263ffffffff1660e01b8152600401808273ffffffffffffffffffffffffffffffffffffffff16815260200191505060206040518083038186803b1580156117d057600080fd5b505afa1580156117e4573d6000803e3d6000fd5b505050506040513d60208110156117fa57600080fd5b8101908080519060200190929190505050905060008211611883576040517f08c379a00000000000000000000000000000000000000000000000000000000081526004018080602001828103825260108152602001807f696e73756666696369656e74204352560000000000000000000000000000000081525060200191505060405180910390fd5b6118ac61271061189e6011548561405990919063ffffffff16565b61412990919063ffffffff16565b9150600c60009054906101000a900473ffffffffffffffffffffffffffffffffffffffff1673ffffffffffffffffffffffffffffffffffffffff1663095ea7b3600b60009054906101000a900473ffffffffffffffffffffffffffffffffffffffff16846040518363ffffffff1660e01b8152600401808373ffffffffffffffffffffffffffffffffffffffff16815260200182815260200192505050602060405180830381600087803b15801561196357600080fd5b505af1158015611977573d6000803e3d6000fd5b505050506040513d602081101561198d57600080fd5b8101908080519060200190929190505050506060601260009054906101000a900460ff1615611ae857600267ffffffffffffffff811180156119ce57600080fd5b506040519080825280602002602001820160405280156119fd5781602001602082028036833780820191505090505b509050600c60009054906101000a900473ffffffffffffffffffffffffffffffffffffffff1681600081518110611a3057fe5b602002602001019073ffffffffffffffffffffffffffffffffffffffff16908173ffffffffffffffffffffffffffffffffffffffff168152505060038560ff1660038110611a7a57fe5b0160009054906101000a900473ffffffffffffffffffffffffffffffffffffffff1681600181518110611aa957fe5b602002602001019073ffffffffffffffffffffffffffffffffffffffff16908173ffffffffffffffffffffffffffffffffffffffff1681525050611c80565b600367ffffffffffffffff81118015611b0057600080fd5b50604051908082528060200260200182016040528015611b2f5781602001602082028036833780820191505090505b509050600c60009054906101000a900473ffffffffffffffffffffffffffffffffffffffff1681600081518110611b6257fe5b602002602001019073ffffffffffffffffffffffffffffffffffffffff16908173ffffffffffffffffffffffffffffffffffffffff1681525050600d60009054906101000a900473ffffffffffffffffffffffffffffffffffffffff1681600181518110611bcc57fe5b602002602001019073ffffffffffffffffffffffffffffffffffffffff16908173ffffffffffffffffffffffffffffffffffffffff168152505060038560ff1660038110611c1657fe5b0160009054906101000a900473ffffffffffffffffffffffffffffffffffffffff1681600281518110611c4557fe5b602002602001019073ffffffffffffffffffffffffffffffffffffffff16908173ffffffffffffffffffffffffffffffffffffffff16815250505b600b60009054906101000a900473ffffffffffffffffffffffffffffffffffffffff1673ffffffffffffffffffffffffffffffffffffffff166338ed1739846000843061070842016040518663ffffffff1660e01b815260040180868152602001858152602001806020018473ffffffffffffffffffffffffffffffffffffffff168152602001838152602001828103825285818151815260200191508051906020019060200280838360005b83811015611d48578082015181840152602081019050611d2d565b505050509050019650505050505050600060405180830381600087803b158015611d7157600080fd5b505af1158015611d85573d6000803e3d6000fd5b50505050600060038660ff1660038110611d9b57fe5b0160009054906101000a900473ffffffffffffffffffffffffffffffffffffffff1673ffffffffffffffffffffffffffffffffffffffff166370a08231306040518263ffffffff1660e01b8152600401808273ffffffffffffffffffffffffffffffffffffffff16815260200191505060206040518083038186803b158015611e2357600080fd5b505afa158015611e37573d6000803e3d6000fd5b505050506040513d6020811015611e4d57600080fd5b8101908080519060200190929190505050905060038660ff1660038110611e7057fe5b0160009054906101000a900473ffffffffffffffffffffffffffffffffffffffff1673ffffffffffffffffffffffffffffffffffffffff1663a9059cbb600160009054906101000a900473ffffffffffffffffffffffffffffffffffffffff16611ee386856140df90919063ffffffff16565b6040518363ffffffff1660e01b8152600401808373ffffffffffffffffffffffffffffffffffffffff16815260200182815260200192505050602060405180830381600087803b158015611f3657600080fd5b505af1158015611f4a573d6000803e3d6000fd5b505050506040513d6020811015611f6057600080fd5b8101908080519060200190929190505050507fc1b4dab262ffe9aeac4082a51908ba2d90401e4936f549ab13c2d4c44816958986611fa785846140df90919063ffffffff16565b604051808360ff1681526020018281526020019250505060405180910390a150505050919050565b600f5481565b600c60009054906101000a900473ffffffffffffffffffffffffffffffffffffffff1681565b600b60009054906101000a900473ffffffffffffffffffffffffffffffffffffffff1681565b600d60009054906101000a900473ffffffffffffffffffffffffffffffffffffffff1681565b61204f614381565b60008054906101000a900473ffffffffffffffffffffffffffffffffffffffff1673ffffffffffffffffffffffffffffffffffffffff163373ffffffffffffffffffffffffffffffffffffffff1614806120a7575060015b612119576040517f08c379a000000000000000000000000000000000000000000000000000000000815260040180806020018281038252600e8152602001807f4e6f7420617574686f72697a656400000000000000000000000000000000000081525060200191505060405180910390fd5b6121e5600760009054906101000a900473ffffffffffffffffffffffffffffffffffffffff1673ffffffffffffffffffffffffffffffffffffffff166370a08231306040518263ffffffff1660e01b8152600401808273ffffffffffffffffffffffffffffffffffffffff16815260200191505060206040518083038186803b1580156121a557600080fd5b505afa1580156121b9573d6000803e3d6000fd5b505050506040513d60208110156121cf57600080fd5b8101908080519060200190929190505050612e2d565b6121ed614381565b600660009054906101000a900473ffffffffffffffffffffffffffffffffffffffff1673ffffffffffffffffffffffffffffffffffffffff1663ecb586a5600260009054906101000a900473ffffffffffffffffffffffffffffffffffffffff1673ffffffffffffffffffffffffffffffffffffffff166370a08231306040518263ffffffff1660e01b8152600401808273ffffffffffffffffffffffffffffffffffffffff16815260200191505060206040518083038186803b1580156122b457600080fd5b505afa1580156122c8573d6000803e3d6000fd5b505050506040513d60208110156122de57600080fd5b8101908080519060200190929190505050836040518363ffffffff1660e01b81526004018083815260200182600360200280838360005b83811015612330578082015181840152602081019050612315565b5050505090500192505050600060405180830381600087803b15801561235557600080fd5b505af1158015612369573d6000803e3d6000fd5b5050505060005b60038160ff16101561266057600060038260ff166003811061238e57fe5b0160009054906101000a900473ffffffffffffffffffffffffffffffffffffffff1673ffffffffffffffffffffffffffffffffffffffff166370a08231306040518263ffffffff1660e01b8152600401808273ffffffffffffffffffffffffffffffffffffffff16815260200191505060206040518083038186803b15801561241657600080fd5b505afa15801561242a573d6000803e3d6000fd5b505050506040513d602081101561244057600080fd5b8101908080519060200190929190505050146126535760038160ff166003811061246657fe5b0160009054906101000a900473ffffffffffffffffffffffffffffffffffffffff1673ffffffffffffffffffffffffffffffffffffffff166370a08231306040518263ffffffff1660e01b8152600401808273ffffffffffffffffffffffffffffffffffffffff16815260200191505060206040518083038186803b1580156124ee57600080fd5b505afa158015612502573d6000803e3d6000fd5b505050506040513d602081101561251857600080fd5b8101908080519060200190929190505050828260ff166003811061253857fe5b60200201818152505060038160ff166003811061255157fe5b0160009054906101000a900473ffffffffffffffffffffffffffffffffffffffff1673ffffffffffffffffffffffffffffffffffffffff1663a9059cbb60008054906101000a900473ffffffffffffffffffffffffffffffffffffffff16848460ff16600381106125be57fe5b60200201516040518363ffffffff1660e01b8152600401808373ffffffffffffffffffffffffffffffffffffffff16815260200182815260200192505050602060405180830381600087803b15801561261657600080fd5b505af115801561262a573d6000803e3d6000fd5b505050506040513d602081101561264057600080fd5b8101908080519060200190929190505050505b8080600101915050612370565b508091505090565b600960009054906101000a900473ffffffffffffffffffffffffffffffffffffffff1681565b61271081565b600160009054906101000a900473ffffffffffffffffffffffffffffffffffffffff1681565b600760009054906101000a900473ffffffffffffffffffffffffffffffffffffffff1681565b60008054906101000a900473ffffffffffffffffffffffffffffffffffffffff1673ffffffffffffffffffffffffffffffffffffffff163373ffffffffffffffffffffffffffffffffffffffff161480612738575060015b6127aa576040517f08c379a000000000000000000000000000000000000000000000000000000000815260040180806020018281038252600e8152602001807f4e6f7420617574686f72697a656400000000000000000000000000000000000081525060200191505060405180910390fd5b6000600660009054906101000a900473ffffffffffffffffffffffffffffffffffffffff1673ffffffffffffffffffffffffffffffffffffffff16633883e1198360006040518363ffffffff1660e01b81526004018083600360200280838360005b8381101561282757808201518184015260208101905061280c565b5050505090500182151581526020019250505060206040518083038186803b15801561285257600080fd5b505afa158015612866573d6000803e3d6000fd5b505050506040513d602081101561287c57600080fd5b810190808051906020019092919050505090506128cc6127106128be6128af600f5461271061417390919063ffffffff16565b8461405990919063ffffffff16565b61412990919063ffffffff16565b90506128d781612e2d565b600660009054906101000a900473ffffffffffffffffffffffffffffffffffffffff1673ffffffffffffffffffffffffffffffffffffffff16639fdaea0c83836040518363ffffffff1660e01b81526004018083600360200280838360005b83811015612951578082015181840152602081019050612936565b5050505090500182815260200192505050600060405180830381600087803b15801561297c57600080fd5b505af1158015612990573d6000803e3d6000fd5b5050505060005b60038160ff161015612b9c576000838260ff16600381106129b457fe5b602002015114612b8f5760038160ff16600381106129ce57fe5b0160009054906101000a900473ffffffffffffffffffffffffffffffffffffffff1673ffffffffffffffffffffffffffffffffffffffff1663a9059cbb60008054906101000a900473ffffffffffffffffffffffffffffffffffffffff1660038460ff1660038110612a3c57fe5b0160009054906101000a900473ffffffffffffffffffffffffffffffffffffffff1673ffffffffffffffffffffffffffffffffffffffff166370a08231306040518263ffffffff1660e01b8152600401808273ffffffffffffffffffffffffffffffffffffffff16815260200191505060206040518083038186803b158015612ac457600080fd5b505afa158015612ad8573d6000803e3d6000fd5b505050506040513d6020811015612aee57600080fd5b81019080805190602001909291905050506040518363ffffffff1660e01b8152600401808373ffffffffffffffffffffffffffffffffffffffff16815260200182815260200192505050602060405180830381600087803b158015612b5257600080fd5b505af1158015612b66573d6000803e3d6000fd5b505050506040513d6020811015612b7c57600080fd5b8101908080519060200190929190505050505b8080600101915050612997565b50612ba56108ba565b5050565b3373ffffffffffffffffffffffffffffffffffffffff16601060009054906101000a900473ffffffffffffffffffffffffffffffffffffffff1673ffffffffffffffffffffffffffffffffffffffff1614612c6c576040517f08c379a000000000000000000000000000000000000000000000000000000000815260040180806020018281038252600e8152602001807f4e6f7420417574686f72697a656400000000000000000000000000000000000081525060200191505060405180910390fd5b600c60009054906101000a900473ffffffffffffffffffffffffffffffffffffffff1673ffffffffffffffffffffffffffffffffffffffff1663095ea7b3600960009054906101000a900473ffffffffffffffffffffffffffffffffffffffff16846040518363ffffffff1660e01b8152600401808373ffffffffffffffffffffffffffffffffffffffff16815260200182815260200192505050602060405180830381600087803b158015612d2157600080fd5b505af1158015612d35573d6000803e3d6000fd5b505050506040513d6020811015612d4b57600080fd5b810190808051906020019092919050505050600960009054906101000a900473ffffffffffffffffffffffffffffffffffffffff1673ffffffffffffffffffffffffffffffffffffffff166365fc387383836040518363ffffffff1660e01b81526004018083815260200182815260200192505050600060405180830381600087803b158015612dda57600080fd5b505af1158015612dee573d6000803e3d6000fd5b505050507fb45a3c0e2dcd2f560d00e18d58bb2bc636f1540eba5f84061a0154f14ca84992826040518082815260200191505060405180910390a15050565b3373ffffffffffffffffffffffffffffffffffffffff16601060009054906101000a900473ffffffffffffffffffffffffffffffffffffffff1673ffffffffffffffffffffffffffffffffffffffff161480612ed4575060008054906101000a900473ffffffffffffffffffffffffffffffffffffffff1673ffffffffffffffffffffffffffffffffffffffff163373ffffffffffffffffffffffffffffffffffffffff16145b612f46576040517f08c379a000000000000000000000000000000000000000000000000000000000815260040180806020018281038252600e8152602001807f4e6f7420617574686f72697a656400000000000000000000000000000000000081525060200191505060405180910390fd5b80600760009054906101000a900473ffffffffffffffffffffffffffffffffffffffff1673ffffffffffffffffffffffffffffffffffffffff166370a08231306040518263ffffffff1660e01b8152600401808273ffffffffffffffffffffffffffffffffffffffff16815260200191505060206040518083038186803b158015612fd057600080fd5b505afa158015612fe4573d6000803e3d6000fd5b505050506040513d6020811015612ffa57600080fd5b81019080805190602001909291905050501015613062576040517f08c379a00000000000000000000000000000000000000000000000000000000081526004018080602001828103825260248152602001806143c56024913960400191505060405180910390fd5b600760009054906101000a900473ffffffffffffffffffffffffffffffffffffffff1673ffffffffffffffffffffffffffffffffffffffff16632e1a7d4d826040518263ffffffff1660e01b815260040180828152602001915050600060405180830381600087803b1580156130d757600080fd5b505af11580156130eb573d6000803e3d6000fd5b505050507f862f62b448d7253dc6afebd1a94d3fed70796abc517f689f329288fb288e3331816040518082815260200191505060405180910390a150565b600260009054906101000a900473ffffffffffffffffffffffffffffffffffffffff1681565b6000600760009054906101000a900473ffffffffffffffffffffffffffffffffffffffff1673ffffffffffffffffffffffffffffffffffffffff166333134583306040518263ffffffff1660e01b8152600401808273ffffffffffffffffffffffffffffffffffffffff16815260200191505060206040518083038186803b1580156131da57600080fd5b505afa1580156131ee573d6000803e3d6000fd5b505050506040513d602081101561320457600080fd5b8101908080519060200190929190505050905090565b60008054906101000a900473ffffffffffffffffffffffffffffffffffffffff1673ffffffffffffffffffffffffffffffffffffffff163373ffffffffffffffffffffffffffffffffffffffff161480613272575060015b6132e4576040517f08c379a000000000000000000000000000000000000000000000000000000000815260040180806020018281038252600e8152602001807f4e6f7420617574686f72697a656400000000000000000000000000000000000081525060200191505060405180910390fd5b600080600090505b60038160ff161015613546576000838260ff166003811061330957fe5b6020020151111561353957600060038260ff166003811061332657fe5b0160009054906101000a900473ffffffffffffffffffffffffffffffffffffffff1673ffffffffffffffffffffffffffffffffffffffff1663313ce5676040518163ffffffff1660e01b815260040160206040518083038186803b15801561338d57600080fd5b505afa1580156133a1573d6000803e3d6000fd5b505050506040513d60208110156133b757600080fd5b810190808051906020019092919050505060ff16905060038260ff16600381106133dd57fe5b0160009054906101000a900473ffffffffffffffffffffffffffffffffffffffff1673ffffffffffffffffffffffffffffffffffffffff1663095ea7b3600660009054906101000a900473ffffffffffffffffffffffffffffffffffffffff16868560ff166003811061344c57fe5b60200201516040518363ffffffff1660e01b8152600401808373ffffffffffffffffffffffffffffffffffffffff16815260200182815260200192505050602060405180830381600087803b1580156134a457600080fd5b505af11580156134b8573d6000803e3d6000fd5b505050506040513d60208110156134ce57600080fd5b81019080805190602001909291905050505061353561352682600a0a613518670de0b6b3a7640000888760ff166003811061350557fe5b602002015161405990919063ffffffff16565b61412990919063ffffffff16565b8461417390919063ffffffff16565b9250505b80806001019150506132ec565b506000613618600660009054906101000a900473ffffffffffffffffffffffffffffffffffffffff1673ffffffffffffffffffffffffffffffffffffffff1663bb7b8b806040518163ffffffff1660e01b815260040160206040518083038186803b1580156135b457600080fd5b505afa1580156135c8573d6000803e3d6000fd5b505050506040513d60208110156135de57600080fd5b810190808051906020019092919050505061360a670de0b6b3a76400008561405990919063ffffffff16565b61412990919063ffffffff16565b9050600660009054906101000a900473ffffffffffffffffffffffffffffffffffffffff1673ffffffffffffffffffffffffffffffffffffffff16634515cef384613696612710613688613679600e546127106140df90919063ffffffff16565b8761405990919063ffffffff16565b61412990919063ffffffff16565b6040518363ffffffff1660e01b81526004018083600360200280838360005b838110156136d05780820151818401526020810190506136b5565b5050505090500182815260200192505050600060405180830381600087803b1580156136fb57600080fd5b505af115801561370f573d6000803e3d6000fd5b5050505061371b6108ba565b505050565b60115481565b3373ffffffffffffffffffffffffffffffffffffffff16601060009054906101000a900473ffffffffffffffffffffffffffffffffffffffff1673ffffffffffffffffffffffffffffffffffffffff16146137e9576040517f08c379a000000000000000000000000000000000000000000000000000000000815260040180806020018281038252600e8152602001807f4e6f7420417574686f72697a656400000000000000000000000000000000000081525060200191505060405180910390fd5b600960009054906101000a900473ffffffffffffffffffffffffffffffffffffffff1673ffffffffffffffffffffffffffffffffffffffff16633ccfd60b6040518163ffffffff1660e01b8152600401600060405180830381600087803b15801561385357600080fd5b505af1158015613867573d6000803e3d6000fd5b505050507f6a5e26501482a05740f9329fa7e26d328045348d615d7515b3be9189b9bedb5560405160405180910390a1565b3373ffffffffffffffffffffffffffffffffffffffff16601060009054906101000a900473ffffffffffffffffffffffffffffffffffffffff1673ffffffffffffffffffffffffffffffffffffffff161461395c576040517f08c379a000000000000000000000000000000000000000000000000000000000815260040180806020018281038252600e8152602001807f4e6f7420417574686f72697a656400000000000000000000000000000000000081525060200191505060405180910390fd5b6000600260009054906101000a900473ffffffffffffffffffffffffffffffffffffffff1673ffffffffffffffffffffffffffffffffffffffff166370a08231306040518263ffffffff1660e01b8152600401808273ffffffffffffffffffffffffffffffffffffffff16815260200191505060206040518083038186803b1580156139e757600080fd5b505afa1580156139fb573d6000803e3d6000fd5b505050506040513d6020811015613a1157600080fd5b81019080805190602001909291905050509050600a60009054906101000a900473ffffffffffffffffffffffffffffffffffffffff1673ffffffffffffffffffffffffffffffffffffffff16634e71d92d6040518163ffffffff1660e01b8152600401600060405180830381600087803b158015613a8e57600080fd5b505af1158015613aa2573d6000803e3d6000fd5b505050506000600260009054906101000a900473ffffffffffffffffffffffffffffffffffffffff1673ffffffffffffffffffffffffffffffffffffffff166370a08231306040518263ffffffff1660e01b8152600401808273ffffffffffffffffffffffffffffffffffffffff16815260200191505060206040518083038186803b158015613b3157600080fd5b505afa158015613b45573d6000803e3d6000fd5b505050506040513d6020811015613b5b57600080fd5b81019080805190602001909291905050509050613b76614381565b600660009054906101000a900473ffffffffffffffffffffffffffffffffffffffff1673ffffffffffffffffffffffffffffffffffffffff1663ecb586a5848403836040518363ffffffff1660e01b81526004018083815260200182600360200280838360005b83811015613bf8578082015181840152602081019050613bdd565b5050505090500192505050600060405180830381600087803b158015613c1d57600080fd5b505af1158015613c31573d6000803e3d6000fd5b5050505060005b6003811015613e1a5760038160038110613c4e57fe5b0160009054906101000a900473ffffffffffffffffffffffffffffffffffffffff1673ffffffffffffffffffffffffffffffffffffffff1663a9059cbb600160009054906101000a900473ffffffffffffffffffffffffffffffffffffffff1660038460038110613cbb57fe5b0160009054906101000a900473ffffffffffffffffffffffffffffffffffffffff1673ffffffffffffffffffffffffffffffffffffffff166370a08231306040518263ffffffff1660e01b8152600401808273ffffffffffffffffffffffffffffffffffffffff16815260200191505060206040518083038186803b158015613d4357600080fd5b505afa158015613d57573d6000803e3d6000fd5b505050506040513d6020811015613d6d57600080fd5b81019080805190602001909291905050506040518363ffffffff1660e01b8152600401808373ffffffffffffffffffffffffffffffffffffffff16815260200182815260200192505050602060405180830381600087803b158015613dd157600080fd5b505af1158015613de5573d6000803e3d6000fd5b505050506040513d6020811015613dfb57600080fd5b8101908080519060200190929190505050508080600101915050613c38565b507f4acdc864e2c852884206e81c2cfaa26ad44ef34d115a71f76302e35e6736e10d60405160405180910390a1505050565b3373ffffffffffffffffffffffffffffffffffffffff16601060009054906101000a900473ffffffffffffffffffffffffffffffffffffffff1673ffffffffffffffffffffffffffffffffffffffff1614613f0f576040517f08c379a000000000000000000000000000000000000000000000000000000000815260040180806020018281038252600e8152602001807f4e6f7420417574686f72697a656400000000000000000000000000000000000081525060200191505060405180910390fd5b80601060006101000a81548173ffffffffffffffffffffffffffffffffffffffff021916908373ffffffffffffffffffffffffffffffffffffffff16021790555050565b3373ffffffffffffffffffffffffffffffffffffffff16601060009054906101000a900473ffffffffffffffffffffffffffffffffffffffff1673ffffffffffffffffffffffffffffffffffffffff1614614016576040517f08c379a000000000000000000000000000000000000000000000000000000000815260040180806020018281038252600e8152602001807f4e6f7420417574686f72697a656400000000000000000000000000000000000081525060200191505060405180910390fd5b806000806101000a81548173ffffffffffffffffffffffffffffffffffffffff021916908373ffffffffffffffffffffffffffffffffffffffff16021790555050565b60008083141561406c57600090506140d9565b600082840290508284828161407d57fe5b04146140d4576040517f08c379a00000000000000000000000000000000000000000000000000000000081526004018080602001828103825260218152602001806143a46021913960400191505060405180910390fd5b809150505b92915050565b600061412183836040518060400160405280601e81526020017f536166654d6174683a207375627472616374696f6e206f766572666c6f7700008152506141fb565b905092915050565b600061416b83836040518060400160405280601a81526020017f536166654d6174683a206469766973696f6e206279207a65726f0000000000008152506142bb565b905092915050565b6000808284019050838110156141f1576040517f08c379a000000000000000000000000000000000000000000000000000000000815260040180806020018281038252601b8152602001807f536166654d6174683a206164646974696f6e206f766572666c6f77000000000081525060200191505060405180910390fd5b8091505092915050565b60008383111582906142a8576040517f08c379a00000000000000000000000000000000000000000000000000000000081526004018080602001828103825283818151815260200191508051906020019080838360005b8381101561426d578082015181840152602081019050614252565b50505050905090810190601f16801561429a5780820380516001836020036101000a031916815260200191505b509250505060405180910390fd5b5060008385039050809150509392505050565b60008083118290614367576040517f08c379a00000000000000000000000000000000000000000000000000000000081526004018080602001828103825283818151815260200191508051906020019080838360005b8381101561432c578082015181840152602081019050614311565b50505050905090810190601f1680156143595780820380516001836020036101000a031916815260200191505b509250505060405180910390fd5b50600083858161437357fe5b049050809150509392505050565b604051806060016040528060039060208202803683378082019150509050509056fe536166654d6174683a206d756c7469706c69636174696f6e206f766572666c6f77596f752068617665206e6f74207374616b65642074686174206d75636820616d6f756e74a2646970667358221220fa90282d1f9cbf29cc83c325989106dbe6e82ee634f17a7f64ec0e1d3aa3cf0064736f6c634300060c0033",
  "immutableReferences": {},
  "source": "// SPDX-License-Identifier: UNLICENSED\r\npragma solidity ^0.6.0;\r\n\r\nimport '@openzeppelin/contracts/math/SafeMath.sol';\r\nimport '../../Interfaces/IERC20Interface.sol';\r\nimport '../../Interfaces/CurveInterface.sol';\r\nimport '../../Interfaces/UniswapInterface.sol';\r\n\r\ncontract CurveStrategy {\r\n\r\n    using SafeMath for uint256;\r\n\r\n    address public royaleAddress;\r\n    address public yieldDistributor;\r\n    IERC20 public poolToken;\r\n    IERC20[3] public tokens;  // DAI / USDC / USDT\r\n    CurvePool public pool;\r\n    PoolGauge public gauge;\r\n    Minter public minter;\r\n    VoteEscrow public voteEscrow;\r\n    FeeDistributor public feeDistributor;\r\n    UniswapI  public uniAddr;\r\n    IERC20 public crvAddr;\r\n    address public wethAddr;\r\n    \r\n    \r\n    uint256 public constant DENOMINATOR = 10000;\r\n\r\n    uint256 public DepositSlip = 100;\r\n\r\n    uint256 public withdrawSlip = 200;\r\n\r\n    address public wallet;\r\n    \r\n   // uint256 public totalProfit;\r\n    \r\n    uint256 public crvBreak=10000;\r\n\r\n   // uint256 public virtualPrice;\r\n \r\n    bool public TEST = true; // For testing uniswap , should be removed on deployment to the mainnet\r\n\r\n    modifier onlyAuthorized(){\r\n      require(wallet == msg.sender|| msg.sender==royaleAddress, \"Not authorized\");\r\n      _;\r\n    }\r\n\r\n    modifier onlyWallet(){\r\n        require((wallet==msg.sender),\"Not Authorized\");\r\n        _;\r\n    }\r\n\r\n    modifier onlyRoyaleLP() {\r\n        require(msg.sender == royaleAddress || true, \"Not authorized\");\r\n        _;\r\n    }\r\n\r\n    constructor(\r\n         address _wallet,\r\n         IERC20[3] memory _tokens, \r\n         address _royaleaddress,\r\n         address _yieldDistributor,\r\n         address _crvpool,\r\n         address _poolToken,\r\n         address _gauge,\r\n         address _minter,\r\n         address _uniAddress,\r\n         address _crvAddress,\r\n         address _wethAddress\r\n         ) public {\r\n\r\n        wallet=_wallet;\r\n        tokens = _tokens;\r\n        royaleAddress =_royaleaddress;\r\n        yieldDistributor=_yieldDistributor;\r\n        pool = CurvePool(_crvpool);\r\n        poolToken = IERC20(_poolToken);\r\n        gauge = PoolGauge(_gauge);\r\n        minter=Minter(_minter);\r\n        uniAddr=UniswapI(_uniAddress);\r\n        crvAddr=IERC20(_crvAddress);\r\n        wethAddr=_wethAddress;\r\n        \r\n    }\r\n\r\n\r\n    function setCRVBreak(uint256 _percentage)external onlyWallet(){\r\n        crvBreak=_percentage;\r\n    }\r\n\r\n    function transferOwnership(address _wallet) external onlyWallet(){\r\n        wallet=_wallet;\r\n    }\r\n\r\n    function changeRoyaleLP(address _address)external onlyWallet(){\r\n        royaleAddress=_address;\r\n    }\r\n\r\n\r\n    // deposits stable tokens into the 3pool and stake recived LPtoken(3CRV) in the curve 3pool gauge\r\n    function deposit(uint[3] memory amounts) external onlyRoyaleLP(){\r\n        uint currentTotal;\r\n        for(uint8 i=0; i<3; i++) {\r\n            if(amounts[i] > 0) {\r\n               uint decimal;\r\n               decimal=tokens[i].decimals();\r\n               tokens[i].approve(address(pool), amounts[i]); \r\n               currentTotal =currentTotal.add(amounts[i].mul(1e18).div(10**decimal));\r\n            }\r\n        }\r\n       /* uint256 returnedAmount;\r\n        bool status;\r\n        (returnedAmount,status)=calculateProfit();\r\n        if(status){\r\n            totalProfit =totalProfit.add(returnedAmount);\r\n        }\r\n        else{\r\n            totalProfit =totalProfit.sub(returnedAmount);\r\n        } */\r\n        uint256 mintAmount = currentTotal.mul(1e18).div(pool.get_virtual_price());\r\n        pool.add_liquidity(amounts,  mintAmount.mul(DENOMINATOR.sub(DepositSlip)).div(DENOMINATOR));\r\n        //virtualPrice=pool.get_virtual_price();\r\n        stakeLP();   \r\n    }\r\n\r\n    //withdraws stable tokens from the 3pool.Unstake required LPtokens and stake LP tokens if not used.\r\n    function withdraw(uint[3] memory amounts) external onlyRoyaleLP() {\r\n        uint256 max_burn = pool.calc_token_amount(amounts,false);\r\n        max_burn=max_burn.mul(DENOMINATOR.add(withdrawSlip)).div(DENOMINATOR);\r\n        unstakeLP(max_burn);\r\n        pool.remove_liquidity_imbalance(amounts, max_burn);\r\n        for(uint8 i=0;i<3;i++){\r\n            if(amounts[i]!=0){\r\n               tokens[i].transfer(royaleAddress, tokens[i].balanceOf(address(this)));\r\n            }\r\n        } \r\n        stakeLP();\r\n    }\r\n\r\n   //unstake all the LPtokens and withdraw all the Stable tokens from 3pool \r\n    function withdrawAll() external onlyRoyaleLP() returns(uint256[3] memory){\r\n        unstakeLP(gauge.balanceOf(address(this)));\r\n        uint256[3] memory withdrawAmt;\r\n        pool.remove_liquidity(poolToken.balanceOf(address(this)),withdrawAmt);\r\n        for(uint8 i=0;i<3;i++){\r\n            if(tokens[i].balanceOf(address(this))!=0){\r\n                withdrawAmt[i]=tokens[i].balanceOf(address(this));\r\n                tokens[i].transfer(royaleAddress,withdrawAmt[i]); \r\n            }\r\n        }\r\n        return withdrawAmt; \r\n    } \r\n\r\n\r\n\r\n    \r\n    \r\n    // Functions to stake and unstake LPTokens(Ycrv) and claim CRV\r\n\r\n\r\n    //Stakes LP token(3CRV) into the curve 3pool gauage\r\n    function stakeLP() public onlyAuthorized() {\r\n        uint depositAmt = poolToken.balanceOf(address(this)) ;\r\n        poolToken.approve(address(gauge), depositAmt);\r\n        gauge.deposit(depositAmt);  \r\n        emit staked(depositAmt);\r\n    }\r\n\r\n    //For unstaking LP tokens(3CRV)\r\n    function unstakeLP(uint _amount) public  onlyAuthorized(){\r\n        require(gauge.balanceOf(address(this)) >= _amount,\"You have not staked that much amount\");\r\n        gauge.withdraw(_amount);\r\n        emit unstaked(_amount);\r\n    }\r\n    \r\n    //Checking claimable CRV tokens.\r\n    function checkClaimableToken()public view  returns(uint256){\r\n        return gauge.claimable_tokens(address(this));\r\n    }\r\n\r\n    //for claiming CRV tokens which accumalates on staking 3CRV.\r\n    function claimCRV() public onlyAuthorized(){\r\n        minter.mint(address(gauge));\r\n        emit crvClaimed();\r\n    }\r\n\r\n    // Functions to lock and unlock CRV and recieve VeCRV\r\n\r\n\r\n   //For locking CRV tokens in the curve lock\r\n    function createLock(uint256 _value,uint256 _unlockTime) external onlyWallet(){\r\n        IERC20(crvAddr).approve(address(voteEscrow), _value);\r\n        voteEscrow.create_lock(_value, _unlockTime);\r\n        emit locked(_value);\r\n    }\r\n\r\n\r\n    //Increasing lock CRV amount\r\n    function increaseLockAmount(uint256 _value) external onlyWallet(){\r\n        IERC20(crvAddr).approve(address(voteEscrow), _value);\r\n        voteEscrow.increase_amount(_value);\r\n        emit locked(_value);\r\n    }\r\n\r\n    //For unlocking CRV tokens\r\n    function releaseLock() external onlyWallet(){\r\n        voteEscrow.withdraw(); \r\n        emit unlocked();\r\n    }\r\n\r\n\r\n   //For claiming recieved 3CRV tokens which are given for locking CRV and\r\n   // withdrawing stable tokens from curve 3pool using those 3CRV and sending those stable tokens to an address\r\n    function claim3CRV()public onlyWallet(){\r\n        uint prevCoin=poolToken.balanceOf(address(this));\r\n        feeDistributor.claim();\r\n        uint postCoin=poolToken.balanceOf(address(this));\r\n        uint[3] memory minimum;\r\n        pool.remove_liquidity(postCoin-prevCoin,minimum);\r\n        for(uint i=0;i<3;i++){\r\n            tokens[i].transfer(yieldDistributor,tokens[i].balanceOf(address(this)));\r\n        }\r\n        emit yieldTransfered();\r\n    }\r\n\r\n    // Function to sell CRV using uniswap to any stable token and send that token to an address\r\n    function sellCRV(uint8 _index) public onlyWallet() returns(uint256) {  //here index=0 means convert crv into DAI , index=1 means crv into USDC , index=2 means crv into USDT\r\n        uint256 crvAmt = IERC20(crvAddr).balanceOf(address(this));\r\n        uint256 prevCoin = tokens[_index].balanceOf(address(this));\r\n        require(crvAmt > 0, \"insufficient CRV\");\r\n        crvAmt=crvAmt.mul(crvBreak).div(DENOMINATOR);\r\n        crvAddr.approve(address(uniAddr), crvAmt);\r\n        address[] memory path; \r\n        if(TEST) {\r\n            path = new address[](2);\r\n            path[0] = address(crvAddr);\r\n            path[1] = address(tokens[_index]);\r\n\r\n        } else {    \r\n            path = new address[](3);\r\n            path[0] = address(crvAddr);\r\n            path[1] = wethAddr;\r\n            path[2] = address(tokens[_index]);\r\n        }\r\n        UniswapI(uniAddr).swapExactTokensForTokens(\r\n            crvAmt, \r\n            uint256(0), \r\n            path, \r\n            address(this), \r\n            now + 1800\r\n        );\r\n        uint256 postCoin=tokens[_index].balanceOf(address(this));\r\n        tokens[_index].transfer(yieldDistributor,postCoin.sub(prevCoin));\r\n        emit yieldTransfered(_index,postCoin.sub(prevCoin));\r\n    }\r\n\r\n   /* function calculateProfit()public view returns(uint256,bool){\r\n        if(pool.get_virtual_price() >= virtualPrice){\r\n            return (gauge.balanceOf(address(this)).mul(pool.get_virtual_price().sub(virtualPrice)).div(10**18),true);\r\n        }    \r\n        else{\r\n            return (gauge.balanceOf(address(this)).mul(virtualPrice.sub(pool.get_virtual_price())).div(10**18),false);\r\n        }\r\n        \r\n    }*/\r\n\r\n    //calulates how much VeCRV is needed to get 2.5X boost.\r\n    function gaugeVeCRVCalculator() public view returns(uint256){\r\n          uint minimumVeCRV ;\r\n          minimumVeCRV =(gauge.balanceOf(address(this)).mul(100)).sub((gauge.balanceOf(address(this)).mul(40))).mul(voteEscrow.totalSupply()).div(gauge.totalSupply().mul(60));\r\n          return minimumVeCRV;\r\n    }\r\n    \r\n    event yieldTransfered(uint,uint); \r\n    event yieldTransfered();\r\n    event staked(uint);\r\n    event unstaked(uint);\r\n    event crvClaimed();\r\n    event locked(uint);\r\n    event unlocked();\r\n\r\n}",
  "sourcePath": "C:/Users/vishn/OneDrive/Desktop/RoyaleProject/RoyaleFinance/royale-contracts/contracts/Pool/rStrategy.sol",
  "compiler": {
    "name": "solc",
    "version": "0.6.12+commit.27d51765.Emscripten.clang"
  },
  "schemaVersion": "3.3.2",
  "updatedAt": "2021-03-12T13:02:12.489Z",
  "devdoc": {
    "kind": "dev",
    "methods": {},
    "version": 1
  },
  "userdoc": {
    "kind": "user",
    "methods": {},
    "version": 1
  }
}