{
  "contractName": "CurveStrategy",
  "abi": [
    {
      "inputs": [
        {
          "internalType": "address",
          "name": "_wallet",
          "type": "address"
        },
        {
          "internalType": "contract IERC20[3]",
          "name": "_tokens",
          "type": "address[3]"
        },
        {
          "internalType": "address",
          "name": "_royaleaddress",
          "type": "address"
        },
        {
          "internalType": "address",
          "name": "_yieldDistributor",
          "type": "address"
        },
        {
          "internalType": "address",
          "name": "_crvpool",
          "type": "address"
        },
        {
          "internalType": "address",
          "name": "_poolToken",
          "type": "address"
        },
        {
          "internalType": "address",
          "name": "_gauge",
          "type": "address"
        },
        {
          "internalType": "address",
          "name": "_minter",
          "type": "address"
        },
        {
          "internalType": "address",
          "name": "_uniAddress",
          "type": "address"
        },
        {
          "internalType": "address",
          "name": "_crvAddress",
          "type": "address"
        },
        {
          "internalType": "address",
          "name": "_wethAddress",
          "type": "address"
        }
      ],
      "stateMutability": "nonpayable",
      "type": "constructor"
    },
    {
      "anonymous": false,
      "inputs": [],
      "name": "crvClaimed",
      "type": "event"
    },
    {
      "anonymous": false,
      "inputs": [
        {
          "indexed": false,
          "internalType": "uint256",
          "name": "",
          "type": "uint256"
        }
      ],
      "name": "locked",
      "type": "event"
    },
    {
      "anonymous": false,
      "inputs": [
        {
          "indexed": false,
          "internalType": "uint256",
          "name": "",
          "type": "uint256"
        }
      ],
      "name": "staked",
      "type": "event"
    },
    {
      "anonymous": false,
      "inputs": [],
      "name": "unlocked",
      "type": "event"
    },
    {
      "anonymous": false,
      "inputs": [
        {
          "indexed": false,
          "internalType": "uint256",
          "name": "",
          "type": "uint256"
        }
      ],
      "name": "unstaked",
      "type": "event"
    },
    {
      "anonymous": false,
      "inputs": [
        {
          "indexed": false,
          "internalType": "uint256",
          "name": "",
          "type": "uint256"
        },
        {
          "indexed": false,
          "internalType": "uint256",
          "name": "",
          "type": "uint256"
        }
      ],
      "name": "yieldTransfered",
      "type": "event"
    },
    {
      "anonymous": false,
      "inputs": [],
      "name": "yieldTransfered",
      "type": "event"
    },
    {
      "inputs": [],
      "name": "DENOMINATOR",
      "outputs": [
        {
          "internalType": "uint256",
          "name": "",
          "type": "uint256"
        }
      ],
      "stateMutability": "view",
      "type": "function"
    },
    {
      "inputs": [],
      "name": "DepositSlip",
      "outputs": [
        {
          "internalType": "uint256",
          "name": "",
          "type": "uint256"
        }
      ],
      "stateMutability": "view",
      "type": "function"
    },
    {
      "inputs": [],
      "name": "TEST",
      "outputs": [
        {
          "internalType": "bool",
          "name": "",
          "type": "bool"
        }
      ],
      "stateMutability": "view",
      "type": "function"
    },
    {
      "inputs": [],
      "name": "crvAddr",
      "outputs": [
        {
          "internalType": "contract IERC20",
          "name": "",
          "type": "address"
        }
      ],
      "stateMutability": "view",
      "type": "function"
    },
    {
      "inputs": [],
      "name": "crvBreak",
      "outputs": [
        {
          "internalType": "uint256",
          "name": "",
          "type": "uint256"
        }
      ],
      "stateMutability": "view",
      "type": "function"
    },
    {
      "inputs": [],
      "name": "feeDistributor",
      "outputs": [
        {
          "internalType": "contract FeeDistributor",
          "name": "",
          "type": "address"
        }
      ],
      "stateMutability": "view",
      "type": "function"
    },
    {
      "inputs": [],
      "name": "gauge",
      "outputs": [
        {
          "internalType": "contract PoolGauge",
          "name": "",
          "type": "address"
        }
      ],
      "stateMutability": "view",
      "type": "function"
    },
    {
      "inputs": [],
      "name": "minter",
      "outputs": [
        {
          "internalType": "contract Minter",
          "name": "",
          "type": "address"
        }
      ],
      "stateMutability": "view",
      "type": "function"
    },
    {
      "inputs": [],
      "name": "pool",
      "outputs": [
        {
          "internalType": "contract CurvePool",
          "name": "",
          "type": "address"
        }
      ],
      "stateMutability": "view",
      "type": "function"
    },
    {
      "inputs": [],
      "name": "poolToken",
      "outputs": [
        {
          "internalType": "contract IERC20",
          "name": "",
          "type": "address"
        }
      ],
      "stateMutability": "view",
      "type": "function"
    },
    {
      "inputs": [],
      "name": "royaleAddress",
      "outputs": [
        {
          "internalType": "address",
          "name": "",
          "type": "address"
        }
      ],
      "stateMutability": "view",
      "type": "function"
    },
    {
      "inputs": [
        {
          "internalType": "uint256",
          "name": "",
          "type": "uint256"
        }
      ],
      "name": "tokens",
      "outputs": [
        {
          "internalType": "contract IERC20",
          "name": "",
          "type": "address"
        }
      ],
      "stateMutability": "view",
      "type": "function"
    },
    {
      "inputs": [],
      "name": "uniAddr",
      "outputs": [
        {
          "internalType": "contract UniswapI",
          "name": "",
          "type": "address"
        }
      ],
      "stateMutability": "view",
      "type": "function"
    },
    {
      "inputs": [],
      "name": "voteEscrow",
      "outputs": [
        {
          "internalType": "contract VoteEscrow",
          "name": "",
          "type": "address"
        }
      ],
      "stateMutability": "view",
      "type": "function"
    },
    {
      "inputs": [],
      "name": "wallet",
      "outputs": [
        {
          "internalType": "address",
          "name": "",
          "type": "address"
        }
      ],
      "stateMutability": "view",
      "type": "function"
    },
    {
      "inputs": [],
      "name": "wethAddr",
      "outputs": [
        {
          "internalType": "address",
          "name": "",
          "type": "address"
        }
      ],
      "stateMutability": "view",
      "type": "function"
    },
    {
      "inputs": [],
      "name": "withdrawSlip",
      "outputs": [
        {
          "internalType": "uint256",
          "name": "",
          "type": "uint256"
        }
      ],
      "stateMutability": "view",
      "type": "function"
    },
    {
      "inputs": [],
      "name": "yieldDistributor",
      "outputs": [
        {
          "internalType": "address",
          "name": "",
          "type": "address"
        }
      ],
      "stateMutability": "view",
      "type": "function"
    },
    {
      "inputs": [
        {
          "internalType": "uint256",
          "name": "_percentage",
          "type": "uint256"
        }
      ],
      "name": "setCRVBreak",
      "outputs": [],
      "stateMutability": "nonpayable",
      "type": "function"
    },
    {
      "inputs": [
        {
          "internalType": "address",
          "name": "_wallet",
          "type": "address"
        }
      ],
      "name": "transferOwnership",
      "outputs": [],
      "stateMutability": "nonpayable",
      "type": "function"
    },
    {
      "inputs": [
        {
          "internalType": "address",
          "name": "_address",
          "type": "address"
        }
      ],
      "name": "changeRoyaleLP",
      "outputs": [],
      "stateMutability": "nonpayable",
      "type": "function"
    },
    {
      "inputs": [
        {
          "internalType": "uint256[3]",
          "name": "amounts",
          "type": "uint256[3]"
        }
      ],
      "name": "deposit",
      "outputs": [],
      "stateMutability": "nonpayable",
      "type": "function"
    },
    {
      "inputs": [
        {
          "internalType": "uint256[3]",
          "name": "amounts",
          "type": "uint256[3]"
        }
      ],
      "name": "withdraw",
      "outputs": [],
      "stateMutability": "nonpayable",
      "type": "function"
    },
    {
      "inputs": [],
      "name": "withdrawAll",
      "outputs": [
        {
          "internalType": "uint256[3]",
          "name": "",
          "type": "uint256[3]"
        }
      ],
      "stateMutability": "nonpayable",
      "type": "function"
    },
    {
      "inputs": [],
      "name": "stakeLP",
      "outputs": [],
      "stateMutability": "nonpayable",
      "type": "function"
    },
    {
      "inputs": [
        {
          "internalType": "uint256",
          "name": "_amount",
          "type": "uint256"
        }
      ],
      "name": "unstakeLP",
      "outputs": [],
      "stateMutability": "nonpayable",
      "type": "function"
    },
    {
      "inputs": [],
      "name": "checkClaimableToken",
      "outputs": [
        {
          "internalType": "uint256",
          "name": "",
          "type": "uint256"
        }
      ],
      "stateMutability": "view",
      "type": "function"
    },
    {
      "inputs": [],
      "name": "claimCRV",
      "outputs": [],
      "stateMutability": "nonpayable",
      "type": "function"
    },
    {
      "inputs": [
        {
          "internalType": "uint256",
          "name": "_value",
          "type": "uint256"
        },
        {
          "internalType": "uint256",
          "name": "_unlockTime",
          "type": "uint256"
        }
      ],
      "name": "createLock",
      "outputs": [],
      "stateMutability": "nonpayable",
      "type": "function"
    },
    {
      "inputs": [
        {
          "internalType": "uint256",
          "name": "_value",
          "type": "uint256"
        }
      ],
      "name": "increaseLockAmount",
      "outputs": [],
      "stateMutability": "nonpayable",
      "type": "function"
    },
    {
      "inputs": [],
      "name": "releaseLock",
      "outputs": [],
      "stateMutability": "nonpayable",
      "type": "function"
    },
    {
      "inputs": [],
      "name": "claim3CRV",
      "outputs": [],
      "stateMutability": "nonpayable",
      "type": "function"
    },
    {
      "inputs": [
        {
          "internalType": "uint8",
          "name": "_index",
          "type": "uint8"
        }
      ],
      "name": "sellCRV",
      "outputs": [
        {
          "internalType": "uint256",
          "name": "",
          "type": "uint256"
        }
      ],
      "stateMutability": "nonpayable",
      "type": "function"
    },
    {
      "inputs": [],
      "name": "gaugeVeCRVCalculator",
      "outputs": [
        {
          "internalType": "uint256",
          "name": "",
          "type": "uint256"
        }
      ],
      "stateMutability": "view",
      "type": "function"
    }
  ],
  "bytecode": "0x60806040526064600e5560c8600f556127106011556001601260006101000a81548160ff0219169083151502179055503480156200003c57600080fd5b5060405162004caf38038062004caf83398181016040526101a08110156200006357600080fd5b81019080805190602001909291909190826060018051906020019092919080519060200190929190805190602001909291908051906020019092919080519060200190929190805190602001909291908051906020019092919080519060200190929190805190602001909291905050508a601060006101000a81548173ffffffffffffffffffffffffffffffffffffffff021916908373ffffffffffffffffffffffffffffffffffffffff1602179055508960039060036200012892919062000382565b50886000806101000a81548173ffffffffffffffffffffffffffffffffffffffff021916908373ffffffffffffffffffffffffffffffffffffffff16021790555087600160006101000a81548173ffffffffffffffffffffffffffffffffffffffff021916908373ffffffffffffffffffffffffffffffffffffffff16021790555086600660006101000a81548173ffffffffffffffffffffffffffffffffffffffff021916908373ffffffffffffffffffffffffffffffffffffffff16021790555085600260006101000a81548173ffffffffffffffffffffffffffffffffffffffff021916908373ffffffffffffffffffffffffffffffffffffffff16021790555084600760006101000a81548173ffffffffffffffffffffffffffffffffffffffff021916908373ffffffffffffffffffffffffffffffffffffffff16021790555083600860006101000a81548173ffffffffffffffffffffffffffffffffffffffff021916908373ffffffffffffffffffffffffffffffffffffffff16021790555082600b60006101000a81548173ffffffffffffffffffffffffffffffffffffffff021916908373ffffffffffffffffffffffffffffffffffffffff16021790555081600c60006101000a81548173ffffffffffffffffffffffffffffffffffffffff021916908373ffffffffffffffffffffffffffffffffffffffff16021790555080600d60006101000a81548173ffffffffffffffffffffffffffffffffffffffff021916908373ffffffffffffffffffffffffffffffffffffffff160217905550505050505050505050505062000441565b8260038101928215620003f1579160200282015b82811115620003f05782518260006101000a81548173ffffffffffffffffffffffffffffffffffffffff021916908373ffffffffffffffffffffffffffffffffffffffff1602179055509160200191906001019062000396565b5b50905062000400919062000404565b5090565b5b808211156200043d57600081816101000a81549073ffffffffffffffffffffffffffffffffffffffff02191690555060010162000405565b5090565b61485e80620004516000396000f3fe608060405234801561001057600080fd5b50600436106102065760003560e01c80637d5aa5f41161011a578063c4778998116100ad578063dbbcbd3d1161007c578063dbbcbd3d146107b4578063eda54ad2146107d2578063f166f3e8146107dc578063f2fde38b146107e6578063f7ee0b8e1461082a57610206565b8063c4778998146106cf578063cbdf382c146106fd578063d3639ae314610731578063d4e20b011461074f57610206565b8063a38c2c3d116100e9578063a38c2c3d146105ca578063a6f19c84146105fe578063b1b8f1be14610632578063b52c05fe1461069757610206565b80637d5aa5f4146104fe578063853828b6146105325780639019a28514610578578063918f8674146105ac57610206565b806348f8f6d91161019d578063521eb2731161016c578063521eb273146103ff5780636b944998146104335780636e75702e1461047857806374b21fbe146104965780637b158f38146104ca57610206565b806348f8f6d91461034f5780634df50a55146103595780634f64b2be1461038757806351d977a6146103df57610206565b80632b51a095116101d95780632b51a095146102b15780633557ea1e146102e5578063393403b714610303578063403f44471461032157610206565b8063075461721461020b5780630d43e8ad1461023f57806310ff582d1461027357806316f0115b1461027d575b600080fd5b61021361086e565b604051808273ffffffffffffffffffffffffffffffffffffffff16815260200191505060405180910390f35b610247610894565b604051808273ffffffffffffffffffffffffffffffffffffffff16815260200191505060405180910390f35b61027b6108ba565b005b610285610c41565b604051808273ffffffffffffffffffffffffffffffffffffffff16815260200191505060405180910390f35b6102b9610c67565b604051808273ffffffffffffffffffffffffffffffffffffffff16815260200191505060405180910390f35b6102ed610c8b565b6040518082815260200191505060405180910390f35b61030b610c91565b6040518082815260200191505060405180910390f35b61034d6004803603602081101561033757600080fd5b8101908080359060200190929190505050610fd7565b005b610357611240565b005b6103856004803603602081101561036f57600080fd5b810190808035906020019092919050505061144c565b005b6103b36004803603602081101561039d57600080fd5b8101908080359060200190929190505050611519565b604051808273ffffffffffffffffffffffffffffffffffffffff16815260200191505060405180910390f35b6103e761154c565b60405180821515815260200191505060405180910390f35b61040761155f565b604051808273ffffffffffffffffffffffffffffffffffffffff16815260200191505060405180910390f35b6104626004803603602081101561044957600080fd5b81019080803560ff169060200190929190505050611585565b6040518082815260200191505060405180910390f35b610480611f17565b6040518082815260200191505060405180910390f35b61049e611f1d565b604051808273ffffffffffffffffffffffffffffffffffffffff16815260200191505060405180910390f35b6104d2611f43565b604051808273ffffffffffffffffffffffffffffffffffffffff16815260200191505060405180910390f35b610506611f69565b604051808273ffffffffffffffffffffffffffffffffffffffff16815260200191505060405180910390f35b61053a611f8f565b6040518082600360200280838360005b8381101561056557808201518184015260208101905061054a565b5050505090500191505060405180910390f35b61058061252e565b604051808273ffffffffffffffffffffffffffffffffffffffff16815260200191505060405180910390f35b6105b4612554565b6040518082815260200191505060405180910390f35b6105d261255a565b604051808273ffffffffffffffffffffffffffffffffffffffff16815260200191505060405180910390f35b610606612580565b604051808273ffffffffffffffffffffffffffffffffffffffff16815260200191505060405180910390f35b6106956004803603606081101561064857600080fd5b8101908080606001906003806020026040519081016040528092919082600360200280828437600081840152601f19601f82011690508083019250505050505091929192905050506125a6565b005b6106cd600480360360408110156106ad57600080fd5b8101908080359060200190929190803590602001909291905050506129ed565b005b6106fb600480360360208110156106e557600080fd5b8101908080359060200190929190505050612c5f565b005b610705612f5b565b604051808273ffffffffffffffffffffffffffffffffffffffff16815260200191505060405180910390f35b610739612f81565b6040518082815260200191505060405180910390f35b6107b26004803603606081101561076557600080fd5b8101908080606001906003806020026040519081016040528092919082600360200280828437600081840152601f19601f820116905080830192505050505050919291929050505061304c565b005b6107bc61354f565b6040518082815260200191505060405180910390f35b6107da613555565b005b6107e46136c8565b005b610828600480360360208110156107fc57600080fd5b81019080803573ffffffffffffffffffffffffffffffffffffffff169060200190929190505050613bf9565b005b61086c6004803603602081101561084057600080fd5b81019080803573ffffffffffffffffffffffffffffffffffffffff169060200190929190505050613d00565b005b600860009054906101000a900473ffffffffffffffffffffffffffffffffffffffff1681565b600a60009054906101000a900473ffffffffffffffffffffffffffffffffffffffff1681565b3373ffffffffffffffffffffffffffffffffffffffff16601060009054906101000a900473ffffffffffffffffffffffffffffffffffffffff1673ffffffffffffffffffffffffffffffffffffffff161480610961575060008054906101000a900473ffffffffffffffffffffffffffffffffffffffff1673ffffffffffffffffffffffffffffffffffffffff163373ffffffffffffffffffffffffffffffffffffffff16145b6109d3576040517f08c379a000000000000000000000000000000000000000000000000000000000815260040180806020018281038252600e8152602001807f4e6f7420617574686f72697a656400000000000000000000000000000000000081525060200191505060405180910390fd5b6000600260009054906101000a900473ffffffffffffffffffffffffffffffffffffffff1673ffffffffffffffffffffffffffffffffffffffff166370a08231306040518263ffffffff1660e01b8152600401808273ffffffffffffffffffffffffffffffffffffffff16815260200191505060206040518083038186803b158015610a5e57600080fd5b505afa158015610a72573d6000803e3d6000fd5b505050506040513d6020811015610a8857600080fd5b81019080805190602001909291905050509050610b0b600760009054906101000a900473ffffffffffffffffffffffffffffffffffffffff166000600260009054906101000a900473ffffffffffffffffffffffffffffffffffffffff1673ffffffffffffffffffffffffffffffffffffffff16613e069092919063ffffffff16565b610b7a600760009054906101000a900473ffffffffffffffffffffffffffffffffffffffff1682600260009054906101000a900473ffffffffffffffffffffffffffffffffffffffff1673ffffffffffffffffffffffffffffffffffffffff16613e069092919063ffffffff16565b600760009054906101000a900473ffffffffffffffffffffffffffffffffffffffff1673ffffffffffffffffffffffffffffffffffffffff1663b6b55f25826040518263ffffffff1660e01b815260040180828152602001915050600060405180830381600087803b158015610bef57600080fd5b505af1158015610c03573d6000803e3d6000fd5b505050507f5e1bef326bd9222892c5e49c4e6756af0f42c0b91d698bd306965987bc1f9a7e816040518082815260200191505060405180910390a150565b600660009054906101000a900473ffffffffffffffffffffffffffffffffffffffff1681565b60008054906101000a900473ffffffffffffffffffffffffffffffffffffffff1681565b600e5481565b600080610fce610d4d603c600760009054906101000a900473ffffffffffffffffffffffffffffffffffffffff1673ffffffffffffffffffffffffffffffffffffffff166318160ddd6040518163ffffffff1660e01b815260040160206040518083038186803b158015610d0457600080fd5b505afa158015610d18573d6000803e3d6000fd5b505050506040513d6020811015610d2e57600080fd5b8101908080519060200190929190505050613fcb90919063ffffffff16565b610fc0600960009054906101000a900473ffffffffffffffffffffffffffffffffffffffff1673ffffffffffffffffffffffffffffffffffffffff166318160ddd6040518163ffffffff1660e01b815260040160206040518083038186803b158015610db857600080fd5b505afa158015610dcc573d6000803e3d6000fd5b505050506040513d6020811015610de257600080fd5b8101908080519060200190929190505050610fb2610ecd6028600760009054906101000a900473ffffffffffffffffffffffffffffffffffffffff1673ffffffffffffffffffffffffffffffffffffffff166370a08231306040518263ffffffff1660e01b8152600401808273ffffffffffffffffffffffffffffffffffffffff16815260200191505060206040518083038186803b158015610e8457600080fd5b505afa158015610e98573d6000803e3d6000fd5b505050506040513d6020811015610eae57600080fd5b8101908080519060200190929190505050613fcb90919063ffffffff16565b610fa46064600760009054906101000a900473ffffffffffffffffffffffffffffffffffffffff1673ffffffffffffffffffffffffffffffffffffffff166370a08231306040518263ffffffff1660e01b8152600401808273ffffffffffffffffffffffffffffffffffffffff16815260200191505060206040518083038186803b158015610f5b57600080fd5b505afa158015610f6f573d6000803e3d6000fd5b505050506040513d6020811015610f8557600080fd5b8101908080519060200190929190505050613fcb90919063ffffffff16565b61405190919063ffffffff16565b613fcb90919063ffffffff16565b61409b90919063ffffffff16565b90508091505090565b3373ffffffffffffffffffffffffffffffffffffffff16601060009054906101000a900473ffffffffffffffffffffffffffffffffffffffff1673ffffffffffffffffffffffffffffffffffffffff161461109a576040517f08c379a000000000000000000000000000000000000000000000000000000000815260040180806020018281038252600e8152602001807f4e6f7420417574686f72697a656400000000000000000000000000000000000081525060200191505060405180910390fd5b61110a600960009054906101000a900473ffffffffffffffffffffffffffffffffffffffff166000600c60009054906101000a900473ffffffffffffffffffffffffffffffffffffffff1673ffffffffffffffffffffffffffffffffffffffff16613e069092919063ffffffff16565b611179600960009054906101000a900473ffffffffffffffffffffffffffffffffffffffff1682600c60009054906101000a900473ffffffffffffffffffffffffffffffffffffffff1673ffffffffffffffffffffffffffffffffffffffff16613e069092919063ffffffff16565b600960009054906101000a900473ffffffffffffffffffffffffffffffffffffffff1673ffffffffffffffffffffffffffffffffffffffff16634957677c826040518263ffffffff1660e01b815260040180828152602001915050600060405180830381600087803b1580156111ee57600080fd5b505af1158015611202573d6000803e3d6000fd5b505050507fb45a3c0e2dcd2f560d00e18d58bb2bc636f1540eba5f84061a0154f14ca84992816040518082815260200191505060405180910390a150565b3373ffffffffffffffffffffffffffffffffffffffff16601060009054906101000a900473ffffffffffffffffffffffffffffffffffffffff1673ffffffffffffffffffffffffffffffffffffffff1614806112e7575060008054906101000a900473ffffffffffffffffffffffffffffffffffffffff1673ffffffffffffffffffffffffffffffffffffffff163373ffffffffffffffffffffffffffffffffffffffff16145b611359576040517f08c379a000000000000000000000000000000000000000000000000000000000815260040180806020018281038252600e8152602001807f4e6f7420617574686f72697a656400000000000000000000000000000000000081525060200191505060405180910390fd5b600860009054906101000a900473ffffffffffffffffffffffffffffffffffffffff1673ffffffffffffffffffffffffffffffffffffffff16636a627842600760009054906101000a900473ffffffffffffffffffffffffffffffffffffffff166040518263ffffffff1660e01b8152600401808273ffffffffffffffffffffffffffffffffffffffff168152602001915050600060405180830381600087803b15801561140657600080fd5b505af115801561141a573d6000803e3d6000fd5b505050507f79f93d1b0062276af10ff82b062487b30ed85153e7d3a52ed67d7cf7529ec2b960405160405180910390a1565b3373ffffffffffffffffffffffffffffffffffffffff16601060009054906101000a900473ffffffffffffffffffffffffffffffffffffffff1673ffffffffffffffffffffffffffffffffffffffff161461150f576040517f08c379a000000000000000000000000000000000000000000000000000000000815260040180806020018281038252600e8152602001807f4e6f7420417574686f72697a656400000000000000000000000000000000000081525060200191505060405180910390fd5b8060118190555050565b6003816003811061152657fe5b016000915054906101000a900473ffffffffffffffffffffffffffffffffffffffff1681565b601260009054906101000a900460ff1681565b601060009054906101000a900473ffffffffffffffffffffffffffffffffffffffff1681565b60003373ffffffffffffffffffffffffffffffffffffffff16601060009054906101000a900473ffffffffffffffffffffffffffffffffffffffff1673ffffffffffffffffffffffffffffffffffffffff161461164a576040517f08c379a000000000000000000000000000000000000000000000000000000000815260040180806020018281038252600e8152602001807f4e6f7420417574686f72697a656400000000000000000000000000000000000081525060200191505060405180910390fd5b6000600c60009054906101000a900473ffffffffffffffffffffffffffffffffffffffff1673ffffffffffffffffffffffffffffffffffffffff166370a08231306040518263ffffffff1660e01b8152600401808273ffffffffffffffffffffffffffffffffffffffff16815260200191505060206040518083038186803b1580156116d557600080fd5b505afa1580156116e9573d6000803e3d6000fd5b505050506040513d60208110156116ff57600080fd5b81019080805190602001909291905050509050600060038460ff166003811061172457fe5b0160009054906101000a900473ffffffffffffffffffffffffffffffffffffffff1673ffffffffffffffffffffffffffffffffffffffff166370a08231306040518263ffffffff1660e01b8152600401808273ffffffffffffffffffffffffffffffffffffffff16815260200191505060206040518083038186803b1580156117ac57600080fd5b505afa1580156117c0573d6000803e3d6000fd5b505050506040513d60208110156117d657600080fd5b810190808051906020019092919050505090506000821161185f576040517f08c379a00000000000000000000000000000000000000000000000000000000081526004018080602001828103825260108152602001807f696e73756666696369656e74204352560000000000000000000000000000000081525060200191505060405180910390fd5b61188861271061187a60115485613fcb90919063ffffffff16565b61409b90919063ffffffff16565b91506118fa600b60009054906101000a900473ffffffffffffffffffffffffffffffffffffffff166000600c60009054906101000a900473ffffffffffffffffffffffffffffffffffffffff1673ffffffffffffffffffffffffffffffffffffffff16613e069092919063ffffffff16565b611969600b60009054906101000a900473ffffffffffffffffffffffffffffffffffffffff1683600c60009054906101000a900473ffffffffffffffffffffffffffffffffffffffff1673ffffffffffffffffffffffffffffffffffffffff16613e069092919063ffffffff16565b6060601260009054906101000a900460ff1615611ab257600267ffffffffffffffff8111801561199857600080fd5b506040519080825280602002602001820160405280156119c75781602001602082028036833780820191505090505b509050600c60009054906101000a900473ffffffffffffffffffffffffffffffffffffffff16816000815181106119fa57fe5b602002602001019073ffffffffffffffffffffffffffffffffffffffff16908173ffffffffffffffffffffffffffffffffffffffff168152505060038560ff1660038110611a4457fe5b0160009054906101000a900473ffffffffffffffffffffffffffffffffffffffff1681600181518110611a7357fe5b602002602001019073ffffffffffffffffffffffffffffffffffffffff16908173ffffffffffffffffffffffffffffffffffffffff1681525050611c4a565b600367ffffffffffffffff81118015611aca57600080fd5b50604051908082528060200260200182016040528015611af95781602001602082028036833780820191505090505b509050600c60009054906101000a900473ffffffffffffffffffffffffffffffffffffffff1681600081518110611b2c57fe5b602002602001019073ffffffffffffffffffffffffffffffffffffffff16908173ffffffffffffffffffffffffffffffffffffffff1681525050600d60009054906101000a900473ffffffffffffffffffffffffffffffffffffffff1681600181518110611b9657fe5b602002602001019073ffffffffffffffffffffffffffffffffffffffff16908173ffffffffffffffffffffffffffffffffffffffff168152505060038560ff1660038110611be057fe5b0160009054906101000a900473ffffffffffffffffffffffffffffffffffffffff1681600281518110611c0f57fe5b602002602001019073ffffffffffffffffffffffffffffffffffffffff16908173ffffffffffffffffffffffffffffffffffffffff16815250505b600b60009054906101000a900473ffffffffffffffffffffffffffffffffffffffff1673ffffffffffffffffffffffffffffffffffffffff166338ed1739846000843061070842016040518663ffffffff1660e01b815260040180868152602001858152602001806020018473ffffffffffffffffffffffffffffffffffffffff168152602001838152602001828103825285818151815260200191508051906020019060200280838360005b83811015611d12578082015181840152602081019050611cf7565b505050509050019650505050505050600060405180830381600087803b158015611d3b57600080fd5b505af1158015611d4f573d6000803e3d6000fd5b50505050600060038660ff1660038110611d6557fe5b0160009054906101000a900473ffffffffffffffffffffffffffffffffffffffff1673ffffffffffffffffffffffffffffffffffffffff166370a08231306040518263ffffffff1660e01b8152600401808273ffffffffffffffffffffffffffffffffffffffff16815260200191505060206040518083038186803b158015611ded57600080fd5b505afa158015611e01573d6000803e3d6000fd5b505050506040513d6020811015611e1757600080fd5b81019080805190602001909291905050509050611eba600160009054906101000a900473ffffffffffffffffffffffffffffffffffffffff16611e63858461405190919063ffffffff16565b60038960ff1660038110611e7357fe5b0160009054906101000a900473ffffffffffffffffffffffffffffffffffffffff1673ffffffffffffffffffffffffffffffffffffffff166140e59092919063ffffffff16565b7fc1b4dab262ffe9aeac4082a51908ba2d90401e4936f549ab13c2d4c44816958986611eef858461405190919063ffffffff16565b604051808360ff1681526020018281526020019250505060405180910390a150505050919050565b600f5481565b600c60009054906101000a900473ffffffffffffffffffffffffffffffffffffffff1681565b600b60009054906101000a900473ffffffffffffffffffffffffffffffffffffffff1681565b600d60009054906101000a900473ffffffffffffffffffffffffffffffffffffffff1681565b611f9761473b565b60008054906101000a900473ffffffffffffffffffffffffffffffffffffffff1673ffffffffffffffffffffffffffffffffffffffff163373ffffffffffffffffffffffffffffffffffffffff161480611fef575060015b612061576040517f08c379a000000000000000000000000000000000000000000000000000000000815260040180806020018281038252600e8152602001807f4e6f7420617574686f72697a656400000000000000000000000000000000000081525060200191505060405180910390fd5b61212d600760009054906101000a900473ffffffffffffffffffffffffffffffffffffffff1673ffffffffffffffffffffffffffffffffffffffff166370a08231306040518263ffffffff1660e01b8152600401808273ffffffffffffffffffffffffffffffffffffffff16815260200191505060206040518083038186803b1580156120ed57600080fd5b505afa158015612101573d6000803e3d6000fd5b505050506040513d602081101561211757600080fd5b8101908080519060200190929190505050612c5f565b61213561473b565b600660009054906101000a900473ffffffffffffffffffffffffffffffffffffffff1673ffffffffffffffffffffffffffffffffffffffff1663ecb586a5600260009054906101000a900473ffffffffffffffffffffffffffffffffffffffff1673ffffffffffffffffffffffffffffffffffffffff166370a08231306040518263ffffffff1660e01b8152600401808273ffffffffffffffffffffffffffffffffffffffff16815260200191505060206040518083038186803b1580156121fc57600080fd5b505afa158015612210573d6000803e3d6000fd5b505050506040513d602081101561222657600080fd5b8101908080519060200190929190505050836040518363ffffffff1660e01b81526004018083815260200182600360200280838360005b8381101561227857808201518184015260208101905061225d565b5050505090500192505050600060405180830381600087803b15801561229d57600080fd5b505af11580156122b1573d6000803e3d6000fd5b5050505060005b60038160ff16101561252657600060038260ff16600381106122d657fe5b0160009054906101000a900473ffffffffffffffffffffffffffffffffffffffff1673ffffffffffffffffffffffffffffffffffffffff166370a08231306040518263ffffffff1660e01b8152600401808273ffffffffffffffffffffffffffffffffffffffff16815260200191505060206040518083038186803b15801561235e57600080fd5b505afa158015612372573d6000803e3d6000fd5b505050506040513d602081101561238857600080fd5b8101908080519060200190929190505050146125195760038160ff16600381106123ae57fe5b0160009054906101000a900473ffffffffffffffffffffffffffffffffffffffff1673ffffffffffffffffffffffffffffffffffffffff166370a08231306040518263ffffffff1660e01b8152600401808273ffffffffffffffffffffffffffffffffffffffff16815260200191505060206040518083038186803b15801561243657600080fd5b505afa15801561244a573d6000803e3d6000fd5b505050506040513d602081101561246057600080fd5b8101908080519060200190929190505050828260ff166003811061248057fe5b60200201818152505061251860008054906101000a900473ffffffffffffffffffffffffffffffffffffffff16838360ff16600381106124bc57fe5b602002015160038460ff16600381106124d157fe5b0160009054906101000a900473ffffffffffffffffffffffffffffffffffffffff1673ffffffffffffffffffffffffffffffffffffffff166140e59092919063ffffffff16565b5b80806001019150506122b8565b508091505090565b600960009054906101000a900473ffffffffffffffffffffffffffffffffffffffff1681565b61271081565b600160009054906101000a900473ffffffffffffffffffffffffffffffffffffffff1681565b600760009054906101000a900473ffffffffffffffffffffffffffffffffffffffff1681565b60008054906101000a900473ffffffffffffffffffffffffffffffffffffffff1673ffffffffffffffffffffffffffffffffffffffff163373ffffffffffffffffffffffffffffffffffffffff1614806125fe575060015b612670576040517f08c379a000000000000000000000000000000000000000000000000000000000815260040180806020018281038252600e8152602001807f4e6f7420617574686f72697a656400000000000000000000000000000000000081525060200191505060405180910390fd5b6000600660009054906101000a900473ffffffffffffffffffffffffffffffffffffffff1673ffffffffffffffffffffffffffffffffffffffff16633883e1198360006040518363ffffffff1660e01b81526004018083600360200280838360005b838110156126ed5780820151818401526020810190506126d2565b5050505090500182151581526020019250505060206040518083038186803b15801561271857600080fd5b505afa15801561272c573d6000803e3d6000fd5b505050506040513d602081101561274257600080fd5b81019080805190602001909291905050509050612792612710612784612775600f5461271061418790919063ffffffff16565b84613fcb90919063ffffffff16565b61409b90919063ffffffff16565b905061279d81612c5f565b600660009054906101000a900473ffffffffffffffffffffffffffffffffffffffff1673ffffffffffffffffffffffffffffffffffffffff16639fdaea0c83836040518363ffffffff1660e01b81526004018083600360200280838360005b838110156128175780820151818401526020810190506127fc565b5050505090500182815260200192505050600060405180830381600087803b15801561284257600080fd5b505af1158015612856573d6000803e3d6000fd5b5050505060005b60038160ff1610156129e0576000838260ff166003811061287a57fe5b6020020151146129d3576129d260008054906101000a900473ffffffffffffffffffffffffffffffffffffffff1660038360ff16600381106128b857fe5b0160009054906101000a900473ffffffffffffffffffffffffffffffffffffffff1673ffffffffffffffffffffffffffffffffffffffff166370a08231306040518263ffffffff1660e01b8152600401808273ffffffffffffffffffffffffffffffffffffffff16815260200191505060206040518083038186803b15801561294057600080fd5b505afa158015612954573d6000803e3d6000fd5b505050506040513d602081101561296a57600080fd5b810190808051906020019092919050505060038460ff166003811061298b57fe5b0160009054906101000a900473ffffffffffffffffffffffffffffffffffffffff1673ffffffffffffffffffffffffffffffffffffffff166140e59092919063ffffffff16565b5b808060010191505061285d565b506129e96108ba565b5050565b3373ffffffffffffffffffffffffffffffffffffffff16601060009054906101000a900473ffffffffffffffffffffffffffffffffffffffff1673ffffffffffffffffffffffffffffffffffffffff1614612ab0576040517f08c379a000000000000000000000000000000000000000000000000000000000815260040180806020018281038252600e8152602001807f4e6f7420417574686f72697a656400000000000000000000000000000000000081525060200191505060405180910390fd5b612b20600960009054906101000a900473ffffffffffffffffffffffffffffffffffffffff166000600c60009054906101000a900473ffffffffffffffffffffffffffffffffffffffff1673ffffffffffffffffffffffffffffffffffffffff16613e069092919063ffffffff16565b612b8f600960009054906101000a900473ffffffffffffffffffffffffffffffffffffffff1683600c60009054906101000a900473ffffffffffffffffffffffffffffffffffffffff1673ffffffffffffffffffffffffffffffffffffffff16613e069092919063ffffffff16565b600960009054906101000a900473ffffffffffffffffffffffffffffffffffffffff1673ffffffffffffffffffffffffffffffffffffffff166365fc387383836040518363ffffffff1660e01b81526004018083815260200182815260200192505050600060405180830381600087803b158015612c0c57600080fd5b505af1158015612c20573d6000803e3d6000fd5b505050507fb45a3c0e2dcd2f560d00e18d58bb2bc636f1540eba5f84061a0154f14ca84992826040518082815260200191505060405180910390a15050565b3373ffffffffffffffffffffffffffffffffffffffff16601060009054906101000a900473ffffffffffffffffffffffffffffffffffffffff1673ffffffffffffffffffffffffffffffffffffffff161480612d06575060008054906101000a900473ffffffffffffffffffffffffffffffffffffffff1673ffffffffffffffffffffffffffffffffffffffff163373ffffffffffffffffffffffffffffffffffffffff16145b612d78576040517f08c379a000000000000000000000000000000000000000000000000000000000815260040180806020018281038252600e8152602001807f4e6f7420617574686f72697a656400000000000000000000000000000000000081525060200191505060405180910390fd5b80600760009054906101000a900473ffffffffffffffffffffffffffffffffffffffff1673ffffffffffffffffffffffffffffffffffffffff166370a08231306040518263ffffffff1660e01b8152600401808273ffffffffffffffffffffffffffffffffffffffff16815260200191505060206040518083038186803b158015612e0257600080fd5b505afa158015612e16573d6000803e3d6000fd5b505050506040513d6020811015612e2c57600080fd5b81019080805190602001909291905050501015612e94576040517f08c379a00000000000000000000000000000000000000000000000000000000081526004018080602001828103825260248152602001806147cf6024913960400191505060405180910390fd5b600760009054906101000a900473ffffffffffffffffffffffffffffffffffffffff1673ffffffffffffffffffffffffffffffffffffffff16632e1a7d4d826040518263ffffffff1660e01b815260040180828152602001915050600060405180830381600087803b158015612f0957600080fd5b505af1158015612f1d573d6000803e3d6000fd5b505050507f862f62b448d7253dc6afebd1a94d3fed70796abc517f689f329288fb288e3331816040518082815260200191505060405180910390a150565b600260009054906101000a900473ffffffffffffffffffffffffffffffffffffffff1681565b6000600760009054906101000a900473ffffffffffffffffffffffffffffffffffffffff1673ffffffffffffffffffffffffffffffffffffffff166333134583306040518263ffffffff1660e01b8152600401808273ffffffffffffffffffffffffffffffffffffffff16815260200191505060206040518083038186803b15801561300c57600080fd5b505afa158015613020573d6000803e3d6000fd5b505050506040513d602081101561303657600080fd5b8101908080519060200190929190505050905090565b60008054906101000a900473ffffffffffffffffffffffffffffffffffffffff1673ffffffffffffffffffffffffffffffffffffffff163373ffffffffffffffffffffffffffffffffffffffff1614806130a4575060015b613116576040517f08c379a000000000000000000000000000000000000000000000000000000000815260040180806020018281038252600e8152602001807f4e6f7420617574686f72697a656400000000000000000000000000000000000081525060200191505060405180910390fd5b600080600090505b60038160ff161015613375576000838260ff166003811061313b57fe5b6020020151111561336857600060038260ff166003811061315857fe5b0160009054906101000a900473ffffffffffffffffffffffffffffffffffffffff1673ffffffffffffffffffffffffffffffffffffffff1663313ce5676040518163ffffffff1660e01b815260040160206040518083038186803b1580156131bf57600080fd5b505afa1580156131d3573d6000803e3d6000fd5b505050506040513d60208110156131e957600080fd5b810190808051906020019092919050505060ff16905061327e600660009054906101000a900473ffffffffffffffffffffffffffffffffffffffff16600060038560ff166003811061323757fe5b0160009054906101000a900473ffffffffffffffffffffffffffffffffffffffff1673ffffffffffffffffffffffffffffffffffffffff16613e069092919063ffffffff16565b61330f600660009054906101000a900473ffffffffffffffffffffffffffffffffffffffff16858460ff16600381106132b357fe5b602002015160038560ff16600381106132c857fe5b0160009054906101000a900473ffffffffffffffffffffffffffffffffffffffff1673ffffffffffffffffffffffffffffffffffffffff16613e069092919063ffffffff16565b61336461335582600a0a613347670de0b6b3a7640000888760ff166003811061333457fe5b6020020151613fcb90919063ffffffff16565b61409b90919063ffffffff16565b8461418790919063ffffffff16565b9250505b808060010191505061311e565b506000613447600660009054906101000a900473ffffffffffffffffffffffffffffffffffffffff1673ffffffffffffffffffffffffffffffffffffffff1663bb7b8b806040518163ffffffff1660e01b815260040160206040518083038186803b1580156133e357600080fd5b505afa1580156133f7573d6000803e3d6000fd5b505050506040513d602081101561340d57600080fd5b8101908080519060200190929190505050613439670de0b6b3a764000085613fcb90919063ffffffff16565b61409b90919063ffffffff16565b9050600660009054906101000a900473ffffffffffffffffffffffffffffffffffffffff1673ffffffffffffffffffffffffffffffffffffffff16634515cef3846134c56127106134b76134a8600e5461271061405190919063ffffffff16565b87613fcb90919063ffffffff16565b61409b90919063ffffffff16565b6040518363ffffffff1660e01b81526004018083600360200280838360005b838110156134ff5780820151818401526020810190506134e4565b5050505090500182815260200192505050600060405180830381600087803b15801561352a57600080fd5b505af115801561353e573d6000803e3d6000fd5b5050505061354a6108ba565b505050565b60115481565b3373ffffffffffffffffffffffffffffffffffffffff16601060009054906101000a900473ffffffffffffffffffffffffffffffffffffffff1673ffffffffffffffffffffffffffffffffffffffff1614613618576040517f08c379a000000000000000000000000000000000000000000000000000000000815260040180806020018281038252600e8152602001807f4e6f7420417574686f72697a656400000000000000000000000000000000000081525060200191505060405180910390fd5b600960009054906101000a900473ffffffffffffffffffffffffffffffffffffffff1673ffffffffffffffffffffffffffffffffffffffff16633ccfd60b6040518163ffffffff1660e01b8152600401600060405180830381600087803b15801561368257600080fd5b505af1158015613696573d6000803e3d6000fd5b505050507f6a5e26501482a05740f9329fa7e26d328045348d615d7515b3be9189b9bedb5560405160405180910390a1565b3373ffffffffffffffffffffffffffffffffffffffff16601060009054906101000a900473ffffffffffffffffffffffffffffffffffffffff1673ffffffffffffffffffffffffffffffffffffffff161461378b576040517f08c379a000000000000000000000000000000000000000000000000000000000815260040180806020018281038252600e8152602001807f4e6f7420417574686f72697a656400000000000000000000000000000000000081525060200191505060405180910390fd5b6000600260009054906101000a900473ffffffffffffffffffffffffffffffffffffffff1673ffffffffffffffffffffffffffffffffffffffff166370a08231306040518263ffffffff1660e01b8152600401808273ffffffffffffffffffffffffffffffffffffffff16815260200191505060206040518083038186803b15801561381657600080fd5b505afa15801561382a573d6000803e3d6000fd5b505050506040513d602081101561384057600080fd5b81019080805190602001909291905050509050600a60009054906101000a900473ffffffffffffffffffffffffffffffffffffffff1673ffffffffffffffffffffffffffffffffffffffff16634e71d92d6040518163ffffffff1660e01b8152600401600060405180830381600087803b1580156138bd57600080fd5b505af11580156138d1573d6000803e3d6000fd5b505050506000600260009054906101000a900473ffffffffffffffffffffffffffffffffffffffff1673ffffffffffffffffffffffffffffffffffffffff166370a08231306040518263ffffffff1660e01b8152600401808273ffffffffffffffffffffffffffffffffffffffff16815260200191505060206040518083038186803b15801561396057600080fd5b505afa158015613974573d6000803e3d6000fd5b505050506040513d602081101561398a57600080fd5b810190808051906020019092919050505090506139a561473b565b600660009054906101000a900473ffffffffffffffffffffffffffffffffffffffff1673ffffffffffffffffffffffffffffffffffffffff1663ecb586a5848403836040518363ffffffff1660e01b81526004018083815260200182600360200280838360005b83811015613a27578082015181840152602081019050613a0c565b5050505090500192505050600060405180830381600087803b158015613a4c57600080fd5b505af1158015613a60573d6000803e3d6000fd5b5050505060005b6003811015613bc757613bba600160009054906101000a900473ffffffffffffffffffffffffffffffffffffffff1660038360038110613aa357fe5b0160009054906101000a900473ffffffffffffffffffffffffffffffffffffffff1673ffffffffffffffffffffffffffffffffffffffff166370a08231306040518263ffffffff1660e01b8152600401808273ffffffffffffffffffffffffffffffffffffffff16815260200191505060206040518083038186803b158015613b2b57600080fd5b505afa158015613b3f573d6000803e3d6000fd5b505050506040513d6020811015613b5557600080fd5b810190808051906020019092919050505060038460038110613b7357fe5b0160009054906101000a900473ffffffffffffffffffffffffffffffffffffffff1673ffffffffffffffffffffffffffffffffffffffff166140e59092919063ffffffff16565b8080600101915050613a67565b507f4acdc864e2c852884206e81c2cfaa26ad44ef34d115a71f76302e35e6736e10d60405160405180910390a1505050565b3373ffffffffffffffffffffffffffffffffffffffff16601060009054906101000a900473ffffffffffffffffffffffffffffffffffffffff1673ffffffffffffffffffffffffffffffffffffffff1614613cbc576040517f08c379a000000000000000000000000000000000000000000000000000000000815260040180806020018281038252600e8152602001807f4e6f7420417574686f72697a656400000000000000000000000000000000000081525060200191505060405180910390fd5b80601060006101000a81548173ffffffffffffffffffffffffffffffffffffffff021916908373ffffffffffffffffffffffffffffffffffffffff16021790555050565b3373ffffffffffffffffffffffffffffffffffffffff16601060009054906101000a900473ffffffffffffffffffffffffffffffffffffffff1673ffffffffffffffffffffffffffffffffffffffff1614613dc3576040517f08c379a000000000000000000000000000000000000000000000000000000000815260040180806020018281038252600e8152602001807f4e6f7420417574686f72697a656400000000000000000000000000000000000081525060200191505060405180910390fd5b806000806101000a81548173ffffffffffffffffffffffffffffffffffffffff021916908373ffffffffffffffffffffffffffffffffffffffff16021790555050565b6000811480613ed4575060008373ffffffffffffffffffffffffffffffffffffffff1663dd62ed3e30856040518363ffffffff1660e01b8152600401808373ffffffffffffffffffffffffffffffffffffffff1681526020018273ffffffffffffffffffffffffffffffffffffffff1681526020019250505060206040518083038186803b158015613e9757600080fd5b505afa158015613eab573d6000803e3d6000fd5b505050506040513d6020811015613ec157600080fd5b8101908080519060200190929190505050145b613f29576040517f08c379a00000000000000000000000000000000000000000000000000000000081526004018080602001828103825260368152602001806147f36036913960400191505060405180910390fd5b613fc68363095ea7b360e01b8484604051602401808373ffffffffffffffffffffffffffffffffffffffff16815260200182815260200192505050604051602081830303815290604052907bffffffffffffffffffffffffffffffffffffffffffffffffffffffff19166020820180517bffffffffffffffffffffffffffffffffffffffffffffffffffffffff838183161783525050505061420f565b505050565b600080831415613fde576000905061404b565b6000828402905082848281613fef57fe5b0414614046576040517f08c379a00000000000000000000000000000000000000000000000000000000081526004018080602001828103825260218152602001806147846021913960400191505060405180910390fd5b809150505b92915050565b600061409383836040518060400160405280601e81526020017f536166654d6174683a207375627472616374696f6e206f766572666c6f7700008152506142fe565b905092915050565b60006140dd83836040518060400160405280601a81526020017f536166654d6174683a206469766973696f6e206279207a65726f0000000000008152506143be565b905092915050565b6141828363a9059cbb60e01b8484604051602401808373ffffffffffffffffffffffffffffffffffffffff16815260200182815260200192505050604051602081830303815290604052907bffffffffffffffffffffffffffffffffffffffffffffffffffffffff19166020820180517bffffffffffffffffffffffffffffffffffffffffffffffffffffffff838183161783525050505061420f565b505050565b600080828401905083811015614205576040517f08c379a000000000000000000000000000000000000000000000000000000000815260040180806020018281038252601b8152602001807f536166654d6174683a206164646974696f6e206f766572666c6f77000000000081525060200191505060405180910390fd5b8091505092915050565b6060614271826040518060400160405280602081526020017f5361666545524332303a206c6f772d6c6576656c2063616c6c206661696c65648152508573ffffffffffffffffffffffffffffffffffffffff166144849092919063ffffffff16565b90506000815111156142f95780806020019051602081101561429257600080fd5b81019080805190602001909291905050506142f8576040517f08c379a000000000000000000000000000000000000000000000000000000000815260040180806020018281038252602a8152602001806147a5602a913960400191505060405180910390fd5b5b505050565b60008383111582906143ab576040517f08c379a00000000000000000000000000000000000000000000000000000000081526004018080602001828103825283818151815260200191508051906020019080838360005b83811015614370578082015181840152602081019050614355565b50505050905090810190601f16801561439d5780820380516001836020036101000a031916815260200191505b509250505060405180910390fd5b5060008385039050809150509392505050565b6000808311829061446a576040517f08c379a00000000000000000000000000000000000000000000000000000000081526004018080602001828103825283818151815260200191508051906020019080838360005b8381101561442f578082015181840152602081019050614414565b50505050905090810190601f16801561445c5780820380516001836020036101000a031916815260200191505b509250505060405180910390fd5b50600083858161447657fe5b049050809150509392505050565b6060614493848460008561449c565b90509392505050565b6060823073ffffffffffffffffffffffffffffffffffffffff1631101561450e576040517f08c379a000000000000000000000000000000000000000000000000000000000815260040180806020018281038252602681526020018061475e6026913960400191505060405180910390fd5b6145178561465c565b614589576040517f08c379a000000000000000000000000000000000000000000000000000000000815260040180806020018281038252601d8152602001807f416464726573733a2063616c6c20746f206e6f6e2d636f6e747261637400000081525060200191505060405180910390fd5b600060608673ffffffffffffffffffffffffffffffffffffffff1685876040518082805190602001908083835b602083106145d957805182526020820191506020810190506020830392506145b6565b6001836020036101000a03801982511681845116808217855250505050505090500191505060006040518083038185875af1925050503d806000811461463b576040519150601f19603f3d011682016040523d82523d6000602084013e614640565b606091505b509150915061465082828661466f565b92505050949350505050565b600080823b905060008111915050919050565b6060831561467f57829050614734565b6000835111156146925782518084602001fd5b816040517f08c379a00000000000000000000000000000000000000000000000000000000081526004018080602001828103825283818151815260200191508051906020019080838360005b838110156146f95780820151818401526020810190506146de565b50505050905090810190601f1680156147265780820380516001836020036101000a031916815260200191505b509250505060405180910390fd5b9392505050565b604051806060016040528060039060208202803683378082019150509050509056fe416464726573733a20696e73756666696369656e742062616c616e636520666f722063616c6c536166654d6174683a206d756c7469706c69636174696f6e206f766572666c6f775361666545524332303a204552433230206f7065726174696f6e20646964206e6f742073756363656564596f752068617665206e6f74207374616b65642074686174206d75636820616d6f756e745361666545524332303a20617070726f76652066726f6d206e6f6e2d7a65726f20746f206e6f6e2d7a65726f20616c6c6f77616e6365a2646970667358221220d25588a41b61792272cb78e314c2ed00337842c35b372c8d595c3f407c84412b64736f6c634300060c0033",
  "immutableReferences": {},
  "source": "// SPDX-License-Identifier: UNLICENSED\r\npragma solidity ^0.6.0;\r\n\r\nimport \"./SafeERC20.sol\";\r\nimport '../../Interfaces/CurveInterface.sol';\r\nimport '../../Interfaces/UniswapInterface.sol';\r\n\r\ncontract CurveStrategy {\r\n\r\n    using SafeERC20 for IERC20;\r\n    using SafeMath for uint256;\r\n\r\n    address public royaleAddress;\r\n    address public yieldDistributor;\r\n    IERC20 public poolToken;\r\n    IERC20[3] public tokens;  // DAI / USDC / USDT\r\n    CurvePool public pool;\r\n    PoolGauge public gauge;\r\n    Minter public minter;\r\n    VoteEscrow public voteEscrow;\r\n    FeeDistributor public feeDistributor;\r\n    UniswapI  public uniAddr;\r\n    IERC20 public crvAddr;\r\n    address public wethAddr;\r\n    \r\n    \r\n    uint256 public constant DENOMINATOR = 10000;\r\n\r\n    uint256 public DepositSlip = 100;\r\n\r\n    uint256 public withdrawSlip = 200;\r\n\r\n    address public wallet;\r\n    \r\n   // uint256 public totalProfit;\r\n    \r\n    uint256 public crvBreak=10000;\r\n\r\n   // uint256 public virtualPrice;\r\n \r\n    bool public TEST = true; // For testing uniswap , should be removed on deployment to the mainnet\r\n\r\n    modifier onlyAuthorized(){\r\n      require(wallet == msg.sender|| msg.sender==royaleAddress, \"Not authorized\");\r\n      _;\r\n    }\r\n\r\n    modifier onlyWallet(){\r\n        require((wallet==msg.sender),\"Not Authorized\");\r\n        _;\r\n    }\r\n\r\n    modifier onlyRoyaleLP() {\r\n        require(msg.sender == royaleAddress || true, \"Not authorized\");\r\n        _;\r\n    }\r\n\r\n    constructor(\r\n         address _wallet,\r\n         IERC20[3] memory _tokens, \r\n         address _royaleaddress,\r\n         address _yieldDistributor,\r\n         address _crvpool,\r\n         address _poolToken,\r\n         address _gauge,\r\n         address _minter,\r\n         address _uniAddress,\r\n         address _crvAddress,\r\n         address _wethAddress\r\n         ) public {\r\n\r\n        wallet=_wallet;\r\n        tokens = _tokens;\r\n        royaleAddress =_royaleaddress;\r\n        yieldDistributor=_yieldDistributor;\r\n        pool = CurvePool(_crvpool);\r\n        poolToken = IERC20(_poolToken);\r\n        gauge = PoolGauge(_gauge);\r\n        minter=Minter(_minter);\r\n        uniAddr=UniswapI(_uniAddress);\r\n        crvAddr=IERC20(_crvAddress);\r\n        wethAddr=_wethAddress;\r\n        \r\n    }\r\n\r\n\r\n    function setCRVBreak(uint256 _percentage)external onlyWallet(){\r\n        crvBreak=_percentage;\r\n    }\r\n\r\n    function transferOwnership(address _wallet) external onlyWallet(){\r\n        wallet=_wallet;\r\n    }\r\n\r\n    function changeRoyaleLP(address _address)external onlyWallet(){\r\n        royaleAddress=_address;\r\n    }\r\n\r\n\r\n    // deposits stable tokens into the 3pool and stake recived LPtoken(3CRV) in the curve 3pool gauge\r\n    function deposit(uint[3] memory amounts) external onlyRoyaleLP(){\r\n        uint currentTotal;\r\n        for(uint8 i=0; i<3; i++) {\r\n            if(amounts[i] > 0) {\r\n               uint decimal;\r\n               decimal=tokens[i].decimals();\r\n               tokens[i].safeApprove(address(pool),0);\r\n               tokens[i].safeApprove(address(pool), amounts[i]); \r\n               currentTotal =currentTotal.add(amounts[i].mul(1e18).div(10**decimal));\r\n            }\r\n        }\r\n       /* uint256 returnedAmount;\r\n        bool status;\r\n        (returnedAmount,status)=calculateProfit();\r\n        if(status){\r\n            totalProfit =totalProfit.add(returnedAmount);\r\n        }\r\n        else{\r\n            totalProfit =totalProfit.sub(returnedAmount);\r\n        } */\r\n        uint256 mintAmount = currentTotal.mul(1e18).div(pool.get_virtual_price());\r\n        pool.add_liquidity(amounts,  mintAmount.mul(DENOMINATOR.sub(DepositSlip)).div(DENOMINATOR));\r\n        //virtualPrice=pool.get_virtual_price();\r\n        stakeLP();   \r\n    }\r\n\r\n    //withdraws stable tokens from the 3pool.Unstake required LPtokens and stake LP tokens if not used.\r\n    function withdraw(uint[3] memory amounts) external onlyRoyaleLP() {\r\n        uint256 max_burn = pool.calc_token_amount(amounts,false);\r\n        max_burn=max_burn.mul(DENOMINATOR.add(withdrawSlip)).div(DENOMINATOR);\r\n        unstakeLP(max_burn);\r\n        pool.remove_liquidity_imbalance(amounts, max_burn);\r\n        for(uint8 i=0;i<3;i++){\r\n            if(amounts[i]!=0){\r\n               tokens[i].safeTransfer(royaleAddress, tokens[i].balanceOf(address(this)));\r\n            }\r\n        } \r\n        stakeLP();\r\n    }\r\n\r\n   //unstake all the LPtokens and withdraw all the Stable tokens from 3pool \r\n    function withdrawAll() external onlyRoyaleLP() returns(uint256[3] memory){\r\n        unstakeLP(gauge.balanceOf(address(this)));\r\n        uint256[3] memory withdrawAmt;\r\n        pool.remove_liquidity(poolToken.balanceOf(address(this)),withdrawAmt);\r\n        for(uint8 i=0;i<3;i++){\r\n            if(tokens[i].balanceOf(address(this))!=0){\r\n                withdrawAmt[i]=tokens[i].balanceOf(address(this));\r\n                tokens[i].safeTransfer(royaleAddress,withdrawAmt[i]); \r\n            }\r\n        }\r\n        return withdrawAmt; \r\n    } \r\n    \r\n    // Functions to stake and unstake LPTokens(Ycrv) and claim CRV\r\n\r\n\r\n    //Stakes LP token(3CRV) into the curve 3pool gauage\r\n    function stakeLP() public onlyAuthorized() {\r\n        uint depositAmt = poolToken.balanceOf(address(this)) ;\r\n        poolToken.safeApprove(address(gauge),0);\r\n        poolToken.safeApprove(address(gauge), depositAmt);\r\n        gauge.deposit(depositAmt);  \r\n        emit staked(depositAmt);\r\n    }\r\n\r\n    //For unstaking LP tokens(3CRV)\r\n    function unstakeLP(uint _amount) public  onlyAuthorized(){\r\n        require(gauge.balanceOf(address(this)) >= _amount,\"You have not staked that much amount\");\r\n        gauge.withdraw(_amount);\r\n        emit unstaked(_amount);\r\n    }\r\n    \r\n    //Checking claimable CRV tokens.\r\n    function checkClaimableToken()public view  returns(uint256){\r\n        return gauge.claimable_tokens(address(this));\r\n    }\r\n\r\n    //for claiming CRV tokens which accumalates on staking 3CRV.\r\n    function claimCRV() public onlyAuthorized(){\r\n        minter.mint(address(gauge));\r\n        emit crvClaimed();\r\n    }\r\n\r\n    // Functions to lock and unlock CRV and recieve VeCRV\r\n\r\n\r\n   //For locking CRV tokens in the curve lock\r\n    function createLock(uint256 _value,uint256 _unlockTime) external onlyWallet(){\r\n        crvAddr.safeApprove(address(voteEscrow), 0);\r\n        crvAddr.safeApprove(address(voteEscrow), _value);\r\n        voteEscrow.create_lock(_value, _unlockTime);\r\n        emit locked(_value);\r\n    }\r\n\r\n\r\n    //Increasing lock CRV amount\r\n    function increaseLockAmount(uint256 _value) external onlyWallet(){\r\n        crvAddr.safeApprove(address(voteEscrow), 0);\r\n        crvAddr.safeApprove(address(voteEscrow), _value);\r\n        voteEscrow.increase_amount(_value);\r\n        emit locked(_value);\r\n    }\r\n\r\n    //For unlocking CRV tokens\r\n    function releaseLock() external onlyWallet(){\r\n        voteEscrow.withdraw(); \r\n        emit unlocked();\r\n    }\r\n\r\n\r\n   //For claiming recieved 3CRV tokens which are given for locking CRV and\r\n   // withdrawing stable tokens from curve 3pool using those 3CRV and sending those stable tokens to an address\r\n    function claim3CRV()public onlyWallet(){\r\n        uint prevCoin=poolToken.balanceOf(address(this));\r\n        feeDistributor.claim();\r\n        uint postCoin=poolToken.balanceOf(address(this));\r\n        uint[3] memory minimum;\r\n        pool.remove_liquidity(postCoin-prevCoin,minimum);\r\n        for(uint i=0;i<3;i++){\r\n            tokens[i].safeTransfer(yieldDistributor,tokens[i].balanceOf(address(this)));\r\n        }\r\n        emit yieldTransfered();\r\n    }\r\n\r\n    // Function to sell CRV using uniswap to any stable token and send that token to an address\r\n    function sellCRV(uint8 _index) public onlyWallet() returns(uint256) {  //here index=0 means convert crv into DAI , index=1 means crv into USDC , index=2 means crv into USDT\r\n        uint256 crvAmt = IERC20(crvAddr).balanceOf(address(this));\r\n        uint256 prevCoin = tokens[_index].balanceOf(address(this));\r\n        require(crvAmt > 0, \"insufficient CRV\");\r\n        crvAmt=crvAmt.mul(crvBreak).div(DENOMINATOR);\r\n        crvAddr.safeApprove(address(uniAddr), 0);\r\n        crvAddr.safeApprove(address(uniAddr), crvAmt);\r\n        address[] memory path; \r\n        if(TEST) {\r\n            path = new address[](2);\r\n            path[0] = address(crvAddr);\r\n            path[1] = address(tokens[_index]);\r\n\r\n        } else {    \r\n            path = new address[](3);\r\n            path[0] = address(crvAddr);\r\n            path[1] = wethAddr;\r\n            path[2] = address(tokens[_index]);\r\n        }\r\n        UniswapI(uniAddr).swapExactTokensForTokens(\r\n            crvAmt, \r\n            uint256(0), \r\n            path, \r\n            address(this), \r\n            now + 1800\r\n        );\r\n        uint256 postCoin=tokens[_index].balanceOf(address(this));\r\n        tokens[_index].safeTransfer(yieldDistributor,postCoin.sub(prevCoin));\r\n        emit yieldTransfered(_index,postCoin.sub(prevCoin));\r\n    }\r\n\r\n   /* function calculateProfit()public view returns(uint256,bool){\r\n        if(pool.get_virtual_price() >= virtualPrice){\r\n            return (gauge.balanceOf(address(this)).mul(pool.get_virtual_price().sub(virtualPrice)).div(10**18),true);\r\n        }    \r\n        else{\r\n            return (gauge.balanceOf(address(this)).mul(virtualPrice.sub(pool.get_virtual_price())).div(10**18),false);\r\n        }\r\n        \r\n    }*/\r\n\r\n    //calulates how much VeCRV is needed to get 2.5X boost.\r\n    function gaugeVeCRVCalculator() public view returns(uint256){\r\n          uint minimumVeCRV ;\r\n          minimumVeCRV =(gauge.balanceOf(address(this)).mul(100)).sub((gauge.balanceOf(address(this)).mul(40))).mul(voteEscrow.totalSupply()).div(gauge.totalSupply().mul(60));\r\n          return minimumVeCRV;\r\n    }\r\n    \r\n    event yieldTransfered(uint,uint);\r\n    event yieldTransfered();\r\n    event staked(uint);\r\n    event unstaked(uint);\r\n    event crvClaimed();\r\n    event locked(uint);\r\n    event unlocked();\r\n\r\n}",
  "sourcePath": "C:/Users/vishn/OneDrive/Desktop/RoyaleProject/RoyaleFinance/royale-contracts/contracts/Pool/rStrategy.sol",
  "compiler": {
    "name": "solc",
    "version": "0.6.12+commit.27d51765.Emscripten.clang"
  },
  "schemaVersion": "3.3.2",
  "updatedAt": "2021-03-15T07:02:52.535Z",
  "devdoc": {
    "kind": "dev",
    "methods": {},
    "version": 1
  },
  "userdoc": {
    "kind": "user",
    "methods": {},
    "version": 1
  }
}