{
  "contractName": "CurveStrategy",
  "abi": [
    {
      "inputs": [
        {
          "internalType": "address",
          "name": "_wallet",
          "type": "address"
        },
        {
          "internalType": "contract IERC20[3]",
          "name": "_tokens",
          "type": "address[3]"
        },
        {
          "internalType": "address",
          "name": "_royaleaddress",
          "type": "address"
        },
        {
          "internalType": "address",
          "name": "_yieldDistributor",
          "type": "address"
        },
        {
          "internalType": "address",
          "name": "_crvpool",
          "type": "address"
        },
        {
          "internalType": "address",
          "name": "_poolToken",
          "type": "address"
        },
        {
          "internalType": "address",
          "name": "_gauge",
          "type": "address"
        },
        {
          "internalType": "address",
          "name": "_minter",
          "type": "address"
        },
        {
          "internalType": "address",
          "name": "_uniAddress",
          "type": "address"
        },
        {
          "internalType": "address",
          "name": "_crvAddress",
          "type": "address"
        },
        {
          "internalType": "address",
          "name": "_wethAddress",
          "type": "address"
        }
      ],
      "stateMutability": "nonpayable",
      "type": "constructor"
    },
    {
      "anonymous": false,
      "inputs": [],
      "name": "crvClaimed",
      "type": "event"
    },
    {
      "anonymous": false,
      "inputs": [
        {
          "indexed": false,
          "internalType": "uint256",
          "name": "amount",
          "type": "uint256"
        }
      ],
      "name": "locked",
      "type": "event"
    },
    {
      "anonymous": false,
      "inputs": [
        {
          "indexed": false,
          "internalType": "uint256",
          "name": "amount",
          "type": "uint256"
        }
      ],
      "name": "staked",
      "type": "event"
    },
    {
      "anonymous": false,
      "inputs": [],
      "name": "unlocked",
      "type": "event"
    },
    {
      "anonymous": false,
      "inputs": [
        {
          "indexed": false,
          "internalType": "uint256",
          "name": "amount",
          "type": "uint256"
        }
      ],
      "name": "unstaked",
      "type": "event"
    },
    {
      "anonymous": false,
      "inputs": [
        {
          "indexed": false,
          "internalType": "address",
          "name": "oldOwner",
          "type": "address"
        },
        {
          "indexed": false,
          "internalType": "address",
          "name": "newOwner",
          "type": "address"
        }
      ],
      "name": "walletChanged",
      "type": "event"
    },
    {
      "anonymous": false,
      "inputs": [
        {
          "indexed": false,
          "internalType": "address",
          "name": "newOwner",
          "type": "address"
        }
      ],
      "name": "walletNominated",
      "type": "event"
    },
    {
      "anonymous": false,
      "inputs": [
        {
          "indexed": false,
          "internalType": "uint256",
          "name": "index",
          "type": "uint256"
        },
        {
          "indexed": false,
          "internalType": "uint256",
          "name": "coin",
          "type": "uint256"
        }
      ],
      "name": "yieldTransfered",
      "type": "event"
    },
    {
      "anonymous": false,
      "inputs": [],
      "name": "yieldTransfered",
      "type": "event"
    },
    {
      "inputs": [],
      "name": "DENOMINATOR",
      "outputs": [
        {
          "internalType": "uint256",
          "name": "",
          "type": "uint256"
        }
      ],
      "stateMutability": "view",
      "type": "function"
    },
    {
      "inputs": [],
      "name": "TEST",
      "outputs": [
        {
          "internalType": "bool",
          "name": "",
          "type": "bool"
        }
      ],
      "stateMutability": "view",
      "type": "function"
    },
    {
      "inputs": [],
      "name": "crvAddr",
      "outputs": [
        {
          "internalType": "contract IERC20",
          "name": "",
          "type": "address"
        }
      ],
      "stateMutability": "view",
      "type": "function"
    },
    {
      "inputs": [],
      "name": "crvBreak",
      "outputs": [
        {
          "internalType": "uint256",
          "name": "",
          "type": "uint256"
        }
      ],
      "stateMutability": "view",
      "type": "function"
    },
    {
      "inputs": [],
      "name": "depositSlip",
      "outputs": [
        {
          "internalType": "uint256",
          "name": "",
          "type": "uint256"
        }
      ],
      "stateMutability": "view",
      "type": "function"
    },
    {
      "inputs": [],
      "name": "feeDistributor",
      "outputs": [
        {
          "internalType": "contract FeeDistributor",
          "name": "",
          "type": "address"
        }
      ],
      "stateMutability": "view",
      "type": "function"
    },
    {
      "inputs": [],
      "name": "gauge",
      "outputs": [
        {
          "internalType": "contract PoolGauge",
          "name": "",
          "type": "address"
        }
      ],
      "stateMutability": "view",
      "type": "function"
    },
    {
      "inputs": [],
      "name": "minter",
      "outputs": [
        {
          "internalType": "contract Minter",
          "name": "",
          "type": "address"
        }
      ],
      "stateMutability": "view",
      "type": "function"
    },
    {
      "inputs": [],
      "name": "nominatedWallet",
      "outputs": [
        {
          "internalType": "address",
          "name": "",
          "type": "address"
        }
      ],
      "stateMutability": "view",
      "type": "function"
    },
    {
      "inputs": [],
      "name": "pool",
      "outputs": [
        {
          "internalType": "contract CurvePool",
          "name": "",
          "type": "address"
        }
      ],
      "stateMutability": "view",
      "type": "function"
    },
    {
      "inputs": [],
      "name": "poolToken",
      "outputs": [
        {
          "internalType": "contract IERC20",
          "name": "",
          "type": "address"
        }
      ],
      "stateMutability": "view",
      "type": "function"
    },
    {
      "inputs": [],
      "name": "royaleAddress",
      "outputs": [
        {
          "internalType": "address",
          "name": "",
          "type": "address"
        }
      ],
      "stateMutability": "view",
      "type": "function"
    },
    {
      "inputs": [
        {
          "internalType": "uint256",
          "name": "",
          "type": "uint256"
        }
      ],
      "name": "tokens",
      "outputs": [
        {
          "internalType": "contract IERC20",
          "name": "",
          "type": "address"
        }
      ],
      "stateMutability": "view",
      "type": "function"
    },
    {
      "inputs": [],
      "name": "uniAddr",
      "outputs": [
        {
          "internalType": "contract UniswapI",
          "name": "",
          "type": "address"
        }
      ],
      "stateMutability": "view",
      "type": "function"
    },
    {
      "inputs": [],
      "name": "uniswapSlippage",
      "outputs": [
        {
          "internalType": "uint256",
          "name": "",
          "type": "uint256"
        }
      ],
      "stateMutability": "view",
      "type": "function"
    },
    {
      "inputs": [],
      "name": "voteEscrow",
      "outputs": [
        {
          "internalType": "contract VoteEscrow",
          "name": "",
          "type": "address"
        }
      ],
      "stateMutability": "view",
      "type": "function"
    },
    {
      "inputs": [],
      "name": "wallet",
      "outputs": [
        {
          "internalType": "address",
          "name": "",
          "type": "address"
        }
      ],
      "stateMutability": "view",
      "type": "function"
    },
    {
      "inputs": [],
      "name": "wethAddr",
      "outputs": [
        {
          "internalType": "address",
          "name": "",
          "type": "address"
        }
      ],
      "stateMutability": "view",
      "type": "function"
    },
    {
      "inputs": [],
      "name": "withdrawSlip",
      "outputs": [
        {
          "internalType": "uint256",
          "name": "",
          "type": "uint256"
        }
      ],
      "stateMutability": "view",
      "type": "function"
    },
    {
      "inputs": [],
      "name": "yieldDistributor",
      "outputs": [
        {
          "internalType": "address",
          "name": "",
          "type": "address"
        }
      ],
      "stateMutability": "view",
      "type": "function"
    },
    {
      "inputs": [
        {
          "internalType": "uint256",
          "name": "_percentage",
          "type": "uint256"
        }
      ],
      "name": "setCRVBreak",
      "outputs": [],
      "stateMutability": "nonpayable",
      "type": "function"
    },
    {
      "inputs": [
        {
          "internalType": "address",
          "name": "_wallet",
          "type": "address"
        }
      ],
      "name": "nominateNewOwner",
      "outputs": [],
      "stateMutability": "nonpayable",
      "type": "function"
    },
    {
      "inputs": [],
      "name": "acceptOwnership",
      "outputs": [],
      "stateMutability": "nonpayable",
      "type": "function"
    },
    {
      "inputs": [
        {
          "internalType": "address",
          "name": "_address",
          "type": "address"
        }
      ],
      "name": "changeRoyaleLP",
      "outputs": [],
      "stateMutability": "nonpayable",
      "type": "function"
    },
    {
      "inputs": [
        {
          "internalType": "uint256",
          "name": "_value",
          "type": "uint256"
        }
      ],
      "name": "changeDepositSlip",
      "outputs": [],
      "stateMutability": "nonpayable",
      "type": "function"
    },
    {
      "inputs": [
        {
          "internalType": "uint256",
          "name": "_value",
          "type": "uint256"
        }
      ],
      "name": "changeWithdrawSlip",
      "outputs": [],
      "stateMutability": "nonpayable",
      "type": "function"
    },
    {
      "inputs": [
        {
          "internalType": "uint256",
          "name": "_value",
          "type": "uint256"
        }
      ],
      "name": "changeUniswapSlippage",
      "outputs": [],
      "stateMutability": "nonpayable",
      "type": "function"
    },
    {
      "inputs": [
        {
          "internalType": "uint256[3]",
          "name": "amounts",
          "type": "uint256[3]"
        }
      ],
      "name": "deposit",
      "outputs": [],
      "stateMutability": "nonpayable",
      "type": "function"
    },
    {
      "inputs": [
        {
          "internalType": "uint256[3]",
          "name": "amounts",
          "type": "uint256[3]"
        }
      ],
      "name": "withdraw",
      "outputs": [],
      "stateMutability": "nonpayable",
      "type": "function"
    },
    {
      "inputs": [],
      "name": "withdrawAll",
      "outputs": [
        {
          "internalType": "uint256[3]",
          "name": "",
          "type": "uint256[3]"
        }
      ],
      "stateMutability": "nonpayable",
      "type": "function"
    },
    {
      "inputs": [],
      "name": "stakeLP",
      "outputs": [],
      "stateMutability": "nonpayable",
      "type": "function"
    },
    {
      "inputs": [
        {
          "internalType": "uint256",
          "name": "_amount",
          "type": "uint256"
        }
      ],
      "name": "unstakeLP",
      "outputs": [],
      "stateMutability": "nonpayable",
      "type": "function"
    },
    {
      "inputs": [],
      "name": "checkClaimableToken",
      "outputs": [
        {
          "internalType": "uint256",
          "name": "",
          "type": "uint256"
        }
      ],
      "stateMutability": "view",
      "type": "function"
    },
    {
      "inputs": [],
      "name": "claimCRV",
      "outputs": [],
      "stateMutability": "nonpayable",
      "type": "function"
    },
    {
      "inputs": [
        {
          "internalType": "uint256",
          "name": "_value",
          "type": "uint256"
        },
        {
          "internalType": "uint256",
          "name": "_unlockTime",
          "type": "uint256"
        }
      ],
      "name": "createLock",
      "outputs": [],
      "stateMutability": "nonpayable",
      "type": "function"
    },
    {
      "inputs": [
        {
          "internalType": "uint256",
          "name": "_value",
          "type": "uint256"
        }
      ],
      "name": "increaseLockAmount",
      "outputs": [],
      "stateMutability": "nonpayable",
      "type": "function"
    },
    {
      "inputs": [],
      "name": "releaseLock",
      "outputs": [],
      "stateMutability": "nonpayable",
      "type": "function"
    },
    {
      "inputs": [],
      "name": "claim3CRV",
      "outputs": [],
      "stateMutability": "nonpayable",
      "type": "function"
    },
    {
      "inputs": [
        {
          "internalType": "uint8",
          "name": "_index",
          "type": "uint8"
        }
      ],
      "name": "sellCRV",
      "outputs": [
        {
          "internalType": "uint256",
          "name": "",
          "type": "uint256"
        }
      ],
      "stateMutability": "nonpayable",
      "type": "function"
    },
    {
      "inputs": [],
      "name": "gaugeVeCRVCalculator",
      "outputs": [
        {
          "internalType": "uint256",
          "name": "",
          "type": "uint256"
        }
      ],
      "stateMutability": "view",
      "type": "function"
    }
  ],
  "bytecode": "0x60806040526064600e5560c8600f5560326010556127106013556001601460006101000a81548160ff0219169083151502179055503480156200004157600080fd5b50604051620054f1380380620054f183398181016040526101a08110156200006857600080fd5b81019080805190602001909291909190826060018051906020019092919080519060200190929190805190602001909291908051906020019092919080519060200190929190805190602001909291908051906020019092919080519060200190929190805190602001909291905050508a601160006101000a81548173ffffffffffffffffffffffffffffffffffffffff021916908373ffffffffffffffffffffffffffffffffffffffff1602179055508960039060036200012d92919062000387565b50886000806101000a81548173ffffffffffffffffffffffffffffffffffffffff021916908373ffffffffffffffffffffffffffffffffffffffff16021790555087600160006101000a81548173ffffffffffffffffffffffffffffffffffffffff021916908373ffffffffffffffffffffffffffffffffffffffff16021790555086600660006101000a81548173ffffffffffffffffffffffffffffffffffffffff021916908373ffffffffffffffffffffffffffffffffffffffff16021790555085600260006101000a81548173ffffffffffffffffffffffffffffffffffffffff021916908373ffffffffffffffffffffffffffffffffffffffff16021790555084600760006101000a81548173ffffffffffffffffffffffffffffffffffffffff021916908373ffffffffffffffffffffffffffffffffffffffff16021790555083600860006101000a81548173ffffffffffffffffffffffffffffffffffffffff021916908373ffffffffffffffffffffffffffffffffffffffff16021790555082600b60006101000a81548173ffffffffffffffffffffffffffffffffffffffff021916908373ffffffffffffffffffffffffffffffffffffffff16021790555081600c60006101000a81548173ffffffffffffffffffffffffffffffffffffffff021916908373ffffffffffffffffffffffffffffffffffffffff16021790555080600d60006101000a81548173ffffffffffffffffffffffffffffffffffffffff021916908373ffffffffffffffffffffffffffffffffffffffff160217905550505050505050505050505062000446565b8260038101928215620003f6579160200282015b82811115620003f55782518260006101000a81548173ffffffffffffffffffffffffffffffffffffffff021916908373ffffffffffffffffffffffffffffffffffffffff160217905550916020019190600101906200039b565b5b50905062000405919062000409565b5090565b5b808211156200044257600081816101000a81549073ffffffffffffffffffffffffffffffffffffffff0219169055506001016200040a565b5090565b61509b80620004566000396000f3fe608060405234801561001057600080fd5b50600436106102485760003560e01c8063853828b61161013b578063c4778998116100b8578063dbbcbd3d1161007c578063dbbcbd3d146108f2578063e96e89dc14610910578063eda54ad21461093e578063f166f3e814610948578063f7ee0b8e1461095257610248565b8063c4778998146107ef578063cbdf382c1461081d578063d3639ae314610851578063d4e20b011461086f578063da9ced1d146108d457610248565b8063a38c2c3d116100ff578063a38c2c3d146106b6578063a6f19c84146106ea578063a8c4d3ae1461071e578063b1b8f1be14610752578063b52c05fe146107b757610248565b8063853828b6146105d257806389ee8ec0146106185780638f2e81ea146106365780639019a28514610664578063918f86741461069857610248565b80634f64b2be116101c957806371968f1d1161018d57806371968f1d146104fe57806374b21fbe1461052c57806379ba5097146105605780637b158f381461056a5780637d5aa5f41461059e57610248565b80634f64b2be146103ef57806351d977a614610447578063521eb273146104675780636b9449981461049b5780636e75702e146104e057610248565b80632b51a095116102105780632b51a09514610337578063393403b71461036b578063403f44471461038957806348f8f6d9146103b75780634df50a55146103c157610248565b8063075461721461024d5780630d43e8ad1461028157806310ff582d146102b55780631627540c146102bf57806316f0115b14610303575b600080fd5b610255610996565b604051808273ffffffffffffffffffffffffffffffffffffffff16815260200191505060405180910390f35b6102896109bc565b604051808273ffffffffffffffffffffffffffffffffffffffff16815260200191505060405180910390f35b6102bd6109e2565b005b610301600480360360208110156102d557600080fd5b81019080803573ffffffffffffffffffffffffffffffffffffffff169060200190929190505050610d69565b005b61030b610ebd565b604051808273ffffffffffffffffffffffffffffffffffffffff16815260200191505060405180910390f35b61033f610ee3565b604051808273ffffffffffffffffffffffffffffffffffffffff16815260200191505060405180910390f35b610373610f07565b6040518082815260200191505060405180910390f35b6103b56004803603602081101561039f57600080fd5b810190808035906020019092919050505061124d565b005b6103bf6114b6565b005b6103ed600480360360208110156103d757600080fd5b81019080803590602001909291905050506116c2565b005b61041b6004803603602081101561040557600080fd5b810190808035906020019092919050505061178f565b604051808273ffffffffffffffffffffffffffffffffffffffff16815260200191505060405180910390f35b61044f6117c2565b60405180821515815260200191505060405180910390f35b61046f6117d5565b604051808273ffffffffffffffffffffffffffffffffffffffff16815260200191505060405180910390f35b6104ca600480360360208110156104b157600080fd5b81019080803560ff1690602001909291905050506117fb565b6040518082815260200191505060405180910390f35b6104e8612391565b6040518082815260200191505060405180910390f35b61052a6004803603602081101561051457600080fd5b8101908080359060200190929190505050612397565b005b610534612464565b604051808273ffffffffffffffffffffffffffffffffffffffff16815260200191505060405180910390f35b61056861248a565b005b610572612686565b604051808273ffffffffffffffffffffffffffffffffffffffff16815260200191505060405180910390f35b6105a66126ac565b604051808273ffffffffffffffffffffffffffffffffffffffff16815260200191505060405180910390f35b6105da6126d2565b6040518082600360200280838360005b838110156106055780820151818401526020810190506105ea565b5050505090500191505060405180910390f35b610620612c71565b6040518082815260200191505060405180910390f35b6106626004803603602081101561064c57600080fd5b8101908080359060200190929190505050612c77565b005b61066c612d44565b604051808273ffffffffffffffffffffffffffffffffffffffff16815260200191505060405180910390f35b6106a0612d6a565b6040518082815260200191505060405180910390f35b6106be612d70565b604051808273ffffffffffffffffffffffffffffffffffffffff16815260200191505060405180910390f35b6106f2612d96565b604051808273ffffffffffffffffffffffffffffffffffffffff16815260200191505060405180910390f35b610726612dbc565b604051808273ffffffffffffffffffffffffffffffffffffffff16815260200191505060405180910390f35b6107b56004803603606081101561076857600080fd5b8101908080606001906003806020026040519081016040528092919082600360200280828437600081840152601f19601f8201169050808301925050505050509192919290505050612de2565b005b6107ed600480360360408110156107cd57600080fd5b810190808035906020019092919080359060200190929190505050613229565b005b61081b6004803603602081101561080557600080fd5b810190808035906020019092919050505061349b565b005b610825613797565b604051808273ffffffffffffffffffffffffffffffffffffffff16815260200191505060405180910390f35b6108596137bd565b6040518082815260200191505060405180910390f35b6108d26004803603606081101561088557600080fd5b8101908080606001906003806020026040519081016040528092919082600360200280828437600081840152601f19601f8201169050808301925050505050509192919290505050613888565b005b6108dc613d8b565b6040518082815260200191505060405180910390f35b6108fa613d91565b6040518082815260200191505060405180910390f35b61093c6004803603602081101561092657600080fd5b8101908080359060200190929190505050613d97565b005b610946613e64565b005b610950613fd7565b005b6109946004803603602081101561096857600080fd5b81019080803573ffffffffffffffffffffffffffffffffffffffff169060200190929190505050614508565b005b600860009054906101000a900473ffffffffffffffffffffffffffffffffffffffff1681565b600a60009054906101000a900473ffffffffffffffffffffffffffffffffffffffff1681565b3373ffffffffffffffffffffffffffffffffffffffff16601160009054906101000a900473ffffffffffffffffffffffffffffffffffffffff1673ffffffffffffffffffffffffffffffffffffffff161480610a89575060008054906101000a900473ffffffffffffffffffffffffffffffffffffffff1673ffffffffffffffffffffffffffffffffffffffff163373ffffffffffffffffffffffffffffffffffffffff16145b610afb576040517f08c379a000000000000000000000000000000000000000000000000000000000815260040180806020018281038252600e8152602001807f4e6f7420617574686f72697a656400000000000000000000000000000000000081525060200191505060405180910390fd5b6000600260009054906101000a900473ffffffffffffffffffffffffffffffffffffffff1673ffffffffffffffffffffffffffffffffffffffff166370a08231306040518263ffffffff1660e01b8152600401808273ffffffffffffffffffffffffffffffffffffffff16815260200191505060206040518083038186803b158015610b8657600080fd5b505afa158015610b9a573d6000803e3d6000fd5b505050506040513d6020811015610bb057600080fd5b81019080805190602001909291905050509050610c33600760009054906101000a900473ffffffffffffffffffffffffffffffffffffffff166000600260009054906101000a900473ffffffffffffffffffffffffffffffffffffffff1673ffffffffffffffffffffffffffffffffffffffff1661460e9092919063ffffffff16565b610ca2600760009054906101000a900473ffffffffffffffffffffffffffffffffffffffff1682600260009054906101000a900473ffffffffffffffffffffffffffffffffffffffff1673ffffffffffffffffffffffffffffffffffffffff1661460e9092919063ffffffff16565b600760009054906101000a900473ffffffffffffffffffffffffffffffffffffffff1673ffffffffffffffffffffffffffffffffffffffff1663b6b55f25826040518263ffffffff1660e01b815260040180828152602001915050600060405180830381600087803b158015610d1757600080fd5b505af1158015610d2b573d6000803e3d6000fd5b505050507f5e1bef326bd9222892c5e49c4e6756af0f42c0b91d698bd306965987bc1f9a7e816040518082815260200191505060405180910390a150565b3373ffffffffffffffffffffffffffffffffffffffff16601160009054906101000a900473ffffffffffffffffffffffffffffffffffffffff1673ffffffffffffffffffffffffffffffffffffffff1614610e2c576040517f08c379a000000000000000000000000000000000000000000000000000000000815260040180806020018281038252600e8152602001807f4e6f7420417574686f72697a656400000000000000000000000000000000000081525060200191505060405180910390fd5b80601260006101000a81548173ffffffffffffffffffffffffffffffffffffffff021916908373ffffffffffffffffffffffffffffffffffffffff1602179055507f34e5b3a286aa0821b202b74f9fa683c8f56e1f2875caafc853d080382896917881604051808273ffffffffffffffffffffffffffffffffffffffff16815260200191505060405180910390a150565b600660009054906101000a900473ffffffffffffffffffffffffffffffffffffffff1681565b60008054906101000a900473ffffffffffffffffffffffffffffffffffffffff1681565b600080611244610fc3603c600760009054906101000a900473ffffffffffffffffffffffffffffffffffffffff1673ffffffffffffffffffffffffffffffffffffffff166318160ddd6040518163ffffffff1660e01b815260040160206040518083038186803b158015610f7a57600080fd5b505afa158015610f8e573d6000803e3d6000fd5b505050506040513d6020811015610fa457600080fd5b81019080805190602001909291905050506147d390919063ffffffff16565b611236600960009054906101000a900473ffffffffffffffffffffffffffffffffffffffff1673ffffffffffffffffffffffffffffffffffffffff166318160ddd6040518163ffffffff1660e01b815260040160206040518083038186803b15801561102e57600080fd5b505afa158015611042573d6000803e3d6000fd5b505050506040513d602081101561105857600080fd5b81019080805190602001909291905050506112286111436028600760009054906101000a900473ffffffffffffffffffffffffffffffffffffffff1673ffffffffffffffffffffffffffffffffffffffff166370a08231306040518263ffffffff1660e01b8152600401808273ffffffffffffffffffffffffffffffffffffffff16815260200191505060206040518083038186803b1580156110fa57600080fd5b505afa15801561110e573d6000803e3d6000fd5b505050506040513d602081101561112457600080fd5b81019080805190602001909291905050506147d390919063ffffffff16565b61121a6064600760009054906101000a900473ffffffffffffffffffffffffffffffffffffffff1673ffffffffffffffffffffffffffffffffffffffff166370a08231306040518263ffffffff1660e01b8152600401808273ffffffffffffffffffffffffffffffffffffffff16815260200191505060206040518083038186803b1580156111d157600080fd5b505afa1580156111e5573d6000803e3d6000fd5b505050506040513d60208110156111fb57600080fd5b81019080805190602001909291905050506147d390919063ffffffff16565b61485990919063ffffffff16565b6147d390919063ffffffff16565b6148a390919063ffffffff16565b90508091505090565b3373ffffffffffffffffffffffffffffffffffffffff16601160009054906101000a900473ffffffffffffffffffffffffffffffffffffffff1673ffffffffffffffffffffffffffffffffffffffff1614611310576040517f08c379a000000000000000000000000000000000000000000000000000000000815260040180806020018281038252600e8152602001807f4e6f7420417574686f72697a656400000000000000000000000000000000000081525060200191505060405180910390fd5b611380600960009054906101000a900473ffffffffffffffffffffffffffffffffffffffff166000600c60009054906101000a900473ffffffffffffffffffffffffffffffffffffffff1673ffffffffffffffffffffffffffffffffffffffff1661460e9092919063ffffffff16565b6113ef600960009054906101000a900473ffffffffffffffffffffffffffffffffffffffff1682600c60009054906101000a900473ffffffffffffffffffffffffffffffffffffffff1673ffffffffffffffffffffffffffffffffffffffff1661460e9092919063ffffffff16565b600960009054906101000a900473ffffffffffffffffffffffffffffffffffffffff1673ffffffffffffffffffffffffffffffffffffffff16634957677c826040518263ffffffff1660e01b815260040180828152602001915050600060405180830381600087803b15801561146457600080fd5b505af1158015611478573d6000803e3d6000fd5b505050507fb45a3c0e2dcd2f560d00e18d58bb2bc636f1540eba5f84061a0154f14ca84992816040518082815260200191505060405180910390a150565b3373ffffffffffffffffffffffffffffffffffffffff16601160009054906101000a900473ffffffffffffffffffffffffffffffffffffffff1673ffffffffffffffffffffffffffffffffffffffff16148061155d575060008054906101000a900473ffffffffffffffffffffffffffffffffffffffff1673ffffffffffffffffffffffffffffffffffffffff163373ffffffffffffffffffffffffffffffffffffffff16145b6115cf576040517f08c379a000000000000000000000000000000000000000000000000000000000815260040180806020018281038252600e8152602001807f4e6f7420617574686f72697a656400000000000000000000000000000000000081525060200191505060405180910390fd5b600860009054906101000a900473ffffffffffffffffffffffffffffffffffffffff1673ffffffffffffffffffffffffffffffffffffffff16636a627842600760009054906101000a900473ffffffffffffffffffffffffffffffffffffffff166040518263ffffffff1660e01b8152600401808273ffffffffffffffffffffffffffffffffffffffff168152602001915050600060405180830381600087803b15801561167c57600080fd5b505af1158015611690573d6000803e3d6000fd5b505050507f79f93d1b0062276af10ff82b062487b30ed85153e7d3a52ed67d7cf7529ec2b960405160405180910390a1565b3373ffffffffffffffffffffffffffffffffffffffff16601160009054906101000a900473ffffffffffffffffffffffffffffffffffffffff1673ffffffffffffffffffffffffffffffffffffffff1614611785576040517f08c379a000000000000000000000000000000000000000000000000000000000815260040180806020018281038252600e8152602001807f4e6f7420417574686f72697a656400000000000000000000000000000000000081525060200191505060405180910390fd5b8060138190555050565b6003816003811061179c57fe5b016000915054906101000a900473ffffffffffffffffffffffffffffffffffffffff1681565b601460009054906101000a900460ff1681565b601160009054906101000a900473ffffffffffffffffffffffffffffffffffffffff1681565b60003373ffffffffffffffffffffffffffffffffffffffff16601160009054906101000a900473ffffffffffffffffffffffffffffffffffffffff1673ffffffffffffffffffffffffffffffffffffffff16146118c0576040517f08c379a000000000000000000000000000000000000000000000000000000000815260040180806020018281038252600e8152602001807f4e6f7420417574686f72697a656400000000000000000000000000000000000081525060200191505060405180910390fd5b6000600c60009054906101000a900473ffffffffffffffffffffffffffffffffffffffff1673ffffffffffffffffffffffffffffffffffffffff166370a08231306040518263ffffffff1660e01b8152600401808273ffffffffffffffffffffffffffffffffffffffff16815260200191505060206040518083038186803b15801561194b57600080fd5b505afa15801561195f573d6000803e3d6000fd5b505050506040513d602081101561197557600080fd5b81019080805190602001909291905050509050600060038460ff166003811061199a57fe5b0160009054906101000a900473ffffffffffffffffffffffffffffffffffffffff1673ffffffffffffffffffffffffffffffffffffffff166370a08231306040518263ffffffff1660e01b8152600401808273ffffffffffffffffffffffffffffffffffffffff16815260200191505060206040518083038186803b158015611a2257600080fd5b505afa158015611a36573d6000803e3d6000fd5b505050506040513d6020811015611a4c57600080fd5b8101908080519060200190929190505050905060008211611ad5576040517f08c379a00000000000000000000000000000000000000000000000000000000081526004018080602001828103825260108152602001807f696e73756666696369656e74204352560000000000000000000000000000000081525060200191505060405180910390fd5b611afe612710611af0601354856147d390919063ffffffff16565b6148a390919063ffffffff16565b9150611b70600b60009054906101000a900473ffffffffffffffffffffffffffffffffffffffff166000600c60009054906101000a900473ffffffffffffffffffffffffffffffffffffffff1673ffffffffffffffffffffffffffffffffffffffff1661460e9092919063ffffffff16565b611bdf600b60009054906101000a900473ffffffffffffffffffffffffffffffffffffffff1683600c60009054906101000a900473ffffffffffffffffffffffffffffffffffffffff1673ffffffffffffffffffffffffffffffffffffffff1661460e9092919063ffffffff16565b6060601460009054906101000a900460ff1615611d2857600267ffffffffffffffff81118015611c0e57600080fd5b50604051908082528060200260200182016040528015611c3d5781602001602082028036833780820191505090505b509050600c60009054906101000a900473ffffffffffffffffffffffffffffffffffffffff1681600081518110611c7057fe5b602002602001019073ffffffffffffffffffffffffffffffffffffffff16908173ffffffffffffffffffffffffffffffffffffffff168152505060038560ff1660038110611cba57fe5b0160009054906101000a900473ffffffffffffffffffffffffffffffffffffffff1681600181518110611ce957fe5b602002602001019073ffffffffffffffffffffffffffffffffffffffff16908173ffffffffffffffffffffffffffffffffffffffff1681525050611ec0565b600367ffffffffffffffff81118015611d4057600080fd5b50604051908082528060200260200182016040528015611d6f5781602001602082028036833780820191505090505b509050600c60009054906101000a900473ffffffffffffffffffffffffffffffffffffffff1681600081518110611da257fe5b602002602001019073ffffffffffffffffffffffffffffffffffffffff16908173ffffffffffffffffffffffffffffffffffffffff1681525050600d60009054906101000a900473ffffffffffffffffffffffffffffffffffffffff1681600181518110611e0c57fe5b602002602001019073ffffffffffffffffffffffffffffffffffffffff16908173ffffffffffffffffffffffffffffffffffffffff168152505060038560ff1660038110611e5657fe5b0160009054906101000a900473ffffffffffffffffffffffffffffffffffffffff1681600281518110611e8557fe5b602002602001019073ffffffffffffffffffffffffffffffffffffffff16908173ffffffffffffffffffffffffffffffffffffffff16815250505b6060600b60009054906101000a900473ffffffffffffffffffffffffffffffffffffffff1673ffffffffffffffffffffffffffffffffffffffff1663d06ca61f85846040518363ffffffff1660e01b81526004018083815260200180602001828103825283818151815260200191508051906020019060200280838360005b83811015611f5a578082015181840152602081019050611f3f565b505050509050019350505050600060405180830381600087803b158015611f8057600080fd5b505af1158015611f94573d6000803e3d6000fd5b505050506040513d6000823e3d601f19601f820116820180604052506020811015611fbe57600080fd5b8101908080516040519392919084640100000000821115611fde57600080fd5b83820191506020820185811115611ff457600080fd5b825186602082028301116401000000008211171561201157600080fd5b8083526020830192505050908051906020019060200280838360005b8381101561204857808201518184015260208101905061202d565b50505050905001604052505050905060008161206f6001845161485990919063ffffffff16565b8151811061207957fe5b6020026020010151905060006120c06120b16127106120a3601054866147d390919063ffffffff16565b6148a390919063ffffffff16565b8361485990919063ffffffff16565b9050600b60009054906101000a900473ffffffffffffffffffffffffffffffffffffffff1673ffffffffffffffffffffffffffffffffffffffff166338ed17398783873061070842016040518663ffffffff1660e01b815260040180868152602001858152602001806020018473ffffffffffffffffffffffffffffffffffffffff168152602001838152602001828103825285818151815260200191508051906020019060200280838360005b8381101561218957808201518184015260208101905061216e565b505050509050019650505050505050600060405180830381600087803b1580156121b257600080fd5b505af11580156121c6573d6000803e3d6000fd5b50505050600060038960ff16600381106121dc57fe5b0160009054906101000a900473ffffffffffffffffffffffffffffffffffffffff1673ffffffffffffffffffffffffffffffffffffffff166370a08231306040518263ffffffff1660e01b8152600401808273ffffffffffffffffffffffffffffffffffffffff16815260200191505060206040518083038186803b15801561226457600080fd5b505afa158015612278573d6000803e3d6000fd5b505050506040513d602081101561228e57600080fd5b81019080805190602001909291905050509050612331600160009054906101000a900473ffffffffffffffffffffffffffffffffffffffff166122da888461485990919063ffffffff16565b60038c60ff16600381106122ea57fe5b0160009054906101000a900473ffffffffffffffffffffffffffffffffffffffff1673ffffffffffffffffffffffffffffffffffffffff166148ed9092919063ffffffff16565b7fc1b4dab262ffe9aeac4082a51908ba2d90401e4936f549ab13c2d4c44816958989612366888461485990919063ffffffff16565b604051808360ff1681526020018281526020019250505060405180910390a150505050505050919050565b600f5481565b3373ffffffffffffffffffffffffffffffffffffffff16601160009054906101000a900473ffffffffffffffffffffffffffffffffffffffff1673ffffffffffffffffffffffffffffffffffffffff161461245a576040517f08c379a000000000000000000000000000000000000000000000000000000000815260040180806020018281038252600e8152602001807f4e6f7420417574686f72697a656400000000000000000000000000000000000081525060200191505060405180910390fd5b80600e8190555050565b600c60009054906101000a900473ffffffffffffffffffffffffffffffffffffffff1681565b601260009054906101000a900473ffffffffffffffffffffffffffffffffffffffff1673ffffffffffffffffffffffffffffffffffffffff163373ffffffffffffffffffffffffffffffffffffffff1614612530576040517f08c379a0000000000000000000000000000000000000000000000000000000008152600401808060200182810382526035815260200180614f666035913960400191505060405180910390fd5b7f6058119c217577f8ad236dec0d66116c29ed9d1f362482f49becdbffe3ae0df1601160009054906101000a900473ffffffffffffffffffffffffffffffffffffffff16601260009054906101000a900473ffffffffffffffffffffffffffffffffffffffff16604051808373ffffffffffffffffffffffffffffffffffffffff1681526020018273ffffffffffffffffffffffffffffffffffffffff1681526020019250505060405180910390a1601260009054906101000a900473ffffffffffffffffffffffffffffffffffffffff16601160006101000a81548173ffffffffffffffffffffffffffffffffffffffff021916908373ffffffffffffffffffffffffffffffffffffffff1602179055506000601260006101000a81548173ffffffffffffffffffffffffffffffffffffffff021916908373ffffffffffffffffffffffffffffffffffffffff160217905550565b600b60009054906101000a900473ffffffffffffffffffffffffffffffffffffffff1681565b600d60009054906101000a900473ffffffffffffffffffffffffffffffffffffffff1681565b6126da614f43565b60008054906101000a900473ffffffffffffffffffffffffffffffffffffffff1673ffffffffffffffffffffffffffffffffffffffff163373ffffffffffffffffffffffffffffffffffffffff161480612732575060015b6127a4576040517f08c379a000000000000000000000000000000000000000000000000000000000815260040180806020018281038252600e8152602001807f4e6f7420617574686f72697a656400000000000000000000000000000000000081525060200191505060405180910390fd5b612870600760009054906101000a900473ffffffffffffffffffffffffffffffffffffffff1673ffffffffffffffffffffffffffffffffffffffff166370a08231306040518263ffffffff1660e01b8152600401808273ffffffffffffffffffffffffffffffffffffffff16815260200191505060206040518083038186803b15801561283057600080fd5b505afa158015612844573d6000803e3d6000fd5b505050506040513d602081101561285a57600080fd5b810190808051906020019092919050505061349b565b612878614f43565b600660009054906101000a900473ffffffffffffffffffffffffffffffffffffffff1673ffffffffffffffffffffffffffffffffffffffff1663ecb586a5600260009054906101000a900473ffffffffffffffffffffffffffffffffffffffff1673ffffffffffffffffffffffffffffffffffffffff166370a08231306040518263ffffffff1660e01b8152600401808273ffffffffffffffffffffffffffffffffffffffff16815260200191505060206040518083038186803b15801561293f57600080fd5b505afa158015612953573d6000803e3d6000fd5b505050506040513d602081101561296957600080fd5b8101908080519060200190929190505050836040518363ffffffff1660e01b81526004018083815260200182600360200280838360005b838110156129bb5780820151818401526020810190506129a0565b5050505090500192505050600060405180830381600087803b1580156129e057600080fd5b505af11580156129f4573d6000803e3d6000fd5b5050505060005b60038160ff161015612c6957600060038260ff1660038110612a1957fe5b0160009054906101000a900473ffffffffffffffffffffffffffffffffffffffff1673ffffffffffffffffffffffffffffffffffffffff166370a08231306040518263ffffffff1660e01b8152600401808273ffffffffffffffffffffffffffffffffffffffff16815260200191505060206040518083038186803b158015612aa157600080fd5b505afa158015612ab5573d6000803e3d6000fd5b505050506040513d6020811015612acb57600080fd5b810190808051906020019092919050505014612c5c5760038160ff1660038110612af157fe5b0160009054906101000a900473ffffffffffffffffffffffffffffffffffffffff1673ffffffffffffffffffffffffffffffffffffffff166370a08231306040518263ffffffff1660e01b8152600401808273ffffffffffffffffffffffffffffffffffffffff16815260200191505060206040518083038186803b158015612b7957600080fd5b505afa158015612b8d573d6000803e3d6000fd5b505050506040513d6020811015612ba357600080fd5b8101908080519060200190929190505050828260ff1660038110612bc357fe5b602002018181525050612c5b60008054906101000a900473ffffffffffffffffffffffffffffffffffffffff16838360ff1660038110612bff57fe5b602002015160038460ff1660038110612c1457fe5b0160009054906101000a900473ffffffffffffffffffffffffffffffffffffffff1673ffffffffffffffffffffffffffffffffffffffff166148ed9092919063ffffffff16565b5b80806001019150506129fb565b508091505090565b60105481565b3373ffffffffffffffffffffffffffffffffffffffff16601160009054906101000a900473ffffffffffffffffffffffffffffffffffffffff1673ffffffffffffffffffffffffffffffffffffffff1614612d3a576040517f08c379a000000000000000000000000000000000000000000000000000000000815260040180806020018281038252600e8152602001807f4e6f7420417574686f72697a656400000000000000000000000000000000000081525060200191505060405180910390fd5b8060108190555050565b600960009054906101000a900473ffffffffffffffffffffffffffffffffffffffff1681565b61271081565b600160009054906101000a900473ffffffffffffffffffffffffffffffffffffffff1681565b600760009054906101000a900473ffffffffffffffffffffffffffffffffffffffff1681565b601260009054906101000a900473ffffffffffffffffffffffffffffffffffffffff1681565b60008054906101000a900473ffffffffffffffffffffffffffffffffffffffff1673ffffffffffffffffffffffffffffffffffffffff163373ffffffffffffffffffffffffffffffffffffffff161480612e3a575060015b612eac576040517f08c379a000000000000000000000000000000000000000000000000000000000815260040180806020018281038252600e8152602001807f4e6f7420617574686f72697a656400000000000000000000000000000000000081525060200191505060405180910390fd5b6000600660009054906101000a900473ffffffffffffffffffffffffffffffffffffffff1673ffffffffffffffffffffffffffffffffffffffff16633883e1198360006040518363ffffffff1660e01b81526004018083600360200280838360005b83811015612f29578082015181840152602081019050612f0e565b5050505090500182151581526020019250505060206040518083038186803b158015612f5457600080fd5b505afa158015612f68573d6000803e3d6000fd5b505050506040513d6020811015612f7e57600080fd5b81019080805190602001909291905050509050612fce612710612fc0612fb1600f5461271061498f90919063ffffffff16565b846147d390919063ffffffff16565b6148a390919063ffffffff16565b9050612fd98161349b565b600660009054906101000a900473ffffffffffffffffffffffffffffffffffffffff1673ffffffffffffffffffffffffffffffffffffffff16639fdaea0c83836040518363ffffffff1660e01b81526004018083600360200280838360005b83811015613053578082015181840152602081019050613038565b5050505090500182815260200192505050600060405180830381600087803b15801561307e57600080fd5b505af1158015613092573d6000803e3d6000fd5b5050505060005b60038160ff16101561321c576000838260ff16600381106130b657fe5b60200201511461320f5761320e60008054906101000a900473ffffffffffffffffffffffffffffffffffffffff1660038360ff16600381106130f457fe5b0160009054906101000a900473ffffffffffffffffffffffffffffffffffffffff1673ffffffffffffffffffffffffffffffffffffffff166370a08231306040518263ffffffff1660e01b8152600401808273ffffffffffffffffffffffffffffffffffffffff16815260200191505060206040518083038186803b15801561317c57600080fd5b505afa158015613190573d6000803e3d6000fd5b505050506040513d60208110156131a657600080fd5b810190808051906020019092919050505060038460ff16600381106131c757fe5b0160009054906101000a900473ffffffffffffffffffffffffffffffffffffffff1673ffffffffffffffffffffffffffffffffffffffff166148ed9092919063ffffffff16565b5b8080600101915050613099565b506132256109e2565b5050565b3373ffffffffffffffffffffffffffffffffffffffff16601160009054906101000a900473ffffffffffffffffffffffffffffffffffffffff1673ffffffffffffffffffffffffffffffffffffffff16146132ec576040517f08c379a000000000000000000000000000000000000000000000000000000000815260040180806020018281038252600e8152602001807f4e6f7420417574686f72697a656400000000000000000000000000000000000081525060200191505060405180910390fd5b61335c600960009054906101000a900473ffffffffffffffffffffffffffffffffffffffff166000600c60009054906101000a900473ffffffffffffffffffffffffffffffffffffffff1673ffffffffffffffffffffffffffffffffffffffff1661460e9092919063ffffffff16565b6133cb600960009054906101000a900473ffffffffffffffffffffffffffffffffffffffff1683600c60009054906101000a900473ffffffffffffffffffffffffffffffffffffffff1673ffffffffffffffffffffffffffffffffffffffff1661460e9092919063ffffffff16565b600960009054906101000a900473ffffffffffffffffffffffffffffffffffffffff1673ffffffffffffffffffffffffffffffffffffffff166365fc387383836040518363ffffffff1660e01b81526004018083815260200182815260200192505050600060405180830381600087803b15801561344857600080fd5b505af115801561345c573d6000803e3d6000fd5b505050507fb45a3c0e2dcd2f560d00e18d58bb2bc636f1540eba5f84061a0154f14ca84992826040518082815260200191505060405180910390a15050565b3373ffffffffffffffffffffffffffffffffffffffff16601160009054906101000a900473ffffffffffffffffffffffffffffffffffffffff1673ffffffffffffffffffffffffffffffffffffffff161480613542575060008054906101000a900473ffffffffffffffffffffffffffffffffffffffff1673ffffffffffffffffffffffffffffffffffffffff163373ffffffffffffffffffffffffffffffffffffffff16145b6135b4576040517f08c379a000000000000000000000000000000000000000000000000000000000815260040180806020018281038252600e8152602001807f4e6f7420617574686f72697a656400000000000000000000000000000000000081525060200191505060405180910390fd5b80600760009054906101000a900473ffffffffffffffffffffffffffffffffffffffff1673ffffffffffffffffffffffffffffffffffffffff166370a08231306040518263ffffffff1660e01b8152600401808273ffffffffffffffffffffffffffffffffffffffff16815260200191505060206040518083038186803b15801561363e57600080fd5b505afa158015613652573d6000803e3d6000fd5b505050506040513d602081101561366857600080fd5b810190808051906020019092919050505010156136d0576040517f08c379a000000000000000000000000000000000000000000000000000000000815260040180806020018281038252602481526020018061500c6024913960400191505060405180910390fd5b600760009054906101000a900473ffffffffffffffffffffffffffffffffffffffff1673ffffffffffffffffffffffffffffffffffffffff16632e1a7d4d826040518263ffffffff1660e01b815260040180828152602001915050600060405180830381600087803b15801561374557600080fd5b505af1158015613759573d6000803e3d6000fd5b505050507f862f62b448d7253dc6afebd1a94d3fed70796abc517f689f329288fb288e3331816040518082815260200191505060405180910390a150565b600260009054906101000a900473ffffffffffffffffffffffffffffffffffffffff1681565b6000600760009054906101000a900473ffffffffffffffffffffffffffffffffffffffff1673ffffffffffffffffffffffffffffffffffffffff166333134583306040518263ffffffff1660e01b8152600401808273ffffffffffffffffffffffffffffffffffffffff16815260200191505060206040518083038186803b15801561384857600080fd5b505afa15801561385c573d6000803e3d6000fd5b505050506040513d602081101561387257600080fd5b8101908080519060200190929190505050905090565b60008054906101000a900473ffffffffffffffffffffffffffffffffffffffff1673ffffffffffffffffffffffffffffffffffffffff163373ffffffffffffffffffffffffffffffffffffffff1614806138e0575060015b613952576040517f08c379a000000000000000000000000000000000000000000000000000000000815260040180806020018281038252600e8152602001807f4e6f7420617574686f72697a656400000000000000000000000000000000000081525060200191505060405180910390fd5b600080600090505b60038160ff161015613bb1576000838260ff166003811061397757fe5b60200201511115613ba457600060038260ff166003811061399457fe5b0160009054906101000a900473ffffffffffffffffffffffffffffffffffffffff1673ffffffffffffffffffffffffffffffffffffffff1663313ce5676040518163ffffffff1660e01b815260040160206040518083038186803b1580156139fb57600080fd5b505afa158015613a0f573d6000803e3d6000fd5b505050506040513d6020811015613a2557600080fd5b810190808051906020019092919050505060ff169050613aba600660009054906101000a900473ffffffffffffffffffffffffffffffffffffffff16600060038560ff1660038110613a7357fe5b0160009054906101000a900473ffffffffffffffffffffffffffffffffffffffff1673ffffffffffffffffffffffffffffffffffffffff1661460e9092919063ffffffff16565b613b4b600660009054906101000a900473ffffffffffffffffffffffffffffffffffffffff16858460ff1660038110613aef57fe5b602002015160038560ff1660038110613b0457fe5b0160009054906101000a900473ffffffffffffffffffffffffffffffffffffffff1673ffffffffffffffffffffffffffffffffffffffff1661460e9092919063ffffffff16565b613ba0613b9182600a0a613b83670de0b6b3a7640000888760ff1660038110613b7057fe5b60200201516147d390919063ffffffff16565b6148a390919063ffffffff16565b8461498f90919063ffffffff16565b9250505b808060010191505061395a565b506000613c83600660009054906101000a900473ffffffffffffffffffffffffffffffffffffffff1673ffffffffffffffffffffffffffffffffffffffff1663bb7b8b806040518163ffffffff1660e01b815260040160206040518083038186803b158015613c1f57600080fd5b505afa158015613c33573d6000803e3d6000fd5b505050506040513d6020811015613c4957600080fd5b8101908080519060200190929190505050613c75670de0b6b3a7640000856147d390919063ffffffff16565b6148a390919063ffffffff16565b9050600660009054906101000a900473ffffffffffffffffffffffffffffffffffffffff1673ffffffffffffffffffffffffffffffffffffffff16634515cef384613d01612710613cf3613ce4600e5461271061485990919063ffffffff16565b876147d390919063ffffffff16565b6148a390919063ffffffff16565b6040518363ffffffff1660e01b81526004018083600360200280838360005b83811015613d3b578082015181840152602081019050613d20565b5050505090500182815260200192505050600060405180830381600087803b158015613d6657600080fd5b505af1158015613d7a573d6000803e3d6000fd5b50505050613d866109e2565b505050565b600e5481565b60135481565b3373ffffffffffffffffffffffffffffffffffffffff16601160009054906101000a900473ffffffffffffffffffffffffffffffffffffffff1673ffffffffffffffffffffffffffffffffffffffff1614613e5a576040517f08c379a000000000000000000000000000000000000000000000000000000000815260040180806020018281038252600e8152602001807f4e6f7420417574686f72697a656400000000000000000000000000000000000081525060200191505060405180910390fd5b80600f8190555050565b3373ffffffffffffffffffffffffffffffffffffffff16601160009054906101000a900473ffffffffffffffffffffffffffffffffffffffff1673ffffffffffffffffffffffffffffffffffffffff1614613f27576040517f08c379a000000000000000000000000000000000000000000000000000000000815260040180806020018281038252600e8152602001807f4e6f7420417574686f72697a656400000000000000000000000000000000000081525060200191505060405180910390fd5b600960009054906101000a900473ffffffffffffffffffffffffffffffffffffffff1673ffffffffffffffffffffffffffffffffffffffff16633ccfd60b6040518163ffffffff1660e01b8152600401600060405180830381600087803b158015613f9157600080fd5b505af1158015613fa5573d6000803e3d6000fd5b505050507f6a5e26501482a05740f9329fa7e26d328045348d615d7515b3be9189b9bedb5560405160405180910390a1565b3373ffffffffffffffffffffffffffffffffffffffff16601160009054906101000a900473ffffffffffffffffffffffffffffffffffffffff1673ffffffffffffffffffffffffffffffffffffffff161461409a576040517f08c379a000000000000000000000000000000000000000000000000000000000815260040180806020018281038252600e8152602001807f4e6f7420417574686f72697a656400000000000000000000000000000000000081525060200191505060405180910390fd5b6000600260009054906101000a900473ffffffffffffffffffffffffffffffffffffffff1673ffffffffffffffffffffffffffffffffffffffff166370a08231306040518263ffffffff1660e01b8152600401808273ffffffffffffffffffffffffffffffffffffffff16815260200191505060206040518083038186803b15801561412557600080fd5b505afa158015614139573d6000803e3d6000fd5b505050506040513d602081101561414f57600080fd5b81019080805190602001909291905050509050600a60009054906101000a900473ffffffffffffffffffffffffffffffffffffffff1673ffffffffffffffffffffffffffffffffffffffff16634e71d92d6040518163ffffffff1660e01b8152600401600060405180830381600087803b1580156141cc57600080fd5b505af11580156141e0573d6000803e3d6000fd5b505050506000600260009054906101000a900473ffffffffffffffffffffffffffffffffffffffff1673ffffffffffffffffffffffffffffffffffffffff166370a08231306040518263ffffffff1660e01b8152600401808273ffffffffffffffffffffffffffffffffffffffff16815260200191505060206040518083038186803b15801561426f57600080fd5b505afa158015614283573d6000803e3d6000fd5b505050506040513d602081101561429957600080fd5b810190808051906020019092919050505090506142b4614f43565b600660009054906101000a900473ffffffffffffffffffffffffffffffffffffffff1673ffffffffffffffffffffffffffffffffffffffff1663ecb586a5848403836040518363ffffffff1660e01b81526004018083815260200182600360200280838360005b8381101561433657808201518184015260208101905061431b565b5050505090500192505050600060405180830381600087803b15801561435b57600080fd5b505af115801561436f573d6000803e3d6000fd5b5050505060005b60038110156144d6576144c9600160009054906101000a900473ffffffffffffffffffffffffffffffffffffffff16600383600381106143b257fe5b0160009054906101000a900473ffffffffffffffffffffffffffffffffffffffff1673ffffffffffffffffffffffffffffffffffffffff166370a08231306040518263ffffffff1660e01b8152600401808273ffffffffffffffffffffffffffffffffffffffff16815260200191505060206040518083038186803b15801561443a57600080fd5b505afa15801561444e573d6000803e3d6000fd5b505050506040513d602081101561446457600080fd5b81019080805190602001909291905050506003846003811061448257fe5b0160009054906101000a900473ffffffffffffffffffffffffffffffffffffffff1673ffffffffffffffffffffffffffffffffffffffff166148ed9092919063ffffffff16565b8080600101915050614376565b507f4acdc864e2c852884206e81c2cfaa26ad44ef34d115a71f76302e35e6736e10d60405160405180910390a1505050565b3373ffffffffffffffffffffffffffffffffffffffff16601160009054906101000a900473ffffffffffffffffffffffffffffffffffffffff1673ffffffffffffffffffffffffffffffffffffffff16146145cb576040517f08c379a000000000000000000000000000000000000000000000000000000000815260040180806020018281038252600e8152602001807f4e6f7420417574686f72697a656400000000000000000000000000000000000081525060200191505060405180910390fd5b806000806101000a81548173ffffffffffffffffffffffffffffffffffffffff021916908373ffffffffffffffffffffffffffffffffffffffff16021790555050565b60008114806146dc575060008373ffffffffffffffffffffffffffffffffffffffff1663dd62ed3e30856040518363ffffffff1660e01b8152600401808373ffffffffffffffffffffffffffffffffffffffff1681526020018273ffffffffffffffffffffffffffffffffffffffff1681526020019250505060206040518083038186803b15801561469f57600080fd5b505afa1580156146b3573d6000803e3d6000fd5b505050506040513d60208110156146c957600080fd5b8101908080519060200190929190505050145b614731576040517f08c379a00000000000000000000000000000000000000000000000000000000081526004018080602001828103825260368152602001806150306036913960400191505060405180910390fd5b6147ce8363095ea7b360e01b8484604051602401808373ffffffffffffffffffffffffffffffffffffffff16815260200182815260200192505050604051602081830303815290604052907bffffffffffffffffffffffffffffffffffffffffffffffffffffffff19166020820180517bffffffffffffffffffffffffffffffffffffffffffffffffffffffff8381831617835250505050614a17565b505050565b6000808314156147e65760009050614853565b60008284029050828482816147f757fe5b041461484e576040517f08c379a0000000000000000000000000000000000000000000000000000000008152600401808060200182810382526021815260200180614fc16021913960400191505060405180910390fd5b809150505b92915050565b600061489b83836040518060400160405280601e81526020017f536166654d6174683a207375627472616374696f6e206f766572666c6f770000815250614b06565b905092915050565b60006148e583836040518060400160405280601a81526020017f536166654d6174683a206469766973696f6e206279207a65726f000000000000815250614bc6565b905092915050565b61498a8363a9059cbb60e01b8484604051602401808373ffffffffffffffffffffffffffffffffffffffff16815260200182815260200192505050604051602081830303815290604052907bffffffffffffffffffffffffffffffffffffffffffffffffffffffff19166020820180517bffffffffffffffffffffffffffffffffffffffffffffffffffffffff8381831617835250505050614a17565b505050565b600080828401905083811015614a0d576040517f08c379a000000000000000000000000000000000000000000000000000000000815260040180806020018281038252601b8152602001807f536166654d6174683a206164646974696f6e206f766572666c6f77000000000081525060200191505060405180910390fd5b8091505092915050565b6060614a79826040518060400160405280602081526020017f5361666545524332303a206c6f772d6c6576656c2063616c6c206661696c65648152508573ffffffffffffffffffffffffffffffffffffffff16614c8c9092919063ffffffff16565b9050600081511115614b0157808060200190516020811015614a9a57600080fd5b8101908080519060200190929190505050614b00576040517f08c379a000000000000000000000000000000000000000000000000000000000815260040180806020018281038252602a815260200180614fe2602a913960400191505060405180910390fd5b5b505050565b6000838311158290614bb3576040517f08c379a00000000000000000000000000000000000000000000000000000000081526004018080602001828103825283818151815260200191508051906020019080838360005b83811015614b78578082015181840152602081019050614b5d565b50505050905090810190601f168015614ba55780820380516001836020036101000a031916815260200191505b509250505060405180910390fd5b5060008385039050809150509392505050565b60008083118290614c72576040517f08c379a00000000000000000000000000000000000000000000000000000000081526004018080602001828103825283818151815260200191508051906020019080838360005b83811015614c37578082015181840152602081019050614c1c565b50505050905090810190601f168015614c645780820380516001836020036101000a031916815260200191505b509250505060405180910390fd5b506000838581614c7e57fe5b049050809150509392505050565b6060614c9b8484600085614ca4565b90509392505050565b6060823073ffffffffffffffffffffffffffffffffffffffff16311015614d16576040517f08c379a0000000000000000000000000000000000000000000000000000000008152600401808060200182810382526026815260200180614f9b6026913960400191505060405180910390fd5b614d1f85614e64565b614d91576040517f08c379a000000000000000000000000000000000000000000000000000000000815260040180806020018281038252601d8152602001807f416464726573733a2063616c6c20746f206e6f6e2d636f6e747261637400000081525060200191505060405180910390fd5b600060608673ffffffffffffffffffffffffffffffffffffffff1685876040518082805190602001908083835b60208310614de15780518252602082019150602081019050602083039250614dbe565b6001836020036101000a03801982511681845116808217855250505050505090500191505060006040518083038185875af1925050503d8060008114614e43576040519150601f19603f3d011682016040523d82523d6000602084013e614e48565b606091505b5091509150614e58828286614e77565b92505050949350505050565b600080823b905060008111915050919050565b60608315614e8757829050614f3c565b600083511115614e9a5782518084602001fd5b816040517f08c379a00000000000000000000000000000000000000000000000000000000081526004018080602001828103825283818151815260200191508051906020019080838360005b83811015614f01578082015181840152602081019050614ee6565b50505050905090810190601f168015614f2e5780820380516001836020036101000a031916815260200191505b509250505060405180910390fd5b9392505050565b604051806060016040528060039060208202803683378082019150509050509056fe596f75206d757374206265206e6f6d696e61746564206265666f726520796f752063616e20616363657074206f776e657273686970416464726573733a20696e73756666696369656e742062616c616e636520666f722063616c6c536166654d6174683a206d756c7469706c69636174696f6e206f766572666c6f775361666545524332303a204552433230206f7065726174696f6e20646964206e6f742073756363656564596f752068617665206e6f74207374616b65642074686174206d75636820616d6f756e745361666545524332303a20617070726f76652066726f6d206e6f6e2d7a65726f20746f206e6f6e2d7a65726f20616c6c6f77616e6365a26469706673582212209684bc18889b138dd76654a1de405b4fc6d46e9d0eece23e8458cdb78ddd175f64736f6c634300060c0033",
  "immutableReferences": {},
  "source": "// SPDX-License-Identifier: UNLICENSED\r\npragma solidity ^0.6.0;\r\n\r\nimport './SafeERC20.sol';\r\nimport '../../Interfaces/CurveInterface.sol';\r\nimport '../../Interfaces/UniswapInterface.sol';\r\n\r\ncontract CurveStrategy {\r\n\r\n    using SafeERC20 for IERC20;\r\n    using SafeMath for uint256;\r\n\r\n    address public royaleAddress;\r\n    address public yieldDistributor;\r\n    IERC20 public poolToken;\r\n    IERC20[3] public tokens;  // DAI / USDC / USDT\r\n    CurvePool public pool;\r\n    PoolGauge public gauge;\r\n    Minter public minter;\r\n    VoteEscrow public voteEscrow;\r\n    FeeDistributor public feeDistributor;\r\n    UniswapI  public uniAddr;\r\n    IERC20 public crvAddr;\r\n    address public wethAddr;\r\n    \r\n    \r\n    uint256 public constant DENOMINATOR = 10000;\r\n\r\n    uint256 public depositSlip = 100;\r\n\r\n    uint256 public withdrawSlip = 200;\r\n    \r\n    uint256 public uniswapSlippage=50;\r\n\r\n    address public wallet;\r\n    address public nominatedWallet;\r\n    \r\n   // uint256 public totalProfit;\r\n    \r\n    uint256 public crvBreak=10000;\r\n\r\n   // uint256 public virtualPrice;\r\n \r\n    bool public TEST = true; // For testing uniswap , should be removed on deployment to the mainnet\r\n\r\n    modifier onlyAuthorized(){\r\n      require(wallet == msg.sender|| msg.sender==royaleAddress, \"Not authorized\");\r\n      _;\r\n    }\r\n\r\n    modifier onlyWallet(){\r\n        require((wallet==msg.sender),\"Not Authorized\");\r\n        _;\r\n    }\r\n\r\n    modifier onlyRoyaleLP() {\r\n        require(msg.sender == royaleAddress || true, \"Not authorized\");\r\n        _;\r\n    }\r\n\r\n    constructor(\r\n         address _wallet,\r\n         IERC20[3] memory _tokens, \r\n         address _royaleaddress,\r\n         address _yieldDistributor,\r\n         address _crvpool,\r\n         address _poolToken,\r\n         address _gauge,\r\n         address _minter,\r\n         address _uniAddress,\r\n         address _crvAddress,\r\n         address _wethAddress\r\n         ) public {\r\n\r\n        wallet=_wallet;\r\n        tokens = _tokens;\r\n        royaleAddress =_royaleaddress;\r\n        yieldDistributor=_yieldDistributor;\r\n        pool = CurvePool(_crvpool);\r\n        poolToken = IERC20(_poolToken);\r\n        gauge = PoolGauge(_gauge);\r\n        minter=Minter(_minter);\r\n        uniAddr=UniswapI(_uniAddress);\r\n        crvAddr=IERC20(_crvAddress);\r\n        wethAddr=_wethAddress;\r\n        \r\n    }\r\n\r\n\r\n    function setCRVBreak(uint256 _percentage)external onlyWallet(){\r\n        crvBreak=_percentage;\r\n    }\r\n\r\n    function nominateNewOwner(address _wallet) external onlyWallet {\r\n        nominatedWallet = _wallet;\r\n        emit walletNominated(_wallet);\r\n    }\r\n\r\n    function acceptOwnership() external {\r\n        require(msg.sender == nominatedWallet, \"You must be nominated before you can accept ownership\");\r\n        emit walletChanged(wallet, nominatedWallet);\r\n        wallet = nominatedWallet;\r\n        nominatedWallet = address(0);\r\n    }\r\n\r\n    function changeRoyaleLP(address _address)external onlyWallet(){\r\n        royaleAddress=_address;\r\n    }\r\n    \r\n    function changeDepositSlip(uint _value)external onlyWallet(){\r\n        depositSlip=_value;\r\n    }\r\n    \r\n    function changeWithdrawSlip(uint _value)external onlyWallet(){\r\n        withdrawSlip=_value;\r\n    }\r\n    \r\n    function changeUniswapSlippage(uint _value) external onlyWallet(){\r\n        uniswapSlippage=_value;\r\n    }\r\n\r\n\r\n    // deposits stable tokens into the 3pool and stake recived LPtoken(3CRV) in the curve 3pool gauge\r\n    function deposit(uint[3] memory amounts) external onlyRoyaleLP(){\r\n        uint currentTotal;\r\n        for(uint8 i=0; i<3; i++) {\r\n            if(amounts[i] > 0) {\r\n               uint decimal;\r\n               decimal=tokens[i].decimals();\r\n               tokens[i].safeApprove(address(pool),0);\r\n               tokens[i].safeApprove(address(pool), amounts[i]); \r\n               currentTotal =currentTotal.add(amounts[i].mul(1e18).div(10**decimal));\r\n            }\r\n        }\r\n       /* uint256 returnedAmount;\r\n        bool status;\r\n        (returnedAmount,status)=calculateProfit();\r\n        if(status){\r\n            totalProfit =totalProfit.add(returnedAmount);\r\n        }\r\n        else{\r\n            totalProfit =totalProfit.sub(returnedAmount);\r\n        } */\r\n        uint256 mintAmount = currentTotal.mul(1e18).div(pool.get_virtual_price());\r\n        pool.add_liquidity(amounts,  mintAmount.mul(DENOMINATOR.sub(depositSlip)).div(DENOMINATOR));\r\n        //virtualPrice=pool.get_virtual_price();\r\n        stakeLP();   \r\n    }\r\n\r\n    //withdraws stable tokens from the 3pool.Unstake required LPtokens and stake LP tokens if not used.\r\n    function withdraw(uint[3] memory amounts) external onlyRoyaleLP() {\r\n        uint256 max_burn = pool.calc_token_amount(amounts,false);\r\n        max_burn=max_burn.mul(DENOMINATOR.add(withdrawSlip)).div(DENOMINATOR);\r\n        unstakeLP(max_burn);\r\n        pool.remove_liquidity_imbalance(amounts, max_burn);\r\n        for(uint8 i=0;i<3;i++){\r\n            if(amounts[i]!=0){\r\n               tokens[i].safeTransfer(royaleAddress, tokens[i].balanceOf(address(this)));\r\n            }\r\n        } \r\n        stakeLP();\r\n    }\r\n\r\n   //unstake all the LPtokens and withdraw all the Stable tokens from 3pool \r\n    function withdrawAll() external onlyRoyaleLP() returns(uint256[3] memory){\r\n        unstakeLP(gauge.balanceOf(address(this)));\r\n        uint256[3] memory withdrawAmt;\r\n        pool.remove_liquidity(poolToken.balanceOf(address(this)),withdrawAmt);\r\n        for(uint8 i=0;i<3;i++){\r\n            if(tokens[i].balanceOf(address(this))!=0){\r\n                withdrawAmt[i]=tokens[i].balanceOf(address(this));\r\n                tokens[i].safeTransfer(royaleAddress,withdrawAmt[i]); \r\n            }\r\n        }\r\n        return withdrawAmt; \r\n    } \r\n    \r\n    // Functions to stake and unstake LPTokens(Ycrv) and claim CRV\r\n\r\n\r\n    //Stakes LP token(3CRV) into the curve 3pool gauage\r\n    function stakeLP() public onlyAuthorized() {\r\n        uint depositAmt = poolToken.balanceOf(address(this)) ;\r\n        poolToken.safeApprove(address(gauge),0);\r\n        poolToken.safeApprove(address(gauge), depositAmt);\r\n        gauge.deposit(depositAmt);  \r\n        emit staked(depositAmt);\r\n    }\r\n\r\n    //For unstaking LP tokens(3CRV)\r\n    function unstakeLP(uint _amount) public  onlyAuthorized(){\r\n        require(gauge.balanceOf(address(this)) >= _amount,\"You have not staked that much amount\");\r\n        gauge.withdraw(_amount);\r\n        emit unstaked(_amount);\r\n    }\r\n    \r\n    //Checking claimable CRV tokens.\r\n    function checkClaimableToken()public view  returns(uint256){\r\n        return gauge.claimable_tokens(address(this));\r\n    }\r\n\r\n    //for claiming CRV tokens which accumalates on staking 3CRV.\r\n    function claimCRV() public onlyAuthorized(){\r\n        minter.mint(address(gauge));\r\n        emit crvClaimed();\r\n    }\r\n\r\n    // Functions to lock and unlock CRV and recieve VeCRV\r\n\r\n\r\n   //For locking CRV tokens in the curve lock\r\n    function createLock(uint256 _value,uint256 _unlockTime) external onlyWallet(){\r\n        crvAddr.safeApprove(address(voteEscrow), 0);\r\n        crvAddr.safeApprove(address(voteEscrow), _value);\r\n        voteEscrow.create_lock(_value, _unlockTime);\r\n        emit locked(_value);\r\n    }\r\n\r\n\r\n    //Increasing lock CRV amount\r\n    function increaseLockAmount(uint256 _value) external onlyWallet(){\r\n        crvAddr.safeApprove(address(voteEscrow), 0);\r\n        crvAddr.safeApprove(address(voteEscrow), _value);\r\n        voteEscrow.increase_amount(_value);\r\n        emit locked(_value);\r\n    }\r\n\r\n    //For unlocking CRV tokens\r\n    function releaseLock() external onlyWallet(){\r\n        voteEscrow.withdraw(); \r\n        emit unlocked();\r\n    }\r\n\r\n\r\n   //For claiming recieved 3CRV tokens which are given for locking CRV and\r\n   // withdrawing stable tokens from curve 3pool using those 3CRV and sending those stable tokens to an address\r\n    function claim3CRV()public onlyWallet(){\r\n        uint prevCoin=poolToken.balanceOf(address(this));\r\n        feeDistributor.claim();\r\n        uint postCoin=poolToken.balanceOf(address(this));\r\n        uint[3] memory minimum;\r\n        pool.remove_liquidity(postCoin-prevCoin,minimum);\r\n        for(uint i=0;i<3;i++){\r\n            tokens[i].safeTransfer(yieldDistributor,tokens[i].balanceOf(address(this)));\r\n        }\r\n        emit yieldTransfered();\r\n    }\r\n    \r\n    // Function to sell CRV using uniswap to any stable token and send that token to an address\r\n    function sellCRV(uint8 _index) public onlyWallet() returns(uint256) {  //here index=0 means convert crv into DAI , index=1 means crv into USDC , index=2 means crv into USDT\r\n        uint256 crvAmt = IERC20(crvAddr).balanceOf(address(this));\r\n        uint256 prevCoin = tokens[_index].balanceOf(address(this));\r\n        require(crvAmt > 0, \"insufficient CRV\");\r\n        crvAmt=crvAmt.mul(crvBreak).div(DENOMINATOR);\r\n        crvAddr.safeApprove(address(uniAddr), 0);\r\n        crvAddr.safeApprove(address(uniAddr), crvAmt);\r\n        address[] memory path; \r\n        if(TEST) {\r\n            path = new address[](2);\r\n            path[0] = address(crvAddr);\r\n            path[1] = address(tokens[_index]);\r\n\r\n        } else {    \r\n            path = new address[](3);\r\n            path[0] = address(crvAddr);\r\n            path[1] = wethAddr;\r\n            path[2] = address(tokens[_index]);\r\n        }\r\n        uint[] memory amount=UniswapI(uniAddr).getAmountsOut(crvAmt,path);\r\n        uint calulatedAmount=amount[amount.length.sub(1)];\r\n        uint minimumAmount=calulatedAmount.sub(calulatedAmount.mul(uniswapSlippage).div(DENOMINATOR));\r\n        UniswapI(uniAddr).swapExactTokensForTokens(\r\n            crvAmt, \r\n            minimumAmount, \r\n            path, \r\n            address(this), \r\n            now + 1800\r\n        );\r\n        uint256 postCoin=tokens[_index].balanceOf(address(this));\r\n        tokens[_index].safeTransfer(yieldDistributor,postCoin.sub(prevCoin));\r\n        emit yieldTransfered(_index,postCoin.sub(prevCoin));\r\n    }\r\n\r\n   /* function calculateProfit()public view returns(uint256,bool){\r\n        if(pool.get_virtual_price() >= virtualPrice){\r\n            return (gauge.balanceOf(address(this)).mul(pool.get_virtual_price().sub(virtualPrice)).div(10**18),true);\r\n        }    \r\n        else{\r\n            return (gauge.balanceOf(address(this)).mul(virtualPrice.sub(pool.get_virtual_price())).div(10**18),false);\r\n        }\r\n        \r\n    }*/\r\n\r\n    //calulates how much VeCRV is needed to get 2.5X boost.\r\n    function gaugeVeCRVCalculator() public view returns(uint256){\r\n          uint minimumVeCRV ;\r\n          minimumVeCRV =(gauge.balanceOf(address(this)).mul(100)).sub((gauge.balanceOf(address(this)).mul(40))).mul(voteEscrow.totalSupply()).div(gauge.totalSupply().mul(60));\r\n          return minimumVeCRV;\r\n    }\r\n    \r\n    event yieldTransfered(uint index,uint coin);\r\n    event yieldTransfered();\r\n    event staked(uint amount);\r\n    event unstaked(uint amount);\r\n    event crvClaimed();\r\n    event locked(uint amount);\r\n    event unlocked();\r\n    event walletNominated(address newOwner);\r\n    event walletChanged(address oldOwner, address newOwner);\r\n\r\n}",
  "sourcePath": "C:/Users/vishn/OneDrive/Desktop/RoyaleProject/RoyaleFinance/royale-contracts/contracts/Pool/rStrategy.sol",
  "compiler": {
    "name": "solc",
    "version": "0.6.12+commit.27d51765.Emscripten.clang"
  },
  "schemaVersion": "3.3.2",
  "updatedAt": "2021-03-23T08:36:24.943Z",
  "devdoc": {
    "kind": "dev",
    "methods": {},
    "version": 1
  },
  "userdoc": {
    "kind": "user",
    "methods": {},
    "version": 1
  }
}