{
  "contractName": "CurveStrategy",
  "abi": [
    {
      "inputs": [
        {
          "internalType": "address",
          "name": "_wallet",
          "type": "address"
        },
        {
          "internalType": "contract IERC20[3]",
          "name": "coins",
          "type": "address[3]"
        },
        {
          "internalType": "contract IERC20[3]",
          "name": "ucoins",
          "type": "address[3]"
        },
        {
          "internalType": "address",
          "name": "_royaleaddress",
          "type": "address"
        },
        {
          "internalType": "address",
          "name": "_crvpool",
          "type": "address"
        },
        {
          "internalType": "address",
          "name": "_depositY",
          "type": "address"
        },
        {
          "internalType": "address",
          "name": "_poolToken",
          "type": "address"
        },
        {
          "internalType": "address",
          "name": "_gauge",
          "type": "address"
        },
        {
          "internalType": "address",
          "name": "_minter",
          "type": "address"
        }
      ],
      "stateMutability": "nonpayable",
      "type": "constructor"
    },
    {
      "inputs": [],
      "name": "DENOMINATOR",
      "outputs": [
        {
          "internalType": "uint256",
          "name": "",
          "type": "uint256"
        }
      ],
      "stateMutability": "view",
      "type": "function"
    },
    {
      "inputs": [],
      "name": "DepositSlip",
      "outputs": [
        {
          "internalType": "uint256",
          "name": "",
          "type": "uint256"
        }
      ],
      "stateMutability": "view",
      "type": "function"
    },
    {
      "inputs": [],
      "name": "TEST",
      "outputs": [
        {
          "internalType": "bool",
          "name": "",
          "type": "bool"
        }
      ],
      "stateMutability": "view",
      "type": "function"
    },
    {
      "inputs": [],
      "name": "crvAddr",
      "outputs": [
        {
          "internalType": "address",
          "name": "",
          "type": "address"
        }
      ],
      "stateMutability": "view",
      "type": "function"
    },
    {
      "inputs": [],
      "name": "crvBreak",
      "outputs": [
        {
          "internalType": "uint256",
          "name": "",
          "type": "uint256"
        }
      ],
      "stateMutability": "view",
      "type": "function"
    },
    {
      "inputs": [
        {
          "internalType": "uint256",
          "name": "",
          "type": "uint256"
        }
      ],
      "name": "depositBal",
      "outputs": [
        {
          "internalType": "uint256",
          "name": "",
          "type": "uint256"
        }
      ],
      "stateMutability": "view",
      "type": "function"
    },
    {
      "inputs": [],
      "name": "depositY",
      "outputs": [
        {
          "internalType": "contract DepositY",
          "name": "",
          "type": "address"
        }
      ],
      "stateMutability": "view",
      "type": "function"
    },
    {
      "inputs": [],
      "name": "feeDistributor",
      "outputs": [
        {
          "internalType": "contract FeeDistributor",
          "name": "",
          "type": "address"
        }
      ],
      "stateMutability": "view",
      "type": "function"
    },
    {
      "inputs": [],
      "name": "gauge",
      "outputs": [
        {
          "internalType": "contract PoolGauge",
          "name": "",
          "type": "address"
        }
      ],
      "stateMutability": "view",
      "type": "function"
    },
    {
      "inputs": [],
      "name": "minter",
      "outputs": [
        {
          "internalType": "contract Minter",
          "name": "",
          "type": "address"
        }
      ],
      "stateMutability": "view",
      "type": "function"
    },
    {
      "inputs": [],
      "name": "pool",
      "outputs": [
        {
          "internalType": "contract CurvePool",
          "name": "",
          "type": "address"
        }
      ],
      "stateMutability": "view",
      "type": "function"
    },
    {
      "inputs": [],
      "name": "totalDeposited",
      "outputs": [
        {
          "internalType": "uint256",
          "name": "",
          "type": "uint256"
        }
      ],
      "stateMutability": "view",
      "type": "function"
    },
    {
      "inputs": [],
      "name": "uniAddr",
      "outputs": [
        {
          "internalType": "address",
          "name": "",
          "type": "address"
        }
      ],
      "stateMutability": "view",
      "type": "function"
    },
    {
      "inputs": [],
      "name": "virtualPrice",
      "outputs": [
        {
          "internalType": "uint256",
          "name": "",
          "type": "uint256"
        }
      ],
      "stateMutability": "view",
      "type": "function"
    },
    {
      "inputs": [],
      "name": "voteEscrow",
      "outputs": [
        {
          "internalType": "contract VoteEscrow",
          "name": "",
          "type": "address"
        }
      ],
      "stateMutability": "view",
      "type": "function"
    },
    {
      "inputs": [],
      "name": "wallet",
      "outputs": [
        {
          "internalType": "address",
          "name": "",
          "type": "address"
        }
      ],
      "stateMutability": "view",
      "type": "function"
    },
    {
      "inputs": [],
      "name": "wethAddr",
      "outputs": [
        {
          "internalType": "address",
          "name": "",
          "type": "address"
        }
      ],
      "stateMutability": "view",
      "type": "function"
    },
    {
      "inputs": [],
      "name": "withdrawSlip",
      "outputs": [
        {
          "internalType": "uint256",
          "name": "",
          "type": "uint256"
        }
      ],
      "stateMutability": "view",
      "type": "function"
    },
    {
      "inputs": [
        {
          "internalType": "uint256",
          "name": "_percentage",
          "type": "uint256"
        }
      ],
      "name": "setCRVBreak",
      "outputs": [],
      "stateMutability": "nonpayable",
      "type": "function"
    },
    {
      "inputs": [
        {
          "internalType": "address",
          "name": "_wallet",
          "type": "address"
        }
      ],
      "name": "transferOwnership",
      "outputs": [],
      "stateMutability": "nonpayable",
      "type": "function"
    },
    {
      "inputs": [
        {
          "internalType": "uint256[3]",
          "name": "amounts",
          "type": "uint256[3]"
        }
      ],
      "name": "deposit",
      "outputs": [],
      "stateMutability": "nonpayable",
      "type": "function"
    },
    {
      "inputs": [
        {
          "internalType": "uint256[3]",
          "name": "amounts",
          "type": "uint256[3]"
        }
      ],
      "name": "withdraw",
      "outputs": [],
      "stateMutability": "nonpayable",
      "type": "function"
    },
    {
      "inputs": [],
      "name": "withdrawAll",
      "outputs": [
        {
          "internalType": "uint256[3]",
          "name": "",
          "type": "uint256[3]"
        }
      ],
      "stateMutability": "nonpayable",
      "type": "function"
    },
    {
      "inputs": [],
      "name": "stakeLP",
      "outputs": [],
      "stateMutability": "nonpayable",
      "type": "function"
    },
    {
      "inputs": [
        {
          "internalType": "uint256",
          "name": "_amount",
          "type": "uint256"
        }
      ],
      "name": "unstakeLP",
      "outputs": [],
      "stateMutability": "nonpayable",
      "type": "function"
    },
    {
      "inputs": [],
      "name": "checkClaimableToken",
      "outputs": [
        {
          "internalType": "uint256",
          "name": "",
          "type": "uint256"
        }
      ],
      "stateMutability": "view",
      "type": "function"
    },
    {
      "inputs": [],
      "name": "claimCRV",
      "outputs": [],
      "stateMutability": "nonpayable",
      "type": "function"
    },
    {
      "inputs": [
        {
          "internalType": "uint256",
          "name": "_value",
          "type": "uint256"
        },
        {
          "internalType": "uint256",
          "name": "_unlockTime",
          "type": "uint256"
        }
      ],
      "name": "createLock",
      "outputs": [],
      "stateMutability": "nonpayable",
      "type": "function"
    },
    {
      "inputs": [
        {
          "internalType": "uint256",
          "name": "_value",
          "type": "uint256"
        }
      ],
      "name": "increaseLockAmount",
      "outputs": [],
      "stateMutability": "nonpayable",
      "type": "function"
    },
    {
      "inputs": [],
      "name": "releaseLock",
      "outputs": [],
      "stateMutability": "nonpayable",
      "type": "function"
    },
    {
      "inputs": [],
      "name": "claim3CRV",
      "outputs": [],
      "stateMutability": "nonpayable",
      "type": "function"
    },
    {
      "inputs": [
        {
          "internalType": "uint8",
          "name": "_index",
          "type": "uint8"
        }
      ],
      "name": "sellCRV",
      "outputs": [
        {
          "internalType": "uint256",
          "name": "",
          "type": "uint256"
        }
      ],
      "stateMutability": "nonpayable",
      "type": "function"
    },
    {
      "inputs": [],
      "name": "calculateProfit",
      "outputs": [
        {
          "internalType": "uint256",
          "name": "",
          "type": "uint256"
        },
        {
          "internalType": "bool",
          "name": "",
          "type": "bool"
        }
      ],
      "stateMutability": "view",
      "type": "function"
    },
    {
      "inputs": [],
      "name": "gaugeBoostCalculator",
      "outputs": [
        {
          "internalType": "uint256",
          "name": "",
          "type": "uint256"
        }
      ],
      "stateMutability": "view",
      "type": "function"
    }
  ],
  "bytecode": "0x60806040526064600e5560c8600f556127106012556001601960006101000a81548160ff021916908315150217905550737a250d5630b4cf539739df2c5dacb4c659f2488d601960016101000a81548173ffffffffffffffffffffffffffffffffffffffff021916908373ffffffffffffffffffffffffffffffffffffffff160217905550735ddbdbb1d1e691d2994d4a44470eb07dfcbd57c3601a60006101000a81548173ffffffffffffffffffffffffffffffffffffffff021916908373ffffffffffffffffffffffffffffffffffffffff16021790555073c02aaa39b223fe8d0a0e5c4f27ead9083c756cc2601b60006101000a81548173ffffffffffffffffffffffffffffffffffffffff021916908373ffffffffffffffffffffffffffffffffffffffff1602179055503480156200013b57600080fd5b5060405162004b7838038062004b7883398181016040526101a08110156200016257600080fd5b810190808051906020019092919091908260600191908260600180519060200190929190805190602001909291908051906020019092919080519060200190929190805190602001909291908051906020019092919050505088601060006101000a81548173ffffffffffffffffffffffffffffffffffffffff021916908373ffffffffffffffffffffffffffffffffffffffff1602179055508760029060036200020f929190620003b8565b5086600590600362000223929190620003b8565b50856000806101000a81548173ffffffffffffffffffffffffffffffffffffffff021916908373ffffffffffffffffffffffffffffffffffffffff16021790555083600960006101000a81548173ffffffffffffffffffffffffffffffffffffffff021916908373ffffffffffffffffffffffffffffffffffffffff16021790555084600860006101000a81548173ffffffffffffffffffffffffffffffffffffffff021916908373ffffffffffffffffffffffffffffffffffffffff16021790555082600160006101000a81548173ffffffffffffffffffffffffffffffffffffffff021916908373ffffffffffffffffffffffffffffffffffffffff16021790555081600a60006101000a81548173ffffffffffffffffffffffffffffffffffffffff021916908373ffffffffffffffffffffffffffffffffffffffff16021790555080600b60006101000a81548173ffffffffffffffffffffffffffffffffffffffff021916908373ffffffffffffffffffffffffffffffffffffffff16021790555050505050505050505062000477565b826003810192821562000427579160200282015b82811115620004265782518260006101000a81548173ffffffffffffffffffffffffffffffffffffffff021916908373ffffffffffffffffffffffffffffffffffffffff16021790555091602001919060010190620003cc565b5b5090506200043691906200043a565b5090565b5b808211156200047357600081816101000a81549073ffffffffffffffffffffffffffffffffffffffff0219169055506001016200043b565b5090565b6146f180620004876000396000f3fe608060405234801561001057600080fd5b50600436106102065760003560e01c80638ea875f31161011a578063c4778998116100ad578063eda54ad21161007c578063eda54ad214610772578063f166f3e81461077c578063f2fde38b14610786578063f87bf3ca146107ca578063ff50abdc146107f157610206565b8063c4778998146106a3578063d3639ae3146106d1578063d4e20b01146106ef578063dbbcbd3d1461075457610206565b8063a6f19c84116100e9578063a6f19c841461059e578063ad633469146105d2578063b1b8f1be14610606578063b52c05fe1461066b57610206565b80638ea875f3146104ec5780639019a2851461050a578063918f86741461053e578063a3c0cd671461055c57610206565b806351d977a61161019d5780636e75702e1161016c5780636e75702e146103ec57806374b21fbe1461040a5780637b158f381461043e5780637d5aa5f414610472578063853828b6146104a657610206565b806351d977a614610335578063521eb273146103555780636009314f146103895780636b944998146103a757610206565b80633557ea1e116101d95780633557ea1e146102b1578063403f4447146102cf57806348f8f6d9146102fd5780634df50a551461030757610206565b8063075461721461020b5780630d43e8ad1461023f57806310ff582d1461027357806316f0115b1461027d575b600080fd5b61021361080f565b604051808273ffffffffffffffffffffffffffffffffffffffff16815260200191505060405180910390f35b610247610835565b604051808273ffffffffffffffffffffffffffffffffffffffff16815260200191505060405180910390f35b61027b61085b565b005b610285610bbd565b604051808273ffffffffffffffffffffffffffffffffffffffff16815260200191505060405180910390f35b6102b9610be3565b6040518082815260200191505060405180910390f35b6102fb600480360360208110156102e557600080fd5b8101908080359060200190929190505050610be9565b005b610305610e83565b005b6103336004803603602081101561031d57600080fd5b8101908080359060200190929190505050611063565b005b61033d611186565b60405180821515815260200191505060405180910390f35b61035d611199565b604051808273ffffffffffffffffffffffffffffffffffffffff16815260200191505060405180910390f35b6103916111bf565b6040518082815260200191505060405180910390f35b6103d6600480360360208110156103bd57600080fd5b81019080803560ff169060200190929190505050611505565b6040518082815260200191505060405180910390f35b6103f4611e20565b6040518082815260200191505060405180910390f35b610412611e26565b604051808273ffffffffffffffffffffffffffffffffffffffff16815260200191505060405180910390f35b610446611e4c565b604051808273ffffffffffffffffffffffffffffffffffffffff16815260200191505060405180910390f35b61047a611e72565b604051808273ffffffffffffffffffffffffffffffffffffffff16815260200191505060405180910390f35b6104ae611e98565b6040518082600360200280838360005b838110156104d95780820151818401526020810190506104be565b5050505090500191505060405180910390f35b6104f4612696565b6040518082815260200191505060405180910390f35b61051261269c565b604051808273ffffffffffffffffffffffffffffffffffffffff16815260200191505060405180910390f35b6105466126c2565b6040518082815260200191505060405180910390f35b6105886004803603602081101561057257600080fd5b81019080803590602001909291905050506126c8565b6040518082815260200191505060405180910390f35b6105a66126e0565b604051808273ffffffffffffffffffffffffffffffffffffffff16815260200191505060405180910390f35b6105da612706565b604051808273ffffffffffffffffffffffffffffffffffffffff16815260200191505060405180910390f35b6106696004803603606081101561061c57600080fd5b8101908080606001906003806020026040519081016040528092919082600360200280828437600081840152601f19601f820116905080830192505050505050919291929050505061272c565b005b6106a16004803603604081101561068157600080fd5b810190808035906020019092919080359060200190929190505050612d97565b005b6106cf600480360360208110156106b957600080fd5b810190808035906020019092919050505061303a565b005b6106d96132ff565b6040518082815260200191505060405180910390f35b6107526004803603606081101561070557600080fd5b8101908080606001906003806020026040519081016040528092919082600360200280828437600081840152601f19601f82011690508083019250505050505091929192905050506133ca565b005b61075c613a79565b6040518082815260200191505060405180910390f35b61077a613a7f565b005b610784613c1c565b005b6107c86004803603602081101561079c57600080fd5b81019080803573ffffffffffffffffffffffffffffffffffffffff169060200190929190505050613db9565b005b6107d2613f16565b6040518083815260200182151581526020019250505060405180910390f35b6107f9614326565b6040518082815260200191505060405180910390f35b600b60009054906101000a900473ffffffffffffffffffffffffffffffffffffffff1681565b600d60009054906101000a900473ffffffffffffffffffffffffffffffffffffffff1681565b3373ffffffffffffffffffffffffffffffffffffffff16601060009054906101000a900473ffffffffffffffffffffffffffffffffffffffff1673ffffffffffffffffffffffffffffffffffffffff161480610902575060008054906101000a900473ffffffffffffffffffffffffffffffffffffffff1673ffffffffffffffffffffffffffffffffffffffff163373ffffffffffffffffffffffffffffffffffffffff16145b610974576040517f08c379a000000000000000000000000000000000000000000000000000000000815260040180806020018281038252600e8152602001807f4e6f7420617574686f72697a656400000000000000000000000000000000000081525060200191505060405180910390fd5b6000600160009054906101000a900473ffffffffffffffffffffffffffffffffffffffff1673ffffffffffffffffffffffffffffffffffffffff166370a08231306040518263ffffffff1660e01b8152600401808273ffffffffffffffffffffffffffffffffffffffff16815260200191505060206040518083038186803b1580156109ff57600080fd5b505afa158015610a13573d6000803e3d6000fd5b505050506040513d6020811015610a2957600080fd5b81019080805190602001909291905050509050600160009054906101000a900473ffffffffffffffffffffffffffffffffffffffff1673ffffffffffffffffffffffffffffffffffffffff1663095ea7b3600a60009054906101000a900473ffffffffffffffffffffffffffffffffffffffff16836040518363ffffffff1660e01b8152600401808373ffffffffffffffffffffffffffffffffffffffff16815260200182815260200192505050602060405180830381600087803b158015610af157600080fd5b505af1158015610b05573d6000803e3d6000fd5b505050506040513d6020811015610b1b57600080fd5b810190808051906020019092919050505050600a60009054906101000a900473ffffffffffffffffffffffffffffffffffffffff1673ffffffffffffffffffffffffffffffffffffffff1663b6b55f25826040518263ffffffff1660e01b815260040180828152602001915050600060405180830381600087803b158015610ba257600080fd5b505af1158015610bb6573d6000803e3d6000fd5b5050505050565b600860009054906101000a900473ffffffffffffffffffffffffffffffffffffffff1681565b600e5481565b3373ffffffffffffffffffffffffffffffffffffffff16601060009054906101000a900473ffffffffffffffffffffffffffffffffffffffff1673ffffffffffffffffffffffffffffffffffffffff161480610c90575060008054906101000a900473ffffffffffffffffffffffffffffffffffffffff1673ffffffffffffffffffffffffffffffffffffffff163373ffffffffffffffffffffffffffffffffffffffff16145b610d02576040517f08c379a000000000000000000000000000000000000000000000000000000000815260040180806020018281038252600e8152602001807f4e6f7420617574686f72697a656400000000000000000000000000000000000081525060200191505060405180910390fd5b601a60009054906101000a900473ffffffffffffffffffffffffffffffffffffffff1673ffffffffffffffffffffffffffffffffffffffff1663095ea7b3600c60009054906101000a900473ffffffffffffffffffffffffffffffffffffffff16836040518363ffffffff1660e01b8152600401808373ffffffffffffffffffffffffffffffffffffffff16815260200182815260200192505050602060405180830381600087803b158015610db757600080fd5b505af1158015610dcb573d6000803e3d6000fd5b505050506040513d6020811015610de157600080fd5b810190808051906020019092919050505050600c60009054906101000a900473ffffffffffffffffffffffffffffffffffffffff1673ffffffffffffffffffffffffffffffffffffffff16634957677c826040518263ffffffff1660e01b815260040180828152602001915050600060405180830381600087803b158015610e6857600080fd5b505af1158015610e7c573d6000803e3d6000fd5b5050505050565b3373ffffffffffffffffffffffffffffffffffffffff16601060009054906101000a900473ffffffffffffffffffffffffffffffffffffffff1673ffffffffffffffffffffffffffffffffffffffff161480610f2a575060008054906101000a900473ffffffffffffffffffffffffffffffffffffffff1673ffffffffffffffffffffffffffffffffffffffff163373ffffffffffffffffffffffffffffffffffffffff16145b610f9c576040517f08c379a000000000000000000000000000000000000000000000000000000000815260040180806020018281038252600e8152602001807f4e6f7420617574686f72697a656400000000000000000000000000000000000081525060200191505060405180910390fd5b600b60009054906101000a900473ffffffffffffffffffffffffffffffffffffffff1673ffffffffffffffffffffffffffffffffffffffff16636a627842600a60009054906101000a900473ffffffffffffffffffffffffffffffffffffffff166040518263ffffffff1660e01b8152600401808273ffffffffffffffffffffffffffffffffffffffff168152602001915050600060405180830381600087803b15801561104957600080fd5b505af115801561105d573d6000803e3d6000fd5b50505050565b3373ffffffffffffffffffffffffffffffffffffffff16601060009054906101000a900473ffffffffffffffffffffffffffffffffffffffff1673ffffffffffffffffffffffffffffffffffffffff16148061110a575060008054906101000a900473ffffffffffffffffffffffffffffffffffffffff1673ffffffffffffffffffffffffffffffffffffffff163373ffffffffffffffffffffffffffffffffffffffff16145b61117c576040517f08c379a000000000000000000000000000000000000000000000000000000000815260040180806020018281038252600e8152602001807f4e6f7420617574686f72697a656400000000000000000000000000000000000081525060200191505060405180910390fd5b8060128190555050565b601960009054906101000a900460ff1681565b601060009054906101000a900473ffffffffffffffffffffffffffffffffffffffff1681565b6000806114fc61127b603c600a60009054906101000a900473ffffffffffffffffffffffffffffffffffffffff1673ffffffffffffffffffffffffffffffffffffffff166318160ddd6040518163ffffffff1660e01b815260040160206040518083038186803b15801561123257600080fd5b505afa158015611246573d6000803e3d6000fd5b505050506040513d602081101561125c57600080fd5b810190808051906020019092919050505061432c90919063ffffffff16565b6114ee600c60009054906101000a900473ffffffffffffffffffffffffffffffffffffffff1673ffffffffffffffffffffffffffffffffffffffff166318160ddd6040518163ffffffff1660e01b815260040160206040518083038186803b1580156112e657600080fd5b505afa1580156112fa573d6000803e3d6000fd5b505050506040513d602081101561131057600080fd5b81019080805190602001909291905050506114e06113fb6028600a60009054906101000a900473ffffffffffffffffffffffffffffffffffffffff1673ffffffffffffffffffffffffffffffffffffffff166370a08231306040518263ffffffff1660e01b8152600401808273ffffffffffffffffffffffffffffffffffffffff16815260200191505060206040518083038186803b1580156113b257600080fd5b505afa1580156113c6573d6000803e3d6000fd5b505050506040513d60208110156113dc57600080fd5b810190808051906020019092919050505061432c90919063ffffffff16565b6114d26064600a60009054906101000a900473ffffffffffffffffffffffffffffffffffffffff1673ffffffffffffffffffffffffffffffffffffffff166370a08231306040518263ffffffff1660e01b8152600401808273ffffffffffffffffffffffffffffffffffffffff16815260200191505060206040518083038186803b15801561148957600080fd5b505afa15801561149d573d6000803e3d6000fd5b505050506040513d60208110156114b357600080fd5b810190808051906020019092919050505061432c90919063ffffffff16565b6143b290919063ffffffff16565b61432c90919063ffffffff16565b6143fc90919063ffffffff16565b90508091505090565b60003373ffffffffffffffffffffffffffffffffffffffff16601060009054906101000a900473ffffffffffffffffffffffffffffffffffffffff1673ffffffffffffffffffffffffffffffffffffffff1614806115ae575060008054906101000a900473ffffffffffffffffffffffffffffffffffffffff1673ffffffffffffffffffffffffffffffffffffffff163373ffffffffffffffffffffffffffffffffffffffff16145b611620576040517f08c379a000000000000000000000000000000000000000000000000000000000815260040180806020018281038252600e8152602001807f4e6f7420617574686f72697a656400000000000000000000000000000000000081525060200191505060405180910390fd5b6000601a60009054906101000a900473ffffffffffffffffffffffffffffffffffffffff1673ffffffffffffffffffffffffffffffffffffffff166370a08231306040518263ffffffff1660e01b8152600401808273ffffffffffffffffffffffffffffffffffffffff16815260200191505060206040518083038186803b1580156116ab57600080fd5b505afa1580156116bf573d6000803e3d6000fd5b505050506040513d60208110156116d557600080fd5b81019080805190602001909291905050509050600060028460ff16600381106116fa57fe5b0160009054906101000a900473ffffffffffffffffffffffffffffffffffffffff1673ffffffffffffffffffffffffffffffffffffffff166370a08231306040518263ffffffff1660e01b8152600401808273ffffffffffffffffffffffffffffffffffffffff16815260200191505060206040518083038186803b15801561178257600080fd5b505afa158015611796573d6000803e3d6000fd5b505050506040513d60208110156117ac57600080fd5b8101908080519060200190929190505050905060008211611835576040517f08c379a00000000000000000000000000000000000000000000000000000000081526004018080602001828103825260108152602001807f696e73756666696369656e74204352560000000000000000000000000000000081525060200191505060405180910390fd5b61185e6127106118506012548561432c90919063ffffffff16565b6143fc90919063ffffffff16565b9150601a60009054906101000a900473ffffffffffffffffffffffffffffffffffffffff1673ffffffffffffffffffffffffffffffffffffffff1663095ea7b3601960019054906101000a900473ffffffffffffffffffffffffffffffffffffffff16846040518363ffffffff1660e01b8152600401808373ffffffffffffffffffffffffffffffffffffffff16815260200182815260200192505050602060405180830381600087803b15801561191557600080fd5b505af1158015611929573d6000803e3d6000fd5b505050506040513d602081101561193f57600080fd5b8101908080519060200190929190505050506060601960009054906101000a900460ff1615611a9a57600267ffffffffffffffff8111801561198057600080fd5b506040519080825280602002602001820160405280156119af5781602001602082028036833780820191505090505b509050601a60009054906101000a900473ffffffffffffffffffffffffffffffffffffffff16816000815181106119e257fe5b602002602001019073ffffffffffffffffffffffffffffffffffffffff16908173ffffffffffffffffffffffffffffffffffffffff168152505060028560ff1660038110611a2c57fe5b0160009054906101000a900473ffffffffffffffffffffffffffffffffffffffff1681600181518110611a5b57fe5b602002602001019073ffffffffffffffffffffffffffffffffffffffff16908173ffffffffffffffffffffffffffffffffffffffff1681525050611c32565b600367ffffffffffffffff81118015611ab257600080fd5b50604051908082528060200260200182016040528015611ae15781602001602082028036833780820191505090505b509050601a60009054906101000a900473ffffffffffffffffffffffffffffffffffffffff1681600081518110611b1457fe5b602002602001019073ffffffffffffffffffffffffffffffffffffffff16908173ffffffffffffffffffffffffffffffffffffffff1681525050601b60009054906101000a900473ffffffffffffffffffffffffffffffffffffffff1681600181518110611b7e57fe5b602002602001019073ffffffffffffffffffffffffffffffffffffffff16908173ffffffffffffffffffffffffffffffffffffffff168152505060028560ff1660038110611bc857fe5b0160009054906101000a900473ffffffffffffffffffffffffffffffffffffffff1681600281518110611bf757fe5b602002602001019073ffffffffffffffffffffffffffffffffffffffff16908173ffffffffffffffffffffffffffffffffffffffff16815250505b601960019054906101000a900473ffffffffffffffffffffffffffffffffffffffff1673ffffffffffffffffffffffffffffffffffffffff166338ed1739846000843061070842016040518663ffffffff1660e01b815260040180868152602001858152602001806020018473ffffffffffffffffffffffffffffffffffffffff168152602001838152602001828103825285818151815260200191508051906020019060200280838360005b83811015611cfa578082015181840152602081019050611cdf565b505050509050019650505050505050600060405180830381600087803b158015611d2357600080fd5b505af1158015611d37573d6000803e3d6000fd5b50505050600060028660ff1660038110611d4d57fe5b0160009054906101000a900473ffffffffffffffffffffffffffffffffffffffff1673ffffffffffffffffffffffffffffffffffffffff166370a08231306040518263ffffffff1660e01b8152600401808273ffffffffffffffffffffffffffffffffffffffff16815260200191505060206040518083038186803b158015611dd557600080fd5b505afa158015611de9573d6000803e3d6000fd5b505050506040513d6020811015611dff57600080fd5b81019080805190602001909291905050509050828103945050505050919050565b600f5481565b601a60009054906101000a900473ffffffffffffffffffffffffffffffffffffffff1681565b601960019054906101000a900473ffffffffffffffffffffffffffffffffffffffff1681565b601b60009054906101000a900473ffffffffffffffffffffffffffffffffffffffff1681565b611ea0614654565b60008054906101000a900473ffffffffffffffffffffffffffffffffffffffff1673ffffffffffffffffffffffffffffffffffffffff163373ffffffffffffffffffffffffffffffffffffffff161480611ef8575060015b611f6a576040517f08c379a000000000000000000000000000000000000000000000000000000000815260040180806020018281038252600e8152602001807f4e6f7420617574686f72697a656400000000000000000000000000000000000081525060200191505060405180910390fd5b612036600a60009054906101000a900473ffffffffffffffffffffffffffffffffffffffff1673ffffffffffffffffffffffffffffffffffffffff166370a08231306040518263ffffffff1660e01b8152600401808273ffffffffffffffffffffffffffffffffffffffff16815260200191505060206040518083038186803b158015611ff657600080fd5b505afa15801561200a573d6000803e3d6000fd5b505050506040513d602081101561202057600080fd5b810190808051906020019092919050505061303a565b6000612040614654565b6000600160009054906101000a900473ffffffffffffffffffffffffffffffffffffffff1673ffffffffffffffffffffffffffffffffffffffff166370a08231306040518263ffffffff1660e01b8152600401808273ffffffffffffffffffffffffffffffffffffffff16815260200191505060206040518083038186803b1580156120cb57600080fd5b505afa1580156120df573d6000803e3d6000fd5b505050506040513d60208110156120f557600080fd5b8101908080519060200190929190505050925060005b60038160ff1610156123795760008060028360ff166003811061212a57fe5b0160009054906101000a900473ffffffffffffffffffffffffffffffffffffffff1673ffffffffffffffffffffffffffffffffffffffff1663313ce5676040518163ffffffff1660e01b815260040160206040518083038186803b15801561219157600080fd5b505afa1580156121a5573d6000803e3d6000fd5b505050506040513d60208110156121bb57600080fd5b810190808051906020019092919050505060ff16915060028360ff1614156121f7576121f084876143b290919063ffffffff16565b905061224a565b61224760175461223960138660ff166004811061221057fe5b015461222b86601203600a0a8b61432c90919063ffffffff16565b61432c90919063ffffffff16565b6143fc90919063ffffffff16565b90505b61225d818561444690919063ffffffff16565b9350600860009054906101000a900473ffffffffffffffffffffffffffffffffffffffff1673ffffffffffffffffffffffffffffffffffffffff16631a4d01d2828561230b670de0b6b3a76400006122fd6127106122ef6122cb600f546127106143b290919063ffffffff16565b6122e18c600a0a8c61432c90919063ffffffff16565b61432c90919063ffffffff16565b6143fc90919063ffffffff16565b6143fc90919063ffffffff16565b6040518463ffffffff1660e01b8152600401808481526020018360ff1681526020018281526020019350505050600060405180830381600087803b15801561235257600080fd5b505af1158015612366573d6000803e3d6000fd5b505050505050808060010191505061210b565b5060005b60038160ff16101561268457600060138260ff166004811061239b57fe5b0181905550600060028260ff16600381106123b257fe5b0160009054906101000a900473ffffffffffffffffffffffffffffffffffffffff1673ffffffffffffffffffffffffffffffffffffffff166370a08231306040518263ffffffff1660e01b8152600401808273ffffffffffffffffffffffffffffffffffffffff16815260200191505060206040518083038186803b15801561243a57600080fd5b505afa15801561244e573d6000803e3d6000fd5b505050506040513d602081101561246457600080fd5b8101908080519060200190929190505050146126775760028160ff166003811061248a57fe5b0160009054906101000a900473ffffffffffffffffffffffffffffffffffffffff1673ffffffffffffffffffffffffffffffffffffffff166370a08231306040518263ffffffff1660e01b8152600401808273ffffffffffffffffffffffffffffffffffffffff16815260200191505060206040518083038186803b15801561251257600080fd5b505afa158015612526573d6000803e3d6000fd5b505050506040513d602081101561253c57600080fd5b8101908080519060200190929190505050838260ff166003811061255c57fe5b60200201818152505060028160ff166003811061257557fe5b0160009054906101000a900473ffffffffffffffffffffffffffffffffffffffff1673ffffffffffffffffffffffffffffffffffffffff1663a9059cbb60008054906101000a900473ffffffffffffffffffffffffffffffffffffffff16858460ff16600381106125e257fe5b60200201516040518363ffffffff1660e01b8152600401808373ffffffffffffffffffffffffffffffffffffffff16815260200182815260200192505050602060405180830381600087803b15801561263a57600080fd5b505af115801561264e573d6000803e3d6000fd5b505050506040513d602081101561266457600080fd5b8101908080519060200190929190505050505b808060010191505061237d565b50600060178190555081935050505090565b60185481565b600c60009054906101000a900473ffffffffffffffffffffffffffffffffffffffff1681565b61271081565b601381600481106126d557fe5b016000915090505481565b600a60009054906101000a900473ffffffffffffffffffffffffffffffffffffffff1681565b600960009054906101000a900473ffffffffffffffffffffffffffffffffffffffff1681565b60008054906101000a900473ffffffffffffffffffffffffffffffffffffffff1673ffffffffffffffffffffffffffffffffffffffff163373ffffffffffffffffffffffffffffffffffffffff161480612784575060015b6127f6576040517f08c379a000000000000000000000000000000000000000000000000000000000815260040180806020018281038252600e8152602001807f4e6f7420617574686f72697a656400000000000000000000000000000000000081525060200191505060405180910390fd5b60008060005b60038160ff16101561298c576000848260ff166003811061281957fe5b6020020151111561297f5760028160ff166003811061283457fe5b0160009054906101000a900473ffffffffffffffffffffffffffffffffffffffff1673ffffffffffffffffffffffffffffffffffffffff1663313ce5676040518163ffffffff1660e01b815260040160206040518083038186803b15801561289b57600080fd5b505afa1580156128af573d6000803e3d6000fd5b505050506040513d60208110156128c557600080fd5b810190808051906020019092919050505060ff169250612912848260ff16600381106128ed57fe5b602002015160138360ff166004811061290257fe5b01546143b290919063ffffffff16565b60138260ff166004811061292257fe5b018190555061297c61296d84600a0a61295f670de0b6b3a7640000888660ff166003811061294c57fe5b602002015161432c90919063ffffffff16565b6143fc90919063ffffffff16565b8361444690919063ffffffff16565b91505b80806001019150506127fc565b506000612a5e600860009054906101000a900473ffffffffffffffffffffffffffffffffffffffff1673ffffffffffffffffffffffffffffffffffffffff1663bb7b8b806040518163ffffffff1660e01b815260040160206040518083038186803b1580156129fa57600080fd5b505afa158015612a0e573d6000803e3d6000fd5b505050506040513d6020811015612a2457600080fd5b8101908080519060200190929190505050612a50670de0b6b3a76400008561432c90919063ffffffff16565b6143fc90919063ffffffff16565b9050612a9d612710612a8f612a80600f5461271061444690919063ffffffff16565b8461432c90919063ffffffff16565b6143fc90919063ffffffff16565b9050612aa88161303a565b600860009054906101000a900473ffffffffffffffffffffffffffffffffffffffff1673ffffffffffffffffffffffffffffffffffffffff16639fdaea0c85836040518363ffffffff1660e01b81526004018083600360200280838360005b83811015612b22578082015181840152602081019050612b07565b5050505090500182815260200192505050600060405180830381600087803b158015612b4d57600080fd5b505af1158015612b61573d6000803e3d6000fd5b5050505060005b60038160ff161015612d6d576000858260ff1660038110612b8557fe5b602002015114612d605760028160ff1660038110612b9f57fe5b0160009054906101000a900473ffffffffffffffffffffffffffffffffffffffff1673ffffffffffffffffffffffffffffffffffffffff1663a9059cbb60008054906101000a900473ffffffffffffffffffffffffffffffffffffffff1660028460ff1660038110612c0d57fe5b0160009054906101000a900473ffffffffffffffffffffffffffffffffffffffff1673ffffffffffffffffffffffffffffffffffffffff166370a08231306040518263ffffffff1660e01b8152600401808273ffffffffffffffffffffffffffffffffffffffff16815260200191505060206040518083038186803b158015612c9557600080fd5b505afa158015612ca9573d6000803e3d6000fd5b505050506040513d6020811015612cbf57600080fd5b81019080805190602001909291905050506040518363ffffffff1660e01b8152600401808373ffffffffffffffffffffffffffffffffffffffff16815260200182815260200192505050602060405180830381600087803b158015612d2357600080fd5b505af1158015612d37573d6000803e3d6000fd5b505050506040513d6020811015612d4d57600080fd5b8101908080519060200190929190505050505b8080600101915050612b68565b50612d83826017546143b290919063ffffffff16565b601781905550612d9161085b565b50505050565b3373ffffffffffffffffffffffffffffffffffffffff16601060009054906101000a900473ffffffffffffffffffffffffffffffffffffffff1673ffffffffffffffffffffffffffffffffffffffff161480612e3e575060008054906101000a900473ffffffffffffffffffffffffffffffffffffffff1673ffffffffffffffffffffffffffffffffffffffff163373ffffffffffffffffffffffffffffffffffffffff16145b612eb0576040517f08c379a000000000000000000000000000000000000000000000000000000000815260040180806020018281038252600e8152602001807f4e6f7420617574686f72697a656400000000000000000000000000000000000081525060200191505060405180910390fd5b601a60009054906101000a900473ffffffffffffffffffffffffffffffffffffffff1673ffffffffffffffffffffffffffffffffffffffff1663095ea7b3600c60009054906101000a900473ffffffffffffffffffffffffffffffffffffffff16846040518363ffffffff1660e01b8152600401808373ffffffffffffffffffffffffffffffffffffffff16815260200182815260200192505050602060405180830381600087803b158015612f6557600080fd5b505af1158015612f79573d6000803e3d6000fd5b505050506040513d6020811015612f8f57600080fd5b810190808051906020019092919050505050600c60009054906101000a900473ffffffffffffffffffffffffffffffffffffffff1673ffffffffffffffffffffffffffffffffffffffff166365fc387383836040518363ffffffff1660e01b81526004018083815260200182815260200192505050600060405180830381600087803b15801561301e57600080fd5b505af1158015613032573d6000803e3d6000fd5b505050505050565b3373ffffffffffffffffffffffffffffffffffffffff16601060009054906101000a900473ffffffffffffffffffffffffffffffffffffffff1673ffffffffffffffffffffffffffffffffffffffff1614806130e1575060008054906101000a900473ffffffffffffffffffffffffffffffffffffffff1673ffffffffffffffffffffffffffffffffffffffff163373ffffffffffffffffffffffffffffffffffffffff16145b613153576040517f08c379a000000000000000000000000000000000000000000000000000000000815260040180806020018281038252600e8152602001807f4e6f7420617574686f72697a656400000000000000000000000000000000000081525060200191505060405180910390fd5b80600a60009054906101000a900473ffffffffffffffffffffffffffffffffffffffff1673ffffffffffffffffffffffffffffffffffffffff166370a08231306040518263ffffffff1660e01b8152600401808273ffffffffffffffffffffffffffffffffffffffff16815260200191505060206040518083038186803b1580156131dd57600080fd5b505afa1580156131f1573d6000803e3d6000fd5b505050506040513d602081101561320757600080fd5b8101908080519060200190929190505050101561326f576040517f08c379a00000000000000000000000000000000000000000000000000000000081526004018080602001828103825260248152602001806146986024913960400191505060405180910390fd5b600a60009054906101000a900473ffffffffffffffffffffffffffffffffffffffff1673ffffffffffffffffffffffffffffffffffffffff16632e1a7d4d826040518263ffffffff1660e01b815260040180828152602001915050600060405180830381600087803b1580156132e457600080fd5b505af11580156132f8573d6000803e3d6000fd5b5050505050565b6000600a60009054906101000a900473ffffffffffffffffffffffffffffffffffffffff1673ffffffffffffffffffffffffffffffffffffffff166333134583306040518263ffffffff1660e01b8152600401808273ffffffffffffffffffffffffffffffffffffffff16815260200191505060206040518083038186803b15801561338a57600080fd5b505afa15801561339e573d6000803e3d6000fd5b505050506040513d60208110156133b457600080fd5b8101908080519060200190929190505050905090565b60008054906101000a900473ffffffffffffffffffffffffffffffffffffffff1673ffffffffffffffffffffffffffffffffffffffff163373ffffffffffffffffffffffffffffffffffffffff161480613422575060015b613494576040517f08c379a000000000000000000000000000000000000000000000000000000000815260040180806020018281038252600e8152602001807f4e6f7420617574686f72697a656400000000000000000000000000000000000081525060200191505060405180910390fd5b600080600090505b60038160ff16101561379f576000838260ff16600381106134b957fe5b6020020151111561379257600060028260ff16600381106134d657fe5b0160009054906101000a900473ffffffffffffffffffffffffffffffffffffffff1673ffffffffffffffffffffffffffffffffffffffff1663313ce5676040518163ffffffff1660e01b815260040160206040518083038186803b15801561353d57600080fd5b505afa158015613551573d6000803e3d6000fd5b505050506040513d602081101561356757600080fd5b810190808051906020019092919050505060ff16905060028260ff166003811061358d57fe5b0160009054906101000a900473ffffffffffffffffffffffffffffffffffffffff1673ffffffffffffffffffffffffffffffffffffffff1663095ea7b3600860009054906101000a900473ffffffffffffffffffffffffffffffffffffffff16868560ff16600381106135fc57fe5b60200201516040518363ffffffff1660e01b8152600401808373ffffffffffffffffffffffffffffffffffffffff16815260200182815260200192505050602060405180830381600087803b15801561365457600080fd5b505af1158015613668573d6000803e3d6000fd5b505050506040513d602081101561367e57600080fd5b8101908080519060200190929190505050506136c7848360ff16600381106136a257fe5b602002015160138460ff16600481106136b757fe5b015461444690919063ffffffff16565b60138360ff16600481106136d757fe5b018190555061373361372282600a0a613714670de0b6b3a7640000888760ff166003811061370157fe5b602002015161432c90919063ffffffff16565b6143fc90919063ffffffff16565b60175461444690919063ffffffff16565b60178190555061378e61377f82600a0a613771670de0b6b3a7640000888760ff166003811061375e57fe5b602002015161432c90919063ffffffff16565b6143fc90919063ffffffff16565b8461444690919063ffffffff16565b9250505b808060010191505061349c565b506000806137ab613f16565b809250819350505080156137d9576137ce8260115461444690919063ffffffff16565b6011819055506137f5565b6137ee826011546143b290919063ffffffff16565b6011819055505b60006138c6600860009054906101000a900473ffffffffffffffffffffffffffffffffffffffff1673ffffffffffffffffffffffffffffffffffffffff1663bb7b8b806040518163ffffffff1660e01b815260040160206040518083038186803b15801561386257600080fd5b505afa158015613876573d6000803e3d6000fd5b505050506040513d602081101561388c57600080fd5b81019080805190602001909291905050506138b8670de0b6b3a76400008761432c90919063ffffffff16565b6143fc90919063ffffffff16565b9050600860009054906101000a900473ffffffffffffffffffffffffffffffffffffffff1673ffffffffffffffffffffffffffffffffffffffff16634515cef386613944612710613936613927600e546127106143b290919063ffffffff16565b8761432c90919063ffffffff16565b6143fc90919063ffffffff16565b6040518363ffffffff1660e01b81526004018083600360200280838360005b8381101561397e578082015181840152602081019050613963565b5050505090500182815260200192505050600060405180830381600087803b1580156139a957600080fd5b505af11580156139bd573d6000803e3d6000fd5b50505050600860009054906101000a900473ffffffffffffffffffffffffffffffffffffffff1673ffffffffffffffffffffffffffffffffffffffff1663bb7b8b806040518163ffffffff1660e01b815260040160206040518083038186803b158015613a2957600080fd5b505afa158015613a3d573d6000803e3d6000fd5b505050506040513d6020811015613a5357600080fd5b8101908080519060200190929190505050601881905550613a7261085b565b5050505050565b60125481565b3373ffffffffffffffffffffffffffffffffffffffff16601060009054906101000a900473ffffffffffffffffffffffffffffffffffffffff1673ffffffffffffffffffffffffffffffffffffffff161480613b26575060008054906101000a900473ffffffffffffffffffffffffffffffffffffffff1673ffffffffffffffffffffffffffffffffffffffff163373ffffffffffffffffffffffffffffffffffffffff16145b613b98576040517f08c379a000000000000000000000000000000000000000000000000000000000815260040180806020018281038252600e8152602001807f4e6f7420617574686f72697a656400000000000000000000000000000000000081525060200191505060405180910390fd5b600c60009054906101000a900473ffffffffffffffffffffffffffffffffffffffff1673ffffffffffffffffffffffffffffffffffffffff16633ccfd60b6040518163ffffffff1660e01b8152600401600060405180830381600087803b158015613c0257600080fd5b505af1158015613c16573d6000803e3d6000fd5b50505050565b3373ffffffffffffffffffffffffffffffffffffffff16601060009054906101000a900473ffffffffffffffffffffffffffffffffffffffff1673ffffffffffffffffffffffffffffffffffffffff161480613cc3575060008054906101000a900473ffffffffffffffffffffffffffffffffffffffff1673ffffffffffffffffffffffffffffffffffffffff163373ffffffffffffffffffffffffffffffffffffffff16145b613d35576040517f08c379a000000000000000000000000000000000000000000000000000000000815260040180806020018281038252600e8152602001807f4e6f7420617574686f72697a656400000000000000000000000000000000000081525060200191505060405180910390fd5b600d60009054906101000a900473ffffffffffffffffffffffffffffffffffffffff1673ffffffffffffffffffffffffffffffffffffffff16634e71d92d6040518163ffffffff1660e01b8152600401600060405180830381600087803b158015613d9f57600080fd5b505af1158015613db3573d6000803e3d6000fd5b50505050565b3373ffffffffffffffffffffffffffffffffffffffff16601060009054906101000a900473ffffffffffffffffffffffffffffffffffffffff1673ffffffffffffffffffffffffffffffffffffffff161480613e60575060008054906101000a900473ffffffffffffffffffffffffffffffffffffffff1673ffffffffffffffffffffffffffffffffffffffff163373ffffffffffffffffffffffffffffffffffffffff16145b613ed2576040517f08c379a000000000000000000000000000000000000000000000000000000000815260040180806020018281038252600e8152602001807f4e6f7420617574686f72697a656400000000000000000000000000000000000081525060200191505060405180910390fd5b80601060006101000a81548173ffffffffffffffffffffffffffffffffffffffff021916908373ffffffffffffffffffffffffffffffffffffffff16021790555050565b600080601854600860009054906101000a900473ffffffffffffffffffffffffffffffffffffffff1673ffffffffffffffffffffffffffffffffffffffff1663bb7b8b806040518163ffffffff1660e01b815260040160206040518083038186803b158015613f8457600080fd5b505afa158015613f98573d6000803e3d6000fd5b505050506040513d6020811015613fae57600080fd5b8101908080519060200190929190505050106141755761416a670de0b6b3a764000061415c61408a601854600860009054906101000a900473ffffffffffffffffffffffffffffffffffffffff1673ffffffffffffffffffffffffffffffffffffffff1663bb7b8b806040518163ffffffff1660e01b815260040160206040518083038186803b15801561404157600080fd5b505afa158015614055573d6000803e3d6000fd5b505050506040513d602081101561406b57600080fd5b81019080805190602001909291905050506143b290919063ffffffff16565b600a60009054906101000a900473ffffffffffffffffffffffffffffffffffffffff1673ffffffffffffffffffffffffffffffffffffffff166370a08231306040518263ffffffff1660e01b8152600401808273ffffffffffffffffffffffffffffffffffffffff16815260200191505060206040518083038186803b15801561411357600080fd5b505afa158015614127573d6000803e3d6000fd5b505050506040513d602081101561413d57600080fd5b810190808051906020019092919050505061432c90919063ffffffff16565b6143fc90919063ffffffff16565b600191509150614322565b61431b670de0b6b3a764000061430d61423b600860009054906101000a900473ffffffffffffffffffffffffffffffffffffffff1673ffffffffffffffffffffffffffffffffffffffff1663bb7b8b806040518163ffffffff1660e01b815260040160206040518083038186803b1580156141ef57600080fd5b505afa158015614203573d6000803e3d6000fd5b505050506040513d602081101561421957600080fd5b81019080805190602001909291905050506018546143b290919063ffffffff16565b600a60009054906101000a900473ffffffffffffffffffffffffffffffffffffffff1673ffffffffffffffffffffffffffffffffffffffff166370a08231306040518263ffffffff1660e01b8152600401808273ffffffffffffffffffffffffffffffffffffffff16815260200191505060206040518083038186803b1580156142c457600080fd5b505afa1580156142d8573d6000803e3d6000fd5b505050506040513d60208110156142ee57600080fd5b810190808051906020019092919050505061432c90919063ffffffff16565b6143fc90919063ffffffff16565b6000915091505b9091565b60175481565b60008083141561433f57600090506143ac565b600082840290508284828161435057fe5b04146143a7576040517f08c379a00000000000000000000000000000000000000000000000000000000081526004018080602001828103825260218152602001806146776021913960400191505060405180910390fd5b809150505b92915050565b60006143f483836040518060400160405280601e81526020017f536166654d6174683a207375627472616374696f6e206f766572666c6f7700008152506144ce565b905092915050565b600061443e83836040518060400160405280601a81526020017f536166654d6174683a206469766973696f6e206279207a65726f00000000000081525061458e565b905092915050565b6000808284019050838110156144c4576040517f08c379a000000000000000000000000000000000000000000000000000000000815260040180806020018281038252601b8152602001807f536166654d6174683a206164646974696f6e206f766572666c6f77000000000081525060200191505060405180910390fd5b8091505092915050565b600083831115829061457b576040517f08c379a00000000000000000000000000000000000000000000000000000000081526004018080602001828103825283818151815260200191508051906020019080838360005b83811015614540578082015181840152602081019050614525565b50505050905090810190601f16801561456d5780820380516001836020036101000a031916815260200191505b509250505060405180910390fd5b5060008385039050809150509392505050565b6000808311829061463a576040517f08c379a00000000000000000000000000000000000000000000000000000000081526004018080602001828103825283818151815260200191508051906020019080838360005b838110156145ff5780820151818401526020810190506145e4565b50505050905090810190601f16801561462c5780820380516001836020036101000a031916815260200191505b509250505060405180910390fd5b50600083858161464657fe5b049050809150509392505050565b604051806060016040528060039060208202803683378082019150509050509056fe536166654d6174683a206d756c7469706c69636174696f6e206f766572666c6f77596f752068617665206e6f74207374616b65642074686174206d75636820616d6f756e74a264697066735822122084638356d800c1956cc2bf6b293700d08a0c10f1a74d299788786c1d1416f1c264736f6c634300060c0033",
  "immutableReferences": {},
  "source": "// SPDX-License-Identifier: UNLICENSED\r\npragma solidity ^0.6.0;\r\n\r\nimport '../../Interfaces/IERC20Interface.sol';\r\nimport '../../Interfaces/CurveInterface.sol';\r\nimport '../../Interfaces/UniswapInterface.sol';\r\nimport '@openzeppelin/contracts/math/SafeMath.sol';\r\n\r\ncontract CurveStrategy {\r\n\r\n    using SafeMath for uint256;\r\n\r\n    address royaleAddress;\r\n    IERC20 poolToken;\r\n    IERC20[3] Coins;  // DAI / USDC / USDT\r\n    IERC20[3] uCoins; // yDAI / yUSDC / yUSDT\r\n    CurvePool public pool;\r\n    DepositY public depositY;\r\n    PoolGauge public gauge;\r\n    Minter public minter;\r\n    VoteEscrow public voteEscrow;\r\n    FeeDistributor public feeDistributor;\r\n\r\n    uint256 public constant DENOMINATOR = 10000;\r\n\r\n    uint256 public DepositSlip = 100;\r\n\r\n    uint256 public withdrawSlip = 200;\r\n\r\n    address public wallet;\r\n    \r\n    uint256 totalProfit;\r\n    \r\n    uint256 public crvBreak=10000;\r\n    \r\n    uint256[4] public depositBal;\r\n\r\n    uint256 public totalDeposited;\r\n\r\n    uint256 public virtualPrice;\r\n \r\n    bool public TEST = true; // For testing uniswap , should be removed on deployment to the mainnet\r\n\r\n    address public uniAddr  = address(0x7a250d5630B4cF539739dF2C5dAcb4c659F2488D);\r\n    address public crvAddr  = address(0x5dDBDBB1D1e691d2994d4A44470EB07dFCbd57C3);\r\n    address public wethAddr = address(0xC02aaA39b223FE8D0A0e5C4F27eAD9083C756Cc2);\r\n\r\n\r\n    modifier onlyWallet(){\r\n      require(wallet == msg.sender|| msg.sender==royaleAddress, \"Not authorized\");\r\n      _;\r\n    }\r\n\r\n    modifier onlyRoyaleLP() {\r\n        require(msg.sender == royaleAddress || true, \"Not authorized\");\r\n        _;\r\n    }\r\n\r\n    constructor(\r\n         address _wallet,\r\n         IERC20[3] memory coins, \r\n         IERC20[3] memory ucoins,\r\n         address _royaleaddress,\r\n         address _crvpool,\r\n         address _depositY,\r\n         address _poolToken,\r\n         address _gauge,\r\n         address _minter\r\n         ) public {\r\n\r\n        wallet=_wallet;\r\n        Coins = coins;\r\n        uCoins=ucoins;\r\n        royaleAddress =_royaleaddress;\r\n        depositY=DepositY(_depositY);\r\n        pool = CurvePool(_crvpool);\r\n        poolToken = IERC20(_poolToken);\r\n        gauge = PoolGauge(_gauge);\r\n        minter=Minter(_minter);\r\n        \r\n    }\r\n\r\n\r\n    function setCRVBreak(uint256 _percentage)external onlyWallet(){\r\n        crvBreak=_percentage;\r\n    }\r\n\r\n    function transferOwnership(address _wallet) external onlyWallet(){\r\n        wallet=_wallet;\r\n    }\r\n\r\n\r\n// Functions to deposit and withdraw stable coins in the y pool and recieve LP tokens (Ycrv)\r\n\r\n\r\n    function updateArray(uint[3] memory amount) internal pure returns(uint[4] memory){\r\n        uint256[4] memory uamount;\r\n        for(uint8 i=0;i<3;i++){\r\n                uamount[i]=amount[i];\r\n        }\r\n        uamount[3]=0;\r\n        return uamount;\r\n    }\r\n\r\n    function deposit(uint[3] memory amounts) external onlyRoyaleLP(){\r\n        //uint256[4] memory amounts;\r\n        //uint[4] memory damount;\r\n        uint currentTotal;\r\n        //amounts=updateArray(amount);\r\n        for(uint8 i=0; i<3; i++) {\r\n            if(amounts[i] > 0) {\r\n               uint decimal;\r\n               decimal=Coins[i].decimals();\r\n               Coins[i].approve(address(pool), amounts[i]); \r\n               depositBal[i] =depositBal[i].add(amounts[i]);\r\n               totalDeposited = totalDeposited.add(amounts[i].mul(1e18).div(10**decimal));\r\n               //damount[i] = amounts[i].mul(1e18).div(uCoins[i].getPricePerFullShare());\r\n               currentTotal =currentTotal.add(amounts[i].mul(1e18).div(10**decimal));\r\n            }\r\n        }\r\n        uint256 returnedAmount;\r\n        bool status;\r\n        (returnedAmount,status)=calculateProfit();\r\n        if(status){\r\n            totalProfit =totalProfit.add(returnedAmount);\r\n        }\r\n        else{\r\n            totalProfit =totalProfit.sub(returnedAmount);\r\n        } \r\n        uint256 mintAmount = currentTotal.mul(1e18).div(pool.get_virtual_price());\r\n        pool.add_liquidity(amounts,  mintAmount.mul(DENOMINATOR.sub(DepositSlip)).div(DENOMINATOR));\r\n        virtualPrice=pool.get_virtual_price();\r\n        stakeLP();   \r\n    }\r\n\r\n    function withdraw(uint[3] memory amounts) external onlyRoyaleLP() {\r\n        //uint256[4] memory amounts;\r\n        //uint[4] memory damount;\r\n        uint decimal;\r\n        uint currentTotal;\r\n        //amounts=updateArray(amount);\r\n        for(uint8 i=0;i<3;i++){\r\n            if(amounts[i]>0){\r\n                decimal = Coins[i].decimals();\r\n                depositBal[i] =depositBal[i].sub(amounts[i]);\r\n               // totalDeposited =totalDeposited.sub(amounts[i].mul(1e18).div(10**decimal));\r\n                //damount[i] = amounts[i].mul(1e18).div(uCoins[i].getPricePerFullShare());\r\n                currentTotal =currentTotal.add(amounts[i].mul(1e18).div(10**decimal));\r\n            }  \r\n        }\r\n        uint256 max_burn = currentTotal.mul(1e18).div(pool.get_virtual_price());\r\n        max_burn=max_burn.mul(DENOMINATOR.add(withdrawSlip)).div(DENOMINATOR);\r\n        unstakeLP(max_burn);\r\n        pool.remove_liquidity_imbalance(amounts, max_burn);\r\n        for(uint8 i=0;i<3;i++){\r\n            if(amounts[i]!=0){\r\n               Coins[i].transfer(royaleAddress, Coins[i].balanceOf(address(this)));\r\n            }\r\n        } \r\n        totalDeposited=totalDeposited.sub(currentTotal);\r\n        stakeLP();\r\n    }\r\n\r\n    function withdrawAll() external onlyRoyaleLP() returns(uint256[3] memory){\r\n        unstakeLP(gauge.balanceOf(address(this)));\r\n        uint256 poolTokenBalance;\r\n        uint256[3] memory withdrawAmt;\r\n        uint totalBurnt;\r\n        poolTokenBalance=poolToken.balanceOf(address(this));\r\n        for(uint8 i=0;i<3;i++){\r\n            uint decimal;\r\n            uint poolTokenShare;\r\n            decimal=Coins[i].decimals();\r\n            if(i==2){\r\n                poolTokenShare =poolTokenBalance.sub(totalBurnt);\r\n            }\r\n            else{\r\n                poolTokenShare= poolTokenBalance.mul(10**(18-decimal)).mul(depositBal[i]).div(totalDeposited);\r\n            }\r\n            totalBurnt =totalBurnt.add(poolTokenShare);\r\n            pool.remove_liquidity_one_coin(poolTokenShare, i, poolTokenShare.mul(10**decimal).mul(DENOMINATOR.sub(withdrawSlip)).div(DENOMINATOR).div(10**18));\r\n        }\r\n        for(uint8 i=0;i<3;i++){\r\n            depositBal[i] =0;\r\n            if(Coins[i].balanceOf(address(this))!=0){\r\n                 withdrawAmt[i]= Coins[i].balanceOf(address(this));\r\n                 Coins[i].transfer(royaleAddress,withdrawAmt[i]);\r\n            }\r\n        }\r\n        totalDeposited=0;\r\n        return withdrawAmt; \r\n    } \r\n\r\n\r\n\r\n    // Functions to stake and unstake LPTokens(Ycrv) and claim CRV\r\n\r\n    function stakeLP() public onlyWallet {\r\n        uint depositAmt = poolToken.balanceOf(address(this)) ;\r\n        poolToken.approve(address(gauge), depositAmt);\r\n        gauge.deposit(depositAmt);  \r\n    }\r\n\r\n    function unstakeLP(uint _amount) public  onlyWallet{\r\n        require(gauge.balanceOf(address(this)) >= _amount,\"You have not staked that much amount\");\r\n        gauge.withdraw(_amount);\r\n    }\r\n\r\n\r\n    function checkClaimableToken()public view  returns(uint256){\r\n        return gauge.claimable_tokens(address(this));\r\n    }\r\n\r\n    function claimCRV() public onlyWallet{\r\n        minter.mint(address(gauge));\r\n    }\r\n\r\n    // Functions to lock and unlock CRV and recieve VeCRV\r\n\r\n    function createLock(uint256 _value,uint256 _unlockTime) external onlyWallet(){\r\n        IERC20(crvAddr).approve(address(voteEscrow), _value);\r\n        voteEscrow.create_lock(_value, _unlockTime);\r\n    }\r\n\r\n    function increaseLockAmount(uint256 _value) external onlyWallet(){\r\n        IERC20(crvAddr).approve(address(voteEscrow), _value);\r\n        voteEscrow.increase_amount(_value);\r\n    }\r\n\r\n    function releaseLock() external onlyWallet(){\r\n        voteEscrow.withdraw();\r\n    }\r\n\r\n    function claim3CRV()public onlyWallet(){\r\n        feeDistributor.claim();\r\n    }\r\n\r\n    // Function to sell CRV\r\n\r\n    function sellCRV(uint8 _index) public onlyWallet() returns(uint256) {  //here index=0 means convert crv into DAI , index=1 means crv into USDC , index=2 means crv into USDT\r\n        uint256 crvAmt = IERC20(crvAddr).balanceOf(address(this));\r\n        uint256 prevCoin = Coins[_index].balanceOf(address(this));\r\n        require(crvAmt > 0, \"insufficient CRV\");\r\n        crvAmt=crvAmt.mul(crvBreak).div(DENOMINATOR);\r\n        IERC20(crvAddr).approve(uniAddr, crvAmt);\r\n        address[] memory path; \r\n        if(TEST) {\r\n            path = new address[](2);\r\n            path[0] = crvAddr;\r\n            path[1] = address(Coins[_index]);\r\n\r\n        } else {\r\n            path = new address[](3);\r\n            path[0] = crvAddr;\r\n            path[1] = wethAddr;\r\n            path[2] = address(Coins[_index]);\r\n        }\r\n        UniswapI(uniAddr).swapExactTokensForTokens(\r\n            crvAmt, \r\n            uint256(0), \r\n            path, \r\n            address(this), \r\n            now + 1800\r\n        );\r\n        uint256 postCoin=Coins[_index].balanceOf(address(this));\r\n        return (postCoin-prevCoin);\r\n    }\r\n\r\n    function calculateProfit()public view returns(uint256,bool) {\r\n        if(pool.get_virtual_price() >= virtualPrice){\r\n            return (gauge.balanceOf(address(this)).mul(pool.get_virtual_price().sub(virtualPrice)).div(10**18),true);\r\n        }    \r\n        else{\r\n            return (gauge.balanceOf(address(this)).mul(virtualPrice.sub(pool.get_virtual_price())).div(10**18),false);\r\n        }\r\n        \r\n    }\r\n\r\n\r\n    function gaugeBoostCalculator() public view returns(uint256){\r\n          uint minimumVeCRV ;\r\n          minimumVeCRV =(gauge.balanceOf(address(this)).mul(100)).sub((gauge.balanceOf(address(this)).mul(40))).mul(voteEscrow.totalSupply()).div(gauge.totalSupply().mul(60));\r\n          return minimumVeCRV;\r\n    }\r\n}",
  "sourcePath": "C:/Users/vishn/OneDrive/Desktop/RoyaleProject/RoyaleFinance/royale-contracts/contracts/Pool/rCurveStrategy.sol",
  "compiler": {
    "name": "solc",
    "version": "0.6.12+commit.27d51765.Emscripten.clang"
  },
  "schemaVersion": "3.3.2",
  "updatedAt": "2021-02-12T05:36:02.940Z",
  "devdoc": {
    "kind": "dev",
    "methods": {},
    "version": 1
  },
  "userdoc": {
    "kind": "user",
    "methods": {},
    "version": 1
  }
}