{
  "contractName": "multiSig",
  "abi": [
    {
      "inputs": [],
      "name": "MAX_SIGNEE_COUNT",
      "outputs": [
        {
          "internalType": "uint256",
          "name": "",
          "type": "uint256"
        }
      ],
      "stateMutability": "view",
      "type": "function"
    },
    {
      "inputs": [
        {
          "internalType": "address",
          "name": "",
          "type": "address"
        },
        {
          "internalType": "address",
          "name": "",
          "type": "address"
        }
      ],
      "name": "confirmations",
      "outputs": [
        {
          "internalType": "bool",
          "name": "",
          "type": "bool"
        }
      ],
      "stateMutability": "view",
      "type": "function"
    },
    {
      "inputs": [],
      "name": "counter",
      "outputs": [
        {
          "internalType": "uint256",
          "name": "",
          "type": "uint256"
        }
      ],
      "stateMutability": "view",
      "type": "function"
    },
    {
      "inputs": [],
      "name": "fees",
      "outputs": [
        {
          "internalType": "uint128",
          "name": "",
          "type": "uint128"
        }
      ],
      "stateMutability": "view",
      "type": "function"
    },
    {
      "inputs": [
        {
          "internalType": "address",
          "name": "",
          "type": "address"
        }
      ],
      "name": "isInQ",
      "outputs": [
        {
          "internalType": "bool",
          "name": "",
          "type": "bool"
        }
      ],
      "stateMutability": "view",
      "type": "function"
    },
    {
      "inputs": [
        {
          "internalType": "address",
          "name": "",
          "type": "address"
        }
      ],
      "name": "isSignee",
      "outputs": [
        {
          "internalType": "bool",
          "name": "",
          "type": "bool"
        }
      ],
      "stateMutability": "view",
      "type": "function"
    },
    {
      "inputs": [],
      "name": "owner",
      "outputs": [
        {
          "internalType": "address",
          "name": "",
          "type": "address"
        }
      ],
      "stateMutability": "view",
      "type": "function"
    },
    {
      "inputs": [],
      "name": "ownerAddress",
      "outputs": [
        {
          "internalType": "address",
          "name": "",
          "type": "address"
        }
      ],
      "stateMutability": "view",
      "type": "function"
    },
    {
      "inputs": [],
      "name": "required",
      "outputs": [
        {
          "internalType": "uint256",
          "name": "",
          "type": "uint256"
        }
      ],
      "stateMutability": "view",
      "type": "function"
    },
    {
      "inputs": [],
      "name": "royaleLPContract",
      "outputs": [
        {
          "internalType": "address",
          "name": "",
          "type": "address"
        }
      ],
      "stateMutability": "view",
      "type": "function"
    },
    {
      "inputs": [
        {
          "internalType": "uint256",
          "name": "",
          "type": "uint256"
        }
      ],
      "name": "selfBalance",
      "outputs": [
        {
          "internalType": "uint256",
          "name": "",
          "type": "uint256"
        }
      ],
      "stateMutability": "view",
      "type": "function"
    },
    {
      "inputs": [
        {
          "internalType": "uint256",
          "name": "",
          "type": "uint256"
        }
      ],
      "name": "signees",
      "outputs": [
        {
          "internalType": "address",
          "name": "",
          "type": "address"
        }
      ],
      "stateMutability": "view",
      "type": "function"
    },
    {
      "inputs": [
        {
          "internalType": "uint256",
          "name": "",
          "type": "uint256"
        }
      ],
      "name": "totalWithdraw",
      "outputs": [
        {
          "internalType": "uint256",
          "name": "",
          "type": "uint256"
        }
      ],
      "stateMutability": "view",
      "type": "function"
    },
    {
      "inputs": [],
      "name": "transactionCount",
      "outputs": [
        {
          "internalType": "uint256",
          "name": "",
          "type": "uint256"
        }
      ],
      "stateMutability": "view",
      "type": "function"
    },
    {
      "inputs": [
        {
          "internalType": "address",
          "name": "",
          "type": "address"
        }
      ],
      "name": "transactions",
      "outputs": [
        {
          "internalType": "address",
          "name": "gamingCompany",
          "type": "address"
        },
        {
          "internalType": "bool",
          "name": "isGamingCompanySigned",
          "type": "bool"
        },
        {
          "internalType": "bool",
          "name": "approved",
          "type": "bool"
        },
        {
          "internalType": "bool",
          "name": "executed",
          "type": "bool"
        }
      ],
      "stateMutability": "view",
      "type": "function"
    },
    {
      "inputs": [
        {
          "internalType": "uint256[3]",
          "name": "amounts",
          "type": "uint256[3]"
        }
      ],
      "name": "requestLoan",
      "outputs": [],
      "stateMutability": "nonpayable",
      "type": "function"
    },
    {
      "inputs": [],
      "name": "signTransaction",
      "outputs": [],
      "stateMutability": "nonpayable",
      "type": "function"
    },
    {
      "inputs": [
        {
          "internalType": "address",
          "name": "addr",
          "type": "address"
        }
      ],
      "name": "confirmLoan",
      "outputs": [],
      "stateMutability": "nonpayable",
      "type": "function"
    },
    {
      "inputs": [
        {
          "internalType": "address",
          "name": "addr",
          "type": "address"
        }
      ],
      "name": "checkLoanApproved",
      "outputs": [
        {
          "internalType": "bool",
          "name": "",
          "type": "bool"
        }
      ],
      "stateMutability": "view",
      "type": "function"
    },
    {
      "inputs": [
        {
          "internalType": "address",
          "name": "addr",
          "type": "address"
        }
      ],
      "name": "getTransactionDetail",
      "outputs": [
        {
          "components": [
            {
              "internalType": "address",
              "name": "gamingCompany",
              "type": "address"
            },
            {
              "internalType": "bool",
              "name": "isGamingCompanySigned",
              "type": "bool"
            },
            {
              "internalType": "uint256[3]",
              "name": "tokenAmounts",
              "type": "uint256[3]"
            },
            {
              "internalType": "uint256[3]",
              "name": "remAmt",
              "type": "uint256[3]"
            },
            {
              "internalType": "bool",
              "name": "approved",
              "type": "bool"
            },
            {
              "internalType": "bool",
              "name": "executed",
              "type": "bool"
            }
          ],
          "internalType": "struct RoyaleLPstorage.Transaction",
          "name": "",
          "type": "tuple"
        }
      ],
      "stateMutability": "view",
      "type": "function"
    },
    {
      "inputs": [
        {
          "internalType": "uint256",
          "name": "_required",
          "type": "uint256"
        }
      ],
      "name": "setRequiredSignee",
      "outputs": [],
      "stateMutability": "nonpayable",
      "type": "function"
    },
    {
      "inputs": [
        {
          "internalType": "address",
          "name": "signee",
          "type": "address"
        }
      ],
      "name": "addSignee",
      "outputs": [],
      "stateMutability": "nonpayable",
      "type": "function"
    },
    {
      "inputs": [
        {
          "internalType": "address",
          "name": "signee",
          "type": "address"
        }
      ],
      "name": "removeSignee",
      "outputs": [],
      "stateMutability": "nonpayable",
      "type": "function"
    }
  ],
  "bytecode": "0x60806040526001805560006002556019600460006101000a8154816fffffffffffffffffffffffffffffffff02191690836fffffffffffffffffffffffffffffffff160217905550600e600f60006101000a8154816fffffffffffffffffffffffffffffffff02191690836fffffffffffffffffffffffffffffffff1602179055506000601e5534801561009257600080fd5b506118fe806100a26000396000f3fe608060405234801561001057600080fd5b506004361061014d5760003560e01c8063905f692e116100c3578063b0580ce91161007c578063b0580ce9146103a0578063b77bf600146103bc578063c32fdf34146103da578063d80a93d61461040d578063db28bfd01461043d578063dc8452cd1461046d5761014d565b8063905f692e146102cc578063948af9ac146102fc5780639af1d35a1461032c5780639b3641621461034a5780639b83bc4e14610366578063a3069149146103845761014d565b806362a945d11161011557806362a945d11461020a57806367b142fc1461022657806369850424146102305780636d45bae2146102605780638da5cb5b146102905780638f84aa09146102ae5761014d565b80630385b581146101525780630f8cdd88146101825780631880432a1461019e578063554fd171146101bc57806361bc221a146101ec575b600080fd5b61016c600480360381019061016791906114be565b61048b565b604051610179919061176b565b60405180910390f35b61019c600480360381019061019791906114be565b6104ab565b005b6101a66105c3565b6040516101b391906117dd565b60405180910390f35b6101d660048036038101906101d191906114e7565b6105c8565b6040516101e3919061176b565b60405180910390f35b6101f46105f7565b60405161020191906117dd565b60405180910390f35b610224600480360381019061021f9190611523565b6105fd565b005b61022e61068a565b005b61024a6004803603810190610245919061154c565b610781565b60405161025791906117dd565b60405180910390f35b61027a600480360381019061027591906114be565b610799565b604051610287919061176b565b60405180910390f35b6102986107f2565b6040516102a5919061170b565b60405180910390f35b6102b6610818565b6040516102c3919061170b565b60405180910390f35b6102e660048036038101906102e191906114be565b61083e565b6040516102f3919061176b565b60405180910390f35b610316600480360381019061031191906114be565b61085e565b60405161032391906117a6565b60405180910390f35b6103346109e8565b60405161034191906117c2565b60405180910390f35b610364600480360381019061035f91906114be565b610a0a565b005b61036e610c01565b60405161037b919061170b565b60405180910390f35b61039e600480360381019061039991906114be565b610c27565b005b6103ba60048036038101906103b5919061154c565b610e65565b005b6103c4610eac565b6040516103d191906117dd565b60405180910390f35b6103f460048036038101906103ef91906114be565b610eb2565b6040516104049493929190611726565b60405180910390f35b6104276004803603810190610422919061154c565b610f29565b604051610434919061170b565b60405180910390f35b6104576004803603810190610452919061154c565b610f65565b60405161046491906117dd565b60405180910390f35b610475610f7d565b60405161048291906117dd565b60405180910390f35b601c6020528060005260406000206000915054906101000a900460ff1681565b600860009054906101000a900473ffffffffffffffffffffffffffffffffffffffff1673ffffffffffffffffffffffffffffffffffffffff163373ffffffffffffffffffffffffffffffffffffffff161461050557600080fd5b6001601c60008373ffffffffffffffffffffffffffffffffffffffff1673ffffffffffffffffffffffffffffffffffffffff16815260200190815260200160002060006101000a81548160ff021916908315150217905550601d819080600181540180825580915050600190039060005260206000200160009091909190916101000a81548173ffffffffffffffffffffffffffffffffffffffff021916908373ffffffffffffffffffffffffffffffffffffffff16021790555050565b603281565b601a6020528160005260406000206020528060005260406000206000915091509054906101000a900460ff1681565b60205481565b601f54601d805490501015610647576040517f08c379a000000000000000000000000000000000000000000000000000000000815260040161063e90611786565b60405180910390fd5b610687816003806020026040519081016040528092919082600360200280828437600081840152601f19601f820116905080830192505050505050610f83565b50565b3373ffffffffffffffffffffffffffffffffffffffff16601960003373ffffffffffffffffffffffffffffffffffffffff1673ffffffffffffffffffffffffffffffffffffffff16815260200190815260200160002060000160009054906101000a900473ffffffffffffffffffffffffffffffffffffffff1673ffffffffffffffffffffffffffffffffffffffff161461072457600080fd5b6001601960003373ffffffffffffffffffffffffffffffffffffffff1673ffffffffffffffffffffffffffffffffffffffff16815260200190815260200160002060000160146101000a81548160ff021916908315150217905550565b6005816003811061078e57fe5b016000915090505481565b6000601960008373ffffffffffffffffffffffffffffffffffffffff1673ffffffffffffffffffffffffffffffffffffffff16815260200190815260200160002060070160009054906101000a900460ff169050919050565b600860009054906101000a900473ffffffffffffffffffffffffffffffffffffffff1681565b602160009054906101000a900473ffffffffffffffffffffffffffffffffffffffff1681565b60146020528060005260406000206000915054906101000a900460ff1681565b61086661135c565b601960008373ffffffffffffffffffffffffffffffffffffffff1673ffffffffffffffffffffffffffffffffffffffff1681526020019081526020016000206040518060c00160405290816000820160009054906101000a900473ffffffffffffffffffffffffffffffffffffffff1673ffffffffffffffffffffffffffffffffffffffff1673ffffffffffffffffffffffffffffffffffffffff1681526020016000820160149054906101000a900460ff161515151581526020016001820160038060200260405190810160405280929190826003801561095d576020028201915b815481526020019060010190808311610949575b50505050508152602001600482016003806020026040519081016040528092919082600380156109a2576020028201915b81548152602001906001019080831161098e575b505050505081526020016007820160009054906101000a900460ff161515151581526020016007820160019054906101000a900460ff1615151515815250509050919050565b600460009054906101000a90046fffffffffffffffffffffffffffffffff1681565b80601c60008273ffffffffffffffffffffffffffffffffffffffff1673ffffffffffffffffffffffffffffffffffffffff16815260200190815260200160002060009054906101000a900460ff16610a6157600080fd5b6000601c60008473ffffffffffffffffffffffffffffffffffffffff1673ffffffffffffffffffffffffffffffffffffffff16815260200190815260200160002060006101000a81548160ff02191690831515021790555060005b6001601d8054905003811015610bde578273ffffffffffffffffffffffffffffffffffffffff16601d8281548110610af057fe5b9060005260206000200160009054906101000a900473ffffffffffffffffffffffffffffffffffffffff1673ffffffffffffffffffffffffffffffffffffffff161415610bd157601d6001601d805490500381548110610b4c57fe5b9060005260206000200160009054906101000a900473ffffffffffffffffffffffffffffffffffffffff16601d8281548110610b8457fe5b9060005260206000200160006101000a81548173ffffffffffffffffffffffffffffffffffffffff021916908373ffffffffffffffffffffffffffffffffffffffff160217905550610bde565b8080600101915050610abc565b50601d80549050601f541115610bfd57610bfc601d80549050610e65565b5b5050565b602260009054906101000a900473ffffffffffffffffffffffffffffffffffffffff1681565b33601c60008273ffffffffffffffffffffffffffffffffffffffff1673ffffffffffffffffffffffffffffffffffffffff16815260200190815260200160002060009054906101000a900460ff16610c7e57600080fd5b81600073ffffffffffffffffffffffffffffffffffffffff16601960008373ffffffffffffffffffffffffffffffffffffffff1673ffffffffffffffffffffffffffffffffffffffff16815260200190815260200160002060000160009054906101000a900473ffffffffffffffffffffffffffffffffffffffff1673ffffffffffffffffffffffffffffffffffffffff161415610d1b57600080fd5b8233601a60008373ffffffffffffffffffffffffffffffffffffffff1673ffffffffffffffffffffffffffffffffffffffff16815260200190815260200160002060008273ffffffffffffffffffffffffffffffffffffffff1673ffffffffffffffffffffffffffffffffffffffff16815260200190815260200160002060009054906101000a900460ff1615610db157600080fd5b6001601a60008773ffffffffffffffffffffffffffffffffffffffff1673ffffffffffffffffffffffffffffffffffffffff16815260200190815260200160002060003373ffffffffffffffffffffffffffffffffffffffff1673ffffffffffffffffffffffffffffffffffffffff16815260200190815260200160002060006101000a81548160ff021916908315150217905550610e4f85611105565b15610e5e57610e5d8561126b565b5b5050505050565b601d805490508160328211158015610e7d5750818111155b8015610e8a575060008114155b8015610e97575060008214155b610ea057600080fd5b82601f81905550505050565b601e5481565b60196020528060005260406000206000915090508060000160009054906101000a900473ffffffffffffffffffffffffffffffffffffffff16908060000160149054906101000a900460ff16908060070160009054906101000a900460ff16908060070160019054906101000a900460ff16905084565b601d8181548110610f3657fe5b906000526020600020016000915054906101000a900473ffffffffffffffffffffffffffffffffffffffff1681565b60168160038110610f7257fe5b016000915090505481565b601f5481565b610f8b6113ba565b6040518060c001604052803373ffffffffffffffffffffffffffffffffffffffff16815260200160001515815260200183815260200182815260200160001515815260200160001515815250601960003373ffffffffffffffffffffffffffffffffffffffff1673ffffffffffffffffffffffffffffffffffffffff16815260200190815260200160002060008201518160000160006101000a81548173ffffffffffffffffffffffffffffffffffffffff021916908373ffffffffffffffffffffffffffffffffffffffff16021790555060208201518160000160146101000a81548160ff0219169083151502179055506040820151816001019060036110949291906113dc565b506060820151816004019060036110ac9291906113dc565b5060808201518160070160006101000a81548160ff02191690831515021790555060a08201518160070160016101000a81548160ff0219169083151502179055509050506001601e600082825401925050819055505050565b6000806000905060005b601d8054905081101561126357601a60008573ffffffffffffffffffffffffffffffffffffffff1673ffffffffffffffffffffffffffffffffffffffff1681526020019081526020016000206000601d838154811061116a57fe5b9060005260206000200160009054906101000a900473ffffffffffffffffffffffffffffffffffffffff1673ffffffffffffffffffffffffffffffffffffffff1673ffffffffffffffffffffffffffffffffffffffff16815260200190815260200160002060009054906101000a900460ff16156111e9576001820191505b601f54821480156112465750601960008573ffffffffffffffffffffffffffffffffffffffff1673ffffffffffffffffffffffffffffffffffffffff16815260200190815260200160002060000160149054906101000a900460ff165b1561125657600192505050611266565b808060010191505061110f565b50505b919050565b6001601960008373ffffffffffffffffffffffffffffffffffffffff1673ffffffffffffffffffffffffffffffffffffffff16815260200190815260200160002060070160006101000a81548160ff021916908315150217905550601960008273ffffffffffffffffffffffffffffffffffffffff1673ffffffffffffffffffffffffffffffffffffffff168152602001908152602001600020600101601960008373ffffffffffffffffffffffffffffffffffffffff1673ffffffffffffffffffffffffffffffffffffffff16815260200190815260200160002060040190600361135892919061141c565b5050565b6040518060c00160405280600073ffffffffffffffffffffffffffffffffffffffff1681526020016000151581526020016113956113ba565b81526020016113a26113ba565b81526020016000151581526020016000151581525090565b6040518060600160405280600390602082028036833780820191505090505090565b826003810192821561140b579160200282015b8281111561140a5782518255916020019190600101906113ef565b5b5090506114189190611459565b5090565b8260038101928215611448579182015b8281111561144757825482559160010191906001019061142c565b5b5090506114559190611459565b5090565b5b8082111561147257600081600090555060010161145a565b5090565b6000813590506114858161189a565b92915050565b6000819050826020600302820111156114a357600080fd5b92915050565b6000813590506114b8816118b1565b92915050565b6000602082840312156114d057600080fd5b60006114de84828501611476565b91505092915050565b600080604083850312156114fa57600080fd5b600061150885828601611476565b925050602061151985828601611476565b9150509250929050565b60006060828403121561153557600080fd5b60006115438482850161148b565b91505092915050565b60006020828403121561155e57600080fd5b600061156c848285016114a9565b91505092915050565b600061158183836116ed565b60208301905092915050565b61159681611836565b82525050565b6115a581611836565b82525050565b6115b481611802565b6115be818461181a565b92506115c9826117f8565b8060005b838110156115fa5781516115e18782611575565b96506115ec8361180d565b9250506001810190506115cd565b505050505050565b61160b81611848565b82525050565b61161a81611848565b82525050565b600061162d601e83611825565b91507f7369676e65657320617265206c657373207468616e20726571756972656400006000830152602082019050919050565b61014082016000820151611677600085018261158d565b50602082015161168a6020850182611602565b50604082015161169d60408501826115ab565b5060608201516116b060a08501826115ab565b5060808201516116c4610100850182611602565b5060a08201516116d8610120850182611602565b50505050565b6116e781611854565b82525050565b6116f681611890565b82525050565b61170581611890565b82525050565b6000602082019050611720600083018461159c565b92915050565b600060808201905061173b600083018761159c565b6117486020830186611611565b6117556040830185611611565b6117626060830184611611565b95945050505050565b60006020820190506117806000830184611611565b92915050565b6000602082019050818103600083015261179f81611620565b9050919050565b6000610140820190506117bc6000830184611660565b92915050565b60006020820190506117d760008301846116de565b92915050565b60006020820190506117f260008301846116fc565b92915050565b6000819050919050565b600060039050919050565b6000602082019050919050565b600081905092915050565b600082825260208201905092915050565b600061184182611870565b9050919050565b60008115159050919050565b60006fffffffffffffffffffffffffffffffff82169050919050565b600073ffffffffffffffffffffffffffffffffffffffff82169050919050565b6000819050919050565b6118a381611836565b81146118ae57600080fd5b50565b6118ba81611890565b81146118c557600080fd5b5056fea2646970667358221220ca6f7c9ec4ff9e9493e0bc46737c72f5201af80a5a0b23e103d05fea749b9d2564736f6c634300060c0033",
  "immutableReferences": {},
  "source": "// SPDX-License-Identifier: UNLICENSED\r\npragma solidity ^0.6.0;\r\npragma experimental ABIEncoderV2;\r\n\r\nimport './Erc20Interface.sol';\r\nimport './RoyaleLPstorage.sol';\r\n\r\ncontract multiSig is RoyaleLPstorage {\r\n\r\n    /* Modifiers */\r\n\r\n    modifier onlyOwner {\r\n        require(msg.sender == owner);\r\n        _;\r\n    }\r\n\r\n    modifier signeeDoesNotExist(address signee) {\r\n        require(!isSignee[signee]);\r\n        _;\r\n    }\r\n\r\n    modifier signeeExists(address signee) {\r\n        require(isSignee[signee]);\r\n        _;\r\n    }\r\n\r\n    modifier transactionExists(address addr) {\r\n        require(transactions[addr].gamingCompany != address(0));\r\n        _;\r\n    }\r\n\r\n    modifier confirmed(address addr, address signee) {\r\n        require(confirmations[addr][signee]);\r\n        _;\r\n    }\r\n\r\n    modifier notConfirmed(address addr, address signee) {\r\n        require(!confirmations[addr][signee]);\r\n        _;\r\n    }\r\n\r\n    modifier notExecuted(address addr) {\r\n        require(!transactions[addr].executed);\r\n        _;\r\n    }\r\n\r\n    modifier notNull(address _address) {\r\n        require(_address !=address(0));\r\n        _;\r\n    }\r\n\r\n    modifier validRequirement(uint signeeCount, uint _required) {\r\n        require(signeeCount <= MAX_SIGNEE_COUNT\r\n            && _required <= signeeCount\r\n            && _required != 0\r\n            && signeeCount != 0);\r\n        _;\r\n    }\r\n\r\n    /* Internal Functions */\r\n\r\n    function _addTransaction(\r\n       uint256[N_COINS] memory amounts\r\n    ) internal {\r\n        uint256[N_COINS] memory zero;\r\n        transactions[msg.sender] = Transaction({\r\n            gamingCompany: msg.sender,\r\n            tokenAmounts: amounts,\r\n            remAmt: zero,\r\n            isGamingCompanySigned: false,\r\n            approved: false,\r\n            executed: false\r\n        });\r\n        \r\n        transactionCount += 1;\r\n    }\r\n\r\n    function _approveLoan(address addr) internal {\r\n        transactions[addr].approved = true;\r\n        transactions[addr].remAmt = transactions[addr].tokenAmounts;\r\n    }\r\n    \r\n    function _isConfirmed(\r\n        address addr\r\n    ) internal view returns (bool) {\r\n        uint count = 0;\r\n        for (uint i=0; i<signees.length; i++) {\r\n            if (confirmations[addr][signees[i]])\r\n                count += 1;\r\n            if (count == required && transactions[addr].isGamingCompanySigned)\r\n                return true;\r\n        }\r\n    }\r\n\r\n    /* USER FUNCTIONS (exposed to frontend) */\r\n\r\n    // Gaming platforms withdraw using this\r\n    function requestLoan(\r\n        uint256[N_COINS] calldata amounts\r\n    ) external {\r\n       require(signees.length >= required, \"signees are less than required\");\r\n       _addTransaction(amounts);\r\n    }\r\n    \r\n    // Gaming Platforms signs using this\r\n    function signTransaction() public {\r\n        require(transactions[msg.sender].gamingCompany == msg.sender);\r\n        transactions[msg.sender].isGamingCompanySigned = true;\r\n    }\r\n    \r\n    // Signee signs using this\r\n    function confirmLoan(address addr) public\r\n        signeeExists(msg.sender)\r\n        transactionExists(addr)\r\n        notConfirmed(addr, msg.sender) \r\n    {\r\n        confirmations[addr][msg.sender] = true;\r\n\r\n        if(_isConfirmed(addr)) {\r\n           _approveLoan(addr);\r\n        }\r\n    }\r\n    \r\n    function checkLoanApproved(address addr) public view returns(bool) {\r\n        return transactions[addr].approved;\r\n    }\r\n\r\n    function getTransactionDetail(\r\n        address addr\r\n    ) public view returns(Transaction memory){\r\n        return transactions[addr];\r\n    }\r\n\r\n    /* Admin Function */\r\n    \r\n    function setRequiredSignee(\r\n        uint _required\r\n    ) public validRequirement(signees.length, _required) {\r\n        required = _required;\r\n    }\r\n\r\n    function addSignee(address signee) public onlyOwner {\r\n        isSignee[signee] = true;\r\n        signees.push(signee);\r\n    }\r\n    \r\n    function removeSignee(address signee) public signeeExists(signee) {\r\n        isSignee[signee] = false;\r\n        for (uint i=0; i<signees.length - 1; i++)\r\n            if (signees[i] == signee) {\r\n                signees[i] = signees[signees.length - 1];\r\n                break;\r\n            }\r\n        \r\n        if (required > signees.length)\r\n            setRequiredSignee(signees.length);\r\n    }\r\n}",
  "sourcePath": "C:\\Users\\MayankVats\\Desktop\\WORK\\blockchain\\Royale\\royale-contracts\\contracts\\MultiSig.sol",
  "compiler": {
    "name": "solc",
    "version": "0.6.12+commit.27d51765.Emscripten.clang"
  },
  "schemaVersion": "3.3.2",
  "updatedAt": "2020-12-03T07:30:37.670Z",
  "devdoc": {
    "kind": "dev",
    "methods": {},
    "version": 1
  },
  "userdoc": {
    "kind": "user",
    "methods": {},
    "version": 1
  }
}