{
  "contractName": "Owned",
  "abi": [
    {
      "inputs": [
        {
          "internalType": "address",
          "name": "_owner",
          "type": "address"
        }
      ],
      "stateMutability": "nonpayable",
      "type": "constructor"
    },
    {
      "anonymous": false,
      "inputs": [
        {
          "indexed": false,
          "internalType": "address",
          "name": "oldOwner",
          "type": "address"
        },
        {
          "indexed": false,
          "internalType": "address",
          "name": "newOwner",
          "type": "address"
        }
      ],
      "name": "OwnerChanged",
      "type": "event"
    },
    {
      "anonymous": false,
      "inputs": [
        {
          "indexed": false,
          "internalType": "address",
          "name": "newOwner",
          "type": "address"
        }
      ],
      "name": "OwnerNominated",
      "type": "event"
    },
    {
      "inputs": [],
      "name": "nominatedOwner",
      "outputs": [
        {
          "internalType": "address",
          "name": "",
          "type": "address"
        }
      ],
      "stateMutability": "view",
      "type": "function"
    },
    {
      "inputs": [],
      "name": "owner",
      "outputs": [
        {
          "internalType": "address",
          "name": "",
          "type": "address"
        }
      ],
      "stateMutability": "view",
      "type": "function"
    },
    {
      "inputs": [
        {
          "internalType": "address",
          "name": "_owner",
          "type": "address"
        }
      ],
      "name": "nominateNewOwner",
      "outputs": [],
      "stateMutability": "nonpayable",
      "type": "function"
    },
    {
      "inputs": [],
      "name": "acceptOwnership",
      "outputs": [],
      "stateMutability": "nonpayable",
      "type": "function"
    }
  ],
  "bytecode": "0x608060405234801561001057600080fd5b506040516106c63803806106c68339818101604052602081101561003357600080fd5b8101908080519060200190929190505050600073ffffffffffffffffffffffffffffffffffffffff168173ffffffffffffffffffffffffffffffffffffffff1614156100e7576040517f08c379a00000000000000000000000000000000000000000000000000000000081526004018080602001828103825260198152602001807f4f776e657220616464726573732063616e6e6f7420626520300000000000000081525060200191505060405180910390fd5b806000806101000a81548173ffffffffffffffffffffffffffffffffffffffff021916908373ffffffffffffffffffffffffffffffffffffffff1602179055507fb532073b38c83145e3e5135377a08bf9aab55bc0fd7c1179cd4fb995d2a5159c600082604051808373ffffffffffffffffffffffffffffffffffffffff1681526020018273ffffffffffffffffffffffffffffffffffffffff1681526020019250505060405180910390a150610523806101a36000396000f3fe608060405234801561001057600080fd5b506004361061004c5760003560e01c80631627540c1461005157806353a47bb71461009557806379ba5097146100c95780638da5cb5b146100d3575b600080fd5b6100936004803603602081101561006757600080fd5b81019080803573ffffffffffffffffffffffffffffffffffffffff169060200190929190505050610107565b005b61009d6101a0565b604051808273ffffffffffffffffffffffffffffffffffffffff16815260200191505060405180910390f35b6100d16101c6565b005b6100db6103bf565b604051808273ffffffffffffffffffffffffffffffffffffffff16815260200191505060405180910390f35b61010f6103e3565b80600160006101000a81548173ffffffffffffffffffffffffffffffffffffffff021916908373ffffffffffffffffffffffffffffffffffffffff1602179055507f906a1c6bd7e3091ea86693dd029a831c19049ce77f1dce2ce0bab1cacbabce2281604051808273ffffffffffffffffffffffffffffffffffffffff16815260200191505060405180910390a150565b600160009054906101000a900473ffffffffffffffffffffffffffffffffffffffff1681565b600160009054906101000a900473ffffffffffffffffffffffffffffffffffffffff1673ffffffffffffffffffffffffffffffffffffffff163373ffffffffffffffffffffffffffffffffffffffff161461026c576040517f08c379a000000000000000000000000000000000000000000000000000000000815260040180806020018281038252603581526020018061048a6035913960400191505060405180910390fd5b7fb532073b38c83145e3e5135377a08bf9aab55bc0fd7c1179cd4fb995d2a5159c60008054906101000a900473ffffffffffffffffffffffffffffffffffffffff16600160009054906101000a900473ffffffffffffffffffffffffffffffffffffffff16604051808373ffffffffffffffffffffffffffffffffffffffff1681526020018273ffffffffffffffffffffffffffffffffffffffff1681526020019250505060405180910390a1600160009054906101000a900473ffffffffffffffffffffffffffffffffffffffff166000806101000a81548173ffffffffffffffffffffffffffffffffffffffff021916908373ffffffffffffffffffffffffffffffffffffffff1602179055506000600160006101000a81548173ffffffffffffffffffffffffffffffffffffffff021916908373ffffffffffffffffffffffffffffffffffffffff160217905550565b60008054906101000a900473ffffffffffffffffffffffffffffffffffffffff1681565b60008054906101000a900473ffffffffffffffffffffffffffffffffffffffff1673ffffffffffffffffffffffffffffffffffffffff163373ffffffffffffffffffffffffffffffffffffffff1614610487576040517f08c379a000000000000000000000000000000000000000000000000000000000815260040180806020018281038252602f8152602001806104bf602f913960400191505060405180910390fd5b56fe596f75206d757374206265206e6f6d696e61746564206265666f726520796f752063616e20616363657074206f776e6572736869704f6e6c792074686520636f6e7472616374206f776e6572206d617920706572666f726d207468697320616374696f6ea26469706673582212203d786a0bc829dd3db6b4bd199529a535e5b4dff45a20d409f6a5bd0dfb1ac61264736f6c634300060c0033",
  "immutableReferences": {},
  "source": "// SPDX-License-Identifier: UNLICENSED\r\npragma solidity ^0.6.0;\r\n\r\nimport \"@openzeppelin/contracts/math/Math.sol\";\r\nimport \"@openzeppelin/contracts/math/SafeMath.sol\";\r\nimport \"@openzeppelin/contracts/token/ERC20/ERC20.sol\";\r\nimport \"@openzeppelin/contracts/token/ERC20/SafeERC20.sol\";\r\nimport \"@openzeppelin/contracts/utils/ReentrancyGuard.sol\";\r\n// Inheritance\r\n// import \"./interfaces/IStakingRewards.sol\";\r\n// import \"./RewardsDistributionRecipient.sol\";\r\n// import \"./Pausable.sol\";\r\n// import \"./Owned.sol\";\r\n// https://docs.synthetix.io/contracts/Owned\r\ncontract Owned {\r\n    address public owner;\r\n    address public nominatedOwner;\r\n\r\n    constructor(address _owner) public {\r\n        require(_owner != address(0), \"Owner address cannot be 0\");\r\n        owner = _owner;\r\n        emit OwnerChanged(address(0), _owner);\r\n    }\r\n\r\n    function nominateNewOwner(address _owner) external onlyOwner {\r\n        nominatedOwner = _owner;\r\n        emit OwnerNominated(_owner);\r\n    }\r\n\r\n    function acceptOwnership() external {\r\n        require(msg.sender == nominatedOwner, \"You must be nominated before you can accept ownership\");\r\n        emit OwnerChanged(owner, nominatedOwner);\r\n        owner = nominatedOwner;\r\n        nominatedOwner = address(0);\r\n    }\r\n\r\n    modifier onlyOwner {\r\n        _onlyOwner();\r\n        _;\r\n    }\r\n\r\n    function _onlyOwner() private view {\r\n        require(msg.sender == owner, \"Only the contract owner may perform this action\");\r\n    }\r\n\r\n    event OwnerNominated(address newOwner);\r\n    event OwnerChanged(address oldOwner, address newOwner);\r\n}\r\n\r\n\r\n\r\n// https://docs.synthetix.io/contracts/Pausable\r\nabstract\r\ncontract Pausable is Owned {\r\n    uint public lastPauseTime;\r\n    bool public paused;\r\n\r\n    constructor() internal {\r\n        // This contract is abstract, and thus cannot be instantiated directly\r\n        require(owner != address(0), \"Owner must be set\");\r\n        // Paused will be false, and lastPauseTime will be 0 upon initialisation\r\n    }\r\n\r\n    /**\r\n     * @notice Change the paused state of the contract\r\n     * @dev Only the contract owner may call this.\r\n     */\r\n    function setPaused(bool _paused) external onlyOwner {\r\n        // Ensure we're actually changing the state before we do anything\r\n        if (_paused == paused) {\r\n            return;\r\n        }\r\n\r\n        // Set our paused state.\r\n        paused = _paused;\r\n\r\n        // If applicable, set the last pause time.\r\n        if (paused) {\r\n            lastPauseTime = now;\r\n        }\r\n\r\n        // Let everyone know that our pause state has changed.\r\n        emit PauseChanged(paused);\r\n    }\r\n\r\n    event PauseChanged(bool isPaused);\r\n\r\n    modifier notPaused {\r\n        require(!paused, \"This action cannot be performed while the contract is paused\");\r\n        _;\r\n    }\r\n}\r\n\r\n\r\n// https://docs.synthetix.io/contracts/RewardsDistributionRecipient\r\nabstract\r\ncontract RewardsDistributionRecipient is Owned {\r\n    address public rewardsDistribution;\r\n\r\n    function notifyRewardAmount(uint256 reward) external virtual;\r\n\r\n    modifier onlyRewardsDistribution() {\r\n        require(msg.sender == rewardsDistribution, \"Caller is not RewardsDistribution contract\");\r\n        _;\r\n    }\r\n\r\n    function setRewardsDistribution(address _rewardsDistribution) external onlyOwner {\r\n        rewardsDistribution = _rewardsDistribution;\r\n    }\r\n}\r\n\r\n\r\ninterface IStakingRewards {\r\n    // Views\r\n    function lastTimeRewardApplicable() external view returns (uint256);\r\n\r\n    function rewardPerToken() external view returns (uint256);\r\n\r\n    function earned(address account) external view returns (uint256);\r\n\r\n    function getRewardForDuration() external view returns (uint256);\r\n\r\n    function totalSupply() external view returns (uint256);\r\n\r\n    function balanceOf(address account) external view returns (uint256);\r\n\r\n    // Mutative\r\n\r\n    function stake(uint256 amount) external;\r\n\r\n    function withdraw(uint256 amount) external;\r\n\r\n    function getReward() external;\r\n\r\n    function exit() external;\r\n}\r\n\r\n\r\ncontract StakingRewards is IStakingRewards, RewardsDistributionRecipient, ReentrancyGuard, Pausable {\r\n    using SafeMath for uint256;\r\n    using SafeERC20 for IERC20;\r\n\r\n    /* ========== STATE VARIABLES ========== */\r\n\r\n    IERC20 public rewardsToken;\r\n    IERC20 public stakingToken;\r\n    uint256 public periodFinish = 0;\r\n    uint256 public rewardRate = 0;\r\n    uint256 public rewardsDuration = 7 days;\r\n    uint256 public lastUpdateTime;\r\n    uint256 public rewardPerTokenStored;\r\n\r\n    mapping(address => uint256) public userRewardPerTokenPaid;\r\n    mapping(address => uint256) public rewards;\r\n\r\n    uint256 private _totalSupply;\r\n    mapping(address => uint256) private _balances;\r\n\r\n    /* ========== CONSTRUCTOR ========== */\r\n\r\n    constructor(\r\n        address _owner,\r\n        address _rewardsDistribution,\r\n        address _rewardsToken,\r\n        address _stakingToken\r\n    ) public Owned(_owner) {\r\n        rewardsToken = IERC20(_rewardsToken);\r\n        stakingToken = IERC20(_stakingToken);\r\n        rewardsDistribution = _rewardsDistribution;\r\n    }\r\n\r\n    /* ========== VIEWS ========== */\r\n\r\n    function totalSupply() external view override returns (uint256) {\r\n        return _totalSupply;\r\n    }\r\n\r\n    function balanceOf(address account) external view override returns (uint256) {\r\n        return _balances[account];\r\n    }\r\n\r\n    function lastTimeRewardApplicable() public view override returns (uint256) {\r\n        return Math.min(block.timestamp, periodFinish);\r\n    }\r\n\r\n    function rewardPerToken() public view override returns (uint256) {\r\n        if (_totalSupply == 0) {\r\n            return rewardPerTokenStored;\r\n        }\r\n        return\r\n            rewardPerTokenStored.add(\r\n                lastTimeRewardApplicable().sub(lastUpdateTime).mul(rewardRate).mul(1e18).div(_totalSupply)\r\n            );\r\n    }\r\n\r\n    function earned(address account) public view override returns (uint256) {\r\n        return _balances[account].mul(rewardPerToken().sub(userRewardPerTokenPaid[account])).div(1e18).add(rewards[account]);\r\n    }\r\n\r\n    function getRewardForDuration() external view override returns (uint256) {\r\n        return rewardRate.mul(rewardsDuration);\r\n    }\r\n\r\n    /* ========== MUTATIVE FUNCTIONS ========== */\r\n\r\n    function stake(uint256 amount) external override nonReentrant notPaused updateReward(msg.sender) {\r\n        require(amount > 0, \"Cannot stake 0\");\r\n        _totalSupply = _totalSupply.add(amount);\r\n        _balances[msg.sender] = _balances[msg.sender].add(amount);\r\n        stakingToken.safeTransferFrom(msg.sender, address(this), amount);\r\n        emit Staked(msg.sender, amount);\r\n    }\r\n\r\n    function withdraw(uint256 amount) public override nonReentrant updateReward(msg.sender) {\r\n        require(amount > 0, \"Cannot withdraw 0\");\r\n        _totalSupply = _totalSupply.sub(amount);\r\n        _balances[msg.sender] = _balances[msg.sender].sub(amount);\r\n        stakingToken.safeTransfer(msg.sender, amount);\r\n        emit Withdrawn(msg.sender, amount);\r\n    }\r\n\r\n    function getReward() public override nonReentrant updateReward(msg.sender) {\r\n        uint256 reward = rewards[msg.sender];\r\n        if (reward > 0) {\r\n            rewards[msg.sender] = 0;\r\n            rewardsToken.safeTransfer(msg.sender, reward);\r\n            emit RewardPaid(msg.sender, reward);\r\n        }\r\n    }\r\n\r\n    function exit() external override {\r\n        withdraw(_balances[msg.sender]);\r\n        getReward();\r\n    }\r\n\r\n    /* ========== RESTRICTED FUNCTIONS ========== */\r\n\r\n    function notifyRewardAmount(uint256 reward) external override onlyRewardsDistribution updateReward(address(0)) {\r\n        if (block.timestamp >= periodFinish) {\r\n            rewardRate = reward.div(rewardsDuration);\r\n        } else {\r\n            uint256 remaining = periodFinish.sub(block.timestamp);\r\n            uint256 leftover = remaining.mul(rewardRate);\r\n            rewardRate = reward.add(leftover).div(rewardsDuration);\r\n        }\r\n\r\n        // Ensure the provided reward amount is not more than the balance in the contract.\r\n        // This keeps the reward rate in the right range, preventing overflows due to\r\n        // very high values of rewardRate in the earned and rewardsPerToken functions;\r\n        // Reward + leftover must be less than 2^256 / 10^18 to avoid overflow.\r\n        uint balance = rewardsToken.balanceOf(address(this));\r\n        require(rewardRate <= balance.div(rewardsDuration), \"Provided reward too high\");\r\n\r\n        lastUpdateTime = block.timestamp;\r\n        periodFinish = block.timestamp.add(rewardsDuration);\r\n        emit RewardAdded(reward);\r\n    }\r\n\r\n    // Added to support recovering LP Rewards from other systems to be distributed to holders\r\n    function recoverERC20(address tokenAddress, uint256 tokenAmount) external onlyOwner {\r\n        // If it's SNX we have to query the token symbol to ensure its not a proxy or underlying\r\n        bool isSNX = (keccak256(bytes(\"SNX\")) == keccak256(bytes(ERC20(tokenAddress).symbol())));\r\n        // Cannot recover the staking token or the rewards token\r\n        require(\r\n            tokenAddress != address(stakingToken) && tokenAddress != address(rewardsToken) && !isSNX,\r\n            \"Cannot withdraw the staking or rewards tokens\"\r\n        );\r\n        IERC20(tokenAddress).safeTransfer(owner, tokenAmount);\r\n        emit Recovered(tokenAddress, tokenAmount);\r\n    }\r\n\r\n    function setRewardsDuration(uint256 _rewardsDuration) external onlyOwner {\r\n        require(\r\n            periodFinish == 0 || block.timestamp > periodFinish,\r\n            \"Previous rewards period must be complete before changing the duration for the new period\"\r\n        );\r\n        rewardsDuration = _rewardsDuration;\r\n        emit RewardsDurationUpdated(rewardsDuration);\r\n    }\r\n\r\n    /* ========== MODIFIERS ========== */\r\n\r\n    modifier updateReward(address account) {\r\n        rewardPerTokenStored = rewardPerToken();\r\n        lastUpdateTime = lastTimeRewardApplicable();\r\n        if (account != address(0)) {\r\n            rewards[account] = earned(account);\r\n            userRewardPerTokenPaid[account] = rewardPerTokenStored;\r\n        }\r\n        _;\r\n    }\r\n\r\n    /* ========== EVENTS ========== */\r\n\r\n    event RewardAdded(uint256 reward);\r\n    event Staked(address indexed user, uint256 amount);\r\n    event Withdrawn(address indexed user, uint256 amount);\r\n    event RewardPaid(address indexed user, uint256 reward);\r\n    event RewardsDurationUpdated(uint256 newDuration);\r\n    event Recovered(address token, uint256 amount);\r\n}\r\n",
  "sourcePath": "C:/Users/vishn/OneDrive/Desktop/RoyaleProject/RoyaleFinance/royale-contracts/contracts/RoyaleUtility/RPTStaking.sol",
  "compiler": {
    "name": "solc",
    "version": "0.6.12+commit.27d51765.Emscripten.clang"
  },
  "schemaVersion": "3.3.2",
  "updatedAt": "2021-03-15T13:50:00.613Z",
  "devdoc": {
    "kind": "dev",
    "methods": {},
    "version": 1
  },
  "userdoc": {
    "kind": "user",
    "methods": {},
    "version": 1
  }
}