{
  "contractName": "rLoan",
  "abi": [
    {
      "inputs": [
        {
          "internalType": "address[3]",
          "name": "_tokens",
          "type": "address[3]"
        },
        {
          "internalType": "address",
          "name": "_royale",
          "type": "address"
        },
        {
          "internalType": "address",
          "name": "_wallet",
          "type": "address"
        }
      ],
      "stateMutability": "nonpayable",
      "type": "constructor"
    },
    {
      "anonymous": false,
      "inputs": [
        {
          "indexed": false,
          "internalType": "uint256",
          "name": "loanID",
          "type": "uint256"
        }
      ],
      "name": "approved",
      "type": "event"
    },
    {
      "anonymous": false,
      "inputs": [
        {
          "indexed": false,
          "internalType": "address",
          "name": "by",
          "type": "address"
        },
        {
          "indexed": false,
          "internalType": "uint256[3]",
          "name": "requestedAmount",
          "type": "uint256[3]"
        },
        {
          "indexed": false,
          "internalType": "uint256[3]",
          "name": "remainingAmount",
          "type": "uint256[3]"
        },
        {
          "indexed": false,
          "internalType": "uint256",
          "name": "loanID",
          "type": "uint256"
        }
      ],
      "name": "loanFulfilled",
      "type": "event"
    },
    {
      "anonymous": false,
      "inputs": [
        {
          "indexed": false,
          "internalType": "address",
          "name": "by",
          "type": "address"
        },
        {
          "indexed": false,
          "internalType": "uint256[3]",
          "name": "repayedAmount",
          "type": "uint256[3]"
        },
        {
          "indexed": false,
          "internalType": "uint256[3]",
          "name": "amountRemaining",
          "type": "uint256[3]"
        },
        {
          "indexed": false,
          "internalType": "uint256",
          "name": "loanID",
          "type": "uint256"
        }
      ],
      "name": "loanRepayed",
      "type": "event"
    },
    {
      "anonymous": false,
      "inputs": [
        {
          "indexed": false,
          "internalType": "address",
          "name": "by",
          "type": "address"
        },
        {
          "indexed": false,
          "internalType": "uint256[3]",
          "name": "amounts",
          "type": "uint256[3]"
        },
        {
          "indexed": false,
          "internalType": "uint256",
          "name": "loanID",
          "type": "uint256"
        }
      ],
      "name": "loanRequested",
      "type": "event"
    },
    {
      "anonymous": false,
      "inputs": [
        {
          "indexed": false,
          "internalType": "address",
          "name": "by",
          "type": "address"
        },
        {
          "indexed": false,
          "internalType": "uint256[3]",
          "name": "requestedAmount",
          "type": "uint256[3]"
        },
        {
          "indexed": false,
          "internalType": "uint256[3]",
          "name": "remainingAmount",
          "type": "uint256[3]"
        },
        {
          "indexed": false,
          "internalType": "uint256",
          "name": "loanID",
          "type": "uint256"
        }
      ],
      "name": "loanWithdrawn",
      "type": "event"
    },
    {
      "anonymous": false,
      "inputs": [
        {
          "indexed": false,
          "internalType": "address",
          "name": "by",
          "type": "address"
        },
        {
          "indexed": false,
          "internalType": "uint256[3]",
          "name": "repayedAmount",
          "type": "uint256[3]"
        },
        {
          "indexed": false,
          "internalType": "uint256[3]",
          "name": "amountRemaining",
          "type": "uint256[3]"
        },
        {
          "indexed": false,
          "internalType": "uint256",
          "name": "loanID",
          "type": "uint256"
        }
      ],
      "name": "wholeLoanRepayed",
      "type": "event"
    },
    {
      "inputs": [
        {
          "internalType": "uint256",
          "name": "",
          "type": "uint256"
        }
      ],
      "name": "gamingCompanyRepayment",
      "outputs": [
        {
          "internalType": "uint256",
          "name": "transactionID",
          "type": "uint256"
        },
        {
          "internalType": "bool",
          "name": "isRepaymentDone",
          "type": "bool"
        }
      ],
      "stateMutability": "view",
      "type": "function"
    },
    {
      "inputs": [],
      "name": "royale",
      "outputs": [
        {
          "internalType": "contract RoyaleInterface",
          "name": "",
          "type": "address"
        }
      ],
      "stateMutability": "view",
      "type": "function"
    },
    {
      "inputs": [
        {
          "internalType": "address",
          "name": "",
          "type": "address"
        },
        {
          "internalType": "uint256",
          "name": "",
          "type": "uint256"
        }
      ],
      "name": "takenLoan",
      "outputs": [
        {
          "internalType": "uint256",
          "name": "",
          "type": "uint256"
        }
      ],
      "stateMutability": "view",
      "type": "function"
    },
    {
      "inputs": [
        {
          "internalType": "uint256",
          "name": "",
          "type": "uint256"
        }
      ],
      "name": "totalApprovedLoan",
      "outputs": [
        {
          "internalType": "uint256",
          "name": "",
          "type": "uint256"
        }
      ],
      "stateMutability": "view",
      "type": "function"
    },
    {
      "inputs": [
        {
          "internalType": "uint256",
          "name": "",
          "type": "uint256"
        }
      ],
      "name": "totalLoanTaken",
      "outputs": [
        {
          "internalType": "uint256",
          "name": "",
          "type": "uint256"
        }
      ],
      "stateMutability": "view",
      "type": "function"
    },
    {
      "inputs": [],
      "name": "transactionCount",
      "outputs": [
        {
          "internalType": "uint256",
          "name": "",
          "type": "uint256"
        }
      ],
      "stateMutability": "view",
      "type": "function"
    },
    {
      "inputs": [
        {
          "internalType": "uint256",
          "name": "",
          "type": "uint256"
        }
      ],
      "name": "transactions",
      "outputs": [
        {
          "internalType": "uint256",
          "name": "transactionId",
          "type": "uint256"
        },
        {
          "internalType": "address",
          "name": "iGamingCompany",
          "type": "address"
        },
        {
          "internalType": "bool",
          "name": "isGamingCompanySigned",
          "type": "bool"
        },
        {
          "internalType": "bool",
          "name": "approved",
          "type": "bool"
        },
        {
          "internalType": "bool",
          "name": "executed",
          "type": "bool"
        }
      ],
      "stateMutability": "view",
      "type": "function"
    },
    {
      "inputs": [],
      "name": "wallet",
      "outputs": [
        {
          "internalType": "address",
          "name": "",
          "type": "address"
        }
      ],
      "stateMutability": "view",
      "type": "function"
    },
    {
      "inputs": [
        {
          "internalType": "address",
          "name": "_wallet",
          "type": "address"
        }
      ],
      "name": "transferOwnership",
      "outputs": [],
      "stateMutability": "nonpayable",
      "type": "function"
    },
    {
      "inputs": [
        {
          "internalType": "uint256[3]",
          "name": "amounts",
          "type": "uint256[3]"
        }
      ],
      "name": "requestLoan",
      "outputs": [
        {
          "internalType": "uint256",
          "name": "loanID",
          "type": "uint256"
        }
      ],
      "stateMutability": "nonpayable",
      "type": "function"
    },
    {
      "inputs": [
        {
          "internalType": "uint256",
          "name": "_loanID",
          "type": "uint256"
        }
      ],
      "name": "approveLoan",
      "outputs": [],
      "stateMutability": "nonpayable",
      "type": "function"
    },
    {
      "inputs": [
        {
          "internalType": "uint256",
          "name": "_loanID",
          "type": "uint256"
        }
      ],
      "name": "checkLoanApproved",
      "outputs": [
        {
          "internalType": "bool",
          "name": "",
          "type": "bool"
        }
      ],
      "stateMutability": "view",
      "type": "function"
    },
    {
      "inputs": [
        {
          "internalType": "uint256[3]",
          "name": "amounts",
          "type": "uint256[3]"
        },
        {
          "internalType": "uint256",
          "name": "_loanID",
          "type": "uint256"
        }
      ],
      "name": "withdrawLoan",
      "outputs": [],
      "stateMutability": "nonpayable",
      "type": "function"
    },
    {
      "inputs": [
        {
          "internalType": "uint256[3]",
          "name": "_amounts",
          "type": "uint256[3]"
        },
        {
          "internalType": "uint256",
          "name": "_loanId",
          "type": "uint256"
        }
      ],
      "name": "repayLoan",
      "outputs": [],
      "stateMutability": "nonpayable",
      "type": "function"
    }
  ],
  "bytecode": "0x608060405260006007553480156200001657600080fd5b5060405162002a3638038062002a3683398181016040528101906200003c9190620001eb565b600160008190555081600860006101000a81548173ffffffffffffffffffffffffffffffffffffffff021916908373ffffffffffffffffffffffffffffffffffffffff16021790555060005b600360ff168160ff1610156200010b57838160ff1660038110620000a857fe5b602002015160018260ff1660038110620000be57fe5b0160006101000a81548173ffffffffffffffffffffffffffffffffffffffff021916908373ffffffffffffffffffffffffffffffffffffffff160217905550808060010191505062000088565b5080600960006101000a81548173ffffffffffffffffffffffffffffffffffffffff021916908373ffffffffffffffffffffffffffffffffffffffff160217905550505050620002e0565b6000815190506200016781620002c6565b92915050565b600082601f8301126200017f57600080fd5b60036200019662000190826200026f565b62000241565b91508183856020840282011115620001ad57600080fd5b60005b83811015620001e15781620001c6888262000156565b845260208401935060208301925050600181019050620001b0565b5050505092915050565b600080600060a084860312156200020157600080fd5b600062000211868287016200016d565b9350506060620002248682870162000156565b9250506080620002378682870162000156565b9150509250925092565b6000604051905081810181811067ffffffffffffffff821117156200026557600080fd5b8060405250919050565b600067ffffffffffffffff8211156200028757600080fd5b602082029050919050565b60006200029f82620002a6565b9050919050565b600073ffffffffffffffffffffffffffffffffffffffff82169050919050565b620002d18162000292565b8114620002dd57600080fd5b50565b61274680620002f06000396000f3fe608060405234801561001057600080fd5b50600436106100ea5760003560e01c806362a945d11161008c578063aadc1ac111610066578063aadc1ac114610288578063ae8df6a6146102a4578063b77bf600146102d4578063f2fde38b146102f2576100ea565b806362a945d1146101f45780639ace38c214610224578063aa37dca214610258576100ea565b80632fd040d6116100c85780632fd040d614610159578063398d1b9e146101895780633d591bc2146101ba578063521eb273146101d6576100ea565b806310266c1c146100ef578063277514e01461011f5780632f0946321461013b575b600080fd5b61010960048036038101906101049190611c09565b61030e565b6040516101169190612456565b60405180910390f35b61013960048036038101906101349190611ba4565b610326565b005b610143610b6f565b6040516101509190612279565b60405180910390f35b610173600480360381019061016e9190611b3f565b610b95565b6040516101809190612456565b60405180910390f35b6101a3600480360381019061019e9190611c09565b610bc3565b6040516101b19291906124c4565b60405180910390f35b6101d460048036038101906101cf9190611ba4565b610bf4565b005b6101de61119a565b6040516101eb9190612166565b60405180910390f35b61020e60048036038101906102099190611b7b565b6111c0565b60405161021b9190612456565b60405180910390f35b61023e60048036038101906102399190611c09565b61124a565b60405161024f959493929190612471565b60405180910390f35b610272600480360381019061026d9190611c09565b6112c7565b60405161027f9190612456565b60405180910390f35b6102a2600480360381019061029d9190611c09565b6112df565b005b6102be60048036038101906102b99190611c09565b611673565b6040516102cb919061225e565b60405180910390f35b6102dc6116a0565b6040516102e99190612456565b60405180910390f35b61030c60048036038101906103079190611b16565b6116a6565b005b600a816003811061031b57fe5b016000915090505481565b6002600054141561036c576040517f08c379a000000000000000000000000000000000000000000000000000000000815260040161036390612436565b60405180910390fd5b600260008190555060005b60038160ff16101561049057600860009054906101000a900473ffffffffffffffffffffffffffffffffffffffff1673ffffffffffffffffffffffffffffffffffffffff166369850424826040518263ffffffff1660e01b81526004016103de91906124ed565b60206040518083038186803b1580156103f657600080fd5b505afa15801561040a573d6000803e3d6000fd5b505050506040513d601f19601f8201168201806040525081019061042e9190611c32565b838260ff166003811061043d57fe5b60200201351115610483576040517f08c379a000000000000000000000000000000000000000000000000000000000815260040161047a90612336565b60405180910390fd5b8080600101915050610377565b503373ffffffffffffffffffffffffffffffffffffffff166004600083815260200190815260200160002060010160009054906101000a900473ffffffffffffffffffffffffffffffffffffffff1673ffffffffffffffffffffffffffffffffffffffff1614610535576040517f08c379a000000000000000000000000000000000000000000000000000000000815260040161052c90612376565b60405180910390fd5b6004600082815260200190815260200160002060080160009054906101000a900460ff16610598576040517f08c379a000000000000000000000000000000000000000000000000000000000815260040161058f90612396565b60405180910390fd5b6105a06119e8565b60005b600360ff168160ff16101561063a57838160ff16600381106105c157fe5b6020020135600460008581526020019081526020016000206005018260ff16600381106105ea57fe5b0154101561062d576040517f08c379a0000000000000000000000000000000000000000000000000000000008152600401610624906123f6565b60405180910390fd5b80806001019150506105a3565b5060006106456119e8565b60005b60038160ff1610156107995760018160ff166003811061066457fe5b0160009054906101000a900473ffffffffffffffffffffffffffffffffffffffff1673ffffffffffffffffffffffffffffffffffffffff166370a08231600860009054906101000a900473ffffffffffffffffffffffffffffffffffffffff166040518263ffffffff1660e01b81526004016106e09190612166565b60206040518083038186803b1580156106f857600080fd5b505afa15801561070c573d6000803e3d6000fd5b505050506040513d601f19601f820116820180604052508101906107309190611c32565b925082868260ff166003811061074257fe5b6020020135111561078c5761077383878360ff166003811061076057fe5b602002013561177a90919063ffffffff16565b828260ff166003811061078257fe5b6020020181815250505b8080600101915050610648565b506000600860009054906101000a900473ffffffffffffffffffffffffffffffffffffffff1673ffffffffffffffffffffffffffffffffffffffff166357cba5348784600460008a815260200190815260200160002060010160009054906101000a900473ffffffffffffffffffffffffffffffffffffffff166040518463ffffffff1660e01b815260040161083193929190612227565b602060405180830381600087803b15801561084b57600080fd5b505af115801561085f573d6000803e3d6000fd5b505050506040513d601f19601f820116820180604052508101906108839190611be0565b9050806108c5576040517f08c379a00000000000000000000000000000000000000000000000000000000081526004016108bc90612316565b60405180910390fd5b6000805b600360ff168160ff161015610a5c576000888260ff16600381106108e957fe5b60200201351115610a185761092b888260ff166003811061090657fe5b6020020135600a8360ff166003811061091b57fe5b01546117c490919063ffffffff16565b600a8260ff166003811061093b57fe5b018190555061098b888260ff166003811061095257fe5b6020020135600460008a81526020019081526020016000206005018360ff166003811061097b57fe5b015461177a90919063ffffffff16565b600460008981526020019081526020016000206005018260ff16600381106109af57fe5b01819055506109ff888260ff16600381106109c657fe5b6020020135600560008a81526020019081526020016000206002018360ff16600381106109ef57fe5b01546117c490919063ffffffff16565b868260ff1660038110610a0e57fe5b6020020181815250505b6000600460008981526020019081526020016000206005018260ff1660038110610a3e57fe5b01541415610a4f5781806001019250505b80806001019150506108c9565b50604051806060016040528087815260200160001515815260200186815250600560008881526020019081526020016000206000820151816000015560208201518160010160006101000a81548160ff021916908315150217905550604082015181600201906003610acf929190611a0a565b509050507f3fe87a796bb63522ae7b9008d51ff617ee24dbde9a0fac8ed85e5a29e78175563388600460008a815260200190815260200160002060050189604051610b1d9493929190612181565b60405180910390a16003811415610b5e5760016004600088815260200190815260200160002060080160016101000a81548160ff0219169083151502179055505b505050505060016000819055505050565b600860009054906101000a900473ffffffffffffffffffffffffffffffffffffffff1681565b60066020528160005260406000208181548110610bae57fe5b90600052602060002001600091509150505481565b60056020528060005260406000206000915090508060000154908060010160009054906101000a900460ff16905082565b60026000541415610c3a576040517f08c379a0000000000000000000000000000000000000000000000000000000008152600401610c3190612436565b60405180910390fd5b6002600081905550600754811115610c87576040517f08c379a0000000000000000000000000000000000000000000000000000000008152600401610c7e90612416565b60405180910390fd5b3373ffffffffffffffffffffffffffffffffffffffff166004600083815260200190815260200160002060010160009054906101000a900473ffffffffffffffffffffffffffffffffffffffff1673ffffffffffffffffffffffffffffffffffffffff1614610d2b576040517f08c379a0000000000000000000000000000000000000000000000000000000008152600401610d2290612376565b60405180910390fd5b6005600082815260200190815260200160002060010160009054906101000a900460ff1615610d8f576040517f08c379a0000000000000000000000000000000000000000000000000000000008152600401610d86906123d6565b60405180910390fd5b60005b600360ff168160ff161015610e2957600560008381526020019081526020016000206002018160ff1660038110610dc557fe5b0154838260ff1660038110610dd657fe5b60200201351115610e1c576040517f08c379a0000000000000000000000000000000000000000000000000000000008152600401610e13906123b6565b60405180910390fd5b8080600101915050610d92565b506000600860009054906101000a900473ffffffffffffffffffffffffffffffffffffffff1673ffffffffffffffffffffffffffffffffffffffff166380001288846004600086815260200190815260200160002060010160009054906101000a900473ffffffffffffffffffffffffffffffffffffffff166040518363ffffffff1660e01b8152600401610ebf9291906121fe565b602060405180830381600087803b158015610ed957600080fd5b505af1158015610eed573d6000803e3d6000fd5b505050506040513d601f19601f82011682018060405250810190610f119190611be0565b905080610f53576040517f08c379a0000000000000000000000000000000000000000000000000000000008152600401610f4a906122d6565b60405180910390fd5b6000805b600360ff168110156110ae576000858260038110610f7157fe5b6020020135146110a157610fac858260038110610f8a57fe5b6020020135600a8360038110610f9c57fe5b015461177a90919063ffffffff16565b600a8260038110610fb957fe5b0181905550610fef858260038110610fcd57fe5b6020020135600d8360038110610fdf57fe5b015461177a90919063ffffffff16565b600d8260038110610ffc57fe5b018190555061104685826003811061101057fe5b602002013560056000878152602001908152602001600020600201836003811061103657fe5b015461177a90919063ffffffff16565b60056000868152602001908152602001600020600201826003811061106757fe5b0181905550600060056000868152602001908152602001600020600201826003811061108f57fe5b015414156110a05781806001019250505b5b8080600101915050610f57565b507ffe337a99fc07b4422a06a40fb4728125523f3c0977d012d21e3eb9f89edfd360338560056000878152602001908152602001600020600201866040516110f99493929190612181565b60405180910390a1600381141561118c5760016005600085815260200190815260200160002060010160006101000a81548160ff0219169083151502179055507f57d01a01ec1287fb00888c92856cb0f45352809b7a5350fdd677ce76f7826299338560056000878152602001908152602001600020600201866040516111839493929190612181565b60405180910390a15b505060016000819055505050565b600960009054906101000a900473ffffffffffffffffffffffffffffffffffffffff1681565b6000611202826003806020026040519081016040528092919082600360200280828437600081840152601f19601f820116905080830192505050505050611819565b507f6825b4653b0626e0268f9c124dce0ea5cc6f826ccb2cf314459bd1c62cf011f73383600754604051611238939291906121c7565b60405180910390a16007549050919050565b60046020528060005260406000206000915090508060000154908060010160009054906101000a900473ffffffffffffffffffffffffffffffffffffffff16908060010160149054906101000a900460ff16908060080160009054906101000a900460ff16908060080160019054906101000a900460ff16905085565b600d81600381106112d457fe5b016000915090505481565b3373ffffffffffffffffffffffffffffffffffffffff16600960009054906101000a900473ffffffffffffffffffffffffffffffffffffffff1673ffffffffffffffffffffffffffffffffffffffff161461136f576040517f08c379a000000000000000000000000000000000000000000000000000000000815260040161136690612356565b60405180910390fd5b60005b600360ff168160ff1610156114eb576000600860009054906101000a900473ffffffffffffffffffffffffffffffffffffffff1673ffffffffffffffffffffffffffffffffffffffff166369850424836040518263ffffffff1660e01b81526004016113de91906124ed565b60206040518083038186803b1580156113f657600080fd5b505afa15801561140a573d6000803e3d6000fd5b505050506040513d601f19601f8201168201806040525081019061142e9190611c32565b90508061149d600a8460ff166003811061144457fe5b015461148f600460008881526020019081526020016000206002018660ff166003811061146d57fe5b0154600d8760ff166003811061147f57fe5b01546117c490919063ffffffff16565b61177a90919063ffffffff16565b106114dd576040517f08c379a00000000000000000000000000000000000000000000000000000000081526004016114d4906122b6565b60405180910390fd5b508080600101915050611372565b5060016004600083815260200190815260200160002060080160006101000a81548160ff0219169083151502179055506004600082815260200190815260200160002060020160046000838152602001908152602001600020600501906003611555929190611a4a565b5060005b600360ff168160ff1610156115d3576115b1600460008481526020019081526020016000206002018260ff166003811061158f57fe5b0154600d8360ff16600381106115a157fe5b01546117c490919063ffffffff16565b600d8260ff16600381106115c157fe5b01819055508080600101915050611559565b50600660006004600084815260200190815260200160002060010160009054906101000a900473ffffffffffffffffffffffffffffffffffffffff1673ffffffffffffffffffffffffffffffffffffffff1673ffffffffffffffffffffffffffffffffffffffff16815260200190815260200160002081908060018154018082558091505060019003906000526020600020016000909190919091505550565b60006004600083815260200190815260200160002060080160009054906101000a900460ff169050919050565b60075481565b3373ffffffffffffffffffffffffffffffffffffffff16600960009054906101000a900473ffffffffffffffffffffffffffffffffffffffff1673ffffffffffffffffffffffffffffffffffffffff1614611736576040517f08c379a000000000000000000000000000000000000000000000000000000000815260040161172d90612356565b60405180910390fd5b80600960006101000a81548173ffffffffffffffffffffffffffffffffffffffff021916908373ffffffffffffffffffffffffffffffffffffffff16021790555050565b60006117bc83836040518060400160405280601e81526020017f536166654d6174683a207375627472616374696f6e206f766572666c6f77000081525061198d565b905092915050565b60008082840190508381101561180f576040517f08c379a0000000000000000000000000000000000000000000000000000000008152600401611806906122f6565b60405180910390fd5b8091505092915050565b60006118236119e8565b6007600081548092919060010191905055506040518060e0016040528060075481526020013373ffffffffffffffffffffffffffffffffffffffff168152602001600115158152602001848152602001828152602001600015158152602001600015158152506004600060075481526020019081526020016000206000820151816000015560208201518160010160006101000a81548173ffffffffffffffffffffffffffffffffffffffff021916908373ffffffffffffffffffffffffffffffffffffffff16021790555060408201518160010160146101000a81548160ff021916908315150217905550606082015181600201906003611926929190611a0a565b5060808201518160050190600361193e929190611a0a565b5060a08201518160080160006101000a81548160ff02191690831515021790555060c08201518160080160016101000a81548160ff021916908315150217905550905050600754915050919050565b60008383111582906119d5576040517f08c379a00000000000000000000000000000000000000000000000000000000081526004016119cc9190612294565b60405180910390fd5b5060008385039050809150509392505050565b6040518060600160405280600390602082028036833780820191505090505090565b8260038101928215611a39579160200282015b82811115611a38578251825591602001919060010190611a1d565b5b509050611a469190611a87565b5090565b8260038101928215611a76579182015b82811115611a75578254825591600101919060010190611a5a565b5b509050611a839190611a87565b5090565b5b80821115611aa0576000816000905550600101611a88565b5090565b600081359050611ab3816126cb565b92915050565b600081905082602060030282011115611ad157600080fd5b92915050565b600081519050611ae6816126e2565b92915050565b600081359050611afb816126f9565b92915050565b600081519050611b10816126f9565b92915050565b600060208284031215611b2857600080fd5b6000611b3684828501611aa4565b91505092915050565b60008060408385031215611b5257600080fd5b6000611b6085828601611aa4565b9250506020611b7185828601611aec565b9150509250929050565b600060608284031215611b8d57600080fd5b6000611b9b84828501611ab9565b91505092915050565b60008060808385031215611bb757600080fd5b6000611bc585828601611ab9565b9250506060611bd685828601611aec565b9150509250929050565b600060208284031215611bf257600080fd5b6000611c0084828501611ad7565b91505092915050565b600060208284031215611c1b57600080fd5b6000611c2984828501611aec565b91505092915050565b600060208284031215611c4457600080fd5b6000611c5284828501611b01565b91505092915050565b6000611c678383612139565b60208301905092915050565b611c7c816125d2565b82525050565b611c8b8161257d565b82525050565b611c9d6060838361263e565b5050565b611caa8161251c565b611cb48184612557565b9250611cbf82612508565b8060005b83811015611cf0578151611cd78782611c5b565b9650611ce28361253d565b925050600181019050611cc3565b505050505050565b611d0181612527565b611d0b8184612557565b9250611d1682612512565b8060005b83811015611d4e57611d2b8261269a565b611d358782611c5b565b9650611d408361254a565b925050600181019050611d1a565b505050505050565b611d5f8161258f565b82525050565b611d6e816125e4565b82525050565b6000611d7f82612532565b611d898185612562565b9350611d9981856020860161264d565b611da2816126ad565b840191505092915050565b6000611dba602083612562565b91507f43616e206e6f7420617070726f76652074686174206d75636820616d6f756e746000830152602082019050919050565b6000611dfa601b83612562565b91507f4c6f616e205061796d656e74206e6f742073756363657366756c6c00000000006000830152602082019050919050565b6000611e3a601b83612562565b91507f536166654d6174683a206164646974696f6e206f766572666c6f7700000000006000830152602082019050919050565b6000611e7a601c83612562565b91507f4c6f616e205769746864726177206e6f742073756363657366756c6c000000006000830152602082019050919050565b6000611eba601283612562565b91507f4e6f7420456e6f7567682042616c616e636500000000000000000000000000006000830152602082019050919050565b6000611efa600e83612562565b91507f4e6f7420417574686f72697a65640000000000000000000000000000000000006000830152602082019050919050565b6000611f3a601183612562565b91507f636f6d70616e79206e6f742d65786973740000000000000000000000000000006000830152602082019050919050565b6000611f7a601583612562565b91507f6e6f7420617070726f76656420666f72206c6f616e00000000000000000000006000830152602082019050919050565b6000611fba602b83612562565b91507f446f6e277420686176652074686174206d756368206f662072656d61696e696e60008301527f672072657061796d656e740000000000000000000000000000000000000000006020830152604082019050919050565b6000612020600e83612562565b91507f616c7265616479207265706169640000000000000000000000000000000000006000830152602082019050919050565b6000612060602883612562565b91507f616d6f756e7420726571756573746564206578636565647320616d6f756e742060008301527f617070726f7665640000000000000000000000000000000000000000000000006020830152604082019050919050565b60006120c6600f83612562565b91507f696e76616c6964206c6f616e20696400000000000000000000000000000000006000830152602082019050919050565b6000612106601f83612562565b91507f5265656e7472616e637947756172643a207265656e7472616e742063616c6c006000830152602082019050919050565b612142816125bb565b82525050565b612151816125bb565b82525050565b6121608161262c565b82525050565b600060208201905061217b6000830184611c82565b92915050565b6000610100820190506121976000830187611c73565b6121a46020830186611c91565b6121b16080830185611cf8565b6121be60e0830184612148565b95945050505050565b600060a0820190506121dc6000830186611c73565b6121e96020830185611c91565b6121f66080830184612148565b949350505050565b60006080820190506122136000830185611c91565b6122206060830184611c82565b9392505050565b600060e08201905061223c6000830186611c91565b6122496060830185611ca1565b61225660c0830184611c82565b949350505050565b60006020820190506122736000830184611d56565b92915050565b600060208201905061228e6000830184611d65565b92915050565b600060208201905081810360008301526122ae8184611d74565b905092915050565b600060208201905081810360008301526122cf81611dad565b9050919050565b600060208201905081810360008301526122ef81611ded565b9050919050565b6000602082019050818103600083015261230f81611e2d565b9050919050565b6000602082019050818103600083015261232f81611e6d565b9050919050565b6000602082019050818103600083015261234f81611ead565b9050919050565b6000602082019050818103600083015261236f81611eed565b9050919050565b6000602082019050818103600083015261238f81611f2d565b9050919050565b600060208201905081810360008301526123af81611f6d565b9050919050565b600060208201905081810360008301526123cf81611fad565b9050919050565b600060208201905081810360008301526123ef81612013565b9050919050565b6000602082019050818103600083015261240f81612053565b9050919050565b6000602082019050818103600083015261242f816120b9565b9050919050565b6000602082019050818103600083015261244f816120f9565b9050919050565b600060208201905061246b6000830184612148565b92915050565b600060a0820190506124866000830188612148565b6124936020830187611c82565b6124a06040830186611d56565b6124ad6060830185611d56565b6124ba6080830184611d56565b9695505050505050565b60006040820190506124d96000830185612148565b6124e66020830184611d56565b9392505050565b60006020820190506125026000830184612157565b92915050565b6000819050919050565b6000819050919050565b600060039050919050565b600060039050919050565b600081519050919050565b6000602082019050919050565b6000600182019050919050565b600081905092915050565b600082825260208201905092915050565b6000819050919050565b60006125888261259b565b9050919050565b60008115159050919050565b600073ffffffffffffffffffffffffffffffffffffffff82169050919050565b6000819050919050565b600060ff82169050919050565b60006125dd82612608565b9050919050565b60006125ef826125f6565b9050919050565b60006126018261259b565b9050919050565b60006126138261261a565b9050919050565b60006126258261259b565b9050919050565b6000612637826125c5565b9050919050565b82818337600083830152505050565b60005b8381101561266b578082015181840152602081019050612650565b8381111561267a576000848401525b50505050565b600061269361268e836126be565b612573565b9050919050565b60006126a68254612680565b9050919050565b6000601f19601f8301169050919050565b60008160001c9050919050565b6126d48161257d565b81146126df57600080fd5b50565b6126eb8161258f565b81146126f657600080fd5b50565b612702816125bb565b811461270d57600080fd5b5056fea2646970667358221220997870362b77215c1ee0f0733438fa0d698ae092bfde8eb3f4eb72806d2be0ad64736f6c634300060c0033",
  "immutableReferences": {},
  "source": "// SPDX-License-Identifier: UNLICENSED\r\npragma solidity ^0.6.0;\r\npragma experimental ABIEncoderV2;\r\n\r\n\r\nimport '@openzeppelin/contracts/math/SafeMath.sol';\r\nimport '../../Interfaces/IERC20Interface.sol';\r\nimport '../../Interfaces/RoyaleInterface.sol';\r\nimport './ReentrancyGuard.sol';\r\n\r\ncontract rLoan is ReentrancyGuard{\r\n\r\n    using SafeMath for uint256;\r\n    uint8 constant N_COINS = 3;\r\n    \r\n    IERC20[N_COINS] tokens;\r\n    mapping(uint256 => Transaction) public transactions;\r\n    mapping(uint256 => Repayment) public gamingCompanyRepayment;\r\n    mapping(address => uint[])public takenLoan;\r\n    \r\n    uint256 public transactionCount = 0;\r\n    RoyaleInterface public royale;\r\n\r\n    address public wallet;\r\n\r\n    uint256[N_COINS] public totalLoanTaken;\r\n    uint256[N_COINS] public totalApprovedLoan;\r\n    \r\n    struct Transaction {\r\n        uint256 transactionId;\r\n        address iGamingCompany;\r\n        bool isGamingCompanySigned;\r\n        uint256[N_COINS] tokenAmounts;\r\n        uint256[N_COINS] remAmt;\r\n        bool approved;\r\n        bool executed;\r\n    }\r\n\r\n    struct Repayment {\r\n        uint256 transactionID;\r\n        bool isRepaymentDone;\r\n        uint256[N_COINS] remainingTokenAmounts;\r\n    }\r\n\r\n\r\n    /* Events */\r\n\r\n    event loanRequested(\r\n        address by,\r\n        uint[N_COINS] amounts,\r\n        uint loanID\r\n    );\r\n\r\n    event approved(\r\n        uint loanID\r\n    );\r\n\r\n\r\n    event loanWithdrawn(\r\n        address by,\r\n        uint[N_COINS] requestedAmount,\r\n        uint[N_COINS] remainingAmount,\r\n        uint loanID\r\n    );\r\n\r\n    event loanFulfilled(\r\n        address by,\r\n        uint[N_COINS] requestedAmount,\r\n        uint[N_COINS] remainingAmount,\r\n        uint loanID\r\n    );\r\n\r\n    event loanRepayed(\r\n        address by,\r\n        uint[N_COINS] repayedAmount,\r\n        uint[N_COINS] amountRemaining,\r\n        uint loanID\r\n    );\r\n\r\n    event wholeLoanRepayed(\r\n        address by,\r\n        uint[N_COINS] repayedAmount,\r\n        uint[N_COINS] amountRemaining,\r\n        uint loanID\r\n    );\r\n\r\n    /* Modifiers */\r\n\r\n     modifier onlyWallet(){\r\n      require(wallet==msg.sender, \"Not Authorized\");\r\n      _;\r\n  }\r\n\r\n    \r\n\r\n    modifier transactionExists(uint _loanID) {\r\n        require(_loanID > 0 && _loanID <= transactionCount);\r\n        _;\r\n    }\r\n   \r\n\r\n    constructor(address[N_COINS] memory _tokens , address _royale,address _wallet) public {\r\n    \r\n        royale = RoyaleInterface(_royale);\r\n        // Set Tokens supported by Pool\r\n\r\n        for(uint8 i=0; i<N_COINS; i++) {\r\n            tokens[i] = IERC20(_tokens[i]);\r\n           \r\n        }\r\n        wallet=_wallet;\r\n    }\r\n\r\n\r\n    function transferOwnership(address _wallet) external onlyWallet(){\r\n        wallet =_wallet;\r\n    }\r\n    /* Internal Functions */\r\n\r\n    function _addTransaction(uint256[N_COINS] memory amounts ) internal returns(uint256){\r\n        uint256[N_COINS] memory zero;\r\n        transactionCount++;\r\n        transactions[transactionCount] = Transaction({\r\n            transactionId: transactionCount,\r\n            iGamingCompany: msg.sender,\r\n            tokenAmounts: amounts,\r\n            remAmt: zero,\r\n            isGamingCompanySigned: true,\r\n            approved: false,\r\n            executed: false\r\n        });\r\n        return transactionCount;\r\n        \r\n    }\r\n    /* USER FUNCTIONS (exposed to frontend) */\r\n\r\n    // Gaming platforms withdraw using this\r\n    function requestLoan(uint256[N_COINS] calldata amounts) external returns(uint256 loanID) {\r\n       _addTransaction(amounts);\r\n        emit loanRequested(msg.sender, amounts, transactionCount);\r\n        return transactionCount;\r\n       \r\n    }\r\n\r\n      function approveLoan(uint _loanID) external onlyWallet() {\r\n       \r\n        for(uint8 i=0;i<N_COINS;i++) {\r\n            uint royaleBalance=royale.selfBalance(i);\r\n            require(totalApprovedLoan[i].add(transactions[_loanID].tokenAmounts[i]).sub(totalLoanTaken[i])<royaleBalance,\"Can not approve that much amount\");\r\n        }\r\n        transactions[_loanID].approved = true;\r\n        transactions[_loanID].remAmt = transactions[_loanID].tokenAmounts;\r\n        for(uint8 i=0;i<N_COINS;i++){\r\n            totalApprovedLoan[i] =totalApprovedLoan[i].add(transactions[_loanID].tokenAmounts[i]);\r\n        }\r\n        takenLoan[transactions[_loanID].iGamingCompany].push(_loanID);\r\n    }\r\n    \r\n\r\n    function checkLoanApproved(uint _loanID) external view returns(bool) {\r\n        return transactions[_loanID].approved;\r\n    }\r\n    \r\n\r\n    /* Admin Function */\r\n    \r\n   \r\n\r\n    function withdrawLoan( uint256[N_COINS] calldata amounts,uint _loanID) external nonReentrant{\r\n        for(uint8 i=0;i<3;i++){\r\n            require(amounts[i]<=royale.selfBalance(i),\"Not Enough Balance\");\r\n        }\r\n        require(transactions[_loanID].iGamingCompany == msg.sender, \"company not-exist\");\r\n        require(transactions[_loanID].approved, \"not approved for loan\");\r\n        uint256[N_COINS] memory loanAmount;\r\n        for(uint8 i=0; i<N_COINS; i++) {\r\n            require(transactions[_loanID].remAmt[i] >= amounts[i], \"amount requested exceeds amount approved\");\r\n        }\r\n        uint256 poolBalance;\r\n        uint256[3] memory withdrawAmount;\r\n         for(uint8 i=0;i<3;i++){\r\n             poolBalance=tokens[i].balanceOf(address(royale));\r\n             if(amounts[i]>poolBalance){\r\n                 withdrawAmount[i]=amounts[i].sub(poolBalance);\r\n             }\r\n         }\r\n        bool b = royale._loanWithdraw(amounts,withdrawAmount,transactions[_loanID].iGamingCompany);\r\n        require(b, \"Loan Withdraw not succesfull\");\r\n\r\n        uint check = 0;\r\n        for(uint8 i=0; i<N_COINS; i++) {\r\n            if(amounts[i] > 0) {\r\n                totalLoanTaken[i] =totalLoanTaken[i].add(amounts[i]);\r\n                transactions[_loanID].remAmt[i] =transactions[_loanID].remAmt[i].sub(amounts[i]);\r\n                loanAmount[i]=gamingCompanyRepayment[_loanID].remainingTokenAmounts[i].add(amounts[i]);\r\n            }\r\n            if(transactions[_loanID].remAmt[i] == 0) {\r\n                check++;\r\n            }\r\n        }\r\n        gamingCompanyRepayment[_loanID] = Repayment({\r\n                  transactionID: _loanID,\r\n                  isRepaymentDone: false,\r\n                  remainingTokenAmounts: loanAmount\r\n        });\r\n\r\n\r\n        emit loanWithdrawn(msg.sender, amounts, transactions[_loanID].remAmt, _loanID);\r\n\r\n        if(check == 3) {\r\n            // Loan fulfilled, company used all its loan\r\n            transactions[_loanID].executed = true;\r\n        }\r\n    } \r\n    \r\n    \r\n    \r\n    function repayLoan(uint256[N_COINS] calldata _amounts, uint _loanId) external nonReentrant{\r\n        require(_loanId <= transactionCount, \"invalid loan id\");\r\n        require(transactions[_loanId].iGamingCompany == msg.sender, \"company not-exist\");\r\n        require(!gamingCompanyRepayment[_loanId].isRepaymentDone, \"already repaid\");\r\n        for(uint8 i=0;i<N_COINS;i++){\r\n            require(_amounts[i]<=gamingCompanyRepayment[_loanId].remainingTokenAmounts[i],\"Don't have that much of remaining repayment\");\r\n        }\r\n        bool b = royale._loanRepayment(_amounts,transactions[_loanId].iGamingCompany);\r\n        require(b,\"Loan Payment not succesfull\");\r\n        uint counter=0;\r\n        for(uint i=0;i<N_COINS;i++) {\r\n            if(_amounts[i]!=0) {\r\n                totalLoanTaken[i] =totalLoanTaken[i].sub(_amounts[i]);\r\n                totalApprovedLoan[i]=totalApprovedLoan[i].sub(_amounts[i]);\r\n                gamingCompanyRepayment[_loanId].remainingTokenAmounts[i] =gamingCompanyRepayment[_loanId].remainingTokenAmounts[i].sub(_amounts[i]);\r\n                if(gamingCompanyRepayment[_loanId].remainingTokenAmounts[i] == 0) {\r\n                    counter++;\r\n                }\r\n            }\r\n        }\r\n        emit loanRepayed(\r\n            msg.sender,\r\n            _amounts, \r\n            gamingCompanyRepayment[_loanId].remainingTokenAmounts,\r\n            _loanId\r\n        );\r\n\r\n        if(counter==3){\r\n            gamingCompanyRepayment[_loanId].isRepaymentDone=true;\r\n\r\n            emit wholeLoanRepayed(\r\n                msg.sender,\r\n                _amounts, \r\n                gamingCompanyRepayment[_loanId].remainingTokenAmounts,\r\n                _loanId\r\n            );\r\n        }       \r\n    }\r\n}",
  "sourcePath": "C:/Users/vishn/OneDrive/Desktop/RoyaleProject/RoyaleFinance/royale-contracts/contracts/Pool/rLoan.sol",
  "compiler": {
    "name": "solc",
    "version": "0.6.12+commit.27d51765.Emscripten.clang"
  },
  "schemaVersion": "3.3.2",
  "updatedAt": "2021-02-12T05:36:02.966Z",
  "devdoc": {
    "kind": "dev",
    "methods": {},
    "version": 1
  },
  "userdoc": {
    "kind": "user",
    "methods": {},
    "version": 1
  }
}