{
  "contractName": "rLoan",
  "abi": [
    {
      "inputs": [
        {
          "internalType": "address[3]",
          "name": "_tokens",
          "type": "address[3]"
        },
        {
          "internalType": "address",
          "name": "_royale",
          "type": "address"
        },
        {
          "internalType": "address",
          "name": "_wallet",
          "type": "address"
        }
      ],
      "stateMutability": "nonpayable",
      "type": "constructor"
    },
    {
      "anonymous": false,
      "inputs": [
        {
          "indexed": false,
          "internalType": "uint256",
          "name": "loanID",
          "type": "uint256"
        }
      ],
      "name": "approved",
      "type": "event"
    },
    {
      "anonymous": false,
      "inputs": [
        {
          "indexed": false,
          "internalType": "address",
          "name": "by",
          "type": "address"
        },
        {
          "indexed": false,
          "internalType": "uint256[3]",
          "name": "requestedAmount",
          "type": "uint256[3]"
        },
        {
          "indexed": false,
          "internalType": "uint256[3]",
          "name": "remainingAmount",
          "type": "uint256[3]"
        },
        {
          "indexed": false,
          "internalType": "uint256",
          "name": "loanID",
          "type": "uint256"
        }
      ],
      "name": "loanFulfilled",
      "type": "event"
    },
    {
      "anonymous": false,
      "inputs": [
        {
          "indexed": false,
          "internalType": "address",
          "name": "by",
          "type": "address"
        },
        {
          "indexed": false,
          "internalType": "uint256[3]",
          "name": "repayedAmount",
          "type": "uint256[3]"
        },
        {
          "indexed": false,
          "internalType": "uint256[3]",
          "name": "amountRemaining",
          "type": "uint256[3]"
        },
        {
          "indexed": false,
          "internalType": "uint256",
          "name": "loanID",
          "type": "uint256"
        }
      ],
      "name": "loanRepayed",
      "type": "event"
    },
    {
      "anonymous": false,
      "inputs": [
        {
          "indexed": false,
          "internalType": "address",
          "name": "by",
          "type": "address"
        },
        {
          "indexed": false,
          "internalType": "uint256[3]",
          "name": "amounts",
          "type": "uint256[3]"
        },
        {
          "indexed": false,
          "internalType": "uint256",
          "name": "loanID",
          "type": "uint256"
        }
      ],
      "name": "loanRequested",
      "type": "event"
    },
    {
      "anonymous": false,
      "inputs": [
        {
          "indexed": false,
          "internalType": "address",
          "name": "by",
          "type": "address"
        },
        {
          "indexed": false,
          "internalType": "uint256[3]",
          "name": "requestedAmount",
          "type": "uint256[3]"
        },
        {
          "indexed": false,
          "internalType": "uint256[3]",
          "name": "remainingAmount",
          "type": "uint256[3]"
        },
        {
          "indexed": false,
          "internalType": "uint256",
          "name": "loanID",
          "type": "uint256"
        }
      ],
      "name": "loanWithdrawn",
      "type": "event"
    },
    {
      "anonymous": false,
      "inputs": [
        {
          "indexed": false,
          "internalType": "address",
          "name": "by",
          "type": "address"
        },
        {
          "indexed": false,
          "internalType": "uint256[3]",
          "name": "repayedAmount",
          "type": "uint256[3]"
        },
        {
          "indexed": false,
          "internalType": "uint256[3]",
          "name": "amountRemaining",
          "type": "uint256[3]"
        },
        {
          "indexed": false,
          "internalType": "uint256",
          "name": "loanID",
          "type": "uint256"
        }
      ],
      "name": "wholeLoanRepayed",
      "type": "event"
    },
    {
      "inputs": [
        {
          "internalType": "uint256",
          "name": "",
          "type": "uint256"
        }
      ],
      "name": "gamingCompanyRepayment",
      "outputs": [
        {
          "internalType": "uint256",
          "name": "transactionID",
          "type": "uint256"
        },
        {
          "internalType": "bool",
          "name": "isRepaymentDone",
          "type": "bool"
        }
      ],
      "stateMutability": "view",
      "type": "function"
    },
    {
      "inputs": [],
      "name": "royale",
      "outputs": [
        {
          "internalType": "contract RoyaleInterface",
          "name": "",
          "type": "address"
        }
      ],
      "stateMutability": "view",
      "type": "function"
    },
    {
      "inputs": [
        {
          "internalType": "address",
          "name": "",
          "type": "address"
        },
        {
          "internalType": "uint256",
          "name": "",
          "type": "uint256"
        }
      ],
      "name": "takenLoan",
      "outputs": [
        {
          "internalType": "uint256",
          "name": "",
          "type": "uint256"
        }
      ],
      "stateMutability": "view",
      "type": "function"
    },
    {
      "inputs": [
        {
          "internalType": "uint256",
          "name": "",
          "type": "uint256"
        }
      ],
      "name": "totalApprovedLoan",
      "outputs": [
        {
          "internalType": "uint256",
          "name": "",
          "type": "uint256"
        }
      ],
      "stateMutability": "view",
      "type": "function"
    },
    {
      "inputs": [
        {
          "internalType": "uint256",
          "name": "",
          "type": "uint256"
        }
      ],
      "name": "totalLoanTaken",
      "outputs": [
        {
          "internalType": "uint256",
          "name": "",
          "type": "uint256"
        }
      ],
      "stateMutability": "view",
      "type": "function"
    },
    {
      "inputs": [],
      "name": "transactionCount",
      "outputs": [
        {
          "internalType": "uint256",
          "name": "",
          "type": "uint256"
        }
      ],
      "stateMutability": "view",
      "type": "function"
    },
    {
      "inputs": [
        {
          "internalType": "uint256",
          "name": "",
          "type": "uint256"
        }
      ],
      "name": "transactions",
      "outputs": [
        {
          "internalType": "uint256",
          "name": "transactionId",
          "type": "uint256"
        },
        {
          "internalType": "address",
          "name": "iGamingCompany",
          "type": "address"
        },
        {
          "internalType": "bool",
          "name": "isGamingCompanySigned",
          "type": "bool"
        },
        {
          "internalType": "bool",
          "name": "approved",
          "type": "bool"
        },
        {
          "internalType": "bool",
          "name": "executed",
          "type": "bool"
        }
      ],
      "stateMutability": "view",
      "type": "function"
    },
    {
      "inputs": [],
      "name": "wallet",
      "outputs": [
        {
          "internalType": "address",
          "name": "",
          "type": "address"
        }
      ],
      "stateMutability": "view",
      "type": "function"
    },
    {
      "inputs": [
        {
          "internalType": "address",
          "name": "_wallet",
          "type": "address"
        }
      ],
      "name": "transferOwnership",
      "outputs": [],
      "stateMutability": "nonpayable",
      "type": "function"
    },
    {
      "inputs": [
        {
          "internalType": "uint256[3]",
          "name": "amounts",
          "type": "uint256[3]"
        }
      ],
      "name": "requestLoan",
      "outputs": [
        {
          "internalType": "uint256",
          "name": "loanID",
          "type": "uint256"
        }
      ],
      "stateMutability": "nonpayable",
      "type": "function"
    },
    {
      "inputs": [
        {
          "internalType": "uint256",
          "name": "_loanID",
          "type": "uint256"
        }
      ],
      "name": "approveLoan",
      "outputs": [],
      "stateMutability": "nonpayable",
      "type": "function"
    },
    {
      "inputs": [
        {
          "internalType": "uint256",
          "name": "_loanID",
          "type": "uint256"
        }
      ],
      "name": "checkLoanApproved",
      "outputs": [
        {
          "internalType": "bool",
          "name": "",
          "type": "bool"
        }
      ],
      "stateMutability": "view",
      "type": "function"
    },
    {
      "inputs": [
        {
          "internalType": "uint256[3]",
          "name": "amounts",
          "type": "uint256[3]"
        },
        {
          "internalType": "uint256",
          "name": "_loanID",
          "type": "uint256"
        }
      ],
      "name": "withdrawLoan",
      "outputs": [],
      "stateMutability": "nonpayable",
      "type": "function"
    },
    {
      "inputs": [
        {
          "internalType": "uint256[3]",
          "name": "_amounts",
          "type": "uint256[3]"
        },
        {
          "internalType": "uint256",
          "name": "_loanId",
          "type": "uint256"
        }
      ],
      "name": "repayLoan",
      "outputs": [],
      "stateMutability": "nonpayable",
      "type": "function"
    }
  ],
  "bytecode": "0x608060405260006007553480156200001657600080fd5b506040516200302d3803806200302d83398181016040528101906200003c9190620001eb565b600160008190555081600860006101000a81548173ffffffffffffffffffffffffffffffffffffffff021916908373ffffffffffffffffffffffffffffffffffffffff16021790555060005b600360ff168160ff1610156200010b57838160ff1660038110620000a857fe5b602002015160018260ff1660038110620000be57fe5b0160006101000a81548173ffffffffffffffffffffffffffffffffffffffff021916908373ffffffffffffffffffffffffffffffffffffffff160217905550808060010191505062000088565b5080600960006101000a81548173ffffffffffffffffffffffffffffffffffffffff021916908373ffffffffffffffffffffffffffffffffffffffff160217905550505050620002e0565b6000815190506200016781620002c6565b92915050565b600082601f8301126200017f57600080fd5b60036200019662000190826200026f565b62000241565b91508183856020840282011115620001ad57600080fd5b60005b83811015620001e15781620001c6888262000156565b845260208401935060208301925050600181019050620001b0565b5050505092915050565b600080600060a084860312156200020157600080fd5b600062000211868287016200016d565b9350506060620002248682870162000156565b9250506080620002378682870162000156565b9150509250925092565b6000604051905081810181811067ffffffffffffffff821117156200026557600080fd5b8060405250919050565b600067ffffffffffffffff8211156200028757600080fd5b602082029050919050565b60006200029f82620002a6565b9050919050565b600073ffffffffffffffffffffffffffffffffffffffff82169050919050565b620002d18162000292565b8114620002dd57600080fd5b50565b612d3d80620002f06000396000f3fe608060405234801561001057600080fd5b50600436106100ea5760003560e01c806362a945d11161008c578063aadc1ac111610066578063aadc1ac114610288578063ae8df6a6146102a4578063b77bf600146102d4578063f2fde38b146102f2576100ea565b806362a945d1146101f45780639ace38c214610224578063aa37dca214610258576100ea565b80632fd040d6116100c85780632fd040d614610159578063398d1b9e146101895780633d591bc2146101ba578063521eb273146101d6576100ea565b806310266c1c146100ef578063277514e01461011f5780632f0946321461013b575b600080fd5b61010960048036038101906101049190612111565b61030e565b6040516101169190612a36565b60405180910390f35b610139600480360381019061013491906120ac565b610326565b005b610143610d77565b6040516101509190612839565b60405180910390f35b610173600480360381019061016e9190612047565b610d9d565b6040516101809190612a36565b60405180910390f35b6101a3600480360381019061019e9190612111565b610dcb565b6040516101b1929190612aa4565b60405180910390f35b6101d460048036038101906101cf91906120ac565b610dfc565b005b6101de61144d565b6040516101eb91906126fd565b60405180910390f35b61020e60048036038101906102099190612083565b611473565b60405161021b9190612a36565b60405180910390f35b61023e60048036038101906102399190612111565b6114fd565b60405161024f959493929190612a51565b60405180910390f35b610272600480360381019061026d9190612111565b61157a565b60405161027f9190612a36565b60405180910390f35b6102a2600480360381019061029d9190612111565b611592565b005b6102be60048036038101906102b99190612111565b611a4b565b6040516102cb919061281e565b60405180910390f35b6102dc611a78565b6040516102e99190612a36565b60405180910390f35b61030c6004803603810190610307919061201e565b611a7e565b005b600a816003811061031b57fe5b016000915090505481565b6002600054141561036c576040517f08c379a000000000000000000000000000000000000000000000000000000000815260040161036390612a16565b60405180910390fd5b600260008190555060008060005b60038160ff16101561049e5760018160ff166003811061039657fe5b0160009054906101000a900473ffffffffffffffffffffffffffffffffffffffff1673ffffffffffffffffffffffffffffffffffffffff1663313ce5676040518163ffffffff1660e01b815260040160206040518083038186803b1580156103fd57600080fd5b505afa158015610411573d6000803e3d6000fd5b505050506040513d601f19601f820116820180604052508101906104359190612163565b60ff16915061048f61048083600a0a610472670de0b6b3a7640000898660ff166003811061045f57fe5b6020020135611b5290919063ffffffff16565b611bc290919063ffffffff16565b84611c0c90919063ffffffff16565b9250808060010191505061037a565b50600860009054906101000a900473ffffffffffffffffffffffffffffffffffffffff1673ffffffffffffffffffffffffffffffffffffffff1663ad6abb0c60006040518263ffffffff1660e01b81526004016104fb919061281e565b60206040518083038186803b15801561051357600080fd5b505afa158015610527573d6000803e3d6000fd5b505050506040513d601f19601f8201168201806040525081019061054b919061213a565b821061058c576040517f08c379a000000000000000000000000000000000000000000000000000000000815260040161058390612916565b60405180910390fd5b3373ffffffffffffffffffffffffffffffffffffffff166004600085815260200190815260200160002060010160009054906101000a900473ffffffffffffffffffffffffffffffffffffffff1673ffffffffffffffffffffffffffffffffffffffff1614610630576040517f08c379a000000000000000000000000000000000000000000000000000000000815260040161062790612936565b60405180910390fd5b6004600084815260200190815260200160002060080160009054906101000a900460ff16610693576040517f08c379a000000000000000000000000000000000000000000000000000000000815260040161068a90612956565b60405180910390fd5b61069b611edb565b60005b600360ff168160ff16101561073557858160ff16600381106106bc57fe5b6020020135600460008781526020019081526020016000206005018260ff16600381106106e557fe5b01541015610728576040517f08c379a000000000000000000000000000000000000000000000000000000000815260040161071f906129d6565b60405180910390fd5b808060010191505061069e565b506000610740611edb565b60005b60038160ff1610156109535760018160ff166003811061075f57fe5b0160009054906101000a900473ffffffffffffffffffffffffffffffffffffffff1673ffffffffffffffffffffffffffffffffffffffff166370a08231600860009054906101000a900473ffffffffffffffffffffffffffffffffffffffff166040518263ffffffff1660e01b81526004016107db91906126fd565b60206040518083038186803b1580156107f357600080fd5b505afa158015610807573d6000803e3d6000fd5b505050506040513d601f19601f8201168201806040525081019061082b919061213a565b92506108ea600860009054906101000a900473ffffffffffffffffffffffffffffffffffffffff1673ffffffffffffffffffffffffffffffffffffffff1663f0dd71c7836040518263ffffffff1660e01b815260040161088b9190612acd565b60206040518083038186803b1580156108a357600080fd5b505afa1580156108b7573d6000803e3d6000fd5b505050506040513d601f19601f820116820180604052508101906108db919061213a565b84611c6190919063ffffffff16565b925082888260ff16600381106108fc57fe5b602002013511156109465761092d83898360ff166003811061091a57fe5b6020020135611c6190919063ffffffff16565b828260ff166003811061093c57fe5b6020020181815250505b8080600101915050610743565b506000805b600360ff168160ff161015610b37576000898260ff166003811061097857fe5b60200201351115610af3576109ba898260ff166003811061099557fe5b6020020135600a8360ff16600381106109aa57fe5b0154611c0c90919063ffffffff16565b600a8260ff16600381106109ca57fe5b0181905550610a06898260ff16600381106109e157fe5b6020020135600d8360ff16600381106109f657fe5b0154611c6190919063ffffffff16565b600d8260ff1660038110610a1657fe5b0181905550610a66898260ff1660038110610a2d57fe5b6020020135600460008b81526020019081526020016000206005018360ff1660038110610a5657fe5b0154611c6190919063ffffffff16565b600460008a81526020019081526020016000206005018260ff1660038110610a8a57fe5b0181905550610ada898260ff1660038110610aa157fe5b6020020135600560008b81526020019081526020016000206002018360ff1660038110610aca57fe5b0154611c0c90919063ffffffff16565b858260ff1660038110610ae957fe5b6020020181815250505b6000600460008a81526020019081526020016000206005018260ff1660038110610b1957fe5b01541415610b2a5781806001019250505b8080600101915050610958565b50604051806060016040528088815260200160001515815260200185815250600560008981526020019081526020016000206000820151816000015560208201518160010160006101000a81548160ff021916908315150217905550604082015181600201906003610baa929190611efd565b509050506003811415610be75760016004600089815260200190815260200160002060080160016101000a81548160ff0219169083151502179055505b6000600860009054906101000a900473ffffffffffffffffffffffffffffffffffffffff1673ffffffffffffffffffffffffffffffffffffffff166357cba5348a85600460008d815260200190815260200160002060010160009054906101000a900473ffffffffffffffffffffffffffffffffffffffff166040518463ffffffff1660e01b8152600401610c7e939291906127e7565b602060405180830381600087803b158015610c9857600080fd5b505af1158015610cac573d6000803e3d6000fd5b505050506040513d601f19601f82011682018060405250810190610cd091906120e8565b905080610d12576040517f08c379a0000000000000000000000000000000000000000000000000000000008152600401610d09906128d6565b60405180910390fd5b7f3fe87a796bb63522ae7b9008d51ff617ee24dbde9a0fac8ed85e5a29e7817556338a600460008c81526020019081526020016000206005018b604051610d5c9493929190612718565b60405180910390a15050505050505060016000819055505050565b600860009054906101000a900473ffffffffffffffffffffffffffffffffffffffff1681565b60066020528160005260406000208181548110610db657fe5b90600052602060002001600091509150505481565b60056020528060005260406000206000915090508060000154908060010160009054906101000a900460ff16905082565b60026000541415610e42576040517f08c379a0000000000000000000000000000000000000000000000000000000008152600401610e3990612a16565b60405180910390fd5b6002600081905550600754811115610e8f576040517f08c379a0000000000000000000000000000000000000000000000000000000008152600401610e86906129f6565b60405180910390fd5b3373ffffffffffffffffffffffffffffffffffffffff166004600083815260200190815260200160002060010160009054906101000a900473ffffffffffffffffffffffffffffffffffffffff1673ffffffffffffffffffffffffffffffffffffffff1614610f33576040517f08c379a0000000000000000000000000000000000000000000000000000000008152600401610f2a90612936565b60405180910390fd5b6005600082815260200190815260200160002060010160009054906101000a900460ff1615610f97576040517f08c379a0000000000000000000000000000000000000000000000000000000008152600401610f8e90612996565b60405180910390fd5b60005b600360ff168160ff16101561103157600560008381526020019081526020016000206002018160ff1660038110610fcd57fe5b0154838260ff1660038110610fde57fe5b60200201351115611024576040517f08c379a000000000000000000000000000000000000000000000000000000000815260040161101b90612976565b60405180910390fd5b8080600101915050610f9a565b506000600860009054906101000a900473ffffffffffffffffffffffffffffffffffffffff1673ffffffffffffffffffffffffffffffffffffffff1663982dd243846040518263ffffffff1660e01b815260040161108f91906127cc565b602060405180830381600087803b1580156110a957600080fd5b505af11580156110bd573d6000803e3d6000fd5b505050506040513d601f19601f820116820180604052508101906110e191906120e8565b905080611123576040517f08c379a000000000000000000000000000000000000000000000000000000000815260040161111a90612896565b60405180910390fd5b6000805b600360ff1681101561136157600085826003811061114157fe5b602002013514611354576001816003811061115857fe5b0160009054906101000a900473ffffffffffffffffffffffffffffffffffffffff1673ffffffffffffffffffffffffffffffffffffffff166323b872dd6004600087815260200190815260200160002060010160009054906101000a900473ffffffffffffffffffffffffffffffffffffffff16600860009054906101000a900473ffffffffffffffffffffffffffffffffffffffff168885600381106111fb57fe5b60200201356040518463ffffffff1660e01b815260040161121e93929190612795565b602060405180830381600087803b15801561123857600080fd5b505af115801561124c573d6000803e3d6000fd5b505050506040513d601f19601f8201168201806040525081019061127091906120e8565b506112a285826003811061128057fe5b6020020135600a836003811061129257fe5b0154611c6190919063ffffffff16565b600a82600381106112af57fe5b01819055506112f98582600381106112c357fe5b60200201356005600087815260200190815260200160002060020183600381106112e957fe5b0154611c6190919063ffffffff16565b60056000868152602001908152602001600020600201826003811061131a57fe5b0181905550600060056000868152602001908152602001600020600201826003811061134257fe5b015414156113535781806001019250505b5b8080600101915050611127565b507ffe337a99fc07b4422a06a40fb4728125523f3c0977d012d21e3eb9f89edfd360338560056000878152602001908152602001600020600201866040516113ac9493929190612718565b60405180910390a1600381141561143f5760016005600085815260200190815260200160002060010160006101000a81548160ff0219169083151502179055507f57d01a01ec1287fb00888c92856cb0f45352809b7a5350fdd677ce76f7826299338560056000878152602001908152602001600020600201866040516114369493929190612718565b60405180910390a15b505060016000819055505050565b600960009054906101000a900473ffffffffffffffffffffffffffffffffffffffff1681565b60006114b5826003806020026040519081016040528092919082600360200280828437600081840152601f19601f820116905080830192505050505050611cab565b507f6825b4653b0626e0268f9c124dce0ea5cc6f826ccb2cf314459bd1c62cf011f733836007546040516114eb9392919061275e565b60405180910390a16007549050919050565b60046020528060005260406000206000915090508060000154908060010160009054906101000a900473ffffffffffffffffffffffffffffffffffffffff16908060010160149054906101000a900460ff16908060080160009054906101000a900460ff16908060080160019054906101000a900460ff16905085565b600d816003811061158757fe5b016000915090505481565b3373ffffffffffffffffffffffffffffffffffffffff16600960009054906101000a900473ffffffffffffffffffffffffffffffffffffffff1673ffffffffffffffffffffffffffffffffffffffff1614611622576040517f08c379a0000000000000000000000000000000000000000000000000000000008152600401611619906128f6565b60405180910390fd5b6000600860009054906101000a900473ffffffffffffffffffffffffffffffffffffffff1673ffffffffffffffffffffffffffffffffffffffff1663ad6abb0c60006040518263ffffffff1660e01b8152600401611680919061281e565b60206040518083038186803b15801561169857600080fd5b505afa1580156116ac573d6000803e3d6000fd5b505050506040513d601f19601f820116820180604052508101906116d0919061213a565b9050600080600080600090505b600360ff168160ff16101561186b5760018160ff16600381106116fc57fe5b0160009054906101000a900473ffffffffffffffffffffffffffffffffffffffff1673ffffffffffffffffffffffffffffffffffffffff1663313ce5676040518163ffffffff1660e01b815260040160206040518083038186803b15801561176357600080fd5b505afa158015611777573d6000803e3d6000fd5b505050506040513d601f19601f8201168201806040525081019061179b9190612163565b60ff1691506117f36117e483600a0a6117d6670de0b6b3a7640000600d8660ff16600381106117c657fe5b0154611b5290919063ffffffff16565b611bc290919063ffffffff16565b85611c0c90919063ffffffff16565b935061185c61184d83600a0a61183f670de0b6b3a7640000600460008c81526020019081526020016000206002018660ff166003811061182f57fe5b0154611b5290919063ffffffff16565b611bc290919063ffffffff16565b84611c0c90919063ffffffff16565b925080806001019150506116dd565b50836118808385611c0c90919063ffffffff16565b106118c0576040517f08c379a00000000000000000000000000000000000000000000000000000000081526004016118b790612876565b60405180910390fd5b60016004600087815260200190815260200160002060080160006101000a81548160ff0219169083151502179055506004600086815260200190815260200160002060020160046000878152602001908152602001600020600501906003611929929190611f3d565b5060005b600360ff168160ff1610156119a757611985600460008881526020019081526020016000206002018260ff166003811061196357fe5b0154600d8360ff166003811061197557fe5b0154611c0c90919063ffffffff16565b600d8260ff166003811061199557fe5b0181905550808060010191505061192d565b50600660006004600088815260200190815260200160002060010160009054906101000a900473ffffffffffffffffffffffffffffffffffffffff1673ffffffffffffffffffffffffffffffffffffffff1673ffffffffffffffffffffffffffffffffffffffff1681526020019081526020016000208590806001815401808255809150506001900390600052602060002001600090919091909150555050505050565b60006004600083815260200190815260200160002060080160009054906101000a900460ff169050919050565b60075481565b3373ffffffffffffffffffffffffffffffffffffffff16600960009054906101000a900473ffffffffffffffffffffffffffffffffffffffff1673ffffffffffffffffffffffffffffffffffffffff1614611b0e576040517f08c379a0000000000000000000000000000000000000000000000000000000008152600401611b05906128f6565b60405180910390fd5b80600960006101000a81548173ffffffffffffffffffffffffffffffffffffffff021916908373ffffffffffffffffffffffffffffffffffffffff16021790555050565b600080831415611b655760009050611bbc565b6000828402905082848281611b7657fe5b0414611bb7576040517f08c379a0000000000000000000000000000000000000000000000000000000008152600401611bae906129b6565b60405180910390fd5b809150505b92915050565b6000611c0483836040518060400160405280601a81526020017f536166654d6174683a206469766973696f6e206279207a65726f000000000000815250611e1f565b905092915050565b600080828401905083811015611c57576040517f08c379a0000000000000000000000000000000000000000000000000000000008152600401611c4e906128b6565b60405180910390fd5b8091505092915050565b6000611ca383836040518060400160405280601e81526020017f536166654d6174683a207375627472616374696f6e206f766572666c6f770000815250611e80565b905092915050565b6000611cb5611edb565b6007600081548092919060010191905055506040518060e0016040528060075481526020013373ffffffffffffffffffffffffffffffffffffffff168152602001600115158152602001848152602001828152602001600015158152602001600015158152506004600060075481526020019081526020016000206000820151816000015560208201518160010160006101000a81548173ffffffffffffffffffffffffffffffffffffffff021916908373ffffffffffffffffffffffffffffffffffffffff16021790555060408201518160010160146101000a81548160ff021916908315150217905550606082015181600201906003611db8929190611efd565b50608082015181600501906003611dd0929190611efd565b5060a08201518160080160006101000a81548160ff02191690831515021790555060c08201518160080160016101000a81548160ff021916908315150217905550905050600754915050919050565b60008083118290611e66576040517f08c379a0000000000000000000000000000000000000000000000000000000008152600401611e5d9190612854565b60405180910390fd5b506000838581611e7257fe5b049050809150509392505050565b6000838311158290611ec8576040517f08c379a0000000000000000000000000000000000000000000000000000000008152600401611ebf9190612854565b60405180910390fd5b5060008385039050809150509392505050565b6040518060600160405280600390602082028036833780820191505090505090565b8260038101928215611f2c579160200282015b82811115611f2b578251825591602001919060010190611f10565b5b509050611f399190611f7a565b5090565b8260038101928215611f69579182015b82811115611f68578254825591600101919060010190611f4d565b5b509050611f769190611f7a565b5090565b5b80821115611f93576000816000905550600101611f7b565b5090565b600081359050611fa681612cab565b92915050565b600081905082602060030282011115611fc457600080fd5b92915050565b600081519050611fd981612cc2565b92915050565b600081359050611fee81612cd9565b92915050565b60008151905061200381612cd9565b92915050565b60008151905061201881612cf0565b92915050565b60006020828403121561203057600080fd5b600061203e84828501611f97565b91505092915050565b6000806040838503121561205a57600080fd5b600061206885828601611f97565b925050602061207985828601611fdf565b9150509250929050565b60006060828403121561209557600080fd5b60006120a384828501611fac565b91505092915050565b600080608083850312156120bf57600080fd5b60006120cd85828601611fac565b92505060606120de85828601611fdf565b9150509250929050565b6000602082840312156120fa57600080fd5b600061210884828501611fca565b91505092915050565b60006020828403121561212357600080fd5b600061213184828501611fdf565b91505092915050565b60006020828403121561214c57600080fd5b600061215a84828501611ff4565b91505092915050565b60006020828403121561217557600080fd5b600061218384828501612009565b91505092915050565b600061219883836126d0565b60208301905092915050565b6121ad81612bb2565b82525050565b6121bc81612b5d565b82525050565b6121ce60608383612c1e565b5050565b6121db81612afc565b6121e58184612b37565b92506121f082612ae8565b8060005b83811015612221578151612208878261218c565b965061221383612b1d565b9250506001810190506121f4565b505050505050565b61223281612b07565b61223c8184612b37565b925061224782612af2565b8060005b8381101561227f5761225c82612c7a565b612266878261218c565b965061227183612b2a565b92505060018101905061224b565b505050505050565b61229081612b6f565b82525050565b61229f81612bc4565b82525050565b60006122b082612b12565b6122ba8185612b42565b93506122ca818560208601612c2d565b6122d381612c8d565b840191505092915050565b60006122eb602083612b42565b91507f43616e206e6f7420617070726f76652074686174206d75636820616d6f756e746000830152602082019050919050565b600061232b601b83612b42565b91507f4c6f616e205061796d656e74206e6f742073756363657366756c6c00000000006000830152602082019050919050565b600061236b601b83612b42565b91507f536166654d6174683a206164646974696f6e206f766572666c6f7700000000006000830152602082019050919050565b60006123ab601c83612b42565b91507f4c6f616e205769746864726177206e6f742073756363657366756c6c000000006000830152602082019050919050565b60006123eb600e83612b42565b91507f4e6f7420417574686f72697a65640000000000000000000000000000000000006000830152602082019050919050565b600061242b601283612b42565b91507f4e6f7420656e6f7567682062616c616e636500000000000000000000000000006000830152602082019050919050565b600061246b601183612b42565b91507f636f6d70616e79206e6f742d65786973740000000000000000000000000000006000830152602082019050919050565b60006124ab601583612b42565b91507f6e6f7420617070726f76656420666f72206c6f616e00000000000000000000006000830152602082019050919050565b60006124eb602b83612b42565b91507f446f6e277420686176652074686174206d756368206f662072656d61696e696e60008301527f672072657061796d656e740000000000000000000000000000000000000000006020830152604082019050919050565b6000612551600e83612b42565b91507f616c7265616479207265706169640000000000000000000000000000000000006000830152602082019050919050565b6000612591602183612b42565b91507f536166654d6174683a206d756c7469706c69636174696f6e206f766572666c6f60008301527f77000000000000000000000000000000000000000000000000000000000000006020830152604082019050919050565b60006125f7602883612b42565b91507f616d6f756e7420726571756573746564206578636565647320616d6f756e742060008301527f617070726f7665640000000000000000000000000000000000000000000000006020830152604082019050919050565b600061265d600f83612b42565b91507f696e76616c6964206c6f616e20696400000000000000000000000000000000006000830152602082019050919050565b600061269d601f83612b42565b91507f5265656e7472616e637947756172643a207265656e7472616e742063616c6c006000830152602082019050919050565b6126d981612b9b565b82525050565b6126e881612b9b565b82525050565b6126f781612c0c565b82525050565b600060208201905061271260008301846121b3565b92915050565b60006101008201905061272e60008301876121a4565b61273b60208301866121c2565b6127486080830185612229565b61275560e08301846126df565b95945050505050565b600060a08201905061277360008301866121a4565b61278060208301856121c2565b61278d60808301846126df565b949350505050565b60006060820190506127aa60008301866121b3565b6127b760208301856121b3565b6127c460408301846126df565b949350505050565b60006060820190506127e160008301846121c2565b92915050565b600060e0820190506127fc60008301866121c2565b61280960608301856121d2565b61281660c08301846121b3565b949350505050565b60006020820190506128336000830184612287565b92915050565b600060208201905061284e6000830184612296565b92915050565b6000602082019050818103600083015261286e81846122a5565b905092915050565b6000602082019050818103600083015261288f816122de565b9050919050565b600060208201905081810360008301526128af8161231e565b9050919050565b600060208201905081810360008301526128cf8161235e565b9050919050565b600060208201905081810360008301526128ef8161239e565b9050919050565b6000602082019050818103600083015261290f816123de565b9050919050565b6000602082019050818103600083015261292f8161241e565b9050919050565b6000602082019050818103600083015261294f8161245e565b9050919050565b6000602082019050818103600083015261296f8161249e565b9050919050565b6000602082019050818103600083015261298f816124de565b9050919050565b600060208201905081810360008301526129af81612544565b9050919050565b600060208201905081810360008301526129cf81612584565b9050919050565b600060208201905081810360008301526129ef816125ea565b9050919050565b60006020820190508181036000830152612a0f81612650565b9050919050565b60006020820190508181036000830152612a2f81612690565b9050919050565b6000602082019050612a4b60008301846126df565b92915050565b600060a082019050612a6660008301886126df565b612a7360208301876121b3565b612a806040830186612287565b612a8d6060830185612287565b612a9a6080830184612287565b9695505050505050565b6000604082019050612ab960008301856126df565b612ac66020830184612287565b9392505050565b6000602082019050612ae260008301846126ee565b92915050565b6000819050919050565b6000819050919050565b600060039050919050565b600060039050919050565b600081519050919050565b6000602082019050919050565b6000600182019050919050565b600081905092915050565b600082825260208201905092915050565b6000819050919050565b6000612b6882612b7b565b9050919050565b60008115159050919050565b600073ffffffffffffffffffffffffffffffffffffffff82169050919050565b6000819050919050565b600060ff82169050919050565b6000612bbd82612be8565b9050919050565b6000612bcf82612bd6565b9050919050565b6000612be182612b7b565b9050919050565b6000612bf382612bfa565b9050919050565b6000612c0582612b7b565b9050919050565b6000612c1782612ba5565b9050919050565b82818337600083830152505050565b60005b83811015612c4b578082015181840152602081019050612c30565b83811115612c5a576000848401525b50505050565b6000612c73612c6e83612c9e565b612b53565b9050919050565b6000612c868254612c60565b9050919050565b6000601f19601f8301169050919050565b60008160001c9050919050565b612cb481612b5d565b8114612cbf57600080fd5b50565b612ccb81612b6f565b8114612cd657600080fd5b50565b612ce281612b9b565b8114612ced57600080fd5b50565b612cf981612ba5565b8114612d0457600080fd5b5056fea26469706673582212204d6e15eac0b6448e6f1af1e9c8fbf3645e4dd29ec2452fcbecb16aab9cec949664736f6c634300060c0033",
  "immutableReferences": {},
  "source": "// SPDX-License-Identifier: UNLICENSED\r\npragma solidity ^0.6.0;\r\npragma experimental ABIEncoderV2;\r\n\r\n\r\nimport \"@openzeppelin/contracts/math/SafeMath.sol\";\r\nimport \"@openzeppelin/contracts/utils/ReentrancyGuard.sol\";\r\nimport '../../Interfaces/IERC20Interface.sol';\r\nimport '../../Interfaces/RoyaleInterface.sol';\r\n\r\n\r\ncontract rLoan is ReentrancyGuard{\r\n\r\n    using SafeMath for uint256;\r\n    uint8 constant N_COINS = 3;\r\n    \r\n    IERC20[N_COINS] tokens;\r\n    mapping(uint256 => Transaction) public transactions;\r\n    mapping(uint256 => Repayment) public gamingCompanyRepayment;\r\n    mapping(address => uint[])public takenLoan;\r\n    \r\n    uint256 public transactionCount = 0;\r\n    RoyaleInterface public royale;\r\n\r\n    address public wallet;\r\n\r\n    uint256[N_COINS] public totalLoanTaken;\r\n    uint256[N_COINS] public totalApprovedLoan;\r\n    \r\n    struct Transaction {\r\n        uint256 transactionId;\r\n        address iGamingCompany;\r\n        bool isGamingCompanySigned;\r\n        uint256[N_COINS] tokenAmounts;\r\n        uint256[N_COINS] remAmt;\r\n        bool approved;\r\n        bool executed;\r\n    }\r\n\r\n    struct Repayment {\r\n        uint256 transactionID;\r\n        bool isRepaymentDone;\r\n        uint256[N_COINS] remainingTokenAmounts;\r\n    }\r\n\r\n\r\n    /* Events */\r\n\r\n    event loanRequested(\r\n        address by,\r\n        uint[N_COINS] amounts,\r\n        uint loanID\r\n    );\r\n\r\n    event approved(\r\n        uint loanID\r\n    );\r\n\r\n\r\n    event loanWithdrawn(\r\n        address by,\r\n        uint[N_COINS] requestedAmount,\r\n        uint[N_COINS] remainingAmount,\r\n        uint loanID\r\n    );\r\n\r\n    event loanFulfilled(\r\n        address by,\r\n        uint[N_COINS] requestedAmount,\r\n        uint[N_COINS] remainingAmount,\r\n        uint loanID\r\n    );\r\n\r\n    event loanRepayed(\r\n        address by,\r\n        uint[N_COINS] repayedAmount,\r\n        uint[N_COINS] amountRemaining,\r\n        uint loanID\r\n    );\r\n\r\n    event wholeLoanRepayed(\r\n        address by,\r\n        uint[N_COINS] repayedAmount,\r\n        uint[N_COINS] amountRemaining,\r\n        uint loanID\r\n    );\r\n\r\n    /* Modifiers */\r\n\r\n    modifier onlyWallet(){\r\n      require(wallet==msg.sender, \"Not Authorized\");\r\n      _;\r\n    }\r\n\r\n    \r\n\r\n    modifier transactionExists(uint _loanID) {\r\n        require(_loanID > 0 && _loanID <= transactionCount);\r\n        _;\r\n    }\r\n   \r\n\r\n    constructor(address[N_COINS] memory _tokens , address _royale,address _wallet) public {\r\n        royale = RoyaleInterface(_royale);\r\n        for(uint8 i=0; i<N_COINS; i++) {\r\n            tokens[i] = IERC20(_tokens[i]);\r\n        }\r\n        wallet=_wallet;\r\n    }\r\n\r\n    function transferOwnership(address _wallet) external onlyWallet(){\r\n        wallet =_wallet;\r\n    }\r\n\r\n    function _addTransaction(uint256[N_COINS] memory amounts ) internal returns(uint256){\r\n        uint256[N_COINS] memory zero;\r\n        transactionCount++;\r\n        transactions[transactionCount] = Transaction({\r\n            transactionId: transactionCount,\r\n            iGamingCompany: msg.sender,\r\n            tokenAmounts: amounts,\r\n            remAmt: zero,\r\n            isGamingCompanySigned: true,\r\n            approved: false,\r\n            executed: false\r\n        });\r\n        return transactionCount;\r\n        \r\n    }\r\n    /* USER FUNCTIONS (exposed to frontend) */\r\n\r\n    // Gaming platforms withdraw using this\r\n    function requestLoan(uint256[N_COINS] calldata amounts) external returns(uint256 loanID) {\r\n        _addTransaction(amounts);\r\n        emit loanRequested(msg.sender, amounts, transactionCount);\r\n        return transactionCount;\r\n       \r\n    }\r\n\r\n    function approveLoan(uint _loanID) external onlyWallet() {\r\n       uint royaleBalance=royale.calculateTotalToken(false);\r\n        uint approvedTotal;\r\n        uint requestedTotal;\r\n        uint decimal;\r\n        for(uint8 i=0;i<N_COINS;i++) {\r\n            decimal=tokens[i].decimals();\r\n            approvedTotal=approvedTotal.add(totalApprovedLoan[i].mul(10**18).div(10**decimal));\r\n            requestedTotal=requestedTotal.add((transactions[_loanID].tokenAmounts[i]).mul(10**18).div(10**decimal));\r\n        }\r\n        require(approvedTotal.add(requestedTotal) < royaleBalance,\"Can not approve that much amount\");\r\n        transactions[_loanID].approved = true;\r\n        transactions[_loanID].remAmt = transactions[_loanID].tokenAmounts;\r\n        for(uint8 i=0;i<N_COINS;i++){\r\n            totalApprovedLoan[i] =totalApprovedLoan[i].add(transactions[_loanID].tokenAmounts[i]);\r\n        }\r\n        takenLoan[transactions[_loanID].iGamingCompany].push(_loanID);\r\n    }\r\n    \r\n\r\n    function checkLoanApproved(uint _loanID) external view returns(bool) {\r\n        return transactions[_loanID].approved;\r\n    }\r\n    \r\n\r\n    /* Admin Function */\r\n    \r\n   \r\n\r\n    function withdrawLoan( uint256[N_COINS] calldata amounts,uint _loanID) external nonReentrant{\r\n        uint total;\r\n        uint decimal;\r\n        for(uint8 i=0;i<3;i++){\r\n            decimal=tokens[i].decimals();\r\n            total=total.add(amounts[i].mul(10**18).div(10**decimal));\r\n        }\r\n        require(total<royale.calculateTotalToken(false),\"Not enough balance\");\r\n        require(transactions[_loanID].iGamingCompany == msg.sender, \"company not-exist\");\r\n        require(transactions[_loanID].approved, \"not approved for loan\");\r\n        uint256[N_COINS] memory loanAmount;\r\n        for(uint8 i=0; i<N_COINS; i++) {\r\n            require(transactions[_loanID].remAmt[i] >= amounts[i], \"amount requested exceeds amount approved\");\r\n        }\r\n        uint256 poolBalance;\r\n        uint256[3] memory withdrawAmount;\r\n         for(uint8 i=0;i<3;i++){\r\n             poolBalance=tokens[i].balanceOf(address(royale));\r\n             poolBalance=poolBalance.sub(royale.reserveAmount(i));\r\n             if(amounts[i]>poolBalance){\r\n                 withdrawAmount[i]=amounts[i].sub(poolBalance);\r\n             }\r\n         }\r\n        uint check = 0;\r\n        for(uint8 i=0; i<N_COINS; i++) {\r\n            if(amounts[i] > 0) {\r\n                totalLoanTaken[i] =totalLoanTaken[i].add(amounts[i]);\r\n                totalApprovedLoan[i]=totalApprovedLoan[i].sub(amounts[i]);\r\n                transactions[_loanID].remAmt[i] =transactions[_loanID].remAmt[i].sub(amounts[i]);\r\n                loanAmount[i]=gamingCompanyRepayment[_loanID].remainingTokenAmounts[i].add(amounts[i]);\r\n            }\r\n            if(transactions[_loanID].remAmt[i] == 0) {\r\n                check++;\r\n            }\r\n        }\r\n        gamingCompanyRepayment[_loanID] = Repayment({\r\n                  transactionID: _loanID,\r\n                  isRepaymentDone: false,\r\n                  remainingTokenAmounts: loanAmount\r\n        });\r\n        if(check == 3) {\r\n            // Loan fulfilled, company used all its loan\r\n            transactions[_loanID].executed = true;\r\n        }\r\n        bool b = royale._loanWithdraw(amounts,withdrawAmount,transactions[_loanID].iGamingCompany);\r\n        require(b, \"Loan Withdraw not succesfull\");\r\n        emit loanWithdrawn(msg.sender, amounts, transactions[_loanID].remAmt, _loanID);\r\n    } \r\n   \r\n    \r\n    function repayLoan(uint256[N_COINS] calldata _amounts, uint _loanId) external nonReentrant{\r\n        require(_loanId <= transactionCount, \"invalid loan id\");\r\n        require(transactions[_loanId].iGamingCompany == msg.sender, \"company not-exist\");\r\n        require(!gamingCompanyRepayment[_loanId].isRepaymentDone, \"already repaid\");\r\n        for(uint8 i=0;i<N_COINS;i++){\r\n            require(_amounts[i]<=gamingCompanyRepayment[_loanId].remainingTokenAmounts[i],\"Don't have that much of remaining repayment\");\r\n        }\r\n        bool b = royale._loanRepayment(_amounts);\r\n        require(b,\"Loan Payment not succesfull\");\r\n        uint counter=0;\r\n        for(uint i=0;i<N_COINS;i++) {\r\n            if(_amounts[i]!=0) {\r\n                tokens[i].transferFrom(transactions[_loanId].iGamingCompany, address(royale), _amounts[i]);\r\n                totalLoanTaken[i] =totalLoanTaken[i].sub(_amounts[i]);\r\n                gamingCompanyRepayment[_loanId].remainingTokenAmounts[i] =gamingCompanyRepayment[_loanId].remainingTokenAmounts[i].sub(_amounts[i]);\r\n                if(gamingCompanyRepayment[_loanId].remainingTokenAmounts[i] == 0) {\r\n                    counter++;\r\n                }\r\n            }\r\n        }\r\n        emit loanRepayed(msg.sender,_amounts,  gamingCompanyRepayment[_loanId].remainingTokenAmounts, _loanId);\r\n        if(counter==3){\r\n            gamingCompanyRepayment[_loanId].isRepaymentDone=true;\r\n            emit wholeLoanRepayed( msg.sender, _amounts,  gamingCompanyRepayment[_loanId].remainingTokenAmounts,_loanId);\r\n        }       \r\n    }\r\n}",
  "sourcePath": "C:/Users/vishn/OneDrive/Desktop/RoyaleProject/RoyaleFinance/royale-contracts/contracts/Pool/rLoan.sol",
  "compiler": {
    "name": "solc",
    "version": "0.6.12+commit.27d51765.Emscripten.clang"
  },
  "schemaVersion": "3.3.2",
  "updatedAt": "2021-03-10T13:10:44.310Z",
  "devdoc": {
    "kind": "dev",
    "methods": {},
    "version": 1
  },
  "userdoc": {
    "kind": "user",
    "methods": {},
    "version": 1
  }
}