{
  "contractName": "RoyaleLP",
  "abi": [
    {
      "inputs": [
        {
          "internalType": "address[3]",
          "name": "_tokens",
          "type": "address[3]"
        },
        {
          "internalType": "address",
          "name": "_rpToken",
          "type": "address"
        },
        {
          "internalType": "address",
          "name": "_wallet",
          "type": "address"
        }
      ],
      "stateMutability": "nonpayable",
      "type": "constructor"
    },
    {
      "anonymous": false,
      "inputs": [
        {
          "indexed": false,
          "internalType": "address",
          "name": "user",
          "type": "address"
        },
        {
          "indexed": false,
          "internalType": "uint256",
          "name": "amount",
          "type": "uint256"
        }
      ],
      "name": "userAddedToQ",
      "type": "event"
    },
    {
      "anonymous": false,
      "inputs": [
        {
          "indexed": false,
          "internalType": "address",
          "name": "user",
          "type": "address"
        },
        {
          "indexed": false,
          "internalType": "uint256",
          "name": "amount",
          "type": "uint256"
        }
      ],
      "name": "userRecieved",
      "type": "event"
    },
    {
      "anonymous": false,
      "inputs": [
        {
          "indexed": false,
          "internalType": "address",
          "name": "user",
          "type": "address"
        },
        {
          "indexed": false,
          "internalType": "uint256",
          "name": "amount",
          "type": "uint256"
        }
      ],
      "name": "userSupplied",
      "type": "event"
    },
    {
      "anonymous": false,
      "inputs": [
        {
          "indexed": false,
          "internalType": "address",
          "name": "oldOwner",
          "type": "address"
        },
        {
          "indexed": false,
          "internalType": "address",
          "name": "newOwner",
          "type": "address"
        }
      ],
      "name": "walletChanged",
      "type": "event"
    },
    {
      "anonymous": false,
      "inputs": [
        {
          "indexed": false,
          "internalType": "address",
          "name": "newOwner",
          "type": "address"
        }
      ],
      "name": "walletNominated",
      "type": "event"
    },
    {
      "anonymous": false,
      "inputs": [
        {
          "indexed": false,
          "internalType": "uint256",
          "name": "amount",
          "type": "uint256"
        }
      ],
      "name": "yieldAdded",
      "type": "event"
    },
    {
      "inputs": [],
      "name": "DENOMINATOR",
      "outputs": [
        {
          "internalType": "uint256",
          "name": "",
          "type": "uint256"
        }
      ],
      "stateMutability": "view",
      "type": "function"
    },
    {
      "inputs": [],
      "name": "YieldPoolBalance",
      "outputs": [
        {
          "internalType": "uint256",
          "name": "",
          "type": "uint256"
        }
      ],
      "stateMutability": "view",
      "type": "function"
    },
    {
      "inputs": [
        {
          "internalType": "address",
          "name": "",
          "type": "address"
        },
        {
          "internalType": "uint256",
          "name": "",
          "type": "uint256"
        }
      ],
      "name": "amountBurnt",
      "outputs": [
        {
          "internalType": "uint256",
          "name": "",
          "type": "uint256"
        }
      ],
      "stateMutability": "view",
      "type": "function"
    },
    {
      "inputs": [
        {
          "internalType": "address",
          "name": "",
          "type": "address"
        },
        {
          "internalType": "uint256",
          "name": "",
          "type": "uint256"
        }
      ],
      "name": "amountSupplied",
      "outputs": [
        {
          "internalType": "uint256",
          "name": "index",
          "type": "uint256"
        },
        {
          "internalType": "uint256",
          "name": "amount",
          "type": "uint256"
        },
        {
          "internalType": "uint256",
          "name": "time",
          "type": "uint256"
        },
        {
          "internalType": "uint256",
          "name": "remAmt",
          "type": "uint256"
        }
      ],
      "stateMutability": "view",
      "type": "function"
    },
    {
      "inputs": [
        {
          "internalType": "address",
          "name": "",
          "type": "address"
        },
        {
          "internalType": "uint256",
          "name": "",
          "type": "uint256"
        }
      ],
      "name": "amountWithdraw",
      "outputs": [
        {
          "internalType": "uint256",
          "name": "",
          "type": "uint256"
        }
      ],
      "stateMutability": "view",
      "type": "function"
    },
    {
      "inputs": [],
      "name": "fees",
      "outputs": [
        {
          "internalType": "uint128",
          "name": "",
          "type": "uint128"
        }
      ],
      "stateMutability": "view",
      "type": "function"
    },
    {
      "inputs": [
        {
          "internalType": "address",
          "name": "",
          "type": "address"
        }
      ],
      "name": "isInQ",
      "outputs": [
        {
          "internalType": "bool",
          "name": "",
          "type": "bool"
        }
      ],
      "stateMutability": "view",
      "type": "function"
    },
    {
      "inputs": [],
      "name": "liquidityProvidersAPY",
      "outputs": [
        {
          "internalType": "uint256",
          "name": "",
          "type": "uint256"
        }
      ],
      "stateMutability": "view",
      "type": "function"
    },
    {
      "inputs": [],
      "name": "loanGiven",
      "outputs": [
        {
          "internalType": "uint256",
          "name": "",
          "type": "uint256"
        }
      ],
      "stateMutability": "view",
      "type": "function"
    },
    {
      "inputs": [],
      "name": "loanPart",
      "outputs": [
        {
          "internalType": "uint256",
          "name": "",
          "type": "uint256"
        }
      ],
      "stateMutability": "view",
      "type": "function"
    },
    {
      "inputs": [],
      "name": "lock_period",
      "outputs": [
        {
          "internalType": "uint256",
          "name": "",
          "type": "uint256"
        }
      ],
      "stateMutability": "view",
      "type": "function"
    },
    {
      "inputs": [],
      "name": "maxWithdrawRequests",
      "outputs": [
        {
          "internalType": "uint256",
          "name": "",
          "type": "uint256"
        }
      ],
      "stateMutability": "view",
      "type": "function"
    },
    {
      "inputs": [],
      "name": "nominatedWallet",
      "outputs": [
        {
          "internalType": "address",
          "name": "",
          "type": "address"
        }
      ],
      "stateMutability": "view",
      "type": "function"
    },
    {
      "inputs": [],
      "name": "poolPart",
      "outputs": [
        {
          "internalType": "uint256",
          "name": "",
          "type": "uint256"
        }
      ],
      "stateMutability": "view",
      "type": "function"
    },
    {
      "inputs": [
        {
          "internalType": "uint256",
          "name": "",
          "type": "uint256"
        }
      ],
      "name": "reserveAmount",
      "outputs": [
        {
          "internalType": "uint256",
          "name": "",
          "type": "uint256"
        }
      ],
      "stateMutability": "view",
      "type": "function"
    },
    {
      "inputs": [
        {
          "internalType": "address",
          "name": "",
          "type": "address"
        }
      ],
      "name": "reserveRecipients",
      "outputs": [
        {
          "internalType": "bool",
          "name": "",
          "type": "bool"
        }
      ],
      "stateMutability": "view",
      "type": "function"
    },
    {
      "inputs": [],
      "name": "rpToken",
      "outputs": [
        {
          "internalType": "contract IERC20",
          "name": "",
          "type": "address"
        }
      ],
      "stateMutability": "view",
      "type": "function"
    },
    {
      "inputs": [],
      "name": "selfBalance",
      "outputs": [
        {
          "internalType": "uint256",
          "name": "",
          "type": "uint256"
        }
      ],
      "stateMutability": "view",
      "type": "function"
    },
    {
      "inputs": [],
      "name": "strategy",
      "outputs": [
        {
          "internalType": "contract rStrategy",
          "name": "",
          "type": "address"
        }
      ],
      "stateMutability": "view",
      "type": "function"
    },
    {
      "inputs": [
        {
          "internalType": "uint256",
          "name": "",
          "type": "uint256"
        }
      ],
      "name": "tokens",
      "outputs": [
        {
          "internalType": "contract IERC20",
          "name": "",
          "type": "address"
        }
      ],
      "stateMutability": "view",
      "type": "function"
    },
    {
      "inputs": [
        {
          "internalType": "uint256",
          "name": "",
          "type": "uint256"
        }
      ],
      "name": "totalWithdraw",
      "outputs": [
        {
          "internalType": "uint256",
          "name": "",
          "type": "uint256"
        }
      ],
      "stateMutability": "view",
      "type": "function"
    },
    {
      "inputs": [],
      "name": "wallet",
      "outputs": [
        {
          "internalType": "address",
          "name": "",
          "type": "address"
        }
      ],
      "stateMutability": "view",
      "type": "function"
    },
    {
      "inputs": [
        {
          "internalType": "uint256",
          "name": "",
          "type": "uint256"
        }
      ],
      "name": "withdrawRecipients",
      "outputs": [
        {
          "internalType": "address",
          "name": "",
          "type": "address"
        }
      ],
      "stateMutability": "view",
      "type": "function"
    },
    {
      "inputs": [
        {
          "internalType": "address",
          "name": "_wallet",
          "type": "address"
        }
      ],
      "name": "nominateNewOwner",
      "outputs": [],
      "stateMutability": "nonpayable",
      "type": "function"
    },
    {
      "inputs": [],
      "name": "acceptOwnership",
      "outputs": [],
      "stateMutability": "nonpayable",
      "type": "function"
    },
    {
      "inputs": [
        {
          "internalType": "uint256",
          "name": "amount",
          "type": "uint256"
        },
        {
          "internalType": "uint256",
          "name": "_index",
          "type": "uint256"
        }
      ],
      "name": "calcRptAmount",
      "outputs": [
        {
          "internalType": "uint256",
          "name": "",
          "type": "uint256"
        }
      ],
      "stateMutability": "view",
      "type": "function"
    },
    {
      "inputs": [
        {
          "internalType": "address",
          "name": "addr",
          "type": "address"
        },
        {
          "internalType": "uint256",
          "name": "coin",
          "type": "uint256"
        },
        {
          "internalType": "bool",
          "name": "_time",
          "type": "bool"
        }
      ],
      "name": "availableLiquidity",
      "outputs": [
        {
          "internalType": "uint256",
          "name": "token",
          "type": "uint256"
        },
        {
          "internalType": "uint256",
          "name": "RPT",
          "type": "uint256"
        }
      ],
      "stateMutability": "view",
      "type": "function"
    },
    {
      "inputs": [
        {
          "internalType": "bool",
          "name": "_supply",
          "type": "bool"
        }
      ],
      "name": "calculateTotalToken",
      "outputs": [
        {
          "internalType": "uint256",
          "name": "",
          "type": "uint256"
        }
      ],
      "stateMutability": "view",
      "type": "function"
    },
    {
      "inputs": [
        {
          "internalType": "uint256",
          "name": "amount",
          "type": "uint256"
        },
        {
          "internalType": "uint256",
          "name": "_index",
          "type": "uint256"
        }
      ],
      "name": "supply",
      "outputs": [],
      "stateMutability": "nonpayable",
      "type": "function"
    },
    {
      "inputs": [
        {
          "internalType": "uint256",
          "name": "amount",
          "type": "uint256"
        },
        {
          "internalType": "uint256",
          "name": "_index",
          "type": "uint256"
        }
      ],
      "name": "requestWithdrawWithRPT",
      "outputs": [],
      "stateMutability": "nonpayable",
      "type": "function"
    },
    {
      "inputs": [],
      "name": "claimTokens",
      "outputs": [],
      "stateMutability": "nonpayable",
      "type": "function"
    },
    {
      "inputs": [
        {
          "internalType": "uint256",
          "name": "amount",
          "type": "uint256"
        },
        {
          "internalType": "uint256",
          "name": "_index",
          "type": "uint256"
        }
      ],
      "name": "depositYield",
      "outputs": [],
      "stateMutability": "nonpayable",
      "type": "function"
    },
    {
      "inputs": [],
      "name": "deposit",
      "outputs": [],
      "stateMutability": "nonpayable",
      "type": "function"
    },
    {
      "inputs": [],
      "name": "withdraw",
      "outputs": [],
      "stateMutability": "nonpayable",
      "type": "function"
    },
    {
      "inputs": [],
      "name": "withdrawAll",
      "outputs": [],
      "stateMutability": "nonpayable",
      "type": "function"
    },
    {
      "inputs": [],
      "name": "rebalance",
      "outputs": [],
      "stateMutability": "nonpayable",
      "type": "function"
    },
    {
      "inputs": [
        {
          "internalType": "uint256[3]",
          "name": "amounts",
          "type": "uint256[3]"
        },
        {
          "internalType": "address",
          "name": "_recipient",
          "type": "address"
        }
      ],
      "name": "withdrawLoan",
      "outputs": [],
      "stateMutability": "nonpayable",
      "type": "function"
    },
    {
      "inputs": [
        {
          "internalType": "uint256[3]",
          "name": "amounts",
          "type": "uint256[3]"
        }
      ],
      "name": "repayLoan",
      "outputs": [],
      "stateMutability": "nonpayable",
      "type": "function"
    },
    {
      "inputs": [
        {
          "internalType": "uint128",
          "name": "_newPoolPart",
          "type": "uint128"
        }
      ],
      "name": "changePoolPart",
      "outputs": [],
      "stateMutability": "nonpayable",
      "type": "function"
    },
    {
      "inputs": [
        {
          "internalType": "address",
          "name": "_strategy",
          "type": "address"
        }
      ],
      "name": "changeStrategy",
      "outputs": [],
      "stateMutability": "nonpayable",
      "type": "function"
    },
    {
      "inputs": [
        {
          "internalType": "uint256",
          "name": "lockperiod",
          "type": "uint256"
        }
      ],
      "name": "setLockPeriod",
      "outputs": [],
      "stateMutability": "nonpayable",
      "type": "function"
    },
    {
      "inputs": [
        {
          "internalType": "uint128",
          "name": "_fees",
          "type": "uint128"
        }
      ],
      "name": "setWithdrawFees",
      "outputs": [],
      "stateMutability": "nonpayable",
      "type": "function"
    },
    {
      "inputs": [
        {
          "internalType": "uint256",
          "name": "_value",
          "type": "uint256"
        }
      ],
      "name": "changeLoanPart",
      "outputs": [],
      "stateMutability": "nonpayable",
      "type": "function"
    },
    {
      "inputs": [
        {
          "internalType": "uint256",
          "name": "_index",
          "type": "uint256"
        }
      ],
      "name": "getBalances",
      "outputs": [
        {
          "internalType": "uint256",
          "name": "",
          "type": "uint256"
        }
      ],
      "stateMutability": "view",
      "type": "function"
    }
  ],
  "bytecode": "0x60806040526019600160006101000a8154816fffffffffffffffffffffffffffffffff02191690836fffffffffffffffffffffffffffffffff1602179055506102ee600255603c600d5560326013556107d0601c553480156200006157600080fd5b50604051620066c2380380620066c28339818101604052810190620000879190620002a6565b6001600081905550600073ffffffffffffffffffffffffffffffffffffffff168173ffffffffffffffffffffffffffffffffffffffff16141562000102576040517f08c379a0000000000000000000000000000000000000000000000000000000008152600401620000f9906200033e565b60405180910390fd5b60005b60038160ff1610156200018557838160ff16600381106200012257fe5b602002015160048260ff16600381106200013857fe5b0160006101000a81548173ffffffffffffffffffffffffffffffffffffffff021916908373ffffffffffffffffffffffffffffffffffffffff160217905550808060010191505062000105565b5081600760006101000a81548173ffffffffffffffffffffffffffffffffffffffff021916908373ffffffffffffffffffffffffffffffffffffffff16021790555080600960006101000a81548173ffffffffffffffffffffffffffffffffffffffff021916908373ffffffffffffffffffffffffffffffffffffffff16021790555050505062000410565b6000815190506200022281620003f6565b92915050565b600082601f8301126200023a57600080fd5b6003620002516200024b826200038e565b62000360565b915081838560208402820111156200026857600080fd5b60005b838110156200029c578162000281888262000211565b8452602084019350602083019250506001810190506200026b565b5050505092915050565b600080600060a08486031215620002bc57600080fd5b6000620002cc8682870162000228565b9350506060620002df8682870162000211565b9250506080620002f28682870162000211565b9150509250925092565b60006200030b601a83620003b1565b91507f57616c6c657420616464726573732063616e6e6f7420626520300000000000006000830152602082019050919050565b600060208201905081810360008301526200035981620002fc565b9050919050565b6000604051905081810181811067ffffffffffffffff821117156200038457600080fd5b8060405250919050565b600067ffffffffffffffff821115620003a657600080fd5b602082029050919050565b600082825260208201905092915050565b6000620003cf82620003d6565b9050919050565b600073ffffffffffffffffffffffffffffffffffffffff82169050919050565b6200040181620003c2565b81146200040d57600080fd5b50565b6162a280620004206000396000f3fe608060405234801561001057600080fd5b50600436106102745760003560e01c8063905f692e11610151578063bf4b136b116100c3578063db28bfd011610087578063db28bfd014610718578063dcd365ca14610748578063de44983914610764578063df7ce7e414610795578063f0dd71c7146107b3578063f83e9a20146107e357610274565b8063bf4b136b1461065f578063c23177b21461068f578063c6b93df7146106c2578063d0e30db0146106f2578063daecfa6c146106fc57610274565b8063a0df580811610115578063a0df58081461059d578063a70200bd146105b9578063a8c4d3ae146105d5578063a8c62e76146105f3578063ad6abb0c14610611578063b0bed0ba1461064157610274565b8063905f692e146104f7578063918f86741461052757806393f9c552146105455780639af1d35a146105615780639d4649d91461057f57610274565b80635cd60cd1116101ea5780637a9024bd116101ae5780637a9024bd1461045d5780637d7c2a1c14610479578063853828b614610483578063876171dc1461048d5780638d330510146104bd5780638e9b0326146104d957610274565b80635cd60cd1146103cd5780636b9f1ef6146103fd578063779972da146104195780637861dae01461043557806379ba50971461045357610274565b806342f1bd5d1161023c57806342f1bd5d146102f7578063449deb6b1461031557806348c54b9d14610345578063490adbaf1461034f5780634f64b2be1461037f578063521eb273146103af57610274565b80630100a56b1461027957806315816bac146102975780631627540c146102b357806325340b8c146102cf5780633ccfd60b146102ed575b600080fd5b610281610801565b60405161028e9190615f8f565b60405180910390f35b6102b160048036038101906102ac9190615419565b610807565b005b6102cd60048036038101906102c8919061520a565b6109e5565b005b6102d7610af0565b6040516102e49190615f8f565b60405180910390f35b6102f5610af6565b005b6102ff610c5b565b60405161030c9190615c9c565b60405180910390f35b61032f600480360381019061032a919061520a565b610c81565b60405161033c9190615c81565b60405180910390f35b61034d610ca1565b005b610369600480360381019061036491906153c7565b611290565b6040516103769190615f8f565b60405180910390f35b610399600480360381019061039491906153c7565b611370565b6040516103a69190615c9c565b60405180910390f35b6103b76113a3565b6040516103c49190615b7e565b60405180910390f35b6103e760048036038101906103e29190615233565b6113c9565b6040516103f49190615f8f565b60405180910390f35b6104176004803603810190610412919061539e565b6113ee565b005b610433600480360381019061042e91906153c7565b6114ba565b005b61043d611554565b60405161044a9190615f8f565b60405180910390f35b61045b61155a565b005b6104776004803603810190610472919061520a565b61170e565b005b610481611844565b005b61048b611bbb565b005b6104a760048036038101906104a291906153c7565b611ee8565b6040516104b49190615b7e565b60405180910390f35b6104d760048036038101906104d291906153c7565b611f24565b005b6104e1611fbe565b6040516104ee9190615f8f565b60405180910390f35b610511600480360381019061050c919061520a565b611fc4565b60405161051e9190615c81565b60405180910390f35b61052f611fe4565b60405161053c9190615f8f565b60405180910390f35b61055f600480360381019061055a9190615419565b611fea565b005b61056961246a565b6040516105769190615f74565b60405180910390f35b61058761248c565b6040516105949190615f8f565b60405180910390f35b6105b760048036038101906105b291906152be565b612492565b005b6105d360048036038101906105ce919061539e565b6126fc565b005b6105dd6127a8565b6040516105ea9190615b7e565b60405180910390f35b6105fb6127ce565b6040516106089190615cb7565b60405180910390f35b61062b6004803603810190610626919061534c565b6127f4565b6040516106389190615f8f565b60405180910390f35b6106496129f2565b6040516106569190615f8f565b60405180910390f35b61067960048036038101906106749190615419565b6129f8565b6040516106869190615f8f565b60405180910390f35b6106a960048036038101906106a49190615233565b612bce565b6040516106b99493929190615fd3565b60405180910390f35b6106dc60048036038101906106d79190615233565b612c18565b6040516106e99190615f8f565b60405180910390f35b6106fa612c3d565b005b61071660048036038101906107119190615419565b612f79565b005b610732600480360381019061072d91906153c7565b6132fa565b60405161073f9190615f8f565b60405180910390f35b610762600480360381019061075d9190615310565b613312565b005b61077e6004803603810190610779919061526f565b6136cd565b60405161078c929190615faa565b60405180910390f35b61079d613ac4565b6040516107aa9190615f8f565b60405180910390f35b6107cd60048036038101906107c891906153c7565b613aca565b6040516107da9190615f8f565b60405180910390f35b6107eb613ae2565b6040516107f89190615f8f565b60405180910390f35b601b5481565b60006004826003811061081657fe5b0160009054906101000a900473ffffffffffffffffffffffffffffffffffffffff1673ffffffffffffffffffffffffffffffffffffffff1663313ce5676040518163ffffffff1660e01b815260040160206040518083038186803b15801561087d57600080fd5b505afa158015610891573d6000803e3d6000fd5b505050506040513d601f19601f820116820180604052508101906108b59190615455565b60ff1690506108fe6108ed82600a0a6108df670de0b6b3a764000087613ae890919063ffffffff16565b613b5890919063ffffffff16565b600354613ba290919063ffffffff16565b60038190555061094861093782600a0a610929670de0b6b3a764000087613ae890919063ffffffff16565b613b5890919063ffffffff16565b600c54613ba290919063ffffffff16565b600c819055506109a93330856004866003811061096157fe5b0160009054906101000a900473ffffffffffffffffffffffffffffffffffffffff1673ffffffffffffffffffffffffffffffffffffffff16613bf7909392919063ffffffff16565b7f8cbefaa4ed0c313ed463d26507393594f877789e4460ad45affda6e4638dc6c1836040516109d89190615f8f565b60405180910390a1505050565b3373ffffffffffffffffffffffffffffffffffffffff16600960009054906101000a900473ffffffffffffffffffffffffffffffffffffffff1673ffffffffffffffffffffffffffffffffffffffff1614610a75576040517f08c379a0000000000000000000000000000000000000000000000000000000008152600401610a6c90615e74565b60405180910390fd5b80600a60006101000a81548173ffffffffffffffffffffffffffffffffffffffff021916908373ffffffffffffffffffffffffffffffffffffffff1602179055507f34e5b3a286aa0821b202b74f9fa683c8f56e1f2875caafc853d080382896917881604051610ae59190615b7e565b60405180910390a150565b600b5481565b3373ffffffffffffffffffffffffffffffffffffffff16600960009054906101000a900473ffffffffffffffffffffffffffffffffffffffff1673ffffffffffffffffffffffffffffffffffffffff1614610b86576040517f08c379a0000000000000000000000000000000000000000000000000000000008152600401610b7d90615e74565b60405180910390fd5b610bcc6014600380602002604051908101604052809291908260038015610bc2576020028201915b815481526020019060010190808311610bae575b5050505050613c80565b610c0b576040517f08c379a0000000000000000000000000000000000000000000000000000000008152600401610c0290615dd4565b60405180910390fd5b610c516014600380602002604051908101604052809291908260038015610c47576020028201915b815481526020019060010190808311610c33575b5050505050613cd2565b610c59613e96565b565b600760009054906101000a900473ffffffffffffffffffffffffffffffffffffffff1681565b601a6020528060005260406000206000915054906101000a900460ff1681565b60026000541415610ce7576040517f08c379a0000000000000000000000000000000000000000000000000000000008152600401610cde90615f34565b60405180910390fd5b6002600081905550601a60003373ffffffffffffffffffffffffffffffffffffffff1673ffffffffffffffffffffffffffffffffffffffff16815260200190815260200160002060009054906101000a900460ff16610d7b576040517f08c379a0000000000000000000000000000000000000000000000000000000008152600401610d7290615cf4565b60405180910390fd5b60008060005b60038160ff161015611221576000600f60003373ffffffffffffffffffffffffffffffffffffffff1673ffffffffffffffffffffffffffffffffffffffff1681526020019081526020016000208260ff1660038110610ddc57fe5b015411156112145760048160ff1660038110610df457fe5b0160009054906101000a900473ffffffffffffffffffffffffffffffffffffffff1673ffffffffffffffffffffffffffffffffffffffff1663313ce5676040518163ffffffff1660e01b815260040160206040518083038186803b158015610e5b57600080fd5b505afa158015610e6f573d6000803e3d6000fd5b505050506040513d601f19601f82011682018060405250810190610e939190615455565b60ff1691506000610f9f610f42612710610f34600160009054906101000a90046fffffffffffffffffffffffffffffffff166fffffffffffffffffffffffffffffffff16600f60003373ffffffffffffffffffffffffffffffffffffffff1673ffffffffffffffffffffffffffffffffffffffff1681526020019081526020016000208760ff1660038110610f2457fe5b0154613ae890919063ffffffff16565b613b5890919063ffffffff16565b600f60003373ffffffffffffffffffffffffffffffffffffffff1673ffffffffffffffffffffffffffffffffffffffff1681526020019081526020016000208460ff1660038110610f8f57fe5b01546140b690919063ffffffff16565b9050611013600f60003373ffffffffffffffffffffffffffffffffffffffff1673ffffffffffffffffffffffffffffffffffffffff1681526020019081526020016000208360ff1660038110610ff157fe5b015460178460ff166003811061100357fe5b01546140b690919063ffffffff16565b60178360ff166003811061102357fe5b018190555061106c61105b84600a0a61104d670de0b6b3a764000085613ae890919063ffffffff16565b613b5890919063ffffffff16565b6003546140b690919063ffffffff16565b6003819055506110d3601060003373ffffffffffffffffffffffffffffffffffffffff1673ffffffffffffffffffffffffffffffffffffffff1681526020019081526020016000208360ff16600381106110c257fe5b015485613ba290919063ffffffff16565b93506000600f60003373ffffffffffffffffffffffffffffffffffffffff1673ffffffffffffffffffffffffffffffffffffffff1681526020019081526020016000208360ff166003811061112457fe5b01819055506000601060003373ffffffffffffffffffffffffffffffffffffffff1673ffffffffffffffffffffffffffffffffffffffff1681526020019081526020016000208360ff166003811061117857fe5b01819055506111d9338260048560ff166003811061119257fe5b0160009054906101000a900473ffffffffffffffffffffffffffffffffffffffff1673ffffffffffffffffffffffffffffffffffffffff166141009092919063ffffffff16565b7f8b46652782c1a94bd1f1e050f62dea3a99b7fe20520c003e111624847230d4fe338260405161120a929190615bb4565b60405180910390a1505b8080600101915050610d81565b5061122c3383614186565b6000601a60003373ffffffffffffffffffffffffffffffffffffffff1673ffffffffffffffffffffffffffffffffffffffff16815260200190815260200160002060006101000a81548160ff02191690831515021790555050506001600081905550565b6000611369601783600381106112a257fe5b0154600484600381106112b157fe5b0160009054906101000a900473ffffffffffffffffffffffffffffffffffffffff1673ffffffffffffffffffffffffffffffffffffffff166370a08231306040518263ffffffff1660e01b815260040161130b9190615b7e565b60206040518083038186803b15801561132357600080fd5b505afa158015611337573d6000803e3d6000fd5b505050506040513d601f19601f8201168201806040525081019061135b91906153f0565b6140b690919063ffffffff16565b9050919050565b6004816003811061137d57fe5b016000915054906101000a900473ffffffffffffffffffffffffffffffffffffffff1681565b600960009054906101000a900473ffffffffffffffffffffffffffffffffffffffff1681565b600f60205281600052604060002081600381106113e257fe5b01600091509150505481565b3373ffffffffffffffffffffffffffffffffffffffff16600960009054906101000a900473ffffffffffffffffffffffffffffffffffffffff1673ffffffffffffffffffffffffffffffffffffffff161461147e576040517f08c379a000000000000000000000000000000000000000000000000000000000815260040161147590615e74565b60405180910390fd5b80600160006101000a8154816fffffffffffffffffffffffffffffffff02191690836fffffffffffffffffffffffffffffffff16021790555050565b3373ffffffffffffffffffffffffffffffffffffffff16600960009054906101000a900473ffffffffffffffffffffffffffffffffffffffff1673ffffffffffffffffffffffffffffffffffffffff161461154a576040517f08c379a000000000000000000000000000000000000000000000000000000000815260040161154190615e74565b60405180910390fd5b80600d8190555050565b601c5481565b600a60009054906101000a900473ffffffffffffffffffffffffffffffffffffffff1673ffffffffffffffffffffffffffffffffffffffff163373ffffffffffffffffffffffffffffffffffffffff16146115ea576040517f08c379a00000000000000000000000000000000000000000000000000000000081526004016115e190615d34565b60405180910390fd5b7f6058119c217577f8ad236dec0d66116c29ed9d1f362482f49becdbffe3ae0df1600960009054906101000a900473ffffffffffffffffffffffffffffffffffffffff16600a60009054906101000a900473ffffffffffffffffffffffffffffffffffffffff1660405161165f929190615bdd565b60405180910390a1600a60009054906101000a900473ffffffffffffffffffffffffffffffffffffffff16600960006101000a81548173ffffffffffffffffffffffffffffffffffffffff021916908373ffffffffffffffffffffffffffffffffffffffff1602179055506000600a60006101000a81548173ffffffffffffffffffffffffffffffffffffffff021916908373ffffffffffffffffffffffffffffffffffffffff160217905550565b3373ffffffffffffffffffffffffffffffffffffffff16600960009054906101000a900473ffffffffffffffffffffffffffffffffffffffff1673ffffffffffffffffffffffffffffffffffffffff161461179e576040517f08c379a000000000000000000000000000000000000000000000000000000000815260040161179590615e74565b60405180910390fd5b60005b60038160ff1610156117ff576000600b54146117f2576040517f08c379a00000000000000000000000000000000000000000000000000000000081526004016117e990615e14565b60405180910390fd5b80806001019150506117a1565b5080600860006101000a81548173ffffffffffffffffffffffffffffffffffffffff021916908373ffffffffffffffffffffffffffffffffffffffff16021790555050565b3373ffffffffffffffffffffffffffffffffffffffff16600960009054906101000a900473ffffffffffffffffffffffffffffffffffffffff1673ffffffffffffffffffffffffffffffffffffffff16146118d4576040517f08c379a00000000000000000000000000000000000000000000000000000000081526004016118cb90615e74565b60405180910390fd5b60006118de61506d565b6118e661506d565b6000806118f360006127f4565b915060006119336127106119256119166003600254613b5890919063ffffffff16565b86613ae890919063ffffffff16565b613b5890919063ffffffff16565b9050600080600090505b60038160ff161015611b81576119558160ff16611290565b975060048160ff166003811061196757fe5b0160009054906101000a900473ffffffffffffffffffffffffffffffffffffffff1673ffffffffffffffffffffffffffffffffffffffff1663313ce5676040518163ffffffff1660e01b815260040160206040518083038186803b1580156119ce57600080fd5b505afa1580156119e2573d6000803e3d6000fd5b505050506040513d601f19601f82011682018060405250810190611a069190615455565b60ff169350611a3b670de0b6b3a7640000611a2d86600a0a86613ae890919063ffffffff16565b613b5890919063ffffffff16565b915087821115611a7557611a5888836140b690919063ffffffff16565b878260ff1660038110611a6757fe5b602002018181525050611b74565b87821015611b3e57611a9082896140b690919063ffffffff16565b868260ff1660038110611a9f57fe5b602002018181525050611b39600860009054906101000a900473ffffffffffffffffffffffffffffffffffffffff16878360ff1660038110611add57fe5b602002015160048460ff1660038110611af257fe5b0160009054906101000a900473ffffffffffffffffffffffffffffffffffffffff1673ffffffffffffffffffffffffffffffffffffffff166141009092919063ffffffff16565b611b73565b6000878260ff1660038110611b4f57fe5b6020020181815250506000868260ff1660038110611b6957fe5b6020020181815250505b5b808060010191505061193d565b50611b8b85613c80565b15611b9a57611b9985614475565b5b611ba386613c80565b15611bb257611bb186613cd2565b5b50505050505050565b3373ffffffffffffffffffffffffffffffffffffffff16600960009054906101000a900473ffffffffffffffffffffffffffffffffffffffff1673ffffffffffffffffffffffffffffffffffffffff1614611c4b576040517f08c379a0000000000000000000000000000000000000000000000000000000008152600401611c4290615e74565b60405180910390fd5b611c5361506d565b600860009054906101000a900473ffffffffffffffffffffffffffffffffffffffff1673ffffffffffffffffffffffffffffffffffffffff1663853828b66040518163ffffffff1660e01b8152600401606060405180830381600087803b158015611cbd57600080fd5b505af1158015611cd1573d6000803e3d6000fd5b505050506040513d601f19601f82011682018060405250810190611cf591906152e7565b905060008060038190555060005b60038160ff161015611ed35760048160ff1660038110611d1f57fe5b0160009054906101000a900473ffffffffffffffffffffffffffffffffffffffff1673ffffffffffffffffffffffffffffffffffffffff1663313ce5676040518163ffffffff1660e01b815260040160206040518083038186803b158015611d8657600080fd5b505afa158015611d9a573d6000803e3d6000fd5b505050506040513d601f19601f82011682018060405250810190611dbe9190615455565b60ff169150611ec0611eaf83600a0a611ea1670de0b6b3a764000060048660ff1660038110611de957fe5b0160009054906101000a900473ffffffffffffffffffffffffffffffffffffffff1673ffffffffffffffffffffffffffffffffffffffff166370a08231306040518263ffffffff1660e01b8152600401611e439190615b7e565b60206040518083038186803b158015611e5b57600080fd5b505afa158015611e6f573d6000803e3d6000fd5b505050506040513d601f19601f82011682018060405250810190611e9391906153f0565b613ae890919063ffffffff16565b613b5890919063ffffffff16565b600354613ba290919063ffffffff16565b6003819055508080600101915050611d03565b506000600b81905550611ee4613e96565b5050565b60128181548110611ef557fe5b906000526020600020016000915054906101000a900473ffffffffffffffffffffffffffffffffffffffff1681565b3373ffffffffffffffffffffffffffffffffffffffff16600960009054906101000a900473ffffffffffffffffffffffffffffffffffffffff1673ffffffffffffffffffffffffffffffffffffffff1614611fb4576040517f08c379a0000000000000000000000000000000000000000000000000000000008152600401611fab90615e74565b60405180910390fd5b80601c8190555050565b60025481565b60116020528060005260406000206000915054906101000a900460ff1681565b61271081565b60026000541415612030576040517f08c379a000000000000000000000000000000000000000000000000000000000815260040161202790615f34565b60405180910390fd5b6002600081905550816000811161207c576040517f08c379a000000000000000000000000000000000000000000000000000000000815260040161207390615db4565b60405180910390fd5b601a60003373ffffffffffffffffffffffffffffffffffffffff1673ffffffffffffffffffffffffffffffffffffffff16815260200190815260200160002060009054906101000a900460ff1615612109576040517f08c379a000000000000000000000000000000000000000000000000000000000815260040161210090615f54565b60405180910390fd5b82600760009054906101000a900473ffffffffffffffffffffffffffffffffffffffff1673ffffffffffffffffffffffffffffffffffffffff166370a08231336040518263ffffffff1660e01b81526004016121659190615b99565b60206040518083038186803b15801561217d57600080fd5b505afa158015612191573d6000803e3d6000fd5b505050506040513d601f19601f820116820180604052508101906121b591906153f0565b10156121f6576040517f08c379a00000000000000000000000000000000000000000000000000000000081526004016121ed90615e94565b60405180910390fd5b6000612204338460016136cd565b9150508381101561224a576040517f08c379a000000000000000000000000000000000000000000000000000000000815260040161224190615e74565b60405180910390fd5b600061225660016127f4565b9050600061231e600760009054906101000a900473ffffffffffffffffffffffffffffffffffffffff1673ffffffffffffffffffffffffffffffffffffffff166318160ddd6040518163ffffffff1660e01b815260040160206040518083038186803b1580156122c557600080fd5b505afa1580156122d9573d6000803e3d6000fd5b505050506040513d601f19601f820116820180604052508101906122fd91906153f0565b6123108489613ae890919063ffffffff16565b613b5890919063ffffffff16565b905061232a60006127f4565b81111561236c576040517f08c379a000000000000000000000000000000000000000000000000000000000815260040161236390615ef4565b60405180910390fd5b60006004866003811061237b57fe5b0160009054906101000a900473ffffffffffffffffffffffffffffffffffffffff1673ffffffffffffffffffffffffffffffffffffffff1663313ce5676040518163ffffffff1660e01b815260040160206040518083038186803b1580156123e257600080fd5b505afa1580156123f6573d6000803e3d6000fd5b505050506040513d601f19601f8201168201806040525081019061241a9190615455565b60ff169050612459612452670de0b6b3a764000061244484600a0a86613ae890919063ffffffff16565b613b5890919063ffffffff16565b8888614639565b505050505060016000819055505050565b600160009054906101000a90046fffffffffffffffffffffffffffffffff1681565b60135481565b61249b81613c80565b6124da576040517f08c379a00000000000000000000000000000000000000000000000000000000081526004016124d190615d14565b60405180910390fd5b600080600090505b60038160ff1610156126f7576000838260ff16600381106124ff57fe5b602002015111156126ea5760048160ff166003811061251a57fe5b0160009054906101000a900473ffffffffffffffffffffffffffffffffffffffff1673ffffffffffffffffffffffffffffffffffffffff1663313ce5676040518163ffffffff1660e01b815260040160206040518083038186803b15801561258157600080fd5b505afa158015612595573d6000803e3d6000fd5b505050506040513d601f19601f820116820180604052508101906125b99190615455565b60ff16915061261561260483600a0a6125f6670de0b6b3a7640000878660ff16600381106125e357fe5b6020020151613ae890919063ffffffff16565b613b5890919063ffffffff16565b601b546140b690919063ffffffff16565b601b8190555061267261266183600a0a612653670de0b6b3a7640000878660ff166003811061264057fe5b6020020151613ae890919063ffffffff16565b613b5890919063ffffffff16565b600354613ba290919063ffffffff16565b6003819055506126e93330858460ff166003811061268c57fe5b602002015160048560ff16600381106126a157fe5b0160009054906101000a900473ffffffffffffffffffffffffffffffffffffffff1673ffffffffffffffffffffffffffffffffffffffff16613bf7909392919063ffffffff16565b5b80806001019150506124e2565b505050565b3373ffffffffffffffffffffffffffffffffffffffff16600960009054906101000a900473ffffffffffffffffffffffffffffffffffffffff1673ffffffffffffffffffffffffffffffffffffffff161461278c576040517f08c379a000000000000000000000000000000000000000000000000000000000815260040161278390615e74565b60405180910390fd5b806fffffffffffffffffffffffffffffffff1660028190555050565b600a60009054906101000a900473ffffffffffffffffffffffffffffffffffffffff1681565b600860009054906101000a900473ffffffffffffffffffffffffffffffffffffffff1681565b60008060008060005b60038160ff1610156129745760048160ff166003811061281957fe5b0160009054906101000a900473ffffffffffffffffffffffffffffffffffffffff1673ffffffffffffffffffffffffffffffffffffffff1663313ce5676040518163ffffffff1660e01b815260040160206040518083038186803b15801561288057600080fd5b505afa158015612894573d6000803e3d6000fd5b505050506040513d601f19601f820116820180604052508101906128b89190615455565b60ff16935061291061290185600a0a6128f3670de0b6b3a764000060148660ff16600381106128e357fe5b0154613ae890919063ffffffff16565b613b5890919063ffffffff16565b84613ba290919063ffffffff16565b925061296561295685600a0a612948670de0b6b3a764000060178660ff166003811061293857fe5b0154613ae890919063ffffffff16565b613b5890919063ffffffff16565b83613ba290919063ffffffff16565b915080806001019150506127fd565b5084156129c0576129b6601b546129a88361299a866003546140b690919063ffffffff16565b6140b690919063ffffffff16565b613ba290919063ffffffff16565b93505050506129ed565b6129e7816129d9846003546140b690919063ffffffff16565b6140b690919063ffffffff16565b93505050505b919050565b60035481565b600080612a0560016127f4565b9050600060048460038110612a1657fe5b0160009054906101000a900473ffffffffffffffffffffffffffffffffffffffff1673ffffffffffffffffffffffffffffffffffffffff1663313ce5676040518163ffffffff1660e01b815260040160206040518083038186803b158015612a7d57600080fd5b505afa158015612a91573d6000803e3d6000fd5b505050506040513d601f19601f82011682018060405250810190612ab59190615455565b60ff169050612aea81600a0a612adc670de0b6b3a764000088613ae890919063ffffffff16565b613b5890919063ffffffff16565b94506000821415612aff578492505050612bc8565b612bc382612bb5600760009054906101000a900473ffffffffffffffffffffffffffffffffffffffff1673ffffffffffffffffffffffffffffffffffffffff166318160ddd6040518163ffffffff1660e01b815260040160206040518083038186803b158015612b6e57600080fd5b505afa158015612b82573d6000803e3d6000fd5b505050506040513d601f19601f82011682018060405250810190612ba691906153f0565b88613ae890919063ffffffff16565b613b5890919063ffffffff16565b925050505b92915050565b600e6020528160005260406000208181548110612be757fe5b9060005260206000209060040201600091509150508060000154908060010154908060020154908060030154905084565b60106020528160005260406000208160038110612c3157fe5b01600091509150505481565b3373ffffffffffffffffffffffffffffffffffffffff16600960009054906101000a900473ffffffffffffffffffffffffffffffffffffffff1673ffffffffffffffffffffffffffffffffffffffff1614612ccd576040517f08c379a0000000000000000000000000000000000000000000000000000000008152600401612cc490615e74565b60405180910390fd5b612cd561506d565b600080612ce260006127f4565b91506000612d22612710612d14612d056003600254613b5890919063ffffffff16565b86613ae890919063ffffffff16565b613b5890919063ffffffff16565b9050600080600090505b60038160ff161015612f595760048160ff1660038110612d4857fe5b0160009054906101000a900473ffffffffffffffffffffffffffffffffffffffff1673ffffffffffffffffffffffffffffffffffffffff1663313ce5676040518163ffffffff1660e01b815260040160206040518083038186803b158015612daf57600080fd5b505afa158015612dc3573d6000803e3d6000fd5b505050506040513d601f19601f82011682018060405250810190612de79190615455565b60ff169350612df88160ff16611290565b868260ff1660038110612e0757fe5b602002018181525050612e40670de0b6b3a7640000612e3286600a0a86613ae890919063ffffffff16565b613b5890919063ffffffff16565b915081868260ff1660038110612e5257fe5b60200201511115612f3157612e8382878360ff1660038110612e7057fe5b60200201516140b690919063ffffffff16565b868260ff1660038110612e9257fe5b602002018181525050612f2c600860009054906101000a900473ffffffffffffffffffffffffffffffffffffffff16878360ff1660038110612ed057fe5b602002015160048460ff1660038110612ee557fe5b0160009054906101000a900473ffffffffffffffffffffffffffffffffffffffff1673ffffffffffffffffffffffffffffffffffffffff166141009092919063ffffffff16565b612f4c565b6000868260ff1660038110612f4257fe5b6020020181815250505b8080600101915050612d2c565b50612f6385613c80565b15612f7257612f7185614475565b5b5050505050565b60026000541415612fbf576040517f08c379a0000000000000000000000000000000000000000000000000000000008152600401612fb690615f34565b60405180910390fd5b6002600081905550816000811161300b576040517f08c379a000000000000000000000000000000000000000000000000000000000815260040161300290615db4565b60405180910390fd5b60008061301885856129f8565b9050600e60003373ffffffffffffffffffffffffffffffffffffffff1673ffffffffffffffffffffffffffffffffffffffff1681526020019081526020016000206040518060800160405280868152602001878152602001428152602001838152509080600181540180825580915050600190039060005260206000209060040201600090919091909150600082015181600001556020820151816001015560408201518160020155606082015181600301555050600484600381106130da57fe5b0160009054906101000a900473ffffffffffffffffffffffffffffffffffffffff1673ffffffffffffffffffffffffffffffffffffffff1663313ce5676040518163ffffffff1660e01b815260040160206040518083038186803b15801561314157600080fd5b505afa158015613155573d6000803e3d6000fd5b505050506040513d601f19601f820116820180604052508101906131799190615455565b60ff1691506131c26131b183600a0a6131a3670de0b6b3a764000089613ae890919063ffffffff16565b613b5890919063ffffffff16565b600354613ba290919063ffffffff16565b600381905550613223333087600488600381106131db57fe5b0160009054906101000a900473ffffffffffffffffffffffffffffffffffffffff1673ffffffffffffffffffffffffffffffffffffffff16613bf7909392919063ffffffff16565b600760009054906101000a900473ffffffffffffffffffffffffffffffffffffffff1673ffffffffffffffffffffffffffffffffffffffff166340c10f1933836040518363ffffffff1660e01b8152600401613280929190615bb4565b600060405180830381600087803b15801561329a57600080fd5b505af11580156132ae573d6000803e3d6000fd5b505050507f6ec568242d49f3645a5e2f73f58b15947dba8ef3ea637e32f6703325ce46f28233866040516132e3929190615bb4565b60405180910390a150505060016000819055505050565b6014816003811061330757fe5b016000915090505481565b3373ffffffffffffffffffffffffffffffffffffffff16600960009054906101000a900473ffffffffffffffffffffffffffffffffffffffff1673ffffffffffffffffffffffffffffffffffffffff16146133a2576040517f08c379a000000000000000000000000000000000000000000000000000000000815260040161339990615e74565b60405180910390fd5b6133ab82613c80565b6133ea576040517f08c379a00000000000000000000000000000000000000000000000000000000081526004016133e190615ed4565b60405180910390fd5b60008060005b600381101561350b576004816003811061340657fe5b0160009054906101000a900473ffffffffffffffffffffffffffffffffffffffff1673ffffffffffffffffffffffffffffffffffffffff1663313ce5676040518163ffffffff1660e01b815260040160206040518083038186803b15801561346d57600080fd5b505afa158015613481573d6000803e3d6000fd5b505050506040513d601f19601f820116820180604052508101906134a59190615455565b60ff1692506134fc6134ed84600a0a6134df670de0b6b3a76400008986600381106134cc57fe5b6020020151613ae890919063ffffffff16565b613b5890919063ffffffff16565b83613ba290919063ffffffff16565b915080806001019150506133f0565b5061353e612710613530601c5461352260016127f4565b613ae890919063ffffffff16565b613b5890919063ffffffff16565b61355382601b54613ba290919063ffffffff16565b1115613594576040517f08c379a000000000000000000000000000000000000000000000000000000000815260040161358b90615e34565b60405180910390fd5b61359e60006127f4565b81106135df576040517f08c379a00000000000000000000000000000000000000000000000000000000081526004016135d690615d94565b60405180910390fd5b6135e884613cd2565b6135fd81601b54613ba290919063ffffffff16565b601b81905550613618816003546140b690919063ffffffff16565b60038190555060005b60038160ff1610156136c6576000858260ff166003811061363e57fe5b602002015111156136b9576136b884868360ff166003811061365c57fe5b602002015160048460ff166003811061367157fe5b0160009054906101000a900473ffffffffffffffffffffffffffffffffffffffff1673ffffffffffffffffffffffffffffffffffffffff166141009092919063ffffffff16565b5b8080600101915050613621565b5050505050565b6000806000805b600e60008873ffffffffffffffffffffffffffffffffffffffff1673ffffffffffffffffffffffffffffffffffffffff168152602001908152602001600020805490508160ff16101561387f5784158061378f5750600d54600e60008973ffffffffffffffffffffffffffffffffffffffff1673ffffffffffffffffffffffffffffffffffffffff1681526020019081526020016000208260ff168154811061377957fe5b9060005260206000209060040201600201544203115b80156137f957506000600e60008973ffffffffffffffffffffffffffffffffffffffff1673ffffffffffffffffffffffffffffffffffffffff1681526020019081526020016000208260ff16815481106137e557fe5b906000526020600020906004020160030154115b156138725761386f600e60008973ffffffffffffffffffffffffffffffffffffffff1673ffffffffffffffffffffffffffffffffffffffff1681526020019081526020016000208260ff168154811061384e57fe5b90600052602060002090600402016003015483613ba290919063ffffffff16565b91505b80806001019150506136d4565b5060005b60038160ff1610156138ff576138f0601060008973ffffffffffffffffffffffffffffffffffffffff1673ffffffffffffffffffffffffffffffffffffffff1681526020019081526020016000208260ff16600381106138df57fe5b0154836140b690919063ffffffff16565b91508080600101915050613883565b50600061390c60016127f4565b905060006004876003811061391d57fe5b0160009054906101000a900473ffffffffffffffffffffffffffffffffffffffff1673ffffffffffffffffffffffffffffffffffffffff1663313ce5676040518163ffffffff1660e01b815260040160206040518083038186803b15801561398457600080fd5b505afa158015613998573d6000803e3d6000fd5b505050506040513d601f19601f820116820180604052508101906139bc9190615455565b60ff169050613ab4670de0b6b3a7640000613aa6600760009054906101000a900473ffffffffffffffffffffffffffffffffffffffff1673ffffffffffffffffffffffffffffffffffffffff166318160ddd6040518163ffffffff1660e01b815260040160206040518083038186803b158015613a3857600080fd5b505afa158015613a4c573d6000803e3d6000fd5b505050506040513d601f19601f82011682018060405250810190613a7091906153f0565b613a9885600a0a613a8a888a613ae890919063ffffffff16565b613ae890919063ffffffff16565b613b5890919063ffffffff16565b613b5890919063ffffffff16565b8394509450505050935093915050565b600c5481565b60178160038110613ad757fe5b016000915090505481565b600d5481565b600080831415613afb5760009050613b52565b6000828402905082848281613b0c57fe5b0414613b4d576040517f08c379a0000000000000000000000000000000000000000000000000000000008152600401613b4490615e54565b60405180910390fd5b809150505b92915050565b6000613b9a83836040518060400160405280601a81526020017f536166654d6174683a206469766973696f6e206279207a65726f0000000000008152506149d2565b905092915050565b600080828401905083811015613bed576040517f08c379a0000000000000000000000000000000000000000000000000000000008152600401613be490615d54565b60405180910390fd5b8091505092915050565b613c7a846323b872dd60e01b858585604051602401613c1893929190615c06565b604051602081830303815290604052907bffffffffffffffffffffffffffffffffffffffffffffffffffffffff19166020820180517bffffffffffffffffffffffffffffffffffffffffffffffffffffffff8381831617835250505050614a33565b50505050565b600080600090505b60038160ff161015613cc7576000838260ff1660038110613ca557fe5b60200201511115613cba576001915050613ccd565b8080600101915050613c88565b50600090505b919050565b600860009054906101000a900473ffffffffffffffffffffffffffffffffffffffff1673ffffffffffffffffffffffffffffffffffffffff1663b1b8f1be826040518263ffffffff1660e01b8152600401613d2d9190615c66565b600060405180830381600087803b158015613d4757600080fd5b505af1158015613d5b573d6000803e3d6000fd5b50505050600080600090505b60038160ff161015613e915760048160ff1660038110613d8357fe5b0160009054906101000a900473ffffffffffffffffffffffffffffffffffffffff1673ffffffffffffffffffffffffffffffffffffffff1663313ce5676040518163ffffffff1660e01b815260040160206040518083038186803b158015613dea57600080fd5b505afa158015613dfe573d6000803e3d6000fd5b505050506040513d601f19601f82011682018060405250810190613e229190615455565b60ff169150613e7e613e6d83600a0a613e5f670de0b6b3a7640000878660ff1660038110613e4c57fe5b6020020151613ae890919063ffffffff16565b613b5890919063ffffffff16565b600b546140b690919063ffffffff16565b600b819055508080600101915050613d67565b505050565b60005b60038160ff161015613f1357613eda60148260ff1660038110613eb857fe5b015460178360ff1660038110613eca57fe5b0154613ba290919063ffffffff16565b60178260ff1660038110613eea57fe5b0181905550600060148260ff1660038110613f0157fe5b01819055508080600101915050613e99565b5060005b60128054905081101561404f576001601a600060128481548110613f3757fe5b9060005260206000200160009054906101000a900473ffffffffffffffffffffffffffffffffffffffff1673ffffffffffffffffffffffffffffffffffffffff1673ffffffffffffffffffffffffffffffffffffffff16815260200190815260200160002060006101000a81548160ff02191690831515021790555060006011600060128481548110613fc657fe5b9060005260206000200160009054906101000a900473ffffffffffffffffffffffffffffffffffffffff1673ffffffffffffffffffffffffffffffffffffffff1673ffffffffffffffffffffffffffffffffffffffff16815260200190815260200160002060006101000a81548160ff0219169083151502179055508080600101915050613f17565b506000601280549050905060005b818110156140b257601280548061407057fe5b6001900381819060005260206000200160006101000a81549073ffffffffffffffffffffffffffffffffffffffff02191690559055808060010191505061405d565b5050565b60006140f883836040518060400160405280601e81526020017f536166654d6174683a207375627472616374696f6e206f766572666c6f770000815250614afa565b905092915050565b6141818363a9059cbb60e01b848460405160240161411f929190615c3d565b604051602081830303815290604052907bffffffffffffffffffffffffffffffffffffffffffffffffffffffff19166020820180517bffffffffffffffffffffffffffffffffffffffffffffffffffffffff8381831617835250505050614a33565b505050565b60005b600e60008473ffffffffffffffffffffffffffffffffffffffff1673ffffffffffffffffffffffffffffffffffffffff168152602001908152602001600020805490508160ff161015614470576000600e60008573ffffffffffffffffffffffffffffffffffffffff1673ffffffffffffffffffffffffffffffffffffffff1681526020019081526020016000208260ff168154811061422557fe5b9060005260206000209060040201600301541180156142445750600082115b1561446357600e60008473ffffffffffffffffffffffffffffffffffffffff1673ffffffffffffffffffffffffffffffffffffffff1681526020019081526020016000208160ff168154811061429657fe5b906000526020600020906004020160030154821061438a5761431f600e60008573ffffffffffffffffffffffffffffffffffffffff1673ffffffffffffffffffffffffffffffffffffffff1681526020019081526020016000208260ff16815481106142fe57fe5b906000526020600020906004020160030154836140b690919063ffffffff16565b91506000600e60008573ffffffffffffffffffffffffffffffffffffffff1673ffffffffffffffffffffffffffffffffffffffff1681526020019081526020016000208260ff168154811061437057fe5b906000526020600020906004020160030181905550614462565b6143fb82600e60008673ffffffffffffffffffffffffffffffffffffffff1673ffffffffffffffffffffffffffffffffffffffff1681526020019081526020016000208360ff16815481106143db57fe5b9060005260206000209060040201600301546140b690919063ffffffff16565b600e60008573ffffffffffffffffffffffffffffffffffffffff1673ffffffffffffffffffffffffffffffffffffffff1681526020019081526020016000208260ff168154811061444857fe5b906000526020600020906004020160030181905550600091505b5b8080600101915050614189565b505050565b600860009054906101000a900473ffffffffffffffffffffffffffffffffffffffff1673ffffffffffffffffffffffffffffffffffffffff1663d4e20b01826040518263ffffffff1660e01b81526004016144d09190615c66565b600060405180830381600087803b1580156144ea57600080fd5b505af11580156144fe573d6000803e3d6000fd5b50505050600080600090505b60038160ff1610156146345760048160ff166003811061452657fe5b0160009054906101000a900473ffffffffffffffffffffffffffffffffffffffff1673ffffffffffffffffffffffffffffffffffffffff1663313ce5676040518163ffffffff1660e01b815260040160206040518083038186803b15801561458d57600080fd5b505afa1580156145a1573d6000803e3d6000fd5b505050506040513d601f19601f820116820180604052508101906145c59190615455565b60ff16915061462161461083600a0a614602670de0b6b3a7640000878660ff16600381106145ef57fe5b6020020151613ae890919063ffffffff16565b613b5890919063ffffffff16565b600b54613ba290919063ffffffff16565b600b81905550808060010191505061450a565b505050565b600061464482611290565b9050600760009054906101000a900473ffffffffffffffffffffffffffffffffffffffff1673ffffffffffffffffffffffffffffffffffffffff16639dc29fac33856040518363ffffffff1660e01b81526004016146a3929190615bb4565b600060405180830381600087803b1580156146bd57600080fd5b505af11580156146d1573d6000803e3d6000fd5b50505050808410156148ea576000600483600381106146ec57fe5b0160009054906101000a900473ffffffffffffffffffffffffffffffffffffffff1673ffffffffffffffffffffffffffffffffffffffff1663313ce5676040518163ffffffff1660e01b815260040160206040518083038186803b15801561475357600080fd5b505afa158015614767573d6000803e3d6000fd5b505050506040513d601f19601f8201168201806040525081019061478b9190615455565b60ff16905060006147fb6147ec6127106147de600160009054906101000a90046fffffffffffffffffffffffffffffffff166fffffffffffffffffffffffffffffffff168a613ae890919063ffffffff16565b613b5890919063ffffffff16565b876140b690919063ffffffff16565b905061484161483083600a0a614822670de0b6b3a764000085613ae890919063ffffffff16565b613b5890919063ffffffff16565b6003546140b690919063ffffffff16565b6003819055506148513386614186565b6148aa33826004876003811061486357fe5b0160009054906101000a900473ffffffffffffffffffffffffffffffffffffffff1673ffffffffffffffffffffffffffffffffffffffff166141009092919063ffffffff16565b7f8b46652782c1a94bd1f1e050f62dea3a99b7fe20520c003e111624847230d4fe33826040516148db929190615bb4565b60405180910390a150506149cc565b60135460128054905010806149485750601160003373ffffffffffffffffffffffffffffffffffffffff1673ffffffffffffffffffffffffffffffffffffffff16815260200190815260200160002060009054906101000a900460ff165b614987576040517f08c379a000000000000000000000000000000000000000000000000000000000815260040161497e90615df4565b60405180910390fd5b614992848484614b55565b7fd70cf1d21d858f226b570eec41b4238a7365568b97cf693f3ea03c3bd0d507cf33856040516149c3929190615bb4565b60405180910390a15b50505050565b60008083118290614a19576040517f08c379a0000000000000000000000000000000000000000000000000000000008152600401614a109190615cd2565b60405180910390fd5b506000838581614a2557fe5b049050809150509392505050565b6060614a95826040518060400160405280602081526020017f5361666545524332303a206c6f772d6c6576656c2063616c6c206661696c65648152508573ffffffffffffffffffffffffffffffffffffffff16614eaf9092919063ffffffff16565b9050600081511115614af55780806020019051810190614ab59190615375565b614af4576040517f08c379a0000000000000000000000000000000000000000000000000000000008152600401614aeb90615f14565b60405180910390fd5b5b505050565b6000838311158290614b42576040517f08c379a0000000000000000000000000000000000000000000000000000000008152600401614b399190615cd2565b60405180910390fd5b5060008385039050809150509392505050565b614bb383600f60003373ffffffffffffffffffffffffffffffffffffffff1673ffffffffffffffffffffffffffffffffffffffff1681526020019081526020016000208360038110614ba357fe5b0154613ba290919063ffffffff16565b600f60003373ffffffffffffffffffffffffffffffffffffffff1673ffffffffffffffffffffffffffffffffffffffff1681526020019081526020016000208260038110614bfd57fe5b0181905550614c6082601060003373ffffffffffffffffffffffffffffffffffffffff1673ffffffffffffffffffffffffffffffffffffffff1681526020019081526020016000208360038110614c5057fe5b0154613ba290919063ffffffff16565b601060003373ffffffffffffffffffffffffffffffffffffffff1673ffffffffffffffffffffffffffffffffffffffff1681526020019081526020016000208260038110614caa57fe5b0181905550614cd08360148360038110614cc057fe5b0154613ba290919063ffffffff16565b60148260038110614cdd57fe5b01819055506000614d44620f4240614d36670de0b6b3a7640000614d286014600260038110614d0857fe5b01546014600160038110614d1857fe5b0154613ba290919063ffffffff16565b613ae890919063ffffffff16565b613b5890919063ffffffff16565b9050600b54816014600060038110614d5857fe5b0154011115614d9c576040517f08c379a0000000000000000000000000000000000000000000000000000000008152600401614d9390615d94565b60405180910390fd5b601160003373ffffffffffffffffffffffffffffffffffffffff1673ffffffffffffffffffffffffffffffffffffffff16815260200190815260200160002060009054906101000a900460ff16614ea9576001601160003373ffffffffffffffffffffffffffffffffffffffff1673ffffffffffffffffffffffffffffffffffffffff16815260200190815260200160002060006101000a81548160ff0219169083151502179055506012339080600181540180825580915050600190039060005260206000200160009091909190916101000a81548173ffffffffffffffffffffffffffffffffffffffff021916908373ffffffffffffffffffffffffffffffffffffffff1602179055505b50505050565b6060614ebe8484600085614ec7565b90509392505050565b6060823073ffffffffffffffffffffffffffffffffffffffff16311015614f23576040517f08c379a0000000000000000000000000000000000000000000000000000000008152600401614f1a90615d74565b60405180910390fd5b614f2c85614ff3565b614f6b576040517f08c379a0000000000000000000000000000000000000000000000000000000008152600401614f6290615eb4565b60405180910390fd5b600060608673ffffffffffffffffffffffffffffffffffffffff168587604051614f959190615b67565b60006040518083038185875af1925050503d8060008114614fd2576040519150601f19603f3d011682016040523d82523d6000602084013e614fd7565b606091505b5091509150614fe7828286615006565b92505050949350505050565b600080823b905060008111915050919050565b6060831561501657829050615066565b6000835111156150295782518084602001fd5b816040517f08c379a000000000000000000000000000000000000000000000000000000000815260040161505d9190615cd2565b60405180910390fd5b9392505050565b6040518060600160405280600390602082028036833780820191505090505090565b60008135905061509e816161f9565b92915050565b600082601f8301126150b557600080fd5b60036150c86150c382616045565b616018565b915081838560208402820111156150de57600080fd5b60005b8381101561510e57816150f488826151cb565b8452602084019350602083019250506001810190506150e1565b5050505092915050565b600082601f83011261512957600080fd5b600361513c61513782616045565b616018565b9150818385602084028201111561515257600080fd5b60005b83811015615182578161516888826151e0565b845260208401935060208301925050600181019050615155565b5050505092915050565b60008135905061519b81616210565b92915050565b6000815190506151b081616210565b92915050565b6000813590506151c581616227565b92915050565b6000813590506151da8161623e565b92915050565b6000815190506151ef8161623e565b92915050565b60008151905061520481616255565b92915050565b60006020828403121561521c57600080fd5b600061522a8482850161508f565b91505092915050565b6000806040838503121561524657600080fd5b60006152548582860161508f565b9250506020615265858286016151cb565b9150509250929050565b60008060006060848603121561528457600080fd5b60006152928682870161508f565b93505060206152a3868287016151cb565b92505060406152b48682870161518c565b9150509250925092565b6000606082840312156152d057600080fd5b60006152de848285016150a4565b91505092915050565b6000606082840312156152f957600080fd5b600061530784828501615118565b91505092915050565b6000806080838503121561532357600080fd5b6000615331858286016150a4565b92505060606153428582860161508f565b9150509250929050565b60006020828403121561535e57600080fd5b600061536c8482850161518c565b91505092915050565b60006020828403121561538757600080fd5b6000615395848285016151a1565b91505092915050565b6000602082840312156153b057600080fd5b60006153be848285016151b6565b91505092915050565b6000602082840312156153d957600080fd5b60006153e7848285016151cb565b91505092915050565b60006020828403121561540257600080fd5b6000615410848285016151e0565b91505092915050565b6000806040838503121561542c57600080fd5b600061543a858286016151cb565b925050602061544b858286016151cb565b9150509250929050565b60006020828403121561546757600080fd5b6000615475848285016151f5565b91505092915050565b600061548a8383615b49565b60208301905092915050565b61549f81616137565b82525050565b6154ae816160c6565b82525050565b6154bd81616071565b6154c7818461609f565b92506154d282616067565b8060005b838110156155035781516154ea878261547e565b96506154f583616092565b9250506001810190506154d6565b505050505050565b615514816160d8565b82525050565b60006155258261607c565b61552f81856160aa565b935061553f8185602086016161b5565b80840191505092915050565b61555481616149565b82525050565b6155638161616d565b82525050565b600061557482616087565b61557e81856160b5565b935061558e8185602086016161b5565b615597816161e8565b840191505092915050565b60006155af6016836160b5565b91507f72657175657374207769746864726177206669727374000000000000000000006000830152602082019050919050565b60006155ef6014836160b5565b91507f616d6f756e742063616e2774206265207a65726f0000000000000000000000006000830152602082019050919050565b600061562f6035836160b5565b91507f596f75206d757374206265206e6f6d696e61746564206265666f726520796f7560008301527f2063616e20616363657074206f776e65727368697000000000000000000000006020830152604082019050919050565b6000615695601b836160b5565b91507f536166654d6174683a206164646974696f6e206f766572666c6f7700000000006000830152602082019050919050565b60006156d56026836160b5565b91507f416464726573733a20696e73756666696369656e742062616c616e636520666f60008301527f722063616c6c00000000000000000000000000000000000000000000000000006020830152604082019050919050565b600061573b6012836160b5565b91507f4e6f7420656e6f7567682062616c616e636500000000000000000000000000006000830152602082019050919050565b600061577b6002836160b5565b91507f4e560000000000000000000000000000000000000000000000000000000000006000830152602082019050919050565b60006157bb600b836160b5565b91507f717565756520656d7074790000000000000000000000000000000000000000006000830152602082019050919050565b60006157fb6017836160b5565b91507f7265717565737473206c696d69742045786365656465640000000000000000006000830152602082019050919050565b600061583b601f836160b5565b91507f43616c6c207769746864726177416c6c2066756e6374696f6e206669727374006000830152602082019050919050565b600061587b600c836160b5565b91507f457863656564206c696d697400000000000000000000000000000000000000006000830152602082019050919050565b60006158bb6021836160b5565b91507f536166654d6174683a206d756c7469706c69636174696f6e206f766572666c6f60008301527f77000000000000000000000000000000000000000000000000000000000000006020830152604082019050919050565b60006159216002836160b5565b91507f4e410000000000000000000000000000000000000000000000000000000000006000830152602082019050919050565b60006159616007836160b5565b91507f6c6f7720525054000000000000000000000000000000000000000000000000006000830152602082019050919050565b60006159a1601d836160b5565b91507f416464726573733a2063616c6c20746f206e6f6e2d636f6e74726163740000006000830152602082019050919050565b60006159e16013836160b5565b91507f616d6f756e742063616e206e6f74207a65726f000000000000000000000000006000830152602082019050919050565b6000615a216017836160b5565b91507f4e6f7420456e6f75676820506f6f6c2062616c616e63650000000000000000006000830152602082019050919050565b6000615a61602a836160b5565b91507f5361666545524332303a204552433230206f7065726174696f6e20646964206e60008301527f6f742073756363656564000000000000000000000000000000000000000000006020830152604082019050919050565b6000615ac7601f836160b5565b91507f5265656e7472616e637947756172643a207265656e7472616e742063616c6c006000830152602082019050919050565b6000615b07600b836160b5565b91507f436c61696d2066697273740000000000000000000000000000000000000000006000830152602082019050919050565b615b43816160e4565b82525050565b615b5281616120565b82525050565b615b6181616120565b82525050565b6000615b73828461551a565b915081905092915050565b6000602082019050615b9360008301846154a5565b92915050565b6000602082019050615bae6000830184615496565b92915050565b6000604082019050615bc96000830185615496565b615bd66020830184615b58565b9392505050565b6000604082019050615bf260008301856154a5565b615bff60208301846154a5565b9392505050565b6000606082019050615c1b60008301866154a5565b615c2860208301856154a5565b615c356040830184615b58565b949350505050565b6000604082019050615c5260008301856154a5565b615c5f6020830184615b58565b9392505050565b6000606082019050615c7b60008301846154b4565b92915050565b6000602082019050615c96600083018461550b565b92915050565b6000602082019050615cb1600083018461554b565b92915050565b6000602082019050615ccc600083018461555a565b92915050565b60006020820190508181036000830152615cec8184615569565b905092915050565b60006020820190508181036000830152615d0d816155a2565b9050919050565b60006020820190508181036000830152615d2d816155e2565b9050919050565b60006020820190508181036000830152615d4d81615622565b9050919050565b60006020820190508181036000830152615d6d81615688565b9050919050565b60006020820190508181036000830152615d8d816156c8565b9050919050565b60006020820190508181036000830152615dad8161572e565b9050919050565b60006020820190508181036000830152615dcd8161576e565b9050919050565b60006020820190508181036000830152615ded816157ae565b9050919050565b60006020820190508181036000830152615e0d816157ee565b9050919050565b60006020820190508181036000830152615e2d8161582e565b9050919050565b60006020820190508181036000830152615e4d8161586e565b9050919050565b60006020820190508181036000830152615e6d816158ae565b9050919050565b60006020820190508181036000830152615e8d81615914565b9050919050565b60006020820190508181036000830152615ead81615954565b9050919050565b60006020820190508181036000830152615ecd81615994565b9050919050565b60006020820190508181036000830152615eed816159d4565b9050919050565b60006020820190508181036000830152615f0d81615a14565b9050919050565b60006020820190508181036000830152615f2d81615a54565b9050919050565b60006020820190508181036000830152615f4d81615aba565b9050919050565b60006020820190508181036000830152615f6d81615afa565b9050919050565b6000602082019050615f896000830184615b3a565b92915050565b6000602082019050615fa46000830184615b58565b92915050565b6000604082019050615fbf6000830185615b58565b615fcc6020830184615b58565b9392505050565b6000608082019050615fe86000830187615b58565b615ff56020830186615b58565b6160026040830185615b58565b61600f6060830184615b58565b95945050505050565b6000604051905081810181811067ffffffffffffffff8211171561603b57600080fd5b8060405250919050565b600067ffffffffffffffff82111561605c57600080fd5b602082029050919050565b6000819050919050565b600060039050919050565b600081519050919050565b600081519050919050565b6000602082019050919050565b600081905092915050565b600081905092915050565b600082825260208201905092915050565b60006160d182616100565b9050919050565b60008115159050919050565b60006fffffffffffffffffffffffffffffffff82169050919050565b600073ffffffffffffffffffffffffffffffffffffffff82169050919050565b6000819050919050565b600060ff82169050919050565b600061614282616191565b9050919050565b60006161548261615b565b9050919050565b600061616682616100565b9050919050565b60006161788261617f565b9050919050565b600061618a82616100565b9050919050565b600061619c826161a3565b9050919050565b60006161ae82616100565b9050919050565b60005b838110156161d35780820151818401526020810190506161b8565b838111156161e2576000848401525b50505050565b6000601f19601f8301169050919050565b616202816160c6565b811461620d57600080fd5b50565b616219816160d8565b811461622457600080fd5b50565b616230816160e4565b811461623b57600080fd5b50565b61624781616120565b811461625257600080fd5b50565b61625e8161612a565b811461626957600080fd5b5056fea2646970667358221220b3e4d897d52904d2a803313fc0613c6a6b891920e6cf06fc53cbe08ec42d74d764736f6c634300060c0033",
  "immutableReferences": {},
  "source": "// SPDX-License-Identifier: UNLICENSED\r\npragma solidity ^0.6.0;\r\npragma experimental ABIEncoderV2;\r\n\r\n\r\nimport '../../Interfaces/StrategyInterface.sol';\r\nimport \"@openzeppelin/contracts/utils/ReentrancyGuard.sol\";\r\nimport './SafeERC20.sol';\r\n\r\ncontract RoyaleLP is ReentrancyGuard {\r\n    using SafeERC20 for IERC20;\r\n    using SafeMath for uint256;\r\n    \r\n    uint256 public constant DENOMINATOR = 10000;\r\n\r\n    uint128 public fees = 25; // for .25% fee, for 1.75% fee => 175\r\n\r\n    uint256 public poolPart = 750 ; // 7.5% of total Liquidity will remain in the pool\r\n\r\n    uint256 public selfBalance;\r\n\r\n    IERC20[3] public tokens;\r\n\r\n    IERC20 public rpToken;\r\n\r\n    rStrategy public strategy;\r\n    \r\n    address public wallet;\r\n    \r\n    address public nominatedWallet;\r\n\r\n    uint public YieldPoolBalance;\r\n    uint public liquidityProvidersAPY;\r\n\r\n    //storage for user related to supply and withdraw\r\n    \r\n    uint256 public lock_period = 1 minutes;\r\n\r\n    struct depositDetails {\r\n        uint index;\r\n        uint amount;\r\n        uint256 time;\r\n        uint256 remAmt;\r\n    }\r\n    \r\n    mapping(address => depositDetails[]) public amountSupplied;\r\n    mapping(address => uint256[3]) public amountWithdraw;\r\n    mapping(address => uint256[3]) public amountBurnt;\r\n    \r\n    \r\n    mapping(address => bool) public isInQ;\r\n    \r\n    address[] public withdrawRecipients;\r\n    \r\n    uint public maxWithdrawRequests=50;\r\n    \r\n    uint256[3] public totalWithdraw;\r\n    \r\n    uint[3] public reserveAmount;\r\n    mapping(address => bool)public reserveRecipients;\r\n    \r\n    //storage to store total loan given\r\n    uint256 public loanGiven;\r\n    \r\n    uint public loanPart=2000;\r\n    \r\n  \r\n    modifier onlyWallet(){\r\n      require(wallet ==msg.sender, \"NA\");\r\n      _;\r\n    }\r\n  \r\n     modifier validAmount(uint amount){\r\n      require(amount > 0 , \"NV\");\r\n      _;\r\n    }\r\n    \r\n    // EVENTS \r\n    event userSupplied(address user,uint amount);\r\n    event userRecieved(address user,uint amount);\r\n    event userAddedToQ(address user,uint amount);\r\n    event yieldAdded(uint amount);\r\n    event walletNominated(address newOwner);\r\n    event walletChanged(address oldOwner, address newOwner);\r\n   \r\n    \r\n    constructor(address[3] memory _tokens,address _rpToken,address _wallet) public {\r\n        require(_wallet != address(0), \"Wallet address cannot be 0\");\r\n        for(uint8 i=0; i<3; i++) {\r\n            tokens[i] = IERC20(_tokens[i]);\r\n        }\r\n        rpToken = IERC20(_rpToken);\r\n        wallet=_wallet;\r\n    }\r\n    \r\n    function nominateNewOwner(address _wallet) external onlyWallet {\r\n        nominatedWallet = _wallet;\r\n        emit walletNominated(_wallet);\r\n    }\r\n\r\n    function acceptOwnership() external {\r\n        require(msg.sender == nominatedWallet, \"You must be nominated before you can accept ownership\");\r\n        emit walletChanged(wallet, nominatedWallet);\r\n        wallet = nominatedWallet;\r\n        nominatedWallet = address(0);\r\n    }\r\n\r\n\r\n    /* INTERNAL FUNCTIONS */\r\n   \r\n    \r\n    //For checking whether array contains any non zero elements or not.\r\n    function checkValidArray(uint256[3] memory amounts)internal pure returns(bool){\r\n        for(uint8 i=0;i<3;i++){\r\n            if(amounts[i]>0){\r\n                return true;\r\n            }\r\n        }\r\n        return false;\r\n    }\r\n    \r\n\r\n   \r\n    \r\n    // This function deposits the liquidity to yield generation pool using yield Strategy contract\r\n    function _deposit(uint256[3] memory amounts) internal {\r\n        strategy.deposit(amounts);\r\n        uint decimal;\r\n        for(uint8 i=0;i<3;i++){\r\n            decimal=tokens[i].decimals();\r\n            YieldPoolBalance =YieldPoolBalance.add(amounts[i].mul(10**18).div(10**decimal));\r\n        }\r\n    }\r\n   \r\n\r\n    //This function is used to updating the array of user's individual deposit , called when users withdraw/claim tokens.\r\n    function updateLockedRPT(address recipient,uint256 amount) internal{\r\n        for(uint8 j=0; j<amountSupplied[recipient].length; j++) {\r\n            if(amountSupplied[recipient][j].remAmt > 0 && amount > 0 ) {\r\n                if(amount >= amountSupplied[recipient][j].remAmt) {\r\n                        amount = amount.sub( amountSupplied[recipient][j].remAmt);\r\n                        amountSupplied[recipient][j].remAmt = 0;\r\n                }\r\n                else {\r\n                        amountSupplied[recipient][j].remAmt =(amountSupplied[recipient][j].remAmt).sub(amount);\r\n                        amount = 0;\r\n                }\r\n            }\r\n        }\r\n     }\r\n\r\n    //Funtion determines whether requested withdrawl amount is available in the pool or not.\r\n    //If yes then fulfills withdraw request \r\n    //and if no then put the request into the withdraw queue.\r\n    function checkWithdraw(uint256 amount,uint256 burnAmt,uint _index) internal{\r\n        uint256 poolBalance;\r\n        poolBalance = getBalances(_index);\r\n        rpToken.burn(msg.sender, burnAmt);\r\n        if(amount < poolBalance) {\r\n            uint decimal;\r\n            decimal=tokens[_index].decimals();\r\n            uint temp = amount.sub(amount.mul(fees).div(DENOMINATOR));\r\n            selfBalance=selfBalance.sub(temp.mul(10**18).div(10**decimal));\r\n            updateLockedRPT(msg.sender,burnAmt);\r\n            tokens[_index].safeTransfer(msg.sender, temp);\r\n            emit userRecieved(msg.sender, temp); \r\n         }\r\n         else {\r\n             require(withdrawRecipients.length<maxWithdrawRequests || isInQ[msg.sender],\"requests limit Exceeded\");\r\n            _takeBackQ(amount,burnAmt,_index);\r\n            emit userAddedToQ(msg.sender, amount);\r\n        }\r\n    }\r\n\r\n\r\n\r\n    // this will add unfulfilled withdraw requests to the withdrawl queue\r\n    function _takeBackQ(uint256 amount,uint256 _burnAmount,uint256 _index) internal {\r\n        amountWithdraw[msg.sender][_index] =amountWithdraw[msg.sender][_index].add( amount);\r\n        amountBurnt[msg.sender][_index]=amountBurnt[msg.sender][_index].add(_burnAmount);\r\n        totalWithdraw[_index] =totalWithdraw[_index].add(amount);\r\n        uint total;\r\n        total=(totalWithdraw[1].add(totalWithdraw[2])).mul(1e18).div(10**6);\r\n        require((totalWithdraw[0]+total)<=YieldPoolBalance,\"Not enough balance\");\r\n        if(!isInQ[msg.sender]) {\r\n            isInQ[msg.sender] = true;\r\n            withdrawRecipients.push(msg.sender);\r\n            \r\n        }\r\n\r\n    }\r\n\r\n\r\n    //this function is called when Royale Govenance withdrawl from yield generation pool.It add all the withdrawl amount in the reserve amount.\r\n    //All the users who requested for the withdrawl are added to the reserveRecipients.\r\n    function updateWithdrawQueue() internal{\r\n        for(uint8 i=0;i<3;i++){\r\n            reserveAmount[i]=reserveAmount[i].add(totalWithdraw[i]);\r\n            totalWithdraw[i]=0;\r\n        }\r\n        for(uint i=0; i<withdrawRecipients.length; i++) {\r\n            reserveRecipients[withdrawRecipients[i]]=true;\r\n            isInQ[withdrawRecipients[i]]=false;\r\n        }\r\n        uint count=withdrawRecipients.length;\r\n        for(uint i=0;i<count;i++){\r\n            withdrawRecipients.pop();\r\n        }\r\n    }\r\n\r\n    // this will withdraw Liquidity from yield genaration pool using yield Strategy\r\n    function _withdraw(uint256[3] memory amounts) internal {\r\n        strategy.withdraw(amounts);\r\n        uint decimal;\r\n        for(uint8 i=0;i<3;i++){\r\n            decimal=tokens[i].decimals();\r\n            YieldPoolBalance =YieldPoolBalance.sub(amounts[i].mul(10**18).div(10**decimal));\r\n        }\r\n    }\r\n\r\n    //This function calculate RPT to be mint or burn\r\n    //amount parameter is amount of token\r\n    //_index can be 0/1/2 \r\n    //0-DAI\r\n    //1-USDC\r\n    //2-USDT\r\n    function calcRptAmount(uint256 amount,uint _index) public view returns(uint256) {\r\n        uint256 total = calculateTotalToken(true);\r\n        uint256 decimal = 0;\r\n        decimal=tokens[_index].decimals();\r\n        amount=amount.mul(1e18).div(10**decimal);\r\n        if(total==0){\r\n            return amount;\r\n        }\r\n        else{\r\n          return (amount.mul(rpToken.totalSupply()).div(total)); \r\n        }\r\n    }\r\n\r\n\r\n\r\n    //function to check available amount to withdraw for user\r\n    function availableLiquidity(address addr, uint coin,bool _time) public view returns(uint256 token,uint256 RPT) {\r\n        uint256 amount=0;\r\n        for(uint8 j=0; j<amountSupplied[addr].length; j++) {\r\n                if( (!_time || (now - amountSupplied[addr][j].time)  > lock_period)&&amountSupplied[addr][j].remAmt >0)   {\r\n                        amount =amount.add(amountSupplied[addr][j].remAmt);\r\n                }\r\n        }\r\n        for(uint8 i=0;i<3;i++){\r\n            amount =amount.sub(amountBurnt[addr][i]);\r\n        }\r\n        uint256 total=calculateTotalToken(true);\r\n        uint256 decimal;\r\n        decimal=tokens[coin].decimals();\r\n        return ((amount.mul(total).mul(10**decimal).div(rpToken.totalSupply())).div(10**18),amount);\r\n    }\r\n    \r\n\r\n    //calculated available total tokens in the pool by substracting withdrawal, reserve amount.\r\n    //In case supply is true , it adds total loan given.\r\n    function calculateTotalToken(bool _supply)public view returns(uint256){\r\n        uint256 decimal;\r\n        uint withdrawTotal;\r\n        uint reserveTotal;\r\n       \r\n        for(uint8 i=0; i<3; i++) {\r\n            decimal = tokens[i].decimals();\r\n            withdrawTotal=withdrawTotal.add(totalWithdraw[i].mul(1e18).div(10**decimal));\r\n            reserveTotal=reserveTotal.add(reserveAmount[i].mul(1e18).div(10**decimal));\r\n        } \r\n        if(_supply){\r\n            return selfBalance.sub(withdrawTotal).sub(reserveTotal).add(loanGiven);\r\n        }\r\n        else{\r\n            return selfBalance.sub(withdrawTotal).sub(reserveTotal);\r\n        }\r\n        \r\n    }\r\n    \r\n    /* USER FUNCTIONS (exposed to frontend) */\r\n   \r\n    //For depositing liquidity to the pool.\r\n    //_index will be 0/1/2     0-DAI , 1-USDC , 2-USDT\r\n    function supply(uint256 amount,uint256 _index) external nonReentrant  validAmount(amount){\r\n        uint decimal;\r\n        uint256 mintAmount=calcRptAmount(amount,_index);\r\n        amountSupplied[msg.sender].push(depositDetails(_index,amount,now,mintAmount));\r\n        decimal=tokens[_index].decimals();\r\n        selfBalance=selfBalance.add(amount.mul(10**18).div(10**decimal));\r\n        tokens[_index].safeTransferFrom(msg.sender, address(this), amount);\r\n        rpToken.mint(msg.sender, mintAmount);\r\n        emit userSupplied(msg.sender, amount);\r\n    }\r\n\r\n    \r\n    //for withdrawing the liquidity\r\n    //First Parameter is amount of RPT\r\n    //Second is which token to be withdrawal with this RPT.\r\n    function requestWithdrawWithRPT(uint256 amount,uint256 _index) external nonReentrant validAmount(amount){\r\n        require(!reserveRecipients[msg.sender],\"Claim first\");\r\n        require(rpToken.balanceOf(msg.sender) >= amount, \"low RPT\");\r\n        (,uint availableRPT)=availableLiquidity(msg.sender,_index,true );\r\n        require(availableRPT>=amount,\"NA\");\r\n        uint256 total = calculateTotalToken(true);\r\n        uint256 tokenAmount;\r\n        tokenAmount=amount.mul(total).div(rpToken.totalSupply());\r\n        require(tokenAmount <= calculateTotalToken(false),\"Not Enough Pool balance\");\r\n        uint decimal;\r\n        decimal=tokens[_index].decimals();\r\n        checkWithdraw(tokenAmount.mul(10**decimal).div(10**18),amount,_index);  \r\n    }\r\n    \r\n    //For claiming withdrawal after user added to the reserve recipient.\r\n    function claimTokens() external  nonReentrant{\r\n        require(reserveRecipients[msg.sender] , \"request withdraw first\");\r\n        \r\n        uint totalBurnt;\r\n        uint decimal;\r\n        for(uint8 i=0; i<3; i++) {\r\n            if(amountWithdraw[msg.sender][i] > 0) {\r\n                decimal=tokens[i].decimals();\r\n                uint temp = amountWithdraw[msg.sender][i].sub((amountWithdraw[msg.sender][i].mul(fees)).div(DENOMINATOR));\r\n                reserveAmount[i] =reserveAmount[i].sub(amountWithdraw[msg.sender][i]);\r\n                selfBalance = selfBalance.sub(temp.mul(1e18).div(10**decimal));\r\n                totalBurnt =totalBurnt.add(amountBurnt[msg.sender][i]);\r\n                amountWithdraw[msg.sender][i] = 0;\r\n                amountBurnt[msg.sender][i]=0;\r\n                tokens[i].safeTransfer(msg.sender,  temp);\r\n                emit userRecieved(msg.sender,temp);\r\n            }\r\n        }\r\n        updateLockedRPT(msg.sender,totalBurnt);\r\n        reserveRecipients[msg.sender] = false;\r\n    }\r\n\r\n\r\n    // this function deposits without minting RPT.\r\n    //Used to deposit Yield\r\n    function depositYield(uint256 amount,uint _index) external{\r\n        uint decimal;\r\n        decimal=tokens[_index].decimals();\r\n        selfBalance=selfBalance.add(amount.mul(1e18).div(10**decimal));\r\n        liquidityProvidersAPY=liquidityProvidersAPY.add(amount.mul(1e18).div(10**decimal));\r\n        tokens[_index].safeTransferFrom(msg.sender,address(this),amount);\r\n        emit yieldAdded(amount);\r\n    }\r\n\r\n\r\n    /* CORE FUNCTIONS (called by owner only) */\r\n\r\n    //Transfer token to rStrategy by maintaining pool ratio.\r\n    function deposit() onlyWallet() external  {\r\n        uint256[3] memory amounts;\r\n        uint256 totalAmount;\r\n        uint256 decimal;\r\n        totalAmount=calculateTotalToken(false);\r\n        uint balanceAmount=totalAmount.mul(poolPart.div(3)).div(DENOMINATOR);\r\n        uint tokenBalance;\r\n        for(uint8 i=0;i<3;i++){\r\n            decimal=tokens[i].decimals();\r\n            amounts[i]=getBalances(i);\r\n            tokenBalance=balanceAmount.mul(10**decimal).div(10**18);\r\n            if(amounts[i]>tokenBalance){\r\n                amounts[i]=amounts[i].sub(tokenBalance);\r\n                tokens[i].safeTransfer(address(strategy),amounts[i]);\r\n            }\r\n            else{\r\n                amounts[i]=0;\r\n            }\r\n        }\r\n        if(checkValidArray(amounts)){\r\n            _deposit(amounts);\r\n        }\r\n    }\r\n    \r\n\r\n    //Withdraw from Yield genaration pool.\r\n    function withdraw() onlyWallet() external  {\r\n        require(checkValidArray(totalWithdraw), \"queue empty\");\r\n        _withdraw(totalWithdraw);\r\n        updateWithdrawQueue();\r\n    }\r\n\r\n   //Withdraw total liquidity from yield generation pool\r\n    function withdrawAll() external onlyWallet() {\r\n        uint[3] memory amounts;\r\n        amounts=strategy.withdrawAll();\r\n        uint decimal;\r\n        selfBalance=0;\r\n        for(uint8 i=0;i<3;i++){\r\n            decimal=tokens[i].decimals();\r\n            selfBalance=selfBalance.add((tokens[i].balanceOf(address(this))).mul(1e18).div(10**decimal));\r\n        }\r\n        YieldPoolBalance=0;\r\n        updateWithdrawQueue();\r\n    }\r\n\r\n\r\n    //function for rebalancing royale pool(ratio)      \r\n    function rebalance() onlyWallet() external {\r\n        uint256 currentAmount;\r\n        uint256[3] memory amountToWithdraw;\r\n        uint256[3] memory amountToDeposit;\r\n        uint totalAmount;\r\n        uint256 decimal;\r\n        totalAmount=calculateTotalToken(false);\r\n        uint balanceAmount=totalAmount.mul(poolPart.div(3)).div(DENOMINATOR);\r\n        uint tokenBalance;\r\n        for(uint8 i=0;i<3;i++) {\r\n           currentAmount=getBalances(i);\r\n           decimal=tokens[i].decimals();\r\n           tokenBalance=balanceAmount.mul(10**decimal).div(10**18);\r\n           if(tokenBalance > currentAmount) {\r\n              amountToWithdraw[i] = tokenBalance.sub(currentAmount);\r\n           }\r\n           else if(tokenBalance < currentAmount) {\r\n               amountToDeposit[i] = currentAmount.sub(tokenBalance);\r\n               tokens[i].safeTransfer(address(strategy), amountToDeposit[i]);\r\n               \r\n           }\r\n           else {\r\n               amountToWithdraw[i] = 0;\r\n               amountToDeposit[i] = 0;\r\n           }\r\n        }\r\n        if(checkValidArray(amountToDeposit)){\r\n             _deposit(amountToDeposit);\r\n             \r\n        }\r\n        if(checkValidArray(amountToWithdraw)) {\r\n            _withdraw(amountToWithdraw);\r\n            \r\n        }\r\n\r\n    }\r\n    \r\n    //For withdrawing loan from the royale Pool\r\n    function withdrawLoan(uint[3] memory amounts,address _recipient)external onlyWallet(){\r\n        require(checkValidArray(amounts),\"amount can not zero\");\r\n        uint decimal;\r\n        uint total;\r\n        for(uint i=0;i<3;i++){\r\n           decimal=tokens[i].decimals();\r\n           total=total.add(amounts[i].mul(1e18).div(10**decimal));\r\n        }\r\n        require(loanGiven.add(total)<=(calculateTotalToken(true).mul(loanPart).div(DENOMINATOR)),\"Exceed limit\");\r\n        require(total<calculateTotalToken(false),\"Not enough balance\");\r\n        _withdraw(amounts);\r\n        loanGiven =loanGiven.add(total);\r\n        selfBalance=selfBalance.sub(total);\r\n        for(uint8 i=0; i<3; i++) {\r\n            if(amounts[i] > 0) {\r\n                tokens[i].safeTransfer(_recipient, amounts[i]);\r\n            }\r\n        }\r\n        \r\n    }\r\n    \r\n   // For repaying the loan to the royale Pool.\r\n    function repayLoan(uint[3] memory amounts)external {\r\n        require(checkValidArray(amounts),\"amount can't be zero\");\r\n        uint decimal;\r\n        for(uint8 i=0; i<3; i++) {\r\n            if(amounts[i] > 0) {\r\n                decimal=tokens[i].decimals();\r\n                loanGiven =loanGiven.sub(amounts[i].mul(1e18).div(10**decimal));\r\n                selfBalance=selfBalance.add(amounts[i].mul(1e18).div(10**decimal));\r\n                tokens[i].safeTransferFrom(msg.sender,address(this),amounts[i]);\r\n            }\r\n        }\r\n    }\r\n    \r\n\r\n    //for changing pool ratio\r\n    function changePoolPart(uint128 _newPoolPart) external onlyWallet()  {\r\n        poolPart = _newPoolPart;\r\n        \r\n    }\r\n\r\n   //For changing yield Strategy\r\n    function changeStrategy(address _strategy) onlyWallet() external  {\r\n        for(uint8 i=0;i<3;i++){\r\n            require(YieldPoolBalance==0, \"Call withdrawAll function first\");\r\n        } \r\n        strategy=rStrategy(_strategy);\r\n        \r\n    }\r\n\r\n    function setLockPeriod(uint256 lockperiod) onlyWallet() external  {\r\n        lock_period = lockperiod;\r\n        \r\n    }\r\n\r\n     // for changing withdrawal fees  \r\n    function setWithdrawFees(uint128 _fees) onlyWallet() external {\r\n        fees = _fees;\r\n\r\n    }\r\n    \r\n    function changeLoanPart(uint256 _value)onlyWallet() external{\r\n        loanPart=_value;\r\n    }\r\n\r\n   /* function transferAllFunds(address _address)external onlyWallet(){\r\n        selfBalance=0;\r\n        for(uint8 i=0;i<3;i++){\r\n            tokens[i].safeTransfer(_address,tokens[i].balanceOf(address(this)));\r\n        }\r\n    } */  \r\n    \r\n    function getBalances(uint _index) public view returns(uint256) {\r\n        return (tokens[_index].balanceOf(address(this)).sub(reserveAmount[_index]));\r\n    }\r\n}",
  "sourcePath": "C:/Users/vishn/OneDrive/Desktop/RoyaleProject/RoyaleFinance/royale-contracts/contracts/Pool/RoyaleLP.sol",
  "compiler": {
    "name": "solc",
    "version": "0.6.12+commit.27d51765.Emscripten.clang"
  },
  "schemaVersion": "3.3.2",
  "updatedAt": "2021-03-23T09:40:23.944Z",
  "devdoc": {
    "kind": "dev",
    "methods": {},
    "version": 1
  },
  "userdoc": {
    "kind": "user",
    "methods": {},
    "version": 1
  }
}