{
  "contractName": "RoyaInterest",
  "abi": [
    {
      "inputs": [
        {
          "internalType": "address",
          "name": "_royatoken",
          "type": "address"
        }
      ],
      "stateMutability": "nonpayable",
      "type": "constructor"
    },
    {
      "inputs": [],
      "name": "divisionCount",
      "outputs": [
        {
          "internalType": "uint256",
          "name": "",
          "type": "uint256"
        }
      ],
      "stateMutability": "view",
      "type": "function"
    },
    {
      "inputs": [
        {
          "internalType": "uint256",
          "name": "",
          "type": "uint256"
        }
      ],
      "name": "interestDivision",
      "outputs": [
        {
          "internalType": "string",
          "name": "contractName",
          "type": "string"
        },
        {
          "internalType": "address",
          "name": "contractAddress",
          "type": "address"
        },
        {
          "internalType": "uint256",
          "name": "interestPercentage",
          "type": "uint256"
        }
      ],
      "stateMutability": "view",
      "type": "function"
    },
    {
      "inputs": [],
      "name": "ownerAddress",
      "outputs": [
        {
          "internalType": "address",
          "name": "",
          "type": "address"
        }
      ],
      "stateMutability": "view",
      "type": "function"
    },
    {
      "inputs": [],
      "name": "tokenAddress",
      "outputs": [
        {
          "internalType": "contract Token",
          "name": "",
          "type": "address"
        }
      ],
      "stateMutability": "view",
      "type": "function"
    },
    {
      "inputs": [
        {
          "internalType": "string",
          "name": "_name",
          "type": "string"
        },
        {
          "internalType": "address",
          "name": "_contractAddress",
          "type": "address"
        },
        {
          "internalType": "uint256",
          "name": "_interestPercentage",
          "type": "uint256"
        }
      ],
      "name": "addDivision",
      "outputs": [],
      "stateMutability": "payable",
      "type": "function"
    },
    {
      "inputs": [
        {
          "internalType": "uint256",
          "name": "_divisionID",
          "type": "uint256"
        }
      ],
      "name": "removeDivision",
      "outputs": [],
      "stateMutability": "payable",
      "type": "function"
    },
    {
      "inputs": [
        {
          "internalType": "uint256",
          "name": "_divisionID",
          "type": "uint256"
        },
        {
          "components": [
            {
              "internalType": "string",
              "name": "contractName",
              "type": "string"
            },
            {
              "internalType": "address",
              "name": "contractAddress",
              "type": "address"
            },
            {
              "internalType": "uint256",
              "name": "interestPercentage",
              "type": "uint256"
            }
          ],
          "internalType": "struct RoyaInterest.divisionDetails",
          "name": "_newProperty",
          "type": "tuple"
        }
      ],
      "name": "changeDivisionProperty",
      "outputs": [],
      "stateMutability": "payable",
      "type": "function"
    },
    {
      "inputs": [
        {
          "internalType": "uint256",
          "name": "_amount",
          "type": "uint256"
        }
      ],
      "name": "depositInterest",
      "outputs": [
        {
          "internalType": "bool",
          "name": "",
          "type": "bool"
        }
      ],
      "stateMutability": "payable",
      "type": "function"
    },
    {
      "inputs": [
        {
          "internalType": "address",
          "name": "_address",
          "type": "address"
        }
      ],
      "name": "depositedInterestOf",
      "outputs": [
        {
          "internalType": "uint256[]",
          "name": "",
          "type": "uint256[]"
        }
      ],
      "stateMutability": "view",
      "type": "function"
    }
  ],
  "bytecode": "0x608060405260006001553480156200001657600080fd5b50604051620016253803806200162583398181016040528101906200003c9190620000dc565b80600360006101000a81548173ffffffffffffffffffffffffffffffffffffffff021916908373ffffffffffffffffffffffffffffffffffffffff16021790555033600460006101000a81548173ffffffffffffffffffffffffffffffffffffffff021916908373ffffffffffffffffffffffffffffffffffffffff1602179055505062000156565b600081519050620000d6816200013c565b92915050565b600060208284031215620000ef57600080fd5b6000620000ff84828501620000c5565b91505092915050565b600062000115826200011c565b9050919050565b600073ffffffffffffffffffffffffffffffffffffffff82169050919050565b620001478162000108565b81146200015357600080fd5b50565b6114bf80620001666000396000f3fe6080604052600436106100865760003560e01c80637f538666116100595780637f538666146101305780638e8360771461015b5780638f84aa09146101775780639d76ea58146101a2578063f8d9618f146101cd57610086565b8063220c5bbb1461008b578063315e5e98146100bb5780633b346ae8146100f8578063745a6c7e14610114575b600080fd5b6100a560048036038101906100a09190610eb4565b61020c565b6040516100b291906111b2565b60405180910390f35b3480156100c757600080fd5b506100e260048036038101906100dd9190610dfb565b6104d0565b6040516100ef9190611190565b60405180910390f35b610112600480360381019061010d9190610f06565b610567565b005b61012e60048036038101906101299190610e4d565b6106bd565b005b34801561013c57600080fd5b5061014561084c565b6040516101529190611286565b60405180910390f35b61017560048036038101906101709190610eb4565b610852565b005b34801561018357600080fd5b5061018c610a41565b6040516101999190611123565b60405180910390f35b3480156101ae57600080fd5b506101b7610a67565b6040516101c491906111cd565b60405180910390f35b3480156101d957600080fd5b506101f460048036038101906101ef9190610eb4565b610a8d565b604051610203939291906111e8565b60405180910390f35b6000808211610250576040517f08c379a000000000000000000000000000000000000000000000000000000000815260040161024790611246565b60405180910390fd5b81600360009054906101000a900473ffffffffffffffffffffffffffffffffffffffff1673ffffffffffffffffffffffffffffffffffffffff166370a08231336040518263ffffffff1660e01b81526004016102ac919061113e565b602060405180830381600087803b1580156102c657600080fd5b505af11580156102da573d6000803e3d6000fd5b505050506040513d601f19601f820116820180604052508101906102fe9190610edd565b101561033f576040517f08c379a000000000000000000000000000000000000000000000000000000000815260040161033690611226565b60405180910390fd5b600260003373ffffffffffffffffffffffffffffffffffffffff1673ffffffffffffffffffffffffffffffffffffffff1681526020019081526020016000208290806001815401808255809150506001900390600052602060002001600090919091909150556000600190505b60015481116104ca57600360009054906101000a900473ffffffffffffffffffffffffffffffffffffffff1673ffffffffffffffffffffffffffffffffffffffff166323b872dd3360008085815260200190815260200160002060010160009054906101000a900473ffffffffffffffffffffffffffffffffffffffff1660646000808781526020019081526020016000206002015488028161044b57fe5b046040518463ffffffff1660e01b815260040161046a93929190611159565b602060405180830381600087803b15801561048457600080fd5b505af1158015610498573d6000803e3d6000fd5b505050506040513d601f19601f820116820180604052508101906104bc9190610e24565b5080806001019150506103ac565b50919050565b6060600260008373ffffffffffffffffffffffffffffffffffffffff1673ffffffffffffffffffffffffffffffffffffffff16815260200190815260200160002080548060200260200160405190810160405280929190818152602001828054801561055b57602002820191906000526020600020905b815481526020019060010190808311610547575b50505050509050919050565b600460009054906101000a900473ffffffffffffffffffffffffffffffffffffffff1673ffffffffffffffffffffffffffffffffffffffff163373ffffffffffffffffffffffffffffffffffffffff16146105c157600080fd5b6000816000015151146105fd57806000015160008084815260200190815260200160002060000190805190602001906105fb929190610b6f565b505b600073ffffffffffffffffffffffffffffffffffffffff16816020015173ffffffffffffffffffffffffffffffffffffffff161461068e57806020015160008084815260200190815260200160002060010160006101000a81548173ffffffffffffffffffffffffffffffffffffffff021916908373ffffffffffffffffffffffffffffffffffffffff1602179055505b60008160400151146106b9578060400151600080848152602001908152602001600020600201819055505b5050565b600460009054906101000a900473ffffffffffffffffffffffffffffffffffffffff1673ffffffffffffffffffffffffffffffffffffffff163373ffffffffffffffffffffffffffffffffffffffff161461071757600080fd5b600080600190505b600154811161074f576000808281526020019081526020016000206002015482019150808060010191505061071f565b5060648282011115610796576040517f08c379a000000000000000000000000000000000000000000000000000000000815260040161078d90611266565b60405180910390fd5b60016000815480929190600101919050555083600080600154815260200190815260200160002060000190805190602001906107d3929190610b6f565b5082600080600154815260200190815260200160002060010160006101000a81548173ffffffffffffffffffffffffffffffffffffffff021916908373ffffffffffffffffffffffffffffffffffffffff1602179055508160008060015481526020019081526020016000206002018190555050505050565b60015481565b600460009054906101000a900473ffffffffffffffffffffffffffffffffffffffff1673ffffffffffffffffffffffffffffffffffffffff163373ffffffffffffffffffffffffffffffffffffffff16146108ac57600080fd5b60008190505b6001548110156109d4576000806001830181526020019081526020016000206000016000808381526020019081526020016000206000019080546001816001161561010002031660029004610908929190610bef565b5060008060018301815260200190815260200160002060010160009054906101000a900473ffffffffffffffffffffffffffffffffffffffff1660008083815260200190815260200160002060010160006101000a81548173ffffffffffffffffffffffffffffffffffffffff021916908373ffffffffffffffffffffffffffffffffffffffff160217905550600080600183018152602001908152602001600020600201546000808381526020019081526020016000206002018190555080806001019150506108b2565b506000806001548152602001908152602001600020600080820160006109fa9190610c76565b6001820160006101000a81549073ffffffffffffffffffffffffffffffffffffffff0219169055600282016000905550506001600081548092919060019003919050555050565b600460009054906101000a900473ffffffffffffffffffffffffffffffffffffffff1681565b600360009054906101000a900473ffffffffffffffffffffffffffffffffffffffff1681565b6000602052806000526040600020600091509050806000018054600181600116156101000203166002900480601f016020809104026020016040519081016040528092919081815260200182805460018160011615610100020316600290048015610b395780601f10610b0e57610100808354040283529160200191610b39565b820191906000526020600020905b815481529060010190602001808311610b1c57829003601f168201915b5050505050908060010160009054906101000a900473ffffffffffffffffffffffffffffffffffffffff16908060020154905083565b828054600181600116156101000203166002900490600052602060002090601f016020900481019282601f10610bb057805160ff1916838001178555610bde565b82800160010185558215610bde579182015b82811115610bdd578251825591602001919060010190610bc2565b5b509050610beb9190610cbe565b5090565b828054600181600116156101000203166002900490600052602060002090601f016020900481019282601f10610c285780548555610c65565b82800160010185558215610c6557600052602060002091601f016020900482015b82811115610c64578254825591600101919060010190610c49565b5b509050610c729190610cbe565b5090565b50805460018160011615610100020316600290046000825580601f10610c9c5750610cbb565b601f016020900490600052602060002090810190610cba9190610cbe565b5b50565b5b80821115610cd7576000816000905550600101610cbf565b5090565b600081359050610cea81611444565b92915050565b600081519050610cff8161145b565b92915050565b600082601f830112610d1657600080fd5b8135610d29610d24826112ce565b6112a1565b91508082526020830160208301858383011115610d4557600080fd5b610d508382846113f1565b50505092915050565b600060608284031215610d6b57600080fd5b610d7560606112a1565b9050600082013567ffffffffffffffff811115610d9157600080fd5b610d9d84828501610d05565b6000830152506020610db184828501610cdb565b6020830152506040610dc584828501610dd1565b60408301525092915050565b600081359050610de081611472565b92915050565b600081519050610df581611472565b92915050565b600060208284031215610e0d57600080fd5b6000610e1b84828501610cdb565b91505092915050565b600060208284031215610e3657600080fd5b6000610e4484828501610cf0565b91505092915050565b600080600060608486031215610e6257600080fd5b600084013567ffffffffffffffff811115610e7c57600080fd5b610e8886828701610d05565b9350506020610e9986828701610cdb565b9250506040610eaa86828701610dd1565b9150509250925092565b600060208284031215610ec657600080fd5b6000610ed484828501610dd1565b91505092915050565b600060208284031215610eef57600080fd5b6000610efd84828501610de6565b91505092915050565b60008060408385031215610f1957600080fd5b6000610f2785828601610dd1565b925050602083013567ffffffffffffffff811115610f4457600080fd5b610f5085828601610d59565b9150509250929050565b6000610f668383611105565b60208301905092915050565b610f7b81611397565b82525050565b610f8a8161134f565b82525050565b6000610f9b8261130a565b610fa5818561132d565b9350610fb0836112fa565b8060005b83811015610fe1578151610fc88882610f5a565b9750610fd383611320565b925050600181019050610fb4565b5085935050505092915050565b610ff781611361565b82525050565b611006816113a9565b82525050565b600061101782611315565b611021818561133e565b9350611031818560208601611400565b61103a81611433565b840191505092915050565b600061105260148361133e565b91507f496e73756666696369656e742062616c616e63650000000000000000000000006000830152602082019050919050565b600061109260188361133e565b91507f496e7465726573742063616e206e6f74206265207a65726f00000000000000006000830152602082019050919050565b60006110d260128361133e565b91507f4d6f7265207468616e20696e74657265737400000000000000000000000000006000830152602082019050919050565b61110e8161138d565b82525050565b61111d8161138d565b82525050565b60006020820190506111386000830184610f81565b92915050565b60006020820190506111536000830184610f72565b92915050565b600060608201905061116e6000830186610f72565b61117b6020830185610f81565b6111886040830184611114565b949350505050565b600060208201905081810360008301526111aa8184610f90565b905092915050565b60006020820190506111c76000830184610fee565b92915050565b60006020820190506111e26000830184610ffd565b92915050565b60006060820190508181036000830152611202818661100c565b90506112116020830185610f81565b61121e6040830184611114565b949350505050565b6000602082019050818103600083015261123f81611045565b9050919050565b6000602082019050818103600083015261125f81611085565b9050919050565b6000602082019050818103600083015261127f816110c5565b9050919050565b600060208201905061129b6000830184611114565b92915050565b6000604051905081810181811067ffffffffffffffff821117156112c457600080fd5b8060405250919050565b600067ffffffffffffffff8211156112e557600080fd5b601f19601f8301169050602081019050919050565b6000819050602082019050919050565b600081519050919050565b600081519050919050565b6000602082019050919050565b600082825260208201905092915050565b600082825260208201905092915050565b600061135a8261136d565b9050919050565b60008115159050919050565b600073ffffffffffffffffffffffffffffffffffffffff82169050919050565b6000819050919050565b60006113a2826113cd565b9050919050565b60006113b4826113bb565b9050919050565b60006113c68261136d565b9050919050565b60006113d8826113df565b9050919050565b60006113ea8261136d565b9050919050565b82818337600083830152505050565b60005b8381101561141e578082015181840152602081019050611403565b8381111561142d576000848401525b50505050565b6000601f19601f8301169050919050565b61144d8161134f565b811461145857600080fd5b50565b61146481611361565b811461146f57600080fd5b50565b61147b8161138d565b811461148657600080fd5b5056fea2646970667358221220b0ea4de908f6bf00052ffe717f2fd7f57b839ca8cb6d1840a48ebeacc950ce1964736f6c634300060c0033",
  "immutableReferences": {},
  "source": "// SPDX-License-Identifier: MIT\r\npragma solidity >=0.4.22 <0.8.0;\r\npragma experimental ABIEncoderV2;\r\n\r\n\r\n\r\ninterface Token{\r\n    \r\n     function balanceOf(address _address) external  returns (uint256);\r\n     function transfer(address _to, uint256 _amount) external returns (bool success) ;\r\n     function transferFrom(address _from, address _to, uint256 _amount) external returns (bool success);\r\n}\r\n\r\n\r\ncontract RoyaInterest{\r\n    \r\n    struct divisionDetails{\r\n         string contractName;\r\n         address contractAddress;\r\n         uint256 interestPercentage;\r\n        \r\n    }\r\n     \r\n     \r\n    mapping(uint256 => divisionDetails)  public interestDivision;\r\n     \r\n    uint256 public divisionCount=0;\r\n     \r\n    mapping(address =>uint256[]) depositedInterest;\r\n     \r\n    Token public tokenAddress; \r\n     \r\n    address public ownerAddress;\r\n    \r\n   \r\n     \r\n     modifier onlyOwner {\r\n      require(msg.sender == ownerAddress);\r\n      _;\r\n    }\r\n    \r\n   \r\n    \r\n     \r\n    constructor(address _royatoken) public{\r\n          tokenAddress = Token(_royatoken);\r\n          ownerAddress=msg.sender;\r\n     }\r\n     \r\n     function addDivision(string memory _name,address _contractAddress,uint256 _interestPercentage)public payable onlyOwner{\r\n        uint256 totalPercentage;\r\n         for(uint256 i=1;i<=divisionCount;i++){\r\n            totalPercentage +=interestDivision[i].interestPercentage; \r\n         }\r\n         require(totalPercentage+_interestPercentage<=100,\"More than interest\");\r\n         divisionCount++;\r\n         interestDivision[divisionCount].contractName= _name;\r\n         interestDivision[divisionCount].contractAddress=_contractAddress;\r\n         interestDivision[divisionCount].interestPercentage=_interestPercentage;\r\n         \r\n     }\r\n     \r\n     function removeDivision(uint256 _divisionID) public onlyOwner payable{\r\n         for(uint256 i=_divisionID;i<divisionCount;i++){\r\n             interestDivision[i].contractName=interestDivision[i+1].contractName;\r\n             interestDivision[i].contractAddress=interestDivision[i+1].contractAddress;\r\n             interestDivision[i].interestPercentage=interestDivision[i+1].interestPercentage;\r\n             \r\n        }\r\n         delete interestDivision[divisionCount];\r\n         divisionCount--;\r\n     }\r\n     \r\n     function changeDivisionProperty(uint256 _divisionID,divisionDetails memory _newProperty)public payable onlyOwner{\r\n         if(bytes(_newProperty.contractName).length!=0){\r\n             interestDivision[_divisionID].contractName=_newProperty.contractName;\r\n         }\r\n         if(_newProperty.contractAddress!=address(0)){\r\n             interestDivision[_divisionID].contractAddress=_newProperty.contractAddress;\r\n         }\r\n         if(_newProperty.interestPercentage!=0){\r\n             interestDivision[_divisionID].interestPercentage=_newProperty.interestPercentage;\r\n         }\r\n         \r\n     }\r\n    \r\n    function depositInterest(uint256 _amount)public payable returns(bool){\r\n         require(_amount>0,\"Interest can not be zero\");\r\n         require(tokenAddress.balanceOf(msg.sender)>=_amount,\"Insufficient balance\");\r\n         depositedInterest[msg.sender].push(_amount);\r\n         for(uint256 i=1;i<=divisionCount;i++){\r\n           tokenAddress.transferFrom(msg.sender,interestDivision[i].contractAddress,(_amount*(interestDivision[i].interestPercentage)/100));\r\n         }\r\n     }\r\n     \r\n     function depositedInterestOf(address _address)public view returns(uint256[] memory){\r\n         return depositedInterest[_address];\r\n     }\r\n    \r\n    \r\n}",
  "sourcePath": "C:/Users/vishn/OneDrive/Desktop/RoyaleProject/RoyaleFinance/royale-contracts/contracts/RoyaleUtility/RoyaleInterest.sol",
  "compiler": {
    "name": "solc",
    "version": "0.6.12+commit.27d51765.Emscripten.clang"
  },
  "schemaVersion": "3.3.2",
  "updatedAt": "2021-02-12T05:36:03.528Z",
  "devdoc": {
    "kind": "dev",
    "methods": {},
    "version": 1
  },
  "userdoc": {
    "kind": "user",
    "methods": {},
    "version": 1
  }
}