{
  "contractName": "RoyaleLP",
  "abi": [
    {
      "inputs": [
        {
          "internalType": "address[3]",
          "name": "_tokens",
          "type": "address[3]"
        },
        {
          "internalType": "address",
          "name": "_rpToken",
          "type": "address"
        },
        {
          "internalType": "address",
          "name": "_wallet",
          "type": "address"
        }
      ],
      "stateMutability": "nonpayable",
      "type": "constructor"
    },
    {
      "anonymous": false,
      "inputs": [
        {
          "indexed": false,
          "internalType": "address",
          "name": "user",
          "type": "address"
        },
        {
          "indexed": false,
          "internalType": "uint256",
          "name": "amount",
          "type": "uint256"
        }
      ],
      "name": "userAddedToQ",
      "type": "event"
    },
    {
      "anonymous": false,
      "inputs": [
        {
          "indexed": false,
          "internalType": "address",
          "name": "user",
          "type": "address"
        },
        {
          "indexed": false,
          "internalType": "uint256",
          "name": "amount",
          "type": "uint256"
        }
      ],
      "name": "userRecieved",
      "type": "event"
    },
    {
      "anonymous": false,
      "inputs": [
        {
          "indexed": false,
          "internalType": "address",
          "name": "user",
          "type": "address"
        },
        {
          "indexed": false,
          "internalType": "uint256",
          "name": "amount",
          "type": "uint256"
        }
      ],
      "name": "userSupplied",
      "type": "event"
    },
    {
      "inputs": [],
      "name": "DENOMINATOR",
      "outputs": [
        {
          "internalType": "uint256",
          "name": "",
          "type": "uint256"
        }
      ],
      "stateMutability": "view",
      "type": "function"
    },
    {
      "inputs": [
        {
          "internalType": "uint256",
          "name": "",
          "type": "uint256"
        }
      ],
      "name": "YieldPoolBalance",
      "outputs": [
        {
          "internalType": "uint256",
          "name": "",
          "type": "uint256"
        }
      ],
      "stateMutability": "view",
      "type": "function"
    },
    {
      "inputs": [
        {
          "internalType": "address",
          "name": "",
          "type": "address"
        },
        {
          "internalType": "uint256",
          "name": "",
          "type": "uint256"
        }
      ],
      "name": "amountBurnt",
      "outputs": [
        {
          "internalType": "uint256",
          "name": "",
          "type": "uint256"
        }
      ],
      "stateMutability": "view",
      "type": "function"
    },
    {
      "inputs": [
        {
          "internalType": "address",
          "name": "",
          "type": "address"
        },
        {
          "internalType": "uint256",
          "name": "",
          "type": "uint256"
        }
      ],
      "name": "amountSupplied",
      "outputs": [
        {
          "internalType": "uint256",
          "name": "amount",
          "type": "uint256"
        },
        {
          "internalType": "uint256",
          "name": "index",
          "type": "uint256"
        }
      ],
      "stateMutability": "view",
      "type": "function"
    },
    {
      "inputs": [
        {
          "internalType": "address",
          "name": "",
          "type": "address"
        },
        {
          "internalType": "uint256",
          "name": "",
          "type": "uint256"
        }
      ],
      "name": "amountWithdraw",
      "outputs": [
        {
          "internalType": "uint256",
          "name": "",
          "type": "uint256"
        }
      ],
      "stateMutability": "view",
      "type": "function"
    },
    {
      "inputs": [],
      "name": "fees",
      "outputs": [
        {
          "internalType": "uint128",
          "name": "",
          "type": "uint128"
        }
      ],
      "stateMutability": "view",
      "type": "function"
    },
    {
      "inputs": [
        {
          "internalType": "address",
          "name": "",
          "type": "address"
        }
      ],
      "name": "isInQ",
      "outputs": [
        {
          "internalType": "bool",
          "name": "",
          "type": "bool"
        }
      ],
      "stateMutability": "view",
      "type": "function"
    },
    {
      "inputs": [],
      "name": "loanContract",
      "outputs": [
        {
          "internalType": "address",
          "name": "",
          "type": "address"
        }
      ],
      "stateMutability": "view",
      "type": "function"
    },
    {
      "inputs": [
        {
          "internalType": "uint256",
          "name": "",
          "type": "uint256"
        }
      ],
      "name": "loanGiven",
      "outputs": [
        {
          "internalType": "uint256",
          "name": "",
          "type": "uint256"
        }
      ],
      "stateMutability": "view",
      "type": "function"
    },
    {
      "inputs": [],
      "name": "lock_period",
      "outputs": [
        {
          "internalType": "uint256",
          "name": "",
          "type": "uint256"
        }
      ],
      "stateMutability": "view",
      "type": "function"
    },
    {
      "inputs": [
        {
          "internalType": "address",
          "name": "",
          "type": "address"
        },
        {
          "internalType": "uint256",
          "name": "",
          "type": "uint256"
        },
        {
          "internalType": "uint256",
          "name": "",
          "type": "uint256"
        }
      ],
      "name": "lockedRPT",
      "outputs": [
        {
          "internalType": "uint256",
          "name": "time",
          "type": "uint256"
        },
        {
          "internalType": "uint256",
          "name": "remAmt",
          "type": "uint256"
        }
      ],
      "stateMutability": "view",
      "type": "function"
    },
    {
      "inputs": [],
      "name": "poolPart",
      "outputs": [
        {
          "internalType": "uint256",
          "name": "",
          "type": "uint256"
        }
      ],
      "stateMutability": "view",
      "type": "function"
    },
    {
      "inputs": [
        {
          "internalType": "uint256",
          "name": "",
          "type": "uint256"
        }
      ],
      "name": "selfBalance",
      "outputs": [
        {
          "internalType": "uint256",
          "name": "",
          "type": "uint256"
        }
      ],
      "stateMutability": "view",
      "type": "function"
    },
    {
      "inputs": [],
      "name": "thresholdTokenAmount",
      "outputs": [
        {
          "internalType": "uint256",
          "name": "",
          "type": "uint256"
        }
      ],
      "stateMutability": "view",
      "type": "function"
    },
    {
      "inputs": [
        {
          "internalType": "uint256",
          "name": "",
          "type": "uint256"
        }
      ],
      "name": "totalWithdraw",
      "outputs": [
        {
          "internalType": "uint256",
          "name": "",
          "type": "uint256"
        }
      ],
      "stateMutability": "view",
      "type": "function"
    },
    {
      "inputs": [],
      "name": "wallet",
      "outputs": [
        {
          "internalType": "address",
          "name": "",
          "type": "address"
        }
      ],
      "stateMutability": "view",
      "type": "function"
    },
    {
      "inputs": [
        {
          "internalType": "address",
          "name": "_wallet",
          "type": "address"
        }
      ],
      "name": "transferOwnership",
      "outputs": [],
      "stateMutability": "nonpayable",
      "type": "function"
    },
    {
      "inputs": [
        {
          "internalType": "uint256",
          "name": "amount",
          "type": "uint256"
        },
        {
          "internalType": "uint256",
          "name": "_index",
          "type": "uint256"
        }
      ],
      "name": "calcRptAmount",
      "outputs": [
        {
          "internalType": "uint256",
          "name": "",
          "type": "uint256"
        }
      ],
      "stateMutability": "view",
      "type": "function"
    },
    {
      "inputs": [
        {
          "internalType": "address",
          "name": "addr",
          "type": "address"
        },
        {
          "internalType": "uint256",
          "name": "coin",
          "type": "uint256"
        },
        {
          "internalType": "bool",
          "name": "_time",
          "type": "bool"
        }
      ],
      "name": "availableLiquidity",
      "outputs": [
        {
          "internalType": "uint256",
          "name": "token",
          "type": "uint256"
        },
        {
          "internalType": "uint256",
          "name": "RPT",
          "type": "uint256"
        }
      ],
      "stateMutability": "view",
      "type": "function"
    },
    {
      "inputs": [
        {
          "internalType": "uint256",
          "name": "amount",
          "type": "uint256"
        },
        {
          "internalType": "uint256",
          "name": "_index",
          "type": "uint256"
        }
      ],
      "name": "supply",
      "outputs": [],
      "stateMutability": "nonpayable",
      "type": "function"
    },
    {
      "inputs": [
        {
          "internalType": "uint256",
          "name": "amount",
          "type": "uint256"
        },
        {
          "internalType": "uint256",
          "name": "_index",
          "type": "uint256"
        }
      ],
      "name": "requestWithdraw",
      "outputs": [],
      "stateMutability": "nonpayable",
      "type": "function"
    },
    {
      "inputs": [
        {
          "internalType": "uint256",
          "name": "amount",
          "type": "uint256"
        },
        {
          "internalType": "uint256",
          "name": "_index",
          "type": "uint256"
        }
      ],
      "name": "requestWithdrawWithRPT",
      "outputs": [],
      "stateMutability": "nonpayable",
      "type": "function"
    },
    {
      "inputs": [
        {
          "internalType": "uint256[3]",
          "name": "amounts",
          "type": "uint256[3]"
        },
        {
          "internalType": "address",
          "name": "_loanSeeker",
          "type": "address"
        }
      ],
      "name": "_loanWithdraw",
      "outputs": [
        {
          "internalType": "bool",
          "name": "",
          "type": "bool"
        }
      ],
      "stateMutability": "nonpayable",
      "type": "function"
    },
    {
      "inputs": [
        {
          "internalType": "uint256[3]",
          "name": "amounts",
          "type": "uint256[3]"
        },
        {
          "internalType": "address",
          "name": "_loanSeeker",
          "type": "address"
        }
      ],
      "name": "_loanRepayment",
      "outputs": [
        {
          "internalType": "bool",
          "name": "",
          "type": "bool"
        }
      ],
      "stateMutability": "nonpayable",
      "type": "function"
    },
    {
      "inputs": [
        {
          "internalType": "uint256[3]",
          "name": "amounts",
          "type": "uint256[3]"
        }
      ],
      "name": "depsoitInRoyale",
      "outputs": [],
      "stateMutability": "nonpayable",
      "type": "function"
    },
    {
      "inputs": [],
      "name": "deposit",
      "outputs": [],
      "stateMutability": "nonpayable",
      "type": "function"
    },
    {
      "inputs": [],
      "name": "withdraw",
      "outputs": [],
      "stateMutability": "nonpayable",
      "type": "function"
    },
    {
      "inputs": [],
      "name": "withdrawAll",
      "outputs": [],
      "stateMutability": "nonpayable",
      "type": "function"
    },
    {
      "inputs": [],
      "name": "rebalance",
      "outputs": [],
      "stateMutability": "nonpayable",
      "type": "function"
    },
    {
      "inputs": [
        {
          "internalType": "uint256",
          "name": "_index",
          "type": "uint256"
        }
      ],
      "name": "getBalances",
      "outputs": [
        {
          "internalType": "uint256",
          "name": "",
          "type": "uint256"
        }
      ],
      "stateMutability": "view",
      "type": "function"
    },
    {
      "inputs": [
        {
          "internalType": "address",
          "name": "_loanContract",
          "type": "address"
        }
      ],
      "name": "setLoanContract",
      "outputs": [],
      "stateMutability": "nonpayable",
      "type": "function"
    },
    {
      "inputs": [
        {
          "internalType": "uint128",
          "name": "_newPoolPart",
          "type": "uint128"
        }
      ],
      "name": "changePoolPart",
      "outputs": [],
      "stateMutability": "nonpayable",
      "type": "function"
    },
    {
      "inputs": [
        {
          "internalType": "uint256",
          "name": "_newThreshold",
          "type": "uint256"
        }
      ],
      "name": "setThresholdTokenAmount",
      "outputs": [],
      "stateMutability": "nonpayable",
      "type": "function"
    },
    {
      "inputs": [
        {
          "internalType": "address",
          "name": "_strategy",
          "type": "address"
        }
      ],
      "name": "changeCurveStrategy",
      "outputs": [],
      "stateMutability": "nonpayable",
      "type": "function"
    },
    {
      "inputs": [
        {
          "internalType": "uint256",
          "name": "lockperiod",
          "type": "uint256"
        }
      ],
      "name": "setLockPeriod",
      "outputs": [],
      "stateMutability": "nonpayable",
      "type": "function"
    },
    {
      "inputs": [
        {
          "internalType": "uint128",
          "name": "_fees",
          "type": "uint128"
        }
      ],
      "name": "setWithdrawFees",
      "outputs": [],
      "stateMutability": "nonpayable",
      "type": "function"
    },
    {
      "inputs": [
        {
          "internalType": "address",
          "name": "_address",
          "type": "address"
        }
      ],
      "name": "getAmountSuppliedLength",
      "outputs": [
        {
          "internalType": "uint256",
          "name": "",
          "type": "uint256"
        }
      ],
      "stateMutability": "view",
      "type": "function"
    },
    {
      "inputs": [
        {
          "internalType": "address",
          "name": "_address",
          "type": "address"
        },
        {
          "internalType": "uint256",
          "name": "_index",
          "type": "uint256"
        }
      ],
      "name": "getYourLiquidity",
      "outputs": [
        {
          "internalType": "uint256",
          "name": "",
          "type": "uint256"
        }
      ],
      "stateMutability": "view",
      "type": "function"
    }
  ],
  "bytecode": "0x60806040526001805560006002556019600460006101000a8154816fffffffffffffffffffffffffffffffff02191690836fffffffffffffffffffffffffffffffff1602179055506102ee6005556101f4601355603c6014553480156200006557600080fd5b50604051620061bc380380620061bc83398181016040528101906200008b9190620003b8565b6001602181905550600080600090505b60038160ff1610156200020957848160ff1660038110620000b857fe5b602002015160098260ff1660038110620000ce57fe5b0160006101000a81548173ffffffffffffffffffffffffffffffffffffffff021916908373ffffffffffffffffffffffffffffffffffffffff16021790555060098160ff16600381106200011e57fe5b0160009054906101000a900473ffffffffffffffffffffffffffffffffffffffff1673ffffffffffffffffffffffffffffffffffffffff1663313ce5676040518163ffffffff1660e01b815260040160206040518083038186803b1580156200018657600080fd5b505afa1580156200019b573d6000803e3d6000fd5b505050506040513d601f19601f82011682018060405250810190620001c191906200040e565b60ff169150620001e56103e883600a0a6200029660201b620034081790919060201c565b60068260ff1660038110620001f657fe5b018190555080806001019150506200009b565b5082600c60006101000a81548173ffffffffffffffffffffffffffffffffffffffff021916908373ffffffffffffffffffffffffffffffffffffffff16021790555081600f60006101000a81548173ffffffffffffffffffffffffffffffffffffffff021916908373ffffffffffffffffffffffffffffffffffffffff160217905550505050506200059b565b600080831415620002ab576000905062000306565b6000828402905082848281620002bd57fe5b041462000301576040517f08c379a0000000000000000000000000000000000000000000000000000000008152600401620002f890620004a2565b60405180910390fd5b809150505b92915050565b6000815190506200031d8162000567565b92915050565b600082601f8301126200033557600080fd5b60036200034c6200034682620004f2565b620004c4565b915081838560208402820111156200036357600080fd5b60005b838110156200039757816200037c88826200030c565b84526020840193506020830192505060018101905062000366565b5050505092915050565b600081519050620003b28162000581565b92915050565b600080600060a08486031215620003ce57600080fd5b6000620003de8682870162000323565b9350506060620003f1868287016200030c565b925050608062000404868287016200030c565b9150509250925092565b6000602082840312156200042157600080fd5b60006200043184828501620003a1565b91505092915050565b60006200044960218362000515565b91507f536166654d6174683a206d756c7469706c69636174696f6e206f766572666c6f60008301527f77000000000000000000000000000000000000000000000000000000000000006020830152604082019050919050565b60006020820190508181036000830152620004bd816200043a565b9050919050565b6000604051905081810181811067ffffffffffffffff82111715620004e857600080fd5b8060405250919050565b600067ffffffffffffffff8211156200050a57600080fd5b602082029050919050565b600082825260208201905092915050565b600062000533826200053a565b9050919050565b600073ffffffffffffffffffffffffffffffffffffffff82169050919050565b600060ff82169050919050565b620005728162000526565b81146200057e57600080fd5b50565b6200058c816200055a565b81146200059857600080fd5b50565b615c1180620005ab6000396000f3fe608060405234801561001057600080fd5b50600436106102325760003560e01c8063918f867411610130578063d0e30db0116100b8578063eacd7afc1161007c578063eacd7afc1461069d578063f2fde38b146106cd578063f83e9a20146106e9578063f967052c14610707578063fc6fd36a1461073757610232565b8063d0e30db0146105fa578063daecfa6c14610604578063db28bfd014610620578063de44983914610650578063e20cd4e31461068157610232565b8063b8b10680116100ff578063b8b106801461052f578063bf4b136b1461054b578063c23177b21461057b578063c6b93df7146105ac578063c89eb036146105dc57610232565b8063918f8674146104bb57806393f9c552146104d95780639af1d35a146104f5578063a70200bd1461051357610232565b80636a004091116101be5780637d7c2a1c116101825780637d7c2a1c146104295780638000128814610433578063853828b6146104635780638e9b03261461046d578063905f692e1461048b57610232565b80636a004091146103755780636a4e2092146103a55780636b9f1ef6146103c15780636d6ea257146103dd578063779972da1461040d57610232565b80633ccfd60b116102055780633ccfd60b146102bd578063490adbaf146102c7578063521eb273146102f75780635cd60cd114610315578063698504241461034557610232565b8063224a141814610237578063253f284b1461025357806331805a2b1461027157806331d38806146102a1575b600080fd5b610251600480360381019061024c9190614fd9565b610768565b005b61025b61091a565b6040516102689190615658565b60405180910390f35b61028b600480360381019061028691906150b9565b610940565b60405161029891906159a1565b60405180910390f35b6102bb60048036038101906102b69190614ed6565b610958565b005b6102c5610a2c565b005b6102e160048036038101906102dc91906150b9565b610b99565b6040516102ee91906159a1565b60405180910390f35b6102ff610c59565b60405161030c9190615658565b60405180910390f35b61032f600480360381019061032a9190614eff565b610c7f565b60405161033c91906159a1565b60405180910390f35b61035f600480360381019061035a91906150b9565b610ca4565b60405161036c91906159a1565b60405180910390f35b61038f600480360381019061038a9190614ed6565b610cbc565b60405161039c91906159a1565b60405180910390f35b6103bf60048036038101906103ba9190614ed6565b610d08565b005b6103db60048036038101906103d69190615090565b610e4d565b005b6103f760048036038101906103f291906150b9565b610f19565b60405161040491906159a1565b60405180910390f35b610427600480360381019061042291906150b9565b610f31565b005b610431610fcb565b005b61044d6004803603810190610448919061502b565b6113cd565b60405161045a9190615769565b60405180910390f35b61046b611611565b005b610475611894565b60405161048291906159a1565b60405180910390f35b6104a560048036038101906104a09190614ed6565b61189a565b6040516104b29190615769565b60405180910390f35b6104c36118ba565b6040516104d091906159a1565b60405180910390f35b6104f360048036038101906104ee919061510b565b6118c0565b005b6104fd611ddc565b60405161050a9190615986565b60405180910390f35b61052d60048036038101906105289190615090565b611dfe565b005b610549600480360381019061054491906150b9565b611eaa565b005b6105656004803603810190610560919061510b565b611f44565b60405161057291906159a1565b60405180910390f35b61059560048036038101906105909190614eff565b6121dc565b6040516105a39291906159bc565b60405180910390f35b6105c660048036038101906105c19190614eff565b61221a565b6040516105d391906159a1565b60405180910390f35b6105e461223f565b6040516105f191906159a1565b60405180910390f35b610602612245565b005b61061e6004803603810190610619919061510b565b61263f565b005b61063a600480360381019061063591906150b9565b612721565b60405161064791906159a1565b60405180910390f35b61066a60048036038101906106659190614f3b565b612739565b6040516106789291906159bc565b60405180910390f35b61069b6004803603810190610696919061510b565b612cb6565b005b6106b760048036038101906106b2919061502b565b612f12565b6040516106c49190615769565b60405180910390f35b6106e760048036038101906106e29190614ed6565b6132c7565b005b6106f161339b565b6040516106fe91906159a1565b60405180910390f35b610721600480360381019061071c9190614eff565b6133a1565b60405161072e91906159a1565b60405180910390f35b610751600480360381019061074c9190614f8a565b6133bd565b60405161075f9291906159bc565b60405180910390f35b600260215414156107ae576040517f08c379a00000000000000000000000000000000000000000000000000000000081526004016107a590615966565b60405180910390fd5b600260218190555060005b60038160ff16101561090e576000828260ff16600381106107d657fe5b6020020135146109015760098160ff16600381106107f057fe5b0160009054906101000a900473ffffffffffffffffffffffffffffffffffffffff1673ffffffffffffffffffffffffffffffffffffffff166323b872dd3330858560ff166003811061083e57fe5b60200201356040518463ffffffff1660e01b81526004016108619392919061568e565b602060405180830381600087803b15801561087b57600080fd5b505af115801561088f573d6000803e3d6000fd5b505050506040513d601f19601f820116820180604052508101906108b39190615067565b506108eb828260ff16600381106108c657fe5b602002013560068360ff16600381106108db57fe5b015461347890919063ffffffff16565b60068260ff16600381106108fb57fe5b01819055505b80806001019150506107b9565b50600160218190555050565b600d60009054906101000a900473ffffffffffffffffffffffffffffffffffffffff1681565b6010816003811061094d57fe5b016000915090505481565b3373ffffffffffffffffffffffffffffffffffffffff16600f60009054906101000a900473ffffffffffffffffffffffffffffffffffffffff1673ffffffffffffffffffffffffffffffffffffffff16146109e8576040517f08c379a00000000000000000000000000000000000000000000000000000000081526004016109df906157e6565b60405180910390fd5b80600d60006101000a81548173ffffffffffffffffffffffffffffffffffffffff021916908373ffffffffffffffffffffffffffffffffffffffff16021790555050565b3373ffffffffffffffffffffffffffffffffffffffff16600f60009054906101000a900473ffffffffffffffffffffffffffffffffffffffff1673ffffffffffffffffffffffffffffffffffffffff1614610abc576040517f08c379a0000000000000000000000000000000000000000000000000000000008152600401610ab3906157e6565b60405180910390fd5b610b02601b600380602002604051908101604052809291908260038015610af8576020028201915b815481526020019060010190808311610ae4575b50505050506134cd565b610b41576040517f08c379a0000000000000000000000000000000000000000000000000000000008152600401610b38906157a6565b60405180910390fd5b610b87601b600380602002604051908101604052809291908260038015610b7d576020028201915b815481526020019060010190808311610b69575b505050505061351f565b610b8f613618565b610b9761366a565b565b600060098260038110610ba857fe5b0160009054906101000a900473ffffffffffffffffffffffffffffffffffffffff1673ffffffffffffffffffffffffffffffffffffffff166370a08231306040518263ffffffff1660e01b8152600401610c029190615658565b60206040518083038186803b158015610c1a57600080fd5b505afa158015610c2e573d6000803e3d6000fd5b505050506040513d601f19601f82011682018060405250810190610c5291906150e2565b9050919050565b600f60009054906101000a900473ffffffffffffffffffffffffffffffffffffffff1681565b60176020528160005260406000208160038110610c9857fe5b01600091509150505481565b60068160038110610cb157fe5b016000915090505481565b6000601560008373ffffffffffffffffffffffffffffffffffffffff1673ffffffffffffffffffffffffffffffffffffffff168152602001908152602001600020805490509050919050565b3373ffffffffffffffffffffffffffffffffffffffff16600f60009054906101000a900473ffffffffffffffffffffffffffffffffffffffff1673ffffffffffffffffffffffffffffffffffffffff1614610d98576040517f08c379a0000000000000000000000000000000000000000000000000000000008152600401610d8f906157e6565b60405180910390fd5b60005b60038160ff161015610e0857600060108260ff1660038110610db957fe5b015414610dfb576040517f08c379a0000000000000000000000000000000000000000000000000000000008152600401610df290615826565b60405180910390fd5b8080600101915050610d9b565b5080600e60006101000a81548173ffffffffffffffffffffffffffffffffffffffff021916908373ffffffffffffffffffffffffffffffffffffffff16021790555050565b3373ffffffffffffffffffffffffffffffffffffffff16600f60009054906101000a900473ffffffffffffffffffffffffffffffffffffffff1673ffffffffffffffffffffffffffffffffffffffff1614610edd576040517f08c379a0000000000000000000000000000000000000000000000000000000008152600401610ed4906157e6565b60405180910390fd5b80600460006101000a8154816fffffffffffffffffffffffffffffffff02191690836fffffffffffffffffffffffffffffffff16021790555050565b601e8160038110610f2657fe5b016000915090505481565b3373ffffffffffffffffffffffffffffffffffffffff16600f60009054906101000a900473ffffffffffffffffffffffffffffffffffffffff1673ffffffffffffffffffffffffffffffffffffffff1614610fc1576040517f08c379a0000000000000000000000000000000000000000000000000000000008152600401610fb8906157e6565b60405180910390fd5b8060148190555050565b3373ffffffffffffffffffffffffffffffffffffffff16600f60009054906101000a900473ffffffffffffffffffffffffffffffffffffffff1673ffffffffffffffffffffffffffffffffffffffff161461105b576040517f08c379a0000000000000000000000000000000000000000000000000000000008152600401611052906157e6565b60405180910390fd5b6000611065614d1b565b61106d614d1b565b600080600090505b60038160ff1610156113965761108d8160ff16610b99565b945060098160ff166003811061109f57fe5b0160009054906101000a900473ffffffffffffffffffffffffffffffffffffffff1673ffffffffffffffffffffffffffffffffffffffff1663313ce5676040518163ffffffff1660e01b815260040160206040518083038186803b15801561110657600080fd5b505afa15801561111a573d6000803e3d6000fd5b505050506040513d601f19601f8201168201806040525081019061113e9190615147565b60ff169150600061117f61271061117160055460068660ff166003811061116157fe5b015461340890919063ffffffff16565b61367b90919063ffffffff16565b9050858111156111f55761119c86826136c590919063ffffffff16565b858360ff16600381106111ab57fe5b60200201818152505082600a0a603202858360ff16600381106111ca57fe5b602002015110156111f0576000858360ff16600381106111e657fe5b6020020181815250505b611388565b8581101561135257808603848360ff166003811061120f57fe5b60200201818152505082600a0a603202848360ff166003811061122e57fe5b60200201511015611258576000848360ff166003811061124a57fe5b60200201818152505061134d565b60098260ff166003811061126857fe5b0160009054906101000a900473ffffffffffffffffffffffffffffffffffffffff1673ffffffffffffffffffffffffffffffffffffffff1663a9059cbb600e60009054906101000a900473ffffffffffffffffffffffffffffffffffffffff16868560ff16600381106112d757fe5b60200201516040518363ffffffff1660e01b81526004016112f9929190615725565b602060405180830381600087803b15801561131357600080fd5b505af1158015611327573d6000803e3d6000fd5b505050506040513d601f19601f8201168201806040525081019061134b9190615067565b505b611387565b6000858360ff166003811061136357fe5b6020020181815250506000848360ff166003811061137d57fe5b6020020181815250505b5b508080600101915050611075565b506113a0826134cd565b156113af576113ae8261370f565b5b6113b8836134cd565b156113c7576113c68361351f565b5b50505050565b600033600d60009054906101000a900473ffffffffffffffffffffffffffffffffffffffff1673ffffffffffffffffffffffffffffffffffffffff168173ffffffffffffffffffffffffffffffffffffffff1614611460576040517f08c379a000000000000000000000000000000000000000000000000000000000815260040161145790615846565b60405180910390fd5b60005b60038160ff161015611605576000858260ff166003811061148057fe5b602002015111156115f8576114c2858260ff166003811061149d57fe5b6020020151601e8360ff16600381106114b257fe5b01546136c590919063ffffffff16565b601e8260ff16600381106114d257fe5b018190555061150e858260ff16600381106114e957fe5b602002015160068360ff16600381106114fe57fe5b015461347890919063ffffffff16565b60068260ff166003811061151e57fe5b018190555060098160ff166003811061153357fe5b0160009054906101000a900473ffffffffffffffffffffffffffffffffffffffff1673ffffffffffffffffffffffffffffffffffffffff166323b872dd8530888560ff166003811061158157fe5b60200201516040518463ffffffff1660e01b81526004016115a4939291906156ee565b602060405180830381600087803b1580156115be57600080fd5b505af11580156115d2573d6000803e3d6000fd5b505050506040513d601f19601f820116820180604052508101906115f69190615067565b505b8080600101915050611463565b50600191505092915050565b3373ffffffffffffffffffffffffffffffffffffffff16600f60009054906101000a900473ffffffffffffffffffffffffffffffffffffffff1673ffffffffffffffffffffffffffffffffffffffff16146116a1576040517f08c379a0000000000000000000000000000000000000000000000000000000008152600401611698906157e6565b60405180910390fd5b6116a9614d1b565b600e60009054906101000a900473ffffffffffffffffffffffffffffffffffffffff1673ffffffffffffffffffffffffffffffffffffffff1663853828b66040518163ffffffff1660e01b8152600401606060405180830381600087803b15801561171357600080fd5b505af1158015611727573d6000803e3d6000fd5b505050506040513d601f19601f8201168201806040525081019061174b9190615002565b905060005b60038160ff1610156118905760108160ff166003811061176c57fe5b0154828260ff166003811061177d57fe5b602002015111156117fc576117e26117c260108360ff166003811061179e57fe5b0154848460ff16600381106117af57fe5b60200201516136c590919063ffffffff16565b60068360ff16600381106117d257fe5b015461347890919063ffffffff16565b60068260ff16600381106117f257fe5b018190555061186c565b611856611836838360ff166003811061181157fe5b602002015160108460ff166003811061182657fe5b01546136c590919063ffffffff16565b60068360ff166003811061184657fe5b01546136c590919063ffffffff16565b60068260ff166003811061186657fe5b01819055505b600060108260ff166003811061187e57fe5b01819055508080600101915050611750565b5050565b60055481565b60196020528060005260406000206000915054906101000a900460ff1681565b61271081565b60026021541415611906576040517f08c379a00000000000000000000000000000000000000000000000000000000081526004016118fd90615966565b60405180910390fd5b60026021819055508160008111611952576040517f08c379a0000000000000000000000000000000000000000000000000000000008152600401611949906158a6565b60405180910390fd5b82600c60009054906101000a900473ffffffffffffffffffffffffffffffffffffffff1673ffffffffffffffffffffffffffffffffffffffff166370a08231336040518263ffffffff1660e01b81526004016119ae9190615673565b60206040518083038186803b1580156119c657600080fd5b505afa1580156119da573d6000803e3d6000fd5b505050506040513d601f19601f820116820180604052508101906119fe91906150e2565b1015611a3f576040517f08c379a0000000000000000000000000000000000000000000000000000000008152600401611a36906158e6565b60405180910390fd5b6000611a4d33846001612739565b915050838110611dce5760008060005b60038160ff161015611bc55760098160ff1660038110611a7957fe5b0160009054906101000a900473ffffffffffffffffffffffffffffffffffffffff1673ffffffffffffffffffffffffffffffffffffffff1663313ce5676040518163ffffffff1660e01b815260040160206040518083038186803b158015611ae057600080fd5b505afa158015611af4573d6000803e3d6000fd5b505050506040513d601f19601f82011682018060405250810190611b189190615147565b60ff169150611bb6611ba783600a0a611b99670de0b6b3a7640000611b8b601e8760ff1660038110611b4657fe5b0154611b7d601b8960ff1660038110611b5b57fe5b015460068a60ff1660038110611b6d57fe5b01546136c590919063ffffffff16565b61347890919063ffffffff16565b61340890919063ffffffff16565b61367b90919063ffffffff16565b8461347890919063ffffffff16565b92508080600101915050611a5d565b50600060098660038110611bd557fe5b0160009054906101000a900473ffffffffffffffffffffffffffffffffffffffff1673ffffffffffffffffffffffffffffffffffffffff1663313ce5676040518163ffffffff1660e01b815260040160206040518083038186803b158015611c3c57600080fd5b505afa158015611c50573d6000803e3d6000fd5b505050506040513d601f19601f82011682018060405250810190611c749190615147565b60ff169150611d6c670de0b6b3a7640000611d5e600c60009054906101000a900473ffffffffffffffffffffffffffffffffffffffff1673ffffffffffffffffffffffffffffffffffffffff166318160ddd6040518163ffffffff1660e01b815260040160206040518083038186803b158015611cf057600080fd5b505afa158015611d04573d6000803e3d6000fd5b505050506040513d601f19601f82011682018060405250810190611d2891906150e2565b611d5086600a0a611d42898e61340890919063ffffffff16565b61340890919063ffffffff16565b61367b90919063ffffffff16565b61367b90919063ffffffff16565b905060068660038110611d7b57fe5b0154811115611dbf576040517f08c379a0000000000000000000000000000000000000000000000000000000008152600401611db690615806565b60405180910390fd5b611dca818888613808565b5050505b505060016021819055505050565b600460009054906101000a90046fffffffffffffffffffffffffffffffff1681565b3373ffffffffffffffffffffffffffffffffffffffff16600f60009054906101000a900473ffffffffffffffffffffffffffffffffffffffff1673ffffffffffffffffffffffffffffffffffffffff1614611e8e576040517f08c379a0000000000000000000000000000000000000000000000000000000008152600401611e85906157e6565b60405180910390fd5b806fffffffffffffffffffffffffffffffff1660058190555050565b3373ffffffffffffffffffffffffffffffffffffffff16600f60009054906101000a900473ffffffffffffffffffffffffffffffffffffffff1673ffffffffffffffffffffffffffffffffffffffff1614611f3a576040517f08c379a0000000000000000000000000000000000000000000000000000000008152600401611f31906157e6565b60405180910390fd5b8060138190555050565b6000806000905060008080600090505b60038160ff16101561210c5760098160ff1660038110611f7057fe5b0160009054906101000a900473ffffffffffffffffffffffffffffffffffffffff1673ffffffffffffffffffffffffffffffffffffffff1663313ce5676040518163ffffffff1660e01b815260040160206040518083038186803b158015611fd757600080fd5b505afa158015611feb573d6000803e3d6000fd5b505050506040513d601f19601f8201168201806040525081019061200f9190615147565b60ff1692506120ad61209e84600a0a612090670de0b6b3a7640000612082601e8760ff166003811061203d57fe5b0154612074601b8960ff166003811061205257fe5b015460068a60ff166003811061206457fe5b01546136c590919063ffffffff16565b61347890919063ffffffff16565b61340890919063ffffffff16565b61367b90919063ffffffff16565b8561347890919063ffffffff16565b9350858160ff1614156120ff576120fc6120ed84600a0a6120df670de0b6b3a76400008b61340890919063ffffffff16565b61367b90919063ffffffff16565b8361347890919063ffffffff16565b91505b8080600101915050611f54565b506121d1836121c3600c60009054906101000a900473ffffffffffffffffffffffffffffffffffffffff1673ffffffffffffffffffffffffffffffffffffffff166318160ddd6040518163ffffffff1660e01b815260040160206040518083038186803b15801561217c57600080fd5b505afa158015612190573d6000803e3d6000fd5b505050506040513d601f19601f820116820180604052508101906121b491906150e2565b8461340890919063ffffffff16565b61367b90919063ffffffff16565b935050505092915050565b601560205281600052604060002081815481106121f557fe5b9060005260206000209060020201600091509150508060000154908060010154905082565b6018602052816000526040600020816003811061223357fe5b01600091509150505481565b60135481565b3373ffffffffffffffffffffffffffffffffffffffff16600f60009054906101000a900473ffffffffffffffffffffffffffffffffffffffff1673ffffffffffffffffffffffffffffffffffffffff16146122d5576040517f08c379a00000000000000000000000000000000000000000000000000000000081526004016122cc906157e6565b60405180910390fd5b6122dd614d1b565b600080600090505b60038160ff161015612622576122fd8160ff16610b99565b838260ff166003811061230c57fe5b60200201818152505060098160ff166003811061232557fe5b0160009054906101000a900473ffffffffffffffffffffffffffffffffffffffff1673ffffffffffffffffffffffffffffffffffffffff1663313ce5676040518163ffffffff1660e01b815260040160206040518083038186803b15801561238c57600080fd5b505afa1580156123a0573d6000803e3d6000fd5b505050506040513d601f19601f820116820180604052508101906123c49190615147565b60ff1691506123e182600a0a60135461340890919063ffffffff16565b838260ff16600381106123f057fe5b602002015111156125fa5761243260108260ff166003811061240e57fe5b0154848360ff166003811061241f57fe5b602002015161347890919063ffffffff16565b838260ff166003811061244157fe5b60200201818152505061249a61271061248c61246a6005546127106136c590919063ffffffff16565b868560ff166003811061247957fe5b602002015161340890919063ffffffff16565b61367b90919063ffffffff16565b838260ff16600381106124a957fe5b6020020181815250506124e960108260ff16600381106124c557fe5b0154848360ff16600381106124d657fe5b60200201516136c590919063ffffffff16565b838260ff16600381106124f857fe5b60200201818152505060098160ff166003811061251157fe5b0160009054906101000a900473ffffffffffffffffffffffffffffffffffffffff1673ffffffffffffffffffffffffffffffffffffffff1663a9059cbb600e60009054906101000a900473ffffffffffffffffffffffffffffffffffffffff16858460ff166003811061258057fe5b60200201516040518363ffffffff1660e01b81526004016125a2929190615725565b602060405180830381600087803b1580156125bc57600080fd5b505af11580156125d0573d6000803e3d6000fd5b505050506040513d601f19601f820116820180604052508101906125f49190615067565b50612615565b6000838260ff166003811061260b57fe5b6020020181815250505b80806001019150506122e5565b5061262c826134cd565b1561263b5761263a8261370f565b5b5050565b60026021541415612685576040517f08c379a000000000000000000000000000000000000000000000000000000000815260040161267c90615966565b60405180910390fd5b600260218190555081600081116126d1576040517f08c379a00000000000000000000000000000000000000000000000000000000081526004016126c8906158a6565b60405180910390fd5b6126db8383613ae0565b7f6ec568242d49f3645a5e2f73f58b15947dba8ef3ea637e32f6703325ce46f282338460405161270c9291906156c5565b60405180910390a15060016021819055505050565b601b816003811061272e57fe5b016000915090505481565b6000806000805b601660008873ffffffffffffffffffffffffffffffffffffffff1673ffffffffffffffffffffffffffffffffffffffff1681526020019081526020016000206000878152602001908152602001600020805490508160ff16101561292f5784158061281d5750601454601660008973ffffffffffffffffffffffffffffffffffffffff1673ffffffffffffffffffffffffffffffffffffffff16815260200190815260200160002060008881526020019081526020016000208260ff168154811061280757fe5b9060005260206000209060020201600001544203115b801561289857506000601660008973ffffffffffffffffffffffffffffffffffffffff1673ffffffffffffffffffffffffffffffffffffffff16815260200190815260200160002060008881526020019081526020016000208260ff168154811061288457fe5b906000526020600020906002020160010154115b156129225761291f601660008973ffffffffffffffffffffffffffffffffffffffff1673ffffffffffffffffffffffffffffffffffffffff16815260200190815260200160002060008881526020019081526020016000208260ff16815481106128fe57fe5b9060005260206000209060020201600101548361347890919063ffffffff16565b91505b8080600101915050612740565b5061298e601860008873ffffffffffffffffffffffffffffffffffffffff1673ffffffffffffffffffffffffffffffffffffffff168152602001908152602001600020866003811061297d57fe5b0154826136c590919063ffffffff16565b905060008080600090505b60038160ff161015612b015760098160ff16600381106129b557fe5b0160009054906101000a900473ffffffffffffffffffffffffffffffffffffffff1673ffffffffffffffffffffffffffffffffffffffff1663313ce5676040518163ffffffff1660e01b815260040160206040518083038186803b158015612a1c57600080fd5b505afa158015612a30573d6000803e3d6000fd5b505050506040513d601f19601f82011682018060405250810190612a549190615147565b60ff169150612af2612ae383600a0a612ad5670de0b6b3a7640000612ac7601e8760ff1660038110612a8257fe5b0154612ab9601b8960ff1660038110612a9757fe5b015460068a60ff1660038110612aa957fe5b01546136c590919063ffffffff16565b61347890919063ffffffff16565b61340890919063ffffffff16565b61367b90919063ffffffff16565b8461347890919063ffffffff16565b92508080600101915050612999565b5060098760038110612b0f57fe5b0160009054906101000a900473ffffffffffffffffffffffffffffffffffffffff1673ffffffffffffffffffffffffffffffffffffffff1663313ce5676040518163ffffffff1660e01b815260040160206040518083038186803b158015612b7657600080fd5b505afa158015612b8a573d6000803e3d6000fd5b505050506040513d601f19601f82011682018060405250810190612bae9190615147565b60ff169050612ca6670de0b6b3a7640000612c98600c60009054906101000a900473ffffffffffffffffffffffffffffffffffffffff1673ffffffffffffffffffffffffffffffffffffffff166318160ddd6040518163ffffffff1660e01b815260040160206040518083038186803b158015612c2a57600080fd5b505afa158015612c3e573d6000803e3d6000fd5b505050506040513d601f19601f82011682018060405250810190612c6291906150e2565b612c8a85600a0a612c7c888a61340890919063ffffffff16565b61340890919063ffffffff16565b61367b90919063ffffffff16565b61367b90919063ffffffff16565b8394509450505050935093915050565b60026021541415612cfc576040517f08c379a0000000000000000000000000000000000000000000000000000000008152600401612cf390615966565b60405180910390fd5b60026021819055508160008111612d48576040517f08c379a0000000000000000000000000000000000000000000000000000000008152600401612d3f906158a6565b60405180910390fd5b60068260038110612d5557fe5b01548310612d98576040517f08c379a0000000000000000000000000000000000000000000000000000000008152600401612d8f90615806565b60405180910390fd5b6000612da48484611f44565b905080600c60009054906101000a900473ffffffffffffffffffffffffffffffffffffffff1673ffffffffffffffffffffffffffffffffffffffff166370a08231336040518263ffffffff1660e01b8152600401612e029190615673565b60206040518083038186803b158015612e1a57600080fd5b505afa158015612e2e573d6000803e3d6000fd5b505050506040513d601f19601f82011682018060405250810190612e5291906150e2565b1015612e93576040517f08c379a0000000000000000000000000000000000000000000000000000000008152600401612e8a906158e6565b60405180910390fd5b6000600190506000612ea733866001612739565b50905085811015612eb757600091505b81612ef7576040517f08c379a0000000000000000000000000000000000000000000000000000000008152600401612eee90615946565b60405180910390fd5b612f02868487613808565b5050505060016021819055505050565b600033600d60009054906101000a900473ffffffffffffffffffffffffffffffffffffffff1673ffffffffffffffffffffffffffffffffffffffff168173ffffffffffffffffffffffffffffffffffffffff1614612fa5576040517f08c379a0000000000000000000000000000000000000000000000000000000008152600401612f9c90615846565b60405180910390fd5b60005b60038160ff1610156130285760068160ff1660038110612fc457fe5b0154858260ff1660038110612fd557fe5b6020020151111561301b576040517f08c379a000000000000000000000000000000000000000000000000000000000815260040161301290615906565b60405180910390fd5b8080600101915050612fa8565b506000613033614d1b565b6000805b60038160ff1610156131025761304f8160ff16610b99565b935083888260ff166003811061306157fe5b6020020151116130b657613091888260ff166003811061307d57fe5b6020020151856136c590919063ffffffff16565b838260ff16600381106130a057fe5b60200201818152505081806001019250506130f5565b6130dc84898360ff16600381106130c957fe5b60200201516136c590919063ffffffff16565b838260ff16600381106130eb57fe5b6020020181815250505b8080600101915050613037565b5060038114613115576131148261351f565b5b60005b60038160ff1610156132b8576000888260ff166003811061313557fe5b602002015111156132ab57613177888260ff166003811061315257fe5b6020020151601e8360ff166003811061316757fe5b015461347890919063ffffffff16565b601e8260ff166003811061318757fe5b01819055506131c3888260ff166003811061319e57fe5b602002015160068360ff16600381106131b357fe5b01546136c590919063ffffffff16565b60068260ff16600381106131d357fe5b018190555060098160ff16600381106131e857fe5b0160009054906101000a900473ffffffffffffffffffffffffffffffffffffffff1673ffffffffffffffffffffffffffffffffffffffff1663a9059cbb888a8460ff166003811061323557fe5b60200201516040518363ffffffff1660e01b8152600401613257929190615725565b602060405180830381600087803b15801561327157600080fd5b505af1158015613285573d6000803e3d6000fd5b505050506040513d601f19601f820116820180604052508101906132a99190615067565b505b8080600101915050613118565b50600194505050505092915050565b3373ffffffffffffffffffffffffffffffffffffffff16600f60009054906101000a900473ffffffffffffffffffffffffffffffffffffffff1673ffffffffffffffffffffffffffffffffffffffff1614613357576040517f08c379a000000000000000000000000000000000000000000000000000000000815260040161334e906157e6565b60405180910390fd5b80600f60006101000a81548173ffffffffffffffffffffffffffffffffffffffff021916908373ffffffffffffffffffffffffffffffffffffffff16021790555050565b60145481565b6000806133b084846000612739565b5090508091505092915050565b601660205282600052604060002060205281600052604060002081815481106133e257fe5b906000526020600020906002020160009250925050508060000154908060010154905082565b60008083141561341b5760009050613472565b600082840290508284828161342c57fe5b041461346d576040517f08c379a000000000000000000000000000000000000000000000000000000000815260040161346490615866565b60405180910390fd5b809150505b92915050565b6000808284019050838110156134c3576040517f08c379a00000000000000000000000000000000000000000000000000000000081526004016134ba906157c6565b60405180910390fd5b8091505092915050565b600080600090505b60038160ff161015613514576000838260ff16600381106134f257fe5b6020020151111561350757600191505061351a565b80806001019150506134d5565b50600090505b919050565b600e60009054906101000a900473ffffffffffffffffffffffffffffffffffffffff1673ffffffffffffffffffffffffffffffffffffffff1663b1b8f1be826040518263ffffffff1660e01b815260040161357a919061574e565b600060405180830381600087803b15801561359457600080fd5b505af11580156135a8573d6000803e3d6000fd5b5050505060005b60038160ff161015613614576135f2828260ff16600381106135cd57fe5b602002015160108360ff16600381106135e257fe5b01546136c590919063ffffffff16565b60108260ff166003811061360257fe5b018190555080806001019150506135af565b5050565b6000601a60009054906101000a900463ffffffff16905060005b8163ffffffff168160ff16101561366657600061364d613ded565b905061365881613ee4565b508080600101915050613632565b5050565b600180819055506000600281905550565b60006136bd83836040518060400160405280601a81526020017f536166654d6174683a206469766973696f6e206279207a65726f000000000000815250614615565b905092915050565b600061370783836040518060400160405280601e81526020017f536166654d6174683a207375627472616374696f6e206f766572666c6f770000815250614676565b905092915050565b600e60009054906101000a900473ffffffffffffffffffffffffffffffffffffffff1673ffffffffffffffffffffffffffffffffffffffff1663d4e20b01826040518263ffffffff1660e01b815260040161376a919061574e565b600060405180830381600087803b15801561378457600080fd5b505af1158015613798573d6000803e3d6000fd5b5050505060005b60038160ff161015613804576137e2828260ff16600381106137bd57fe5b602002015160108360ff16600381106137d257fe5b015461347890919063ffffffff16565b60108260ff16600381106137f257fe5b0181905550808060010191505061379f565b5050565b600061381382610b99565b9050600c60009054906101000a900473ffffffffffffffffffffffffffffffffffffffff1673ffffffffffffffffffffffffffffffffffffffff16639dc29fac33856040518363ffffffff1660e01b81526004016138729291906156c5565b600060405180830381600087803b15801561388c57600080fd5b505af11580156138a0573d6000803e3d6000fd5b5050505080841015613a95576000806139186139096127106138fb600460009054906101000a90046fffffffffffffffffffffffffffffffff166fffffffffffffffffffffffffffffffff168a61340890919063ffffffff16565b61367b90919063ffffffff16565b876136c590919063ffffffff16565b905061393b816006866003811061392b57fe5b01546136c590919063ffffffff16565b6006856003811061394857fe5b01819055506009846003811061395a57fe5b0160009054906101000a900473ffffffffffffffffffffffffffffffffffffffff1673ffffffffffffffffffffffffffffffffffffffff1663a9059cbb33836040518363ffffffff1660e01b81526004016139b69291906156c5565b602060405180830381600087803b1580156139d057600080fd5b505af11580156139e4573d6000803e3d6000fd5b505050506040513d601f19601f82011682018060405250810190613a089190615067565b915081613a4a576040517f08c379a0000000000000000000000000000000000000000000000000000000008152600401613a4190615926565b60405180910390fd5b613a553386866146d1565b7f8b46652782c1a94bd1f1e050f62dea3a99b7fe20520c003e111624847230d4fe3382604051613a869291906156c5565b60405180910390a15050613ada565b613aa0848484614a38565b7fd70cf1d21d858f226b570eec41b4238a7365568b97cf693f3ea03c3bd0d507cf3385604051613ad19291906156c5565b60405180910390a15b50505050565b600080613aed8484611f44565b905060098360038110613afc57fe5b0160009054906101000a900473ffffffffffffffffffffffffffffffffffffffff1673ffffffffffffffffffffffffffffffffffffffff166323b872dd3330876040518463ffffffff1660e01b8152600401613b5a9392919061568e565b602060405180830381600087803b158015613b7457600080fd5b505af1158015613b88573d6000803e3d6000fd5b505050506040513d601f19601f82011682018060405250810190613bac9190615067565b915081613bee576040517f08c379a0000000000000000000000000000000000000000000000000000000008152600401613be590615886565b60405180910390fd5b613c0f8460068560038110613bff57fe5b015461347890919063ffffffff16565b60068460038110613c1c57fe5b0181905550600c60009054906101000a900473ffffffffffffffffffffffffffffffffffffffff1673ffffffffffffffffffffffffffffffffffffffff166340c10f1933836040518363ffffffff1660e01b8152600401613c7e9291906156c5565b600060405180830381600087803b158015613c9857600080fd5b505af1158015613cac573d6000803e3d6000fd5b50505050601660003373ffffffffffffffffffffffffffffffffffffffff1673ffffffffffffffffffffffffffffffffffffffff1681526020019081526020016000206000848152602001908152602001600020604051806040016040528042815260200183815250908060018154018082558091505060019003906000526020600020906002020160009091909190915060008201518160000155602082015181600101555050601560003373ffffffffffffffffffffffffffffffffffffffff1673ffffffffffffffffffffffffffffffffffffffff16815260200190815260200160002060405180604001604052808681526020018581525090806001815401808255809150506001900390600052602060002090600202016000909190919091506000820151816000015560208201518160010155505050505050565b60006001546002541015613e0057600080fd5b600080600154815260200190815260200160002060009054906101000a900473ffffffffffffffffffffffffffffffffffffffff16600360006101000a81548173ffffffffffffffffffffffffffffffffffffffff021916908373ffffffffffffffffffffffffffffffffffffffff160217905550600080600154815260200190815260200160002060006101000a81549073ffffffffffffffffffffffffffffffffffffffff021916905560018060008282540192505081905550600360009054906101000a900473ffffffffffffffffffffffffffffffffffffffff16905090565b600080600090505b60038160ff16101561432b576000601760008573ffffffffffffffffffffffffffffffffffffffff1673ffffffffffffffffffffffffffffffffffffffff1681526020019081526020016000208260ff1660038110613f4757fe5b0154111561431e576000614056613ff9612710613feb600460009054906101000a90046fffffffffffffffffffffffffffffffff166fffffffffffffffffffffffffffffffff16601760008a73ffffffffffffffffffffffffffffffffffffffff1673ffffffffffffffffffffffffffffffffffffffff1681526020019081526020016000208760ff1660038110613fdb57fe5b015461340890919063ffffffff16565b61367b90919063ffffffff16565b601760008773ffffffffffffffffffffffffffffffffffffffff1673ffffffffffffffffffffffffffffffffffffffff1681526020019081526020016000208460ff166003811061404657fe5b01546136c590919063ffffffff16565b905060098260ff166003811061406857fe5b0160009054906101000a900473ffffffffffffffffffffffffffffffffffffffff1673ffffffffffffffffffffffffffffffffffffffff1663a9059cbb85836040518363ffffffff1660e01b81526004016140c4929190615725565b602060405180830381600087803b1580156140de57600080fd5b505af11580156140f2573d6000803e3d6000fd5b505050506040513d601f19601f820116820180604052508101906141169190615067565b925082614158576040517f08c379a000000000000000000000000000000000000000000000000000000000815260040161414f906158c6565b60405180910390fd5b6141ca601760008673ffffffffffffffffffffffffffffffffffffffff1673ffffffffffffffffffffffffffffffffffffffff1681526020019081526020016000208360ff16600381106141a857fe5b0154601b8460ff16600381106141ba57fe5b01546136c590919063ffffffff16565b601b8360ff16600381106141da57fe5b01819055506142038160068460ff16600381106141f357fe5b01546136c590919063ffffffff16565b60068360ff166003811061421357fe5b018190555061427484601860008773ffffffffffffffffffffffffffffffffffffffff1673ffffffffffffffffffffffffffffffffffffffff1681526020019081526020016000208460ff166003811061426957fe5b01548460ff166146d1565b6000601760008673ffffffffffffffffffffffffffffffffffffffff1673ffffffffffffffffffffffffffffffffffffffff1681526020019081526020016000208360ff16600381106142c357fe5b01819055506000601860008673ffffffffffffffffffffffffffffffffffffffff1673ffffffffffffffffffffffffffffffffffffffff1681526020019081526020016000208360ff166003811061431757fe5b0181905550505b8080600101915050613eec565b5060005b60038160ff161015614581576000601860008573ffffffffffffffffffffffffffffffffffffffff1673ffffffffffffffffffffffffffffffffffffffff1681526020019081526020016000208260ff166003811061438a57fe5b0154141580156143e957506000601760008573ffffffffffffffffffffffffffffffffffffffff1673ffffffffffffffffffffffffffffffffffffffff1681526020019081526020016000208260ff16600381106143e457fe5b015414155b156144cc57600c60009054906101000a900473ffffffffffffffffffffffffffffffffffffffff1673ffffffffffffffffffffffffffffffffffffffff166340c10f1984601860008773ffffffffffffffffffffffffffffffffffffffff1673ffffffffffffffffffffffffffffffffffffffff1681526020019081526020016000208460ff166003811061447a57fe5b01546040518363ffffffff1660e01b8152600401614499929190615725565b600060405180830381600087803b1580156144b357600080fd5b505af11580156144c7573d6000803e3d6000fd5b505050505b6000601860008573ffffffffffffffffffffffffffffffffffffffff1673ffffffffffffffffffffffffffffffffffffffff1681526020019081526020016000208260ff166003811061451b57fe5b01819055506000601760008573ffffffffffffffffffffffffffffffffffffffff1673ffffffffffffffffffffffffffffffffffffffff1681526020019081526020016000208260ff166003811061456f57fe5b0181905550808060010191505061432f565b506000601960008473ffffffffffffffffffffffffffffffffffffffff1673ffffffffffffffffffffffffffffffffffffffff16815260200190815260200160002060006101000a81548160ff0219169083151502179055506001601a60008282829054906101000a900463ffffffff160392506101000a81548163ffffffff021916908363ffffffff1602179055505050565b6000808311829061465c576040517f08c379a00000000000000000000000000000000000000000000000000000000081526004016146539190615784565b60405180910390fd5b50600083858161466857fe5b049050809150509392505050565b60008383111582906146be576040517f08c379a00000000000000000000000000000000000000000000000000000000081526004016146b59190615784565b60405180910390fd5b5060008385039050809150509392505050565b60005b601660008573ffffffffffffffffffffffffffffffffffffffff1673ffffffffffffffffffffffffffffffffffffffff1681526020019081526020016000206000838152602001908152602001600020805490508160ff161015614a32576000601660008673ffffffffffffffffffffffffffffffffffffffff1673ffffffffffffffffffffffffffffffffffffffff16815260200190815260200160002060008481526020019081526020016000208260ff168154811061479257fe5b9060005260206000209060020201600101541180156147b15750600083115b15614a2557601660008573ffffffffffffffffffffffffffffffffffffffff1673ffffffffffffffffffffffffffffffffffffffff16815260200190815260200160002060008381526020019081526020016000208160ff168154811061481457fe5b906000526020600020906002020160010154831061492a576148ae601660008673ffffffffffffffffffffffffffffffffffffffff1673ffffffffffffffffffffffffffffffffffffffff16815260200190815260200160002060008481526020019081526020016000208260ff168154811061488d57fe5b906000526020600020906002020160010154846136c590919063ffffffff16565b92506000601660008673ffffffffffffffffffffffffffffffffffffffff1673ffffffffffffffffffffffffffffffffffffffff16815260200190815260200160002060008481526020019081526020016000208260ff168154811061491057fe5b906000526020600020906002020160010181905550614a24565b6149ac83601660008773ffffffffffffffffffffffffffffffffffffffff1673ffffffffffffffffffffffffffffffffffffffff16815260200190815260200160002060008581526020019081526020016000208360ff168154811061498c57fe5b9060005260206000209060020201600101546136c590919063ffffffff16565b601660008673ffffffffffffffffffffffffffffffffffffffff1673ffffffffffffffffffffffffffffffffffffffff16815260200190815260200160002060008481526020019081526020016000208260ff1681548110614a0a57fe5b906000526020600020906002020160010181905550600092505b5b80806001019150506146d4565b50505050565b614a9683601760003373ffffffffffffffffffffffffffffffffffffffff1673ffffffffffffffffffffffffffffffffffffffff1681526020019081526020016000208360038110614a8657fe5b015461347890919063ffffffff16565b601760003373ffffffffffffffffffffffffffffffffffffffff1673ffffffffffffffffffffffffffffffffffffffff1681526020019081526020016000208260038110614ae057fe5b0181905550614b4382601860003373ffffffffffffffffffffffffffffffffffffffff1673ffffffffffffffffffffffffffffffffffffffff1681526020019081526020016000208360038110614b3357fe5b015461347890919063ffffffff16565b601860003373ffffffffffffffffffffffffffffffffffffffff1673ffffffffffffffffffffffffffffffffffffffff1681526020019081526020016000208260038110614b8d57fe5b0181905550614bb383601b8360038110614ba357fe5b015461347890919063ffffffff16565b601b8260038110614bc057fe5b0181905550601960003373ffffffffffffffffffffffffffffffffffffffff1673ffffffffffffffffffffffffffffffffffffffff16815260200190815260200160002060009054906101000a900460ff16614caf576001601a60008282829054906101000a900463ffffffff160192506101000a81548163ffffffff021916908363ffffffff1602179055506001601960003373ffffffffffffffffffffffffffffffffffffffff1673ffffffffffffffffffffffffffffffffffffffff16815260200190815260200160002060006101000a81548160ff021916908315150217905550614cae33614cb4565b5b505050565b600160026000828254019250508190555080600080600254815260200190815260200160002060006101000a81548173ffffffffffffffffffffffffffffffffffffffff021916908373ffffffffffffffffffffffffffffffffffffffff16021790555050565b6040518060600160405280600390602082028036833780820191505090505090565b600081359050614d4c81615b68565b92915050565b600081905082602060030282011115614d6a57600080fd5b92915050565b600082601f830112614d8157600080fd5b6003614d94614d8f82615a12565b6159e5565b91508183856020840282011115614daa57600080fd5b60005b83811015614dda5781614dc08882614e97565b845260208401935060208301925050600181019050614dad565b5050505092915050565b600082601f830112614df557600080fd5b6003614e08614e0382615a12565b6159e5565b91508183856020840282011115614e1e57600080fd5b60005b83811015614e4e5781614e348882614eac565b845260208401935060208301925050600181019050614e21565b5050505092915050565b600081359050614e6781615b7f565b92915050565b600081519050614e7c81615b7f565b92915050565b600081359050614e9181615b96565b92915050565b600081359050614ea681615bad565b92915050565b600081519050614ebb81615bad565b92915050565b600081519050614ed081615bc4565b92915050565b600060208284031215614ee857600080fd5b6000614ef684828501614d3d565b91505092915050565b60008060408385031215614f1257600080fd5b6000614f2085828601614d3d565b9250506020614f3185828601614e97565b9150509250929050565b600080600060608486031215614f5057600080fd5b6000614f5e86828701614d3d565b9350506020614f6f86828701614e97565b9250506040614f8086828701614e58565b9150509250925092565b600080600060608486031215614f9f57600080fd5b6000614fad86828701614d3d565b9350506020614fbe86828701614e97565b9250506040614fcf86828701614e97565b9150509250925092565b600060608284031215614feb57600080fd5b6000614ff984828501614d52565b91505092915050565b60006060828403121561501457600080fd5b600061502284828501614de4565b91505092915050565b6000806080838503121561503e57600080fd5b600061504c85828601614d70565b925050606061505d85828601614d3d565b9150509250929050565b60006020828403121561507957600080fd5b600061508784828501614e6d565b91505092915050565b6000602082840312156150a257600080fd5b60006150b084828501614e82565b91505092915050565b6000602082840312156150cb57600080fd5b60006150d984828501614e97565b91505092915050565b6000602082840312156150f457600080fd5b600061510284828501614eac565b91505092915050565b6000806040838503121561511e57600080fd5b600061512c85828601614e97565b925050602061513d85828601614e97565b9150509250929050565b60006020828403121561515957600080fd5b600061516784828501614ec1565b91505092915050565b600061517c838361563a565b60208301905092915050565b61519181615aee565b82525050565b6151a081615a7d565b82525050565b6151af81615a3e565b6151b98184615a61565b92506151c482615a34565b8060005b838110156151f55781516151dc8782615170565b96506151e783615a54565b9250506001810190506151c8565b505050505050565b61520681615a8f565b82525050565b600061521782615a49565b6152218185615a6c565b9350615231818560208601615b24565b61523a81615b57565b840191505092915050565b6000615252601483615a6c565b91507f776974686472617720717565756520656d7074790000000000000000000000006000830152602082019050919050565b6000615292601b83615a6c565b91507f536166654d6174683a206164646974696f6e206f766572666c6f7700000000006000830152602082019050919050565b60006152d2600e83615a6c565b91507f4e6f7420417574686f72697a65640000000000000000000000000000000000006000830152602082019050919050565b6000615312600e83615a6c565b91507f62616c616e6365206578636565640000000000000000000000000000000000006000830152602082019050919050565b6000615352601f83615a6c565b91507f43616c6c207769746864726177416c6c2066756e6374696f6e206669727374006000830152602082019050919050565b6000615392600e83615a6c565b91507f6e6f7420617574686f72697a65640000000000000000000000000000000000006000830152602082019050919050565b60006153d2602183615a6c565b91507f536166654d6174683a206d756c7469706c69636174696f6e206f766572666c6f60008301527f77000000000000000000000000000000000000000000000000000000000000006020830152604082019050919050565b6000615438601483615a6c565b91507f636f696e207472616e73666572206661696c65640000000000000000000000006000830152602082019050919050565b6000615478600983615a6c565b91507f4e6f742076616c696400000000000000000000000000000000000000000000006000830152602082019050919050565b60006154b8601683615a6c565b91507f5472616e73666572204e6f742053756363657366756c000000000000000000006000830152602082019050919050565b60006154f8600783615a6c565b91507f6c6f7720525054000000000000000000000000000000000000000000000000006000830152602082019050919050565b6000615538601e83615a6c565b91507f4e6f7420456e6f7567682042616c616e636520696e2074686520706f6f6c00006000830152602082019050919050565b6000615578601683615a6c565b91507f5472616e73666572206e6f742053756363657366756c000000000000000000006000830152602082019050919050565b60006155b8600583615a6c565b91507f4572726f720000000000000000000000000000000000000000000000000000006000830152602082019050919050565b60006155f8601f83615a6c565b91507f5265656e7472616e637947756172643a207265656e7472616e742063616c6c006000830152602082019050919050565b61563481615a9b565b82525050565b61564381615ad7565b82525050565b61565281615ad7565b82525050565b600060208201905061566d6000830184615197565b92915050565b60006020820190506156886000830184615188565b92915050565b60006060820190506156a36000830186615188565b6156b06020830185615197565b6156bd6040830184615649565b949350505050565b60006040820190506156da6000830185615188565b6156e76020830184615649565b9392505050565b60006060820190506157036000830186615197565b6157106020830185615197565b61571d6040830184615649565b949350505050565b600060408201905061573a6000830185615197565b6157476020830184615649565b9392505050565b600060608201905061576360008301846151a6565b92915050565b600060208201905061577e60008301846151fd565b92915050565b6000602082019050818103600083015261579e818461520c565b905092915050565b600060208201905081810360008301526157bf81615245565b9050919050565b600060208201905081810360008301526157df81615285565b9050919050565b600060208201905081810360008301526157ff816152c5565b9050919050565b6000602082019050818103600083015261581f81615305565b9050919050565b6000602082019050818103600083015261583f81615345565b9050919050565b6000602082019050818103600083015261585f81615385565b9050919050565b6000602082019050818103600083015261587f816153c5565b9050919050565b6000602082019050818103600083015261589f8161542b565b9050919050565b600060208201905081810360008301526158bf8161546b565b9050919050565b600060208201905081810360008301526158df816154ab565b9050919050565b600060208201905081810360008301526158ff816154eb565b9050919050565b6000602082019050818103600083015261591f8161552b565b9050919050565b6000602082019050818103600083015261593f8161556b565b9050919050565b6000602082019050818103600083015261595f816155ab565b9050919050565b6000602082019050818103600083015261597f816155eb565b9050919050565b600060208201905061599b600083018461562b565b92915050565b60006020820190506159b66000830184615649565b92915050565b60006040820190506159d16000830185615649565b6159de6020830184615649565b9392505050565b6000604051905081810181811067ffffffffffffffff82111715615a0857600080fd5b8060405250919050565b600067ffffffffffffffff821115615a2957600080fd5b602082029050919050565b6000819050919050565b600060039050919050565b600081519050919050565b6000602082019050919050565b600081905092915050565b600082825260208201905092915050565b6000615a8882615ab7565b9050919050565b60008115159050919050565b60006fffffffffffffffffffffffffffffffff82169050919050565b600073ffffffffffffffffffffffffffffffffffffffff82169050919050565b6000819050919050565b600060ff82169050919050565b6000615af982615b00565b9050919050565b6000615b0b82615b12565b9050919050565b6000615b1d82615ab7565b9050919050565b60005b83811015615b42578082015181840152602081019050615b27565b83811115615b51576000848401525b50505050565b6000601f19601f8301169050919050565b615b7181615a7d565b8114615b7c57600080fd5b50565b615b8881615a8f565b8114615b9357600080fd5b50565b615b9f81615a9b565b8114615baa57600080fd5b50565b615bb681615ad7565b8114615bc157600080fd5b50565b615bcd81615ae1565b8114615bd857600080fd5b5056fea2646970667358221220440093e3962fb5a4852f980f591176672d117393f29a62ed45b58375332a8cab64736f6c634300060c0033",
  "immutableReferences": {},
  "source": "// SPDX-License-Identifier: UNLICENSED\r\npragma solidity ^0.6.0;\r\npragma experimental ABIEncoderV2;\r\n\r\nimport '@openzeppelin/contracts/math/SafeMath.sol';\r\nimport './RoyaleLPVariables.sol';\r\nimport './ReentrancyGuard.sol';\r\n\r\n\r\ncontract RoyaleLP is RoyaleLPstorage,ReentrancyGuard {\r\n     \r\n  using SafeMath for uint256;\r\n  \r\n    modifier onlyWallet(){\r\n      require(wallet ==msg.sender, \"Not Authorized\");\r\n      _;\r\n    }\r\n  \r\n     modifier validAmount(uint amount){\r\n      require(amount > 0, \"Not valid\");\r\n      _;\r\n    }\r\n\r\n    modifier onlyAuthorized(address _caller) {\r\n        require( _caller == loanContract, \"not authorized\");\r\n        _;\r\n    }\r\n\r\n    // EVENTS \r\n    event userSupplied(address user,uint amount);\r\n\r\n    event userRecieved(address user,uint amount);\r\n\r\n    event userAddedToQ(address user,uint amount);\r\n    \r\n    \r\n    constructor(address[3] memory _tokens,address _rpToken,address _wallet) public {\r\n        uint256 decimal;\r\n        for(uint8 i=0; i<3; i++) {\r\n            tokens[i] = IERC20(_tokens[i]);\r\n            decimal=tokens[i].decimals();\r\n            selfBalance[i]= (10**decimal).mul(1000);\r\n        }\r\n        \r\n        rpToken = IERC20(_rpToken);\r\n        wallet=_wallet;\r\n    }\r\n    \r\n     function transferOwnership(address _wallet) external onlyWallet(){\r\n        wallet =_wallet;\r\n    }\r\n\r\n    /* INTERNAL FUNCTIONS */\r\n\r\n    function checkValidArray(uint256[3] memory amounts)internal pure returns(bool){\r\n        for(uint8 i=0;i<3;i++){\r\n            if(amounts[i]>0){\r\n                return true;\r\n            }\r\n        }\r\n        return false;\r\n    }\r\n\r\n    // functions related to deposit and supply\r\n    \r\n    // This function deposits the fund to Yield Optimizer\r\n    function _deposit(uint256[3] memory amounts) internal {\r\n        curveStrategy.deposit(amounts);\r\n        for(uint8 i=0; i<3; i++) {\r\n            YieldPoolBalance[i] =YieldPoolBalance[i].add(amounts[i]);\r\n        }\r\n    }\r\n   \r\n    //Internal Calculation For User Supply \r\n\r\n    function _supply(uint256 amount,uint256 _index) internal {\r\n        bool result;\r\n        uint256 mintAmount=calcRptAmount(amount,_index);\r\n        result = tokens[_index].transferFrom(msg.sender, address(this), amount);\r\n        require(result, \"coin transfer failed\");\r\n        selfBalance[_index] =selfBalance[_index].add(amount);\r\n        rpToken.mint(msg.sender, mintAmount);\r\n        lockedRPT[msg.sender][_index].push(lockedDetails(now,mintAmount));\r\n        amountSupplied[msg.sender].push(depositDetails(amount ,_index));\r\n    }\r\n\r\n\r\n\r\n    // functions related to withdraw, withdraw queue and withdraw from Yield Optimizer\r\n    function _takeBack(address recipient) internal {\r\n        bool result;\r\n        for(uint8 i=0; i<3; i++) {\r\n            if(amountWithdraw[recipient][i] > 0) {\r\n                uint temp = amountWithdraw[recipient][i].sub((amountWithdraw[recipient][i].mul(fees)).div(DENOMINATOR));\r\n                result = tokens[i].transfer(recipient,  temp);\r\n                require(result,\"Transfer Not Succesful\");\r\n                totalWithdraw[i] =totalWithdraw[i].sub(amountWithdraw[recipient][i]);\r\n                selfBalance[i] = selfBalance[i].sub(temp);\r\n                updateLockedRPT(recipient,amountBurnt[recipient][i],i);\r\n                amountWithdraw[recipient][i] = 0;\r\n                amountBurnt[recipient][i]=0;\r\n            }\r\n        }\r\n        for(uint8 i=0;i<3;i++){\r\n            if(amountBurnt[recipient][i]!=0 && amountWithdraw[recipient][i]!=0){\r\n                rpToken.mint(recipient,amountBurnt[recipient][i]);\r\n            }\r\n            amountBurnt[recipient][i]=0;\r\n            amountWithdraw[recipient][i]=0;\r\n        }\r\n        isInQ[recipient] = false;\r\n        recipientCount -= 1;\r\n    }\r\n\r\n\r\n    // this will fulfill withdraw requests from the queue\r\n    function _giveBack() internal {\r\n        uint32 counter = recipientCount;\r\n        for(uint8 i=0; i<counter; i++) {\r\n            address recipient = getFromQ();\r\n            _takeBack(recipient);\r\n        }\r\n\r\n    }\r\n    \r\n     function updateLockedRPT(address recipient,uint256 amount,uint _index) internal{\r\n        \r\n        for(uint8 j=0; j<lockedRPT[recipient][_index].length; j++) {\r\n             if(lockedRPT[recipient][_index][j].remAmt > 0 && amount > 0) {\r\n                  if(amount >= lockedRPT[recipient][_index][j].remAmt) {\r\n                        amount = amount.sub( lockedRPT[recipient][_index][j].remAmt);\r\n                        lockedRPT[recipient][_index][j].remAmt = 0;\r\n                    }\r\n                    else {\r\n                        lockedRPT[recipient][_index][j].remAmt =(lockedRPT[recipient][_index][j].remAmt).sub(amount);\r\n                        amount = 0;\r\n                    }\r\n                }\r\n            }\r\n    }\r\n\r\n    function checkWithdraw(uint256 amount,uint256 burnAmt,uint _index) internal{\r\n        uint256 poolBalance;\r\n        poolBalance = getBalances(_index);\r\n        rpToken.burn(msg.sender, burnAmt);\r\n        if(amount < poolBalance) {\r\n            bool result;\r\n            uint temp = amount.sub(amount.mul(fees).div(DENOMINATOR));\r\n            selfBalance[_index] =selfBalance[_index].sub(temp);\r\n            result = tokens[_index].transfer(msg.sender, temp);\r\n            require(result,\"Transfer not Succesful\");\r\n            updateLockedRPT(msg.sender,burnAmt,_index);\r\n            emit userRecieved(msg.sender, temp); \r\n         }\r\n         else {\r\n            _takeBackQ(amount,burnAmt,_index);\r\n            emit userAddedToQ(msg.sender, amount);\r\n        }\r\n    }\r\n\r\n\r\n\r\n    // this will add unfulfilled withdraw requests to the queue\r\n    function _takeBackQ(uint256 amount,uint256 _burnAmount,uint256 _index) internal {\r\n        amountWithdraw[msg.sender][_index] =amountWithdraw[msg.sender][_index].add( amount);\r\n        amountBurnt[msg.sender][_index]=amountBurnt[msg.sender][_index].add(_burnAmount);\r\n        totalWithdraw[_index] =totalWithdraw[_index].add(amount);\r\n        if(!isInQ[msg.sender]) {\r\n            recipientCount += 1;\r\n            isInQ[msg.sender] = true;\r\n            addToQ(msg.sender);\r\n        }\r\n\r\n    }\r\n\r\n  \r\n\r\n\r\n    // this will withdraw from Yield Optimizer into this contract\r\n    function _withdraw(uint256[3] memory amounts) internal {\r\n        curveStrategy.withdraw(amounts);\r\n        for(uint8 i=0; i<3; i++) {\r\n            YieldPoolBalance[i] =YieldPoolBalance[i].sub(amounts[i]);\r\n        }\r\n    }\r\n\r\n    //This function calculate RPT to be mint or burn\r\n    function calcRptAmount(uint256 amount,uint _index) public view returns(uint256) {\r\n        uint256 total = 0;\r\n        uint256 decimal = 0;\r\n        uint256 totalSuppliedTokens;\r\n        for(uint8 i=0; i<3; i++) {\r\n            decimal = tokens[i].decimals();\r\n            total =total.add((selfBalance[i].sub(totalWithdraw[i]).add(loanGiven[i])).mul(1e18).div(10**decimal));\r\n            if(i==_index){\r\n                totalSuppliedTokens=totalSuppliedTokens.add(amount.mul(1e18).div(10**decimal));\r\n            }\r\n        }\r\n        return (totalSuppliedTokens.mul(rpToken.totalSupply()).div(total));        \r\n    }\r\n\r\n\r\n\r\n    //function to check available amount to withdraw for user\r\n    function availableLiquidity(address addr, uint coin,bool _time) public view returns(uint256 token,uint256 RPT) {\r\n        uint256 amount=0;\r\n        for(uint8 j=0; j<lockedRPT[addr][coin].length; j++) {\r\n                if( (!_time || (now - lockedRPT[addr][coin][j].time)  > lock_period)&&lockedRPT[addr][coin][j].remAmt >0)   {\r\n                        amount =amount.add(lockedRPT[addr][coin][j].remAmt);\r\n                }\r\n        }\r\n        amount =amount.sub(amountBurnt[addr][coin]);\r\n        uint256 total=0;\r\n        uint256 decimal;\r\n        for(uint8 i=0; i<3; i++) {\r\n            decimal = tokens[i].decimals();\r\n            total =total.add((selfBalance[i].sub(totalWithdraw[i]).add(loanGiven[i])).mul(1e18).div(10**decimal));\r\n        } \r\n        decimal=tokens[coin].decimals();\r\n        return ((amount.mul(total).mul(10**decimal).div(rpToken.totalSupply())).div(10**18),amount);\r\n    }\r\n\r\n\r\n\r\n\r\n    /* USER FUNCTIONS (exposed to frontend) */\r\n   \r\n\r\n    function supply(uint256 amount,uint256 _index) external nonReentrant validAmount(amount){\r\n        _supply(amount,_index);\r\n        emit userSupplied(msg.sender, amount);\r\n    }\r\n    \r\n    \r\n\r\n     function requestWithdraw(uint256 amount,uint256 _index) external nonReentrant validAmount(amount){\r\n        require(amount <selfBalance[_index],\"balance exceed\");\r\n        uint256 burnAmt;\r\n        burnAmt = calcRptAmount(amount,_index);\r\n        require(rpToken.balanceOf(msg.sender) >= burnAmt, \"low RPT\");\r\n        bool checkTime = true;\r\n        (uint256 availableAmount,)=availableLiquidity(msg.sender,_index,true );\r\n        if(availableAmount < amount) {\r\n                    checkTime = false;\r\n        }\r\n        require(checkTime, \"Error\");\r\n        checkWithdraw(amount,burnAmt,_index);\r\n        \r\n    } \r\n    \r\n  \r\n    \r\n    function requestWithdrawWithRPT(uint256 amount,uint256 _index) external nonReentrant validAmount(amount){\r\n         require(rpToken.balanceOf(msg.sender) >= amount, \"low RPT\");\r\n         (,uint availableRPT)=availableLiquidity(msg.sender,_index,true );\r\n        \r\n         if(availableRPT >= amount) {        \r\n            uint256 total = 0;\r\n            uint256 decimal = 0;\r\n            for(uint8 i=0; i<3; i++) {\r\n                decimal = tokens[i].decimals();\r\n                total =total.add((selfBalance[i].sub(totalWithdraw[i]).add(loanGiven[i])).mul(1e18).div(10**decimal));\r\n            }\r\n            uint256 tokenAmount;\r\n            decimal=tokens[_index].decimals();\r\n            tokenAmount=amount.mul(total).mul(10**decimal).div(rpToken.totalSupply()).div(10**18);\r\n            require(tokenAmount <= selfBalance[_index],\"balance exceed\");\r\n            checkWithdraw(tokenAmount,amount,_index);\r\n         }\r\n        \r\n    }\r\n   \r\n    \r\n \r\n    // Following two functions are called by rLoan Only\r\n    function _loanWithdraw(uint256[3] memory amounts, address _loanSeeker) public onlyAuthorized(msg.sender) returns(bool) {\r\n        for(uint8 i=0;i<3;i++){\r\n            require(amounts[i]<=selfBalance[i],\"Not Enough Balance in the pool\");\r\n        }\r\n        uint256 poolBalance;\r\n        uint256[3] memory withdrawAmount;\r\n        \r\n         uint check=0;\r\n         for(uint8 i=0;i<3;i++){\r\n             poolBalance=getBalances(i);\r\n             if(amounts[i]<=poolBalance){\r\n                 withdrawAmount[i]=poolBalance.sub(amounts[i]);\r\n                 check++;\r\n             }\r\n             else{\r\n                 withdrawAmount[i]=amounts[i].sub(poolBalance);\r\n             }\r\n         }\r\n        if(check!=3){\r\n            _withdraw(withdrawAmount);\r\n        }\r\n        for(uint8 i=0; i<3; i++) {\r\n            if(amounts[i] > 0) {\r\n                loanGiven[i] =loanGiven[i].add(amounts[i]);\r\n                selfBalance[i] =selfBalance[i].sub( amounts[i]);\r\n                tokens[i].transfer(_loanSeeker, amounts[i]);\r\n            }\r\n        }\r\n        return true;\r\n    }\r\n\r\n    //Function only called by multisig contract for transfering tokens\r\n    function _loanRepayment(uint256[3] memory amounts, address _loanSeeker) public onlyAuthorized(msg.sender)  returns(bool) {\r\n        for(uint8 i=0; i<3; i++) {\r\n            if(amounts[i] > 0) {\r\n                loanGiven[i] =loanGiven[i].sub(amounts[i]);\r\n                selfBalance[i] =selfBalance[i].add(amounts[i]);\r\n                tokens[i].transferFrom(_loanSeeker, address(this), amounts[i]);\r\n            }\r\n        }\r\n        return true;\r\n    }\r\n\r\n    // this function deposits without minting RPT\r\n    function depsoitInRoyale(uint256[3] calldata amounts) external nonReentrant{\r\n        for(uint8 i=0;i<3;i++){\r\n            if(amounts[i]!=0){\r\n             tokens[i].transferFrom(msg.sender,address(this),amounts[i]);\r\n             selfBalance[i]=selfBalance[i].add(amounts[i]);\r\n            }\r\n        }\r\n    }\r\n\r\n\r\n    /* CORE FUNCTIONS (called by owner only) */\r\n\r\n    //Deposit in the smart backed pool\r\n    function deposit() onlyWallet() external {\r\n        uint256[3] memory amounts;\r\n        uint256 decimal;\r\n        for(uint8 i=0; i<3; i++) {\r\n            amounts[i]=getBalances(i);\r\n            decimal = tokens[i].decimals();\r\n            if(amounts[i] > thresholdTokenAmount.mul(10**decimal)) {\r\n                amounts[i] =amounts[i].add(YieldPoolBalance[i]);\r\n                amounts[i] = amounts[i].mul(DENOMINATOR.sub(poolPart)).div(DENOMINATOR);\r\n                amounts[i] = amounts[i].sub(YieldPoolBalance[i]);\r\n                tokens[i].transfer(address(curveStrategy), amounts[i]);\r\n            }\r\n            else {\r\n                amounts[i] = 0;\r\n            }\r\n        }\r\n        if(checkValidArray(amounts)){\r\n            _deposit(amounts);\r\n        }\r\n    }\r\n\r\n    //Withdraw from Pool\r\n    function withdraw() onlyWallet() external {\r\n        require(checkValidArray(totalWithdraw), \"withdraw queue empty\");\r\n        _withdraw(totalWithdraw);\r\n        _giveBack();\r\n        resetQueue();\r\n    }\r\n\r\n\r\n    function withdrawAll() public onlyWallet() {\r\n        uint[3] memory amounts;\r\n        amounts=curveStrategy.withdrawAll();\r\n        for(uint8 i=0;i<3;i++){\r\n            if(amounts[i]>YieldPoolBalance[i]){\r\n                 selfBalance[i] =selfBalance[i].add(amounts[i].sub(YieldPoolBalance[i]));\r\n            }\r\n            else{\r\n               selfBalance[i] = selfBalance[i].sub(YieldPoolBalance[i].sub(amounts[i]));\r\n            }\r\n            YieldPoolBalance[i]=0;\r\n\r\n        }\r\n    }\r\n\r\n    //function for rebalancing pool(ratio)      \r\n    function rebalance() onlyWallet() external {\r\n        uint256 currentAmount;\r\n        uint256[3] memory amountToWithdraw;\r\n        uint256[3] memory amountToDeposit;\r\n        uint256 decimal;\r\n        for(uint8 i=0;i<3;i++) {\r\n            currentAmount=getBalances(i);\r\n           decimal=tokens[i].decimals();\r\n           uint256 strategyAmount=selfBalance[i].mul(poolPart).div(DENOMINATOR);\r\n           if(strategyAmount > currentAmount) {\r\n              amountToWithdraw[i] = strategyAmount.sub(currentAmount);\r\n              if(amountToWithdraw[i]<(50*(10**decimal))){\r\n                  amountToWithdraw[i]=0;\r\n              }\r\n           }\r\n           else if(strategyAmount < currentAmount) {\r\n               amountToDeposit[i] = currentAmount - strategyAmount;\r\n               if(amountToDeposit[i]<(50*(10**decimal))){\r\n                   amountToDeposit[i]=0;\r\n               }\r\n               else{\r\n                  tokens[i].transfer(address(curveStrategy), amountToDeposit[i]);\r\n               }\r\n           }\r\n           else {\r\n               amountToWithdraw[i] = 0;\r\n               amountToDeposit[i] = 0;\r\n           }\r\n        }\r\n        if(checkValidArray(amountToDeposit)){\r\n             _deposit(amountToDeposit);\r\n             \r\n        }\r\n        if(checkValidArray(amountToWithdraw)) {\r\n            _withdraw(amountToWithdraw);\r\n            \r\n        }\r\n\r\n    }\r\n\r\n\r\n    function getBalances(uint _index) public view returns(uint256) {\r\n        return tokens[_index].balanceOf(address(this));\r\n     }\r\n\r\n    /* ADMIN FUNCTIONS */\r\n    \r\n    function setLoanContract(address _loanContract)external onlyWallet() {\r\n        loanContract=_loanContract;\r\n        \r\n    }\r\n\r\n    function changePoolPart(uint128 _newPoolPart) external onlyWallet()  {\r\n        poolPart = _newPoolPart;\r\n        \r\n    }\r\n\r\n\r\n    function setThresholdTokenAmount(uint256 _newThreshold) external onlyWallet()  {\r\n        thresholdTokenAmount = _newThreshold;\r\n        \r\n    }\r\n\r\n    function changeCurveStrategy(address _strategy) onlyWallet() external  {\r\n        for(uint8 i=0;i<3;i++){\r\n            require(YieldPoolBalance[i]==0, \"Call withdrawAll function first\");\r\n        } \r\n        curveStrategy=rCurveStrategy(_strategy);\r\n        \r\n    }\r\n\r\n    function setLockPeriod(uint256 lockperiod) onlyWallet() external  {\r\n        lock_period = lockperiod;\r\n        \r\n    }\r\n\r\n    function setWithdrawFees(uint128 _fees) onlyWallet() external {\r\n        fees = _fees;\r\n        \r\n    }\r\n    \r\n    function getAmountSuppliedLength(address _address)public view returns(uint256){\r\n        return amountSupplied[_address].length;\r\n    }\r\n    \r\n    function getYourLiquidity(address _address , uint256 _index) public view returns(uint256){\r\n       (uint256 amount,)= availableLiquidity(_address,_index,false);\r\n       return amount;\r\n       \r\n    }\r\n}",
  "sourcePath": "C:/Users/vishn/OneDrive/Desktop/new/New folder/royale-contracts/contracts/Pool/RoyaleLP.sol",
  "compiler": {
    "name": "solc",
    "version": "0.6.12+commit.27d51765.Emscripten.clang"
  },
  "schemaVersion": "3.3.2",
  "updatedAt": "2021-02-09T05:36:32.907Z",
  "devdoc": {
    "kind": "dev",
    "methods": {},
    "version": 1
  },
  "userdoc": {
    "kind": "user",
    "methods": {},
    "version": 1
  }
}