{
  "contractName": "RoyaleLPstorage",
  "abi": [
    {
      "inputs": [],
      "name": "MAX_SIGNEE_COUNT",
      "outputs": [
        {
          "internalType": "uint256",
          "name": "",
          "type": "uint256"
        }
      ],
      "stateMutability": "view",
      "type": "function"
    },
    {
      "inputs": [
        {
          "internalType": "address",
          "name": "",
          "type": "address"
        },
        {
          "internalType": "address",
          "name": "",
          "type": "address"
        }
      ],
      "name": "confirmations",
      "outputs": [
        {
          "internalType": "bool",
          "name": "",
          "type": "bool"
        }
      ],
      "stateMutability": "view",
      "type": "function"
    },
    {
      "inputs": [],
      "name": "counter",
      "outputs": [
        {
          "internalType": "uint256",
          "name": "",
          "type": "uint256"
        }
      ],
      "stateMutability": "view",
      "type": "function"
    },
    {
      "inputs": [],
      "name": "fees",
      "outputs": [
        {
          "internalType": "uint128",
          "name": "",
          "type": "uint128"
        }
      ],
      "stateMutability": "view",
      "type": "function"
    },
    {
      "inputs": [
        {
          "internalType": "address",
          "name": "",
          "type": "address"
        }
      ],
      "name": "isInQ",
      "outputs": [
        {
          "internalType": "bool",
          "name": "",
          "type": "bool"
        }
      ],
      "stateMutability": "view",
      "type": "function"
    },
    {
      "inputs": [
        {
          "internalType": "address",
          "name": "",
          "type": "address"
        }
      ],
      "name": "isSignee",
      "outputs": [
        {
          "internalType": "bool",
          "name": "",
          "type": "bool"
        }
      ],
      "stateMutability": "view",
      "type": "function"
    },
    {
      "inputs": [],
      "name": "owner",
      "outputs": [
        {
          "internalType": "address",
          "name": "",
          "type": "address"
        }
      ],
      "stateMutability": "view",
      "type": "function"
    },
    {
      "inputs": [],
      "name": "ownerAddress",
      "outputs": [
        {
          "internalType": "address",
          "name": "",
          "type": "address"
        }
      ],
      "stateMutability": "view",
      "type": "function"
    },
    {
      "inputs": [],
      "name": "required",
      "outputs": [
        {
          "internalType": "uint256",
          "name": "",
          "type": "uint256"
        }
      ],
      "stateMutability": "view",
      "type": "function"
    },
    {
      "inputs": [],
      "name": "royaleLPContract",
      "outputs": [
        {
          "internalType": "address",
          "name": "",
          "type": "address"
        }
      ],
      "stateMutability": "view",
      "type": "function"
    },
    {
      "inputs": [
        {
          "internalType": "uint256",
          "name": "",
          "type": "uint256"
        }
      ],
      "name": "selfBalance",
      "outputs": [
        {
          "internalType": "uint256",
          "name": "",
          "type": "uint256"
        }
      ],
      "stateMutability": "view",
      "type": "function"
    },
    {
      "inputs": [
        {
          "internalType": "uint256",
          "name": "",
          "type": "uint256"
        }
      ],
      "name": "signees",
      "outputs": [
        {
          "internalType": "address",
          "name": "",
          "type": "address"
        }
      ],
      "stateMutability": "view",
      "type": "function"
    },
    {
      "inputs": [
        {
          "internalType": "uint256",
          "name": "",
          "type": "uint256"
        }
      ],
      "name": "totalWithdraw",
      "outputs": [
        {
          "internalType": "uint256",
          "name": "",
          "type": "uint256"
        }
      ],
      "stateMutability": "view",
      "type": "function"
    },
    {
      "inputs": [],
      "name": "transactionCount",
      "outputs": [
        {
          "internalType": "uint256",
          "name": "",
          "type": "uint256"
        }
      ],
      "stateMutability": "view",
      "type": "function"
    },
    {
      "inputs": [
        {
          "internalType": "address",
          "name": "",
          "type": "address"
        }
      ],
      "name": "transactions",
      "outputs": [
        {
          "internalType": "address",
          "name": "gamingCompany",
          "type": "address"
        },
        {
          "internalType": "bool",
          "name": "isGamingCompanySigned",
          "type": "bool"
        },
        {
          "internalType": "bool",
          "name": "approved",
          "type": "bool"
        },
        {
          "internalType": "bool",
          "name": "executed",
          "type": "bool"
        }
      ],
      "stateMutability": "view",
      "type": "function"
    }
  ],
  "bytecode": "0x60806040526001805560006002556019600460006101000a8154816fffffffffffffffffffffffffffffffff02191690836fffffffffffffffffffffffffffffffff160217905550600e600f60006101000a8154816fffffffffffffffffffffffffffffffff02191690836fffffffffffffffffffffffffffffffff1602179055506000601e5534801561009257600080fd5b50610704806100a26000396000f3fe608060405234801561001057600080fd5b50600436106100f55760003560e01c8063905f692e11610097578063c32fdf3411610066578063c32fdf3414610390578063d80a93d614610419578063db28bfd014610471578063dc8452cd146104b3576100f5565b8063905f692e146102b45780639af1d35a1461030e5780639b83bc4e1461033e578063b77bf60014610372576100f5565b806361bc221a116100d357806361bc221a146101ec578063698504241461020a5780638da5cb5b1461024c5780638f84aa0914610280576100f5565b80630385b581146100fa5780631880432a14610154578063554fd17114610172575b600080fd5b61013c6004803603602081101561011057600080fd5b81019080803573ffffffffffffffffffffffffffffffffffffffff1690602001909291905050506104d1565b60405180821515815260200191505060405180910390f35b61015c6104f1565b6040518082815260200191505060405180910390f35b6101d46004803603604081101561018857600080fd5b81019080803573ffffffffffffffffffffffffffffffffffffffff169060200190929190803573ffffffffffffffffffffffffffffffffffffffff1690602001909291905050506104f6565b60405180821515815260200191505060405180910390f35b6101f4610525565b6040518082815260200191505060405180910390f35b6102366004803603602081101561022057600080fd5b810190808035906020019092919050505061052b565b6040518082815260200191505060405180910390f35b610254610543565b604051808273ffffffffffffffffffffffffffffffffffffffff16815260200191505060405180910390f35b610288610569565b604051808273ffffffffffffffffffffffffffffffffffffffff16815260200191505060405180910390f35b6102f6600480360360208110156102ca57600080fd5b81019080803573ffffffffffffffffffffffffffffffffffffffff16906020019092919050505061058f565b60405180821515815260200191505060405180910390f35b6103166105af565b60405180826fffffffffffffffffffffffffffffffff16815260200191505060405180910390f35b6103466105d1565b604051808273ffffffffffffffffffffffffffffffffffffffff16815260200191505060405180910390f35b61037a6105f7565b6040518082815260200191505060405180910390f35b6103d2600480360360208110156103a657600080fd5b81019080803573ffffffffffffffffffffffffffffffffffffffff1690602001909291905050506105fd565b604051808573ffffffffffffffffffffffffffffffffffffffff16815260200184151581526020018315158152602001821515815260200194505050505060405180910390f35b6104456004803603602081101561042f57600080fd5b8101908080359060200190929190505050610674565b604051808273ffffffffffffffffffffffffffffffffffffffff16815260200191505060405180910390f35b61049d6004803603602081101561048757600080fd5b81019080803590602001909291905050506106b0565b6040518082815260200191505060405180910390f35b6104bb6106c8565b6040518082815260200191505060405180910390f35b601c6020528060005260406000206000915054906101000a900460ff1681565b603281565b601a6020528160005260406000206020528060005260406000206000915091509054906101000a900460ff1681565b60205481565b6005816003811061053857fe5b016000915090505481565b600860009054906101000a900473ffffffffffffffffffffffffffffffffffffffff1681565b602160009054906101000a900473ffffffffffffffffffffffffffffffffffffffff1681565b60146020528060005260406000206000915054906101000a900460ff1681565b600460009054906101000a90046fffffffffffffffffffffffffffffffff1681565b602260009054906101000a900473ffffffffffffffffffffffffffffffffffffffff1681565b601e5481565b60196020528060005260406000206000915090508060000160009054906101000a900473ffffffffffffffffffffffffffffffffffffffff16908060000160149054906101000a900460ff16908060070160009054906101000a900460ff16908060070160019054906101000a900460ff16905084565b601d818154811061068157fe5b906000526020600020016000915054906101000a900473ffffffffffffffffffffffffffffffffffffffff1681565b601681600381106106bd57fe5b016000915090505481565b601f548156fea264697066735822122011c05cde53a6feb5fddd2218ae12c71039afb8f9bc7bd3b0eccaf7285f67ca2464736f6c634300060c0033",
  "immutableReferences": {},
  "source": "// SPDX-License-Identifier: UNLICENSED\r\npragma solidity ^0.6.0;\r\n\r\nimport './Erc20Interface.sol';\r\nimport './CurveInterface.sol';\r\n\r\ncontract WithdrawQueue {\r\n    mapping(uint256 => address) withdrawQ;\r\n    uint256 first = 1;\r\n    uint256 last = 0;\r\n    address data;\r\n\r\n    function addToQ(address addr) internal {\r\n        last += 1;\r\n        withdrawQ[last] = addr;\r\n    }\r\n\r\n    function getFromQ() internal returns(address) {\r\n        require(last >= first);\r\n\r\n        data = withdrawQ[first];\r\n\r\n        delete withdrawQ[first];\r\n        first += 1;\r\n\r\n        return data;\r\n    }\r\n}\r\n\r\ncontract RoyaleLPstorage  is WithdrawQueue {\r\n\r\n    uint128 constant N_COINS = 3;\r\n\r\n    uint128 public fees = 25;\r\n\r\n    uint256[N_COINS] public selfBalance;\r\n\r\n    address public owner;\r\n    curvePool Pool;\r\n    Erc20[N_COINS] tokens;\r\n    Erc20 PoolToken;\r\n    Erc20 rpToken;\r\n\r\n    // Lock period in days\r\n    uint128 lock_period = 14;\r\n\r\n    struct depositDetails {\r\n        uint256[N_COINS] amount;\r\n        uint256 time;\r\n    }\r\n\r\n    mapping(address => bool) hasSupplied;\r\n    mapping(address => uint256[N_COINS]) amountSupplied;\r\n    mapping(address => depositDetails[]) supplyTime;\r\n\r\n    mapping(address => uint256[N_COINS]) amountWithdraw;\r\n    mapping(address => bool) public isInQ;\r\n    uint32 recipientCount;\r\n    uint256[N_COINS] public totalWithdraw;\r\n\r\n    /* MULTISIG STORAGE */\r\n\r\n    uint constant public MAX_SIGNEE_COUNT = 50;\r\n    \r\n    mapping(address => Transaction) public transactions;\r\n    mapping(address => mapping (address => bool)) public confirmations;\r\n    mapping(address => mapping(uint256 => Repayment)) gamingCompanyRepayment;\r\n    mapping(address => bool) public isSignee; // isSignee\r\n    address[] public signees;\r\n    uint256 public transactionCount = 0;\r\n    uint256 public required;\r\n    \r\n    uint256 public counter;\r\n    address public ownerAddress;\r\n    \r\n    address public royaleLPContract;\r\n\r\n    struct Transaction {\r\n        address gamingCompany;\r\n        bool isGamingCompanySigned;\r\n        uint256[N_COINS] tokenAmounts;\r\n        uint256[N_COINS] remAmt;\r\n        bool approved;\r\n        bool executed;\r\n    }\r\n\r\n    struct Repayment {\r\n        uint256 transactionID;\r\n        bool isRepaymentDone;\r\n        uint256[N_COINS] remainingTokenAmounts;\r\n    }\r\n}",
  "sourcePath": "C:\\Users\\MayankVats\\Desktop\\WORK\\blockchain\\Royale\\royale-contracts\\contracts\\RoyaleLPstorage.sol",
  "compiler": {
    "name": "solc",
    "version": "0.6.12+commit.27d51765.Emscripten.clang"
  },
  "schemaVersion": "3.3.2",
  "updatedAt": "2020-12-03T07:30:37.867Z",
  "devdoc": {
    "kind": "dev",
    "methods": {},
    "version": 1
  },
  "userdoc": {
    "kind": "user",
    "methods": {},
    "version": 1
  }
}