{
  "contractName": "RoyaleLP",
  "abi": [
    {
      "inputs": [
        {
          "internalType": "address",
          "name": "_pool",
          "type": "address"
        },
        {
          "internalType": "address[3]",
          "name": "_tokens",
          "type": "address[3]"
        },
        {
          "internalType": "address",
          "name": "_poolToken",
          "type": "address"
        },
        {
          "internalType": "address",
          "name": "_rpToken",
          "type": "address"
        }
      ],
      "stateMutability": "nonpayable",
      "type": "constructor"
    },
    {
      "inputs": [],
      "name": "BONE",
      "outputs": [
        {
          "internalType": "uint256",
          "name": "",
          "type": "uint256"
        }
      ],
      "stateMutability": "view",
      "type": "function"
    },
    {
      "inputs": [],
      "name": "BPOW_PRECISION",
      "outputs": [
        {
          "internalType": "uint256",
          "name": "",
          "type": "uint256"
        }
      ],
      "stateMutability": "view",
      "type": "function"
    },
    {
      "inputs": [],
      "name": "MAX_BPOW_BASE",
      "outputs": [
        {
          "internalType": "uint256",
          "name": "",
          "type": "uint256"
        }
      ],
      "stateMutability": "view",
      "type": "function"
    },
    {
      "inputs": [],
      "name": "MAX_SIGNEE_COUNT",
      "outputs": [
        {
          "internalType": "uint256",
          "name": "",
          "type": "uint256"
        }
      ],
      "stateMutability": "view",
      "type": "function"
    },
    {
      "inputs": [],
      "name": "MIN_BPOW_BASE",
      "outputs": [
        {
          "internalType": "uint256",
          "name": "",
          "type": "uint256"
        }
      ],
      "stateMutability": "view",
      "type": "function"
    },
    {
      "inputs": [
        {
          "internalType": "address",
          "name": "signee",
          "type": "address"
        }
      ],
      "name": "addSignee",
      "outputs": [],
      "stateMutability": "nonpayable",
      "type": "function"
    },
    {
      "inputs": [
        {
          "internalType": "address",
          "name": "addr",
          "type": "address"
        }
      ],
      "name": "checkLoanApproved",
      "outputs": [
        {
          "internalType": "bool",
          "name": "",
          "type": "bool"
        }
      ],
      "stateMutability": "view",
      "type": "function"
    },
    {
      "inputs": [
        {
          "internalType": "address",
          "name": "addr",
          "type": "address"
        }
      ],
      "name": "confirmLoan",
      "outputs": [],
      "stateMutability": "nonpayable",
      "type": "function"
    },
    {
      "inputs": [
        {
          "internalType": "address",
          "name": "",
          "type": "address"
        },
        {
          "internalType": "address",
          "name": "",
          "type": "address"
        }
      ],
      "name": "confirmations",
      "outputs": [
        {
          "internalType": "bool",
          "name": "",
          "type": "bool"
        }
      ],
      "stateMutability": "view",
      "type": "function"
    },
    {
      "inputs": [],
      "name": "counter",
      "outputs": [
        {
          "internalType": "uint256",
          "name": "",
          "type": "uint256"
        }
      ],
      "stateMutability": "view",
      "type": "function"
    },
    {
      "inputs": [],
      "name": "fees",
      "outputs": [
        {
          "internalType": "uint128",
          "name": "",
          "type": "uint128"
        }
      ],
      "stateMutability": "view",
      "type": "function"
    },
    {
      "inputs": [
        {
          "internalType": "address",
          "name": "addr",
          "type": "address"
        }
      ],
      "name": "getTransactionDetail",
      "outputs": [
        {
          "components": [
            {
              "internalType": "address",
              "name": "gamingCompany",
              "type": "address"
            },
            {
              "internalType": "bool",
              "name": "isGamingCompanySigned",
              "type": "bool"
            },
            {
              "internalType": "uint256[3]",
              "name": "tokenAmounts",
              "type": "uint256[3]"
            },
            {
              "internalType": "uint256[3]",
              "name": "remAmt",
              "type": "uint256[3]"
            },
            {
              "internalType": "bool",
              "name": "approved",
              "type": "bool"
            },
            {
              "internalType": "bool",
              "name": "executed",
              "type": "bool"
            }
          ],
          "internalType": "struct RoyaleLPstorage.Transaction",
          "name": "",
          "type": "tuple"
        }
      ],
      "stateMutability": "view",
      "type": "function"
    },
    {
      "inputs": [
        {
          "internalType": "address",
          "name": "",
          "type": "address"
        }
      ],
      "name": "isInQ",
      "outputs": [
        {
          "internalType": "bool",
          "name": "",
          "type": "bool"
        }
      ],
      "stateMutability": "view",
      "type": "function"
    },
    {
      "inputs": [
        {
          "internalType": "address",
          "name": "",
          "type": "address"
        }
      ],
      "name": "isSignee",
      "outputs": [
        {
          "internalType": "bool",
          "name": "",
          "type": "bool"
        }
      ],
      "stateMutability": "view",
      "type": "function"
    },
    {
      "inputs": [],
      "name": "owner",
      "outputs": [
        {
          "internalType": "address",
          "name": "",
          "type": "address"
        }
      ],
      "stateMutability": "view",
      "type": "function"
    },
    {
      "inputs": [],
      "name": "ownerAddress",
      "outputs": [
        {
          "internalType": "address",
          "name": "",
          "type": "address"
        }
      ],
      "stateMutability": "view",
      "type": "function"
    },
    {
      "inputs": [
        {
          "internalType": "address",
          "name": "signee",
          "type": "address"
        }
      ],
      "name": "removeSignee",
      "outputs": [],
      "stateMutability": "nonpayable",
      "type": "function"
    },
    {
      "inputs": [
        {
          "internalType": "uint256[3]",
          "name": "amounts",
          "type": "uint256[3]"
        }
      ],
      "name": "requestLoan",
      "outputs": [],
      "stateMutability": "nonpayable",
      "type": "function"
    },
    {
      "inputs": [],
      "name": "required",
      "outputs": [
        {
          "internalType": "uint256",
          "name": "",
          "type": "uint256"
        }
      ],
      "stateMutability": "view",
      "type": "function"
    },
    {
      "inputs": [],
      "name": "royaleLPContract",
      "outputs": [
        {
          "internalType": "address",
          "name": "",
          "type": "address"
        }
      ],
      "stateMutability": "view",
      "type": "function"
    },
    {
      "inputs": [
        {
          "internalType": "uint256",
          "name": "",
          "type": "uint256"
        }
      ],
      "name": "selfBalance",
      "outputs": [
        {
          "internalType": "uint256",
          "name": "",
          "type": "uint256"
        }
      ],
      "stateMutability": "view",
      "type": "function"
    },
    {
      "inputs": [
        {
          "internalType": "uint256",
          "name": "_required",
          "type": "uint256"
        }
      ],
      "name": "setRequiredSignee",
      "outputs": [],
      "stateMutability": "nonpayable",
      "type": "function"
    },
    {
      "inputs": [],
      "name": "signTransaction",
      "outputs": [],
      "stateMutability": "nonpayable",
      "type": "function"
    },
    {
      "inputs": [
        {
          "internalType": "uint256",
          "name": "",
          "type": "uint256"
        }
      ],
      "name": "signees",
      "outputs": [
        {
          "internalType": "address",
          "name": "",
          "type": "address"
        }
      ],
      "stateMutability": "view",
      "type": "function"
    },
    {
      "inputs": [
        {
          "internalType": "uint256",
          "name": "",
          "type": "uint256"
        }
      ],
      "name": "totalWithdraw",
      "outputs": [
        {
          "internalType": "uint256",
          "name": "",
          "type": "uint256"
        }
      ],
      "stateMutability": "view",
      "type": "function"
    },
    {
      "inputs": [],
      "name": "transactionCount",
      "outputs": [
        {
          "internalType": "uint256",
          "name": "",
          "type": "uint256"
        }
      ],
      "stateMutability": "view",
      "type": "function"
    },
    {
      "inputs": [
        {
          "internalType": "address",
          "name": "",
          "type": "address"
        }
      ],
      "name": "transactions",
      "outputs": [
        {
          "internalType": "address",
          "name": "gamingCompany",
          "type": "address"
        },
        {
          "internalType": "bool",
          "name": "isGamingCompanySigned",
          "type": "bool"
        },
        {
          "internalType": "bool",
          "name": "approved",
          "type": "bool"
        },
        {
          "internalType": "bool",
          "name": "executed",
          "type": "bool"
        }
      ],
      "stateMutability": "view",
      "type": "function"
    },
    {
      "inputs": [
        {
          "internalType": "uint256[3]",
          "name": "amounts",
          "type": "uint256[3]"
        }
      ],
      "name": "supply",
      "outputs": [],
      "stateMutability": "nonpayable",
      "type": "function"
    },
    {
      "inputs": [
        {
          "internalType": "uint256[3]",
          "name": "amounts",
          "type": "uint256[3]"
        }
      ],
      "name": "requestWithdraw",
      "outputs": [],
      "stateMutability": "nonpayable",
      "type": "function"
    },
    {
      "inputs": [
        {
          "internalType": "uint256[3]",
          "name": "amounts",
          "type": "uint256[3]"
        }
      ],
      "name": "checkMintAmount",
      "outputs": [
        {
          "internalType": "uint256",
          "name": "",
          "type": "uint256"
        }
      ],
      "stateMutability": "view",
      "type": "function"
    },
    {
      "inputs": [
        {
          "internalType": "uint256[3]",
          "name": "amounts",
          "type": "uint256[3]"
        }
      ],
      "name": "checkBurnAmount",
      "outputs": [
        {
          "internalType": "uint256",
          "name": "",
          "type": "uint256"
        }
      ],
      "stateMutability": "view",
      "type": "function"
    },
    {
      "inputs": [
        {
          "internalType": "uint256[3]",
          "name": "amounts",
          "type": "uint256[3]"
        }
      ],
      "name": "withdrawLoan",
      "outputs": [],
      "stateMutability": "nonpayable",
      "type": "function"
    },
    {
      "inputs": [],
      "name": "setInitialDeposit",
      "outputs": [],
      "stateMutability": "nonpayable",
      "type": "function"
    },
    {
      "inputs": [],
      "name": "deposit",
      "outputs": [],
      "stateMutability": "nonpayable",
      "type": "function"
    },
    {
      "inputs": [],
      "name": "withdraw",
      "outputs": [],
      "stateMutability": "nonpayable",
      "type": "function"
    }
  ],
  "bytecode": "0x60806040526001805560006002556019600460006101000a8154816fffffffffffffffffffffffffffffffff02191690836fffffffffffffffffffffffffffffffff160217905550600e600f60006101000a8154816fffffffffffffffffffffffffffffffff02191690836fffffffffffffffffffffffffffffffff1602179055506000601e553480156200009357600080fd5b5060405162004d2338038062004d238339818101604052810190620000b99190620002f2565b83600960006101000a81548173ffffffffffffffffffffffffffffffffffffffff021916908373ffffffffffffffffffffffffffffffffffffffff16021790555060005b60036fffffffffffffffffffffffffffffffff168160ff1610156200018f57838160ff16600381106200012c57fe5b6020020151600a8260ff16600381106200014257fe5b0160006101000a81548173ffffffffffffffffffffffffffffffffffffffff021916908373ffffffffffffffffffffffffffffffffffffffff1602179055508080600101915050620000fd565b5081600d60006101000a81548173ffffffffffffffffffffffffffffffffffffffff021916908373ffffffffffffffffffffffffffffffffffffffff16021790555080600e60006101000a81548173ffffffffffffffffffffffffffffffffffffffff021916908373ffffffffffffffffffffffffffffffffffffffff16021790555033600860006101000a81548173ffffffffffffffffffffffffffffffffffffffff021916908373ffffffffffffffffffffffffffffffffffffffff16021790555050505050620003fd565b6000815190506200026e81620003e3565b92915050565b600082601f8301126200028657600080fd5b60036200029d62000297826200038c565b6200035e565b91508183856020840282011115620002b457600080fd5b60005b83811015620002e85781620002cd88826200025d565b845260208401935060208301925050600181019050620002b7565b5050505092915050565b60008060008060c085870312156200030957600080fd5b600062000319878288016200025d565b94505060206200032c8782880162000274565b93505060806200033f878288016200025d565b92505060a062000352878288016200025d565b91505092959194509250565b6000604051905081810181811067ffffffffffffffff821117156200038257600080fd5b8060405250919050565b600067ffffffffffffffff821115620003a457600080fd5b602082029050919050565b6000620003bc82620003c3565b9050919050565b600073ffffffffffffffffffffffffffffffffffffffff82169050919050565b620003ee81620003af565b8114620003fa57600080fd5b50565b614916806200040d6000396000f3fe608060405234801561001057600080fd5b50600436106102115760003560e01c8063905f692e11610125578063bc694ea2116100ad578063d80a93d61161007c578063d80a93d6146105cf578063da412b4d146105ff578063db28bfd01461062f578063dc8452cd1461065f578063e20658691461067d57610211565b8063bc694ea214610556578063c32fdf3414610574578063c36596a6146105a7578063d0e30db0146105c557610211565b80639b83bc4e116100f45780639b83bc4e146104c4578063a3069149146104e2578063b0580ce9146104fe578063b77bf6001461051a578063ba019dab1461053857610211565b8063905f692e1461042a578063948af9ac1461045a5780639af1d35a1461048a5780639b364162146104a857610211565b8063554fd171116101a85780636985042411610177578063698504241461035e5780636d45bae21461038e5780638a409d11146103be5780638da5cb5b146103ee5780638f84aa091461040c57610211565b8063554fd171146102ea57806361bc221a1461031a57806362a945d11461033857806367b142fc1461035457610211565b8063189d00ca116101e4578063189d00ca1461029c5780633ccfd60b146102ba57806347d4a6a8146102c457806352f6e238146102e057610211565b80630385b581146102165780630d88122c146102465780630f8cdd88146102625780631880432a1461027e575b600080fd5b610230600480360381019061022b9190613e77565b610699565b60405161023d91906145c7565b60405180910390f35b610260600480360381019061025b9190613edc565b6106b9565b005b61027c60048036038101906102779190613e77565b610780565b005b610286610898565b6040516102939190614779565b60405180910390f35b6102a461089d565b6040516102b19190614779565b60405180910390f35b6102c26108b7565b005b6102de60048036038101906102d99190613edc565b610961565b005b6102e8610ff7565b005b61030460048036038101906102ff9190613ea0565b61106c565b60405161031191906145c7565b60405180910390f35b61032261109b565b60405161032f9190614779565b60405180910390f35b610352600480360381019061034d9190613edc565b6110a1565b005b61035c61112e565b005b61037860048036038101906103739190613f2e565b611225565b6040516103859190614779565b60405180910390f35b6103a860048036038101906103a39190613e77565b61123d565b6040516103b591906145c7565b60405180910390f35b6103d860048036038101906103d39190613edc565b611296565b6040516103e59190614779565b60405180910390f35b6103f66112e6565b6040516104039190614471565b60405180910390f35b61041461130c565b6040516104219190614471565b60405180910390f35b610444600480360381019061043f9190613e77565b611332565b60405161045191906145c7565b60405180910390f35b610474600480360381019061046f9190613e77565b611352565b6040516104819190614742565b60405180910390f35b6104926114dc565b60405161049f919061475e565b60405180910390f35b6104c260048036038101906104bd9190613e77565b6114fe565b005b6104cc6116f5565b6040516104d99190614471565b60405180910390f35b6104fc60048036038101906104f79190613e77565b61171b565b005b61051860048036038101906105139190613f2e565b611959565b005b6105226119a0565b60405161052f9190614779565b60405180910390f35b6105406119a6565b60405161054d9190614779565b60405180910390f35b61055e6119ab565b60405161056b9190614779565b60405180910390f35b61058e60048036038101906105899190613e77565b6119bd565b60405161059e9493929190614507565b60405180910390f35b6105af611a34565b6040516105bc9190614779565b60405180910390f35b6105cd611a40565b005b6105e960048036038101906105e49190613f2e565b611c14565b6040516105f69190614471565b60405180910390f35b61061960048036038101906106149190613edc565b611c50565b6040516106269190614779565b60405180910390f35b61064960048036038101906106449190613f2e565b611ca0565b6040516106569190614779565b60405180910390f35b610667611cb8565b6040516106749190614779565b60405180910390f35b61069760048036038101906106929190613edc565b611cbe565b005b601c6020528060005260406000206000915054906101000a900460ff1681565b60006106fd826003806020026040519081016040528092919082600360200280828437600081840152601f19601f8201169050808301925050505050506000612193565b1161073d576040517f08c379a000000000000000000000000000000000000000000000000000000000815260040161073490614622565b60405180910390fd5b61077d816003806020026040519081016040528092919082600360200280828437600081840152601f19601f8201169050808301925050505050506123eb565b50565b600860009054906101000a900473ffffffffffffffffffffffffffffffffffffffff1673ffffffffffffffffffffffffffffffffffffffff163373ffffffffffffffffffffffffffffffffffffffff16146107da57600080fd5b6001601c60008373ffffffffffffffffffffffffffffffffffffffff1673ffffffffffffffffffffffffffffffffffffffff16815260200190815260200160002060006101000a81548160ff021916908315150217905550601d819080600181540180825580915050600190039060005260206000200160009091909190916101000a81548173ffffffffffffffffffffffffffffffffffffffff021916908373ffffffffffffffffffffffffffffffffffffffff16021790555050565b603281565b6402540be400670de0b6b3a7640000816108b357fe5b0481565b600860009054906101000a900473ffffffffffffffffffffffffffffffffffffffff1673ffffffffffffffffffffffffffffffffffffffff163373ffffffffffffffffffffffffffffffffffffffff161461091157600080fd5b610957601660038060200260405190810160405280929190826003801561094d576020028201915b815481526020019060010190808311610939575b505050505061270c565b61095f61296e565b565b60006109a5826003806020026040519081016040528092919082600360200280828437600081840152601f19601f8201169050808301925050505050506000612193565b116109e5576040517f08c379a00000000000000000000000000000000000000000000000000000000081526004016109dc906146a2565b60405180910390fd5b6109ed613c64565b6109f56129c0565b90506109ff613c64565b6000600190506000600190506000610a4f866003806020026040519081016040528092919082600360200280828437600081840152601f19601f8201169050808301925050505050506001612193565b905080600e60009054906101000a900473ffffffffffffffffffffffffffffffffffffffff1673ffffffffffffffffffffffffffffffffffffffff166370a08231336040518263ffffffff1660e01b8152600401610aad919061448c565b60206040518083038186803b158015610ac557600080fd5b505afa158015610ad9573d6000803e3d6000fd5b505050506040513d601f19601f82011682018060405250810190610afd9190613f57565b1015610b3e576040517f08c379a0000000000000000000000000000000000000000000000000000000008152600401610b35906145e2565b60405180910390fd5b60005b60036fffffffffffffffffffffffffffffffff168160ff161015610d10576000878260ff1660038110610b7057fe5b60200201351115610d035760005b601260003373ffffffffffffffffffffffffffffffffffffffff1673ffffffffffffffffffffffffffffffffffffffff168152602001908152602001600020805490508160ff161015610cce576000601260003373ffffffffffffffffffffffffffffffffffffffff1673ffffffffffffffffffffffffffffffffffffffff1681526020019081526020016000208260ff1681548110610c1a57fe5b90600052602060002090600402016003015442031115610cc157601260003373ffffffffffffffffffffffffffffffffffffffff1673ffffffffffffffffffffffffffffffffffffffff1681526020019081526020016000208160ff1681548110610c8157fe5b90600052602060002090600402016000018260ff1660038110610ca057fe5b0154868360ff1660038110610cb157fe5b6020020181815101915081815250505b8080600101915050610b7e565b50868160ff1660038110610cde57fe5b6020020135858260ff1660038110610cf257fe5b60200201511015610d0257600093505b5b8080600101915050610b41565b5082610d51576040517f08c379a0000000000000000000000000000000000000000000000000000000008152600401610d4890614722565b60405180910390fd5b60005b60036fffffffffffffffffffffffffffffffff168160ff161015610db257858160ff1660038110610d8157fe5b6020020151878260ff1660038110610d9557fe5b60200201351115610da557600092505b8080600101915050610d54565b508115610fae57600e60009054906101000a900473ffffffffffffffffffffffffffffffffffffffff1673ffffffffffffffffffffffffffffffffffffffff16639dc29fac33836040518363ffffffff1660e01b8152600401610e169291906144de565b600060405180830381600087803b158015610e3057600080fd5b505af1158015610e44573d6000803e3d6000fd5b50505050600080600090505b60036fffffffffffffffffffffffffffffffff168160ff161015610fa7576000888260ff1660038110610e7f57fe5b60200201351115610f9a57600a8160ff1660038110610e9a57fe5b0160009054906101000a900473ffffffffffffffffffffffffffffffffffffffff1673ffffffffffffffffffffffffffffffffffffffff1663a9059cbb338a8460ff1660038110610ee757fe5b60200201356040518363ffffffff1660e01b8152600401610f099291906144de565b602060405180830381600087803b158015610f2357600080fd5b505af1158015610f37573d6000803e3d6000fd5b505050506040513d601f19601f82011682018060405250810190610f5b9190613f05565b915081610f6757600080fd5b878160ff1660038110610f7657fe5b602002013560058260ff1660038110610f8b57fe5b01600082825403925050819055505b8080600101915050610e50565b5050610fef565b610fee866003806020026040519081016040528092919082600360200280828437600081840152601f19601f820116905080830192505050505050612ad8565b5b505050505050565b600860009054906101000a900473ffffffffffffffffffffffffffffffffffffffff1673ffffffffffffffffffffffffffffffffffffffff163373ffffffffffffffffffffffffffffffffffffffff161461105157600080fd5b6110596129c0565b6005906003611069929190613c86565b50565b601a6020528160005260406000206020528060005260406000206000915091509054906101000a900460ff1681565b60205481565b601f54601d8054905010156110eb576040517f08c379a00000000000000000000000000000000000000000000000000000000081526004016110e2906146c2565b60405180910390fd5b61112b816003806020026040519081016040528092919082600360200280828437600081840152601f19601f820116905080830192505050505050612ca7565b50565b3373ffffffffffffffffffffffffffffffffffffffff16601960003373ffffffffffffffffffffffffffffffffffffffff1673ffffffffffffffffffffffffffffffffffffffff16815260200190815260200160002060000160009054906101000a900473ffffffffffffffffffffffffffffffffffffffff1673ffffffffffffffffffffffffffffffffffffffff16146111c857600080fd5b6001601960003373ffffffffffffffffffffffffffffffffffffffff1673ffffffffffffffffffffffffffffffffffffffff16815260200190815260200160002060000160146101000a81548160ff021916908315150217905550565b6005816003811061123257fe5b016000915090505481565b6000601960008373ffffffffffffffffffffffffffffffffffffffff1673ffffffffffffffffffffffffffffffffffffffff16815260200190815260200160002060070160009054906101000a900460ff169050919050565b6000806112db836003806020026040519081016040528092919082600360200280828437600081840152601f19601f8201169050808301925050505050506001612193565b905080915050919050565b600860009054906101000a900473ffffffffffffffffffffffffffffffffffffffff1681565b602160009054906101000a900473ffffffffffffffffffffffffffffffffffffffff1681565b60146020528060005260406000206000915054906101000a900460ff1681565b61135a613cc6565b601960008373ffffffffffffffffffffffffffffffffffffffff1673ffffffffffffffffffffffffffffffffffffffff1681526020019081526020016000206040518060c00160405290816000820160009054906101000a900473ffffffffffffffffffffffffffffffffffffffff1673ffffffffffffffffffffffffffffffffffffffff1673ffffffffffffffffffffffffffffffffffffffff1681526020016000820160149054906101000a900460ff1615151515815260200160018201600380602002604051908101604052809291908260038015611451576020028201915b81548152602001906001019080831161143d575b5050505050815260200160048201600380602002604051908101604052809291908260038015611496576020028201915b815481526020019060010190808311611482575b505050505081526020016007820160009054906101000a900460ff161515151581526020016007820160019054906101000a900460ff1615151515815250509050919050565b600460009054906101000a90046fffffffffffffffffffffffffffffffff1681565b80601c60008273ffffffffffffffffffffffffffffffffffffffff1673ffffffffffffffffffffffffffffffffffffffff16815260200190815260200160002060009054906101000a900460ff1661155557600080fd5b6000601c60008473ffffffffffffffffffffffffffffffffffffffff1673ffffffffffffffffffffffffffffffffffffffff16815260200190815260200160002060006101000a81548160ff02191690831515021790555060005b6001601d80549050038110156116d2578273ffffffffffffffffffffffffffffffffffffffff16601d82815481106115e457fe5b9060005260206000200160009054906101000a900473ffffffffffffffffffffffffffffffffffffffff1673ffffffffffffffffffffffffffffffffffffffff1614156116c557601d6001601d80549050038154811061164057fe5b9060005260206000200160009054906101000a900473ffffffffffffffffffffffffffffffffffffffff16601d828154811061167857fe5b9060005260206000200160006101000a81548173ffffffffffffffffffffffffffffffffffffffff021916908373ffffffffffffffffffffffffffffffffffffffff1602179055506116d2565b80806001019150506115b0565b50601d80549050601f5411156116f1576116f0601d80549050611959565b5b5050565b602260009054906101000a900473ffffffffffffffffffffffffffffffffffffffff1681565b33601c60008273ffffffffffffffffffffffffffffffffffffffff1673ffffffffffffffffffffffffffffffffffffffff16815260200190815260200160002060009054906101000a900460ff1661177257600080fd5b81600073ffffffffffffffffffffffffffffffffffffffff16601960008373ffffffffffffffffffffffffffffffffffffffff1673ffffffffffffffffffffffffffffffffffffffff16815260200190815260200160002060000160009054906101000a900473ffffffffffffffffffffffffffffffffffffffff1673ffffffffffffffffffffffffffffffffffffffff16141561180f57600080fd5b8233601a60008373ffffffffffffffffffffffffffffffffffffffff1673ffffffffffffffffffffffffffffffffffffffff16815260200190815260200160002060008273ffffffffffffffffffffffffffffffffffffffff1673ffffffffffffffffffffffffffffffffffffffff16815260200190815260200160002060009054906101000a900460ff16156118a557600080fd5b6001601a60008773ffffffffffffffffffffffffffffffffffffffff1673ffffffffffffffffffffffffffffffffffffffff16815260200190815260200160002060003373ffffffffffffffffffffffffffffffffffffffff1673ffffffffffffffffffffffffffffffffffffffff16815260200190815260200160002060006101000a81548160ff02191690831515021790555061194385612e29565b156119525761195185612f8f565b5b5050505050565b601d8054905081603282111580156119715750818111155b801561197e575060008114155b801561198b575060008214155b61199457600080fd5b82601f81905550505050565b601e5481565b600181565b6001670de0b6b3a76400006002020381565b60196020528060005260406000206000915090508060000160009054906101000a900473ffffffffffffffffffffffffffffffffffffffff16908060000160149054906101000a900460ff16908060070160009054906101000a900460ff16908060070160019054906101000a900460ff16905084565b670de0b6b3a764000081565b600860009054906101000a900473ffffffffffffffffffffffffffffffffffffffff1673ffffffffffffffffffffffffffffffffffffffff163373ffffffffffffffffffffffffffffffffffffffff1614611a9a57600080fd5b611aa2613c64565b611aaa6129c0565b905060005b60036fffffffffffffffffffffffffffffffff168160ff161015611c07576064605f838360ff1660038110611ae057fe5b60200201510281611aed57fe5b04828260ff1660038110611afd57fe5b602002018181525050600a8160ff1660038110611b1657fe5b0160009054906101000a900473ffffffffffffffffffffffffffffffffffffffff1673ffffffffffffffffffffffffffffffffffffffff1663095ea7b3600960009054906101000a900473ffffffffffffffffffffffffffffffffffffffff16848460ff1660038110611b8557fe5b60200201516040518363ffffffff1660e01b8152600401611ba792919061454c565b602060405180830381600087803b158015611bc157600080fd5b505af1158015611bd5573d6000803e3d6000fd5b505050506040513d601f19601f82011682018060405250810190611bf99190613f05565b508080600101915050611aaf565b50611c1181613080565b50565b601d8181548110611c2157fe5b906000526020600020016000915054906101000a900473ffffffffffffffffffffffffffffffffffffffff1681565b600080611c95836003806020026040519081016040528092919082600360200280828437600081840152601f19601f8201169050808301925050505050506000612193565b905080915050919050565b60168160038110611cad57fe5b016000915090505481565b601f5481565b3373ffffffffffffffffffffffffffffffffffffffff16601960003373ffffffffffffffffffffffffffffffffffffffff1673ffffffffffffffffffffffffffffffffffffffff16815260200190815260200160002060000160009054906101000a900473ffffffffffffffffffffffffffffffffffffffff1673ffffffffffffffffffffffffffffffffffffffff1614611d8e576040517f08c379a0000000000000000000000000000000000000000000000000000000008152600401611d8590614602565b60405180910390fd5b601960003373ffffffffffffffffffffffffffffffffffffffff1673ffffffffffffffffffffffffffffffffffffffff16815260200190815260200160002060070160009054906101000a900460ff16611e1d576040517f08c379a0000000000000000000000000000000000000000000000000000000008152600401611e1490614642565b60405180910390fd5b60005b60036fffffffffffffffffffffffffffffffff168160ff161015611ef257818160ff1660038110611e4d57fe5b6020020135601960003373ffffffffffffffffffffffffffffffffffffffff1673ffffffffffffffffffffffffffffffffffffffff1681526020019081526020016000206004018260ff1660038110611ea257fe5b01541015611ee5576040517f08c379a0000000000000000000000000000000000000000000000000000000008152600401611edc90614702565b60405180910390fd5b8080600101915050611e20565b50611f33816003806020026040519081016040528092919082600360200280828437600081840152601f19601f82011690508083019250505050505061270c565b6000805b60036fffffffffffffffffffffffffffffffff168160ff161015612126576000838260ff1660038110611f6657fe5b602002013511156120b657600a8160ff1660038110611f8157fe5b0160009054906101000a900473ffffffffffffffffffffffffffffffffffffffff1673ffffffffffffffffffffffffffffffffffffffff1663a9059cbb33858460ff1660038110611fce57fe5b60200201356040518363ffffffff1660e01b8152600401611ff09291906144de565b602060405180830381600087803b15801561200a57600080fd5b505af115801561201e573d6000803e3d6000fd5b505050506040513d601f19601f820116820180604052508101906120429190613f05565b50828160ff166003811061205257fe5b6020020135601960003373ffffffffffffffffffffffffffffffffffffffff1673ffffffffffffffffffffffffffffffffffffffff1681526020019081526020016000206004018260ff16600381106120a757fe5b01600082825403925050819055505b6000601960003373ffffffffffffffffffffffffffffffffffffffff1673ffffffffffffffffffffffffffffffffffffffff1681526020019081526020016000206004018260ff166003811061210857fe5b015414156121195781806001019250505b8080600101915050611f37565b5060038160ff16141561218f576001601960003373ffffffffffffffffffffffffffffffffffffffff1673ffffffffffffffffffffffffffffffffffffffff16815260200190815260200160002060070160016101000a81548160ff0219169083151502179055505b5050565b60008060008060008061224d600e60009054906101000a900473ffffffffffffffffffffffffffffffffffffffff1673ffffffffffffffffffffffffffffffffffffffff166318160ddd6040518163ffffffff1660e01b815260040160206040518083038186803b15801561220757600080fd5b505afa15801561221b573d6000803e3d6000fd5b505050506040513d601f19601f8201168201806040525081019061223f9190613f57565b670de0b6b3a76400006131d5565b905060005b60036fffffffffffffffffffffffffffffffff168160ff16101561237757600a8160ff166003811061228057fe5b0160009054906101000a900473ffffffffffffffffffffffffffffffffffffffff1673ffffffffffffffffffffffffffffffffffffffff1663313ce5676040518163ffffffff1660e01b815260040160206040518083038186803b1580156122e757600080fd5b505afa1580156122fb573d6000803e3d6000fd5b505050506040513d601f19601f8201168201806040525081019061231f9190613f80565b60ff16935061234260058260ff166003811061233757fe5b015485600a0a6131d5565b85019450612366898260ff166003811061235857fe5b602002015185600a0a6131d5565b830192508080600101915050612252565b5061238b61238583866131d5565b826132f5565b94506001151587151514156123dd57612710600460009054906101000a90046fffffffffffffffffffffffffffffffff166fffffffffffffffffffffffffffffffff168602816123d757fe5b04850194505b849550505050505092915050565b60006123f8826000612193565b9050600080600090505b60036fffffffffffffffffffffffffffffffff168160ff1610156125ca576000848260ff166003811061243157fe5b602002015111156125bd57600a8160ff166003811061244c57fe5b0160009054906101000a900473ffffffffffffffffffffffffffffffffffffffff1673ffffffffffffffffffffffffffffffffffffffff166323b872dd3330878560ff166003811061249a57fe5b60200201516040518463ffffffff1660e01b81526004016124bd939291906144a7565b602060405180830381600087803b1580156124d757600080fd5b505af11580156124eb573d6000803e3d6000fd5b505050506040513d601f19601f8201168201806040525081019061250f9190613f05565b91508161251b57600080fd5b838160ff166003811061252a57fe5b602002015160058260ff166003811061253f57fe5b0160008282540192505081905550838160ff166003811061255c57fe5b6020020151601160003373ffffffffffffffffffffffffffffffffffffffff1673ffffffffffffffffffffffffffffffffffffffff1681526020019081526020016000208260ff16600381106125ae57fe5b01600082825401925050819055505b8080600101915050612402565b50600e60009054906101000a900473ffffffffffffffffffffffffffffffffffffffff1673ffffffffffffffffffffffffffffffffffffffff166340c10f1933846040518363ffffffff1660e01b81526004016126289291906144de565b600060405180830381600087803b15801561264257600080fd5b505af1158015612656573d6000803e3d6000fd5b50505050612662613d24565b6040518060400160405280858152602001428152509050601260003373ffffffffffffffffffffffffffffffffffffffff1673ffffffffffffffffffffffffffffffffffffffff1681526020019081526020016000208190806001815401808255809150506001900390600052602060002090600402016000909190919091506000820151816000019060036126f9929190613c86565b5060208201518160030155505050505050565b6000806000805b60036fffffffffffffffffffffffffffffffff168160ff16101561281957600a8160ff166003811061274157fe5b0160009054906101000a900473ffffffffffffffffffffffffffffffffffffffff1673ffffffffffffffffffffffffffffffffffffffff1663313ce5676040518163ffffffff1660e01b815260040160206040518083038186803b1580156127a857600080fd5b505afa1580156127bc573d6000803e3d6000fd5b505050506040513d601f19601f820116820180604052508101906127e09190613f80565b60ff16925082600a0a858260ff16600381106127f857fe5b60200201518161280457fe5b04915081840193508080600101915050612713565b506064600284028161282757fe5b0483019250600d60009054906101000a900473ffffffffffffffffffffffffffffffffffffffff1673ffffffffffffffffffffffffffffffffffffffff1663313ce5676040518163ffffffff1660e01b815260040160206040518083038186803b15801561289457600080fd5b505afa1580156128a8573d6000803e3d6000fd5b505050506040513d601f19601f820116820180604052508101906128cc9190613f80565b60ff16915081600a0a83029250600960009054906101000a900473ffffffffffffffffffffffffffffffffffffffff1673ffffffffffffffffffffffffffffffffffffffff16639fdaea0c85856040518363ffffffff1660e01b815260040161293692919061459e565b600060405180830381600087803b15801561295057600080fd5b505af1158015612964573d6000803e3d6000fd5b5050505050505050565b6000601560009054906101000a900463ffffffff16905060005b8163ffffffff168160ff1610156129bc5760006129a36133d1565b90506129ae816134c8565b508080600101915050612988565b5050565b6129c8613c64565b6129d0613c64565b60005b60036fffffffffffffffffffffffffffffffff168160ff161015612ad057600a8160ff1660038110612a0157fe5b0160009054906101000a900473ffffffffffffffffffffffffffffffffffffffff1673ffffffffffffffffffffffffffffffffffffffff166370a08231306040518263ffffffff1660e01b8152600401612a5b9190614471565b60206040518083038186803b158015612a7357600080fd5b505afa158015612a87573d6000803e3d6000fd5b505050506040513d601f19601f82011682018060405250810190612aab9190613f57565b828260ff1660038110612aba57fe5b60200201818152505080806001019150506129d3565b508091505090565b60005b60036fffffffffffffffffffffffffffffffff16811015612bb2576000828260038110612b0457fe5b60200201511115612ba557818160038110612b1b57fe5b6020020151601360003373ffffffffffffffffffffffffffffffffffffffff1673ffffffffffffffffffffffffffffffffffffffff1681526020019081526020016000208260038110612b6a57fe5b0160008282540192505081905550818160038110612b8457fe5b602002015160168260038110612b9657fe5b01600082825401925050819055505b8080600101915050612adb565b5060011515601460003373ffffffffffffffffffffffffffffffffffffffff1673ffffffffffffffffffffffffffffffffffffffff16815260200190815260200160002060009054906101000a900460ff16151514612ca4576001601560008282829054906101000a900463ffffffff160192506101000a81548163ffffffff021916908363ffffffff1602179055506001601460003373ffffffffffffffffffffffffffffffffffffffff1673ffffffffffffffffffffffffffffffffffffffff16815260200190815260200160002060006101000a81548160ff021916908315150217905550612ca333613bfd565b5b50565b612caf613c64565b6040518060c001604052803373ffffffffffffffffffffffffffffffffffffffff16815260200160001515815260200183815260200182815260200160001515815260200160001515815250601960003373ffffffffffffffffffffffffffffffffffffffff1673ffffffffffffffffffffffffffffffffffffffff16815260200190815260200160002060008201518160000160006101000a81548173ffffffffffffffffffffffffffffffffffffffff021916908373ffffffffffffffffffffffffffffffffffffffff16021790555060208201518160000160146101000a81548160ff021916908315150217905550604082015181600101906003612db8929190613c86565b50606082015181600401906003612dd0929190613c86565b5060808201518160070160006101000a81548160ff02191690831515021790555060a08201518160070160016101000a81548160ff0219169083151502179055509050506001601e600082825401925050819055505050565b6000806000905060005b601d80549050811015612f8757601a60008573ffffffffffffffffffffffffffffffffffffffff1673ffffffffffffffffffffffffffffffffffffffff1681526020019081526020016000206000601d8381548110612e8e57fe5b9060005260206000200160009054906101000a900473ffffffffffffffffffffffffffffffffffffffff1673ffffffffffffffffffffffffffffffffffffffff1673ffffffffffffffffffffffffffffffffffffffff16815260200190815260200160002060009054906101000a900460ff1615612f0d576001820191505b601f5482148015612f6a5750601960008573ffffffffffffffffffffffffffffffffffffffff1673ffffffffffffffffffffffffffffffffffffffff16815260200190815260200160002060000160149054906101000a900460ff165b15612f7a57600192505050612f8a565b8080600101915050612e33565b50505b919050565b6001601960008373ffffffffffffffffffffffffffffffffffffffff1673ffffffffffffffffffffffffffffffffffffffff16815260200190815260200160002060070160006101000a81548160ff021916908315150217905550601960008273ffffffffffffffffffffffffffffffffffffffff1673ffffffffffffffffffffffffffffffffffffffff168152602001908152602001600020600101601960008373ffffffffffffffffffffffffffffffffffffffff1673ffffffffffffffffffffffffffffffffffffffff16815260200190815260200160002060040190600361307c929190613d44565b5050565b6000600960009054906101000a900473ffffffffffffffffffffffffffffffffffffffff1673ffffffffffffffffffffffffffffffffffffffff16633883e1198360016040518363ffffffff1660e01b81526004016130e0929190614575565b60206040518083038186803b1580156130f857600080fd5b505afa15801561310c573d6000803e3d6000fd5b505050506040513d601f19601f820116820180604052508101906131309190613f57565b90506064816063028161313f57fe5b049050600960009054906101000a900473ffffffffffffffffffffffffffffffffffffffff1673ffffffffffffffffffffffffffffffffffffffff16634515cef383836040518363ffffffff1660e01b815260040161319f92919061459e565b600060405180830381600087803b1580156131b957600080fd5b505af11580156131cd573d6000803e3d6000fd5b505050505050565b60008082141561321a576040517f08c379a0000000000000000000000000000000000000000000000000000000008152600401613211906146e2565b60405180910390fd5b6000670de0b6b3a76400008402905060008414806132485750670de0b6b3a764000084828161324557fe5b04145b613287576040517f08c379a000000000000000000000000000000000000000000000000000000000815260040161327e90614662565b60405180910390fd5b60006002848161329357fe5b0482019050818110156132db576040517f08c379a00000000000000000000000000000000000000000000000000000000081526004016132d290614662565b60405180910390fd5b60008482816132e657fe5b04905080935050505092915050565b6000808284029050600084148061331457508284828161331157fe5b04145b613353576040517f08c379a000000000000000000000000000000000000000000000000000000000815260040161334a90614682565b60405180910390fd5b60006002670de0b6b3a76400008161336757fe5b0482019050818110156133af576040517f08c379a00000000000000000000000000000000000000000000000000000000081526004016133a690614682565b60405180910390fd5b6000670de0b6b3a764000082816133c257fe5b04905080935050505092915050565b600060015460025410156133e457600080fd5b600080600154815260200190815260200160002060009054906101000a900473ffffffffffffffffffffffffffffffffffffffff16600360006101000a81548173ffffffffffffffffffffffffffffffffffffffff021916908373ffffffffffffffffffffffffffffffffffffffff160217905550600080600154815260200190815260200160002060006101000a81549073ffffffffffffffffffffffffffffffffffffffff021916905560018060008282540192505081905550600360009054906101000a900473ffffffffffffffffffffffffffffffffffffffff16905090565b600080613550601360008573ffffffffffffffffffffffffffffffffffffffff1673ffffffffffffffffffffffffffffffffffffffff168152602001908152602001600020600380602002604051908101604052809291908260038015613544576020028201915b815481526020019060010190808311613530575b50505050506001612193565b9050600e60009054906101000a900473ffffffffffffffffffffffffffffffffffffffff1673ffffffffffffffffffffffffffffffffffffffff16639dc29fac84836040518363ffffffff1660e01b81526004016135af92919061454c565b600060405180830381600087803b1580156135c957600080fd5b505af11580156135dd573d6000803e3d6000fd5b5050505060005b60036fffffffffffffffffffffffffffffffff168160ff161015613a40576000601360008673ffffffffffffffffffffffffffffffffffffffff1673ffffffffffffffffffffffffffffffffffffffff1681526020019081526020016000208260ff166003811061365157fe5b01541180156136ae57506000601160008673ffffffffffffffffffffffffffffffffffffffff1673ffffffffffffffffffffffffffffffffffffffff1681526020019081526020016000208260ff16600381106136aa57fe5b0154115b15613a3357600a8160ff16600381106136c357fe5b0160009054906101000a900473ffffffffffffffffffffffffffffffffffffffff1673ffffffffffffffffffffffffffffffffffffffff1663a9059cbb85601360008873ffffffffffffffffffffffffffffffffffffffff1673ffffffffffffffffffffffffffffffffffffffff1681526020019081526020016000208460ff166003811061374e57fe5b01546040518363ffffffff1660e01b815260040161376d92919061454c565b602060405180830381600087803b15801561378757600080fd5b505af115801561379b573d6000803e3d6000fd5b505050506040513d601f19601f820116820180604052508101906137bf9190613f05565b9250826137cb57600080fd5b601360008573ffffffffffffffffffffffffffffffffffffffff1673ffffffffffffffffffffffffffffffffffffffff1681526020019081526020016000208160ff166003811061381857fe5b0154601160008673ffffffffffffffffffffffffffffffffffffffff1673ffffffffffffffffffffffffffffffffffffffff1681526020019081526020016000208260ff166003811061386757fe5b0160008282540392505081905550601360008573ffffffffffffffffffffffffffffffffffffffff1673ffffffffffffffffffffffffffffffffffffffff1681526020019081526020016000208160ff16600381106138c257fe5b015460168260ff16600381106138d457fe5b0160008282540392505081905550601360008573ffffffffffffffffffffffffffffffffffffffff1673ffffffffffffffffffffffffffffffffffffffff1681526020019081526020016000208160ff166003811061392f57fe5b015460058260ff166003811061394157fe5b01600082825403925050819055506000601360008673ffffffffffffffffffffffffffffffffffffffff1673ffffffffffffffffffffffffffffffffffffffff1681526020019081526020016000208260ff166003811061399e57fe5b01819055506000601460008673ffffffffffffffffffffffffffffffffffffffff1673ffffffffffffffffffffffffffffffffffffffff16815260200190815260200160002060006101000a81548160ff0219169083151502179055506001601560008282829054906101000a900463ffffffff160392506101000a81548163ffffffff021916908363ffffffff1602179055505b80806001019150506135e4565b5060005b6001601260008673ffffffffffffffffffffffffffffffffffffffff1673ffffffffffffffffffffffffffffffffffffffff16815260200190815260200160002080549050038160ff161015613b7e57601260008573ffffffffffffffffffffffffffffffffffffffff1673ffffffffffffffffffffffffffffffffffffffff1681526020019081526020016000206001820160ff1681548110613ae457fe5b9060005260206000209060040201601260008673ffffffffffffffffffffffffffffffffffffffff1673ffffffffffffffffffffffffffffffffffffffff1681526020019081526020016000208260ff1681548110613b3f57fe5b90600052602060002090600402016000820181600001906003613b63929190613d81565b50600382015481600301559050508080600101915050613a44565b50601260008473ffffffffffffffffffffffffffffffffffffffff1673ffffffffffffffffffffffffffffffffffffffff168152602001908152602001600020805480613bc757fe5b600190038181906000526020600020906004020160008082016000613bec9190613dbe565b600382016000905550509055505050565b600160026000828254019250508190555080600080600254815260200190815260200160002060006101000a81548173ffffffffffffffffffffffffffffffffffffffff021916908373ffffffffffffffffffffffffffffffffffffffff16021790555050565b6040518060600160405280600390602082028036833780820191505090505090565b8260038101928215613cb5579160200282015b82811115613cb4578251825591602001919060010190613c99565b5b509050613cc29190613dd3565b5090565b6040518060c00160405280600073ffffffffffffffffffffffffffffffffffffffff168152602001600015158152602001613cff613c64565b8152602001613d0c613c64565b81526020016000151581526020016000151581525090565b6040518060400160405280613d37613c64565b8152602001600081525090565b8260038101928215613d70579182015b82811115613d6f578254825591600101919060010190613d54565b5b509050613d7d9190613dd3565b5090565b8260038101928215613dad579182015b82811115613dac578254825591600101919060010190613d91565b5b509050613dba9190613dd3565b5090565b50600081556001016000815560010160009055565b5b80821115613dec576000816000905550600101613dd4565b5090565b600081359050613dff81614884565b92915050565b600081905082602060030282011115613e1d57600080fd5b92915050565b600081519050613e328161489b565b92915050565b600081359050613e47816148b2565b92915050565b600081519050613e5c816148b2565b92915050565b600081519050613e71816148c9565b92915050565b600060208284031215613e8957600080fd5b6000613e9784828501613df0565b91505092915050565b60008060408385031215613eb357600080fd5b6000613ec185828601613df0565b9250506020613ed285828601613df0565b9150509250929050565b600060608284031215613eee57600080fd5b6000613efc84828501613e05565b91505092915050565b600060208284031215613f1757600080fd5b6000613f2584828501613e23565b91505092915050565b600060208284031215613f4057600080fd5b6000613f4e84828501613e38565b91505092915050565b600060208284031215613f6957600080fd5b6000613f7784828501613e4d565b91505092915050565b600060208284031215613f9257600080fd5b6000613fa084828501613e62565b91505092915050565b6000613fb58383614453565b60208301905092915050565b613fca8161484e565b82525050565b613fd9816147dd565b82525050565b613fe8816147dd565b82525050565b613ff78161479e565b61400181846147b6565b925061400c82614794565b8060005b8381101561403d5781516140248782613fa9565b965061402f836147a9565b925050600181019050614010565b505050505050565b61404e8161479e565b61405881846147c1565b925061406382614794565b8060005b8381101561409457815161407b8782613fa9565b9650614086836147a9565b925050600181019050614067565b505050505050565b6140a5816147ef565b82525050565b6140b4816147ef565b82525050565b60006140c76010836147cc565b91507f496e73756666696369656e7420525054000000000000000000000000000000006000830152602082019050919050565b60006141076011836147cc565b91507f636f6d70616e79206e6f742d65786973740000000000000000000000000000006000830152602082019050919050565b6000614147601e836147cc565b91507f746f6b656e7320737570706c6965642063616e6e6f74206265207a65726f00006000830152602082019050919050565b60006141876015836147cc565b91507f6e6f7420617070726f76656420666f72206c6f616e00000000000000000000006000830152602082019050919050565b60006141c76010836147cc565b91507f4552525f4449565f494e5445524e414c000000000000000000000000000000006000830152602082019050919050565b60006142076010836147cc565b91507f4552525f4d554c5f4f564552464c4f57000000000000000000000000000000006000830152602082019050919050565b6000614247601f836147cc565b91507f746f6b656e73207265717565737465642063616e6e6f74206265207a65726f006000830152602082019050919050565b6000614287601e836147cc565b91507f7369676e65657320617265206c657373207468616e20726571756972656400006000830152602082019050919050565b60006142c7600c836147cc565b91507f4552525f4449565f5a45524f00000000000000000000000000000000000000006000830152602082019050919050565b60006143076028836147cc565b91507f616d6f756e7420726571756573746564206578636565647320616d6f756e742060008301527f617070726f7665640000000000000000000000000000000000000000000000006020830152604082019050919050565b600061436d6022836147cc565b91507f63616e6e6f74207769746864726177206265666f7265206c6f636b207065726960008301527f6f640000000000000000000000000000000000000000000000000000000000006020830152604082019050919050565b610140820160008201516143dd6000850182613fd0565b5060208201516143f0602085018261409c565b5060408201516144036040850182613fee565b50606082015161441660a0850182613fee565b50608082015161442a61010085018261409c565b5060a082015161443e61012085018261409c565b50505050565b61444d816147fb565b82525050565b61445c81614837565b82525050565b61446b81614837565b82525050565b60006020820190506144866000830184613fdf565b92915050565b60006020820190506144a16000830184613fc1565b92915050565b60006060820190506144bc6000830186613fc1565b6144c96020830185613fdf565b6144d66040830184614462565b949350505050565b60006040820190506144f36000830185613fc1565b6145006020830184614462565b9392505050565b600060808201905061451c6000830187613fdf565b61452960208301866140ab565b61453660408301856140ab565b61454360608301846140ab565b95945050505050565b60006040820190506145616000830185613fdf565b61456e6020830184614462565b9392505050565b600060808201905061458a6000830185614045565b61459760608301846140ab565b9392505050565b60006080820190506145b36000830185614045565b6145c06060830184614462565b9392505050565b60006020820190506145dc60008301846140ab565b92915050565b600060208201905081810360008301526145fb816140ba565b9050919050565b6000602082019050818103600083015261461b816140fa565b9050919050565b6000602082019050818103600083015261463b8161413a565b9050919050565b6000602082019050818103600083015261465b8161417a565b9050919050565b6000602082019050818103600083015261467b816141ba565b9050919050565b6000602082019050818103600083015261469b816141fa565b9050919050565b600060208201905081810360008301526146bb8161423a565b9050919050565b600060208201905081810360008301526146db8161427a565b9050919050565b600060208201905081810360008301526146fb816142ba565b9050919050565b6000602082019050818103600083015261471b816142fa565b9050919050565b6000602082019050818103600083015261473b81614360565b9050919050565b60006101408201905061475860008301846143c6565b92915050565b60006020820190506147736000830184614444565b92915050565b600060208201905061478e6000830184614462565b92915050565b6000819050919050565b600060039050919050565b6000602082019050919050565b600081905092915050565b600081905092915050565b600082825260208201905092915050565b60006147e882614817565b9050919050565b60008115159050919050565b60006fffffffffffffffffffffffffffffffff82169050919050565b600073ffffffffffffffffffffffffffffffffffffffff82169050919050565b6000819050919050565b600060ff82169050919050565b600061485982614860565b9050919050565b600061486b82614872565b9050919050565b600061487d82614817565b9050919050565b61488d816147dd565b811461489857600080fd5b50565b6148a4816147ef565b81146148af57600080fd5b50565b6148bb81614837565b81146148c657600080fd5b50565b6148d281614841565b81146148dd57600080fd5b5056fea264697066735822122000a08580adb55f1bf3ba42f403a232b7d211008671a0960f91d6ff1843230a2264736f6c634300060c0033",
  "immutableReferences": {},
  "source": "// SPDX-License-Identifier: UNLICENSED\r\npragma solidity ^0.6.0;\r\npragma experimental ABIEncoderV2;\r\n\r\nimport './MathLib.sol';\r\n\r\nimport './Erc20Interface.sol';\r\nimport './CurveInterface.sol';\r\nimport './RoyaleLPstorage.sol';\r\nimport './MultiSig.sol';\r\n\r\ncontract RoyaleLP is RoyaleLPstorage, multiSig, BNum {\r\n\r\n    constructor(\r\n        address _pool, \r\n        address[N_COINS] memory _tokens,\r\n        address _poolToken,\r\n        address _rpToken\r\n    ) public {\r\n        // Set Curve Pool\r\n        Pool = curvePool(_pool);\r\n\r\n        // Set Tokens supported by Curve Pool\r\n        for(uint8 i=0; i<N_COINS; i++) {\r\n            tokens[i] = Erc20(_tokens[i]);\r\n        }\r\n\r\n        // Set pool Token\r\n        PoolToken = Erc20(_poolToken);\r\n\r\n        // Set RPT\r\n        rpToken = Erc20(_rpToken);\r\n\r\n        // Set owner\r\n        owner = msg.sender;\r\n    }\r\n    \r\n    /* INTERNAL FUNCTIONS */\r\n\r\n    function _getBalances() internal view returns(uint256[N_COINS] memory) {\r\n        uint256[N_COINS] memory balances;\r\n\r\n        for(uint8 i=0; i<N_COINS; i++) {\r\n            balances[i] = tokens[i].balanceOf(address(this));\r\n        }\r\n\r\n        return balances;\r\n    }\r\n\r\n    function _calcRptAmount(uint256[N_COINS] memory amounts, bool burn) internal view returns(uint256) {\r\n        uint256 rptAmt;\r\n        uint256 total = 0;\r\n        uint256 decimal = 0;\r\n        uint256 totalSuppliedTokens;\r\n        uint256 totalRPTSupply;\r\n\r\n        totalRPTSupply = bdiv(rpToken.totalSupply(), 10**18);\r\n        \r\n        for(uint8 i=0; i<N_COINS; i++) {\r\n            decimal = tokens[i].decimals();\r\n            total += bdiv(selfBalance[i], 10**decimal);\r\n            totalSuppliedTokens += bdiv(amounts[i], 10**decimal);\r\n        }\r\n\r\n        rptAmt = bmul(bdiv(totalSuppliedTokens, total), totalRPTSupply);\r\n\r\n        if(burn == true) {\r\n            rptAmt = rptAmt + (rptAmt * fees) / 10000;\r\n        }\r\n\r\n        return rptAmt;\r\n    }\r\n\r\n    // functions related to deposit and supply\r\n\r\n    // This function deposits the fund to 3POOL\r\n    function _deposit(uint256[N_COINS] memory amounts) internal {\r\n        uint mintAmount = Pool.calc_token_amount(amounts, true);\r\n        mintAmount = (99 * mintAmount) / 100;\r\n        Pool.add_liquidity(amounts, mintAmount);\r\n    }\r\n\r\n    function _supply(uint256[N_COINS] memory amounts) internal {\r\n        uint256 mintTokens;        \r\n        mintTokens = _calcRptAmount(amounts, false);    \r\n        \r\n        bool result;\r\n        for(uint8 i=0; i<N_COINS; i++) {\r\n            if(amounts[i] > 0) {\r\n                result = tokens[i].transferFrom(\r\n                    msg.sender, \r\n                    address(this), \r\n                    amounts[i]\r\n                );\r\n                require(result);\r\n                selfBalance[i] += amounts[i];\r\n                amountSupplied[msg.sender][i] += amounts[i];\r\n            }\r\n        }\r\n    \r\n        // rpToken.mint(msg.sender, mintTokens * 10**10);\r\n        rpToken.mint(msg.sender, mintTokens);\r\n\r\n        depositDetails memory d = depositDetails(amounts, now);\r\n        supplyTime[msg.sender].push(d);\r\n    }\r\n\r\n    // functions related to withdraw, withdraw queue and withdraw from curve pool\r\n\r\n    function _takeBack(address recipient) internal {\r\n        bool result;\r\n\r\n        uint256 burnAmt;\r\n\r\n        burnAmt = _calcRptAmount(amountWithdraw[recipient], true);\r\n        rpToken.burn(recipient, burnAmt);\r\n\r\n        for(uint8 i=0; i<N_COINS; i++) {\r\n            if(\r\n                amountWithdraw[recipient][i] > 0 \r\n                && \r\n                amountSupplied[recipient][i] > 0\r\n            ) {\r\n                result = tokens[i].transfer(\r\n                    recipient,  \r\n                    amountWithdraw[recipient][i]\r\n                );\r\n                require(result);\r\n\r\n                amountSupplied[recipient][i] -= amountWithdraw[recipient][i];\r\n                totalWithdraw[i] -= amountWithdraw[recipient][i];\r\n                selfBalance[i] -= amountWithdraw[recipient][i];\r\n                amountWithdraw[recipient][i] = 0;\r\n\r\n                isInQ[recipient] = false;\r\n                recipientCount -= 1;\r\n            }\r\n        }\r\n\r\n        for(uint8 i=0; i<supplyTime[recipient].length - 1; i++) {\r\n            supplyTime[recipient][i] = supplyTime[recipient][i+1];\r\n        }\r\n        supplyTime[recipient].pop();\r\n    }\r\n\r\n    // this will fulfill withdraw requests from the queue\r\n    function _giveBack() internal {\r\n        \r\n        uint32 counter = recipientCount;\r\n        for(uint8 i=0; i<counter; i++) {\r\n            address recipient = getFromQ();\r\n            _takeBack(recipient);\r\n        }\r\n\r\n    }\r\n\r\n    // this will add unfulfilled withdraw requests to the queue\r\n    function _takeBackQ(uint256[N_COINS] memory amounts) internal {\r\n        \r\n        for(uint256 i=0; i<N_COINS; i++) {\r\n            if(amounts[i] > 0) {\r\n                amountWithdraw[msg.sender][i] += amounts[i];\r\n                totalWithdraw[i] += amounts[i];\r\n            }\r\n        }\r\n\r\n        if(isInQ[msg.sender] != true) {\r\n            recipientCount += 1;\r\n            isInQ[msg.sender] = true;\r\n            addToQ(msg.sender);\r\n        }\r\n\r\n    }\r\n\r\n    // this will withdraw from curve pool into this contract\r\n    function _withdraw(uint256[N_COINS] memory amounts) internal {\r\n        uint256 max_burn = 0;\r\n        uint256 decimal = 0;\r\n        uint256 _temp = 0;\r\n\r\n        for(uint8 i=0; i<N_COINS; i++) {\r\n            decimal = tokens[i].decimals();\r\n            _temp = amounts[i] / 10**decimal;\r\n            max_burn = max_burn + _temp;\r\n        }\r\n\r\n        max_burn = max_burn + (max_burn * 2) / 100;\r\n        decimal = PoolToken.decimals();\r\n        max_burn = max_burn * 10**decimal;\r\n\r\n        Pool.remove_liquidity_imbalance(amounts, max_burn);\r\n    }\r\n\r\n    /* USER FUNCTIONS (exposed to frontend) */\r\n\r\n    function supply(uint256[N_COINS] calldata amounts) external {\r\n        require(\r\n            _calcRptAmount(amounts, false) > 0,\r\n            \"tokens supplied cannot be zero\"\r\n        );\r\n        \r\n        _supply(amounts);\r\n    }\r\n\r\n    function requestWithdraw(uint256[N_COINS] calldata amounts) external {\r\n        require(\r\n            _calcRptAmount(amounts, false) > 0,\r\n            \"tokens requested cannot be zero\"\r\n        );\r\n\r\n        uint256[N_COINS] memory poolBalance;\r\n        poolBalance = _getBalances();\r\n\r\n        uint256[N_COINS] memory availableWithdraw;\r\n        \r\n        bool checkTime = true;\r\n        bool instant = true;\r\n\r\n        uint256 burnAmt;\r\n        burnAmt = _calcRptAmount(amounts, true);\r\n        require(\r\n            rpToken.balanceOf(msg.sender) >= burnAmt, \r\n            \"Insufficient RPT\"\r\n        );\r\n        \r\n        \r\n        // check if user is withdrawing before lock period\r\n        for(uint8 i=0; i<N_COINS; i++) {\r\n            if(amounts[i] > 0) {\r\n                for(uint8 j=0; j<supplyTime[msg.sender].length; j++) {\r\n                    if(\r\n                        (now - supplyTime[msg.sender][j].time) \r\n                        > \r\n                        (0) // (24 * 60 * 60 * lock_period)\r\n                    ) {\r\n                        availableWithdraw[i] += supplyTime[msg.sender][j].amount[i];\r\n                    }\r\n                }\r\n\r\n                if(availableWithdraw[i] < amounts[i]) {\r\n                    checkTime = false;\r\n                }\r\n            }\r\n        }\r\n        require(checkTime, \"cannot withdraw before lock period\");\r\n\r\n        // check if instant withdraw\r\n        for(uint8 i=0; i<N_COINS; i++) {\r\n            if(amounts[i] > poolBalance[i]) {\r\n                instant = false;\r\n            }\r\n        }\r\n\r\n        if(instant) {\r\n            rpToken.burn(msg.sender, burnAmt);\r\n            bool result;\r\n            for(uint8 i=0; i<N_COINS; i++) {\r\n                if(amounts[i] > 0) {\r\n                    result = tokens[i].transfer(msg.sender, amounts[i]);\r\n                    require(result);\r\n                    selfBalance[i] -= amounts[i];\r\n                }\r\n            }\r\n        } else {\r\n            _takeBackQ(amounts);\r\n        }\r\n    }\r\n\r\n    function checkMintAmount(uint256[N_COINS] calldata amounts) external view returns(uint256) {\r\n        uint256 result = _calcRptAmount(amounts, false);\r\n        return result;\r\n    }\r\n\r\n    function checkBurnAmount(uint256[N_COINS] calldata amounts) external view returns(uint256) {\r\n        uint256 result = _calcRptAmount(amounts, true);\r\n        return result;\r\n    }\r\n\r\n    function withdrawLoan( \r\n        uint256[N_COINS] calldata amounts\r\n    ) external {\r\n\r\n        require(transactions[msg.sender].gamingCompany == msg.sender, \"company not-exist\");\r\n        require(transactions[msg.sender].approved, \"not approved for loan\");\r\n        \r\n        for(uint8 i=0; i<N_COINS; i++) {\r\n            require(\r\n                transactions[msg.sender].remAmt[i] >= amounts[i], \r\n                \"amount requested exceeds amount approved\"\r\n            );\r\n        }\r\n\r\n        _withdraw(amounts);\r\n\r\n        uint8 check = 0;\r\n        for(uint8 i=0; i<N_COINS; i++) {\r\n            if(amounts[i] > 0) {\r\n                tokens[i].transfer(msg.sender, amounts[i]);\r\n                transactions[msg.sender].remAmt[i] -= amounts[i];\r\n            }\r\n\r\n            if(transactions[msg.sender].remAmt[i] == 0) {\r\n                check++;\r\n            }\r\n        }\r\n\r\n        if(check == 3) {\r\n            // Loan fulfilled, company used all its loan\r\n            transactions[msg.sender].executed = true;\r\n        }\r\n    }\r\n\r\n    /* CORE FUNCTIONS (also exposed to frontend but to be called by owner only) */\r\n\r\n    function setInitialDeposit() onlyOwner external {\r\n        selfBalance = _getBalances();\r\n    }\r\n\r\n    function deposit() onlyOwner external {\r\n        uint256[N_COINS] memory amounts = _getBalances();\r\n\r\n        for(uint8 i=0; i<N_COINS; i++) {\r\n            amounts[i] = (amounts[i] * 95) / 100;\r\n            tokens[i].approve(address(Pool), amounts[i]);\r\n        }\r\n\r\n        _deposit(amounts);\r\n    }\r\n\r\n    function withdraw() onlyOwner external {\r\n        _withdraw(totalWithdraw);\r\n        _giveBack();\r\n    }\r\n\r\n    /* ADMIN FUNCTIONS */\r\n\r\n}",
  "sourcePath": "C:/Users/MayankVats/Desktop/WORK/blockchain/Royale/royale-contracts/contracts/RoyaleLP.sol",
  "compiler": {
    "name": "solc",
    "version": "0.6.12+commit.27d51765.Emscripten.clang"
  },
  "schemaVersion": "3.3.2",
  "updatedAt": "2020-12-03T07:30:37.735Z",
  "devdoc": {
    "kind": "dev",
    "methods": {},
    "version": 1
  },
  "userdoc": {
    "kind": "user",
    "methods": {},
    "version": 1
  }
}