{
  "contractName": "RoyaleLPstorage",
  "abi": [
    {
      "inputs": [],
      "name": "DENOMINATOR",
      "outputs": [
        {
          "internalType": "uint256",
          "name": "",
          "type": "uint256"
        }
      ],
      "stateMutability": "view",
      "type": "function"
    },
    {
      "inputs": [
        {
          "internalType": "uint256",
          "name": "",
          "type": "uint256"
        }
      ],
      "name": "YieldPoolBalance",
      "outputs": [
        {
          "internalType": "uint256",
          "name": "",
          "type": "uint256"
        }
      ],
      "stateMutability": "view",
      "type": "function"
    },
    {
      "inputs": [
        {
          "internalType": "address",
          "name": "",
          "type": "address"
        },
        {
          "internalType": "uint256",
          "name": "",
          "type": "uint256"
        }
      ],
      "name": "amountBurnt",
      "outputs": [
        {
          "internalType": "uint256",
          "name": "",
          "type": "uint256"
        }
      ],
      "stateMutability": "view",
      "type": "function"
    },
    {
      "inputs": [
        {
          "internalType": "address",
          "name": "",
          "type": "address"
        },
        {
          "internalType": "uint256",
          "name": "",
          "type": "uint256"
        }
      ],
      "name": "amountSupplied",
      "outputs": [
        {
          "internalType": "uint256",
          "name": "index",
          "type": "uint256"
        },
        {
          "internalType": "uint256",
          "name": "amount",
          "type": "uint256"
        },
        {
          "internalType": "uint256",
          "name": "time",
          "type": "uint256"
        },
        {
          "internalType": "uint256",
          "name": "remAmt",
          "type": "uint256"
        }
      ],
      "stateMutability": "view",
      "type": "function"
    },
    {
      "inputs": [
        {
          "internalType": "address",
          "name": "",
          "type": "address"
        },
        {
          "internalType": "uint256",
          "name": "",
          "type": "uint256"
        }
      ],
      "name": "amountWithdraw",
      "outputs": [
        {
          "internalType": "uint256",
          "name": "",
          "type": "uint256"
        }
      ],
      "stateMutability": "view",
      "type": "function"
    },
    {
      "inputs": [],
      "name": "fees",
      "outputs": [
        {
          "internalType": "uint128",
          "name": "",
          "type": "uint128"
        }
      ],
      "stateMutability": "view",
      "type": "function"
    },
    {
      "inputs": [
        {
          "internalType": "address",
          "name": "",
          "type": "address"
        }
      ],
      "name": "isInQ",
      "outputs": [
        {
          "internalType": "bool",
          "name": "",
          "type": "bool"
        }
      ],
      "stateMutability": "view",
      "type": "function"
    },
    {
      "inputs": [
        {
          "internalType": "uint256",
          "name": "",
          "type": "uint256"
        }
      ],
      "name": "liquidityProvidersAPY",
      "outputs": [
        {
          "internalType": "uint256",
          "name": "",
          "type": "uint256"
        }
      ],
      "stateMutability": "view",
      "type": "function"
    },
    {
      "inputs": [],
      "name": "loanContract",
      "outputs": [
        {
          "internalType": "address",
          "name": "",
          "type": "address"
        }
      ],
      "stateMutability": "view",
      "type": "function"
    },
    {
      "inputs": [
        {
          "internalType": "uint256",
          "name": "",
          "type": "uint256"
        }
      ],
      "name": "loanGiven",
      "outputs": [
        {
          "internalType": "uint256",
          "name": "",
          "type": "uint256"
        }
      ],
      "stateMutability": "view",
      "type": "function"
    },
    {
      "inputs": [],
      "name": "lock_period",
      "outputs": [
        {
          "internalType": "uint256",
          "name": "",
          "type": "uint256"
        }
      ],
      "stateMutability": "view",
      "type": "function"
    },
    {
      "inputs": [],
      "name": "paused",
      "outputs": [
        {
          "internalType": "bool",
          "name": "",
          "type": "bool"
        }
      ],
      "stateMutability": "view",
      "type": "function"
    },
    {
      "inputs": [],
      "name": "poolPart",
      "outputs": [
        {
          "internalType": "uint256",
          "name": "",
          "type": "uint256"
        }
      ],
      "stateMutability": "view",
      "type": "function"
    },
    {
      "inputs": [
        {
          "internalType": "uint256",
          "name": "",
          "type": "uint256"
        }
      ],
      "name": "reserveAmount",
      "outputs": [
        {
          "internalType": "uint256",
          "name": "",
          "type": "uint256"
        }
      ],
      "stateMutability": "view",
      "type": "function"
    },
    {
      "inputs": [
        {
          "internalType": "address",
          "name": "",
          "type": "address"
        }
      ],
      "name": "reserveRecipients",
      "outputs": [
        {
          "internalType": "bool",
          "name": "",
          "type": "bool"
        }
      ],
      "stateMutability": "view",
      "type": "function"
    },
    {
      "inputs": [
        {
          "internalType": "uint256",
          "name": "",
          "type": "uint256"
        }
      ],
      "name": "selfBalance",
      "outputs": [
        {
          "internalType": "uint256",
          "name": "",
          "type": "uint256"
        }
      ],
      "stateMutability": "view",
      "type": "function"
    },
    {
      "inputs": [],
      "name": "threshold",
      "outputs": [
        {
          "internalType": "uint256",
          "name": "",
          "type": "uint256"
        }
      ],
      "stateMutability": "view",
      "type": "function"
    },
    {
      "inputs": [
        {
          "internalType": "uint256",
          "name": "",
          "type": "uint256"
        }
      ],
      "name": "totalWithdraw",
      "outputs": [
        {
          "internalType": "uint256",
          "name": "",
          "type": "uint256"
        }
      ],
      "stateMutability": "view",
      "type": "function"
    },
    {
      "inputs": [],
      "name": "wallet",
      "outputs": [
        {
          "internalType": "address",
          "name": "",
          "type": "address"
        }
      ],
      "stateMutability": "view",
      "type": "function"
    },
    {
      "inputs": [
        {
          "internalType": "uint256",
          "name": "",
          "type": "uint256"
        }
      ],
      "name": "withdrawRecipients",
      "outputs": [
        {
          "internalType": "address",
          "name": "",
          "type": "address"
        }
      ],
      "stateMutability": "view",
      "type": "function"
    }
  ],
  "bytecode": "0x60806040526019600060016101000a8154816fffffffffffffffffffffffffffffffff02191690836fffffffffffffffffffffffffffffffff1602179055506102ee6001556032601155603c60125534801561005a57600080fd5b506108a18061006a6000396000f3fe608060405234801561001057600080fd5b506004361061012c5760003560e01c80638e9b0326116100ad578063c6b93df711610071578063c6b93df7146104ee578063db28bfd014610550578063eabc9e3114610592578063f0dd71c7146105d4578063f83e9a20146106165761012c565b80638e9b0326146103b1578063905f692e146103cf578063918f8674146104295780639af1d35a14610447578063c23177b2146104775761012c565b80635c975abb116100f45780635c975abb146102535780635cd60cd11461027357806369850424146102d55780636d6ea25714610317578063876171dc146103595761012c565b8063253f284b1461013157806331805a2b1461016557806342cde4e8146101a7578063449deb6b146101c5578063521eb2731461021f575b600080fd5b610139610634565b604051808273ffffffffffffffffffffffffffffffffffffffff16815260200191505060405180910390f35b6101916004803603602081101561017b57600080fd5b810190808035906020019092919050505061065a565b6040518082815260200191505060405180910390f35b6101af610672565b6040518082815260200191505060405180910390f35b610207600480360360208110156101db57600080fd5b81019080803573ffffffffffffffffffffffffffffffffffffffff169060200190929190505050610678565b60405180821515815260200191505060405180910390f35b610227610698565b604051808273ffffffffffffffffffffffffffffffffffffffff16815260200191505060405180910390f35b61025b6106be565b60405180821515815260200191505060405180910390f35b6102bf6004803603604081101561028957600080fd5b81019080803573ffffffffffffffffffffffffffffffffffffffff169060200190929190803590602001909291905050506106cf565b6040518082815260200191505060405180910390f35b610301600480360360208110156102eb57600080fd5b81019080803590602001909291905050506106f4565b6040518082815260200191505060405180910390f35b6103436004803603602081101561032d57600080fd5b810190808035906020019092919050505061070c565b6040518082815260200191505060405180910390f35b6103856004803603602081101561036f57600080fd5b8101908080359060200190929190505050610724565b604051808273ffffffffffffffffffffffffffffffffffffffff16815260200191505060405180910390f35b6103b9610760565b6040518082815260200191505060405180910390f35b610411600480360360208110156103e557600080fd5b81019080803573ffffffffffffffffffffffffffffffffffffffff169060200190929190505050610766565b60405180821515815260200191505060405180910390f35b610431610786565b6040518082815260200191505060405180910390f35b61044f61078c565b60405180826fffffffffffffffffffffffffffffffff16815260200191505060405180910390f35b6104c36004803603604081101561048d57600080fd5b81019080803573ffffffffffffffffffffffffffffffffffffffff169060200190929190803590602001909291905050506107ae565b6040518085815260200184815260200183815260200182815260200194505050505060405180910390f35b61053a6004803603604081101561050457600080fd5b81019080803573ffffffffffffffffffffffffffffffffffffffff169060200190929190803590602001909291905050506107f8565b6040518082815260200191505060405180910390f35b61057c6004803603602081101561056657600080fd5b810190808035906020019092919050505061081d565b6040518082815260200191505060405180910390f35b6105be600480360360208110156105a857600080fd5b8101908080359060200190929190505050610835565b6040518082815260200191505060405180910390f35b610600600480360360208110156105ea57600080fd5b810190808035906020019092919050505061084d565b6040518082815260200191505060405180910390f35b61061e610865565b6040518082815260200191505060405180910390f35b602260009054906101000a900473ffffffffffffffffffffffffffffffffffffffff1681565b600b816003811061066757fe5b016000915090505481565b60115481565b601e6020528060005260406000206000915054906101000a900460ff1681565b600a60009054906101000a900473ffffffffffffffffffffffffffffffffffffffff1681565b60008054906101000a900460ff1681565b601460205281600052604060002081600381106106e857fe5b01600091509150505481565b6002816003811061070157fe5b016000915090505481565b601f816003811061071957fe5b016000915090505481565b6017818154811061073157fe5b906000526020600020016000915054906101000a900473ffffffffffffffffffffffffffffffffffffffff1681565b60015481565b60166020528060005260406000206000915054906101000a900460ff1681565b61271081565b600060019054906101000a90046fffffffffffffffffffffffffffffffff1681565b601360205281600052604060002081815481106107c757fe5b9060005260206000209060040201600091509150508060000154908060010154908060020154908060030154905084565b6015602052816000526040600020816003811061081157fe5b01600091509150505481565b6018816003811061082a57fe5b016000915090505481565b600e816003811061084257fe5b016000915090505481565b601b816003811061085a57fe5b016000915090505481565b6012548156fea26469706673582212208469fae806d6cc5e264b5fd5f89d58dc945fb05d2dbfb0cad5ff62d3f36b74f164736f6c634300060c0033",
  "immutableReferences": {},
  "source": "// SPDX-License-Identifier: UNLICENSED\r\npragma solidity ^0.6.0;\r\n\r\nimport '../../Interfaces/IERC20Interface.sol';\r\nimport '../../Interfaces/CurveStrategyInterface.sol';\r\n\r\n/*contract WithdrawQueue {\r\n    mapping(uint256 => address) withdrawQ;\r\n    uint256 first = 1;\r\n    uint256 last = 0;\r\n    address data;\r\n\r\n    function addToQ(address addr) internal {\r\n        last += 1;\r\n        withdrawQ[last] = addr;\r\n    }\r\n\r\n    function getFromQ() internal returns(address) {\r\n        require(last >= first);\r\n\r\n        data = withdrawQ[first];\r\n\r\n        delete withdrawQ[first];\r\n        first += 1;\r\n\r\n        return data;\r\n    }\r\n    \r\n}*/\r\n\r\n\r\ncontract RoyaleLPstorage{\r\n    \r\n    //storage for pool features\r\n    bool public paused;\r\n    \r\n    uint256 public constant DENOMINATOR = 10000;\r\n\r\n    uint128 public fees = 25; // for .25% fee, for 1.75% fee => 175\r\n\r\n    uint256 public poolPart = 750 ; // 7.5% of total Liquidity will remain in the pool\r\n\r\n    uint256[3] public selfBalance;\r\n\r\n    IERC20[3] tokens;\r\n\r\n    IERC20 rpToken;\r\n\r\n    rCurveStrategy curveStrategy;\r\n    \r\n    address public wallet;\r\n\r\n    uint[3] public YieldPoolBalance;\r\n    uint[3] public liquidityProvidersAPY;\r\n\r\n    uint256 public threshold = 50;\r\n    //storage for user related to supply and withdraw\r\n    \r\n    uint256 public lock_period = 1 minutes;\r\n\r\n    struct depositDetails {\r\n        uint256 index;\r\n        uint256 amount;\r\n        uint256 time;\r\n        uint256 remAmt;\r\n        \r\n    }\r\n    \r\n    mapping(address => depositDetails[]) public amountSupplied;\r\n    mapping(address => uint256[3]) public amountWithdraw;\r\n    mapping(address => uint256[3]) public amountBurnt;\r\n    \r\n    \r\n    mapping(address => bool) public isInQ;\r\n    address[] public withdrawRecipients;\r\n    \r\n    uint256[3] public totalWithdraw;\r\n    \r\n    uint[3] public reserveAmount;\r\n    mapping(address => bool)public reserveRecipients;\r\n    \r\n    \r\n    \r\n    //storage to store total loan given\r\n    uint256[3] public loanGiven;  \r\n    \r\n    //storage realated to loan contract\r\n     address public loanContract;\r\n}",
  "sourcePath": "C:\\Users\\vishn\\OneDrive\\Desktop\\RoyaleProject\\RoyaleFinance\\royale-contracts\\contracts\\Pool\\RoyaleLPVariables.sol",
  "compiler": {
    "name": "solc",
    "version": "0.6.12+commit.27d51765.Emscripten.clang"
  },
  "schemaVersion": "3.3.2",
  "updatedAt": "2021-02-17T14:26:52.424Z",
  "devdoc": {
    "kind": "dev",
    "methods": {},
    "version": 1
  },
  "userdoc": {
    "kind": "user",
    "methods": {},
    "version": 1
  }
}