{
  "contractName": "RoyaleLP",
  "abi": [
    {
      "inputs": [
        {
          "internalType": "address[3]",
          "name": "_tokens",
          "type": "address[3]"
        },
        {
          "internalType": "address",
          "name": "_rpToken",
          "type": "address"
        },
        {
          "internalType": "address",
          "name": "_wallet",
          "type": "address"
        }
      ],
      "stateMutability": "nonpayable",
      "type": "constructor"
    },
    {
      "anonymous": false,
      "inputs": [
        {
          "indexed": false,
          "internalType": "address",
          "name": "user",
          "type": "address"
        },
        {
          "indexed": false,
          "internalType": "uint256",
          "name": "amount",
          "type": "uint256"
        }
      ],
      "name": "userAddedToQ",
      "type": "event"
    },
    {
      "anonymous": false,
      "inputs": [
        {
          "indexed": false,
          "internalType": "address",
          "name": "user",
          "type": "address"
        },
        {
          "indexed": false,
          "internalType": "uint256",
          "name": "amount",
          "type": "uint256"
        }
      ],
      "name": "userRecieved",
      "type": "event"
    },
    {
      "anonymous": false,
      "inputs": [
        {
          "indexed": false,
          "internalType": "address",
          "name": "user",
          "type": "address"
        },
        {
          "indexed": false,
          "internalType": "uint256",
          "name": "amount",
          "type": "uint256"
        }
      ],
      "name": "userSupplied",
      "type": "event"
    },
    {
      "anonymous": false,
      "inputs": [
        {
          "indexed": false,
          "internalType": "uint256[3]",
          "name": "amounts",
          "type": "uint256[3]"
        }
      ],
      "name": "yieldAdded",
      "type": "event"
    },
    {
      "inputs": [],
      "name": "DENOMINATOR",
      "outputs": [
        {
          "internalType": "uint256",
          "name": "",
          "type": "uint256"
        }
      ],
      "stateMutability": "view",
      "type": "function"
    },
    {
      "inputs": [
        {
          "internalType": "uint256",
          "name": "",
          "type": "uint256"
        }
      ],
      "name": "YieldPoolBalance",
      "outputs": [
        {
          "internalType": "uint256",
          "name": "",
          "type": "uint256"
        }
      ],
      "stateMutability": "view",
      "type": "function"
    },
    {
      "inputs": [
        {
          "internalType": "address",
          "name": "",
          "type": "address"
        },
        {
          "internalType": "uint256",
          "name": "",
          "type": "uint256"
        }
      ],
      "name": "amountBurnt",
      "outputs": [
        {
          "internalType": "uint256",
          "name": "",
          "type": "uint256"
        }
      ],
      "stateMutability": "view",
      "type": "function"
    },
    {
      "inputs": [
        {
          "internalType": "address",
          "name": "",
          "type": "address"
        },
        {
          "internalType": "uint256",
          "name": "",
          "type": "uint256"
        }
      ],
      "name": "amountSupplied",
      "outputs": [
        {
          "internalType": "uint256",
          "name": "index",
          "type": "uint256"
        },
        {
          "internalType": "uint256",
          "name": "amount",
          "type": "uint256"
        },
        {
          "internalType": "uint256",
          "name": "time",
          "type": "uint256"
        },
        {
          "internalType": "uint256",
          "name": "remAmt",
          "type": "uint256"
        }
      ],
      "stateMutability": "view",
      "type": "function"
    },
    {
      "inputs": [
        {
          "internalType": "address",
          "name": "",
          "type": "address"
        },
        {
          "internalType": "uint256",
          "name": "",
          "type": "uint256"
        }
      ],
      "name": "amountWithdraw",
      "outputs": [
        {
          "internalType": "uint256",
          "name": "",
          "type": "uint256"
        }
      ],
      "stateMutability": "view",
      "type": "function"
    },
    {
      "inputs": [],
      "name": "fees",
      "outputs": [
        {
          "internalType": "uint128",
          "name": "",
          "type": "uint128"
        }
      ],
      "stateMutability": "view",
      "type": "function"
    },
    {
      "inputs": [
        {
          "internalType": "address",
          "name": "",
          "type": "address"
        }
      ],
      "name": "isInQ",
      "outputs": [
        {
          "internalType": "bool",
          "name": "",
          "type": "bool"
        }
      ],
      "stateMutability": "view",
      "type": "function"
    },
    {
      "inputs": [
        {
          "internalType": "uint256",
          "name": "",
          "type": "uint256"
        }
      ],
      "name": "liquidityProvidersAPY",
      "outputs": [
        {
          "internalType": "uint256",
          "name": "",
          "type": "uint256"
        }
      ],
      "stateMutability": "view",
      "type": "function"
    },
    {
      "inputs": [],
      "name": "loanContract",
      "outputs": [
        {
          "internalType": "address",
          "name": "",
          "type": "address"
        }
      ],
      "stateMutability": "view",
      "type": "function"
    },
    {
      "inputs": [
        {
          "internalType": "uint256",
          "name": "",
          "type": "uint256"
        }
      ],
      "name": "loanGiven",
      "outputs": [
        {
          "internalType": "uint256",
          "name": "",
          "type": "uint256"
        }
      ],
      "stateMutability": "view",
      "type": "function"
    },
    {
      "inputs": [],
      "name": "lock_period",
      "outputs": [
        {
          "internalType": "uint256",
          "name": "",
          "type": "uint256"
        }
      ],
      "stateMutability": "view",
      "type": "function"
    },
    {
      "inputs": [],
      "name": "paused",
      "outputs": [
        {
          "internalType": "bool",
          "name": "",
          "type": "bool"
        }
      ],
      "stateMutability": "view",
      "type": "function"
    },
    {
      "inputs": [],
      "name": "poolPart",
      "outputs": [
        {
          "internalType": "uint256",
          "name": "",
          "type": "uint256"
        }
      ],
      "stateMutability": "view",
      "type": "function"
    },
    {
      "inputs": [
        {
          "internalType": "uint256",
          "name": "",
          "type": "uint256"
        }
      ],
      "name": "reserveAmount",
      "outputs": [
        {
          "internalType": "uint256",
          "name": "",
          "type": "uint256"
        }
      ],
      "stateMutability": "view",
      "type": "function"
    },
    {
      "inputs": [
        {
          "internalType": "address",
          "name": "",
          "type": "address"
        }
      ],
      "name": "reserveRecipients",
      "outputs": [
        {
          "internalType": "bool",
          "name": "",
          "type": "bool"
        }
      ],
      "stateMutability": "view",
      "type": "function"
    },
    {
      "inputs": [
        {
          "internalType": "uint256",
          "name": "",
          "type": "uint256"
        }
      ],
      "name": "selfBalance",
      "outputs": [
        {
          "internalType": "uint256",
          "name": "",
          "type": "uint256"
        }
      ],
      "stateMutability": "view",
      "type": "function"
    },
    {
      "inputs": [],
      "name": "threshold",
      "outputs": [
        {
          "internalType": "uint256",
          "name": "",
          "type": "uint256"
        }
      ],
      "stateMutability": "view",
      "type": "function"
    },
    {
      "inputs": [
        {
          "internalType": "uint256",
          "name": "",
          "type": "uint256"
        }
      ],
      "name": "totalWithdraw",
      "outputs": [
        {
          "internalType": "uint256",
          "name": "",
          "type": "uint256"
        }
      ],
      "stateMutability": "view",
      "type": "function"
    },
    {
      "inputs": [],
      "name": "wallet",
      "outputs": [
        {
          "internalType": "address",
          "name": "",
          "type": "address"
        }
      ],
      "stateMutability": "view",
      "type": "function"
    },
    {
      "inputs": [
        {
          "internalType": "uint256",
          "name": "",
          "type": "uint256"
        }
      ],
      "name": "withdrawRecipients",
      "outputs": [
        {
          "internalType": "address",
          "name": "",
          "type": "address"
        }
      ],
      "stateMutability": "view",
      "type": "function"
    },
    {
      "inputs": [
        {
          "internalType": "address",
          "name": "_wallet",
          "type": "address"
        }
      ],
      "name": "transferOwnership",
      "outputs": [],
      "stateMutability": "nonpayable",
      "type": "function"
    },
    {
      "inputs": [
        {
          "internalType": "uint256",
          "name": "amount",
          "type": "uint256"
        },
        {
          "internalType": "uint256",
          "name": "_index",
          "type": "uint256"
        }
      ],
      "name": "calcRptAmount",
      "outputs": [
        {
          "internalType": "uint256",
          "name": "",
          "type": "uint256"
        }
      ],
      "stateMutability": "view",
      "type": "function"
    },
    {
      "inputs": [
        {
          "internalType": "address",
          "name": "addr",
          "type": "address"
        },
        {
          "internalType": "uint256",
          "name": "coin",
          "type": "uint256"
        },
        {
          "internalType": "bool",
          "name": "_time",
          "type": "bool"
        }
      ],
      "name": "availableLiquidity",
      "outputs": [
        {
          "internalType": "uint256",
          "name": "token",
          "type": "uint256"
        },
        {
          "internalType": "uint256",
          "name": "RPT",
          "type": "uint256"
        }
      ],
      "stateMutability": "view",
      "type": "function"
    },
    {
      "inputs": [],
      "name": "calculateTotalToken",
      "outputs": [
        {
          "internalType": "uint256",
          "name": "",
          "type": "uint256"
        }
      ],
      "stateMutability": "view",
      "type": "function"
    },
    {
      "inputs": [
        {
          "internalType": "uint256",
          "name": "amount",
          "type": "uint256"
        },
        {
          "internalType": "uint256",
          "name": "_index",
          "type": "uint256"
        }
      ],
      "name": "supply",
      "outputs": [],
      "stateMutability": "nonpayable",
      "type": "function"
    },
    {
      "inputs": [
        {
          "internalType": "uint256",
          "name": "amount",
          "type": "uint256"
        },
        {
          "internalType": "uint256",
          "name": "_index",
          "type": "uint256"
        }
      ],
      "name": "requestWithdrawWithRPT",
      "outputs": [],
      "stateMutability": "nonpayable",
      "type": "function"
    },
    {
      "inputs": [],
      "name": "claimTokens",
      "outputs": [],
      "stateMutability": "nonpayable",
      "type": "function"
    },
    {
      "inputs": [
        {
          "internalType": "uint256[3]",
          "name": "amounts",
          "type": "uint256[3]"
        }
      ],
      "name": "depsoitYield",
      "outputs": [],
      "stateMutability": "nonpayable",
      "type": "function"
    },
    {
      "inputs": [],
      "name": "deposit",
      "outputs": [],
      "stateMutability": "nonpayable",
      "type": "function"
    },
    {
      "inputs": [],
      "name": "withdraw",
      "outputs": [],
      "stateMutability": "nonpayable",
      "type": "function"
    },
    {
      "inputs": [],
      "name": "withdrawAll",
      "outputs": [],
      "stateMutability": "nonpayable",
      "type": "function"
    },
    {
      "inputs": [],
      "name": "rebalance",
      "outputs": [],
      "stateMutability": "nonpayable",
      "type": "function"
    },
    {
      "inputs": [
        {
          "internalType": "uint256[3]",
          "name": "amounts",
          "type": "uint256[3]"
        },
        {
          "internalType": "uint256[3]",
          "name": "withdrawAmount",
          "type": "uint256[3]"
        },
        {
          "internalType": "address",
          "name": "_loanSeeker",
          "type": "address"
        }
      ],
      "name": "_loanWithdraw",
      "outputs": [
        {
          "internalType": "bool",
          "name": "",
          "type": "bool"
        }
      ],
      "stateMutability": "nonpayable",
      "type": "function"
    },
    {
      "inputs": [
        {
          "internalType": "uint256[3]",
          "name": "amounts",
          "type": "uint256[3]"
        },
        {
          "internalType": "address",
          "name": "_loanSeeker",
          "type": "address"
        }
      ],
      "name": "_loanRepayment",
      "outputs": [
        {
          "internalType": "bool",
          "name": "",
          "type": "bool"
        }
      ],
      "stateMutability": "nonpayable",
      "type": "function"
    },
    {
      "inputs": [
        {
          "internalType": "uint256",
          "name": "_index",
          "type": "uint256"
        }
      ],
      "name": "getBalances",
      "outputs": [
        {
          "internalType": "uint256",
          "name": "",
          "type": "uint256"
        }
      ],
      "stateMutability": "view",
      "type": "function"
    },
    {
      "inputs": [
        {
          "internalType": "address",
          "name": "_loanContract",
          "type": "address"
        }
      ],
      "name": "setLoanContract",
      "outputs": [],
      "stateMutability": "nonpayable",
      "type": "function"
    },
    {
      "inputs": [
        {
          "internalType": "uint128",
          "name": "_newPoolPart",
          "type": "uint128"
        }
      ],
      "name": "changePoolPart",
      "outputs": [],
      "stateMutability": "nonpayable",
      "type": "function"
    },
    {
      "inputs": [
        {
          "internalType": "uint256",
          "name": "_newThreshold",
          "type": "uint256"
        }
      ],
      "name": "setThresholdTokenAmount",
      "outputs": [],
      "stateMutability": "nonpayable",
      "type": "function"
    },
    {
      "inputs": [
        {
          "internalType": "address",
          "name": "_strategy",
          "type": "address"
        }
      ],
      "name": "changeCurveStrategy",
      "outputs": [],
      "stateMutability": "nonpayable",
      "type": "function"
    },
    {
      "inputs": [
        {
          "internalType": "uint256",
          "name": "lockperiod",
          "type": "uint256"
        }
      ],
      "name": "setLockPeriod",
      "outputs": [],
      "stateMutability": "nonpayable",
      "type": "function"
    },
    {
      "inputs": [
        {
          "internalType": "uint128",
          "name": "_fees",
          "type": "uint128"
        }
      ],
      "name": "setWithdrawFees",
      "outputs": [],
      "stateMutability": "nonpayable",
      "type": "function"
    }
  ],
  "bytecode": "0x60806040526019600060016101000a8154816fffffffffffffffffffffffffffffffff02191690836fffffffffffffffffffffffffffffffff1602179055506102ee6001556032601155603c6012553480156200005b57600080fd5b5060405162005ea638038062005ea68339818101604052810190620000819190620003ae565b6001602381905550600080600090505b60038160ff161015620001ff57848160ff1660038110620000ae57fe5b602002015160058260ff1660038110620000c457fe5b0160006101000a81548173ffffffffffffffffffffffffffffffffffffffff021916908373ffffffffffffffffffffffffffffffffffffffff16021790555060058160ff16600381106200011457fe5b0160009054906101000a900473ffffffffffffffffffffffffffffffffffffffff1673ffffffffffffffffffffffffffffffffffffffff1663313ce5676040518163ffffffff1660e01b815260040160206040518083038186803b1580156200017c57600080fd5b505afa15801562000191573d6000803e3d6000fd5b505050506040513d601f19601f82011682018060405250810190620001b7919062000404565b60ff169150620001db6103e883600a0a6200028c60201b62003c121790919060201c565b60028260ff1660038110620001ec57fe5b0181905550808060010191505062000091565b5082600860006101000a81548173ffffffffffffffffffffffffffffffffffffffff021916908373ffffffffffffffffffffffffffffffffffffffff16021790555081600a60006101000a81548173ffffffffffffffffffffffffffffffffffffffff021916908373ffffffffffffffffffffffffffffffffffffffff1602179055505050505062000591565b600080831415620002a15760009050620002fc565b6000828402905082848281620002b357fe5b0414620002f7576040517f08c379a0000000000000000000000000000000000000000000000000000000008152600401620002ee9062000498565b60405180910390fd5b809150505b92915050565b60008151905062000313816200055d565b92915050565b600082601f8301126200032b57600080fd5b6003620003426200033c82620004e8565b620004ba565b915081838560208402820111156200035957600080fd5b60005b838110156200038d578162000372888262000302565b8452602084019350602083019250506001810190506200035c565b5050505092915050565b600081519050620003a88162000577565b92915050565b600080600060a08486031215620003c457600080fd5b6000620003d48682870162000319565b9350506060620003e78682870162000302565b9250506080620003fa8682870162000302565b9150509250925092565b6000602082840312156200041757600080fd5b6000620004278482850162000397565b91505092915050565b60006200043f6021836200050b565b91507f536166654d6174683a206d756c7469706c69636174696f6e206f766572666c6f60008301527f77000000000000000000000000000000000000000000000000000000000000006020830152604082019050919050565b60006020820190508181036000830152620004b38162000430565b9050919050565b6000604051905081810181811067ffffffffffffffff82111715620004de57600080fd5b8060405250919050565b600067ffffffffffffffff8211156200050057600080fd5b602082029050919050565b600082825260208201905092915050565b6000620005298262000530565b9050919050565b600073ffffffffffffffffffffffffffffffffffffffff82169050919050565b600060ff82169050919050565b62000568816200051c565b81146200057457600080fd5b50565b620005828162000550565b81146200058e57600080fd5b50565b61590580620005a16000396000f3fe608060405234801561001057600080fd5b50600436106102535760003560e01c8063853828b611610146578063bf4b136b116100c3578063db28bfd011610087578063db28bfd0146106e9578063de44983914610719578063eabc9e311461074a578063f0dd71c71461077a578063f2fde38b146107aa578063f83e9a20146107c657610253565b8063bf4b136b14610630578063c23177b214610660578063c6b93df714610693578063d0e30db0146106c3578063daecfa6c146106cd57610253565b806393f9c5521161010a57806393f9c552146105a05780639af1d35a146105bc5780639daca2be146105da578063a70200bd146105f8578063b8b106801461061457610253565b8063853828b6146104fa578063876171dc146105045780638e9b032614610534578063905f692e14610552578063918f86741461058257610253565b80635c975abb116101d45780636d6ea257116101985780636d6ea25714610458578063779972da146104885780637d7c2a1c146104a457806380001288146104ae57806383cf1c8c146104de57610253565b80635c975abb146103a25780635cd60cd1146103c057806369850424146103f05780636a4e2092146104205780636b9f1ef61461043c57610253565b8063449deb6b1161021b578063449deb6b146102ea57806348c54b9d1461031a578063490adbaf14610324578063521eb2731461035457806357cba5341461037257610253565b8063253f284b1461025857806331805a2b1461027657806331d38806146102a65780633ccfd60b146102c257806342cde4e8146102cc575b600080fd5b6102606107e4565b60405161026d91906152e7565b60405180910390f35b610290600480360381019061028b9190614d08565b61080a565b60405161029d9190615650565b60405180910390f35b6102c060048036038101906102bb9190614b25565b610822565b005b6102ca6108f6565b005b6102d4610c85565b6040516102e19190615650565b60405180910390f35b61030460048036038101906102ff9190614b25565b610c8b565b60405161031191906153f8565b60405180910390f35b610322610cab565b005b61033e60048036038101906103399190614d08565b611279565b60405161034b9190615650565b60405180910390f35b61035c611359565b60405161036991906152e7565b60405180910390f35b61038c60048036038101906103879190614c67565b61137f565b60405161039991906153f8565b60405180910390f35b6103aa6115d8565b6040516103b791906153f8565b60405180910390f35b6103da60048036038101906103d59190614b4e565b6115e9565b6040516103e79190615650565b60405180910390f35b61040a60048036038101906104059190614d08565b61160e565b6040516104179190615650565b60405180910390f35b61043a60048036038101906104359190614b25565b611626565b005b61045660048036038101906104519190614cdf565b61176b565b005b610472600480360381019061046d9190614d08565b611837565b60405161047f9190615650565b60405180910390f35b6104a2600480360381019061049d9190614d08565b61184f565b005b6104ac6118e9565b005b6104c860048036038101906104c39190614c2b565b611d1e565b6040516104d591906153f8565b60405180910390f35b6104f860048036038101906104f39190614bd9565b611f60565b005b6105026120e5565b005b61051e60048036038101906105199190614d08565b612559565b60405161052b91906152e7565b60405180910390f35b61053c612595565b6040516105499190615650565b60405180910390f35b61056c60048036038101906105679190614b25565b61259b565b60405161057991906153f8565b60405180910390f35b61058a6125bb565b6040516105979190615650565b60405180910390f35b6105ba60048036038101906105b59190614d5a565b6125c1565b005b6105c4612ac2565b6040516105d19190615635565b60405180910390f35b6105e2612ae4565b6040516105ef9190615650565b60405180910390f35b610612600480360381019061060d9190614cdf565b612c87565b005b61062e60048036038101906106299190614d08565b612d33565b005b61064a60048036038101906106459190614d5a565b612dcd565b6040516106579190615650565b60405180910390f35b61067a60048036038101906106759190614b4e565b612f8d565b60405161068a9493929190615694565b60405180910390f35b6106ad60048036038101906106a89190614b4e565b612fd7565b6040516106ba9190615650565b60405180910390f35b6106cb612ffc565b005b6106e760048036038101906106e29190614d5a565b61339e565b005b61070360048036038101906106fe9190614d08565b6136fb565b6040516107109190615650565b60405180910390f35b610733600480360381019061072e9190614b8a565b613713565b60405161074192919061566b565b60405180910390f35b610764600480360381019061075f9190614d08565b613b08565b6040516107719190615650565b60405180910390f35b610794600480360381019061078f9190614d08565b613b20565b6040516107a19190615650565b60405180910390f35b6107c460048036038101906107bf9190614b25565b613b38565b005b6107ce613c0c565b6040516107db9190615650565b60405180910390f35b602260009054906101000a900473ffffffffffffffffffffffffffffffffffffffff1681565b600b816003811061081757fe5b016000915090505481565b3373ffffffffffffffffffffffffffffffffffffffff16600a60009054906101000a900473ffffffffffffffffffffffffffffffffffffffff1673ffffffffffffffffffffffffffffffffffffffff16146108b2576040517f08c379a00000000000000000000000000000000000000000000000000000000081526004016108a990615575565b60405180910390fd5b80602260006101000a81548173ffffffffffffffffffffffffffffffffffffffff021916908373ffffffffffffffffffffffffffffffffffffffff16021790555050565b3373ffffffffffffffffffffffffffffffffffffffff16600a60009054906101000a900473ffffffffffffffffffffffffffffffffffffffff1673ffffffffffffffffffffffffffffffffffffffff1614610986576040517f08c379a000000000000000000000000000000000000000000000000000000000815260040161097d90615575565b60405180910390fd5b6109cc60186003806020026040519081016040528092919082600380156109c2576020028201915b8154815260200190600101908083116109ae575b5050505050613c82565b610a0b576040517f08c379a0000000000000000000000000000000000000000000000000000000008152600401610a0290615455565b60405180910390fd5b610a156001613cd4565b610a5b6018600380602002604051908101604052809291908260038015610a51576020028201915b815481526020019060010190808311610a3d575b5050505050613d0f565b60005b60038160ff161015610ad857610a9f60188260ff1660038110610a7d57fe5b0154601b8360ff1660038110610a8f57fe5b0154613e0890919063ffffffff16565b601b8260ff1660038110610aaf57fe5b0181905550600060188260ff1660038110610ac657fe5b01819055508080600101915050610a5e565b5060005b601780549050811015610c14576001601e600060178481548110610afc57fe5b9060005260206000200160009054906101000a900473ffffffffffffffffffffffffffffffffffffffff1673ffffffffffffffffffffffffffffffffffffffff1673ffffffffffffffffffffffffffffffffffffffff16815260200190815260200160002060006101000a81548160ff02191690831515021790555060006016600060178481548110610b8b57fe5b9060005260206000200160009054906101000a900473ffffffffffffffffffffffffffffffffffffffff1673ffffffffffffffffffffffffffffffffffffffff1673ffffffffffffffffffffffffffffffffffffffff16815260200190815260200160002060006101000a81548160ff0219169083151502179055508080600101915050610adc565b506000601780549050905060005b81811015610c77576017805480610c3557fe5b6001900381819060005260206000200160006101000a81549073ffffffffffffffffffffffffffffffffffffffff021916905590558080600101915050610c22565b50610c826000613cd4565b50565b60115481565b601e6020528060005260406000206000915054906101000a900460ff1681565b60026023541415610cf1576040517f08c379a0000000000000000000000000000000000000000000000000000000008152600401610ce8906155f5565b60405180910390fd5b6002602381905550601e60003373ffffffffffffffffffffffffffffffffffffffff1673ffffffffffffffffffffffffffffffffffffffff16815260200190815260200160002060009054906101000a900460ff16610d85576040517f08c379a0000000000000000000000000000000000000000000000000000000008152600401610d7c90615435565b60405180910390fd5b60008060005b60038160ff16101561120a576000601460003373ffffffffffffffffffffffffffffffffffffffff1673ffffffffffffffffffffffffffffffffffffffff1681526020019081526020016000208260ff1660038110610de657fe5b015411156111fd576000610ef5610e98612710610e8a600060019054906101000a90046fffffffffffffffffffffffffffffffff166fffffffffffffffffffffffffffffffff16601460003373ffffffffffffffffffffffffffffffffffffffff1673ffffffffffffffffffffffffffffffffffffffff1681526020019081526020016000208760ff1660038110610e7a57fe5b0154613c1290919063ffffffff16565b613e5d90919063ffffffff16565b601460003373ffffffffffffffffffffffffffffffffffffffff1673ffffffffffffffffffffffffffffffffffffffff1681526020019081526020016000208460ff1660038110610ee557fe5b0154613ea790919063ffffffff16565b905060058260ff1660038110610f0757fe5b0160009054906101000a900473ffffffffffffffffffffffffffffffffffffffff1673ffffffffffffffffffffffffffffffffffffffff1663a9059cbb33836040518363ffffffff1660e01b8152600401610f63929190615354565b602060405180830381600087803b158015610f7d57600080fd5b505af1158015610f91573d6000803e3d6000fd5b505050506040513d601f19601f82011682018060405250810190610fb59190614cb6565b935083610ff7576040517f08c379a0000000000000000000000000000000000000000000000000000000008152600401610fee90615555565b60405180910390fd5b611069601460003373ffffffffffffffffffffffffffffffffffffffff1673ffffffffffffffffffffffffffffffffffffffff1681526020019081526020016000208360ff166003811061104757fe5b0154601b8460ff166003811061105957fe5b0154613ea790919063ffffffff16565b601b8360ff166003811061107957fe5b01819055506110a28160028460ff166003811061109257fe5b0154613ea790919063ffffffff16565b60028360ff16600381106110b257fe5b0181905550611118601560003373ffffffffffffffffffffffffffffffffffffffff1673ffffffffffffffffffffffffffffffffffffffff1681526020019081526020016000208360ff166003811061110757fe5b015484613e0890919063ffffffff16565b92506000601460003373ffffffffffffffffffffffffffffffffffffffff1673ffffffffffffffffffffffffffffffffffffffff1681526020019081526020016000208360ff166003811061116957fe5b01819055506000601560003373ffffffffffffffffffffffffffffffffffffffff1673ffffffffffffffffffffffffffffffffffffffff1681526020019081526020016000208360ff16600381106111bd57fe5b01819055507f8b46652782c1a94bd1f1e050f62dea3a99b7fe20520c003e111624847230d4fe33826040516111f3929190615354565b60405180910390a1505b8080600101915050610d8b565b506112153382613ef1565b6000601e60003373ffffffffffffffffffffffffffffffffffffffff1673ffffffffffffffffffffffffffffffffffffffff16815260200190815260200160002060006101000a81548160ff02191690831515021790555050506001602381905550565b6000611352601b836003811061128b57fe5b01546005846003811061129a57fe5b0160009054906101000a900473ffffffffffffffffffffffffffffffffffffffff1673ffffffffffffffffffffffffffffffffffffffff166370a08231306040518263ffffffff1660e01b81526004016112f491906152e7565b60206040518083038186803b15801561130c57600080fd5b505afa158015611320573d6000803e3d6000fd5b505050506040513d601f19601f820116820180604052508101906113449190614d31565b613ea790919063ffffffff16565b9050919050565b600a60009054906101000a900473ffffffffffffffffffffffffffffffffffffffff1681565b6000602260009054906101000a900473ffffffffffffffffffffffffffffffffffffffff1673ffffffffffffffffffffffffffffffffffffffff163373ffffffffffffffffffffffffffffffffffffffff1614611411576040517f08c379a000000000000000000000000000000000000000000000000000000000815260040161140890615575565b60405180910390fd5b61141a83613c82565b156114295761142883613d0f565b5b60005b60038160ff1610156115cc576000858260ff166003811061144957fe5b602002015111156115bf5761148b858260ff166003811061146657fe5b6020020151601f8360ff166003811061147b57fe5b0154613e0890919063ffffffff16565b601f8260ff166003811061149b57fe5b01819055506114d7858260ff16600381106114b257fe5b602002015160028360ff16600381106114c757fe5b0154613ea790919063ffffffff16565b60028260ff16600381106114e757fe5b018190555060058160ff16600381106114fc57fe5b0160009054906101000a900473ffffffffffffffffffffffffffffffffffffffff1673ffffffffffffffffffffffffffffffffffffffff1663a9059cbb84878460ff166003811061154957fe5b60200201516040518363ffffffff1660e01b815260040161156b9291906153b4565b602060405180830381600087803b15801561158557600080fd5b505af1158015611599573d6000803e3d6000fd5b505050506040513d601f19601f820116820180604052508101906115bd9190614cb6565b505b808060010191505061142c565b50600190509392505050565b60008054906101000a900460ff1681565b6014602052816000526040600020816003811061160257fe5b01600091509150505481565b6002816003811061161b57fe5b016000915090505481565b3373ffffffffffffffffffffffffffffffffffffffff16600a60009054906101000a900473ffffffffffffffffffffffffffffffffffffffff1673ffffffffffffffffffffffffffffffffffffffff16146116b6576040517f08c379a00000000000000000000000000000000000000000000000000000000081526004016116ad90615575565b60405180910390fd5b60005b60038160ff161015611726576000600b8260ff16600381106116d757fe5b015414611719576040517f08c379a0000000000000000000000000000000000000000000000000000000008152600401611710906154f5565b60405180910390fd5b80806001019150506116b9565b5080600960006101000a81548173ffffffffffffffffffffffffffffffffffffffff021916908373ffffffffffffffffffffffffffffffffffffffff16021790555050565b3373ffffffffffffffffffffffffffffffffffffffff16600a60009054906101000a900473ffffffffffffffffffffffffffffffffffffffff1673ffffffffffffffffffffffffffffffffffffffff16146117fb576040517f08c379a00000000000000000000000000000000000000000000000000000000081526004016117f290615575565b60405180910390fd5b80600060016101000a8154816fffffffffffffffffffffffffffffffff02191690836fffffffffffffffffffffffffffffffff16021790555050565b601f816003811061184457fe5b016000915090505481565b3373ffffffffffffffffffffffffffffffffffffffff16600a60009054906101000a900473ffffffffffffffffffffffffffffffffffffffff1673ffffffffffffffffffffffffffffffffffffffff16146118df576040517f08c379a00000000000000000000000000000000000000000000000000000000081526004016118d690615575565b60405180910390fd5b8060128190555050565b3373ffffffffffffffffffffffffffffffffffffffff16600a60009054906101000a900473ffffffffffffffffffffffffffffffffffffffff1673ffffffffffffffffffffffffffffffffffffffff1614611979576040517f08c379a000000000000000000000000000000000000000000000000000000000815260040161197090615575565b60405180910390fd5b600061198361496a565b61198b61496a565b600080600090505b60038160ff161015611ce7576119ab8160ff16611279565b945060058160ff16600381106119bd57fe5b0160009054906101000a900473ffffffffffffffffffffffffffffffffffffffff1673ffffffffffffffffffffffffffffffffffffffff1663313ce5676040518163ffffffff1660e01b815260040160206040518083038186803b158015611a2457600080fd5b505afa158015611a38573d6000803e3d6000fd5b505050506040513d601f19601f82011682018060405250810190611a5c9190614d96565b60ff1691506000611ac0612710611ab2600154611aa4601b8760ff1660038110611a8257fe5b015460028860ff1660038110611a9457fe5b0154613ea790919063ffffffff16565b613c1290919063ffffffff16565b613e5d90919063ffffffff16565b905085811115611b3657611add8682613ea790919063ffffffff16565b858360ff1660038110611aec57fe5b60200201818152505082600a0a603202858360ff1660038110611b0b57fe5b60200201511015611b31576000858360ff1660038110611b2757fe5b6020020181815250505b611cd9565b85811015611ca357611b518187613ea790919063ffffffff16565b848360ff1660038110611b6057fe5b60200201818152505082600a0a603202848360ff1660038110611b7f57fe5b60200201511015611ba9576000848360ff1660038110611b9b57fe5b602002018181525050611c9e565b60058260ff1660038110611bb957fe5b0160009054906101000a900473ffffffffffffffffffffffffffffffffffffffff1673ffffffffffffffffffffffffffffffffffffffff1663a9059cbb600960009054906101000a900473ffffffffffffffffffffffffffffffffffffffff16868560ff1660038110611c2857fe5b60200201516040518363ffffffff1660e01b8152600401611c4a9291906153b4565b602060405180830381600087803b158015611c6457600080fd5b505af1158015611c78573d6000803e3d6000fd5b505050506040513d601f19601f82011682018060405250810190611c9c9190614cb6565b505b611cd8565b6000858360ff1660038110611cb457fe5b6020020181815250506000848360ff1660038110611cce57fe5b6020020181815250505b5b508080600101915050611993565b50611cf182613c82565b15611d0057611cff826141e0565b5b611d0983613c82565b15611d1857611d1783613d0f565b5b50505050565b6000602260009054906101000a900473ffffffffffffffffffffffffffffffffffffffff1673ffffffffffffffffffffffffffffffffffffffff163373ffffffffffffffffffffffffffffffffffffffff1614611db0576040517f08c379a0000000000000000000000000000000000000000000000000000000008152600401611da790615575565b60405180910390fd5b60005b60038160ff161015611f55576000848260ff1660038110611dd057fe5b60200201511115611f4857611e12848260ff1660038110611ded57fe5b6020020151601f8360ff1660038110611e0257fe5b0154613ea790919063ffffffff16565b601f8260ff1660038110611e2257fe5b0181905550611e5e848260ff1660038110611e3957fe5b602002015160028360ff1660038110611e4e57fe5b0154613e0890919063ffffffff16565b60028260ff1660038110611e6e57fe5b018190555060058160ff1660038110611e8357fe5b0160009054906101000a900473ffffffffffffffffffffffffffffffffffffffff1673ffffffffffffffffffffffffffffffffffffffff166323b872dd8430878560ff1660038110611ed157fe5b60200201516040518463ffffffff1660e01b8152600401611ef49392919061537d565b602060405180830381600087803b158015611f0e57600080fd5b505af1158015611f22573d6000803e3d6000fd5b505050506040513d601f19601f82011682018060405250810190611f469190614cb6565b505b8080600101915050611db3565b506001905092915050565b60005b60038160ff1610156120e1576000828260ff1660038110611f8057fe5b6020020135146120d45760058160ff1660038110611f9a57fe5b0160009054906101000a900473ffffffffffffffffffffffffffffffffffffffff1673ffffffffffffffffffffffffffffffffffffffff166323b872dd3330858560ff1660038110611fe857fe5b60200201356040518463ffffffff1660e01b815260040161200b9392919061531d565b602060405180830381600087803b15801561202557600080fd5b505af1158015612039573d6000803e3d6000fd5b505050506040513d601f19601f8201168201806040525081019061205d9190614cb6565b50612095828260ff166003811061207057fe5b602002013560028360ff166003811061208557fe5b0154613e0890919063ffffffff16565b60028260ff16600381106120a557fe5b0181905550818160ff16600381106120b957fe5b6020020135600e8260ff16600381106120ce57fe5b01819055505b8080600101915050611f63565b5050565b3373ffffffffffffffffffffffffffffffffffffffff16600a60009054906101000a900473ffffffffffffffffffffffffffffffffffffffff1673ffffffffffffffffffffffffffffffffffffffff1614612175576040517f08c379a000000000000000000000000000000000000000000000000000000000815260040161216c90615575565b60405180910390fd5b61217f6001613cd4565b61218761496a565b600960009054906101000a900473ffffffffffffffffffffffffffffffffffffffff1673ffffffffffffffffffffffffffffffffffffffff1663853828b66040518163ffffffff1660e01b8152600401606060405180830381600087803b1580156121f157600080fd5b505af1158015612205573d6000803e3d6000fd5b505050506040513d601f19601f820116820180604052508101906122299190614c02565b905060005b60038160ff16101561232d5760058160ff166003811061224a57fe5b0160009054906101000a900473ffffffffffffffffffffffffffffffffffffffff1673ffffffffffffffffffffffffffffffffffffffff166370a08231306040518263ffffffff1660e01b81526004016122a491906152e7565b60206040518083038186803b1580156122bc57600080fd5b505afa1580156122d0573d6000803e3d6000fd5b505050506040513d601f19601f820116820180604052508101906122f49190614d31565b60028260ff166003811061230457fe5b01819055506000600b8260ff166003811061231b57fe5b0181905550808060010191505061222e565b5060005b60038160ff1610156123ab5761237260188260ff166003811061235057fe5b0154601b8360ff166003811061236257fe5b0154613e0890919063ffffffff16565b601b8260ff166003811061238257fe5b0181905550600060188260ff166003811061239957fe5b01819055508080600101915050612331565b5060005b6017805490508110156124e7576001601e6000601784815481106123cf57fe5b9060005260206000200160009054906101000a900473ffffffffffffffffffffffffffffffffffffffff1673ffffffffffffffffffffffffffffffffffffffff1673ffffffffffffffffffffffffffffffffffffffff16815260200190815260200160002060006101000a81548160ff0219169083151502179055506000601660006017848154811061245e57fe5b9060005260206000200160009054906101000a900473ffffffffffffffffffffffffffffffffffffffff1673ffffffffffffffffffffffffffffffffffffffff1673ffffffffffffffffffffffffffffffffffffffff16815260200190815260200160002060006101000a81548160ff02191690831515021790555080806001019150506123af565b506000601780549050905060005b8181101561254a57601780548061250857fe5b6001900381819060005260206000200160006101000a81549073ffffffffffffffffffffffffffffffffffffffff0219169055905580806001019150506124f5565b506125556000613cd4565b5050565b6017818154811061256657fe5b906000526020600020016000915054906101000a900473ffffffffffffffffffffffffffffffffffffffff1681565b60015481565b60166020528060005260406000206000915054906101000a900460ff1681565b61271081565b60026023541415612607576040517f08c379a00000000000000000000000000000000000000000000000000000000081526004016125fe906155f5565b60405180910390fd5b600260238190555060008054906101000a900460ff161561265d576040517f08c379a000000000000000000000000000000000000000000000000000000000815260040161265490615495565b60405180910390fd5b81600081116126a1576040517f08c379a0000000000000000000000000000000000000000000000000000000008152600401612698906154d5565b60405180910390fd5b601e60003373ffffffffffffffffffffffffffffffffffffffff1673ffffffffffffffffffffffffffffffffffffffff16815260200190815260200160002060009054906101000a900460ff161561272e576040517f08c379a000000000000000000000000000000000000000000000000000000000815260040161272590615615565b60405180910390fd5b82600860009054906101000a900473ffffffffffffffffffffffffffffffffffffffff1673ffffffffffffffffffffffffffffffffffffffff166370a08231336040518263ffffffff1660e01b815260040161278a9190615302565b60206040518083038186803b1580156127a257600080fd5b505afa1580156127b6573d6000803e3d6000fd5b505050506040513d601f19601f820116820180604052508101906127da9190614d31565b101561281b576040517f08c379a000000000000000000000000000000000000000000000000000000000815260040161281290615595565b60405180910390fd5b600061282933846001613713565b9150506000600190508482101561283f57600090505b8061287f576040517f08c379a000000000000000000000000000000000000000000000000000000000815260040161287690615575565b60405180910390fd5b6000612889612ae4565b90506000806005876003811061289b57fe5b0160009054906101000a900473ffffffffffffffffffffffffffffffffffffffff1673ffffffffffffffffffffffffffffffffffffffff1663313ce5676040518163ffffffff1660e01b815260040160206040518083038186803b15801561290257600080fd5b505afa158015612916573d6000803e3d6000fd5b505050506040513d601f19601f8201168201806040525081019061293a9190614d96565b60ff169150612a32670de0b6b3a7640000612a24600860009054906101000a900473ffffffffffffffffffffffffffffffffffffffff1673ffffffffffffffffffffffffffffffffffffffff166318160ddd6040518163ffffffff1660e01b815260040160206040518083038186803b1580156129b657600080fd5b505afa1580156129ca573d6000803e3d6000fd5b505050506040513d601f19601f820116820180604052508101906129ee9190614d31565b612a1686600a0a612a08898f613c1290919063ffffffff16565b613c1290919063ffffffff16565b613e5d90919063ffffffff16565b613e5d90919063ffffffff16565b9050612a63601b8860038110612a4457fe5b015460028960038110612a5357fe5b0154613ea790919063ffffffff16565b811115612aa5576040517f08c379a0000000000000000000000000000000000000000000000000000000008152600401612a9c906155b5565b60405180910390fd5b612ab08189896142d9565b50505050505060016023819055505050565b600060019054906101000a90046fffffffffffffffffffffffffffffffff1681565b60008060009050600080600090505b60038160ff161015612c7e5760058160ff1660038110612b0f57fe5b0160009054906101000a900473ffffffffffffffffffffffffffffffffffffffff1673ffffffffffffffffffffffffffffffffffffffff1663313ce5676040518163ffffffff1660e01b815260040160206040518083038186803b158015612b7657600080fd5b505afa158015612b8a573d6000803e3d6000fd5b505050506040513d601f19601f82011682018060405250810190612bae9190614d96565b60ff169150612c6f612c6083600a0a612c52670de0b6b3a7640000612c44601f8760ff1660038110612bdc57fe5b0154612c36601b8960ff1660038110612bf157fe5b0154612c2860188b60ff1660038110612c0657fe5b015460028c60ff1660038110612c1857fe5b0154613ea790919063ffffffff16565b613ea790919063ffffffff16565b613e0890919063ffffffff16565b613c1290919063ffffffff16565b613e5d90919063ffffffff16565b84613e0890919063ffffffff16565b92508080600101915050612af3565b50819250505090565b3373ffffffffffffffffffffffffffffffffffffffff16600a60009054906101000a900473ffffffffffffffffffffffffffffffffffffffff1673ffffffffffffffffffffffffffffffffffffffff1614612d17576040517f08c379a0000000000000000000000000000000000000000000000000000000008152600401612d0e90615575565b60405180910390fd5b806fffffffffffffffffffffffffffffffff1660018190555050565b3373ffffffffffffffffffffffffffffffffffffffff16600a60009054906101000a900473ffffffffffffffffffffffffffffffffffffffff1673ffffffffffffffffffffffffffffffffffffffff1614612dc3576040517f08c379a0000000000000000000000000000000000000000000000000000000008152600401612dba90615575565b60405180910390fd5b8060118190555050565b600080612dd8612ae4565b9050600060058460038110612de957fe5b0160009054906101000a900473ffffffffffffffffffffffffffffffffffffffff1673ffffffffffffffffffffffffffffffffffffffff1663313ce5676040518163ffffffff1660e01b815260040160206040518083038186803b158015612e5057600080fd5b505afa158015612e64573d6000803e3d6000fd5b505050506040513d601f19601f82011682018060405250810190612e889190614d96565b60ff169050612ebd81600a0a612eaf670de0b6b3a764000088613c1290919063ffffffff16565b613e5d90919063ffffffff16565b9450612f8382612f75600860009054906101000a900473ffffffffffffffffffffffffffffffffffffffff1673ffffffffffffffffffffffffffffffffffffffff166318160ddd6040518163ffffffff1660e01b815260040160206040518083038186803b158015612f2e57600080fd5b505afa158015612f42573d6000803e3d6000fd5b505050506040513d601f19601f82011682018060405250810190612f669190614d31565b88613c1290919063ffffffff16565b613e5d90919063ffffffff16565b9250505092915050565b60136020528160005260406000208181548110612fa657fe5b9060005260206000209060040201600091509150508060000154908060010154908060020154908060030154905084565b60156020528160005260406000208160038110612ff057fe5b01600091509150505481565b3373ffffffffffffffffffffffffffffffffffffffff16600a60009054906101000a900473ffffffffffffffffffffffffffffffffffffffff1673ffffffffffffffffffffffffffffffffffffffff161461308c576040517f08c379a000000000000000000000000000000000000000000000000000000000815260040161308390615575565b60405180910390fd5b61309461496a565b600080600090505b60038160ff161015613381576130b48160ff16611279565b838260ff16600381106130c357fe5b60200201818152505060058160ff16600381106130dc57fe5b0160009054906101000a900473ffffffffffffffffffffffffffffffffffffffff1673ffffffffffffffffffffffffffffffffffffffff1663313ce5676040518163ffffffff1660e01b815260040160206040518083038186803b15801561314357600080fd5b505afa158015613157573d6000803e3d6000fd5b505050506040513d601f19601f8201168201806040525081019061317b9190614d96565b60ff16915061319882600a0a601154613c1290919063ffffffff16565b838260ff16600381106131a757fe5b6020020151111561335957613248600b8260ff16600381106131c557fe5b015461323a61271061322c6131e7600154612710613ea790919063ffffffff16565b61321e600b8860ff16600381106131fa57fe5b01548a8960ff166003811061320b57fe5b6020020151613e0890919063ffffffff16565b613c1290919063ffffffff16565b613e5d90919063ffffffff16565b613ea790919063ffffffff16565b838260ff166003811061325757fe5b60200201818152505060058160ff166003811061327057fe5b0160009054906101000a900473ffffffffffffffffffffffffffffffffffffffff1673ffffffffffffffffffffffffffffffffffffffff1663a9059cbb600960009054906101000a900473ffffffffffffffffffffffffffffffffffffffff16858460ff16600381106132df57fe5b60200201516040518363ffffffff1660e01b81526004016133019291906153b4565b602060405180830381600087803b15801561331b57600080fd5b505af115801561332f573d6000803e3d6000fd5b505050506040513d601f19601f820116820180604052508101906133539190614cb6565b50613374565b6000838260ff166003811061336a57fe5b6020020181815250505b808060010191505061309c565b5061338b82613c82565b1561339a57613399826141e0565b5b5050565b600260235414156133e4576040517f08c379a00000000000000000000000000000000000000000000000000000000081526004016133db906155f5565b60405180910390fd5b60026023819055508160008111613430576040517f08c379a0000000000000000000000000000000000000000000000000000000008152600401613427906154d5565b60405180910390fd5b60008061343d8585612dcd565b90506005846003811061344c57fe5b0160009054906101000a900473ffffffffffffffffffffffffffffffffffffffff1673ffffffffffffffffffffffffffffffffffffffff166323b872dd3330886040518463ffffffff1660e01b81526004016134aa9392919061531d565b602060405180830381600087803b1580156134c457600080fd5b505af11580156134d8573d6000803e3d6000fd5b505050506040513d601f19601f820116820180604052508101906134fc9190614cb6565b91508161353e576040517f08c379a000000000000000000000000000000000000000000000000000000000815260040161353590615535565b60405180910390fd5b61355f856002866003811061354f57fe5b0154613e0890919063ffffffff16565b6002856003811061356c57fe5b0181905550600860009054906101000a900473ffffffffffffffffffffffffffffffffffffffff1673ffffffffffffffffffffffffffffffffffffffff166340c10f1933836040518363ffffffff1660e01b81526004016135ce929190615354565b600060405180830381600087803b1580156135e857600080fd5b505af11580156135fc573d6000803e3d6000fd5b50505050601360003373ffffffffffffffffffffffffffffffffffffffff1673ffffffffffffffffffffffffffffffffffffffff16815260200190815260200160002060405180608001604052808681526020018781526020014281526020018381525090806001815401808255809150506001900390600052602060002090600402016000909190919091506000820151816000015560208201518160010155604082015181600201556060820151816003015550507f6ec568242d49f3645a5e2f73f58b15947dba8ef3ea637e32f6703325ce46f28233866040516136e4929190615354565b60405180910390a150505060016023819055505050565b6018816003811061370857fe5b016000915090505481565b6000806000805b601360008873ffffffffffffffffffffffffffffffffffffffff1673ffffffffffffffffffffffffffffffffffffffff168152602001908152602001600020805490508160ff1610156138c5578415806137d55750601254601360008973ffffffffffffffffffffffffffffffffffffffff1673ffffffffffffffffffffffffffffffffffffffff1681526020019081526020016000208260ff16815481106137bf57fe5b9060005260206000209060040201600201544203115b801561383f57506000601360008973ffffffffffffffffffffffffffffffffffffffff1673ffffffffffffffffffffffffffffffffffffffff1681526020019081526020016000208260ff168154811061382b57fe5b906000526020600020906004020160030154115b156138b8576138b5601360008973ffffffffffffffffffffffffffffffffffffffff1673ffffffffffffffffffffffffffffffffffffffff1681526020019081526020016000208260ff168154811061389457fe5b90600052602060002090600402016003015483613e0890919063ffffffff16565b91505b808060010191505061371a565b5060005b60038160ff16101561394557613936601560008973ffffffffffffffffffffffffffffffffffffffff1673ffffffffffffffffffffffffffffffffffffffff1681526020019081526020016000208260ff166003811061392557fe5b015483613ea790919063ffffffff16565b915080806001019150506138c9565b506000613950612ae4565b905060006005876003811061396157fe5b0160009054906101000a900473ffffffffffffffffffffffffffffffffffffffff1673ffffffffffffffffffffffffffffffffffffffff1663313ce5676040518163ffffffff1660e01b815260040160206040518083038186803b1580156139c857600080fd5b505afa1580156139dc573d6000803e3d6000fd5b505050506040513d601f19601f82011682018060405250810190613a009190614d96565b60ff169050613af8670de0b6b3a7640000613aea600860009054906101000a900473ffffffffffffffffffffffffffffffffffffffff1673ffffffffffffffffffffffffffffffffffffffff166318160ddd6040518163ffffffff1660e01b815260040160206040518083038186803b158015613a7c57600080fd5b505afa158015613a90573d6000803e3d6000fd5b505050506040513d601f19601f82011682018060405250810190613ab49190614d31565b613adc85600a0a613ace888a613c1290919063ffffffff16565b613c1290919063ffffffff16565b613e5d90919063ffffffff16565b613e5d90919063ffffffff16565b8394509450505050935093915050565b600e8160038110613b1557fe5b016000915090505481565b601b8160038110613b2d57fe5b016000915090505481565b3373ffffffffffffffffffffffffffffffffffffffff16600a60009054906101000a900473ffffffffffffffffffffffffffffffffffffffff1673ffffffffffffffffffffffffffffffffffffffff1614613bc8576040517f08c379a0000000000000000000000000000000000000000000000000000000008152600401613bbf90615575565b60405180910390fd5b80600a60006101000a81548173ffffffffffffffffffffffffffffffffffffffff021916908373ffffffffffffffffffffffffffffffffffffffff16021790555050565b60125481565b600080831415613c255760009050613c7c565b6000828402905082848281613c3657fe5b0414613c77576040517f08c379a0000000000000000000000000000000000000000000000000000000008152600401613c6e90615515565b60405180910390fd5b809150505b92915050565b600080600090505b60038160ff161015613cc9576000838260ff1660038110613ca757fe5b60200201511115613cbc576001915050613ccf565b8080600101915050613c8a565b50600090505b919050565b60008054906101000a900460ff1615158115151415613cf257613d0c565b806000806101000a81548160ff0219169083151502179055505b50565b600960009054906101000a900473ffffffffffffffffffffffffffffffffffffffff1673ffffffffffffffffffffffffffffffffffffffff1663b1b8f1be826040518263ffffffff1660e01b8152600401613d6a91906153dd565b600060405180830381600087803b158015613d8457600080fd5b505af1158015613d98573d6000803e3d6000fd5b5050505060005b60038160ff161015613e0457613de2828260ff1660038110613dbd57fe5b6020020151600b8360ff1660038110613dd257fe5b0154613ea790919063ffffffff16565b600b8260ff1660038110613df257fe5b01819055508080600101915050613d9f565b5050565b600080828401905083811015613e53576040517f08c379a0000000000000000000000000000000000000000000000000000000008152600401613e4a90615475565b60405180910390fd5b8091505092915050565b6000613e9f83836040518060400160405280601a81526020017f536166654d6174683a206469766973696f6e206279207a65726f0000000000008152506145b0565b905092915050565b6000613ee983836040518060400160405280601e81526020017f536166654d6174683a207375627472616374696f6e206f766572666c6f770000815250614611565b905092915050565b60005b601360008473ffffffffffffffffffffffffffffffffffffffff1673ffffffffffffffffffffffffffffffffffffffff168152602001908152602001600020805490508160ff1610156141db576000601360008573ffffffffffffffffffffffffffffffffffffffff1673ffffffffffffffffffffffffffffffffffffffff1681526020019081526020016000208260ff1681548110613f9057fe5b906000526020600020906004020160030154118015613faf5750600082115b156141ce57601360008473ffffffffffffffffffffffffffffffffffffffff1673ffffffffffffffffffffffffffffffffffffffff1681526020019081526020016000208160ff168154811061400157fe5b90600052602060002090600402016003015482106140f55761408a601360008573ffffffffffffffffffffffffffffffffffffffff1673ffffffffffffffffffffffffffffffffffffffff1681526020019081526020016000208260ff168154811061406957fe5b90600052602060002090600402016003015483613ea790919063ffffffff16565b91506000601360008573ffffffffffffffffffffffffffffffffffffffff1673ffffffffffffffffffffffffffffffffffffffff1681526020019081526020016000208260ff16815481106140db57fe5b9060005260206000209060040201600301819055506141cd565b61416682601360008673ffffffffffffffffffffffffffffffffffffffff1673ffffffffffffffffffffffffffffffffffffffff1681526020019081526020016000208360ff168154811061414657fe5b906000526020600020906004020160030154613ea790919063ffffffff16565b601360008573ffffffffffffffffffffffffffffffffffffffff1673ffffffffffffffffffffffffffffffffffffffff1681526020019081526020016000208260ff16815481106141b357fe5b906000526020600020906004020160030181905550600091505b5b8080600101915050613ef4565b505050565b600960009054906101000a900473ffffffffffffffffffffffffffffffffffffffff1673ffffffffffffffffffffffffffffffffffffffff1663d4e20b01826040518263ffffffff1660e01b815260040161423b91906153dd565b600060405180830381600087803b15801561425557600080fd5b505af1158015614269573d6000803e3d6000fd5b5050505060005b60038160ff1610156142d5576142b3828260ff166003811061428e57fe5b6020020151600b8360ff16600381106142a357fe5b0154613e0890919063ffffffff16565b600b8260ff16600381106142c357fe5b01819055508080600101915050614270565b5050565b60006142e482611279565b9050600860009054906101000a900473ffffffffffffffffffffffffffffffffffffffff1673ffffffffffffffffffffffffffffffffffffffff16639dc29fac33856040518363ffffffff1660e01b8152600401614343929190615354565b600060405180830381600087803b15801561435d57600080fd5b505af1158015614371573d6000803e3d6000fd5b5050505080841015614565576000806143e96143da6127106143cc600060019054906101000a90046fffffffffffffffffffffffffffffffff166fffffffffffffffffffffffffffffffff168a613c1290919063ffffffff16565b613e5d90919063ffffffff16565b87613ea790919063ffffffff16565b905061440c81600286600381106143fc57fe5b0154613ea790919063ffffffff16565b6002856003811061441957fe5b01819055506005846003811061442b57fe5b0160009054906101000a900473ffffffffffffffffffffffffffffffffffffffff1673ffffffffffffffffffffffffffffffffffffffff1663a9059cbb33836040518363ffffffff1660e01b8152600401614487929190615354565b602060405180830381600087803b1580156144a157600080fd5b505af11580156144b5573d6000803e3d6000fd5b505050506040513d601f19601f820116820180604052508101906144d99190614cb6565b91508161451b576040517f08c379a0000000000000000000000000000000000000000000000000000000008152600401614512906155d5565b60405180910390fd5b6145253386613ef1565b7f8b46652782c1a94bd1f1e050f62dea3a99b7fe20520c003e111624847230d4fe3382604051614556929190615354565b60405180910390a150506145aa565b61457084848461466c565b7fd70cf1d21d858f226b570eec41b4238a7365568b97cf693f3ea03c3bd0d507cf33856040516145a1929190615354565b60405180910390a15b50505050565b600080831182906145f7576040517f08c379a00000000000000000000000000000000000000000000000000000000081526004016145ee9190615413565b60405180910390fd5b50600083858161460357fe5b049050809150509392505050565b6000838311158290614659576040517f08c379a00000000000000000000000000000000000000000000000000000000081526004016146509190615413565b60405180910390fd5b5060008385039050809150509392505050565b6146ca83601460003373ffffffffffffffffffffffffffffffffffffffff1673ffffffffffffffffffffffffffffffffffffffff16815260200190815260200160002083600381106146ba57fe5b0154613e0890919063ffffffff16565b601460003373ffffffffffffffffffffffffffffffffffffffff1673ffffffffffffffffffffffffffffffffffffffff168152602001908152602001600020826003811061471457fe5b018190555061477782601560003373ffffffffffffffffffffffffffffffffffffffff1673ffffffffffffffffffffffffffffffffffffffff168152602001908152602001600020836003811061476757fe5b0154613e0890919063ffffffff16565b601560003373ffffffffffffffffffffffffffffffffffffffff1673ffffffffffffffffffffffffffffffffffffffff16815260200190815260200160002082600381106147c157fe5b01819055506147e783601883600381106147d757fe5b0154613e0890919063ffffffff16565b601882600381106147f457fe5b0181905550600b816003811061480657fe5b01546018826003811061481557fe5b01541115614858576040517f08c379a000000000000000000000000000000000000000000000000000000000815260040161484f906154b5565b60405180910390fd5b601660003373ffffffffffffffffffffffffffffffffffffffff1673ffffffffffffffffffffffffffffffffffffffff16815260200190815260200160002060009054906101000a900460ff16614965576001601660003373ffffffffffffffffffffffffffffffffffffffff1673ffffffffffffffffffffffffffffffffffffffff16815260200190815260200160002060006101000a81548160ff0219169083151502179055506017339080600181540180825580915050600190039060005260206000200160009091909190916101000a81548173ffffffffffffffffffffffffffffffffffffffff021916908373ffffffffffffffffffffffffffffffffffffffff1602179055505b505050565b6040518060600160405280600390602082028036833780820191505090505090565b60008135905061499b8161585c565b92915050565b6000819050826020600302820111156149b957600080fd5b92915050565b600082601f8301126149d057600080fd5b60036149e36149de82615706565b6156d9565b915081838560208402820111156149f957600080fd5b60005b83811015614a295781614a0f8882614ae6565b8452602084019350602083019250506001810190506149fc565b5050505092915050565b600082601f830112614a4457600080fd5b6003614a57614a5282615706565b6156d9565b91508183856020840282011115614a6d57600080fd5b60005b83811015614a9d5781614a838882614afb565b845260208401935060208301925050600181019050614a70565b5050505092915050565b600081359050614ab681615873565b92915050565b600081519050614acb81615873565b92915050565b600081359050614ae08161588a565b92915050565b600081359050614af5816158a1565b92915050565b600081519050614b0a816158a1565b92915050565b600081519050614b1f816158b8565b92915050565b600060208284031215614b3757600080fd5b6000614b458482850161498c565b91505092915050565b60008060408385031215614b6157600080fd5b6000614b6f8582860161498c565b9250506020614b8085828601614ae6565b9150509250929050565b600080600060608486031215614b9f57600080fd5b6000614bad8682870161498c565b9350506020614bbe86828701614ae6565b9250506040614bcf86828701614aa7565b9150509250925092565b600060608284031215614beb57600080fd5b6000614bf9848285016149a1565b91505092915050565b600060608284031215614c1457600080fd5b6000614c2284828501614a33565b91505092915050565b60008060808385031215614c3e57600080fd5b6000614c4c858286016149bf565b9250506060614c5d8582860161498c565b9150509250929050565b600080600060e08486031215614c7c57600080fd5b6000614c8a868287016149bf565b9350506060614c9b868287016149bf565b92505060c0614cac8682870161498c565b9150509250925092565b600060208284031215614cc857600080fd5b6000614cd684828501614abc565b91505092915050565b600060208284031215614cf157600080fd5b6000614cff84828501614ad1565b91505092915050565b600060208284031215614d1a57600080fd5b6000614d2884828501614ae6565b91505092915050565b600060208284031215614d4357600080fd5b6000614d5184828501614afb565b91505092915050565b60008060408385031215614d6d57600080fd5b6000614d7b85828601614ae6565b9250506020614d8c85828601614ae6565b9150509250929050565b600060208284031215614da857600080fd5b6000614db684828501614b10565b91505092915050565b6000614dcb83836152c9565b60208301905092915050565b614de0816157e2565b82525050565b614def81615771565b82525050565b614dfe81615732565b614e088184615755565b9250614e1382615728565b8060005b83811015614e44578151614e2b8782614dbf565b9650614e3683615748565b925050600181019050614e17565b505050505050565b614e5581615783565b82525050565b6000614e668261573d565b614e708185615760565b9350614e80818560208601615818565b614e898161584b565b840191505092915050565b6000614ea1601683615760565b91507f72657175657374207769746864726177206669727374000000000000000000006000830152602082019050919050565b6000614ee1601483615760565b91507f776974686472617720717565756520656d7074790000000000000000000000006000830152602082019050919050565b6000614f21601b83615760565b91507f536166654d6174683a206164646974696f6e206f766572666c6f7700000000006000830152602082019050919050565b6000614f61601283615760565b91507f636f6e74726163742069732070617573656400000000000000000000000000006000830152602082019050919050565b6000614fa1601283615760565b91507f4e6f7420656e6f7567682062616c616e636500000000000000000000000000006000830152602082019050919050565b6000614fe1600283615760565b91507f4e560000000000000000000000000000000000000000000000000000000000006000830152602082019050919050565b6000615021601f83615760565b91507f43616c6c207769746864726177416c6c2066756e6374696f6e206669727374006000830152602082019050919050565b6000615061602183615760565b91507f536166654d6174683a206d756c7469706c69636174696f6e206f766572666c6f60008301527f77000000000000000000000000000000000000000000000000000000000000006020830152604082019050919050565b60006150c7601483615760565b91507f636f696e207472616e73666572206661696c65640000000000000000000000006000830152602082019050919050565b6000615107601683615760565b91507f5472616e73666572204e6f742053756363657366756c000000000000000000006000830152602082019050919050565b6000615147600283615760565b91507f4e410000000000000000000000000000000000000000000000000000000000006000830152602082019050919050565b6000615187600783615760565b91507f6c6f7720525054000000000000000000000000000000000000000000000000006000830152602082019050919050565b60006151c7601283615760565b91507f4e6f7420456e6f7567682062616c616e636500000000000000000000000000006000830152602082019050919050565b6000615207601683615760565b91507f5472616e73666572206e6f742053756363657366756c000000000000000000006000830152602082019050919050565b6000615247601f83615760565b91507f5265656e7472616e637947756172643a207265656e7472616e742063616c6c006000830152602082019050919050565b6000615287600b83615760565b91507f436c61696d2066697273740000000000000000000000000000000000000000006000830152602082019050919050565b6152c38161578f565b82525050565b6152d2816157cb565b82525050565b6152e1816157cb565b82525050565b60006020820190506152fc6000830184614de6565b92915050565b60006020820190506153176000830184614dd7565b92915050565b60006060820190506153326000830186614dd7565b61533f6020830185614de6565b61534c60408301846152d8565b949350505050565b60006040820190506153696000830185614dd7565b61537660208301846152d8565b9392505050565b60006060820190506153926000830186614de6565b61539f6020830185614de6565b6153ac60408301846152d8565b949350505050565b60006040820190506153c96000830185614de6565b6153d660208301846152d8565b9392505050565b60006060820190506153f26000830184614df5565b92915050565b600060208201905061540d6000830184614e4c565b92915050565b6000602082019050818103600083015261542d8184614e5b565b905092915050565b6000602082019050818103600083015261544e81614e94565b9050919050565b6000602082019050818103600083015261546e81614ed4565b9050919050565b6000602082019050818103600083015261548e81614f14565b9050919050565b600060208201905081810360008301526154ae81614f54565b9050919050565b600060208201905081810360008301526154ce81614f94565b9050919050565b600060208201905081810360008301526154ee81614fd4565b9050919050565b6000602082019050818103600083015261550e81615014565b9050919050565b6000602082019050818103600083015261552e81615054565b9050919050565b6000602082019050818103600083015261554e816150ba565b9050919050565b6000602082019050818103600083015261556e816150fa565b9050919050565b6000602082019050818103600083015261558e8161513a565b9050919050565b600060208201905081810360008301526155ae8161517a565b9050919050565b600060208201905081810360008301526155ce816151ba565b9050919050565b600060208201905081810360008301526155ee816151fa565b9050919050565b6000602082019050818103600083015261560e8161523a565b9050919050565b6000602082019050818103600083015261562e8161527a565b9050919050565b600060208201905061564a60008301846152ba565b92915050565b600060208201905061566560008301846152d8565b92915050565b600060408201905061568060008301856152d8565b61568d60208301846152d8565b9392505050565b60006080820190506156a960008301876152d8565b6156b660208301866152d8565b6156c360408301856152d8565b6156d060608301846152d8565b95945050505050565b6000604051905081810181811067ffffffffffffffff821117156156fc57600080fd5b8060405250919050565b600067ffffffffffffffff82111561571d57600080fd5b602082029050919050565b6000819050919050565b600060039050919050565b600081519050919050565b6000602082019050919050565b600081905092915050565b600082825260208201905092915050565b600061577c826157ab565b9050919050565b60008115159050919050565b60006fffffffffffffffffffffffffffffffff82169050919050565b600073ffffffffffffffffffffffffffffffffffffffff82169050919050565b6000819050919050565b600060ff82169050919050565b60006157ed826157f4565b9050919050565b60006157ff82615806565b9050919050565b6000615811826157ab565b9050919050565b60005b8381101561583657808201518184015260208101905061581b565b83811115615845576000848401525b50505050565b6000601f19601f8301169050919050565b61586581615771565b811461587057600080fd5b50565b61587c81615783565b811461588757600080fd5b50565b6158938161578f565b811461589e57600080fd5b50565b6158aa816157cb565b81146158b557600080fd5b50565b6158c1816157d5565b81146158cc57600080fd5b5056fea2646970667358221220f264c462081441ffd5a17bec6ee52ae649d70663a4e0f6fc231e03b130db00a364736f6c634300060c0033",
  "immutableReferences": {},
  "source": "// SPDX-License-Identifier: UNLICENSED\r\npragma solidity ^0.6.0;\r\npragma experimental ABIEncoderV2;\r\n\r\nimport '@openzeppelin/contracts/math/SafeMath.sol';\r\nimport './RoyaleLPVariables.sol';\r\nimport './ReentrancyGuard.sol';\r\n\r\n\r\ncontract RoyaleLP is RoyaleLPstorage,ReentrancyGuard {\r\n     \r\n    using SafeMath for uint256;\r\n  \r\n    modifier onlyWallet(){\r\n      require(wallet ==msg.sender, \"NA\");\r\n      _;\r\n    }\r\n    \r\n    modifier notPaused {\r\n        require(!paused, \"contract is paused\");\r\n        _;\r\n    }\r\n  \r\n     modifier validAmount(uint amount){\r\n      require(amount > 0, \"NV\");\r\n      _;\r\n    }\r\n\r\n    modifier onlyAuthorized() {\r\n        require( msg.sender == loanContract, \"NA\");\r\n        _;\r\n    }\r\n\r\n    // EVENTS \r\n    event userSupplied(address user,uint amount);\r\n    event userRecieved(address user,uint amount);\r\n    event userAddedToQ(address user,uint amount);\r\n    event yieldAdded(uint[3] amounts);\r\n    \r\n    \r\n    constructor(address[3] memory _tokens,address _rpToken,address _wallet) public {\r\n        uint256 decimal;\r\n        for(uint8 i=0; i<3; i++) {\r\n            tokens[i] = IERC20(_tokens[i]);\r\n            decimal=tokens[i].decimals();\r\n            selfBalance[i]= (10**decimal).mul(1000);\r\n        }\r\n        rpToken = IERC20(_rpToken);\r\n        wallet=_wallet;\r\n    }\r\n    \r\n     function transferOwnership(address _wallet) external onlyWallet(){\r\n        wallet =_wallet;\r\n    }\r\n\r\n    /* INTERNAL FUNCTIONS */\r\n    \r\n     function setPaused(bool _paused) internal {\r\n        // Ensure we're actually changing the state before we do anything\r\n        if (_paused == paused) {\r\n            return;\r\n        }\r\n\r\n        // Set our paused state.\r\n        paused = _paused;\r\n\r\n    }\r\n\r\n    function checkValidArray(uint256[3] memory amounts)internal pure returns(bool){\r\n        for(uint8 i=0;i<3;i++){\r\n            if(amounts[i]>0){\r\n                return true;\r\n            }\r\n        }\r\n        return false;\r\n    }\r\n    \r\n\r\n    // functions related to deposit and supply\r\n    \r\n    // This function deposits the fund to Yield Optimizer\r\n    function _deposit(uint256[3] memory amounts) internal {\r\n        curveStrategy.deposit(amounts);\r\n        for(uint8 i=0;i<3;i++){\r\n            YieldPoolBalance[i] =YieldPoolBalance[i].add(amounts[i]);\r\n        }\r\n    }\r\n   \r\n\r\n    \r\n     function updateLockedRPT(address recipient,uint256 amount) internal{\r\n        for(uint8 j=0; j<amountSupplied[recipient].length; j++) {\r\n             if(amountSupplied[recipient][j].remAmt > 0 && amount > 0 ) {\r\n                  if(amount >= amountSupplied[recipient][j].remAmt) {\r\n                        amount = amount.sub( amountSupplied[recipient][j].remAmt);\r\n                        amountSupplied[recipient][j].remAmt = 0;\r\n                    }\r\n                    else {\r\n                        amountSupplied[recipient][j].remAmt =(amountSupplied[recipient][j].remAmt).sub(amount);\r\n                        amount = 0;\r\n                    }\r\n                }\r\n            }\r\n    }\r\n\r\n    function checkWithdraw(uint256 amount,uint256 burnAmt,uint _index) internal{\r\n        uint256 poolBalance;\r\n        poolBalance = getBalances(_index);\r\n        rpToken.burn(msg.sender, burnAmt);\r\n        if(amount < poolBalance) {\r\n            bool result;\r\n            uint temp = amount.sub(amount.mul(fees).div(DENOMINATOR));\r\n            selfBalance[_index] =selfBalance[_index].sub(temp);\r\n            result = tokens[_index].transfer(msg.sender, temp);\r\n            require(result,\"Transfer not Succesful\");\r\n            updateLockedRPT(msg.sender,burnAmt);\r\n            emit userRecieved(msg.sender, temp); \r\n         }\r\n         else {\r\n            _takeBackQ(amount,burnAmt,_index);\r\n            emit userAddedToQ(msg.sender, amount);\r\n        }\r\n    }\r\n\r\n\r\n\r\n    // this will add unfulfilled withdraw requests to the queue\r\n    function _takeBackQ(uint256 amount,uint256 _burnAmount,uint256 _index) internal {\r\n        amountWithdraw[msg.sender][_index] =amountWithdraw[msg.sender][_index].add( amount);\r\n        amountBurnt[msg.sender][_index]=amountBurnt[msg.sender][_index].add(_burnAmount);\r\n        totalWithdraw[_index] =totalWithdraw[_index].add(amount);\r\n        require(totalWithdraw[_index]<=YieldPoolBalance[_index],\"Not enough balance\");\r\n        if(!isInQ[msg.sender]) {\r\n            isInQ[msg.sender] = true;\r\n            withdrawRecipients.push(msg.sender);\r\n            \r\n        }\r\n\r\n    }\r\n\r\n\r\n    // this will withdraw from Yield Optimizer into this contract\r\n    function _withdraw(uint256[3] memory amounts) internal {\r\n        curveStrategy.withdraw(amounts);\r\n        for(uint8 i=0;i<3;i++){\r\n            YieldPoolBalance[i] =YieldPoolBalance[i].sub(amounts[i]);\r\n        }\r\n    }\r\n\r\n    //This function calculate RPT to be mint or burn\r\n    function calcRptAmount(uint256 amount,uint _index) public view returns(uint256) {\r\n        uint256 total = calculateTotalToken();\r\n        uint256 decimal = 0;\r\n        decimal=tokens[_index].decimals();\r\n        amount=amount.mul(1e18).div(10**decimal);\r\n        return (amount.mul(rpToken.totalSupply()).div(total));        \r\n    }\r\n\r\n\r\n\r\n    //function to check available amount to withdraw for user\r\n    function availableLiquidity(address addr, uint coin,bool _time) public view returns(uint256 token,uint256 RPT) {\r\n        uint256 amount=0;\r\n        for(uint8 j=0; j<amountSupplied[addr].length; j++) {\r\n                if( (!_time || (now - amountSupplied[addr][j].time)  > lock_period)&&amountSupplied[addr][j].remAmt >0)   {\r\n                        amount =amount.add(amountSupplied[addr][j].remAmt);\r\n                }\r\n        }\r\n        for(uint8 i=0;i<3;i++){\r\n            amount =amount.sub(amountBurnt[addr][i]);\r\n        }\r\n        uint256 total=calculateTotalToken();\r\n        uint256 decimal;\r\n        decimal=tokens[coin].decimals();\r\n        return ((amount.mul(total).mul(10**decimal).div(rpToken.totalSupply())).div(10**18),amount);\r\n    }\r\n    \r\n    function calculateTotalToken()public view  returns(uint256){\r\n        uint256 total=0;\r\n        uint256 decimal;\r\n        for(uint8 i=0; i<3; i++) {\r\n            decimal = tokens[i].decimals();\r\n            total =total.add((selfBalance[i].sub(totalWithdraw[i]).sub(reserveAmount[i]).add(loanGiven[i])).mul(1e18).div(10**decimal));\r\n        } \r\n        return total;\r\n    }\r\n    \r\n    /* USER FUNCTIONS (exposed to frontend) */\r\n   \r\n\r\n    function supply(uint256 amount,uint256 _index) external nonReentrant validAmount(amount){\r\n        bool result;\r\n        uint256 mintAmount=calcRptAmount(amount,_index);\r\n        result = tokens[_index].transferFrom(msg.sender, address(this), amount);\r\n        require(result, \"coin transfer failed\");\r\n        selfBalance[_index] =selfBalance[_index].add(amount);\r\n        rpToken.mint(msg.sender, mintAmount);\r\n        amountSupplied[msg.sender].push(depositDetails(_index,amount ,now,mintAmount));\r\n        emit userSupplied(msg.sender, amount);\r\n    }\r\n\r\n    \r\n    \r\n    function requestWithdrawWithRPT(uint256 amount,uint256 _index) external nonReentrant notPaused validAmount(amount){\r\n        require(!reserveRecipients[msg.sender],\"Claim first\");\r\n        require(rpToken.balanceOf(msg.sender) >= amount, \"low RPT\");\r\n        (,uint availableRPT)=availableLiquidity(msg.sender,_index,true );\r\n        bool instant=true;\r\n         if(availableRPT < amount) {\r\n             instant=false;\r\n        }\r\n        require(instant,\"NA\");\r\n        uint256 total = calculateTotalToken();\r\n        uint256 decimal;\r\n        uint256 tokenAmount;\r\n        decimal=tokens[_index].decimals();\r\n        tokenAmount=amount.mul(total).mul(10**decimal).div(rpToken.totalSupply()).div(10**18);\r\n        require(tokenAmount <= selfBalance[_index].sub(reserveAmount[_index]),\"Not Enough balance\");\r\n        checkWithdraw(tokenAmount,amount,_index);  \r\n    }\r\n    \r\n    function claimTokens() external nonReentrant{\r\n        require(reserveRecipients[msg.sender] , \"request withdraw first\");\r\n        bool result;\r\n        uint totalBurnt;\r\n        for(uint8 i=0; i<3; i++) {\r\n            if(amountWithdraw[msg.sender][i] > 0) {\r\n                uint temp = amountWithdraw[msg.sender][i].sub((amountWithdraw[msg.sender][i].mul(fees)).div(DENOMINATOR));\r\n                result = tokens[i].transfer(msg.sender,  temp);\r\n                require(result,\"Transfer Not Succesful\");\r\n                reserveAmount[i] =reserveAmount[i].sub(amountWithdraw[msg.sender][i]);\r\n                selfBalance[i] = selfBalance[i].sub(temp);\r\n                totalBurnt =totalBurnt.add(amountBurnt[msg.sender][i]);\r\n                amountWithdraw[msg.sender][i] = 0;\r\n                amountBurnt[msg.sender][i]=0;\r\n                emit userRecieved(msg.sender,temp);\r\n            }\r\n        }\r\n        updateLockedRPT(msg.sender,totalBurnt);\r\n        reserveRecipients[msg.sender] = false;\r\n    }\r\n\r\n   \r\n\r\n\r\n    // this function deposits without minting RPT\r\n    function depsoitYield(uint256[3] calldata amounts) external {\r\n        for(uint8 i=0;i<3;i++){\r\n            if(amounts[i]!=0){\r\n             tokens[i].transferFrom(msg.sender,address(this),amounts[i]);\r\n             selfBalance[i]=selfBalance[i].add(amounts[i]);\r\n             liquidityProvidersAPY[i]=amounts[i];\r\n            }\r\n        }\r\n    }\r\n\r\n\r\n    /* CORE FUNCTIONS (called by owner only) */\r\n\r\n    //Deposit in the smart backed pool\r\n    function deposit() onlyWallet() external  {\r\n        uint256[3] memory amounts;\r\n        uint256 decimal;\r\n        for(uint8 i=0; i<3; i++) {\r\n            amounts[i]=getBalances(i);\r\n            decimal = tokens[i].decimals();\r\n            if(amounts[i] > threshold.mul(10**decimal)) {\r\n                amounts[i] =((amounts[i].add(YieldPoolBalance[i])).mul(DENOMINATOR.sub(poolPart)).div(DENOMINATOR)).sub(YieldPoolBalance[i]);\r\n                tokens[i].transfer(address(curveStrategy), amounts[i]);\r\n            }\r\n            else {\r\n                amounts[i] = 0;\r\n            }\r\n        }\r\n        if(checkValidArray(amounts)){\r\n            _deposit(amounts);\r\n        }\r\n    }\r\n    \r\n\r\n    //Withdraw from Pool\r\n    function withdraw() onlyWallet() external  {\r\n        require(checkValidArray(totalWithdraw), \"withdraw queue empty\");\r\n        setPaused(true);\r\n        _withdraw(totalWithdraw);\r\n        for(uint8 i=0;i<3;i++){\r\n            reserveAmount[i]=reserveAmount[i].add(totalWithdraw[i]);\r\n            totalWithdraw[i]=0;\r\n        }\r\n        for(uint i=0; i<withdrawRecipients.length; i++) {\r\n            reserveRecipients[withdrawRecipients[i]]=true;\r\n            isInQ[withdrawRecipients[i]]=false;\r\n        }\r\n        uint count=withdrawRecipients.length;\r\n        for(uint i=0;i<count;i++){\r\n            withdrawRecipients.pop();\r\n        }\r\n        setPaused(false);\r\n    }\r\n\r\n\r\n    function withdrawAll() public onlyWallet() {\r\n        setPaused(true);\r\n        uint[3] memory amounts;\r\n        amounts=curveStrategy.withdrawAll();\r\n        for(uint8 i=0;i<3;i++){\r\n            selfBalance[i]=tokens[i].balanceOf(address(this));\r\n            YieldPoolBalance[i]=0;\r\n        }\r\n        for(uint8 i=0;i<3;i++){\r\n            reserveAmount[i]=reserveAmount[i].add(totalWithdraw[i]);\r\n            totalWithdraw[i]=0;\r\n        }\r\n        for(uint i=0; i<withdrawRecipients.length; i++) {\r\n            reserveRecipients[withdrawRecipients[i]]=true;\r\n            isInQ[withdrawRecipients[i]]=false;\r\n        }\r\n        uint count=withdrawRecipients.length;\r\n        for(uint i=0;i<count;i++){\r\n            withdrawRecipients.pop();\r\n        }\r\n        setPaused(false);\r\n    }\r\n\r\n    //function for rebalancing pool(ratio)      \r\n    function rebalance() onlyWallet() external {\r\n        uint256 currentAmount;\r\n        uint256[3] memory amountToWithdraw;\r\n        uint256[3] memory amountToDeposit;\r\n        uint256 decimal;\r\n        for(uint8 i=0;i<3;i++) {\r\n           currentAmount=getBalances(i);\r\n           decimal=tokens[i].decimals();\r\n           uint256 strategyAmount=selfBalance[i].sub(reserveAmount[i]).mul(poolPart).div(DENOMINATOR);\r\n           if(strategyAmount > currentAmount) {\r\n              amountToWithdraw[i] = strategyAmount.sub(currentAmount);\r\n              if(amountToWithdraw[i]<(50*(10**decimal))){\r\n                  amountToWithdraw[i]=0;\r\n              }\r\n           }\r\n           else if(strategyAmount < currentAmount) {\r\n               amountToDeposit[i] = currentAmount.sub(strategyAmount);\r\n               if(amountToDeposit[i]<(50*(10**decimal))){\r\n                   amountToDeposit[i]=0;\r\n               }\r\n               else{\r\n                  tokens[i].transfer(address(curveStrategy), amountToDeposit[i]);\r\n               }\r\n           }\r\n           else {\r\n               amountToWithdraw[i] = 0;\r\n               amountToDeposit[i] = 0;\r\n           }\r\n        }\r\n        if(checkValidArray(amountToDeposit)){\r\n             _deposit(amountToDeposit);\r\n             \r\n        }\r\n        if(checkValidArray(amountToWithdraw)) {\r\n            _withdraw(amountToWithdraw);\r\n            \r\n        }\r\n\r\n    }\r\n    \r\n     // Following two functions are called by rLoan Only\r\n    function _loanWithdraw(uint256[3] memory amounts,uint256[3] memory withdrawAmount, address _loanSeeker) external onlyAuthorized() returns(bool) {\r\n        if(checkValidArray(withdrawAmount)){\r\n            _withdraw(withdrawAmount);\r\n        }\r\n        for(uint8 i=0; i<3; i++) {\r\n            if(amounts[i] > 0) {\r\n                loanGiven[i] =loanGiven[i].add(amounts[i]);\r\n                selfBalance[i] =selfBalance[i].sub( amounts[i]);\r\n                tokens[i].transfer(_loanSeeker, amounts[i]);\r\n            }\r\n        }\r\n        return true;\r\n    }\r\n    \r\n    //Function only called by multisig contract for transfering tokens\r\n    function _loanRepayment(uint256[3] memory amounts, address _loanSeeker) external onlyAuthorized()  returns(bool) {\r\n        for(uint8 i=0; i<3; i++) {\r\n            if(amounts[i] > 0) {\r\n                loanGiven[i] =loanGiven[i].sub(amounts[i]);\r\n                selfBalance[i] =selfBalance[i].add(amounts[i]);\r\n                tokens[i].transferFrom(_loanSeeker, address(this), amounts[i]);\r\n            }\r\n        }\r\n        return true;\r\n    }\r\n\r\n\r\n    function getBalances(uint _index) public view returns(uint256) {\r\n        return (tokens[_index].balanceOf(address(this)).sub(reserveAmount[_index]));\r\n    }\r\n\r\n    /* ADMIN FUNCTIONS */\r\n    \r\n    function setLoanContract(address _loanContract)external onlyWallet() {\r\n        loanContract=_loanContract;\r\n        \r\n    }\r\n\r\n    function changePoolPart(uint128 _newPoolPart) external onlyWallet()  {\r\n        poolPart = _newPoolPart;\r\n        \r\n    }\r\n\r\n\r\n    function setThresholdTokenAmount(uint256 _newThreshold) external onlyWallet()  {\r\n        threshold = _newThreshold;\r\n        \r\n    }\r\n\r\n    function changeCurveStrategy(address _strategy) onlyWallet() external  {\r\n        for(uint8 i=0;i<3;i++){\r\n            require(YieldPoolBalance[i]==0, \"Call withdrawAll function first\");\r\n        } \r\n        curveStrategy=rCurveStrategy(_strategy);\r\n        \r\n    }\r\n\r\n    function setLockPeriod(uint256 lockperiod) onlyWallet() external  {\r\n        lock_period = lockperiod;\r\n        \r\n    }\r\n\r\n    function setWithdrawFees(uint128 _fees) onlyWallet() external {\r\n        fees = _fees;\r\n\r\n    }\r\n\r\n   /* function getAmountSuppliedLength(address _address)public view returns(uint256){\r\n        return amountSupplied[_address].length;\r\n    }\r\n    \r\n    function getYourLiquidity(address _address , uint256 _index) public view returns(uint256){\r\n       (uint256 amount,)= availableLiquidity(_address,_index,false);\r\n       return amount;\r\n    }*/\r\n}",
  "sourcePath": "C:/Users/vishn/OneDrive/Desktop/RoyaleProject/RoyaleFinance/royale-contracts/contracts/Pool/RoyaleLP.sol",
  "compiler": {
    "name": "solc",
    "version": "0.6.12+commit.27d51765.Emscripten.clang"
  },
  "schemaVersion": "3.3.2",
  "updatedAt": "2021-02-17T14:26:52.361Z",
  "devdoc": {
    "kind": "dev",
    "methods": {},
    "version": 1
  },
  "userdoc": {
    "kind": "user",
    "methods": {},
    "version": 1
  }
}