{
  "contractName": "RoyaleLP",
  "abi": [
    {
      "inputs": [
        {
          "internalType": "address[3]",
          "name": "_tokens",
          "type": "address[3]"
        },
        {
          "internalType": "address",
          "name": "_rpToken",
          "type": "address"
        },
        {
          "internalType": "address",
          "name": "_wallet",
          "type": "address"
        }
      ],
      "stateMutability": "nonpayable",
      "type": "constructor"
    },
    {
      "anonymous": false,
      "inputs": [
        {
          "indexed": false,
          "internalType": "address",
          "name": "user",
          "type": "address"
        },
        {
          "indexed": false,
          "internalType": "uint256",
          "name": "amount",
          "type": "uint256"
        }
      ],
      "name": "userAddedToQ",
      "type": "event"
    },
    {
      "anonymous": false,
      "inputs": [
        {
          "indexed": false,
          "internalType": "address",
          "name": "user",
          "type": "address"
        },
        {
          "indexed": false,
          "internalType": "uint256",
          "name": "amount",
          "type": "uint256"
        }
      ],
      "name": "userRecieved",
      "type": "event"
    },
    {
      "anonymous": false,
      "inputs": [
        {
          "indexed": false,
          "internalType": "address",
          "name": "user",
          "type": "address"
        },
        {
          "indexed": false,
          "internalType": "uint256",
          "name": "amount",
          "type": "uint256"
        }
      ],
      "name": "userSupplied",
      "type": "event"
    },
    {
      "anonymous": false,
      "inputs": [
        {
          "indexed": false,
          "internalType": "uint256[3]",
          "name": "amounts",
          "type": "uint256[3]"
        }
      ],
      "name": "yieldAdded",
      "type": "event"
    },
    {
      "inputs": [],
      "name": "DENOMINATOR",
      "outputs": [
        {
          "internalType": "uint256",
          "name": "",
          "type": "uint256"
        }
      ],
      "stateMutability": "view",
      "type": "function"
    },
    {
      "inputs": [
        {
          "internalType": "uint256",
          "name": "",
          "type": "uint256"
        }
      ],
      "name": "YieldPoolBalance",
      "outputs": [
        {
          "internalType": "uint256",
          "name": "",
          "type": "uint256"
        }
      ],
      "stateMutability": "view",
      "type": "function"
    },
    {
      "inputs": [
        {
          "internalType": "address",
          "name": "",
          "type": "address"
        },
        {
          "internalType": "uint256",
          "name": "",
          "type": "uint256"
        }
      ],
      "name": "amountBurnt",
      "outputs": [
        {
          "internalType": "uint256",
          "name": "",
          "type": "uint256"
        }
      ],
      "stateMutability": "view",
      "type": "function"
    },
    {
      "inputs": [
        {
          "internalType": "address",
          "name": "",
          "type": "address"
        },
        {
          "internalType": "uint256",
          "name": "",
          "type": "uint256"
        }
      ],
      "name": "amountSupplied",
      "outputs": [
        {
          "internalType": "uint256",
          "name": "index",
          "type": "uint256"
        },
        {
          "internalType": "uint256",
          "name": "amount",
          "type": "uint256"
        },
        {
          "internalType": "uint256",
          "name": "time",
          "type": "uint256"
        },
        {
          "internalType": "uint256",
          "name": "remAmt",
          "type": "uint256"
        }
      ],
      "stateMutability": "view",
      "type": "function"
    },
    {
      "inputs": [
        {
          "internalType": "address",
          "name": "",
          "type": "address"
        },
        {
          "internalType": "uint256",
          "name": "",
          "type": "uint256"
        }
      ],
      "name": "amountWithdraw",
      "outputs": [
        {
          "internalType": "uint256",
          "name": "",
          "type": "uint256"
        }
      ],
      "stateMutability": "view",
      "type": "function"
    },
    {
      "inputs": [],
      "name": "fees",
      "outputs": [
        {
          "internalType": "uint128",
          "name": "",
          "type": "uint128"
        }
      ],
      "stateMutability": "view",
      "type": "function"
    },
    {
      "inputs": [
        {
          "internalType": "address",
          "name": "",
          "type": "address"
        }
      ],
      "name": "isInQ",
      "outputs": [
        {
          "internalType": "bool",
          "name": "",
          "type": "bool"
        }
      ],
      "stateMutability": "view",
      "type": "function"
    },
    {
      "inputs": [
        {
          "internalType": "uint256",
          "name": "",
          "type": "uint256"
        }
      ],
      "name": "liquidityProvidersAPY",
      "outputs": [
        {
          "internalType": "uint256",
          "name": "",
          "type": "uint256"
        }
      ],
      "stateMutability": "view",
      "type": "function"
    },
    {
      "inputs": [],
      "name": "loanContract",
      "outputs": [
        {
          "internalType": "address",
          "name": "",
          "type": "address"
        }
      ],
      "stateMutability": "view",
      "type": "function"
    },
    {
      "inputs": [
        {
          "internalType": "uint256",
          "name": "",
          "type": "uint256"
        }
      ],
      "name": "loanGiven",
      "outputs": [
        {
          "internalType": "uint256",
          "name": "",
          "type": "uint256"
        }
      ],
      "stateMutability": "view",
      "type": "function"
    },
    {
      "inputs": [],
      "name": "lock_period",
      "outputs": [
        {
          "internalType": "uint256",
          "name": "",
          "type": "uint256"
        }
      ],
      "stateMutability": "view",
      "type": "function"
    },
    {
      "inputs": [],
      "name": "poolPart",
      "outputs": [
        {
          "internalType": "uint256",
          "name": "",
          "type": "uint256"
        }
      ],
      "stateMutability": "view",
      "type": "function"
    },
    {
      "inputs": [
        {
          "internalType": "uint256",
          "name": "",
          "type": "uint256"
        }
      ],
      "name": "selfBalance",
      "outputs": [
        {
          "internalType": "uint256",
          "name": "",
          "type": "uint256"
        }
      ],
      "stateMutability": "view",
      "type": "function"
    },
    {
      "inputs": [],
      "name": "threshold",
      "outputs": [
        {
          "internalType": "uint256",
          "name": "",
          "type": "uint256"
        }
      ],
      "stateMutability": "view",
      "type": "function"
    },
    {
      "inputs": [
        {
          "internalType": "uint256",
          "name": "",
          "type": "uint256"
        }
      ],
      "name": "totalWithdraw",
      "outputs": [
        {
          "internalType": "uint256",
          "name": "",
          "type": "uint256"
        }
      ],
      "stateMutability": "view",
      "type": "function"
    },
    {
      "inputs": [],
      "name": "wallet",
      "outputs": [
        {
          "internalType": "address",
          "name": "",
          "type": "address"
        }
      ],
      "stateMutability": "view",
      "type": "function"
    },
    {
      "inputs": [
        {
          "internalType": "address",
          "name": "_wallet",
          "type": "address"
        }
      ],
      "name": "transferOwnership",
      "outputs": [],
      "stateMutability": "nonpayable",
      "type": "function"
    },
    {
      "inputs": [
        {
          "internalType": "uint256",
          "name": "amount",
          "type": "uint256"
        },
        {
          "internalType": "uint256",
          "name": "_index",
          "type": "uint256"
        }
      ],
      "name": "calcRptAmount",
      "outputs": [
        {
          "internalType": "uint256",
          "name": "",
          "type": "uint256"
        }
      ],
      "stateMutability": "view",
      "type": "function"
    },
    {
      "inputs": [
        {
          "internalType": "address",
          "name": "addr",
          "type": "address"
        },
        {
          "internalType": "uint256",
          "name": "coin",
          "type": "uint256"
        },
        {
          "internalType": "bool",
          "name": "_time",
          "type": "bool"
        }
      ],
      "name": "availableLiquidity",
      "outputs": [
        {
          "internalType": "uint256",
          "name": "token",
          "type": "uint256"
        },
        {
          "internalType": "uint256",
          "name": "RPT",
          "type": "uint256"
        }
      ],
      "stateMutability": "view",
      "type": "function"
    },
    {
      "inputs": [],
      "name": "calculateTotalToken",
      "outputs": [
        {
          "internalType": "uint256",
          "name": "",
          "type": "uint256"
        }
      ],
      "stateMutability": "view",
      "type": "function"
    },
    {
      "inputs": [
        {
          "internalType": "uint256",
          "name": "amount",
          "type": "uint256"
        },
        {
          "internalType": "uint256",
          "name": "_index",
          "type": "uint256"
        }
      ],
      "name": "supply",
      "outputs": [],
      "stateMutability": "nonpayable",
      "type": "function"
    },
    {
      "inputs": [
        {
          "internalType": "uint256",
          "name": "amount",
          "type": "uint256"
        },
        {
          "internalType": "uint256",
          "name": "_index",
          "type": "uint256"
        }
      ],
      "name": "requestWithdrawWithRPT",
      "outputs": [],
      "stateMutability": "nonpayable",
      "type": "function"
    },
    {
      "inputs": [
        {
          "internalType": "uint256[3]",
          "name": "amounts",
          "type": "uint256[3]"
        },
        {
          "internalType": "uint256[3]",
          "name": "withdrawAmount",
          "type": "uint256[3]"
        },
        {
          "internalType": "address",
          "name": "_loanSeeker",
          "type": "address"
        }
      ],
      "name": "_loanWithdraw",
      "outputs": [
        {
          "internalType": "bool",
          "name": "",
          "type": "bool"
        }
      ],
      "stateMutability": "nonpayable",
      "type": "function"
    },
    {
      "inputs": [
        {
          "internalType": "uint256[3]",
          "name": "amounts",
          "type": "uint256[3]"
        },
        {
          "internalType": "address",
          "name": "_loanSeeker",
          "type": "address"
        }
      ],
      "name": "_loanRepayment",
      "outputs": [
        {
          "internalType": "bool",
          "name": "",
          "type": "bool"
        }
      ],
      "stateMutability": "nonpayable",
      "type": "function"
    },
    {
      "inputs": [
        {
          "internalType": "uint256[3]",
          "name": "amounts",
          "type": "uint256[3]"
        }
      ],
      "name": "depsoitYield",
      "outputs": [],
      "stateMutability": "nonpayable",
      "type": "function"
    },
    {
      "inputs": [],
      "name": "deposit",
      "outputs": [],
      "stateMutability": "nonpayable",
      "type": "function"
    },
    {
      "inputs": [],
      "name": "withdraw",
      "outputs": [],
      "stateMutability": "nonpayable",
      "type": "function"
    },
    {
      "inputs": [],
      "name": "withdrawAll",
      "outputs": [],
      "stateMutability": "nonpayable",
      "type": "function"
    },
    {
      "inputs": [],
      "name": "rebalance",
      "outputs": [],
      "stateMutability": "nonpayable",
      "type": "function"
    },
    {
      "inputs": [
        {
          "internalType": "uint256",
          "name": "_index",
          "type": "uint256"
        }
      ],
      "name": "getBalances",
      "outputs": [
        {
          "internalType": "uint256",
          "name": "",
          "type": "uint256"
        }
      ],
      "stateMutability": "view",
      "type": "function"
    },
    {
      "inputs": [
        {
          "internalType": "address",
          "name": "_loanContract",
          "type": "address"
        }
      ],
      "name": "setLoanContract",
      "outputs": [],
      "stateMutability": "nonpayable",
      "type": "function"
    },
    {
      "inputs": [
        {
          "internalType": "uint128",
          "name": "_newPoolPart",
          "type": "uint128"
        }
      ],
      "name": "changePoolPart",
      "outputs": [],
      "stateMutability": "nonpayable",
      "type": "function"
    },
    {
      "inputs": [
        {
          "internalType": "uint256",
          "name": "_newThreshold",
          "type": "uint256"
        }
      ],
      "name": "setThresholdTokenAmount",
      "outputs": [],
      "stateMutability": "nonpayable",
      "type": "function"
    },
    {
      "inputs": [
        {
          "internalType": "address",
          "name": "_strategy",
          "type": "address"
        }
      ],
      "name": "changeCurveStrategy",
      "outputs": [],
      "stateMutability": "nonpayable",
      "type": "function"
    },
    {
      "inputs": [
        {
          "internalType": "uint256",
          "name": "lockperiod",
          "type": "uint256"
        }
      ],
      "name": "setLockPeriod",
      "outputs": [],
      "stateMutability": "nonpayable",
      "type": "function"
    },
    {
      "inputs": [
        {
          "internalType": "uint128",
          "name": "_fees",
          "type": "uint128"
        }
      ],
      "name": "setWithdrawFees",
      "outputs": [],
      "stateMutability": "nonpayable",
      "type": "function"
    },
    {
      "inputs": [
        {
          "internalType": "address",
          "name": "_address",
          "type": "address"
        }
      ],
      "name": "getAmountSuppliedLength",
      "outputs": [
        {
          "internalType": "uint256",
          "name": "",
          "type": "uint256"
        }
      ],
      "stateMutability": "view",
      "type": "function"
    },
    {
      "inputs": [
        {
          "internalType": "address",
          "name": "_address",
          "type": "address"
        },
        {
          "internalType": "uint256",
          "name": "_index",
          "type": "uint256"
        }
      ],
      "name": "getYourLiquidity",
      "outputs": [
        {
          "internalType": "uint256",
          "name": "",
          "type": "uint256"
        }
      ],
      "stateMutability": "view",
      "type": "function"
    }
  ],
  "bytecode": "0x60806040526001805560006002556019600460006101000a8154816fffffffffffffffffffffffffffffffff02191690836fffffffffffffffffffffffffffffffff1602179055506102ee6005556101f4601555603c6016553480156200006557600080fd5b506040516200580e3803806200580e83398181016040528101906200008b9190620003b8565b6001602381905550600080600090505b60038160ff1610156200020957848160ff1660038110620000b857fe5b602002015160098260ff1660038110620000ce57fe5b0160006101000a81548173ffffffffffffffffffffffffffffffffffffffff021916908373ffffffffffffffffffffffffffffffffffffffff16021790555060098160ff16600381106200011e57fe5b0160009054906101000a900473ffffffffffffffffffffffffffffffffffffffff1673ffffffffffffffffffffffffffffffffffffffff1663313ce5676040518163ffffffff1660e01b815260040160206040518083038186803b1580156200018657600080fd5b505afa1580156200019b573d6000803e3d6000fd5b505050506040513d601f19601f82011682018060405250810190620001c191906200040e565b60ff169150620001e56103e883600a0a6200029660201b620030d01790919060201c565b60068260ff1660038110620001f657fe5b018190555080806001019150506200009b565b5082600c60006101000a81548173ffffffffffffffffffffffffffffffffffffffff021916908373ffffffffffffffffffffffffffffffffffffffff16021790555081600e60006101000a81548173ffffffffffffffffffffffffffffffffffffffff021916908373ffffffffffffffffffffffffffffffffffffffff160217905550505050506200059b565b600080831415620002ab576000905062000306565b6000828402905082848281620002bd57fe5b041462000301576040517f08c379a0000000000000000000000000000000000000000000000000000000008152600401620002f890620004a2565b60405180910390fd5b809150505b92915050565b6000815190506200031d8162000567565b92915050565b600082601f8301126200033557600080fd5b60036200034c6200034682620004f2565b620004c4565b915081838560208402820111156200036357600080fd5b60005b838110156200039757816200037c88826200030c565b84526020840193506020830192505060018101905062000366565b5050505092915050565b600081519050620003b28162000581565b92915050565b600080600060a08486031215620003ce57600080fd5b6000620003de8682870162000323565b9350506060620003f1868287016200030c565b925050608062000404868287016200030c565b9150509250925092565b6000602082840312156200042157600080fd5b60006200043184828501620003a1565b91505092915050565b60006200044960218362000515565b91507f536166654d6174683a206d756c7469706c69636174696f6e206f766572666c6f60008301527f77000000000000000000000000000000000000000000000000000000000000006020830152604082019050919050565b60006020820190508181036000830152620004bd816200043a565b9050919050565b6000604051905081810181811067ffffffffffffffff82111715620004e857600080fd5b8060405250919050565b600067ffffffffffffffff8211156200050a57600080fd5b602082029050919050565b600082825260208201905092915050565b600062000533826200053a565b9050919050565b600073ffffffffffffffffffffffffffffffffffffffff82169050919050565b600060ff82169050919050565b620005728162000526565b81146200057e57600080fd5b50565b6200058c816200055a565b81146200059857600080fd5b50565b61526380620005ab6000396000f3fe608060405234801561001057600080fd5b50600436106102325760003560e01c80638e9b032611610130578063c23177b2116100b8578063de4498391161007c578063de449839146106a0578063eabc9e31146106d1578063f2fde38b14610701578063f83e9a201461071d578063f967052c1461073b57610232565b8063c23177b2146105e7578063c6b93df71461061a578063d0e30db01461064a578063daecfa6c14610654578063db28bfd01461067057610232565b80639af1d35a116100ff5780639af1d35a146105435780639daca2be14610561578063a70200bd1461057f578063b8b106801461059b578063bf4b136b146105b757610232565b80638e9b0326146104bb578063905f692e146104d9578063918f86741461050957806393f9c5521461052757610232565b806369850424116101be578063779972da11610182578063779972da1461043f5780637d7c2a1c1461045b578063800012881461046557806383cf1c8c14610495578063853828b6146104b157610232565b806369850424146103775780636a004091146103a75780636a4e2092146103d75780636b9f1ef6146103f35780636d6ea2571461040f57610232565b806342cde4e81161020557806342cde4e8146102ab578063490adbaf146102c9578063521eb273146102f957806357cba534146103175780635cd60cd11461034757610232565b8063253f284b1461023757806331805a2b1461025557806331d38806146102855780633ccfd60b146102a1575b600080fd5b61023f61076b565b60405161024c9190614cc5565b60405180910390f35b61026f600480360381019061026a91906147e6565b610791565b60405161027c9190614fae565b60405180910390f35b61029f600480360381019061029a9190614603565b6107a9565b005b6102a961087d565b005b6102b3610a39565b6040516102c09190614fae565b60405180910390f35b6102e360048036038101906102de91906147e6565b610a3f565b6040516102f09190614fae565b60405180910390f35b610301610aff565b60405161030e9190614cc5565b60405180910390f35b610331600480360381019061032c9190614745565b610b25565b60405161033e9190614dd6565b60405180910390f35b610361600480360381019061035c919061462c565b610d7e565b60405161036e9190614fae565b60405180910390f35b610391600480360381019061038c91906147e6565b610da3565b60405161039e9190614fae565b60405180910390f35b6103c160048036038101906103bc9190614603565b610dbb565b6040516103ce9190614fae565b60405180910390f35b6103f160048036038101906103ec9190614603565b610e07565b005b61040d600480360381019061040891906147bd565b610f4c565b005b610429600480360381019061042491906147e6565b611018565b6040516104369190614fae565b60405180910390f35b610459600480360381019061045491906147e6565b611030565b005b6104636110ca565b005b61047f600480360381019061047a9190614709565b6114dc565b60405161048c9190614dd6565b60405180910390f35b6104af60048036038101906104aa91906146b7565b61171e565b005b6104b96118a3565b005b6104c3611b26565b6040516104d09190614fae565b60405180910390f35b6104f360048036038101906104ee9190614603565b611b2c565b6040516105009190614dd6565b60405180910390f35b610511611b4c565b60405161051e9190614fae565b60405180910390f35b610541600480360381019061053c9190614838565b611b52565b005b61054b611f58565b6040516105589190614f93565b60405180910390f35b610569611f7a565b6040516105769190614fae565b60405180910390f35b610599600480360381019061059491906147bd565b6120fa565b005b6105b560048036038101906105b091906147e6565b6121a6565b005b6105d160048036038101906105cc9190614838565b612240565b6040516105de9190614fae565b60405180910390f35b61060160048036038101906105fc919061462c565b612400565b6040516106119493929190614ff2565b60405180910390f35b610634600480360381019061062f919061462c565b61244a565b6040516106419190614fae565b60405180910390f35b61065261246f565b005b61066e60048036038101906106699190614838565b612811565b005b61068a600480360381019061068591906147e6565b612b6e565b6040516106979190614fae565b60405180910390f35b6106ba60048036038101906106b59190614668565b612b86565b6040516106c8929190614fc9565b60405180910390f35b6106eb60048036038101906106e691906147e6565b612fc2565b6040516106f89190614fae565b60405180910390f35b61071b60048036038101906107169190614603565b612fda565b005b6107256130ae565b6040516107329190614fae565b60405180910390f35b6107556004803603810190610750919061462c565b6130b4565b6040516107629190614fae565b60405180910390f35b602260009054906101000a900473ffffffffffffffffffffffffffffffffffffffff1681565b600f816003811061079e57fe5b016000915090505481565b3373ffffffffffffffffffffffffffffffffffffffff16600e60009054906101000a900473ffffffffffffffffffffffffffffffffffffffff1673ffffffffffffffffffffffffffffffffffffffff1614610839576040517f08c379a000000000000000000000000000000000000000000000000000000000815260040161083090614ef3565b60405180910390fd5b80602260006101000a81548173ffffffffffffffffffffffffffffffffffffffff021916908373ffffffffffffffffffffffffffffffffffffffff16021790555050565b3373ffffffffffffffffffffffffffffffffffffffff16600e60009054906101000a900473ffffffffffffffffffffffffffffffffffffffff1673ffffffffffffffffffffffffffffffffffffffff161461090d576040517f08c379a000000000000000000000000000000000000000000000000000000000815260040161090490614ef3565b60405180910390fd5b610953601c600380602002604051908101604052809291908260038015610949576020028201915b815481526020019060010190808311610935575b5050505050613140565b610992576040517f08c379a000000000000000000000000000000000000000000000000000000000815260040161098990614e13565b60405180910390fd5b6109d8601c6003806020026040519081016040528092919082600380156109ce576020028201915b8154815260200190600101908083116109ba575b5050505050613192565b6000601b60009054906101000a900463ffffffff16905060005b8163ffffffff168160ff161015610a26576000610a0d61328b565b9050610a1881613382565b5080806001019150506109f2565b5060018081905550600060028190555050565b60155481565b600060098260038110610a4e57fe5b0160009054906101000a900473ffffffffffffffffffffffffffffffffffffffff1673ffffffffffffffffffffffffffffffffffffffff166370a08231306040518263ffffffff1660e01b8152600401610aa89190614cc5565b60206040518083038186803b158015610ac057600080fd5b505afa158015610ad4573d6000803e3d6000fd5b505050506040513d601f19601f82011682018060405250810190610af8919061480f565b9050919050565b600e60009054906101000a900473ffffffffffffffffffffffffffffffffffffffff1681565b6000602260009054906101000a900473ffffffffffffffffffffffffffffffffffffffff1673ffffffffffffffffffffffffffffffffffffffff163373ffffffffffffffffffffffffffffffffffffffff1614610bb7576040517f08c379a0000000000000000000000000000000000000000000000000000000008152600401610bae90614ef3565b60405180910390fd5b610bc083613140565b15610bcf57610bce83613192565b5b60005b60038160ff161015610d72576000858260ff1660038110610bef57fe5b60200201511115610d6557610c31858260ff1660038110610c0c57fe5b6020020151601f8360ff1660038110610c2157fe5b015461389690919063ffffffff16565b601f8260ff1660038110610c4157fe5b0181905550610c7d858260ff1660038110610c5857fe5b602002015160068360ff1660038110610c6d57fe5b01546138eb90919063ffffffff16565b60068260ff1660038110610c8d57fe5b018190555060098160ff1660038110610ca257fe5b0160009054906101000a900473ffffffffffffffffffffffffffffffffffffffff1673ffffffffffffffffffffffffffffffffffffffff1663a9059cbb84878460ff1660038110610cef57fe5b60200201516040518363ffffffff1660e01b8152600401610d11929190614d92565b602060405180830381600087803b158015610d2b57600080fd5b505af1158015610d3f573d6000803e3d6000fd5b505050506040513d601f19601f82011682018060405250810190610d639190614794565b505b8080600101915050610bd2565b50600190509392505050565b60186020528160005260406000208160038110610d9757fe5b01600091509150505481565b60068160038110610db057fe5b016000915090505481565b6000601760008373ffffffffffffffffffffffffffffffffffffffff1673ffffffffffffffffffffffffffffffffffffffff168152602001908152602001600020805490509050919050565b3373ffffffffffffffffffffffffffffffffffffffff16600e60009054906101000a900473ffffffffffffffffffffffffffffffffffffffff1673ffffffffffffffffffffffffffffffffffffffff1614610e97576040517f08c379a0000000000000000000000000000000000000000000000000000000008152600401610e8e90614ef3565b60405180910390fd5b60005b60038160ff161015610f07576000600f8260ff1660038110610eb857fe5b015414610efa576040517f08c379a0000000000000000000000000000000000000000000000000000000008152600401610ef190614e73565b60405180910390fd5b8080600101915050610e9a565b5080600d60006101000a81548173ffffffffffffffffffffffffffffffffffffffff021916908373ffffffffffffffffffffffffffffffffffffffff16021790555050565b3373ffffffffffffffffffffffffffffffffffffffff16600e60009054906101000a900473ffffffffffffffffffffffffffffffffffffffff1673ffffffffffffffffffffffffffffffffffffffff1614610fdc576040517f08c379a0000000000000000000000000000000000000000000000000000000008152600401610fd390614ef3565b60405180910390fd5b80600460006101000a8154816fffffffffffffffffffffffffffffffff02191690836fffffffffffffffffffffffffffffffff16021790555050565b601f816003811061102557fe5b016000915090505481565b3373ffffffffffffffffffffffffffffffffffffffff16600e60009054906101000a900473ffffffffffffffffffffffffffffffffffffffff1673ffffffffffffffffffffffffffffffffffffffff16146110c0576040517f08c379a00000000000000000000000000000000000000000000000000000000081526004016110b790614ef3565b60405180910390fd5b8060168190555050565b3373ffffffffffffffffffffffffffffffffffffffff16600e60009054906101000a900473ffffffffffffffffffffffffffffffffffffffff1673ffffffffffffffffffffffffffffffffffffffff161461115a576040517f08c379a000000000000000000000000000000000000000000000000000000000815260040161115190614ef3565b60405180910390fd5b6000611164614448565b61116c614448565b600080600090505b60038160ff1610156114a55761118c8160ff16610a3f565b945060098160ff166003811061119e57fe5b0160009054906101000a900473ffffffffffffffffffffffffffffffffffffffff1673ffffffffffffffffffffffffffffffffffffffff1663313ce5676040518163ffffffff1660e01b815260040160206040518083038186803b15801561120557600080fd5b505afa158015611219573d6000803e3d6000fd5b505050506040513d601f19601f8201168201806040525081019061123d9190614874565b60ff169150600061127e61271061127060055460068660ff166003811061126057fe5b01546130d090919063ffffffff16565b61393590919063ffffffff16565b9050858111156112f45761129b86826138eb90919063ffffffff16565b858360ff16600381106112aa57fe5b60200201818152505082600a0a603202858360ff16600381106112c957fe5b602002015110156112ef576000858360ff16600381106112e557fe5b6020020181815250505b611497565b858110156114615761130f81876138eb90919063ffffffff16565b848360ff166003811061131e57fe5b60200201818152505082600a0a603202848360ff166003811061133d57fe5b60200201511015611367576000848360ff166003811061135957fe5b60200201818152505061145c565b60098260ff166003811061137757fe5b0160009054906101000a900473ffffffffffffffffffffffffffffffffffffffff1673ffffffffffffffffffffffffffffffffffffffff1663a9059cbb600d60009054906101000a900473ffffffffffffffffffffffffffffffffffffffff16868560ff16600381106113e657fe5b60200201516040518363ffffffff1660e01b8152600401611408929190614d92565b602060405180830381600087803b15801561142257600080fd5b505af1158015611436573d6000803e3d6000fd5b505050506040513d601f19601f8201168201806040525081019061145a9190614794565b505b611496565b6000858360ff166003811061147257fe5b6020020181815250506000848360ff166003811061148c57fe5b6020020181815250505b5b508080600101915050611174565b506114af82613140565b156114be576114bd8261397f565b5b6114c783613140565b156114d6576114d583613192565b5b50505050565b6000602260009054906101000a900473ffffffffffffffffffffffffffffffffffffffff1673ffffffffffffffffffffffffffffffffffffffff163373ffffffffffffffffffffffffffffffffffffffff161461156e576040517f08c379a000000000000000000000000000000000000000000000000000000000815260040161156590614ef3565b60405180910390fd5b60005b60038160ff161015611713576000848260ff166003811061158e57fe5b60200201511115611706576115d0848260ff16600381106115ab57fe5b6020020151601f8360ff16600381106115c057fe5b01546138eb90919063ffffffff16565b601f8260ff16600381106115e057fe5b018190555061161c848260ff16600381106115f757fe5b602002015160068360ff166003811061160c57fe5b015461389690919063ffffffff16565b60068260ff166003811061162c57fe5b018190555060098160ff166003811061164157fe5b0160009054906101000a900473ffffffffffffffffffffffffffffffffffffffff1673ffffffffffffffffffffffffffffffffffffffff166323b872dd8430878560ff166003811061168f57fe5b60200201516040518463ffffffff1660e01b81526004016116b293929190614d5b565b602060405180830381600087803b1580156116cc57600080fd5b505af11580156116e0573d6000803e3d6000fd5b505050506040513d601f19601f820116820180604052508101906117049190614794565b505b8080600101915050611571565b506001905092915050565b60005b60038160ff16101561189f576000828260ff166003811061173e57fe5b6020020135146118925760098160ff166003811061175857fe5b0160009054906101000a900473ffffffffffffffffffffffffffffffffffffffff1673ffffffffffffffffffffffffffffffffffffffff166323b872dd3330858560ff16600381106117a657fe5b60200201356040518463ffffffff1660e01b81526004016117c993929190614cfb565b602060405180830381600087803b1580156117e357600080fd5b505af11580156117f7573d6000803e3d6000fd5b505050506040513d601f19601f8201168201806040525081019061181b9190614794565b50611853828260ff166003811061182e57fe5b602002013560068360ff166003811061184357fe5b015461389690919063ffffffff16565b60068260ff166003811061186357fe5b0181905550818160ff166003811061187757fe5b602002013560128260ff166003811061188c57fe5b01819055505b8080600101915050611721565b5050565b3373ffffffffffffffffffffffffffffffffffffffff16600e60009054906101000a900473ffffffffffffffffffffffffffffffffffffffff1673ffffffffffffffffffffffffffffffffffffffff1614611933576040517f08c379a000000000000000000000000000000000000000000000000000000000815260040161192a90614ef3565b60405180910390fd5b61193b614448565b600d60009054906101000a900473ffffffffffffffffffffffffffffffffffffffff1673ffffffffffffffffffffffffffffffffffffffff1663853828b66040518163ffffffff1660e01b8152600401606060405180830381600087803b1580156119a557600080fd5b505af11580156119b9573d6000803e3d6000fd5b505050506040513d601f19601f820116820180604052508101906119dd91906146e0565b905060005b60038160ff161015611b2257600f8160ff16600381106119fe57fe5b0154828260ff1660038110611a0f57fe5b60200201511115611a8e57611a74611a54600f8360ff1660038110611a3057fe5b0154848460ff1660038110611a4157fe5b60200201516138eb90919063ffffffff16565b60068360ff1660038110611a6457fe5b015461389690919063ffffffff16565b60068260ff1660038110611a8457fe5b0181905550611afe565b611ae8611ac8838360ff1660038110611aa357fe5b6020020151600f8460ff1660038110611ab857fe5b01546138eb90919063ffffffff16565b60068360ff1660038110611ad857fe5b01546138eb90919063ffffffff16565b60068260ff1660038110611af857fe5b01819055505b6000600f8260ff1660038110611b1057fe5b018190555080806001019150506119e2565b5050565b60055481565b601a6020528060005260406000206000915054906101000a900460ff1681565b61271081565b60026023541415611b98576040517f08c379a0000000000000000000000000000000000000000000000000000000008152600401611b8f90614f73565b60405180910390fd5b60026023819055508160008111611be4576040517f08c379a0000000000000000000000000000000000000000000000000000000008152600401611bdb90614e53565b60405180910390fd5b82600c60009054906101000a900473ffffffffffffffffffffffffffffffffffffffff1673ffffffffffffffffffffffffffffffffffffffff166370a08231336040518263ffffffff1660e01b8152600401611c409190614ce0565b60206040518083038186803b158015611c5857600080fd5b505afa158015611c6c573d6000803e3d6000fd5b505050506040513d601f19601f82011682018060405250810190611c90919061480f565b1015611cd1576040517f08c379a0000000000000000000000000000000000000000000000000000000008152600401611cc890614f13565b60405180910390fd5b6000611cdf33846001612b86565b91505060006001905084821015611cf557600090505b80611d35576040517f08c379a0000000000000000000000000000000000000000000000000000000008152600401611d2c90614ef3565b60405180910390fd5b6000611d3f611f7a565b905060008060098760038110611d5157fe5b0160009054906101000a900473ffffffffffffffffffffffffffffffffffffffff1673ffffffffffffffffffffffffffffffffffffffff1663313ce5676040518163ffffffff1660e01b815260040160206040518083038186803b158015611db857600080fd5b505afa158015611dcc573d6000803e3d6000fd5b505050506040513d601f19601f82011682018060405250810190611df09190614874565b60ff169150611ee8670de0b6b3a7640000611eda600c60009054906101000a900473ffffffffffffffffffffffffffffffffffffffff1673ffffffffffffffffffffffffffffffffffffffff166318160ddd6040518163ffffffff1660e01b815260040160206040518083038186803b158015611e6c57600080fd5b505afa158015611e80573d6000803e3d6000fd5b505050506040513d601f19601f82011682018060405250810190611ea4919061480f565b611ecc86600a0a611ebe898f6130d090919063ffffffff16565b6130d090919063ffffffff16565b61393590919063ffffffff16565b61393590919063ffffffff16565b905060068760038110611ef757fe5b0154811115611f3b576040517f08c379a0000000000000000000000000000000000000000000000000000000008152600401611f3290614f33565b60405180910390fd5b611f46818989613a78565b50505050505060016023819055505050565b600460009054906101000a90046fffffffffffffffffffffffffffffffff1681565b60008060009050600080600090505b60038160ff1610156120f15760098160ff1660038110611fa557fe5b0160009054906101000a900473ffffffffffffffffffffffffffffffffffffffff1673ffffffffffffffffffffffffffffffffffffffff1663313ce5676040518163ffffffff1660e01b815260040160206040518083038186803b15801561200c57600080fd5b505afa158015612020573d6000803e3d6000fd5b505050506040513d601f19601f820116820180604052508101906120449190614874565b60ff1691506120e26120d383600a0a6120c5670de0b6b3a76400006120b7601f8760ff166003811061207257fe5b01546120a9601c8960ff166003811061208757fe5b015460068a60ff166003811061209957fe5b01546138eb90919063ffffffff16565b61389690919063ffffffff16565b6130d090919063ffffffff16565b61393590919063ffffffff16565b8461389690919063ffffffff16565b92508080600101915050611f89565b50819250505090565b3373ffffffffffffffffffffffffffffffffffffffff16600e60009054906101000a900473ffffffffffffffffffffffffffffffffffffffff1673ffffffffffffffffffffffffffffffffffffffff161461218a576040517f08c379a000000000000000000000000000000000000000000000000000000000815260040161218190614ef3565b60405180910390fd5b806fffffffffffffffffffffffffffffffff1660058190555050565b3373ffffffffffffffffffffffffffffffffffffffff16600e60009054906101000a900473ffffffffffffffffffffffffffffffffffffffff1673ffffffffffffffffffffffffffffffffffffffff1614612236576040517f08c379a000000000000000000000000000000000000000000000000000000000815260040161222d90614ef3565b60405180910390fd5b8060158190555050565b60008061224b611f7a565b905060006009846003811061225c57fe5b0160009054906101000a900473ffffffffffffffffffffffffffffffffffffffff1673ffffffffffffffffffffffffffffffffffffffff1663313ce5676040518163ffffffff1660e01b815260040160206040518083038186803b1580156122c357600080fd5b505afa1580156122d7573d6000803e3d6000fd5b505050506040513d601f19601f820116820180604052508101906122fb9190614874565b60ff16905061233081600a0a612322670de0b6b3a7640000886130d090919063ffffffff16565b61393590919063ffffffff16565b94506123f6826123e8600c60009054906101000a900473ffffffffffffffffffffffffffffffffffffffff1673ffffffffffffffffffffffffffffffffffffffff166318160ddd6040518163ffffffff1660e01b815260040160206040518083038186803b1580156123a157600080fd5b505afa1580156123b5573d6000803e3d6000fd5b505050506040513d601f19601f820116820180604052508101906123d9919061480f565b886130d090919063ffffffff16565b61393590919063ffffffff16565b9250505092915050565b6017602052816000526040600020818154811061241957fe5b9060005260206000209060040201600091509150508060000154908060010154908060020154908060030154905084565b6019602052816000526040600020816003811061246357fe5b01600091509150505481565b3373ffffffffffffffffffffffffffffffffffffffff16600e60009054906101000a900473ffffffffffffffffffffffffffffffffffffffff1673ffffffffffffffffffffffffffffffffffffffff16146124ff576040517f08c379a00000000000000000000000000000000000000000000000000000000081526004016124f690614ef3565b60405180910390fd5b612507614448565b600080600090505b60038160ff1610156127f4576125278160ff16610a3f565b838260ff166003811061253657fe5b60200201818152505060098160ff166003811061254f57fe5b0160009054906101000a900473ffffffffffffffffffffffffffffffffffffffff1673ffffffffffffffffffffffffffffffffffffffff1663313ce5676040518163ffffffff1660e01b815260040160206040518083038186803b1580156125b657600080fd5b505afa1580156125ca573d6000803e3d6000fd5b505050506040513d601f19601f820116820180604052508101906125ee9190614874565b60ff16915061260b82600a0a6015546130d090919063ffffffff16565b838260ff166003811061261a57fe5b602002015111156127cc576126bb600f8260ff166003811061263857fe5b01546126ad61271061269f61265a6005546127106138eb90919063ffffffff16565b612691600f8860ff166003811061266d57fe5b01548a8960ff166003811061267e57fe5b602002015161389690919063ffffffff16565b6130d090919063ffffffff16565b61393590919063ffffffff16565b6138eb90919063ffffffff16565b838260ff16600381106126ca57fe5b60200201818152505060098160ff16600381106126e357fe5b0160009054906101000a900473ffffffffffffffffffffffffffffffffffffffff1673ffffffffffffffffffffffffffffffffffffffff1663a9059cbb600d60009054906101000a900473ffffffffffffffffffffffffffffffffffffffff16858460ff166003811061275257fe5b60200201516040518363ffffffff1660e01b8152600401612774929190614d92565b602060405180830381600087803b15801561278e57600080fd5b505af11580156127a2573d6000803e3d6000fd5b505050506040513d601f19601f820116820180604052508101906127c69190614794565b506127e7565b6000838260ff16600381106127dd57fe5b6020020181815250505b808060010191505061250f565b506127fe82613140565b1561280d5761280c8261397f565b5b5050565b60026023541415612857576040517f08c379a000000000000000000000000000000000000000000000000000000000815260040161284e90614f73565b60405180910390fd5b600260238190555081600081116128a3576040517f08c379a000000000000000000000000000000000000000000000000000000000815260040161289a90614e53565b60405180910390fd5b6000806128b08585612240565b9050600984600381106128bf57fe5b0160009054906101000a900473ffffffffffffffffffffffffffffffffffffffff1673ffffffffffffffffffffffffffffffffffffffff166323b872dd3330886040518463ffffffff1660e01b815260040161291d93929190614cfb565b602060405180830381600087803b15801561293757600080fd5b505af115801561294b573d6000803e3d6000fd5b505050506040513d601f19601f8201168201806040525081019061296f9190614794565b9150816129b1576040517f08c379a00000000000000000000000000000000000000000000000000000000081526004016129a890614eb3565b60405180910390fd5b6129d285600686600381106129c257fe5b015461389690919063ffffffff16565b600685600381106129df57fe5b0181905550600c60009054906101000a900473ffffffffffffffffffffffffffffffffffffffff1673ffffffffffffffffffffffffffffffffffffffff166340c10f1933836040518363ffffffff1660e01b8152600401612a41929190614d32565b600060405180830381600087803b158015612a5b57600080fd5b505af1158015612a6f573d6000803e3d6000fd5b50505050601760003373ffffffffffffffffffffffffffffffffffffffff1673ffffffffffffffffffffffffffffffffffffffff16815260200190815260200160002060405180608001604052808681526020018781526020014281526020018381525090806001815401808255809150506001900390600052602060002090600402016000909190919091506000820151816000015560208201518160010155604082015181600201556060820151816003015550507f6ec568242d49f3645a5e2f73f58b15947dba8ef3ea637e32f6703325ce46f2823386604051612b57929190614d32565b60405180910390a150505060016023819055505050565b601c8160038110612b7b57fe5b016000915090505481565b6000806000805b601760008873ffffffffffffffffffffffffffffffffffffffff1673ffffffffffffffffffffffffffffffffffffffff168152602001908152602001600020805490508160ff161015612d9f5785601760008973ffffffffffffffffffffffffffffffffffffffff1673ffffffffffffffffffffffffffffffffffffffff1681526020019081526020016000208260ff1681548110612c2857fe5b9060005260206000209060040201600001541415612d9257841580612cae5750601654601760008973ffffffffffffffffffffffffffffffffffffffff1673ffffffffffffffffffffffffffffffffffffffff1681526020019081526020016000208260ff1681548110612c9857fe5b9060005260206000209060040201600201544203115b8015612d1857506000601760008973ffffffffffffffffffffffffffffffffffffffff1673ffffffffffffffffffffffffffffffffffffffff1681526020019081526020016000208260ff1681548110612d0457fe5b906000526020600020906004020160030154115b15612d9157612d8e601760008973ffffffffffffffffffffffffffffffffffffffff1673ffffffffffffffffffffffffffffffffffffffff1681526020019081526020016000208260ff1681548110612d6d57fe5b9060005260206000209060040201600301548361389690919063ffffffff16565b91505b5b8080600101915050612b8d565b50612dfe601960008873ffffffffffffffffffffffffffffffffffffffff1673ffffffffffffffffffffffffffffffffffffffff1681526020019081526020016000208660038110612ded57fe5b0154826138eb90919063ffffffff16565b90506000612e0a611f7a565b9050600060098760038110612e1b57fe5b0160009054906101000a900473ffffffffffffffffffffffffffffffffffffffff1673ffffffffffffffffffffffffffffffffffffffff1663313ce5676040518163ffffffff1660e01b815260040160206040518083038186803b158015612e8257600080fd5b505afa158015612e96573d6000803e3d6000fd5b505050506040513d601f19601f82011682018060405250810190612eba9190614874565b60ff169050612fb2670de0b6b3a7640000612fa4600c60009054906101000a900473ffffffffffffffffffffffffffffffffffffffff1673ffffffffffffffffffffffffffffffffffffffff166318160ddd6040518163ffffffff1660e01b815260040160206040518083038186803b158015612f3657600080fd5b505afa158015612f4a573d6000803e3d6000fd5b505050506040513d601f19601f82011682018060405250810190612f6e919061480f565b612f9685600a0a612f88888a6130d090919063ffffffff16565b6130d090919063ffffffff16565b61393590919063ffffffff16565b61393590919063ffffffff16565b8394509450505050935093915050565b60128160038110612fcf57fe5b016000915090505481565b3373ffffffffffffffffffffffffffffffffffffffff16600e60009054906101000a900473ffffffffffffffffffffffffffffffffffffffff1673ffffffffffffffffffffffffffffffffffffffff161461306a576040517f08c379a000000000000000000000000000000000000000000000000000000000815260040161306190614ef3565b60405180910390fd5b80600e60006101000a81548173ffffffffffffffffffffffffffffffffffffffff021916908373ffffffffffffffffffffffffffffffffffffffff16021790555050565b60165481565b6000806130c384846000612b86565b5090508091505092915050565b6000808314156130e3576000905061313a565b60008284029050828482816130f457fe5b0414613135576040517f08c379a000000000000000000000000000000000000000000000000000000000815260040161312c90614e93565b60405180910390fd5b809150505b92915050565b600080600090505b60038160ff161015613187576000838260ff166003811061316557fe5b6020020151111561317a57600191505061318d565b8080600101915050613148565b50600090505b919050565b600d60009054906101000a900473ffffffffffffffffffffffffffffffffffffffff1673ffffffffffffffffffffffffffffffffffffffff1663b1b8f1be826040518263ffffffff1660e01b81526004016131ed9190614dbb565b600060405180830381600087803b15801561320757600080fd5b505af115801561321b573d6000803e3d6000fd5b5050505060005b60038160ff16101561328757613265828260ff166003811061324057fe5b6020020151600f8360ff166003811061325557fe5b01546138eb90919063ffffffff16565b600f8260ff166003811061327557fe5b01819055508080600101915050613222565b5050565b6000600154600254101561329e57600080fd5b600080600154815260200190815260200160002060009054906101000a900473ffffffffffffffffffffffffffffffffffffffff16600360006101000a81548173ffffffffffffffffffffffffffffffffffffffff021916908373ffffffffffffffffffffffffffffffffffffffff160217905550600080600154815260200190815260200160002060006101000a81549073ffffffffffffffffffffffffffffffffffffffff021916905560018060008282540192505081905550600360009054906101000a900473ffffffffffffffffffffffffffffffffffffffff16905090565b600080600090505b60038160ff161015613802576000601860008573ffffffffffffffffffffffffffffffffffffffff1673ffffffffffffffffffffffffffffffffffffffff1681526020019081526020016000208260ff16600381106133e557fe5b015411156137f55760006134f4613497612710613489600460009054906101000a90046fffffffffffffffffffffffffffffffff166fffffffffffffffffffffffffffffffff16601860008a73ffffffffffffffffffffffffffffffffffffffff1673ffffffffffffffffffffffffffffffffffffffff1681526020019081526020016000208760ff166003811061347957fe5b01546130d090919063ffffffff16565b61393590919063ffffffff16565b601860008773ffffffffffffffffffffffffffffffffffffffff1673ffffffffffffffffffffffffffffffffffffffff1681526020019081526020016000208460ff16600381106134e457fe5b01546138eb90919063ffffffff16565b905060098260ff166003811061350657fe5b0160009054906101000a900473ffffffffffffffffffffffffffffffffffffffff1673ffffffffffffffffffffffffffffffffffffffff1663a9059cbb85836040518363ffffffff1660e01b8152600401613562929190614d92565b602060405180830381600087803b15801561357c57600080fd5b505af1158015613590573d6000803e3d6000fd5b505050506040513d601f19601f820116820180604052508101906135b49190614794565b9250826135f6576040517f08c379a00000000000000000000000000000000000000000000000000000000081526004016135ed90614ed3565b60405180910390fd5b613668601860008673ffffffffffffffffffffffffffffffffffffffff1673ffffffffffffffffffffffffffffffffffffffff1681526020019081526020016000208360ff166003811061364657fe5b0154601c8460ff166003811061365857fe5b01546138eb90919063ffffffff16565b601c8360ff166003811061367857fe5b01819055506136a18160068460ff166003811061369157fe5b01546138eb90919063ffffffff16565b60068360ff16600381106136b157fe5b018190555061371284601960008773ffffffffffffffffffffffffffffffffffffffff1673ffffffffffffffffffffffffffffffffffffffff1681526020019081526020016000208460ff166003811061370757fe5b01548460ff16613d50565b6000601860008673ffffffffffffffffffffffffffffffffffffffff1673ffffffffffffffffffffffffffffffffffffffff1681526020019081526020016000208360ff166003811061376157fe5b01819055506000601960008673ffffffffffffffffffffffffffffffffffffffff1673ffffffffffffffffffffffffffffffffffffffff1681526020019081526020016000208360ff16600381106137b557fe5b01819055507f8b46652782c1a94bd1f1e050f62dea3a99b7fe20520c003e111624847230d4fe84826040516137eb929190614d92565b60405180910390a1505b808060010191505061338a565b506000601a60008473ffffffffffffffffffffffffffffffffffffffff1673ffffffffffffffffffffffffffffffffffffffff16815260200190815260200160002060006101000a81548160ff0219169083151502179055506001601b60008282829054906101000a900463ffffffff160392506101000a81548163ffffffff021916908363ffffffff1602179055505050565b6000808284019050838110156138e1576040517f08c379a00000000000000000000000000000000000000000000000000000000081526004016138d890614e33565b60405180910390fd5b8091505092915050565b600061392d83836040518060400160405280601e81526020017f536166654d6174683a207375627472616374696f6e206f766572666c6f7700008152506140a9565b905092915050565b600061397783836040518060400160405280601a81526020017f536166654d6174683a206469766973696f6e206279207a65726f000000000000815250614104565b905092915050565b600d60009054906101000a900473ffffffffffffffffffffffffffffffffffffffff1673ffffffffffffffffffffffffffffffffffffffff1663d4e20b01826040518263ffffffff1660e01b81526004016139da9190614dbb565b600060405180830381600087803b1580156139f457600080fd5b505af1158015613a08573d6000803e3d6000fd5b5050505060005b60038160ff161015613a7457613a52828260ff1660038110613a2d57fe5b6020020151600f8360ff1660038110613a4257fe5b015461389690919063ffffffff16565b600f8260ff1660038110613a6257fe5b01819055508080600101915050613a0f565b5050565b6000613a8382610a3f565b9050600c60009054906101000a900473ffffffffffffffffffffffffffffffffffffffff1673ffffffffffffffffffffffffffffffffffffffff16639dc29fac33856040518363ffffffff1660e01b8152600401613ae2929190614d32565b600060405180830381600087803b158015613afc57600080fd5b505af1158015613b10573d6000803e3d6000fd5b5050505080841015613d0557600080613b88613b79612710613b6b600460009054906101000a90046fffffffffffffffffffffffffffffffff166fffffffffffffffffffffffffffffffff168a6130d090919063ffffffff16565b61393590919063ffffffff16565b876138eb90919063ffffffff16565b9050613bab8160068660038110613b9b57fe5b01546138eb90919063ffffffff16565b60068560038110613bb857fe5b018190555060098460038110613bca57fe5b0160009054906101000a900473ffffffffffffffffffffffffffffffffffffffff1673ffffffffffffffffffffffffffffffffffffffff1663a9059cbb33836040518363ffffffff1660e01b8152600401613c26929190614d32565b602060405180830381600087803b158015613c4057600080fd5b505af1158015613c54573d6000803e3d6000fd5b505050506040513d601f19601f82011682018060405250810190613c789190614794565b915081613cba576040517f08c379a0000000000000000000000000000000000000000000000000000000008152600401613cb190614f53565b60405180910390fd5b613cc5338686613d50565b7f8b46652782c1a94bd1f1e050f62dea3a99b7fe20520c003e111624847230d4fe3382604051613cf6929190614d32565b60405180910390a15050613d4a565b613d10848484614165565b7fd70cf1d21d858f226b570eec41b4238a7365568b97cf693f3ea03c3bd0d507cf3385604051613d41929190614d32565b60405180910390a15b50505050565b60005b601760008573ffffffffffffffffffffffffffffffffffffffff1673ffffffffffffffffffffffffffffffffffffffff168152602001908152602001600020805490508160ff1610156140a35781601760008673ffffffffffffffffffffffffffffffffffffffff1673ffffffffffffffffffffffffffffffffffffffff1681526020019081526020016000208260ff1681548110613dee57fe5b906000526020600020906004020160000154148015613e6b57506000601760008673ffffffffffffffffffffffffffffffffffffffff1673ffffffffffffffffffffffffffffffffffffffff1681526020019081526020016000208260ff1681548110613e5757fe5b906000526020600020906004020160030154115b8015613e775750600083115b1561409657601760008573ffffffffffffffffffffffffffffffffffffffff1673ffffffffffffffffffffffffffffffffffffffff1681526020019081526020016000208160ff1681548110613ec957fe5b9060005260206000209060040201600301548310613fbd57613f52601760008673ffffffffffffffffffffffffffffffffffffffff1673ffffffffffffffffffffffffffffffffffffffff1681526020019081526020016000208260ff1681548110613f3157fe5b906000526020600020906004020160030154846138eb90919063ffffffff16565b92506000601760008673ffffffffffffffffffffffffffffffffffffffff1673ffffffffffffffffffffffffffffffffffffffff1681526020019081526020016000208260ff1681548110613fa357fe5b906000526020600020906004020160030181905550614095565b61402e83601760008773ffffffffffffffffffffffffffffffffffffffff1673ffffffffffffffffffffffffffffffffffffffff1681526020019081526020016000208360ff168154811061400e57fe5b9060005260206000209060040201600301546138eb90919063ffffffff16565b601760008673ffffffffffffffffffffffffffffffffffffffff1673ffffffffffffffffffffffffffffffffffffffff1681526020019081526020016000208260ff168154811061407b57fe5b906000526020600020906004020160030181905550600092505b5b8080600101915050613d53565b50505050565b60008383111582906140f1576040517f08c379a00000000000000000000000000000000000000000000000000000000081526004016140e89190614df1565b60405180910390fd5b5060008385039050809150509392505050565b6000808311829061414b576040517f08c379a00000000000000000000000000000000000000000000000000000000081526004016141429190614df1565b60405180910390fd5b50600083858161415757fe5b049050809150509392505050565b6141c383601860003373ffffffffffffffffffffffffffffffffffffffff1673ffffffffffffffffffffffffffffffffffffffff16815260200190815260200160002083600381106141b357fe5b015461389690919063ffffffff16565b601860003373ffffffffffffffffffffffffffffffffffffffff1673ffffffffffffffffffffffffffffffffffffffff168152602001908152602001600020826003811061420d57fe5b018190555061427082601960003373ffffffffffffffffffffffffffffffffffffffff1673ffffffffffffffffffffffffffffffffffffffff168152602001908152602001600020836003811061426057fe5b015461389690919063ffffffff16565b601960003373ffffffffffffffffffffffffffffffffffffffff1673ffffffffffffffffffffffffffffffffffffffff16815260200190815260200160002082600381106142ba57fe5b01819055506142e083601c83600381106142d057fe5b015461389690919063ffffffff16565b601c82600381106142ed57fe5b0181905550601a60003373ffffffffffffffffffffffffffffffffffffffff1673ffffffffffffffffffffffffffffffffffffffff16815260200190815260200160002060009054906101000a900460ff166143dc576001601b60008282829054906101000a900463ffffffff160192506101000a81548163ffffffff021916908363ffffffff1602179055506001601a60003373ffffffffffffffffffffffffffffffffffffffff1673ffffffffffffffffffffffffffffffffffffffff16815260200190815260200160002060006101000a81548160ff0219169083151502179055506143db336143e1565b5b505050565b600160026000828254019250508190555080600080600254815260200190815260200160002060006101000a81548173ffffffffffffffffffffffffffffffffffffffff021916908373ffffffffffffffffffffffffffffffffffffffff16021790555050565b6040518060600160405280600390602082028036833780820191505090505090565b600081359050614479816151ba565b92915050565b60008190508260206003028201111561449757600080fd5b92915050565b600082601f8301126144ae57600080fd5b60036144c16144bc82615064565b615037565b915081838560208402820111156144d757600080fd5b60005b8381101561450757816144ed88826145c4565b8452602084019350602083019250506001810190506144da565b5050505092915050565b600082601f83011261452257600080fd5b600361453561453082615064565b615037565b9150818385602084028201111561454b57600080fd5b60005b8381101561457b578161456188826145d9565b84526020840193506020830192505060018101905061454e565b5050505092915050565b600081359050614594816151d1565b92915050565b6000815190506145a9816151d1565b92915050565b6000813590506145be816151e8565b92915050565b6000813590506145d3816151ff565b92915050565b6000815190506145e8816151ff565b92915050565b6000815190506145fd81615216565b92915050565b60006020828403121561461557600080fd5b60006146238482850161446a565b91505092915050565b6000806040838503121561463f57600080fd5b600061464d8582860161446a565b925050602061465e858286016145c4565b9150509250929050565b60008060006060848603121561467d57600080fd5b600061468b8682870161446a565b935050602061469c868287016145c4565b92505060406146ad86828701614585565b9150509250925092565b6000606082840312156146c957600080fd5b60006146d78482850161447f565b91505092915050565b6000606082840312156146f257600080fd5b600061470084828501614511565b91505092915050565b6000806080838503121561471c57600080fd5b600061472a8582860161449d565b925050606061473b8582860161446a565b9150509250929050565b600080600060e0848603121561475a57600080fd5b60006147688682870161449d565b93505060606147798682870161449d565b92505060c061478a8682870161446a565b9150509250925092565b6000602082840312156147a657600080fd5b60006147b48482850161459a565b91505092915050565b6000602082840312156147cf57600080fd5b60006147dd848285016145af565b91505092915050565b6000602082840312156147f857600080fd5b6000614806848285016145c4565b91505092915050565b60006020828403121561482157600080fd5b600061482f848285016145d9565b91505092915050565b6000806040838503121561484b57600080fd5b6000614859858286016145c4565b925050602061486a858286016145c4565b9150509250929050565b60006020828403121561488657600080fd5b6000614894848285016145ee565b91505092915050565b60006148a98383614ca7565b60208301905092915050565b6148be81615140565b82525050565b6148cd816150cf565b82525050565b6148dc81615090565b6148e681846150b3565b92506148f182615086565b8060005b83811015614922578151614909878261489d565b9650614914836150a6565b9250506001810190506148f5565b505050505050565b614933816150e1565b82525050565b60006149448261509b565b61494e81856150be565b935061495e818560208601615176565b614967816151a9565b840191505092915050565b600061497f6014836150be565b91507f776974686472617720717565756520656d7074790000000000000000000000006000830152602082019050919050565b60006149bf601b836150be565b91507f536166654d6174683a206164646974696f6e206f766572666c6f7700000000006000830152602082019050919050565b60006149ff6002836150be565b91507f4e560000000000000000000000000000000000000000000000000000000000006000830152602082019050919050565b6000614a3f601f836150be565b91507f43616c6c207769746864726177416c6c2066756e6374696f6e206669727374006000830152602082019050919050565b6000614a7f6021836150be565b91507f536166654d6174683a206d756c7469706c69636174696f6e206f766572666c6f60008301527f77000000000000000000000000000000000000000000000000000000000000006020830152604082019050919050565b6000614ae56014836150be565b91507f636f696e207472616e73666572206661696c65640000000000000000000000006000830152602082019050919050565b6000614b256016836150be565b91507f5472616e73666572204e6f742053756363657366756c000000000000000000006000830152602082019050919050565b6000614b656002836150be565b91507f4e410000000000000000000000000000000000000000000000000000000000006000830152602082019050919050565b6000614ba56007836150be565b91507f6c6f7720525054000000000000000000000000000000000000000000000000006000830152602082019050919050565b6000614be56012836150be565b91507f4e6f7420456e6f7567682062616c616e636500000000000000000000000000006000830152602082019050919050565b6000614c256016836150be565b91507f5472616e73666572206e6f742053756363657366756c000000000000000000006000830152602082019050919050565b6000614c65601f836150be565b91507f5265656e7472616e637947756172643a207265656e7472616e742063616c6c006000830152602082019050919050565b614ca1816150ed565b82525050565b614cb081615129565b82525050565b614cbf81615129565b82525050565b6000602082019050614cda60008301846148c4565b92915050565b6000602082019050614cf560008301846148b5565b92915050565b6000606082019050614d1060008301866148b5565b614d1d60208301856148c4565b614d2a6040830184614cb6565b949350505050565b6000604082019050614d4760008301856148b5565b614d546020830184614cb6565b9392505050565b6000606082019050614d7060008301866148c4565b614d7d60208301856148c4565b614d8a6040830184614cb6565b949350505050565b6000604082019050614da760008301856148c4565b614db46020830184614cb6565b9392505050565b6000606082019050614dd060008301846148d3565b92915050565b6000602082019050614deb600083018461492a565b92915050565b60006020820190508181036000830152614e0b8184614939565b905092915050565b60006020820190508181036000830152614e2c81614972565b9050919050565b60006020820190508181036000830152614e4c816149b2565b9050919050565b60006020820190508181036000830152614e6c816149f2565b9050919050565b60006020820190508181036000830152614e8c81614a32565b9050919050565b60006020820190508181036000830152614eac81614a72565b9050919050565b60006020820190508181036000830152614ecc81614ad8565b9050919050565b60006020820190508181036000830152614eec81614b18565b9050919050565b60006020820190508181036000830152614f0c81614b58565b9050919050565b60006020820190508181036000830152614f2c81614b98565b9050919050565b60006020820190508181036000830152614f4c81614bd8565b9050919050565b60006020820190508181036000830152614f6c81614c18565b9050919050565b60006020820190508181036000830152614f8c81614c58565b9050919050565b6000602082019050614fa86000830184614c98565b92915050565b6000602082019050614fc36000830184614cb6565b92915050565b6000604082019050614fde6000830185614cb6565b614feb6020830184614cb6565b9392505050565b60006080820190506150076000830187614cb6565b6150146020830186614cb6565b6150216040830185614cb6565b61502e6060830184614cb6565b95945050505050565b6000604051905081810181811067ffffffffffffffff8211171561505a57600080fd5b8060405250919050565b600067ffffffffffffffff82111561507b57600080fd5b602082029050919050565b6000819050919050565b600060039050919050565b600081519050919050565b6000602082019050919050565b600081905092915050565b600082825260208201905092915050565b60006150da82615109565b9050919050565b60008115159050919050565b60006fffffffffffffffffffffffffffffffff82169050919050565b600073ffffffffffffffffffffffffffffffffffffffff82169050919050565b6000819050919050565b600060ff82169050919050565b600061514b82615152565b9050919050565b600061515d82615164565b9050919050565b600061516f82615109565b9050919050565b60005b83811015615194578082015181840152602081019050615179565b838111156151a3576000848401525b50505050565b6000601f19601f8301169050919050565b6151c3816150cf565b81146151ce57600080fd5b50565b6151da816150e1565b81146151e557600080fd5b50565b6151f1816150ed565b81146151fc57600080fd5b50565b61520881615129565b811461521357600080fd5b50565b61521f81615133565b811461522a57600080fd5b5056fea2646970667358221220e18d7318c95617d5be1befcf7cbd6867f61648fcf2b31798009386b8c888e8cb64736f6c634300060c0033",
  "immutableReferences": {},
  "source": "// SPDX-License-Identifier: UNLICENSED\r\npragma solidity ^0.6.0;\r\npragma experimental ABIEncoderV2;\r\n\r\nimport '@openzeppelin/contracts/math/SafeMath.sol';\r\nimport './RoyaleLPVariables.sol';\r\nimport './ReentrancyGuard.sol';\r\n\r\n\r\ncontract RoyaleLP is RoyaleLPstorage,ReentrancyGuard {\r\n     \r\n    using SafeMath for uint256;\r\n  \r\n    modifier onlyWallet(){\r\n      require(wallet ==msg.sender, \"NA\");\r\n      _;\r\n    }\r\n  \r\n    modifier validAmount(uint amount){\r\n      require(amount > 0, \"NV\");\r\n      _;\r\n    }\r\n\r\n    modifier onlyAuthorized() {\r\n        require( msg.sender == loanContract, \"NA\");\r\n        _;\r\n    }\r\n\r\n    // EVENTS \r\n    event userSupplied(address user,uint amount);\r\n    event userRecieved(address user,uint amount);\r\n    event userAddedToQ(address user,uint amount);\r\n    event yieldAdded(uint[3] amounts);\r\n    \r\n    \r\n    constructor(address[3] memory _tokens,address _rpToken,address _wallet) public {\r\n        uint256 decimal;\r\n        for(uint8 i=0; i<3; i++) {\r\n            tokens[i] = IERC20(_tokens[i]);\r\n            decimal=tokens[i].decimals();\r\n            selfBalance[i]= (10**decimal).mul(1000);\r\n        }\r\n        rpToken = IERC20(_rpToken);\r\n        wallet=_wallet;\r\n    }\r\n    \r\n     function transferOwnership(address _wallet) external onlyWallet(){\r\n        wallet =_wallet;\r\n    }\r\n\r\n    /* INTERNAL FUNCTIONS */\r\n\r\n    function checkValidArray(uint256[3] memory amounts)internal pure returns(bool){\r\n        for(uint8 i=0;i<3;i++){\r\n            if(amounts[i]>0){\r\n                return true;\r\n            }\r\n        }\r\n        return false;\r\n    }\r\n\r\n    // functions related to deposit and supply\r\n    \r\n    // This function deposits the fund to Yield Optimizer\r\n    function _deposit(uint256[3] memory amounts) internal {\r\n        curveStrategy.deposit(amounts);\r\n        for(uint8 i=0; i<3; i++) {\r\n            YieldPoolBalance[i] =YieldPoolBalance[i].add(amounts[i]);\r\n        }\r\n    }\r\n   \r\n    //Internal Calculation For User Supply \r\n\r\n\r\n\r\n    // functions related to withdraw, withdraw queue and withdraw from Yield Optimizer\r\n    function _takeBack(address recipient) internal {\r\n        bool result;\r\n        for(uint8 i=0; i<3; i++) {\r\n            if(amountWithdraw[recipient][i] > 0) {\r\n                uint temp = amountWithdraw[recipient][i].sub((amountWithdraw[recipient][i].mul(fees)).div(DENOMINATOR));\r\n                result = tokens[i].transfer(recipient,  temp);\r\n                require(result,\"Transfer Not Succesful\");\r\n                totalWithdraw[i] =totalWithdraw[i].sub(amountWithdraw[recipient][i]);\r\n                selfBalance[i] = selfBalance[i].sub(temp);\r\n                updateLockedRPT(recipient,amountBurnt[recipient][i],i);\r\n                amountWithdraw[recipient][i] = 0;\r\n                amountBurnt[recipient][i]=0;\r\n                emit userRecieved(recipient,temp);\r\n            }\r\n        }\r\n        isInQ[recipient] = false;\r\n        recipientCount -= 1;\r\n    }\r\n\r\n\r\n    \r\n     function updateLockedRPT(address recipient,uint256 amount,uint _index) internal{\r\n        for(uint8 j=0; j<amountSupplied[recipient].length; j++) {\r\n             if(amountSupplied[recipient][j].index==_index && amountSupplied[recipient][j].remAmt > 0 && amount > 0 ) {\r\n                  if(amount >= amountSupplied[recipient][j].remAmt) {\r\n                        amount = amount.sub( amountSupplied[recipient][j].remAmt);\r\n                        amountSupplied[recipient][j].remAmt = 0;\r\n                    }\r\n                    else {\r\n                        amountSupplied[recipient][j].remAmt =(amountSupplied[recipient][j].remAmt).sub(amount);\r\n                        amount = 0;\r\n                    }\r\n                }\r\n            }\r\n    }\r\n\r\n    function checkWithdraw(uint256 amount,uint256 burnAmt,uint _index) internal{\r\n        uint256 poolBalance;\r\n        poolBalance = getBalances(_index);\r\n        rpToken.burn(msg.sender, burnAmt);\r\n        if(amount < poolBalance) {\r\n            bool result;\r\n            uint temp = amount.sub(amount.mul(fees).div(DENOMINATOR));\r\n            selfBalance[_index] =selfBalance[_index].sub(temp);\r\n            result = tokens[_index].transfer(msg.sender, temp);\r\n            require(result,\"Transfer not Succesful\");\r\n            updateLockedRPT(msg.sender,burnAmt,_index);\r\n            emit userRecieved(msg.sender, temp); \r\n         }\r\n         else {\r\n            _takeBackQ(amount,burnAmt,_index);\r\n            emit userAddedToQ(msg.sender, amount);\r\n        }\r\n    }\r\n\r\n\r\n\r\n    // this will add unfulfilled withdraw requests to the queue\r\n    function _takeBackQ(uint256 amount,uint256 _burnAmount,uint256 _index) internal {\r\n        amountWithdraw[msg.sender][_index] =amountWithdraw[msg.sender][_index].add( amount);\r\n        amountBurnt[msg.sender][_index]=amountBurnt[msg.sender][_index].add(_burnAmount);\r\n        totalWithdraw[_index] =totalWithdraw[_index].add(amount);\r\n        if(!isInQ[msg.sender]) {\r\n            recipientCount += 1;\r\n            isInQ[msg.sender] = true;\r\n            addToQ(msg.sender);\r\n        }\r\n\r\n    }\r\n\r\n  \r\n\r\n\r\n    // this will withdraw from Yield Optimizer into this contract\r\n    function _withdraw(uint256[3] memory amounts) internal {\r\n        curveStrategy.withdraw(amounts);\r\n        for(uint8 i=0; i<3; i++) {\r\n            YieldPoolBalance[i] =YieldPoolBalance[i].sub(amounts[i]);\r\n        }\r\n    }\r\n\r\n    //This function calculate RPT to be mint or burn\r\n    function calcRptAmount(uint256 amount,uint _index) public view returns(uint256) {\r\n        uint256 total = calculateTotalToken();\r\n        uint256 decimal = 0;\r\n        decimal=tokens[_index].decimals();\r\n        amount=amount.mul(1e18).div(10**decimal);\r\n        return (amount.mul(rpToken.totalSupply()).div(total));        \r\n    }\r\n\r\n\r\n\r\n    //function to check available amount to withdraw for user\r\n    function availableLiquidity(address addr, uint coin,bool _time) public view returns(uint256 token,uint256 RPT) {\r\n        uint256 amount=0;\r\n        for(uint8 j=0; j<amountSupplied[addr].length; j++) {\r\n            if(amountSupplied[addr][j].index==coin){\r\n                if( (!_time || (now - amountSupplied[addr][j].time)  > lock_period)&&amountSupplied[addr][j].remAmt >0)   {\r\n                        amount =amount.add(amountSupplied[addr][j].remAmt);\r\n                }\r\n            }\r\n        }\r\n        amount =amount.sub(amountBurnt[addr][coin]);\r\n        uint256 total=calculateTotalToken();\r\n        uint256 decimal;\r\n        decimal=tokens[coin].decimals();\r\n        return ((amount.mul(total).mul(10**decimal).div(rpToken.totalSupply())).div(10**18),amount);\r\n    }\r\n    \r\n    function calculateTotalToken()public view  returns(uint256){\r\n        uint256 total=0;\r\n        uint256 decimal;\r\n        for(uint8 i=0; i<3; i++) {\r\n            decimal = tokens[i].decimals();\r\n            total =total.add((selfBalance[i].sub(totalWithdraw[i]).add(loanGiven[i])).mul(1e18).div(10**decimal));\r\n        } \r\n        return total;\r\n    }\r\n    \r\n    /* USER FUNCTIONS (exposed to frontend) */\r\n   \r\n\r\n    function supply(uint256 amount,uint256 _index) external nonReentrant validAmount(amount){\r\n        bool result;\r\n        uint256 mintAmount=calcRptAmount(amount,_index);\r\n        result = tokens[_index].transferFrom(msg.sender, address(this), amount);\r\n        require(result, \"coin transfer failed\");\r\n        selfBalance[_index] =selfBalance[_index].add(amount);\r\n        rpToken.mint(msg.sender, mintAmount);\r\n        amountSupplied[msg.sender].push(depositDetails(_index,amount ,now,mintAmount));\r\n        emit userSupplied(msg.sender, amount);\r\n    }\r\n\r\n    \r\n    \r\n    function requestWithdrawWithRPT(uint256 amount,uint256 _index) external nonReentrant validAmount(amount){\r\n        require(rpToken.balanceOf(msg.sender) >= amount, \"low RPT\");\r\n        (,uint availableRPT)=availableLiquidity(msg.sender,_index,true );\r\n        bool instant=true;\r\n         if(availableRPT < amount) {\r\n             instant=false;\r\n        }\r\n        require(instant,\"NA\");\r\n        uint256 total = calculateTotalToken();\r\n        uint256 decimal;\r\n        uint256 tokenAmount;\r\n        decimal=tokens[_index].decimals();\r\n        tokenAmount=amount.mul(total).mul(10**decimal).div(rpToken.totalSupply()).div(10**18);\r\n        require(tokenAmount <= selfBalance[_index],\"Not Enough balance\");\r\n        checkWithdraw(tokenAmount,amount,_index);  \r\n    }\r\n   \r\n    // Following two functions are called by rLoan Only\r\n    function _loanWithdraw(uint256[3] memory amounts,uint256[3] memory withdrawAmount, address _loanSeeker) public onlyAuthorized() returns(bool) {\r\n        if(checkValidArray(withdrawAmount)){\r\n            _withdraw(withdrawAmount);\r\n        }\r\n        for(uint8 i=0; i<3; i++) {\r\n            if(amounts[i] > 0) {\r\n                loanGiven[i] =loanGiven[i].add(amounts[i]);\r\n                selfBalance[i] =selfBalance[i].sub( amounts[i]);\r\n                tokens[i].transfer(_loanSeeker, amounts[i]);\r\n            }\r\n        }\r\n        return true;\r\n    }\r\n    \r\n    //Function only called by multisig contract for transfering tokens\r\n    function _loanRepayment(uint256[3] memory amounts, address _loanSeeker) public onlyAuthorized()  returns(bool) {\r\n        for(uint8 i=0; i<3; i++) {\r\n            if(amounts[i] > 0) {\r\n                loanGiven[i] =loanGiven[i].sub(amounts[i]);\r\n                selfBalance[i] =selfBalance[i].add(amounts[i]);\r\n                tokens[i].transferFrom(_loanSeeker, address(this), amounts[i]);\r\n            }\r\n        }\r\n        return true;\r\n    }\r\n\r\n    // this function deposits without minting RPT\r\n    function depsoitYield(uint256[3] calldata amounts) external {\r\n        for(uint8 i=0;i<3;i++){\r\n            if(amounts[i]!=0){\r\n             tokens[i].transferFrom(msg.sender,address(this),amounts[i]);\r\n             selfBalance[i]=selfBalance[i].add(amounts[i]);\r\n             liquidityProvidersAPY[i]=amounts[i];\r\n            }\r\n        }\r\n    }\r\n\r\n\r\n    /* CORE FUNCTIONS (called by owner only) */\r\n\r\n    //Deposit in the smart backed pool\r\n    function deposit() onlyWallet() external {\r\n        uint256[3] memory amounts;\r\n        uint256 decimal;\r\n        for(uint8 i=0; i<3; i++) {\r\n            amounts[i]=getBalances(i);\r\n            decimal = tokens[i].decimals();\r\n            if(amounts[i] > threshold.mul(10**decimal)) {\r\n                amounts[i] =((amounts[i].add(YieldPoolBalance[i])).mul(DENOMINATOR.sub(poolPart)).div(DENOMINATOR)).sub(YieldPoolBalance[i]);\r\n                tokens[i].transfer(address(curveStrategy), amounts[i]);\r\n            }\r\n            else {\r\n                amounts[i] = 0;\r\n            }\r\n        }\r\n        if(checkValidArray(amounts)){\r\n            _deposit(amounts);\r\n        }\r\n    }\r\n\r\n    //Withdraw from Pool\r\n    function withdraw() onlyWallet() external {\r\n        require(checkValidArray(totalWithdraw), \"withdraw queue empty\");\r\n        _withdraw(totalWithdraw);\r\n        uint32 counter = recipientCount;\r\n        for(uint8 i=0; i<counter; i++) {\r\n            address recipient = getFromQ();\r\n            _takeBack(recipient);\r\n        }\r\n        first=1;\r\n        last=0;\r\n    }\r\n\r\n\r\n    function withdrawAll() public onlyWallet() {\r\n        uint[3] memory amounts;\r\n        amounts=curveStrategy.withdrawAll();\r\n        for(uint8 i=0;i<3;i++){\r\n            if(amounts[i]>YieldPoolBalance[i]){\r\n                 selfBalance[i] =selfBalance[i].add(amounts[i].sub(YieldPoolBalance[i]));\r\n            }\r\n            else{\r\n               selfBalance[i] = selfBalance[i].sub(YieldPoolBalance[i].sub(amounts[i]));\r\n            }\r\n            YieldPoolBalance[i]=0;\r\n\r\n        }\r\n    }\r\n\r\n    //function for rebalancing pool(ratio)      \r\n    function rebalance() onlyWallet() external {\r\n        uint256 currentAmount;\r\n        uint256[3] memory amountToWithdraw;\r\n        uint256[3] memory amountToDeposit;\r\n        uint256 decimal;\r\n        for(uint8 i=0;i<3;i++) {\r\n           currentAmount=getBalances(i);\r\n           decimal=tokens[i].decimals();\r\n           uint256 strategyAmount=selfBalance[i].mul(poolPart).div(DENOMINATOR);\r\n           if(strategyAmount > currentAmount) {\r\n              amountToWithdraw[i] = strategyAmount.sub(currentAmount);\r\n              if(amountToWithdraw[i]<(50*(10**decimal))){\r\n                  amountToWithdraw[i]=0;\r\n              }\r\n           }\r\n           else if(strategyAmount < currentAmount) {\r\n               amountToDeposit[i] = currentAmount.sub(strategyAmount);\r\n               if(amountToDeposit[i]<(50*(10**decimal))){\r\n                   amountToDeposit[i]=0;\r\n               }\r\n               else{\r\n                  tokens[i].transfer(address(curveStrategy), amountToDeposit[i]);\r\n               }\r\n           }\r\n           else {\r\n               amountToWithdraw[i] = 0;\r\n               amountToDeposit[i] = 0;\r\n           }\r\n        }\r\n        if(checkValidArray(amountToDeposit)){\r\n             _deposit(amountToDeposit);\r\n             \r\n        }\r\n        if(checkValidArray(amountToWithdraw)) {\r\n            _withdraw(amountToWithdraw);\r\n            \r\n        }\r\n\r\n    }\r\n\r\n\r\n    function getBalances(uint _index) public view returns(uint256) {\r\n        return tokens[_index].balanceOf(address(this));\r\n    }\r\n\r\n    /* ADMIN FUNCTIONS */\r\n    \r\n    function setLoanContract(address _loanContract)external onlyWallet() {\r\n        loanContract=_loanContract;\r\n        \r\n    }\r\n\r\n    function changePoolPart(uint128 _newPoolPart) external onlyWallet()  {\r\n        poolPart = _newPoolPart;\r\n        \r\n    }\r\n\r\n\r\n    function setThresholdTokenAmount(uint256 _newThreshold) external onlyWallet()  {\r\n        threshold = _newThreshold;\r\n        \r\n    }\r\n\r\n    function changeCurveStrategy(address _strategy) onlyWallet() external  {\r\n        for(uint8 i=0;i<3;i++){\r\n            require(YieldPoolBalance[i]==0, \"Call withdrawAll function first\");\r\n        } \r\n        curveStrategy=rCurveStrategy(_strategy);\r\n        \r\n    }\r\n\r\n    function setLockPeriod(uint256 lockperiod) onlyWallet() external  {\r\n        lock_period = lockperiod;\r\n        \r\n    }\r\n\r\n    function setWithdrawFees(uint128 _fees) onlyWallet() external {\r\n        fees = _fees;\r\n\r\n    }\r\n    \r\n    function getAmountSuppliedLength(address _address)public view returns(uint256){\r\n        return amountSupplied[_address].length;\r\n    }\r\n    \r\n    function getYourLiquidity(address _address , uint256 _index) public view returns(uint256){\r\n       (uint256 amount,)= availableLiquidity(_address,_index,false);\r\n       return amount;\r\n    }\r\n}",
  "sourcePath": "C:/Users/vishn/OneDrive/Desktop/RoyaleProject/RoyaleFinance/royale-contracts/contracts/Pool/RoyaleLP.sol",
  "compiler": {
    "name": "solc",
    "version": "0.6.12+commit.27d51765.Emscripten.clang"
  },
  "schemaVersion": "3.3.2",
  "updatedAt": "2021-02-12T06:04:57.070Z",
  "devdoc": {
    "kind": "dev",
    "methods": {},
    "version": 1
  },
  "userdoc": {
    "kind": "user",
    "methods": {},
    "version": 1
  }
}