{
  "contractName": "RoyaleLPstorage",
  "abi": [
    {
      "inputs": [],
      "name": "DENOMINATOR",
      "outputs": [
        {
          "internalType": "uint256",
          "name": "",
          "type": "uint256"
        }
      ],
      "stateMutability": "view",
      "type": "function"
    },
    {
      "inputs": [
        {
          "internalType": "uint256",
          "name": "",
          "type": "uint256"
        }
      ],
      "name": "YieldPoolBalance",
      "outputs": [
        {
          "internalType": "uint256",
          "name": "",
          "type": "uint256"
        }
      ],
      "stateMutability": "view",
      "type": "function"
    },
    {
      "inputs": [
        {
          "internalType": "address",
          "name": "",
          "type": "address"
        },
        {
          "internalType": "uint256",
          "name": "",
          "type": "uint256"
        }
      ],
      "name": "amountBurnt",
      "outputs": [
        {
          "internalType": "uint256",
          "name": "",
          "type": "uint256"
        }
      ],
      "stateMutability": "view",
      "type": "function"
    },
    {
      "inputs": [
        {
          "internalType": "address",
          "name": "",
          "type": "address"
        },
        {
          "internalType": "uint256",
          "name": "",
          "type": "uint256"
        }
      ],
      "name": "amountSupplied",
      "outputs": [
        {
          "internalType": "uint256",
          "name": "amount",
          "type": "uint256"
        },
        {
          "internalType": "uint256",
          "name": "index",
          "type": "uint256"
        }
      ],
      "stateMutability": "view",
      "type": "function"
    },
    {
      "inputs": [
        {
          "internalType": "address",
          "name": "",
          "type": "address"
        },
        {
          "internalType": "uint256",
          "name": "",
          "type": "uint256"
        }
      ],
      "name": "amountWithdraw",
      "outputs": [
        {
          "internalType": "uint256",
          "name": "",
          "type": "uint256"
        }
      ],
      "stateMutability": "view",
      "type": "function"
    },
    {
      "inputs": [],
      "name": "fees",
      "outputs": [
        {
          "internalType": "uint128",
          "name": "",
          "type": "uint128"
        }
      ],
      "stateMutability": "view",
      "type": "function"
    },
    {
      "inputs": [
        {
          "internalType": "address",
          "name": "",
          "type": "address"
        }
      ],
      "name": "isInQ",
      "outputs": [
        {
          "internalType": "bool",
          "name": "",
          "type": "bool"
        }
      ],
      "stateMutability": "view",
      "type": "function"
    },
    {
      "inputs": [],
      "name": "loanContract",
      "outputs": [
        {
          "internalType": "address",
          "name": "",
          "type": "address"
        }
      ],
      "stateMutability": "view",
      "type": "function"
    },
    {
      "inputs": [
        {
          "internalType": "uint256",
          "name": "",
          "type": "uint256"
        }
      ],
      "name": "loanGiven",
      "outputs": [
        {
          "internalType": "uint256",
          "name": "",
          "type": "uint256"
        }
      ],
      "stateMutability": "view",
      "type": "function"
    },
    {
      "inputs": [],
      "name": "lock_period",
      "outputs": [
        {
          "internalType": "uint256",
          "name": "",
          "type": "uint256"
        }
      ],
      "stateMutability": "view",
      "type": "function"
    },
    {
      "inputs": [
        {
          "internalType": "address",
          "name": "",
          "type": "address"
        },
        {
          "internalType": "uint256",
          "name": "",
          "type": "uint256"
        },
        {
          "internalType": "uint256",
          "name": "",
          "type": "uint256"
        }
      ],
      "name": "lockedRPT",
      "outputs": [
        {
          "internalType": "uint256",
          "name": "time",
          "type": "uint256"
        },
        {
          "internalType": "uint256",
          "name": "remAmt",
          "type": "uint256"
        }
      ],
      "stateMutability": "view",
      "type": "function"
    },
    {
      "inputs": [],
      "name": "poolPart",
      "outputs": [
        {
          "internalType": "uint256",
          "name": "",
          "type": "uint256"
        }
      ],
      "stateMutability": "view",
      "type": "function"
    },
    {
      "inputs": [
        {
          "internalType": "uint256",
          "name": "",
          "type": "uint256"
        }
      ],
      "name": "selfBalance",
      "outputs": [
        {
          "internalType": "uint256",
          "name": "",
          "type": "uint256"
        }
      ],
      "stateMutability": "view",
      "type": "function"
    },
    {
      "inputs": [],
      "name": "thresholdTokenAmount",
      "outputs": [
        {
          "internalType": "uint256",
          "name": "",
          "type": "uint256"
        }
      ],
      "stateMutability": "view",
      "type": "function"
    },
    {
      "inputs": [
        {
          "internalType": "uint256",
          "name": "",
          "type": "uint256"
        }
      ],
      "name": "totalWithdraw",
      "outputs": [
        {
          "internalType": "uint256",
          "name": "",
          "type": "uint256"
        }
      ],
      "stateMutability": "view",
      "type": "function"
    },
    {
      "inputs": [],
      "name": "wallet",
      "outputs": [
        {
          "internalType": "address",
          "name": "",
          "type": "address"
        }
      ],
      "stateMutability": "view",
      "type": "function"
    }
  ],
  "bytecode": "0x60806040526001805560006002556019600460006101000a8154816fffffffffffffffffffffffffffffffff02191690836fffffffffffffffffffffffffffffffff1602179055506102ee6005556101f4601355603c60145534801561006457600080fd5b50610726806100746000396000f3fe608060405234801561001057600080fd5b50600436106101005760003560e01c8063918f867411610097578063c89eb03611610066578063c89eb03614610426578063db28bfd014610444578063f83e9a2014610486578063fc6fd36a146104a457610100565b8063918f86741461030d5780639af1d35a1461032b578063c23177b21461035b578063c6b93df7146103c457610100565b806369850424116100d357806369850424146102115780636d6ea257146102535780638e9b032614610295578063905f692e146102b357610100565b8063253f284b1461010557806331805a2b14610139578063521eb2731461017b5780635cd60cd1146101af575b600080fd5b61010d610517565b604051808273ffffffffffffffffffffffffffffffffffffffff16815260200191505060405180910390f35b6101656004803603602081101561014f57600080fd5b810190808035906020019092919050505061053d565b6040518082815260200191505060405180910390f35b610183610555565b604051808273ffffffffffffffffffffffffffffffffffffffff16815260200191505060405180910390f35b6101fb600480360360408110156101c557600080fd5b81019080803573ffffffffffffffffffffffffffffffffffffffff1690602001909291908035906020019092919050505061057b565b6040518082815260200191505060405180910390f35b61023d6004803603602081101561022757600080fd5b81019080803590602001909291905050506105a0565b6040518082815260200191505060405180910390f35b61027f6004803603602081101561026957600080fd5b81019080803590602001909291905050506105b8565b6040518082815260200191505060405180910390f35b61029d6105d0565b6040518082815260200191505060405180910390f35b6102f5600480360360208110156102c957600080fd5b81019080803573ffffffffffffffffffffffffffffffffffffffff1690602001909291905050506105d6565b60405180821515815260200191505060405180910390f35b6103156105f6565b6040518082815260200191505060405180910390f35b6103336105fc565b60405180826fffffffffffffffffffffffffffffffff16815260200191505060405180910390f35b6103a76004803603604081101561037157600080fd5b81019080803573ffffffffffffffffffffffffffffffffffffffff1690602001909291908035906020019092919050505061061e565b604051808381526020018281526020019250505060405180910390f35b610410600480360360408110156103da57600080fd5b81019080803573ffffffffffffffffffffffffffffffffffffffff1690602001909291908035906020019092919050505061065c565b6040518082815260200191505060405180910390f35b61042e610681565b6040518082815260200191505060405180910390f35b6104706004803603602081101561045a57600080fd5b8101908080359060200190929190505050610687565b6040518082815260200191505060405180910390f35b61048e61069f565b6040518082815260200191505060405180910390f35b6104fa600480360360608110156104ba57600080fd5b81019080803573ffffffffffffffffffffffffffffffffffffffff16906020019092919080359060200190929190803590602001909291905050506106a5565b604051808381526020018281526020019250505060405180910390f35b600d60009054906101000a900473ffffffffffffffffffffffffffffffffffffffff1681565b6010816003811061054a57fe5b016000915090505481565b600f60009054906101000a900473ffffffffffffffffffffffffffffffffffffffff1681565b6017602052816000526040600020816003811061059457fe5b01600091509150505481565b600681600381106105ad57fe5b016000915090505481565b601e81600381106105c557fe5b016000915090505481565b60055481565b60196020528060005260406000206000915054906101000a900460ff1681565b61271081565b600460009054906101000a90046fffffffffffffffffffffffffffffffff1681565b6015602052816000526040600020818154811061063757fe5b9060005260206000209060020201600091509150508060000154908060010154905082565b6018602052816000526040600020816003811061067557fe5b01600091509150505481565b60135481565b601b816003811061069457fe5b016000915090505481565b60145481565b601660205282600052604060002060205281600052604060002081815481106106ca57fe5b90600052602060002090600202016000925092505050806000015490806001015490508256fea26469706673582212201c71f49b817f076b750ad672f37372be5ea325035ce1f378ec0fb89f437543fd64736f6c634300060c0033",
  "immutableReferences": {},
  "source": "// SPDX-License-Identifier: UNLICENSED\r\npragma solidity ^0.6.0;\r\n\r\nimport '../../Interfaces/IERC20Interface.sol';\r\nimport '../../Interfaces/CurveStrategyInterface.sol';\r\n\r\ncontract WithdrawQueue {\r\n    mapping(uint256 => address) withdrawQ;\r\n    uint256 first = 1;\r\n    uint256 last = 0;\r\n    address data;\r\n\r\n    function addToQ(address addr) internal {\r\n        last += 1;\r\n        withdrawQ[last] = addr;\r\n    }\r\n\r\n    function getFromQ() internal returns(address) {\r\n        require(last >= first);\r\n\r\n        data = withdrawQ[first];\r\n\r\n        delete withdrawQ[first];\r\n        first += 1;\r\n\r\n        return data;\r\n    }\r\n    function resetQueue()internal{\r\n        first=1;\r\n        last=0;\r\n    }\r\n}\r\n\r\n\r\ncontract RoyaleLPstorage  is WithdrawQueue {\r\n    //storage for pool features\r\n    \r\n    uint256 public constant DENOMINATOR = 10000;\r\n\r\n    uint128 public fees = 25; // for .25% fee, for 1.75% fee => 175\r\n\r\n    uint256 public poolPart = 750 ; // 7.5% of total Liquidity will remain in the pool\r\n\r\n    uint256[3] public selfBalance;\r\n\r\n    IERC20[3] tokens;\r\n\r\n    IERC20 rpToken;\r\n   \r\n    address public loanContract;\r\n\r\n    rCurveStrategy curveStrategy;\r\n    \r\n    address public wallet;\r\n\r\n    uint[3] public YieldPoolBalance;\r\n\r\n    uint256 public thresholdTokenAmount = 500;\r\n    //storage for user related to supply and withdraw\r\n    uint256 public lock_period = 1 minutes;\r\n\r\n    struct depositDetails {\r\n        uint256 amount;\r\n        uint256 index;\r\n        \r\n    }\r\n    \r\n    struct lockedDetails{\r\n        uint256 time;\r\n        uint256 remAmt;\r\n        \r\n    }\r\n\r\n    mapping(address => depositDetails[]) public amountSupplied;\r\n    mapping(address => mapping(uint256 => lockedDetails[]))public lockedRPT;\r\n    mapping(address => uint256[3]) public amountWithdraw;\r\n    mapping(address => uint256[3]) public amountBurnt;\r\n    \r\n    mapping(address => bool) public isInQ;\r\n    \r\n    uint32 recipientCount;\r\n    \r\n    uint256[3] public totalWithdraw;\r\n\r\n    //storage to store total loan given\r\n    uint256[3] public loanGiven;  \r\n    \r\n    \r\n}",
  "sourcePath": "C:\\Users\\vishn\\OneDrive\\Desktop\\new\\New folder\\royale-contracts\\contracts\\Pool\\RoyaleLPVariables.sol",
  "compiler": {
    "name": "solc",
    "version": "0.6.12+commit.27d51765.Emscripten.clang"
  },
  "schemaVersion": "3.3.2",
  "updatedAt": "2021-02-09T05:36:32.944Z",
  "devdoc": {
    "kind": "dev",
    "methods": {},
    "version": 1
  },
  "userdoc": {
    "kind": "user",
    "methods": {},
    "version": 1
  }
}