{
  "contractName": "RoyaleLP",
  "abi": [
    {
      "inputs": [
        {
          "internalType": "address[3]",
          "name": "_tokens",
          "type": "address[3]"
        },
        {
          "internalType": "address",
          "name": "_rpToken",
          "type": "address"
        },
        {
          "internalType": "address",
          "name": "_wallet",
          "type": "address"
        }
      ],
      "stateMutability": "nonpayable",
      "type": "constructor"
    },
    {
      "anonymous": false,
      "inputs": [
        {
          "indexed": false,
          "internalType": "address",
          "name": "user",
          "type": "address"
        },
        {
          "indexed": false,
          "internalType": "uint256",
          "name": "amount",
          "type": "uint256"
        }
      ],
      "name": "userAddedToQ",
      "type": "event"
    },
    {
      "anonymous": false,
      "inputs": [
        {
          "indexed": false,
          "internalType": "address",
          "name": "user",
          "type": "address"
        },
        {
          "indexed": false,
          "internalType": "uint256",
          "name": "amount",
          "type": "uint256"
        }
      ],
      "name": "userRecieved",
      "type": "event"
    },
    {
      "anonymous": false,
      "inputs": [
        {
          "indexed": false,
          "internalType": "address",
          "name": "user",
          "type": "address"
        },
        {
          "indexed": false,
          "internalType": "uint256",
          "name": "amount",
          "type": "uint256"
        }
      ],
      "name": "userSupplied",
      "type": "event"
    },
    {
      "anonymous": false,
      "inputs": [
        {
          "indexed": false,
          "internalType": "uint256",
          "name": "amount",
          "type": "uint256"
        }
      ],
      "name": "yieldAdded",
      "type": "event"
    },
    {
      "inputs": [],
      "name": "DENOMINATOR",
      "outputs": [
        {
          "internalType": "uint256",
          "name": "",
          "type": "uint256"
        }
      ],
      "stateMutability": "view",
      "type": "function"
    },
    {
      "inputs": [],
      "name": "YieldPoolBalance",
      "outputs": [
        {
          "internalType": "uint256",
          "name": "",
          "type": "uint256"
        }
      ],
      "stateMutability": "view",
      "type": "function"
    },
    {
      "inputs": [
        {
          "internalType": "address",
          "name": "",
          "type": "address"
        },
        {
          "internalType": "uint256",
          "name": "",
          "type": "uint256"
        }
      ],
      "name": "amountBurnt",
      "outputs": [
        {
          "internalType": "uint256",
          "name": "",
          "type": "uint256"
        }
      ],
      "stateMutability": "view",
      "type": "function"
    },
    {
      "inputs": [
        {
          "internalType": "address",
          "name": "",
          "type": "address"
        },
        {
          "internalType": "uint256",
          "name": "",
          "type": "uint256"
        }
      ],
      "name": "amountSupplied",
      "outputs": [
        {
          "internalType": "uint256",
          "name": "index",
          "type": "uint256"
        },
        {
          "internalType": "uint256",
          "name": "amount",
          "type": "uint256"
        },
        {
          "internalType": "uint256",
          "name": "time",
          "type": "uint256"
        },
        {
          "internalType": "uint256",
          "name": "remAmt",
          "type": "uint256"
        }
      ],
      "stateMutability": "view",
      "type": "function"
    },
    {
      "inputs": [
        {
          "internalType": "address",
          "name": "",
          "type": "address"
        },
        {
          "internalType": "uint256",
          "name": "",
          "type": "uint256"
        }
      ],
      "name": "amountWithdraw",
      "outputs": [
        {
          "internalType": "uint256",
          "name": "",
          "type": "uint256"
        }
      ],
      "stateMutability": "view",
      "type": "function"
    },
    {
      "inputs": [],
      "name": "fees",
      "outputs": [
        {
          "internalType": "uint128",
          "name": "",
          "type": "uint128"
        }
      ],
      "stateMutability": "view",
      "type": "function"
    },
    {
      "inputs": [
        {
          "internalType": "address",
          "name": "",
          "type": "address"
        }
      ],
      "name": "isInQ",
      "outputs": [
        {
          "internalType": "bool",
          "name": "",
          "type": "bool"
        }
      ],
      "stateMutability": "view",
      "type": "function"
    },
    {
      "inputs": [],
      "name": "liquidityProvidersAPY",
      "outputs": [
        {
          "internalType": "uint256",
          "name": "",
          "type": "uint256"
        }
      ],
      "stateMutability": "view",
      "type": "function"
    },
    {
      "inputs": [],
      "name": "loanGiven",
      "outputs": [
        {
          "internalType": "uint256",
          "name": "",
          "type": "uint256"
        }
      ],
      "stateMutability": "view",
      "type": "function"
    },
    {
      "inputs": [],
      "name": "lock_period",
      "outputs": [
        {
          "internalType": "uint256",
          "name": "",
          "type": "uint256"
        }
      ],
      "stateMutability": "view",
      "type": "function"
    },
    {
      "inputs": [],
      "name": "poolPart",
      "outputs": [
        {
          "internalType": "uint256",
          "name": "",
          "type": "uint256"
        }
      ],
      "stateMutability": "view",
      "type": "function"
    },
    {
      "inputs": [
        {
          "internalType": "uint256",
          "name": "",
          "type": "uint256"
        }
      ],
      "name": "reserveAmount",
      "outputs": [
        {
          "internalType": "uint256",
          "name": "",
          "type": "uint256"
        }
      ],
      "stateMutability": "view",
      "type": "function"
    },
    {
      "inputs": [
        {
          "internalType": "address",
          "name": "",
          "type": "address"
        }
      ],
      "name": "reserveRecipients",
      "outputs": [
        {
          "internalType": "bool",
          "name": "",
          "type": "bool"
        }
      ],
      "stateMutability": "view",
      "type": "function"
    },
    {
      "inputs": [],
      "name": "rpToken",
      "outputs": [
        {
          "internalType": "contract IERC20",
          "name": "",
          "type": "address"
        }
      ],
      "stateMutability": "view",
      "type": "function"
    },
    {
      "inputs": [],
      "name": "selfBalance",
      "outputs": [
        {
          "internalType": "uint256",
          "name": "",
          "type": "uint256"
        }
      ],
      "stateMutability": "view",
      "type": "function"
    },
    {
      "inputs": [],
      "name": "strategy",
      "outputs": [
        {
          "internalType": "contract rStrategy",
          "name": "",
          "type": "address"
        }
      ],
      "stateMutability": "view",
      "type": "function"
    },
    {
      "inputs": [
        {
          "internalType": "uint256",
          "name": "",
          "type": "uint256"
        }
      ],
      "name": "tokens",
      "outputs": [
        {
          "internalType": "contract IERC20",
          "name": "",
          "type": "address"
        }
      ],
      "stateMutability": "view",
      "type": "function"
    },
    {
      "inputs": [
        {
          "internalType": "uint256",
          "name": "",
          "type": "uint256"
        }
      ],
      "name": "totalWithdraw",
      "outputs": [
        {
          "internalType": "uint256",
          "name": "",
          "type": "uint256"
        }
      ],
      "stateMutability": "view",
      "type": "function"
    },
    {
      "inputs": [],
      "name": "wallet",
      "outputs": [
        {
          "internalType": "address",
          "name": "",
          "type": "address"
        }
      ],
      "stateMutability": "view",
      "type": "function"
    },
    {
      "inputs": [
        {
          "internalType": "uint256",
          "name": "",
          "type": "uint256"
        }
      ],
      "name": "withdrawRecipients",
      "outputs": [
        {
          "internalType": "address",
          "name": "",
          "type": "address"
        }
      ],
      "stateMutability": "view",
      "type": "function"
    },
    {
      "inputs": [
        {
          "internalType": "address",
          "name": "_wallet",
          "type": "address"
        }
      ],
      "name": "transferOwnership",
      "outputs": [],
      "stateMutability": "nonpayable",
      "type": "function"
    },
    {
      "inputs": [
        {
          "internalType": "uint256",
          "name": "amount",
          "type": "uint256"
        },
        {
          "internalType": "uint256",
          "name": "_index",
          "type": "uint256"
        }
      ],
      "name": "calcRptAmount",
      "outputs": [
        {
          "internalType": "uint256",
          "name": "",
          "type": "uint256"
        }
      ],
      "stateMutability": "view",
      "type": "function"
    },
    {
      "inputs": [
        {
          "internalType": "address",
          "name": "addr",
          "type": "address"
        },
        {
          "internalType": "uint256",
          "name": "coin",
          "type": "uint256"
        },
        {
          "internalType": "bool",
          "name": "_time",
          "type": "bool"
        }
      ],
      "name": "availableLiquidity",
      "outputs": [
        {
          "internalType": "uint256",
          "name": "token",
          "type": "uint256"
        },
        {
          "internalType": "uint256",
          "name": "RPT",
          "type": "uint256"
        }
      ],
      "stateMutability": "view",
      "type": "function"
    },
    {
      "inputs": [
        {
          "internalType": "bool",
          "name": "_supply",
          "type": "bool"
        }
      ],
      "name": "calculateTotalToken",
      "outputs": [
        {
          "internalType": "uint256",
          "name": "",
          "type": "uint256"
        }
      ],
      "stateMutability": "view",
      "type": "function"
    },
    {
      "inputs": [
        {
          "internalType": "uint256",
          "name": "amount",
          "type": "uint256"
        },
        {
          "internalType": "uint256",
          "name": "_index",
          "type": "uint256"
        }
      ],
      "name": "supply",
      "outputs": [],
      "stateMutability": "nonpayable",
      "type": "function"
    },
    {
      "inputs": [
        {
          "internalType": "uint256",
          "name": "amount",
          "type": "uint256"
        },
        {
          "internalType": "uint256",
          "name": "_index",
          "type": "uint256"
        }
      ],
      "name": "requestWithdrawWithRPT",
      "outputs": [],
      "stateMutability": "nonpayable",
      "type": "function"
    },
    {
      "inputs": [],
      "name": "claimTokens",
      "outputs": [],
      "stateMutability": "nonpayable",
      "type": "function"
    },
    {
      "inputs": [
        {
          "internalType": "uint256",
          "name": "amount",
          "type": "uint256"
        },
        {
          "internalType": "uint256",
          "name": "_index",
          "type": "uint256"
        }
      ],
      "name": "depositYield",
      "outputs": [],
      "stateMutability": "nonpayable",
      "type": "function"
    },
    {
      "inputs": [],
      "name": "deposit",
      "outputs": [],
      "stateMutability": "nonpayable",
      "type": "function"
    },
    {
      "inputs": [],
      "name": "withdraw",
      "outputs": [],
      "stateMutability": "nonpayable",
      "type": "function"
    },
    {
      "inputs": [],
      "name": "withdrawAll",
      "outputs": [],
      "stateMutability": "nonpayable",
      "type": "function"
    },
    {
      "inputs": [],
      "name": "rebalance",
      "outputs": [],
      "stateMutability": "nonpayable",
      "type": "function"
    },
    {
      "inputs": [
        {
          "internalType": "uint256[3]",
          "name": "amounts",
          "type": "uint256[3]"
        },
        {
          "internalType": "address",
          "name": "_recipient",
          "type": "address"
        }
      ],
      "name": "withdrawLoan",
      "outputs": [],
      "stateMutability": "nonpayable",
      "type": "function"
    },
    {
      "inputs": [
        {
          "internalType": "uint256[3]",
          "name": "amounts",
          "type": "uint256[3]"
        }
      ],
      "name": "repayLoan",
      "outputs": [],
      "stateMutability": "nonpayable",
      "type": "function"
    },
    {
      "inputs": [
        {
          "internalType": "uint128",
          "name": "_newPoolPart",
          "type": "uint128"
        }
      ],
      "name": "changePoolPart",
      "outputs": [],
      "stateMutability": "nonpayable",
      "type": "function"
    },
    {
      "inputs": [
        {
          "internalType": "address",
          "name": "_strategy",
          "type": "address"
        }
      ],
      "name": "changeStrategy",
      "outputs": [],
      "stateMutability": "nonpayable",
      "type": "function"
    },
    {
      "inputs": [
        {
          "internalType": "uint256",
          "name": "lockperiod",
          "type": "uint256"
        }
      ],
      "name": "setLockPeriod",
      "outputs": [],
      "stateMutability": "nonpayable",
      "type": "function"
    },
    {
      "inputs": [
        {
          "internalType": "uint128",
          "name": "_fees",
          "type": "uint128"
        }
      ],
      "name": "setWithdrawFees",
      "outputs": [],
      "stateMutability": "nonpayable",
      "type": "function"
    },
    {
      "inputs": [
        {
          "internalType": "address",
          "name": "_address",
          "type": "address"
        }
      ],
      "name": "transferAllFunds",
      "outputs": [],
      "stateMutability": "nonpayable",
      "type": "function"
    },
    {
      "inputs": [
        {
          "internalType": "uint256",
          "name": "_index",
          "type": "uint256"
        }
      ],
      "name": "getBalances",
      "outputs": [
        {
          "internalType": "uint256",
          "name": "",
          "type": "uint256"
        }
      ],
      "stateMutability": "view",
      "type": "function"
    }
  ],
  "bytecode": "0x608060405260196000806101000a8154816fffffffffffffffffffffffffffffffff02191690836fffffffffffffffffffffffffffffffff1602179055506102ee600155603c600b553480156200005557600080fd5b50604051620061d5380380620061d583398181016040528101906200007b919062000227565b600160198190555060005b60038160ff1610156200010657838160ff1660038110620000a357fe5b602002015160038260ff1660038110620000b957fe5b0160006101000a81548173ffffffffffffffffffffffffffffffffffffffff021916908373ffffffffffffffffffffffffffffffffffffffff160217905550808060010191505062000086565b5081600660006101000a81548173ffffffffffffffffffffffffffffffffffffffff021916908373ffffffffffffffffffffffffffffffffffffffff16021790555080600860006101000a81548173ffffffffffffffffffffffffffffffffffffffff021916908373ffffffffffffffffffffffffffffffffffffffff1602179055505050506200031c565b600081519050620001a38162000302565b92915050565b600082601f830112620001bb57600080fd5b6003620001d2620001cc82620002ab565b6200027d565b91508183856020840282011115620001e957600080fd5b60005b838110156200021d578162000202888262000192565b845260208401935060208301925050600181019050620001ec565b5050505092915050565b600080600060a084860312156200023d57600080fd5b60006200024d86828701620001a9565b9350506060620002608682870162000192565b9250506080620002738682870162000192565b9150509250925092565b6000604051905081810181811067ffffffffffffffff82111715620002a157600080fd5b8060405250919050565b600067ffffffffffffffff821115620002c357600080fd5b602082029050919050565b6000620002db82620002e2565b9050919050565b600073ffffffffffffffffffffffffffffffffffffffff82169050919050565b6200030d81620002ce565b81146200031957600080fd5b50565b615ea9806200032c6000396000f3fe608060405234801561001057600080fd5b50600436106102485760003560e01c8063918f86741161013b578063c6b93df7116100b8578063de4498391161007c578063de449839146106b8578063df7ce7e4146106e9578063f0dd71c714610707578063f2fde38b14610737578063f83e9a201461075357610248565b8063c6b93df714610616578063d0e30db014610646578063daecfa6c14610650578063db28bfd01461066c578063dcd365ca1461069c57610248565b8063a8c62e76116100ff578063a8c62e7614610547578063ad6abb0c14610565578063b0bed0ba14610595578063bf4b136b146105b3578063c23177b2146105e357610248565b8063918f8674146104b757806393f9c552146104d55780639af1d35a146104f1578063a0df58081461050f578063a70200bd1461052b57610248565b8063521eb273116101c95780637d7c2a1c1161018d5780637d7c2a1c14610425578063853828b61461042f578063876171dc146104395780638e9b032614610469578063905f692e1461048757610248565b8063521eb273146103835780635cd60cd1146103a15780636b9f1ef6146103d1578063779972da146103ed5780637a9024bd1461040957610248565b806342f1bd5d1161021057806342f1bd5d146102cb578063449deb6b146102e957806348c54b9d14610319578063490adbaf146103235780634f64b2be1461035357610248565b80630100a56b1461024d57806315816bac1461026b57806325340b8c146102875780633b789750146102a55780633ccfd60b146102c1575b600080fd5b610255610771565b6040516102629190615bac565b60405180910390f35b61028560048036038101906102809190615239565b610777565b005b61028f6109b8565b60405161029c9190615bac565b60405180910390f35b6102bf60048036038101906102ba919061502a565b6109be565b005b6102c9610bee565b005b6102d3610d53565b6040516102e09190615919565b60405180910390f35b61030360048036038101906102fe919061502a565b610d79565b60405161031091906158fe565b60405180910390f35b610321610d99565b005b61033d600480360381019061033891906151e7565b611430565b60405161034a9190615bac565b60405180910390f35b61036d600480360381019061036891906151e7565b611510565b60405161037a9190615919565b60405180910390f35b61038b611543565b6040516103989190615824565b60405180910390f35b6103bb60048036038101906103b69190615053565b611569565b6040516103c89190615bac565b60405180910390f35b6103eb60048036038101906103e691906151be565b61158e565b005b610407600480360381019061040291906151e7565b611659565b005b610423600480360381019061041e919061502a565b6116f3565b005b61042d611829565b005b610437611c03565b005b610453600480360381019061044e91906151e7565b611f30565b6040516104609190615824565b60405180910390f35b610471611f6c565b60405161047e9190615bac565b60405180910390f35b6104a1600480360381019061049c919061502a565b611f72565b6040516104ae91906158fe565b60405180910390f35b6104bf611f92565b6040516104cc9190615bac565b60405180910390f35b6104ef60048036038101906104ea9190615239565b611f98565b005b6104f9612429565b6040516105069190615b91565b60405180910390f35b610529600480360381019061052491906150de565b612449565b005b610545600480360381019061054091906151be565b612716565b005b61054f6127c2565b60405161055c9190615934565b60405180910390f35b61057f600480360381019061057a919061516c565b6127e8565b60405161058c9190615bac565b60405180910390f35b61059d6129e6565b6040516105aa9190615bac565b60405180910390f35b6105cd60048036038101906105c89190615239565b6129ec565b6040516105da9190615bac565b60405180910390f35b6105fd60048036038101906105f89190615053565b612bc2565b60405161060d9493929190615bf0565b60405180910390f35b610630600480360381019061062b9190615053565b612c0c565b60405161063d9190615bac565b60405180910390f35b61064e612c31565b005b61066a60048036038101906106659190615239565b612fd0565b005b610686600480360381019061068191906151e7565b6133f8565b6040516106939190615bac565b60405180910390f35b6106b660048036038101906106b19190615130565b613410565b005b6106d260048036038101906106cd919061508f565b6137a6565b6040516106e0929190615bc7565b60405180910390f35b6106f1613b9d565b6040516106fe9190615bac565b60405180910390f35b610721600480360381019061071c91906151e7565b613ba3565b60405161072e9190615bac565b60405180910390f35b610751600480360381019061074c919061502a565b613bbb565b005b61075b613c8f565b6040516107689190615bac565b60405180910390f35b60185481565b60006003826003811061078657fe5b0160009054906101000a900473ffffffffffffffffffffffffffffffffffffffff1673ffffffffffffffffffffffffffffffffffffffff1663313ce5676040518163ffffffff1660e01b815260040160206040518083038186803b1580156107ed57600080fd5b505afa158015610801573d6000803e3d6000fd5b505050506040513d601f19601f820116820180604052508101906108259190615275565b60ff16905061086e61085d82600a0a61084f670de0b6b3a764000087613c9590919063ffffffff16565b613d0590919063ffffffff16565b600254613d4f90919063ffffffff16565b6002819055506108b86108a782600a0a610899670de0b6b3a764000087613c9590919063ffffffff16565b613d0590919063ffffffff16565b600a54613d4f90919063ffffffff16565b600a81905550600382600381106108cb57fe5b0160009054906101000a900473ffffffffffffffffffffffffffffffffffffffff1673ffffffffffffffffffffffffffffffffffffffff166323b872dd3330866040518463ffffffff1660e01b81526004016109299392919061585a565b602060405180830381600087803b15801561094357600080fd5b505af1158015610957573d6000803e3d6000fd5b505050506040513d601f19601f8201168201806040525081019061097b9190615195565b507f8cbefaa4ed0c313ed463d26507393594f877789e4460ad45affda6e4638dc6c1836040516109ab9190615bac565b60405180910390a1505050565b60095481565b3373ffffffffffffffffffffffffffffffffffffffff16600860009054906101000a900473ffffffffffffffffffffffffffffffffffffffff1673ffffffffffffffffffffffffffffffffffffffff1614610a4e576040517f08c379a0000000000000000000000000000000000000000000000000000000008152600401610a4590615ab1565b60405180910390fd5b600060028190555060005b60038160ff161015610bea5760038160ff1660038110610a7557fe5b0160009054906101000a900473ffffffffffffffffffffffffffffffffffffffff1673ffffffffffffffffffffffffffffffffffffffff1663a9059cbb8360038460ff1660038110610ac357fe5b0160009054906101000a900473ffffffffffffffffffffffffffffffffffffffff1673ffffffffffffffffffffffffffffffffffffffff166370a08231306040518263ffffffff1660e01b8152600401610b1d9190615824565b60206040518083038186803b158015610b3557600080fd5b505afa158015610b49573d6000803e3d6000fd5b505050506040513d601f19601f82011682018060405250810190610b6d9190615210565b6040518363ffffffff1660e01b8152600401610b8a9291906158ba565b602060405180830381600087803b158015610ba457600080fd5b505af1158015610bb8573d6000803e3d6000fd5b505050506040513d601f19601f82011682018060405250810190610bdc9190615195565b508080600101915050610a59565b5050565b3373ffffffffffffffffffffffffffffffffffffffff16600860009054906101000a900473ffffffffffffffffffffffffffffffffffffffff1673ffffffffffffffffffffffffffffffffffffffff1614610c7e576040517f08c379a0000000000000000000000000000000000000000000000000000000008152600401610c7590615ab1565b60405180910390fd5b610cc46011600380602002604051908101604052809291908260038015610cba576020028201915b815481526020019060010190808311610ca6575b5050505050613da4565b610d03576040517f08c379a0000000000000000000000000000000000000000000000000000000008152600401610cfa90615a11565b60405180910390fd5b610d496011600380602002604051908101604052809291908260038015610d3f576020028201915b815481526020019060010190808311610d2b575b5050505050613df6565b610d51613fba565b565b600660009054906101000a900473ffffffffffffffffffffffffffffffffffffffff1681565b60176020528060005260406000206000915054906101000a900460ff1681565b60026019541415610ddf576040517f08c379a0000000000000000000000000000000000000000000000000000000008152600401610dd690615b51565b60405180910390fd5b6002601981905550601760003373ffffffffffffffffffffffffffffffffffffffff1673ffffffffffffffffffffffffffffffffffffffff16815260200190815260200160002060009054906101000a900460ff16610e73576040517f08c379a0000000000000000000000000000000000000000000000000000000008152600401610e6a90615971565b60405180910390fd5b600080600080600090505b60038160ff1610156113c0576000600d60003373ffffffffffffffffffffffffffffffffffffffff1673ffffffffffffffffffffffffffffffffffffffff1681526020019081526020016000208260ff1660038110610ed957fe5b015411156113b35760038160ff1660038110610ef157fe5b0160009054906101000a900473ffffffffffffffffffffffffffffffffffffffff1673ffffffffffffffffffffffffffffffffffffffff1663313ce5676040518163ffffffff1660e01b815260040160206040518083038186803b158015610f5857600080fd5b505afa158015610f6c573d6000803e3d6000fd5b505050506040513d601f19601f82011682018060405250810190610f909190615275565b60ff169150600061109a61103d61271061102f60008054906101000a90046fffffffffffffffffffffffffffffffff166fffffffffffffffffffffffffffffffff16600d60003373ffffffffffffffffffffffffffffffffffffffff1673ffffffffffffffffffffffffffffffffffffffff1681526020019081526020016000208760ff166003811061101f57fe5b0154613c9590919063ffffffff16565b613d0590919063ffffffff16565b600d60003373ffffffffffffffffffffffffffffffffffffffff1673ffffffffffffffffffffffffffffffffffffffff1681526020019081526020016000208460ff166003811061108a57fe5b01546141da90919063ffffffff16565b905061110e600d60003373ffffffffffffffffffffffffffffffffffffffff1673ffffffffffffffffffffffffffffffffffffffff1681526020019081526020016000208360ff16600381106110ec57fe5b015460148460ff16600381106110fe57fe5b01546141da90919063ffffffff16565b60148360ff166003811061111e57fe5b018190555061116761115684600a0a611148670de0b6b3a764000085613c9590919063ffffffff16565b613d0590919063ffffffff16565b6002546141da90919063ffffffff16565b6002819055506111ce600e60003373ffffffffffffffffffffffffffffffffffffffff1673ffffffffffffffffffffffffffffffffffffffff1681526020019081526020016000208360ff16600381106111bd57fe5b015485613d4f90919063ffffffff16565b93506000600d60003373ffffffffffffffffffffffffffffffffffffffff1673ffffffffffffffffffffffffffffffffffffffff1681526020019081526020016000208360ff166003811061121f57fe5b01819055506000600e60003373ffffffffffffffffffffffffffffffffffffffff1673ffffffffffffffffffffffffffffffffffffffff1681526020019081526020016000208360ff166003811061127357fe5b018190555060038260ff166003811061128857fe5b0160009054906101000a900473ffffffffffffffffffffffffffffffffffffffff1673ffffffffffffffffffffffffffffffffffffffff1663a9059cbb33836040518363ffffffff1660e01b81526004016112e4929190615891565b602060405180830381600087803b1580156112fe57600080fd5b505af1158015611312573d6000803e3d6000fd5b505050506040513d601f19601f820116820180604052508101906113369190615195565b945084611378576040517f08c379a000000000000000000000000000000000000000000000000000000000815260040161136f90615a91565b60405180910390fd5b7f8b46652782c1a94bd1f1e050f62dea3a99b7fe20520c003e111624847230d4fe33826040516113a9929190615891565b60405180910390a1505b8080600101915050610e7e565b506113cb3383614224565b6000601760003373ffffffffffffffffffffffffffffffffffffffff1673ffffffffffffffffffffffffffffffffffffffff16815260200190815260200160002060006101000a81548160ff0219169083151502179055505050506001601981905550565b60006115096014836003811061144257fe5b01546003846003811061145157fe5b0160009054906101000a900473ffffffffffffffffffffffffffffffffffffffff1673ffffffffffffffffffffffffffffffffffffffff166370a08231306040518263ffffffff1660e01b81526004016114ab9190615824565b60206040518083038186803b1580156114c357600080fd5b505afa1580156114d7573d6000803e3d6000fd5b505050506040513d601f19601f820116820180604052508101906114fb9190615210565b6141da90919063ffffffff16565b9050919050565b6003816003811061151d57fe5b016000915054906101000a900473ffffffffffffffffffffffffffffffffffffffff1681565b600860009054906101000a900473ffffffffffffffffffffffffffffffffffffffff1681565b600d602052816000526040600020816003811061158257fe5b01600091509150505481565b3373ffffffffffffffffffffffffffffffffffffffff16600860009054906101000a900473ffffffffffffffffffffffffffffffffffffffff1673ffffffffffffffffffffffffffffffffffffffff161461161e576040517f08c379a000000000000000000000000000000000000000000000000000000000815260040161161590615ab1565b60405180910390fd5b806000806101000a8154816fffffffffffffffffffffffffffffffff02191690836fffffffffffffffffffffffffffffffff16021790555050565b3373ffffffffffffffffffffffffffffffffffffffff16600860009054906101000a900473ffffffffffffffffffffffffffffffffffffffff1673ffffffffffffffffffffffffffffffffffffffff16146116e9576040517f08c379a00000000000000000000000000000000000000000000000000000000081526004016116e090615ab1565b60405180910390fd5b80600b8190555050565b3373ffffffffffffffffffffffffffffffffffffffff16600860009054906101000a900473ffffffffffffffffffffffffffffffffffffffff1673ffffffffffffffffffffffffffffffffffffffff1614611783576040517f08c379a000000000000000000000000000000000000000000000000000000000815260040161177a90615ab1565b60405180910390fd5b60005b60038160ff1610156117e4576000600954146117d7576040517f08c379a00000000000000000000000000000000000000000000000000000000081526004016117ce90615a31565b60405180910390fd5b8080600101915050611786565b5080600760006101000a81548173ffffffffffffffffffffffffffffffffffffffff021916908373ffffffffffffffffffffffffffffffffffffffff16021790555050565b3373ffffffffffffffffffffffffffffffffffffffff16600860009054906101000a900473ffffffffffffffffffffffffffffffffffffffff1673ffffffffffffffffffffffffffffffffffffffff16146118b9576040517f08c379a00000000000000000000000000000000000000000000000000000000081526004016118b090615ab1565b60405180910390fd5b60006118c3614e8d565b6118cb614e8d565b6000806118d860006127e8565b9150600061191861271061190a6118fb6003600154613d0590919063ffffffff16565b86613c9590919063ffffffff16565b613d0590919063ffffffff16565b9050600080600090505b60038160ff161015611bc95761193a8160ff16611430565b975060038160ff166003811061194c57fe5b0160009054906101000a900473ffffffffffffffffffffffffffffffffffffffff1673ffffffffffffffffffffffffffffffffffffffff1663313ce5676040518163ffffffff1660e01b815260040160206040518083038186803b1580156119b357600080fd5b505afa1580156119c7573d6000803e3d6000fd5b505050506040513d601f19601f820116820180604052508101906119eb9190615275565b60ff169350611a20670de0b6b3a7640000611a1286600a0a86613c9590919063ffffffff16565b613d0590919063ffffffff16565b915087821115611a5a57611a3d88836141da90919063ffffffff16565b878260ff1660038110611a4c57fe5b602002018181525050611bbc565b87821015611b8657611a7582896141da90919063ffffffff16565b868260ff1660038110611a8457fe5b60200201818152505060038160ff1660038110611a9d57fe5b0160009054906101000a900473ffffffffffffffffffffffffffffffffffffffff1673ffffffffffffffffffffffffffffffffffffffff1663a9059cbb600760009054906101000a900473ffffffffffffffffffffffffffffffffffffffff16888460ff1660038110611b0c57fe5b60200201516040518363ffffffff1660e01b8152600401611b2e9291906158ba565b602060405180830381600087803b158015611b4857600080fd5b505af1158015611b5c573d6000803e3d6000fd5b505050506040513d601f19601f82011682018060405250810190611b809190615195565b50611bbb565b6000878260ff1660038110611b9757fe5b6020020181815250506000868260ff1660038110611bb157fe5b6020020181815250505b5b8080600101915050611922565b50611bd385613da4565b15611be257611be185614513565b5b611beb86613da4565b15611bfa57611bf986613df6565b5b50505050505050565b3373ffffffffffffffffffffffffffffffffffffffff16600860009054906101000a900473ffffffffffffffffffffffffffffffffffffffff1673ffffffffffffffffffffffffffffffffffffffff1614611c93576040517f08c379a0000000000000000000000000000000000000000000000000000000008152600401611c8a90615ab1565b60405180910390fd5b611c9b614e8d565b600760009054906101000a900473ffffffffffffffffffffffffffffffffffffffff1673ffffffffffffffffffffffffffffffffffffffff1663853828b66040518163ffffffff1660e01b8152600401606060405180830381600087803b158015611d0557600080fd5b505af1158015611d19573d6000803e3d6000fd5b505050506040513d601f19601f82011682018060405250810190611d3d9190615107565b905060008060028190555060005b60038160ff161015611f1b5760038160ff1660038110611d6757fe5b0160009054906101000a900473ffffffffffffffffffffffffffffffffffffffff1673ffffffffffffffffffffffffffffffffffffffff1663313ce5676040518163ffffffff1660e01b815260040160206040518083038186803b158015611dce57600080fd5b505afa158015611de2573d6000803e3d6000fd5b505050506040513d601f19601f82011682018060405250810190611e069190615275565b60ff169150611f08611ef783600a0a611ee9670de0b6b3a764000060038660ff1660038110611e3157fe5b0160009054906101000a900473ffffffffffffffffffffffffffffffffffffffff1673ffffffffffffffffffffffffffffffffffffffff166370a08231306040518263ffffffff1660e01b8152600401611e8b9190615824565b60206040518083038186803b158015611ea357600080fd5b505afa158015611eb7573d6000803e3d6000fd5b505050506040513d601f19601f82011682018060405250810190611edb9190615210565b613c9590919063ffffffff16565b613d0590919063ffffffff16565b600254613d4f90919063ffffffff16565b6002819055508080600101915050611d4b565b506000600981905550611f2c613fba565b5050565b60108181548110611f3d57fe5b906000526020600020016000915054906101000a900473ffffffffffffffffffffffffffffffffffffffff1681565b60015481565b600f6020528060005260406000206000915054906101000a900460ff1681565b61271081565b60026019541415611fde576040517f08c379a0000000000000000000000000000000000000000000000000000000008152600401611fd590615b51565b60405180910390fd5b6002601981905550816000811161202a576040517f08c379a0000000000000000000000000000000000000000000000000000000008152600401612021906159f1565b60405180910390fd5b601760003373ffffffffffffffffffffffffffffffffffffffff1673ffffffffffffffffffffffffffffffffffffffff16815260200190815260200160002060009054906101000a900460ff16156120b7576040517f08c379a00000000000000000000000000000000000000000000000000000000081526004016120ae90615b71565b60405180910390fd5b82600660009054906101000a900473ffffffffffffffffffffffffffffffffffffffff1673ffffffffffffffffffffffffffffffffffffffff166370a08231336040518263ffffffff1660e01b8152600401612113919061583f565b60206040518083038186803b15801561212b57600080fd5b505afa15801561213f573d6000803e3d6000fd5b505050506040513d601f19601f820116820180604052508101906121639190615210565b10156121a4576040517f08c379a000000000000000000000000000000000000000000000000000000000815260040161219b90615ad1565b60405180910390fd5b60006121b2338460016137a6565b915050600060019050848210156121c857600090505b80612208576040517f08c379a00000000000000000000000000000000000000000000000000000000081526004016121ff90615ab1565b60405180910390fd5b600061221460016127e8565b905060006122dc600660009054906101000a900473ffffffffffffffffffffffffffffffffffffffff1673ffffffffffffffffffffffffffffffffffffffff166318160ddd6040518163ffffffff1660e01b815260040160206040518083038186803b15801561228357600080fd5b505afa158015612297573d6000803e3d6000fd5b505050506040513d601f19601f820116820180604052508101906122bb9190615210565b6122ce848a613c9590919063ffffffff16565b613d0590919063ffffffff16565b90506122e860006127e8565b81111561232a576040517f08c379a000000000000000000000000000000000000000000000000000000000815260040161232190615b31565b60405180910390fd5b60006003876003811061233957fe5b0160009054906101000a900473ffffffffffffffffffffffffffffffffffffffff1673ffffffffffffffffffffffffffffffffffffffff1663313ce5676040518163ffffffff1660e01b815260040160206040518083038186803b1580156123a057600080fd5b505afa1580156123b4573d6000803e3d6000fd5b505050506040513d601f19601f820116820180604052508101906123d89190615275565b60ff169050612417612410670de0b6b3a764000061240284600a0a86613c9590919063ffffffff16565b613d0590919063ffffffff16565b89896146d7565b50505050505060016019819055505050565b60008054906101000a90046fffffffffffffffffffffffffffffffff1681565b61245281613da4565b612491576040517f08c379a000000000000000000000000000000000000000000000000000000000815260040161248890615991565b60405180910390fd5b600080600090505b60038160ff161015612711576000838260ff16600381106124b657fe5b602002015111156127045760038160ff16600381106124d157fe5b0160009054906101000a900473ffffffffffffffffffffffffffffffffffffffff1673ffffffffffffffffffffffffffffffffffffffff1663313ce5676040518163ffffffff1660e01b815260040160206040518083038186803b15801561253857600080fd5b505afa15801561254c573d6000803e3d6000fd5b505050506040513d601f19601f820116820180604052508101906125709190615275565b60ff1691506125cc6125bb83600a0a6125ad670de0b6b3a7640000878660ff166003811061259a57fe5b6020020151613c9590919063ffffffff16565b613d0590919063ffffffff16565b6018546141da90919063ffffffff16565b60188190555061262961261883600a0a61260a670de0b6b3a7640000878660ff16600381106125f757fe5b6020020151613c9590919063ffffffff16565b613d0590919063ffffffff16565b600254613d4f90919063ffffffff16565b60028190555060038160ff166003811061263f57fe5b0160009054906101000a900473ffffffffffffffffffffffffffffffffffffffff1673ffffffffffffffffffffffffffffffffffffffff166323b872dd3330868560ff166003811061268d57fe5b60200201516040518463ffffffff1660e01b81526004016126b09392919061585a565b602060405180830381600087803b1580156126ca57600080fd5b505af11580156126de573d6000803e3d6000fd5b505050506040513d601f19601f820116820180604052508101906127029190615195565b505b8080600101915050612499565b505050565b3373ffffffffffffffffffffffffffffffffffffffff16600860009054906101000a900473ffffffffffffffffffffffffffffffffffffffff1673ffffffffffffffffffffffffffffffffffffffff16146127a6576040517f08c379a000000000000000000000000000000000000000000000000000000000815260040161279d90615ab1565b60405180910390fd5b806fffffffffffffffffffffffffffffffff1660018190555050565b600760009054906101000a900473ffffffffffffffffffffffffffffffffffffffff1681565b60008060008060005b60038160ff1610156129685760038160ff166003811061280d57fe5b0160009054906101000a900473ffffffffffffffffffffffffffffffffffffffff1673ffffffffffffffffffffffffffffffffffffffff1663313ce5676040518163ffffffff1660e01b815260040160206040518083038186803b15801561287457600080fd5b505afa158015612888573d6000803e3d6000fd5b505050506040513d601f19601f820116820180604052508101906128ac9190615275565b60ff1693506129046128f585600a0a6128e7670de0b6b3a764000060118660ff16600381106128d757fe5b0154613c9590919063ffffffff16565b613d0590919063ffffffff16565b84613d4f90919063ffffffff16565b925061295961294a85600a0a61293c670de0b6b3a764000060148660ff166003811061292c57fe5b0154613c9590919063ffffffff16565b613d0590919063ffffffff16565b83613d4f90919063ffffffff16565b915080806001019150506127f1565b5084156129b4576129aa60185461299c8361298e866002546141da90919063ffffffff16565b6141da90919063ffffffff16565b613d4f90919063ffffffff16565b93505050506129e1565b6129db816129cd846002546141da90919063ffffffff16565b6141da90919063ffffffff16565b93505050505b919050565b60025481565b6000806129f960016127e8565b9050600060038460038110612a0a57fe5b0160009054906101000a900473ffffffffffffffffffffffffffffffffffffffff1673ffffffffffffffffffffffffffffffffffffffff1663313ce5676040518163ffffffff1660e01b815260040160206040518083038186803b158015612a7157600080fd5b505afa158015612a85573d6000803e3d6000fd5b505050506040513d601f19601f82011682018060405250810190612aa99190615275565b60ff169050612ade81600a0a612ad0670de0b6b3a764000088613c9590919063ffffffff16565b613d0590919063ffffffff16565b94506000821415612af3578492505050612bbc565b612bb782612ba9600660009054906101000a900473ffffffffffffffffffffffffffffffffffffffff1673ffffffffffffffffffffffffffffffffffffffff166318160ddd6040518163ffffffff1660e01b815260040160206040518083038186803b158015612b6257600080fd5b505afa158015612b76573d6000803e3d6000fd5b505050506040513d601f19601f82011682018060405250810190612b9a9190615210565b88613c9590919063ffffffff16565b613d0590919063ffffffff16565b925050505b92915050565b600c6020528160005260406000208181548110612bdb57fe5b9060005260206000209060040201600091509150508060000154908060010154908060020154908060030154905084565b600e6020528160005260406000208160038110612c2557fe5b01600091509150505481565b3373ffffffffffffffffffffffffffffffffffffffff16600860009054906101000a900473ffffffffffffffffffffffffffffffffffffffff1673ffffffffffffffffffffffffffffffffffffffff1614612cc1576040517f08c379a0000000000000000000000000000000000000000000000000000000008152600401612cb890615ab1565b60405180910390fd5b612cc9614e8d565b600080612cd660006127e8565b91506000612d16612710612d08612cf96003600154613d0590919063ffffffff16565b86613c9590919063ffffffff16565b613d0590919063ffffffff16565b9050600080600090505b60038160ff161015612fb05760038160ff1660038110612d3c57fe5b0160009054906101000a900473ffffffffffffffffffffffffffffffffffffffff1673ffffffffffffffffffffffffffffffffffffffff1663313ce5676040518163ffffffff1660e01b815260040160206040518083038186803b158015612da357600080fd5b505afa158015612db7573d6000803e3d6000fd5b505050506040513d601f19601f82011682018060405250810190612ddb9190615275565b60ff169350612dec8160ff16611430565b868260ff1660038110612dfb57fe5b602002018181525050612e34670de0b6b3a7640000612e2686600a0a86613c9590919063ffffffff16565b613d0590919063ffffffff16565b915081868260ff1660038110612e4657fe5b60200201511115612f8857612e7782878360ff1660038110612e6457fe5b60200201516141da90919063ffffffff16565b868260ff1660038110612e8657fe5b60200201818152505060038160ff1660038110612e9f57fe5b0160009054906101000a900473ffffffffffffffffffffffffffffffffffffffff1673ffffffffffffffffffffffffffffffffffffffff1663a9059cbb600760009054906101000a900473ffffffffffffffffffffffffffffffffffffffff16888460ff1660038110612f0e57fe5b60200201516040518363ffffffff1660e01b8152600401612f309291906158ba565b602060405180830381600087803b158015612f4a57600080fd5b505af1158015612f5e573d6000803e3d6000fd5b505050506040513d601f19601f82011682018060405250810190612f829190615195565b50612fa3565b6000868260ff1660038110612f9957fe5b6020020181815250505b8080600101915050612d20565b50612fba85613da4565b15612fc957612fc885614513565b5b5050505050565b60026019541415613016576040517f08c379a000000000000000000000000000000000000000000000000000000000815260040161300d90615b51565b60405180910390fd5b60026019819055508160008111613062576040517f08c379a0000000000000000000000000000000000000000000000000000000008152600401613059906159f1565b60405180910390fd5b600080600061307186866129ec565b9050600c60003373ffffffffffffffffffffffffffffffffffffffff1673ffffffffffffffffffffffffffffffffffffffff16815260200190815260200160002060405180608001604052808781526020018881526020014281526020018381525090806001815401808255809150506001900390600052602060002090600402016000909190919091506000820151816000015560208201518160010155604082015181600201556060820151816003015550506003856003811061313357fe5b0160009054906101000a900473ffffffffffffffffffffffffffffffffffffffff1673ffffffffffffffffffffffffffffffffffffffff1663313ce5676040518163ffffffff1660e01b815260040160206040518083038186803b15801561319a57600080fd5b505afa1580156131ae573d6000803e3d6000fd5b505050506040513d601f19601f820116820180604052508101906131d29190615275565b60ff16915061321b61320a83600a0a6131fc670de0b6b3a76400008a613c9590919063ffffffff16565b613d0590919063ffffffff16565b600254613d4f90919063ffffffff16565b6002819055506003856003811061322e57fe5b0160009054906101000a900473ffffffffffffffffffffffffffffffffffffffff1673ffffffffffffffffffffffffffffffffffffffff166323b872dd3330896040518463ffffffff1660e01b815260040161328c9392919061585a565b602060405180830381600087803b1580156132a657600080fd5b505af11580156132ba573d6000803e3d6000fd5b505050506040513d601f19601f820116820180604052508101906132de9190615195565b925082613320576040517f08c379a000000000000000000000000000000000000000000000000000000000815260040161331790615a71565b60405180910390fd5b600660009054906101000a900473ffffffffffffffffffffffffffffffffffffffff1673ffffffffffffffffffffffffffffffffffffffff166340c10f1933836040518363ffffffff1660e01b815260040161337d929190615891565b600060405180830381600087803b15801561339757600080fd5b505af11580156133ab573d6000803e3d6000fd5b505050507f6ec568242d49f3645a5e2f73f58b15947dba8ef3ea637e32f6703325ce46f28233876040516133e0929190615891565b60405180910390a15050505060016019819055505050565b6011816003811061340557fe5b016000915090505481565b3373ffffffffffffffffffffffffffffffffffffffff16600860009054906101000a900473ffffffffffffffffffffffffffffffffffffffff1673ffffffffffffffffffffffffffffffffffffffff16146134a0576040517f08c379a000000000000000000000000000000000000000000000000000000000815260040161349790615ab1565b60405180910390fd5b6134a982613da4565b6134e8576040517f08c379a00000000000000000000000000000000000000000000000000000000081526004016134df90615af1565b60405180910390fd5b60008060005b6003811015613609576003816003811061350457fe5b0160009054906101000a900473ffffffffffffffffffffffffffffffffffffffff1673ffffffffffffffffffffffffffffffffffffffff1663313ce5676040518163ffffffff1660e01b815260040160206040518083038186803b15801561356b57600080fd5b505afa15801561357f573d6000803e3d6000fd5b505050506040513d601f19601f820116820180604052508101906135a39190615275565b60ff1692506135fa6135eb84600a0a6135dd670de0b6b3a76400008986600381106135ca57fe5b6020020151613c9590919063ffffffff16565b613d0590919063ffffffff16565b83613d4f90919063ffffffff16565b915080806001019150506134ee565b5061361460006127e8565b8110613655576040517f08c379a000000000000000000000000000000000000000000000000000000000815260040161364c906159d1565b60405180910390fd5b61365e84613df6565b61367381601854613d4f90919063ffffffff16565b60188190555061368e816002546141da90919063ffffffff16565b60028190555060005b60038160ff16101561379f576000858260ff16600381106136b457fe5b602002015111156137925760038160ff16600381106136cf57fe5b0160009054906101000a900473ffffffffffffffffffffffffffffffffffffffff1673ffffffffffffffffffffffffffffffffffffffff1663a9059cbb85878460ff166003811061371c57fe5b60200201516040518363ffffffff1660e01b815260040161373e9291906158ba565b602060405180830381600087803b15801561375857600080fd5b505af115801561376c573d6000803e3d6000fd5b505050506040513d601f19601f820116820180604052508101906137909190615195565b505b8080600101915050613697565b5050505050565b6000806000805b600c60008873ffffffffffffffffffffffffffffffffffffffff1673ffffffffffffffffffffffffffffffffffffffff168152602001908152602001600020805490508160ff161015613958578415806138685750600b54600c60008973ffffffffffffffffffffffffffffffffffffffff1673ffffffffffffffffffffffffffffffffffffffff1681526020019081526020016000208260ff168154811061385257fe5b9060005260206000209060040201600201544203115b80156138d257506000600c60008973ffffffffffffffffffffffffffffffffffffffff1673ffffffffffffffffffffffffffffffffffffffff1681526020019081526020016000208260ff16815481106138be57fe5b906000526020600020906004020160030154115b1561394b57613948600c60008973ffffffffffffffffffffffffffffffffffffffff1673ffffffffffffffffffffffffffffffffffffffff1681526020019081526020016000208260ff168154811061392757fe5b90600052602060002090600402016003015483613d4f90919063ffffffff16565b91505b80806001019150506137ad565b5060005b60038160ff1610156139d8576139c9600e60008973ffffffffffffffffffffffffffffffffffffffff1673ffffffffffffffffffffffffffffffffffffffff1681526020019081526020016000208260ff16600381106139b857fe5b0154836141da90919063ffffffff16565b9150808060010191505061395c565b5060006139e560016127e8565b90506000600387600381106139f657fe5b0160009054906101000a900473ffffffffffffffffffffffffffffffffffffffff1673ffffffffffffffffffffffffffffffffffffffff1663313ce5676040518163ffffffff1660e01b815260040160206040518083038186803b158015613a5d57600080fd5b505afa158015613a71573d6000803e3d6000fd5b505050506040513d601f19601f82011682018060405250810190613a959190615275565b60ff169050613b8d670de0b6b3a7640000613b7f600660009054906101000a900473ffffffffffffffffffffffffffffffffffffffff1673ffffffffffffffffffffffffffffffffffffffff166318160ddd6040518163ffffffff1660e01b815260040160206040518083038186803b158015613b1157600080fd5b505afa158015613b25573d6000803e3d6000fd5b505050506040513d601f19601f82011682018060405250810190613b499190615210565b613b7185600a0a613b63888a613c9590919063ffffffff16565b613c9590919063ffffffff16565b613d0590919063ffffffff16565b613d0590919063ffffffff16565b8394509450505050935093915050565b600a5481565b60148160038110613bb057fe5b016000915090505481565b3373ffffffffffffffffffffffffffffffffffffffff16600860009054906101000a900473ffffffffffffffffffffffffffffffffffffffff1673ffffffffffffffffffffffffffffffffffffffff1614613c4b576040517f08c379a0000000000000000000000000000000000000000000000000000000008152600401613c4290615ab1565b60405180910390fd5b80600860006101000a81548173ffffffffffffffffffffffffffffffffffffffff021916908373ffffffffffffffffffffffffffffffffffffffff16021790555050565b600b5481565b600080831415613ca85760009050613cff565b6000828402905082848281613cb957fe5b0414613cfa576040517f08c379a0000000000000000000000000000000000000000000000000000000008152600401613cf190615a51565b60405180910390fd5b809150505b92915050565b6000613d4783836040518060400160405280601a81526020017f536166654d6174683a206469766973696f6e206279207a65726f000000000000815250614a77565b905092915050565b600080828401905083811015613d9a576040517f08c379a0000000000000000000000000000000000000000000000000000000008152600401613d91906159b1565b60405180910390fd5b8091505092915050565b600080600090505b60038160ff161015613deb576000838260ff1660038110613dc957fe5b60200201511115613dde576001915050613df1565b8080600101915050613dac565b50600090505b919050565b600760009054906101000a900473ffffffffffffffffffffffffffffffffffffffff1673ffffffffffffffffffffffffffffffffffffffff1663b1b8f1be826040518263ffffffff1660e01b8152600401613e5191906158e3565b600060405180830381600087803b158015613e6b57600080fd5b505af1158015613e7f573d6000803e3d6000fd5b50505050600080600090505b60038160ff161015613fb55760038160ff1660038110613ea757fe5b0160009054906101000a900473ffffffffffffffffffffffffffffffffffffffff1673ffffffffffffffffffffffffffffffffffffffff1663313ce5676040518163ffffffff1660e01b815260040160206040518083038186803b158015613f0e57600080fd5b505afa158015613f22573d6000803e3d6000fd5b505050506040513d601f19601f82011682018060405250810190613f469190615275565b60ff169150613fa2613f9183600a0a613f83670de0b6b3a7640000878660ff1660038110613f7057fe5b6020020151613c9590919063ffffffff16565b613d0590919063ffffffff16565b6009546141da90919063ffffffff16565b6009819055508080600101915050613e8b565b505050565b60005b60038160ff16101561403757613ffe60118260ff1660038110613fdc57fe5b015460148360ff1660038110613fee57fe5b0154613d4f90919063ffffffff16565b60148260ff166003811061400e57fe5b0181905550600060118260ff166003811061402557fe5b01819055508080600101915050613fbd565b5060005b601080549050811015614173576001601760006010848154811061405b57fe5b9060005260206000200160009054906101000a900473ffffffffffffffffffffffffffffffffffffffff1673ffffffffffffffffffffffffffffffffffffffff1673ffffffffffffffffffffffffffffffffffffffff16815260200190815260200160002060006101000a81548160ff0219169083151502179055506000600f6000601084815481106140ea57fe5b9060005260206000200160009054906101000a900473ffffffffffffffffffffffffffffffffffffffff1673ffffffffffffffffffffffffffffffffffffffff1673ffffffffffffffffffffffffffffffffffffffff16815260200190815260200160002060006101000a81548160ff021916908315150217905550808060010191505061403b565b506000601080549050905060005b818110156141d657601080548061419457fe5b6001900381819060005260206000200160006101000a81549073ffffffffffffffffffffffffffffffffffffffff021916905590558080600101915050614181565b5050565b600061421c83836040518060400160405280601e81526020017f536166654d6174683a207375627472616374696f6e206f766572666c6f770000815250614ad8565b905092915050565b60005b600c60008473ffffffffffffffffffffffffffffffffffffffff1673ffffffffffffffffffffffffffffffffffffffff168152602001908152602001600020805490508160ff16101561450e576000600c60008573ffffffffffffffffffffffffffffffffffffffff1673ffffffffffffffffffffffffffffffffffffffff1681526020019081526020016000208260ff16815481106142c357fe5b9060005260206000209060040201600301541180156142e25750600082115b1561450157600c60008473ffffffffffffffffffffffffffffffffffffffff1673ffffffffffffffffffffffffffffffffffffffff1681526020019081526020016000208160ff168154811061433457fe5b9060005260206000209060040201600301548210614428576143bd600c60008573ffffffffffffffffffffffffffffffffffffffff1673ffffffffffffffffffffffffffffffffffffffff1681526020019081526020016000208260ff168154811061439c57fe5b906000526020600020906004020160030154836141da90919063ffffffff16565b91506000600c60008573ffffffffffffffffffffffffffffffffffffffff1673ffffffffffffffffffffffffffffffffffffffff1681526020019081526020016000208260ff168154811061440e57fe5b906000526020600020906004020160030181905550614500565b61449982600c60008673ffffffffffffffffffffffffffffffffffffffff1673ffffffffffffffffffffffffffffffffffffffff1681526020019081526020016000208360ff168154811061447957fe5b9060005260206000209060040201600301546141da90919063ffffffff16565b600c60008573ffffffffffffffffffffffffffffffffffffffff1673ffffffffffffffffffffffffffffffffffffffff1681526020019081526020016000208260ff16815481106144e657fe5b906000526020600020906004020160030181905550600091505b5b8080600101915050614227565b505050565b600760009054906101000a900473ffffffffffffffffffffffffffffffffffffffff1673ffffffffffffffffffffffffffffffffffffffff1663d4e20b01826040518263ffffffff1660e01b815260040161456e91906158e3565b600060405180830381600087803b15801561458857600080fd5b505af115801561459c573d6000803e3d6000fd5b50505050600080600090505b60038160ff1610156146d25760038160ff16600381106145c457fe5b0160009054906101000a900473ffffffffffffffffffffffffffffffffffffffff1673ffffffffffffffffffffffffffffffffffffffff1663313ce5676040518163ffffffff1660e01b815260040160206040518083038186803b15801561462b57600080fd5b505afa15801561463f573d6000803e3d6000fd5b505050506040513d601f19601f820116820180604052508101906146639190615275565b60ff1691506146bf6146ae83600a0a6146a0670de0b6b3a7640000878660ff166003811061468d57fe5b6020020151613c9590919063ffffffff16565b613d0590919063ffffffff16565b600954613d4f90919063ffffffff16565b60098190555080806001019150506145a8565b505050565b60006146e282611430565b9050600660009054906101000a900473ffffffffffffffffffffffffffffffffffffffff1673ffffffffffffffffffffffffffffffffffffffff16639dc29fac33856040518363ffffffff1660e01b8152600401614741929190615891565b600060405180830381600087803b15801561475b57600080fd5b505af115801561476f573d6000803e3d6000fd5b5050505080841015614a2c576000806003846003811061478b57fe5b0160009054906101000a900473ffffffffffffffffffffffffffffffffffffffff1673ffffffffffffffffffffffffffffffffffffffff1663313ce5676040518163ffffffff1660e01b815260040160206040518083038186803b1580156147f257600080fd5b505afa158015614806573d6000803e3d6000fd5b505050506040513d601f19601f8201168201806040525081019061482a9190615275565b60ff169150600061489861488961271061487b60008054906101000a90046fffffffffffffffffffffffffffffffff166fffffffffffffffffffffffffffffffff168b613c9590919063ffffffff16565b613d0590919063ffffffff16565b886141da90919063ffffffff16565b90506148de6148cd84600a0a6148bf670de0b6b3a764000085613c9590919063ffffffff16565b613d0590919063ffffffff16565b6002546141da90919063ffffffff16565b6002819055506148ee3387614224565b600385600381106148fb57fe5b0160009054906101000a900473ffffffffffffffffffffffffffffffffffffffff1673ffffffffffffffffffffffffffffffffffffffff1663a9059cbb33836040518363ffffffff1660e01b8152600401614957929190615891565b602060405180830381600087803b15801561497157600080fd5b505af1158015614985573d6000803e3d6000fd5b505050506040513d601f19601f820116820180604052508101906149a99190615195565b9150816149eb576040517f08c379a00000000000000000000000000000000000000000000000000000000081526004016149e290615b11565b60405180910390fd5b7f8b46652782c1a94bd1f1e050f62dea3a99b7fe20520c003e111624847230d4fe3382604051614a1c929190615891565b60405180910390a1505050614a71565b614a37848484614b33565b7fd70cf1d21d858f226b570eec41b4238a7365568b97cf693f3ea03c3bd0d507cf3385604051614a68929190615891565b60405180910390a15b50505050565b60008083118290614abe576040517f08c379a0000000000000000000000000000000000000000000000000000000008152600401614ab5919061594f565b60405180910390fd5b506000838581614aca57fe5b049050809150509392505050565b6000838311158290614b20576040517f08c379a0000000000000000000000000000000000000000000000000000000008152600401614b17919061594f565b60405180910390fd5b5060008385039050809150509392505050565b614b9183600d60003373ffffffffffffffffffffffffffffffffffffffff1673ffffffffffffffffffffffffffffffffffffffff1681526020019081526020016000208360038110614b8157fe5b0154613d4f90919063ffffffff16565b600d60003373ffffffffffffffffffffffffffffffffffffffff1673ffffffffffffffffffffffffffffffffffffffff1681526020019081526020016000208260038110614bdb57fe5b0181905550614c3e82600e60003373ffffffffffffffffffffffffffffffffffffffff1673ffffffffffffffffffffffffffffffffffffffff1681526020019081526020016000208360038110614c2e57fe5b0154613d4f90919063ffffffff16565b600e60003373ffffffffffffffffffffffffffffffffffffffff1673ffffffffffffffffffffffffffffffffffffffff1681526020019081526020016000208260038110614c8857fe5b0181905550614cae8360118360038110614c9e57fe5b0154613d4f90919063ffffffff16565b60118260038110614cbb57fe5b01819055506000614d22620f4240614d14670de0b6b3a7640000614d066011600260038110614ce657fe5b01546011600160038110614cf657fe5b0154613d4f90919063ffffffff16565b613c9590919063ffffffff16565b613d0590919063ffffffff16565b9050600954816011600060038110614d3657fe5b0154011115614d7a576040517f08c379a0000000000000000000000000000000000000000000000000000000008152600401614d71906159d1565b60405180910390fd5b600f60003373ffffffffffffffffffffffffffffffffffffffff1673ffffffffffffffffffffffffffffffffffffffff16815260200190815260200160002060009054906101000a900460ff16614e87576001600f60003373ffffffffffffffffffffffffffffffffffffffff1673ffffffffffffffffffffffffffffffffffffffff16815260200190815260200160002060006101000a81548160ff0219169083151502179055506010339080600181540180825580915050600190039060005260206000200160009091909190916101000a81548173ffffffffffffffffffffffffffffffffffffffff021916908373ffffffffffffffffffffffffffffffffffffffff1602179055505b50505050565b6040518060600160405280600390602082028036833780820191505090505090565b600081359050614ebe81615e00565b92915050565b600082601f830112614ed557600080fd5b6003614ee8614ee382615c62565b615c35565b91508183856020840282011115614efe57600080fd5b60005b83811015614f2e5781614f148882614feb565b845260208401935060208301925050600181019050614f01565b5050505092915050565b600082601f830112614f4957600080fd5b6003614f5c614f5782615c62565b615c35565b91508183856020840282011115614f7257600080fd5b60005b83811015614fa25781614f888882615000565b845260208401935060208301925050600181019050614f75565b5050505092915050565b600081359050614fbb81615e17565b92915050565b600081519050614fd081615e17565b92915050565b600081359050614fe581615e2e565b92915050565b600081359050614ffa81615e45565b92915050565b60008151905061500f81615e45565b92915050565b60008151905061502481615e5c565b92915050565b60006020828403121561503c57600080fd5b600061504a84828501614eaf565b91505092915050565b6000806040838503121561506657600080fd5b600061507485828601614eaf565b925050602061508585828601614feb565b9150509250929050565b6000806000606084860312156150a457600080fd5b60006150b286828701614eaf565b93505060206150c386828701614feb565b92505060406150d486828701614fac565b9150509250925092565b6000606082840312156150f057600080fd5b60006150fe84828501614ec4565b91505092915050565b60006060828403121561511957600080fd5b600061512784828501614f38565b91505092915050565b6000806080838503121561514357600080fd5b600061515185828601614ec4565b925050606061516285828601614eaf565b9150509250929050565b60006020828403121561517e57600080fd5b600061518c84828501614fac565b91505092915050565b6000602082840312156151a757600080fd5b60006151b584828501614fc1565b91505092915050565b6000602082840312156151d057600080fd5b60006151de84828501614fd6565b91505092915050565b6000602082840312156151f957600080fd5b600061520784828501614feb565b91505092915050565b60006020828403121561522257600080fd5b600061523084828501615000565b91505092915050565b6000806040838503121561524c57600080fd5b600061525a85828601614feb565b925050602061526b85828601614feb565b9150509250929050565b60006020828403121561528757600080fd5b600061529584828501615015565b91505092915050565b60006152aa8383615806565b60208301905092915050565b6152bf81615d3e565b82525050565b6152ce81615ccd565b82525050565b6152dd81615c8e565b6152e78184615cb1565b92506152f282615c84565b8060005b8381101561532357815161530a878261529e565b965061531583615ca4565b9250506001810190506152f6565b505050505050565b61533481615cdf565b82525050565b61534381615d50565b82525050565b61535281615d74565b82525050565b600061536382615c99565b61536d8185615cbc565b935061537d818560208601615dbc565b61538681615def565b840191505092915050565b600061539e601683615cbc565b91507f72657175657374207769746864726177206669727374000000000000000000006000830152602082019050919050565b60006153de601483615cbc565b91507f616d6f756e742063616e2774206265207a65726f0000000000000000000000006000830152602082019050919050565b600061541e601b83615cbc565b91507f536166654d6174683a206164646974696f6e206f766572666c6f7700000000006000830152602082019050919050565b600061545e601283615cbc565b91507f4e6f7420656e6f7567682062616c616e636500000000000000000000000000006000830152602082019050919050565b600061549e600283615cbc565b91507f4e560000000000000000000000000000000000000000000000000000000000006000830152602082019050919050565b60006154de600b83615cbc565b91507f717565756520656d7074790000000000000000000000000000000000000000006000830152602082019050919050565b600061551e601f83615cbc565b91507f43616c6c207769746864726177416c6c2066756e6374696f6e206669727374006000830152602082019050919050565b600061555e602183615cbc565b91507f536166654d6174683a206d756c7469706c69636174696f6e206f766572666c6f60008301527f77000000000000000000000000000000000000000000000000000000000000006020830152604082019050919050565b60006155c4601483615cbc565b91507f636f696e207472616e73666572206661696c65640000000000000000000000006000830152602082019050919050565b6000615604601683615cbc565b91507f5472616e73666572204e6f742053756363657366756c000000000000000000006000830152602082019050919050565b6000615644600283615cbc565b91507f4e410000000000000000000000000000000000000000000000000000000000006000830152602082019050919050565b6000615684600783615cbc565b91507f6c6f7720525054000000000000000000000000000000000000000000000000006000830152602082019050919050565b60006156c4601383615cbc565b91507f616d6f756e742063616e206e6f74207a65726f000000000000000000000000006000830152602082019050919050565b6000615704601683615cbc565b91507f5472616e73666572206e6f742053756363657366756c000000000000000000006000830152602082019050919050565b6000615744601783615cbc565b91507f4e6f7420456e6f75676820506f6f6c2062616c616e63650000000000000000006000830152602082019050919050565b6000615784601f83615cbc565b91507f5265656e7472616e637947756172643a207265656e7472616e742063616c6c006000830152602082019050919050565b60006157c4600b83615cbc565b91507f436c61696d2066697273740000000000000000000000000000000000000000006000830152602082019050919050565b61580081615ceb565b82525050565b61580f81615d27565b82525050565b61581e81615d27565b82525050565b600060208201905061583960008301846152c5565b92915050565b600060208201905061585460008301846152b6565b92915050565b600060608201905061586f60008301866152b6565b61587c60208301856152c5565b6158896040830184615815565b949350505050565b60006040820190506158a660008301856152b6565b6158b36020830184615815565b9392505050565b60006040820190506158cf60008301856152c5565b6158dc6020830184615815565b9392505050565b60006060820190506158f860008301846152d4565b92915050565b6000602082019050615913600083018461532b565b92915050565b600060208201905061592e600083018461533a565b92915050565b60006020820190506159496000830184615349565b92915050565b600060208201905081810360008301526159698184615358565b905092915050565b6000602082019050818103600083015261598a81615391565b9050919050565b600060208201905081810360008301526159aa816153d1565b9050919050565b600060208201905081810360008301526159ca81615411565b9050919050565b600060208201905081810360008301526159ea81615451565b9050919050565b60006020820190508181036000830152615a0a81615491565b9050919050565b60006020820190508181036000830152615a2a816154d1565b9050919050565b60006020820190508181036000830152615a4a81615511565b9050919050565b60006020820190508181036000830152615a6a81615551565b9050919050565b60006020820190508181036000830152615a8a816155b7565b9050919050565b60006020820190508181036000830152615aaa816155f7565b9050919050565b60006020820190508181036000830152615aca81615637565b9050919050565b60006020820190508181036000830152615aea81615677565b9050919050565b60006020820190508181036000830152615b0a816156b7565b9050919050565b60006020820190508181036000830152615b2a816156f7565b9050919050565b60006020820190508181036000830152615b4a81615737565b9050919050565b60006020820190508181036000830152615b6a81615777565b9050919050565b60006020820190508181036000830152615b8a816157b7565b9050919050565b6000602082019050615ba660008301846157f7565b92915050565b6000602082019050615bc16000830184615815565b92915050565b6000604082019050615bdc6000830185615815565b615be96020830184615815565b9392505050565b6000608082019050615c056000830187615815565b615c126020830186615815565b615c1f6040830185615815565b615c2c6060830184615815565b95945050505050565b6000604051905081810181811067ffffffffffffffff82111715615c5857600080fd5b8060405250919050565b600067ffffffffffffffff821115615c7957600080fd5b602082029050919050565b6000819050919050565b600060039050919050565b600081519050919050565b6000602082019050919050565b600081905092915050565b600082825260208201905092915050565b6000615cd882615d07565b9050919050565b60008115159050919050565b60006fffffffffffffffffffffffffffffffff82169050919050565b600073ffffffffffffffffffffffffffffffffffffffff82169050919050565b6000819050919050565b600060ff82169050919050565b6000615d4982615d98565b9050919050565b6000615d5b82615d62565b9050919050565b6000615d6d82615d07565b9050919050565b6000615d7f82615d86565b9050919050565b6000615d9182615d07565b9050919050565b6000615da382615daa565b9050919050565b6000615db582615d07565b9050919050565b60005b83811015615dda578082015181840152602081019050615dbf565b83811115615de9576000848401525b50505050565b6000601f19601f8301169050919050565b615e0981615ccd565b8114615e1457600080fd5b50565b615e2081615cdf565b8114615e2b57600080fd5b50565b615e3781615ceb565b8114615e4257600080fd5b50565b615e4e81615d27565b8114615e5957600080fd5b50565b615e6581615d31565b8114615e7057600080fd5b5056fea2646970667358221220109b118cc8d65d9068b77c3bbbf7b6014c0962896f0629174c4bc4a33620263e64736f6c634300060c0033",
  "immutableReferences": {},
  "source": "// SPDX-License-Identifier: UNLICENSED\r\npragma solidity ^0.6.0;\r\npragma experimental ABIEncoderV2;\r\n\r\nimport \"@openzeppelin/contracts/math/SafeMath.sol\";\r\nimport \"@openzeppelin/contracts/utils/ReentrancyGuard.sol\";\r\nimport './RoyaleLPVariables.sol';\r\n\r\ncontract RoyaleLP is RoyaleLPstorage,ReentrancyGuard {\r\n     \r\n    using SafeMath for uint256;\r\n  \r\n    modifier onlyWallet(){\r\n      require(wallet ==msg.sender, \"NA\");\r\n      _;\r\n    }\r\n  \r\n     modifier validAmount(uint amount){\r\n      require(amount > 0 , \"NV\");\r\n      _;\r\n    }\r\n    \r\n    // EVENTS \r\n    event userSupplied(address user,uint amount);\r\n    event userRecieved(address user,uint amount);\r\n    event userAddedToQ(address user,uint amount);\r\n    event yieldAdded(uint amount);\r\n   \r\n    \r\n    constructor(address[3] memory _tokens,address _rpToken,address _wallet) public {\r\n        for(uint8 i=0; i<3; i++) {\r\n            tokens[i] = IERC20(_tokens[i]);\r\n        }\r\n        rpToken = IERC20(_rpToken);\r\n        wallet=_wallet;\r\n    }\r\n    \r\n     function transferOwnership(address _wallet) external onlyWallet(){\r\n        wallet =_wallet;\r\n    }\r\n\r\n    /* INTERNAL FUNCTIONS */\r\n   \r\n    \r\n    //For checking whether array contains any non zero elements or not.\r\n    function checkValidArray(uint256[3] memory amounts)internal pure returns(bool){\r\n        for(uint8 i=0;i<3;i++){\r\n            if(amounts[i]>0){\r\n                return true;\r\n            }\r\n        }\r\n        return false;\r\n    }\r\n    \r\n\r\n   \r\n    \r\n    // This function deposits the liquidity to yield generation pool using yield Strategy contract\r\n    function _deposit(uint256[3] memory amounts) internal {\r\n        strategy.deposit(amounts);\r\n        uint decimal;\r\n        for(uint8 i=0;i<3;i++){\r\n            decimal=tokens[i].decimals();\r\n            YieldPoolBalance =YieldPoolBalance.add(amounts[i].mul(10**18).div(10**decimal));\r\n        }\r\n    }\r\n   \r\n\r\n    //This function is used to updating the array of user's individual deposit , called when users withdraw/claim tokens.\r\n    function updateLockedRPT(address recipient,uint256 amount) internal{\r\n        for(uint8 j=0; j<amountSupplied[recipient].length; j++) {\r\n            if(amountSupplied[recipient][j].remAmt > 0 && amount > 0 ) {\r\n                if(amount >= amountSupplied[recipient][j].remAmt) {\r\n                        amount = amount.sub( amountSupplied[recipient][j].remAmt);\r\n                        amountSupplied[recipient][j].remAmt = 0;\r\n                }\r\n                else {\r\n                        amountSupplied[recipient][j].remAmt =(amountSupplied[recipient][j].remAmt).sub(amount);\r\n                        amount = 0;\r\n                }\r\n            }\r\n        }\r\n     }\r\n\r\n    //Funtion determines whether requested withdrawl amount is available in the pool or not.\r\n    //If yes then fulfills withdraw request \r\n    //and if no then put the request into the withdraw queue.\r\n    function checkWithdraw(uint256 amount,uint256 burnAmt,uint _index) internal{\r\n        uint256 poolBalance;\r\n        poolBalance = getBalances(_index);\r\n        rpToken.burn(msg.sender, burnAmt);\r\n        if(amount < poolBalance) {\r\n            uint decimal;\r\n            bool result;\r\n            decimal=tokens[_index].decimals();\r\n            uint temp = amount.sub(amount.mul(fees).div(DENOMINATOR));\r\n            selfBalance=selfBalance.sub(temp.mul(10**18).div(10**decimal));\r\n            updateLockedRPT(msg.sender,burnAmt);\r\n            result = tokens[_index].transfer(msg.sender, temp);\r\n            require(result,\"Transfer not Succesful\");\r\n            emit userRecieved(msg.sender, temp); \r\n         }\r\n         else {\r\n            _takeBackQ(amount,burnAmt,_index);\r\n            emit userAddedToQ(msg.sender, amount);\r\n        }\r\n    }\r\n\r\n\r\n\r\n    // this will add unfulfilled withdraw requests to the withdrawl queue\r\n    function _takeBackQ(uint256 amount,uint256 _burnAmount,uint256 _index) internal {\r\n        amountWithdraw[msg.sender][_index] =amountWithdraw[msg.sender][_index].add( amount);\r\n        amountBurnt[msg.sender][_index]=amountBurnt[msg.sender][_index].add(_burnAmount);\r\n        totalWithdraw[_index] =totalWithdraw[_index].add(amount);\r\n        uint total;\r\n        total=(totalWithdraw[1].add(totalWithdraw[2])).mul(1e18).div(10**6);\r\n        require((totalWithdraw[0]+total)<=YieldPoolBalance,\"Not enough balance\");\r\n        if(!isInQ[msg.sender]) {\r\n            isInQ[msg.sender] = true;\r\n            withdrawRecipients.push(msg.sender);\r\n            \r\n        }\r\n\r\n    }\r\n\r\n\r\n    //this function is called when Royale Govenance withdrawl from yield generation pool.It add all the withdrawl amount in the reserve amount.\r\n    //All the users who requested for the withdrawl are added to the reserveRecipients.\r\n    function updateWithdrawQueue() internal{\r\n        for(uint8 i=0;i<3;i++){\r\n            reserveAmount[i]=reserveAmount[i].add(totalWithdraw[i]);\r\n            totalWithdraw[i]=0;\r\n        }\r\n        for(uint i=0; i<withdrawRecipients.length; i++) {\r\n            reserveRecipients[withdrawRecipients[i]]=true;\r\n            isInQ[withdrawRecipients[i]]=false;\r\n        }\r\n        uint count=withdrawRecipients.length;\r\n        for(uint i=0;i<count;i++){\r\n            withdrawRecipients.pop();\r\n        }\r\n    }\r\n\r\n    // this will withdraw Liquidity from yield genaration pool using yield Strategy\r\n    function _withdraw(uint256[3] memory amounts) internal {\r\n        strategy.withdraw(amounts);\r\n        uint decimal;\r\n        for(uint8 i=0;i<3;i++){\r\n            decimal=tokens[i].decimals();\r\n            YieldPoolBalance =YieldPoolBalance.sub(amounts[i].mul(10**18).div(10**decimal));\r\n        }\r\n    }\r\n\r\n    //This function calculate RPT to be mint or burn\r\n    //amount parameter is amount of token\r\n    //_index can be 0/1/2 \r\n    //0-DAI\r\n    //1-USDC\r\n    //2-USDT\r\n    function calcRptAmount(uint256 amount,uint _index) public view returns(uint256) {\r\n        uint256 total = calculateTotalToken(true);\r\n        uint256 decimal = 0;\r\n        decimal=tokens[_index].decimals();\r\n        amount=amount.mul(1e18).div(10**decimal);\r\n        if(total==0){\r\n            return amount;\r\n        }\r\n        else{\r\n          return (amount.mul(rpToken.totalSupply()).div(total)); \r\n        }\r\n    }\r\n\r\n\r\n\r\n    //function to check available amount to withdraw for user\r\n    function availableLiquidity(address addr, uint coin,bool _time) public view returns(uint256 token,uint256 RPT) {\r\n        uint256 amount=0;\r\n        for(uint8 j=0; j<amountSupplied[addr].length; j++) {\r\n                if( (!_time || (now - amountSupplied[addr][j].time)  > lock_period)&&amountSupplied[addr][j].remAmt >0)   {\r\n                        amount =amount.add(amountSupplied[addr][j].remAmt);\r\n                }\r\n        }\r\n        for(uint8 i=0;i<3;i++){\r\n            amount =amount.sub(amountBurnt[addr][i]);\r\n        }\r\n        uint256 total=calculateTotalToken(true);\r\n        uint256 decimal;\r\n        decimal=tokens[coin].decimals();\r\n        return ((amount.mul(total).mul(10**decimal).div(rpToken.totalSupply())).div(10**18),amount);\r\n    }\r\n    \r\n\r\n    //calculated available total tokens in the pool by substracting withdrawal, reserve amount.\r\n    //In case supply is true , it adds total loan given.\r\n    function calculateTotalToken(bool _supply)public view returns(uint256){\r\n        uint256 decimal;\r\n        uint withdrawTotal;\r\n        uint reserveTotal;\r\n       \r\n        for(uint8 i=0; i<3; i++) {\r\n            decimal = tokens[i].decimals();\r\n            withdrawTotal=withdrawTotal.add(totalWithdraw[i].mul(1e18).div(10**decimal));\r\n            reserveTotal=reserveTotal.add(reserveAmount[i].mul(1e18).div(10**decimal));\r\n        } \r\n        if(_supply){\r\n            return selfBalance.sub(withdrawTotal).sub(reserveTotal).add(loanGiven);\r\n        }\r\n        else{\r\n            return selfBalance.sub(withdrawTotal).sub(reserveTotal);\r\n        }\r\n        \r\n    }\r\n    \r\n    /* USER FUNCTIONS (exposed to frontend) */\r\n   \r\n    //For depositing liquidity to the pool.\r\n    //_index will be 0/1/2     0-DAI , 1-USDC , 2-USDT\r\n    function supply(uint256 amount,uint256 _index) external nonReentrant  validAmount(amount){\r\n        bool result;\r\n        uint decimal;\r\n        uint256 mintAmount=calcRptAmount(amount,_index);\r\n        amountSupplied[msg.sender].push(depositDetails(_index,amount,now,mintAmount));\r\n        decimal=tokens[_index].decimals();\r\n        selfBalance=selfBalance.add(amount.mul(10**18).div(10**decimal));\r\n        result = tokens[_index].transferFrom(msg.sender, address(this), amount);\r\n        require(result, \"coin transfer failed\");\r\n        rpToken.mint(msg.sender, mintAmount);\r\n        emit userSupplied(msg.sender, amount);\r\n    }\r\n\r\n    \r\n    //for withdrawing the liquidity\r\n    //First Parameter is amount of RPT\r\n    //Second is which token to be withdrawal with this RPT.\r\n    function requestWithdrawWithRPT(uint256 amount,uint256 _index) external nonReentrant validAmount(amount){\r\n        require(!reserveRecipients[msg.sender],\"Claim first\");\r\n        require(rpToken.balanceOf(msg.sender) >= amount, \"low RPT\");\r\n        (,uint availableRPT)=availableLiquidity(msg.sender,_index,true );\r\n        bool instant=true;\r\n         if(availableRPT < amount) {\r\n             instant=false;\r\n        }\r\n        require(instant,\"NA\");\r\n        uint256 total = calculateTotalToken(true);\r\n        uint256 tokenAmount;\r\n        tokenAmount=amount.mul(total).div(rpToken.totalSupply());\r\n        require(tokenAmount <= calculateTotalToken(false),\"Not Enough Pool balance\");\r\n        uint decimal;\r\n        decimal=tokens[_index].decimals();\r\n        checkWithdraw(tokenAmount.mul(10**decimal).div(10**18),amount,_index);  \r\n    }\r\n    \r\n    //For claiming withdrawal after user added to the reserve recipient.\r\n    function claimTokens() external  nonReentrant{\r\n        require(reserveRecipients[msg.sender] , \"request withdraw first\");\r\n        bool result;\r\n        uint totalBurnt;\r\n        uint decimal;\r\n        for(uint8 i=0; i<3; i++) {\r\n            if(amountWithdraw[msg.sender][i] > 0) {\r\n                decimal=tokens[i].decimals();\r\n                uint temp = amountWithdraw[msg.sender][i].sub((amountWithdraw[msg.sender][i].mul(fees)).div(DENOMINATOR));\r\n                reserveAmount[i] =reserveAmount[i].sub(amountWithdraw[msg.sender][i]);\r\n                selfBalance = selfBalance.sub(temp.mul(1e18).div(10**decimal));\r\n                totalBurnt =totalBurnt.add(amountBurnt[msg.sender][i]);\r\n                amountWithdraw[msg.sender][i] = 0;\r\n                amountBurnt[msg.sender][i]=0;\r\n                result = tokens[i].transfer(msg.sender,  temp);\r\n                require(result,\"Transfer Not Succesful\");\r\n                emit userRecieved(msg.sender,temp);\r\n            }\r\n        }\r\n        updateLockedRPT(msg.sender,totalBurnt);\r\n        reserveRecipients[msg.sender] = false;\r\n    }\r\n\r\n\r\n    // this function deposits without minting RPT.\r\n    //Used to deposit Yield\r\n    function depositYield(uint256 amount,uint _index) external{\r\n        uint decimal;\r\n        decimal=tokens[_index].decimals();\r\n        selfBalance=selfBalance.add(amount.mul(1e18).div(10**decimal));\r\n        liquidityProvidersAPY=liquidityProvidersAPY.add(amount.mul(1e18).div(10**decimal));\r\n        tokens[_index].transferFrom(msg.sender,address(this),amount);\r\n        emit yieldAdded(amount);\r\n    }\r\n\r\n\r\n    /* CORE FUNCTIONS (called by owner only) */\r\n\r\n    //Transfer token to rStrategy by maintaining pool ratio.\r\n    function deposit() onlyWallet() external  {\r\n        uint256[3] memory amounts;\r\n        uint256 totalAmount;\r\n        uint256 decimal;\r\n        totalAmount=calculateTotalToken(false);\r\n        uint balanceAmount=totalAmount.mul(poolPart.div(3)).div(DENOMINATOR);\r\n        uint tokenBalance;\r\n        for(uint8 i=0;i<3;i++){\r\n            decimal=tokens[i].decimals();\r\n            amounts[i]=getBalances(i);\r\n            tokenBalance=balanceAmount.mul(10**decimal).div(10**18);\r\n            if(amounts[i]>tokenBalance){\r\n                amounts[i]=amounts[i].sub(tokenBalance);\r\n                tokens[i].transfer(address(strategy),amounts[i]);\r\n            }\r\n            else{\r\n                amounts[i]=0;\r\n            }\r\n        }\r\n        if(checkValidArray(amounts)){\r\n            _deposit(amounts);\r\n        }\r\n    }\r\n    \r\n\r\n    //Withdraw from Yield genaration pool.\r\n    function withdraw() onlyWallet() external  {\r\n        require(checkValidArray(totalWithdraw), \"queue empty\");\r\n        _withdraw(totalWithdraw);\r\n        updateWithdrawQueue();\r\n    }\r\n\r\n   //Withdraw total liquidity from yield generation pool\r\n    function withdrawAll() external onlyWallet() {\r\n        uint[3] memory amounts;\r\n        amounts=strategy.withdrawAll();\r\n        uint decimal;\r\n        selfBalance=0;\r\n        for(uint8 i=0;i<3;i++){\r\n            decimal=tokens[i].decimals();\r\n            selfBalance=selfBalance.add((tokens[i].balanceOf(address(this))).mul(1e18).div(10**decimal));\r\n        }\r\n        YieldPoolBalance=0;\r\n        updateWithdrawQueue();\r\n    }\r\n\r\n\r\n    //function for rebalancing royale pool(ratio)      \r\n    function rebalance() onlyWallet() external {\r\n        uint256 currentAmount;\r\n        uint256[3] memory amountToWithdraw;\r\n        uint256[3] memory amountToDeposit;\r\n        uint totalAmount;\r\n        uint256 decimal;\r\n        totalAmount=calculateTotalToken(false);\r\n        uint balanceAmount=totalAmount.mul(poolPart.div(3)).div(DENOMINATOR);\r\n        uint tokenBalance;\r\n        for(uint8 i=0;i<3;i++) {\r\n           currentAmount=getBalances(i);\r\n           decimal=tokens[i].decimals();\r\n           tokenBalance=balanceAmount.mul(10**decimal).div(10**18);\r\n           if(tokenBalance > currentAmount) {\r\n              amountToWithdraw[i] = tokenBalance.sub(currentAmount);\r\n           }\r\n           else if(tokenBalance < currentAmount) {\r\n               amountToDeposit[i] = currentAmount.sub(tokenBalance);\r\n               tokens[i].transfer(address(strategy), amountToDeposit[i]);\r\n               \r\n           }\r\n           else {\r\n               amountToWithdraw[i] = 0;\r\n               amountToDeposit[i] = 0;\r\n           }\r\n        }\r\n        if(checkValidArray(amountToDeposit)){\r\n             _deposit(amountToDeposit);\r\n             \r\n        }\r\n        if(checkValidArray(amountToWithdraw)) {\r\n            _withdraw(amountToWithdraw);\r\n            \r\n        }\r\n\r\n    }\r\n    \r\n    //For withdrawing loan from the royale Pool\r\n    function withdrawLoan(uint[3] memory amounts,address _recipient)external onlyWallet(){\r\n        require(checkValidArray(amounts),\"amount can not zero\");\r\n        uint decimal;\r\n        uint total;\r\n        for(uint i=0;i<3;i++){\r\n           decimal=tokens[i].decimals();\r\n           total=total.add(amounts[i].mul(1e18).div(10**decimal));\r\n        }\r\n        require(total<calculateTotalToken(false),\"Not enough balance\");\r\n        _withdraw(amounts);\r\n        loanGiven =loanGiven.add(total);\r\n        selfBalance=selfBalance.sub(total);\r\n        for(uint8 i=0; i<3; i++) {\r\n            if(amounts[i] > 0) {\r\n                tokens[i].transfer(_recipient, amounts[i]);\r\n            }\r\n        }\r\n        \r\n    }\r\n    \r\n   // For repaying the loan to the royale Pool.\r\n    function repayLoan(uint[3] memory amounts)external {\r\n        require(checkValidArray(amounts),\"amount can't be zero\");\r\n        uint decimal;\r\n        for(uint8 i=0; i<3; i++) {\r\n            if(amounts[i] > 0) {\r\n                decimal=tokens[i].decimals();\r\n                loanGiven =loanGiven.sub(amounts[i].mul(1e18).div(10**decimal));\r\n                selfBalance=selfBalance.add(amounts[i].mul(1e18).div(10**decimal));\r\n                tokens[i].transferFrom(msg.sender,address(this),amounts[i]);\r\n            }\r\n        }\r\n    }\r\n    \r\n\r\n    //for changing pool ratio\r\n    function changePoolPart(uint128 _newPoolPart) external onlyWallet()  {\r\n        poolPart = _newPoolPart;\r\n        \r\n    }\r\n\r\n   //For changing yield Strategy\r\n    function changeStrategy(address _strategy) onlyWallet() external  {\r\n        for(uint8 i=0;i<3;i++){\r\n            require(YieldPoolBalance==0, \"Call withdrawAll function first\");\r\n        } \r\n        strategy=rStrategy(_strategy);\r\n        \r\n    }\r\n\r\n    function setLockPeriod(uint256 lockperiod) onlyWallet() external  {\r\n        lock_period = lockperiod;\r\n        \r\n    }\r\n\r\n     // for changing withdrawal fees  \r\n    function setWithdrawFees(uint128 _fees) onlyWallet() external {\r\n        fees = _fees;\r\n\r\n    }\r\n\r\n    function transferAllFunds(address _address)external onlyWallet(){\r\n        selfBalance=0;\r\n        for(uint8 i=0;i<3;i++){\r\n            tokens[i].transfer(_address,tokens[i].balanceOf(address(this)));\r\n        }\r\n    }   \r\n    \r\n    function getBalances(uint _index) public view returns(uint256) {\r\n        return (tokens[_index].balanceOf(address(this)).sub(reserveAmount[_index]));\r\n    }\r\n}",
  "sourcePath": "C:/Users/vishn/OneDrive/Desktop/RoyaleProject/RoyaleFinance/royale-contracts/contracts/Pool/RoyaleLP.sol",
  "compiler": {
    "name": "solc",
    "version": "0.6.12+commit.27d51765.Emscripten.clang"
  },
  "schemaVersion": "3.3.2",
  "updatedAt": "2021-03-12T11:47:07.173Z",
  "devdoc": {
    "kind": "dev",
    "methods": {},
    "version": 1
  },
  "userdoc": {
    "kind": "user",
    "methods": {},
    "version": 1
  }
}