{
  "contractName": "RoyaleLP",
  "abi": [
    {
      "inputs": [
        {
          "internalType": "address[3]",
          "name": "_tokens",
          "type": "address[3]"
        },
        {
          "internalType": "address",
          "name": "_rpToken",
          "type": "address"
        },
        {
          "internalType": "address",
          "name": "_wallet",
          "type": "address"
        }
      ],
      "stateMutability": "nonpayable",
      "type": "constructor"
    },
    {
      "anonymous": false,
      "inputs": [
        {
          "indexed": false,
          "internalType": "address",
          "name": "user",
          "type": "address"
        },
        {
          "indexed": false,
          "internalType": "uint256",
          "name": "amount",
          "type": "uint256"
        }
      ],
      "name": "userAddedToQ",
      "type": "event"
    },
    {
      "anonymous": false,
      "inputs": [
        {
          "indexed": false,
          "internalType": "address",
          "name": "user",
          "type": "address"
        },
        {
          "indexed": false,
          "internalType": "uint256",
          "name": "amount",
          "type": "uint256"
        }
      ],
      "name": "userRecieved",
      "type": "event"
    },
    {
      "anonymous": false,
      "inputs": [
        {
          "indexed": false,
          "internalType": "address",
          "name": "user",
          "type": "address"
        },
        {
          "indexed": false,
          "internalType": "uint256",
          "name": "amount",
          "type": "uint256"
        }
      ],
      "name": "userSupplied",
      "type": "event"
    },
    {
      "anonymous": false,
      "inputs": [
        {
          "indexed": false,
          "internalType": "uint256[3]",
          "name": "amounts",
          "type": "uint256[3]"
        }
      ],
      "name": "yieldAdded",
      "type": "event"
    },
    {
      "inputs": [],
      "name": "DENOMINATOR",
      "outputs": [
        {
          "internalType": "uint256",
          "name": "",
          "type": "uint256"
        }
      ],
      "stateMutability": "view",
      "type": "function"
    },
    {
      "inputs": [],
      "name": "YieldPoolBalance",
      "outputs": [
        {
          "internalType": "uint256",
          "name": "",
          "type": "uint256"
        }
      ],
      "stateMutability": "view",
      "type": "function"
    },
    {
      "inputs": [
        {
          "internalType": "address",
          "name": "",
          "type": "address"
        },
        {
          "internalType": "uint256",
          "name": "",
          "type": "uint256"
        }
      ],
      "name": "amountBurnt",
      "outputs": [
        {
          "internalType": "uint256",
          "name": "",
          "type": "uint256"
        }
      ],
      "stateMutability": "view",
      "type": "function"
    },
    {
      "inputs": [
        {
          "internalType": "address",
          "name": "",
          "type": "address"
        },
        {
          "internalType": "uint256",
          "name": "",
          "type": "uint256"
        }
      ],
      "name": "amountSupplied",
      "outputs": [
        {
          "internalType": "uint256",
          "name": "index",
          "type": "uint256"
        },
        {
          "internalType": "uint256",
          "name": "amount",
          "type": "uint256"
        },
        {
          "internalType": "uint256",
          "name": "time",
          "type": "uint256"
        },
        {
          "internalType": "uint256",
          "name": "remAmt",
          "type": "uint256"
        }
      ],
      "stateMutability": "view",
      "type": "function"
    },
    {
      "inputs": [
        {
          "internalType": "address",
          "name": "",
          "type": "address"
        },
        {
          "internalType": "uint256",
          "name": "",
          "type": "uint256"
        }
      ],
      "name": "amountWithdraw",
      "outputs": [
        {
          "internalType": "uint256",
          "name": "",
          "type": "uint256"
        }
      ],
      "stateMutability": "view",
      "type": "function"
    },
    {
      "inputs": [],
      "name": "curveStrategy",
      "outputs": [
        {
          "internalType": "contract rCurveStrategy",
          "name": "",
          "type": "address"
        }
      ],
      "stateMutability": "view",
      "type": "function"
    },
    {
      "inputs": [],
      "name": "fees",
      "outputs": [
        {
          "internalType": "uint128",
          "name": "",
          "type": "uint128"
        }
      ],
      "stateMutability": "view",
      "type": "function"
    },
    {
      "inputs": [
        {
          "internalType": "address",
          "name": "",
          "type": "address"
        }
      ],
      "name": "isInQ",
      "outputs": [
        {
          "internalType": "bool",
          "name": "",
          "type": "bool"
        }
      ],
      "stateMutability": "view",
      "type": "function"
    },
    {
      "inputs": [],
      "name": "liquidityProvidersAPY",
      "outputs": [
        {
          "internalType": "uint256",
          "name": "",
          "type": "uint256"
        }
      ],
      "stateMutability": "view",
      "type": "function"
    },
    {
      "inputs": [],
      "name": "loanContract",
      "outputs": [
        {
          "internalType": "address",
          "name": "",
          "type": "address"
        }
      ],
      "stateMutability": "view",
      "type": "function"
    },
    {
      "inputs": [
        {
          "internalType": "uint256",
          "name": "",
          "type": "uint256"
        }
      ],
      "name": "loanGiven",
      "outputs": [
        {
          "internalType": "uint256",
          "name": "",
          "type": "uint256"
        }
      ],
      "stateMutability": "view",
      "type": "function"
    },
    {
      "inputs": [],
      "name": "lock_period",
      "outputs": [
        {
          "internalType": "uint256",
          "name": "",
          "type": "uint256"
        }
      ],
      "stateMutability": "view",
      "type": "function"
    },
    {
      "inputs": [],
      "name": "poolPart",
      "outputs": [
        {
          "internalType": "uint256",
          "name": "",
          "type": "uint256"
        }
      ],
      "stateMutability": "view",
      "type": "function"
    },
    {
      "inputs": [
        {
          "internalType": "uint256",
          "name": "",
          "type": "uint256"
        }
      ],
      "name": "reserveAmount",
      "outputs": [
        {
          "internalType": "uint256",
          "name": "",
          "type": "uint256"
        }
      ],
      "stateMutability": "view",
      "type": "function"
    },
    {
      "inputs": [
        {
          "internalType": "address",
          "name": "",
          "type": "address"
        }
      ],
      "name": "reserveRecipients",
      "outputs": [
        {
          "internalType": "bool",
          "name": "",
          "type": "bool"
        }
      ],
      "stateMutability": "view",
      "type": "function"
    },
    {
      "inputs": [],
      "name": "rpToken",
      "outputs": [
        {
          "internalType": "contract IERC20",
          "name": "",
          "type": "address"
        }
      ],
      "stateMutability": "view",
      "type": "function"
    },
    {
      "inputs": [],
      "name": "selfBalance",
      "outputs": [
        {
          "internalType": "uint256",
          "name": "",
          "type": "uint256"
        }
      ],
      "stateMutability": "view",
      "type": "function"
    },
    {
      "inputs": [
        {
          "internalType": "uint256",
          "name": "",
          "type": "uint256"
        }
      ],
      "name": "tokens",
      "outputs": [
        {
          "internalType": "contract IERC20",
          "name": "",
          "type": "address"
        }
      ],
      "stateMutability": "view",
      "type": "function"
    },
    {
      "inputs": [
        {
          "internalType": "uint256",
          "name": "",
          "type": "uint256"
        }
      ],
      "name": "totalWithdraw",
      "outputs": [
        {
          "internalType": "uint256",
          "name": "",
          "type": "uint256"
        }
      ],
      "stateMutability": "view",
      "type": "function"
    },
    {
      "inputs": [],
      "name": "wallet",
      "outputs": [
        {
          "internalType": "address",
          "name": "",
          "type": "address"
        }
      ],
      "stateMutability": "view",
      "type": "function"
    },
    {
      "inputs": [
        {
          "internalType": "uint256",
          "name": "",
          "type": "uint256"
        }
      ],
      "name": "withdrawRecipients",
      "outputs": [
        {
          "internalType": "address",
          "name": "",
          "type": "address"
        }
      ],
      "stateMutability": "view",
      "type": "function"
    },
    {
      "inputs": [
        {
          "internalType": "address",
          "name": "_wallet",
          "type": "address"
        }
      ],
      "name": "transferOwnership",
      "outputs": [],
      "stateMutability": "nonpayable",
      "type": "function"
    },
    {
      "inputs": [
        {
          "internalType": "uint256",
          "name": "amount",
          "type": "uint256"
        },
        {
          "internalType": "uint256",
          "name": "_index",
          "type": "uint256"
        }
      ],
      "name": "calcRptAmount",
      "outputs": [
        {
          "internalType": "uint256",
          "name": "",
          "type": "uint256"
        }
      ],
      "stateMutability": "view",
      "type": "function"
    },
    {
      "inputs": [
        {
          "internalType": "address",
          "name": "addr",
          "type": "address"
        },
        {
          "internalType": "uint256",
          "name": "coin",
          "type": "uint256"
        },
        {
          "internalType": "bool",
          "name": "_time",
          "type": "bool"
        }
      ],
      "name": "availableLiquidity",
      "outputs": [
        {
          "internalType": "uint256",
          "name": "token",
          "type": "uint256"
        },
        {
          "internalType": "uint256",
          "name": "RPT",
          "type": "uint256"
        }
      ],
      "stateMutability": "view",
      "type": "function"
    },
    {
      "inputs": [
        {
          "internalType": "bool",
          "name": "_supply",
          "type": "bool"
        }
      ],
      "name": "calculateTotalToken",
      "outputs": [
        {
          "internalType": "uint256",
          "name": "",
          "type": "uint256"
        }
      ],
      "stateMutability": "view",
      "type": "function"
    },
    {
      "inputs": [
        {
          "internalType": "uint256",
          "name": "amount",
          "type": "uint256"
        },
        {
          "internalType": "uint256",
          "name": "_index",
          "type": "uint256"
        }
      ],
      "name": "supply",
      "outputs": [],
      "stateMutability": "nonpayable",
      "type": "function"
    },
    {
      "inputs": [
        {
          "internalType": "uint256",
          "name": "amount",
          "type": "uint256"
        },
        {
          "internalType": "uint256",
          "name": "_index",
          "type": "uint256"
        }
      ],
      "name": "requestWithdrawWithRPT",
      "outputs": [],
      "stateMutability": "nonpayable",
      "type": "function"
    },
    {
      "inputs": [],
      "name": "claimTokens",
      "outputs": [],
      "stateMutability": "nonpayable",
      "type": "function"
    },
    {
      "inputs": [
        {
          "internalType": "uint256[3]",
          "name": "amounts",
          "type": "uint256[3]"
        }
      ],
      "name": "depsoitYield",
      "outputs": [],
      "stateMutability": "nonpayable",
      "type": "function"
    },
    {
      "inputs": [],
      "name": "deposit",
      "outputs": [],
      "stateMutability": "nonpayable",
      "type": "function"
    },
    {
      "inputs": [],
      "name": "withdraw",
      "outputs": [],
      "stateMutability": "nonpayable",
      "type": "function"
    },
    {
      "inputs": [],
      "name": "withdrawAll",
      "outputs": [],
      "stateMutability": "nonpayable",
      "type": "function"
    },
    {
      "inputs": [],
      "name": "rebalance",
      "outputs": [],
      "stateMutability": "nonpayable",
      "type": "function"
    },
    {
      "inputs": [
        {
          "internalType": "uint256[3]",
          "name": "amounts",
          "type": "uint256[3]"
        },
        {
          "internalType": "uint256[3]",
          "name": "withdrawAmount",
          "type": "uint256[3]"
        },
        {
          "internalType": "address",
          "name": "_loanSeeker",
          "type": "address"
        }
      ],
      "name": "_loanWithdraw",
      "outputs": [
        {
          "internalType": "bool",
          "name": "",
          "type": "bool"
        }
      ],
      "stateMutability": "nonpayable",
      "type": "function"
    },
    {
      "inputs": [
        {
          "internalType": "uint256[3]",
          "name": "amounts",
          "type": "uint256[3]"
        }
      ],
      "name": "_loanRepayment",
      "outputs": [
        {
          "internalType": "bool",
          "name": "",
          "type": "bool"
        }
      ],
      "stateMutability": "nonpayable",
      "type": "function"
    },
    {
      "inputs": [
        {
          "internalType": "uint256",
          "name": "_index",
          "type": "uint256"
        }
      ],
      "name": "getBalances",
      "outputs": [
        {
          "internalType": "uint256",
          "name": "",
          "type": "uint256"
        }
      ],
      "stateMutability": "view",
      "type": "function"
    },
    {
      "inputs": [
        {
          "internalType": "address",
          "name": "_loanContract",
          "type": "address"
        }
      ],
      "name": "setLoanContract",
      "outputs": [],
      "stateMutability": "nonpayable",
      "type": "function"
    },
    {
      "inputs": [
        {
          "internalType": "uint128",
          "name": "_newPoolPart",
          "type": "uint128"
        }
      ],
      "name": "changePoolPart",
      "outputs": [],
      "stateMutability": "nonpayable",
      "type": "function"
    },
    {
      "inputs": [
        {
          "internalType": "address",
          "name": "_strategy",
          "type": "address"
        }
      ],
      "name": "changeCurveStrategy",
      "outputs": [],
      "stateMutability": "nonpayable",
      "type": "function"
    },
    {
      "inputs": [
        {
          "internalType": "uint256",
          "name": "lockperiod",
          "type": "uint256"
        }
      ],
      "name": "setLockPeriod",
      "outputs": [],
      "stateMutability": "nonpayable",
      "type": "function"
    },
    {
      "inputs": [
        {
          "internalType": "uint128",
          "name": "_fees",
          "type": "uint128"
        }
      ],
      "name": "setWithdrawFees",
      "outputs": [],
      "stateMutability": "nonpayable",
      "type": "function"
    },
    {
      "inputs": [
        {
          "internalType": "address",
          "name": "_address",
          "type": "address"
        }
      ],
      "name": "transferFunds",
      "outputs": [],
      "stateMutability": "nonpayable",
      "type": "function"
    }
  ],
  "bytecode": "0x608060405260196000806101000a8154816fffffffffffffffffffffffffffffffff02191690836fffffffffffffffffffffffffffffffff1602179055506102ee600155603c600b553480156200005557600080fd5b50604051620062653803806200626583398181016040528101906200007b919062000227565b6001601c8190555060005b60038160ff1610156200010657838160ff1660038110620000a357fe5b602002015160038260ff1660038110620000b957fe5b0160006101000a81548173ffffffffffffffffffffffffffffffffffffffff021916908373ffffffffffffffffffffffffffffffffffffffff160217905550808060010191505062000086565b5081600660006101000a81548173ffffffffffffffffffffffffffffffffffffffff021916908373ffffffffffffffffffffffffffffffffffffffff16021790555080600860006101000a81548173ffffffffffffffffffffffffffffffffffffffff021916908373ffffffffffffffffffffffffffffffffffffffff1602179055505050506200031c565b600081519050620001a38162000302565b92915050565b600082601f830112620001bb57600080fd5b6003620001d2620001cc82620002ab565b6200027d565b91508183856020840282011115620001e957600080fd5b60005b838110156200021d578162000202888262000192565b845260208401935060208301925050600181019050620001ec565b5050505092915050565b600080600060a084860312156200023d57600080fd5b60006200024d86828701620001a9565b9350506060620002608682870162000192565b9250506080620002738682870162000192565b9150509250925092565b6000604051905081810181811067ffffffffffffffff82111715620002a157600080fd5b8060405250919050565b600067ffffffffffffffff821115620002c357600080fd5b602082029050919050565b6000620002db82620002e2565b9050919050565b600073ffffffffffffffffffffffffffffffffffffffff82169050919050565b6200030d81620002ce565b81146200031957600080fd5b50565b615f39806200032c6000396000f3fe608060405234801561001057600080fd5b506004361061025e5760003560e01c80638e9b032611610146578063c23177b2116100c3578063de44983911610087578063de44983914610726578063df7ce7e414610757578063e39ff19f14610775578063f0dd71c714610791578063f2fde38b146107c1578063f83e9a20146107dd5761025e565b8063c23177b21461066d578063c6b93df7146106a0578063d0e30db0146106d0578063daecfa6c146106da578063db28bfd0146106f65761025e565b80639af1d35a1161010a5780639af1d35a146105b5578063a70200bd146105d3578063ad6abb0c146105ef578063b0bed0ba1461061f578063bf4b136b1461063d5761025e565b80638e9b0326146104fd578063905f692e1461051b578063918f86741461054b57806393f9c55214610569578063982dd243146105855761025e565b8063521eb273116101df5780636d6ea257116101a35780636d6ea25714610451578063779972da146104815780637d7c2a1c1461049d57806383cf1c8c146104a7578063853828b6146104c3578063876171dc146104cd5761025e565b8063521eb2731461039b57806357cba534146103b95780635cd60cd1146103e95780636a4e2092146104195780636b9f1ef6146104355761025e565b806342f1bd5d1161022657806342f1bd5d146102e3578063449deb6b1461030157806348c54b9d14610331578063490adbaf1461033b5780634f64b2be1461036b5761025e565b806325340b8c14610263578063253f284b1461028157806331d388061461029f57806338b18314146102bb5780633ccfd60b146102d9575b600080fd5b61026b6107fb565b6040516102789190615c3c565b60405180910390f35b610289610801565b60405161029691906158f4565b60405180910390f35b6102b960048036038101906102b4919061513e565b610827565b005b6102c36108fb565b6040516102d09190615a04565b60405180910390f35b6102e1610921565b005b6102eb610a86565b6040516102f891906159e9565b60405180910390f35b61031b6004803603810190610316919061513e565b610aac565b60405161032891906159ce565b60405180910390f35b610339610acc565b005b61035560048036038101906103509190615337565b611163565b6040516103629190615c3c565b60405180910390f35b61038560048036038101906103809190615337565b611243565b60405161039291906159e9565b60405180910390f35b6103a3611276565b6040516103b091906158f4565b60405180910390f35b6103d360048036038101906103ce919061526d565b61129c565b6040516103e091906159ce565b60405180910390f35b61040360048036038101906103fe9190615167565b6115c0565b6040516104109190615c3c565b60405180910390f35b610433600480360381019061042e919061513e565b6115e5565b005b61044f600480360381019061044a919061530e565b61171b565b005b61046b60048036038101906104669190615337565b6117e6565b6040516104789190615c3c565b60405180910390f35b61049b60048036038101906104969190615337565b6117fe565b005b6104a5611898565b005b6104c160048036038101906104bc91906151f2565b611c72565b005b6104cb611ec8565b005b6104e760048036038101906104e29190615337565b6121f5565b6040516104f491906158f4565b60405180910390f35b610505612231565b6040516105129190615c3c565b60405180910390f35b6105356004803603810190610530919061513e565b612237565b60405161054291906159ce565b60405180910390f35b610553612257565b6040516105609190615c3c565b60405180910390f35b610583600480360381019061057e9190615389565b61225d565b005b61059f600480360381019061059a919061521b565b6126ee565b6040516105ac91906159ce565b60405180910390f35b6105bd612926565b6040516105ca9190615c21565b60405180910390f35b6105ed60048036038101906105e8919061530e565b612946565b005b610609600480360381019061060491906152bc565b6129f2565b6040516106169190615c3c565b60405180910390f35b610627612c4a565b6040516106349190615c3c565b60405180910390f35b61065760048036038101906106529190615389565b612c50565b6040516106649190615c3c565b60405180910390f35b61068760048036038101906106829190615167565b612e26565b6040516106979493929190615c80565b60405180910390f35b6106ba60048036038101906106b59190615167565b612e70565b6040516106c79190615c3c565b60405180910390f35b6106d8612e95565b005b6106f460048036038101906106ef9190615389565b613234565b005b610710600480360381019061070b9190615337565b61365c565b60405161071d9190615c3c565b60405180910390f35b610740600480360381019061073b91906151a3565b613674565b60405161074e929190615c57565b60405180910390f35b61075f613a6b565b60405161076c9190615c3c565b60405180910390f35b61078f600480360381019061078a919061513e565b613a71565b005b6107ab60048036038101906107a69190615337565b613c99565b6040516107b89190615c3c565b60405180910390f35b6107db60048036038101906107d6919061513e565b613cb1565b005b6107e5613d85565b6040516107f29190615c3c565b60405180910390f35b60095481565b601b60009054906101000a900473ffffffffffffffffffffffffffffffffffffffff1681565b3373ffffffffffffffffffffffffffffffffffffffff16600860009054906101000a900473ffffffffffffffffffffffffffffffffffffffff1673ffffffffffffffffffffffffffffffffffffffff16146108b7576040517f08c379a00000000000000000000000000000000000000000000000000000000081526004016108ae90615b61565b60405180910390fd5b80601b60006101000a81548173ffffffffffffffffffffffffffffffffffffffff021916908373ffffffffffffffffffffffffffffffffffffffff16021790555050565b600760009054906101000a900473ffffffffffffffffffffffffffffffffffffffff1681565b3373ffffffffffffffffffffffffffffffffffffffff16600860009054906101000a900473ffffffffffffffffffffffffffffffffffffffff1673ffffffffffffffffffffffffffffffffffffffff16146109b1576040517f08c379a00000000000000000000000000000000000000000000000000000000081526004016109a890615b61565b60405180910390fd5b6109f760116003806020026040519081016040528092919082600380156109ed576020028201915b8154815260200190600101908083116109d9575b5050505050613d8b565b610a36576040517f08c379a0000000000000000000000000000000000000000000000000000000008152600401610a2d90615ac1565b60405180910390fd5b610a7c6011600380602002604051908101604052809291908260038015610a72576020028201915b815481526020019060010190808311610a5e575b5050505050613ddd565b610a84613fa1565b565b600660009054906101000a900473ffffffffffffffffffffffffffffffffffffffff1681565b60176020528060005260406000206000915054906101000a900460ff1681565b6002601c541415610b12576040517f08c379a0000000000000000000000000000000000000000000000000000000008152600401610b0990615be1565b60405180910390fd5b6002601c81905550601760003373ffffffffffffffffffffffffffffffffffffffff1673ffffffffffffffffffffffffffffffffffffffff16815260200190815260200160002060009054906101000a900460ff16610ba6576040517f08c379a0000000000000000000000000000000000000000000000000000000008152600401610b9d90615a41565b60405180910390fd5b600080600080600090505b60038160ff1610156110f3576000600d60003373ffffffffffffffffffffffffffffffffffffffff1673ffffffffffffffffffffffffffffffffffffffff1681526020019081526020016000208260ff1660038110610c0c57fe5b015411156110e65760038160ff1660038110610c2457fe5b0160009054906101000a900473ffffffffffffffffffffffffffffffffffffffff1673ffffffffffffffffffffffffffffffffffffffff1663313ce5676040518163ffffffff1660e01b815260040160206040518083038186803b158015610c8b57600080fd5b505afa158015610c9f573d6000803e3d6000fd5b505050506040513d601f19601f82011682018060405250810190610cc391906153c5565b60ff1691506000610dcd610d70612710610d6260008054906101000a90046fffffffffffffffffffffffffffffffff166fffffffffffffffffffffffffffffffff16600d60003373ffffffffffffffffffffffffffffffffffffffff1673ffffffffffffffffffffffffffffffffffffffff1681526020019081526020016000208760ff1660038110610d5257fe5b01546141c190919063ffffffff16565b61423190919063ffffffff16565b600d60003373ffffffffffffffffffffffffffffffffffffffff1673ffffffffffffffffffffffffffffffffffffffff1681526020019081526020016000208460ff1660038110610dbd57fe5b015461427b90919063ffffffff16565b9050610e41600d60003373ffffffffffffffffffffffffffffffffffffffff1673ffffffffffffffffffffffffffffffffffffffff1681526020019081526020016000208360ff1660038110610e1f57fe5b015460148460ff1660038110610e3157fe5b015461427b90919063ffffffff16565b60148360ff1660038110610e5157fe5b0181905550610e9a610e8984600a0a610e7b670de0b6b3a7640000856141c190919063ffffffff16565b61423190919063ffffffff16565b60025461427b90919063ffffffff16565b600281905550610f01600e60003373ffffffffffffffffffffffffffffffffffffffff1673ffffffffffffffffffffffffffffffffffffffff1681526020019081526020016000208360ff1660038110610ef057fe5b0154856142c590919063ffffffff16565b93506000600d60003373ffffffffffffffffffffffffffffffffffffffff1673ffffffffffffffffffffffffffffffffffffffff1681526020019081526020016000208360ff1660038110610f5257fe5b01819055506000600e60003373ffffffffffffffffffffffffffffffffffffffff1673ffffffffffffffffffffffffffffffffffffffff1681526020019081526020016000208360ff1660038110610fa657fe5b018190555060038260ff1660038110610fbb57fe5b0160009054906101000a900473ffffffffffffffffffffffffffffffffffffffff1673ffffffffffffffffffffffffffffffffffffffff1663a9059cbb33836040518363ffffffff1660e01b8152600401611017929190615961565b602060405180830381600087803b15801561103157600080fd5b505af1158015611045573d6000803e3d6000fd5b505050506040513d601f19601f8201168201806040525081019061106991906152e5565b9450846110ab576040517f08c379a00000000000000000000000000000000000000000000000000000000081526004016110a290615b41565b60405180910390fd5b7f8b46652782c1a94bd1f1e050f62dea3a99b7fe20520c003e111624847230d4fe33826040516110dc929190615961565b60405180910390a1505b8080600101915050610bb1565b506110fe338361431a565b6000601760003373ffffffffffffffffffffffffffffffffffffffff1673ffffffffffffffffffffffffffffffffffffffff16815260200190815260200160002060006101000a81548160ff0219169083151502179055505050506001601c81905550565b600061123c6014836003811061117557fe5b01546003846003811061118457fe5b0160009054906101000a900473ffffffffffffffffffffffffffffffffffffffff1673ffffffffffffffffffffffffffffffffffffffff166370a08231306040518263ffffffff1660e01b81526004016111de91906158f4565b60206040518083038186803b1580156111f657600080fd5b505afa15801561120a573d6000803e3d6000fd5b505050506040513d601f19601f8201168201806040525081019061122e9190615360565b61427b90919063ffffffff16565b9050919050565b6003816003811061125057fe5b016000915054906101000a900473ffffffffffffffffffffffffffffffffffffffff1681565b600860009054906101000a900473ffffffffffffffffffffffffffffffffffffffff1681565b6000601b60009054906101000a900473ffffffffffffffffffffffffffffffffffffffff1673ffffffffffffffffffffffffffffffffffffffff163373ffffffffffffffffffffffffffffffffffffffff161461132e576040517f08c379a000000000000000000000000000000000000000000000000000000000815260040161132590615b61565b60405180910390fd5b61133783613d8b565b156113465761134583613ddd565b5b600080600090505b60038160ff1610156115b3576000868260ff166003811061136b57fe5b602002015111156115a65760038160ff166003811061138657fe5b0160009054906101000a900473ffffffffffffffffffffffffffffffffffffffff1673ffffffffffffffffffffffffffffffffffffffff1663313ce5676040518163ffffffff1660e01b815260040160206040518083038186803b1580156113ed57600080fd5b505afa158015611401573d6000803e3d6000fd5b505050506040513d601f19601f8201168201806040525081019061142591906153c5565b60ff169150611461868260ff166003811061143c57fe5b602002015160188360ff166003811061145157fe5b01546142c590919063ffffffff16565b60188260ff166003811061147157fe5b01819055506114cd6114bc83600a0a6114ae670de0b6b3a76400008a8660ff166003811061149b57fe5b60200201516141c190919063ffffffff16565b61423190919063ffffffff16565b60025461427b90919063ffffffff16565b60028190555060038160ff16600381106114e357fe5b0160009054906101000a900473ffffffffffffffffffffffffffffffffffffffff1673ffffffffffffffffffffffffffffffffffffffff1663a9059cbb85888460ff166003811061153057fe5b60200201516040518363ffffffff1660e01b815260040161155292919061598a565b602060405180830381600087803b15801561156c57600080fd5b505af1158015611580573d6000803e3d6000fd5b505050506040513d601f19601f820116820180604052508101906115a491906152e5565b505b808060010191505061134e565b5060019150509392505050565b600d60205281600052604060002081600381106115d957fe5b01600091509150505481565b3373ffffffffffffffffffffffffffffffffffffffff16600860009054906101000a900473ffffffffffffffffffffffffffffffffffffffff1673ffffffffffffffffffffffffffffffffffffffff1614611675576040517f08c379a000000000000000000000000000000000000000000000000000000000815260040161166c90615b61565b60405180910390fd5b60005b60038160ff1610156116d6576000600954146116c9576040517f08c379a00000000000000000000000000000000000000000000000000000000081526004016116c090615ae1565b60405180910390fd5b8080600101915050611678565b5080600760006101000a81548173ffffffffffffffffffffffffffffffffffffffff021916908373ffffffffffffffffffffffffffffffffffffffff16021790555050565b3373ffffffffffffffffffffffffffffffffffffffff16600860009054906101000a900473ffffffffffffffffffffffffffffffffffffffff1673ffffffffffffffffffffffffffffffffffffffff16146117ab576040517f08c379a00000000000000000000000000000000000000000000000000000000081526004016117a290615b61565b60405180910390fd5b806000806101000a8154816fffffffffffffffffffffffffffffffff02191690836fffffffffffffffffffffffffffffffff16021790555050565b601881600381106117f357fe5b016000915090505481565b3373ffffffffffffffffffffffffffffffffffffffff16600860009054906101000a900473ffffffffffffffffffffffffffffffffffffffff1673ffffffffffffffffffffffffffffffffffffffff161461188e576040517f08c379a000000000000000000000000000000000000000000000000000000000815260040161188590615b61565b60405180910390fd5b80600b8190555050565b3373ffffffffffffffffffffffffffffffffffffffff16600860009054906101000a900473ffffffffffffffffffffffffffffffffffffffff1673ffffffffffffffffffffffffffffffffffffffff1614611928576040517f08c379a000000000000000000000000000000000000000000000000000000000815260040161191f90615b61565b60405180910390fd5b6000611932614f83565b61193a614f83565b60008061194760006129f2565b9150600061198761271061197961196a600360015461423190919063ffffffff16565b866141c190919063ffffffff16565b61423190919063ffffffff16565b9050600080600090505b60038160ff161015611c38576119a98160ff16611163565b975060038160ff16600381106119bb57fe5b0160009054906101000a900473ffffffffffffffffffffffffffffffffffffffff1673ffffffffffffffffffffffffffffffffffffffff1663313ce5676040518163ffffffff1660e01b815260040160206040518083038186803b158015611a2257600080fd5b505afa158015611a36573d6000803e3d6000fd5b505050506040513d601f19601f82011682018060405250810190611a5a91906153c5565b60ff169350611a8f670de0b6b3a7640000611a8186600a0a866141c190919063ffffffff16565b61423190919063ffffffff16565b915087821115611ac957611aac888361427b90919063ffffffff16565b878260ff1660038110611abb57fe5b602002018181525050611c2b565b87821015611bf557611ae4828961427b90919063ffffffff16565b868260ff1660038110611af357fe5b60200201818152505060038160ff1660038110611b0c57fe5b0160009054906101000a900473ffffffffffffffffffffffffffffffffffffffff1673ffffffffffffffffffffffffffffffffffffffff1663a9059cbb600760009054906101000a900473ffffffffffffffffffffffffffffffffffffffff16888460ff1660038110611b7b57fe5b60200201516040518363ffffffff1660e01b8152600401611b9d92919061598a565b602060405180830381600087803b158015611bb757600080fd5b505af1158015611bcb573d6000803e3d6000fd5b505050506040513d601f19601f82011682018060405250810190611bef91906152e5565b50611c2a565b6000878260ff1660038110611c0657fe5b6020020181815250506000868260ff1660038110611c2057fe5b6020020181815250505b5b8080600101915050611991565b50611c4285613d8b565b15611c5157611c5085614609565b5b611c5a86613d8b565b15611c6957611c6886613ddd565b5b50505050505050565b60008060005b60038160ff161015611e8c5760038160ff1660038110611c9457fe5b0160009054906101000a900473ffffffffffffffffffffffffffffffffffffffff1673ffffffffffffffffffffffffffffffffffffffff1663313ce5676040518163ffffffff1660e01b815260040160206040518083038186803b158015611cfb57600080fd5b505afa158015611d0f573d6000803e3d6000fd5b505050506040513d601f19601f82011682018060405250810190611d3391906153c5565b60ff1691506000848260ff1660038110611d4957fe5b602002013514611e7f57611da8611d9983600a0a611d8b670de0b6b3a7640000888660ff1660038110611d7857fe5b60200201356141c190919063ffffffff16565b61423190919063ffffffff16565b846142c590919063ffffffff16565b925060038160ff1660038110611dba57fe5b0160009054906101000a900473ffffffffffffffffffffffffffffffffffffffff1673ffffffffffffffffffffffffffffffffffffffff166323b872dd3330878560ff1660038110611e0857fe5b60200201356040518463ffffffff1660e01b8152600401611e2b9392919061592a565b602060405180830381600087803b158015611e4557600080fd5b505af1158015611e59573d6000803e3d6000fd5b505050506040513d601f19601f82011682018060405250810190611e7d91906152e5565b505b8080600101915050611c78565b50611ea2826002546142c590919063ffffffff16565b600281905550611ebd82600a546142c590919063ffffffff16565b600a81905550505050565b3373ffffffffffffffffffffffffffffffffffffffff16600860009054906101000a900473ffffffffffffffffffffffffffffffffffffffff1673ffffffffffffffffffffffffffffffffffffffff1614611f58576040517f08c379a0000000000000000000000000000000000000000000000000000000008152600401611f4f90615b61565b60405180910390fd5b611f60614f83565b600760009054906101000a900473ffffffffffffffffffffffffffffffffffffffff1673ffffffffffffffffffffffffffffffffffffffff1663853828b66040518163ffffffff1660e01b8152600401606060405180830381600087803b158015611fca57600080fd5b505af1158015611fde573d6000803e3d6000fd5b505050506040513d601f19601f820116820180604052508101906120029190615244565b905060008060028190555060005b60038160ff1610156121e05760038160ff166003811061202c57fe5b0160009054906101000a900473ffffffffffffffffffffffffffffffffffffffff1673ffffffffffffffffffffffffffffffffffffffff1663313ce5676040518163ffffffff1660e01b815260040160206040518083038186803b15801561209357600080fd5b505afa1580156120a7573d6000803e3d6000fd5b505050506040513d601f19601f820116820180604052508101906120cb91906153c5565b60ff1691506121cd6121bc83600a0a6121ae670de0b6b3a764000060038660ff16600381106120f657fe5b0160009054906101000a900473ffffffffffffffffffffffffffffffffffffffff1673ffffffffffffffffffffffffffffffffffffffff166370a08231306040518263ffffffff1660e01b815260040161215091906158f4565b60206040518083038186803b15801561216857600080fd5b505afa15801561217c573d6000803e3d6000fd5b505050506040513d601f19601f820116820180604052508101906121a09190615360565b6141c190919063ffffffff16565b61423190919063ffffffff16565b6002546142c590919063ffffffff16565b6002819055508080600101915050612010565b5060006009819055506121f1613fa1565b5050565b6010818154811061220257fe5b906000526020600020016000915054906101000a900473ffffffffffffffffffffffffffffffffffffffff1681565b60015481565b600f6020528060005260406000206000915054906101000a900460ff1681565b61271081565b6002601c5414156122a3576040517f08c379a000000000000000000000000000000000000000000000000000000000815260040161229a90615be1565b60405180910390fd5b6002601c8190555081600081116122ef576040517f08c379a00000000000000000000000000000000000000000000000000000000081526004016122e690615aa1565b60405180910390fd5b601760003373ffffffffffffffffffffffffffffffffffffffff1673ffffffffffffffffffffffffffffffffffffffff16815260200190815260200160002060009054906101000a900460ff161561237c576040517f08c379a000000000000000000000000000000000000000000000000000000000815260040161237390615c01565b60405180910390fd5b82600660009054906101000a900473ffffffffffffffffffffffffffffffffffffffff1673ffffffffffffffffffffffffffffffffffffffff166370a08231336040518263ffffffff1660e01b81526004016123d8919061590f565b60206040518083038186803b1580156123f057600080fd5b505afa158015612404573d6000803e3d6000fd5b505050506040513d601f19601f820116820180604052508101906124289190615360565b1015612469576040517f08c379a000000000000000000000000000000000000000000000000000000000815260040161246090615b81565b60405180910390fd5b600061247733846001613674565b9150506000600190508482101561248d57600090505b806124cd576040517f08c379a00000000000000000000000000000000000000000000000000000000081526004016124c490615b61565b60405180910390fd5b60006124d960016129f2565b905060006125a1600660009054906101000a900473ffffffffffffffffffffffffffffffffffffffff1673ffffffffffffffffffffffffffffffffffffffff166318160ddd6040518163ffffffff1660e01b815260040160206040518083038186803b15801561254857600080fd5b505afa15801561255c573d6000803e3d6000fd5b505050506040513d601f19601f820116820180604052508101906125809190615360565b612593848a6141c190919063ffffffff16565b61423190919063ffffffff16565b90506125ad60006129f2565b8111156125ef576040517f08c379a00000000000000000000000000000000000000000000000000000000081526004016125e690615bc1565b60405180910390fd5b6000600387600381106125fe57fe5b0160009054906101000a900473ffffffffffffffffffffffffffffffffffffffff1673ffffffffffffffffffffffffffffffffffffffff1663313ce5676040518163ffffffff1660e01b815260040160206040518083038186803b15801561266557600080fd5b505afa158015612679573d6000803e3d6000fd5b505050506040513d601f19601f8201168201806040525081019061269d91906153c5565b60ff1690506126dc6126d5670de0b6b3a76400006126c784600a0a866141c190919063ffffffff16565b61423190919063ffffffff16565b89896147cd565b5050505050506001601c819055505050565b6000601b60009054906101000a900473ffffffffffffffffffffffffffffffffffffffff1673ffffffffffffffffffffffffffffffffffffffff163373ffffffffffffffffffffffffffffffffffffffff1614612780576040517f08c379a000000000000000000000000000000000000000000000000000000000815260040161277790615b61565b60405180910390fd5b600080600090505b60038160ff16101561291b576000848260ff16600381106127a557fe5b6020020151111561290e5760038160ff16600381106127c057fe5b0160009054906101000a900473ffffffffffffffffffffffffffffffffffffffff1673ffffffffffffffffffffffffffffffffffffffff1663313ce5676040518163ffffffff1660e01b815260040160206040518083038186803b15801561282757600080fd5b505afa15801561283b573d6000803e3d6000fd5b505050506040513d601f19601f8201168201806040525081019061285f91906153c5565b60ff16915061289b848260ff166003811061287657fe5b602002015160188360ff166003811061288b57fe5b015461427b90919063ffffffff16565b60188260ff16600381106128ab57fe5b01819055506129076128f683600a0a6128e8670de0b6b3a7640000888660ff16600381106128d557fe5b60200201516141c190919063ffffffff16565b61423190919063ffffffff16565b6002546142c590919063ffffffff16565b6002819055505b8080600101915050612788565b506001915050919050565b60008054906101000a90046fffffffffffffffffffffffffffffffff1681565b3373ffffffffffffffffffffffffffffffffffffffff16600860009054906101000a900473ffffffffffffffffffffffffffffffffffffffff1673ffffffffffffffffffffffffffffffffffffffff16146129d6576040517f08c379a00000000000000000000000000000000000000000000000000000000081526004016129cd90615b61565b60405180910390fd5b806fffffffffffffffffffffffffffffffff1660018190555050565b600080600080600080600090505b60038160ff161015612bcc5760038160ff1660038110612a1c57fe5b0160009054906101000a900473ffffffffffffffffffffffffffffffffffffffff1673ffffffffffffffffffffffffffffffffffffffff1663313ce5676040518163ffffffff1660e01b815260040160206040518083038186803b158015612a8357600080fd5b505afa158015612a97573d6000803e3d6000fd5b505050506040513d601f19601f82011682018060405250810190612abb91906153c5565b60ff169450612b13612b0486600a0a612af6670de0b6b3a764000060118660ff1660038110612ae657fe5b01546141c190919063ffffffff16565b61423190919063ffffffff16565b856142c590919063ffffffff16565b9350612b68612b5986600a0a612b4b670de0b6b3a764000060148660ff1660038110612b3b57fe5b01546141c190919063ffffffff16565b61423190919063ffffffff16565b846142c590919063ffffffff16565b9250612bbd612bae86600a0a612ba0670de0b6b3a764000060188660ff1660038110612b9057fe5b01546141c190919063ffffffff16565b61423190919063ffffffff16565b836142c590919063ffffffff16565b91508080600101915050612a00565b508515612c1757612c0c81612bfe84612bf08760025461427b90919063ffffffff16565b61427b90919063ffffffff16565b6142c590919063ffffffff16565b945050505050612c45565b612c3e82612c308560025461427b90919063ffffffff16565b61427b90919063ffffffff16565b9450505050505b919050565b60025481565b600080612c5d60016129f2565b9050600060038460038110612c6e57fe5b0160009054906101000a900473ffffffffffffffffffffffffffffffffffffffff1673ffffffffffffffffffffffffffffffffffffffff1663313ce5676040518163ffffffff1660e01b815260040160206040518083038186803b158015612cd557600080fd5b505afa158015612ce9573d6000803e3d6000fd5b505050506040513d601f19601f82011682018060405250810190612d0d91906153c5565b60ff169050612d4281600a0a612d34670de0b6b3a7640000886141c190919063ffffffff16565b61423190919063ffffffff16565b94506000821415612d57578492505050612e20565b612e1b82612e0d600660009054906101000a900473ffffffffffffffffffffffffffffffffffffffff1673ffffffffffffffffffffffffffffffffffffffff166318160ddd6040518163ffffffff1660e01b815260040160206040518083038186803b158015612dc657600080fd5b505afa158015612dda573d6000803e3d6000fd5b505050506040513d601f19601f82011682018060405250810190612dfe9190615360565b886141c190919063ffffffff16565b61423190919063ffffffff16565b925050505b92915050565b600c6020528160005260406000208181548110612e3f57fe5b9060005260206000209060040201600091509150508060000154908060010154908060020154908060030154905084565b600e6020528160005260406000208160038110612e8957fe5b01600091509150505481565b3373ffffffffffffffffffffffffffffffffffffffff16600860009054906101000a900473ffffffffffffffffffffffffffffffffffffffff1673ffffffffffffffffffffffffffffffffffffffff1614612f25576040517f08c379a0000000000000000000000000000000000000000000000000000000008152600401612f1c90615b61565b60405180910390fd5b612f2d614f83565b600080612f3a60006129f2565b91506000612f7a612710612f6c612f5d600360015461423190919063ffffffff16565b866141c190919063ffffffff16565b61423190919063ffffffff16565b9050600080600090505b60038160ff1610156132145760038160ff1660038110612fa057fe5b0160009054906101000a900473ffffffffffffffffffffffffffffffffffffffff1673ffffffffffffffffffffffffffffffffffffffff1663313ce5676040518163ffffffff1660e01b815260040160206040518083038186803b15801561300757600080fd5b505afa15801561301b573d6000803e3d6000fd5b505050506040513d601f19601f8201168201806040525081019061303f91906153c5565b60ff1693506130508160ff16611163565b868260ff166003811061305f57fe5b602002018181525050613098670de0b6b3a764000061308a86600a0a866141c190919063ffffffff16565b61423190919063ffffffff16565b915081868260ff16600381106130aa57fe5b602002015111156131ec576130db82878360ff16600381106130c857fe5b602002015161427b90919063ffffffff16565b868260ff16600381106130ea57fe5b60200201818152505060038160ff166003811061310357fe5b0160009054906101000a900473ffffffffffffffffffffffffffffffffffffffff1673ffffffffffffffffffffffffffffffffffffffff1663a9059cbb600760009054906101000a900473ffffffffffffffffffffffffffffffffffffffff16888460ff166003811061317257fe5b60200201516040518363ffffffff1660e01b815260040161319492919061598a565b602060405180830381600087803b1580156131ae57600080fd5b505af11580156131c2573d6000803e3d6000fd5b505050506040513d601f19601f820116820180604052508101906131e691906152e5565b50613207565b6000868260ff16600381106131fd57fe5b6020020181815250505b8080600101915050612f84565b5061321e85613d8b565b1561322d5761322c85614609565b5b5050505050565b6002601c54141561327a576040517f08c379a000000000000000000000000000000000000000000000000000000000815260040161327190615be1565b60405180910390fd5b6002601c8190555081600081116132c6576040517f08c379a00000000000000000000000000000000000000000000000000000000081526004016132bd90615aa1565b60405180910390fd5b60008060006132d58686612c50565b9050600c60003373ffffffffffffffffffffffffffffffffffffffff1673ffffffffffffffffffffffffffffffffffffffff16815260200190815260200160002060405180608001604052808781526020018881526020014281526020018381525090806001815401808255809150506001900390600052602060002090600402016000909190919091506000820151816000015560208201518160010155604082015181600201556060820151816003015550506003856003811061339757fe5b0160009054906101000a900473ffffffffffffffffffffffffffffffffffffffff1673ffffffffffffffffffffffffffffffffffffffff1663313ce5676040518163ffffffff1660e01b815260040160206040518083038186803b1580156133fe57600080fd5b505afa158015613412573d6000803e3d6000fd5b505050506040513d601f19601f8201168201806040525081019061343691906153c5565b60ff16915061347f61346e83600a0a613460670de0b6b3a76400008a6141c190919063ffffffff16565b61423190919063ffffffff16565b6002546142c590919063ffffffff16565b6002819055506003856003811061349257fe5b0160009054906101000a900473ffffffffffffffffffffffffffffffffffffffff1673ffffffffffffffffffffffffffffffffffffffff166323b872dd3330896040518463ffffffff1660e01b81526004016134f09392919061592a565b602060405180830381600087803b15801561350a57600080fd5b505af115801561351e573d6000803e3d6000fd5b505050506040513d601f19601f8201168201806040525081019061354291906152e5565b925082613584576040517f08c379a000000000000000000000000000000000000000000000000000000000815260040161357b90615b21565b60405180910390fd5b600660009054906101000a900473ffffffffffffffffffffffffffffffffffffffff1673ffffffffffffffffffffffffffffffffffffffff166340c10f1933836040518363ffffffff1660e01b81526004016135e1929190615961565b600060405180830381600087803b1580156135fb57600080fd5b505af115801561360f573d6000803e3d6000fd5b505050507f6ec568242d49f3645a5e2f73f58b15947dba8ef3ea637e32f6703325ce46f2823387604051613644929190615961565b60405180910390a1505050506001601c819055505050565b6011816003811061366957fe5b016000915090505481565b6000806000805b600c60008873ffffffffffffffffffffffffffffffffffffffff1673ffffffffffffffffffffffffffffffffffffffff168152602001908152602001600020805490508160ff161015613826578415806137365750600b54600c60008973ffffffffffffffffffffffffffffffffffffffff1673ffffffffffffffffffffffffffffffffffffffff1681526020019081526020016000208260ff168154811061372057fe5b9060005260206000209060040201600201544203115b80156137a057506000600c60008973ffffffffffffffffffffffffffffffffffffffff1673ffffffffffffffffffffffffffffffffffffffff1681526020019081526020016000208260ff168154811061378c57fe5b906000526020600020906004020160030154115b1561381957613816600c60008973ffffffffffffffffffffffffffffffffffffffff1673ffffffffffffffffffffffffffffffffffffffff1681526020019081526020016000208260ff16815481106137f557fe5b906000526020600020906004020160030154836142c590919063ffffffff16565b91505b808060010191505061367b565b5060005b60038160ff1610156138a657613897600e60008973ffffffffffffffffffffffffffffffffffffffff1673ffffffffffffffffffffffffffffffffffffffff1681526020019081526020016000208260ff166003811061388657fe5b01548361427b90919063ffffffff16565b9150808060010191505061382a565b5060006138b360016129f2565b90506000600387600381106138c457fe5b0160009054906101000a900473ffffffffffffffffffffffffffffffffffffffff1673ffffffffffffffffffffffffffffffffffffffff1663313ce5676040518163ffffffff1660e01b815260040160206040518083038186803b15801561392b57600080fd5b505afa15801561393f573d6000803e3d6000fd5b505050506040513d601f19601f8201168201806040525081019061396391906153c5565b60ff169050613a5b670de0b6b3a7640000613a4d600660009054906101000a900473ffffffffffffffffffffffffffffffffffffffff1673ffffffffffffffffffffffffffffffffffffffff166318160ddd6040518163ffffffff1660e01b815260040160206040518083038186803b1580156139df57600080fd5b505afa1580156139f3573d6000803e3d6000fd5b505050506040513d601f19601f82011682018060405250810190613a179190615360565b613a3f85600a0a613a31888a6141c190919063ffffffff16565b6141c190919063ffffffff16565b61423190919063ffffffff16565b61423190919063ffffffff16565b8394509450505050935093915050565b600a5481565b3373ffffffffffffffffffffffffffffffffffffffff16600860009054906101000a900473ffffffffffffffffffffffffffffffffffffffff1673ffffffffffffffffffffffffffffffffffffffff1614613b01576040517f08c379a0000000000000000000000000000000000000000000000000000000008152600401613af890615b61565b60405180910390fd5b60005b60038160ff161015613c955760038160ff1660038110613b2057fe5b0160009054906101000a900473ffffffffffffffffffffffffffffffffffffffff1673ffffffffffffffffffffffffffffffffffffffff1663a9059cbb8360038460ff1660038110613b6e57fe5b0160009054906101000a900473ffffffffffffffffffffffffffffffffffffffff1673ffffffffffffffffffffffffffffffffffffffff166370a08231306040518263ffffffff1660e01b8152600401613bc891906158f4565b60206040518083038186803b158015613be057600080fd5b505afa158015613bf4573d6000803e3d6000fd5b505050506040513d601f19601f82011682018060405250810190613c189190615360565b6040518363ffffffff1660e01b8152600401613c3592919061598a565b602060405180830381600087803b158015613c4f57600080fd5b505af1158015613c63573d6000803e3d6000fd5b505050506040513d601f19601f82011682018060405250810190613c8791906152e5565b508080600101915050613b04565b5050565b60148160038110613ca657fe5b016000915090505481565b3373ffffffffffffffffffffffffffffffffffffffff16600860009054906101000a900473ffffffffffffffffffffffffffffffffffffffff1673ffffffffffffffffffffffffffffffffffffffff1614613d41576040517f08c379a0000000000000000000000000000000000000000000000000000000008152600401613d3890615b61565b60405180910390fd5b80600860006101000a81548173ffffffffffffffffffffffffffffffffffffffff021916908373ffffffffffffffffffffffffffffffffffffffff16021790555050565b600b5481565b600080600090505b60038160ff161015613dd2576000838260ff1660038110613db057fe5b60200201511115613dc5576001915050613dd8565b8080600101915050613d93565b50600090505b919050565b600760009054906101000a900473ffffffffffffffffffffffffffffffffffffffff1673ffffffffffffffffffffffffffffffffffffffff1663b1b8f1be826040518263ffffffff1660e01b8152600401613e3891906159b3565b600060405180830381600087803b158015613e5257600080fd5b505af1158015613e66573d6000803e3d6000fd5b50505050600080600090505b60038160ff161015613f9c5760038160ff1660038110613e8e57fe5b0160009054906101000a900473ffffffffffffffffffffffffffffffffffffffff1673ffffffffffffffffffffffffffffffffffffffff1663313ce5676040518163ffffffff1660e01b815260040160206040518083038186803b158015613ef557600080fd5b505afa158015613f09573d6000803e3d6000fd5b505050506040513d601f19601f82011682018060405250810190613f2d91906153c5565b60ff169150613f89613f7883600a0a613f6a670de0b6b3a7640000878660ff1660038110613f5757fe5b60200201516141c190919063ffffffff16565b61423190919063ffffffff16565b60095461427b90919063ffffffff16565b6009819055508080600101915050613e72565b505050565b60005b60038160ff16101561401e57613fe560118260ff1660038110613fc357fe5b015460148360ff1660038110613fd557fe5b01546142c590919063ffffffff16565b60148260ff1660038110613ff557fe5b0181905550600060118260ff166003811061400c57fe5b01819055508080600101915050613fa4565b5060005b60108054905081101561415a576001601760006010848154811061404257fe5b9060005260206000200160009054906101000a900473ffffffffffffffffffffffffffffffffffffffff1673ffffffffffffffffffffffffffffffffffffffff1673ffffffffffffffffffffffffffffffffffffffff16815260200190815260200160002060006101000a81548160ff0219169083151502179055506000600f6000601084815481106140d157fe5b9060005260206000200160009054906101000a900473ffffffffffffffffffffffffffffffffffffffff1673ffffffffffffffffffffffffffffffffffffffff1673ffffffffffffffffffffffffffffffffffffffff16815260200190815260200160002060006101000a81548160ff0219169083151502179055508080600101915050614022565b506000601080549050905060005b818110156141bd57601080548061417b57fe5b6001900381819060005260206000200160006101000a81549073ffffffffffffffffffffffffffffffffffffffff021916905590558080600101915050614168565b5050565b6000808314156141d4576000905061422b565b60008284029050828482816141e557fe5b0414614226576040517f08c379a000000000000000000000000000000000000000000000000000000000815260040161421d90615b01565b60405180910390fd5b809150505b92915050565b600061427383836040518060400160405280601a81526020017f536166654d6174683a206469766973696f6e206279207a65726f000000000000815250614b6d565b905092915050565b60006142bd83836040518060400160405280601e81526020017f536166654d6174683a207375627472616374696f6e206f766572666c6f770000815250614bce565b905092915050565b600080828401905083811015614310576040517f08c379a000000000000000000000000000000000000000000000000000000000815260040161430790615a61565b60405180910390fd5b8091505092915050565b60005b600c60008473ffffffffffffffffffffffffffffffffffffffff1673ffffffffffffffffffffffffffffffffffffffff168152602001908152602001600020805490508160ff161015614604576000600c60008573ffffffffffffffffffffffffffffffffffffffff1673ffffffffffffffffffffffffffffffffffffffff1681526020019081526020016000208260ff16815481106143b957fe5b9060005260206000209060040201600301541180156143d85750600082115b156145f757600c60008473ffffffffffffffffffffffffffffffffffffffff1673ffffffffffffffffffffffffffffffffffffffff1681526020019081526020016000208160ff168154811061442a57fe5b906000526020600020906004020160030154821061451e576144b3600c60008573ffffffffffffffffffffffffffffffffffffffff1673ffffffffffffffffffffffffffffffffffffffff1681526020019081526020016000208260ff168154811061449257fe5b9060005260206000209060040201600301548361427b90919063ffffffff16565b91506000600c60008573ffffffffffffffffffffffffffffffffffffffff1673ffffffffffffffffffffffffffffffffffffffff1681526020019081526020016000208260ff168154811061450457fe5b9060005260206000209060040201600301819055506145f6565b61458f82600c60008673ffffffffffffffffffffffffffffffffffffffff1673ffffffffffffffffffffffffffffffffffffffff1681526020019081526020016000208360ff168154811061456f57fe5b90600052602060002090600402016003015461427b90919063ffffffff16565b600c60008573ffffffffffffffffffffffffffffffffffffffff1673ffffffffffffffffffffffffffffffffffffffff1681526020019081526020016000208260ff16815481106145dc57fe5b906000526020600020906004020160030181905550600091505b5b808060010191505061431d565b505050565b600760009054906101000a900473ffffffffffffffffffffffffffffffffffffffff1673ffffffffffffffffffffffffffffffffffffffff1663d4e20b01826040518263ffffffff1660e01b815260040161466491906159b3565b600060405180830381600087803b15801561467e57600080fd5b505af1158015614692573d6000803e3d6000fd5b50505050600080600090505b60038160ff1610156147c85760038160ff16600381106146ba57fe5b0160009054906101000a900473ffffffffffffffffffffffffffffffffffffffff1673ffffffffffffffffffffffffffffffffffffffff1663313ce5676040518163ffffffff1660e01b815260040160206040518083038186803b15801561472157600080fd5b505afa158015614735573d6000803e3d6000fd5b505050506040513d601f19601f8201168201806040525081019061475991906153c5565b60ff1691506147b56147a483600a0a614796670de0b6b3a7640000878660ff166003811061478357fe5b60200201516141c190919063ffffffff16565b61423190919063ffffffff16565b6009546142c590919063ffffffff16565b600981905550808060010191505061469e565b505050565b60006147d882611163565b9050600660009054906101000a900473ffffffffffffffffffffffffffffffffffffffff1673ffffffffffffffffffffffffffffffffffffffff16639dc29fac33856040518363ffffffff1660e01b8152600401614837929190615961565b600060405180830381600087803b15801561485157600080fd5b505af1158015614865573d6000803e3d6000fd5b5050505080841015614b22576000806003846003811061488157fe5b0160009054906101000a900473ffffffffffffffffffffffffffffffffffffffff1673ffffffffffffffffffffffffffffffffffffffff1663313ce5676040518163ffffffff1660e01b815260040160206040518083038186803b1580156148e857600080fd5b505afa1580156148fc573d6000803e3d6000fd5b505050506040513d601f19601f8201168201806040525081019061492091906153c5565b60ff169150600061498e61497f61271061497160008054906101000a90046fffffffffffffffffffffffffffffffff166fffffffffffffffffffffffffffffffff168b6141c190919063ffffffff16565b61423190919063ffffffff16565b8861427b90919063ffffffff16565b90506149d46149c384600a0a6149b5670de0b6b3a7640000856141c190919063ffffffff16565b61423190919063ffffffff16565b60025461427b90919063ffffffff16565b6002819055506149e4338761431a565b600385600381106149f157fe5b0160009054906101000a900473ffffffffffffffffffffffffffffffffffffffff1673ffffffffffffffffffffffffffffffffffffffff1663a9059cbb33836040518363ffffffff1660e01b8152600401614a4d929190615961565b602060405180830381600087803b158015614a6757600080fd5b505af1158015614a7b573d6000803e3d6000fd5b505050506040513d601f19601f82011682018060405250810190614a9f91906152e5565b915081614ae1576040517f08c379a0000000000000000000000000000000000000000000000000000000008152600401614ad890615ba1565b60405180910390fd5b7f8b46652782c1a94bd1f1e050f62dea3a99b7fe20520c003e111624847230d4fe3382604051614b12929190615961565b60405180910390a1505050614b67565b614b2d848484614c29565b7fd70cf1d21d858f226b570eec41b4238a7365568b97cf693f3ea03c3bd0d507cf3385604051614b5e929190615961565b60405180910390a15b50505050565b60008083118290614bb4576040517f08c379a0000000000000000000000000000000000000000000000000000000008152600401614bab9190615a1f565b60405180910390fd5b506000838581614bc057fe5b049050809150509392505050565b6000838311158290614c16576040517f08c379a0000000000000000000000000000000000000000000000000000000008152600401614c0d9190615a1f565b60405180910390fd5b5060008385039050809150509392505050565b614c8783600d60003373ffffffffffffffffffffffffffffffffffffffff1673ffffffffffffffffffffffffffffffffffffffff1681526020019081526020016000208360038110614c7757fe5b01546142c590919063ffffffff16565b600d60003373ffffffffffffffffffffffffffffffffffffffff1673ffffffffffffffffffffffffffffffffffffffff1681526020019081526020016000208260038110614cd157fe5b0181905550614d3482600e60003373ffffffffffffffffffffffffffffffffffffffff1673ffffffffffffffffffffffffffffffffffffffff1681526020019081526020016000208360038110614d2457fe5b01546142c590919063ffffffff16565b600e60003373ffffffffffffffffffffffffffffffffffffffff1673ffffffffffffffffffffffffffffffffffffffff1681526020019081526020016000208260038110614d7e57fe5b0181905550614da48360118360038110614d9457fe5b01546142c590919063ffffffff16565b60118260038110614db157fe5b01819055506000614e18620f4240614e0a670de0b6b3a7640000614dfc6011600260038110614ddc57fe5b01546011600160038110614dec57fe5b01546142c590919063ffffffff16565b6141c190919063ffffffff16565b61423190919063ffffffff16565b9050600954816011600060038110614e2c57fe5b0154011115614e70576040517f08c379a0000000000000000000000000000000000000000000000000000000008152600401614e6790615a81565b60405180910390fd5b600f60003373ffffffffffffffffffffffffffffffffffffffff1673ffffffffffffffffffffffffffffffffffffffff16815260200190815260200160002060009054906101000a900460ff16614f7d576001600f60003373ffffffffffffffffffffffffffffffffffffffff1673ffffffffffffffffffffffffffffffffffffffff16815260200190815260200160002060006101000a81548160ff0219169083151502179055506010339080600181540180825580915050600190039060005260206000200160009091909190916101000a81548173ffffffffffffffffffffffffffffffffffffffff021916908373ffffffffffffffffffffffffffffffffffffffff1602179055505b50505050565b6040518060600160405280600390602082028036833780820191505090505090565b600081359050614fb481615e90565b92915050565b600081905082602060030282011115614fd257600080fd5b92915050565b600082601f830112614fe957600080fd5b6003614ffc614ff782615cf2565b615cc5565b9150818385602084028201111561501257600080fd5b60005b83811015615042578161502888826150ff565b845260208401935060208301925050600181019050615015565b5050505092915050565b600082601f83011261505d57600080fd5b600361507061506b82615cf2565b615cc5565b9150818385602084028201111561508657600080fd5b60005b838110156150b6578161509c8882615114565b845260208401935060208301925050600181019050615089565b5050505092915050565b6000813590506150cf81615ea7565b92915050565b6000815190506150e481615ea7565b92915050565b6000813590506150f981615ebe565b92915050565b60008135905061510e81615ed5565b92915050565b60008151905061512381615ed5565b92915050565b60008151905061513881615eec565b92915050565b60006020828403121561515057600080fd5b600061515e84828501614fa5565b91505092915050565b6000806040838503121561517a57600080fd5b600061518885828601614fa5565b9250506020615199858286016150ff565b9150509250929050565b6000806000606084860312156151b857600080fd5b60006151c686828701614fa5565b93505060206151d7868287016150ff565b92505060406151e8868287016150c0565b9150509250925092565b60006060828403121561520457600080fd5b600061521284828501614fba565b91505092915050565b60006060828403121561522d57600080fd5b600061523b84828501614fd8565b91505092915050565b60006060828403121561525657600080fd5b60006152648482850161504c565b91505092915050565b600080600060e0848603121561528257600080fd5b600061529086828701614fd8565b93505060606152a186828701614fd8565b92505060c06152b286828701614fa5565b9150509250925092565b6000602082840312156152ce57600080fd5b60006152dc848285016150c0565b91505092915050565b6000602082840312156152f757600080fd5b6000615305848285016150d5565b91505092915050565b60006020828403121561532057600080fd5b600061532e848285016150ea565b91505092915050565b60006020828403121561534957600080fd5b6000615357848285016150ff565b91505092915050565b60006020828403121561537257600080fd5b600061538084828501615114565b91505092915050565b6000806040838503121561539c57600080fd5b60006153aa858286016150ff565b92505060206153bb858286016150ff565b9150509250929050565b6000602082840312156153d757600080fd5b60006153e584828501615129565b91505092915050565b60006153fa83836158d6565b60208301905092915050565b61540f81615dce565b82525050565b61541e81615d5d565b82525050565b61542d81615d1e565b6154378184615d41565b925061544282615d14565b8060005b8381101561547357815161545a87826153ee565b965061546583615d34565b925050600181019050615446565b505050505050565b61548481615d6f565b82525050565b61549381615de0565b82525050565b6154a281615e04565b82525050565b60006154b382615d29565b6154bd8185615d4c565b93506154cd818560208601615e4c565b6154d681615e7f565b840191505092915050565b60006154ee601683615d4c565b91507f72657175657374207769746864726177206669727374000000000000000000006000830152602082019050919050565b600061552e601b83615d4c565b91507f536166654d6174683a206164646974696f6e206f766572666c6f7700000000006000830152602082019050919050565b600061556e601283615d4c565b91507f4e6f7420656e6f7567682062616c616e636500000000000000000000000000006000830152602082019050919050565b60006155ae600283615d4c565b91507f4e560000000000000000000000000000000000000000000000000000000000006000830152602082019050919050565b60006155ee600b83615d4c565b91507f717565756520656d7074790000000000000000000000000000000000000000006000830152602082019050919050565b600061562e601f83615d4c565b91507f43616c6c207769746864726177416c6c2066756e6374696f6e206669727374006000830152602082019050919050565b600061566e602183615d4c565b91507f536166654d6174683a206d756c7469706c69636174696f6e206f766572666c6f60008301527f77000000000000000000000000000000000000000000000000000000000000006020830152604082019050919050565b60006156d4601483615d4c565b91507f636f696e207472616e73666572206661696c65640000000000000000000000006000830152602082019050919050565b6000615714601683615d4c565b91507f5472616e73666572204e6f742053756363657366756c000000000000000000006000830152602082019050919050565b6000615754600283615d4c565b91507f4e410000000000000000000000000000000000000000000000000000000000006000830152602082019050919050565b6000615794600783615d4c565b91507f6c6f7720525054000000000000000000000000000000000000000000000000006000830152602082019050919050565b60006157d4601683615d4c565b91507f5472616e73666572206e6f742053756363657366756c000000000000000000006000830152602082019050919050565b6000615814601783615d4c565b91507f4e6f7420456e6f75676820506f6f6c2062616c616e63650000000000000000006000830152602082019050919050565b6000615854601f83615d4c565b91507f5265656e7472616e637947756172643a207265656e7472616e742063616c6c006000830152602082019050919050565b6000615894600b83615d4c565b91507f436c61696d2066697273740000000000000000000000000000000000000000006000830152602082019050919050565b6158d081615d7b565b82525050565b6158df81615db7565b82525050565b6158ee81615db7565b82525050565b60006020820190506159096000830184615415565b92915050565b60006020820190506159246000830184615406565b92915050565b600060608201905061593f6000830186615406565b61594c6020830185615415565b61595960408301846158e5565b949350505050565b60006040820190506159766000830185615406565b61598360208301846158e5565b9392505050565b600060408201905061599f6000830185615415565b6159ac60208301846158e5565b9392505050565b60006060820190506159c86000830184615424565b92915050565b60006020820190506159e3600083018461547b565b92915050565b60006020820190506159fe600083018461548a565b92915050565b6000602082019050615a196000830184615499565b92915050565b60006020820190508181036000830152615a3981846154a8565b905092915050565b60006020820190508181036000830152615a5a816154e1565b9050919050565b60006020820190508181036000830152615a7a81615521565b9050919050565b60006020820190508181036000830152615a9a81615561565b9050919050565b60006020820190508181036000830152615aba816155a1565b9050919050565b60006020820190508181036000830152615ada816155e1565b9050919050565b60006020820190508181036000830152615afa81615621565b9050919050565b60006020820190508181036000830152615b1a81615661565b9050919050565b60006020820190508181036000830152615b3a816156c7565b9050919050565b60006020820190508181036000830152615b5a81615707565b9050919050565b60006020820190508181036000830152615b7a81615747565b9050919050565b60006020820190508181036000830152615b9a81615787565b9050919050565b60006020820190508181036000830152615bba816157c7565b9050919050565b60006020820190508181036000830152615bda81615807565b9050919050565b60006020820190508181036000830152615bfa81615847565b9050919050565b60006020820190508181036000830152615c1a81615887565b9050919050565b6000602082019050615c3660008301846158c7565b92915050565b6000602082019050615c5160008301846158e5565b92915050565b6000604082019050615c6c60008301856158e5565b615c7960208301846158e5565b9392505050565b6000608082019050615c9560008301876158e5565b615ca260208301866158e5565b615caf60408301856158e5565b615cbc60608301846158e5565b95945050505050565b6000604051905081810181811067ffffffffffffffff82111715615ce857600080fd5b8060405250919050565b600067ffffffffffffffff821115615d0957600080fd5b602082029050919050565b6000819050919050565b600060039050919050565b600081519050919050565b6000602082019050919050565b600081905092915050565b600082825260208201905092915050565b6000615d6882615d97565b9050919050565b60008115159050919050565b60006fffffffffffffffffffffffffffffffff82169050919050565b600073ffffffffffffffffffffffffffffffffffffffff82169050919050565b6000819050919050565b600060ff82169050919050565b6000615dd982615e28565b9050919050565b6000615deb82615df2565b9050919050565b6000615dfd82615d97565b9050919050565b6000615e0f82615e16565b9050919050565b6000615e2182615d97565b9050919050565b6000615e3382615e3a565b9050919050565b6000615e4582615d97565b9050919050565b60005b83811015615e6a578082015181840152602081019050615e4f565b83811115615e79576000848401525b50505050565b6000601f19601f8301169050919050565b615e9981615d5d565b8114615ea457600080fd5b50565b615eb081615d6f565b8114615ebb57600080fd5b50565b615ec781615d7b565b8114615ed257600080fd5b50565b615ede81615db7565b8114615ee957600080fd5b50565b615ef581615dc1565b8114615f0057600080fd5b5056fea2646970667358221220171a869d8b78044c3bf5163aa6ab811d05b9c97e8745cd932a71f9bb2932ff1764736f6c634300060c0033",
  "immutableReferences": {},
  "source": "// SPDX-License-Identifier: UNLICENSED\r\npragma solidity ^0.6.0;\r\npragma experimental ABIEncoderV2;\r\n\r\nimport \"@openzeppelin/contracts/math/SafeMath.sol\";\r\nimport \"@openzeppelin/contracts/utils/ReentrancyGuard.sol\";\r\nimport './RoyaleLPVariables.sol';\r\n\r\ncontract RoyaleLP is RoyaleLPstorage,ReentrancyGuard {\r\n     \r\n    using SafeMath for uint256;\r\n  \r\n    modifier onlyWallet(){\r\n      require(wallet ==msg.sender, \"NA\");\r\n      _;\r\n    }\r\n  \r\n     modifier validAmount(uint amount){\r\n      require(amount > 0 , \"NV\");\r\n      _;\r\n    }\r\n    \r\n\r\n    modifier onlyAuthorized() {\r\n        require( msg.sender == loanContract, \"NA\");\r\n        _;\r\n    }\r\n\r\n    // EVENTS \r\n    event userSupplied(address user,uint amount);\r\n    event userRecieved(address user,uint amount);\r\n    event userAddedToQ(address user,uint amount);\r\n    event yieldAdded(uint[3] amounts);\r\n   \r\n    \r\n    constructor(address[3] memory _tokens,address _rpToken,address _wallet) public {\r\n        for(uint8 i=0; i<3; i++) {\r\n            tokens[i] = IERC20(_tokens[i]);\r\n        }\r\n        rpToken = IERC20(_rpToken);\r\n        wallet=_wallet;\r\n    }\r\n    \r\n     function transferOwnership(address _wallet) external onlyWallet(){\r\n        wallet =_wallet;\r\n    }\r\n\r\n    /* INTERNAL FUNCTIONS */\r\n   \r\n    \r\n\r\n    function checkValidArray(uint256[3] memory amounts)internal pure returns(bool){\r\n        for(uint8 i=0;i<3;i++){\r\n            if(amounts[i]>0){\r\n                return true;\r\n            }\r\n        }\r\n        return false;\r\n    }\r\n    \r\n\r\n    // functions related to deposit and supply\r\n    \r\n    // This function deposits the fund to Yield Optimizer\r\n    function _deposit(uint256[3] memory amounts) internal {\r\n        curveStrategy.deposit(amounts);\r\n        uint decimal;\r\n        for(uint8 i=0;i<3;i++){\r\n            decimal=tokens[i].decimals();\r\n            YieldPoolBalance =YieldPoolBalance.add(amounts[i].mul(10**18).div(10**decimal));\r\n        }\r\n    }\r\n   \r\n\r\n    \r\n     function updateLockedRPT(address recipient,uint256 amount) internal{\r\n        for(uint8 j=0; j<amountSupplied[recipient].length; j++) {\r\n             if(amountSupplied[recipient][j].remAmt > 0 && amount > 0 ) {\r\n                  if(amount >= amountSupplied[recipient][j].remAmt) {\r\n                        amount = amount.sub( amountSupplied[recipient][j].remAmt);\r\n                        amountSupplied[recipient][j].remAmt = 0;\r\n                    }\r\n                    else {\r\n                        amountSupplied[recipient][j].remAmt =(amountSupplied[recipient][j].remAmt).sub(amount);\r\n                        amount = 0;\r\n                    }\r\n                }\r\n            }\r\n    }\r\n\r\n    function checkWithdraw(uint256 amount,uint256 burnAmt,uint _index) internal{\r\n        uint256 poolBalance;\r\n        poolBalance = getBalances(_index);\r\n        rpToken.burn(msg.sender, burnAmt);\r\n        if(amount < poolBalance) {\r\n            uint decimal;\r\n            bool result;\r\n            decimal=tokens[_index].decimals();\r\n            uint temp = amount.sub(amount.mul(fees).div(DENOMINATOR));\r\n            selfBalance=selfBalance.sub(temp.mul(10**18).div(10**decimal));\r\n            updateLockedRPT(msg.sender,burnAmt);\r\n            result = tokens[_index].transfer(msg.sender, temp);\r\n            require(result,\"Transfer not Succesful\");\r\n            emit userRecieved(msg.sender, temp); \r\n         }\r\n         else {\r\n            _takeBackQ(amount,burnAmt,_index);\r\n            emit userAddedToQ(msg.sender, amount);\r\n        }\r\n    }\r\n\r\n\r\n\r\n    // this will add unfulfilled withdraw requests to the queue\r\n    function _takeBackQ(uint256 amount,uint256 _burnAmount,uint256 _index) internal {\r\n        amountWithdraw[msg.sender][_index] =amountWithdraw[msg.sender][_index].add( amount);\r\n        amountBurnt[msg.sender][_index]=amountBurnt[msg.sender][_index].add(_burnAmount);\r\n        totalWithdraw[_index] =totalWithdraw[_index].add(amount);\r\n        uint total;\r\n        total=(totalWithdraw[1].add(totalWithdraw[2])).mul(1e18).div(10**6);\r\n        require((totalWithdraw[0]+total)<=YieldPoolBalance,\"Not enough balance\");\r\n        if(!isInQ[msg.sender]) {\r\n            isInQ[msg.sender] = true;\r\n            withdrawRecipients.push(msg.sender);\r\n            \r\n        }\r\n\r\n    }\r\n\r\n    function updateWithdrawQueue() internal{\r\n        for(uint8 i=0;i<3;i++){\r\n            reserveAmount[i]=reserveAmount[i].add(totalWithdraw[i]);\r\n            totalWithdraw[i]=0;\r\n        }\r\n        for(uint i=0; i<withdrawRecipients.length; i++) {\r\n            reserveRecipients[withdrawRecipients[i]]=true;\r\n            isInQ[withdrawRecipients[i]]=false;\r\n        }\r\n        uint count=withdrawRecipients.length;\r\n        for(uint i=0;i<count;i++){\r\n            withdrawRecipients.pop();\r\n        }\r\n    }\r\n\r\n    // this will withdraw from Yield Optimizer into this contract\r\n    function _withdraw(uint256[3] memory amounts) internal {\r\n        curveStrategy.withdraw(amounts);\r\n        uint decimal;\r\n        for(uint8 i=0;i<3;i++){\r\n            decimal=tokens[i].decimals();\r\n            YieldPoolBalance =YieldPoolBalance.sub(amounts[i].mul(10**18).div(10**decimal));\r\n        }\r\n    }\r\n\r\n    //This function calculate RPT to be mint or burn\r\n    function calcRptAmount(uint256 amount,uint _index) public view returns(uint256) {\r\n        uint256 total = calculateTotalToken(true);\r\n        uint256 decimal = 0;\r\n        decimal=tokens[_index].decimals();\r\n        amount=amount.mul(1e18).div(10**decimal);\r\n        if(total==0){\r\n            return amount;\r\n        }\r\n        else{\r\n          return (amount.mul(rpToken.totalSupply()).div(total)); \r\n        }\r\n    }\r\n\r\n\r\n\r\n    //function to check available amount to withdraw for user\r\n    function availableLiquidity(address addr, uint coin,bool _time) public view returns(uint256 token,uint256 RPT) {\r\n        uint256 amount=0;\r\n        for(uint8 j=0; j<amountSupplied[addr].length; j++) {\r\n                if( (!_time || (now - amountSupplied[addr][j].time)  > lock_period)&&amountSupplied[addr][j].remAmt >0)   {\r\n                        amount =amount.add(amountSupplied[addr][j].remAmt);\r\n                }\r\n        }\r\n        for(uint8 i=0;i<3;i++){\r\n            amount =amount.sub(amountBurnt[addr][i]);\r\n        }\r\n        uint256 total=calculateTotalToken(true);\r\n        uint256 decimal;\r\n        decimal=tokens[coin].decimals();\r\n        return ((amount.mul(total).mul(10**decimal).div(rpToken.totalSupply())).div(10**18),amount);\r\n    }\r\n    \r\n    function calculateTotalToken(bool _supply)public view returns(uint256){\r\n        uint256 decimal;\r\n        uint withdrawTotal;\r\n        uint reserveTotal;\r\n        uint loanTotal;\r\n        for(uint8 i=0; i<3; i++) {\r\n            decimal = tokens[i].decimals();\r\n            withdrawTotal=withdrawTotal.add(totalWithdraw[i].mul(1e18).div(10**decimal));\r\n            reserveTotal=reserveTotal.add(reserveAmount[i].mul(1e18).div(10**decimal));\r\n            loanTotal=loanTotal.add(loanGiven[i].mul(1e18).div(10**decimal));\r\n        } \r\n        if(_supply){\r\n            return selfBalance.sub(withdrawTotal).sub(reserveTotal).add(loanTotal);\r\n        }\r\n        else{\r\n            return selfBalance.sub(withdrawTotal).sub(reserveTotal);\r\n        }\r\n        \r\n    }\r\n    \r\n    /* USER FUNCTIONS (exposed to frontend) */\r\n   \r\n\r\n    function supply(uint256 amount,uint256 _index) external nonReentrant  validAmount(amount){\r\n        bool result;\r\n        uint decimal;\r\n        uint256 mintAmount=calcRptAmount(amount,_index);\r\n        amountSupplied[msg.sender].push(depositDetails(_index,amount,now,mintAmount));\r\n        decimal=tokens[_index].decimals();\r\n        selfBalance=selfBalance.add(amount.mul(10**18).div(10**decimal));\r\n        result = tokens[_index].transferFrom(msg.sender, address(this), amount);\r\n        require(result, \"coin transfer failed\");\r\n        rpToken.mint(msg.sender, mintAmount);\r\n        emit userSupplied(msg.sender, amount);\r\n    }\r\n\r\n    \r\n    \r\n    function requestWithdrawWithRPT(uint256 amount,uint256 _index) external nonReentrant  validAmount(amount){\r\n        require(!reserveRecipients[msg.sender],\"Claim first\");\r\n        require(rpToken.balanceOf(msg.sender) >= amount, \"low RPT\");\r\n        (,uint availableRPT)=availableLiquidity(msg.sender,_index,true );\r\n        bool instant=true;\r\n         if(availableRPT < amount) {\r\n             instant=false;\r\n        }\r\n        require(instant,\"NA\");\r\n        uint256 total = calculateTotalToken(true);\r\n        uint256 tokenAmount;\r\n        tokenAmount=amount.mul(total).div(rpToken.totalSupply());\r\n        require(tokenAmount <= calculateTotalToken(false),\"Not Enough Pool balance\");\r\n        uint decimal;\r\n        decimal=tokens[_index].decimals();\r\n        checkWithdraw(tokenAmount.mul(10**decimal).div(10**18),amount,_index);  \r\n    }\r\n    \r\n    function claimTokens() external  nonReentrant{\r\n        require(reserveRecipients[msg.sender] , \"request withdraw first\");\r\n        bool result;\r\n        uint totalBurnt;\r\n        uint decimal;\r\n        for(uint8 i=0; i<3; i++) {\r\n            if(amountWithdraw[msg.sender][i] > 0) {\r\n                decimal=tokens[i].decimals();\r\n                uint temp = amountWithdraw[msg.sender][i].sub((amountWithdraw[msg.sender][i].mul(fees)).div(DENOMINATOR));\r\n                reserveAmount[i] =reserveAmount[i].sub(amountWithdraw[msg.sender][i]);\r\n                selfBalance = selfBalance.sub(temp.mul(1e18).div(10**decimal));\r\n                totalBurnt =totalBurnt.add(amountBurnt[msg.sender][i]);\r\n                amountWithdraw[msg.sender][i] = 0;\r\n                amountBurnt[msg.sender][i]=0;\r\n                result = tokens[i].transfer(msg.sender,  temp);\r\n                require(result,\"Transfer Not Succesful\");\r\n                emit userRecieved(msg.sender,temp);\r\n            }\r\n        }\r\n        updateLockedRPT(msg.sender,totalBurnt);\r\n        reserveRecipients[msg.sender] = false;\r\n    }\r\n\r\n   \r\n\r\n\r\n    // this function deposits without minting RPT\r\n    function depsoitYield(uint256[3] calldata amounts) external {\r\n        uint totalYield;\r\n        uint decimal;\r\n        for(uint8 i=0;i<3;i++){\r\n            decimal=tokens[i].decimals();\r\n            if(amounts[i]!=0){\r\n              totalYield=totalYield.add(amounts[i].mul(1e18).div(10**decimal));\r\n              tokens[i].transferFrom(msg.sender,address(this),amounts[i]);\r\n            }\r\n        }\r\n        selfBalance=selfBalance.add(totalYield);\r\n        liquidityProvidersAPY=liquidityProvidersAPY.add(totalYield);\r\n    }\r\n\r\n\r\n    /* CORE FUNCTIONS (called by owner only) */\r\n\r\n    //Deposit in the smart backed pool\r\n    function deposit() onlyWallet() external  {\r\n        uint256[3] memory amounts;\r\n        uint256 totalAmount;\r\n        uint256 decimal;\r\n        totalAmount=calculateTotalToken(false);\r\n        uint balanceAmount=totalAmount.mul(poolPart.div(3)).div(DENOMINATOR);\r\n        uint tokenBalance;\r\n        for(uint8 i=0;i<3;i++){\r\n            decimal=tokens[i].decimals();\r\n            amounts[i]=getBalances(i);\r\n            tokenBalance=balanceAmount.mul(10**decimal).div(10**18);\r\n            if(amounts[i]>tokenBalance){\r\n                amounts[i]=amounts[i].sub(tokenBalance);\r\n                tokens[i].transfer(address(curveStrategy),amounts[i]);\r\n            }\r\n            else{\r\n                amounts[i]=0;\r\n            }\r\n        }\r\n        if(checkValidArray(amounts)){\r\n            _deposit(amounts);\r\n        }\r\n    }\r\n    \r\n\r\n    //Withdraw from Pool\r\n    function withdraw() onlyWallet() external  {\r\n        require(checkValidArray(totalWithdraw), \"queue empty\");\r\n        _withdraw(totalWithdraw);\r\n        updateWithdrawQueue();\r\n        \r\n    }\r\n\r\n\r\n    function withdrawAll() external onlyWallet() {\r\n        \r\n        uint[3] memory amounts;\r\n        amounts=curveStrategy.withdrawAll();\r\n        uint decimal;\r\n        selfBalance=0;\r\n        for(uint8 i=0;i<3;i++){\r\n            decimal=tokens[i].decimals();\r\n            selfBalance=selfBalance.add((tokens[i].balanceOf(address(this))).mul(1e18).div(10**decimal));\r\n        }\r\n        YieldPoolBalance=0;\r\n        updateWithdrawQueue();\r\n    }\r\n\r\n\r\n    //function for rebalancing pool(ratio)      \r\n    function rebalance() onlyWallet() external {\r\n        uint256 currentAmount;\r\n        uint256[3] memory amountToWithdraw;\r\n        uint256[3] memory amountToDeposit;\r\n        uint totalAmount;\r\n        uint256 decimal;\r\n        totalAmount=calculateTotalToken(false);\r\n        uint balanceAmount=totalAmount.mul(poolPart.div(3)).div(DENOMINATOR);\r\n        uint tokenBalance;\r\n        for(uint8 i=0;i<3;i++) {\r\n           currentAmount=getBalances(i);\r\n           decimal=tokens[i].decimals();\r\n           tokenBalance=balanceAmount.mul(10**decimal).div(10**18);\r\n           if(tokenBalance > currentAmount) {\r\n              amountToWithdraw[i] = tokenBalance.sub(currentAmount);\r\n           }\r\n           else if(tokenBalance < currentAmount) {\r\n               amountToDeposit[i] = currentAmount.sub(tokenBalance);\r\n               tokens[i].transfer(address(curveStrategy), amountToDeposit[i]);\r\n               \r\n           }\r\n           else {\r\n               amountToWithdraw[i] = 0;\r\n               amountToDeposit[i] = 0;\r\n           }\r\n        }\r\n        if(checkValidArray(amountToDeposit)){\r\n             _deposit(amountToDeposit);\r\n             \r\n        }\r\n        if(checkValidArray(amountToWithdraw)) {\r\n            _withdraw(amountToWithdraw);\r\n            \r\n        }\r\n\r\n    }\r\n    \r\n     // Following two functions are called by rLoan Only\r\n    function _loanWithdraw(uint256[3] memory amounts,uint256[3] memory withdrawAmount, address _loanSeeker) external onlyAuthorized() returns(bool) {\r\n        if(checkValidArray(withdrawAmount)){\r\n            _withdraw(withdrawAmount);\r\n        }\r\n        uint decimal;\r\n        for(uint8 i=0; i<3; i++) {\r\n            if(amounts[i] > 0) {\r\n                decimal=tokens[i].decimals();\r\n                loanGiven[i] =loanGiven[i].add(amounts[i]);\r\n                selfBalance=selfBalance.sub(amounts[i].mul(1e18).div(10**decimal));\r\n                tokens[i].transfer(_loanSeeker, amounts[i]);\r\n            }\r\n        }\r\n        return true;\r\n    }\r\n    \r\n    //Function only called by multisig contract for transfering tokens\r\n    function _loanRepayment(uint256[3] memory amounts) external onlyAuthorized()  returns(bool) {\r\n        uint decimal;\r\n        for(uint8 i=0; i<3; i++) {\r\n            if(amounts[i] > 0) {\r\n                decimal=tokens[i].decimals();\r\n                loanGiven[i] =loanGiven[i].sub(amounts[i]);\r\n                selfBalance=selfBalance.add(amounts[i].mul(1e18).div(10**decimal));\r\n            }\r\n        }\r\n        return true;\r\n    }\r\n\r\n\r\n    function getBalances(uint _index) public view returns(uint256) {\r\n        return (tokens[_index].balanceOf(address(this)).sub(reserveAmount[_index]));\r\n    }\r\n\r\n    /* ADMIN FUNCTIONS */\r\n    \r\n    function setLoanContract(address _loanContract)external onlyWallet() {\r\n        loanContract=_loanContract;\r\n        \r\n    }\r\n\r\n    function changePoolPart(uint128 _newPoolPart) external onlyWallet()  {\r\n        poolPart = _newPoolPart;\r\n        \r\n    }\r\n\r\n    function changeCurveStrategy(address _strategy) onlyWallet() external  {\r\n        for(uint8 i=0;i<3;i++){\r\n            require(YieldPoolBalance==0, \"Call withdrawAll function first\");\r\n        } \r\n        curveStrategy=rCurveStrategy(_strategy);\r\n        \r\n    }\r\n\r\n    function setLockPeriod(uint256 lockperiod) onlyWallet() external  {\r\n        lock_period = lockperiod;\r\n        \r\n    }\r\n\r\n    function setWithdrawFees(uint128 _fees) onlyWallet() external {\r\n        fees = _fees;\r\n\r\n    }\r\n\r\n    function transferFunds(address _address)external onlyWallet(){\r\n        for(uint8 i=0;i<3;i++){\r\n            tokens[i].transfer(_address,tokens[i].balanceOf(address(this)));\r\n        }\r\n    }\r\n}",
  "sourcePath": "C:/Users/vishn/OneDrive/Desktop/RoyaleProject/RoyaleFinance/royale-contracts/contracts/Pool/RoyaleLP.sol",
  "compiler": {
    "name": "solc",
    "version": "0.6.12+commit.27d51765.Emscripten.clang"
  },
  "schemaVersion": "3.3.2",
  "updatedAt": "2021-03-10T13:10:44.217Z",
  "devdoc": {
    "kind": "dev",
    "methods": {},
    "version": 1
  },
  "userdoc": {
    "kind": "user",
    "methods": {},
    "version": 1
  }
}