{
  "contractName": "RoyaleLP",
  "abi": [
    {
      "inputs": [
        {
          "internalType": "address[3]",
          "name": "_tokens",
          "type": "address[3]"
        },
        {
          "internalType": "address",
          "name": "_rpToken",
          "type": "address"
        },
        {
          "internalType": "address",
          "name": "_wallet",
          "type": "address"
        }
      ],
      "stateMutability": "nonpayable",
      "type": "constructor"
    },
    {
      "anonymous": false,
      "inputs": [
        {
          "indexed": false,
          "internalType": "address",
          "name": "user",
          "type": "address"
        },
        {
          "indexed": false,
          "internalType": "uint256",
          "name": "amount",
          "type": "uint256"
        }
      ],
      "name": "userAddedToQ",
      "type": "event"
    },
    {
      "anonymous": false,
      "inputs": [
        {
          "indexed": false,
          "internalType": "address",
          "name": "user",
          "type": "address"
        },
        {
          "indexed": false,
          "internalType": "uint256",
          "name": "amount",
          "type": "uint256"
        }
      ],
      "name": "userRecieved",
      "type": "event"
    },
    {
      "anonymous": false,
      "inputs": [
        {
          "indexed": false,
          "internalType": "address",
          "name": "user",
          "type": "address"
        },
        {
          "indexed": false,
          "internalType": "uint256",
          "name": "amount",
          "type": "uint256"
        }
      ],
      "name": "userSupplied",
      "type": "event"
    },
    {
      "anonymous": false,
      "inputs": [
        {
          "indexed": false,
          "internalType": "uint256",
          "name": "amount",
          "type": "uint256"
        }
      ],
      "name": "yieldAdded",
      "type": "event"
    },
    {
      "inputs": [],
      "name": "DENOMINATOR",
      "outputs": [
        {
          "internalType": "uint256",
          "name": "",
          "type": "uint256"
        }
      ],
      "stateMutability": "view",
      "type": "function"
    },
    {
      "inputs": [],
      "name": "YieldPoolBalance",
      "outputs": [
        {
          "internalType": "uint256",
          "name": "",
          "type": "uint256"
        }
      ],
      "stateMutability": "view",
      "type": "function"
    },
    {
      "inputs": [
        {
          "internalType": "address",
          "name": "",
          "type": "address"
        },
        {
          "internalType": "uint256",
          "name": "",
          "type": "uint256"
        }
      ],
      "name": "amountBurnt",
      "outputs": [
        {
          "internalType": "uint256",
          "name": "",
          "type": "uint256"
        }
      ],
      "stateMutability": "view",
      "type": "function"
    },
    {
      "inputs": [
        {
          "internalType": "address",
          "name": "",
          "type": "address"
        },
        {
          "internalType": "uint256",
          "name": "",
          "type": "uint256"
        }
      ],
      "name": "amountSupplied",
      "outputs": [
        {
          "internalType": "uint256",
          "name": "index",
          "type": "uint256"
        },
        {
          "internalType": "uint256",
          "name": "amount",
          "type": "uint256"
        },
        {
          "internalType": "uint256",
          "name": "time",
          "type": "uint256"
        },
        {
          "internalType": "uint256",
          "name": "remAmt",
          "type": "uint256"
        }
      ],
      "stateMutability": "view",
      "type": "function"
    },
    {
      "inputs": [
        {
          "internalType": "address",
          "name": "",
          "type": "address"
        },
        {
          "internalType": "uint256",
          "name": "",
          "type": "uint256"
        }
      ],
      "name": "amountWithdraw",
      "outputs": [
        {
          "internalType": "uint256",
          "name": "",
          "type": "uint256"
        }
      ],
      "stateMutability": "view",
      "type": "function"
    },
    {
      "inputs": [],
      "name": "fees",
      "outputs": [
        {
          "internalType": "uint128",
          "name": "",
          "type": "uint128"
        }
      ],
      "stateMutability": "view",
      "type": "function"
    },
    {
      "inputs": [
        {
          "internalType": "address",
          "name": "",
          "type": "address"
        }
      ],
      "name": "isInQ",
      "outputs": [
        {
          "internalType": "bool",
          "name": "",
          "type": "bool"
        }
      ],
      "stateMutability": "view",
      "type": "function"
    },
    {
      "inputs": [],
      "name": "liquidityProvidersAPY",
      "outputs": [
        {
          "internalType": "uint256",
          "name": "",
          "type": "uint256"
        }
      ],
      "stateMutability": "view",
      "type": "function"
    },
    {
      "inputs": [],
      "name": "loanGiven",
      "outputs": [
        {
          "internalType": "uint256",
          "name": "",
          "type": "uint256"
        }
      ],
      "stateMutability": "view",
      "type": "function"
    },
    {
      "inputs": [],
      "name": "lock_period",
      "outputs": [
        {
          "internalType": "uint256",
          "name": "",
          "type": "uint256"
        }
      ],
      "stateMutability": "view",
      "type": "function"
    },
    {
      "inputs": [],
      "name": "poolPart",
      "outputs": [
        {
          "internalType": "uint256",
          "name": "",
          "type": "uint256"
        }
      ],
      "stateMutability": "view",
      "type": "function"
    },
    {
      "inputs": [
        {
          "internalType": "uint256",
          "name": "",
          "type": "uint256"
        }
      ],
      "name": "reserveAmount",
      "outputs": [
        {
          "internalType": "uint256",
          "name": "",
          "type": "uint256"
        }
      ],
      "stateMutability": "view",
      "type": "function"
    },
    {
      "inputs": [
        {
          "internalType": "address",
          "name": "",
          "type": "address"
        }
      ],
      "name": "reserveRecipients",
      "outputs": [
        {
          "internalType": "bool",
          "name": "",
          "type": "bool"
        }
      ],
      "stateMutability": "view",
      "type": "function"
    },
    {
      "inputs": [],
      "name": "rpToken",
      "outputs": [
        {
          "internalType": "contract IERC20",
          "name": "",
          "type": "address"
        }
      ],
      "stateMutability": "view",
      "type": "function"
    },
    {
      "inputs": [],
      "name": "selfBalance",
      "outputs": [
        {
          "internalType": "uint256",
          "name": "",
          "type": "uint256"
        }
      ],
      "stateMutability": "view",
      "type": "function"
    },
    {
      "inputs": [],
      "name": "strategy",
      "outputs": [
        {
          "internalType": "contract rStrategy",
          "name": "",
          "type": "address"
        }
      ],
      "stateMutability": "view",
      "type": "function"
    },
    {
      "inputs": [
        {
          "internalType": "uint256",
          "name": "",
          "type": "uint256"
        }
      ],
      "name": "tokens",
      "outputs": [
        {
          "internalType": "contract IERC20",
          "name": "",
          "type": "address"
        }
      ],
      "stateMutability": "view",
      "type": "function"
    },
    {
      "inputs": [
        {
          "internalType": "uint256",
          "name": "",
          "type": "uint256"
        }
      ],
      "name": "totalWithdraw",
      "outputs": [
        {
          "internalType": "uint256",
          "name": "",
          "type": "uint256"
        }
      ],
      "stateMutability": "view",
      "type": "function"
    },
    {
      "inputs": [],
      "name": "wallet",
      "outputs": [
        {
          "internalType": "address",
          "name": "",
          "type": "address"
        }
      ],
      "stateMutability": "view",
      "type": "function"
    },
    {
      "inputs": [
        {
          "internalType": "uint256",
          "name": "",
          "type": "uint256"
        }
      ],
      "name": "withdrawRecipients",
      "outputs": [
        {
          "internalType": "address",
          "name": "",
          "type": "address"
        }
      ],
      "stateMutability": "view",
      "type": "function"
    },
    {
      "inputs": [
        {
          "internalType": "address",
          "name": "_wallet",
          "type": "address"
        }
      ],
      "name": "transferOwnership",
      "outputs": [],
      "stateMutability": "nonpayable",
      "type": "function"
    },
    {
      "inputs": [
        {
          "internalType": "uint256",
          "name": "amount",
          "type": "uint256"
        },
        {
          "internalType": "uint256",
          "name": "_index",
          "type": "uint256"
        }
      ],
      "name": "calcRptAmount",
      "outputs": [
        {
          "internalType": "uint256",
          "name": "",
          "type": "uint256"
        }
      ],
      "stateMutability": "view",
      "type": "function"
    },
    {
      "inputs": [
        {
          "internalType": "address",
          "name": "addr",
          "type": "address"
        },
        {
          "internalType": "uint256",
          "name": "coin",
          "type": "uint256"
        },
        {
          "internalType": "bool",
          "name": "_time",
          "type": "bool"
        }
      ],
      "name": "availableLiquidity",
      "outputs": [
        {
          "internalType": "uint256",
          "name": "token",
          "type": "uint256"
        },
        {
          "internalType": "uint256",
          "name": "RPT",
          "type": "uint256"
        }
      ],
      "stateMutability": "view",
      "type": "function"
    },
    {
      "inputs": [
        {
          "internalType": "bool",
          "name": "_supply",
          "type": "bool"
        }
      ],
      "name": "calculateTotalToken",
      "outputs": [
        {
          "internalType": "uint256",
          "name": "",
          "type": "uint256"
        }
      ],
      "stateMutability": "view",
      "type": "function"
    },
    {
      "inputs": [
        {
          "internalType": "uint256",
          "name": "amount",
          "type": "uint256"
        },
        {
          "internalType": "uint256",
          "name": "_index",
          "type": "uint256"
        }
      ],
      "name": "supply",
      "outputs": [],
      "stateMutability": "nonpayable",
      "type": "function"
    },
    {
      "inputs": [
        {
          "internalType": "uint256",
          "name": "amount",
          "type": "uint256"
        },
        {
          "internalType": "uint256",
          "name": "_index",
          "type": "uint256"
        }
      ],
      "name": "requestWithdrawWithRPT",
      "outputs": [],
      "stateMutability": "nonpayable",
      "type": "function"
    },
    {
      "inputs": [],
      "name": "claimTokens",
      "outputs": [],
      "stateMutability": "nonpayable",
      "type": "function"
    },
    {
      "inputs": [
        {
          "internalType": "uint256",
          "name": "amount",
          "type": "uint256"
        },
        {
          "internalType": "uint256",
          "name": "_index",
          "type": "uint256"
        }
      ],
      "name": "depositYield",
      "outputs": [],
      "stateMutability": "nonpayable",
      "type": "function"
    },
    {
      "inputs": [],
      "name": "deposit",
      "outputs": [],
      "stateMutability": "nonpayable",
      "type": "function"
    },
    {
      "inputs": [],
      "name": "withdraw",
      "outputs": [],
      "stateMutability": "nonpayable",
      "type": "function"
    },
    {
      "inputs": [],
      "name": "withdrawAll",
      "outputs": [],
      "stateMutability": "nonpayable",
      "type": "function"
    },
    {
      "inputs": [],
      "name": "rebalance",
      "outputs": [],
      "stateMutability": "nonpayable",
      "type": "function"
    },
    {
      "inputs": [
        {
          "internalType": "uint256[3]",
          "name": "amounts",
          "type": "uint256[3]"
        },
        {
          "internalType": "address",
          "name": "_recipient",
          "type": "address"
        }
      ],
      "name": "withdrawLoan",
      "outputs": [],
      "stateMutability": "nonpayable",
      "type": "function"
    },
    {
      "inputs": [
        {
          "internalType": "uint256[3]",
          "name": "amounts",
          "type": "uint256[3]"
        }
      ],
      "name": "repayLoan",
      "outputs": [],
      "stateMutability": "nonpayable",
      "type": "function"
    },
    {
      "inputs": [
        {
          "internalType": "uint128",
          "name": "_newPoolPart",
          "type": "uint128"
        }
      ],
      "name": "changePoolPart",
      "outputs": [],
      "stateMutability": "nonpayable",
      "type": "function"
    },
    {
      "inputs": [
        {
          "internalType": "address",
          "name": "_strategy",
          "type": "address"
        }
      ],
      "name": "changeStrategy",
      "outputs": [],
      "stateMutability": "nonpayable",
      "type": "function"
    },
    {
      "inputs": [
        {
          "internalType": "uint256",
          "name": "lockperiod",
          "type": "uint256"
        }
      ],
      "name": "setLockPeriod",
      "outputs": [],
      "stateMutability": "nonpayable",
      "type": "function"
    },
    {
      "inputs": [
        {
          "internalType": "uint128",
          "name": "_fees",
          "type": "uint128"
        }
      ],
      "name": "setWithdrawFees",
      "outputs": [],
      "stateMutability": "nonpayable",
      "type": "function"
    },
    {
      "inputs": [
        {
          "internalType": "address",
          "name": "_address",
          "type": "address"
        }
      ],
      "name": "transferAllFunds",
      "outputs": [],
      "stateMutability": "nonpayable",
      "type": "function"
    },
    {
      "inputs": [
        {
          "internalType": "uint256",
          "name": "_index",
          "type": "uint256"
        }
      ],
      "name": "getBalances",
      "outputs": [
        {
          "internalType": "uint256",
          "name": "",
          "type": "uint256"
        }
      ],
      "stateMutability": "view",
      "type": "function"
    }
  ],
  "bytecode": "0x60806040526019600160006101000a8154816fffffffffffffffffffffffffffffffff02191690836fffffffffffffffffffffffffffffffff1602179055506102ee600255603c600c553480156200005657600080fd5b50604051620061d2380380620061d283398181016040528101906200007c919062000228565b600160008190555060005b60038160ff1610156200010757838160ff1660038110620000a457fe5b602002015160048260ff1660038110620000ba57fe5b0160006101000a81548173ffffffffffffffffffffffffffffffffffffffff021916908373ffffffffffffffffffffffffffffffffffffffff160217905550808060010191505062000087565b5081600760006101000a81548173ffffffffffffffffffffffffffffffffffffffff021916908373ffffffffffffffffffffffffffffffffffffffff16021790555080600960006101000a81548173ffffffffffffffffffffffffffffffffffffffff021916908373ffffffffffffffffffffffffffffffffffffffff1602179055505050506200031d565b600081519050620001a48162000303565b92915050565b600082601f830112620001bc57600080fd5b6003620001d3620001cd82620002ac565b6200027e565b91508183856020840282011115620001ea57600080fd5b60005b838110156200021e578162000203888262000193565b845260208401935060208301925050600181019050620001ed565b5050505092915050565b600080600060a084860312156200023e57600080fd5b60006200024e86828701620001aa565b9350506060620002618682870162000193565b9250506080620002748682870162000193565b9150509250925092565b6000604051905081810181811067ffffffffffffffff82111715620002a257600080fd5b8060405250919050565b600067ffffffffffffffff821115620002c457600080fd5b602082029050919050565b6000620002dc82620002e3565b9050919050565b600073ffffffffffffffffffffffffffffffffffffffff82169050919050565b6200030e81620002cf565b81146200031a57600080fd5b50565b615ea5806200032d6000396000f3fe608060405234801561001057600080fd5b50600436106102485760003560e01c8063918f86741161013b578063c6b93df7116100b8578063de4498391161007c578063de449839146106b8578063df7ce7e4146106e9578063f0dd71c714610707578063f2fde38b14610737578063f83e9a201461075357610248565b8063c6b93df714610616578063d0e30db014610646578063daecfa6c14610650578063db28bfd01461066c578063dcd365ca1461069c57610248565b8063a8c62e76116100ff578063a8c62e7614610547578063ad6abb0c14610565578063b0bed0ba14610595578063bf4b136b146105b3578063c23177b2146105e357610248565b8063918f8674146104b757806393f9c552146104d55780639af1d35a146104f1578063a0df58081461050f578063a70200bd1461052b57610248565b8063521eb273116101c95780637d7c2a1c1161018d5780637d7c2a1c14610425578063853828b61461042f578063876171dc146104395780638e9b032614610469578063905f692e1461048757610248565b8063521eb273146103835780635cd60cd1146103a15780636b9f1ef6146103d1578063779972da146103ed5780637a9024bd1461040957610248565b806342f1bd5d1161021057806342f1bd5d146102cb578063449deb6b146102e957806348c54b9d14610319578063490adbaf146103235780634f64b2be1461035357610248565b80630100a56b1461024d57806315816bac1461026b57806325340b8c146102875780633b789750146102a55780633ccfd60b146102c1575b600080fd5b610255610771565b6040516102629190615b92565b60405180910390f35b6102856004803603810190610280919061518b565b610777565b005b61028f610955565b60405161029c9190615b92565b60405180910390f35b6102bf60048036038101906102ba9190614f7c565b61095b565b005b6102c9610b28565b005b6102d3610c8d565b6040516102e091906158ff565b60405180910390f35b61030360048036038101906102fe9190614f7c565b610cb3565b60405161031091906158e4565b60405180910390f35b610321610cd3565b005b61033d60048036038101906103389190615139565b6112c2565b60405161034a9190615b92565b60405180910390f35b61036d60048036038101906103689190615139565b6113a2565b60405161037a91906158ff565b60405180910390f35b61038b6113d5565b604051610398919061580a565b60405180910390f35b6103bb60048036038101906103b69190614fa5565b6113fb565b6040516103c89190615b92565b60405180910390f35b6103eb60048036038101906103e69190615110565b611420565b005b61040760048036038101906104029190615139565b6114ec565b005b610423600480360381019061041e9190614f7c565b611586565b005b61042d6116bc565b005b610437611a33565b005b610453600480360381019061044e9190615139565b611d60565b604051610460919061580a565b60405180910390f35b610471611d9c565b60405161047e9190615b92565b60405180910390f35b6104a1600480360381019061049c9190614f7c565b611da2565b6040516104ae91906158e4565b60405180910390f35b6104bf611dc2565b6040516104cc9190615b92565b60405180910390f35b6104ef60048036038101906104ea919061518b565b611dc8565b005b6104f9612259565b6040516105069190615b77565b60405180910390f35b61052960048036038101906105249190615030565b61227b565b005b61054560048036038101906105409190615110565b6124e5565b005b61054f612591565b60405161055c919061591a565b60405180910390f35b61057f600480360381019061057a91906150be565b6125b7565b60405161058c9190615b92565b60405180910390f35b61059d6127b5565b6040516105aa9190615b92565b60405180910390f35b6105cd60048036038101906105c8919061518b565b6127bb565b6040516105da9190615b92565b60405180910390f35b6105fd60048036038101906105f89190614fa5565b612991565b60405161060d9493929190615bd6565b60405180910390f35b610630600480360381019061062b9190614fa5565b6129db565b60405161063d9190615b92565b60405180910390f35b61064e612a00565b005b61066a6004803603810190610665919061518b565b612d3c565b005b61068660048036038101906106819190615139565b6130bd565b6040516106939190615b92565b60405180910390f35b6106b660048036038101906106b19190615082565b6130d5565b005b6106d260048036038101906106cd9190614fe1565b613408565b6040516106e0929190615bad565b60405180910390f35b6106f16137ff565b6040516106fe9190615b92565b60405180910390f35b610721600480360381019061071c9190615139565b613805565b60405161072e9190615b92565b60405180910390f35b610751600480360381019061074c9190614f7c565b61381d565b005b61075b6138f1565b6040516107689190615b92565b60405180910390f35b60195481565b60006004826003811061078657fe5b0160009054906101000a900473ffffffffffffffffffffffffffffffffffffffff1673ffffffffffffffffffffffffffffffffffffffff1663313ce5676040518163ffffffff1660e01b815260040160206040518083038186803b1580156107ed57600080fd5b505afa158015610801573d6000803e3d6000fd5b505050506040513d601f19601f8201168201806040525081019061082591906151c7565b60ff16905061086e61085d82600a0a61084f670de0b6b3a7640000876138f790919063ffffffff16565b61396790919063ffffffff16565b6003546139b190919063ffffffff16565b6003819055506108b86108a782600a0a610899670de0b6b3a7640000876138f790919063ffffffff16565b61396790919063ffffffff16565b600b546139b190919063ffffffff16565b600b81905550610919333085600486600381106108d157fe5b0160009054906101000a900473ffffffffffffffffffffffffffffffffffffffff1673ffffffffffffffffffffffffffffffffffffffff16613a06909392919063ffffffff16565b7f8cbefaa4ed0c313ed463d26507393594f877789e4460ad45affda6e4638dc6c1836040516109489190615b92565b60405180910390a1505050565b600a5481565b3373ffffffffffffffffffffffffffffffffffffffff16600960009054906101000a900473ffffffffffffffffffffffffffffffffffffffff1673ffffffffffffffffffffffffffffffffffffffff16146109eb576040517f08c379a00000000000000000000000000000000000000000000000000000000081526004016109e290615a77565b60405180910390fd5b600060038190555060005b60038160ff161015610b2457610b178260048360ff1660038110610a1657fe5b0160009054906101000a900473ffffffffffffffffffffffffffffffffffffffff1673ffffffffffffffffffffffffffffffffffffffff166370a08231306040518263ffffffff1660e01b8152600401610a70919061580a565b60206040518083038186803b158015610a8857600080fd5b505afa158015610a9c573d6000803e3d6000fd5b505050506040513d601f19601f82011682018060405250810190610ac09190615162565b60048460ff1660038110610ad057fe5b0160009054906101000a900473ffffffffffffffffffffffffffffffffffffffff1673ffffffffffffffffffffffffffffffffffffffff16613a8f9092919063ffffffff16565b80806001019150506109f6565b5050565b3373ffffffffffffffffffffffffffffffffffffffff16600960009054906101000a900473ffffffffffffffffffffffffffffffffffffffff1673ffffffffffffffffffffffffffffffffffffffff1614610bb8576040517f08c379a0000000000000000000000000000000000000000000000000000000008152600401610baf90615a77565b60405180910390fd5b610bfe6012600380602002604051908101604052809291908260038015610bf4576020028201915b815481526020019060010190808311610be0575b5050505050613b15565b610c3d576040517f08c379a0000000000000000000000000000000000000000000000000000000008152600401610c3490615a17565b60405180910390fd5b610c836012600380602002604051908101604052809291908260038015610c79576020028201915b815481526020019060010190808311610c65575b5050505050613b67565b610c8b613d2b565b565b600760009054906101000a900473ffffffffffffffffffffffffffffffffffffffff1681565b60186020528060005260406000206000915054906101000a900460ff1681565b60026000541415610d19576040517f08c379a0000000000000000000000000000000000000000000000000000000008152600401610d1090615b37565b60405180910390fd5b6002600081905550601860003373ffffffffffffffffffffffffffffffffffffffff1673ffffffffffffffffffffffffffffffffffffffff16815260200190815260200160002060009054906101000a900460ff16610dad576040517f08c379a0000000000000000000000000000000000000000000000000000000008152600401610da490615957565b60405180910390fd5b60008060005b60038160ff161015611253576000600e60003373ffffffffffffffffffffffffffffffffffffffff1673ffffffffffffffffffffffffffffffffffffffff1681526020019081526020016000208260ff1660038110610e0e57fe5b015411156112465760048160ff1660038110610e2657fe5b0160009054906101000a900473ffffffffffffffffffffffffffffffffffffffff1673ffffffffffffffffffffffffffffffffffffffff1663313ce5676040518163ffffffff1660e01b815260040160206040518083038186803b158015610e8d57600080fd5b505afa158015610ea1573d6000803e3d6000fd5b505050506040513d601f19601f82011682018060405250810190610ec591906151c7565b60ff1691506000610fd1610f74612710610f66600160009054906101000a90046fffffffffffffffffffffffffffffffff166fffffffffffffffffffffffffffffffff16600e60003373ffffffffffffffffffffffffffffffffffffffff1673ffffffffffffffffffffffffffffffffffffffff1681526020019081526020016000208760ff1660038110610f5657fe5b01546138f790919063ffffffff16565b61396790919063ffffffff16565b600e60003373ffffffffffffffffffffffffffffffffffffffff1673ffffffffffffffffffffffffffffffffffffffff1681526020019081526020016000208460ff1660038110610fc157fe5b0154613f4b90919063ffffffff16565b9050611045600e60003373ffffffffffffffffffffffffffffffffffffffff1673ffffffffffffffffffffffffffffffffffffffff1681526020019081526020016000208360ff166003811061102357fe5b015460158460ff166003811061103557fe5b0154613f4b90919063ffffffff16565b60158360ff166003811061105557fe5b018190555061109e61108d84600a0a61107f670de0b6b3a7640000856138f790919063ffffffff16565b61396790919063ffffffff16565b600354613f4b90919063ffffffff16565b600381905550611105600f60003373ffffffffffffffffffffffffffffffffffffffff1673ffffffffffffffffffffffffffffffffffffffff1681526020019081526020016000208360ff16600381106110f457fe5b0154856139b190919063ffffffff16565b93506000600e60003373ffffffffffffffffffffffffffffffffffffffff1673ffffffffffffffffffffffffffffffffffffffff1681526020019081526020016000208360ff166003811061115657fe5b01819055506000600f60003373ffffffffffffffffffffffffffffffffffffffff1673ffffffffffffffffffffffffffffffffffffffff1681526020019081526020016000208360ff16600381106111aa57fe5b018190555061120b338260048560ff16600381106111c457fe5b0160009054906101000a900473ffffffffffffffffffffffffffffffffffffffff1673ffffffffffffffffffffffffffffffffffffffff16613a8f9092919063ffffffff16565b7f8b46652782c1a94bd1f1e050f62dea3a99b7fe20520c003e111624847230d4fe338260405161123c929190615840565b60405180910390a1505b8080600101915050610db3565b5061125e3383613f95565b6000601860003373ffffffffffffffffffffffffffffffffffffffff1673ffffffffffffffffffffffffffffffffffffffff16815260200190815260200160002060006101000a81548160ff02191690831515021790555050506001600081905550565b600061139b601583600381106112d457fe5b0154600484600381106112e357fe5b0160009054906101000a900473ffffffffffffffffffffffffffffffffffffffff1673ffffffffffffffffffffffffffffffffffffffff166370a08231306040518263ffffffff1660e01b815260040161133d919061580a565b60206040518083038186803b15801561135557600080fd5b505afa158015611369573d6000803e3d6000fd5b505050506040513d601f19601f8201168201806040525081019061138d9190615162565b613f4b90919063ffffffff16565b9050919050565b600481600381106113af57fe5b016000915054906101000a900473ffffffffffffffffffffffffffffffffffffffff1681565b600960009054906101000a900473ffffffffffffffffffffffffffffffffffffffff1681565b600e602052816000526040600020816003811061141457fe5b01600091509150505481565b3373ffffffffffffffffffffffffffffffffffffffff16600960009054906101000a900473ffffffffffffffffffffffffffffffffffffffff1673ffffffffffffffffffffffffffffffffffffffff16146114b0576040517f08c379a00000000000000000000000000000000000000000000000000000000081526004016114a790615a77565b60405180910390fd5b80600160006101000a8154816fffffffffffffffffffffffffffffffff02191690836fffffffffffffffffffffffffffffffff16021790555050565b3373ffffffffffffffffffffffffffffffffffffffff16600960009054906101000a900473ffffffffffffffffffffffffffffffffffffffff1673ffffffffffffffffffffffffffffffffffffffff161461157c576040517f08c379a000000000000000000000000000000000000000000000000000000000815260040161157390615a77565b60405180910390fd5b80600c8190555050565b3373ffffffffffffffffffffffffffffffffffffffff16600960009054906101000a900473ffffffffffffffffffffffffffffffffffffffff1673ffffffffffffffffffffffffffffffffffffffff1614611616576040517f08c379a000000000000000000000000000000000000000000000000000000000815260040161160d90615a77565b60405180910390fd5b60005b60038160ff161015611677576000600a541461166a576040517f08c379a000000000000000000000000000000000000000000000000000000000815260040161166190615a37565b60405180910390fd5b8080600101915050611619565b5080600860006101000a81548173ffffffffffffffffffffffffffffffffffffffff021916908373ffffffffffffffffffffffffffffffffffffffff16021790555050565b3373ffffffffffffffffffffffffffffffffffffffff16600960009054906101000a900473ffffffffffffffffffffffffffffffffffffffff1673ffffffffffffffffffffffffffffffffffffffff161461174c576040517f08c379a000000000000000000000000000000000000000000000000000000000815260040161174390615a77565b60405180910390fd5b6000611756614ddf565b61175e614ddf565b60008061176b60006125b7565b915060006117ab61271061179d61178e600360025461396790919063ffffffff16565b866138f790919063ffffffff16565b61396790919063ffffffff16565b9050600080600090505b60038160ff1610156119f9576117cd8160ff166112c2565b975060048160ff16600381106117df57fe5b0160009054906101000a900473ffffffffffffffffffffffffffffffffffffffff1673ffffffffffffffffffffffffffffffffffffffff1663313ce5676040518163ffffffff1660e01b815260040160206040518083038186803b15801561184657600080fd5b505afa15801561185a573d6000803e3d6000fd5b505050506040513d601f19601f8201168201806040525081019061187e91906151c7565b60ff1693506118b3670de0b6b3a76400006118a586600a0a866138f790919063ffffffff16565b61396790919063ffffffff16565b9150878211156118ed576118d08883613f4b90919063ffffffff16565b878260ff16600381106118df57fe5b6020020181815250506119ec565b878210156119b6576119088289613f4b90919063ffffffff16565b868260ff166003811061191757fe5b6020020181815250506119b1600860009054906101000a900473ffffffffffffffffffffffffffffffffffffffff16878360ff166003811061195557fe5b602002015160048460ff166003811061196a57fe5b0160009054906101000a900473ffffffffffffffffffffffffffffffffffffffff1673ffffffffffffffffffffffffffffffffffffffff16613a8f9092919063ffffffff16565b6119eb565b6000878260ff16600381106119c757fe5b6020020181815250506000868260ff16600381106119e157fe5b6020020181815250505b5b80806001019150506117b5565b50611a0385613b15565b15611a1257611a1185614284565b5b611a1b86613b15565b15611a2a57611a2986613b67565b5b50505050505050565b3373ffffffffffffffffffffffffffffffffffffffff16600960009054906101000a900473ffffffffffffffffffffffffffffffffffffffff1673ffffffffffffffffffffffffffffffffffffffff1614611ac3576040517f08c379a0000000000000000000000000000000000000000000000000000000008152600401611aba90615a77565b60405180910390fd5b611acb614ddf565b600860009054906101000a900473ffffffffffffffffffffffffffffffffffffffff1673ffffffffffffffffffffffffffffffffffffffff1663853828b66040518163ffffffff1660e01b8152600401606060405180830381600087803b158015611b3557600080fd5b505af1158015611b49573d6000803e3d6000fd5b505050506040513d601f19601f82011682018060405250810190611b6d9190615059565b905060008060038190555060005b60038160ff161015611d4b5760048160ff1660038110611b9757fe5b0160009054906101000a900473ffffffffffffffffffffffffffffffffffffffff1673ffffffffffffffffffffffffffffffffffffffff1663313ce5676040518163ffffffff1660e01b815260040160206040518083038186803b158015611bfe57600080fd5b505afa158015611c12573d6000803e3d6000fd5b505050506040513d601f19601f82011682018060405250810190611c3691906151c7565b60ff169150611d38611d2783600a0a611d19670de0b6b3a764000060048660ff1660038110611c6157fe5b0160009054906101000a900473ffffffffffffffffffffffffffffffffffffffff1673ffffffffffffffffffffffffffffffffffffffff166370a08231306040518263ffffffff1660e01b8152600401611cbb919061580a565b60206040518083038186803b158015611cd357600080fd5b505afa158015611ce7573d6000803e3d6000fd5b505050506040513d601f19601f82011682018060405250810190611d0b9190615162565b6138f790919063ffffffff16565b61396790919063ffffffff16565b6003546139b190919063ffffffff16565b6003819055508080600101915050611b7b565b506000600a81905550611d5c613d2b565b5050565b60118181548110611d6d57fe5b906000526020600020016000915054906101000a900473ffffffffffffffffffffffffffffffffffffffff1681565b60025481565b60106020528060005260406000206000915054906101000a900460ff1681565b61271081565b60026000541415611e0e576040517f08c379a0000000000000000000000000000000000000000000000000000000008152600401611e0590615b37565b60405180910390fd5b60026000819055508160008111611e5a576040517f08c379a0000000000000000000000000000000000000000000000000000000008152600401611e51906159f7565b60405180910390fd5b601860003373ffffffffffffffffffffffffffffffffffffffff1673ffffffffffffffffffffffffffffffffffffffff16815260200190815260200160002060009054906101000a900460ff1615611ee7576040517f08c379a0000000000000000000000000000000000000000000000000000000008152600401611ede90615b57565b60405180910390fd5b82600760009054906101000a900473ffffffffffffffffffffffffffffffffffffffff1673ffffffffffffffffffffffffffffffffffffffff166370a08231336040518263ffffffff1660e01b8152600401611f439190615825565b60206040518083038186803b158015611f5b57600080fd5b505afa158015611f6f573d6000803e3d6000fd5b505050506040513d601f19601f82011682018060405250810190611f939190615162565b1015611fd4576040517f08c379a0000000000000000000000000000000000000000000000000000000008152600401611fcb90615a97565b60405180910390fd5b6000611fe233846001613408565b91505060006001905084821015611ff857600090505b80612038576040517f08c379a000000000000000000000000000000000000000000000000000000000815260040161202f90615a77565b60405180910390fd5b600061204460016125b7565b9050600061210c600760009054906101000a900473ffffffffffffffffffffffffffffffffffffffff1673ffffffffffffffffffffffffffffffffffffffff166318160ddd6040518163ffffffff1660e01b815260040160206040518083038186803b1580156120b357600080fd5b505afa1580156120c7573d6000803e3d6000fd5b505050506040513d601f19601f820116820180604052508101906120eb9190615162565b6120fe848a6138f790919063ffffffff16565b61396790919063ffffffff16565b905061211860006125b7565b81111561215a576040517f08c379a000000000000000000000000000000000000000000000000000000000815260040161215190615af7565b60405180910390fd5b60006004876003811061216957fe5b0160009054906101000a900473ffffffffffffffffffffffffffffffffffffffff1673ffffffffffffffffffffffffffffffffffffffff1663313ce5676040518163ffffffff1660e01b815260040160206040518083038186803b1580156121d057600080fd5b505afa1580156121e4573d6000803e3d6000fd5b505050506040513d601f19601f8201168201806040525081019061220891906151c7565b60ff169050612247612240670de0b6b3a764000061223284600a0a866138f790919063ffffffff16565b61396790919063ffffffff16565b8989614448565b50505050505060016000819055505050565b600160009054906101000a90046fffffffffffffffffffffffffffffffff1681565b61228481613b15565b6122c3576040517f08c379a00000000000000000000000000000000000000000000000000000000081526004016122ba90615977565b60405180910390fd5b600080600090505b60038160ff1610156124e0576000838260ff16600381106122e857fe5b602002015111156124d35760048160ff166003811061230357fe5b0160009054906101000a900473ffffffffffffffffffffffffffffffffffffffff1673ffffffffffffffffffffffffffffffffffffffff1663313ce5676040518163ffffffff1660e01b815260040160206040518083038186803b15801561236a57600080fd5b505afa15801561237e573d6000803e3d6000fd5b505050506040513d601f19601f820116820180604052508101906123a291906151c7565b60ff1691506123fe6123ed83600a0a6123df670de0b6b3a7640000878660ff16600381106123cc57fe5b60200201516138f790919063ffffffff16565b61396790919063ffffffff16565b601954613f4b90919063ffffffff16565b60198190555061245b61244a83600a0a61243c670de0b6b3a7640000878660ff166003811061242957fe5b60200201516138f790919063ffffffff16565b61396790919063ffffffff16565b6003546139b190919063ffffffff16565b6003819055506124d23330858460ff166003811061247557fe5b602002015160048560ff166003811061248a57fe5b0160009054906101000a900473ffffffffffffffffffffffffffffffffffffffff1673ffffffffffffffffffffffffffffffffffffffff16613a06909392919063ffffffff16565b5b80806001019150506122cb565b505050565b3373ffffffffffffffffffffffffffffffffffffffff16600960009054906101000a900473ffffffffffffffffffffffffffffffffffffffff1673ffffffffffffffffffffffffffffffffffffffff1614612575576040517f08c379a000000000000000000000000000000000000000000000000000000000815260040161256c90615a77565b60405180910390fd5b806fffffffffffffffffffffffffffffffff1660028190555050565b600860009054906101000a900473ffffffffffffffffffffffffffffffffffffffff1681565b60008060008060005b60038160ff1610156127375760048160ff16600381106125dc57fe5b0160009054906101000a900473ffffffffffffffffffffffffffffffffffffffff1673ffffffffffffffffffffffffffffffffffffffff1663313ce5676040518163ffffffff1660e01b815260040160206040518083038186803b15801561264357600080fd5b505afa158015612657573d6000803e3d6000fd5b505050506040513d601f19601f8201168201806040525081019061267b91906151c7565b60ff1693506126d36126c485600a0a6126b6670de0b6b3a764000060128660ff16600381106126a657fe5b01546138f790919063ffffffff16565b61396790919063ffffffff16565b846139b190919063ffffffff16565b925061272861271985600a0a61270b670de0b6b3a764000060158660ff16600381106126fb57fe5b01546138f790919063ffffffff16565b61396790919063ffffffff16565b836139b190919063ffffffff16565b915080806001019150506125c0565b5084156127835761277960195461276b8361275d86600354613f4b90919063ffffffff16565b613f4b90919063ffffffff16565b6139b190919063ffffffff16565b93505050506127b0565b6127aa8161279c84600354613f4b90919063ffffffff16565b613f4b90919063ffffffff16565b93505050505b919050565b60035481565b6000806127c860016125b7565b90506000600484600381106127d957fe5b0160009054906101000a900473ffffffffffffffffffffffffffffffffffffffff1673ffffffffffffffffffffffffffffffffffffffff1663313ce5676040518163ffffffff1660e01b815260040160206040518083038186803b15801561284057600080fd5b505afa158015612854573d6000803e3d6000fd5b505050506040513d601f19601f8201168201806040525081019061287891906151c7565b60ff1690506128ad81600a0a61289f670de0b6b3a7640000886138f790919063ffffffff16565b61396790919063ffffffff16565b945060008214156128c257849250505061298b565b61298682612978600760009054906101000a900473ffffffffffffffffffffffffffffffffffffffff1673ffffffffffffffffffffffffffffffffffffffff166318160ddd6040518163ffffffff1660e01b815260040160206040518083038186803b15801561293157600080fd5b505afa158015612945573d6000803e3d6000fd5b505050506040513d601f19601f820116820180604052508101906129699190615162565b886138f790919063ffffffff16565b61396790919063ffffffff16565b925050505b92915050565b600d60205281600052604060002081815481106129aa57fe5b9060005260206000209060040201600091509150508060000154908060010154908060020154908060030154905084565b600f60205281600052604060002081600381106129f457fe5b01600091509150505481565b3373ffffffffffffffffffffffffffffffffffffffff16600960009054906101000a900473ffffffffffffffffffffffffffffffffffffffff1673ffffffffffffffffffffffffffffffffffffffff1614612a90576040517f08c379a0000000000000000000000000000000000000000000000000000000008152600401612a8790615a77565b60405180910390fd5b612a98614ddf565b600080612aa560006125b7565b91506000612ae5612710612ad7612ac8600360025461396790919063ffffffff16565b866138f790919063ffffffff16565b61396790919063ffffffff16565b9050600080600090505b60038160ff161015612d1c5760048160ff1660038110612b0b57fe5b0160009054906101000a900473ffffffffffffffffffffffffffffffffffffffff1673ffffffffffffffffffffffffffffffffffffffff1663313ce5676040518163ffffffff1660e01b815260040160206040518083038186803b158015612b7257600080fd5b505afa158015612b86573d6000803e3d6000fd5b505050506040513d601f19601f82011682018060405250810190612baa91906151c7565b60ff169350612bbb8160ff166112c2565b868260ff1660038110612bca57fe5b602002018181525050612c03670de0b6b3a7640000612bf586600a0a866138f790919063ffffffff16565b61396790919063ffffffff16565b915081868260ff1660038110612c1557fe5b60200201511115612cf457612c4682878360ff1660038110612c3357fe5b6020020151613f4b90919063ffffffff16565b868260ff1660038110612c5557fe5b602002018181525050612cef600860009054906101000a900473ffffffffffffffffffffffffffffffffffffffff16878360ff1660038110612c9357fe5b602002015160048460ff1660038110612ca857fe5b0160009054906101000a900473ffffffffffffffffffffffffffffffffffffffff1673ffffffffffffffffffffffffffffffffffffffff16613a8f9092919063ffffffff16565b612d0f565b6000868260ff1660038110612d0557fe5b6020020181815250505b8080600101915050612aef565b50612d2685613b15565b15612d3557612d3485614284565b5b5050505050565b60026000541415612d82576040517f08c379a0000000000000000000000000000000000000000000000000000000008152600401612d7990615b37565b60405180910390fd5b60026000819055508160008111612dce576040517f08c379a0000000000000000000000000000000000000000000000000000000008152600401612dc5906159f7565b60405180910390fd5b600080612ddb85856127bb565b9050600d60003373ffffffffffffffffffffffffffffffffffffffff1673ffffffffffffffffffffffffffffffffffffffff168152602001908152602001600020604051806080016040528086815260200187815260200142815260200183815250908060018154018082558091505060019003906000526020600020906004020160009091909190915060008201518160000155602082015181600101556040820151816002015560608201518160030155505060048460038110612e9d57fe5b0160009054906101000a900473ffffffffffffffffffffffffffffffffffffffff1673ffffffffffffffffffffffffffffffffffffffff1663313ce5676040518163ffffffff1660e01b815260040160206040518083038186803b158015612f0457600080fd5b505afa158015612f18573d6000803e3d6000fd5b505050506040513d601f19601f82011682018060405250810190612f3c91906151c7565b60ff169150612f85612f7483600a0a612f66670de0b6b3a7640000896138f790919063ffffffff16565b61396790919063ffffffff16565b6003546139b190919063ffffffff16565b600381905550612fe633308760048860038110612f9e57fe5b0160009054906101000a900473ffffffffffffffffffffffffffffffffffffffff1673ffffffffffffffffffffffffffffffffffffffff16613a06909392919063ffffffff16565b600760009054906101000a900473ffffffffffffffffffffffffffffffffffffffff1673ffffffffffffffffffffffffffffffffffffffff166340c10f1933836040518363ffffffff1660e01b8152600401613043929190615840565b600060405180830381600087803b15801561305d57600080fd5b505af1158015613071573d6000803e3d6000fd5b505050507f6ec568242d49f3645a5e2f73f58b15947dba8ef3ea637e32f6703325ce46f28233866040516130a6929190615840565b60405180910390a150505060016000819055505050565b601281600381106130ca57fe5b016000915090505481565b3373ffffffffffffffffffffffffffffffffffffffff16600960009054906101000a900473ffffffffffffffffffffffffffffffffffffffff1673ffffffffffffffffffffffffffffffffffffffff1614613165576040517f08c379a000000000000000000000000000000000000000000000000000000000815260040161315c90615a77565b60405180910390fd5b61316e82613b15565b6131ad576040517f08c379a00000000000000000000000000000000000000000000000000000000081526004016131a490615ad7565b60405180910390fd5b60008060005b60038110156132ce57600481600381106131c957fe5b0160009054906101000a900473ffffffffffffffffffffffffffffffffffffffff1673ffffffffffffffffffffffffffffffffffffffff1663313ce5676040518163ffffffff1660e01b815260040160206040518083038186803b15801561323057600080fd5b505afa158015613244573d6000803e3d6000fd5b505050506040513d601f19601f8201168201806040525081019061326891906151c7565b60ff1692506132bf6132b084600a0a6132a2670de0b6b3a764000089866003811061328f57fe5b60200201516138f790919063ffffffff16565b61396790919063ffffffff16565b836139b190919063ffffffff16565b915080806001019150506131b3565b506132d960006125b7565b811061331a576040517f08c379a0000000000000000000000000000000000000000000000000000000008152600401613311906159d7565b60405180910390fd5b61332384613b67565b613338816019546139b190919063ffffffff16565b60198190555061335381600354613f4b90919063ffffffff16565b60038190555060005b60038160ff161015613401576000858260ff166003811061337957fe5b602002015111156133f4576133f384868360ff166003811061339757fe5b602002015160048460ff16600381106133ac57fe5b0160009054906101000a900473ffffffffffffffffffffffffffffffffffffffff1673ffffffffffffffffffffffffffffffffffffffff16613a8f9092919063ffffffff16565b5b808060010191505061335c565b5050505050565b6000806000805b600d60008873ffffffffffffffffffffffffffffffffffffffff1673ffffffffffffffffffffffffffffffffffffffff168152602001908152602001600020805490508160ff1610156135ba578415806134ca5750600c54600d60008973ffffffffffffffffffffffffffffffffffffffff1673ffffffffffffffffffffffffffffffffffffffff1681526020019081526020016000208260ff16815481106134b457fe5b9060005260206000209060040201600201544203115b801561353457506000600d60008973ffffffffffffffffffffffffffffffffffffffff1673ffffffffffffffffffffffffffffffffffffffff1681526020019081526020016000208260ff168154811061352057fe5b906000526020600020906004020160030154115b156135ad576135aa600d60008973ffffffffffffffffffffffffffffffffffffffff1673ffffffffffffffffffffffffffffffffffffffff1681526020019081526020016000208260ff168154811061358957fe5b906000526020600020906004020160030154836139b190919063ffffffff16565b91505b808060010191505061340f565b5060005b60038160ff16101561363a5761362b600f60008973ffffffffffffffffffffffffffffffffffffffff1673ffffffffffffffffffffffffffffffffffffffff1681526020019081526020016000208260ff166003811061361a57fe5b015483613f4b90919063ffffffff16565b915080806001019150506135be565b50600061364760016125b7565b905060006004876003811061365857fe5b0160009054906101000a900473ffffffffffffffffffffffffffffffffffffffff1673ffffffffffffffffffffffffffffffffffffffff1663313ce5676040518163ffffffff1660e01b815260040160206040518083038186803b1580156136bf57600080fd5b505afa1580156136d3573d6000803e3d6000fd5b505050506040513d601f19601f820116820180604052508101906136f791906151c7565b60ff1690506137ef670de0b6b3a76400006137e1600760009054906101000a900473ffffffffffffffffffffffffffffffffffffffff1673ffffffffffffffffffffffffffffffffffffffff166318160ddd6040518163ffffffff1660e01b815260040160206040518083038186803b15801561377357600080fd5b505afa158015613787573d6000803e3d6000fd5b505050506040513d601f19601f820116820180604052508101906137ab9190615162565b6137d385600a0a6137c5888a6138f790919063ffffffff16565b6138f790919063ffffffff16565b61396790919063ffffffff16565b61396790919063ffffffff16565b8394509450505050935093915050565b600b5481565b6015816003811061381257fe5b016000915090505481565b3373ffffffffffffffffffffffffffffffffffffffff16600960009054906101000a900473ffffffffffffffffffffffffffffffffffffffff1673ffffffffffffffffffffffffffffffffffffffff16146138ad576040517f08c379a00000000000000000000000000000000000000000000000000000000081526004016138a490615a77565b60405180910390fd5b80600960006101000a81548173ffffffffffffffffffffffffffffffffffffffff021916908373ffffffffffffffffffffffffffffffffffffffff16021790555050565b600c5481565b60008083141561390a5760009050613961565b600082840290508284828161391b57fe5b041461395c576040517f08c379a000000000000000000000000000000000000000000000000000000000815260040161395390615a57565b60405180910390fd5b809150505b92915050565b60006139a983836040518060400160405280601a81526020017f536166654d6174683a206469766973696f6e206279207a65726f000000000000815250614744565b905092915050565b6000808284019050838110156139fc576040517f08c379a00000000000000000000000000000000000000000000000000000000081526004016139f390615997565b60405180910390fd5b8091505092915050565b613a89846323b872dd60e01b858585604051602401613a2793929190615869565b604051602081830303815290604052907bffffffffffffffffffffffffffffffffffffffffffffffffffffffff19166020820180517bffffffffffffffffffffffffffffffffffffffffffffffffffffffff83818316178352505050506147a5565b50505050565b613b108363a9059cbb60e01b8484604051602401613aae9291906158a0565b604051602081830303815290604052907bffffffffffffffffffffffffffffffffffffffffffffffffffffffff19166020820180517bffffffffffffffffffffffffffffffffffffffffffffffffffffffff83818316178352505050506147a5565b505050565b600080600090505b60038160ff161015613b5c576000838260ff1660038110613b3a57fe5b60200201511115613b4f576001915050613b62565b8080600101915050613b1d565b50600090505b919050565b600860009054906101000a900473ffffffffffffffffffffffffffffffffffffffff1673ffffffffffffffffffffffffffffffffffffffff1663b1b8f1be826040518263ffffffff1660e01b8152600401613bc291906158c9565b600060405180830381600087803b158015613bdc57600080fd5b505af1158015613bf0573d6000803e3d6000fd5b50505050600080600090505b60038160ff161015613d265760048160ff1660038110613c1857fe5b0160009054906101000a900473ffffffffffffffffffffffffffffffffffffffff1673ffffffffffffffffffffffffffffffffffffffff1663313ce5676040518163ffffffff1660e01b815260040160206040518083038186803b158015613c7f57600080fd5b505afa158015613c93573d6000803e3d6000fd5b505050506040513d601f19601f82011682018060405250810190613cb791906151c7565b60ff169150613d13613d0283600a0a613cf4670de0b6b3a7640000878660ff1660038110613ce157fe5b60200201516138f790919063ffffffff16565b61396790919063ffffffff16565b600a54613f4b90919063ffffffff16565b600a819055508080600101915050613bfc565b505050565b60005b60038160ff161015613da857613d6f60128260ff1660038110613d4d57fe5b015460158360ff1660038110613d5f57fe5b01546139b190919063ffffffff16565b60158260ff1660038110613d7f57fe5b0181905550600060128260ff1660038110613d9657fe5b01819055508080600101915050613d2e565b5060005b601180549050811015613ee45760016018600060118481548110613dcc57fe5b9060005260206000200160009054906101000a900473ffffffffffffffffffffffffffffffffffffffff1673ffffffffffffffffffffffffffffffffffffffff1673ffffffffffffffffffffffffffffffffffffffff16815260200190815260200160002060006101000a81548160ff02191690831515021790555060006010600060118481548110613e5b57fe5b9060005260206000200160009054906101000a900473ffffffffffffffffffffffffffffffffffffffff1673ffffffffffffffffffffffffffffffffffffffff1673ffffffffffffffffffffffffffffffffffffffff16815260200190815260200160002060006101000a81548160ff0219169083151502179055508080600101915050613dac565b506000601180549050905060005b81811015613f47576011805480613f0557fe5b6001900381819060005260206000200160006101000a81549073ffffffffffffffffffffffffffffffffffffffff021916905590558080600101915050613ef2565b5050565b6000613f8d83836040518060400160405280601e81526020017f536166654d6174683a207375627472616374696f6e206f766572666c6f77000081525061486c565b905092915050565b60005b600d60008473ffffffffffffffffffffffffffffffffffffffff1673ffffffffffffffffffffffffffffffffffffffff168152602001908152602001600020805490508160ff16101561427f576000600d60008573ffffffffffffffffffffffffffffffffffffffff1673ffffffffffffffffffffffffffffffffffffffff1681526020019081526020016000208260ff168154811061403457fe5b9060005260206000209060040201600301541180156140535750600082115b1561427257600d60008473ffffffffffffffffffffffffffffffffffffffff1673ffffffffffffffffffffffffffffffffffffffff1681526020019081526020016000208160ff16815481106140a557fe5b90600052602060002090600402016003015482106141995761412e600d60008573ffffffffffffffffffffffffffffffffffffffff1673ffffffffffffffffffffffffffffffffffffffff1681526020019081526020016000208260ff168154811061410d57fe5b90600052602060002090600402016003015483613f4b90919063ffffffff16565b91506000600d60008573ffffffffffffffffffffffffffffffffffffffff1673ffffffffffffffffffffffffffffffffffffffff1681526020019081526020016000208260ff168154811061417f57fe5b906000526020600020906004020160030181905550614271565b61420a82600d60008673ffffffffffffffffffffffffffffffffffffffff1673ffffffffffffffffffffffffffffffffffffffff1681526020019081526020016000208360ff16815481106141ea57fe5b906000526020600020906004020160030154613f4b90919063ffffffff16565b600d60008573ffffffffffffffffffffffffffffffffffffffff1673ffffffffffffffffffffffffffffffffffffffff1681526020019081526020016000208260ff168154811061425757fe5b906000526020600020906004020160030181905550600091505b5b8080600101915050613f98565b505050565b600860009054906101000a900473ffffffffffffffffffffffffffffffffffffffff1673ffffffffffffffffffffffffffffffffffffffff1663d4e20b01826040518263ffffffff1660e01b81526004016142df91906158c9565b600060405180830381600087803b1580156142f957600080fd5b505af115801561430d573d6000803e3d6000fd5b50505050600080600090505b60038160ff1610156144435760048160ff166003811061433557fe5b0160009054906101000a900473ffffffffffffffffffffffffffffffffffffffff1673ffffffffffffffffffffffffffffffffffffffff1663313ce5676040518163ffffffff1660e01b815260040160206040518083038186803b15801561439c57600080fd5b505afa1580156143b0573d6000803e3d6000fd5b505050506040513d601f19601f820116820180604052508101906143d491906151c7565b60ff16915061443061441f83600a0a614411670de0b6b3a7640000878660ff16600381106143fe57fe5b60200201516138f790919063ffffffff16565b61396790919063ffffffff16565b600a546139b190919063ffffffff16565b600a819055508080600101915050614319565b505050565b6000614453826112c2565b9050600760009054906101000a900473ffffffffffffffffffffffffffffffffffffffff1673ffffffffffffffffffffffffffffffffffffffff16639dc29fac33856040518363ffffffff1660e01b81526004016144b2929190615840565b600060405180830381600087803b1580156144cc57600080fd5b505af11580156144e0573d6000803e3d6000fd5b50505050808410156146f9576000600483600381106144fb57fe5b0160009054906101000a900473ffffffffffffffffffffffffffffffffffffffff1673ffffffffffffffffffffffffffffffffffffffff1663313ce5676040518163ffffffff1660e01b815260040160206040518083038186803b15801561456257600080fd5b505afa158015614576573d6000803e3d6000fd5b505050506040513d601f19601f8201168201806040525081019061459a91906151c7565b60ff169050600061460a6145fb6127106145ed600160009054906101000a90046fffffffffffffffffffffffffffffffff166fffffffffffffffffffffffffffffffff168a6138f790919063ffffffff16565b61396790919063ffffffff16565b87613f4b90919063ffffffff16565b905061465061463f83600a0a614631670de0b6b3a7640000856138f790919063ffffffff16565b61396790919063ffffffff16565b600354613f4b90919063ffffffff16565b6003819055506146603386613f95565b6146b933826004876003811061467257fe5b0160009054906101000a900473ffffffffffffffffffffffffffffffffffffffff1673ffffffffffffffffffffffffffffffffffffffff16613a8f9092919063ffffffff16565b7f8b46652782c1a94bd1f1e050f62dea3a99b7fe20520c003e111624847230d4fe33826040516146ea929190615840565b60405180910390a1505061473e565b6147048484846148c7565b7fd70cf1d21d858f226b570eec41b4238a7365568b97cf693f3ea03c3bd0d507cf3385604051614735929190615840565b60405180910390a15b50505050565b6000808311829061478b576040517f08c379a00000000000000000000000000000000000000000000000000000000081526004016147829190615935565b60405180910390fd5b50600083858161479757fe5b049050809150509392505050565b6060614807826040518060400160405280602081526020017f5361666545524332303a206c6f772d6c6576656c2063616c6c206661696c65648152508573ffffffffffffffffffffffffffffffffffffffff16614c219092919063ffffffff16565b9050600081511115614867578080602001905181019061482791906150e7565b614866576040517f08c379a000000000000000000000000000000000000000000000000000000000815260040161485d90615b17565b60405180910390fd5b5b505050565b60008383111582906148b4576040517f08c379a00000000000000000000000000000000000000000000000000000000081526004016148ab9190615935565b60405180910390fd5b5060008385039050809150509392505050565b61492583600e60003373ffffffffffffffffffffffffffffffffffffffff1673ffffffffffffffffffffffffffffffffffffffff168152602001908152602001600020836003811061491557fe5b01546139b190919063ffffffff16565b600e60003373ffffffffffffffffffffffffffffffffffffffff1673ffffffffffffffffffffffffffffffffffffffff168152602001908152602001600020826003811061496f57fe5b01819055506149d282600f60003373ffffffffffffffffffffffffffffffffffffffff1673ffffffffffffffffffffffffffffffffffffffff16815260200190815260200160002083600381106149c257fe5b01546139b190919063ffffffff16565b600f60003373ffffffffffffffffffffffffffffffffffffffff1673ffffffffffffffffffffffffffffffffffffffff1681526020019081526020016000208260038110614a1c57fe5b0181905550614a428360128360038110614a3257fe5b01546139b190919063ffffffff16565b60128260038110614a4f57fe5b01819055506000614ab6620f4240614aa8670de0b6b3a7640000614a9a6012600260038110614a7a57fe5b01546012600160038110614a8a57fe5b01546139b190919063ffffffff16565b6138f790919063ffffffff16565b61396790919063ffffffff16565b9050600a54816012600060038110614aca57fe5b0154011115614b0e576040517f08c379a0000000000000000000000000000000000000000000000000000000008152600401614b05906159d7565b60405180910390fd5b601060003373ffffffffffffffffffffffffffffffffffffffff1673ffffffffffffffffffffffffffffffffffffffff16815260200190815260200160002060009054906101000a900460ff16614c1b576001601060003373ffffffffffffffffffffffffffffffffffffffff1673ffffffffffffffffffffffffffffffffffffffff16815260200190815260200160002060006101000a81548160ff0219169083151502179055506011339080600181540180825580915050600190039060005260206000200160009091909190916101000a81548173ffffffffffffffffffffffffffffffffffffffff021916908373ffffffffffffffffffffffffffffffffffffffff1602179055505b50505050565b6060614c308484600085614c39565b90509392505050565b6060823073ffffffffffffffffffffffffffffffffffffffff16311015614c95576040517f08c379a0000000000000000000000000000000000000000000000000000000008152600401614c8c906159b7565b60405180910390fd5b614c9e85614d65565b614cdd576040517f08c379a0000000000000000000000000000000000000000000000000000000008152600401614cd490615ab7565b60405180910390fd5b600060608673ffffffffffffffffffffffffffffffffffffffff168587604051614d0791906157f3565b60006040518083038185875af1925050503d8060008114614d44576040519150601f19603f3d011682016040523d82523d6000602084013e614d49565b606091505b5091509150614d59828286614d78565b92505050949350505050565b600080823b905060008111915050919050565b60608315614d8857829050614dd8565b600083511115614d9b5782518084602001fd5b816040517f08c379a0000000000000000000000000000000000000000000000000000000008152600401614dcf9190615935565b60405180910390fd5b9392505050565b6040518060600160405280600390602082028036833780820191505090505090565b600081359050614e1081615dfc565b92915050565b600082601f830112614e2757600080fd5b6003614e3a614e3582615c48565b615c1b565b91508183856020840282011115614e5057600080fd5b60005b83811015614e805781614e668882614f3d565b845260208401935060208301925050600181019050614e53565b5050505092915050565b600082601f830112614e9b57600080fd5b6003614eae614ea982615c48565b615c1b565b91508183856020840282011115614ec457600080fd5b60005b83811015614ef45781614eda8882614f52565b845260208401935060208301925050600181019050614ec7565b5050505092915050565b600081359050614f0d81615e13565b92915050565b600081519050614f2281615e13565b92915050565b600081359050614f3781615e2a565b92915050565b600081359050614f4c81615e41565b92915050565b600081519050614f6181615e41565b92915050565b600081519050614f7681615e58565b92915050565b600060208284031215614f8e57600080fd5b6000614f9c84828501614e01565b91505092915050565b60008060408385031215614fb857600080fd5b6000614fc685828601614e01565b9250506020614fd785828601614f3d565b9150509250929050565b600080600060608486031215614ff657600080fd5b600061500486828701614e01565b935050602061501586828701614f3d565b925050604061502686828701614efe565b9150509250925092565b60006060828403121561504257600080fd5b600061505084828501614e16565b91505092915050565b60006060828403121561506b57600080fd5b600061507984828501614e8a565b91505092915050565b6000806080838503121561509557600080fd5b60006150a385828601614e16565b92505060606150b485828601614e01565b9150509250929050565b6000602082840312156150d057600080fd5b60006150de84828501614efe565b91505092915050565b6000602082840312156150f957600080fd5b600061510784828501614f13565b91505092915050565b60006020828403121561512257600080fd5b600061513084828501614f28565b91505092915050565b60006020828403121561514b57600080fd5b600061515984828501614f3d565b91505092915050565b60006020828403121561517457600080fd5b600061518284828501614f52565b91505092915050565b6000806040838503121561519e57600080fd5b60006151ac85828601614f3d565b92505060206151bd85828601614f3d565b9150509250929050565b6000602082840312156151d957600080fd5b60006151e784828501614f67565b91505092915050565b60006151fc83836157d5565b60208301905092915050565b61521181615d3a565b82525050565b61522081615cc9565b82525050565b61522f81615c74565b6152398184615ca2565b925061524482615c6a565b8060005b8381101561527557815161525c87826151f0565b965061526783615c95565b925050600181019050615248565b505050505050565b61528681615cdb565b82525050565b600061529782615c7f565b6152a18185615cad565b93506152b1818560208601615db8565b80840191505092915050565b6152c681615d4c565b82525050565b6152d581615d70565b82525050565b60006152e682615c8a565b6152f08185615cb8565b9350615300818560208601615db8565b61530981615deb565b840191505092915050565b6000615321601683615cb8565b91507f72657175657374207769746864726177206669727374000000000000000000006000830152602082019050919050565b6000615361601483615cb8565b91507f616d6f756e742063616e2774206265207a65726f0000000000000000000000006000830152602082019050919050565b60006153a1601b83615cb8565b91507f536166654d6174683a206164646974696f6e206f766572666c6f7700000000006000830152602082019050919050565b60006153e1602683615cb8565b91507f416464726573733a20696e73756666696369656e742062616c616e636520666f60008301527f722063616c6c00000000000000000000000000000000000000000000000000006020830152604082019050919050565b6000615447601283615cb8565b91507f4e6f7420656e6f7567682062616c616e636500000000000000000000000000006000830152602082019050919050565b6000615487600283615cb8565b91507f4e560000000000000000000000000000000000000000000000000000000000006000830152602082019050919050565b60006154c7600b83615cb8565b91507f717565756520656d7074790000000000000000000000000000000000000000006000830152602082019050919050565b6000615507601f83615cb8565b91507f43616c6c207769746864726177416c6c2066756e6374696f6e206669727374006000830152602082019050919050565b6000615547602183615cb8565b91507f536166654d6174683a206d756c7469706c69636174696f6e206f766572666c6f60008301527f77000000000000000000000000000000000000000000000000000000000000006020830152604082019050919050565b60006155ad600283615cb8565b91507f4e410000000000000000000000000000000000000000000000000000000000006000830152602082019050919050565b60006155ed600783615cb8565b91507f6c6f7720525054000000000000000000000000000000000000000000000000006000830152602082019050919050565b600061562d601d83615cb8565b91507f416464726573733a2063616c6c20746f206e6f6e2d636f6e74726163740000006000830152602082019050919050565b600061566d601383615cb8565b91507f616d6f756e742063616e206e6f74207a65726f000000000000000000000000006000830152602082019050919050565b60006156ad601783615cb8565b91507f4e6f7420456e6f75676820506f6f6c2062616c616e63650000000000000000006000830152602082019050919050565b60006156ed602a83615cb8565b91507f5361666545524332303a204552433230206f7065726174696f6e20646964206e60008301527f6f742073756363656564000000000000000000000000000000000000000000006020830152604082019050919050565b6000615753601f83615cb8565b91507f5265656e7472616e637947756172643a207265656e7472616e742063616c6c006000830152602082019050919050565b6000615793600b83615cb8565b91507f436c61696d2066697273740000000000000000000000000000000000000000006000830152602082019050919050565b6157cf81615ce7565b82525050565b6157de81615d23565b82525050565b6157ed81615d23565b82525050565b60006157ff828461528c565b915081905092915050565b600060208201905061581f6000830184615217565b92915050565b600060208201905061583a6000830184615208565b92915050565b60006040820190506158556000830185615208565b61586260208301846157e4565b9392505050565b600060608201905061587e6000830186615217565b61588b6020830185615217565b61589860408301846157e4565b949350505050565b60006040820190506158b56000830185615217565b6158c260208301846157e4565b9392505050565b60006060820190506158de6000830184615226565b92915050565b60006020820190506158f9600083018461527d565b92915050565b600060208201905061591460008301846152bd565b92915050565b600060208201905061592f60008301846152cc565b92915050565b6000602082019050818103600083015261594f81846152db565b905092915050565b6000602082019050818103600083015261597081615314565b9050919050565b6000602082019050818103600083015261599081615354565b9050919050565b600060208201905081810360008301526159b081615394565b9050919050565b600060208201905081810360008301526159d0816153d4565b9050919050565b600060208201905081810360008301526159f08161543a565b9050919050565b60006020820190508181036000830152615a108161547a565b9050919050565b60006020820190508181036000830152615a30816154ba565b9050919050565b60006020820190508181036000830152615a50816154fa565b9050919050565b60006020820190508181036000830152615a708161553a565b9050919050565b60006020820190508181036000830152615a90816155a0565b9050919050565b60006020820190508181036000830152615ab0816155e0565b9050919050565b60006020820190508181036000830152615ad081615620565b9050919050565b60006020820190508181036000830152615af081615660565b9050919050565b60006020820190508181036000830152615b10816156a0565b9050919050565b60006020820190508181036000830152615b30816156e0565b9050919050565b60006020820190508181036000830152615b5081615746565b9050919050565b60006020820190508181036000830152615b7081615786565b9050919050565b6000602082019050615b8c60008301846157c6565b92915050565b6000602082019050615ba760008301846157e4565b92915050565b6000604082019050615bc260008301856157e4565b615bcf60208301846157e4565b9392505050565b6000608082019050615beb60008301876157e4565b615bf860208301866157e4565b615c0560408301856157e4565b615c1260608301846157e4565b95945050505050565b6000604051905081810181811067ffffffffffffffff82111715615c3e57600080fd5b8060405250919050565b600067ffffffffffffffff821115615c5f57600080fd5b602082029050919050565b6000819050919050565b600060039050919050565b600081519050919050565b600081519050919050565b6000602082019050919050565b600081905092915050565b600081905092915050565b600082825260208201905092915050565b6000615cd482615d03565b9050919050565b60008115159050919050565b60006fffffffffffffffffffffffffffffffff82169050919050565b600073ffffffffffffffffffffffffffffffffffffffff82169050919050565b6000819050919050565b600060ff82169050919050565b6000615d4582615d94565b9050919050565b6000615d5782615d5e565b9050919050565b6000615d6982615d03565b9050919050565b6000615d7b82615d82565b9050919050565b6000615d8d82615d03565b9050919050565b6000615d9f82615da6565b9050919050565b6000615db182615d03565b9050919050565b60005b83811015615dd6578082015181840152602081019050615dbb565b83811115615de5576000848401525b50505050565b6000601f19601f8301169050919050565b615e0581615cc9565b8114615e1057600080fd5b50565b615e1c81615cdb565b8114615e2757600080fd5b50565b615e3381615ce7565b8114615e3e57600080fd5b50565b615e4a81615d23565b8114615e5557600080fd5b50565b615e6181615d2d565b8114615e6c57600080fd5b5056fea264697066735822122098c39c2351450c916deae317adb21bb410a01d2e3d5aa95ca745d830cf0ab27a64736f6c634300060c0033",
  "immutableReferences": {},
  "source": "// SPDX-License-Identifier: UNLICENSED\r\npragma solidity ^0.6.0;\r\npragma experimental ABIEncoderV2;\r\n\r\n\r\nimport \"@openzeppelin/contracts/utils/ReentrancyGuard.sol\";\r\nimport \"./SafeERC20.sol\";\r\nimport '../../Interfaces/StrategyInterface.sol';\r\n\r\n\r\ncontract RoyaleLP is ReentrancyGuard {\r\n    using SafeERC20 for IERC20;\r\n    using SafeMath for uint256;\r\n\r\n    uint256 public constant DENOMINATOR = 10000;\r\n\r\n    uint128 public fees = 25; // for .25% fee, for 1.75% fee => 175\r\n\r\n    uint256 public poolPart = 750 ; // 7.5% of total Liquidity will remain in the pool\r\n\r\n    uint256 public selfBalance;\r\n\r\n    IERC20[3] public tokens;\r\n\r\n    IERC20 public rpToken;\r\n\r\n    rStrategy public strategy;\r\n    \r\n    address public wallet;\r\n\r\n    uint public YieldPoolBalance;\r\n    uint public liquidityProvidersAPY;\r\n\r\n    //storage for user related to supply and withdraw\r\n    \r\n    uint256 public lock_period = 1 minutes;\r\n\r\n    struct depositDetails {\r\n        uint index;\r\n        uint amount;\r\n        uint256 time;\r\n        uint256 remAmt;\r\n    }\r\n    \r\n    mapping(address => depositDetails[]) public amountSupplied;\r\n    mapping(address => uint256[3]) public amountWithdraw;\r\n    mapping(address => uint256[3]) public amountBurnt;\r\n    \r\n    \r\n    mapping(address => bool) public isInQ;\r\n    \r\n    address[] public withdrawRecipients;\r\n    \r\n    uint256[3] public totalWithdraw;\r\n    \r\n    uint[3] public reserveAmount;\r\n    mapping(address => bool)public reserveRecipients;\r\n    \r\n    //storage to store total loan given\r\n    uint256 public loanGiven;  \r\n    \r\n  \r\n    modifier onlyWallet(){\r\n      require(wallet ==msg.sender, \"NA\");\r\n      _;\r\n    }\r\n  \r\n     modifier validAmount(uint amount){\r\n      require(amount > 0 , \"NV\");\r\n      _;\r\n    }\r\n    \r\n    // EVENTS \r\n    event userSupplied(address user,uint amount);\r\n    event userRecieved(address user,uint amount);\r\n    event userAddedToQ(address user,uint amount);\r\n    event yieldAdded(uint amount);\r\n   \r\n    \r\n    constructor(address[3] memory _tokens,address _rpToken,address _wallet) public {\r\n        for(uint8 i=0; i<3; i++) {\r\n            tokens[i] = IERC20(_tokens[i]);\r\n        }\r\n        rpToken = IERC20(_rpToken);\r\n        wallet=_wallet;\r\n    }\r\n    \r\n     function transferOwnership(address _wallet) external onlyWallet(){\r\n        wallet =_wallet;\r\n    }\r\n\r\n    /* INTERNAL FUNCTIONS */\r\n   \r\n    \r\n    //For checking whether array contains any non zero elements or not.\r\n    function checkValidArray(uint256[3] memory amounts)internal pure returns(bool){\r\n        for(uint8 i=0;i<3;i++){\r\n            if(amounts[i]>0){\r\n                return true;\r\n            }\r\n        }\r\n        return false;\r\n    }\r\n    \r\n\r\n   \r\n    \r\n    // This function deposits the liquidity to yield generation pool using yield Strategy contract\r\n    function _deposit(uint256[3] memory amounts) internal {\r\n        strategy.deposit(amounts);\r\n        uint decimal;\r\n        for(uint8 i=0;i<3;i++){\r\n            decimal=tokens[i].decimals();\r\n            YieldPoolBalance =YieldPoolBalance.add(amounts[i].mul(10**18).div(10**decimal));\r\n        }\r\n    }\r\n   \r\n\r\n    //This function is used to updating the array of user's individual deposit , called when users withdraw/claim tokens.\r\n    function updateLockedRPT(address recipient,uint256 amount) internal{\r\n        for(uint8 j=0; j<amountSupplied[recipient].length; j++) {\r\n            if(amountSupplied[recipient][j].remAmt > 0 && amount > 0 ) {\r\n                if(amount >= amountSupplied[recipient][j].remAmt) {\r\n                        amount = amount.sub( amountSupplied[recipient][j].remAmt);\r\n                        amountSupplied[recipient][j].remAmt = 0;\r\n                }\r\n                else {\r\n                        amountSupplied[recipient][j].remAmt =(amountSupplied[recipient][j].remAmt).sub(amount);\r\n                        amount = 0;\r\n                }\r\n            }\r\n        }\r\n     }\r\n\r\n    //Funtion determines whether requested withdrawl amount is available in the pool or not.\r\n    //If yes then fulfills withdraw request \r\n    //and if no then put the request into the withdraw queue.\r\n    function checkWithdraw(uint256 amount,uint256 burnAmt,uint _index) internal{\r\n        uint256 poolBalance;\r\n        poolBalance = getBalances(_index);\r\n        rpToken.burn(msg.sender, burnAmt);\r\n        if(amount < poolBalance) {\r\n            uint decimal;\r\n            decimal=tokens[_index].decimals();\r\n            uint temp = amount.sub(amount.mul(fees).div(DENOMINATOR));\r\n            selfBalance=selfBalance.sub(temp.mul(10**18).div(10**decimal));\r\n            updateLockedRPT(msg.sender,burnAmt);\r\n            tokens[_index].safeTransfer(msg.sender, temp);\r\n            emit userRecieved(msg.sender, temp); \r\n         }\r\n         else {\r\n            _takeBackQ(amount,burnAmt,_index);\r\n            emit userAddedToQ(msg.sender, amount);\r\n        }\r\n    }\r\n\r\n\r\n\r\n    // this will add unfulfilled withdraw requests to the withdrawl queue\r\n    function _takeBackQ(uint256 amount,uint256 _burnAmount,uint256 _index) internal {\r\n        amountWithdraw[msg.sender][_index] =amountWithdraw[msg.sender][_index].add( amount);\r\n        amountBurnt[msg.sender][_index]=amountBurnt[msg.sender][_index].add(_burnAmount);\r\n        totalWithdraw[_index] =totalWithdraw[_index].add(amount);\r\n        uint total;\r\n        total=(totalWithdraw[1].add(totalWithdraw[2])).mul(1e18).div(10**6);\r\n        require((totalWithdraw[0]+total)<=YieldPoolBalance,\"Not enough balance\");\r\n        if(!isInQ[msg.sender]) {\r\n            isInQ[msg.sender] = true;\r\n            withdrawRecipients.push(msg.sender);\r\n            \r\n        }\r\n\r\n    }\r\n\r\n\r\n    //this function is called when Royale Govenance withdrawl from yield generation pool.It add all the withdrawl amount in the reserve amount.\r\n    //All the users who requested for the withdrawl are added to the reserveRecipients.\r\n    function updateWithdrawQueue() internal{\r\n        for(uint8 i=0;i<3;i++){\r\n            reserveAmount[i]=reserveAmount[i].add(totalWithdraw[i]);\r\n            totalWithdraw[i]=0;\r\n        }\r\n        for(uint i=0; i<withdrawRecipients.length; i++) {\r\n            reserveRecipients[withdrawRecipients[i]]=true;\r\n            isInQ[withdrawRecipients[i]]=false;\r\n        }\r\n        uint count=withdrawRecipients.length;\r\n        for(uint i=0;i<count;i++){\r\n            withdrawRecipients.pop();\r\n        }\r\n    }\r\n\r\n    // this will withdraw Liquidity from yield genaration pool using yield Strategy\r\n    function _withdraw(uint256[3] memory amounts) internal {\r\n        strategy.withdraw(amounts);\r\n        uint decimal;\r\n        for(uint8 i=0;i<3;i++){\r\n            decimal=tokens[i].decimals();\r\n            YieldPoolBalance =YieldPoolBalance.sub(amounts[i].mul(10**18).div(10**decimal));\r\n        }\r\n    }\r\n\r\n    //This function calculate RPT to be mint or burn\r\n    //amount parameter is amount of token\r\n    //_index can be 0/1/2 \r\n    //0-DAI\r\n    //1-USDC\r\n    //2-USDT\r\n    function calcRptAmount(uint256 amount,uint _index) public view returns(uint256) {\r\n        uint256 total = calculateTotalToken(true);\r\n        uint256 decimal = 0;\r\n        decimal=tokens[_index].decimals();\r\n        amount=amount.mul(1e18).div(10**decimal);\r\n        if(total==0){\r\n            return amount;\r\n        }\r\n        else{\r\n          return (amount.mul(rpToken.totalSupply()).div(total)); \r\n        }\r\n    }\r\n\r\n\r\n\r\n    //function to check available amount to withdraw for user\r\n    function availableLiquidity(address addr, uint coin,bool _time) public view returns(uint256 token,uint256 RPT) {\r\n        uint256 amount=0;\r\n        for(uint8 j=0; j<amountSupplied[addr].length; j++) {\r\n                if( (!_time || (now - amountSupplied[addr][j].time)  > lock_period)&&amountSupplied[addr][j].remAmt >0)   {\r\n                        amount =amount.add(amountSupplied[addr][j].remAmt);\r\n                }\r\n        }\r\n        for(uint8 i=0;i<3;i++){\r\n            amount =amount.sub(amountBurnt[addr][i]);\r\n        }\r\n        uint256 total=calculateTotalToken(true);\r\n        uint256 decimal;\r\n        decimal=tokens[coin].decimals();\r\n        return ((amount.mul(total).mul(10**decimal).div(rpToken.totalSupply())).div(10**18),amount);\r\n    }\r\n    \r\n\r\n    //calculated available total tokens in the pool by substracting withdrawal, reserve amount.\r\n    //In case supply is true , it adds total loan given.\r\n    function calculateTotalToken(bool _supply)public view returns(uint256){\r\n        uint256 decimal;\r\n        uint withdrawTotal;\r\n        uint reserveTotal;\r\n       \r\n        for(uint8 i=0; i<3; i++) {\r\n            decimal = tokens[i].decimals();\r\n            withdrawTotal=withdrawTotal.add(totalWithdraw[i].mul(1e18).div(10**decimal));\r\n            reserveTotal=reserveTotal.add(reserveAmount[i].mul(1e18).div(10**decimal));\r\n        } \r\n        if(_supply){\r\n            return selfBalance.sub(withdrawTotal).sub(reserveTotal).add(loanGiven);\r\n        }\r\n        else{\r\n            return selfBalance.sub(withdrawTotal).sub(reserveTotal);\r\n        }\r\n        \r\n    }\r\n    \r\n    /* USER FUNCTIONS (exposed to frontend) */\r\n   \r\n    //For depositing liquidity to the pool.\r\n    //_index will be 0/1/2     0-DAI , 1-USDC , 2-USDT\r\n    function supply(uint256 amount,uint256 _index) external nonReentrant  validAmount(amount){\r\n        \r\n        uint decimal;\r\n        uint256 mintAmount=calcRptAmount(amount,_index);\r\n        amountSupplied[msg.sender].push(depositDetails(_index,amount,now,mintAmount));\r\n        decimal=tokens[_index].decimals();\r\n        selfBalance=selfBalance.add(amount.mul(10**18).div(10**decimal));\r\n        tokens[_index].safeTransferFrom(msg.sender, address(this), amount);\r\n        rpToken.mint(msg.sender, mintAmount);\r\n        emit userSupplied(msg.sender, amount);\r\n    }\r\n\r\n    \r\n    //for withdrawing the liquidity\r\n    //First Parameter is amount of RPT\r\n    //Second is which token to be withdrawal with this RPT.\r\n    function requestWithdrawWithRPT(uint256 amount,uint256 _index) external nonReentrant validAmount(amount){\r\n        require(!reserveRecipients[msg.sender],\"Claim first\");\r\n        require(rpToken.balanceOf(msg.sender) >= amount, \"low RPT\");\r\n        (,uint availableRPT)=availableLiquidity(msg.sender,_index,true );\r\n        bool instant=true;\r\n         if(availableRPT < amount) {\r\n             instant=false;\r\n        }\r\n        require(instant,\"NA\");\r\n        uint256 total = calculateTotalToken(true);\r\n        uint256 tokenAmount;\r\n        tokenAmount=amount.mul(total).div(rpToken.totalSupply());\r\n        require(tokenAmount <= calculateTotalToken(false),\"Not Enough Pool balance\");\r\n        uint decimal;\r\n        decimal=tokens[_index].decimals();\r\n        checkWithdraw(tokenAmount.mul(10**decimal).div(10**18),amount,_index);  \r\n    }\r\n    \r\n    //For claiming withdrawal after user added to the reserve recipient.\r\n    function claimTokens() external  nonReentrant{\r\n        require(reserveRecipients[msg.sender] , \"request withdraw first\");\r\n        \r\n        uint totalBurnt;\r\n        uint decimal;\r\n        for(uint8 i=0; i<3; i++) {\r\n            if(amountWithdraw[msg.sender][i] > 0) {\r\n                decimal=tokens[i].decimals();\r\n                uint temp = amountWithdraw[msg.sender][i].sub((amountWithdraw[msg.sender][i].mul(fees)).div(DENOMINATOR));\r\n                reserveAmount[i] =reserveAmount[i].sub(amountWithdraw[msg.sender][i]);\r\n                selfBalance = selfBalance.sub(temp.mul(1e18).div(10**decimal));\r\n                totalBurnt =totalBurnt.add(amountBurnt[msg.sender][i]);\r\n                amountWithdraw[msg.sender][i] = 0;\r\n                amountBurnt[msg.sender][i]=0;\r\n                tokens[i].safeTransfer(msg.sender,  temp);\r\n                emit userRecieved(msg.sender,temp);\r\n            }\r\n        }\r\n        updateLockedRPT(msg.sender,totalBurnt);\r\n        reserveRecipients[msg.sender] = false;\r\n    }\r\n\r\n\r\n    // this function deposits without minting RPT.\r\n    //Used to deposit Yield\r\n    function depositYield(uint256 amount,uint _index) external{\r\n        uint decimal;\r\n        decimal=tokens[_index].decimals();\r\n        selfBalance=selfBalance.add(amount.mul(1e18).div(10**decimal));\r\n        liquidityProvidersAPY=liquidityProvidersAPY.add(amount.mul(1e18).div(10**decimal));\r\n        tokens[_index].safeTransferFrom(msg.sender,address(this),amount);\r\n        emit yieldAdded(amount);\r\n    }\r\n\r\n\r\n    /* CORE FUNCTIONS (called by owner only) */\r\n\r\n    //Transfer token to rStrategy by maintaining pool ratio.\r\n    function deposit() onlyWallet() external  {\r\n        uint256[3] memory amounts;\r\n        uint256 totalAmount;\r\n        uint256 decimal;\r\n        totalAmount=calculateTotalToken(false);\r\n        uint balanceAmount=totalAmount.mul(poolPart.div(3)).div(DENOMINATOR);\r\n        uint tokenBalance;\r\n        for(uint8 i=0;i<3;i++){\r\n            decimal=tokens[i].decimals();\r\n            amounts[i]=getBalances(i);\r\n            tokenBalance=balanceAmount.mul(10**decimal).div(10**18);\r\n            if(amounts[i]>tokenBalance){\r\n                amounts[i]=amounts[i].sub(tokenBalance);\r\n                tokens[i].safeTransfer(address(strategy),amounts[i]);\r\n            }\r\n            else{\r\n                amounts[i]=0;\r\n            }\r\n        }\r\n        if(checkValidArray(amounts)){\r\n            _deposit(amounts);\r\n        }\r\n    }\r\n    \r\n\r\n    //Withdraw from Yield genaration pool.\r\n    function withdraw() onlyWallet() external  {\r\n        require(checkValidArray(totalWithdraw), \"queue empty\");\r\n        _withdraw(totalWithdraw);\r\n        updateWithdrawQueue();\r\n    }\r\n\r\n   //Withdraw total liquidity from yield generation pool\r\n    function withdrawAll() external onlyWallet() {\r\n        uint[3] memory amounts;\r\n        amounts=strategy.withdrawAll();\r\n        uint decimal;\r\n        selfBalance=0;\r\n        for(uint8 i=0;i<3;i++){\r\n            decimal=tokens[i].decimals();\r\n            selfBalance=selfBalance.add((tokens[i].balanceOf(address(this))).mul(1e18).div(10**decimal));\r\n        }\r\n        YieldPoolBalance=0;\r\n        updateWithdrawQueue();\r\n    }\r\n\r\n\r\n    //function for rebalancing royale pool(ratio)      \r\n    function rebalance() onlyWallet() external {\r\n        uint256 currentAmount;\r\n        uint256[3] memory amountToWithdraw;\r\n        uint256[3] memory amountToDeposit;\r\n        uint totalAmount;\r\n        uint256 decimal;\r\n        totalAmount=calculateTotalToken(false);\r\n        uint balanceAmount=totalAmount.mul(poolPart.div(3)).div(DENOMINATOR);\r\n        uint tokenBalance;\r\n        for(uint8 i=0;i<3;i++) {\r\n           currentAmount=getBalances(i);\r\n           decimal=tokens[i].decimals();\r\n           tokenBalance=balanceAmount.mul(10**decimal).div(10**18);\r\n           if(tokenBalance > currentAmount) {\r\n              amountToWithdraw[i] = tokenBalance.sub(currentAmount);\r\n           }\r\n           else if(tokenBalance < currentAmount) {\r\n               amountToDeposit[i] = currentAmount.sub(tokenBalance);\r\n               tokens[i].safeTransfer(address(strategy), amountToDeposit[i]);\r\n               \r\n           }\r\n           else {\r\n               amountToWithdraw[i] = 0;\r\n               amountToDeposit[i] = 0;\r\n           }\r\n        }\r\n        if(checkValidArray(amountToDeposit)){\r\n             _deposit(amountToDeposit);\r\n             \r\n        }\r\n        if(checkValidArray(amountToWithdraw)) {\r\n            _withdraw(amountToWithdraw);\r\n            \r\n        }\r\n\r\n    }\r\n    \r\n    //For withdrawing loan from the royale Pool\r\n    function withdrawLoan(uint[3] memory amounts,address _recipient)external onlyWallet(){\r\n        require(checkValidArray(amounts),\"amount can not zero\");\r\n        uint decimal;\r\n        uint total;\r\n        for(uint i=0;i<3;i++){\r\n           decimal=tokens[i].decimals();\r\n           total=total.add(amounts[i].mul(1e18).div(10**decimal));\r\n        }\r\n        require(total<calculateTotalToken(false),\"Not enough balance\");\r\n        _withdraw(amounts);\r\n        loanGiven =loanGiven.add(total);\r\n        selfBalance=selfBalance.sub(total);\r\n        for(uint8 i=0; i<3; i++) {\r\n            if(amounts[i] > 0) {\r\n                tokens[i].safeTransfer(_recipient, amounts[i]);\r\n            }\r\n        }\r\n        \r\n    }\r\n    \r\n   // For repaying the loan to the royale Pool.\r\n    function repayLoan(uint[3] memory amounts)external {\r\n        require(checkValidArray(amounts),\"amount can't be zero\");\r\n        uint decimal;\r\n        for(uint8 i=0; i<3; i++) {\r\n            if(amounts[i] > 0) {\r\n                decimal=tokens[i].decimals();\r\n                loanGiven =loanGiven.sub(amounts[i].mul(1e18).div(10**decimal));\r\n                selfBalance=selfBalance.add(amounts[i].mul(1e18).div(10**decimal));\r\n                tokens[i].safeTransferFrom(msg.sender,address(this),amounts[i]);\r\n            }\r\n        }\r\n    }\r\n    \r\n\r\n    //for changing pool ratio\r\n    function changePoolPart(uint128 _newPoolPart) external onlyWallet()  {\r\n        poolPart = _newPoolPart;\r\n        \r\n    }\r\n\r\n   //For changing yield Strategy\r\n    function changeStrategy(address _strategy) onlyWallet() external  {\r\n        for(uint8 i=0;i<3;i++){\r\n            require(YieldPoolBalance==0, \"Call withdrawAll function first\");\r\n        } \r\n        strategy=rStrategy(_strategy);\r\n        \r\n    }\r\n\r\n    function setLockPeriod(uint256 lockperiod) onlyWallet() external  {\r\n        lock_period = lockperiod;\r\n        \r\n    }\r\n\r\n     // for changing withdrawal fees  \r\n    function setWithdrawFees(uint128 _fees) onlyWallet() external {\r\n        fees = _fees;\r\n\r\n    }\r\n\r\n    function transferAllFunds(address _address)external onlyWallet(){\r\n        selfBalance=0;\r\n        for(uint8 i=0;i<3;i++){\r\n            tokens[i].safeTransfer(_address,tokens[i].balanceOf(address(this)));\r\n        }\r\n    }   \r\n    \r\n    function getBalances(uint _index) public view returns(uint256) {\r\n        return (tokens[_index].balanceOf(address(this)).sub(reserveAmount[_index]));\r\n    }\r\n}",
  "sourcePath": "C:/Users/vishn/OneDrive/Desktop/RoyaleProject/RoyaleFinance/royale-contracts/contracts/Pool/RoyaleLP.sol",
  "compiler": {
    "name": "solc",
    "version": "0.6.12+commit.27d51765.Emscripten.clang"
  },
  "schemaVersion": "3.3.2",
  "updatedAt": "2021-03-15T07:02:52.392Z",
  "devdoc": {
    "kind": "dev",
    "methods": {},
    "version": 1
  },
  "userdoc": {
    "kind": "user",
    "methods": {},
    "version": 1
  }
}