{
  "contractName": "RoyaleLP",
  "abi": [
    {
      "inputs": [
        {
          "internalType": "address[3]",
          "name": "_tokens",
          "type": "address[3]"
        },
        {
          "internalType": "address",
          "name": "_rpToken",
          "type": "address"
        },
        {
          "internalType": "address",
          "name": "_wallet",
          "type": "address"
        }
      ],
      "stateMutability": "nonpayable",
      "type": "constructor"
    },
    {
      "anonymous": false,
      "inputs": [
        {
          "indexed": false,
          "internalType": "address",
          "name": "user",
          "type": "address"
        },
        {
          "indexed": false,
          "internalType": "uint256",
          "name": "amount",
          "type": "uint256"
        }
      ],
      "name": "userAddedToQ",
      "type": "event"
    },
    {
      "anonymous": false,
      "inputs": [
        {
          "indexed": false,
          "internalType": "address",
          "name": "user",
          "type": "address"
        },
        {
          "indexed": false,
          "internalType": "uint256",
          "name": "amount",
          "type": "uint256"
        }
      ],
      "name": "userRecieved",
      "type": "event"
    },
    {
      "anonymous": false,
      "inputs": [
        {
          "indexed": false,
          "internalType": "address",
          "name": "user",
          "type": "address"
        },
        {
          "indexed": false,
          "internalType": "uint256",
          "name": "amount",
          "type": "uint256"
        }
      ],
      "name": "userSupplied",
      "type": "event"
    },
    {
      "anonymous": false,
      "inputs": [
        {
          "indexed": false,
          "internalType": "uint256",
          "name": "amount",
          "type": "uint256"
        }
      ],
      "name": "yieldAdded",
      "type": "event"
    },
    {
      "inputs": [],
      "name": "DENOMINATOR",
      "outputs": [
        {
          "internalType": "uint256",
          "name": "",
          "type": "uint256"
        }
      ],
      "stateMutability": "view",
      "type": "function"
    },
    {
      "inputs": [],
      "name": "YieldPoolBalance",
      "outputs": [
        {
          "internalType": "uint256",
          "name": "",
          "type": "uint256"
        }
      ],
      "stateMutability": "view",
      "type": "function"
    },
    {
      "inputs": [
        {
          "internalType": "address",
          "name": "",
          "type": "address"
        },
        {
          "internalType": "uint256",
          "name": "",
          "type": "uint256"
        }
      ],
      "name": "amountBurnt",
      "outputs": [
        {
          "internalType": "uint256",
          "name": "",
          "type": "uint256"
        }
      ],
      "stateMutability": "view",
      "type": "function"
    },
    {
      "inputs": [
        {
          "internalType": "address",
          "name": "",
          "type": "address"
        },
        {
          "internalType": "uint256",
          "name": "",
          "type": "uint256"
        }
      ],
      "name": "amountSupplied",
      "outputs": [
        {
          "internalType": "uint256",
          "name": "index",
          "type": "uint256"
        },
        {
          "internalType": "uint256",
          "name": "amount",
          "type": "uint256"
        },
        {
          "internalType": "uint256",
          "name": "time",
          "type": "uint256"
        },
        {
          "internalType": "uint256",
          "name": "remAmt",
          "type": "uint256"
        }
      ],
      "stateMutability": "view",
      "type": "function"
    },
    {
      "inputs": [
        {
          "internalType": "address",
          "name": "",
          "type": "address"
        },
        {
          "internalType": "uint256",
          "name": "",
          "type": "uint256"
        }
      ],
      "name": "amountWithdraw",
      "outputs": [
        {
          "internalType": "uint256",
          "name": "",
          "type": "uint256"
        }
      ],
      "stateMutability": "view",
      "type": "function"
    },
    {
      "inputs": [],
      "name": "fees",
      "outputs": [
        {
          "internalType": "uint128",
          "name": "",
          "type": "uint128"
        }
      ],
      "stateMutability": "view",
      "type": "function"
    },
    {
      "inputs": [
        {
          "internalType": "address",
          "name": "",
          "type": "address"
        }
      ],
      "name": "isInQ",
      "outputs": [
        {
          "internalType": "bool",
          "name": "",
          "type": "bool"
        }
      ],
      "stateMutability": "view",
      "type": "function"
    },
    {
      "inputs": [],
      "name": "liquidityProvidersAPY",
      "outputs": [
        {
          "internalType": "uint256",
          "name": "",
          "type": "uint256"
        }
      ],
      "stateMutability": "view",
      "type": "function"
    },
    {
      "inputs": [],
      "name": "loanGiven",
      "outputs": [
        {
          "internalType": "uint256",
          "name": "",
          "type": "uint256"
        }
      ],
      "stateMutability": "view",
      "type": "function"
    },
    {
      "inputs": [],
      "name": "loanPart",
      "outputs": [
        {
          "internalType": "uint256",
          "name": "",
          "type": "uint256"
        }
      ],
      "stateMutability": "view",
      "type": "function"
    },
    {
      "inputs": [],
      "name": "lock_period",
      "outputs": [
        {
          "internalType": "uint256",
          "name": "",
          "type": "uint256"
        }
      ],
      "stateMutability": "view",
      "type": "function"
    },
    {
      "inputs": [],
      "name": "poolPart",
      "outputs": [
        {
          "internalType": "uint256",
          "name": "",
          "type": "uint256"
        }
      ],
      "stateMutability": "view",
      "type": "function"
    },
    {
      "inputs": [
        {
          "internalType": "uint256",
          "name": "",
          "type": "uint256"
        }
      ],
      "name": "reserveAmount",
      "outputs": [
        {
          "internalType": "uint256",
          "name": "",
          "type": "uint256"
        }
      ],
      "stateMutability": "view",
      "type": "function"
    },
    {
      "inputs": [
        {
          "internalType": "address",
          "name": "",
          "type": "address"
        }
      ],
      "name": "reserveRecipients",
      "outputs": [
        {
          "internalType": "bool",
          "name": "",
          "type": "bool"
        }
      ],
      "stateMutability": "view",
      "type": "function"
    },
    {
      "inputs": [],
      "name": "rpToken",
      "outputs": [
        {
          "internalType": "contract IERC20",
          "name": "",
          "type": "address"
        }
      ],
      "stateMutability": "view",
      "type": "function"
    },
    {
      "inputs": [],
      "name": "selfBalance",
      "outputs": [
        {
          "internalType": "uint256",
          "name": "",
          "type": "uint256"
        }
      ],
      "stateMutability": "view",
      "type": "function"
    },
    {
      "inputs": [],
      "name": "strategy",
      "outputs": [
        {
          "internalType": "contract rStrategy",
          "name": "",
          "type": "address"
        }
      ],
      "stateMutability": "view",
      "type": "function"
    },
    {
      "inputs": [
        {
          "internalType": "uint256",
          "name": "",
          "type": "uint256"
        }
      ],
      "name": "tokens",
      "outputs": [
        {
          "internalType": "contract IERC20",
          "name": "",
          "type": "address"
        }
      ],
      "stateMutability": "view",
      "type": "function"
    },
    {
      "inputs": [
        {
          "internalType": "uint256",
          "name": "",
          "type": "uint256"
        }
      ],
      "name": "totalWithdraw",
      "outputs": [
        {
          "internalType": "uint256",
          "name": "",
          "type": "uint256"
        }
      ],
      "stateMutability": "view",
      "type": "function"
    },
    {
      "inputs": [],
      "name": "wallet",
      "outputs": [
        {
          "internalType": "address",
          "name": "",
          "type": "address"
        }
      ],
      "stateMutability": "view",
      "type": "function"
    },
    {
      "inputs": [
        {
          "internalType": "uint256",
          "name": "",
          "type": "uint256"
        }
      ],
      "name": "withdrawRecipients",
      "outputs": [
        {
          "internalType": "address",
          "name": "",
          "type": "address"
        }
      ],
      "stateMutability": "view",
      "type": "function"
    },
    {
      "inputs": [
        {
          "internalType": "address",
          "name": "_wallet",
          "type": "address"
        }
      ],
      "name": "transferOwnership",
      "outputs": [],
      "stateMutability": "nonpayable",
      "type": "function"
    },
    {
      "inputs": [
        {
          "internalType": "uint256",
          "name": "amount",
          "type": "uint256"
        },
        {
          "internalType": "uint256",
          "name": "_index",
          "type": "uint256"
        }
      ],
      "name": "calcRptAmount",
      "outputs": [
        {
          "internalType": "uint256",
          "name": "",
          "type": "uint256"
        }
      ],
      "stateMutability": "view",
      "type": "function"
    },
    {
      "inputs": [
        {
          "internalType": "address",
          "name": "addr",
          "type": "address"
        },
        {
          "internalType": "uint256",
          "name": "coin",
          "type": "uint256"
        },
        {
          "internalType": "bool",
          "name": "_time",
          "type": "bool"
        }
      ],
      "name": "availableLiquidity",
      "outputs": [
        {
          "internalType": "uint256",
          "name": "token",
          "type": "uint256"
        },
        {
          "internalType": "uint256",
          "name": "RPT",
          "type": "uint256"
        }
      ],
      "stateMutability": "view",
      "type": "function"
    },
    {
      "inputs": [
        {
          "internalType": "bool",
          "name": "_supply",
          "type": "bool"
        }
      ],
      "name": "calculateTotalToken",
      "outputs": [
        {
          "internalType": "uint256",
          "name": "",
          "type": "uint256"
        }
      ],
      "stateMutability": "view",
      "type": "function"
    },
    {
      "inputs": [
        {
          "internalType": "uint256",
          "name": "amount",
          "type": "uint256"
        },
        {
          "internalType": "uint256",
          "name": "_index",
          "type": "uint256"
        }
      ],
      "name": "supply",
      "outputs": [],
      "stateMutability": "nonpayable",
      "type": "function"
    },
    {
      "inputs": [
        {
          "internalType": "uint256",
          "name": "amount",
          "type": "uint256"
        },
        {
          "internalType": "uint256",
          "name": "_index",
          "type": "uint256"
        }
      ],
      "name": "requestWithdrawWithRPT",
      "outputs": [],
      "stateMutability": "nonpayable",
      "type": "function"
    },
    {
      "inputs": [],
      "name": "claimTokens",
      "outputs": [],
      "stateMutability": "nonpayable",
      "type": "function"
    },
    {
      "inputs": [
        {
          "internalType": "uint256",
          "name": "amount",
          "type": "uint256"
        },
        {
          "internalType": "uint256",
          "name": "_index",
          "type": "uint256"
        }
      ],
      "name": "depositYield",
      "outputs": [],
      "stateMutability": "nonpayable",
      "type": "function"
    },
    {
      "inputs": [],
      "name": "deposit",
      "outputs": [],
      "stateMutability": "nonpayable",
      "type": "function"
    },
    {
      "inputs": [],
      "name": "withdraw",
      "outputs": [],
      "stateMutability": "nonpayable",
      "type": "function"
    },
    {
      "inputs": [],
      "name": "withdrawAll",
      "outputs": [],
      "stateMutability": "nonpayable",
      "type": "function"
    },
    {
      "inputs": [],
      "name": "rebalance",
      "outputs": [],
      "stateMutability": "nonpayable",
      "type": "function"
    },
    {
      "inputs": [
        {
          "internalType": "uint256[3]",
          "name": "amounts",
          "type": "uint256[3]"
        },
        {
          "internalType": "address",
          "name": "_recipient",
          "type": "address"
        }
      ],
      "name": "withdrawLoan",
      "outputs": [],
      "stateMutability": "nonpayable",
      "type": "function"
    },
    {
      "inputs": [
        {
          "internalType": "uint256[3]",
          "name": "amounts",
          "type": "uint256[3]"
        }
      ],
      "name": "repayLoan",
      "outputs": [],
      "stateMutability": "nonpayable",
      "type": "function"
    },
    {
      "inputs": [
        {
          "internalType": "uint128",
          "name": "_newPoolPart",
          "type": "uint128"
        }
      ],
      "name": "changePoolPart",
      "outputs": [],
      "stateMutability": "nonpayable",
      "type": "function"
    },
    {
      "inputs": [
        {
          "internalType": "address",
          "name": "_strategy",
          "type": "address"
        }
      ],
      "name": "changeStrategy",
      "outputs": [],
      "stateMutability": "nonpayable",
      "type": "function"
    },
    {
      "inputs": [
        {
          "internalType": "uint256",
          "name": "lockperiod",
          "type": "uint256"
        }
      ],
      "name": "setLockPeriod",
      "outputs": [],
      "stateMutability": "nonpayable",
      "type": "function"
    },
    {
      "inputs": [
        {
          "internalType": "uint128",
          "name": "_fees",
          "type": "uint128"
        }
      ],
      "name": "setWithdrawFees",
      "outputs": [],
      "stateMutability": "nonpayable",
      "type": "function"
    },
    {
      "inputs": [
        {
          "internalType": "uint256",
          "name": "_value",
          "type": "uint256"
        }
      ],
      "name": "changeLoanPart",
      "outputs": [],
      "stateMutability": "nonpayable",
      "type": "function"
    },
    {
      "inputs": [
        {
          "internalType": "uint256",
          "name": "_index",
          "type": "uint256"
        }
      ],
      "name": "getBalances",
      "outputs": [
        {
          "internalType": "uint256",
          "name": "",
          "type": "uint256"
        }
      ],
      "stateMutability": "view",
      "type": "function"
    }
  ],
  "bytecode": "0x60806040526019600160006101000a8154816fffffffffffffffffffffffffffffffff02191690836fffffffffffffffffffffffffffffffff1602179055506102ee600255603c600c556107d0601a553480156200005c57600080fd5b50604051620061bc380380620061bc83398181016040528101906200008291906200022e565b600160008190555060005b60038160ff1610156200010d57838160ff1660038110620000aa57fe5b602002015160048260ff1660038110620000c057fe5b0160006101000a81548173ffffffffffffffffffffffffffffffffffffffff021916908373ffffffffffffffffffffffffffffffffffffffff16021790555080806001019150506200008d565b5081600760006101000a81548173ffffffffffffffffffffffffffffffffffffffff021916908373ffffffffffffffffffffffffffffffffffffffff16021790555080600960006101000a81548173ffffffffffffffffffffffffffffffffffffffff021916908373ffffffffffffffffffffffffffffffffffffffff16021790555050505062000323565b600081519050620001aa8162000309565b92915050565b600082601f830112620001c257600080fd5b6003620001d9620001d382620002b2565b62000284565b91508183856020840282011115620001f057600080fd5b60005b8381101562000224578162000209888262000199565b845260208401935060208301925050600181019050620001f3565b5050505092915050565b600080600060a084860312156200024457600080fd5b60006200025486828701620001b0565b9350506060620002678682870162000199565b92505060806200027a8682870162000199565b9150509250925092565b6000604051905081810181811067ffffffffffffffff82111715620002a857600080fd5b8060405250919050565b600067ffffffffffffffff821115620002ca57600080fd5b602082029050919050565b6000620002e282620002e9565b9050919050565b600073ffffffffffffffffffffffffffffffffffffffff82169050919050565b6200031481620002d5565b81146200032057600080fd5b50565b615e8980620003336000396000f3fe608060405234801561001057600080fd5b50600436106102535760003560e01c8063905f692e11610146578063c23177b2116100c3578063dcd365ca11610087578063dcd365ca146106c5578063de449839146106e1578063df7ce7e414610712578063f0dd71c714610730578063f2fde38b14610760578063f83e9a201461077c57610253565b8063c23177b21461060c578063c6b93df71461063f578063d0e30db01461066f578063daecfa6c14610679578063db28bfd01461069557610253565b8063a70200bd1161010a578063a70200bd14610554578063a8c62e7614610570578063ad6abb0c1461058e578063b0bed0ba146105be578063bf4b136b146105dc57610253565b8063905f692e146104b0578063918f8674146104e057806393f9c552146104fe5780639af1d35a1461051a578063a0df58081461053857610253565b80635cd60cd1116101d45780637d7c2a1c116101985780637d7c2a1c14610432578063853828b61461043c578063876171dc146104465780638d330510146104765780638e9b03261461049257610253565b80635cd60cd1146103905780636b9f1ef6146103c0578063779972da146103dc5780637861dae0146103f85780637a9024bd1461041657610253565b8063449deb6b1161021b578063449deb6b146102d857806348c54b9d14610308578063490adbaf146103125780634f64b2be14610342578063521eb2731461037257610253565b80630100a56b1461025857806315816bac1461027657806325340b8c146102925780633ccfd60b146102b057806342f1bd5d146102ba575b600080fd5b61026061079a565b60405161026d9190615b76565b60405180910390f35b610290600480360381019061028b919061510f565b6107a0565b005b61029a61097e565b6040516102a79190615b76565b60405180910390f35b6102b8610984565b005b6102c2610ae9565b6040516102cf91906158c3565b60405180910390f35b6102f260048036038101906102ed9190614f00565b610b0f565b6040516102ff91906158a8565b60405180910390f35b610310610b2f565b005b61032c600480360381019061032791906150bd565b61111e565b6040516103399190615b76565b60405180910390f35b61035c600480360381019061035791906150bd565b6111fe565b60405161036991906158c3565b60405180910390f35b61037a611231565b60405161038791906157ce565b60405180910390f35b6103aa60048036038101906103a59190614f29565b611257565b6040516103b79190615b76565b60405180910390f35b6103da60048036038101906103d59190615094565b61127c565b005b6103f660048036038101906103f191906150bd565b611348565b005b6104006113e2565b60405161040d9190615b76565b60405180910390f35b610430600480360381019061042b9190614f00565b6113e8565b005b61043a61151e565b005b610444611895565b005b610460600480360381019061045b91906150bd565b611bc2565b60405161046d91906157ce565b60405180910390f35b610490600480360381019061048b91906150bd565b611bfe565b005b61049a611c98565b6040516104a79190615b76565b60405180910390f35b6104ca60048036038101906104c59190614f00565b611c9e565b6040516104d791906158a8565b60405180910390f35b6104e8611cbe565b6040516104f59190615b76565b60405180910390f35b6105186004803603810190610513919061510f565b611cc4565b005b610522612155565b60405161052f9190615b5b565b60405180910390f35b610552600480360381019061054d9190614fb4565b612177565b005b61056e60048036038101906105699190615094565b6123e1565b005b61057861248d565b60405161058591906158de565b60405180910390f35b6105a860048036038101906105a39190615042565b6124b3565b6040516105b59190615b76565b60405180910390f35b6105c66126b1565b6040516105d39190615b76565b60405180910390f35b6105f660048036038101906105f1919061510f565b6126b7565b6040516106039190615b76565b60405180910390f35b61062660048036038101906106219190614f29565b61288d565b6040516106369493929190615bba565b60405180910390f35b61065960048036038101906106549190614f29565b6128d7565b6040516106669190615b76565b60405180910390f35b6106776128fc565b005b610693600480360381019061068e919061510f565b612c38565b005b6106af60048036038101906106aa91906150bd565b612fb9565b6040516106bc9190615b76565b60405180910390f35b6106df60048036038101906106da9190615006565b612fd1565b005b6106fb60048036038101906106f69190614f65565b61338c565b604051610709929190615b91565b60405180910390f35b61071a613783565b6040516107279190615b76565b60405180910390f35b61074a600480360381019061074591906150bd565b613789565b6040516107579190615b76565b60405180910390f35b61077a60048036038101906107759190614f00565b6137a1565b005b610784613875565b6040516107919190615b76565b60405180910390f35b60195481565b6000600482600381106107af57fe5b0160009054906101000a900473ffffffffffffffffffffffffffffffffffffffff1673ffffffffffffffffffffffffffffffffffffffff1663313ce5676040518163ffffffff1660e01b815260040160206040518083038186803b15801561081657600080fd5b505afa15801561082a573d6000803e3d6000fd5b505050506040513d601f19601f8201168201806040525081019061084e919061514b565b60ff16905061089761088682600a0a610878670de0b6b3a76400008761387b90919063ffffffff16565b6138eb90919063ffffffff16565b60035461393590919063ffffffff16565b6003819055506108e16108d082600a0a6108c2670de0b6b3a76400008761387b90919063ffffffff16565b6138eb90919063ffffffff16565b600b5461393590919063ffffffff16565b600b81905550610942333085600486600381106108fa57fe5b0160009054906101000a900473ffffffffffffffffffffffffffffffffffffffff1673ffffffffffffffffffffffffffffffffffffffff1661398a909392919063ffffffff16565b7f8cbefaa4ed0c313ed463d26507393594f877789e4460ad45affda6e4638dc6c1836040516109719190615b76565b60405180910390a1505050565b600a5481565b3373ffffffffffffffffffffffffffffffffffffffff16600960009054906101000a900473ffffffffffffffffffffffffffffffffffffffff1673ffffffffffffffffffffffffffffffffffffffff1614610a14576040517f08c379a0000000000000000000000000000000000000000000000000000000008152600401610a0b90615a5b565b60405180910390fd5b610a5a6012600380602002604051908101604052809291908260038015610a50576020028201915b815481526020019060010190808311610a3c575b5050505050613a13565b610a99576040517f08c379a0000000000000000000000000000000000000000000000000000000008152600401610a90906159db565b60405180910390fd5b610adf6012600380602002604051908101604052809291908260038015610ad5576020028201915b815481526020019060010190808311610ac1575b5050505050613a65565b610ae7613c29565b565b600760009054906101000a900473ffffffffffffffffffffffffffffffffffffffff1681565b60186020528060005260406000206000915054906101000a900460ff1681565b60026000541415610b75576040517f08c379a0000000000000000000000000000000000000000000000000000000008152600401610b6c90615b1b565b60405180910390fd5b6002600081905550601860003373ffffffffffffffffffffffffffffffffffffffff1673ffffffffffffffffffffffffffffffffffffffff16815260200190815260200160002060009054906101000a900460ff16610c09576040517f08c379a0000000000000000000000000000000000000000000000000000000008152600401610c009061591b565b60405180910390fd5b60008060005b60038160ff1610156110af576000600e60003373ffffffffffffffffffffffffffffffffffffffff1673ffffffffffffffffffffffffffffffffffffffff1681526020019081526020016000208260ff1660038110610c6a57fe5b015411156110a25760048160ff1660038110610c8257fe5b0160009054906101000a900473ffffffffffffffffffffffffffffffffffffffff1673ffffffffffffffffffffffffffffffffffffffff1663313ce5676040518163ffffffff1660e01b815260040160206040518083038186803b158015610ce957600080fd5b505afa158015610cfd573d6000803e3d6000fd5b505050506040513d601f19601f82011682018060405250810190610d21919061514b565b60ff1691506000610e2d610dd0612710610dc2600160009054906101000a90046fffffffffffffffffffffffffffffffff166fffffffffffffffffffffffffffffffff16600e60003373ffffffffffffffffffffffffffffffffffffffff1673ffffffffffffffffffffffffffffffffffffffff1681526020019081526020016000208760ff1660038110610db257fe5b015461387b90919063ffffffff16565b6138eb90919063ffffffff16565b600e60003373ffffffffffffffffffffffffffffffffffffffff1673ffffffffffffffffffffffffffffffffffffffff1681526020019081526020016000208460ff1660038110610e1d57fe5b0154613e4990919063ffffffff16565b9050610ea1600e60003373ffffffffffffffffffffffffffffffffffffffff1673ffffffffffffffffffffffffffffffffffffffff1681526020019081526020016000208360ff1660038110610e7f57fe5b015460158460ff1660038110610e9157fe5b0154613e4990919063ffffffff16565b60158360ff1660038110610eb157fe5b0181905550610efa610ee984600a0a610edb670de0b6b3a76400008561387b90919063ffffffff16565b6138eb90919063ffffffff16565b600354613e4990919063ffffffff16565b600381905550610f61600f60003373ffffffffffffffffffffffffffffffffffffffff1673ffffffffffffffffffffffffffffffffffffffff1681526020019081526020016000208360ff1660038110610f5057fe5b01548561393590919063ffffffff16565b93506000600e60003373ffffffffffffffffffffffffffffffffffffffff1673ffffffffffffffffffffffffffffffffffffffff1681526020019081526020016000208360ff1660038110610fb257fe5b01819055506000600f60003373ffffffffffffffffffffffffffffffffffffffff1673ffffffffffffffffffffffffffffffffffffffff1681526020019081526020016000208360ff166003811061100657fe5b0181905550611067338260048560ff166003811061102057fe5b0160009054906101000a900473ffffffffffffffffffffffffffffffffffffffff1673ffffffffffffffffffffffffffffffffffffffff16613e939092919063ffffffff16565b7f8b46652782c1a94bd1f1e050f62dea3a99b7fe20520c003e111624847230d4fe3382604051611098929190615804565b60405180910390a1505b8080600101915050610c0f565b506110ba3383613f19565b6000601860003373ffffffffffffffffffffffffffffffffffffffff1673ffffffffffffffffffffffffffffffffffffffff16815260200190815260200160002060006101000a81548160ff02191690831515021790555050506001600081905550565b60006111f76015836003811061113057fe5b01546004846003811061113f57fe5b0160009054906101000a900473ffffffffffffffffffffffffffffffffffffffff1673ffffffffffffffffffffffffffffffffffffffff166370a08231306040518263ffffffff1660e01b815260040161119991906157ce565b60206040518083038186803b1580156111b157600080fd5b505afa1580156111c5573d6000803e3d6000fd5b505050506040513d601f19601f820116820180604052508101906111e991906150e6565b613e4990919063ffffffff16565b9050919050565b6004816003811061120b57fe5b016000915054906101000a900473ffffffffffffffffffffffffffffffffffffffff1681565b600960009054906101000a900473ffffffffffffffffffffffffffffffffffffffff1681565b600e602052816000526040600020816003811061127057fe5b01600091509150505481565b3373ffffffffffffffffffffffffffffffffffffffff16600960009054906101000a900473ffffffffffffffffffffffffffffffffffffffff1673ffffffffffffffffffffffffffffffffffffffff161461130c576040517f08c379a000000000000000000000000000000000000000000000000000000000815260040161130390615a5b565b60405180910390fd5b80600160006101000a8154816fffffffffffffffffffffffffffffffff02191690836fffffffffffffffffffffffffffffffff16021790555050565b3373ffffffffffffffffffffffffffffffffffffffff16600960009054906101000a900473ffffffffffffffffffffffffffffffffffffffff1673ffffffffffffffffffffffffffffffffffffffff16146113d8576040517f08c379a00000000000000000000000000000000000000000000000000000000081526004016113cf90615a5b565b60405180910390fd5b80600c8190555050565b601a5481565b3373ffffffffffffffffffffffffffffffffffffffff16600960009054906101000a900473ffffffffffffffffffffffffffffffffffffffff1673ffffffffffffffffffffffffffffffffffffffff1614611478576040517f08c379a000000000000000000000000000000000000000000000000000000000815260040161146f90615a5b565b60405180910390fd5b60005b60038160ff1610156114d9576000600a54146114cc576040517f08c379a00000000000000000000000000000000000000000000000000000000081526004016114c3906159fb565b60405180910390fd5b808060010191505061147b565b5080600860006101000a81548173ffffffffffffffffffffffffffffffffffffffff021916908373ffffffffffffffffffffffffffffffffffffffff16021790555050565b3373ffffffffffffffffffffffffffffffffffffffff16600960009054906101000a900473ffffffffffffffffffffffffffffffffffffffff1673ffffffffffffffffffffffffffffffffffffffff16146115ae576040517f08c379a00000000000000000000000000000000000000000000000000000000081526004016115a590615a5b565b60405180910390fd5b60006115b8614d63565b6115c0614d63565b6000806115cd60006124b3565b9150600061160d6127106115ff6115f060036002546138eb90919063ffffffff16565b8661387b90919063ffffffff16565b6138eb90919063ffffffff16565b9050600080600090505b60038160ff16101561185b5761162f8160ff1661111e565b975060048160ff166003811061164157fe5b0160009054906101000a900473ffffffffffffffffffffffffffffffffffffffff1673ffffffffffffffffffffffffffffffffffffffff1663313ce5676040518163ffffffff1660e01b815260040160206040518083038186803b1580156116a857600080fd5b505afa1580156116bc573d6000803e3d6000fd5b505050506040513d601f19601f820116820180604052508101906116e0919061514b565b60ff169350611715670de0b6b3a764000061170786600a0a8661387b90919063ffffffff16565b6138eb90919063ffffffff16565b91508782111561174f576117328883613e4990919063ffffffff16565b878260ff166003811061174157fe5b60200201818152505061184e565b878210156118185761176a8289613e4990919063ffffffff16565b868260ff166003811061177957fe5b602002018181525050611813600860009054906101000a900473ffffffffffffffffffffffffffffffffffffffff16878360ff16600381106117b757fe5b602002015160048460ff16600381106117cc57fe5b0160009054906101000a900473ffffffffffffffffffffffffffffffffffffffff1673ffffffffffffffffffffffffffffffffffffffff16613e939092919063ffffffff16565b61184d565b6000878260ff166003811061182957fe5b6020020181815250506000868260ff166003811061184357fe5b6020020181815250505b5b8080600101915050611617565b5061186585613a13565b156118745761187385614208565b5b61187d86613a13565b1561188c5761188b86613a65565b5b50505050505050565b3373ffffffffffffffffffffffffffffffffffffffff16600960009054906101000a900473ffffffffffffffffffffffffffffffffffffffff1673ffffffffffffffffffffffffffffffffffffffff1614611925576040517f08c379a000000000000000000000000000000000000000000000000000000000815260040161191c90615a5b565b60405180910390fd5b61192d614d63565b600860009054906101000a900473ffffffffffffffffffffffffffffffffffffffff1673ffffffffffffffffffffffffffffffffffffffff1663853828b66040518163ffffffff1660e01b8152600401606060405180830381600087803b15801561199757600080fd5b505af11580156119ab573d6000803e3d6000fd5b505050506040513d601f19601f820116820180604052508101906119cf9190614fdd565b905060008060038190555060005b60038160ff161015611bad5760048160ff16600381106119f957fe5b0160009054906101000a900473ffffffffffffffffffffffffffffffffffffffff1673ffffffffffffffffffffffffffffffffffffffff1663313ce5676040518163ffffffff1660e01b815260040160206040518083038186803b158015611a6057600080fd5b505afa158015611a74573d6000803e3d6000fd5b505050506040513d601f19601f82011682018060405250810190611a98919061514b565b60ff169150611b9a611b8983600a0a611b7b670de0b6b3a764000060048660ff1660038110611ac357fe5b0160009054906101000a900473ffffffffffffffffffffffffffffffffffffffff1673ffffffffffffffffffffffffffffffffffffffff166370a08231306040518263ffffffff1660e01b8152600401611b1d91906157ce565b60206040518083038186803b158015611b3557600080fd5b505afa158015611b49573d6000803e3d6000fd5b505050506040513d601f19601f82011682018060405250810190611b6d91906150e6565b61387b90919063ffffffff16565b6138eb90919063ffffffff16565b60035461393590919063ffffffff16565b60038190555080806001019150506119dd565b506000600a81905550611bbe613c29565b5050565b60118181548110611bcf57fe5b906000526020600020016000915054906101000a900473ffffffffffffffffffffffffffffffffffffffff1681565b3373ffffffffffffffffffffffffffffffffffffffff16600960009054906101000a900473ffffffffffffffffffffffffffffffffffffffff1673ffffffffffffffffffffffffffffffffffffffff1614611c8e576040517f08c379a0000000000000000000000000000000000000000000000000000000008152600401611c8590615a5b565b60405180910390fd5b80601a8190555050565b60025481565b60106020528060005260406000206000915054906101000a900460ff1681565b61271081565b60026000541415611d0a576040517f08c379a0000000000000000000000000000000000000000000000000000000008152600401611d0190615b1b565b60405180910390fd5b60026000819055508160008111611d56576040517f08c379a0000000000000000000000000000000000000000000000000000000008152600401611d4d906159bb565b60405180910390fd5b601860003373ffffffffffffffffffffffffffffffffffffffff1673ffffffffffffffffffffffffffffffffffffffff16815260200190815260200160002060009054906101000a900460ff1615611de3576040517f08c379a0000000000000000000000000000000000000000000000000000000008152600401611dda90615b3b565b60405180910390fd5b82600760009054906101000a900473ffffffffffffffffffffffffffffffffffffffff1673ffffffffffffffffffffffffffffffffffffffff166370a08231336040518263ffffffff1660e01b8152600401611e3f91906157e9565b60206040518083038186803b158015611e5757600080fd5b505afa158015611e6b573d6000803e3d6000fd5b505050506040513d601f19601f82011682018060405250810190611e8f91906150e6565b1015611ed0576040517f08c379a0000000000000000000000000000000000000000000000000000000008152600401611ec790615a7b565b60405180910390fd5b6000611ede3384600161338c565b91505060006001905084821015611ef457600090505b80611f34576040517f08c379a0000000000000000000000000000000000000000000000000000000008152600401611f2b90615a5b565b60405180910390fd5b6000611f4060016124b3565b90506000612008600760009054906101000a900473ffffffffffffffffffffffffffffffffffffffff1673ffffffffffffffffffffffffffffffffffffffff166318160ddd6040518163ffffffff1660e01b815260040160206040518083038186803b158015611faf57600080fd5b505afa158015611fc3573d6000803e3d6000fd5b505050506040513d601f19601f82011682018060405250810190611fe791906150e6565b611ffa848a61387b90919063ffffffff16565b6138eb90919063ffffffff16565b905061201460006124b3565b811115612056576040517f08c379a000000000000000000000000000000000000000000000000000000000815260040161204d90615adb565b60405180910390fd5b60006004876003811061206557fe5b0160009054906101000a900473ffffffffffffffffffffffffffffffffffffffff1673ffffffffffffffffffffffffffffffffffffffff1663313ce5676040518163ffffffff1660e01b815260040160206040518083038186803b1580156120cc57600080fd5b505afa1580156120e0573d6000803e3d6000fd5b505050506040513d601f19601f82011682018060405250810190612104919061514b565b60ff16905061214361213c670de0b6b3a764000061212e84600a0a8661387b90919063ffffffff16565b6138eb90919063ffffffff16565b89896143cc565b50505050505060016000819055505050565b600160009054906101000a90046fffffffffffffffffffffffffffffffff1681565b61218081613a13565b6121bf576040517f08c379a00000000000000000000000000000000000000000000000000000000081526004016121b69061593b565b60405180910390fd5b600080600090505b60038160ff1610156123dc576000838260ff16600381106121e457fe5b602002015111156123cf5760048160ff16600381106121ff57fe5b0160009054906101000a900473ffffffffffffffffffffffffffffffffffffffff1673ffffffffffffffffffffffffffffffffffffffff1663313ce5676040518163ffffffff1660e01b815260040160206040518083038186803b15801561226657600080fd5b505afa15801561227a573d6000803e3d6000fd5b505050506040513d601f19601f8201168201806040525081019061229e919061514b565b60ff1691506122fa6122e983600a0a6122db670de0b6b3a7640000878660ff16600381106122c857fe5b602002015161387b90919063ffffffff16565b6138eb90919063ffffffff16565b601954613e4990919063ffffffff16565b60198190555061235761234683600a0a612338670de0b6b3a7640000878660ff166003811061232557fe5b602002015161387b90919063ffffffff16565b6138eb90919063ffffffff16565b60035461393590919063ffffffff16565b6003819055506123ce3330858460ff166003811061237157fe5b602002015160048560ff166003811061238657fe5b0160009054906101000a900473ffffffffffffffffffffffffffffffffffffffff1673ffffffffffffffffffffffffffffffffffffffff1661398a909392919063ffffffff16565b5b80806001019150506121c7565b505050565b3373ffffffffffffffffffffffffffffffffffffffff16600960009054906101000a900473ffffffffffffffffffffffffffffffffffffffff1673ffffffffffffffffffffffffffffffffffffffff1614612471576040517f08c379a000000000000000000000000000000000000000000000000000000000815260040161246890615a5b565b60405180910390fd5b806fffffffffffffffffffffffffffffffff1660028190555050565b600860009054906101000a900473ffffffffffffffffffffffffffffffffffffffff1681565b60008060008060005b60038160ff1610156126335760048160ff16600381106124d857fe5b0160009054906101000a900473ffffffffffffffffffffffffffffffffffffffff1673ffffffffffffffffffffffffffffffffffffffff1663313ce5676040518163ffffffff1660e01b815260040160206040518083038186803b15801561253f57600080fd5b505afa158015612553573d6000803e3d6000fd5b505050506040513d601f19601f82011682018060405250810190612577919061514b565b60ff1693506125cf6125c085600a0a6125b2670de0b6b3a764000060128660ff16600381106125a257fe5b015461387b90919063ffffffff16565b6138eb90919063ffffffff16565b8461393590919063ffffffff16565b925061262461261585600a0a612607670de0b6b3a764000060158660ff16600381106125f757fe5b015461387b90919063ffffffff16565b6138eb90919063ffffffff16565b8361393590919063ffffffff16565b915080806001019150506124bc565b50841561267f576126756019546126678361265986600354613e4990919063ffffffff16565b613e4990919063ffffffff16565b61393590919063ffffffff16565b93505050506126ac565b6126a68161269884600354613e4990919063ffffffff16565b613e4990919063ffffffff16565b93505050505b919050565b60035481565b6000806126c460016124b3565b90506000600484600381106126d557fe5b0160009054906101000a900473ffffffffffffffffffffffffffffffffffffffff1673ffffffffffffffffffffffffffffffffffffffff1663313ce5676040518163ffffffff1660e01b815260040160206040518083038186803b15801561273c57600080fd5b505afa158015612750573d6000803e3d6000fd5b505050506040513d601f19601f82011682018060405250810190612774919061514b565b60ff1690506127a981600a0a61279b670de0b6b3a76400008861387b90919063ffffffff16565b6138eb90919063ffffffff16565b945060008214156127be578492505050612887565b61288282612874600760009054906101000a900473ffffffffffffffffffffffffffffffffffffffff1673ffffffffffffffffffffffffffffffffffffffff166318160ddd6040518163ffffffff1660e01b815260040160206040518083038186803b15801561282d57600080fd5b505afa158015612841573d6000803e3d6000fd5b505050506040513d601f19601f8201168201806040525081019061286591906150e6565b8861387b90919063ffffffff16565b6138eb90919063ffffffff16565b925050505b92915050565b600d60205281600052604060002081815481106128a657fe5b9060005260206000209060040201600091509150508060000154908060010154908060020154908060030154905084565b600f60205281600052604060002081600381106128f057fe5b01600091509150505481565b3373ffffffffffffffffffffffffffffffffffffffff16600960009054906101000a900473ffffffffffffffffffffffffffffffffffffffff1673ffffffffffffffffffffffffffffffffffffffff161461298c576040517f08c379a000000000000000000000000000000000000000000000000000000000815260040161298390615a5b565b60405180910390fd5b612994614d63565b6000806129a160006124b3565b915060006129e16127106129d36129c460036002546138eb90919063ffffffff16565b8661387b90919063ffffffff16565b6138eb90919063ffffffff16565b9050600080600090505b60038160ff161015612c185760048160ff1660038110612a0757fe5b0160009054906101000a900473ffffffffffffffffffffffffffffffffffffffff1673ffffffffffffffffffffffffffffffffffffffff1663313ce5676040518163ffffffff1660e01b815260040160206040518083038186803b158015612a6e57600080fd5b505afa158015612a82573d6000803e3d6000fd5b505050506040513d601f19601f82011682018060405250810190612aa6919061514b565b60ff169350612ab78160ff1661111e565b868260ff1660038110612ac657fe5b602002018181525050612aff670de0b6b3a7640000612af186600a0a8661387b90919063ffffffff16565b6138eb90919063ffffffff16565b915081868260ff1660038110612b1157fe5b60200201511115612bf057612b4282878360ff1660038110612b2f57fe5b6020020151613e4990919063ffffffff16565b868260ff1660038110612b5157fe5b602002018181525050612beb600860009054906101000a900473ffffffffffffffffffffffffffffffffffffffff16878360ff1660038110612b8f57fe5b602002015160048460ff1660038110612ba457fe5b0160009054906101000a900473ffffffffffffffffffffffffffffffffffffffff1673ffffffffffffffffffffffffffffffffffffffff16613e939092919063ffffffff16565b612c0b565b6000868260ff1660038110612c0157fe5b6020020181815250505b80806001019150506129eb565b50612c2285613a13565b15612c3157612c3085614208565b5b5050505050565b60026000541415612c7e576040517f08c379a0000000000000000000000000000000000000000000000000000000008152600401612c7590615b1b565b60405180910390fd5b60026000819055508160008111612cca576040517f08c379a0000000000000000000000000000000000000000000000000000000008152600401612cc1906159bb565b60405180910390fd5b600080612cd785856126b7565b9050600d60003373ffffffffffffffffffffffffffffffffffffffff1673ffffffffffffffffffffffffffffffffffffffff168152602001908152602001600020604051806080016040528086815260200187815260200142815260200183815250908060018154018082558091505060019003906000526020600020906004020160009091909190915060008201518160000155602082015181600101556040820151816002015560608201518160030155505060048460038110612d9957fe5b0160009054906101000a900473ffffffffffffffffffffffffffffffffffffffff1673ffffffffffffffffffffffffffffffffffffffff1663313ce5676040518163ffffffff1660e01b815260040160206040518083038186803b158015612e0057600080fd5b505afa158015612e14573d6000803e3d6000fd5b505050506040513d601f19601f82011682018060405250810190612e38919061514b565b60ff169150612e81612e7083600a0a612e62670de0b6b3a76400008961387b90919063ffffffff16565b6138eb90919063ffffffff16565b60035461393590919063ffffffff16565b600381905550612ee233308760048860038110612e9a57fe5b0160009054906101000a900473ffffffffffffffffffffffffffffffffffffffff1673ffffffffffffffffffffffffffffffffffffffff1661398a909392919063ffffffff16565b600760009054906101000a900473ffffffffffffffffffffffffffffffffffffffff1673ffffffffffffffffffffffffffffffffffffffff166340c10f1933836040518363ffffffff1660e01b8152600401612f3f929190615804565b600060405180830381600087803b158015612f5957600080fd5b505af1158015612f6d573d6000803e3d6000fd5b505050507f6ec568242d49f3645a5e2f73f58b15947dba8ef3ea637e32f6703325ce46f2823386604051612fa2929190615804565b60405180910390a150505060016000819055505050565b60128160038110612fc657fe5b016000915090505481565b3373ffffffffffffffffffffffffffffffffffffffff16600960009054906101000a900473ffffffffffffffffffffffffffffffffffffffff1673ffffffffffffffffffffffffffffffffffffffff1614613061576040517f08c379a000000000000000000000000000000000000000000000000000000000815260040161305890615a5b565b60405180910390fd5b61306a82613a13565b6130a9576040517f08c379a00000000000000000000000000000000000000000000000000000000081526004016130a090615abb565b60405180910390fd5b60008060005b60038110156131ca57600481600381106130c557fe5b0160009054906101000a900473ffffffffffffffffffffffffffffffffffffffff1673ffffffffffffffffffffffffffffffffffffffff1663313ce5676040518163ffffffff1660e01b815260040160206040518083038186803b15801561312c57600080fd5b505afa158015613140573d6000803e3d6000fd5b505050506040513d601f19601f82011682018060405250810190613164919061514b565b60ff1692506131bb6131ac84600a0a61319e670de0b6b3a764000089866003811061318b57fe5b602002015161387b90919063ffffffff16565b6138eb90919063ffffffff16565b8361393590919063ffffffff16565b915080806001019150506130af565b506131fd6127106131ef601a546131e160016124b3565b61387b90919063ffffffff16565b6138eb90919063ffffffff16565b6132128260195461393590919063ffffffff16565b1115613253576040517f08c379a000000000000000000000000000000000000000000000000000000000815260040161324a90615a1b565b60405180910390fd5b61325d60006124b3565b811061329e576040517f08c379a00000000000000000000000000000000000000000000000000000000081526004016132959061599b565b60405180910390fd5b6132a784613a65565b6132bc8160195461393590919063ffffffff16565b6019819055506132d781600354613e4990919063ffffffff16565b60038190555060005b60038160ff161015613385576000858260ff16600381106132fd57fe5b602002015111156133785761337784868360ff166003811061331b57fe5b602002015160048460ff166003811061333057fe5b0160009054906101000a900473ffffffffffffffffffffffffffffffffffffffff1673ffffffffffffffffffffffffffffffffffffffff16613e939092919063ffffffff16565b5b80806001019150506132e0565b5050505050565b6000806000805b600d60008873ffffffffffffffffffffffffffffffffffffffff1673ffffffffffffffffffffffffffffffffffffffff168152602001908152602001600020805490508160ff16101561353e5784158061344e5750600c54600d60008973ffffffffffffffffffffffffffffffffffffffff1673ffffffffffffffffffffffffffffffffffffffff1681526020019081526020016000208260ff168154811061343857fe5b9060005260206000209060040201600201544203115b80156134b857506000600d60008973ffffffffffffffffffffffffffffffffffffffff1673ffffffffffffffffffffffffffffffffffffffff1681526020019081526020016000208260ff16815481106134a457fe5b906000526020600020906004020160030154115b156135315761352e600d60008973ffffffffffffffffffffffffffffffffffffffff1673ffffffffffffffffffffffffffffffffffffffff1681526020019081526020016000208260ff168154811061350d57fe5b9060005260206000209060040201600301548361393590919063ffffffff16565b91505b8080600101915050613393565b5060005b60038160ff1610156135be576135af600f60008973ffffffffffffffffffffffffffffffffffffffff1673ffffffffffffffffffffffffffffffffffffffff1681526020019081526020016000208260ff166003811061359e57fe5b015483613e4990919063ffffffff16565b91508080600101915050613542565b5060006135cb60016124b3565b90506000600487600381106135dc57fe5b0160009054906101000a900473ffffffffffffffffffffffffffffffffffffffff1673ffffffffffffffffffffffffffffffffffffffff1663313ce5676040518163ffffffff1660e01b815260040160206040518083038186803b15801561364357600080fd5b505afa158015613657573d6000803e3d6000fd5b505050506040513d601f19601f8201168201806040525081019061367b919061514b565b60ff169050613773670de0b6b3a7640000613765600760009054906101000a900473ffffffffffffffffffffffffffffffffffffffff1673ffffffffffffffffffffffffffffffffffffffff166318160ddd6040518163ffffffff1660e01b815260040160206040518083038186803b1580156136f757600080fd5b505afa15801561370b573d6000803e3d6000fd5b505050506040513d601f19601f8201168201806040525081019061372f91906150e6565b61375785600a0a613749888a61387b90919063ffffffff16565b61387b90919063ffffffff16565b6138eb90919063ffffffff16565b6138eb90919063ffffffff16565b8394509450505050935093915050565b600b5481565b6015816003811061379657fe5b016000915090505481565b3373ffffffffffffffffffffffffffffffffffffffff16600960009054906101000a900473ffffffffffffffffffffffffffffffffffffffff1673ffffffffffffffffffffffffffffffffffffffff1614613831576040517f08c379a000000000000000000000000000000000000000000000000000000000815260040161382890615a5b565b60405180910390fd5b80600960006101000a81548173ffffffffffffffffffffffffffffffffffffffff021916908373ffffffffffffffffffffffffffffffffffffffff16021790555050565b600c5481565b60008083141561388e57600090506138e5565b600082840290508284828161389f57fe5b04146138e0576040517f08c379a00000000000000000000000000000000000000000000000000000000081526004016138d790615a3b565b60405180910390fd5b809150505b92915050565b600061392d83836040518060400160405280601a81526020017f536166654d6174683a206469766973696f6e206279207a65726f0000000000008152506146c8565b905092915050565b600080828401905083811015613980576040517f08c379a00000000000000000000000000000000000000000000000000000000081526004016139779061595b565b60405180910390fd5b8091505092915050565b613a0d846323b872dd60e01b8585856040516024016139ab9392919061582d565b604051602081830303815290604052907bffffffffffffffffffffffffffffffffffffffffffffffffffffffff19166020820180517bffffffffffffffffffffffffffffffffffffffffffffffffffffffff8381831617835250505050614729565b50505050565b600080600090505b60038160ff161015613a5a576000838260ff1660038110613a3857fe5b60200201511115613a4d576001915050613a60565b8080600101915050613a1b565b50600090505b919050565b600860009054906101000a900473ffffffffffffffffffffffffffffffffffffffff1673ffffffffffffffffffffffffffffffffffffffff1663b1b8f1be826040518263ffffffff1660e01b8152600401613ac0919061588d565b600060405180830381600087803b158015613ada57600080fd5b505af1158015613aee573d6000803e3d6000fd5b50505050600080600090505b60038160ff161015613c245760048160ff1660038110613b1657fe5b0160009054906101000a900473ffffffffffffffffffffffffffffffffffffffff1673ffffffffffffffffffffffffffffffffffffffff1663313ce5676040518163ffffffff1660e01b815260040160206040518083038186803b158015613b7d57600080fd5b505afa158015613b91573d6000803e3d6000fd5b505050506040513d601f19601f82011682018060405250810190613bb5919061514b565b60ff169150613c11613c0083600a0a613bf2670de0b6b3a7640000878660ff1660038110613bdf57fe5b602002015161387b90919063ffffffff16565b6138eb90919063ffffffff16565b600a54613e4990919063ffffffff16565b600a819055508080600101915050613afa565b505050565b60005b60038160ff161015613ca657613c6d60128260ff1660038110613c4b57fe5b015460158360ff1660038110613c5d57fe5b015461393590919063ffffffff16565b60158260ff1660038110613c7d57fe5b0181905550600060128260ff1660038110613c9457fe5b01819055508080600101915050613c2c565b5060005b601180549050811015613de25760016018600060118481548110613cca57fe5b9060005260206000200160009054906101000a900473ffffffffffffffffffffffffffffffffffffffff1673ffffffffffffffffffffffffffffffffffffffff1673ffffffffffffffffffffffffffffffffffffffff16815260200190815260200160002060006101000a81548160ff02191690831515021790555060006010600060118481548110613d5957fe5b9060005260206000200160009054906101000a900473ffffffffffffffffffffffffffffffffffffffff1673ffffffffffffffffffffffffffffffffffffffff1673ffffffffffffffffffffffffffffffffffffffff16815260200190815260200160002060006101000a81548160ff0219169083151502179055508080600101915050613caa565b506000601180549050905060005b81811015613e45576011805480613e0357fe5b6001900381819060005260206000200160006101000a81549073ffffffffffffffffffffffffffffffffffffffff021916905590558080600101915050613df0565b5050565b6000613e8b83836040518060400160405280601e81526020017f536166654d6174683a207375627472616374696f6e206f766572666c6f7700008152506147f0565b905092915050565b613f148363a9059cbb60e01b8484604051602401613eb2929190615864565b604051602081830303815290604052907bffffffffffffffffffffffffffffffffffffffffffffffffffffffff19166020820180517bffffffffffffffffffffffffffffffffffffffffffffffffffffffff8381831617835250505050614729565b505050565b60005b600d60008473ffffffffffffffffffffffffffffffffffffffff1673ffffffffffffffffffffffffffffffffffffffff168152602001908152602001600020805490508160ff161015614203576000600d60008573ffffffffffffffffffffffffffffffffffffffff1673ffffffffffffffffffffffffffffffffffffffff1681526020019081526020016000208260ff1681548110613fb857fe5b906000526020600020906004020160030154118015613fd75750600082115b156141f657600d60008473ffffffffffffffffffffffffffffffffffffffff1673ffffffffffffffffffffffffffffffffffffffff1681526020019081526020016000208160ff168154811061402957fe5b906000526020600020906004020160030154821061411d576140b2600d60008573ffffffffffffffffffffffffffffffffffffffff1673ffffffffffffffffffffffffffffffffffffffff1681526020019081526020016000208260ff168154811061409157fe5b90600052602060002090600402016003015483613e4990919063ffffffff16565b91506000600d60008573ffffffffffffffffffffffffffffffffffffffff1673ffffffffffffffffffffffffffffffffffffffff1681526020019081526020016000208260ff168154811061410357fe5b9060005260206000209060040201600301819055506141f5565b61418e82600d60008673ffffffffffffffffffffffffffffffffffffffff1673ffffffffffffffffffffffffffffffffffffffff1681526020019081526020016000208360ff168154811061416e57fe5b906000526020600020906004020160030154613e4990919063ffffffff16565b600d60008573ffffffffffffffffffffffffffffffffffffffff1673ffffffffffffffffffffffffffffffffffffffff1681526020019081526020016000208260ff16815481106141db57fe5b906000526020600020906004020160030181905550600091505b5b8080600101915050613f1c565b505050565b600860009054906101000a900473ffffffffffffffffffffffffffffffffffffffff1673ffffffffffffffffffffffffffffffffffffffff1663d4e20b01826040518263ffffffff1660e01b8152600401614263919061588d565b600060405180830381600087803b15801561427d57600080fd5b505af1158015614291573d6000803e3d6000fd5b50505050600080600090505b60038160ff1610156143c75760048160ff16600381106142b957fe5b0160009054906101000a900473ffffffffffffffffffffffffffffffffffffffff1673ffffffffffffffffffffffffffffffffffffffff1663313ce5676040518163ffffffff1660e01b815260040160206040518083038186803b15801561432057600080fd5b505afa158015614334573d6000803e3d6000fd5b505050506040513d601f19601f82011682018060405250810190614358919061514b565b60ff1691506143b46143a383600a0a614395670de0b6b3a7640000878660ff166003811061438257fe5b602002015161387b90919063ffffffff16565b6138eb90919063ffffffff16565b600a5461393590919063ffffffff16565b600a81905550808060010191505061429d565b505050565b60006143d78261111e565b9050600760009054906101000a900473ffffffffffffffffffffffffffffffffffffffff1673ffffffffffffffffffffffffffffffffffffffff16639dc29fac33856040518363ffffffff1660e01b8152600401614436929190615804565b600060405180830381600087803b15801561445057600080fd5b505af1158015614464573d6000803e3d6000fd5b505050508084101561467d5760006004836003811061447f57fe5b0160009054906101000a900473ffffffffffffffffffffffffffffffffffffffff1673ffffffffffffffffffffffffffffffffffffffff1663313ce5676040518163ffffffff1660e01b815260040160206040518083038186803b1580156144e657600080fd5b505afa1580156144fa573d6000803e3d6000fd5b505050506040513d601f19601f8201168201806040525081019061451e919061514b565b60ff169050600061458e61457f612710614571600160009054906101000a90046fffffffffffffffffffffffffffffffff166fffffffffffffffffffffffffffffffff168a61387b90919063ffffffff16565b6138eb90919063ffffffff16565b87613e4990919063ffffffff16565b90506145d46145c383600a0a6145b5670de0b6b3a76400008561387b90919063ffffffff16565b6138eb90919063ffffffff16565b600354613e4990919063ffffffff16565b6003819055506145e43386613f19565b61463d3382600487600381106145f657fe5b0160009054906101000a900473ffffffffffffffffffffffffffffffffffffffff1673ffffffffffffffffffffffffffffffffffffffff16613e939092919063ffffffff16565b7f8b46652782c1a94bd1f1e050f62dea3a99b7fe20520c003e111624847230d4fe338260405161466e929190615804565b60405180910390a150506146c2565b61468884848461484b565b7fd70cf1d21d858f226b570eec41b4238a7365568b97cf693f3ea03c3bd0d507cf33856040516146b9929190615804565b60405180910390a15b50505050565b6000808311829061470f576040517f08c379a000000000000000000000000000000000000000000000000000000000815260040161470691906158f9565b60405180910390fd5b50600083858161471b57fe5b049050809150509392505050565b606061478b826040518060400160405280602081526020017f5361666545524332303a206c6f772d6c6576656c2063616c6c206661696c65648152508573ffffffffffffffffffffffffffffffffffffffff16614ba59092919063ffffffff16565b90506000815111156147eb57808060200190518101906147ab919061506b565b6147ea576040517f08c379a00000000000000000000000000000000000000000000000000000000081526004016147e190615afb565b60405180910390fd5b5b505050565b6000838311158290614838576040517f08c379a000000000000000000000000000000000000000000000000000000000815260040161482f91906158f9565b60405180910390fd5b5060008385039050809150509392505050565b6148a983600e60003373ffffffffffffffffffffffffffffffffffffffff1673ffffffffffffffffffffffffffffffffffffffff168152602001908152602001600020836003811061489957fe5b015461393590919063ffffffff16565b600e60003373ffffffffffffffffffffffffffffffffffffffff1673ffffffffffffffffffffffffffffffffffffffff16815260200190815260200160002082600381106148f357fe5b018190555061495682600f60003373ffffffffffffffffffffffffffffffffffffffff1673ffffffffffffffffffffffffffffffffffffffff168152602001908152602001600020836003811061494657fe5b015461393590919063ffffffff16565b600f60003373ffffffffffffffffffffffffffffffffffffffff1673ffffffffffffffffffffffffffffffffffffffff16815260200190815260200160002082600381106149a057fe5b01819055506149c683601283600381106149b657fe5b015461393590919063ffffffff16565b601282600381106149d357fe5b01819055506000614a3a620f4240614a2c670de0b6b3a7640000614a1e60126002600381106149fe57fe5b01546012600160038110614a0e57fe5b015461393590919063ffffffff16565b61387b90919063ffffffff16565b6138eb90919063ffffffff16565b9050600a54816012600060038110614a4e57fe5b0154011115614a92576040517f08c379a0000000000000000000000000000000000000000000000000000000008152600401614a899061599b565b60405180910390fd5b601060003373ffffffffffffffffffffffffffffffffffffffff1673ffffffffffffffffffffffffffffffffffffffff16815260200190815260200160002060009054906101000a900460ff16614b9f576001601060003373ffffffffffffffffffffffffffffffffffffffff1673ffffffffffffffffffffffffffffffffffffffff16815260200190815260200160002060006101000a81548160ff0219169083151502179055506011339080600181540180825580915050600190039060005260206000200160009091909190916101000a81548173ffffffffffffffffffffffffffffffffffffffff021916908373ffffffffffffffffffffffffffffffffffffffff1602179055505b50505050565b6060614bb48484600085614bbd565b90509392505050565b6060823073ffffffffffffffffffffffffffffffffffffffff16311015614c19576040517f08c379a0000000000000000000000000000000000000000000000000000000008152600401614c109061597b565b60405180910390fd5b614c2285614ce9565b614c61576040517f08c379a0000000000000000000000000000000000000000000000000000000008152600401614c5890615a9b565b60405180910390fd5b600060608673ffffffffffffffffffffffffffffffffffffffff168587604051614c8b91906157b7565b60006040518083038185875af1925050503d8060008114614cc8576040519150601f19603f3d011682016040523d82523d6000602084013e614ccd565b606091505b5091509150614cdd828286614cfc565b92505050949350505050565b600080823b905060008111915050919050565b60608315614d0c57829050614d5c565b600083511115614d1f5782518084602001fd5b816040517f08c379a0000000000000000000000000000000000000000000000000000000008152600401614d5391906158f9565b60405180910390fd5b9392505050565b6040518060600160405280600390602082028036833780820191505090505090565b600081359050614d9481615de0565b92915050565b600082601f830112614dab57600080fd5b6003614dbe614db982615c2c565b615bff565b91508183856020840282011115614dd457600080fd5b60005b83811015614e045781614dea8882614ec1565b845260208401935060208301925050600181019050614dd7565b5050505092915050565b600082601f830112614e1f57600080fd5b6003614e32614e2d82615c2c565b615bff565b91508183856020840282011115614e4857600080fd5b60005b83811015614e785781614e5e8882614ed6565b845260208401935060208301925050600181019050614e4b565b5050505092915050565b600081359050614e9181615df7565b92915050565b600081519050614ea681615df7565b92915050565b600081359050614ebb81615e0e565b92915050565b600081359050614ed081615e25565b92915050565b600081519050614ee581615e25565b92915050565b600081519050614efa81615e3c565b92915050565b600060208284031215614f1257600080fd5b6000614f2084828501614d85565b91505092915050565b60008060408385031215614f3c57600080fd5b6000614f4a85828601614d85565b9250506020614f5b85828601614ec1565b9150509250929050565b600080600060608486031215614f7a57600080fd5b6000614f8886828701614d85565b9350506020614f9986828701614ec1565b9250506040614faa86828701614e82565b9150509250925092565b600060608284031215614fc657600080fd5b6000614fd484828501614d9a565b91505092915050565b600060608284031215614fef57600080fd5b6000614ffd84828501614e0e565b91505092915050565b6000806080838503121561501957600080fd5b600061502785828601614d9a565b925050606061503885828601614d85565b9150509250929050565b60006020828403121561505457600080fd5b600061506284828501614e82565b91505092915050565b60006020828403121561507d57600080fd5b600061508b84828501614e97565b91505092915050565b6000602082840312156150a657600080fd5b60006150b484828501614eac565b91505092915050565b6000602082840312156150cf57600080fd5b60006150dd84828501614ec1565b91505092915050565b6000602082840312156150f857600080fd5b600061510684828501614ed6565b91505092915050565b6000806040838503121561512257600080fd5b600061513085828601614ec1565b925050602061514185828601614ec1565b9150509250929050565b60006020828403121561515d57600080fd5b600061516b84828501614eeb565b91505092915050565b60006151808383615799565b60208301905092915050565b61519581615d1e565b82525050565b6151a481615cad565b82525050565b6151b381615c58565b6151bd8184615c86565b92506151c882615c4e565b8060005b838110156151f95781516151e08782615174565b96506151eb83615c79565b9250506001810190506151cc565b505050505050565b61520a81615cbf565b82525050565b600061521b82615c63565b6152258185615c91565b9350615235818560208601615d9c565b80840191505092915050565b61524a81615d30565b82525050565b61525981615d54565b82525050565b600061526a82615c6e565b6152748185615c9c565b9350615284818560208601615d9c565b61528d81615dcf565b840191505092915050565b60006152a5601683615c9c565b91507f72657175657374207769746864726177206669727374000000000000000000006000830152602082019050919050565b60006152e5601483615c9c565b91507f616d6f756e742063616e2774206265207a65726f0000000000000000000000006000830152602082019050919050565b6000615325601b83615c9c565b91507f536166654d6174683a206164646974696f6e206f766572666c6f7700000000006000830152602082019050919050565b6000615365602683615c9c565b91507f416464726573733a20696e73756666696369656e742062616c616e636520666f60008301527f722063616c6c00000000000000000000000000000000000000000000000000006020830152604082019050919050565b60006153cb601283615c9c565b91507f4e6f7420656e6f7567682062616c616e636500000000000000000000000000006000830152602082019050919050565b600061540b600283615c9c565b91507f4e560000000000000000000000000000000000000000000000000000000000006000830152602082019050919050565b600061544b600b83615c9c565b91507f717565756520656d7074790000000000000000000000000000000000000000006000830152602082019050919050565b600061548b601f83615c9c565b91507f43616c6c207769746864726177416c6c2066756e6374696f6e206669727374006000830152602082019050919050565b60006154cb600c83615c9c565b91507f457863656564206c696d697400000000000000000000000000000000000000006000830152602082019050919050565b600061550b602183615c9c565b91507f536166654d6174683a206d756c7469706c69636174696f6e206f766572666c6f60008301527f77000000000000000000000000000000000000000000000000000000000000006020830152604082019050919050565b6000615571600283615c9c565b91507f4e410000000000000000000000000000000000000000000000000000000000006000830152602082019050919050565b60006155b1600783615c9c565b91507f6c6f7720525054000000000000000000000000000000000000000000000000006000830152602082019050919050565b60006155f1601d83615c9c565b91507f416464726573733a2063616c6c20746f206e6f6e2d636f6e74726163740000006000830152602082019050919050565b6000615631601383615c9c565b91507f616d6f756e742063616e206e6f74207a65726f000000000000000000000000006000830152602082019050919050565b6000615671601783615c9c565b91507f4e6f7420456e6f75676820506f6f6c2062616c616e63650000000000000000006000830152602082019050919050565b60006156b1602a83615c9c565b91507f5361666545524332303a204552433230206f7065726174696f6e20646964206e60008301527f6f742073756363656564000000000000000000000000000000000000000000006020830152604082019050919050565b6000615717601f83615c9c565b91507f5265656e7472616e637947756172643a207265656e7472616e742063616c6c006000830152602082019050919050565b6000615757600b83615c9c565b91507f436c61696d2066697273740000000000000000000000000000000000000000006000830152602082019050919050565b61579381615ccb565b82525050565b6157a281615d07565b82525050565b6157b181615d07565b82525050565b60006157c38284615210565b915081905092915050565b60006020820190506157e3600083018461519b565b92915050565b60006020820190506157fe600083018461518c565b92915050565b6000604082019050615819600083018561518c565b61582660208301846157a8565b9392505050565b6000606082019050615842600083018661519b565b61584f602083018561519b565b61585c60408301846157a8565b949350505050565b6000604082019050615879600083018561519b565b61588660208301846157a8565b9392505050565b60006060820190506158a260008301846151aa565b92915050565b60006020820190506158bd6000830184615201565b92915050565b60006020820190506158d86000830184615241565b92915050565b60006020820190506158f36000830184615250565b92915050565b60006020820190508181036000830152615913818461525f565b905092915050565b6000602082019050818103600083015261593481615298565b9050919050565b60006020820190508181036000830152615954816152d8565b9050919050565b6000602082019050818103600083015261597481615318565b9050919050565b6000602082019050818103600083015261599481615358565b9050919050565b600060208201905081810360008301526159b4816153be565b9050919050565b600060208201905081810360008301526159d4816153fe565b9050919050565b600060208201905081810360008301526159f48161543e565b9050919050565b60006020820190508181036000830152615a148161547e565b9050919050565b60006020820190508181036000830152615a34816154be565b9050919050565b60006020820190508181036000830152615a54816154fe565b9050919050565b60006020820190508181036000830152615a7481615564565b9050919050565b60006020820190508181036000830152615a94816155a4565b9050919050565b60006020820190508181036000830152615ab4816155e4565b9050919050565b60006020820190508181036000830152615ad481615624565b9050919050565b60006020820190508181036000830152615af481615664565b9050919050565b60006020820190508181036000830152615b14816156a4565b9050919050565b60006020820190508181036000830152615b348161570a565b9050919050565b60006020820190508181036000830152615b548161574a565b9050919050565b6000602082019050615b70600083018461578a565b92915050565b6000602082019050615b8b60008301846157a8565b92915050565b6000604082019050615ba660008301856157a8565b615bb360208301846157a8565b9392505050565b6000608082019050615bcf60008301876157a8565b615bdc60208301866157a8565b615be960408301856157a8565b615bf660608301846157a8565b95945050505050565b6000604051905081810181811067ffffffffffffffff82111715615c2257600080fd5b8060405250919050565b600067ffffffffffffffff821115615c4357600080fd5b602082029050919050565b6000819050919050565b600060039050919050565b600081519050919050565b600081519050919050565b6000602082019050919050565b600081905092915050565b600081905092915050565b600082825260208201905092915050565b6000615cb882615ce7565b9050919050565b60008115159050919050565b60006fffffffffffffffffffffffffffffffff82169050919050565b600073ffffffffffffffffffffffffffffffffffffffff82169050919050565b6000819050919050565b600060ff82169050919050565b6000615d2982615d78565b9050919050565b6000615d3b82615d42565b9050919050565b6000615d4d82615ce7565b9050919050565b6000615d5f82615d66565b9050919050565b6000615d7182615ce7565b9050919050565b6000615d8382615d8a565b9050919050565b6000615d9582615ce7565b9050919050565b60005b83811015615dba578082015181840152602081019050615d9f565b83811115615dc9576000848401525b50505050565b6000601f19601f8301169050919050565b615de981615cad565b8114615df457600080fd5b50565b615e0081615cbf565b8114615e0b57600080fd5b50565b615e1781615ccb565b8114615e2257600080fd5b50565b615e2e81615d07565b8114615e3957600080fd5b50565b615e4581615d11565b8114615e5057600080fd5b5056fea2646970667358221220a01a1170f9f33fa0912fdcf0208aaf0a8d1dee720f26eb7fdb57565ba712f1dc64736f6c634300060c0033",
  "immutableReferences": {},
  "source": "// SPDX-License-Identifier: UNLICENSED\r\npragma solidity ^0.6.0;\r\npragma experimental ABIEncoderV2;\r\n\r\n\r\nimport '../../Interfaces/StrategyInterface.sol';\r\nimport \"@openzeppelin/contracts/utils/ReentrancyGuard.sol\";\r\nimport './SafeERC20.sol';\r\n\r\ncontract RoyaleLP is ReentrancyGuard {\r\n    using SafeERC20 for IERC20;\r\n    using SafeMath for uint256;\r\n    \r\n    uint256 public constant DENOMINATOR = 10000;\r\n\r\n    uint128 public fees = 25; // for .25% fee, for 1.75% fee => 175\r\n\r\n    uint256 public poolPart = 750 ; // 7.5% of total Liquidity will remain in the pool\r\n\r\n    uint256 public selfBalance;\r\n\r\n    IERC20[3] public tokens;\r\n\r\n    IERC20 public rpToken;\r\n\r\n    rStrategy public strategy;\r\n    \r\n    address public wallet;\r\n\r\n    uint public YieldPoolBalance;\r\n    uint public liquidityProvidersAPY;\r\n\r\n    //storage for user related to supply and withdraw\r\n    \r\n    uint256 public lock_period = 1 minutes;\r\n\r\n    struct depositDetails {\r\n        uint index;\r\n        uint amount;\r\n        uint256 time;\r\n        uint256 remAmt;\r\n    }\r\n    \r\n    mapping(address => depositDetails[]) public amountSupplied;\r\n    mapping(address => uint256[3]) public amountWithdraw;\r\n    mapping(address => uint256[3]) public amountBurnt;\r\n    \r\n    \r\n    mapping(address => bool) public isInQ;\r\n    \r\n    address[] public withdrawRecipients;\r\n    \r\n    uint256[3] public totalWithdraw;\r\n    \r\n    uint[3] public reserveAmount;\r\n    mapping(address => bool)public reserveRecipients;\r\n    \r\n    //storage to store total loan given\r\n    uint256 public loanGiven;\r\n    \r\n    uint public loanPart=2000;\r\n    \r\n  \r\n    modifier onlyWallet(){\r\n      require(wallet ==msg.sender, \"NA\");\r\n      _;\r\n    }\r\n  \r\n     modifier validAmount(uint amount){\r\n      require(amount > 0 , \"NV\");\r\n      _;\r\n    }\r\n    \r\n    // EVENTS \r\n    event userSupplied(address user,uint amount);\r\n    event userRecieved(address user,uint amount);\r\n    event userAddedToQ(address user,uint amount);\r\n    event yieldAdded(uint amount);\r\n   \r\n    \r\n    constructor(address[3] memory _tokens,address _rpToken,address _wallet) public {\r\n        for(uint8 i=0; i<3; i++) {\r\n            tokens[i] = IERC20(_tokens[i]);\r\n        }\r\n        rpToken = IERC20(_rpToken);\r\n        wallet=_wallet;\r\n    }\r\n    \r\n     function transferOwnership(address _wallet) external onlyWallet(){\r\n        wallet =_wallet;\r\n    }\r\n\r\n    /* INTERNAL FUNCTIONS */\r\n   \r\n    \r\n    //For checking whether array contains any non zero elements or not.\r\n    function checkValidArray(uint256[3] memory amounts)internal pure returns(bool){\r\n        for(uint8 i=0;i<3;i++){\r\n            if(amounts[i]>0){\r\n                return true;\r\n            }\r\n        }\r\n        return false;\r\n    }\r\n    \r\n\r\n   \r\n    \r\n    // This function deposits the liquidity to yield generation pool using yield Strategy contract\r\n    function _deposit(uint256[3] memory amounts) internal {\r\n        strategy.deposit(amounts);\r\n        uint decimal;\r\n        for(uint8 i=0;i<3;i++){\r\n            decimal=tokens[i].decimals();\r\n            YieldPoolBalance =YieldPoolBalance.add(amounts[i].mul(10**18).div(10**decimal));\r\n        }\r\n    }\r\n   \r\n\r\n    //This function is used to updating the array of user's individual deposit , called when users withdraw/claim tokens.\r\n    function updateLockedRPT(address recipient,uint256 amount) internal{\r\n        for(uint8 j=0; j<amountSupplied[recipient].length; j++) {\r\n            if(amountSupplied[recipient][j].remAmt > 0 && amount > 0 ) {\r\n                if(amount >= amountSupplied[recipient][j].remAmt) {\r\n                        amount = amount.sub( amountSupplied[recipient][j].remAmt);\r\n                        amountSupplied[recipient][j].remAmt = 0;\r\n                }\r\n                else {\r\n                        amountSupplied[recipient][j].remAmt =(amountSupplied[recipient][j].remAmt).sub(amount);\r\n                        amount = 0;\r\n                }\r\n            }\r\n        }\r\n     }\r\n\r\n    //Funtion determines whether requested withdrawl amount is available in the pool or not.\r\n    //If yes then fulfills withdraw request \r\n    //and if no then put the request into the withdraw queue.\r\n    function checkWithdraw(uint256 amount,uint256 burnAmt,uint _index) internal{\r\n        uint256 poolBalance;\r\n        poolBalance = getBalances(_index);\r\n        rpToken.burn(msg.sender, burnAmt);\r\n        if(amount < poolBalance) {\r\n            uint decimal;\r\n            decimal=tokens[_index].decimals();\r\n            uint temp = amount.sub(amount.mul(fees).div(DENOMINATOR));\r\n            selfBalance=selfBalance.sub(temp.mul(10**18).div(10**decimal));\r\n            updateLockedRPT(msg.sender,burnAmt);\r\n            tokens[_index].safeTransfer(msg.sender, temp);\r\n            emit userRecieved(msg.sender, temp); \r\n         }\r\n         else {\r\n            _takeBackQ(amount,burnAmt,_index);\r\n            emit userAddedToQ(msg.sender, amount);\r\n        }\r\n    }\r\n\r\n\r\n\r\n    // this will add unfulfilled withdraw requests to the withdrawl queue\r\n    function _takeBackQ(uint256 amount,uint256 _burnAmount,uint256 _index) internal {\r\n        amountWithdraw[msg.sender][_index] =amountWithdraw[msg.sender][_index].add( amount);\r\n        amountBurnt[msg.sender][_index]=amountBurnt[msg.sender][_index].add(_burnAmount);\r\n        totalWithdraw[_index] =totalWithdraw[_index].add(amount);\r\n        uint total;\r\n        total=(totalWithdraw[1].add(totalWithdraw[2])).mul(1e18).div(10**6);\r\n        require((totalWithdraw[0]+total)<=YieldPoolBalance,\"Not enough balance\");\r\n        if(!isInQ[msg.sender]) {\r\n            isInQ[msg.sender] = true;\r\n            withdrawRecipients.push(msg.sender);\r\n            \r\n        }\r\n\r\n    }\r\n\r\n\r\n    //this function is called when Royale Govenance withdrawl from yield generation pool.It add all the withdrawl amount in the reserve amount.\r\n    //All the users who requested for the withdrawl are added to the reserveRecipients.\r\n    function updateWithdrawQueue() internal{\r\n        for(uint8 i=0;i<3;i++){\r\n            reserveAmount[i]=reserveAmount[i].add(totalWithdraw[i]);\r\n            totalWithdraw[i]=0;\r\n        }\r\n        for(uint i=0; i<withdrawRecipients.length; i++) {\r\n            reserveRecipients[withdrawRecipients[i]]=true;\r\n            isInQ[withdrawRecipients[i]]=false;\r\n        }\r\n        uint count=withdrawRecipients.length;\r\n        for(uint i=0;i<count;i++){\r\n            withdrawRecipients.pop();\r\n        }\r\n    }\r\n\r\n    // this will withdraw Liquidity from yield genaration pool using yield Strategy\r\n    function _withdraw(uint256[3] memory amounts) internal {\r\n        strategy.withdraw(amounts);\r\n        uint decimal;\r\n        for(uint8 i=0;i<3;i++){\r\n            decimal=tokens[i].decimals();\r\n            YieldPoolBalance =YieldPoolBalance.sub(amounts[i].mul(10**18).div(10**decimal));\r\n        }\r\n    }\r\n\r\n    //This function calculate RPT to be mint or burn\r\n    //amount parameter is amount of token\r\n    //_index can be 0/1/2 \r\n    //0-DAI\r\n    //1-USDC\r\n    //2-USDT\r\n    function calcRptAmount(uint256 amount,uint _index) public view returns(uint256) {\r\n        uint256 total = calculateTotalToken(true);\r\n        uint256 decimal = 0;\r\n        decimal=tokens[_index].decimals();\r\n        amount=amount.mul(1e18).div(10**decimal);\r\n        if(total==0){\r\n            return amount;\r\n        }\r\n        else{\r\n          return (amount.mul(rpToken.totalSupply()).div(total)); \r\n        }\r\n    }\r\n\r\n\r\n\r\n    //function to check available amount to withdraw for user\r\n    function availableLiquidity(address addr, uint coin,bool _time) public view returns(uint256 token,uint256 RPT) {\r\n        uint256 amount=0;\r\n        for(uint8 j=0; j<amountSupplied[addr].length; j++) {\r\n                if( (!_time || (now - amountSupplied[addr][j].time)  > lock_period)&&amountSupplied[addr][j].remAmt >0)   {\r\n                        amount =amount.add(amountSupplied[addr][j].remAmt);\r\n                }\r\n        }\r\n        for(uint8 i=0;i<3;i++){\r\n            amount =amount.sub(amountBurnt[addr][i]);\r\n        }\r\n        uint256 total=calculateTotalToken(true);\r\n        uint256 decimal;\r\n        decimal=tokens[coin].decimals();\r\n        return ((amount.mul(total).mul(10**decimal).div(rpToken.totalSupply())).div(10**18),amount);\r\n    }\r\n    \r\n\r\n    //calculated available total tokens in the pool by substracting withdrawal, reserve amount.\r\n    //In case supply is true , it adds total loan given.\r\n    function calculateTotalToken(bool _supply)public view returns(uint256){\r\n        uint256 decimal;\r\n        uint withdrawTotal;\r\n        uint reserveTotal;\r\n       \r\n        for(uint8 i=0; i<3; i++) {\r\n            decimal = tokens[i].decimals();\r\n            withdrawTotal=withdrawTotal.add(totalWithdraw[i].mul(1e18).div(10**decimal));\r\n            reserveTotal=reserveTotal.add(reserveAmount[i].mul(1e18).div(10**decimal));\r\n        } \r\n        if(_supply){\r\n            return selfBalance.sub(withdrawTotal).sub(reserveTotal).add(loanGiven);\r\n        }\r\n        else{\r\n            return selfBalance.sub(withdrawTotal).sub(reserveTotal);\r\n        }\r\n        \r\n    }\r\n    \r\n    /* USER FUNCTIONS (exposed to frontend) */\r\n   \r\n    //For depositing liquidity to the pool.\r\n    //_index will be 0/1/2     0-DAI , 1-USDC , 2-USDT\r\n    function supply(uint256 amount,uint256 _index) external nonReentrant  validAmount(amount){\r\n        \r\n        uint decimal;\r\n        uint256 mintAmount=calcRptAmount(amount,_index);\r\n        amountSupplied[msg.sender].push(depositDetails(_index,amount,now,mintAmount));\r\n        decimal=tokens[_index].decimals();\r\n        selfBalance=selfBalance.add(amount.mul(10**18).div(10**decimal));\r\n        tokens[_index].safeTransferFrom(msg.sender, address(this), amount);\r\n        rpToken.mint(msg.sender, mintAmount);\r\n        emit userSupplied(msg.sender, amount);\r\n    }\r\n\r\n    \r\n    //for withdrawing the liquidity\r\n    //First Parameter is amount of RPT\r\n    //Second is which token to be withdrawal with this RPT.\r\n    function requestWithdrawWithRPT(uint256 amount,uint256 _index) external nonReentrant validAmount(amount){\r\n        require(!reserveRecipients[msg.sender],\"Claim first\");\r\n        require(rpToken.balanceOf(msg.sender) >= amount, \"low RPT\");\r\n        (,uint availableRPT)=availableLiquidity(msg.sender,_index,true );\r\n        bool instant=true;\r\n         if(availableRPT < amount) {\r\n             instant=false;\r\n        }\r\n        require(instant,\"NA\");\r\n        uint256 total = calculateTotalToken(true);\r\n        uint256 tokenAmount;\r\n        tokenAmount=amount.mul(total).div(rpToken.totalSupply());\r\n        require(tokenAmount <= calculateTotalToken(false),\"Not Enough Pool balance\");\r\n        uint decimal;\r\n        decimal=tokens[_index].decimals();\r\n        checkWithdraw(tokenAmount.mul(10**decimal).div(10**18),amount,_index);  \r\n    }\r\n    \r\n    //For claiming withdrawal after user added to the reserve recipient.\r\n    function claimTokens() external  nonReentrant{\r\n        require(reserveRecipients[msg.sender] , \"request withdraw first\");\r\n        \r\n        uint totalBurnt;\r\n        uint decimal;\r\n        for(uint8 i=0; i<3; i++) {\r\n            if(amountWithdraw[msg.sender][i] > 0) {\r\n                decimal=tokens[i].decimals();\r\n                uint temp = amountWithdraw[msg.sender][i].sub((amountWithdraw[msg.sender][i].mul(fees)).div(DENOMINATOR));\r\n                reserveAmount[i] =reserveAmount[i].sub(amountWithdraw[msg.sender][i]);\r\n                selfBalance = selfBalance.sub(temp.mul(1e18).div(10**decimal));\r\n                totalBurnt =totalBurnt.add(amountBurnt[msg.sender][i]);\r\n                amountWithdraw[msg.sender][i] = 0;\r\n                amountBurnt[msg.sender][i]=0;\r\n                tokens[i].safeTransfer(msg.sender,  temp);\r\n                emit userRecieved(msg.sender,temp);\r\n            }\r\n        }\r\n        updateLockedRPT(msg.sender,totalBurnt);\r\n        reserveRecipients[msg.sender] = false;\r\n    }\r\n\r\n\r\n    // this function deposits without minting RPT.\r\n    //Used to deposit Yield\r\n    function depositYield(uint256 amount,uint _index) external{\r\n        uint decimal;\r\n        decimal=tokens[_index].decimals();\r\n        selfBalance=selfBalance.add(amount.mul(1e18).div(10**decimal));\r\n        liquidityProvidersAPY=liquidityProvidersAPY.add(amount.mul(1e18).div(10**decimal));\r\n        tokens[_index].safeTransferFrom(msg.sender,address(this),amount);\r\n        emit yieldAdded(amount);\r\n    }\r\n\r\n\r\n    /* CORE FUNCTIONS (called by owner only) */\r\n\r\n    //Transfer token to rStrategy by maintaining pool ratio.\r\n    function deposit() onlyWallet() external  {\r\n        uint256[3] memory amounts;\r\n        uint256 totalAmount;\r\n        uint256 decimal;\r\n        totalAmount=calculateTotalToken(false);\r\n        uint balanceAmount=totalAmount.mul(poolPart.div(3)).div(DENOMINATOR);\r\n        uint tokenBalance;\r\n        for(uint8 i=0;i<3;i++){\r\n            decimal=tokens[i].decimals();\r\n            amounts[i]=getBalances(i);\r\n            tokenBalance=balanceAmount.mul(10**decimal).div(10**18);\r\n            if(amounts[i]>tokenBalance){\r\n                amounts[i]=amounts[i].sub(tokenBalance);\r\n                tokens[i].safeTransfer(address(strategy),amounts[i]);\r\n            }\r\n            else{\r\n                amounts[i]=0;\r\n            }\r\n        }\r\n        if(checkValidArray(amounts)){\r\n            _deposit(amounts);\r\n        }\r\n    }\r\n    \r\n\r\n    //Withdraw from Yield genaration pool.\r\n    function withdraw() onlyWallet() external  {\r\n        require(checkValidArray(totalWithdraw), \"queue empty\");\r\n        _withdraw(totalWithdraw);\r\n        updateWithdrawQueue();\r\n    }\r\n\r\n   //Withdraw total liquidity from yield generation pool\r\n    function withdrawAll() external onlyWallet() {\r\n        uint[3] memory amounts;\r\n        amounts=strategy.withdrawAll();\r\n        uint decimal;\r\n        selfBalance=0;\r\n        for(uint8 i=0;i<3;i++){\r\n            decimal=tokens[i].decimals();\r\n            selfBalance=selfBalance.add((tokens[i].balanceOf(address(this))).mul(1e18).div(10**decimal));\r\n        }\r\n        YieldPoolBalance=0;\r\n        updateWithdrawQueue();\r\n    }\r\n\r\n\r\n    //function for rebalancing royale pool(ratio)      \r\n    function rebalance() onlyWallet() external {\r\n        uint256 currentAmount;\r\n        uint256[3] memory amountToWithdraw;\r\n        uint256[3] memory amountToDeposit;\r\n        uint totalAmount;\r\n        uint256 decimal;\r\n        totalAmount=calculateTotalToken(false);\r\n        uint balanceAmount=totalAmount.mul(poolPart.div(3)).div(DENOMINATOR);\r\n        uint tokenBalance;\r\n        for(uint8 i=0;i<3;i++) {\r\n           currentAmount=getBalances(i);\r\n           decimal=tokens[i].decimals();\r\n           tokenBalance=balanceAmount.mul(10**decimal).div(10**18);\r\n           if(tokenBalance > currentAmount) {\r\n              amountToWithdraw[i] = tokenBalance.sub(currentAmount);\r\n           }\r\n           else if(tokenBalance < currentAmount) {\r\n               amountToDeposit[i] = currentAmount.sub(tokenBalance);\r\n               tokens[i].safeTransfer(address(strategy), amountToDeposit[i]);\r\n               \r\n           }\r\n           else {\r\n               amountToWithdraw[i] = 0;\r\n               amountToDeposit[i] = 0;\r\n           }\r\n        }\r\n        if(checkValidArray(amountToDeposit)){\r\n             _deposit(amountToDeposit);\r\n             \r\n        }\r\n        if(checkValidArray(amountToWithdraw)) {\r\n            _withdraw(amountToWithdraw);\r\n            \r\n        }\r\n\r\n    }\r\n    \r\n    //For withdrawing loan from the royale Pool\r\n    function withdrawLoan(uint[3] memory amounts,address _recipient)external onlyWallet(){\r\n        require(checkValidArray(amounts),\"amount can not zero\");\r\n        uint decimal;\r\n        uint total;\r\n        for(uint i=0;i<3;i++){\r\n           decimal=tokens[i].decimals();\r\n           total=total.add(amounts[i].mul(1e18).div(10**decimal));\r\n        }\r\n        require(loanGiven.add(total)<=(calculateTotalToken(true).mul(loanPart).div(DENOMINATOR)),\"Exceed limit\");\r\n        require(total<calculateTotalToken(false),\"Not enough balance\");\r\n        _withdraw(amounts);\r\n        loanGiven =loanGiven.add(total);\r\n        selfBalance=selfBalance.sub(total);\r\n        for(uint8 i=0; i<3; i++) {\r\n            if(amounts[i] > 0) {\r\n                tokens[i].safeTransfer(_recipient, amounts[i]);\r\n            }\r\n        }\r\n        \r\n    }\r\n    \r\n   // For repaying the loan to the royale Pool.\r\n    function repayLoan(uint[3] memory amounts)external {\r\n        require(checkValidArray(amounts),\"amount can't be zero\");\r\n        uint decimal;\r\n        for(uint8 i=0; i<3; i++) {\r\n            if(amounts[i] > 0) {\r\n                decimal=tokens[i].decimals();\r\n                loanGiven =loanGiven.sub(amounts[i].mul(1e18).div(10**decimal));\r\n                selfBalance=selfBalance.add(amounts[i].mul(1e18).div(10**decimal));\r\n                tokens[i].safeTransferFrom(msg.sender,address(this),amounts[i]);\r\n            }\r\n        }\r\n    }\r\n    \r\n\r\n    //for changing pool ratio\r\n    function changePoolPart(uint128 _newPoolPart) external onlyWallet()  {\r\n        poolPart = _newPoolPart;\r\n        \r\n    }\r\n\r\n   //For changing yield Strategy\r\n    function changeStrategy(address _strategy) onlyWallet() external  {\r\n        for(uint8 i=0;i<3;i++){\r\n            require(YieldPoolBalance==0, \"Call withdrawAll function first\");\r\n        } \r\n        strategy=rStrategy(_strategy);\r\n        \r\n    }\r\n\r\n    function setLockPeriod(uint256 lockperiod) onlyWallet() external  {\r\n        lock_period = lockperiod;\r\n        \r\n    }\r\n\r\n     // for changing withdrawal fees  \r\n    function setWithdrawFees(uint128 _fees) onlyWallet() external {\r\n        fees = _fees;\r\n\r\n    }\r\n    \r\n    function changeLoanPart(uint256 _value)onlyWallet() external{\r\n        loanPart=_value;\r\n    }\r\n\r\n   /* function transferAllFunds(address _address)external onlyWallet(){\r\n        selfBalance=0;\r\n        for(uint8 i=0;i<3;i++){\r\n            tokens[i].safeTransfer(_address,tokens[i].balanceOf(address(this)));\r\n        }\r\n    } */  \r\n    \r\n    function getBalances(uint _index) public view returns(uint256) {\r\n        return (tokens[_index].balanceOf(address(this)).sub(reserveAmount[_index]));\r\n    }\r\n}",
  "sourcePath": "C:/Users/vishn/OneDrive/Desktop/RoyaleProject/RoyaleFinance/royale-contracts/contracts/Pool/RoyaleLP.sol",
  "compiler": {
    "name": "solc",
    "version": "0.6.12+commit.27d51765.Emscripten.clang"
  },
  "schemaVersion": "3.3.2",
  "updatedAt": "2021-03-15T13:50:00.410Z",
  "devdoc": {
    "kind": "dev",
    "methods": {},
    "version": 1
  },
  "userdoc": {
    "kind": "user",
    "methods": {},
    "version": 1
  }
}