{
  "contractName": "StakedToken",
  "abi": [
    {
      "inputs": [
        {
          "internalType": "contract IERC20",
          "name": "stakedToken",
          "type": "address"
        },
        {
          "internalType": "contract IERC20",
          "name": "rewardToken",
          "type": "address"
        },
        {
          "internalType": "uint256",
          "name": "cooldownSeconds",
          "type": "uint256"
        },
        {
          "internalType": "uint256",
          "name": "unstakeWindow",
          "type": "uint256"
        },
        {
          "internalType": "address",
          "name": "rewardsVault",
          "type": "address"
        },
        {
          "internalType": "address",
          "name": "emissionManager",
          "type": "address"
        },
        {
          "internalType": "uint128",
          "name": "distributionDuration",
          "type": "uint128"
        },
        {
          "internalType": "string",
          "name": "name",
          "type": "string"
        },
        {
          "internalType": "string",
          "name": "symbol",
          "type": "string"
        },
        {
          "internalType": "uint8",
          "name": "decimals",
          "type": "uint8"
        }
      ],
      "stateMutability": "nonpayable",
      "type": "constructor"
    },
    {
      "anonymous": false,
      "inputs": [
        {
          "indexed": true,
          "internalType": "address",
          "name": "owner",
          "type": "address"
        },
        {
          "indexed": true,
          "internalType": "address",
          "name": "spender",
          "type": "address"
        },
        {
          "indexed": false,
          "internalType": "uint256",
          "name": "value",
          "type": "uint256"
        }
      ],
      "name": "Approval",
      "type": "event"
    },
    {
      "anonymous": false,
      "inputs": [
        {
          "indexed": true,
          "internalType": "address",
          "name": "asset",
          "type": "address"
        },
        {
          "indexed": false,
          "internalType": "uint256",
          "name": "emission",
          "type": "uint256"
        }
      ],
      "name": "AssetConfigUpdated",
      "type": "event"
    },
    {
      "anonymous": false,
      "inputs": [
        {
          "indexed": true,
          "internalType": "address",
          "name": "asset",
          "type": "address"
        },
        {
          "indexed": false,
          "internalType": "uint256",
          "name": "index",
          "type": "uint256"
        }
      ],
      "name": "AssetIndexUpdated",
      "type": "event"
    },
    {
      "anonymous": false,
      "inputs": [
        {
          "indexed": true,
          "internalType": "address",
          "name": "user",
          "type": "address"
        }
      ],
      "name": "Cooldown",
      "type": "event"
    },
    {
      "anonymous": false,
      "inputs": [
        {
          "indexed": true,
          "internalType": "address",
          "name": "from",
          "type": "address"
        },
        {
          "indexed": true,
          "internalType": "address",
          "name": "to",
          "type": "address"
        },
        {
          "indexed": false,
          "internalType": "uint256",
          "name": "amount",
          "type": "uint256"
        }
      ],
      "name": "Redeem",
      "type": "event"
    },
    {
      "anonymous": false,
      "inputs": [
        {
          "indexed": false,
          "internalType": "address",
          "name": "user",
          "type": "address"
        },
        {
          "indexed": false,
          "internalType": "uint256",
          "name": "amount",
          "type": "uint256"
        }
      ],
      "name": "RewardsAccrued",
      "type": "event"
    },
    {
      "anonymous": false,
      "inputs": [
        {
          "indexed": true,
          "internalType": "address",
          "name": "from",
          "type": "address"
        },
        {
          "indexed": true,
          "internalType": "address",
          "name": "to",
          "type": "address"
        },
        {
          "indexed": false,
          "internalType": "uint256",
          "name": "amount",
          "type": "uint256"
        }
      ],
      "name": "RewardsClaimed",
      "type": "event"
    },
    {
      "anonymous": false,
      "inputs": [
        {
          "indexed": false,
          "internalType": "address",
          "name": "owner",
          "type": "address"
        },
        {
          "indexed": false,
          "internalType": "uint128",
          "name": "oldValue",
          "type": "uint128"
        },
        {
          "indexed": false,
          "internalType": "uint128",
          "name": "newValue",
          "type": "uint128"
        }
      ],
      "name": "SnapshotDone",
      "type": "event"
    },
    {
      "anonymous": false,
      "inputs": [
        {
          "indexed": true,
          "internalType": "address",
          "name": "from",
          "type": "address"
        },
        {
          "indexed": true,
          "internalType": "address",
          "name": "onBehalfOf",
          "type": "address"
        },
        {
          "indexed": false,
          "internalType": "uint256",
          "name": "amount",
          "type": "uint256"
        }
      ],
      "name": "Staked",
      "type": "event"
    },
    {
      "anonymous": false,
      "inputs": [
        {
          "indexed": true,
          "internalType": "address",
          "name": "from",
          "type": "address"
        },
        {
          "indexed": true,
          "internalType": "address",
          "name": "to",
          "type": "address"
        },
        {
          "indexed": false,
          "internalType": "uint256",
          "name": "value",
          "type": "uint256"
        }
      ],
      "name": "Transfer",
      "type": "event"
    },
    {
      "anonymous": false,
      "inputs": [
        {
          "indexed": true,
          "internalType": "address",
          "name": "user",
          "type": "address"
        },
        {
          "indexed": true,
          "internalType": "address",
          "name": "asset",
          "type": "address"
        },
        {
          "indexed": false,
          "internalType": "uint256",
          "name": "index",
          "type": "uint256"
        }
      ],
      "name": "UserIndexUpdated",
      "type": "event"
    },
    {
      "inputs": [],
      "name": "COOLDOWN_SECONDS",
      "outputs": [
        {
          "internalType": "uint256",
          "name": "",
          "type": "uint256"
        }
      ],
      "stateMutability": "view",
      "type": "function"
    },
    {
      "inputs": [],
      "name": "DISTRIBUTION_END",
      "outputs": [
        {
          "internalType": "uint256",
          "name": "",
          "type": "uint256"
        }
      ],
      "stateMutability": "view",
      "type": "function"
    },
    {
      "inputs": [],
      "name": "EMISSION_MANAGER",
      "outputs": [
        {
          "internalType": "address",
          "name": "",
          "type": "address"
        }
      ],
      "stateMutability": "view",
      "type": "function"
    },
    {
      "inputs": [],
      "name": "PRECISION",
      "outputs": [
        {
          "internalType": "uint8",
          "name": "",
          "type": "uint8"
        }
      ],
      "stateMutability": "view",
      "type": "function"
    },
    {
      "inputs": [],
      "name": "REVISION",
      "outputs": [
        {
          "internalType": "uint256",
          "name": "",
          "type": "uint256"
        }
      ],
      "stateMutability": "view",
      "type": "function"
    },
    {
      "inputs": [],
      "name": "REWARDS_VAULT",
      "outputs": [
        {
          "internalType": "address",
          "name": "",
          "type": "address"
        }
      ],
      "stateMutability": "view",
      "type": "function"
    },
    {
      "inputs": [],
      "name": "REWARD_TOKEN",
      "outputs": [
        {
          "internalType": "contract IERC20",
          "name": "",
          "type": "address"
        }
      ],
      "stateMutability": "view",
      "type": "function"
    },
    {
      "inputs": [],
      "name": "STAKED_TOKEN",
      "outputs": [
        {
          "internalType": "contract IERC20",
          "name": "",
          "type": "address"
        }
      ],
      "stateMutability": "view",
      "type": "function"
    },
    {
      "inputs": [],
      "name": "UNSTAKE_WINDOW",
      "outputs": [
        {
          "internalType": "uint256",
          "name": "",
          "type": "uint256"
        }
      ],
      "stateMutability": "view",
      "type": "function"
    },
    {
      "inputs": [
        {
          "internalType": "address",
          "name": "",
          "type": "address"
        }
      ],
      "name": "_countsSnapshots",
      "outputs": [
        {
          "internalType": "uint256",
          "name": "",
          "type": "uint256"
        }
      ],
      "stateMutability": "view",
      "type": "function"
    },
    {
      "inputs": [],
      "name": "_royaGovernance",
      "outputs": [
        {
          "internalType": "contract ITransferHook",
          "name": "",
          "type": "address"
        }
      ],
      "stateMutability": "view",
      "type": "function"
    },
    {
      "inputs": [
        {
          "internalType": "address",
          "name": "",
          "type": "address"
        },
        {
          "internalType": "uint256",
          "name": "",
          "type": "uint256"
        }
      ],
      "name": "_snapshots",
      "outputs": [
        {
          "internalType": "uint128",
          "name": "blockNumber",
          "type": "uint128"
        },
        {
          "internalType": "uint128",
          "name": "value",
          "type": "uint128"
        }
      ],
      "stateMutability": "view",
      "type": "function"
    },
    {
      "inputs": [
        {
          "internalType": "address",
          "name": "owner",
          "type": "address"
        },
        {
          "internalType": "address",
          "name": "spender",
          "type": "address"
        }
      ],
      "name": "allowance",
      "outputs": [
        {
          "internalType": "uint256",
          "name": "",
          "type": "uint256"
        }
      ],
      "stateMutability": "view",
      "type": "function"
    },
    {
      "inputs": [
        {
          "internalType": "address",
          "name": "spender",
          "type": "address"
        },
        {
          "internalType": "uint256",
          "name": "amount",
          "type": "uint256"
        }
      ],
      "name": "approve",
      "outputs": [
        {
          "internalType": "bool",
          "name": "",
          "type": "bool"
        }
      ],
      "stateMutability": "nonpayable",
      "type": "function"
    },
    {
      "inputs": [
        {
          "internalType": "address",
          "name": "",
          "type": "address"
        }
      ],
      "name": "assets",
      "outputs": [
        {
          "internalType": "uint128",
          "name": "emissionPerSecond",
          "type": "uint128"
        },
        {
          "internalType": "uint128",
          "name": "lastUpdateTimestamp",
          "type": "uint128"
        },
        {
          "internalType": "uint256",
          "name": "index",
          "type": "uint256"
        }
      ],
      "stateMutability": "view",
      "type": "function"
    },
    {
      "inputs": [
        {
          "internalType": "address",
          "name": "account",
          "type": "address"
        }
      ],
      "name": "balanceOf",
      "outputs": [
        {
          "internalType": "uint256",
          "name": "",
          "type": "uint256"
        }
      ],
      "stateMutability": "view",
      "type": "function"
    },
    {
      "inputs": [
        {
          "components": [
            {
              "internalType": "uint128",
              "name": "emissionPerSecond",
              "type": "uint128"
            },
            {
              "internalType": "uint256",
              "name": "totalStaked",
              "type": "uint256"
            },
            {
              "internalType": "address",
              "name": "underlyingAsset",
              "type": "address"
            }
          ],
          "internalType": "struct DistributionTypes.AssetConfigInput[]",
          "name": "assetsConfigInput",
          "type": "tuple[]"
        }
      ],
      "name": "configureAssets",
      "outputs": [],
      "stateMutability": "nonpayable",
      "type": "function"
    },
    {
      "inputs": [],
      "name": "decimals",
      "outputs": [
        {
          "internalType": "uint8",
          "name": "",
          "type": "uint8"
        }
      ],
      "stateMutability": "view",
      "type": "function"
    },
    {
      "inputs": [
        {
          "internalType": "address",
          "name": "spender",
          "type": "address"
        },
        {
          "internalType": "uint256",
          "name": "subtractedValue",
          "type": "uint256"
        }
      ],
      "name": "decreaseAllowance",
      "outputs": [
        {
          "internalType": "bool",
          "name": "",
          "type": "bool"
        }
      ],
      "stateMutability": "nonpayable",
      "type": "function"
    },
    {
      "inputs": [
        {
          "internalType": "address",
          "name": "user",
          "type": "address"
        },
        {
          "internalType": "address",
          "name": "asset",
          "type": "address"
        }
      ],
      "name": "getUserAssetData",
      "outputs": [
        {
          "internalType": "uint256",
          "name": "",
          "type": "uint256"
        }
      ],
      "stateMutability": "view",
      "type": "function"
    },
    {
      "inputs": [
        {
          "internalType": "address",
          "name": "spender",
          "type": "address"
        },
        {
          "internalType": "uint256",
          "name": "addedValue",
          "type": "uint256"
        }
      ],
      "name": "increaseAllowance",
      "outputs": [
        {
          "internalType": "bool",
          "name": "",
          "type": "bool"
        }
      ],
      "stateMutability": "nonpayable",
      "type": "function"
    },
    {
      "inputs": [],
      "name": "name",
      "outputs": [
        {
          "internalType": "string",
          "name": "",
          "type": "string"
        }
      ],
      "stateMutability": "view",
      "type": "function"
    },
    {
      "inputs": [
        {
          "internalType": "address",
          "name": "",
          "type": "address"
        }
      ],
      "name": "stakerRewardsToClaim",
      "outputs": [
        {
          "internalType": "uint256",
          "name": "",
          "type": "uint256"
        }
      ],
      "stateMutability": "view",
      "type": "function"
    },
    {
      "inputs": [
        {
          "internalType": "address",
          "name": "",
          "type": "address"
        }
      ],
      "name": "stakersCooldowns",
      "outputs": [
        {
          "internalType": "uint256",
          "name": "",
          "type": "uint256"
        }
      ],
      "stateMutability": "view",
      "type": "function"
    },
    {
      "inputs": [],
      "name": "symbol",
      "outputs": [
        {
          "internalType": "string",
          "name": "",
          "type": "string"
        }
      ],
      "stateMutability": "view",
      "type": "function"
    },
    {
      "inputs": [],
      "name": "totalSupply",
      "outputs": [
        {
          "internalType": "uint256",
          "name": "",
          "type": "uint256"
        }
      ],
      "stateMutability": "view",
      "type": "function"
    },
    {
      "inputs": [
        {
          "internalType": "address",
          "name": "recipient",
          "type": "address"
        },
        {
          "internalType": "uint256",
          "name": "amount",
          "type": "uint256"
        }
      ],
      "name": "transfer",
      "outputs": [
        {
          "internalType": "bool",
          "name": "",
          "type": "bool"
        }
      ],
      "stateMutability": "nonpayable",
      "type": "function"
    },
    {
      "inputs": [
        {
          "internalType": "address",
          "name": "sender",
          "type": "address"
        },
        {
          "internalType": "address",
          "name": "recipient",
          "type": "address"
        },
        {
          "internalType": "uint256",
          "name": "amount",
          "type": "uint256"
        }
      ],
      "name": "transferFrom",
      "outputs": [
        {
          "internalType": "bool",
          "name": "",
          "type": "bool"
        }
      ],
      "stateMutability": "nonpayable",
      "type": "function"
    },
    {
      "inputs": [
        {
          "internalType": "contract ITransferHook",
          "name": "royaGovernance",
          "type": "address"
        },
        {
          "internalType": "string",
          "name": "name",
          "type": "string"
        },
        {
          "internalType": "string",
          "name": "symbol",
          "type": "string"
        },
        {
          "internalType": "uint8",
          "name": "decimals",
          "type": "uint8"
        }
      ],
      "name": "initialize",
      "outputs": [],
      "stateMutability": "nonpayable",
      "type": "function"
    },
    {
      "inputs": [
        {
          "internalType": "address",
          "name": "onBehalfOf",
          "type": "address"
        },
        {
          "internalType": "uint256",
          "name": "amount",
          "type": "uint256"
        }
      ],
      "name": "stake",
      "outputs": [],
      "stateMutability": "nonpayable",
      "type": "function"
    },
    {
      "inputs": [
        {
          "internalType": "address",
          "name": "to",
          "type": "address"
        },
        {
          "internalType": "uint256",
          "name": "amount",
          "type": "uint256"
        }
      ],
      "name": "redeem",
      "outputs": [],
      "stateMutability": "nonpayable",
      "type": "function"
    },
    {
      "inputs": [],
      "name": "cooldown",
      "outputs": [],
      "stateMutability": "nonpayable",
      "type": "function"
    },
    {
      "inputs": [
        {
          "internalType": "address",
          "name": "to",
          "type": "address"
        },
        {
          "internalType": "uint256",
          "name": "amount",
          "type": "uint256"
        }
      ],
      "name": "claimRewards",
      "outputs": [],
      "stateMutability": "nonpayable",
      "type": "function"
    },
    {
      "inputs": [
        {
          "internalType": "uint256",
          "name": "fromCooldownTimestamp",
          "type": "uint256"
        },
        {
          "internalType": "uint256",
          "name": "amountToReceive",
          "type": "uint256"
        },
        {
          "internalType": "address",
          "name": "toAddress",
          "type": "address"
        },
        {
          "internalType": "uint256",
          "name": "toBalance",
          "type": "uint256"
        }
      ],
      "name": "getNextCooldownTimestamp",
      "outputs": [
        {
          "internalType": "uint256",
          "name": "",
          "type": "uint256"
        }
      ],
      "stateMutability": "nonpayable",
      "type": "function"
    },
    {
      "inputs": [
        {
          "internalType": "address",
          "name": "staker",
          "type": "address"
        }
      ],
      "name": "getTotalRewardsBalance",
      "outputs": [
        {
          "internalType": "uint256",
          "name": "",
          "type": "uint256"
        }
      ],
      "stateMutability": "view",
      "type": "function"
    }
  ],
  "bytecode": "0x61016060405260006009553480156200001757600080fd5b5060405162004f5d38038062004f5d83398181016040528101906200003d919062000399565b84846fffffffffffffffffffffffffffffffff1684848482828282600390805190602001906200006f92919062000224565b5081600490805190602001906200008892919062000224565b5080600560006101000a81548160ff021916908360ff160217905550505050505050620000c48142620001cc60201b62001c911790919060201c565b608081815250508173ffffffffffffffffffffffffffffffffffffffff1660a08173ffffffffffffffffffffffffffffffffffffffff1660601b8152505050508973ffffffffffffffffffffffffffffffffffffffff1660c08173ffffffffffffffffffffffffffffffffffffffff1660601b815250508873ffffffffffffffffffffffffffffffffffffffff1660e08173ffffffffffffffffffffffffffffffffffffffff1660601b815250508761010081815250508661012081815250508573ffffffffffffffffffffffffffffffffffffffff166101408173ffffffffffffffffffffffffffffffffffffffff1660601b8152505050505050505050505050620006be565b6000808284019050838110156200021a576040517f08c379a00000000000000000000000000000000000000000000000000000000081526004016200021190620004fd565b60405180910390fd5b8091505092915050565b828054600181600116156101000203166002900490600052602060002090601f016020900481019282601f106200026757805160ff191683800117855562000298565b8280016001018555821562000298579182015b82811115620002975782518255916020019190600101906200027a565b5b509050620002a79190620002ab565b5090565b5b80821115620002c6576000816000905550600101620002ac565b5090565b600081519050620002db816200063c565b92915050565b600081519050620002f28162000656565b92915050565b600082601f8301126200030a57600080fd5b8151620003216200031b826200054d565b6200051f565b915080825260208301602083018583830111156200033e57600080fd5b6200034b83828462000606565b50505092915050565b600081519050620003658162000670565b92915050565b6000815190506200037c816200068a565b92915050565b6000815190506200039381620006a4565b92915050565b6000806000806000806000806000806101408b8d031215620003ba57600080fd5b6000620003ca8d828e01620002e1565b9a50506020620003dd8d828e01620002e1565b9950506040620003f08d828e016200036b565b9850506060620004038d828e016200036b565b9750506080620004168d828e01620002ca565b96505060a0620004298d828e01620002ca565b95505060c06200043c8d828e0162000354565b94505060e08b015167ffffffffffffffff8111156200045a57600080fd5b620004688d828e01620002f8565b9350506101008b015167ffffffffffffffff8111156200048757600080fd5b620004958d828e01620002f8565b925050610120620004a98d828e0162000382565b9150509295989b9194979a5092959850565b6000620004ca601b836200057a565b91507f536166654d6174683a206164646974696f6e206f766572666c6f7700000000006000830152602082019050919050565b600060208201905081810360008301526200051881620004bb565b9050919050565b6000604051905081810181811067ffffffffffffffff821117156200054357600080fd5b8060405250919050565b600067ffffffffffffffff8211156200056557600080fd5b601f19601f8301169050602081019050919050565b600082825260208201905092915050565b60006200059882620005cf565b9050919050565b6000620005ac826200058b565b9050919050565b60006fffffffffffffffffffffffffffffffff82169050919050565b600073ffffffffffffffffffffffffffffffffffffffff82169050919050565b6000819050919050565b600060ff82169050919050565b60005b838110156200062657808201518184015260208101905062000609565b8381111562000636576000848401525b50505050565b62000647816200058b565b81146200065357600080fd5b50565b62000661816200059f565b81146200066d57600080fd5b50565b6200067b81620005b3565b81146200068757600080fd5b50565b6200069581620005ef565b8114620006a157600080fd5b50565b620006af81620005f9565b8114620006bb57600080fd5b50565b60805160a05160601c60c05160601c60e05160601c61010051610120516101405160601c6147fe6200075f6000398061108052806112455250806109035280610d005280611a3b525080610892528061092a5280610e1f5280611a5f5250806111465280611268525080610a475280610c3b52806115a952508061165b52806118a652508061105c52806131a852806131ee528061321b52506147fe6000f3fe608060405234801561001057600080fd5b50600436106102115760003560e01c80638dbefee211610125578063adc9772e116100ad578063dd62ed3e1161007c578063dd62ed3e14610657578063dde43cba14610687578063f11b8188146106a5578063f1cc432a146106d7578063f6d2ee861461070757610211565b8063adc9772e146105e3578063b2a5dbfa146105ff578063cbcbb5071461061b578063d38a3d3c1461063957610211565b806399248ea7116100f457806399248ea71461052b5780639a99b4f014610549578063a457c2d714610565578063a9059cbb14610595578063aaf5eb68146105c557610211565b80638dbefee2146104a1578063919cd40f146104d1578063946776cd146104ef57806395d89b411461050d57610211565b8063313ce567116101a857806370a082311161017757806370a08231146103e957806372b49d6314610419578063787a08a6146104375780637e90d7ef146104415780638779588c1461047157610211565b8063313ce5671461034d5780633373ee4c1461036b578063359c4a961461039b57806339509351146103b957610211565b80631e9a6950116101e45780631e9a6950146102b257806323b872dd146102ce5780632acbf823146102fe578063312f6b831461032f57610211565b806306fdde0314610216578063091030c314610234578063095ea7b31461026457806318160ddd14610294575b600080fd5b61021e610723565b60405161022b9190614263565b60405180910390f35b61024e60048036038101906102499190613872565b6107c5565b60405161025b9190614520565b60405180910390f35b61027e60048036038101906102799190613926565b6107dd565b60405161028b9190614212565b60405180910390f35b61029c6107fb565b6040516102a99190614520565b60405180910390f35b6102cc60048036038101906102c79190613926565b610805565b005b6102e860048036038101906102e391906138d7565b610af7565b6040516102f59190614212565b60405180910390f35b61031860048036038101906103139190613926565b610bd0565b6040516103269291906144c0565b60405180910390f35b610337610c39565b604051610344919061422d565b60405180910390f35b610355610c5d565b604051610362919061453b565b60405180910390f35b6103856004803603810190610380919061389b565b610c74565b6040516103929190614520565b60405180910390f35b6103a3610cfe565b6040516103b09190614520565b60405180910390f35b6103d360048036038101906103ce9190613926565b610d22565b6040516103e09190614212565b60405180910390f35b61040360048036038101906103fe9190613872565b610dd5565b6040516104109190614520565b60405180910390f35b610421610e1d565b60405161042e9190614520565b60405180910390f35b61043f610e41565b005b61045b60048036038101906104569190613872565b610f16565b6040516104689190614520565b60405180910390f35b61048b60048036038101906104869190613872565b610f2e565b6040516104989190614520565b60405180910390f35b6104bb60048036038101906104b69190613872565b610f46565b6040516104c89190614520565b60405180910390f35b6104d961105a565b6040516104e69190614520565b60405180910390f35b6104f761107e565b6040516105049190614160565b60405180910390f35b6105156110a2565b6040516105229190614263565b60405180910390f35b610533611144565b604051610540919061422d565b60405180910390f35b610563600480360381019061055e9190613926565b611168565b005b61057f600480360381019061057a9190613926565b611318565b60405161058c9190614212565b60405180910390f35b6105af60048036038101906105aa9190613926565b6113e5565b6040516105bc9190614212565b60405180910390f35b6105cd611403565b6040516105da919061453b565b60405180910390f35b6105fd60048036038101906105f89190613926565b611408565b005b61061960048036038101906106149190613962565b611659565b005b6106236118a4565b6040516106309190614160565b60405180910390f35b6106416118c8565b60405161064e9190614248565b60405180910390f35b610671600480360381019061066c919061389b565b6118ee565b60405161067e9190614520565b60405180910390f35b61068f611975565b60405161069c9190614520565b60405180910390f35b6106bf60048036038101906106ba9190613872565b61197a565b6040516106ce939291906144e9565b60405180910390f35b6106f160048036038101906106ec9190613a94565b6119dc565b6040516106fe9190614520565b60405180910390f35b610721600480360381019061071c91906139d0565b611b85565b005b606060038054600181600116156101000203166002900480601f0160208091040260200160405190810160405280929190818152602001828054600181600116156101000203166002900480156107bb5780601f10610790576101008083540402835291602001916107bb565b820191906000526020600020905b81548152906001019060200180831161079e57829003601f168201915b5050505050905090565b603e6020528060005260406000206000915090505481565b60006107f16107ea611ce6565b8484611cee565b6001905092915050565b6000600254905090565b6000811415610849576040517f08c379a0000000000000000000000000000000000000000000000000000000008152600401610840906142e5565b60405180910390fd5b6000603e60003373ffffffffffffffffffffffffffffffffffffffff1673ffffffffffffffffffffffffffffffffffffffff1681526020019081526020016000205490506108c07f000000000000000000000000000000000000000000000000000000000000000082611c9190919063ffffffff16565b4211610901576040517f08c379a00000000000000000000000000000000000000000000000000000000081526004016108f890614325565b60405180910390fd5b7f00000000000000000000000000000000000000000000000000000000000000006109676109587f000000000000000000000000000000000000000000000000000000000000000084611c9190919063ffffffff16565b42611eb990919063ffffffff16565b11156109a8576040517f08c379a000000000000000000000000000000000000000000000000000000000815260040161099f906143e5565b60405180910390fd5b60006109b333610dd5565b905060008184116109c457836109c6565b815b90506109d433836001611f03565b506109df338261200a565b60006109f48284611eb990919063ffffffff16565b1415610a40576000603e60003373ffffffffffffffffffffffffffffffffffffffff1673ffffffffffffffffffffffffffffffffffffffff168152602001908152602001600020819055505b610a8b85827f000000000000000000000000000000000000000000000000000000000000000073ffffffffffffffffffffffffffffffffffffffff166121b89092919063ffffffff16565b8473ffffffffffffffffffffffffffffffffffffffff163373ffffffffffffffffffffffffffffffffffffffff167fd12200efa34901b99367694174c3b0d32c99585fdf37c7c26892136ddd0836d983604051610ae89190614520565b60405180910390a35050505050565b6000610b0484848461223e565b610bc584610b10611ce6565b610bc08560405180606001604052806028815260200161477c60289139600160008b73ffffffffffffffffffffffffffffffffffffffff1673ffffffffffffffffffffffffffffffffffffffff1681526020019081526020016000206000610b76611ce6565b73ffffffffffffffffffffffffffffffffffffffff1673ffffffffffffffffffffffffffffffffffffffff168152602001908152602001600020546123a79092919063ffffffff16565b611cee565b600190509392505050565b6006602052816000526040600020602052806000526040600020600091509150508060000160009054906101000a90046fffffffffffffffffffffffffffffffff16908060000160109054906101000a90046fffffffffffffffffffffffffffffffff16905082565b7f000000000000000000000000000000000000000000000000000000000000000081565b6000600560009054906101000a900460ff16905090565b6000603c60008373ffffffffffffffffffffffffffffffffffffffff1673ffffffffffffffffffffffffffffffffffffffff16815260200190815260200160002060020160008473ffffffffffffffffffffffffffffffffffffffff1673ffffffffffffffffffffffffffffffffffffffff16815260200190815260200160002054905092915050565b7f000000000000000000000000000000000000000000000000000000000000000081565b6000610dcb610d2f611ce6565b84610dc68560016000610d40611ce6565b73ffffffffffffffffffffffffffffffffffffffff1673ffffffffffffffffffffffffffffffffffffffff16815260200190815260200160002060008973ffffffffffffffffffffffffffffffffffffffff1673ffffffffffffffffffffffffffffffffffffffff16815260200190815260200160002054611c9190919063ffffffff16565b611cee565b6001905092915050565b60008060008373ffffffffffffffffffffffffffffffffffffffff1673ffffffffffffffffffffffffffffffffffffffff168152602001908152602001600020549050919050565b7f000000000000000000000000000000000000000000000000000000000000000081565b6000610e4c33610dd5565b1415610e8d576040517f08c379a0000000000000000000000000000000000000000000000000000000008152600401610e8490614445565b60405180910390fd5b42603e60003373ffffffffffffffffffffffffffffffffffffffff1673ffffffffffffffffffffffffffffffffffffffff168152602001908152602001600020819055503373ffffffffffffffffffffffffffffffffffffffff167ff52f50426b32362d3e6bb8cb36b7074756b224622def6352a59eac7f66ebe6e860405160405180910390a2565b603d6020528060005260406000206000915090505481565b60076020528060005260406000206000915090505481565b60006060600167ffffffffffffffff81118015610f6257600080fd5b50604051908082528060200260200182016040528015610f9c57816020015b610f8961368c565b815260200190600190039081610f815790505b50905060405180606001604052803073ffffffffffffffffffffffffffffffffffffffff168152602001610fcf85610dd5565b8152602001610fdc6107fb565b81525081600081518110610fec57fe5b60200260200101819052506110526110048483612402565b603d60008673ffffffffffffffffffffffffffffffffffffffff1673ffffffffffffffffffffffffffffffffffffffff16815260200190815260200160002054611c9190919063ffffffff16565b915050919050565b7f000000000000000000000000000000000000000000000000000000000000000081565b7f000000000000000000000000000000000000000000000000000000000000000081565b606060048054600181600116156101000203166002900480601f01602080910402602001604051908101604052809291908181526020018280546001816001161561010002031660029004801561113a5780601f1061110f5761010080835404028352916020019161113a565b820191906000526020600020905b81548152906001019060200180831161111d57829003601f168201915b5050505050905090565b7f000000000000000000000000000000000000000000000000000000000000000081565b600061117e3361117733610dd5565b6000611f03565b905060007fffffffffffffffffffffffffffffffffffffffffffffffffffffffffffffffff83146111af57826111b1565b815b90506111fd816040518060400160405280600e81526020017f494e56414c49445f414d4f554e54000000000000000000000000000000000000815250846123a79092919063ffffffff16565b603d60003373ffffffffffffffffffffffffffffffffffffffff1673ffffffffffffffffffffffffffffffffffffffff168152602001908152602001600020819055506112ad7f000000000000000000000000000000000000000000000000000000000000000085837f000000000000000000000000000000000000000000000000000000000000000073ffffffffffffffffffffffffffffffffffffffff1661257d909392919063ffffffff16565b8373ffffffffffffffffffffffffffffffffffffffff163373ffffffffffffffffffffffffffffffffffffffff167f9310ccfcb8de723f578a9e4282ea9f521f05ae40dc08f3068dfad528a65ee3c78360405161130a9190614520565b60405180910390a350505050565b60006113db611325611ce6565b846113d6856040518060600160405280602581526020016147a4602591396001600061134f611ce6565b73ffffffffffffffffffffffffffffffffffffffff1673ffffffffffffffffffffffffffffffffffffffff16815260200190815260200160002060008a73ffffffffffffffffffffffffffffffffffffffff1673ffffffffffffffffffffffffffffffffffffffff168152602001908152602001600020546123a79092919063ffffffff16565b611cee565b6001905092915050565b60006113f96113f2611ce6565b848461223e565b6001905092915050565b601281565b600081141561144c576040517f08c379a0000000000000000000000000000000000000000000000000000000008152600401611443906142e5565b60405180910390fd5b600061145783610dd5565b9050600061146e8430846114696107fb565b612606565b905060008114611547577f2468f9268c60ad90e2d49edb0032c8a001e733ae888b3ab8e982edf535be1a7684826040516114a99291906141e9565b60405180910390a161150381603d60008773ffffffffffffffffffffffffffffffffffffffff1673ffffffffffffffffffffffffffffffffffffffff16815260200190815260200160002054611c9190919063ffffffff16565b603d60008673ffffffffffffffffffffffffffffffffffffffff1673ffffffffffffffffffffffffffffffffffffffff168152602001908152602001600020819055505b61155460008486856119dc565b603e60008673ffffffffffffffffffffffffffffffffffffffff1673ffffffffffffffffffffffffffffffffffffffff168152602001908152602001600020819055506115a18484612778565b6115ee3330857f000000000000000000000000000000000000000000000000000000000000000073ffffffffffffffffffffffffffffffffffffffff1661257d909392919063ffffffff16565b8373ffffffffffffffffffffffffffffffffffffffff163373ffffffffffffffffffffffffffffffffffffffff167f5dac0c1b1112564a045ba943c9d50270893e8e826c49be8e7073adc713ab7bd78560405161164b9190614520565b60405180910390a350505050565b7f000000000000000000000000000000000000000000000000000000000000000073ffffffffffffffffffffffffffffffffffffffff163373ffffffffffffffffffffffffffffffffffffffff16146116e7576040517f08c379a00000000000000000000000000000000000000000000000000000000081526004016116de90614385565b60405180910390fd5b60005b8282905081101561189f576000603c600085858581811061170757fe5b905060600201604001602081019061171f9190613872565b73ffffffffffffffffffffffffffffffffffffffff1673ffffffffffffffffffffffffffffffffffffffff168152602001908152602001600020905061179e84848481811061176a57fe5b90506060020160400160208101906117829190613872565b8286868681811061178f57fe5b9050606002016020013561290c565b508383838181106117ab57fe5b90506060020160000160208101906117c39190613a6b565b8160000160006101000a8154816fffffffffffffffffffffffffffffffff02191690836fffffffffffffffffffffffffffffffff16021790555083838381811061180957fe5b90506060020160400160208101906118219190613872565b73ffffffffffffffffffffffffffffffffffffffff167f87fa03892a0556cb6b8f97e6d533a150d4d55fcbf275fff5fa003fa636bcc7fa85858581811061186457fe5b905060600201600001602081019061187c9190613a6b565b60405161188991906144a5565b60405180910390a25080806001019150506116ea565b505050565b7f000000000000000000000000000000000000000000000000000000000000000081565b600860009054906101000a900473ffffffffffffffffffffffffffffffffffffffff1681565b6000600160008473ffffffffffffffffffffffffffffffffffffffff1673ffffffffffffffffffffffffffffffffffffffff16815260200190815260200160002060008373ffffffffffffffffffffffffffffffffffffffff1673ffffffffffffffffffffffffffffffffffffffff16815260200190815260200160002054905092915050565b600181565b603c6020528060005260406000206000915090508060000160009054906101000a90046fffffffffffffffffffffffffffffffff16908060000160109054906101000a90046fffffffffffffffffffffffffffffffff16908060010154905083565b600080603e60008573ffffffffffffffffffffffffffffffffffffffff1673ffffffffffffffffffffffffffffffffffffffff1681526020019081526020016000205490506000811415611a34576000915050611b7d565b6000611a9b7f0000000000000000000000000000000000000000000000000000000000000000611a8d7f000000000000000000000000000000000000000000000000000000000000000042611eb990919063ffffffff16565b611eb990919063ffffffff16565b905081811115611aae5760009150611b33565b6000878211611abd5787611abf565b425b905082811015611ad457829350505050611b7d565b611b2f611aea8689611c9190919063ffffffff16565b611b21611b008689612a4990919063ffffffff16565b611b13858c612a4990919063ffffffff16565b611c9190919063ffffffff16565b612ab990919063ffffffff16565b9250505b81603e60008773ffffffffffffffffffffffffffffffffffffffff1673ffffffffffffffffffffffffffffffffffffffff1681526020019081526020016000208190555081925050505b949350505050565b6000611b8f612b03565b90506009548111611bd5576040517f08c379a0000000000000000000000000000000000000000000000000000000008152600401611bcc90614365565b60405180910390fd5b80600981905550611c2986868080601f016020809104026020016040519081016040528093929190818152602001838380828437600081840152601f19601f82011690508083019250505050505050612b0c565b611c7684848080601f016020809104026020016040519081016040528093929190818152602001838380828437600081840152601f19601f82011690508083019250505050505050612b26565b611c7f82612b40565b611c8887612b5e565b50505050505050565b600080828401905083811015611cdc576040517f08c379a0000000000000000000000000000000000000000000000000000000008152600401611cd3906142c5565b60405180910390fd5b8091505092915050565b600033905090565b600073ffffffffffffffffffffffffffffffffffffffff168373ffffffffffffffffffffffffffffffffffffffff161415611d5e576040517f08c379a0000000000000000000000000000000000000000000000000000000008152600401611d5590614405565b60405180910390fd5b600073ffffffffffffffffffffffffffffffffffffffff168273ffffffffffffffffffffffffffffffffffffffff161415611dce576040517f08c379a0000000000000000000000000000000000000000000000000000000008152600401611dc5906142a5565b60405180910390fd5b80600160008573ffffffffffffffffffffffffffffffffffffffff1673ffffffffffffffffffffffffffffffffffffffff16815260200190815260200160002060008473ffffffffffffffffffffffffffffffffffffffff1673ffffffffffffffffffffffffffffffffffffffff168152602001908152602001600020819055508173ffffffffffffffffffffffffffffffffffffffff168373ffffffffffffffffffffffffffffffffffffffff167f8c5be1e5ebec7d5bd14f71427d1e84f3dd0314c0f7b2291e5b200ac8c7c3b92583604051611eac9190614520565b60405180910390a3505050565b6000611efb83836040518060400160405280601e81526020017f536166654d6174683a207375627472616374696f6e206f766572666c6f7700008152506123a7565b905092915050565b600080611f19853086611f146107fb565b612606565b90506000611f6f82603d60008973ffffffffffffffffffffffffffffffffffffffff1673ffffffffffffffffffffffffffffffffffffffff16815260200190815260200160002054611c9190919063ffffffff16565b905060008214611ffe578315611fc45780603d60008873ffffffffffffffffffffffffffffffffffffffff1673ffffffffffffffffffffffffffffffffffffffff168152602001908152602001600020819055505b7f2468f9268c60ad90e2d49edb0032c8a001e733ae888b3ab8e982edf535be1a768683604051611ff59291906141e9565b60405180910390a15b80925050509392505050565b600073ffffffffffffffffffffffffffffffffffffffff168273ffffffffffffffffffffffffffffffffffffffff16141561207a576040517f08c379a0000000000000000000000000000000000000000000000000000000008152600401612071906143a5565b60405180910390fd5b61208682600083612ba2565b6120f181604051806060016040528060228152602001614734602291396000808673ffffffffffffffffffffffffffffffffffffffff1673ffffffffffffffffffffffffffffffffffffffff168152602001908152602001600020546123a79092919063ffffffff16565b6000808473ffffffffffffffffffffffffffffffffffffffff1673ffffffffffffffffffffffffffffffffffffffff1681526020019081526020016000208190555061214881600254611eb990919063ffffffff16565b600281905550600073ffffffffffffffffffffffffffffffffffffffff168273ffffffffffffffffffffffffffffffffffffffff167fddf252ad1be2c89b69c2b068fc378daa952ba7f163c4a11628f55a4df523b3ef836040516121ac9190614520565b60405180910390a35050565b6122398363a9059cbb60e01b84846040516024016121d79291906141e9565b604051602081830303815290604052907bffffffffffffffffffffffffffffffffffffffffffffffffffffffff19166020820180517bffffffffffffffffffffffffffffffffffffffffffffffffffffffff8381831617835250505050612d6d565b505050565b600061224984610dd5565b905061225784826001611f03565b508273ffffffffffffffffffffffffffffffffffffffff168473ffffffffffffffffffffffffffffffffffffffff161461239657600061229684610dd5565b90506122a484826001611f03565b506000603e60008773ffffffffffffffffffffffffffffffffffffffff1673ffffffffffffffffffffffffffffffffffffffff1681526020019081526020016000205490506122f5818587856119dc565b603e60008773ffffffffffffffffffffffffffffffffffffffff1673ffffffffffffffffffffffffffffffffffffffff168152602001908152602001600020819055508383148015612348575060008114155b15612393576000603e60008873ffffffffffffffffffffffffffffffffffffffff1673ffffffffffffffffffffffffffffffffffffffff168152602001908152602001600020819055505b50505b6123a1848484612edf565b50505050565b60008383111582906123ef576040517f08c379a00000000000000000000000000000000000000000000000000000000081526004016123e69190614263565b60405180910390fd5b5060008385039050809150509392505050565b6000806000905060005b8351811015612572576000603c600086848151811061242757fe5b60200260200101516000015173ffffffffffffffffffffffffffffffffffffffff1673ffffffffffffffffffffffffffffffffffffffff168152602001908152602001600020905060006124ea82600101548360000160009054906101000a90046fffffffffffffffffffffffffffffffff166fffffffffffffffffffffffffffffffff168460000160109054906101000a90046fffffffffffffffffffffffffffffffff168987815181106124d957fe5b602002602001015160400151613174565b90506125616125528785815181106124fe57fe5b602002602001015160200151838560020160008c73ffffffffffffffffffffffffffffffffffffffff1673ffffffffffffffffffffffffffffffffffffffff168152602001908152602001600020546132c3565b85611c9190919063ffffffff16565b93505050808060010191505061240c565b508091505092915050565b612600846323b872dd60e01b85858560405160240161259e9392919061417b565b604051602081830303815290604052907bffffffffffffffffffffffffffffffffffffffffffffffffffffffff19166020820180517bffffffffffffffffffffffffffffffffffffffffffffffffffffffff8381831617835250505050612d6d565b50505050565b600080603c60008673ffffffffffffffffffffffffffffffffffffffff1673ffffffffffffffffffffffffffffffffffffffff168152602001908152602001600020905060008160020160008873ffffffffffffffffffffffffffffffffffffffff1673ffffffffffffffffffffffffffffffffffffffff16815260200190815260200160002054905060008061269e88858861290c565b905080831461276957600087146126bd576126ba8782856132c3565b91505b808460020160008b73ffffffffffffffffffffffffffffffffffffffff1673ffffffffffffffffffffffffffffffffffffffff168152602001908152602001600020819055508773ffffffffffffffffffffffffffffffffffffffff168973ffffffffffffffffffffffffffffffffffffffff167fbb123b5c06d5408bbea3c4fef481578175cfb432e3b482c6186f02ed9086585b836040516127609190614520565b60405180910390a35b81945050505050949350505050565b600073ffffffffffffffffffffffffffffffffffffffff168273ffffffffffffffffffffffffffffffffffffffff1614156127e8576040517f08c379a00000000000000000000000000000000000000000000000000000000081526004016127df90614485565b60405180910390fd5b6127f460008383612ba2565b61280981600254611c9190919063ffffffff16565b600281905550612860816000808573ffffffffffffffffffffffffffffffffffffffff1673ffffffffffffffffffffffffffffffffffffffff16815260200190815260200160002054611c9190919063ffffffff16565b6000808473ffffffffffffffffffffffffffffffffffffffff1673ffffffffffffffffffffffffffffffffffffffff168152602001908152602001600020819055508173ffffffffffffffffffffffffffffffffffffffff16600073ffffffffffffffffffffffffffffffffffffffff167fddf252ad1be2c89b69c2b068fc378daa952ba7f163c4a11628f55a4df523b3ef836040516129009190614520565b60405180910390a35050565b6000808360010154905060008460000160109054906101000a90046fffffffffffffffffffffffffffffffff169050806fffffffffffffffffffffffffffffffff1642141561295f578192505050612a42565b600061299f838760000160009054906101000a90046fffffffffffffffffffffffffffffffff166fffffffffffffffffffffffffffffffff168488613174565b9050828114612a00578086600101819055508673ffffffffffffffffffffffffffffffffffffffff167f5777ca300dfe5bead41006fbce4389794dbc0ed8d6cccebfaf94630aa04184bc826040516129f79190614520565b60405180910390a25b428660000160106101000a8154816fffffffffffffffffffffffffffffffff02191690836fffffffffffffffffffffffffffffffff1602179055508093505050505b9392505050565b600080831415612a5c5760009050612ab3565b6000828402905082848281612a6d57fe5b0414612aae576040517f08c379a0000000000000000000000000000000000000000000000000000000008152600401612aa590614345565b60405180910390fd5b809150505b92915050565b6000612afb83836040518060400160405280601a81526020017f536166654d6174683a206469766973696f6e206279207a65726f00000000000081525061330c565b905092915050565b60006001905090565b8060039080519060200190612b229291906136c3565b5050565b8060049080519060200190612b3c9291906136c3565b5050565b80600560006101000a81548160ff021916908360ff16021790555050565b80600860006101000a81548173ffffffffffffffffffffffffffffffffffffffff021916908373ffffffffffffffffffffffffffffffffffffffff16021790555050565b8173ffffffffffffffffffffffffffffffffffffffff168373ffffffffffffffffffffffffffffffffffffffff161415612bdb57612d68565b600073ffffffffffffffffffffffffffffffffffffffff168373ffffffffffffffffffffffffffffffffffffffff1614612c3b576000612c1a84610dd5565b9050612c398482612c348585611eb990919063ffffffff16565b61336d565b505b600073ffffffffffffffffffffffffffffffffffffffff168273ffffffffffffffffffffffffffffffffffffffff1614612c9b576000612c7a83610dd5565b9050612c998382612c948585611c9190919063ffffffff16565b61336d565b505b6000600860009054906101000a900473ffffffffffffffffffffffffffffffffffffffff169050600073ffffffffffffffffffffffffffffffffffffffff168173ffffffffffffffffffffffffffffffffffffffff1614612d66578073ffffffffffffffffffffffffffffffffffffffff16634a3931498585856040518463ffffffff1660e01b8152600401612d339392919061417b565b600060405180830381600087803b158015612d4d57600080fd5b505af1158015612d61573d6000803e3d6000fd5b505050505b505b505050565b612d8c8273ffffffffffffffffffffffffffffffffffffffff16613641565b612dcb576040517f08c379a0000000000000000000000000000000000000000000000000000000008152600401612dc290614465565b60405180910390fd5b600060608373ffffffffffffffffffffffffffffffffffffffff1683604051612df49190614149565b6000604051808303816000865af19150503d8060008114612e31576040519150601f19603f3d011682016040523d82523d6000602084013e612e36565b606091505b509150915081612e7b576040517f08c379a0000000000000000000000000000000000000000000000000000000008152600401612e7290614305565b60405180910390fd5b600081511115612ed95780806020019051810190612e9991906139a7565b612ed8576040517f08c379a0000000000000000000000000000000000000000000000000000000008152600401612ecf90614425565b60405180910390fd5b5b50505050565b600073ffffffffffffffffffffffffffffffffffffffff168373ffffffffffffffffffffffffffffffffffffffff161415612f4f576040517f08c379a0000000000000000000000000000000000000000000000000000000008152600401612f46906143c5565b60405180910390fd5b600073ffffffffffffffffffffffffffffffffffffffff168273ffffffffffffffffffffffffffffffffffffffff161415612fbf576040517f08c379a0000000000000000000000000000000000000000000000000000000008152600401612fb690614285565b60405180910390fd5b612fca838383612ba2565b61303581604051806060016040528060268152602001614756602691396000808773ffffffffffffffffffffffffffffffffffffffff1673ffffffffffffffffffffffffffffffffffffffff168152602001908152602001600020546123a79092919063ffffffff16565b6000808573ffffffffffffffffffffffffffffffffffffffff1673ffffffffffffffffffffffffffffffffffffffff168152602001908152602001600020819055506130c8816000808573ffffffffffffffffffffffffffffffffffffffff1673ffffffffffffffffffffffffffffffffffffffff16815260200190815260200160002054611c9190919063ffffffff16565b6000808473ffffffffffffffffffffffffffffffffffffffff1673ffffffffffffffffffffffffffffffffffffffff168152602001908152602001600020819055508173ffffffffffffffffffffffffffffffffffffffff168373ffffffffffffffffffffffffffffffffffffffff167fddf252ad1be2c89b69c2b068fc378daa952ba7f163c4a11628f55a4df523b3ef836040516131679190614520565b60405180910390a3505050565b6000808414806131845750600082145b806131a0575042836fffffffffffffffffffffffffffffffff16145b806131dd57507f0000000000000000000000000000000000000000000000000000000000000000836fffffffffffffffffffffffffffffffff1610155b156131ea578490506132bb565b60007f00000000000000000000000000000000000000000000000000000000000000004211613219574261323b565b7f00000000000000000000000000000000000000000000000000000000000000005b90506000613264856fffffffffffffffffffffffffffffffff1683611eb990919063ffffffff16565b90506132b6876132a88661329a601260ff16600a0a61328c878d612a4990919063ffffffff16565b612a4990919063ffffffff16565b612ab990919063ffffffff16565b611c9190919063ffffffff16565b925050505b949350505050565b6000613303601260ff16600a0a6132f56132e68587611eb990919063ffffffff16565b87612a4990919063ffffffff16565b612ab990919063ffffffff16565b90509392505050565b60008083118290613353576040517f08c379a000000000000000000000000000000000000000000000000000000000815260040161334a9190614263565b60405180910390fd5b50600083858161335f57fe5b049050809150509392505050565b60004390506000600760008673ffffffffffffffffffffffffffffffffffffffff1673ffffffffffffffffffffffffffffffffffffffff1681526020019081526020016000205490506000600660008773ffffffffffffffffffffffffffffffffffffffff1673ffffffffffffffffffffffffffffffffffffffff1681526020019081526020016000209050600082141580156134715750826fffffffffffffffffffffffffffffffff1681600061342f600186611eb990919063ffffffff16565b815260200190815260200160002060000160009054906101000a90046fffffffffffffffffffffffffffffffff166fffffffffffffffffffffffffffffffff16145b156134da578381600061348e600186611eb990919063ffffffff16565b815260200190815260200160002060000160106101000a8154816fffffffffffffffffffffffffffffffff02191690836fffffffffffffffffffffffffffffffff1602179055506135fe565b6040518060400160405280846fffffffffffffffffffffffffffffffff168152602001856fffffffffffffffffffffffffffffffff1681525081600084815260200190815260200160002060008201518160000160006101000a8154816fffffffffffffffffffffffffffffffff02191690836fffffffffffffffffffffffffffffffff16021790555060208201518160000160106101000a8154816fffffffffffffffffffffffffffffffff02191690836fffffffffffffffffffffffffffffffff1602179055509050506135ba600183611c9190919063ffffffff16565b600760008873ffffffffffffffffffffffffffffffffffffffff1673ffffffffffffffffffffffffffffffffffffffff168152602001908152602001600020819055505b7f2cd3c83ddac2953ee75f53265d9ea4463eaf05030e5459a1b7e63819b7ce88f7868686604051613631939291906141b2565b60405180910390a1505050505050565b60008060007fc5d2460186f7233c927e7db2dcc703c0e500b653ca82273b7bfad8045d85a47060001b9050833f915080821415801561368357506000801b8214155b92505050919050565b6040518060600160405280600073ffffffffffffffffffffffffffffffffffffffff16815260200160008152602001600081525090565b828054600181600116156101000203166002900490600052602060002090601f016020900481019282601f1061370457805160ff1916838001178555613732565b82800160010185558215613732579182015b82811115613731578251825591602001919060010190613716565b5b50905061373f9190613743565b5090565b5b8082111561375c576000816000905550600101613744565b5090565b60008135905061376f816146a9565b92915050565b60008083601f84011261378757600080fd5b8235905067ffffffffffffffff8111156137a057600080fd5b6020830191508360608202830111156137b857600080fd5b9250929050565b6000815190506137ce816146c0565b92915050565b6000813590506137e3816146d7565b92915050565b60008083601f8401126137fb57600080fd5b8235905067ffffffffffffffff81111561381457600080fd5b60208301915083600182028301111561382c57600080fd5b9250929050565b600081359050613842816146ee565b92915050565b60008135905061385781614705565b92915050565b60008135905061386c8161471c565b92915050565b60006020828403121561388457600080fd5b600061389284828501613760565b91505092915050565b600080604083850312156138ae57600080fd5b60006138bc85828601613760565b92505060206138cd85828601613760565b9150509250929050565b6000806000606084860312156138ec57600080fd5b60006138fa86828701613760565b935050602061390b86828701613760565b925050604061391c86828701613848565b9150509250925092565b6000806040838503121561393957600080fd5b600061394785828601613760565b925050602061395885828601613848565b9150509250929050565b6000806020838503121561397557600080fd5b600083013567ffffffffffffffff81111561398f57600080fd5b61399b85828601613775565b92509250509250929050565b6000602082840312156139b957600080fd5b60006139c7848285016137bf565b91505092915050565b600080600080600080608087890312156139e957600080fd5b60006139f789828a016137d4565b965050602087013567ffffffffffffffff811115613a1457600080fd5b613a2089828a016137e9565b9550955050604087013567ffffffffffffffff811115613a3f57600080fd5b613a4b89828a016137e9565b93509350506060613a5e89828a0161385d565b9150509295509295509295565b600060208284031215613a7d57600080fd5b6000613a8b84828501613833565b91505092915050565b60008060008060808587031215613aaa57600080fd5b6000613ab887828801613848565b9450506020613ac987828801613848565b9350506040613ada87828801613760565b9250506060613aeb87828801613848565b91505092959194509250565b613b0081614588565b82525050565b613b0f8161459a565b82525050565b6000613b2082614556565b613b2a818561456c565b9350613b3a818560208601614665565b80840191505092915050565b613b4f8161460b565b82525050565b613b5e8161462f565b82525050565b6000613b6f82614561565b613b798185614577565b9350613b89818560208601614665565b613b9281614698565b840191505092915050565b6000613baa602383614577565b91507f45524332303a207472616e7366657220746f20746865207a65726f206164647260008301527f65737300000000000000000000000000000000000000000000000000000000006020830152604082019050919050565b6000613c10602283614577565b91507f45524332303a20617070726f766520746f20746865207a65726f20616464726560008301527f73730000000000000000000000000000000000000000000000000000000000006020830152604082019050919050565b6000613c76601b83614577565b91507f536166654d6174683a206164646974696f6e206f766572666c6f7700000000006000830152602082019050919050565b6000613cb6601383614577565b91507f494e56414c49445f5a45524f5f414d4f554e54000000000000000000000000006000830152602082019050919050565b6000613cf6602083614577565b91507f5361666545524332303a206c6f772d6c6576656c2063616c6c206661696c65646000830152602082019050919050565b6000613d36601583614577565b91507f494e53554646494349454e545f434f4f4c444f574e00000000000000000000006000830152602082019050919050565b6000613d76602183614577565b91507f536166654d6174683a206d756c7469706c69636174696f6e206f766572666c6f60008301527f77000000000000000000000000000000000000000000000000000000000000006020830152604082019050919050565b6000613ddc602e83614577565b91507f436f6e747261637420696e7374616e63652068617320616c726561647920626560008301527f656e20696e697469616c697a65640000000000000000000000000000000000006020830152604082019050919050565b6000613e42601583614577565b91507f4f4e4c595f454d495353494f4e5f4d414e4147455200000000000000000000006000830152602082019050919050565b6000613e82602183614577565b91507f45524332303a206275726e2066726f6d20746865207a65726f2061646472657360008301527f73000000000000000000000000000000000000000000000000000000000000006020830152604082019050919050565b6000613ee8602583614577565b91507f45524332303a207472616e736665722066726f6d20746865207a65726f20616460008301527f64726573730000000000000000000000000000000000000000000000000000006020830152604082019050919050565b6000613f4e601783614577565b91507f554e5354414b455f57494e444f575f46494e49534845440000000000000000006000830152602082019050919050565b6000613f8e602483614577565b91507f45524332303a20617070726f76652066726f6d20746865207a65726f2061646460008301527f72657373000000000000000000000000000000000000000000000000000000006020830152604082019050919050565b6000613ff4602a83614577565b91507f5361666545524332303a204552433230206f7065726174696f6e20646964206e60008301527f6f742073756363656564000000000000000000000000000000000000000000006020830152604082019050919050565b600061405a601b83614577565b91507f494e56414c49445f42414c414e43455f4f4e5f434f4f4c444f574e00000000006000830152602082019050919050565b600061409a601f83614577565b91507f5361666545524332303a2063616c6c20746f206e6f6e2d636f6e7472616374006000830152602082019050919050565b60006140da601f83614577565b91507f45524332303a206d696e7420746f20746865207a65726f2061646472657373006000830152602082019050919050565b614116816145b8565b82525050565b61412581614653565b82525050565b614134816145f4565b82525050565b614143816145fe565b82525050565b60006141558284613b15565b915081905092915050565b60006020820190506141756000830184613af7565b92915050565b60006060820190506141906000830186613af7565b61419d6020830185613af7565b6141aa604083018461412b565b949350505050565b60006060820190506141c76000830186613af7565b6141d4602083018561410d565b6141e1604083018461410d565b949350505050565b60006040820190506141fe6000830185613af7565b61420b602083018461412b565b9392505050565b60006020820190506142276000830184613b06565b92915050565b60006020820190506142426000830184613b46565b92915050565b600060208201905061425d6000830184613b55565b92915050565b6000602082019050818103600083015261427d8184613b64565b905092915050565b6000602082019050818103600083015261429e81613b9d565b9050919050565b600060208201905081810360008301526142be81613c03565b9050919050565b600060208201905081810360008301526142de81613c69565b9050919050565b600060208201905081810360008301526142fe81613ca9565b9050919050565b6000602082019050818103600083015261431e81613ce9565b9050919050565b6000602082019050818103600083015261433e81613d29565b9050919050565b6000602082019050818103600083015261435e81613d69565b9050919050565b6000602082019050818103600083015261437e81613dcf565b9050919050565b6000602082019050818103600083015261439e81613e35565b9050919050565b600060208201905081810360008301526143be81613e75565b9050919050565b600060208201905081810360008301526143de81613edb565b9050919050565b600060208201905081810360008301526143fe81613f41565b9050919050565b6000602082019050818103600083015261441e81613f81565b9050919050565b6000602082019050818103600083015261443e81613fe7565b9050919050565b6000602082019050818103600083015261445e8161404d565b9050919050565b6000602082019050818103600083015261447e8161408d565b9050919050565b6000602082019050818103600083015261449e816140cd565b9050919050565b60006020820190506144ba600083018461411c565b92915050565b60006040820190506144d5600083018561410d565b6144e2602083018461410d565b9392505050565b60006060820190506144fe600083018661410d565b61450b602083018561410d565b614518604083018461412b565b949350505050565b6000602082019050614535600083018461412b565b92915050565b6000602082019050614550600083018461413a565b92915050565b600081519050919050565b600081519050919050565b600081905092915050565b600082825260208201905092915050565b6000614593826145d4565b9050919050565b60008115159050919050565b60006145b182614588565b9050919050565b60006fffffffffffffffffffffffffffffffff82169050919050565b600073ffffffffffffffffffffffffffffffffffffffff82169050919050565b6000819050919050565b600060ff82169050919050565b60006146168261461d565b9050919050565b6000614628826145d4565b9050919050565b600061463a82614641565b9050919050565b600061464c826145d4565b9050919050565b600061465e826145b8565b9050919050565b60005b83811015614683578082015181840152602081019050614668565b83811115614692576000848401525b50505050565b6000601f19601f8301169050919050565b6146b281614588565b81146146bd57600080fd5b50565b6146c98161459a565b81146146d457600080fd5b50565b6146e0816145a6565b81146146eb57600080fd5b50565b6146f7816145b8565b811461470257600080fd5b50565b61470e816145f4565b811461471957600080fd5b50565b614725816145fe565b811461473057600080fd5b5056fe45524332303a206275726e20616d6f756e7420657863656564732062616c616e636545524332303a207472616e7366657220616d6f756e7420657863656564732062616c616e636545524332303a207472616e7366657220616d6f756e74206578636565647320616c6c6f77616e636545524332303a2064656372656173656420616c6c6f77616e63652062656c6f77207a65726fa26469706673582212207c6637532d4349472665441a503ad4323511aa2419ecfd41ce091114029e171164736f6c634300060c0033",
  "immutableReferences": {
    "7786": [
      {
        "length": 32,
        "start": 4188
      },
      {
        "length": 32,
        "start": 12712
      },
      {
        "length": 32,
        "start": 12782
      },
      {
        "length": 32,
        "start": 12827
      }
    ],
    "7788": [
      {
        "length": 32,
        "start": 5723
      },
      {
        "length": 32,
        "start": 6310
      }
    ],
    "8311": [
      {
        "length": 32,
        "start": 2631
      },
      {
        "length": 32,
        "start": 3131
      },
      {
        "length": 32,
        "start": 5545
      }
    ],
    "8313": [
      {
        "length": 32,
        "start": 4422
      },
      {
        "length": 32,
        "start": 4712
      }
    ],
    "8315": [
      {
        "length": 32,
        "start": 2194
      },
      {
        "length": 32,
        "start": 2346
      },
      {
        "length": 32,
        "start": 3615
      },
      {
        "length": 32,
        "start": 6751
      }
    ],
    "8318": [
      {
        "length": 32,
        "start": 2307
      },
      {
        "length": 32,
        "start": 3328
      },
      {
        "length": 32,
        "start": 6715
      }
    ],
    "8321": [
      {
        "length": 32,
        "start": 4224
      },
      {
        "length": 32,
        "start": 4677
      }
    ]
  },
  "source": "/**\r\n *Submitted for verification at Etherscan.io on 2021-01-29\r\n*/\r\n\r\n/**\r\n *Submitted for verification at Etherscan.io on 2020-09-24\r\n*/\r\n\r\n// File: contracts/interfaces/IERC20.sol\r\n\r\n// SPDX-License-Identifier: agpl-3.0\r\npragma solidity 0.6.12;\r\npragma experimental ABIEncoderV2;\r\n\r\n/**\r\n * @dev Interface of the ERC20 standard as defined in the EIP.\r\n * From https://github.com/OpenZeppelin/openzeppelin-contracts\r\n */\r\ninterface IERC20 {\r\n  /**\r\n   * @dev Returns the amount of tokens in existence.\r\n   */\r\n  function totalSupply() external view returns (uint256);\r\n\r\n  /**\r\n   * @dev Returns the amount of tokens owned by `account`.\r\n   */\r\n  function balanceOf(address account) external view returns (uint256);\r\n\r\n  /**\r\n   * @dev Moves `amount` tokens from the caller's account to `recipient`.\r\n   *\r\n   * Returns a boolean value indicating whether the operation succeeded.\r\n   *\r\n   * Emits a {Transfer} event.\r\n   */\r\n  function transfer(address recipient, uint256 amount) external returns (bool);\r\n\r\n  /**\r\n   * @dev Returns the remaining number of tokens that `spender` will be\r\n   * allowed to spend on behalf of `owner` through {transferFrom}. This is\r\n   * zero by default.\r\n   *\r\n   * This value changes when {approve} or {transferFrom} are called.\r\n   */\r\n  function allowance(address owner, address spender) external view returns (uint256);\r\n\r\n  /**\r\n   * @dev Sets `amount` as the allowance of `spender` over the caller's tokens.\r\n   *\r\n   * Returns a boolean value indicating whether the operation succeeded.\r\n   *\r\n   * IMPORTANT: Beware that changing an allowance with this method brings the risk\r\n   * that someone may use both the old and the new allowance by unfortunate\r\n   * transaction ordering. One possible solution to mitigate this race\r\n   * condition is to first reduce the spender's allowance to 0 and set the\r\n   * desired value afterwards:\r\n   * https://github.com/ethereum/EIPs/issues/20#issuecomment-263524729\r\n   *\r\n   * Emits an {Approval} event.\r\n   */\r\n  function approve(address spender, uint256 amount) external returns (bool);\r\n\r\n  /**\r\n   * @dev Moves `amount` tokens from `sender` to `recipient` using the\r\n   * allowance mechanism. `amount` is then deducted from the caller's\r\n   * allowance.\r\n   *\r\n   * Returns a boolean value indicating whether the operation succeeded.\r\n   *\r\n   * Emits a {Transfer} event.\r\n   */\r\n  function transferFrom(\r\n    address sender,\r\n    address recipient,\r\n    uint256 amount\r\n  ) external returns (bool);\r\n\r\n  /**\r\n   * @dev Emitted when `value` tokens are moved from one account (`from`) to\r\n   * another (`to`).\r\n   *\r\n   * Note that `value` may be zero.\r\n   */\r\n  event Transfer(address indexed from, address indexed to, uint256 value);\r\n\r\n  /**\r\n   * @dev Emitted when the allowance of a `spender` for an `owner` is set by\r\n   * a call to {approve}. `value` is the new allowance.\r\n   */\r\n  event Approval(address indexed owner, address indexed spender, uint256 value);\r\n}\r\n\r\n// File: contracts/interfaces/IStakedRoya.sol\r\n\r\n\r\npragma solidity 0.6.12;\r\n\r\ninterface IStakedRoya {\r\n  function stake(address to, uint256 amount) external;\r\n\r\n  function redeem(address to, uint256 amount) external;\r\n\r\n  function cooldown() external;\r\n\r\n  function claimRewards(address to, uint256 amount) external;\r\n}\r\n\r\n// File: contracts/interfaces/ITransferHook.sol\r\n\r\n\r\npragma solidity 0.6.12;\r\n\r\ninterface ITransferHook {\r\n    function onTransfer(address from, address to, uint256 amount) external;\r\n}\r\n\r\n// File: contracts/lib/Context.sol\r\n\r\n\r\n\r\npragma solidity 0.6.12;\r\n\r\n/**\r\n * @dev From https://github.com/OpenZeppelin/openzeppelin-contracts\r\n * Provides information about the current execution context, including the\r\n * sender of the transaction and its data. While these are generally available\r\n * via msg.sender and msg.data, they should not be accessed in such a direct\r\n * manner, since when dealing with GSN meta-transactions the account sending and\r\n * paying for execution may not be the actual sender (as far as an application\r\n * is concerned).\r\n *\r\n * This contract is only required for intermediate, library-like contracts.\r\n */\r\nabstract contract Context {\r\n    function _msgSender() internal virtual view returns (address payable) {\r\n        return msg.sender;\r\n    }\r\n\r\n    function _msgData() internal virtual view returns (bytes memory) {\r\n        this; // silence state mutability warning without generating bytecode - see https://github.com/ethereum/solidity/issues/2691\r\n        return msg.data;\r\n    }\r\n}\r\n\r\n// File: contracts/interfaces/IERC20Detailed.sol\r\n\r\n\r\npragma solidity 0.6.12;\r\n\r\n\r\n/**\r\n * @dev Interface for ERC20 including metadata\r\n **/\r\ninterface IERC20Detailed is IERC20 {\r\n    function name() external view returns (string memory);\r\n    function symbol() external view returns (string memory);\r\n    function decimals() external view returns (uint8);\r\n}\r\n\r\n// File: contracts/lib/SafeMath.sol\r\n\r\n\r\npragma solidity 0.6.12;\r\n\r\n/**\r\n * @dev From https://github.com/OpenZeppelin/openzeppelin-contracts\r\n * Wrappers over Solidity's arithmetic operations with added overflow\r\n * checks.\r\n *\r\n * Arithmetic operations in Solidity wrap on overflow. This can easily result\r\n * in bugs, because programmers usually assume that an overflow raises an\r\n * error, which is the standard behavior in high level programming languages.\r\n * `SafeMath` restores this intuition by reverting the transaction when an\r\n * operation overflows.\r\n *\r\n * Using this library instead of the unchecked operations eliminates an entire\r\n * class of bugs, so it's recommended to use it always.\r\n */\r\nlibrary SafeMath {\r\n    /**\r\n     * @dev Returns the addition of two unsigned integers, reverting on\r\n     * overflow.\r\n     *\r\n     * Counterpart to Solidity's `+` operator.\r\n     *\r\n     * Requirements:\r\n     * - Addition cannot overflow.\r\n     */\r\n    function add(uint256 a, uint256 b) internal pure returns (uint256) {\r\n        uint256 c = a + b;\r\n        require(c >= a, 'SafeMath: addition overflow');\r\n\r\n        return c;\r\n    }\r\n\r\n    /**\r\n     * @dev Returns the subtraction of two unsigned integers, reverting on\r\n     * overflow (when the result is negative).\r\n     *\r\n     * Counterpart to Solidity's `-` operator.\r\n     *\r\n     * Requirements:\r\n     * - Subtraction cannot overflow.\r\n     */\r\n    function sub(uint256 a, uint256 b) internal pure returns (uint256) {\r\n        return sub(a, b, 'SafeMath: subtraction overflow');\r\n    }\r\n\r\n    /**\r\n     * @dev Returns the subtraction of two unsigned integers, reverting with custom message on\r\n     * overflow (when the result is negative).\r\n     *\r\n     * Counterpart to Solidity's `-` operator.\r\n     *\r\n     * Requirements:\r\n     * - Subtraction cannot overflow.\r\n     */\r\n    function sub(\r\n        uint256 a,\r\n        uint256 b,\r\n        string memory errorMessage\r\n    ) internal pure returns (uint256) {\r\n        require(b <= a, errorMessage);\r\n        uint256 c = a - b;\r\n\r\n        return c;\r\n    }\r\n\r\n    /**\r\n     * @dev Returns the multiplication of two unsigned integers, reverting on\r\n     * overflow.\r\n     *\r\n     * Counterpart to Solidity's `*` operator.\r\n     *\r\n     * Requirements:\r\n     * - Multiplication cannot overflow.\r\n     */\r\n    function mul(uint256 a, uint256 b) internal pure returns (uint256) {\r\n        // Gas optimization: this is cheaper than requiring 'a' not being zero, but the\r\n        // benefit is lost if 'b' is also tested.\r\n        // See: https://github.com/OpenZeppelin/openzeppelin-contracts/pull/522\r\n        if (a == 0) {\r\n            return 0;\r\n        }\r\n\r\n        uint256 c = a * b;\r\n        require(c / a == b, 'SafeMath: multiplication overflow');\r\n\r\n        return c;\r\n    }\r\n\r\n    /**\r\n     * @dev Returns the integer division of two unsigned integers. Reverts on\r\n     * division by zero. The result is rounded towards zero.\r\n     *\r\n     * Counterpart to Solidity's `/` operator. Note: this function uses a\r\n     * `revert` opcode (which leaves remaining gas untouched) while Solidity\r\n     * uses an invalid opcode to revert (consuming all remaining gas).\r\n     *\r\n     * Requirements:\r\n     * - The divisor cannot be zero.\r\n     */\r\n    function div(uint256 a, uint256 b) internal pure returns (uint256) {\r\n        return div(a, b, 'SafeMath: division by zero');\r\n    }\r\n\r\n    /**\r\n     * @dev Returns the integer division of two unsigned integers. Reverts with custom message on\r\n     * division by zero. The result is rounded towards zero.\r\n     *\r\n     * Counterpart to Solidity's `/` operator. Note: this function uses a\r\n     * `revert` opcode (which leaves remaining gas untouched) while Solidity\r\n     * uses an invalid opcode to revert (consuming all remaining gas).\r\n     *\r\n     * Requirements:\r\n     * - The divisor cannot be zero.\r\n     */\r\n    function div(\r\n        uint256 a,\r\n        uint256 b,\r\n        string memory errorMessage\r\n    ) internal pure returns (uint256) {\r\n        // Solidity only automatically asserts when dividing by 0\r\n        require(b > 0, errorMessage);\r\n        uint256 c = a / b;\r\n        // assert(a == b * c + a % b); // There is no case in which this doesn't hold\r\n\r\n        return c;\r\n    }\r\n\r\n    /**\r\n     * @dev Returns the remainder of dividing two unsigned integers. (unsigned integer modulo),\r\n     * Reverts when dividing by zero.\r\n     *\r\n     * Counterpart to Solidity's `%` operator. This function uses a `revert`\r\n     * opcode (which leaves remaining gas untouched) while Solidity uses an\r\n     * invalid opcode to revert (consuming all remaining gas).\r\n     *\r\n     * Requirements:\r\n     * - The divisor cannot be zero.\r\n     */\r\n    function mod(uint256 a, uint256 b) internal pure returns (uint256) {\r\n        return mod(a, b, 'SafeMath: modulo by zero');\r\n    }\r\n\r\n    /**\r\n     * @dev Returns the remainder of dividing two unsigned integers. (unsigned integer modulo),\r\n     * Reverts with custom message when dividing by zero.\r\n     *\r\n     * Counterpart to Solidity's `%` operator. This function uses a `revert`\r\n     * opcode (which leaves remaining gas untouched) while Solidity uses an\r\n     * invalid opcode to revert (consuming all remaining gas).\r\n     *\r\n     * Requirements:\r\n     * - The divisor cannot be zero.\r\n     */\r\n    function mod(\r\n        uint256 a,\r\n        uint256 b,\r\n        string memory errorMessage\r\n    ) internal pure returns (uint256) {\r\n        require(b != 0, errorMessage);\r\n        return a % b;\r\n    }\r\n}\r\n\r\n// File: contracts/lib/ERC20.sol\r\n\r\n\r\npragma solidity 0.6.12;\r\n\r\n\r\n\r\n\r\n\r\n/**\r\n * @title ERC20\r\n * @notice Basic ERC20 implementation\r\n * @author Roya\r\n **/\r\ncontract ERC20 is Context, IERC20, IERC20Detailed {\r\n  using SafeMath for uint256;\r\n\r\n  mapping(address => uint256) private _balances;\r\n  mapping(address => mapping(address => uint256)) private _allowances;\r\n  uint256 private _totalSupply;\r\n  string private _name;\r\n  string private _symbol;\r\n  uint8 private _decimals;\r\n\r\n  constructor(\r\n    string memory name,\r\n    string memory symbol,\r\n    uint8 decimals\r\n  ) public {\r\n    _name = name;\r\n    _symbol = symbol;\r\n    _decimals = decimals;\r\n  }\r\n\r\n  /**\r\n   * @return the name of the token\r\n   **/\r\n  function name() public override view returns (string memory) {\r\n    return _name;\r\n  }\r\n\r\n  /**\r\n   * @return the symbol of the token\r\n   **/\r\n  function symbol() public override view returns (string memory) {\r\n    return _symbol;\r\n  }\r\n\r\n  /**\r\n   * @return the decimals of the token\r\n   **/\r\n  function decimals() public override view returns (uint8) {\r\n    return _decimals;\r\n  }\r\n\r\n  /**\r\n   * @return the total supply of the token\r\n   **/\r\n  function totalSupply() public override view returns (uint256) {\r\n    return _totalSupply;\r\n  }\r\n\r\n  /**\r\n   * @return the balance of the token\r\n   **/\r\n  function balanceOf(address account) public override view returns (uint256) {\r\n    return _balances[account];\r\n  }\r\n\r\n  /**\r\n   * @dev executes a transfer of tokens from msg.sender to recipient\r\n   * @param recipient the recipient of the tokens\r\n   * @param amount the amount of tokens being transferred\r\n   * @return true if the transfer succeeds, false otherwise\r\n   **/\r\n  function transfer(address recipient, uint256 amount) public virtual override returns (bool) {\r\n    _transfer(_msgSender(), recipient, amount);\r\n    return true;\r\n  }\r\n\r\n  /**\r\n   * @dev returns the allowance of spender on the tokens owned by owner\r\n   * @param owner the owner of the tokens\r\n   * @param spender the user allowed to spend the owner's tokens\r\n   * @return the amount of owner's tokens spender is allowed to spend\r\n   **/\r\n  function allowance(address owner, address spender)\r\n    public\r\n    virtual\r\n    override\r\n    view\r\n    returns (uint256)\r\n  {\r\n    return _allowances[owner][spender];\r\n  }\r\n\r\n  /**\r\n   * @dev allows spender to spend the tokens owned by msg.sender\r\n   * @param spender the user allowed to spend msg.sender tokens\r\n   * @return true\r\n   **/\r\n  function approve(address spender, uint256 amount) public virtual override returns (bool) {\r\n    _approve(_msgSender(), spender, amount);\r\n    return true;\r\n  }\r\n\r\n  /**\r\n   * @dev executes a transfer of token from sender to recipient, if msg.sender is allowed to do so\r\n   * @param sender the owner of the tokens\r\n   * @param recipient the recipient of the tokens\r\n   * @param amount the amount of tokens being transferred\r\n   * @return true if the transfer succeeds, false otherwise\r\n   **/\r\n  function transferFrom(\r\n    address sender,\r\n    address recipient,\r\n    uint256 amount\r\n  ) public virtual override returns (bool) {\r\n    _transfer(sender, recipient, amount);\r\n    _approve(\r\n      sender,\r\n      _msgSender(),\r\n      _allowances[sender][_msgSender()].sub(amount, 'ERC20: transfer amount exceeds allowance')\r\n    );\r\n    return true;\r\n  }\r\n\r\n  /**\r\n   * @dev increases the allowance of spender to spend msg.sender tokens\r\n   * @param spender the user allowed to spend on behalf of msg.sender\r\n   * @param addedValue the amount being added to the allowance\r\n   * @return true\r\n   **/\r\n  function increaseAllowance(address spender, uint256 addedValue) public virtual returns (bool) {\r\n    _approve(_msgSender(), spender, _allowances[_msgSender()][spender].add(addedValue));\r\n    return true;\r\n  }\r\n\r\n  /**\r\n   * @dev decreases the allowance of spender to spend msg.sender tokens\r\n   * @param spender the user allowed to spend on behalf of msg.sender\r\n   * @param subtractedValue the amount being subtracted to the allowance\r\n   * @return true\r\n   **/\r\n  function decreaseAllowance(address spender, uint256 subtractedValue)\r\n    public\r\n    virtual\r\n    returns (bool)\r\n  {\r\n    _approve(\r\n      _msgSender(),\r\n      spender,\r\n      _allowances[_msgSender()][spender].sub(\r\n        subtractedValue,\r\n        'ERC20: decreased allowance below zero'\r\n      )\r\n    );\r\n    return true;\r\n  }\r\n\r\n  function _transfer(\r\n    address sender,\r\n    address recipient,\r\n    uint256 amount\r\n  ) internal virtual {\r\n    require(sender != address(0), 'ERC20: transfer from the zero address');\r\n    require(recipient != address(0), 'ERC20: transfer to the zero address');\r\n\r\n    _beforeTokenTransfer(sender, recipient, amount);\r\n\r\n    _balances[sender] = _balances[sender].sub(amount, 'ERC20: transfer amount exceeds balance');\r\n    _balances[recipient] = _balances[recipient].add(amount);\r\n    emit Transfer(sender, recipient, amount);\r\n  }\r\n\r\n  function _mint(address account, uint256 amount) internal virtual {\r\n    require(account != address(0), 'ERC20: mint to the zero address');\r\n\r\n    _beforeTokenTransfer(address(0), account, amount);\r\n\r\n    _totalSupply = _totalSupply.add(amount);\r\n    _balances[account] = _balances[account].add(amount);\r\n    emit Transfer(address(0), account, amount);\r\n  }\r\n\r\n  function _burn(address account, uint256 amount) internal virtual {\r\n    require(account != address(0), 'ERC20: burn from the zero address');\r\n\r\n    _beforeTokenTransfer(account, address(0), amount);\r\n\r\n    _balances[account] = _balances[account].sub(amount, 'ERC20: burn amount exceeds balance');\r\n    _totalSupply = _totalSupply.sub(amount);\r\n    emit Transfer(account, address(0), amount);\r\n  }\r\n\r\n  function _approve(\r\n    address owner,\r\n    address spender,\r\n    uint256 amount\r\n  ) internal virtual {\r\n    require(owner != address(0), 'ERC20: approve from the zero address');\r\n    require(spender != address(0), 'ERC20: approve to the zero address');\r\n\r\n    _allowances[owner][spender] = amount;\r\n    emit Approval(owner, spender, amount);\r\n  }\r\n\r\n  function _setName(string memory newName) internal {\r\n    _name = newName;\r\n  }\r\n\r\n  function _setSymbol(string memory newSymbol) internal {\r\n    _symbol = newSymbol;\r\n  }\r\n\r\n  function _setDecimals(uint8 newDecimals) internal {\r\n    _decimals = newDecimals;\r\n  }\r\n\r\n  function _beforeTokenTransfer(\r\n    address from,\r\n    address to,\r\n    uint256 amount\r\n  ) internal virtual {}\r\n}\r\n\r\n// File: contracts/lib/ERC20WithSnapshot.sol\r\n\r\n\r\npragma solidity 0.6.12;\r\n\r\n\r\n\r\n/**\r\n * @title ERC20WithSnapshot\r\n * @notice ERC20 including snapshots of balances on transfer-related actions\r\n * @author Roya\r\n **/\r\ncontract ERC20WithSnapshot is ERC20 {\r\n\r\n    /// @dev snapshot of a value on a specific block, used for balances\r\n    struct Snapshot {\r\n        uint128 blockNumber;\r\n        uint128 value;\r\n    }\r\n\r\n    mapping (address => mapping (uint256 => Snapshot)) public _snapshots;\r\n    mapping (address => uint256) public _countsSnapshots;\r\n    /// @dev reference to the Roya governance contract to call (if initialized) on _beforeTokenTransfer\r\n    /// !!! IMPORTANT The Roya governance is considered a trustable contract, being its responsibility\r\n    /// to control all potential reentrancies by calling back the this contract\r\n    ITransferHook public _royaGovernance;\r\n\r\n    event SnapshotDone(address owner, uint128 oldValue, uint128 newValue);\r\n\r\n    constructor(string memory name, string memory symbol, uint8 decimals) public ERC20(name, symbol, decimals) {}\r\n\r\n    function _setRoyaGovernance(ITransferHook royaGovernance) internal virtual {\r\n        _royaGovernance = royaGovernance;\r\n    }\r\n\r\n    /**\r\n    * @dev Writes a snapshot for an owner of tokens\r\n    * @param owner The owner of the tokens\r\n    * @param oldValue The value before the operation that is gonna be executed after the snapshot\r\n    * @param newValue The value after the operation\r\n    */\r\n    function _writeSnapshot(address owner, uint128 oldValue, uint128 newValue) internal virtual {\r\n        uint128 currentBlock = uint128(block.number);\r\n\r\n        uint256 ownerCountOfSnapshots = _countsSnapshots[owner];\r\n        mapping (uint256 => Snapshot) storage snapshotsOwner = _snapshots[owner];\r\n\r\n        // Doing multiple operations in the same block\r\n        if (ownerCountOfSnapshots != 0 && snapshotsOwner[ownerCountOfSnapshots.sub(1)].blockNumber == currentBlock) {\r\n            snapshotsOwner[ownerCountOfSnapshots.sub(1)].value = newValue;\r\n        } else {\r\n            snapshotsOwner[ownerCountOfSnapshots] = Snapshot(currentBlock, newValue);\r\n            _countsSnapshots[owner] = ownerCountOfSnapshots.add(1);\r\n        }\r\n\r\n        emit SnapshotDone(owner, oldValue, newValue);\r\n    }\r\n\r\n    /**\r\n    * @dev Writes a snapshot before any operation involving transfer of value: _transfer, _mint and _burn\r\n    * - On _transfer, it writes snapshots for both \"from\" and \"to\"\r\n    * - On _mint, only for _to\r\n    * - On _burn, only for _from\r\n    * @param from the from address\r\n    * @param to the to address\r\n    * @param amount the amount to transfer\r\n    */\r\n    function _beforeTokenTransfer(address from, address to, uint256 amount) internal override {\r\n        if (from == to) {\r\n            return;\r\n        }\r\n\r\n        if (from != address(0)) {\r\n            uint256 fromBalance = balanceOf(from);\r\n            _writeSnapshot(from, uint128(fromBalance), uint128(fromBalance.sub(amount)));\r\n        }\r\n        if (to != address(0)) {\r\n            uint256 toBalance = balanceOf(to);\r\n            _writeSnapshot(to, uint128(toBalance), uint128(toBalance.add(amount)));\r\n        }\r\n\r\n        // caching the roya governance address to avoid multiple state loads\r\n        ITransferHook royaGovernance = _royaGovernance;\r\n        if (royaGovernance != ITransferHook(0)) {\r\n            royaGovernance.onTransfer(from, to, amount);\r\n        }\r\n    }\r\n}\r\n\r\n// File: contracts/lib/Address.sol\r\n\r\n\r\npragma solidity 0.6.12;\r\n\r\n/**\r\n * @dev Collection of functions related to the address type\r\n * From https://github.com/OpenZeppelin/openzeppelin-contracts\r\n */\r\nlibrary Address {\r\n    /**\r\n     * @dev Returns true if `account` is a contract.\r\n     *\r\n     * [IMPORTANT]\r\n     * ====\r\n     * It is unsafe to assume that an address for which this function returns\r\n     * false is an externally-owned account (EOA) and not a contract.\r\n     *\r\n     * Among others, `isContract` will return false for the following\r\n     * types of addresses:\r\n     *\r\n     *  - an externally-owned account\r\n     *  - a contract in construction\r\n     *  - an address where a contract will be created\r\n     *  - an address where a contract lived, but was destroyed\r\n     * ====\r\n     */\r\n    function isContract(address account) internal view returns (bool) {\r\n        // According to EIP-1052, 0x0 is the value returned for not-yet created accounts\r\n        // and 0xc5d2460186f7233c927e7db2dcc703c0e500b653ca82273b7bfad8045d85a470 is returned\r\n        // for accounts without code, i.e. `keccak256('')`\r\n        bytes32 codehash;\r\n        bytes32 accountHash = 0xc5d2460186f7233c927e7db2dcc703c0e500b653ca82273b7bfad8045d85a470;\r\n        // solhint-disable-next-line no-inline-assembly\r\n        assembly {\r\n            codehash := extcodehash(account)\r\n        }\r\n        return (codehash != accountHash && codehash != 0x0);\r\n    }\r\n\r\n    /**\r\n     * @dev Replacement for Solidity's `transfer`: sends `amount` wei to\r\n     * `recipient`, forwarding all available gas and reverting on errors.\r\n     *\r\n     * https://eips.ethereum.org/EIPS/eip-1884[EIP1884] increases the gas cost\r\n     * of certain opcodes, possibly making contracts go over the 2300 gas limit\r\n     * imposed by `transfer`, making them unable to receive funds via\r\n     * `transfer`. {sendValue} removes this limitation.\r\n     *\r\n     * https://diligence.consensys.net/posts/2019/09/stop-using-soliditys-transfer-now/[Learn more].\r\n     *\r\n     * IMPORTANT: because control is transferred to `recipient`, care must be\r\n     * taken to not create reentrancy vulnerabilities. Consider using\r\n     * {ReentrancyGuard} or the\r\n     * https://solidity.readthedocs.io/en/v0.5.11/security-considerations.html#use-the-checks-effects-interactions-pattern[checks-effects-interactions pattern].\r\n     */\r\n    function sendValue(address payable recipient, uint256 amount) internal {\r\n        require(address(this).balance >= amount, 'Address: insufficient balance');\r\n\r\n        // solhint-disable-next-line avoid-low-level-calls, avoid-call-value\r\n        (bool success, ) = recipient.call{value: amount}('');\r\n        require(success, 'Address: unable to send value, recipient may have reverted');\r\n    }\r\n}\r\n\r\n// File: contracts/lib/SafeERC20.sol\r\n\r\n\r\n\r\npragma solidity 0.6.12;\r\n\r\n\r\n\r\n\r\n/**\r\n * @title SafeERC20\r\n * @dev From https://github.com/OpenZeppelin/openzeppelin-contracts\r\n * Wrappers around ERC20 operations that throw on failure (when the token\r\n * contract returns false). Tokens that return no value (and instead revert or\r\n * throw on failure) are also supported, non-reverting calls are assumed to be\r\n * successful.\r\n * To use this library you can add a `using SafeERC20 for IERC20;` statement to your contract,\r\n * which allows you to call the safe operations as `token.safeTransfer(...)`, etc.\r\n */\r\nlibrary SafeERC20 {\r\n    using SafeMath for uint256;\r\n    using Address for address;\r\n\r\n    function safeTransfer(IERC20 token, address to, uint256 value) internal {\r\n        callOptionalReturn(token, abi.encodeWithSelector(token.transfer.selector, to, value));\r\n    }\r\n\r\n    function safeTransferFrom(IERC20 token, address from, address to, uint256 value) internal {\r\n        callOptionalReturn(token, abi.encodeWithSelector(token.transferFrom.selector, from, to, value));\r\n    }\r\n\r\n    function safeApprove(IERC20 token, address spender, uint256 value) internal {\r\n        require((value == 0) || (token.allowance(address(this), spender) == 0),\r\n            \"SafeERC20: approve from non-zero to non-zero allowance\"\r\n        );\r\n        callOptionalReturn(token, abi.encodeWithSelector(token.approve.selector, spender, value));\r\n    }\r\n    \r\n    function callOptionalReturn(IERC20 token, bytes memory data) private {\r\n        require(address(token).isContract(), \"SafeERC20: call to non-contract\");\r\n\r\n        // solhint-disable-next-line avoid-low-level-calls\r\n        (bool success, bytes memory returndata) = address(token).call(data);\r\n        require(success, \"SafeERC20: low-level call failed\");\r\n\r\n        if (returndata.length > 0) { // Return data is optional\r\n            // solhint-disable-next-line max-line-length\r\n            require(abi.decode(returndata, (bool)), \"SafeERC20: ERC20 operation did not succeed\");\r\n        }\r\n    }\r\n}\r\n\r\n// File: contracts/utils/VersionedInitializable.sol\r\n\r\n\r\npragma solidity 0.6.12;\r\n\r\n/**\r\n * @title VersionedInitializable\r\n *\r\n * @dev Helper contract to support initializer functions. To use it, replace\r\n * the constructor with a function that has the `initializer` modifier.\r\n * WARNING: Unlike constructors, initializer functions must be manually\r\n * invoked. This applies both to deploying an Initializable contract, as well\r\n * as extending an Initializable contract via inheritance.\r\n * WARNING: When used with inheritance, manual care must be taken to not invoke\r\n * a parent initializer twice, or ensure that all initializers are idempotent,\r\n * because this is not dealt with automatically as with constructors.\r\n *\r\n * @author Roya, inspired by the OpenZeppelin Initializable contract\r\n */\r\nabstract contract VersionedInitializable {\r\n    /**\r\n     * @dev Indicates that the contract has been initialized.\r\n     */\r\n    uint256 internal lastInitializedRevision = 0;\r\n\r\n    /**\r\n     * @dev Modifier to use in the initializer function of a contract.\r\n     */\r\n    modifier initializer() {\r\n        uint256 revision = getRevision();\r\n        require(\r\n            revision > lastInitializedRevision,\r\n            'Contract instance has already been initialized'\r\n        );\r\n\r\n        lastInitializedRevision = revision;\r\n\r\n        _;\r\n    }\r\n\r\n    /// @dev returns the revision number of the contract.\r\n    /// Needs to be defined in the inherited class as a constant.\r\n    function getRevision() internal virtual pure returns (uint256);\r\n\r\n    // Reserved storage space to allow for layout changes in the future.\r\n    uint256[50] private ______gap;\r\n}\r\n\r\n// File: contracts/lib/DistributionTypes.sol\r\n\r\n\r\npragma solidity 0.6.12;\r\n\r\n\r\nlibrary DistributionTypes {\r\n  struct AssetConfigInput {\r\n    uint128 emissionPerSecond;\r\n    uint256 totalStaked;\r\n    address underlyingAsset;\r\n  }\r\n\r\n  struct UserStakeInput {\r\n    address underlyingAsset;\r\n    uint256 stakedByUser;\r\n    uint256 totalStaked;\r\n  }\r\n}\r\n\r\n// File: contracts/interfaces/IRoyaDistributionManager.sol\r\n\r\n\r\npragma solidity 0.6.12;\r\n\r\n\r\n\r\ninterface IRoyaDistributionManager {\r\n  function configureAssets(DistributionTypes.AssetConfigInput[] calldata assetsConfigInput) external;\r\n}\r\n\r\n// File: contracts/stake/RoyaDistributionManager.sol\r\n\r\n\r\npragma solidity 0.6.12;\r\n\r\n\r\n\r\n\r\n\r\n/**\r\n * @title RoyaDistributionManager\r\n * @notice Accounting contract to manage multiple staking distributions\r\n * @author Roya\r\n **/\r\ncontract RoyaDistributionManager is IRoyaDistributionManager {\r\n  using SafeMath for uint256;\r\n\r\n  struct AssetData {\r\n    uint128 emissionPerSecond;\r\n    uint128 lastUpdateTimestamp;\r\n    uint256 index;\r\n    mapping(address => uint256) users;\r\n  }\r\n\r\n  uint256 public immutable DISTRIBUTION_END;\r\n\r\n  address public immutable EMISSION_MANAGER;\r\n\r\n  uint8 public constant PRECISION = 18;\r\n\r\n  mapping(address => AssetData) public assets;\r\n\r\n  event AssetConfigUpdated(address indexed asset, uint256 emission);\r\n  event AssetIndexUpdated(address indexed asset, uint256 index);\r\n  event UserIndexUpdated(address indexed user, address indexed asset, uint256 index);\r\n\r\n  constructor(address emissionManager, uint256 distributionDuration) public {\r\n    DISTRIBUTION_END = block.timestamp.add(distributionDuration);\r\n    EMISSION_MANAGER = emissionManager;\r\n  }\r\n\r\n  /**\r\n   * @dev Configures the distribution of rewards for a list of assets\r\n   * @param assetsConfigInput The list of configurations to apply\r\n   **/\r\n  function configureAssets(DistributionTypes.AssetConfigInput[] calldata assetsConfigInput) external override {\r\n    require(msg.sender == EMISSION_MANAGER, 'ONLY_EMISSION_MANAGER');\r\n\r\n    for (uint256 i = 0; i < assetsConfigInput.length; i++) {\r\n      AssetData storage assetConfig = assets[assetsConfigInput[i].underlyingAsset];\r\n\r\n      _updateAssetStateInternal(\r\n        assetsConfigInput[i].underlyingAsset,\r\n        assetConfig,\r\n        assetsConfigInput[i].totalStaked\r\n      );\r\n\r\n      assetConfig.emissionPerSecond = assetsConfigInput[i].emissionPerSecond;\r\n\r\n      emit AssetConfigUpdated(\r\n        assetsConfigInput[i].underlyingAsset,\r\n        assetsConfigInput[i].emissionPerSecond\r\n      );\r\n    }\r\n  }\r\n\r\n  /**\r\n   * @dev Updates the state of one distribution, mainly rewards index and timestamp\r\n   * @param underlyingAsset The address used as key in the distribution, for example sAAVE or the aTokens addresses on Roya\r\n   * @param assetConfig Storage pointer to the distribution's config\r\n   * @param totalStaked Current total of staked assets for this distribution\r\n   * @return The new distribution index\r\n   **/\r\n  function _updateAssetStateInternal(\r\n    address underlyingAsset,\r\n    AssetData storage assetConfig,\r\n    uint256 totalStaked\r\n  ) internal returns (uint256) {\r\n    uint256 oldIndex = assetConfig.index;\r\n    uint128 lastUpdateTimestamp = assetConfig.lastUpdateTimestamp;\r\n\r\n    if (block.timestamp == lastUpdateTimestamp) {\r\n      return oldIndex;\r\n    }\r\n\r\n    uint256 newIndex = _getAssetIndex(\r\n      oldIndex,\r\n      assetConfig.emissionPerSecond,\r\n      lastUpdateTimestamp,\r\n      totalStaked\r\n    );\r\n\r\n    if (newIndex != oldIndex) {\r\n      assetConfig.index = newIndex;\r\n      emit AssetIndexUpdated(underlyingAsset, newIndex);\r\n    }\r\n\r\n    assetConfig.lastUpdateTimestamp = uint128(block.timestamp);\r\n\r\n    return newIndex;\r\n  }\r\n\r\n  /**\r\n   * @dev Updates the state of an user in a distribution\r\n   * @param user The user's address\r\n   * @param asset The address of the reference asset of the distribution\r\n   * @param stakedByUser Amount of tokens staked by the user in the distribution at the moment\r\n   * @param totalStaked Total tokens staked in the distribution\r\n   * @return The accrued rewards for the user until the moment\r\n   **/\r\n  function _updateUserAssetInternal(\r\n    address user,\r\n    address asset,\r\n    uint256 stakedByUser,\r\n    uint256 totalStaked\r\n  ) internal returns (uint256) {\r\n    AssetData storage assetData = assets[asset];\r\n    uint256 userIndex = assetData.users[user];\r\n    uint256 accruedRewards = 0;\r\n\r\n    uint256 newIndex = _updateAssetStateInternal(asset, assetData, totalStaked);\r\n\r\n    if (userIndex != newIndex) {\r\n      if (stakedByUser != 0) {\r\n        accruedRewards = _getRewards(stakedByUser, newIndex, userIndex);\r\n      }\r\n\r\n      assetData.users[user] = newIndex;\r\n      emit UserIndexUpdated(user, asset, newIndex);\r\n    }\r\n\r\n    return accruedRewards;\r\n  }\r\n\r\n  /**\r\n   * @dev Used by \"frontend\" stake contracts to update the data of an user when claiming rewards from there\r\n   * @param user The address of the user\r\n   * @param stakes List of structs of the user data related with his stake\r\n   * @return The accrued rewards for the user until the moment\r\n   **/\r\n  function _claimRewards(address user, DistributionTypes.UserStakeInput[] memory stakes)\r\n    internal\r\n    returns (uint256)\r\n  {\r\n    uint256 accruedRewards = 0;\r\n\r\n    for (uint256 i = 0; i < stakes.length; i++) {\r\n      accruedRewards = accruedRewards.add(\r\n        _updateUserAssetInternal(\r\n          user,\r\n          stakes[i].underlyingAsset,\r\n          stakes[i].stakedByUser,\r\n          stakes[i].totalStaked\r\n        )\r\n      );\r\n    }\r\n\r\n    return accruedRewards;\r\n  }\r\n\r\n  /**\r\n   * @dev Return the accrued rewards for an user over a list of distribution\r\n   * @param user The address of the user\r\n   * @param stakes List of structs of the user data related with his stake\r\n   * @return The accrued rewards for the user until the moment\r\n   **/\r\n  function _getUnclaimedRewards(address user, DistributionTypes.UserStakeInput[] memory stakes)\r\n    internal\r\n    view\r\n    returns (uint256)\r\n  {\r\n    uint256 accruedRewards = 0;\r\n\r\n    for (uint256 i = 0; i < stakes.length; i++) {\r\n      AssetData storage assetConfig = assets[stakes[i].underlyingAsset];\r\n      uint256 assetIndex = _getAssetIndex(\r\n        assetConfig.index,\r\n        assetConfig.emissionPerSecond,\r\n        assetConfig.lastUpdateTimestamp,\r\n        stakes[i].totalStaked\r\n      );\r\n\r\n      accruedRewards = accruedRewards.add(\r\n        _getRewards(stakes[i].stakedByUser, assetIndex, assetConfig.users[user])\r\n      );\r\n    }\r\n    return accruedRewards;\r\n  }\r\n\r\n  /**\r\n   * @dev Internal function for the calculation of user's rewards on a distribution\r\n   * @param principalUserBalance Amount staked by the user on a distribution\r\n   * @param reserveIndex Current index of the distribution\r\n   * @param userIndex Index stored for the user, representation his staking moment\r\n   * @return The rewards\r\n   **/\r\n  function _getRewards(\r\n    uint256 principalUserBalance,\r\n    uint256 reserveIndex,\r\n    uint256 userIndex\r\n  ) internal pure returns (uint256) {\r\n    return principalUserBalance.mul(reserveIndex.sub(userIndex)).div(10**uint256(PRECISION));\r\n  }\r\n\r\n  /**\r\n   * @dev Calculates the next value of an specific distribution index, with validations\r\n   * @param currentIndex Current index of the distribution\r\n   * @param emissionPerSecond Representing the total rewards distributed per second per asset unit, on the distribution\r\n   * @param lastUpdateTimestamp Last moment this distribution was updated\r\n   * @param totalBalance of tokens considered for the distribution\r\n   * @return The new index.\r\n   **/\r\n  function _getAssetIndex(\r\n    uint256 currentIndex,\r\n    uint256 emissionPerSecond,\r\n    uint128 lastUpdateTimestamp,\r\n    uint256 totalBalance\r\n  ) internal view returns (uint256) {\r\n    if (\r\n      emissionPerSecond == 0 ||\r\n      totalBalance == 0 ||\r\n      lastUpdateTimestamp == block.timestamp ||\r\n      lastUpdateTimestamp >= DISTRIBUTION_END\r\n    ) {\r\n      return currentIndex;\r\n    }\r\n\r\n    uint256 currentTimestamp = block.timestamp > DISTRIBUTION_END\r\n      ? DISTRIBUTION_END\r\n      : block.timestamp;\r\n    uint256 timeDelta = currentTimestamp.sub(lastUpdateTimestamp);\r\n    return\r\n      emissionPerSecond.mul(timeDelta).mul(10**uint256(PRECISION)).div(totalBalance).add(\r\n        currentIndex\r\n      );\r\n  }\r\n\r\n  /**\r\n   * @dev Returns the data of an user on a distribution\r\n   * @param user Address of the user\r\n   * @param asset The address of the reference asset of the distribution\r\n   * @return The new index\r\n   **/\r\n  function getUserAssetData(address user, address asset) public view returns (uint256) {\r\n    return assets[asset].users[user];\r\n  }\r\n}\r\n\r\n// File: contracts/stake/StakedToken.sol\r\n\r\n\r\npragma solidity 0.6.12;\r\n\r\n\r\n\r\n\r\n\r\n\r\n\r\n\r\n\r\n\r\n/**\r\n * @title StakedToken\r\n * @notice Contract to stake Roya token, tokenize the position and get rewards, inheriting from a distribution manager contract\r\n * @author Roya\r\n **/\r\ncontract StakedToken is IStakedRoya, ERC20WithSnapshot, VersionedInitializable, RoyaDistributionManager {\r\n  using SafeERC20 for IERC20;\r\n\r\n  uint256 public constant REVISION = 1;\r\n\r\n  IERC20 public immutable STAKED_TOKEN;\r\n  IERC20 public immutable REWARD_TOKEN;\r\n  uint256 public immutable COOLDOWN_SECONDS;\r\n\r\n  /// @notice Seconds available to redeem once the cooldown period is fullfilled\r\n  uint256 public immutable UNSTAKE_WINDOW;\r\n\r\n  /// @notice Address to pull from the rewards, needs to have approved this contract\r\n  address public immutable REWARDS_VAULT;\r\n\r\n  mapping(address => uint256) public stakerRewardsToClaim;\r\n  mapping(address => uint256) public stakersCooldowns;\r\n\r\n  event Staked(address indexed from, address indexed onBehalfOf, uint256 amount);\r\n  event Redeem(address indexed from, address indexed to, uint256 amount);\r\n\r\n  event RewardsAccrued(address user, uint256 amount);\r\n  event RewardsClaimed(address indexed from, address indexed to, uint256 amount);\r\n\r\n  event Cooldown(address indexed user);\r\n\r\n  constructor(\r\n    IERC20 stakedToken,\r\n    IERC20 rewardToken,\r\n    uint256 cooldownSeconds,\r\n    uint256 unstakeWindow,\r\n    address rewardsVault,\r\n    address emissionManager,\r\n    uint128 distributionDuration,\r\n    string memory name,\r\n    string memory symbol,\r\n    uint8 decimals\r\n  ) public ERC20WithSnapshot(name, symbol, decimals) RoyaDistributionManager(emissionManager, distributionDuration) {\r\n    STAKED_TOKEN = stakedToken;\r\n    REWARD_TOKEN = rewardToken;\r\n    COOLDOWN_SECONDS = cooldownSeconds;\r\n    UNSTAKE_WINDOW = unstakeWindow;\r\n    REWARDS_VAULT = rewardsVault;\r\n  }\r\n\r\n  /**\r\n   * @dev Called by the proxy contract\r\n   **/\r\n  function initialize(ITransferHook royaGovernance, string calldata name, string calldata symbol, uint8 decimals) external initializer {\r\n    _setName(name);\r\n    _setSymbol(symbol);\r\n    _setDecimals(decimals);\r\n    _setRoyaGovernance(royaGovernance);\r\n  }\r\n\r\n  function stake(address onBehalfOf, uint256 amount) external override {\r\n    require(amount != 0, 'INVALID_ZERO_AMOUNT');\r\n    uint256 balanceOfUser = balanceOf(onBehalfOf);\r\n\r\n    uint256 accruedRewards = _updateUserAssetInternal(\r\n      onBehalfOf,\r\n      address(this),\r\n      balanceOfUser,\r\n      totalSupply()\r\n    );\r\n    if (accruedRewards != 0) {\r\n      emit RewardsAccrued(onBehalfOf, accruedRewards);\r\n      stakerRewardsToClaim[onBehalfOf] = stakerRewardsToClaim[onBehalfOf].add(accruedRewards);\r\n    }\r\n\r\n    stakersCooldowns[onBehalfOf] = getNextCooldownTimestamp(0, amount, onBehalfOf, balanceOfUser);\r\n\r\n    _mint(onBehalfOf, amount);\r\n    IERC20(STAKED_TOKEN).safeTransferFrom(msg.sender, address(this), amount);\r\n\r\n    emit Staked(msg.sender, onBehalfOf, amount);\r\n  }\r\n\r\n  /**\r\n   * @dev Redeems staked tokens, and stop earning rewards\r\n   * @param to Address to redeem to\r\n   * @param amount Amount to redeem\r\n   **/\r\n  function redeem(address to, uint256 amount) external override {\r\n    require(amount != 0, 'INVALID_ZERO_AMOUNT');\r\n    //solium-disable-next-line\r\n    uint256 cooldownStartTimestamp = stakersCooldowns[msg.sender];\r\n    require(\r\n      block.timestamp > cooldownStartTimestamp.add(COOLDOWN_SECONDS),\r\n      'INSUFFICIENT_COOLDOWN'\r\n    );\r\n    require(\r\n      block.timestamp.sub(cooldownStartTimestamp.add(COOLDOWN_SECONDS)) <= UNSTAKE_WINDOW,\r\n      'UNSTAKE_WINDOW_FINISHED'\r\n    );\r\n    uint256 balanceOfMessageSender = balanceOf(msg.sender);\r\n\r\n    uint256 amountToRedeem = (amount > balanceOfMessageSender) ? balanceOfMessageSender : amount;\r\n\r\n    _updateCurrentUnclaimedRewards(msg.sender, balanceOfMessageSender, true);\r\n\r\n    _burn(msg.sender, amountToRedeem);\r\n\r\n    if (balanceOfMessageSender.sub(amountToRedeem) == 0) {\r\n      stakersCooldowns[msg.sender] = 0;\r\n    }\r\n\r\n    IERC20(STAKED_TOKEN).safeTransfer(to, amountToRedeem);\r\n\r\n    emit Redeem(msg.sender, to, amountToRedeem);\r\n  }\r\n\r\n  /**\r\n   * @dev Activates the cooldown period to unstake\r\n   * - It can't be called if the user is not staking\r\n   **/\r\n  function cooldown() external override {\r\n    require(balanceOf(msg.sender) != 0, \"INVALID_BALANCE_ON_COOLDOWN\");\r\n    //solium-disable-next-line\r\n    stakersCooldowns[msg.sender] = block.timestamp;\r\n\r\n    emit Cooldown(msg.sender);\r\n  }\r\n\r\n  /**\r\n   * @dev Claims an `amount` of `REWARD_TOKEN` to the address `to`\r\n   * @param to Address to stake for\r\n   * @param amount Amount to stake\r\n   **/\r\n  function claimRewards(address to, uint256 amount) external override {\r\n    uint256 newTotalRewards = _updateCurrentUnclaimedRewards(\r\n      msg.sender,\r\n      balanceOf(msg.sender),\r\n      false\r\n    );\r\n    uint256 amountToClaim = (amount == type(uint256).max) ? newTotalRewards : amount;\r\n\r\n    stakerRewardsToClaim[msg.sender] = newTotalRewards.sub(amountToClaim, \"INVALID_AMOUNT\");\r\n\r\n    REWARD_TOKEN.safeTransferFrom(REWARDS_VAULT, to, amountToClaim);\r\n\r\n    emit RewardsClaimed(msg.sender, to, amountToClaim);\r\n  }\r\n\r\n  /**\r\n   * @dev Internal ERC20 _transfer of the tokenized staked tokens\r\n   * @param from Address to transfer from\r\n   * @param to Address to transfer to\r\n   * @param amount Amount to transfer\r\n   **/\r\n  function _transfer(\r\n    address from,\r\n    address to,\r\n    uint256 amount\r\n  ) internal override {\r\n    uint256 balanceOfFrom = balanceOf(from);\r\n    // Sender\r\n    _updateCurrentUnclaimedRewards(from, balanceOfFrom, true);\r\n\r\n    // Recipient\r\n    if (from != to) {\r\n      uint256 balanceOfTo = balanceOf(to);\r\n      _updateCurrentUnclaimedRewards(to, balanceOfTo, true);\r\n\r\n      uint256 previousSenderCooldown = stakersCooldowns[from];\r\n      stakersCooldowns[to] = getNextCooldownTimestamp(previousSenderCooldown, amount, to, balanceOfTo);\r\n      // if cooldown was set and whole balance of sender was transferred - clear cooldown\r\n      if (balanceOfFrom == amount && previousSenderCooldown != 0) {\r\n        stakersCooldowns[from] = 0;\r\n      }\r\n    }\r\n\r\n    super._transfer(from, to, amount);\r\n  }\r\n\r\n  /**\r\n   * @dev Updates the user state related with his accrued rewards\r\n   * @param user Address of the user\r\n   * @param userBalance The current balance of the user\r\n   * @param updateStorage Boolean flag used to update or not the stakerRewardsToClaim of the user\r\n   * @return The unclaimed rewards that were added to the total accrued\r\n   **/\r\n  function _updateCurrentUnclaimedRewards(\r\n    address user,\r\n    uint256 userBalance,\r\n    bool updateStorage\r\n  ) internal returns (uint256) {\r\n    uint256 accruedRewards = _updateUserAssetInternal(\r\n      user,\r\n      address(this),\r\n      userBalance,\r\n      totalSupply()\r\n    );\r\n    uint256 unclaimedRewards = stakerRewardsToClaim[user].add(accruedRewards);\r\n\r\n    if (accruedRewards != 0) {\r\n      if (updateStorage) {\r\n        stakerRewardsToClaim[user] = unclaimedRewards;\r\n      }\r\n      emit RewardsAccrued(user, accruedRewards);\r\n    }\r\n\r\n    return unclaimedRewards;\r\n  }\r\n\r\n  /**\r\n   * @dev Calculates the how is gonna be a new cooldown timestamp depending on the sender/receiver situation\r\n   *  - If the timestamp of the sender is \"better\" or the timestamp of the recipient is 0, we take the one of the recipient\r\n   *  - Weighted average of from/to cooldown timestamps if:\r\n   *    # The sender doesn't have the cooldown activated (timestamp 0).\r\n   *    # The sender timestamp is expired\r\n   *    # The sender has a \"worse\" timestamp\r\n   *  - If the receiver's cooldown timestamp expired (too old), the next is 0\r\n   * @param fromCooldownTimestamp Cooldown timestamp of the sender\r\n   * @param amountToReceive Amount\r\n   * @param toAddress Address of the recipient\r\n   * @param toBalance Current balance of the receiver\r\n   * @return The new cooldown timestamp\r\n   **/\r\n  function getNextCooldownTimestamp(\r\n    uint256 fromCooldownTimestamp,\r\n    uint256 amountToReceive,\r\n    address toAddress,\r\n    uint256 toBalance\r\n  ) public returns (uint256) {\r\n    uint256 toCooldownTimestamp = stakersCooldowns[toAddress];\r\n    if (toCooldownTimestamp == 0) {\r\n      return 0;\r\n    }\r\n\r\n    uint256 minimalValidCooldownTimestamp = block.timestamp.sub(COOLDOWN_SECONDS).sub(\r\n      UNSTAKE_WINDOW\r\n    );\r\n\r\n    if (minimalValidCooldownTimestamp > toCooldownTimestamp) {\r\n      toCooldownTimestamp = 0;\r\n    } else {\r\n      uint256 fromCooldownTimestamp = (minimalValidCooldownTimestamp > fromCooldownTimestamp)\r\n        ? block.timestamp\r\n        : fromCooldownTimestamp;\r\n\r\n      if (fromCooldownTimestamp < toCooldownTimestamp) {\r\n        return toCooldownTimestamp;\r\n      } else {\r\n        toCooldownTimestamp = (\r\n          amountToReceive.mul(fromCooldownTimestamp).add(toBalance.mul(toCooldownTimestamp))\r\n        )\r\n          .div(amountToReceive.add(toBalance));\r\n      }\r\n    }\r\n    stakersCooldowns[toAddress] = toCooldownTimestamp;\r\n\r\n    return toCooldownTimestamp;\r\n  }\r\n\r\n  /**\r\n   * @dev Return the total rewards pending to claim by an staker\r\n   * @param staker The staker address\r\n   * @return The rewards\r\n   */\r\n  function getTotalRewardsBalance(address staker) external view returns (uint256) {\r\n\r\n      DistributionTypes.UserStakeInput[] memory userStakeInputs\r\n     = new DistributionTypes.UserStakeInput[](1);\r\n    userStakeInputs[0] = DistributionTypes.UserStakeInput({\r\n      underlyingAsset: address(this),\r\n      stakedByUser: balanceOf(staker),\r\n      totalStaked: totalSupply()\r\n    });\r\n    return stakerRewardsToClaim[staker].add(_getUnclaimedRewards(staker, userStakeInputs));\r\n  }\r\n\r\n  /**\r\n   * @dev returns the revision of the implementation contract\r\n   * @return The revision\r\n   */\r\n  function getRevision() internal override pure returns (uint256) {\r\n    return REVISION;\r\n  }\r\n}\r\n\r\n// File: contracts/stake/StakedRoya.sol\r\n\r\n\r\npragma solidity 0.6.12;\r\n\r\n\r\n\r\n\r\n/**\r\n * @title StakedRoya\r\n * @notice StakedToken with AAVE token as staked token\r\n * @author Roya\r\n **/\r\ncontract StakedRoya is StakedToken {\r\n  string internal constant NAME = 'Staked Roya';\r\n  string internal constant SYMBOL = 'stkAAVE';\r\n  uint8 internal constant DECIMALS = 18;\r\n  \r\n  constructor(\r\n    IERC20 stakedToken,\r\n    IERC20 rewardToken,\r\n    uint256 cooldownSeconds,\r\n    uint256 unstakeWindow,\r\n    address rewardsVault,\r\n    address emissionManager,\r\n    uint128 distributionDuration\r\n  ) public StakedToken(\r\n    stakedToken,\r\n    rewardToken,\r\n    cooldownSeconds,\r\n    unstakeWindow,\r\n    rewardsVault,\r\n    emissionManager,\r\n    distributionDuration,\r\n    NAME,\r\n    SYMBOL,\r\n    DECIMALS) {}\r\n}",
  "sourcePath": "C:/Users/vishn/OneDrive/Desktop/RoyaleProject/RoyaleFinance/royale-contracts/contracts/RoyaleUtility/RoyaReserve.sol",
  "compiler": {
    "name": "solc",
    "version": "0.6.12+commit.27d51765.Emscripten.clang"
  },
  "schemaVersion": "3.3.2",
  "updatedAt": "2021-02-12T06:04:57.753Z",
  "devdoc": {
    "author": "Roya*",
    "kind": "dev",
    "methods": {
      "allowance(address,address)": {
        "details": "returns the allowance of spender on the tokens owned by owner",
        "params": {
          "owner": "the owner of the tokens",
          "spender": "the user allowed to spend the owner's tokens"
        },
        "returns": {
          "_0": "the amount of owner's tokens spender is allowed to spend*"
        }
      },
      "approve(address,uint256)": {
        "details": "allows spender to spend the tokens owned by msg.sender",
        "params": {
          "spender": "the user allowed to spend msg.sender tokens"
        },
        "returns": {
          "_0": "true*"
        }
      },
      "balanceOf(address)": {
        "returns": {
          "_0": "the balance of the token*"
        }
      },
      "claimRewards(address,uint256)": {
        "details": "Claims an `amount` of `REWARD_TOKEN` to the address `to`",
        "params": {
          "amount": "Amount to stake*",
          "to": "Address to stake for"
        }
      },
      "configureAssets((uint128,uint256,address)[])": {
        "details": "Configures the distribution of rewards for a list of assets",
        "params": {
          "assetsConfigInput": "The list of configurations to apply*"
        }
      },
      "cooldown()": {
        "details": "Activates the cooldown period to unstake - It can't be called if the user is not staking*"
      },
      "decimals()": {
        "returns": {
          "_0": "the decimals of the token*"
        }
      },
      "decreaseAllowance(address,uint256)": {
        "details": "decreases the allowance of spender to spend msg.sender tokens",
        "params": {
          "spender": "the user allowed to spend on behalf of msg.sender",
          "subtractedValue": "the amount being subtracted to the allowance"
        },
        "returns": {
          "_0": "true*"
        }
      },
      "getNextCooldownTimestamp(uint256,uint256,address,uint256)": {
        "details": "Calculates the how is gonna be a new cooldown timestamp depending on the sender/receiver situation  - If the timestamp of the sender is \"better\" or the timestamp of the recipient is 0, we take the one of the recipient  - Weighted average of from/to cooldown timestamps if:    # The sender doesn't have the cooldown activated (timestamp 0).    # The sender timestamp is expired    # The sender has a \"worse\" timestamp  - If the receiver's cooldown timestamp expired (too old), the next is 0",
        "params": {
          "amountToReceive": "Amount",
          "fromCooldownTimestamp": "Cooldown timestamp of the sender",
          "toAddress": "Address of the recipient",
          "toBalance": "Current balance of the receiver"
        },
        "returns": {
          "_0": "The new cooldown timestamp*"
        }
      },
      "getTotalRewardsBalance(address)": {
        "details": "Return the total rewards pending to claim by an staker",
        "params": {
          "staker": "The staker address"
        },
        "returns": {
          "_0": "The rewards"
        }
      },
      "getUserAssetData(address,address)": {
        "details": "Returns the data of an user on a distribution",
        "params": {
          "asset": "The address of the reference asset of the distribution",
          "user": "Address of the user"
        },
        "returns": {
          "_0": "The new index*"
        }
      },
      "increaseAllowance(address,uint256)": {
        "details": "increases the allowance of spender to spend msg.sender tokens",
        "params": {
          "addedValue": "the amount being added to the allowance",
          "spender": "the user allowed to spend on behalf of msg.sender"
        },
        "returns": {
          "_0": "true*"
        }
      },
      "initialize(address,string,string,uint8)": {
        "details": "Called by the proxy contract*"
      },
      "name()": {
        "returns": {
          "_0": "the name of the token*"
        }
      },
      "redeem(address,uint256)": {
        "details": "Redeems staked tokens, and stop earning rewards",
        "params": {
          "amount": "Amount to redeem*",
          "to": "Address to redeem to"
        }
      },
      "symbol()": {
        "returns": {
          "_0": "the symbol of the token*"
        }
      },
      "totalSupply()": {
        "returns": {
          "_0": "the total supply of the token*"
        }
      },
      "transfer(address,uint256)": {
        "details": "executes a transfer of tokens from msg.sender to recipient",
        "params": {
          "amount": "the amount of tokens being transferred",
          "recipient": "the recipient of the tokens"
        },
        "returns": {
          "_0": "true if the transfer succeeds, false otherwise*"
        }
      },
      "transferFrom(address,address,uint256)": {
        "details": "executes a transfer of token from sender to recipient, if msg.sender is allowed to do so",
        "params": {
          "amount": "the amount of tokens being transferred",
          "recipient": "the recipient of the tokens",
          "sender": "the owner of the tokens"
        },
        "returns": {
          "_0": "true if the transfer succeeds, false otherwise*"
        }
      }
    },
    "title": "StakedToken",
    "version": 1
  },
  "userdoc": {
    "kind": "user",
    "methods": {
      "REWARDS_VAULT()": {
        "notice": "Address to pull from the rewards, needs to have approved this contract"
      },
      "UNSTAKE_WINDOW()": {
        "notice": "Seconds available to redeem once the cooldown period is fullfilled"
      }
    },
    "notice": "Contract to stake Roya token, tokenize the position and get rewards, inheriting from a distribution manager contract",
    "version": 1
  }
}