{
  "contractName": "StakingRewards",
  "abi": [
    {
      "inputs": [
        {
          "internalType": "address",
          "name": "_owner",
          "type": "address"
        },
        {
          "internalType": "address",
          "name": "_rewardsDistribution",
          "type": "address"
        },
        {
          "internalType": "address",
          "name": "_rewardsToken",
          "type": "address"
        },
        {
          "internalType": "address",
          "name": "_stakingToken",
          "type": "address"
        }
      ],
      "stateMutability": "nonpayable",
      "type": "constructor"
    },
    {
      "anonymous": false,
      "inputs": [
        {
          "indexed": false,
          "internalType": "address",
          "name": "oldOwner",
          "type": "address"
        },
        {
          "indexed": false,
          "internalType": "address",
          "name": "newOwner",
          "type": "address"
        }
      ],
      "name": "OwnerChanged",
      "type": "event"
    },
    {
      "anonymous": false,
      "inputs": [
        {
          "indexed": false,
          "internalType": "address",
          "name": "newOwner",
          "type": "address"
        }
      ],
      "name": "OwnerNominated",
      "type": "event"
    },
    {
      "anonymous": false,
      "inputs": [
        {
          "indexed": false,
          "internalType": "bool",
          "name": "isPaused",
          "type": "bool"
        }
      ],
      "name": "PauseChanged",
      "type": "event"
    },
    {
      "anonymous": false,
      "inputs": [
        {
          "indexed": false,
          "internalType": "address",
          "name": "token",
          "type": "address"
        },
        {
          "indexed": false,
          "internalType": "uint256",
          "name": "amount",
          "type": "uint256"
        }
      ],
      "name": "Recovered",
      "type": "event"
    },
    {
      "anonymous": false,
      "inputs": [
        {
          "indexed": false,
          "internalType": "uint256",
          "name": "reward",
          "type": "uint256"
        }
      ],
      "name": "RewardAdded",
      "type": "event"
    },
    {
      "anonymous": false,
      "inputs": [
        {
          "indexed": true,
          "internalType": "address",
          "name": "user",
          "type": "address"
        },
        {
          "indexed": false,
          "internalType": "uint256",
          "name": "reward",
          "type": "uint256"
        }
      ],
      "name": "RewardPaid",
      "type": "event"
    },
    {
      "anonymous": false,
      "inputs": [
        {
          "indexed": false,
          "internalType": "uint256",
          "name": "newDuration",
          "type": "uint256"
        }
      ],
      "name": "RewardsDurationUpdated",
      "type": "event"
    },
    {
      "anonymous": false,
      "inputs": [
        {
          "indexed": true,
          "internalType": "address",
          "name": "user",
          "type": "address"
        },
        {
          "indexed": false,
          "internalType": "uint256",
          "name": "amount",
          "type": "uint256"
        }
      ],
      "name": "Staked",
      "type": "event"
    },
    {
      "anonymous": false,
      "inputs": [
        {
          "indexed": true,
          "internalType": "address",
          "name": "user",
          "type": "address"
        },
        {
          "indexed": false,
          "internalType": "uint256",
          "name": "amount",
          "type": "uint256"
        }
      ],
      "name": "Withdrawn",
      "type": "event"
    },
    {
      "inputs": [],
      "name": "acceptOwnership",
      "outputs": [],
      "stateMutability": "nonpayable",
      "type": "function"
    },
    {
      "inputs": [],
      "name": "lastPauseTime",
      "outputs": [
        {
          "internalType": "uint256",
          "name": "",
          "type": "uint256"
        }
      ],
      "stateMutability": "view",
      "type": "function"
    },
    {
      "inputs": [],
      "name": "lastUpdateTime",
      "outputs": [
        {
          "internalType": "uint256",
          "name": "",
          "type": "uint256"
        }
      ],
      "stateMutability": "view",
      "type": "function"
    },
    {
      "inputs": [
        {
          "internalType": "address",
          "name": "_owner",
          "type": "address"
        }
      ],
      "name": "nominateNewOwner",
      "outputs": [],
      "stateMutability": "nonpayable",
      "type": "function"
    },
    {
      "inputs": [],
      "name": "nominatedOwner",
      "outputs": [
        {
          "internalType": "address",
          "name": "",
          "type": "address"
        }
      ],
      "stateMutability": "view",
      "type": "function"
    },
    {
      "inputs": [],
      "name": "owner",
      "outputs": [
        {
          "internalType": "address",
          "name": "",
          "type": "address"
        }
      ],
      "stateMutability": "view",
      "type": "function"
    },
    {
      "inputs": [],
      "name": "paused",
      "outputs": [
        {
          "internalType": "bool",
          "name": "",
          "type": "bool"
        }
      ],
      "stateMutability": "view",
      "type": "function"
    },
    {
      "inputs": [],
      "name": "periodFinish",
      "outputs": [
        {
          "internalType": "uint256",
          "name": "",
          "type": "uint256"
        }
      ],
      "stateMutability": "view",
      "type": "function"
    },
    {
      "inputs": [],
      "name": "rewardPerTokenStored",
      "outputs": [
        {
          "internalType": "uint256",
          "name": "",
          "type": "uint256"
        }
      ],
      "stateMutability": "view",
      "type": "function"
    },
    {
      "inputs": [],
      "name": "rewardRate",
      "outputs": [
        {
          "internalType": "uint256",
          "name": "",
          "type": "uint256"
        }
      ],
      "stateMutability": "view",
      "type": "function"
    },
    {
      "inputs": [
        {
          "internalType": "address",
          "name": "",
          "type": "address"
        }
      ],
      "name": "rewards",
      "outputs": [
        {
          "internalType": "uint256",
          "name": "",
          "type": "uint256"
        }
      ],
      "stateMutability": "view",
      "type": "function"
    },
    {
      "inputs": [],
      "name": "rewardsDistribution",
      "outputs": [
        {
          "internalType": "address",
          "name": "",
          "type": "address"
        }
      ],
      "stateMutability": "view",
      "type": "function"
    },
    {
      "inputs": [],
      "name": "rewardsDuration",
      "outputs": [
        {
          "internalType": "uint256",
          "name": "",
          "type": "uint256"
        }
      ],
      "stateMutability": "view",
      "type": "function"
    },
    {
      "inputs": [],
      "name": "rewardsToken",
      "outputs": [
        {
          "internalType": "contract IERC20",
          "name": "",
          "type": "address"
        }
      ],
      "stateMutability": "view",
      "type": "function"
    },
    {
      "inputs": [
        {
          "internalType": "bool",
          "name": "_paused",
          "type": "bool"
        }
      ],
      "name": "setPaused",
      "outputs": [],
      "stateMutability": "nonpayable",
      "type": "function"
    },
    {
      "inputs": [
        {
          "internalType": "address",
          "name": "_rewardsDistribution",
          "type": "address"
        }
      ],
      "name": "setRewardsDistribution",
      "outputs": [],
      "stateMutability": "nonpayable",
      "type": "function"
    },
    {
      "inputs": [],
      "name": "stakingToken",
      "outputs": [
        {
          "internalType": "contract IERC20",
          "name": "",
          "type": "address"
        }
      ],
      "stateMutability": "view",
      "type": "function"
    },
    {
      "inputs": [
        {
          "internalType": "address",
          "name": "",
          "type": "address"
        }
      ],
      "name": "userRewardPerTokenPaid",
      "outputs": [
        {
          "internalType": "uint256",
          "name": "",
          "type": "uint256"
        }
      ],
      "stateMutability": "view",
      "type": "function"
    },
    {
      "inputs": [],
      "name": "totalSupply",
      "outputs": [
        {
          "internalType": "uint256",
          "name": "",
          "type": "uint256"
        }
      ],
      "stateMutability": "view",
      "type": "function"
    },
    {
      "inputs": [
        {
          "internalType": "address",
          "name": "account",
          "type": "address"
        }
      ],
      "name": "balanceOf",
      "outputs": [
        {
          "internalType": "uint256",
          "name": "",
          "type": "uint256"
        }
      ],
      "stateMutability": "view",
      "type": "function"
    },
    {
      "inputs": [],
      "name": "lastTimeRewardApplicable",
      "outputs": [
        {
          "internalType": "uint256",
          "name": "",
          "type": "uint256"
        }
      ],
      "stateMutability": "view",
      "type": "function"
    },
    {
      "inputs": [],
      "name": "rewardPerToken",
      "outputs": [
        {
          "internalType": "uint256",
          "name": "",
          "type": "uint256"
        }
      ],
      "stateMutability": "view",
      "type": "function"
    },
    {
      "inputs": [
        {
          "internalType": "address",
          "name": "account",
          "type": "address"
        }
      ],
      "name": "earned",
      "outputs": [
        {
          "internalType": "uint256",
          "name": "",
          "type": "uint256"
        }
      ],
      "stateMutability": "view",
      "type": "function"
    },
    {
      "inputs": [],
      "name": "getRewardForDuration",
      "outputs": [
        {
          "internalType": "uint256",
          "name": "",
          "type": "uint256"
        }
      ],
      "stateMutability": "view",
      "type": "function"
    },
    {
      "inputs": [
        {
          "internalType": "uint256",
          "name": "amount",
          "type": "uint256"
        }
      ],
      "name": "stake",
      "outputs": [],
      "stateMutability": "nonpayable",
      "type": "function"
    },
    {
      "inputs": [
        {
          "internalType": "uint256",
          "name": "amount",
          "type": "uint256"
        }
      ],
      "name": "withdraw",
      "outputs": [],
      "stateMutability": "nonpayable",
      "type": "function"
    },
    {
      "inputs": [],
      "name": "getReward",
      "outputs": [],
      "stateMutability": "nonpayable",
      "type": "function"
    },
    {
      "inputs": [],
      "name": "exit",
      "outputs": [],
      "stateMutability": "nonpayable",
      "type": "function"
    },
    {
      "inputs": [
        {
          "internalType": "uint256",
          "name": "reward",
          "type": "uint256"
        }
      ],
      "name": "notifyRewardAmount",
      "outputs": [],
      "stateMutability": "nonpayable",
      "type": "function"
    },
    {
      "inputs": [
        {
          "internalType": "address",
          "name": "tokenAddress",
          "type": "address"
        },
        {
          "internalType": "uint256",
          "name": "tokenAmount",
          "type": "uint256"
        }
      ],
      "name": "recoverERC20",
      "outputs": [],
      "stateMutability": "nonpayable",
      "type": "function"
    },
    {
      "inputs": [
        {
          "internalType": "uint256",
          "name": "_rewardsDuration",
          "type": "uint256"
        }
      ],
      "name": "setRewardsDuration",
      "outputs": [],
      "stateMutability": "nonpayable",
      "type": "function"
    }
  ],
  "bytecode": "0x60806040526000600755600060085562093a8060095534801561002157600080fd5b50604051612e13380380612e138339818101604052608081101561004457600080fd5b810190808051906020019092919080519060200190929190805190602001909291908051906020019092919050505083600073ffffffffffffffffffffffffffffffffffffffff168173ffffffffffffffffffffffffffffffffffffffff161415610117576040517f08c379a00000000000000000000000000000000000000000000000000000000081526004018080602001828103825260198152602001807f4f776e657220616464726573732063616e6e6f7420626520300000000000000081525060200191505060405180910390fd5b806000806101000a81548173ffffffffffffffffffffffffffffffffffffffff021916908373ffffffffffffffffffffffffffffffffffffffff1602179055507fb532073b38c83145e3e5135377a08bf9aab55bc0fd7c1179cd4fb995d2a5159c600082604051808373ffffffffffffffffffffffffffffffffffffffff1681526020018273ffffffffffffffffffffffffffffffffffffffff1681526020019250505060405180910390a1506001600381905550600073ffffffffffffffffffffffffffffffffffffffff1660008054906101000a900473ffffffffffffffffffffffffffffffffffffffff1673ffffffffffffffffffffffffffffffffffffffff16141561028f576040517f08c379a00000000000000000000000000000000000000000000000000000000081526004018080602001828103825260118152602001807f4f776e6572206d7573742062652073657400000000000000000000000000000081525060200191505060405180910390fd5b81600560016101000a81548173ffffffffffffffffffffffffffffffffffffffff021916908373ffffffffffffffffffffffffffffffffffffffff16021790555080600660006101000a81548173ffffffffffffffffffffffffffffffffffffffff021916908373ffffffffffffffffffffffffffffffffffffffff16021790555082600260006101000a81548173ffffffffffffffffffffffffffffffffffffffff021916908373ffffffffffffffffffffffffffffffffffffffff16021790555050505050612aae806103656000396000f3fe608060405234801561001057600080fd5b50600436106101e45760003560e01c806372f702f31161010f578063a694fc3a116100a2578063d1af0c7d11610071578063d1af0c7d146106fb578063df136d651461072f578063e9fad8ee1461074d578063ebe2b12b14610757576101e4565b8063a694fc3a14610663578063c8f33c9114610691578063cc1a378f146106af578063cd3daf9d146106dd576101e4565b80638980f11f116100de5780638980f11f1461056b5780638b876347146105b95780638da5cb5b1461061157806391b4ded914610645576101e4565b806372f702f3146104f157806379ba5097146105255780637b0a47ee1461052f57806380faa57d1461054d576101e4565b80632e1a7d4d116101875780633fc6df6e116101565780633fc6df6e1461041157806353a47bb7146104455780635c975abb1461047957806370a0823114610499576101e4565b80632e1a7d4d1461038d578063386a9525146103bb5780633c6b16ab146103d95780633d18b91214610407576101e4565b806316c38b3c116101c357806316c38b3c146102dd57806318160ddd1461030d578063197621431461032b5780631c1f78eb1461036f576101e4565b80628cc262146101e95780630700037d146102415780631627540c14610299575b600080fd5b61022b600480360360208110156101ff57600080fd5b81019080803573ffffffffffffffffffffffffffffffffffffffff169060200190929190505050610775565b6040518082815260200191505060405180910390f35b6102836004803603602081101561025757600080fd5b81019080803573ffffffffffffffffffffffffffffffffffffffff169060200190929190505050610893565b6040518082815260200191505060405180910390f35b6102db600480360360208110156102af57600080fd5b81019080803573ffffffffffffffffffffffffffffffffffffffff1690602001909291905050506108ab565b005b61030b600480360360208110156102f357600080fd5b81019080803515159060200190929190505050610944565b005b6103156109ef565b6040518082815260200191505060405180910390f35b61036d6004803603602081101561034157600080fd5b81019080803573ffffffffffffffffffffffffffffffffffffffff1690602001909291905050506109f9565b005b610377610a45565b6040518082815260200191505060405180910390f35b6103b9600480360360208110156103a357600080fd5b8101908080359060200190929190505050610a63565b005b6103c3610d95565b6040518082815260200191505060405180910390f35b610405600480360360208110156103ef57600080fd5b8101908080359060200190929190505050610d9b565b005b61040f611163565b005b610419611402565b604051808273ffffffffffffffffffffffffffffffffffffffff16815260200191505060405180910390f35b61044d611428565b604051808273ffffffffffffffffffffffffffffffffffffffff16815260200191505060405180910390f35b61048161144e565b60405180821515815260200191505060405180910390f35b6104db600480360360208110156104af57600080fd5b81019080803573ffffffffffffffffffffffffffffffffffffffff169060200190929190505050611461565b6040518082815260200191505060405180910390f35b6104f96114aa565b604051808273ffffffffffffffffffffffffffffffffffffffff16815260200191505060405180910390f35b61052d6114d0565b005b6105376116c9565b6040518082815260200191505060405180910390f35b6105556116cf565b6040518082815260200191505060405180910390f35b6105b76004803603604081101561058157600080fd5b81019080803573ffffffffffffffffffffffffffffffffffffffff169060200190929190803590602001909291905050506116e2565b005b6105fb600480360360208110156105cf57600080fd5b81019080803573ffffffffffffffffffffffffffffffffffffffff169060200190929190505050611a22565b6040518082815260200191505060405180910390f35b610619611a3a565b604051808273ffffffffffffffffffffffffffffffffffffffff16815260200191505060405180910390f35b61064d611a5e565b6040518082815260200191505060405180910390f35b61068f6004803603602081101561067957600080fd5b8101908080359060200190929190505050611a64565b005b610699611dfe565b6040518082815260200191505060405180910390f35b6106db600480360360208110156106c557600080fd5b8101908080359060200190929190505050611e04565b005b6106e5611eb6565b6040518082815260200191505060405180910390f35b610703611f44565b604051808273ffffffffffffffffffffffffffffffffffffffff16815260200191505060405180910390f35b610737611f6a565b6040518082815260200191505060405180910390f35b610755611f70565b005b61075f611fc2565b6040518082815260200191505060405180910390f35b600061088c600d60008473ffffffffffffffffffffffffffffffffffffffff1673ffffffffffffffffffffffffffffffffffffffff1681526020019081526020016000205461087e670de0b6b3a7640000610870610822600c60008973ffffffffffffffffffffffffffffffffffffffff1673ffffffffffffffffffffffffffffffffffffffff16815260200190815260200160002054610814611eb6565b611fc890919063ffffffff16565b600f60008973ffffffffffffffffffffffffffffffffffffffff1673ffffffffffffffffffffffffffffffffffffffff1681526020019081526020016000205461201290919063ffffffff16565b61209890919063ffffffff16565b6120e290919063ffffffff16565b9050919050565b600d6020528060005260406000206000915090505481565b6108b361216a565b80600160006101000a81548173ffffffffffffffffffffffffffffffffffffffff021916908373ffffffffffffffffffffffffffffffffffffffff1602179055507f906a1c6bd7e3091ea86693dd029a831c19049ce77f1dce2ce0bab1cacbabce2281604051808273ffffffffffffffffffffffffffffffffffffffff16815260200191505060405180910390a150565b61094c61216a565b600560009054906101000a900460ff161515811515141561096c576109ec565b80600560006101000a81548160ff021916908315150217905550600560009054906101000a900460ff16156109a357426004819055505b7f8fb6c181ee25a520cf3dd6565006ef91229fcfe5a989566c2a3b8c115570cec5600560009054906101000a900460ff1660405180821515815260200191505060405180910390a15b50565b6000600e54905090565b610a0161216a565b80600260006101000a81548173ffffffffffffffffffffffffffffffffffffffff021916908373ffffffffffffffffffffffffffffffffffffffff16021790555050565b6000610a5e60095460085461201290919063ffffffff16565b905090565b60026003541415610adc576040517f08c379a000000000000000000000000000000000000000000000000000000000815260040180806020018281038252601f8152602001807f5265656e7472616e637947756172643a207265656e7472616e742063616c6c0081525060200191505060405180910390fd5b600260038190555033610aed611eb6565b600b81905550610afb6116cf565b600a81905550600073ffffffffffffffffffffffffffffffffffffffff168173ffffffffffffffffffffffffffffffffffffffff1614610bc857610b3e81610775565b600d60008373ffffffffffffffffffffffffffffffffffffffff1673ffffffffffffffffffffffffffffffffffffffff16815260200190815260200160002081905550600b54600c60008373ffffffffffffffffffffffffffffffffffffffff1673ffffffffffffffffffffffffffffffffffffffff168152602001908152602001600020819055505b60008211610c3e576040517f08c379a00000000000000000000000000000000000000000000000000000000081526004018080602001828103825260118152602001807f43616e6e6f74207769746864726177203000000000000000000000000000000081525060200191505060405180910390fd5b610c5382600e54611fc890919063ffffffff16565b600e81905550610cab82600f60003373ffffffffffffffffffffffffffffffffffffffff1673ffffffffffffffffffffffffffffffffffffffff16815260200190815260200160002054611fc890919063ffffffff16565b600f60003373ffffffffffffffffffffffffffffffffffffffff1673ffffffffffffffffffffffffffffffffffffffff16815260200190815260200160002081905550610d3b3383600660009054906101000a900473ffffffffffffffffffffffffffffffffffffffff1673ffffffffffffffffffffffffffffffffffffffff166122109092919063ffffffff16565b3373ffffffffffffffffffffffffffffffffffffffff167f7084f5476618d8e60b11ef0d7d3f06914655adb8793e28ff7f018d4c76d505d5836040518082815260200191505060405180910390a250600160038190555050565b60095481565b600260009054906101000a900473ffffffffffffffffffffffffffffffffffffffff1673ffffffffffffffffffffffffffffffffffffffff163373ffffffffffffffffffffffffffffffffffffffff1614610e41576040517f08c379a000000000000000000000000000000000000000000000000000000000815260040180806020018281038252602a815260200180612a25602a913960400191505060405180910390fd5b6000610e4b611eb6565b600b81905550610e596116cf565b600a81905550600073ffffffffffffffffffffffffffffffffffffffff168173ffffffffffffffffffffffffffffffffffffffff1614610f2657610e9c81610775565b600d60008373ffffffffffffffffffffffffffffffffffffffff1673ffffffffffffffffffffffffffffffffffffffff16815260200190815260200160002081905550600b54600c60008373ffffffffffffffffffffffffffffffffffffffff1673ffffffffffffffffffffffffffffffffffffffff168152602001908152602001600020819055505b6007544210610f4f57610f446009548361209890919063ffffffff16565b600881905550610fb1565b6000610f6642600754611fc890919063ffffffff16565b90506000610f7f6008548361201290919063ffffffff16565b9050610fa8600954610f9a83876120e290919063ffffffff16565b61209890919063ffffffff16565b60088190555050505b6000600560019054906101000a900473ffffffffffffffffffffffffffffffffffffffff1673ffffffffffffffffffffffffffffffffffffffff166370a08231306040518263ffffffff1660e01b8152600401808273ffffffffffffffffffffffffffffffffffffffff16815260200191505060206040518083038186803b15801561103c57600080fd5b505afa158015611050573d6000803e3d6000fd5b505050506040513d602081101561106657600080fd5b8101908080519060200190929190505050905061108e6009548261209890919063ffffffff16565b6008541115611105576040517f08c379a00000000000000000000000000000000000000000000000000000000081526004018080602001828103825260188152602001807f50726f76696465642072657761726420746f6f2068696768000000000000000081525060200191505060405180910390fd5b42600a81905550611121600954426120e290919063ffffffff16565b6007819055507fde88a922e0d3b88b24e9623efeb464919c6bf9f66857a65e2bfcf2ce87a9433d836040518082815260200191505060405180910390a1505050565b600260035414156111dc576040517f08c379a000000000000000000000000000000000000000000000000000000000815260040180806020018281038252601f8152602001807f5265656e7472616e637947756172643a207265656e7472616e742063616c6c0081525060200191505060405180910390fd5b6002600381905550336111ed611eb6565b600b819055506111fb6116cf565b600a81905550600073ffffffffffffffffffffffffffffffffffffffff168173ffffffffffffffffffffffffffffffffffffffff16146112c85761123e81610775565b600d60008373ffffffffffffffffffffffffffffffffffffffff1673ffffffffffffffffffffffffffffffffffffffff16815260200190815260200160002081905550600b54600c60008373ffffffffffffffffffffffffffffffffffffffff1673ffffffffffffffffffffffffffffffffffffffff168152602001908152602001600020819055505b6000600d60003373ffffffffffffffffffffffffffffffffffffffff1673ffffffffffffffffffffffffffffffffffffffff16815260200190815260200160002054905060008111156113f6576000600d60003373ffffffffffffffffffffffffffffffffffffffff1673ffffffffffffffffffffffffffffffffffffffff168152602001908152602001600020819055506113a73382600560019054906101000a900473ffffffffffffffffffffffffffffffffffffffff1673ffffffffffffffffffffffffffffffffffffffff166122109092919063ffffffff16565b3373ffffffffffffffffffffffffffffffffffffffff167fe2403640ba68fed3a2f88b7557551d1993f84b99bb10ff833f0cf8db0c5e0486826040518082815260200191505060405180910390a25b50506001600381905550565b600260009054906101000a900473ffffffffffffffffffffffffffffffffffffffff1681565b600160009054906101000a900473ffffffffffffffffffffffffffffffffffffffff1681565b600560009054906101000a900460ff1681565b6000600f60008373ffffffffffffffffffffffffffffffffffffffff1673ffffffffffffffffffffffffffffffffffffffff168152602001908152602001600020549050919050565b600660009054906101000a900473ffffffffffffffffffffffffffffffffffffffff1681565b600160009054906101000a900473ffffffffffffffffffffffffffffffffffffffff1673ffffffffffffffffffffffffffffffffffffffff163373ffffffffffffffffffffffffffffffffffffffff1614611576576040517f08c379a00000000000000000000000000000000000000000000000000000000081526004018080602001828103825260358152602001806129116035913960400191505060405180910390fd5b7fb532073b38c83145e3e5135377a08bf9aab55bc0fd7c1179cd4fb995d2a5159c60008054906101000a900473ffffffffffffffffffffffffffffffffffffffff16600160009054906101000a900473ffffffffffffffffffffffffffffffffffffffff16604051808373ffffffffffffffffffffffffffffffffffffffff1681526020018273ffffffffffffffffffffffffffffffffffffffff1681526020019250505060405180910390a1600160009054906101000a900473ffffffffffffffffffffffffffffffffffffffff166000806101000a81548173ffffffffffffffffffffffffffffffffffffffff021916908373ffffffffffffffffffffffffffffffffffffffff1602179055506000600160006101000a81548173ffffffffffffffffffffffffffffffffffffffff021916908373ffffffffffffffffffffffffffffffffffffffff160217905550565b60085481565b60006116dd426007546122b2565b905090565b6116ea61216a565b60008273ffffffffffffffffffffffffffffffffffffffff166395d89b416040518163ffffffff1660e01b815260040160006040518083038186803b15801561173257600080fd5b505afa158015611746573d6000803e3d6000fd5b505050506040513d6000823e3d601f19601f82011682018060405250602081101561177057600080fd5b810190808051604051939291908464010000000082111561179057600080fd5b838201915060208201858111156117a657600080fd5b82518660018202830111640100000000821117156117c357600080fd5b8083526020830192505050908051906020019080838360005b838110156117f75780820151818401526020810190506117dc565b50505050905090810190601f1680156118245780820380516001836020036101000a031916815260200191505b50604052505050805190602001206040518060400160405280600381526020017f534e58000000000000000000000000000000000000000000000000000000000081525080519060200120149050600660009054906101000a900473ffffffffffffffffffffffffffffffffffffffff1673ffffffffffffffffffffffffffffffffffffffff168373ffffffffffffffffffffffffffffffffffffffff161415801561191e5750600560019054906101000a900473ffffffffffffffffffffffffffffffffffffffff1673ffffffffffffffffffffffffffffffffffffffff168373ffffffffffffffffffffffffffffffffffffffff1614155b8015611928575080155b61197d576040517f08c379a000000000000000000000000000000000000000000000000000000000815260040180806020018281038252602d8152602001806129f8602d913960400191505060405180910390fd5b6119c860008054906101000a900473ffffffffffffffffffffffffffffffffffffffff16838573ffffffffffffffffffffffffffffffffffffffff166122109092919063ffffffff16565b7f8c1256b8896378cd5044f80c202f9772b9d77dc85c8a6eb51967210b09bfaa288383604051808373ffffffffffffffffffffffffffffffffffffffff1681526020018281526020019250505060405180910390a1505050565b600c6020528060005260406000206000915090505481565b60008054906101000a900473ffffffffffffffffffffffffffffffffffffffff1681565b60045481565b60026003541415611add576040517f08c379a000000000000000000000000000000000000000000000000000000000815260040180806020018281038252601f8152602001807f5265656e7472616e637947756172643a207265656e7472616e742063616c6c0081525060200191505060405180910390fd5b6002600381905550600560009054906101000a900460ff1615611b4b576040517f08c379a000000000000000000000000000000000000000000000000000000000815260040180806020018281038252603c8152602001806129bc603c913960400191505060405180910390fd5b33611b54611eb6565b600b81905550611b626116cf565b600a81905550600073ffffffffffffffffffffffffffffffffffffffff168173ffffffffffffffffffffffffffffffffffffffff1614611c2f57611ba581610775565b600d60008373ffffffffffffffffffffffffffffffffffffffff1673ffffffffffffffffffffffffffffffffffffffff16815260200190815260200160002081905550600b54600c60008373ffffffffffffffffffffffffffffffffffffffff1673ffffffffffffffffffffffffffffffffffffffff168152602001908152602001600020819055505b60008211611ca5576040517f08c379a000000000000000000000000000000000000000000000000000000000815260040180806020018281038252600e8152602001807f43616e6e6f74207374616b65203000000000000000000000000000000000000081525060200191505060405180910390fd5b611cba82600e546120e290919063ffffffff16565b600e81905550611d1282600f60003373ffffffffffffffffffffffffffffffffffffffff1673ffffffffffffffffffffffffffffffffffffffff168152602001908152602001600020546120e290919063ffffffff16565b600f60003373ffffffffffffffffffffffffffffffffffffffff1673ffffffffffffffffffffffffffffffffffffffff16815260200190815260200160002081905550611da4333084600660009054906101000a900473ffffffffffffffffffffffffffffffffffffffff1673ffffffffffffffffffffffffffffffffffffffff166122cb909392919063ffffffff16565b3373ffffffffffffffffffffffffffffffffffffffff167f9e71bc8eea02a63969f509818f2dafb9254532904319f9dbda79b67bd34a5f3d836040518082815260200191505060405180910390a250600160038190555050565b600a5481565b611e0c61216a565b60006007541480611e1e575060075442115b611e73576040517f08c379a00000000000000000000000000000000000000000000000000000000081526004018080602001828103825260588152602001806128b96058913960600191505060405180910390fd5b806009819055507ffb46ca5a5e06d4540d6387b930a7c978bce0db5f449ec6b3f5d07c6e1d44f2d36009546040518082815260200191505060405180910390a150565b600080600e541415611ecc57600b549050611f41565b611f3e611f2d600e54611f1f670de0b6b3a7640000611f11600854611f03600a54611ef56116cf565b611fc890919063ffffffff16565b61201290919063ffffffff16565b61201290919063ffffffff16565b61209890919063ffffffff16565b600b546120e290919063ffffffff16565b90505b90565b600560019054906101000a900473ffffffffffffffffffffffffffffffffffffffff1681565b600b5481565b611fb8600f60003373ffffffffffffffffffffffffffffffffffffffff1673ffffffffffffffffffffffffffffffffffffffff16815260200190815260200160002054610a63565b611fc0611163565b565b60075481565b600061200a83836040518060400160405280601e81526020017f536166654d6174683a207375627472616374696f6e206f766572666c6f77000081525061238c565b905092915050565b6000808314156120255760009050612092565b600082840290508284828161203657fe5b041461208d576040517f08c379a000000000000000000000000000000000000000000000000000000000815260040180806020018281038252602181526020018061299b6021913960400191505060405180910390fd5b809150505b92915050565b60006120da83836040518060400160405280601a81526020017f536166654d6174683a206469766973696f6e206279207a65726f00000000000081525061244c565b905092915050565b600080828401905083811015612160576040517f08c379a000000000000000000000000000000000000000000000000000000000815260040180806020018281038252601b8152602001807f536166654d6174683a206164646974696f6e206f766572666c6f77000000000081525060200191505060405180910390fd5b8091505092915050565b60008054906101000a900473ffffffffffffffffffffffffffffffffffffffff1673ffffffffffffffffffffffffffffffffffffffff163373ffffffffffffffffffffffffffffffffffffffff161461220e576040517f08c379a000000000000000000000000000000000000000000000000000000000815260040180806020018281038252602f81526020018061296c602f913960400191505060405180910390fd5b565b6122ad8363a9059cbb60e01b8484604051602401808373ffffffffffffffffffffffffffffffffffffffff16815260200182815260200192505050604051602081830303815290604052907bffffffffffffffffffffffffffffffffffffffffffffffffffffffff19166020820180517bffffffffffffffffffffffffffffffffffffffffffffffffffffffff8381831617835250505050612512565b505050565b60008183106122c157816122c3565b825b905092915050565b612386846323b872dd60e01b858585604051602401808473ffffffffffffffffffffffffffffffffffffffff1681526020018373ffffffffffffffffffffffffffffffffffffffff1681526020018281526020019350505050604051602081830303815290604052907bffffffffffffffffffffffffffffffffffffffffffffffffffffffff19166020820180517bffffffffffffffffffffffffffffffffffffffffffffffffffffffff8381831617835250505050612512565b50505050565b6000838311158290612439576040517f08c379a00000000000000000000000000000000000000000000000000000000081526004018080602001828103825283818151815260200191508051906020019080838360005b838110156123fe5780820151818401526020810190506123e3565b50505050905090810190601f16801561242b5780820380516001836020036101000a031916815260200191505b509250505060405180910390fd5b5060008385039050809150509392505050565b600080831182906124f8576040517f08c379a00000000000000000000000000000000000000000000000000000000081526004018080602001828103825283818151815260200191508051906020019080838360005b838110156124bd5780820151818401526020810190506124a2565b50505050905090810190601f1680156124ea5780820380516001836020036101000a031916815260200191505b509250505060405180910390fd5b50600083858161250457fe5b049050809150509392505050565b6060612574826040518060400160405280602081526020017f5361666545524332303a206c6f772d6c6576656c2063616c6c206661696c65648152508573ffffffffffffffffffffffffffffffffffffffff166126019092919063ffffffff16565b90506000815111156125fc5780806020019051602081101561259557600080fd5b81019080805190602001909291905050506125fb576040517f08c379a000000000000000000000000000000000000000000000000000000000815260040180806020018281038252602a815260200180612a4f602a913960400191505060405180910390fd5b5b505050565b60606126108484600085612619565b90509392505050565b6060823073ffffffffffffffffffffffffffffffffffffffff1631101561268b576040517f08c379a00000000000000000000000000000000000000000000000000000000081526004018080602001828103825260268152602001806129466026913960400191505060405180910390fd5b612694856127d9565b612706576040517f08c379a000000000000000000000000000000000000000000000000000000000815260040180806020018281038252601d8152602001807f416464726573733a2063616c6c20746f206e6f6e2d636f6e747261637400000081525060200191505060405180910390fd5b600060608673ffffffffffffffffffffffffffffffffffffffff1685876040518082805190602001908083835b602083106127565780518252602082019150602081019050602083039250612733565b6001836020036101000a03801982511681845116808217855250505050505090500191505060006040518083038185875af1925050503d80600081146127b8576040519150601f19603f3d011682016040523d82523d6000602084013e6127bd565b606091505b50915091506127cd8282866127ec565b92505050949350505050565b600080823b905060008111915050919050565b606083156127fc578290506128b1565b60008351111561280f5782518084602001fd5b816040517f08c379a00000000000000000000000000000000000000000000000000000000081526004018080602001828103825283818151815260200191508051906020019080838360005b8381101561287657808201518184015260208101905061285b565b50505050905090810190601f1680156128a35780820380516001836020036101000a031916815260200191505b509250505060405180910390fd5b939250505056fe50726576696f7573207265776172647320706572696f64206d75737420626520636f6d706c657465206265666f7265206368616e67696e6720746865206475726174696f6e20666f7220746865206e657720706572696f64596f75206d757374206265206e6f6d696e61746564206265666f726520796f752063616e20616363657074206f776e657273686970416464726573733a20696e73756666696369656e742062616c616e636520666f722063616c6c4f6e6c792074686520636f6e7472616374206f776e6572206d617920706572666f726d207468697320616374696f6e536166654d6174683a206d756c7469706c69636174696f6e206f766572666c6f775468697320616374696f6e2063616e6e6f7420626520706572666f726d6564207768696c652074686520636f6e74726163742069732070617573656443616e6e6f7420776974686472617720746865207374616b696e67206f72207265776172647320746f6b656e7343616c6c6572206973206e6f742052657761726473446973747269627574696f6e20636f6e74726163745361666545524332303a204552433230206f7065726174696f6e20646964206e6f742073756363656564a26469706673582212200a84d2650290bef9d4c114bca5a5d1bb02aa00074882c3967e41991a49f06b7264736f6c634300060c0033",
  "immutableReferences": {},
  "source": "// SPDX-License-Identifier: UNLICENSED\r\npragma solidity ^0.6.0;\r\n\r\nimport \"@openzeppelin/contracts/math/Math.sol\";\r\nimport \"@openzeppelin/contracts/math/SafeMath.sol\";\r\nimport \"@openzeppelin/contracts/token/ERC20/ERC20.sol\";\r\nimport \"@openzeppelin/contracts/token/ERC20/SafeERC20.sol\";\r\nimport \"@openzeppelin/contracts/utils/ReentrancyGuard.sol\";\r\n// Inheritance\r\n// import \"./interfaces/IStakingRewards.sol\";\r\n// import \"./RewardsDistributionRecipient.sol\";\r\n// import \"./Pausable.sol\";\r\n// import \"./Owned.sol\";\r\n// https://docs.synthetix.io/contracts/Owned\r\ncontract Owned {\r\n    address public owner;\r\n    address public nominatedOwner;\r\n\r\n    constructor(address _owner) public {\r\n        require(_owner != address(0), \"Owner address cannot be 0\");\r\n        owner = _owner;\r\n        emit OwnerChanged(address(0), _owner);\r\n    }\r\n\r\n    function nominateNewOwner(address _owner) external onlyOwner {\r\n        nominatedOwner = _owner;\r\n        emit OwnerNominated(_owner);\r\n    }\r\n\r\n    function acceptOwnership() external {\r\n        require(msg.sender == nominatedOwner, \"You must be nominated before you can accept ownership\");\r\n        emit OwnerChanged(owner, nominatedOwner);\r\n        owner = nominatedOwner;\r\n        nominatedOwner = address(0);\r\n    }\r\n\r\n    modifier onlyOwner {\r\n        _onlyOwner();\r\n        _;\r\n    }\r\n\r\n    function _onlyOwner() private view {\r\n        require(msg.sender == owner, \"Only the contract owner may perform this action\");\r\n    }\r\n\r\n    event OwnerNominated(address newOwner);\r\n    event OwnerChanged(address oldOwner, address newOwner);\r\n}\r\n\r\n\r\n\r\n// https://docs.synthetix.io/contracts/Pausable\r\nabstract\r\ncontract Pausable is Owned {\r\n    uint public lastPauseTime;\r\n    bool public paused;\r\n\r\n    constructor() internal {\r\n        // This contract is abstract, and thus cannot be instantiated directly\r\n        require(owner != address(0), \"Owner must be set\");\r\n        // Paused will be false, and lastPauseTime will be 0 upon initialisation\r\n    }\r\n\r\n    /**\r\n     * @notice Change the paused state of the contract\r\n     * @dev Only the contract owner may call this.\r\n     */\r\n    function setPaused(bool _paused) external onlyOwner {\r\n        // Ensure we're actually changing the state before we do anything\r\n        if (_paused == paused) {\r\n            return;\r\n        }\r\n\r\n        // Set our paused state.\r\n        paused = _paused;\r\n\r\n        // If applicable, set the last pause time.\r\n        if (paused) {\r\n            lastPauseTime = now;\r\n        }\r\n\r\n        // Let everyone know that our pause state has changed.\r\n        emit PauseChanged(paused);\r\n    }\r\n\r\n    event PauseChanged(bool isPaused);\r\n\r\n    modifier notPaused {\r\n        require(!paused, \"This action cannot be performed while the contract is paused\");\r\n        _;\r\n    }\r\n}\r\n\r\n\r\n// https://docs.synthetix.io/contracts/RewardsDistributionRecipient\r\nabstract\r\ncontract RewardsDistributionRecipient is Owned {\r\n    address public rewardsDistribution;\r\n\r\n    function notifyRewardAmount(uint256 reward) external virtual;\r\n\r\n    modifier onlyRewardsDistribution() {\r\n        require(msg.sender == rewardsDistribution, \"Caller is not RewardsDistribution contract\");\r\n        _;\r\n    }\r\n\r\n    function setRewardsDistribution(address _rewardsDistribution) external onlyOwner {\r\n        rewardsDistribution = _rewardsDistribution;\r\n    }\r\n}\r\n\r\n\r\ninterface IStakingRewards {\r\n    // Views\r\n    function lastTimeRewardApplicable() external view returns (uint256);\r\n\r\n    function rewardPerToken() external view returns (uint256);\r\n\r\n    function earned(address account) external view returns (uint256);\r\n\r\n    function getRewardForDuration() external view returns (uint256);\r\n\r\n    function totalSupply() external view returns (uint256);\r\n\r\n    function balanceOf(address account) external view returns (uint256);\r\n\r\n    // Mutative\r\n\r\n    function stake(uint256 amount) external;\r\n\r\n    function withdraw(uint256 amount) external;\r\n\r\n    function getReward() external;\r\n\r\n    function exit() external;\r\n}\r\n\r\n\r\ncontract StakingRewards is IStakingRewards, RewardsDistributionRecipient, ReentrancyGuard, Pausable {\r\n    using SafeMath for uint256;\r\n    using SafeERC20 for IERC20;\r\n\r\n    /* ========== STATE VARIABLES ========== */\r\n\r\n    IERC20 public rewardsToken;\r\n    IERC20 public stakingToken;\r\n    uint256 public periodFinish = 0;\r\n    uint256 public rewardRate = 0;\r\n    uint256 public rewardsDuration = 7 days;\r\n    uint256 public lastUpdateTime;\r\n    uint256 public rewardPerTokenStored;\r\n\r\n    mapping(address => uint256) public userRewardPerTokenPaid;\r\n    mapping(address => uint256) public rewards;\r\n\r\n    uint256 private _totalSupply;\r\n    mapping(address => uint256) private _balances;\r\n\r\n    /* ========== CONSTRUCTOR ========== */\r\n\r\n    constructor(\r\n        address _owner,\r\n        address _rewardsDistribution,\r\n        address _rewardsToken,\r\n        address _stakingToken\r\n    ) public Owned(_owner) {\r\n        rewardsToken = IERC20(_rewardsToken);\r\n        stakingToken = IERC20(_stakingToken);\r\n        rewardsDistribution = _rewardsDistribution;\r\n    }\r\n\r\n    /* ========== VIEWS ========== */\r\n\r\n    function totalSupply() external view override returns (uint256) {\r\n        return _totalSupply;\r\n    }\r\n\r\n    function balanceOf(address account) external view override returns (uint256) {\r\n        return _balances[account];\r\n    }\r\n\r\n    function lastTimeRewardApplicable() public view override returns (uint256) {\r\n        return Math.min(block.timestamp, periodFinish);\r\n    }\r\n\r\n    function rewardPerToken() public view override returns (uint256) {\r\n        if (_totalSupply == 0) {\r\n            return rewardPerTokenStored;\r\n        }\r\n        return\r\n            rewardPerTokenStored.add(\r\n                lastTimeRewardApplicable().sub(lastUpdateTime).mul(rewardRate).mul(1e18).div(_totalSupply)\r\n            );\r\n    }\r\n\r\n    function earned(address account) public view override returns (uint256) {\r\n        return _balances[account].mul(rewardPerToken().sub(userRewardPerTokenPaid[account])).div(1e18).add(rewards[account]);\r\n    }\r\n\r\n    function getRewardForDuration() external view override returns (uint256) {\r\n        return rewardRate.mul(rewardsDuration);\r\n    }\r\n\r\n    /* ========== MUTATIVE FUNCTIONS ========== */\r\n\r\n    function stake(uint256 amount) external override nonReentrant notPaused updateReward(msg.sender) {\r\n        require(amount > 0, \"Cannot stake 0\");\r\n        _totalSupply = _totalSupply.add(amount);\r\n        _balances[msg.sender] = _balances[msg.sender].add(amount);\r\n        stakingToken.safeTransferFrom(msg.sender, address(this), amount);\r\n        emit Staked(msg.sender, amount);\r\n    }\r\n\r\n    function withdraw(uint256 amount) public override nonReentrant updateReward(msg.sender) {\r\n        require(amount > 0, \"Cannot withdraw 0\");\r\n        _totalSupply = _totalSupply.sub(amount);\r\n        _balances[msg.sender] = _balances[msg.sender].sub(amount);\r\n        stakingToken.safeTransfer(msg.sender, amount);\r\n        emit Withdrawn(msg.sender, amount);\r\n    }\r\n\r\n    function getReward() public override nonReentrant updateReward(msg.sender) {\r\n        uint256 reward = rewards[msg.sender];\r\n        if (reward > 0) {\r\n            rewards[msg.sender] = 0;\r\n            rewardsToken.safeTransfer(msg.sender, reward);\r\n            emit RewardPaid(msg.sender, reward);\r\n        }\r\n    }\r\n\r\n    function exit() external override {\r\n        withdraw(_balances[msg.sender]);\r\n        getReward();\r\n    }\r\n\r\n    /* ========== RESTRICTED FUNCTIONS ========== */\r\n\r\n    function notifyRewardAmount(uint256 reward) external override onlyRewardsDistribution updateReward(address(0)) {\r\n        if (block.timestamp >= periodFinish) {\r\n            rewardRate = reward.div(rewardsDuration);\r\n        } else {\r\n            uint256 remaining = periodFinish.sub(block.timestamp);\r\n            uint256 leftover = remaining.mul(rewardRate);\r\n            rewardRate = reward.add(leftover).div(rewardsDuration);\r\n        }\r\n\r\n        // Ensure the provided reward amount is not more than the balance in the contract.\r\n        // This keeps the reward rate in the right range, preventing overflows due to\r\n        // very high values of rewardRate in the earned and rewardsPerToken functions;\r\n        // Reward + leftover must be less than 2^256 / 10^18 to avoid overflow.\r\n        uint balance = rewardsToken.balanceOf(address(this));\r\n        require(rewardRate <= balance.div(rewardsDuration), \"Provided reward too high\");\r\n\r\n        lastUpdateTime = block.timestamp;\r\n        periodFinish = block.timestamp.add(rewardsDuration);\r\n        emit RewardAdded(reward);\r\n    }\r\n\r\n    // Added to support recovering LP Rewards from other systems to be distributed to holders\r\n    function recoverERC20(address tokenAddress, uint256 tokenAmount) external onlyOwner {\r\n        // If it's SNX we have to query the token symbol to ensure its not a proxy or underlying\r\n        bool isSNX = (keccak256(bytes(\"SNX\")) == keccak256(bytes(ERC20(tokenAddress).symbol())));\r\n        // Cannot recover the staking token or the rewards token\r\n        require(\r\n            tokenAddress != address(stakingToken) && tokenAddress != address(rewardsToken) && !isSNX,\r\n            \"Cannot withdraw the staking or rewards tokens\"\r\n        );\r\n        IERC20(tokenAddress).safeTransfer(owner, tokenAmount);\r\n        emit Recovered(tokenAddress, tokenAmount);\r\n    }\r\n\r\n    function setRewardsDuration(uint256 _rewardsDuration) external onlyOwner {\r\n        require(\r\n            periodFinish == 0 || block.timestamp > periodFinish,\r\n            \"Previous rewards period must be complete before changing the duration for the new period\"\r\n        );\r\n        rewardsDuration = _rewardsDuration;\r\n        emit RewardsDurationUpdated(rewardsDuration);\r\n    }\r\n\r\n    /* ========== MODIFIERS ========== */\r\n\r\n    modifier updateReward(address account) {\r\n        rewardPerTokenStored = rewardPerToken();\r\n        lastUpdateTime = lastTimeRewardApplicable();\r\n        if (account != address(0)) {\r\n            rewards[account] = earned(account);\r\n            userRewardPerTokenPaid[account] = rewardPerTokenStored;\r\n        }\r\n        _;\r\n    }\r\n\r\n    /* ========== EVENTS ========== */\r\n\r\n    event RewardAdded(uint256 reward);\r\n    event Staked(address indexed user, uint256 amount);\r\n    event Withdrawn(address indexed user, uint256 amount);\r\n    event RewardPaid(address indexed user, uint256 reward);\r\n    event RewardsDurationUpdated(uint256 newDuration);\r\n    event Recovered(address token, uint256 amount);\r\n}\r\n",
  "sourcePath": "C:/Users/vishn/OneDrive/Desktop/RoyaleProject/RoyaleFinance/royale-contracts/contracts/RoyaleUtility/RPTStaking.sol",
  "compiler": {
    "name": "solc",
    "version": "0.6.12+commit.27d51765.Emscripten.clang"
  },
  "schemaVersion": "3.3.2",
  "updatedAt": "2021-03-10T13:10:44.422Z",
  "devdoc": {
    "kind": "dev",
    "methods": {
      "setPaused(bool)": {
        "details": "Only the contract owner may call this."
      }
    },
    "version": 1
  },
  "userdoc": {
    "kind": "user",
    "methods": {
      "setPaused(bool)": {
        "notice": "Change the paused state of the contract"
      }
    },
    "version": 1
  }
}