{
  "contractName": "AaveStrategy",
  "abi": [
    {
      "inputs": [
        {
          "internalType": "address",
          "name": "_wallet",
          "type": "address"
        },
        {
          "internalType": "contract IERC20[3]",
          "name": "_tokens",
          "type": "address[3]"
        },
        {
          "internalType": "address",
          "name": "_royaleaddress",
          "type": "address"
        },
        {
          "internalType": "address",
          "name": "_yieldDistributor",
          "type": "address"
        },
        {
          "internalType": "address",
          "name": "_pool",
          "type": "address"
        },
        {
          "internalType": "address",
          "name": "_poolToken",
          "type": "address"
        },
        {
          "internalType": "address",
          "name": "_wmatic",
          "type": "address"
        },
        {
          "internalType": "address",
          "name": "_gauge",
          "type": "address"
        },
        {
          "internalType": "address",
          "name": "_dfyn",
          "type": "address"
        },
        {
          "internalType": "address",
          "name": "_weth",
          "type": "address"
        }
      ],
      "stateMutability": "nonpayable",
      "type": "constructor"
    },
    {
      "anonymous": false,
      "inputs": [
        {
          "indexed": false,
          "internalType": "address",
          "name": "",
          "type": "address"
        },
        {
          "indexed": false,
          "internalType": "uint256",
          "name": "",
          "type": "uint256"
        }
      ],
      "name": "Recovered",
      "type": "event"
    },
    {
      "anonymous": false,
      "inputs": [
        {
          "indexed": false,
          "internalType": "uint256",
          "name": "amount",
          "type": "uint256"
        }
      ],
      "name": "staked",
      "type": "event"
    },
    {
      "anonymous": false,
      "inputs": [
        {
          "indexed": false,
          "internalType": "uint256",
          "name": "amount",
          "type": "uint256"
        }
      ],
      "name": "unstaked",
      "type": "event"
    },
    {
      "anonymous": false,
      "inputs": [
        {
          "indexed": false,
          "internalType": "address",
          "name": "oldOwner",
          "type": "address"
        },
        {
          "indexed": false,
          "internalType": "address",
          "name": "newOwner",
          "type": "address"
        }
      ],
      "name": "walletChanged",
      "type": "event"
    },
    {
      "anonymous": false,
      "inputs": [
        {
          "indexed": false,
          "internalType": "address",
          "name": "newOwner",
          "type": "address"
        }
      ],
      "name": "walletNominated",
      "type": "event"
    },
    {
      "inputs": [],
      "name": "DENOMINATOR",
      "outputs": [
        {
          "internalType": "uint256",
          "name": "",
          "type": "uint256"
        }
      ],
      "stateMutability": "view",
      "type": "function",
      "constant": true
    },
    {
      "inputs": [],
      "name": "N_COINS",
      "outputs": [
        {
          "internalType": "uint256",
          "name": "",
          "type": "uint256"
        }
      ],
      "stateMutability": "view",
      "type": "function",
      "constant": true
    },
    {
      "inputs": [],
      "name": "WMatic",
      "outputs": [
        {
          "internalType": "contract IERC20",
          "name": "",
          "type": "address"
        }
      ],
      "stateMutability": "view",
      "type": "function",
      "constant": true
    },
    {
      "inputs": [],
      "name": "depositSlip",
      "outputs": [
        {
          "internalType": "uint256",
          "name": "",
          "type": "uint256"
        }
      ],
      "stateMutability": "view",
      "type": "function",
      "constant": true
    },
    {
      "inputs": [],
      "name": "dfyn",
      "outputs": [
        {
          "internalType": "contract DFYN",
          "name": "",
          "type": "address"
        }
      ],
      "stateMutability": "view",
      "type": "function",
      "constant": true
    },
    {
      "inputs": [],
      "name": "gauge",
      "outputs": [
        {
          "internalType": "contract aaveGauge",
          "name": "",
          "type": "address"
        }
      ],
      "stateMutability": "view",
      "type": "function",
      "constant": true
    },
    {
      "inputs": [],
      "name": "nominatedWallet",
      "outputs": [
        {
          "internalType": "address",
          "name": "",
          "type": "address"
        }
      ],
      "stateMutability": "view",
      "type": "function",
      "constant": true
    },
    {
      "inputs": [],
      "name": "pool",
      "outputs": [
        {
          "internalType": "contract aavePool",
          "name": "",
          "type": "address"
        }
      ],
      "stateMutability": "view",
      "type": "function",
      "constant": true
    },
    {
      "inputs": [],
      "name": "poolToken",
      "outputs": [
        {
          "internalType": "contract IERC20",
          "name": "",
          "type": "address"
        }
      ],
      "stateMutability": "view",
      "type": "function",
      "constant": true
    },
    {
      "inputs": [],
      "name": "royaleAddress",
      "outputs": [
        {
          "internalType": "address",
          "name": "",
          "type": "address"
        }
      ],
      "stateMutability": "view",
      "type": "function",
      "constant": true
    },
    {
      "inputs": [
        {
          "internalType": "uint256",
          "name": "",
          "type": "uint256"
        }
      ],
      "name": "tokens",
      "outputs": [
        {
          "internalType": "contract IERC20",
          "name": "",
          "type": "address"
        }
      ],
      "stateMutability": "view",
      "type": "function",
      "constant": true
    },
    {
      "inputs": [],
      "name": "wallet",
      "outputs": [
        {
          "internalType": "address",
          "name": "",
          "type": "address"
        }
      ],
      "stateMutability": "view",
      "type": "function",
      "constant": true
    },
    {
      "inputs": [],
      "name": "weth",
      "outputs": [
        {
          "internalType": "address",
          "name": "",
          "type": "address"
        }
      ],
      "stateMutability": "view",
      "type": "function",
      "constant": true
    },
    {
      "inputs": [],
      "name": "withdrawSlip",
      "outputs": [
        {
          "internalType": "uint256",
          "name": "",
          "type": "uint256"
        }
      ],
      "stateMutability": "view",
      "type": "function",
      "constant": true
    },
    {
      "inputs": [],
      "name": "yieldDistributor",
      "outputs": [
        {
          "internalType": "address",
          "name": "",
          "type": "address"
        }
      ],
      "stateMutability": "view",
      "type": "function",
      "constant": true
    },
    {
      "inputs": [
        {
          "internalType": "address",
          "name": "_wallet",
          "type": "address"
        }
      ],
      "name": "nominateNewOwner",
      "outputs": [],
      "stateMutability": "nonpayable",
      "type": "function"
    },
    {
      "inputs": [],
      "name": "acceptOwnership",
      "outputs": [],
      "stateMutability": "nonpayable",
      "type": "function"
    },
    {
      "inputs": [
        {
          "internalType": "address",
          "name": "_address",
          "type": "address"
        }
      ],
      "name": "changeRoyaleLP",
      "outputs": [],
      "stateMutability": "nonpayable",
      "type": "function"
    },
    {
      "inputs": [
        {
          "internalType": "address",
          "name": "_address",
          "type": "address"
        }
      ],
      "name": "changeYieldDistributor",
      "outputs": [],
      "stateMutability": "nonpayable",
      "type": "function"
    },
    {
      "inputs": [
        {
          "internalType": "uint256",
          "name": "_value",
          "type": "uint256"
        }
      ],
      "name": "changeDepositSlip",
      "outputs": [],
      "stateMutability": "nonpayable",
      "type": "function"
    },
    {
      "inputs": [
        {
          "internalType": "uint256",
          "name": "_value",
          "type": "uint256"
        }
      ],
      "name": "changeWithdrawSlip",
      "outputs": [],
      "stateMutability": "nonpayable",
      "type": "function"
    },
    {
      "inputs": [
        {
          "internalType": "uint256[3]",
          "name": "amounts",
          "type": "uint256[3]"
        }
      ],
      "name": "deposit",
      "outputs": [],
      "stateMutability": "nonpayable",
      "type": "function"
    },
    {
      "inputs": [
        {
          "internalType": "uint256[3]",
          "name": "amounts",
          "type": "uint256[3]"
        },
        {
          "internalType": "uint256[3]",
          "name": "max_burn",
          "type": "uint256[3]"
        }
      ],
      "name": "withdraw",
      "outputs": [],
      "stateMutability": "nonpayable",
      "type": "function"
    },
    {
      "inputs": [],
      "name": "withdrawAll",
      "outputs": [
        {
          "internalType": "uint256[3]",
          "name": "",
          "type": "uint256[3]"
        }
      ],
      "stateMutability": "nonpayable",
      "type": "function"
    },
    {
      "inputs": [],
      "name": "stakeLP",
      "outputs": [],
      "stateMutability": "nonpayable",
      "type": "function"
    },
    {
      "inputs": [
        {
          "internalType": "uint256",
          "name": "_amount",
          "type": "uint256"
        }
      ],
      "name": "unstakeLP",
      "outputs": [],
      "stateMutability": "nonpayable",
      "type": "function"
    },
    {
      "inputs": [],
      "name": "claimWMatic",
      "outputs": [],
      "stateMutability": "nonpayable",
      "type": "function"
    },
    {
      "inputs": [
        {
          "internalType": "address[8]",
          "name": "_rewardTokens",
          "type": "address[8]"
        }
      ],
      "name": "claimHistoricReward",
      "outputs": [],
      "stateMutability": "nonpayable",
      "type": "function"
    },
    {
      "inputs": [
        {
          "internalType": "uint256",
          "name": "_amount",
          "type": "uint256"
        },
        {
          "internalType": "uint256",
          "name": "_minimumAmount",
          "type": "uint256"
        },
        {
          "internalType": "uint256",
          "name": "_index",
          "type": "uint256"
        }
      ],
      "name": "swapWMatic",
      "outputs": [],
      "stateMutability": "nonpayable",
      "type": "function"
    },
    {
      "inputs": [
        {
          "internalType": "address",
          "name": "_tokenAddress",
          "type": "address"
        },
        {
          "internalType": "uint256",
          "name": "_tokenAmount",
          "type": "uint256"
        }
      ],
      "name": "recoverERC20",
      "outputs": [],
      "stateMutability": "nonpayable",
      "type": "function"
    }
  ],
  "bytecode": "0x60806040526064600b556064600c553480156200001b57600080fd5b5060405162003f5938038062003f5983398181016040526101808110156200004257600080fd5b8101908080519060200190929190919082606001805190602001909291908051906020019092919080519060200190929190805190602001909291908051906020019092919080519060200190929190805190602001909291908051906020019092919050505089600d60006101000a81548173ffffffffffffffffffffffffffffffffffffffff021916908373ffffffffffffffffffffffffffffffffffffffff160217905550886002906003620000fd92919062000315565b50876000806101000a81548173ffffffffffffffffffffffffffffffffffffffff021916908373ffffffffffffffffffffffffffffffffffffffff16021790555086600160006101000a81548173ffffffffffffffffffffffffffffffffffffffff021916908373ffffffffffffffffffffffffffffffffffffffff16021790555085600760006101000a81548173ffffffffffffffffffffffffffffffffffffffff021916908373ffffffffffffffffffffffffffffffffffffffff16021790555084600560006101000a81548173ffffffffffffffffffffffffffffffffffffffff021916908373ffffffffffffffffffffffffffffffffffffffff16021790555083600660006101000a81548173ffffffffffffffffffffffffffffffffffffffff021916908373ffffffffffffffffffffffffffffffffffffffff16021790555082600860006101000a81548173ffffffffffffffffffffffffffffffffffffffff021916908373ffffffffffffffffffffffffffffffffffffffff16021790555081600960006101000a81548173ffffffffffffffffffffffffffffffffffffffff021916908373ffffffffffffffffffffffffffffffffffffffff16021790555080600a60006101000a81548173ffffffffffffffffffffffffffffffffffffffff021916908373ffffffffffffffffffffffffffffffffffffffff16021790555050505050505050505050620003d4565b826003810192821562000384579160200282015b82811115620003835782518260006101000a81548173ffffffffffffffffffffffffffffffffffffffff021916908373ffffffffffffffffffffffffffffffffffffffff1602179055509160200191906001019062000329565b5b50905062000393919062000397565b5090565b5b80821115620003d057600081816101000a81549073ffffffffffffffffffffffffffffffffffffffff02191690555060010162000398565b5090565b613b7580620003e46000396000f3fe608060405234801561001057600080fd5b50600436106101da5760003560e01c8063853828b611610104578063c4778998116100a2578063da9ced1d11610071578063da9ced1d1461073d578063e68403e81461075b578063e96e89dc14610801578063f7ee0b8e1461082f576101da565b8063c477899814610634578063cbdf382c14610662578063d4e20b0114610696578063d5099a76146106fb576101da565b8063918f8674116100de578063918f86741461057a578063a38c2c3d14610598578063a6f19c84146105cc578063a8c4d3ae14610600576101da565b8063853828b61461047f57806385e13c02146104c55780638980f11f1461052c576101da565b80634f64b2be1161017c5780636e75702e1161014b5780636e75702e146103e557806371968f1d1461040357806379ba50971461043157806379f9ae1f1461043b576101da565b80634f64b2be146102f1578063501d509514610349578063521eb2731461037d578063543715d9146103b1576101da565b806329357750116101b857806329357750146102615780632b51a0951461027f5780633322732a146102b35780633fc8cef3146102bd576101da565b806310ff582d146101df5780631627540c146101e957806316f0115b1461022d575b600080fd5b6101e7610873565b005b61022b600480360360208110156101ff57600080fd5b81019080803573ffffffffffffffffffffffffffffffffffffffff169060200190929190505050610bfa565b005b610235610d4e565b604051808273ffffffffffffffffffffffffffffffffffffffff16815260200191505060405180910390f35b610269610d74565b6040518082815260200191505060405180910390f35b610287610d79565b604051808273ffffffffffffffffffffffffffffffffffffffff16815260200191505060405180910390f35b6102bb610d9d565b005b6102c5610ee4565b604051808273ffffffffffffffffffffffffffffffffffffffff16815260200191505060405180910390f35b61031d6004803603602081101561030757600080fd5b8101908080359060200190929190505050610f0a565b604051808273ffffffffffffffffffffffffffffffffffffffff16815260200191505060405180910390f35b610351610f3d565b604051808273ffffffffffffffffffffffffffffffffffffffff16815260200191505060405180910390f35b610385610f63565b604051808273ffffffffffffffffffffffffffffffffffffffff16815260200191505060405180910390f35b6103b9610f89565b604051808273ffffffffffffffffffffffffffffffffffffffff16815260200191505060405180910390f35b6103ed610faf565b6040518082815260200191505060405180910390f35b61042f6004803603602081101561041957600080fd5b8101908080359060200190929190505050610fb5565b005b610439611082565b005b61047d6004803603602081101561045157600080fd5b81019080803573ffffffffffffffffffffffffffffffffffffffff16906020019092919050505061127e565b005b610487611385565b6040518082600360200280838360005b838110156104b2578082015181840152602081019050610497565b5050505090500191505060405180910390f35b61052a60048036036101008110156104dc57600080fd5b810190808061010001906008806020026040519081016040528092919082600860200280828437600081840152601f19601f8201169050808301925050505050509192919290505050611952565b005b6105786004803603604081101561054257600080fd5b81019080803573ffffffffffffffffffffffffffffffffffffffff16906020019092919080359060200190929190505050611acd565b005b610582611cfa565b6040518082815260200191505060405180910390f35b6105a0611d00565b604051808273ffffffffffffffffffffffffffffffffffffffff16815260200191505060405180910390f35b6105d4611d26565b604051808273ffffffffffffffffffffffffffffffffffffffff16815260200191505060405180910390f35b610608611d4c565b604051808273ffffffffffffffffffffffffffffffffffffffff16815260200191505060405180910390f35b6106606004803603602081101561064a57600080fd5b8101908080359060200190929190505050611d72565b005b61066a612070565b604051808273ffffffffffffffffffffffffffffffffffffffff16815260200191505060405180910390f35b6106f9600480360360608110156106ac57600080fd5b8101908080606001906003806020026040519081016040528092919082600360200280828437600081840152601f19601f8201169050808301925050505050509192919290505050612096565b005b61073b6004803603606081101561071157600080fd5b810190808035906020019092919080359060200190929190803590602001909291905050506125c1565b005b610745612b62565b6040518082815260200191505060405180910390f35b6107ff600480360360c081101561077157600080fd5b8101908080606001906003806020026040519081016040528092919082600360200280828437600081840152601f19601f820116905080830192505050505050919291929080606001906003806020026040519081016040528092919082600360200280828437600081840152601f19601f8201169050808301925050505050509192919290505050612b68565b005b61082d6004803603602081101561081757600080fd5b8101908080359060200190929190505050613002565b005b6108716004803603602081101561084557600080fd5b81019080803573ffffffffffffffffffffffffffffffffffffffff1690602001909291905050506130cf565b005b3373ffffffffffffffffffffffffffffffffffffffff16600d60009054906101000a900473ffffffffffffffffffffffffffffffffffffffff1673ffffffffffffffffffffffffffffffffffffffff16148061091a575060008054906101000a900473ffffffffffffffffffffffffffffffffffffffff1673ffffffffffffffffffffffffffffffffffffffff163373ffffffffffffffffffffffffffffffffffffffff16145b61098c576040517f08c379a000000000000000000000000000000000000000000000000000000000815260040180806020018281038252600e8152602001807f4e6f7420617574686f72697a656400000000000000000000000000000000000081525060200191505060405180910390fd5b6000600560009054906101000a900473ffffffffffffffffffffffffffffffffffffffff1673ffffffffffffffffffffffffffffffffffffffff166370a08231306040518263ffffffff1660e01b8152600401808273ffffffffffffffffffffffffffffffffffffffff16815260200191505060206040518083038186803b158015610a1757600080fd5b505afa158015610a2b573d6000803e3d6000fd5b505050506040513d6020811015610a4157600080fd5b81019080805190602001909291905050509050610ac4600860009054906101000a900473ffffffffffffffffffffffffffffffffffffffff166000600560009054906101000a900473ffffffffffffffffffffffffffffffffffffffff1673ffffffffffffffffffffffffffffffffffffffff166131d59092919063ffffffff16565b610b33600860009054906101000a900473ffffffffffffffffffffffffffffffffffffffff1682600560009054906101000a900473ffffffffffffffffffffffffffffffffffffffff1673ffffffffffffffffffffffffffffffffffffffff166131d59092919063ffffffff16565b600860009054906101000a900473ffffffffffffffffffffffffffffffffffffffff1673ffffffffffffffffffffffffffffffffffffffff1663b6b55f25826040518263ffffffff1660e01b815260040180828152602001915050600060405180830381600087803b158015610ba857600080fd5b505af1158015610bbc573d6000803e3d6000fd5b505050507f5e1bef326bd9222892c5e49c4e6756af0f42c0b91d698bd306965987bc1f9a7e816040518082815260200191505060405180910390a150565b3373ffffffffffffffffffffffffffffffffffffffff16600d60009054906101000a900473ffffffffffffffffffffffffffffffffffffffff1673ffffffffffffffffffffffffffffffffffffffff1614610cbd576040517f08c379a000000000000000000000000000000000000000000000000000000000815260040180806020018281038252600e8152602001807f4e6f7420417574686f72697a656400000000000000000000000000000000000081525060200191505060405180910390fd5b80600e60006101000a81548173ffffffffffffffffffffffffffffffffffffffff021916908373ffffffffffffffffffffffffffffffffffffffff1602179055507f34e5b3a286aa0821b202b74f9fa683c8f56e1f2875caafc853d080382896917881604051808273ffffffffffffffffffffffffffffffffffffffff16815260200191505060405180910390a150565b600760009054906101000a900473ffffffffffffffffffffffffffffffffffffffff1681565b600381565b60008054906101000a900473ffffffffffffffffffffffffffffffffffffffff1681565b3373ffffffffffffffffffffffffffffffffffffffff16600d60009054906101000a900473ffffffffffffffffffffffffffffffffffffffff1673ffffffffffffffffffffffffffffffffffffffff1614610e60576040517f08c379a000000000000000000000000000000000000000000000000000000000815260040180806020018281038252600e8152602001807f4e6f7420417574686f72697a656400000000000000000000000000000000000081525060200191505060405180910390fd5b600860009054906101000a900473ffffffffffffffffffffffffffffffffffffffff1673ffffffffffffffffffffffffffffffffffffffff1663e6f1daf26040518163ffffffff1660e01b8152600401600060405180830381600087803b158015610eca57600080fd5b505af1158015610ede573d6000803e3d6000fd5b50505050565b600a60009054906101000a900473ffffffffffffffffffffffffffffffffffffffff1681565b60028160038110610f1757fe5b016000915054906101000a900473ffffffffffffffffffffffffffffffffffffffff1681565b600660009054906101000a900473ffffffffffffffffffffffffffffffffffffffff1681565b600d60009054906101000a900473ffffffffffffffffffffffffffffffffffffffff1681565b600960009054906101000a900473ffffffffffffffffffffffffffffffffffffffff1681565b600c5481565b3373ffffffffffffffffffffffffffffffffffffffff16600d60009054906101000a900473ffffffffffffffffffffffffffffffffffffffff1673ffffffffffffffffffffffffffffffffffffffff1614611078576040517f08c379a000000000000000000000000000000000000000000000000000000000815260040180806020018281038252600e8152602001807f4e6f7420417574686f72697a656400000000000000000000000000000000000081525060200191505060405180910390fd5b80600b8190555050565b600e60009054906101000a900473ffffffffffffffffffffffffffffffffffffffff1673ffffffffffffffffffffffffffffffffffffffff163373ffffffffffffffffffffffffffffffffffffffff1614611128576040517f08c379a0000000000000000000000000000000000000000000000000000000008152600401808060200182810382526035815260200180613a406035913960400191505060405180910390fd5b7f6058119c217577f8ad236dec0d66116c29ed9d1f362482f49becdbffe3ae0df1600d60009054906101000a900473ffffffffffffffffffffffffffffffffffffffff16600e60009054906101000a900473ffffffffffffffffffffffffffffffffffffffff16604051808373ffffffffffffffffffffffffffffffffffffffff1681526020018273ffffffffffffffffffffffffffffffffffffffff1681526020019250505060405180910390a1600e60009054906101000a900473ffffffffffffffffffffffffffffffffffffffff16600d60006101000a81548173ffffffffffffffffffffffffffffffffffffffff021916908373ffffffffffffffffffffffffffffffffffffffff1602179055506000600e60006101000a81548173ffffffffffffffffffffffffffffffffffffffff021916908373ffffffffffffffffffffffffffffffffffffffff160217905550565b3373ffffffffffffffffffffffffffffffffffffffff16600d60009054906101000a900473ffffffffffffffffffffffffffffffffffffffff1673ffffffffffffffffffffffffffffffffffffffff1614611341576040517f08c379a000000000000000000000000000000000000000000000000000000000815260040180806020018281038252600e8152602001807f4e6f7420417574686f72697a656400000000000000000000000000000000000081525060200191505060405180910390fd5b80600160006101000a81548173ffffffffffffffffffffffffffffffffffffffff021916908373ffffffffffffffffffffffffffffffffffffffff16021790555050565b61138d613a1d565b60008054906101000a900473ffffffffffffffffffffffffffffffffffffffff1673ffffffffffffffffffffffffffffffffffffffff163373ffffffffffffffffffffffffffffffffffffffff161461144e576040517f08c379a000000000000000000000000000000000000000000000000000000000815260040180806020018281038252600e8152602001807f4e6f7420617574686f72697a656400000000000000000000000000000000000081525060200191505060405180910390fd5b61151c600860009054906101000a900473ffffffffffffffffffffffffffffffffffffffff1673ffffffffffffffffffffffffffffffffffffffff166370a08231306040518263ffffffff1660e01b8152600401808273ffffffffffffffffffffffffffffffffffffffff168152602001915050602060405180830381600087803b1580156114dc57600080fd5b505af11580156114f0573d6000803e3d6000fd5b505050506040513d602081101561150657600080fd5b8101908080519060200190929190505050611d72565b611524613a1d565b600760009054906101000a900473ffffffffffffffffffffffffffffffffffffffff1673ffffffffffffffffffffffffffffffffffffffff1663fce64736600560009054906101000a900473ffffffffffffffffffffffffffffffffffffffff1673ffffffffffffffffffffffffffffffffffffffff166370a08231306040518263ffffffff1660e01b8152600401808273ffffffffffffffffffffffffffffffffffffffff16815260200191505060206040518083038186803b1580156115eb57600080fd5b505afa1580156115ff573d6000803e3d6000fd5b505050506040513d602081101561161557600080fd5b81019080805190602001909291905050508360016040518463ffffffff1660e01b81526004018084815260200183600360200280838360005b8381101561166957808201518184015260208101905061164e565b5050505090500182151581526020019350505050606060405180830381600087803b15801561169757600080fd5b505af11580156116ab573d6000803e3d6000fd5b505050506040513d601f19601f8201168201806040525060608110156116d057600080fd5b81019080919050505060005b60038160ff16101561194a57600060028260ff16600381106116fa57fe5b0160009054906101000a900473ffffffffffffffffffffffffffffffffffffffff1673ffffffffffffffffffffffffffffffffffffffff166370a08231306040518263ffffffff1660e01b8152600401808273ffffffffffffffffffffffffffffffffffffffff16815260200191505060206040518083038186803b15801561178257600080fd5b505afa158015611796573d6000803e3d6000fd5b505050506040513d60208110156117ac57600080fd5b81019080805190602001909291905050501461193d5760028160ff16600381106117d257fe5b0160009054906101000a900473ffffffffffffffffffffffffffffffffffffffff1673ffffffffffffffffffffffffffffffffffffffff166370a08231306040518263ffffffff1660e01b8152600401808273ffffffffffffffffffffffffffffffffffffffff16815260200191505060206040518083038186803b15801561185a57600080fd5b505afa15801561186e573d6000803e3d6000fd5b505050506040513d602081101561188457600080fd5b8101908080519060200190929190505050828260ff16600381106118a457fe5b60200201818152505061193c60008054906101000a900473ffffffffffffffffffffffffffffffffffffffff16838360ff16600381106118e057fe5b602002015160028460ff16600381106118f557fe5b0160009054906101000a900473ffffffffffffffffffffffffffffffffffffffff1673ffffffffffffffffffffffffffffffffffffffff1661339a9092919063ffffffff16565b5b80806001019150506116dc565b508091505090565b3373ffffffffffffffffffffffffffffffffffffffff16600d60009054906101000a900473ffffffffffffffffffffffffffffffffffffffff1673ffffffffffffffffffffffffffffffffffffffff1614611a15576040517f08c379a000000000000000000000000000000000000000000000000000000000815260040180806020018281038252600e8152602001807f4e6f7420417574686f72697a656400000000000000000000000000000000000081525060200191505060405180910390fd5b600860009054906101000a900473ffffffffffffffffffffffffffffffffffffffff1673ffffffffffffffffffffffffffffffffffffffff1663b9fa7a69826040518263ffffffff1660e01b81526004018082600860200280838360005b83811015611a8e578082015181840152602081019050611a73565b50505050905001915050600060405180830381600087803b158015611ab257600080fd5b505af1158015611ac6573d6000803e3d6000fd5b5050505050565b3373ffffffffffffffffffffffffffffffffffffffff16600d60009054906101000a900473ffffffffffffffffffffffffffffffffffffffff1673ffffffffffffffffffffffffffffffffffffffff1614611b90576040517f08c379a000000000000000000000000000000000000000000000000000000000815260040180806020018281038252600e8152602001807f4e6f7420417574686f72697a656400000000000000000000000000000000000081525060200191505060405180910390fd5b600560009054906101000a900473ffffffffffffffffffffffffffffffffffffffff1673ffffffffffffffffffffffffffffffffffffffff168273ffffffffffffffffffffffffffffffffffffffff161415611c54576040517f08c379a00000000000000000000000000000000000000000000000000000000081526004018080602001828103825260188152602001807f43616e6e6f74207769746864726177204c5020746f6b656e000000000000000081525060200191505060405180910390fd5b611ca1600160009054906101000a900473ffffffffffffffffffffffffffffffffffffffff16828473ffffffffffffffffffffffffffffffffffffffff1661339a9092919063ffffffff16565b7f8c1256b8896378cd5044f80c202f9772b9d77dc85c8a6eb51967210b09bfaa288282604051808373ffffffffffffffffffffffffffffffffffffffff1681526020018281526020019250505060405180910390a15050565b61271081565b600160009054906101000a900473ffffffffffffffffffffffffffffffffffffffff1681565b600860009054906101000a900473ffffffffffffffffffffffffffffffffffffffff1681565b600e60009054906101000a900473ffffffffffffffffffffffffffffffffffffffff1681565b3373ffffffffffffffffffffffffffffffffffffffff16600d60009054906101000a900473ffffffffffffffffffffffffffffffffffffffff1673ffffffffffffffffffffffffffffffffffffffff161480611e19575060008054906101000a900473ffffffffffffffffffffffffffffffffffffffff1673ffffffffffffffffffffffffffffffffffffffff163373ffffffffffffffffffffffffffffffffffffffff16145b611e8b576040517f08c379a000000000000000000000000000000000000000000000000000000000815260040180806020018281038252600e8152602001807f4e6f7420617574686f72697a656400000000000000000000000000000000000081525060200191505060405180910390fd5b80600860009054906101000a900473ffffffffffffffffffffffffffffffffffffffff1673ffffffffffffffffffffffffffffffffffffffff166370a08231306040518263ffffffff1660e01b8152600401808273ffffffffffffffffffffffffffffffffffffffff168152602001915050602060405180830381600087803b158015611f1757600080fd5b505af1158015611f2b573d6000803e3d6000fd5b505050506040513d6020811015611f4157600080fd5b81019080805190602001909291905050501015611fa9576040517f08c379a0000000000000000000000000000000000000000000000000000000008152600401808060200182810382526024815260200180613ae66024913960400191505060405180910390fd5b600860009054906101000a900473ffffffffffffffffffffffffffffffffffffffff1673ffffffffffffffffffffffffffffffffffffffff16632e1a7d4d826040518263ffffffff1660e01b815260040180828152602001915050600060405180830381600087803b15801561201e57600080fd5b505af1158015612032573d6000803e3d6000fd5b505050507f862f62b448d7253dc6afebd1a94d3fed70796abc517f689f329288fb288e3331816040518082815260200191505060405180910390a150565b600560009054906101000a900473ffffffffffffffffffffffffffffffffffffffff1681565b60008054906101000a900473ffffffffffffffffffffffffffffffffffffffff1673ffffffffffffffffffffffffffffffffffffffff163373ffffffffffffffffffffffffffffffffffffffff1614612157576040517f08c379a000000000000000000000000000000000000000000000000000000000815260040180806020018281038252600e8152602001807f4e6f7420617574686f72697a656400000000000000000000000000000000000081525060200191505060405180910390fd5b600080600090505b60038160ff1610156123b6576000838260ff166003811061217c57fe5b602002015111156123a957600060028260ff166003811061219957fe5b0160009054906101000a900473ffffffffffffffffffffffffffffffffffffffff1673ffffffffffffffffffffffffffffffffffffffff1663313ce5676040518163ffffffff1660e01b815260040160206040518083038186803b15801561220057600080fd5b505afa158015612214573d6000803e3d6000fd5b505050506040513d602081101561222a57600080fd5b810190808051906020019092919050505060ff1690506122bf600760009054906101000a900473ffffffffffffffffffffffffffffffffffffffff16600060028560ff166003811061227857fe5b0160009054906101000a900473ffffffffffffffffffffffffffffffffffffffff1673ffffffffffffffffffffffffffffffffffffffff166131d59092919063ffffffff16565b612350600760009054906101000a900473ffffffffffffffffffffffffffffffffffffffff16858460ff16600381106122f457fe5b602002015160028560ff166003811061230957fe5b0160009054906101000a900473ffffffffffffffffffffffffffffffffffffffff1673ffffffffffffffffffffffffffffffffffffffff166131d59092919063ffffffff16565b6123a561239682600a0a612388670de0b6b3a7640000888760ff166003811061237557fe5b602002015161343c90919063ffffffff16565b6134c290919063ffffffff16565b8461354b90919063ffffffff16565b9250505b808060010191505061215f565b50600061248a600760009054906101000a900473ffffffffffffffffffffffffffffffffffffffff1673ffffffffffffffffffffffffffffffffffffffff1663bb7b8b806040518163ffffffff1660e01b8152600401602060405180830381600087803b15801561242657600080fd5b505af115801561243a573d6000803e3d6000fd5b505050506040513d602081101561245057600080fd5b810190808051906020019092919050505061247c670de0b6b3a76400008561343c90919063ffffffff16565b6134c290919063ffffffff16565b9050600760009054906101000a900473ffffffffffffffffffffffffffffffffffffffff1673ffffffffffffffffffffffffffffffffffffffff16632b6e993a846125086127106124fa6124eb600b546127106135d390919063ffffffff16565b8761343c90919063ffffffff16565b6134c290919063ffffffff16565b60016040518463ffffffff1660e01b81526004018084600360200280838360005b83811015612544578082015181840152602081019050612529565b5050505090500183815260200182151581526020019350505050602060405180830381600087803b15801561257857600080fd5b505af115801561258c573d6000803e3d6000fd5b505050506040513d60208110156125a257600080fd5b8101908080519060200190929190505050506125bc610873565b505050565b3373ffffffffffffffffffffffffffffffffffffffff16600d60009054906101000a900473ffffffffffffffffffffffffffffffffffffffff1673ffffffffffffffffffffffffffffffffffffffff1614612684576040517f08c379a000000000000000000000000000000000000000000000000000000000815260040180806020018281038252600e8152602001807f4e6f7420417574686f72697a656400000000000000000000000000000000000081525060200191505060405180910390fd5b82600660009054906101000a900473ffffffffffffffffffffffffffffffffffffffff1673ffffffffffffffffffffffffffffffffffffffff166370a08231306040518263ffffffff1660e01b8152600401808273ffffffffffffffffffffffffffffffffffffffff16815260200191505060206040518083038186803b15801561270e57600080fd5b505afa158015612722573d6000803e3d6000fd5b505050506040513d602081101561273857600080fd5b810190808051906020019092919050505010156127bd576040517f08c379a000000000000000000000000000000000000000000000000000000000815260040180806020018281038252601a8152602001807f496e73756666696369656e7420574d6174696320616d6f756e7400000000000081525060200191505060405180910390fd5b61282d600960009054906101000a900473ffffffffffffffffffffffffffffffffffffffff166000600660009054906101000a900473ffffffffffffffffffffffffffffffffffffffff1673ffffffffffffffffffffffffffffffffffffffff166131d59092919063ffffffff16565b61289c600960009054906101000a900473ffffffffffffffffffffffffffffffffffffffff1684600660009054906101000a900473ffffffffffffffffffffffffffffffffffffffff1673ffffffffffffffffffffffffffffffffffffffff166131d59092919063ffffffff16565b6060600367ffffffffffffffff811180156128b657600080fd5b506040519080825280602002602001820160405280156128e55781602001602082028036833780820191505090505b509050600660009054906101000a900473ffffffffffffffffffffffffffffffffffffffff168160008151811061291857fe5b602002602001019073ffffffffffffffffffffffffffffffffffffffff16908173ffffffffffffffffffffffffffffffffffffffff1681525050600a60009054906101000a900473ffffffffffffffffffffffffffffffffffffffff168160018151811061298257fe5b602002602001019073ffffffffffffffffffffffffffffffffffffffff16908173ffffffffffffffffffffffffffffffffffffffff1681525050600282600381106129c957fe5b0160009054906101000a900473ffffffffffffffffffffffffffffffffffffffff16816002815181106129f857fe5b602002602001019073ffffffffffffffffffffffffffffffffffffffff16908173ffffffffffffffffffffffffffffffffffffffff1681525050600960009054906101000a900473ffffffffffffffffffffffffffffffffffffffff1673ffffffffffffffffffffffffffffffffffffffff166338ed1739858584600160009054906101000a900473ffffffffffffffffffffffffffffffffffffffff1661025842016040518663ffffffff1660e01b815260040180868152602001858152602001806020018473ffffffffffffffffffffffffffffffffffffffff168152602001838152602001828103825285818151815260200191508051906020019060200280838360005b83811015612b1b578082015181840152602081019050612b00565b505050509050019650505050505050600060405180830381600087803b158015612b4457600080fd5b505af1158015612b58573d6000803e3d6000fd5b5050505050505050565b600b5481565b60008054906101000a900473ffffffffffffffffffffffffffffffffffffffff1673ffffffffffffffffffffffffffffffffffffffff163373ffffffffffffffffffffffffffffffffffffffff1614612c29576040517f08c379a000000000000000000000000000000000000000000000000000000000815260040180806020018281038252600e8152602001807f4e6f7420617574686f72697a656400000000000000000000000000000000000081525060200191505060405180910390fd5b600080600090505b6003811015612c6c57612c5d838260038110612c4957fe5b60200201518361354b90919063ffffffff16565b91508080600101915050612c31565b50612caa612710612c9c612c8d600c5461271061354b90919063ffffffff16565b8461343c90919063ffffffff16565b6134c290919063ffffffff16565b9050612cb581611d72565b600760009054906101000a900473ffffffffffffffffffffffffffffffffffffffff1673ffffffffffffffffffffffffffffffffffffffff16635b8369f5848360016040518463ffffffff1660e01b81526004018084600360200280838360005b83811015612d31578082015181840152602081019050612d16565b5050505090500183815260200182151581526020019350505050602060405180830381600087803b158015612d6557600080fd5b505af1158015612d79573d6000803e3d6000fd5b505050506040513d6020811015612d8f57600080fd5b81019080805190602001909291905050505060005b60038160ff161015612f27576000848260ff1660038110612dc157fe5b602002015114612f1a57612f1960008054906101000a900473ffffffffffffffffffffffffffffffffffffffff1660028360ff1660038110612dff57fe5b0160009054906101000a900473ffffffffffffffffffffffffffffffffffffffff1673ffffffffffffffffffffffffffffffffffffffff166370a08231306040518263ffffffff1660e01b8152600401808273ffffffffffffffffffffffffffffffffffffffff16815260200191505060206040518083038186803b158015612e8757600080fd5b505afa158015612e9b573d6000803e3d6000fd5b505050506040513d6020811015612eb157600080fd5b810190808051906020019092919050505060028460ff1660038110612ed257fe5b0160009054906101000a900473ffffffffffffffffffffffffffffffffffffffff1673ffffffffffffffffffffffffffffffffffffffff1661339a9092919063ffffffff16565b5b8080600101915050612da4565b506000600560009054906101000a900473ffffffffffffffffffffffffffffffffffffffff1673ffffffffffffffffffffffffffffffffffffffff166370a08231306040518263ffffffff1660e01b8152600401808273ffffffffffffffffffffffffffffffffffffffff16815260200191505060206040518083038186803b158015612fb357600080fd5b505afa158015612fc7573d6000803e3d6000fd5b505050506040513d6020811015612fdd57600080fd5b81019080805190602001909291905050501115612ffd57612ffc610873565b5b505050565b3373ffffffffffffffffffffffffffffffffffffffff16600d60009054906101000a900473ffffffffffffffffffffffffffffffffffffffff1673ffffffffffffffffffffffffffffffffffffffff16146130c5576040517f08c379a000000000000000000000000000000000000000000000000000000000815260040180806020018281038252600e8152602001807f4e6f7420417574686f72697a656400000000000000000000000000000000000081525060200191505060405180910390fd5b80600c8190555050565b3373ffffffffffffffffffffffffffffffffffffffff16600d60009054906101000a900473ffffffffffffffffffffffffffffffffffffffff1673ffffffffffffffffffffffffffffffffffffffff1614613192576040517f08c379a000000000000000000000000000000000000000000000000000000000815260040180806020018281038252600e8152602001807f4e6f7420417574686f72697a656400000000000000000000000000000000000081525060200191505060405180910390fd5b806000806101000a81548173ffffffffffffffffffffffffffffffffffffffff021916908373ffffffffffffffffffffffffffffffffffffffff16021790555050565b60008114806132a3575060008373ffffffffffffffffffffffffffffffffffffffff1663dd62ed3e30856040518363ffffffff1660e01b8152600401808373ffffffffffffffffffffffffffffffffffffffff1681526020018273ffffffffffffffffffffffffffffffffffffffff1681526020019250505060206040518083038186803b15801561326657600080fd5b505afa15801561327a573d6000803e3d6000fd5b505050506040513d602081101561329057600080fd5b8101908080519060200190929190505050145b6132f8576040517f08c379a0000000000000000000000000000000000000000000000000000000008152600401808060200182810382526036815260200180613b0a6036913960400191505060405180910390fd5b6133958363095ea7b360e01b8484604051602401808373ffffffffffffffffffffffffffffffffffffffff16815260200182815260200192505050604051602081830303815290604052907bffffffffffffffffffffffffffffffffffffffffffffffffffffffff19166020820180517bffffffffffffffffffffffffffffffffffffffffffffffffffffffff8381831617835250505050613656565b505050565b6134378363a9059cbb60e01b8484604051602401808373ffffffffffffffffffffffffffffffffffffffff16815260200182815260200192505050604051602081830303815290604052907bffffffffffffffffffffffffffffffffffffffffffffffffffffffff19166020820180517bffffffffffffffffffffffffffffffffffffffffffffffffffffffff8381831617835250505050613656565b505050565b60008083141561344f57600090506134bc565b600082840290508284828161346057fe5b04146134b7576040517f08c379a0000000000000000000000000000000000000000000000000000000008152600401808060200182810382526021815260200180613a9b6021913960400191505060405180910390fd5b809150505b92915050565b6000808211613539576040517f08c379a000000000000000000000000000000000000000000000000000000000815260040180806020018281038252601a8152602001807f536166654d6174683a206469766973696f6e206279207a65726f00000000000081525060200191505060405180910390fd5b81838161354257fe5b04905092915050565b6000808284019050838110156135c9576040517f08c379a000000000000000000000000000000000000000000000000000000000815260040180806020018281038252601b8152602001807f536166654d6174683a206164646974696f6e206f766572666c6f77000000000081525060200191505060405180910390fd5b8091505092915050565b60008282111561364b576040517f08c379a000000000000000000000000000000000000000000000000000000000815260040180806020018281038252601e8152602001807f536166654d6174683a207375627472616374696f6e206f766572666c6f77000081525060200191505060405180910390fd5b818303905092915050565b60606136b8826040518060400160405280602081526020017f5361666545524332303a206c6f772d6c6576656c2063616c6c206661696c65648152508573ffffffffffffffffffffffffffffffffffffffff166137459092919063ffffffff16565b9050600081511115613740578080602001905160208110156136d957600080fd5b810190808051906020019092919050505061373f576040517f08c379a000000000000000000000000000000000000000000000000000000000815260040180806020018281038252602a815260200180613abc602a913960400191505060405180910390fd5b5b505050565b6060613754848460008561375d565b90509392505050565b6060824710156137b8576040517f08c379a0000000000000000000000000000000000000000000000000000000008152600401808060200182810382526026815260200180613a756026913960400191505060405180910390fd5b6137c185613906565b613833576040517f08c379a000000000000000000000000000000000000000000000000000000000815260040180806020018281038252601d8152602001807f416464726573733a2063616c6c20746f206e6f6e2d636f6e747261637400000081525060200191505060405180910390fd5b600060608673ffffffffffffffffffffffffffffffffffffffff1685876040518082805190602001908083835b602083106138835780518252602082019150602081019050602083039250613860565b6001836020036101000a03801982511681845116808217855250505050505090500191505060006040518083038185875af1925050503d80600081146138e5576040519150601f19603f3d011682016040523d82523d6000602084013e6138ea565b606091505b50915091506138fa828286613951565b92505050949350505050565b60008060007fc5d2460186f7233c927e7db2dcc703c0e500b653ca82273b7bfad8045d85a47060001b9050833f915080821415801561394857506000801b8214155b92505050919050565b6060831561396157829050613a16565b6000835111156139745782518084602001fd5b816040517f08c379a00000000000000000000000000000000000000000000000000000000081526004018080602001828103825283818151815260200191508051906020019080838360005b838110156139db5780820151818401526020810190506139c0565b50505050905090810190601f168015613a085780820380516001836020036101000a031916815260200191505b509250505060405180910390fd5b9392505050565b604051806060016040528060039060208202803683378082019150509050509056fe596f75206d757374206265206e6f6d696e61746564206265666f726520796f752063616e20616363657074206f776e657273686970416464726573733a20696e73756666696369656e742062616c616e636520666f722063616c6c536166654d6174683a206d756c7469706c69636174696f6e206f766572666c6f775361666545524332303a204552433230206f7065726174696f6e20646964206e6f742073756363656564596f752068617665206e6f74207374616b65642074686174206d75636820616d6f756e745361666545524332303a20617070726f76652066726f6d206e6f6e2d7a65726f20746f206e6f6e2d7a65726f20616c6c6f77616e6365a26469706673582212207d6fbf88cdb8b062cc01cc4cece19ec34c8fab4d1267634edf7d0b09c0ca202764736f6c634300060c0033",
  "immutableReferences": {},
  "source": "// SPDX-License-Identifier: UNLICENSED\r\npragma solidity ^0.6.0;\r\n\r\nimport './SafeERC20.sol';\r\nimport '../../Interfaces/CurveAaveInterface.sol';\r\nimport '../../Interfaces/DFYNInterface.sol';\r\n\r\ncontract AaveStrategy{\r\n    \r\n    using SafeERC20 for IERC20;\r\n    using SafeMath for uint256;\r\n    \r\n    uint constant public N_COINS=3;\r\n    \r\n    address public royaleAddress;   //royale pool address\r\n    address public yieldDistributor;  //account where all yield will be sent\r\n    IERC20[N_COINS] public tokens;\r\n    IERC20 public poolToken;\r\n    IERC20 public WMatic;\r\n    aavePool public pool;\r\n    aaveGauge public gauge;\r\n    DFYN public dfyn;\r\n    address public weth;\r\n    \r\n    \r\n    uint256 public constant DENOMINATOR = 10000;\r\n\r\n    uint256 public depositSlip = 100;\r\n\r\n    uint256 public withdrawSlip = 100;\r\n   \r\n    address public wallet;\r\n    \r\n    address public nominatedWallet; \r\n    \r\n    modifier onlyAuthorized(){\r\n      require(wallet == msg.sender|| msg.sender==royaleAddress, \"Not authorized\");\r\n      _;\r\n    }\r\n\r\n    modifier onlyWallet(){\r\n        require((wallet==msg.sender),\"Not Authorized\");\r\n        _;\r\n    }\r\n\r\n    modifier onlyRoyaleLP() {\r\n        require(msg.sender == royaleAddress, \"Not authorized\");\r\n        _;\r\n    }\r\n    \r\n    constructor(\r\n         address _wallet,\r\n         IERC20[3] memory _tokens, \r\n         address _royaleaddress,\r\n         address _yieldDistributor,\r\n         address _pool,\r\n         address _poolToken,\r\n         address _wmatic,\r\n         address _gauge,\r\n         address _dfyn,\r\n         address _weth\r\n         ) public {\r\n\r\n        wallet=_wallet;\r\n        tokens = _tokens;\r\n        royaleAddress =_royaleaddress;\r\n        yieldDistributor=_yieldDistributor;\r\n        pool = aavePool(_pool);\r\n        poolToken = IERC20(_poolToken);\r\n        WMatic=IERC20(_wmatic);\r\n        gauge = aaveGauge(_gauge);\r\n        dfyn=DFYN(_dfyn);\r\n        weth=_weth;\r\n    }\r\n    \r\n    \r\n    function nominateNewOwner(address _wallet) external onlyWallet {\r\n        nominatedWallet = _wallet;\r\n        emit walletNominated(_wallet);\r\n    }\r\n\r\n    function acceptOwnership() external {\r\n        require(msg.sender == nominatedWallet, \"You must be nominated before you can accept ownership\");\r\n        emit walletChanged(wallet, nominatedWallet);\r\n        wallet = nominatedWallet;\r\n        nominatedWallet = address(0);\r\n    }\r\n\r\n    function changeRoyaleLP(address _address)external onlyWallet(){\r\n        royaleAddress=_address;\r\n    }\r\n\r\n    function changeYieldDistributor(address _address)external onlyWallet(){\r\n        yieldDistributor=_address;\r\n    }\r\n    \r\n    function changeDepositSlip(uint _value)external onlyWallet(){\r\n        depositSlip=_value;\r\n    }\r\n    \r\n    function changeWithdrawSlip(uint _value)external onlyWallet(){\r\n        withdrawSlip=_value;\r\n    }\r\n    \r\n    // deposits stable tokens into the aave pool and stake recived LPtoken in the curve aave pool gauge\r\n    function deposit(uint[N_COINS] memory amounts) external onlyRoyaleLP(){\r\n        uint currentTotal;\r\n        for(uint8 i=0; i<N_COINS; i++) {\r\n            if(amounts[i] > 0) {\r\n               uint decimal;\r\n               decimal=tokens[i].decimals();\r\n               tokens[i].safeApprove(address(pool),0);\r\n               tokens[i].safeApprove(address(pool), amounts[i]); \r\n               currentTotal =currentTotal.add(amounts[i].mul(1e18).div(10**decimal));\r\n            }\r\n        }\r\n        uint256 mintAmount = currentTotal.mul(1e18).div(pool.get_virtual_price());\r\n        pool.add_liquidity(amounts,  mintAmount.mul(DENOMINATOR.sub(depositSlip)).div(DENOMINATOR),true);\r\n        stakeLP();   \r\n    }\r\n    \r\n    //withdraws stable tokens from the aave pool.Unstake required LPtokens and stake LP tokens if not used.\r\n    function withdraw(uint[N_COINS] memory amounts,uint[N_COINS] memory max_burn) external onlyRoyaleLP() {\r\n        uint burnAmount;\r\n        for(uint i=0;i<N_COINS;i++){\r\n             burnAmount = burnAmount.add(max_burn[i]);\r\n        }\r\n        burnAmount=burnAmount.mul(DENOMINATOR.add(withdrawSlip)).div(DENOMINATOR);\r\n        unstakeLP(burnAmount);\r\n        pool.remove_liquidity_imbalance(amounts, burnAmount,true);\r\n        for(uint8 i=0;i<N_COINS;i++){\r\n            if(amounts[i]!=0){\r\n               tokens[i].safeTransfer(royaleAddress, tokens[i].balanceOf(address(this)));\r\n            }\r\n        }\r\n        if(poolToken.balanceOf(address(this))>0){\r\n            stakeLP();\r\n        } \r\n    }\r\n    \r\n    //unstake all the LPtokens and withdraw all the Stable tokens from aave pool \r\n    function withdrawAll() external onlyRoyaleLP() returns(uint256[N_COINS] memory){\r\n       unstakeLP(gauge.balanceOf(address(this)));\r\n        uint256[N_COINS] memory withdrawAmt;\r\n        pool.remove_liquidity(poolToken.balanceOf(address(this)),withdrawAmt,true);\r\n        for(uint8 i=0;i<N_COINS;i++){\r\n            if(tokens[i].balanceOf(address(this))!=0){\r\n                withdrawAmt[i]=tokens[i].balanceOf(address(this));\r\n                tokens[i].safeTransfer(royaleAddress,withdrawAmt[i]); \r\n            }\r\n        }\r\n        return withdrawAmt; \r\n    } \r\n    \r\n    //Stakes LP token into the curve aave pool gauage\r\n    function stakeLP() public onlyAuthorized() {\r\n        uint depositAmt = poolToken.balanceOf(address(this)) ;\r\n        poolToken.safeApprove(address(gauge),0);\r\n        poolToken.safeApprove(address(gauge), depositAmt);\r\n        gauge.deposit(depositAmt);  \r\n        emit staked(depositAmt);\r\n    }\r\n    \r\n    //For unstaking LP tokens\r\n    function unstakeLP(uint _amount) public  onlyAuthorized(){\r\n        require(gauge.balanceOf(address(this)) >= _amount,\"You have not staked that much amount\");\r\n        gauge.withdraw(_amount);\r\n        emit unstaked(_amount);\r\n    }\r\n    \r\n    //function for claiming wmatic rewards\r\n    function claimWMatic()external onlyWallet(){\r\n        gauge.claim_rewards();\r\n    }\r\n    \r\n    //function for claiming historic rewards\r\n    function claimHistoricReward(address[8] memory _rewardTokens)external onlyWallet(){\r\n        gauge.claim_historic_rewards(_rewardTokens);\r\n    }\r\n    \r\n    function swapWMatic(uint _amount,uint _minimumAmount,uint _index)external onlyWallet(){\r\n        require(WMatic.balanceOf(address(this))>=_amount,\"Insufficient WMatic amount\");\r\n        WMatic.safeApprove(address(dfyn),0);\r\n        WMatic.safeApprove(address(dfyn),_amount);\r\n        address[] memory path;\r\n        path = new address[](3);\r\n        path[0] = address(WMatic);\r\n        path[1] = weth;\r\n        path[2] = address(tokens[_index]);\r\n        dfyn.swapExactTokensForTokens(\r\n            _amount, \r\n            _minimumAmount, \r\n            path, \r\n            address(yieldDistributor), \r\n            now + 600\r\n        );\r\n    }\r\n    \r\n    // Added to support recovering tokens\r\n    function recoverERC20(address _tokenAddress, uint256 _tokenAmount) external onlyWallet() {\r\n        require(_tokenAddress != address(poolToken), \"Cannot withdraw LP token\");\r\n        IERC20(_tokenAddress).safeTransfer(address(yieldDistributor), _tokenAmount);\r\n        emit Recovered(_tokenAddress, _tokenAmount);\r\n    }\r\n    \r\n\r\n    event unstaked(uint amount);\r\n    event staked(uint amount);\r\n    event walletNominated(address newOwner);\r\n    event walletChanged(address oldOwner, address newOwner); \r\n    event Recovered(address,uint);\r\n    \r\n}\r\n",
  "sourcePath": "C:/Users/vishn/OneDrive/Desktop/codezero2pi/RoyaleMatic/royale-contracts/contracts/Pool/AaveStrategy.sol",
  "compiler": {
    "name": "solc",
    "version": "0.6.12+commit.27d51765.Emscripten.clang"
  },
  "schemaVersion": "3.3.2",
  "updatedAt": "2021-06-01T10:30:46.151Z",
  "networkType": "ethereum",
  "devdoc": {
    "kind": "dev",
    "methods": {},
    "version": 1
  },
  "userdoc": {
    "kind": "user",
    "methods": {},
    "version": 1
  }
}