{
  "contractName": "CurveStrategy",
  "abi": [
    {
      "inputs": [
        {
          "internalType": "address",
          "name": "_wallet",
          "type": "address"
        },
        {
          "internalType": "contract IERC20[3]",
          "name": "_tokens",
          "type": "address[3]"
        },
        {
          "internalType": "address",
          "name": "_royaleaddress",
          "type": "address"
        },
        {
          "internalType": "address",
          "name": "_yieldDistributor",
          "type": "address"
        },
        {
          "internalType": "address",
          "name": "_crvpool",
          "type": "address"
        },
        {
          "internalType": "address",
          "name": "_poolToken",
          "type": "address"
        },
        {
          "internalType": "address",
          "name": "_gauge",
          "type": "address"
        },
        {
          "internalType": "address",
          "name": "_minter",
          "type": "address"
        },
        {
          "internalType": "address",
          "name": "_uniAddress",
          "type": "address"
        },
        {
          "internalType": "address",
          "name": "_crvAddress",
          "type": "address"
        },
        {
          "internalType": "address",
          "name": "_wethAddress",
          "type": "address"
        },
        {
          "internalType": "address",
          "name": "_voteEscrow",
          "type": "address"
        },
        {
          "internalType": "address",
          "name": "_feeDistributor",
          "type": "address"
        }
      ],
      "stateMutability": "nonpayable",
      "type": "constructor"
    },
    {
      "anonymous": false,
      "inputs": [],
      "name": "crvClaimed",
      "type": "event"
    },
    {
      "anonymous": false,
      "inputs": [
        {
          "indexed": false,
          "internalType": "uint256",
          "name": "amount",
          "type": "uint256"
        }
      ],
      "name": "locked",
      "type": "event"
    },
    {
      "anonymous": false,
      "inputs": [
        {
          "indexed": false,
          "internalType": "uint256",
          "name": "amount",
          "type": "uint256"
        }
      ],
      "name": "staked",
      "type": "event"
    },
    {
      "anonymous": false,
      "inputs": [],
      "name": "unlocked",
      "type": "event"
    },
    {
      "anonymous": false,
      "inputs": [
        {
          "indexed": false,
          "internalType": "uint256",
          "name": "amount",
          "type": "uint256"
        }
      ],
      "name": "unstaked",
      "type": "event"
    },
    {
      "anonymous": false,
      "inputs": [
        {
          "indexed": false,
          "internalType": "address",
          "name": "oldOwner",
          "type": "address"
        },
        {
          "indexed": false,
          "internalType": "address",
          "name": "newOwner",
          "type": "address"
        }
      ],
      "name": "walletChanged",
      "type": "event"
    },
    {
      "anonymous": false,
      "inputs": [
        {
          "indexed": false,
          "internalType": "address",
          "name": "newOwner",
          "type": "address"
        }
      ],
      "name": "walletNominated",
      "type": "event"
    },
    {
      "anonymous": false,
      "inputs": [
        {
          "indexed": false,
          "internalType": "uint256",
          "name": "index",
          "type": "uint256"
        },
        {
          "indexed": false,
          "internalType": "uint256",
          "name": "coin",
          "type": "uint256"
        }
      ],
      "name": "yieldTransfered",
      "type": "event"
    },
    {
      "inputs": [],
      "name": "DENOMINATOR",
      "outputs": [
        {
          "internalType": "uint256",
          "name": "",
          "type": "uint256"
        }
      ],
      "stateMutability": "view",
      "type": "function"
    },
    {
      "inputs": [],
      "name": "TEST",
      "outputs": [
        {
          "internalType": "bool",
          "name": "",
          "type": "bool"
        }
      ],
      "stateMutability": "view",
      "type": "function"
    },
    {
      "inputs": [],
      "name": "crvAddr",
      "outputs": [
        {
          "internalType": "contract IERC20",
          "name": "",
          "type": "address"
        }
      ],
      "stateMutability": "view",
      "type": "function"
    },
    {
      "inputs": [],
      "name": "crvBreak",
      "outputs": [
        {
          "internalType": "uint256",
          "name": "",
          "type": "uint256"
        }
      ],
      "stateMutability": "view",
      "type": "function"
    },
    {
      "inputs": [],
      "name": "depositSlip",
      "outputs": [
        {
          "internalType": "uint256",
          "name": "",
          "type": "uint256"
        }
      ],
      "stateMutability": "view",
      "type": "function"
    },
    {
      "inputs": [],
      "name": "feeDistributor",
      "outputs": [
        {
          "internalType": "contract FeeDistributor",
          "name": "",
          "type": "address"
        }
      ],
      "stateMutability": "view",
      "type": "function"
    },
    {
      "inputs": [],
      "name": "gauge",
      "outputs": [
        {
          "internalType": "contract PoolGauge",
          "name": "",
          "type": "address"
        }
      ],
      "stateMutability": "view",
      "type": "function"
    },
    {
      "inputs": [],
      "name": "minter",
      "outputs": [
        {
          "internalType": "contract Minter",
          "name": "",
          "type": "address"
        }
      ],
      "stateMutability": "view",
      "type": "function"
    },
    {
      "inputs": [],
      "name": "nominatedWallet",
      "outputs": [
        {
          "internalType": "address",
          "name": "",
          "type": "address"
        }
      ],
      "stateMutability": "view",
      "type": "function"
    },
    {
      "inputs": [],
      "name": "pool",
      "outputs": [
        {
          "internalType": "contract CurvePool",
          "name": "",
          "type": "address"
        }
      ],
      "stateMutability": "view",
      "type": "function"
    },
    {
      "inputs": [],
      "name": "poolToken",
      "outputs": [
        {
          "internalType": "contract IERC20",
          "name": "",
          "type": "address"
        }
      ],
      "stateMutability": "view",
      "type": "function"
    },
    {
      "inputs": [],
      "name": "royaleAddress",
      "outputs": [
        {
          "internalType": "address",
          "name": "",
          "type": "address"
        }
      ],
      "stateMutability": "view",
      "type": "function"
    },
    {
      "inputs": [
        {
          "internalType": "uint256",
          "name": "",
          "type": "uint256"
        }
      ],
      "name": "tokens",
      "outputs": [
        {
          "internalType": "contract IERC20",
          "name": "",
          "type": "address"
        }
      ],
      "stateMutability": "view",
      "type": "function"
    },
    {
      "inputs": [],
      "name": "uniAddr",
      "outputs": [
        {
          "internalType": "contract UniswapI",
          "name": "",
          "type": "address"
        }
      ],
      "stateMutability": "view",
      "type": "function"
    },
    {
      "inputs": [],
      "name": "uniswapSlippage",
      "outputs": [
        {
          "internalType": "uint256",
          "name": "",
          "type": "uint256"
        }
      ],
      "stateMutability": "view",
      "type": "function"
    },
    {
      "inputs": [],
      "name": "voteEscrow",
      "outputs": [
        {
          "internalType": "contract VoteEscrow",
          "name": "",
          "type": "address"
        }
      ],
      "stateMutability": "view",
      "type": "function"
    },
    {
      "inputs": [],
      "name": "wallet",
      "outputs": [
        {
          "internalType": "address",
          "name": "",
          "type": "address"
        }
      ],
      "stateMutability": "view",
      "type": "function"
    },
    {
      "inputs": [],
      "name": "wethAddr",
      "outputs": [
        {
          "internalType": "address",
          "name": "",
          "type": "address"
        }
      ],
      "stateMutability": "view",
      "type": "function"
    },
    {
      "inputs": [],
      "name": "withdrawSlip",
      "outputs": [
        {
          "internalType": "uint256",
          "name": "",
          "type": "uint256"
        }
      ],
      "stateMutability": "view",
      "type": "function"
    },
    {
      "inputs": [],
      "name": "yieldDistributor",
      "outputs": [
        {
          "internalType": "address",
          "name": "",
          "type": "address"
        }
      ],
      "stateMutability": "view",
      "type": "function"
    },
    {
      "inputs": [
        {
          "internalType": "uint256",
          "name": "_percentage",
          "type": "uint256"
        }
      ],
      "name": "setCRVBreak",
      "outputs": [],
      "stateMutability": "nonpayable",
      "type": "function"
    },
    {
      "inputs": [
        {
          "internalType": "address",
          "name": "_wallet",
          "type": "address"
        }
      ],
      "name": "nominateNewOwner",
      "outputs": [],
      "stateMutability": "nonpayable",
      "type": "function"
    },
    {
      "inputs": [],
      "name": "acceptOwnership",
      "outputs": [],
      "stateMutability": "nonpayable",
      "type": "function"
    },
    {
      "inputs": [
        {
          "internalType": "address",
          "name": "_address",
          "type": "address"
        }
      ],
      "name": "changeRoyaleLP",
      "outputs": [],
      "stateMutability": "nonpayable",
      "type": "function"
    },
    {
      "inputs": [
        {
          "internalType": "address",
          "name": "_address",
          "type": "address"
        }
      ],
      "name": "changeYieldDistributor",
      "outputs": [],
      "stateMutability": "nonpayable",
      "type": "function"
    },
    {
      "inputs": [
        {
          "internalType": "uint256",
          "name": "_value",
          "type": "uint256"
        }
      ],
      "name": "changeDepositSlip",
      "outputs": [],
      "stateMutability": "nonpayable",
      "type": "function"
    },
    {
      "inputs": [
        {
          "internalType": "uint256",
          "name": "_value",
          "type": "uint256"
        }
      ],
      "name": "changeWithdrawSlip",
      "outputs": [],
      "stateMutability": "nonpayable",
      "type": "function"
    },
    {
      "inputs": [
        {
          "internalType": "uint256",
          "name": "_value",
          "type": "uint256"
        }
      ],
      "name": "changeUniswapSlippage",
      "outputs": [],
      "stateMutability": "nonpayable",
      "type": "function"
    },
    {
      "inputs": [
        {
          "internalType": "uint256[3]",
          "name": "amounts",
          "type": "uint256[3]"
        }
      ],
      "name": "deposit",
      "outputs": [],
      "stateMutability": "nonpayable",
      "type": "function"
    },
    {
      "inputs": [
        {
          "internalType": "uint256[3]",
          "name": "amounts",
          "type": "uint256[3]"
        },
        {
          "internalType": "uint256[3]",
          "name": "max_burn",
          "type": "uint256[3]"
        }
      ],
      "name": "withdraw",
      "outputs": [],
      "stateMutability": "nonpayable",
      "type": "function"
    },
    {
      "inputs": [],
      "name": "withdrawAll",
      "outputs": [
        {
          "internalType": "uint256[3]",
          "name": "",
          "type": "uint256[3]"
        }
      ],
      "stateMutability": "nonpayable",
      "type": "function"
    },
    {
      "inputs": [],
      "name": "stakeLP",
      "outputs": [],
      "stateMutability": "nonpayable",
      "type": "function"
    },
    {
      "inputs": [
        {
          "internalType": "uint256",
          "name": "_amount",
          "type": "uint256"
        }
      ],
      "name": "unstakeLP",
      "outputs": [],
      "stateMutability": "nonpayable",
      "type": "function"
    },
    {
      "inputs": [],
      "name": "checkClaimableToken",
      "outputs": [
        {
          "internalType": "uint256",
          "name": "",
          "type": "uint256"
        }
      ],
      "stateMutability": "view",
      "type": "function"
    },
    {
      "inputs": [],
      "name": "claimCRV",
      "outputs": [],
      "stateMutability": "nonpayable",
      "type": "function"
    },
    {
      "inputs": [
        {
          "internalType": "uint256",
          "name": "_value",
          "type": "uint256"
        },
        {
          "internalType": "uint256",
          "name": "_unlockTime",
          "type": "uint256"
        }
      ],
      "name": "createLock",
      "outputs": [],
      "stateMutability": "nonpayable",
      "type": "function"
    },
    {
      "inputs": [
        {
          "internalType": "uint256",
          "name": "_value",
          "type": "uint256"
        }
      ],
      "name": "increaseLockAmount",
      "outputs": [],
      "stateMutability": "nonpayable",
      "type": "function"
    },
    {
      "inputs": [],
      "name": "releaseLock",
      "outputs": [],
      "stateMutability": "nonpayable",
      "type": "function"
    },
    {
      "inputs": [],
      "name": "claim3CRV",
      "outputs": [],
      "stateMutability": "nonpayable",
      "type": "function"
    },
    {
      "inputs": [
        {
          "internalType": "uint8",
          "name": "_index",
          "type": "uint8"
        },
        {
          "internalType": "uint256",
          "name": "_amount",
          "type": "uint256"
        }
      ],
      "name": "sellCRV",
      "outputs": [
        {
          "internalType": "uint256",
          "name": "",
          "type": "uint256"
        }
      ],
      "stateMutability": "nonpayable",
      "type": "function"
    },
    {
      "inputs": [],
      "name": "gaugeVeCRVCalculator",
      "outputs": [
        {
          "internalType": "uint256",
          "name": "",
          "type": "uint256"
        }
      ],
      "stateMutability": "view",
      "type": "function"
    }
  ],
  "bytecode": "0x60806040526064600e5560c8600f5560326010556127106013556001601460006101000a81548160ff0219169083151502179055503480156200004157600080fd5b506040516200556d3803806200556d83398181016040526101e08110156200006857600080fd5b810190808051906020019092919091908260600180519060200190929190805190602001909291908051906020019092919080519060200190929190805190602001909291908051906020019092919080519060200190929190805190602001909291908051906020019092919080519060200190929190805190602001909291905050508c601160006101000a81548173ffffffffffffffffffffffffffffffffffffffff021916908373ffffffffffffffffffffffffffffffffffffffff1602179055508b6003906003620001419291906200041f565b508a6000806101000a81548173ffffffffffffffffffffffffffffffffffffffff021916908373ffffffffffffffffffffffffffffffffffffffff16021790555089600160006101000a81548173ffffffffffffffffffffffffffffffffffffffff021916908373ffffffffffffffffffffffffffffffffffffffff16021790555088600660006101000a81548173ffffffffffffffffffffffffffffffffffffffff021916908373ffffffffffffffffffffffffffffffffffffffff16021790555087600260006101000a81548173ffffffffffffffffffffffffffffffffffffffff021916908373ffffffffffffffffffffffffffffffffffffffff16021790555086600760006101000a81548173ffffffffffffffffffffffffffffffffffffffff021916908373ffffffffffffffffffffffffffffffffffffffff16021790555085600860006101000a81548173ffffffffffffffffffffffffffffffffffffffff021916908373ffffffffffffffffffffffffffffffffffffffff16021790555084600b60006101000a81548173ffffffffffffffffffffffffffffffffffffffff021916908373ffffffffffffffffffffffffffffffffffffffff16021790555083600c60006101000a81548173ffffffffffffffffffffffffffffffffffffffff021916908373ffffffffffffffffffffffffffffffffffffffff16021790555082600d60006101000a81548173ffffffffffffffffffffffffffffffffffffffff021916908373ffffffffffffffffffffffffffffffffffffffff16021790555080600a60006101000a81548173ffffffffffffffffffffffffffffffffffffffff021916908373ffffffffffffffffffffffffffffffffffffffff16021790555081600960006101000a81548173ffffffffffffffffffffffffffffffffffffffff021916908373ffffffffffffffffffffffffffffffffffffffff16021790555050505050505050505050505050620004de565b82600381019282156200048e579160200282015b828111156200048d5782518260006101000a81548173ffffffffffffffffffffffffffffffffffffffff021916908373ffffffffffffffffffffffffffffffffffffffff1602179055509160200191906001019062000433565b5b5090506200049d9190620004a1565b5090565b5b80821115620004da57600081816101000a81549073ffffffffffffffffffffffffffffffffffffffff021916905550600101620004a2565b5090565b61507f80620004ee6000396000f3fe608060405234801561001057600080fd5b50600436106102535760003560e01c8063853828b611610146578063cbdf382c116100c3578063dbbcbd3d11610087578063dbbcbd3d146108e6578063e68403e814610904578063e96e89dc146109aa578063eda54ad2146109d8578063f166f3e8146109e2578063f7ee0b8e146109ec57610253565b8063cbdf382c146107c2578063d2d59769146107f6578063d3639ae314610845578063d4e20b0114610863578063da9ced1d146108c857610253565b8063a38c2c3d1161010a578063a38c2c3d146106c0578063a6f19c84146106f4578063a8c4d3ae14610728578063b52c05fe1461075c578063c47789981461079457610253565b8063853828b6146105dc57806389ee8ec0146106225780638f2e81ea146106405780639019a2851461066e578063918f8674146106a257610253565b80634f64b2be116101d457806374b21fbe1161019857806374b21fbe146104f257806379ba50971461052657806379f9ae1f146105305780637b158f38146105745780637d5aa5f4146105a857610253565b80634f64b2be146103fa57806351d977a614610452578063521eb273146104725780636e75702e146104a657806371968f1d146104c457610253565b80632b51a0951161021b5780632b51a09514610342578063393403b714610376578063403f44471461039457806348f8f6d9146103c25780634df50a55146103cc57610253565b806307546172146102585780630d43e8ad1461028c57806310ff582d146102c05780631627540c146102ca57806316f0115b1461030e575b600080fd5b610260610a30565b604051808273ffffffffffffffffffffffffffffffffffffffff16815260200191505060405180910390f35b610294610a56565b604051808273ffffffffffffffffffffffffffffffffffffffff16815260200191505060405180910390f35b6102c8610a7c565b005b61030c600480360360208110156102e057600080fd5b81019080803573ffffffffffffffffffffffffffffffffffffffff169060200190929190505050610e03565b005b610316610f57565b604051808273ffffffffffffffffffffffffffffffffffffffff16815260200191505060405180910390f35b61034a610f7d565b604051808273ffffffffffffffffffffffffffffffffffffffff16815260200191505060405180910390f35b61037e610fa1565b6040518082815260200191505060405180910390f35b6103c0600480360360208110156103aa57600080fd5b81019080803590602001909291905050506112e7565b005b6103ca611550565b005b6103f8600480360360208110156103e257600080fd5b810190808035906020019092919050505061175c565b005b6104266004803603602081101561041057600080fd5b8101908080359060200190929190505050611829565b604051808273ffffffffffffffffffffffffffffffffffffffff16815260200191505060405180910390f35b61045a61185c565b60405180821515815260200191505060405180910390f35b61047a61186f565b604051808273ffffffffffffffffffffffffffffffffffffffff16815260200191505060405180910390f35b6104ae611895565b6040518082815260200191505060405180910390f35b6104f0600480360360208110156104da57600080fd5b810190808035906020019092919050505061189b565b005b6104fa611968565b604051808273ffffffffffffffffffffffffffffffffffffffff16815260200191505060405180910390f35b61052e61198e565b005b6105726004803603602081101561054657600080fd5b81019080803573ffffffffffffffffffffffffffffffffffffffff169060200190929190505050611b8a565b005b61057c611c91565b604051808273ffffffffffffffffffffffffffffffffffffffff16815260200191505060405180910390f35b6105b0611cb7565b604051808273ffffffffffffffffffffffffffffffffffffffff16815260200191505060405180910390f35b6105e4611cdd565b6040518082600360200280838360005b8381101561060f5780820151818401526020810190506105f4565b5050505090500191505060405180910390f35b61062a612273565b6040518082815260200191505060405180910390f35b61066c6004803603602081101561065657600080fd5b8101908080359060200190929190505050612279565b005b610676612346565b604051808273ffffffffffffffffffffffffffffffffffffffff16815260200191505060405180910390f35b6106aa61236c565b6040518082815260200191505060405180910390f35b6106c8612372565b604051808273ffffffffffffffffffffffffffffffffffffffff16815260200191505060405180910390f35b6106fc612398565b604051808273ffffffffffffffffffffffffffffffffffffffff16815260200191505060405180910390f35b6107306123be565b604051808273ffffffffffffffffffffffffffffffffffffffff16815260200191505060405180910390f35b6107926004803603604081101561077257600080fd5b8101908080359060200190929190803590602001909291905050506123e4565b005b6107c0600480360360208110156107aa57600080fd5b8101908080359060200190929190505050612656565b005b6107ca612952565b604051808273ffffffffffffffffffffffffffffffffffffffff16815260200191505060405180910390f35b61082f6004803603604081101561080c57600080fd5b81019080803560ff16906020019092919080359060200190929190505050612978565b6040518082815260200191505060405180910390f35b61084d61334a565b6040518082815260200191505060405180910390f35b6108c66004803603606081101561087957600080fd5b8101908080606001906003806020026040519081016040528092919082600360200280828437600081840152601f19601f8201169050808301925050505050509192919290505050613415565b005b6108d061390f565b6040518082815260200191505060405180910390f35b6108ee613915565b6040518082815260200191505060405180910390f35b6109a8600480360360c081101561091a57600080fd5b8101908080606001906003806020026040519081016040528092919082600360200280828437600081840152601f19601f820116905080830192505050505050919291929080606001906003806020026040519081016040528092919082600360200280828437600081840152601f19601f820116905080830192505050505050919291929050505061391b565b005b6109d6600480360360208110156109c057600080fd5b8101908080359060200190929190505050613d86565b005b6109e0613e53565b005b6109ea613fc6565b005b610a2e60048036036020811015610a0257600080fd5b81019080803573ffffffffffffffffffffffffffffffffffffffff1690602001909291905050506145d9565b005b600860009054906101000a900473ffffffffffffffffffffffffffffffffffffffff1681565b600a60009054906101000a900473ffffffffffffffffffffffffffffffffffffffff1681565b3373ffffffffffffffffffffffffffffffffffffffff16601160009054906101000a900473ffffffffffffffffffffffffffffffffffffffff1673ffffffffffffffffffffffffffffffffffffffff161480610b23575060008054906101000a900473ffffffffffffffffffffffffffffffffffffffff1673ffffffffffffffffffffffffffffffffffffffff163373ffffffffffffffffffffffffffffffffffffffff16145b610b95576040517f08c379a000000000000000000000000000000000000000000000000000000000815260040180806020018281038252600e8152602001807f4e6f7420617574686f72697a656400000000000000000000000000000000000081525060200191505060405180910390fd5b6000600260009054906101000a900473ffffffffffffffffffffffffffffffffffffffff1673ffffffffffffffffffffffffffffffffffffffff166370a08231306040518263ffffffff1660e01b8152600401808273ffffffffffffffffffffffffffffffffffffffff16815260200191505060206040518083038186803b158015610c2057600080fd5b505afa158015610c34573d6000803e3d6000fd5b505050506040513d6020811015610c4a57600080fd5b81019080805190602001909291905050509050610ccd600760009054906101000a900473ffffffffffffffffffffffffffffffffffffffff166000600260009054906101000a900473ffffffffffffffffffffffffffffffffffffffff1673ffffffffffffffffffffffffffffffffffffffff166146df9092919063ffffffff16565b610d3c600760009054906101000a900473ffffffffffffffffffffffffffffffffffffffff1682600260009054906101000a900473ffffffffffffffffffffffffffffffffffffffff1673ffffffffffffffffffffffffffffffffffffffff166146df9092919063ffffffff16565b600760009054906101000a900473ffffffffffffffffffffffffffffffffffffffff1673ffffffffffffffffffffffffffffffffffffffff1663b6b55f25826040518263ffffffff1660e01b815260040180828152602001915050600060405180830381600087803b158015610db157600080fd5b505af1158015610dc5573d6000803e3d6000fd5b505050507f5e1bef326bd9222892c5e49c4e6756af0f42c0b91d698bd306965987bc1f9a7e816040518082815260200191505060405180910390a150565b3373ffffffffffffffffffffffffffffffffffffffff16601160009054906101000a900473ffffffffffffffffffffffffffffffffffffffff1673ffffffffffffffffffffffffffffffffffffffff1614610ec6576040517f08c379a000000000000000000000000000000000000000000000000000000000815260040180806020018281038252600e8152602001807f4e6f7420417574686f72697a656400000000000000000000000000000000000081525060200191505060405180910390fd5b80601260006101000a81548173ffffffffffffffffffffffffffffffffffffffff021916908373ffffffffffffffffffffffffffffffffffffffff1602179055507f34e5b3a286aa0821b202b74f9fa683c8f56e1f2875caafc853d080382896917881604051808273ffffffffffffffffffffffffffffffffffffffff16815260200191505060405180910390a150565b600660009054906101000a900473ffffffffffffffffffffffffffffffffffffffff1681565b60008054906101000a900473ffffffffffffffffffffffffffffffffffffffff1681565b6000806112de61105d603c600760009054906101000a900473ffffffffffffffffffffffffffffffffffffffff1673ffffffffffffffffffffffffffffffffffffffff166318160ddd6040518163ffffffff1660e01b815260040160206040518083038186803b15801561101457600080fd5b505afa158015611028573d6000803e3d6000fd5b505050506040513d602081101561103e57600080fd5b81019080805190602001909291905050506148a490919063ffffffff16565b6112d0600960009054906101000a900473ffffffffffffffffffffffffffffffffffffffff1673ffffffffffffffffffffffffffffffffffffffff166318160ddd6040518163ffffffff1660e01b815260040160206040518083038186803b1580156110c857600080fd5b505afa1580156110dc573d6000803e3d6000fd5b505050506040513d60208110156110f257600080fd5b81019080805190602001909291905050506112c26111dd6028600760009054906101000a900473ffffffffffffffffffffffffffffffffffffffff1673ffffffffffffffffffffffffffffffffffffffff166370a08231306040518263ffffffff1660e01b8152600401808273ffffffffffffffffffffffffffffffffffffffff16815260200191505060206040518083038186803b15801561119457600080fd5b505afa1580156111a8573d6000803e3d6000fd5b505050506040513d60208110156111be57600080fd5b81019080805190602001909291905050506148a490919063ffffffff16565b6112b46064600760009054906101000a900473ffffffffffffffffffffffffffffffffffffffff1673ffffffffffffffffffffffffffffffffffffffff166370a08231306040518263ffffffff1660e01b8152600401808273ffffffffffffffffffffffffffffffffffffffff16815260200191505060206040518083038186803b15801561126b57600080fd5b505afa15801561127f573d6000803e3d6000fd5b505050506040513d602081101561129557600080fd5b81019080805190602001909291905050506148a490919063ffffffff16565b61492a90919063ffffffff16565b6148a490919063ffffffff16565b6149ad90919063ffffffff16565b90508091505090565b3373ffffffffffffffffffffffffffffffffffffffff16601160009054906101000a900473ffffffffffffffffffffffffffffffffffffffff1673ffffffffffffffffffffffffffffffffffffffff16146113aa576040517f08c379a000000000000000000000000000000000000000000000000000000000815260040180806020018281038252600e8152602001807f4e6f7420417574686f72697a656400000000000000000000000000000000000081525060200191505060405180910390fd5b61141a600960009054906101000a900473ffffffffffffffffffffffffffffffffffffffff166000600c60009054906101000a900473ffffffffffffffffffffffffffffffffffffffff1673ffffffffffffffffffffffffffffffffffffffff166146df9092919063ffffffff16565b611489600960009054906101000a900473ffffffffffffffffffffffffffffffffffffffff1682600c60009054906101000a900473ffffffffffffffffffffffffffffffffffffffff1673ffffffffffffffffffffffffffffffffffffffff166146df9092919063ffffffff16565b600960009054906101000a900473ffffffffffffffffffffffffffffffffffffffff1673ffffffffffffffffffffffffffffffffffffffff16634957677c826040518263ffffffff1660e01b815260040180828152602001915050600060405180830381600087803b1580156114fe57600080fd5b505af1158015611512573d6000803e3d6000fd5b505050507fb45a3c0e2dcd2f560d00e18d58bb2bc636f1540eba5f84061a0154f14ca84992816040518082815260200191505060405180910390a150565b3373ffffffffffffffffffffffffffffffffffffffff16601160009054906101000a900473ffffffffffffffffffffffffffffffffffffffff1673ffffffffffffffffffffffffffffffffffffffff1614806115f7575060008054906101000a900473ffffffffffffffffffffffffffffffffffffffff1673ffffffffffffffffffffffffffffffffffffffff163373ffffffffffffffffffffffffffffffffffffffff16145b611669576040517f08c379a000000000000000000000000000000000000000000000000000000000815260040180806020018281038252600e8152602001807f4e6f7420617574686f72697a656400000000000000000000000000000000000081525060200191505060405180910390fd5b600860009054906101000a900473ffffffffffffffffffffffffffffffffffffffff1673ffffffffffffffffffffffffffffffffffffffff16636a627842600760009054906101000a900473ffffffffffffffffffffffffffffffffffffffff166040518263ffffffff1660e01b8152600401808273ffffffffffffffffffffffffffffffffffffffff168152602001915050600060405180830381600087803b15801561171657600080fd5b505af115801561172a573d6000803e3d6000fd5b505050507f79f93d1b0062276af10ff82b062487b30ed85153e7d3a52ed67d7cf7529ec2b960405160405180910390a1565b3373ffffffffffffffffffffffffffffffffffffffff16601160009054906101000a900473ffffffffffffffffffffffffffffffffffffffff1673ffffffffffffffffffffffffffffffffffffffff161461181f576040517f08c379a000000000000000000000000000000000000000000000000000000000815260040180806020018281038252600e8152602001807f4e6f7420417574686f72697a656400000000000000000000000000000000000081525060200191505060405180910390fd5b8060138190555050565b6003816003811061183657fe5b016000915054906101000a900473ffffffffffffffffffffffffffffffffffffffff1681565b601460009054906101000a900460ff1681565b601160009054906101000a900473ffffffffffffffffffffffffffffffffffffffff1681565b600f5481565b3373ffffffffffffffffffffffffffffffffffffffff16601160009054906101000a900473ffffffffffffffffffffffffffffffffffffffff1673ffffffffffffffffffffffffffffffffffffffff161461195e576040517f08c379a000000000000000000000000000000000000000000000000000000000815260040180806020018281038252600e8152602001807f4e6f7420417574686f72697a656400000000000000000000000000000000000081525060200191505060405180910390fd5b80600e8190555050565b600c60009054906101000a900473ffffffffffffffffffffffffffffffffffffffff1681565b601260009054906101000a900473ffffffffffffffffffffffffffffffffffffffff1673ffffffffffffffffffffffffffffffffffffffff163373ffffffffffffffffffffffffffffffffffffffff1614611a34576040517f08c379a0000000000000000000000000000000000000000000000000000000008152600401808060200182810382526035815260200180614f4a6035913960400191505060405180910390fd5b7f6058119c217577f8ad236dec0d66116c29ed9d1f362482f49becdbffe3ae0df1601160009054906101000a900473ffffffffffffffffffffffffffffffffffffffff16601260009054906101000a900473ffffffffffffffffffffffffffffffffffffffff16604051808373ffffffffffffffffffffffffffffffffffffffff1681526020018273ffffffffffffffffffffffffffffffffffffffff1681526020019250505060405180910390a1601260009054906101000a900473ffffffffffffffffffffffffffffffffffffffff16601160006101000a81548173ffffffffffffffffffffffffffffffffffffffff021916908373ffffffffffffffffffffffffffffffffffffffff1602179055506000601260006101000a81548173ffffffffffffffffffffffffffffffffffffffff021916908373ffffffffffffffffffffffffffffffffffffffff160217905550565b3373ffffffffffffffffffffffffffffffffffffffff16601160009054906101000a900473ffffffffffffffffffffffffffffffffffffffff1673ffffffffffffffffffffffffffffffffffffffff1614611c4d576040517f08c379a000000000000000000000000000000000000000000000000000000000815260040180806020018281038252600e8152602001807f4e6f7420417574686f72697a656400000000000000000000000000000000000081525060200191505060405180910390fd5b80600160006101000a81548173ffffffffffffffffffffffffffffffffffffffff021916908373ffffffffffffffffffffffffffffffffffffffff16021790555050565b600b60009054906101000a900473ffffffffffffffffffffffffffffffffffffffff1681565b600d60009054906101000a900473ffffffffffffffffffffffffffffffffffffffff1681565b611ce5614f27565b60008054906101000a900473ffffffffffffffffffffffffffffffffffffffff1673ffffffffffffffffffffffffffffffffffffffff163373ffffffffffffffffffffffffffffffffffffffff1614611da6576040517f08c379a000000000000000000000000000000000000000000000000000000000815260040180806020018281038252600e8152602001807f4e6f7420617574686f72697a656400000000000000000000000000000000000081525060200191505060405180910390fd5b611e72600760009054906101000a900473ffffffffffffffffffffffffffffffffffffffff1673ffffffffffffffffffffffffffffffffffffffff166370a08231306040518263ffffffff1660e01b8152600401808273ffffffffffffffffffffffffffffffffffffffff16815260200191505060206040518083038186803b158015611e3257600080fd5b505afa158015611e46573d6000803e3d6000fd5b505050506040513d6020811015611e5c57600080fd5b8101908080519060200190929190505050612656565b611e7a614f27565b600660009054906101000a900473ffffffffffffffffffffffffffffffffffffffff1673ffffffffffffffffffffffffffffffffffffffff1663ecb586a5600260009054906101000a900473ffffffffffffffffffffffffffffffffffffffff1673ffffffffffffffffffffffffffffffffffffffff166370a08231306040518263ffffffff1660e01b8152600401808273ffffffffffffffffffffffffffffffffffffffff16815260200191505060206040518083038186803b158015611f4157600080fd5b505afa158015611f55573d6000803e3d6000fd5b505050506040513d6020811015611f6b57600080fd5b8101908080519060200190929190505050836040518363ffffffff1660e01b81526004018083815260200182600360200280838360005b83811015611fbd578082015181840152602081019050611fa2565b5050505090500192505050600060405180830381600087803b158015611fe257600080fd5b505af1158015611ff6573d6000803e3d6000fd5b5050505060005b60038160ff16101561226b57600060038260ff166003811061201b57fe5b0160009054906101000a900473ffffffffffffffffffffffffffffffffffffffff1673ffffffffffffffffffffffffffffffffffffffff166370a08231306040518263ffffffff1660e01b8152600401808273ffffffffffffffffffffffffffffffffffffffff16815260200191505060206040518083038186803b1580156120a357600080fd5b505afa1580156120b7573d6000803e3d6000fd5b505050506040513d60208110156120cd57600080fd5b81019080805190602001909291905050501461225e5760038160ff16600381106120f357fe5b0160009054906101000a900473ffffffffffffffffffffffffffffffffffffffff1673ffffffffffffffffffffffffffffffffffffffff166370a08231306040518263ffffffff1660e01b8152600401808273ffffffffffffffffffffffffffffffffffffffff16815260200191505060206040518083038186803b15801561217b57600080fd5b505afa15801561218f573d6000803e3d6000fd5b505050506040513d60208110156121a557600080fd5b8101908080519060200190929190505050828260ff16600381106121c557fe5b60200201818152505061225d60008054906101000a900473ffffffffffffffffffffffffffffffffffffffff16838360ff166003811061220157fe5b602002015160038460ff166003811061221657fe5b0160009054906101000a900473ffffffffffffffffffffffffffffffffffffffff1673ffffffffffffffffffffffffffffffffffffffff16614a369092919063ffffffff16565b5b8080600101915050611ffd565b508091505090565b60105481565b3373ffffffffffffffffffffffffffffffffffffffff16601160009054906101000a900473ffffffffffffffffffffffffffffffffffffffff1673ffffffffffffffffffffffffffffffffffffffff161461233c576040517f08c379a000000000000000000000000000000000000000000000000000000000815260040180806020018281038252600e8152602001807f4e6f7420417574686f72697a656400000000000000000000000000000000000081525060200191505060405180910390fd5b8060108190555050565b600960009054906101000a900473ffffffffffffffffffffffffffffffffffffffff1681565b61271081565b600160009054906101000a900473ffffffffffffffffffffffffffffffffffffffff1681565b600760009054906101000a900473ffffffffffffffffffffffffffffffffffffffff1681565b601260009054906101000a900473ffffffffffffffffffffffffffffffffffffffff1681565b3373ffffffffffffffffffffffffffffffffffffffff16601160009054906101000a900473ffffffffffffffffffffffffffffffffffffffff1673ffffffffffffffffffffffffffffffffffffffff16146124a7576040517f08c379a000000000000000000000000000000000000000000000000000000000815260040180806020018281038252600e8152602001807f4e6f7420417574686f72697a656400000000000000000000000000000000000081525060200191505060405180910390fd5b612517600960009054906101000a900473ffffffffffffffffffffffffffffffffffffffff166000600c60009054906101000a900473ffffffffffffffffffffffffffffffffffffffff1673ffffffffffffffffffffffffffffffffffffffff166146df9092919063ffffffff16565b612586600960009054906101000a900473ffffffffffffffffffffffffffffffffffffffff1683600c60009054906101000a900473ffffffffffffffffffffffffffffffffffffffff1673ffffffffffffffffffffffffffffffffffffffff166146df9092919063ffffffff16565b600960009054906101000a900473ffffffffffffffffffffffffffffffffffffffff1673ffffffffffffffffffffffffffffffffffffffff166365fc387383836040518363ffffffff1660e01b81526004018083815260200182815260200192505050600060405180830381600087803b15801561260357600080fd5b505af1158015612617573d6000803e3d6000fd5b505050507fb45a3c0e2dcd2f560d00e18d58bb2bc636f1540eba5f84061a0154f14ca84992826040518082815260200191505060405180910390a15050565b3373ffffffffffffffffffffffffffffffffffffffff16601160009054906101000a900473ffffffffffffffffffffffffffffffffffffffff1673ffffffffffffffffffffffffffffffffffffffff1614806126fd575060008054906101000a900473ffffffffffffffffffffffffffffffffffffffff1673ffffffffffffffffffffffffffffffffffffffff163373ffffffffffffffffffffffffffffffffffffffff16145b61276f576040517f08c379a000000000000000000000000000000000000000000000000000000000815260040180806020018281038252600e8152602001807f4e6f7420617574686f72697a656400000000000000000000000000000000000081525060200191505060405180910390fd5b80600760009054906101000a900473ffffffffffffffffffffffffffffffffffffffff1673ffffffffffffffffffffffffffffffffffffffff166370a08231306040518263ffffffff1660e01b8152600401808273ffffffffffffffffffffffffffffffffffffffff16815260200191505060206040518083038186803b1580156127f957600080fd5b505afa15801561280d573d6000803e3d6000fd5b505050506040513d602081101561282357600080fd5b8101908080519060200190929190505050101561288b576040517f08c379a0000000000000000000000000000000000000000000000000000000008152600401808060200182810382526024815260200180614ff06024913960400191505060405180910390fd5b600760009054906101000a900473ffffffffffffffffffffffffffffffffffffffff1673ffffffffffffffffffffffffffffffffffffffff16632e1a7d4d826040518263ffffffff1660e01b815260040180828152602001915050600060405180830381600087803b15801561290057600080fd5b505af1158015612914573d6000803e3d6000fd5b505050507f862f62b448d7253dc6afebd1a94d3fed70796abc517f689f329288fb288e3331816040518082815260200191505060405180910390a150565b600260009054906101000a900473ffffffffffffffffffffffffffffffffffffffff1681565b60003373ffffffffffffffffffffffffffffffffffffffff16601160009054906101000a900473ffffffffffffffffffffffffffffffffffffffff1673ffffffffffffffffffffffffffffffffffffffff1614612a3d576040517f08c379a000000000000000000000000000000000000000000000000000000000815260040180806020018281038252600e8152602001807f4e6f7420417574686f72697a656400000000000000000000000000000000000081525060200191505060405180910390fd5b6000600c60009054906101000a900473ffffffffffffffffffffffffffffffffffffffff1673ffffffffffffffffffffffffffffffffffffffff166370a08231306040518263ffffffff1660e01b8152600401808273ffffffffffffffffffffffffffffffffffffffff16815260200191505060206040518083038186803b158015612ac857600080fd5b505afa158015612adc573d6000803e3d6000fd5b505050506040513d6020811015612af257600080fd5b81019080805190602001909291905050509050600060038560ff1660038110612b1757fe5b0160009054906101000a900473ffffffffffffffffffffffffffffffffffffffff1673ffffffffffffffffffffffffffffffffffffffff166370a08231306040518263ffffffff1660e01b8152600401808273ffffffffffffffffffffffffffffffffffffffff16815260200191505060206040518083038186803b158015612b9f57600080fd5b505afa158015612bb3573d6000803e3d6000fd5b505050506040513d6020811015612bc957600080fd5b8101908080519060200190929190505050905060008211612c52576040517f08c379a00000000000000000000000000000000000000000000000000000000081526004018080602001828103825260108152602001807f696e73756666696369656e74204352560000000000000000000000000000000081525060200191505060405180910390fd5b612c7b612710612c6d601354856148a490919063ffffffff16565b6149ad90919063ffffffff16565b9150612ced600b60009054906101000a900473ffffffffffffffffffffffffffffffffffffffff166000600c60009054906101000a900473ffffffffffffffffffffffffffffffffffffffff1673ffffffffffffffffffffffffffffffffffffffff166146df9092919063ffffffff16565b612d5c600b60009054906101000a900473ffffffffffffffffffffffffffffffffffffffff1683600c60009054906101000a900473ffffffffffffffffffffffffffffffffffffffff1673ffffffffffffffffffffffffffffffffffffffff166146df9092919063ffffffff16565b6060601460009054906101000a900460ff1615612ea557600267ffffffffffffffff81118015612d8b57600080fd5b50604051908082528060200260200182016040528015612dba5781602001602082028036833780820191505090505b509050600c60009054906101000a900473ffffffffffffffffffffffffffffffffffffffff1681600081518110612ded57fe5b602002602001019073ffffffffffffffffffffffffffffffffffffffff16908173ffffffffffffffffffffffffffffffffffffffff168152505060038660ff1660038110612e3757fe5b0160009054906101000a900473ffffffffffffffffffffffffffffffffffffffff1681600181518110612e6657fe5b602002602001019073ffffffffffffffffffffffffffffffffffffffff16908173ffffffffffffffffffffffffffffffffffffffff168152505061303d565b600367ffffffffffffffff81118015612ebd57600080fd5b50604051908082528060200260200182016040528015612eec5781602001602082028036833780820191505090505b509050600c60009054906101000a900473ffffffffffffffffffffffffffffffffffffffff1681600081518110612f1f57fe5b602002602001019073ffffffffffffffffffffffffffffffffffffffff16908173ffffffffffffffffffffffffffffffffffffffff1681525050600d60009054906101000a900473ffffffffffffffffffffffffffffffffffffffff1681600181518110612f8957fe5b602002602001019073ffffffffffffffffffffffffffffffffffffffff16908173ffffffffffffffffffffffffffffffffffffffff168152505060038660ff1660038110612fd357fe5b0160009054906101000a900473ffffffffffffffffffffffffffffffffffffffff168160028151811061300257fe5b602002602001019073ffffffffffffffffffffffffffffffffffffffff16908173ffffffffffffffffffffffffffffffffffffffff16815250505b600061307a61306b61271061305d6010548a6148a490919063ffffffff16565b6149ad90919063ffffffff16565b8761492a90919063ffffffff16565b9050600b60009054906101000a900473ffffffffffffffffffffffffffffffffffffffff1673ffffffffffffffffffffffffffffffffffffffff166338ed17398583853061070842016040518663ffffffff1660e01b815260040180868152602001858152602001806020018473ffffffffffffffffffffffffffffffffffffffff168152602001838152602001828103825285818151815260200191508051906020019060200280838360005b83811015613143578082015181840152602081019050613128565b505050509050019650505050505050600060405180830381600087803b15801561316c57600080fd5b505af1158015613180573d6000803e3d6000fd5b50505050600060038860ff166003811061319657fe5b0160009054906101000a900473ffffffffffffffffffffffffffffffffffffffff1673ffffffffffffffffffffffffffffffffffffffff166370a08231306040518263ffffffff1660e01b8152600401808273ffffffffffffffffffffffffffffffffffffffff16815260200191505060206040518083038186803b15801561321e57600080fd5b505afa158015613232573d6000803e3d6000fd5b505050506040513d602081101561324857600080fd5b810190808051906020019092919050505090506132eb600160009054906101000a900473ffffffffffffffffffffffffffffffffffffffff16613294868461492a90919063ffffffff16565b60038b60ff16600381106132a457fe5b0160009054906101000a900473ffffffffffffffffffffffffffffffffffffffff1673ffffffffffffffffffffffffffffffffffffffff16614a369092919063ffffffff16565b7fc1b4dab262ffe9aeac4082a51908ba2d90401e4936f549ab13c2d4c44816958988613320868461492a90919063ffffffff16565b604051808360ff1681526020018281526020019250505060405180910390a1505050505092915050565b6000600760009054906101000a900473ffffffffffffffffffffffffffffffffffffffff1673ffffffffffffffffffffffffffffffffffffffff166333134583306040518263ffffffff1660e01b8152600401808273ffffffffffffffffffffffffffffffffffffffff16815260200191505060206040518083038186803b1580156133d557600080fd5b505afa1580156133e9573d6000803e3d6000fd5b505050506040513d60208110156133ff57600080fd5b8101908080519060200190929190505050905090565b60008054906101000a900473ffffffffffffffffffffffffffffffffffffffff1673ffffffffffffffffffffffffffffffffffffffff163373ffffffffffffffffffffffffffffffffffffffff16146134d6576040517f08c379a000000000000000000000000000000000000000000000000000000000815260040180806020018281038252600e8152602001807f4e6f7420617574686f72697a656400000000000000000000000000000000000081525060200191505060405180910390fd5b600080600090505b60038160ff161015613735576000838260ff16600381106134fb57fe5b6020020151111561372857600060038260ff166003811061351857fe5b0160009054906101000a900473ffffffffffffffffffffffffffffffffffffffff1673ffffffffffffffffffffffffffffffffffffffff1663313ce5676040518163ffffffff1660e01b815260040160206040518083038186803b15801561357f57600080fd5b505afa158015613593573d6000803e3d6000fd5b505050506040513d60208110156135a957600080fd5b810190808051906020019092919050505060ff16905061363e600660009054906101000a900473ffffffffffffffffffffffffffffffffffffffff16600060038560ff16600381106135f757fe5b0160009054906101000a900473ffffffffffffffffffffffffffffffffffffffff1673ffffffffffffffffffffffffffffffffffffffff166146df9092919063ffffffff16565b6136cf600660009054906101000a900473ffffffffffffffffffffffffffffffffffffffff16858460ff166003811061367357fe5b602002015160038560ff166003811061368857fe5b0160009054906101000a900473ffffffffffffffffffffffffffffffffffffffff1673ffffffffffffffffffffffffffffffffffffffff166146df9092919063ffffffff16565b61372461371582600a0a613707670de0b6b3a7640000888760ff16600381106136f457fe5b60200201516148a490919063ffffffff16565b6149ad90919063ffffffff16565b84614ad890919063ffffffff16565b9250505b80806001019150506134de565b506000613807600660009054906101000a900473ffffffffffffffffffffffffffffffffffffffff1673ffffffffffffffffffffffffffffffffffffffff1663bb7b8b806040518163ffffffff1660e01b815260040160206040518083038186803b1580156137a357600080fd5b505afa1580156137b7573d6000803e3d6000fd5b505050506040513d60208110156137cd57600080fd5b81019080805190602001909291905050506137f9670de0b6b3a7640000856148a490919063ffffffff16565b6149ad90919063ffffffff16565b9050600660009054906101000a900473ffffffffffffffffffffffffffffffffffffffff1673ffffffffffffffffffffffffffffffffffffffff16634515cef384613885612710613877613868600e5461271061492a90919063ffffffff16565b876148a490919063ffffffff16565b6149ad90919063ffffffff16565b6040518363ffffffff1660e01b81526004018083600360200280838360005b838110156138bf5780820151818401526020810190506138a4565b5050505090500182815260200192505050600060405180830381600087803b1580156138ea57600080fd5b505af11580156138fe573d6000803e3d6000fd5b5050505061390a610a7c565b505050565b600e5481565b60135481565b60008054906101000a900473ffffffffffffffffffffffffffffffffffffffff1673ffffffffffffffffffffffffffffffffffffffff163373ffffffffffffffffffffffffffffffffffffffff16146139dc576040517f08c379a000000000000000000000000000000000000000000000000000000000815260040180806020018281038252600e8152602001807f4e6f7420617574686f72697a656400000000000000000000000000000000000081525060200191505060405180910390fd5b600080600090505b6003811015613a1f57613a108382600381106139fc57fe5b602002015183614ad890919063ffffffff16565b915080806001019150506139e4565b50613a5d612710613a4f613a40600f54612710614ad890919063ffffffff16565b846148a490919063ffffffff16565b6149ad90919063ffffffff16565b9050613a6881612656565b600660009054906101000a900473ffffffffffffffffffffffffffffffffffffffff1673ffffffffffffffffffffffffffffffffffffffff16639fdaea0c84836040518363ffffffff1660e01b81526004018083600360200280838360005b83811015613ae2578082015181840152602081019050613ac7565b5050505090500182815260200192505050600060405180830381600087803b158015613b0d57600080fd5b505af1158015613b21573d6000803e3d6000fd5b5050505060005b60038160ff161015613cab576000848260ff1660038110613b4557fe5b602002015114613c9e57613c9d60008054906101000a900473ffffffffffffffffffffffffffffffffffffffff1660038360ff1660038110613b8357fe5b0160009054906101000a900473ffffffffffffffffffffffffffffffffffffffff1673ffffffffffffffffffffffffffffffffffffffff166370a08231306040518263ffffffff1660e01b8152600401808273ffffffffffffffffffffffffffffffffffffffff16815260200191505060206040518083038186803b158015613c0b57600080fd5b505afa158015613c1f573d6000803e3d6000fd5b505050506040513d6020811015613c3557600080fd5b810190808051906020019092919050505060038460ff1660038110613c5657fe5b0160009054906101000a900473ffffffffffffffffffffffffffffffffffffffff1673ffffffffffffffffffffffffffffffffffffffff16614a369092919063ffffffff16565b5b8080600101915050613b28565b506000600260009054906101000a900473ffffffffffffffffffffffffffffffffffffffff1673ffffffffffffffffffffffffffffffffffffffff166370a08231306040518263ffffffff1660e01b8152600401808273ffffffffffffffffffffffffffffffffffffffff16815260200191505060206040518083038186803b158015613d3757600080fd5b505afa158015613d4b573d6000803e3d6000fd5b505050506040513d6020811015613d6157600080fd5b81019080805190602001909291905050501115613d8157613d80610a7c565b5b505050565b3373ffffffffffffffffffffffffffffffffffffffff16601160009054906101000a900473ffffffffffffffffffffffffffffffffffffffff1673ffffffffffffffffffffffffffffffffffffffff1614613e49576040517f08c379a000000000000000000000000000000000000000000000000000000000815260040180806020018281038252600e8152602001807f4e6f7420417574686f72697a656400000000000000000000000000000000000081525060200191505060405180910390fd5b80600f8190555050565b3373ffffffffffffffffffffffffffffffffffffffff16601160009054906101000a900473ffffffffffffffffffffffffffffffffffffffff1673ffffffffffffffffffffffffffffffffffffffff1614613f16576040517f08c379a000000000000000000000000000000000000000000000000000000000815260040180806020018281038252600e8152602001807f4e6f7420417574686f72697a656400000000000000000000000000000000000081525060200191505060405180910390fd5b600960009054906101000a900473ffffffffffffffffffffffffffffffffffffffff1673ffffffffffffffffffffffffffffffffffffffff16633ccfd60b6040518163ffffffff1660e01b8152600401600060405180830381600087803b158015613f8057600080fd5b505af1158015613f94573d6000803e3d6000fd5b505050507f6a5e26501482a05740f9329fa7e26d328045348d615d7515b3be9189b9bedb5560405160405180910390a1565b3373ffffffffffffffffffffffffffffffffffffffff16601160009054906101000a900473ffffffffffffffffffffffffffffffffffffffff1673ffffffffffffffffffffffffffffffffffffffff1614614089576040517f08c379a000000000000000000000000000000000000000000000000000000000815260040180806020018281038252600e8152602001807f4e6f7420417574686f72697a656400000000000000000000000000000000000081525060200191505060405180910390fd5b6000600260009054906101000a900473ffffffffffffffffffffffffffffffffffffffff1673ffffffffffffffffffffffffffffffffffffffff166370a08231306040518263ffffffff1660e01b8152600401808273ffffffffffffffffffffffffffffffffffffffff16815260200191505060206040518083038186803b15801561411457600080fd5b505afa158015614128573d6000803e3d6000fd5b505050506040513d602081101561413e57600080fd5b81019080805190602001909291905050509050600a60009054906101000a900473ffffffffffffffffffffffffffffffffffffffff1673ffffffffffffffffffffffffffffffffffffffff16634e71d92d6040518163ffffffff1660e01b8152600401600060405180830381600087803b1580156141bb57600080fd5b505af11580156141cf573d6000803e3d6000fd5b505050506000600260009054906101000a900473ffffffffffffffffffffffffffffffffffffffff1673ffffffffffffffffffffffffffffffffffffffff166370a08231306040518263ffffffff1660e01b8152600401808273ffffffffffffffffffffffffffffffffffffffff16815260200191505060206040518083038186803b15801561425e57600080fd5b505afa158015614272573d6000803e3d6000fd5b505050506040513d602081101561428857600080fd5b810190808051906020019092919050505090506142a3614f27565b600660009054906101000a900473ffffffffffffffffffffffffffffffffffffffff1673ffffffffffffffffffffffffffffffffffffffff1663ecb586a5848403836040518363ffffffff1660e01b81526004018083815260200182600360200280838360005b8381101561432557808201518184015260208101905061430a565b5050505090500192505050600060405180830381600087803b15801561434a57600080fd5b505af115801561435e573d6000803e3d6000fd5b5050505060005b60038110156145d3577fc1b4dab262ffe9aeac4082a51908ba2d90401e4936f549ab13c2d4c448169589816003836003811061439d57fe5b0160009054906101000a900473ffffffffffffffffffffffffffffffffffffffff1673ffffffffffffffffffffffffffffffffffffffff166370a08231306040518263ffffffff1660e01b8152600401808273ffffffffffffffffffffffffffffffffffffffff16815260200191505060206040518083038186803b15801561442557600080fd5b505afa158015614439573d6000803e3d6000fd5b505050506040513d602081101561444f57600080fd5b8101908080519060200190929190505050604051808381526020018281526020019250505060405180910390a16145c6600160009054906101000a900473ffffffffffffffffffffffffffffffffffffffff16600383600381106144af57fe5b0160009054906101000a900473ffffffffffffffffffffffffffffffffffffffff1673ffffffffffffffffffffffffffffffffffffffff166370a08231306040518263ffffffff1660e01b8152600401808273ffffffffffffffffffffffffffffffffffffffff16815260200191505060206040518083038186803b15801561453757600080fd5b505afa15801561454b573d6000803e3d6000fd5b505050506040513d602081101561456157600080fd5b81019080805190602001909291905050506003846003811061457f57fe5b0160009054906101000a900473ffffffffffffffffffffffffffffffffffffffff1673ffffffffffffffffffffffffffffffffffffffff16614a369092919063ffffffff16565b8080600101915050614365565b50505050565b3373ffffffffffffffffffffffffffffffffffffffff16601160009054906101000a900473ffffffffffffffffffffffffffffffffffffffff1673ffffffffffffffffffffffffffffffffffffffff161461469c576040517f08c379a000000000000000000000000000000000000000000000000000000000815260040180806020018281038252600e8152602001807f4e6f7420417574686f72697a656400000000000000000000000000000000000081525060200191505060405180910390fd5b806000806101000a81548173ffffffffffffffffffffffffffffffffffffffff021916908373ffffffffffffffffffffffffffffffffffffffff16021790555050565b60008114806147ad575060008373ffffffffffffffffffffffffffffffffffffffff1663dd62ed3e30856040518363ffffffff1660e01b8152600401808373ffffffffffffffffffffffffffffffffffffffff1681526020018273ffffffffffffffffffffffffffffffffffffffff1681526020019250505060206040518083038186803b15801561477057600080fd5b505afa158015614784573d6000803e3d6000fd5b505050506040513d602081101561479a57600080fd5b8101908080519060200190929190505050145b614802576040517f08c379a00000000000000000000000000000000000000000000000000000000081526004018080602001828103825260368152602001806150146036913960400191505060405180910390fd5b61489f8363095ea7b360e01b8484604051602401808373ffffffffffffffffffffffffffffffffffffffff16815260200182815260200192505050604051602081830303815290604052907bffffffffffffffffffffffffffffffffffffffffffffffffffffffff19166020820180517bffffffffffffffffffffffffffffffffffffffffffffffffffffffff8381831617835250505050614b60565b505050565b6000808314156148b75760009050614924565b60008284029050828482816148c857fe5b041461491f576040517f08c379a0000000000000000000000000000000000000000000000000000000008152600401808060200182810382526021815260200180614fa56021913960400191505060405180910390fd5b809150505b92915050565b6000828211156149a2576040517f08c379a000000000000000000000000000000000000000000000000000000000815260040180806020018281038252601e8152602001807f536166654d6174683a207375627472616374696f6e206f766572666c6f77000081525060200191505060405180910390fd5b818303905092915050565b6000808211614a24576040517f08c379a000000000000000000000000000000000000000000000000000000000815260040180806020018281038252601a8152602001807f536166654d6174683a206469766973696f6e206279207a65726f00000000000081525060200191505060405180910390fd5b818381614a2d57fe5b04905092915050565b614ad38363a9059cbb60e01b8484604051602401808373ffffffffffffffffffffffffffffffffffffffff16815260200182815260200192505050604051602081830303815290604052907bffffffffffffffffffffffffffffffffffffffffffffffffffffffff19166020820180517bffffffffffffffffffffffffffffffffffffffffffffffffffffffff8381831617835250505050614b60565b505050565b600080828401905083811015614b56576040517f08c379a000000000000000000000000000000000000000000000000000000000815260040180806020018281038252601b8152602001807f536166654d6174683a206164646974696f6e206f766572666c6f77000000000081525060200191505060405180910390fd5b8091505092915050565b6060614bc2826040518060400160405280602081526020017f5361666545524332303a206c6f772d6c6576656c2063616c6c206661696c65648152508573ffffffffffffffffffffffffffffffffffffffff16614c4f9092919063ffffffff16565b9050600081511115614c4a57808060200190516020811015614be357600080fd5b8101908080519060200190929190505050614c49576040517f08c379a000000000000000000000000000000000000000000000000000000000815260040180806020018281038252602a815260200180614fc6602a913960400191505060405180910390fd5b5b505050565b6060614c5e8484600085614c67565b90509392505050565b606082471015614cc2576040517f08c379a0000000000000000000000000000000000000000000000000000000008152600401808060200182810382526026815260200180614f7f6026913960400191505060405180910390fd5b614ccb85614e10565b614d3d576040517f08c379a000000000000000000000000000000000000000000000000000000000815260040180806020018281038252601d8152602001807f416464726573733a2063616c6c20746f206e6f6e2d636f6e747261637400000081525060200191505060405180910390fd5b600060608673ffffffffffffffffffffffffffffffffffffffff1685876040518082805190602001908083835b60208310614d8d5780518252602082019150602081019050602083039250614d6a565b6001836020036101000a03801982511681845116808217855250505050505090500191505060006040518083038185875af1925050503d8060008114614def576040519150601f19603f3d011682016040523d82523d6000602084013e614df4565b606091505b5091509150614e04828286614e5b565b92505050949350505050565b60008060007fc5d2460186f7233c927e7db2dcc703c0e500b653ca82273b7bfad8045d85a47060001b9050833f9150808214158015614e5257506000801b8214155b92505050919050565b60608315614e6b57829050614f20565b600083511115614e7e5782518084602001fd5b816040517f08c379a00000000000000000000000000000000000000000000000000000000081526004018080602001828103825283818151815260200191508051906020019080838360005b83811015614ee5578082015181840152602081019050614eca565b50505050905090810190601f168015614f125780820380516001836020036101000a031916815260200191505b509250505060405180910390fd5b9392505050565b604051806060016040528060039060208202803683378082019150509050509056fe596f75206d757374206265206e6f6d696e61746564206265666f726520796f752063616e20616363657074206f776e657273686970416464726573733a20696e73756666696369656e742062616c616e636520666f722063616c6c536166654d6174683a206d756c7469706c69636174696f6e206f766572666c6f775361666545524332303a204552433230206f7065726174696f6e20646964206e6f742073756363656564596f752068617665206e6f74207374616b65642074686174206d75636820616d6f756e745361666545524332303a20617070726f76652066726f6d206e6f6e2d7a65726f20746f206e6f6e2d7a65726f20616c6c6f77616e6365a2646970667358221220b529b1305f8ee89bffad9d1344ec7dfac0a377459b80209c4d35d27bbd917d5564736f6c634300060c0033",
  "immutableReferences": {},
  "source": "// SPDX-License-Identifier: UNLICENSED\r\npragma solidity ^0.6.0;\r\n\r\nimport './SafeERC20.sol';\r\nimport '../../Interfaces/CurveInterface.sol';\r\nimport '../../Interfaces/UniswapInterface.sol';\r\n\r\ncontract CurveStrategy {\r\n\r\n    using SafeERC20 for IERC20;\r\n    using SafeMath for uint256;\r\n\r\n    address public royaleAddress;\r\n    address public yieldDistributor;\r\n    IERC20 public poolToken;\r\n    IERC20[3] public tokens;  // DAI / USDC / USDT\r\n    CurvePool public pool;\r\n    PoolGauge public gauge;\r\n    Minter public minter;\r\n    VoteEscrow public voteEscrow;\r\n    FeeDistributor public feeDistributor;\r\n    UniswapI  public uniAddr;\r\n    IERC20 public crvAddr;\r\n    address public wethAddr;\r\n     \r\n    uint256 public constant DENOMINATOR = 10000;\r\n\r\n    uint256 public depositSlip = 100;\r\n\r\n    uint256 public withdrawSlip = 200;\r\n    \r\n    uint256 public uniswapSlippage=50;\r\n\r\n    address public wallet;\r\n    address public nominatedWallet;\r\n    \r\n   // uint256 public totalProfit;\r\n    \r\n    uint256 public crvBreak=10000;\r\n\r\n   // uint256 public virtualPrice;\r\n \r\n    bool public TEST = true; // For testing uniswap , should be removed on deployment to the mainnet\r\n\r\n    modifier onlyAuthorized(){\r\n      require(wallet == msg.sender|| msg.sender==royaleAddress, \"Not authorized\");\r\n      _;\r\n    }\r\n\r\n    modifier onlyWallet(){\r\n        require((wallet==msg.sender),\"Not Authorized\");\r\n        _;\r\n    }\r\n\r\n    modifier onlyRoyaleLP() {\r\n        require(msg.sender == royaleAddress, \"Not authorized\");\r\n        _;\r\n    }\r\n\r\n    constructor(\r\n         address _wallet,\r\n         IERC20[3] memory _tokens, \r\n         address _royaleaddress,\r\n         address _yieldDistributor,\r\n         address _crvpool,\r\n         address _poolToken,\r\n         address _gauge,\r\n         address _minter,\r\n         address _uniAddress,\r\n         address _crvAddress,\r\n         address _wethAddress,\r\n         address _voteEscrow,\r\n         address _feeDistributor\r\n         ) public {\r\n\r\n        wallet=_wallet;\r\n        tokens = _tokens;\r\n        royaleAddress =_royaleaddress;\r\n        yieldDistributor=_yieldDistributor;\r\n        pool = CurvePool(_crvpool);\r\n        poolToken = IERC20(_poolToken);\r\n        gauge = PoolGauge(_gauge);\r\n        minter=Minter(_minter);\r\n        uniAddr=UniswapI(_uniAddress);\r\n        crvAddr=IERC20(_crvAddress);\r\n        wethAddr=_wethAddress;  \r\n        feeDistributor = FeeDistributor(_feeDistributor);\r\n        voteEscrow = VoteEscrow(_voteEscrow);\r\n    }\r\n\r\n    function setCRVBreak(uint256 _percentage)external onlyWallet(){\r\n        crvBreak=_percentage;\r\n    }\r\n\r\n    function nominateNewOwner(address _wallet) external onlyWallet {\r\n        nominatedWallet = _wallet;\r\n        emit walletNominated(_wallet);\r\n    }\r\n\r\n    function acceptOwnership() external {\r\n        require(msg.sender == nominatedWallet, \"You must be nominated before you can accept ownership\");\r\n        emit walletChanged(wallet, nominatedWallet);\r\n        wallet = nominatedWallet;\r\n        nominatedWallet = address(0);\r\n    }\r\n\r\n    function changeRoyaleLP(address _address)external onlyWallet(){\r\n        royaleAddress=_address;\r\n    }\r\n\r\n    function changeYieldDistributor(address _address)external onlyWallet(){\r\n        yieldDistributor=_address;\r\n    }\r\n    \r\n    function changeDepositSlip(uint _value)external onlyWallet(){\r\n        depositSlip=_value;\r\n    }\r\n    \r\n    function changeWithdrawSlip(uint _value)external onlyWallet(){\r\n        withdrawSlip=_value;\r\n    }\r\n    \r\n    function changeUniswapSlippage(uint _value) external onlyWallet(){\r\n        uniswapSlippage=_value;\r\n    }\r\n\r\n// deposits stable tokens into the 3pool and stake recived LPtoken(3CRV) in the curve 3pool gauge\r\n    function deposit(uint[3] memory amounts) external onlyRoyaleLP(){\r\n        uint currentTotal;\r\n        for(uint8 i=0; i<3; i++) {\r\n            if(amounts[i] > 0) {\r\n               uint decimal;\r\n               decimal=tokens[i].decimals();\r\n               tokens[i].safeApprove(address(pool),0);\r\n               tokens[i].safeApprove(address(pool), amounts[i]); \r\n               currentTotal =currentTotal.add(amounts[i].mul(1e18).div(10**decimal));\r\n            }\r\n        }\r\n        uint256 mintAmount = currentTotal.mul(1e18).div(pool.get_virtual_price());\r\n        pool.add_liquidity(amounts,  mintAmount.mul(DENOMINATOR.sub(depositSlip)).div(DENOMINATOR));\r\n        stakeLP();   \r\n    }\r\n\r\n    //withdraws stable tokens from the 3pool.Unstake required LPtokens and stake LP tokens if not used.\r\n    function withdraw(uint[3] memory amounts,uint[3] memory max_burn) external onlyRoyaleLP() {\r\n        //uint256 max_burn = pool.calc_token_amount(amounts,false);\r\n        uint burnAmount;\r\n        for(uint i=0;i<3;i++){\r\n             burnAmount = burnAmount.add(max_burn[i]);\r\n        }\r\n        burnAmount=burnAmount.mul(DENOMINATOR.add(withdrawSlip)).div(DENOMINATOR);\r\n        unstakeLP(burnAmount);\r\n        pool.remove_liquidity_imbalance(amounts, burnAmount);\r\n        for(uint8 i=0;i<3;i++){\r\n            if(amounts[i]!=0){\r\n               tokens[i].safeTransfer(royaleAddress, tokens[i].balanceOf(address(this)));\r\n            }\r\n        }\r\n        if(poolToken.balanceOf(address(this))>0){\r\n            stakeLP();\r\n        } \r\n    }\r\n\r\n   //unstake all the LPtokens and withdraw all the Stable tokens from 3pool \r\n    function withdrawAll() external onlyRoyaleLP() returns(uint256[3] memory){\r\n        unstakeLP(gauge.balanceOf(address(this)));\r\n        uint256[3] memory withdrawAmt;\r\n        pool.remove_liquidity(poolToken.balanceOf(address(this)),withdrawAmt);\r\n        for(uint8 i=0;i<3;i++){\r\n            if(tokens[i].balanceOf(address(this))!=0){\r\n                withdrawAmt[i]=tokens[i].balanceOf(address(this));\r\n                tokens[i].safeTransfer(royaleAddress,withdrawAmt[i]); \r\n            }\r\n        }\r\n        return withdrawAmt; \r\n    } \r\n    \r\n    // Functions to stake and unstake LPTokens(Ycrv) and claim CRV\r\n\r\n\r\n    //Stakes LP token(3CRV) into the curve 3pool gauage\r\n    function stakeLP() public onlyAuthorized() {\r\n        uint depositAmt = poolToken.balanceOf(address(this)) ;\r\n        poolToken.safeApprove(address(gauge),0);\r\n        poolToken.safeApprove(address(gauge), depositAmt);\r\n        gauge.deposit(depositAmt);  \r\n        emit staked(depositAmt);\r\n    }\r\n\r\n    //For unstaking LP tokens(3CRV)\r\n    function unstakeLP(uint _amount) public  onlyAuthorized(){\r\n        require(gauge.balanceOf(address(this)) >= _amount,\"You have not staked that much amount\");\r\n        gauge.withdraw(_amount);\r\n        emit unstaked(_amount);\r\n    }\r\n    \r\n    //Checking claimable CRV tokens.\r\n    function checkClaimableToken()public view  returns(uint256){\r\n        return gauge.claimable_tokens(address(this));\r\n    }\r\n\r\n    //for claiming CRV tokens which accumalates on staking 3CRV.\r\n    function claimCRV() public onlyAuthorized(){\r\n        minter.mint(address(gauge));\r\n        emit crvClaimed();\r\n    }\r\n\r\n    // Functions to lock and unlock CRV and recieve VeCRV\r\n\r\n\r\n   //For locking CRV tokens in the curve lock\r\n    function createLock(uint256 _value,uint256 _unlockTime) external onlyWallet(){\r\n        crvAddr.safeApprove(address(voteEscrow), 0);\r\n        crvAddr.safeApprove(address(voteEscrow), _value);\r\n        voteEscrow.create_lock(_value, _unlockTime);\r\n        emit locked(_value);\r\n    }\r\n\r\n\r\n    //Increasing lock CRV amount\r\n    function increaseLockAmount(uint256 _value) external onlyWallet(){\r\n        crvAddr.safeApprove(address(voteEscrow), 0);\r\n        crvAddr.safeApprove(address(voteEscrow), _value);\r\n        voteEscrow.increase_amount(_value);\r\n        emit locked(_value);\r\n    }\r\n\r\n    //For unlocking CRV tokens\r\n    function releaseLock() external onlyWallet(){\r\n        voteEscrow.withdraw(); \r\n        emit unlocked();\r\n    }\r\n\r\n//For claiming recieved 3CRV tokens which are given for locking CRV and\r\n   // withdrawing stable tokens from curve 3pool using those 3CRV and sending those stable tokens to an address\r\n    function claim3CRV()public onlyWallet(){\r\n        uint prevCoin=poolToken.balanceOf(address(this));\r\n        feeDistributor.claim();\r\n        uint postCoin=poolToken.balanceOf(address(this));\r\n        uint[3] memory minimum;\r\n        pool.remove_liquidity(postCoin-prevCoin,minimum);\r\n        for(uint i=0;i<3;i++){\r\n            emit yieldTransfered(i,tokens[i].balanceOf(address(this)));\r\n            tokens[i].safeTransfer(yieldDistributor,tokens[i].balanceOf(address(this)));\r\n        }\r\n    }\r\n    \r\n    // Function to sell CRV using uniswap to any stable token and send that token to an address\r\n    function sellCRV(uint8 _index,uint _amount) public onlyWallet() returns(uint256) {  //here index=0 means convert crv into DAI , index=1 means crv into USDC , index=2 means crv into USDT\r\n        uint256 crvAmt = IERC20(crvAddr).balanceOf(address(this));\r\n        uint256 prevCoin = tokens[_index].balanceOf(address(this));\r\n        require(crvAmt > 0, \"insufficient CRV\");\r\n        crvAmt=crvAmt.mul(crvBreak).div(DENOMINATOR);\r\n        crvAddr.safeApprove(address(uniAddr), 0);\r\n        crvAddr.safeApprove(address(uniAddr), crvAmt);\r\n        address[] memory path; \r\n        if(TEST) {\r\n            path = new address[](2);\r\n            path[0] = address(crvAddr);\r\n            path[1] = address(tokens[_index]);\r\n\r\n        } else {    \r\n            path = new address[](3);\r\n            path[0] = address(crvAddr);\r\n            path[1] = wethAddr;\r\n            path[2] = address(tokens[_index]);\r\n        }\r\n        uint minimumAmount=_amount.sub(_amount.mul(uniswapSlippage).div(DENOMINATOR));\r\n        UniswapI(uniAddr).swapExactTokensForTokens(\r\n            crvAmt, \r\n            minimumAmount, \r\n            path, \r\n            address(this), \r\n            now + 1800\r\n        );\r\n        uint256 postCoin=tokens[_index].balanceOf(address(this));\r\n        tokens[_index].safeTransfer(yieldDistributor,postCoin.sub(prevCoin));\r\n        emit yieldTransfered(_index,postCoin.sub(prevCoin));\r\n    }\r\n\r\n    //calulates how much VeCRV is needed to get 2.5X boost.\r\n    function gaugeVeCRVCalculator() public view returns(uint256){\r\n          uint minimumVeCRV ;\r\n          minimumVeCRV =(gauge.balanceOf(address(this)).mul(100)).sub((gauge.balanceOf(address(this)).mul(40))).mul(voteEscrow.totalSupply()).div(gauge.totalSupply().mul(60));\r\n          return minimumVeCRV;\r\n    }\r\n    \r\n    event yieldTransfered(uint index,uint coin);\r\n    event staked(uint amount);\r\n    event unstaked(uint amount);\r\n    event crvClaimed();\r\n    event locked(uint amount);\r\n    event unlocked();\r\n    event walletNominated(address newOwner);\r\n    event walletChanged(address oldOwner, address newOwner);\r\n\r\n}\r\n",
  "sourcePath": "C:/Users/vishn/OneDrive/Desktop/codezero2pi/RoyaleBSC/royale-contracts/contracts/Pool/rStrategy.sol",
  "compiler": {
    "name": "solc",
    "version": "0.6.12+commit.27d51765.Emscripten.clang"
  },
  "schemaVersion": "3.3.2",
  "updatedAt": "2021-05-18T11:46:55.102Z",
  "devdoc": {
    "kind": "dev",
    "methods": {},
    "version": 1
  },
  "userdoc": {
    "kind": "user",
    "methods": {},
    "version": 1
  }
}