{
  "contractName": "ERC20WithSnapshot",
  "abi": [
    {
      "inputs": [
        {
          "internalType": "string",
          "name": "name",
          "type": "string"
        },
        {
          "internalType": "string",
          "name": "symbol",
          "type": "string"
        },
        {
          "internalType": "uint8",
          "name": "decimals",
          "type": "uint8"
        }
      ],
      "stateMutability": "nonpayable",
      "type": "constructor"
    },
    {
      "anonymous": false,
      "inputs": [
        {
          "indexed": true,
          "internalType": "address",
          "name": "owner",
          "type": "address"
        },
        {
          "indexed": true,
          "internalType": "address",
          "name": "spender",
          "type": "address"
        },
        {
          "indexed": false,
          "internalType": "uint256",
          "name": "value",
          "type": "uint256"
        }
      ],
      "name": "Approval",
      "type": "event"
    },
    {
      "anonymous": false,
      "inputs": [
        {
          "indexed": false,
          "internalType": "address",
          "name": "owner",
          "type": "address"
        },
        {
          "indexed": false,
          "internalType": "uint128",
          "name": "oldValue",
          "type": "uint128"
        },
        {
          "indexed": false,
          "internalType": "uint128",
          "name": "newValue",
          "type": "uint128"
        }
      ],
      "name": "SnapshotDone",
      "type": "event"
    },
    {
      "anonymous": false,
      "inputs": [
        {
          "indexed": true,
          "internalType": "address",
          "name": "from",
          "type": "address"
        },
        {
          "indexed": true,
          "internalType": "address",
          "name": "to",
          "type": "address"
        },
        {
          "indexed": false,
          "internalType": "uint256",
          "name": "value",
          "type": "uint256"
        }
      ],
      "name": "Transfer",
      "type": "event"
    },
    {
      "inputs": [
        {
          "internalType": "address",
          "name": "",
          "type": "address"
        }
      ],
      "name": "_countsSnapshots",
      "outputs": [
        {
          "internalType": "uint256",
          "name": "",
          "type": "uint256"
        }
      ],
      "stateMutability": "view",
      "type": "function"
    },
    {
      "inputs": [],
      "name": "_royaGovernance",
      "outputs": [
        {
          "internalType": "contract ITransferHook",
          "name": "",
          "type": "address"
        }
      ],
      "stateMutability": "view",
      "type": "function"
    },
    {
      "inputs": [
        {
          "internalType": "address",
          "name": "",
          "type": "address"
        },
        {
          "internalType": "uint256",
          "name": "",
          "type": "uint256"
        }
      ],
      "name": "_snapshots",
      "outputs": [
        {
          "internalType": "uint128",
          "name": "blockNumber",
          "type": "uint128"
        },
        {
          "internalType": "uint128",
          "name": "value",
          "type": "uint128"
        }
      ],
      "stateMutability": "view",
      "type": "function"
    },
    {
      "inputs": [
        {
          "internalType": "address",
          "name": "owner",
          "type": "address"
        },
        {
          "internalType": "address",
          "name": "spender",
          "type": "address"
        }
      ],
      "name": "allowance",
      "outputs": [
        {
          "internalType": "uint256",
          "name": "",
          "type": "uint256"
        }
      ],
      "stateMutability": "view",
      "type": "function"
    },
    {
      "inputs": [
        {
          "internalType": "address",
          "name": "spender",
          "type": "address"
        },
        {
          "internalType": "uint256",
          "name": "amount",
          "type": "uint256"
        }
      ],
      "name": "approve",
      "outputs": [
        {
          "internalType": "bool",
          "name": "",
          "type": "bool"
        }
      ],
      "stateMutability": "nonpayable",
      "type": "function"
    },
    {
      "inputs": [
        {
          "internalType": "address",
          "name": "account",
          "type": "address"
        }
      ],
      "name": "balanceOf",
      "outputs": [
        {
          "internalType": "uint256",
          "name": "",
          "type": "uint256"
        }
      ],
      "stateMutability": "view",
      "type": "function"
    },
    {
      "inputs": [],
      "name": "decimals",
      "outputs": [
        {
          "internalType": "uint8",
          "name": "",
          "type": "uint8"
        }
      ],
      "stateMutability": "view",
      "type": "function"
    },
    {
      "inputs": [
        {
          "internalType": "address",
          "name": "spender",
          "type": "address"
        },
        {
          "internalType": "uint256",
          "name": "subtractedValue",
          "type": "uint256"
        }
      ],
      "name": "decreaseAllowance",
      "outputs": [
        {
          "internalType": "bool",
          "name": "",
          "type": "bool"
        }
      ],
      "stateMutability": "nonpayable",
      "type": "function"
    },
    {
      "inputs": [
        {
          "internalType": "address",
          "name": "spender",
          "type": "address"
        },
        {
          "internalType": "uint256",
          "name": "addedValue",
          "type": "uint256"
        }
      ],
      "name": "increaseAllowance",
      "outputs": [
        {
          "internalType": "bool",
          "name": "",
          "type": "bool"
        }
      ],
      "stateMutability": "nonpayable",
      "type": "function"
    },
    {
      "inputs": [],
      "name": "name",
      "outputs": [
        {
          "internalType": "string",
          "name": "",
          "type": "string"
        }
      ],
      "stateMutability": "view",
      "type": "function"
    },
    {
      "inputs": [],
      "name": "symbol",
      "outputs": [
        {
          "internalType": "string",
          "name": "",
          "type": "string"
        }
      ],
      "stateMutability": "view",
      "type": "function"
    },
    {
      "inputs": [],
      "name": "totalSupply",
      "outputs": [
        {
          "internalType": "uint256",
          "name": "",
          "type": "uint256"
        }
      ],
      "stateMutability": "view",
      "type": "function"
    },
    {
      "inputs": [
        {
          "internalType": "address",
          "name": "recipient",
          "type": "address"
        },
        {
          "internalType": "uint256",
          "name": "amount",
          "type": "uint256"
        }
      ],
      "name": "transfer",
      "outputs": [
        {
          "internalType": "bool",
          "name": "",
          "type": "bool"
        }
      ],
      "stateMutability": "nonpayable",
      "type": "function"
    },
    {
      "inputs": [
        {
          "internalType": "address",
          "name": "sender",
          "type": "address"
        },
        {
          "internalType": "address",
          "name": "recipient",
          "type": "address"
        },
        {
          "internalType": "uint256",
          "name": "amount",
          "type": "uint256"
        }
      ],
      "name": "transferFrom",
      "outputs": [
        {
          "internalType": "bool",
          "name": "",
          "type": "bool"
        }
      ],
      "stateMutability": "nonpayable",
      "type": "function"
    }
  ],
  "bytecode": "0x60806040523480156200001157600080fd5b5060405162001cb938038062001cb98339818101604052810190620000379190620001ac565b82828282600390805190602001906200005292919062000093565b5081600490805190602001906200006b92919062000093565b5080600560006101000a81548160ff021916908360ff160217905550505050505050620002ec565b828054600181600116156101000203166002900490600052602060002090601f016020900481019282601f10620000d657805160ff191683800117855562000107565b8280016001018555821562000107579182015b8281111562000106578251825591602001919060010190620000e9565b5b5090506200011691906200011a565b5090565b5b80821115620001355760008160009055506001016200011b565b5090565b600082601f8301126200014b57600080fd5b8151620001626200015c8262000262565b62000234565b915080825260208301602083018583830111156200017f57600080fd5b6200018c8382846200029c565b50505092915050565b600081519050620001a681620002d2565b92915050565b600080600060608486031215620001c257600080fd5b600084015167ffffffffffffffff811115620001dd57600080fd5b620001eb8682870162000139565b935050602084015167ffffffffffffffff8111156200020957600080fd5b620002178682870162000139565b92505060406200022a8682870162000195565b9150509250925092565b6000604051905081810181811067ffffffffffffffff821117156200025857600080fd5b8060405250919050565b600067ffffffffffffffff8211156200027a57600080fd5b601f19601f8301169050602081019050919050565b600060ff82169050919050565b60005b83811015620002bc5780820151818401526020810190506200029f565b83811115620002cc576000848401525b50505050565b620002dd816200028f565b8114620002e957600080fd5b50565b6119bd80620002fc6000396000f3fe608060405234801561001057600080fd5b50600436106100ea5760003560e01c806370a082311161008c578063a457c2d711610066578063a457c2d714610288578063a9059cbb146102b8578063d38a3d3c146102e8578063dd62ed3e14610306576100ea565b806370a082311461020a5780638779588c1461023a57806395d89b411461026a576100ea565b806323b872dd116100c857806323b872dd1461015b5780632acbf8231461018b578063313ce567146101bc57806339509351146101da576100ea565b806306fdde03146100ef578063095ea7b31461010d57806318160ddd1461013d575b600080fd5b6100f7610336565b60405161010491906116d0565b60405180910390f35b61012760048036038101906101229190611385565b6103d8565b604051610134919061169a565b60405180910390f35b6101456103f6565b60405161015291906117bb565b60405180910390f35b61017560048036038101906101709190611336565b610400565b604051610182919061169a565b60405180910390f35b6101a560048036038101906101a09190611385565b6104d9565b6040516101b3929190611792565b60405180910390f35b6101c4610542565b6040516101d191906117d6565b60405180910390f35b6101f460048036038101906101ef9190611385565b610559565b604051610201919061169a565b60405180910390f35b610224600480360381019061021f91906112d1565b61060c565b60405161023191906117bb565b60405180910390f35b610254600480360381019061024f91906112d1565b610654565b60405161026191906117bb565b60405180910390f35b61027261066c565b60405161027f91906116d0565b60405180910390f35b6102a2600480360381019061029d9190611385565b61070e565b6040516102af919061169a565b60405180910390f35b6102d260048036038101906102cd9190611385565b6107db565b6040516102df919061169a565b60405180910390f35b6102f06107f9565b6040516102fd91906116b5565b60405180910390f35b610320600480360381019061031b91906112fa565b61081f565b60405161032d91906117bb565b60405180910390f35b606060038054600181600116156101000203166002900480601f0160208091040260200160405190810160405280929190818152602001828054600181600116156101000203166002900480156103ce5780601f106103a3576101008083540402835291602001916103ce565b820191906000526020600020905b8154815290600101906020018083116103b157829003601f168201915b5050505050905090565b60006103ec6103e56108a6565b84846108ae565b6001905092915050565b6000600254905090565b600061040d848484610a79565b6104ce846104196108a6565b6104c98560405180606001604052806028815260200161193b60289139600160008b73ffffffffffffffffffffffffffffffffffffffff1673ffffffffffffffffffffffffffffffffffffffff168152602001908152602001600020600061047f6108a6565b73ffffffffffffffffffffffffffffffffffffffff1673ffffffffffffffffffffffffffffffffffffffff16815260200190815260200160002054610d0e9092919063ffffffff16565b6108ae565b600190509392505050565b6006602052816000526040600020602052806000526040600020600091509150508060000160009054906101000a90046fffffffffffffffffffffffffffffffff16908060000160109054906101000a90046fffffffffffffffffffffffffffffffff16905082565b6000600560009054906101000a900460ff16905090565b60006106026105666108a6565b846105fd85600160006105776108a6565b73ffffffffffffffffffffffffffffffffffffffff1673ffffffffffffffffffffffffffffffffffffffff16815260200190815260200160002060008973ffffffffffffffffffffffffffffffffffffffff1673ffffffffffffffffffffffffffffffffffffffff16815260200190815260200160002054610d6990919063ffffffff16565b6108ae565b6001905092915050565b60008060008373ffffffffffffffffffffffffffffffffffffffff1673ffffffffffffffffffffffffffffffffffffffff168152602001908152602001600020549050919050565b60076020528060005260406000206000915090505481565b606060048054600181600116156101000203166002900480601f0160208091040260200160405190810160405280929190818152602001828054600181600116156101000203166002900480156107045780601f106106d957610100808354040283529160200191610704565b820191906000526020600020905b8154815290600101906020018083116106e757829003601f168201915b5050505050905090565b60006107d161071b6108a6565b846107cc8560405180606001604052806025815260200161196360259139600160006107456108a6565b73ffffffffffffffffffffffffffffffffffffffff1673ffffffffffffffffffffffffffffffffffffffff16815260200190815260200160002060008a73ffffffffffffffffffffffffffffffffffffffff1673ffffffffffffffffffffffffffffffffffffffff16815260200190815260200160002054610d0e9092919063ffffffff16565b6108ae565b6001905092915050565b60006107ef6107e86108a6565b8484610a79565b6001905092915050565b600860009054906101000a900473ffffffffffffffffffffffffffffffffffffffff1681565b6000600160008473ffffffffffffffffffffffffffffffffffffffff1673ffffffffffffffffffffffffffffffffffffffff16815260200190815260200160002060008373ffffffffffffffffffffffffffffffffffffffff1673ffffffffffffffffffffffffffffffffffffffff16815260200190815260200160002054905092915050565b600033905090565b600073ffffffffffffffffffffffffffffffffffffffff168373ffffffffffffffffffffffffffffffffffffffff16141561091e576040517f08c379a000000000000000000000000000000000000000000000000000000000815260040161091590611772565b60405180910390fd5b600073ffffffffffffffffffffffffffffffffffffffff168273ffffffffffffffffffffffffffffffffffffffff16141561098e576040517f08c379a000000000000000000000000000000000000000000000000000000000815260040161098590611712565b60405180910390fd5b80600160008573ffffffffffffffffffffffffffffffffffffffff1673ffffffffffffffffffffffffffffffffffffffff16815260200190815260200160002060008473ffffffffffffffffffffffffffffffffffffffff1673ffffffffffffffffffffffffffffffffffffffff168152602001908152602001600020819055508173ffffffffffffffffffffffffffffffffffffffff168373ffffffffffffffffffffffffffffffffffffffff167f8c5be1e5ebec7d5bd14f71427d1e84f3dd0314c0f7b2291e5b200ac8c7c3b92583604051610a6c91906117bb565b60405180910390a3505050565b600073ffffffffffffffffffffffffffffffffffffffff168373ffffffffffffffffffffffffffffffffffffffff161415610ae9576040517f08c379a0000000000000000000000000000000000000000000000000000000008152600401610ae090611752565b60405180910390fd5b600073ffffffffffffffffffffffffffffffffffffffff168273ffffffffffffffffffffffffffffffffffffffff161415610b59576040517f08c379a0000000000000000000000000000000000000000000000000000000008152600401610b50906116f2565b60405180910390fd5b610b64838383610dbe565b610bcf81604051806060016040528060268152602001611915602691396000808773ffffffffffffffffffffffffffffffffffffffff1673ffffffffffffffffffffffffffffffffffffffff16815260200190815260200160002054610d0e9092919063ffffffff16565b6000808573ffffffffffffffffffffffffffffffffffffffff1673ffffffffffffffffffffffffffffffffffffffff16815260200190815260200160002081905550610c62816000808573ffffffffffffffffffffffffffffffffffffffff1673ffffffffffffffffffffffffffffffffffffffff16815260200190815260200160002054610d6990919063ffffffff16565b6000808473ffffffffffffffffffffffffffffffffffffffff1673ffffffffffffffffffffffffffffffffffffffff168152602001908152602001600020819055508173ffffffffffffffffffffffffffffffffffffffff168373ffffffffffffffffffffffffffffffffffffffff167fddf252ad1be2c89b69c2b068fc378daa952ba7f163c4a11628f55a4df523b3ef83604051610d0191906117bb565b60405180910390a3505050565b6000838311158290610d56576040517f08c379a0000000000000000000000000000000000000000000000000000000008152600401610d4d91906116d0565b60405180910390fd5b5060008385039050809150509392505050565b600080828401905083811015610db4576040517f08c379a0000000000000000000000000000000000000000000000000000000008152600401610dab90611732565b60405180910390fd5b8091505092915050565b8173ffffffffffffffffffffffffffffffffffffffff168373ffffffffffffffffffffffffffffffffffffffff161415610df757610f84565b600073ffffffffffffffffffffffffffffffffffffffff168373ffffffffffffffffffffffffffffffffffffffff1614610e57576000610e368461060c565b9050610e558482610e508585610f8990919063ffffffff16565b610fd3565b505b600073ffffffffffffffffffffffffffffffffffffffff168273ffffffffffffffffffffffffffffffffffffffff1614610eb7576000610e968361060c565b9050610eb58382610eb08585610d6990919063ffffffff16565b610fd3565b505b6000600860009054906101000a900473ffffffffffffffffffffffffffffffffffffffff169050600073ffffffffffffffffffffffffffffffffffffffff168173ffffffffffffffffffffffffffffffffffffffff1614610f82578073ffffffffffffffffffffffffffffffffffffffff16634a3931498585856040518463ffffffff1660e01b8152600401610f4f9392919061162c565b600060405180830381600087803b158015610f6957600080fd5b505af1158015610f7d573d6000803e3d6000fd5b505050505b505b505050565b6000610fcb83836040518060400160405280601e81526020017f536166654d6174683a207375627472616374696f6e206f766572666c6f770000815250610d0e565b905092915050565b60004390506000600760008673ffffffffffffffffffffffffffffffffffffffff1673ffffffffffffffffffffffffffffffffffffffff1681526020019081526020016000205490506000600660008773ffffffffffffffffffffffffffffffffffffffff1673ffffffffffffffffffffffffffffffffffffffff1681526020019081526020016000209050600082141580156110d75750826fffffffffffffffffffffffffffffffff16816000611095600186610f8990919063ffffffff16565b815260200190815260200160002060000160009054906101000a90046fffffffffffffffffffffffffffffffff166fffffffffffffffffffffffffffffffff16145b1561114057838160006110f4600186610f8990919063ffffffff16565b815260200190815260200160002060000160106101000a8154816fffffffffffffffffffffffffffffffff02191690836fffffffffffffffffffffffffffffffff160217905550611264565b6040518060400160405280846fffffffffffffffffffffffffffffffff168152602001856fffffffffffffffffffffffffffffffff1681525081600084815260200190815260200160002060008201518160000160006101000a8154816fffffffffffffffffffffffffffffffff02191690836fffffffffffffffffffffffffffffffff16021790555060208201518160000160106101000a8154816fffffffffffffffffffffffffffffffff02191690836fffffffffffffffffffffffffffffffff160217905550905050611220600183610d6990919063ffffffff16565b600760008873ffffffffffffffffffffffffffffffffffffffff1673ffffffffffffffffffffffffffffffffffffffff168152602001908152602001600020819055505b7f2cd3c83ddac2953ee75f53265d9ea4463eaf05030e5459a1b7e63819b7ce88f786868660405161129793929190611663565b60405180910390a1505050505050565b6000813590506112b6816118e6565b92915050565b6000813590506112cb816118fd565b92915050565b6000602082840312156112e357600080fd5b60006112f1848285016112a7565b91505092915050565b6000806040838503121561130d57600080fd5b600061131b858286016112a7565b925050602061132c858286016112a7565b9150509250929050565b60008060006060848603121561134b57600080fd5b6000611359868287016112a7565b935050602061136a868287016112a7565b925050604061137b868287016112bc565b9150509250925092565b6000806040838503121561139857600080fd5b60006113a6858286016112a7565b92505060206113b7858286016112bc565b9150509250929050565b6113ca8161180d565b82525050565b6113d98161181f565b82525050565b6113e88161187e565b82525050565b60006113f9826117f1565b61140381856117fc565b93506114138185602086016118a2565b61141c816118d5565b840191505092915050565b60006114346023836117fc565b91507f45524332303a207472616e7366657220746f20746865207a65726f206164647260008301527f65737300000000000000000000000000000000000000000000000000000000006020830152604082019050919050565b600061149a6022836117fc565b91507f45524332303a20617070726f766520746f20746865207a65726f20616464726560008301527f73730000000000000000000000000000000000000000000000000000000000006020830152604082019050919050565b6000611500601b836117fc565b91507f536166654d6174683a206164646974696f6e206f766572666c6f7700000000006000830152602082019050919050565b60006115406025836117fc565b91507f45524332303a207472616e736665722066726f6d20746865207a65726f20616460008301527f64726573730000000000000000000000000000000000000000000000000000006020830152604082019050919050565b60006115a66024836117fc565b91507f45524332303a20617070726f76652066726f6d20746865207a65726f2061646460008301527f72657373000000000000000000000000000000000000000000000000000000006020830152604082019050919050565b6116088161182b565b82525050565b61161781611867565b82525050565b61162681611871565b82525050565b600060608201905061164160008301866113c1565b61164e60208301856113c1565b61165b604083018461160e565b949350505050565b600060608201905061167860008301866113c1565b61168560208301856115ff565b61169260408301846115ff565b949350505050565b60006020820190506116af60008301846113d0565b92915050565b60006020820190506116ca60008301846113df565b92915050565b600060208201905081810360008301526116ea81846113ee565b905092915050565b6000602082019050818103600083015261170b81611427565b9050919050565b6000602082019050818103600083015261172b8161148d565b9050919050565b6000602082019050818103600083015261174b816114f3565b9050919050565b6000602082019050818103600083015261176b81611533565b9050919050565b6000602082019050818103600083015261178b81611599565b9050919050565b60006040820190506117a760008301856115ff565b6117b460208301846115ff565b9392505050565b60006020820190506117d0600083018461160e565b92915050565b60006020820190506117eb600083018461161d565b92915050565b600081519050919050565b600082825260208201905092915050565b600061181882611847565b9050919050565b60008115159050919050565b60006fffffffffffffffffffffffffffffffff82169050919050565b600073ffffffffffffffffffffffffffffffffffffffff82169050919050565b6000819050919050565b600060ff82169050919050565b600061188982611890565b9050919050565b600061189b82611847565b9050919050565b60005b838110156118c05780820151818401526020810190506118a5565b838111156118cf576000848401525b50505050565b6000601f19601f8301169050919050565b6118ef8161180d565b81146118fa57600080fd5b50565b61190681611867565b811461191157600080fd5b5056fe45524332303a207472616e7366657220616d6f756e7420657863656564732062616c616e636545524332303a207472616e7366657220616d6f756e74206578636565647320616c6c6f77616e636545524332303a2064656372656173656420616c6c6f77616e63652062656c6f77207a65726fa26469706673582212203ba3513314be6ebb436772f37e047937ae6dca35d969d635df3589c3e001d48464736f6c634300060c0033",
  "immutableReferences": {},
  "source": "// SPDX-License-Identifier: agpl-3.0\r\npragma solidity 0.6.12;\r\npragma experimental ABIEncoderV2;\r\n\r\n\r\n\r\n/**\r\n * @dev Interface of the ERC20 standard as defined in the EIP.\r\n * From https://github.com/OpenZeppelin/openzeppelin-contracts\r\n */\r\ninterface IERC20 {\r\n  /**\r\n   * @dev Returns the amount of tokens in existence.\r\n   */\r\n  function totalSupply() external view returns (uint256);\r\n\r\n  /**\r\n   * @dev Returns the amount of tokens owned by `account`.\r\n   */\r\n  function balanceOf(address account) external view returns (uint256);\r\n\r\n  /**\r\n   * \r\n   * @dev Moves `amount` tokens from the caller's account to `recipient`.\r\n   *\r\n   * Returns a boolean value indicating whether the operation succeeded.\r\n   *\r\n   * Emits a {Transfer} event.\r\n   */\r\n  function transfer(address recipient, uint256 amount) external returns (bool);\r\n\r\n  /**\r\n   * @dev Returns the remaining number of tokens that `spender` will be\r\n   * allowed to spend on behalf of `owner` through {transferFrom}. This is\r\n   * zero by default.\r\n   *\r\n   * This value changes when {approve} or {transferFrom} are called.\r\n   */\r\n  function allowance(address owner, address spender) external view returns (uint256);\r\n\r\n  /**\r\n   * @dev Sets `amount` as the allowance of `spender` over the caller's tokens.\r\n   *\r\n   * Returns a boolean value indicating whether the operation succeeded.\r\n   *\r\n   * IMPORTANT: Beware that changing an allowance with this method brings the risk\r\n   * that someone may use both the old and the new allowance by unfortunate\r\n   * transaction ordering. One possible solution to mitigate this race\r\n   * condition is to first reduce the spender's allowance to 0 and set the\r\n   * desired value afterwards:\r\n   * https://github.com/ethereum/EIPs/issues/20#issuecomment-263524729\r\n   *\r\n   * Emits an {Approval} event.\r\n   */\r\n  function approve(address spender, uint256 amount) external returns (bool);\r\n\r\n  /**\r\n   * @dev Moves `amount` tokens from `sender` to `recipient` using the\r\n   * allowance mechanism. `amount` is then deducted from the caller's\r\n   * allowance.\r\n   *\r\n   * Returns a boolean value indicating whether the operation succeeded.\r\n   *\r\n   * Emits a {Transfer} event.\r\n   */\r\n  function transferFrom(\r\n    address sender,\r\n    address recipient,\r\n    uint256 amount\r\n  ) external returns (bool);\r\n\r\n  /**\r\n   * @dev Emitted when `value` tokens are moved from one account (`from`) to\r\n   * another (`to`).\r\n   *\r\n   * Note that `value` may be zero.\r\n   */\r\n  event Transfer(address indexed from, address indexed to, uint256 value);\r\n\r\n  /**\r\n   * @dev Emitted when the allowance of a `spender` for an `owner` is set by\r\n   * a call to {approve}. `value` is the new allowance.\r\n   */\r\n  event Approval(address indexed owner, address indexed spender, uint256 value);\r\n}\r\n\r\n// File: contracts/interfaces/IStakedRoya.sol\r\n\r\n\r\npragma solidity 0.6.12;\r\n\r\ninterface IStakedRoya {\r\n  function stake(address to, uint256 amount) external;\r\n\r\n  function redeem(address to, uint256 amount) external;\r\n\r\n  function cooldown() external;\r\n\r\n  function claimRewards(address to, uint256 amount) external;\r\n}\r\n\r\n// File: contracts/interfaces/ITransferHook.sol\r\n\r\n\r\npragma solidity 0.6.12;\r\n\r\ninterface ITransferHook {\r\n    function onTransfer(address from, address to, uint256 amount) external;\r\n}\r\n\r\n// File: contracts/lib/Context.sol\r\n\r\n\r\n\r\npragma solidity 0.6.12;\r\n\r\n/**\r\n * @dev From https://github.com/OpenZeppelin/openzeppelin-contracts\r\n * Provides information about the current execution context, including the\r\n * sender of the transaction and its data. While these are generally available\r\n * via msg.sender and msg.data, they should not be accessed in such a direct\r\n * manner, since when dealing with GSN meta-transactions the account sending and\r\n * paying for execution may not be the actual sender (as far as an application\r\n * is concerned).\r\n *\r\n * This contract is only required for intermediate, library-like contracts.\r\n */\r\nabstract contract Context {\r\n    function _msgSender() internal virtual view returns (address payable) {\r\n        return msg.sender;\r\n    }\r\n\r\n    function _msgData() internal virtual view returns (bytes memory) {\r\n        this; // silence state mutability warning without generating bytecode - see https://github.com/ethereum/solidity/issues/2691\r\n        return msg.data;\r\n    }\r\n}\r\n\r\n// File: contracts/interfaces/IERC20Detailed.sol\r\n\r\n\r\npragma solidity 0.6.12;\r\n\r\n\r\n/**\r\n * @dev Interface for ERC20 including metadata\r\n **/\r\ninterface IERC20Detailed is IERC20 {\r\n    function name() external view returns (string memory);\r\n    function symbol() external view returns (string memory);\r\n    function decimals() external view returns (uint8);\r\n}\r\n\r\n// File: contracts/lib/SafeMath.sol\r\n\r\n\r\npragma solidity 0.6.12;\r\n\r\n/**\r\n * @dev From https://github.com/OpenZeppelin/openzeppelin-contracts\r\n * Wrappers over Solidity's arithmetic operations with added overflow\r\n * checks.\r\n *\r\n * Arithmetic operations in Solidity wrap on overflow. This can easily result\r\n * in bugs, because programmers usually assume that an overflow raises an\r\n * error, which is the standard behavior in high level programming languages.\r\n * `SafeMath` restores this intuition by reverting the transaction when an\r\n * operation overflows.\r\n *\r\n * Using this library instead of the unchecked operations eliminates an entire\r\n * class of bugs, so it's recommended to use it always.\r\n */\r\nlibrary SafeMath {\r\n    /**\r\n     * @dev Returns the addition of two unsigned integers, reverting on\r\n     * overflow.\r\n     *\r\n     * Counterpart to Solidity's `+` operator.\r\n     *\r\n     * Requirements:\r\n     * - Addition cannot overflow.\r\n     */\r\n    function add(uint256 a, uint256 b) internal pure returns (uint256) {\r\n        uint256 c = a + b;\r\n        require(c >= a, 'SafeMath: addition overflow');\r\n\r\n        return c;\r\n    }\r\n\r\n    /**\r\n     * @dev Returns the subtraction of two unsigned integers, reverting on\r\n     * overflow (when the result is negative).\r\n     *\r\n     * Counterpart to Solidity's `-` operator.\r\n     *\r\n     * Requirements:\r\n     * - Subtraction cannot overflow.\r\n     */\r\n    function sub(uint256 a, uint256 b) internal pure returns (uint256) {\r\n        return sub(a, b, 'SafeMath: subtraction overflow');\r\n    }\r\n\r\n    /**\r\n     * @dev Returns the subtraction of two unsigned integers, reverting with custom message on\r\n     * overflow (when the result is negative).\r\n     *\r\n     * Counterpart to Solidity's `-` operator.\r\n     *\r\n     * Requirements:\r\n     * - Subtraction cannot overflow.\r\n     */\r\n    function sub(\r\n        uint256 a,\r\n        uint256 b,\r\n        string memory errorMessage\r\n    ) internal pure returns (uint256) {\r\n        require(b <= a, errorMessage);\r\n        uint256 c = a - b;\r\n\r\n        return c;\r\n    }\r\n\r\n    /**\r\n     * @dev Returns the multiplication of two unsigned integers, reverting on\r\n     * overflow.\r\n     *\r\n     * Counterpart to Solidity's `*` operator.\r\n     *\r\n     * Requirements:\r\n     * - Multiplication cannot overflow.\r\n     */\r\n    function mul(uint256 a, uint256 b) internal pure returns (uint256) {\r\n        // Gas optimization: this is cheaper than requiring 'a' not being zero, but the\r\n        // benefit is lost if 'b' is also tested.\r\n        // See: https://github.com/OpenZeppelin/openzeppelin-contracts/pull/522\r\n        if (a == 0) {\r\n            return 0;\r\n        }\r\n\r\n        uint256 c = a * b;\r\n        require(c / a == b, 'SafeMath: multiplication overflow');\r\n\r\n        return c;\r\n    }\r\n\r\n    /**\r\n     * @dev Returns the integer division of two unsigned integers. Reverts on\r\n     * division by zero. The result is rounded towards zero.\r\n     *\r\n     * Counterpart to Solidity's `/` operator. Note: this function uses a\r\n     * `revert` opcode (which leaves remaining gas untouched) while Solidity\r\n     * uses an invalid opcode to revert (consuming all remaining gas).\r\n     *\r\n     * Requirements:\r\n     * - The divisor cannot be zero.\r\n     */\r\n    function div(uint256 a, uint256 b) internal pure returns (uint256) {\r\n        return div(a, b, 'SafeMath: division by zero');\r\n    }\r\n\r\n    /**\r\n     * @dev Returns the integer division of two unsigned integers. Reverts with custom message on\r\n     * division by zero. The result is rounded towards zero.\r\n     *\r\n     * Counterpart to Solidity's `/` operator. Note: this function uses a\r\n     * `revert` opcode (which leaves remaining gas untouched) while Solidity\r\n     * uses an invalid opcode to revert (consuming all remaining gas).\r\n     *\r\n     * Requirements:\r\n     * - The divisor cannot be zero.\r\n     */\r\n    function div(\r\n        uint256 a,\r\n        uint256 b,\r\n        string memory errorMessage\r\n    ) internal pure returns (uint256) {\r\n        // Solidity only automatically asserts when dividing by 0\r\n        require(b > 0, errorMessage);\r\n        uint256 c = a / b;\r\n        // assert(a == b * c + a % b); // There is no case in which this doesn't hold\r\n\r\n        return c;\r\n    }\r\n\r\n    /**\r\n     * @dev Returns the remainder of dividing two unsigned integers. (unsigned integer modulo),\r\n     * Reverts when dividing by zero.\r\n     *\r\n     * Counterpart to Solidity's `%` operator. This function uses a `revert`\r\n     * opcode (which leaves remaining gas untouched) while Solidity uses an\r\n     * invalid opcode to revert (consuming all remaining gas).\r\n     *\r\n     * Requirements:\r\n     * - The divisor cannot be zero.\r\n     */\r\n    function mod(uint256 a, uint256 b) internal pure returns (uint256) {\r\n        return mod(a, b, 'SafeMath: modulo by zero');\r\n    }\r\n\r\n    /**\r\n     * @dev Returns the remainder of dividing two unsigned integers. (unsigned integer modulo),\r\n     * Reverts with custom message when dividing by zero.\r\n     *\r\n     * Counterpart to Solidity's `%` operator. This function uses a `revert`\r\n     * opcode (which leaves remaining gas untouched) while Solidity uses an\r\n     * invalid opcode to revert (consuming all remaining gas).\r\n     *\r\n     * Requirements:\r\n     * - The divisor cannot be zero.\r\n     */\r\n    function mod(\r\n        uint256 a,\r\n        uint256 b,\r\n        string memory errorMessage\r\n    ) internal pure returns (uint256) {\r\n        require(b != 0, errorMessage);\r\n        return a % b;\r\n    }\r\n}\r\n\r\n// File: contracts/lib/ERC20.sol\r\n\r\n\r\npragma solidity 0.6.12;\r\n\r\n\r\n\r\n\r\n\r\n/**\r\n * @title ERC20\r\n * @notice Basic ERC20 implementation\r\n * @author Roya\r\n **/\r\ncontract ERC20 is Context, IERC20, IERC20Detailed {\r\n  using SafeMath for uint256;\r\n\r\n  mapping(address => uint256) private _balances;\r\n  mapping(address => mapping(address => uint256)) private _allowances;\r\n  uint256 private _totalSupply;\r\n  string private _name;\r\n  string private _symbol;\r\n  uint8 private _decimals;\r\n\r\n  constructor(\r\n    string memory name,\r\n    string memory symbol,\r\n    uint8 decimals\r\n  ) public {\r\n    _name = name;\r\n    _symbol = symbol;\r\n    _decimals = decimals;\r\n  }\r\n\r\n  /**\r\n   * @return the name of the token\r\n   **/\r\n  function name() public override view returns (string memory) {\r\n    return _name;\r\n  }\r\n\r\n  /**\r\n   * @return the symbol of the token\r\n   **/\r\n  function symbol() public override view returns (string memory) {\r\n    return _symbol;\r\n  }\r\n\r\n  /**\r\n   * @return the decimals of the token\r\n   **/\r\n  function decimals() public override view returns (uint8) {\r\n    return _decimals;\r\n  }\r\n\r\n  /**\r\n   * @return the total supply of the token\r\n   **/\r\n  function totalSupply() public override view returns (uint256) {\r\n    return _totalSupply;\r\n  }\r\n\r\n  /**\r\n   * @return the balance of the token\r\n   **/\r\n  function balanceOf(address account) public override view returns (uint256) {\r\n    return _balances[account];\r\n  }\r\n\r\n  /**\r\n   * @dev executes a transfer of tokens from msg.sender to recipient\r\n   * @param recipient the recipient of the tokens\r\n   * @param amount the amount of tokens being transferred\r\n   * @return true if the transfer succeeds, false otherwise\r\n   **/\r\n  function transfer(address recipient, uint256 amount) public virtual override returns (bool) {\r\n    _transfer(_msgSender(), recipient, amount);\r\n    return true;\r\n  }\r\n\r\n  /**\r\n   * @dev returns the allowance of spender on the tokens owned by owner\r\n   * @param owner the owner of the tokens\r\n   * @param spender the user allowed to spend the owner's tokens\r\n   * @return the amount of owner's tokens spender is allowed to spend\r\n   **/\r\n  function allowance(address owner, address spender)\r\n    public\r\n    virtual\r\n    override\r\n    view\r\n    returns (uint256)\r\n  {\r\n    return _allowances[owner][spender];\r\n  }\r\n\r\n  /**\r\n   * @dev allows spender to spend the tokens owned by msg.sender\r\n   * @param spender the user allowed to spend msg.sender tokens\r\n   * @return true\r\n   **/\r\n  function approve(address spender, uint256 amount) public virtual override returns (bool) {\r\n    _approve(_msgSender(), spender, amount);\r\n    return true;\r\n  }\r\n\r\n  /**\r\n   * @dev executes a transfer of token from sender to recipient, if msg.sender is allowed to do so\r\n   * @param sender the owner of the tokens\r\n   * @param recipient the recipient of the tokens\r\n   * @param amount the amount of tokens being transferred\r\n   * @return true if the transfer succeeds, false otherwise\r\n   **/\r\n  function transferFrom(\r\n    address sender,\r\n    address recipient,\r\n    uint256 amount\r\n  ) public virtual override returns (bool) {\r\n    _transfer(sender, recipient, amount);\r\n    _approve(\r\n      sender,\r\n      _msgSender(),\r\n      _allowances[sender][_msgSender()].sub(amount, 'ERC20: transfer amount exceeds allowance')\r\n    );\r\n    return true;\r\n  }\r\n\r\n  /**\r\n   * @dev increases the allowance of spender to spend msg.sender tokens\r\n   * @param spender the user allowed to spend on behalf of msg.sender\r\n   * @param addedValue the amount being added to the allowance\r\n   * @return true\r\n   **/\r\n  function increaseAllowance(address spender, uint256 addedValue) public virtual returns (bool) {\r\n    _approve(_msgSender(), spender, _allowances[_msgSender()][spender].add(addedValue));\r\n    return true;\r\n  }\r\n\r\n  /**\r\n   * @dev decreases the allowance of spender to spend msg.sender tokens\r\n   * @param spender the user allowed to spend on behalf of msg.sender\r\n   * @param subtractedValue the amount being subtracted to the allowance\r\n   * @return true\r\n   **/\r\n  function decreaseAllowance(address spender, uint256 subtractedValue)\r\n    public\r\n    virtual\r\n    returns (bool)\r\n  {\r\n    _approve(\r\n      _msgSender(),\r\n      spender,\r\n      _allowances[_msgSender()][spender].sub(\r\n        subtractedValue,\r\n        'ERC20: decreased allowance below zero'\r\n      )\r\n    );\r\n    return true;\r\n  }\r\n\r\n  function _transfer(\r\n    address sender,\r\n    address recipient,\r\n    uint256 amount\r\n  ) internal virtual {\r\n    require(sender != address(0), 'ERC20: transfer from the zero address');\r\n    require(recipient != address(0), 'ERC20: transfer to the zero address');\r\n\r\n    _beforeTokenTransfer(sender, recipient, amount);\r\n\r\n    _balances[sender] = _balances[sender].sub(amount, 'ERC20: transfer amount exceeds balance');\r\n    _balances[recipient] = _balances[recipient].add(amount);\r\n    emit Transfer(sender, recipient, amount);\r\n  }\r\n\r\n  function _mint(address account, uint256 amount) internal virtual {\r\n    require(account != address(0), 'ERC20: mint to the zero address');\r\n\r\n    _beforeTokenTransfer(address(0), account, amount);\r\n\r\n    _totalSupply = _totalSupply.add(amount);\r\n    _balances[account] = _balances[account].add(amount);\r\n    emit Transfer(address(0), account, amount);\r\n  }\r\n\r\n  function _burn(address account, uint256 amount) internal virtual {\r\n    require(account != address(0), 'ERC20: burn from the zero address');\r\n\r\n    _beforeTokenTransfer(account, address(0), amount);\r\n\r\n    _balances[account] = _balances[account].sub(amount, 'ERC20: burn amount exceeds balance');\r\n    _totalSupply = _totalSupply.sub(amount);\r\n    emit Transfer(account, address(0), amount);\r\n  }\r\n\r\n  function _approve(\r\n    address owner,\r\n    address spender,\r\n    uint256 amount\r\n  ) internal virtual {\r\n    require(owner != address(0), 'ERC20: approve from the zero address');\r\n    require(spender != address(0), 'ERC20: approve to the zero address');\r\n\r\n    _allowances[owner][spender] = amount;\r\n    emit Approval(owner, spender, amount);\r\n  }\r\n\r\n  function _setName(string memory newName) internal {\r\n    _name = newName;\r\n  }\r\n\r\n  function _setSymbol(string memory newSymbol) internal {\r\n    _symbol = newSymbol;\r\n  }\r\n\r\n  function _setDecimals(uint8 newDecimals) internal {\r\n    _decimals = newDecimals;\r\n  }\r\n\r\n  function _beforeTokenTransfer(\r\n    address from,\r\n    address to,\r\n    uint256 amount\r\n  ) internal virtual {}\r\n}\r\n\r\n// File: contracts/lib/ERC20WithSnapshot.sol\r\n\r\n\r\npragma solidity 0.6.12;\r\n\r\n\r\n\r\n/**\r\n * @title ERC20WithSnapshot\r\n * @notice ERC20 including snapshots of balances on transfer-related actions\r\n * @author Roya\r\n **/\r\ncontract ERC20WithSnapshot is ERC20 {\r\n\r\n    /// @dev snapshot of a value on a specific block, used for balances\r\n    struct Snapshot {\r\n        uint128 blockNumber;\r\n        uint128 value;\r\n    }\r\n\r\n    mapping (address => mapping (uint256 => Snapshot)) public _snapshots;\r\n    mapping (address => uint256) public _countsSnapshots;\r\n    /// @dev reference to the Roya governance contract to call (if initialized) on _beforeTokenTransfer\r\n    /// !!! IMPORTANT The Roya governance is considered a trustable contract, being its responsibility\r\n    /// to control all potential reentrancies by calling back the this contract\r\n    ITransferHook public _royaGovernance;\r\n\r\n    event SnapshotDone(address owner, uint128 oldValue, uint128 newValue);\r\n\r\n    constructor(string memory name, string memory symbol, uint8 decimals) public ERC20(name, symbol, decimals) {}\r\n\r\n    function _setRoyaGovernance(ITransferHook royaGovernance) internal virtual {\r\n        _royaGovernance = royaGovernance;\r\n    }\r\n\r\n    /**\r\n    * @dev Writes a snapshot for an owner of tokens\r\n    * @param owner The owner of the tokens\r\n    * @param oldValue The value before the operation that is gonna be executed after the snapshot\r\n    * @param newValue The value after the operation\r\n    */\r\n    function _writeSnapshot(address owner, uint128 oldValue, uint128 newValue) internal virtual {\r\n        uint128 currentBlock = uint128(block.number);\r\n\r\n        uint256 ownerCountOfSnapshots = _countsSnapshots[owner];\r\n        mapping (uint256 => Snapshot) storage snapshotsOwner = _snapshots[owner];\r\n\r\n        // Doing multiple operations in the same block\r\n        if (ownerCountOfSnapshots != 0 && snapshotsOwner[ownerCountOfSnapshots.sub(1)].blockNumber == currentBlock) {\r\n            snapshotsOwner[ownerCountOfSnapshots.sub(1)].value = newValue;\r\n        } else {\r\n            snapshotsOwner[ownerCountOfSnapshots] = Snapshot(currentBlock, newValue);\r\n            _countsSnapshots[owner] = ownerCountOfSnapshots.add(1);\r\n        }\r\n\r\n        emit SnapshotDone(owner, oldValue, newValue);\r\n    }\r\n\r\n    /**\r\n    * @dev Writes a snapshot before any operation involving transfer of value: _transfer, _mint and _burn\r\n    * - On _transfer, it writes snapshots for both \"from\" and \"to\"\r\n    * - On _mint, only for _to\r\n    * - On _burn, only for _from\r\n    * @param from the from address\r\n    * @param to the to address\r\n    * @param amount the amount to transfer\r\n    */\r\n    function _beforeTokenTransfer(address from, address to, uint256 amount) internal override {\r\n        if (from == to) {\r\n            return;\r\n        }\r\n\r\n        if (from != address(0)) {\r\n            uint256 fromBalance = balanceOf(from);\r\n            _writeSnapshot(from, uint128(fromBalance), uint128(fromBalance.sub(amount)));\r\n        }\r\n        if (to != address(0)) {\r\n            uint256 toBalance = balanceOf(to);\r\n            _writeSnapshot(to, uint128(toBalance), uint128(toBalance.add(amount)));\r\n        }\r\n\r\n        // caching the roya governance address to avoid multiple state loads\r\n        ITransferHook royaGovernance = _royaGovernance;\r\n        if (royaGovernance != ITransferHook(0)) {\r\n            royaGovernance.onTransfer(from, to, amount);\r\n        }\r\n    }\r\n}\r\n\r\n// File: contracts/lib/Address.sol\r\n\r\n\r\npragma solidity 0.6.12;\r\n\r\n/**\r\n * @dev Collection of functions related to the address type\r\n * From https://github.com/OpenZeppelin/openzeppelin-contracts\r\n */\r\nlibrary Address {\r\n    /**\r\n     * @dev Returns true if `account` is a contract.\r\n     *\r\n     * [IMPORTANT]\r\n     * ====\r\n     * It is unsafe to assume that an address for which this function returns\r\n     * false is an externally-owned account (EOA) and not a contract.\r\n     *\r\n     * Among others, `isContract` will return false for the following\r\n     * types of addresses:\r\n     *\r\n     *  - an externally-owned account\r\n     *  - a contract in construction\r\n     *  - an address where a contract will be created\r\n     *  - an address where a contract lived, but was destroyed\r\n     * ====\r\n     */\r\n    function isContract(address account) internal view returns (bool) {\r\n        // According to EIP-1052, 0x0 is the value returned for not-yet created accounts\r\n        // and 0xc5d2460186f7233c927e7db2dcc703c0e500b653ca82273b7bfad8045d85a470 is returned\r\n        // for accounts without code, i.e. `keccak256('')`\r\n        bytes32 codehash;\r\n        bytes32 accountHash = 0xc5d2460186f7233c927e7db2dcc703c0e500b653ca82273b7bfad8045d85a470;\r\n        // solhint-disable-next-line no-inline-assembly\r\n        assembly {\r\n            codehash := extcodehash(account)\r\n        }\r\n        return (codehash != accountHash && codehash != 0x0);\r\n    }\r\n\r\n    /**\r\n     * @dev Replacement for Solidity's `transfer`: sends `amount` wei to\r\n     * `recipient`, forwarding all available gas and reverting on errors.\r\n     *\r\n     * https://eips.ethereum.org/EIPS/eip-1884[EIP1884] increases the gas cost\r\n     * of certain opcodes, possibly making contracts go over the 2300 gas limit\r\n     * imposed by `transfer`, making them unable to receive funds via\r\n     * `transfer`. {sendValue} removes this limitation.\r\n     *\r\n     * https://diligence.consensys.net/posts/2019/09/stop-using-soliditys-transfer-now/[Learn more].\r\n     *\r\n     * IMPORTANT: because control is transferred to `recipient`, care must be\r\n     * taken to not create reentrancy vulnerabilities. Consider using\r\n     * {ReentrancyGuard} or the\r\n     * https://solidity.readthedocs.io/en/v0.5.11/security-considerations.html#use-the-checks-effects-interactions-pattern[checks-effects-interactions pattern].\r\n     */\r\n    function sendValue(address payable recipient, uint256 amount) internal {\r\n        require(address(this).balance >= amount, 'Address: insufficient balance');\r\n\r\n        // solhint-disable-next-line avoid-low-level-calls, avoid-call-value\r\n        (bool success, ) = recipient.call{value: amount}('');\r\n        require(success, 'Address: unable to send value, recipient may have reverted');\r\n    }\r\n}\r\n\r\n// File: contracts/lib/SafeERC20.sol\r\n\r\n\r\n\r\npragma solidity 0.6.12;\r\n\r\n\r\n\r\n\r\n/**\r\n * @title SafeERC20\r\n * @dev From https://github.com/OpenZeppelin/openzeppelin-contracts\r\n * Wrappers around ERC20 operations that throw on failure (when the token\r\n * contract returns false). Tokens that return no value (and instead revert or\r\n * throw on failure) are also supported, non-reverting calls are assumed to be\r\n * successful.\r\n * To use this library you can add a `using SafeERC20 for IERC20;` statement to your contract,\r\n * which allows you to call the safe operations as `token.safeTransfer(...)`, etc.\r\n */\r\nlibrary SafeERC20 {\r\n    using SafeMath for uint256;\r\n    using Address for address;\r\n\r\n    function safeTransfer(IERC20 token, address to, uint256 value) internal {\r\n        callOptionalReturn(token, abi.encodeWithSelector(token.transfer.selector, to, value));\r\n    }\r\n\r\n    function safeTransferFrom(IERC20 token, address from, address to, uint256 value) internal {\r\n        callOptionalReturn(token, abi.encodeWithSelector(token.transferFrom.selector, from, to, value));\r\n    }\r\n\r\n    function safeApprove(IERC20 token, address spender, uint256 value) internal {\r\n        require((value == 0) || (token.allowance(address(this), spender) == 0),\r\n            \"SafeERC20: approve from non-zero to non-zero allowance\"\r\n        );\r\n        callOptionalReturn(token, abi.encodeWithSelector(token.approve.selector, spender, value));\r\n    }\r\n    \r\n    function callOptionalReturn(IERC20 token, bytes memory data) private {\r\n        require(address(token).isContract(), \"SafeERC20: call to non-contract\");\r\n\r\n        // solhint-disable-next-line avoid-low-level-calls\r\n        (bool success, bytes memory returndata) = address(token).call(data);\r\n        require(success, \"SafeERC20: low-level call failed\");\r\n\r\n        if (returndata.length > 0) { // Return data is optional\r\n            // solhint-disable-next-line max-line-length\r\n            require(abi.decode(returndata, (bool)), \"SafeERC20: ERC20 operation did not succeed\");\r\n        }\r\n    }\r\n}\r\n\r\n// File: contracts/utils/VersionedInitializable.sol\r\n\r\n\r\npragma solidity 0.6.12;\r\n\r\n/**\r\n * @title VersionedInitializable\r\n *\r\n * @dev Helper contract to support initializer functions. To use it, replace\r\n * the constructor with a function that has the `initializer` modifier.\r\n * WARNING: Unlike constructors, initializer functions must be manually\r\n * invoked. This applies both to deploying an Initializable contract, as well\r\n * as extending an Initializable contract via inheritance.\r\n * WARNING: When used with inheritance, manual care must be taken to not invoke\r\n * a parent initializer twice, or ensure that all initializers are idempotent,\r\n * because this is not dealt with automatically as with constructors.\r\n *\r\n * @author Roya, inspired by the OpenZeppelin Initializable contract\r\n */\r\nabstract contract VersionedInitializable {\r\n    /**\r\n     * @dev Indicates that the contract has been initialized.\r\n     */\r\n    uint256 internal lastInitializedRevision = 0;\r\n\r\n    /**\r\n     * @dev Modifier to use in the initializer function of a contract.\r\n     */\r\n    modifier initializer() {\r\n        uint256 revision = getRevision();\r\n        require(\r\n            revision > lastInitializedRevision,\r\n            'Contract instance has already been initialized'\r\n        );\r\n\r\n        lastInitializedRevision = revision;\r\n\r\n        _;\r\n    }\r\n\r\n    /// @dev returns the revision number of the contract.\r\n    /// Needs to be defined in the inherited class as a constant.\r\n    function getRevision() internal virtual pure returns (uint256);\r\n\r\n    // Reserved storage space to allow for layout changes in the future.\r\n    uint256[50] private ______gap;\r\n}\r\n\r\n// File: contracts/lib/DistributionTypes.sol\r\n\r\n\r\npragma solidity 0.6.12;\r\n\r\n\r\nlibrary DistributionTypes {\r\n  struct AssetConfigInput {\r\n    uint128 emissionPerSecond;\r\n    uint256 totalStaked;\r\n    address underlyingAsset;\r\n  }\r\n\r\n  struct UserStakeInput {\r\n    address underlyingAsset;\r\n    uint256 stakedByUser;\r\n    uint256 totalStaked;\r\n  }\r\n}\r\n\r\n// File: contracts/interfaces/IRoyaDistributionManager.sol\r\n\r\n\r\npragma solidity 0.6.12;\r\n\r\n\r\n\r\ninterface IRoyaDistributionManager {\r\n  function configureAssets(DistributionTypes.AssetConfigInput[] calldata assetsConfigInput) external;\r\n}\r\n\r\n// File: contracts/stake/RoyaDistributionManager.sol\r\n\r\n\r\npragma solidity 0.6.12;\r\n\r\n\r\n\r\n\r\n\r\n/**\r\n * @title RoyaDistributionManager\r\n * @notice Accounting contract to manage multiple staking distributions\r\n * @author Roya\r\n **/\r\ncontract RoyaDistributionManager is IRoyaDistributionManager {\r\n  using SafeMath for uint256;\r\n\r\n  struct AssetData {\r\n    uint128 emissionPerSecond;\r\n    uint128 lastUpdateTimestamp;\r\n    uint256 index;\r\n    mapping(address => uint256) users;\r\n  }\r\n\r\n  uint256 public immutable DISTRIBUTION_END;\r\n\r\n  address public immutable EMISSION_MANAGER;\r\n\r\n  uint8 public constant PRECISION = 18;\r\n\r\n  mapping(address => AssetData) public assets;\r\n\r\n  event AssetConfigUpdated(address indexed asset, uint256 emission);\r\n  event AssetIndexUpdated(address indexed asset, uint256 index);\r\n  event UserIndexUpdated(address indexed user, address indexed asset, uint256 index);\r\n\r\n  constructor(address emissionManager, uint256 distributionDuration) public {\r\n    DISTRIBUTION_END = block.timestamp.add(distributionDuration);\r\n    EMISSION_MANAGER = emissionManager;\r\n  }\r\n\r\n  /**\r\n   * @dev Configures the distribution of rewards for a list of assets\r\n   * @param assetsConfigInput The list of configurations to apply\r\n   **/\r\n  function configureAssets(DistributionTypes.AssetConfigInput[] calldata assetsConfigInput) external override {\r\n    require(msg.sender == EMISSION_MANAGER, 'ONLY_EMISSION_MANAGER');\r\n\r\n    for (uint256 i = 0; i < assetsConfigInput.length; i++) {\r\n      AssetData storage assetConfig = assets[assetsConfigInput[i].underlyingAsset];\r\n\r\n      _updateAssetStateInternal(\r\n        assetsConfigInput[i].underlyingAsset,\r\n        assetConfig,\r\n        assetsConfigInput[i].totalStaked\r\n      );\r\n\r\n      assetConfig.emissionPerSecond = assetsConfigInput[i].emissionPerSecond;\r\n\r\n      emit AssetConfigUpdated(\r\n        assetsConfigInput[i].underlyingAsset,\r\n        assetsConfigInput[i].emissionPerSecond\r\n      );\r\n    }\r\n  }\r\n\r\n  /**\r\n   * @dev Updates the state of one distribution, mainly rewards index and timestamp\r\n   * @param underlyingAsset The address used as key in the distribution, for example sAAVE or the aTokens addresses on Roya\r\n   * @param assetConfig Storage pointer to the distribution's config\r\n   * @param totalStaked Current total of staked assets for this distribution\r\n   * @return The new distribution index\r\n   **/\r\n  function _updateAssetStateInternal(\r\n    address underlyingAsset,\r\n    AssetData storage assetConfig,\r\n    uint256 totalStaked\r\n  ) internal returns (uint256) {\r\n    uint256 oldIndex = assetConfig.index;\r\n    uint128 lastUpdateTimestamp = assetConfig.lastUpdateTimestamp;\r\n\r\n    if (block.timestamp == lastUpdateTimestamp) {\r\n      return oldIndex;\r\n    }\r\n\r\n    uint256 newIndex = _getAssetIndex(\r\n      oldIndex,\r\n      assetConfig.emissionPerSecond,\r\n      lastUpdateTimestamp,\r\n      totalStaked\r\n    );\r\n\r\n    if (newIndex != oldIndex) {\r\n      assetConfig.index = newIndex;\r\n      emit AssetIndexUpdated(underlyingAsset, newIndex);\r\n    }\r\n\r\n    assetConfig.lastUpdateTimestamp = uint128(block.timestamp);\r\n\r\n    return newIndex;\r\n  }\r\n\r\n  /**\r\n   * @dev Updates the state of an user in a distribution\r\n   * @param user The user's address\r\n   * @param asset The address of the reference asset of the distribution\r\n   * @param stakedByUser Amount of tokens staked by the user in the distribution at the moment\r\n   * @param totalStaked Total tokens staked in the distribution\r\n   * @return The accrued rewards for the user until the moment\r\n   **/\r\n  function _updateUserAssetInternal(\r\n    address user,\r\n    address asset,\r\n    uint256 stakedByUser,\r\n    uint256 totalStaked\r\n  ) internal returns (uint256) {\r\n    AssetData storage assetData = assets[asset];\r\n    uint256 userIndex = assetData.users[user];\r\n    uint256 accruedRewards = 0;\r\n\r\n    uint256 newIndex = _updateAssetStateInternal(asset, assetData, totalStaked);\r\n\r\n    if (userIndex != newIndex) {\r\n      if (stakedByUser != 0) {\r\n        accruedRewards = _getRewards(stakedByUser, newIndex, userIndex);\r\n      }\r\n\r\n      assetData.users[user] = newIndex;\r\n      emit UserIndexUpdated(user, asset, newIndex);\r\n    }\r\n\r\n    return accruedRewards;\r\n  }\r\n\r\n  /**\r\n   * @dev Used by \"frontend\" stake contracts to update the data of an user when claiming rewards from there\r\n   * @param user The address of the user\r\n   * @param stakes List of structs of the user data related with his stake\r\n   * @return The accrued rewards for the user until the moment\r\n   **/\r\n  function _claimRewards(address user, DistributionTypes.UserStakeInput[] memory stakes)\r\n    internal\r\n    returns (uint256)\r\n  {\r\n    uint256 accruedRewards = 0;\r\n\r\n    for (uint256 i = 0; i < stakes.length; i++) {\r\n      accruedRewards = accruedRewards.add(\r\n        _updateUserAssetInternal(\r\n          user,\r\n          stakes[i].underlyingAsset,\r\n          stakes[i].stakedByUser,\r\n          stakes[i].totalStaked\r\n        )\r\n      );\r\n    }\r\n\r\n    return accruedRewards;\r\n  }\r\n\r\n  /**\r\n   * @dev Return the accrued rewards for an user over a list of distribution\r\n   * @param user The address of the user\r\n   * @param stakes List of structs of the user data related with his stake\r\n   * @return The accrued rewards for the user until the moment\r\n   **/\r\n  function _getUnclaimedRewards(address user, DistributionTypes.UserStakeInput[] memory stakes)\r\n    internal\r\n    view\r\n    returns (uint256)\r\n  {\r\n    uint256 accruedRewards = 0;\r\n\r\n    for (uint256 i = 0; i < stakes.length; i++) {\r\n      AssetData storage assetConfig = assets[stakes[i].underlyingAsset];\r\n      uint256 assetIndex = _getAssetIndex(\r\n        assetConfig.index,\r\n        assetConfig.emissionPerSecond,\r\n        assetConfig.lastUpdateTimestamp,\r\n        stakes[i].totalStaked\r\n      );\r\n\r\n      accruedRewards = accruedRewards.add(\r\n        _getRewards(stakes[i].stakedByUser, assetIndex, assetConfig.users[user])\r\n      );\r\n    }\r\n    return accruedRewards;\r\n  }\r\n\r\n  /**\r\n   * @dev Internal function for the calculation of user's rewards on a distribution\r\n   * @param principalUserBalance Amount staked by the user on a distribution\r\n   * @param reserveIndex Current index of the distribution\r\n   * @param userIndex Index stored for the user, representation his staking moment\r\n   * @return The rewards\r\n   **/\r\n  function _getRewards(\r\n    uint256 principalUserBalance,\r\n    uint256 reserveIndex,\r\n    uint256 userIndex\r\n  ) internal pure returns (uint256) {\r\n    return principalUserBalance.mul(reserveIndex.sub(userIndex)).div(10**uint256(PRECISION));\r\n  }\r\n\r\n  /**\r\n   * @dev Calculates the next value of an specific distribution index, with validations\r\n   * @param currentIndex Current index of the distribution\r\n   * @param emissionPerSecond Representing the total rewards distributed per second per asset unit, on the distribution\r\n   * @param lastUpdateTimestamp Last moment this distribution was updated\r\n   * @param totalBalance of tokens considered for the distribution\r\n   * @return The new index.\r\n   **/\r\n  function _getAssetIndex(\r\n    uint256 currentIndex,\r\n    uint256 emissionPerSecond,\r\n    uint128 lastUpdateTimestamp,\r\n    uint256 totalBalance\r\n  ) internal view returns (uint256) {\r\n    if (\r\n      emissionPerSecond == 0 ||\r\n      totalBalance == 0 ||\r\n      lastUpdateTimestamp == block.timestamp ||\r\n      lastUpdateTimestamp >= DISTRIBUTION_END\r\n    ) {\r\n      return currentIndex;\r\n    }\r\n\r\n    uint256 currentTimestamp = block.timestamp > DISTRIBUTION_END\r\n      ? DISTRIBUTION_END\r\n      : block.timestamp;\r\n    uint256 timeDelta = currentTimestamp.sub(lastUpdateTimestamp);\r\n    return\r\n      emissionPerSecond.mul(timeDelta).mul(10**uint256(PRECISION)).div(totalBalance).add(\r\n        currentIndex\r\n      );\r\n  }\r\n\r\n  /**\r\n   * @dev Returns the data of an user on a distribution\r\n   * @param user Address of the user\r\n   * @param asset The address of the reference asset of the distribution\r\n   * @return The new index\r\n   **/\r\n  function getUserAssetData(address user, address asset) public view returns (uint256) {\r\n    return assets[asset].users[user];\r\n  }\r\n}\r\n\r\n// File: contracts/stake/StakedToken.sol\r\n\r\n\r\npragma solidity 0.6.12;\r\n\r\n\r\n\r\n\r\n\r\n\r\n\r\n\r\n\r\n\r\n/**\r\n * @title StakedToken\r\n * @notice Contract to stake Roya token, tokenize the position and get rewards, inheriting from a distribution manager contract\r\n * @author Roya\r\n **/\r\ncontract StakedToken is IStakedRoya, ERC20WithSnapshot, VersionedInitializable, RoyaDistributionManager {\r\n  using SafeERC20 for IERC20;\r\n\r\n  uint256 public constant REVISION = 1;\r\n\r\n  IERC20 public immutable STAKED_TOKEN;\r\n  IERC20 public immutable REWARD_TOKEN;\r\n  uint256 public immutable COOLDOWN_SECONDS;\r\n\r\n  /// @notice Seconds available to redeem once the cooldown period is fullfilled\r\n  uint256 public immutable UNSTAKE_WINDOW;\r\n\r\n  /// @notice Address to pull from the rewards, needs to have approved this contract\r\n  address public immutable REWARDS_VAULT;\r\n\r\n  mapping(address => uint256) public stakerRewardsToClaim;\r\n  mapping(address => uint256) public stakersCooldowns;\r\n\r\n  event Staked(address indexed from, address indexed onBehalfOf, uint256 amount);\r\n  event Redeem(address indexed from, address indexed to, uint256 amount);\r\n\r\n  event RewardsAccrued(address user, uint256 amount);\r\n  event RewardsClaimed(address indexed from, address indexed to, uint256 amount);\r\n\r\n  event Cooldown(address indexed user);\r\n\r\n  constructor(\r\n    IERC20 stakedToken,\r\n    IERC20 rewardToken,\r\n    uint256 cooldownSeconds,\r\n    uint256 unstakeWindow,\r\n    address rewardsVault,\r\n    address emissionManager,\r\n    uint128 distributionDuration,\r\n    string memory name,\r\n    string memory symbol,\r\n    uint8 decimals\r\n  ) public ERC20WithSnapshot(name, symbol, decimals) RoyaDistributionManager(emissionManager, distributionDuration) {\r\n    STAKED_TOKEN = stakedToken;\r\n    REWARD_TOKEN = rewardToken;\r\n    COOLDOWN_SECONDS = cooldownSeconds;\r\n    UNSTAKE_WINDOW = unstakeWindow;\r\n    REWARDS_VAULT = rewardsVault;\r\n  }\r\n\r\n  /**\r\n   * @dev Called by the proxy contract\r\n   **/\r\n  function initialize(ITransferHook royaGovernance, string calldata name, string calldata symbol, uint8 decimals) external initializer {\r\n    _setName(name);\r\n    _setSymbol(symbol);\r\n    _setDecimals(decimals);\r\n    _setRoyaGovernance(royaGovernance);\r\n  }\r\n\r\n  function getStakersCooldowns(address user) public view returns(uint256){\r\n    uint256 cooldownStartTimestamp = stakersCooldowns[user];\r\n    if (block.timestamp < cooldownStartTimestamp.add(COOLDOWN_SECONDS))\r\n        return 1;\r\n    else if (block.timestamp.sub(cooldownStartTimestamp.add(COOLDOWN_SECONDS)) <= UNSTAKE_WINDOW)\r\n        return 2;\r\n    else \r\n        return 0;\r\n  }\r\n\r\n  function stake(address onBehalfOf, uint256 amount) external override {\r\n    require(amount != 0, 'INVALID_ZERO_AMOUNT');\r\n    uint256 balanceOfUser = balanceOf(onBehalfOf);\r\n\r\n    uint256 accruedRewards = _updateUserAssetInternal(\r\n      onBehalfOf,\r\n      address(this),\r\n      balanceOfUser,\r\n      totalSupply()\r\n    );\r\n    if (accruedRewards != 0) {\r\n      emit RewardsAccrued(onBehalfOf, accruedRewards);\r\n      stakerRewardsToClaim[onBehalfOf] = stakerRewardsToClaim[onBehalfOf].add(accruedRewards);\r\n    }\r\n\r\n    stakersCooldowns[onBehalfOf] = getNextCooldownTimestamp(0, amount, onBehalfOf, balanceOfUser);\r\n\r\n    _mint(onBehalfOf, amount);\r\n    IERC20(STAKED_TOKEN).safeTransferFrom(msg.sender, address(this), amount);\r\n\r\n    emit Staked(msg.sender, onBehalfOf, amount);\r\n  }\r\n\r\n  /**\r\n   * @dev Redeems staked tokens, and stop earning rewards\r\n   * @param to Address to redeem to\r\n   * @param amount Amount to redeem\r\n   **/\r\n  function redeem(address to, uint256 amount) external override {\r\n    require(amount != 0, 'INVALID_ZERO_AMOUNT');\r\n    //solium-disable-next-line\r\n    uint256 cooldownStartTimestamp = stakersCooldowns[msg.sender];\r\n    require(\r\n      block.timestamp > cooldownStartTimestamp.add(COOLDOWN_SECONDS),\r\n      'INSUFFICIENT_COOLDOWN'\r\n    );\r\n    require(\r\n      block.timestamp.sub(cooldownStartTimestamp.add(COOLDOWN_SECONDS)) <= UNSTAKE_WINDOW,\r\n      'UNSTAKE_WINDOW_FINISHED'\r\n    );\r\n    uint256 balanceOfMessageSender = balanceOf(msg.sender);\r\n\r\n    uint256 amountToRedeem = (amount > balanceOfMessageSender) ? balanceOfMessageSender : amount;\r\n\r\n    _updateCurrentUnclaimedRewards(msg.sender, balanceOfMessageSender, true);\r\n\r\n    _burn(msg.sender, amountToRedeem);\r\n\r\n    if (balanceOfMessageSender.sub(amountToRedeem) == 0) {\r\n      stakersCooldowns[msg.sender] = 0;\r\n    }\r\n\r\n    IERC20(STAKED_TOKEN).safeTransfer(to, amountToRedeem);\r\n\r\n    emit Redeem(msg.sender, to, amountToRedeem);\r\n  }\r\n\r\n  /**\r\n   * @dev Activates the cooldown period to unstake\r\n   * - It can't be called if the user is not staking\r\n   **/\r\n  function cooldown() external override {\r\n    require(balanceOf(msg.sender) != 0, \"INVALID_BALANCE_ON_COOLDOWN\");\r\n    //solium-disable-next-line\r\n    stakersCooldowns[msg.sender] = block.timestamp;\r\n\r\n    emit Cooldown(msg.sender);\r\n  }\r\n\r\n  /**\r\n   * @dev Claims an `amount` of `REWARD_TOKEN` to the address `to`\r\n   * @param to Address to stake for\r\n   * @param amount Amount to stake\r\n   **/\r\n  function claimRewards(address to, uint256 amount) external override {\r\n    uint256 newTotalRewards = _updateCurrentUnclaimedRewards(\r\n      msg.sender,\r\n      balanceOf(msg.sender),\r\n      false\r\n    );\r\n    uint256 amountToClaim = (amount == type(uint256).max) ? newTotalRewards : amount;\r\n\r\n    stakerRewardsToClaim[msg.sender] = newTotalRewards.sub(amountToClaim, \"INVALID_AMOUNT\");\r\n\r\n    REWARD_TOKEN.safeTransferFrom(REWARDS_VAULT, to, amountToClaim);\r\n\r\n    emit RewardsClaimed(msg.sender, to, amountToClaim);\r\n  }\r\n\r\n  /**\r\n   * @dev Internal ERC20 _transfer of the tokenized staked tokens\r\n   * @param from Address to transfer from\r\n   * @param to Address to transfer to\r\n   * @param amount Amount to transfer\r\n   **/\r\n  function _transfer(\r\n    address from,\r\n    address to,\r\n    uint256 amount\r\n  ) internal override {\r\n    uint256 balanceOfFrom = balanceOf(from);\r\n    // Sender\r\n    _updateCurrentUnclaimedRewards(from, balanceOfFrom, true);\r\n\r\n    // Recipient\r\n    if (from != to) {\r\n      uint256 balanceOfTo = balanceOf(to);\r\n      _updateCurrentUnclaimedRewards(to, balanceOfTo, true);\r\n\r\n      uint256 previousSenderCooldown = stakersCooldowns[from];\r\n      stakersCooldowns[to] = getNextCooldownTimestamp(previousSenderCooldown, amount, to, balanceOfTo);\r\n      // if cooldown was set and whole balance of sender was transferred - clear cooldown\r\n      if (balanceOfFrom == amount && previousSenderCooldown != 0) {\r\n        stakersCooldowns[from] = 0;\r\n      }\r\n    }\r\n\r\n    super._transfer(from, to, amount);\r\n  }\r\n\r\n  /**\r\n   * @dev Updates the user state related with his accrued rewards\r\n   * @param user Address of the user\r\n   * @param userBalance The current balance of the user\r\n   * @param updateStorage Boolean flag used to update or not the stakerRewardsToClaim of the user\r\n   * @return The unclaimed rewards that were added to the total accrued\r\n   **/\r\n  function _updateCurrentUnclaimedRewards(\r\n    address user,\r\n    uint256 userBalance,\r\n    bool updateStorage\r\n  ) internal returns (uint256) {\r\n    uint256 accruedRewards = _updateUserAssetInternal(\r\n      user,\r\n      address(this),\r\n      userBalance,\r\n      totalSupply()\r\n    );\r\n    uint256 unclaimedRewards = stakerRewardsToClaim[user].add(accruedRewards);\r\n\r\n    if (accruedRewards != 0) {\r\n      if (updateStorage) {\r\n        stakerRewardsToClaim[user] = unclaimedRewards;\r\n      }\r\n      emit RewardsAccrued(user, accruedRewards);\r\n    }\r\n\r\n    return unclaimedRewards;\r\n  }\r\n\r\n  /**\r\n   * @dev Calculates the how is gonna be a new cooldown timestamp depending on the sender/receiver situation\r\n   *  - If the timestamp of the sender is \"better\" or the timestamp of the recipient is 0, we take the one of the recipient\r\n   *  - Weighted average of from/to cooldown timestamps if:\r\n   *    # The sender doesn't have the cooldown activated (timestamp 0).\r\n   *    # The sender timestamp is expired\r\n   *    # The sender has a \"worse\" timestamp\r\n   *  - If the receiver's cooldown timestamp expired (too old), the next is 0\r\n   * @param fromCooldownTimestamp Cooldown timestamp of the sender\r\n   * @param amountToReceive Amount\r\n   * @param toAddress Address of the recipient\r\n   * @param toBalance Current balance of the receiver\r\n   * @return The new cooldown timestamp\r\n   **/\r\n  function getNextCooldownTimestamp(\r\n    uint256 fromCooldownTimestamp,\r\n    uint256 amountToReceive,\r\n    address toAddress,\r\n    uint256 toBalance\r\n  ) public view returns (uint256) {\r\n    uint256 toCooldownTimestamp = stakersCooldowns[toAddress];\r\n    if (toCooldownTimestamp == 0) {\r\n      return 0;\r\n    }\r\n\r\n    uint256 minimalValidCooldownTimestamp = block.timestamp.sub(COOLDOWN_SECONDS).sub(\r\n      UNSTAKE_WINDOW\r\n    );\r\n\r\n    if (minimalValidCooldownTimestamp > toCooldownTimestamp) {\r\n      toCooldownTimestamp = 0;\r\n    } else {\r\n      uint256 fromCooldownTimestamp = (minimalValidCooldownTimestamp > fromCooldownTimestamp)\r\n        ? block.timestamp\r\n        : fromCooldownTimestamp;\r\n\r\n      if (fromCooldownTimestamp < toCooldownTimestamp) {\r\n        return toCooldownTimestamp;\r\n      } else {\r\n        toCooldownTimestamp = (\r\n          amountToReceive.mul(fromCooldownTimestamp).add(toBalance.mul(toCooldownTimestamp))\r\n        )\r\n          .div(amountToReceive.add(toBalance));\r\n      }\r\n    }\r\n    //stakersCooldowns[toAddress] = toCooldownTimestamp;\r\n\r\n    return toCooldownTimestamp;\r\n  }\r\n\r\n  /**\r\n   * @dev Return the total rewards pending to claim by an staker\r\n   * @param staker The staker address\r\n   * @return The rewards\r\n   */\r\n  function getTotalRewardsBalance(address staker) external view returns (uint256) {\r\n\r\n      DistributionTypes.UserStakeInput[] memory userStakeInputs\r\n     = new DistributionTypes.UserStakeInput[](1);\r\n    userStakeInputs[0] = DistributionTypes.UserStakeInput({\r\n      underlyingAsset: address(this),\r\n      stakedByUser: balanceOf(staker),\r\n      totalStaked: totalSupply()\r\n    });\r\n    return stakerRewardsToClaim[staker].add(_getUnclaimedRewards(staker, userStakeInputs));\r\n  }\r\n\r\n  /**\r\n   * @dev returns the revision of the implementation contract\r\n   * @return The revision\r\n   */\r\n  function getRevision() internal override pure returns (uint256) {\r\n    return REVISION;\r\n  }\r\n}\r\n\r\n// File: contracts/stake/StakedRoya.sol\r\n\r\n\r\npragma solidity 0.6.12;\r\n\r\n\r\n\r\n\r\n/**\r\n * @title StakedRoya\r\n * @notice StakedToken with AAVE token as staked token\r\n * @author Roya\r\n **/\r\ncontract StakedRoya is StakedToken {\r\n  string internal constant NAME = 'Staked Roya';\r\n  string internal constant SYMBOL = 'stkRoya';\r\n  uint8 internal constant DECIMALS = 18;\r\n  \r\n  constructor(\r\n    IERC20 stakedToken,\r\n    IERC20 rewardToken,\r\n    uint256 cooldownSeconds,\r\n    uint256 unstakeWindow,\r\n    address rewardsVault,\r\n    address emissionManager,\r\n    uint128 distributionDuration\r\n  ) public StakedToken(\r\n    stakedToken,\r\n    rewardToken,\r\n    cooldownSeconds,\r\n    unstakeWindow,\r\n    rewardsVault,\r\n    emissionManager,\r\n    distributionDuration,\r\n    NAME,\r\n    SYMBOL,\r\n    DECIMALS) {}\r\n}",
  "sourcePath": "C:/Users/vishn/OneDrive/Desktop/codezero2pi/royaleSecondAudit/royale-contracts/contracts/RoyaleUtility/Reserve.sol",
  "compiler": {
    "name": "solc",
    "version": "0.6.12+commit.27d51765.Emscripten.clang"
  },
  "schemaVersion": "3.3.2",
  "updatedAt": "2021-05-04T14:20:40.552Z",
  "devdoc": {
    "author": "Roya*",
    "kind": "dev",
    "methods": {
      "allowance(address,address)": {
        "details": "returns the allowance of spender on the tokens owned by owner",
        "params": {
          "owner": "the owner of the tokens",
          "spender": "the user allowed to spend the owner's tokens"
        },
        "returns": {
          "_0": "the amount of owner's tokens spender is allowed to spend*"
        }
      },
      "approve(address,uint256)": {
        "details": "allows spender to spend the tokens owned by msg.sender",
        "params": {
          "spender": "the user allowed to spend msg.sender tokens"
        },
        "returns": {
          "_0": "true*"
        }
      },
      "balanceOf(address)": {
        "returns": {
          "_0": "the balance of the token*"
        }
      },
      "decimals()": {
        "returns": {
          "_0": "the decimals of the token*"
        }
      },
      "decreaseAllowance(address,uint256)": {
        "details": "decreases the allowance of spender to spend msg.sender tokens",
        "params": {
          "spender": "the user allowed to spend on behalf of msg.sender",
          "subtractedValue": "the amount being subtracted to the allowance"
        },
        "returns": {
          "_0": "true*"
        }
      },
      "increaseAllowance(address,uint256)": {
        "details": "increases the allowance of spender to spend msg.sender tokens",
        "params": {
          "addedValue": "the amount being added to the allowance",
          "spender": "the user allowed to spend on behalf of msg.sender"
        },
        "returns": {
          "_0": "true*"
        }
      },
      "name()": {
        "returns": {
          "_0": "the name of the token*"
        }
      },
      "symbol()": {
        "returns": {
          "_0": "the symbol of the token*"
        }
      },
      "totalSupply()": {
        "returns": {
          "_0": "the total supply of the token*"
        }
      },
      "transfer(address,uint256)": {
        "details": "executes a transfer of tokens from msg.sender to recipient",
        "params": {
          "amount": "the amount of tokens being transferred",
          "recipient": "the recipient of the tokens"
        },
        "returns": {
          "_0": "true if the transfer succeeds, false otherwise*"
        }
      },
      "transferFrom(address,address,uint256)": {
        "details": "executes a transfer of token from sender to recipient, if msg.sender is allowed to do so",
        "params": {
          "amount": "the amount of tokens being transferred",
          "recipient": "the recipient of the tokens",
          "sender": "the owner of the tokens"
        },
        "returns": {
          "_0": "true if the transfer succeeds, false otherwise*"
        }
      }
    },
    "stateVariables": {
      "_royaGovernance": {
        "details": "reference to the Roya governance contract to call (if initialized) on _beforeTokenTransfer !!! IMPORTANT The Roya governance is considered a trustable contract, being its responsibility to control all potential reentrancies by calling back the this contract"
      }
    },
    "title": "ERC20WithSnapshot",
    "version": 1
  },
  "userdoc": {
    "kind": "user",
    "methods": {},
    "notice": "ERC20 including snapshots of balances on transfer-related actions",
    "version": 1
  }
}