{
  "contractName": "poolStrategy",
  "abi": [
    {
      "inputs": [
        {
          "internalType": "address",
          "name": "_wallet",
          "type": "address"
        },
        {
          "internalType": "contract IERC20[4]",
          "name": "_tokens",
          "type": "address[4]"
        },
        {
          "internalType": "address",
          "name": "_royaleaddress",
          "type": "address"
        },
        {
          "internalType": "address",
          "name": "_yieldDistributor",
          "type": "address"
        },
        {
          "internalType": "address",
          "name": "_daiPoolToken",
          "type": "address"
        },
        {
          "internalType": "address",
          "name": "_pool3Token",
          "type": "address"
        },
        {
          "internalType": "address",
          "name": "_epsToken",
          "type": "address"
        },
        {
          "internalType": "address",
          "name": "_daiPool",
          "type": "address"
        },
        {
          "internalType": "address",
          "name": "_pool3",
          "type": "address"
        },
        {
          "internalType": "address",
          "name": "_depositZap",
          "type": "address"
        },
        {
          "internalType": "address",
          "name": "_lpStaker",
          "type": "address"
        },
        {
          "internalType": "address",
          "name": "_epsStaker",
          "type": "address"
        },
        {
          "internalType": "address",
          "name": "_pancake",
          "type": "address"
        },
        {
          "internalType": "address",
          "name": "_wbnb",
          "type": "address"
        }
      ],
      "stateMutability": "nonpayable",
      "type": "constructor"
    },
    {
      "anonymous": false,
      "inputs": [
        {
          "indexed": false,
          "internalType": "uint256",
          "name": "",
          "type": "uint256"
        }
      ],
      "name": "EPSStaked",
      "type": "event"
    },
    {
      "anonymous": false,
      "inputs": [
        {
          "indexed": false,
          "internalType": "uint256",
          "name": "",
          "type": "uint256"
        }
      ],
      "name": "EPSWithdrawn",
      "type": "event"
    },
    {
      "anonymous": false,
      "inputs": [
        {
          "indexed": false,
          "internalType": "address",
          "name": "",
          "type": "address"
        },
        {
          "indexed": false,
          "internalType": "uint256",
          "name": "",
          "type": "uint256"
        }
      ],
      "name": "Recovered",
      "type": "event"
    },
    {
      "anonymous": false,
      "inputs": [],
      "name": "epsVested",
      "type": "event"
    },
    {
      "anonymous": false,
      "inputs": [
        {
          "indexed": false,
          "internalType": "uint256",
          "name": "EPS",
          "type": "uint256"
        },
        {
          "indexed": false,
          "internalType": "uint256",
          "name": "BUSD",
          "type": "uint256"
        }
      ],
      "name": "rewardClaimed",
      "type": "event"
    },
    {
      "anonymous": false,
      "inputs": [
        {
          "indexed": false,
          "internalType": "uint256",
          "name": "",
          "type": "uint256"
        }
      ],
      "name": "staked",
      "type": "event"
    },
    {
      "anonymous": false,
      "inputs": [
        {
          "indexed": false,
          "internalType": "uint256",
          "name": "",
          "type": "uint256"
        }
      ],
      "name": "unstaked",
      "type": "event"
    },
    {
      "anonymous": false,
      "inputs": [
        {
          "indexed": false,
          "internalType": "address",
          "name": "oldOwner",
          "type": "address"
        },
        {
          "indexed": false,
          "internalType": "address",
          "name": "newOwner",
          "type": "address"
        }
      ],
      "name": "walletChanged",
      "type": "event"
    },
    {
      "anonymous": false,
      "inputs": [
        {
          "indexed": false,
          "internalType": "address",
          "name": "newOwner",
          "type": "address"
        }
      ],
      "name": "walletNominated",
      "type": "event"
    },
    {
      "anonymous": false,
      "inputs": [],
      "name": "yieldTransfered",
      "type": "event"
    },
    {
      "inputs": [],
      "name": "DENOMINATOR",
      "outputs": [
        {
          "internalType": "uint256",
          "name": "",
          "type": "uint256"
        }
      ],
      "stateMutability": "view",
      "type": "function",
      "constant": true
    },
    {
      "inputs": [],
      "name": "N_COINS",
      "outputs": [
        {
          "internalType": "uint256",
          "name": "",
          "type": "uint256"
        }
      ],
      "stateMutability": "view",
      "type": "function",
      "constant": true
    },
    {
      "inputs": [],
      "name": "WBNB",
      "outputs": [
        {
          "internalType": "address",
          "name": "",
          "type": "address"
        }
      ],
      "stateMutability": "view",
      "type": "function",
      "constant": true
    },
    {
      "inputs": [],
      "name": "daiPool",
      "outputs": [
        {
          "internalType": "contract EllipsisDAIPool",
          "name": "",
          "type": "address"
        }
      ],
      "stateMutability": "view",
      "type": "function",
      "constant": true
    },
    {
      "inputs": [],
      "name": "daiPoolToken",
      "outputs": [
        {
          "internalType": "contract IERC20",
          "name": "",
          "type": "address"
        }
      ],
      "stateMutability": "view",
      "type": "function",
      "constant": true
    },
    {
      "inputs": [],
      "name": "depositSlip",
      "outputs": [
        {
          "internalType": "uint256",
          "name": "",
          "type": "uint256"
        }
      ],
      "stateMutability": "view",
      "type": "function",
      "constant": true
    },
    {
      "inputs": [],
      "name": "depositZap",
      "outputs": [
        {
          "internalType": "contract DepositZap",
          "name": "",
          "type": "address"
        }
      ],
      "stateMutability": "view",
      "type": "function",
      "constant": true
    },
    {
      "inputs": [],
      "name": "epsStaker",
      "outputs": [
        {
          "internalType": "contract EPSStaker",
          "name": "",
          "type": "address"
        }
      ],
      "stateMutability": "view",
      "type": "function",
      "constant": true
    },
    {
      "inputs": [],
      "name": "epsToken",
      "outputs": [
        {
          "internalType": "contract IERC20",
          "name": "",
          "type": "address"
        }
      ],
      "stateMutability": "view",
      "type": "function",
      "constant": true
    },
    {
      "inputs": [],
      "name": "lpStaker",
      "outputs": [
        {
          "internalType": "contract LPStaker",
          "name": "",
          "type": "address"
        }
      ],
      "stateMutability": "view",
      "type": "function",
      "constant": true
    },
    {
      "inputs": [],
      "name": "nominatedWallet",
      "outputs": [
        {
          "internalType": "address",
          "name": "",
          "type": "address"
        }
      ],
      "stateMutability": "view",
      "type": "function",
      "constant": true
    },
    {
      "inputs": [],
      "name": "pancake",
      "outputs": [
        {
          "internalType": "contract Pancake",
          "name": "",
          "type": "address"
        }
      ],
      "stateMutability": "view",
      "type": "function",
      "constant": true
    },
    {
      "inputs": [],
      "name": "pool3",
      "outputs": [
        {
          "internalType": "contract Ellipsis3Pool",
          "name": "",
          "type": "address"
        }
      ],
      "stateMutability": "view",
      "type": "function",
      "constant": true
    },
    {
      "inputs": [],
      "name": "pool3Token",
      "outputs": [
        {
          "internalType": "contract IERC20",
          "name": "",
          "type": "address"
        }
      ],
      "stateMutability": "view",
      "type": "function",
      "constant": true
    },
    {
      "inputs": [],
      "name": "poolID",
      "outputs": [
        {
          "internalType": "uint256",
          "name": "",
          "type": "uint256"
        }
      ],
      "stateMutability": "view",
      "type": "function",
      "constant": true
    },
    {
      "inputs": [],
      "name": "royaleAddress",
      "outputs": [
        {
          "internalType": "address",
          "name": "",
          "type": "address"
        }
      ],
      "stateMutability": "view",
      "type": "function",
      "constant": true
    },
    {
      "inputs": [
        {
          "internalType": "uint256",
          "name": "",
          "type": "uint256"
        }
      ],
      "name": "tokens",
      "outputs": [
        {
          "internalType": "contract IERC20",
          "name": "",
          "type": "address"
        }
      ],
      "stateMutability": "view",
      "type": "function",
      "constant": true
    },
    {
      "inputs": [],
      "name": "wallet",
      "outputs": [
        {
          "internalType": "address",
          "name": "",
          "type": "address"
        }
      ],
      "stateMutability": "view",
      "type": "function",
      "constant": true
    },
    {
      "inputs": [],
      "name": "withdrawSlip",
      "outputs": [
        {
          "internalType": "uint256",
          "name": "",
          "type": "uint256"
        }
      ],
      "stateMutability": "view",
      "type": "function",
      "constant": true
    },
    {
      "inputs": [],
      "name": "yieldDistributor",
      "outputs": [
        {
          "internalType": "address",
          "name": "",
          "type": "address"
        }
      ],
      "stateMutability": "view",
      "type": "function",
      "constant": true
    },
    {
      "inputs": [
        {
          "internalType": "address",
          "name": "_wallet",
          "type": "address"
        }
      ],
      "name": "nominateNewOwner",
      "outputs": [],
      "stateMutability": "nonpayable",
      "type": "function"
    },
    {
      "inputs": [],
      "name": "acceptOwnership",
      "outputs": [],
      "stateMutability": "nonpayable",
      "type": "function"
    },
    {
      "inputs": [
        {
          "internalType": "address",
          "name": "_address",
          "type": "address"
        }
      ],
      "name": "changeRoyaleLP",
      "outputs": [],
      "stateMutability": "nonpayable",
      "type": "function"
    },
    {
      "inputs": [
        {
          "internalType": "address",
          "name": "_address",
          "type": "address"
        }
      ],
      "name": "changeYieldDistributor",
      "outputs": [],
      "stateMutability": "nonpayable",
      "type": "function"
    },
    {
      "inputs": [
        {
          "internalType": "uint256",
          "name": "_value",
          "type": "uint256"
        }
      ],
      "name": "changeDepositSlip",
      "outputs": [],
      "stateMutability": "nonpayable",
      "type": "function"
    },
    {
      "inputs": [
        {
          "internalType": "uint256",
          "name": "_value",
          "type": "uint256"
        }
      ],
      "name": "changeWithdrawSlip",
      "outputs": [],
      "stateMutability": "nonpayable",
      "type": "function"
    },
    {
      "inputs": [
        {
          "internalType": "uint256[4]",
          "name": "amounts",
          "type": "uint256[4]"
        }
      ],
      "name": "deposit",
      "outputs": [],
      "stateMutability": "nonpayable",
      "type": "function"
    },
    {
      "inputs": [
        {
          "internalType": "uint256[4]",
          "name": "amounts",
          "type": "uint256[4]"
        },
        {
          "internalType": "uint256[4]",
          "name": "max_burn",
          "type": "uint256[4]"
        }
      ],
      "name": "withdraw",
      "outputs": [],
      "stateMutability": "nonpayable",
      "type": "function"
    },
    {
      "inputs": [],
      "name": "withdrawAll",
      "outputs": [
        {
          "internalType": "uint256[4]",
          "name": "",
          "type": "uint256[4]"
        }
      ],
      "stateMutability": "nonpayable",
      "type": "function"
    },
    {
      "inputs": [],
      "name": "stakeLP",
      "outputs": [],
      "stateMutability": "nonpayable",
      "type": "function"
    },
    {
      "inputs": [
        {
          "internalType": "uint256",
          "name": "_amount",
          "type": "uint256"
        }
      ],
      "name": "unstakeLP",
      "outputs": [],
      "stateMutability": "nonpayable",
      "type": "function"
    },
    {
      "inputs": [],
      "name": "checkClaimableToken",
      "outputs": [
        {
          "internalType": "uint256",
          "name": "",
          "type": "uint256"
        }
      ],
      "stateMutability": "view",
      "type": "function",
      "constant": true
    },
    {
      "inputs": [],
      "name": "claimLPEPS",
      "outputs": [],
      "stateMutability": "nonpayable",
      "type": "function"
    },
    {
      "inputs": [
        {
          "internalType": "uint256",
          "name": "_amount",
          "type": "uint256"
        },
        {
          "internalType": "bool",
          "name": "_lock",
          "type": "bool"
        }
      ],
      "name": "stakeEPS",
      "outputs": [],
      "stateMutability": "nonpayable",
      "type": "function"
    },
    {
      "inputs": [
        {
          "internalType": "uint256",
          "name": "_amount",
          "type": "uint256"
        }
      ],
      "name": "unstakEPS",
      "outputs": [],
      "stateMutability": "nonpayable",
      "type": "function"
    },
    {
      "inputs": [
        {
          "internalType": "bool",
          "name": "_transfer",
          "type": "bool"
        }
      ],
      "name": "claimReward",
      "outputs": [],
      "stateMutability": "nonpayable",
      "type": "function"
    },
    {
      "inputs": [
        {
          "internalType": "bool",
          "name": "_transfer",
          "type": "bool"
        }
      ],
      "name": "withdrawExpiredlockEPS",
      "outputs": [],
      "stateMutability": "nonpayable",
      "type": "function"
    },
    {
      "inputs": [],
      "name": "checkUnlockedBalance",
      "outputs": [
        {
          "internalType": "uint256",
          "name": "",
          "type": "uint256"
        }
      ],
      "stateMutability": "view",
      "type": "function",
      "constant": true
    },
    {
      "inputs": [
        {
          "internalType": "bool",
          "name": "_transfer",
          "type": "bool"
        }
      ],
      "name": "ExitAllStakedEPS",
      "outputs": [],
      "stateMutability": "nonpayable",
      "type": "function"
    },
    {
      "inputs": [
        {
          "internalType": "uint256",
          "name": "_amount",
          "type": "uint256"
        },
        {
          "internalType": "uint256",
          "name": "_index",
          "type": "uint256"
        },
        {
          "internalType": "uint256",
          "name": "_minAmount",
          "type": "uint256"
        }
      ],
      "name": "swapEPS",
      "outputs": [],
      "stateMutability": "nonpayable",
      "type": "function"
    },
    {
      "inputs": [
        {
          "internalType": "address",
          "name": "_tokenAddress",
          "type": "address"
        },
        {
          "internalType": "uint256",
          "name": "_tokenAmount",
          "type": "uint256"
        }
      ],
      "name": "recoverERC20",
      "outputs": [],
      "stateMutability": "nonpayable",
      "type": "function"
    }
  ],
  "bytecode": "0x60806040526004601055606460115560646012553480156200002057600080fd5b5060405162005b3338038062005b3383398181016040526102208110156200004757600080fd5b8101908080519060200190929190919082608001805190602001909291908051906020019092919080519060200190929190805190602001909291908051906020019092919080519060200190929190805190602001909291908051906020019092919080519060200190929190805190602001909291908051906020019092919080519060200190929190505050601360105490806001815401808255809150506001900390600052602060002001600090919091909150558d601460006101000a81548173ffffffffffffffffffffffffffffffffffffffff021916908373ffffffffffffffffffffffffffffffffffffffff1602179055508c60059060046200015592919062000475565b508b6000806101000a81548173ffffffffffffffffffffffffffffffffffffffff021916908373ffffffffffffffffffffffffffffffffffffffff1602179055508a600160006101000a81548173ffffffffffffffffffffffffffffffffffffffff021916908373ffffffffffffffffffffffffffffffffffffffff16021790555089600260006101000a81548173ffffffffffffffffffffffffffffffffffffffff021916908373ffffffffffffffffffffffffffffffffffffffff16021790555088600360006101000a81548173ffffffffffffffffffffffffffffffffffffffff021916908373ffffffffffffffffffffffffffffffffffffffff16021790555087600460006101000a81548173ffffffffffffffffffffffffffffffffffffffff021916908373ffffffffffffffffffffffffffffffffffffffff16021790555086600960006101000a81548173ffffffffffffffffffffffffffffffffffffffff021916908373ffffffffffffffffffffffffffffffffffffffff16021790555085600a60006101000a81548173ffffffffffffffffffffffffffffffffffffffff021916908373ffffffffffffffffffffffffffffffffffffffff16021790555084600b60006101000a81548173ffffffffffffffffffffffffffffffffffffffff021916908373ffffffffffffffffffffffffffffffffffffffff16021790555083600c60006101000a81548173ffffffffffffffffffffffffffffffffffffffff021916908373ffffffffffffffffffffffffffffffffffffffff16021790555082600d60006101000a81548173ffffffffffffffffffffffffffffffffffffffff021916908373ffffffffffffffffffffffffffffffffffffffff16021790555081600e60006101000a81548173ffffffffffffffffffffffffffffffffffffffff021916908373ffffffffffffffffffffffffffffffffffffffff16021790555080600f60006101000a81548173ffffffffffffffffffffffffffffffffffffffff021916908373ffffffffffffffffffffffffffffffffffffffff160217905550505050505050505050505050505062000534565b8260048101928215620004e4579160200282015b82811115620004e35782518260006101000a81548173ffffffffffffffffffffffffffffffffffffffff021916908373ffffffffffffffffffffffffffffffffffffffff1602179055509160200191906001019062000489565b5b509050620004f39190620004f7565b5090565b5b808211156200053057600081816101000a81549073ffffffffffffffffffffffffffffffffffffffff021916905550600101620004f8565b5090565b6155ef80620005446000396000f3fe608060405234801561001057600080fd5b50600436106102535760003560e01c80637e5258ad11610146578063a8c4d3ae116100c3578063d7a2f45411610087578063d7a2f4541461094f578063da9ced1d14610983578063e96e89dc146109a1578063ebcb12f6146109cf578063f7ee0b8e14610a34578063f905864814610a7857610253565b8063a8c4d3ae1461086b578063a93c52ec1461089f578063c4778998146108d3578063c5a0ffd714610901578063d3639ae31461093157610253565b8063918f86741161010a578063918f8674146107a7578063970a643d146107c5578063a38c2c3d146107f9578063a3fbb8d31461082d578063a691c7ff1461086157610253565b80637e5258ad1461068d578063853828b6146106c15780638980f11f146107075780638d934485146107555780638dd950021461077357610253565b8063488a3578116101d45780636fbc1cc9116101985780636fbc1cc91461059b57806371968f1d146105dd578063784be1881461060b57806379ba50971461063f57806379f9ae1f1461064957610253565b8063488a3578146104835780634f64b2be146104bd578063521eb2731461051557806353ce36a9146105495780636e75702e1461057d57610253565b80632b51a0951161021b5780632b51a0951461039f5780632d806767146103d35780632dd52288146103f15780632eeb151b1461042557806344264dda1461045357610253565b806306ec9b5b146102585780630817e2831461028c57806310ff582d146103335780631627540c1461033d5780632935775014610381575b600080fd5b610260610aa8565b604051808273ffffffffffffffffffffffffffffffffffffffff16815260200191505060405180910390f35b61033160048036036101008110156102a357600080fd5b8101908080608001906004806020026040519081016040528092919082600460200280828437600081840152601f19601f820116905080830192505050505050919291929080608001906004806020026040519081016040528092919082600460200280828437600081840152601f19601f8201169050808301925050505050509192919290505050610ace565b005b61033b61103c565b005b61037f6004803603602081101561035357600080fd5b81019080803573ffffffffffffffffffffffffffffffffffffffff1690602001909291905050506113cd565b005b610389611521565b6040518082815260200191505060405180910390f35b6103a7611526565b604051808273ffffffffffffffffffffffffffffffffffffffff16815260200191505060405180910390f35b6103db61154a565b6040518082815260200191505060405180910390f35b6103f9611615565b604051808273ffffffffffffffffffffffffffffffffffffffff16815260200191505060405180910390f35b6104516004803603602081101561043b57600080fd5b810190808035906020019092919050505061163b565b005b6104816004803603602081101561046957600080fd5b810190808035151590602001909291905050506117c5565b005b6104bb6004803603604081101561049957600080fd5b8101908080359060200190929190803515159060200190929190505050611d99565b005b6104e9600480360360208110156104d357600080fd5b8101908080359060200190929190505050612083565b604051808273ffffffffffffffffffffffffffffffffffffffff16815260200191505060405180910390f35b61051d6120b6565b604051808273ffffffffffffffffffffffffffffffffffffffff16815260200191505060405180910390f35b6105516120dc565b604051808273ffffffffffffffffffffffffffffffffffffffff16815260200191505060405180910390f35b610585612102565b6040518082815260200191505060405180910390f35b6105db600480360360608110156105b157600080fd5b81019080803590602001909291908035906020019092919080359060200190929190505050612108565b005b610609600480360360208110156105f357600080fd5b81019080803590602001909291905050506126d5565b005b6106136127a2565b604051808273ffffffffffffffffffffffffffffffffffffffff16815260200191505060405180910390f35b6106476127c8565b005b61068b6004803603602081101561065f57600080fd5b81019080803573ffffffffffffffffffffffffffffffffffffffff1690602001909291905050506129c4565b005b610695612acb565b604051808273ffffffffffffffffffffffffffffffffffffffff16815260200191505060405180910390f35b6106c9612af1565b6040518082600460200280838360005b838110156106f45780820151818401526020810190506106d9565b5050505090500191505060405180910390f35b6107536004803603604081101561071d57600080fd5b81019080803573ffffffffffffffffffffffffffffffffffffffff1690602001909291908035906020019092919050505061322f565b005b61075d61345c565b6040518082815260200191505060405180910390f35b61077b613462565b604051808273ffffffffffffffffffffffffffffffffffffffff16815260200191505060405180910390f35b6107af613488565b6040518082815260200191505060405180910390f35b6107cd61348e565b604051808273ffffffffffffffffffffffffffffffffffffffff16815260200191505060405180910390f35b6108016134b4565b604051808273ffffffffffffffffffffffffffffffffffffffff16815260200191505060405180910390f35b6108356134da565b604051808273ffffffffffffffffffffffffffffffffffffffff16815260200191505060405180910390f35b610869613500565b005b610873613713565b604051808273ffffffffffffffffffffffffffffffffffffffff16815260200191505060405180910390f35b6108a7613739565b604051808273ffffffffffffffffffffffffffffffffffffffff16815260200191505060405180910390f35b6108ff600480360360208110156108e957600080fd5b810190808035906020019092919050505061375f565b005b61092f6004803603602081101561091757600080fd5b81019080803515159060200190929190505050613a81565b005b6109396140b8565b6040518082815260200191505060405180910390f35b61095761418d565b604051808273ffffffffffffffffffffffffffffffffffffffff16815260200191505060405180910390f35b61098b6141b3565b6040518082815260200191505060405180910390f35b6109cd600480360360208110156109b757600080fd5b81019080803590602001909291905050506141b9565b005b610a32600480360360808110156109e557600080fd5b8101908080608001906004806020026040519081016040528092919082600460200280828437600081840152601f19601f8201169050808301925050505050509192919290505050614286565b005b610a7660048036036020811015610a4a57600080fd5b81019080803573ffffffffffffffffffffffffffffffffffffffff169060200190929190505050614782565b005b610aa660048036036020811015610a8e57600080fd5b81019080803515159060200190929190505050614888565b005b600e60009054906101000a900473ffffffffffffffffffffffffffffffffffffffff1681565b60008054906101000a900473ffffffffffffffffffffffffffffffffffffffff1673ffffffffffffffffffffffffffffffffffffffff163373ffffffffffffffffffffffffffffffffffffffff1614610b8f576040517f08c379a000000000000000000000000000000000000000000000000000000000815260040180806020018281038252600e8152602001807f4e6f7420617574686f72697a656400000000000000000000000000000000000081525060200191505060405180910390fd5b600080600090505b6004811015610bd257610bc3838260048110610baf57fe5b602002015183614c4f90919063ffffffff16565b91508080600101915050610b97565b50610c10612710610c02610bf3601254612710614c4f90919063ffffffff16565b84614cd790919063ffffffff16565b614d5d90919063ffffffff16565b9050610c1b8161375f565b610c8b600b60009054906101000a900473ffffffffffffffffffffffffffffffffffffffff166000600260009054906101000a900473ffffffffffffffffffffffffffffffffffffffff1673ffffffffffffffffffffffffffffffffffffffff16614de69092919063ffffffff16565b610cfa600b60009054906101000a900473ffffffffffffffffffffffffffffffffffffffff1682600260009054906101000a900473ffffffffffffffffffffffffffffffffffffffff1673ffffffffffffffffffffffffffffffffffffffff16614de69092919063ffffffff16565b600b60009054906101000a900473ffffffffffffffffffffffffffffffffffffffff1673ffffffffffffffffffffffffffffffffffffffff166318a7bd7684836040518363ffffffff1660e01b81526004018083600460200280838360005b83811015610d74578082015181840152602081019050610d59565b5050505090500182815260200192505050602060405180830381600087803b158015610d9f57600080fd5b505af1158015610db3573d6000803e3d6000fd5b505050506040513d6020811015610dc957600080fd5b81019080805190602001909291905050505060005b60048160ff161015610f61576000848260ff1660048110610dfb57fe5b602002015114610f5457610f5360008054906101000a900473ffffffffffffffffffffffffffffffffffffffff1660058360ff1660048110610e3957fe5b0160009054906101000a900473ffffffffffffffffffffffffffffffffffffffff1673ffffffffffffffffffffffffffffffffffffffff166370a08231306040518263ffffffff1660e01b8152600401808273ffffffffffffffffffffffffffffffffffffffff16815260200191505060206040518083038186803b158015610ec157600080fd5b505afa158015610ed5573d6000803e3d6000fd5b505050506040513d6020811015610eeb57600080fd5b810190808051906020019092919050505060058460ff1660048110610f0c57fe5b0160009054906101000a900473ffffffffffffffffffffffffffffffffffffffff1673ffffffffffffffffffffffffffffffffffffffff16614fab9092919063ffffffff16565b5b8080600101915050610dde565b506000600260009054906101000a900473ffffffffffffffffffffffffffffffffffffffff1673ffffffffffffffffffffffffffffffffffffffff166370a08231306040518263ffffffff1660e01b8152600401808273ffffffffffffffffffffffffffffffffffffffff16815260200191505060206040518083038186803b158015610fed57600080fd5b505afa158015611001573d6000803e3d6000fd5b505050506040513d602081101561101757600080fd5b810190808051906020019092919050505011156110375761103661103c565b5b505050565b3373ffffffffffffffffffffffffffffffffffffffff16601460009054906101000a900473ffffffffffffffffffffffffffffffffffffffff1673ffffffffffffffffffffffffffffffffffffffff1614806110e3575060008054906101000a900473ffffffffffffffffffffffffffffffffffffffff1673ffffffffffffffffffffffffffffffffffffffff163373ffffffffffffffffffffffffffffffffffffffff16145b611155576040517f08c379a000000000000000000000000000000000000000000000000000000000815260040180806020018281038252600e8152602001807f4e6f7420617574686f72697a656400000000000000000000000000000000000081525060200191505060405180910390fd5b6000600260009054906101000a900473ffffffffffffffffffffffffffffffffffffffff1673ffffffffffffffffffffffffffffffffffffffff166370a08231306040518263ffffffff1660e01b8152600401808273ffffffffffffffffffffffffffffffffffffffff16815260200191505060206040518083038186803b1580156111e057600080fd5b505afa1580156111f4573d6000803e3d6000fd5b505050506040513d602081101561120a57600080fd5b8101908080519060200190929190505050905061128d600c60009054906101000a900473ffffffffffffffffffffffffffffffffffffffff166000600260009054906101000a900473ffffffffffffffffffffffffffffffffffffffff1673ffffffffffffffffffffffffffffffffffffffff16614de69092919063ffffffff16565b6112fc600c60009054906101000a900473ffffffffffffffffffffffffffffffffffffffff1682600260009054906101000a900473ffffffffffffffffffffffffffffffffffffffff1673ffffffffffffffffffffffffffffffffffffffff16614de69092919063ffffffff16565b600c60009054906101000a900473ffffffffffffffffffffffffffffffffffffffff1673ffffffffffffffffffffffffffffffffffffffff1663e2bbb158601054836040518363ffffffff1660e01b81526004018083815260200182815260200192505050600060405180830381600087803b15801561137b57600080fd5b505af115801561138f573d6000803e3d6000fd5b505050507f5e1bef326bd9222892c5e49c4e6756af0f42c0b91d698bd306965987bc1f9a7e816040518082815260200191505060405180910390a150565b3373ffffffffffffffffffffffffffffffffffffffff16601460009054906101000a900473ffffffffffffffffffffffffffffffffffffffff1673ffffffffffffffffffffffffffffffffffffffff1614611490576040517f08c379a000000000000000000000000000000000000000000000000000000000815260040180806020018281038252600e8152602001807f4e6f7420417574686f72697a656400000000000000000000000000000000000081525060200191505060405180910390fd5b80601560006101000a81548173ffffffffffffffffffffffffffffffffffffffff021916908373ffffffffffffffffffffffffffffffffffffffff1602179055507f34e5b3a286aa0821b202b74f9fa683c8f56e1f2875caafc853d080382896917881604051808273ffffffffffffffffffffffffffffffffffffffff16815260200191505060405180910390a150565b600481565b60008054906101000a900473ffffffffffffffffffffffffffffffffffffffff1681565b6000600d60009054906101000a900473ffffffffffffffffffffffffffffffffffffffff1673ffffffffffffffffffffffffffffffffffffffff16635e0fac2e306040518263ffffffff1660e01b8152600401808273ffffffffffffffffffffffffffffffffffffffff16815260200191505060206040518083038186803b1580156115d557600080fd5b505afa1580156115e9573d6000803e3d6000fd5b505050506040513d60208110156115ff57600080fd5b8101908080519060200190929190505050905090565b600c60009054906101000a900473ffffffffffffffffffffffffffffffffffffffff1681565b3373ffffffffffffffffffffffffffffffffffffffff16601460009054906101000a900473ffffffffffffffffffffffffffffffffffffffff1673ffffffffffffffffffffffffffffffffffffffff16146116fe576040517f08c379a000000000000000000000000000000000000000000000000000000000815260040180806020018281038252600e8152602001807f4e6f7420417574686f72697a656400000000000000000000000000000000000081525060200191505060405180910390fd5b600d60009054906101000a900473ffffffffffffffffffffffffffffffffffffffff1673ffffffffffffffffffffffffffffffffffffffff16632e1a7d4d826040518263ffffffff1660e01b815260040180828152602001915050600060405180830381600087803b15801561177357600080fd5b505af1158015611787573d6000803e3d6000fd5b505050507ff95a2c0596f6385248573dc7680ff0f3be2b017415f97dca3dacb24717f63a26816040518082815260200191505060405180910390a150565b3373ffffffffffffffffffffffffffffffffffffffff16601460009054906101000a900473ffffffffffffffffffffffffffffffffffffffff1673ffffffffffffffffffffffffffffffffffffffff1614611888576040517f08c379a000000000000000000000000000000000000000000000000000000000815260040180806020018281038252600e8152602001807f4e6f7420417574686f72697a656400000000000000000000000000000000000081525060200191505060405180910390fd5b6000600560016004811061189857fe5b0160009054906101000a900473ffffffffffffffffffffffffffffffffffffffff1673ffffffffffffffffffffffffffffffffffffffff166370a08231306040518263ffffffff1660e01b8152600401808273ffffffffffffffffffffffffffffffffffffffff16815260200191505060206040518083038186803b15801561192057600080fd5b505afa158015611934573d6000803e3d6000fd5b505050506040513d602081101561194a57600080fd5b810190808051906020019092919050505090506000600460009054906101000a900473ffffffffffffffffffffffffffffffffffffffff1673ffffffffffffffffffffffffffffffffffffffff166370a08231306040518263ffffffff1660e01b8152600401808273ffffffffffffffffffffffffffffffffffffffff16815260200191505060206040518083038186803b1580156119e857600080fd5b505afa1580156119fc573d6000803e3d6000fd5b505050506040513d6020811015611a1257600080fd5b81019080805190602001909291905050509050600d60009054906101000a900473ffffffffffffffffffffffffffffffffffffffff1673ffffffffffffffffffffffffffffffffffffffff1663e9fad8ee6040518163ffffffff1660e01b8152600401600060405180830381600087803b158015611a8f57600080fd5b505af1158015611aa3573d6000803e3d6000fd5b5050505060006005600160048110611ab757fe5b0160009054906101000a900473ffffffffffffffffffffffffffffffffffffffff1673ffffffffffffffffffffffffffffffffffffffff166370a08231306040518263ffffffff1660e01b8152600401808273ffffffffffffffffffffffffffffffffffffffff16815260200191505060206040518083038186803b158015611b3f57600080fd5b505afa158015611b53573d6000803e3d6000fd5b505050506040513d6020811015611b6957600080fd5b810190808051906020019092919050505090506000600460009054906101000a900473ffffffffffffffffffffffffffffffffffffffff1673ffffffffffffffffffffffffffffffffffffffff166370a08231306040518263ffffffff1660e01b8152600401808273ffffffffffffffffffffffffffffffffffffffff16815260200191505060206040518083038186803b158015611c0757600080fd5b505afa158015611c1b573d6000803e3d6000fd5b505050506040513d6020811015611c3157600080fd5b810190808051906020019092919050505090508415611ce8576000611c5f848361504d90919063ffffffff16565b1115611ce757611ce6600160009054906101000a900473ffffffffffffffffffffffffffffffffffffffff16611c9e858461504d90919063ffffffff16565b600460009054906101000a900473ffffffffffffffffffffffffffffffffffffffff1673ffffffffffffffffffffffffffffffffffffffff16614fab9092919063ffffffff16565b5b5b6000611cfd858461504d90919063ffffffff16565b1115611d9257611d91600160009054906101000a900473ffffffffffffffffffffffffffffffffffffffff16611d3c868561504d90919063ffffffff16565b6005600160048110611d4a57fe5b0160009054906101000a900473ffffffffffffffffffffffffffffffffffffffff1673ffffffffffffffffffffffffffffffffffffffff16614fab9092919063ffffffff16565b5b5050505050565b3373ffffffffffffffffffffffffffffffffffffffff16601460009054906101000a900473ffffffffffffffffffffffffffffffffffffffff1673ffffffffffffffffffffffffffffffffffffffff1614611e5c576040517f08c379a000000000000000000000000000000000000000000000000000000000815260040180806020018281038252600e8152602001807f4e6f7420417574686f72697a656400000000000000000000000000000000000081525060200191505060405180910390fd5b60008211611ed2576040517f08c379a000000000000000000000000000000000000000000000000000000000815260040180806020018281038252600f8152602001807f63616e206e6f74207374616b652030000000000000000000000000000000000081525060200191505060405180910390fd5b611f42600d60009054906101000a900473ffffffffffffffffffffffffffffffffffffffff166000600460009054906101000a900473ffffffffffffffffffffffffffffffffffffffff1673ffffffffffffffffffffffffffffffffffffffff16614de69092919063ffffffff16565b611fb1600d60009054906101000a900473ffffffffffffffffffffffffffffffffffffffff1683600460009054906101000a900473ffffffffffffffffffffffffffffffffffffffff1673ffffffffffffffffffffffffffffffffffffffff16614de69092919063ffffffff16565b600d60009054906101000a900473ffffffffffffffffffffffffffffffffffffffff1673ffffffffffffffffffffffffffffffffffffffff1663abe50f1983836040518363ffffffff1660e01b815260040180838152602001821515815260200192505050600060405180830381600087803b15801561203057600080fd5b505af1158015612044573d6000803e3d6000fd5b505050507fc563de5ebbccecd1c27b9b388c65bf97044e3cb1e6bf0326da0ad7a3809e0694826040518082815260200191505060405180910390a15050565b6005816004811061209057fe5b016000915054906101000a900473ffffffffffffffffffffffffffffffffffffffff1681565b601460009054906101000a900473ffffffffffffffffffffffffffffffffffffffff1681565b600a60009054906101000a900473ffffffffffffffffffffffffffffffffffffffff1681565b60125481565b3373ffffffffffffffffffffffffffffffffffffffff16601460009054906101000a900473ffffffffffffffffffffffffffffffffffffffff1673ffffffffffffffffffffffffffffffffffffffff16146121cb576040517f08c379a000000000000000000000000000000000000000000000000000000000815260040180806020018281038252600e8152602001807f4e6f7420417574686f72697a656400000000000000000000000000000000000081525060200191505060405180910390fd5b82600460009054906101000a900473ffffffffffffffffffffffffffffffffffffffff1673ffffffffffffffffffffffffffffffffffffffff166370a08231306040518263ffffffff1660e01b8152600401808273ffffffffffffffffffffffffffffffffffffffff16815260200191505060206040518083038186803b15801561225557600080fd5b505afa158015612269573d6000803e3d6000fd5b505050506040513d602081101561227f57600080fd5b81019080805190602001909291905050501015612304576040517f08c379a00000000000000000000000000000000000000000000000000000000081526004018080602001828103825260178152602001807f496e73756666696369656e742045505320616d6f756e7400000000000000000081525060200191505060405180910390fd5b612374600e60009054906101000a900473ffffffffffffffffffffffffffffffffffffffff166000600460009054906101000a900473ffffffffffffffffffffffffffffffffffffffff1673ffffffffffffffffffffffffffffffffffffffff16614de69092919063ffffffff16565b6123e3600e60009054906101000a900473ffffffffffffffffffffffffffffffffffffffff1684600460009054906101000a900473ffffffffffffffffffffffffffffffffffffffff1673ffffffffffffffffffffffffffffffffffffffff16614de69092919063ffffffff16565b6060600367ffffffffffffffff811180156123fd57600080fd5b5060405190808252806020026020018201604052801561242c5781602001602082028036833780820191505090505b509050600460009054906101000a900473ffffffffffffffffffffffffffffffffffffffff168160008151811061245f57fe5b602002602001019073ffffffffffffffffffffffffffffffffffffffff16908173ffffffffffffffffffffffffffffffffffffffff1681525050600f60009054906101000a900473ffffffffffffffffffffffffffffffffffffffff16816001815181106124c957fe5b602002602001019073ffffffffffffffffffffffffffffffffffffffff16908173ffffffffffffffffffffffffffffffffffffffff16815250506005836004811061251057fe5b0160009054906101000a900473ffffffffffffffffffffffffffffffffffffffff168160028151811061253f57fe5b602002602001019073ffffffffffffffffffffffffffffffffffffffff16908173ffffffffffffffffffffffffffffffffffffffff1681525050600e60009054906101000a900473ffffffffffffffffffffffffffffffffffffffff1673ffffffffffffffffffffffffffffffffffffffff166338ed1739858484600160009054906101000a900473ffffffffffffffffffffffffffffffffffffffff1661025842016040518663ffffffff1660e01b815260040180868152602001858152602001806020018473ffffffffffffffffffffffffffffffffffffffff168152602001838152602001828103825285818151815260200191508051906020019060200280838360005b83811015612662578082015181840152602081019050612647565b505050509050019650505050505050600060405180830381600087803b15801561268b57600080fd5b505af115801561269f573d6000803e3d6000fd5b505050507f4acdc864e2c852884206e81c2cfaa26ad44ef34d115a71f76302e35e6736e10d60405160405180910390a150505050565b3373ffffffffffffffffffffffffffffffffffffffff16601460009054906101000a900473ffffffffffffffffffffffffffffffffffffffff1673ffffffffffffffffffffffffffffffffffffffff1614612798576040517f08c379a000000000000000000000000000000000000000000000000000000000815260040180806020018281038252600e8152602001807f4e6f7420417574686f72697a656400000000000000000000000000000000000081525060200191505060405180910390fd5b8060118190555050565b600360009054906101000a900473ffffffffffffffffffffffffffffffffffffffff1681565b601560009054906101000a900473ffffffffffffffffffffffffffffffffffffffff1673ffffffffffffffffffffffffffffffffffffffff163373ffffffffffffffffffffffffffffffffffffffff161461286e576040517f08c379a00000000000000000000000000000000000000000000000000000000081526004018080602001828103825260358152602001806154ba6035913960400191505060405180910390fd5b7f6058119c217577f8ad236dec0d66116c29ed9d1f362482f49becdbffe3ae0df1601460009054906101000a900473ffffffffffffffffffffffffffffffffffffffff16601560009054906101000a900473ffffffffffffffffffffffffffffffffffffffff16604051808373ffffffffffffffffffffffffffffffffffffffff1681526020018273ffffffffffffffffffffffffffffffffffffffff1681526020019250505060405180910390a1601560009054906101000a900473ffffffffffffffffffffffffffffffffffffffff16601460006101000a81548173ffffffffffffffffffffffffffffffffffffffff021916908373ffffffffffffffffffffffffffffffffffffffff1602179055506000601560006101000a81548173ffffffffffffffffffffffffffffffffffffffff021916908373ffffffffffffffffffffffffffffffffffffffff160217905550565b3373ffffffffffffffffffffffffffffffffffffffff16601460009054906101000a900473ffffffffffffffffffffffffffffffffffffffff1673ffffffffffffffffffffffffffffffffffffffff1614612a87576040517f08c379a000000000000000000000000000000000000000000000000000000000815260040180806020018281038252600e8152602001807f4e6f7420417574686f72697a656400000000000000000000000000000000000081525060200191505060405180910390fd5b80600160006101000a81548173ffffffffffffffffffffffffffffffffffffffff021916908373ffffffffffffffffffffffffffffffffffffffff16021790555050565b600960009054906101000a900473ffffffffffffffffffffffffffffffffffffffff1681565b612af9615497565b60008054906101000a900473ffffffffffffffffffffffffffffffffffffffff1673ffffffffffffffffffffffffffffffffffffffff163373ffffffffffffffffffffffffffffffffffffffff1614612bba576040517f08c379a000000000000000000000000000000000000000000000000000000000815260040180806020018281038252600e8152602001807f4e6f7420617574686f72697a656400000000000000000000000000000000000081525060200191505060405180910390fd5b6000612bc46140b8565b1115612bd357612bd2613500565b5b600c60009054906101000a900473ffffffffffffffffffffffffffffffffffffffff1673ffffffffffffffffffffffffffffffffffffffff16635312ea8e6010546040518263ffffffff1660e01b815260040180828152602001915050600060405180830381600087803b158015612c4a57600080fd5b505af1158015612c5e573d6000803e3d6000fd5b50505050612c6a615497565b612cda600b60009054906101000a900473ffffffffffffffffffffffffffffffffffffffff166000600260009054906101000a900473ffffffffffffffffffffffffffffffffffffffff1673ffffffffffffffffffffffffffffffffffffffff16614de69092919063ffffffff16565b612e0c600b60009054906101000a900473ffffffffffffffffffffffffffffffffffffffff16600260009054906101000a900473ffffffffffffffffffffffffffffffffffffffff1673ffffffffffffffffffffffffffffffffffffffff166370a08231306040518263ffffffff1660e01b8152600401808273ffffffffffffffffffffffffffffffffffffffff16815260200191505060206040518083038186803b158015612d8957600080fd5b505afa158015612d9d573d6000803e3d6000fd5b505050506040513d6020811015612db357600080fd5b8101908080519060200190929190505050600260009054906101000a900473ffffffffffffffffffffffffffffffffffffffff1673ffffffffffffffffffffffffffffffffffffffff16614de69092919063ffffffff16565b600b60009054906101000a900473ffffffffffffffffffffffffffffffffffffffff1673ffffffffffffffffffffffffffffffffffffffff16637d49d875600260009054906101000a900473ffffffffffffffffffffffffffffffffffffffff1673ffffffffffffffffffffffffffffffffffffffff166370a08231306040518263ffffffff1660e01b8152600401808273ffffffffffffffffffffffffffffffffffffffff16815260200191505060206040518083038186803b158015612ed357600080fd5b505afa158015612ee7573d6000803e3d6000fd5b505050506040513d6020811015612efd57600080fd5b8101908080519060200190929190505050836040518363ffffffff1660e01b81526004018083815260200182600460200280838360005b83811015612f4f578082015181840152602081019050612f34565b5050505090500192505050608060405180830381600087803b158015612f7457600080fd5b505af1158015612f88573d6000803e3d6000fd5b505050506040513d601f19601f820116820180604052506080811015612fad57600080fd5b81019080919050505060005b60048160ff16101561322757600060058260ff1660048110612fd757fe5b0160009054906101000a900473ffffffffffffffffffffffffffffffffffffffff1673ffffffffffffffffffffffffffffffffffffffff166370a08231306040518263ffffffff1660e01b8152600401808273ffffffffffffffffffffffffffffffffffffffff16815260200191505060206040518083038186803b15801561305f57600080fd5b505afa158015613073573d6000803e3d6000fd5b505050506040513d602081101561308957600080fd5b81019080805190602001909291905050501461321a5760058160ff16600481106130af57fe5b0160009054906101000a900473ffffffffffffffffffffffffffffffffffffffff1673ffffffffffffffffffffffffffffffffffffffff166370a08231306040518263ffffffff1660e01b8152600401808273ffffffffffffffffffffffffffffffffffffffff16815260200191505060206040518083038186803b15801561313757600080fd5b505afa15801561314b573d6000803e3d6000fd5b505050506040513d602081101561316157600080fd5b8101908080519060200190929190505050828260ff166004811061318157fe5b60200201818152505061321960008054906101000a900473ffffffffffffffffffffffffffffffffffffffff16838360ff16600481106131bd57fe5b602002015160058460ff16600481106131d257fe5b0160009054906101000a900473ffffffffffffffffffffffffffffffffffffffff1673ffffffffffffffffffffffffffffffffffffffff16614fab9092919063ffffffff16565b5b8080600101915050612fb9565b508091505090565b3373ffffffffffffffffffffffffffffffffffffffff16601460009054906101000a900473ffffffffffffffffffffffffffffffffffffffff1673ffffffffffffffffffffffffffffffffffffffff16146132f2576040517f08c379a000000000000000000000000000000000000000000000000000000000815260040180806020018281038252600e8152602001807f4e6f7420417574686f72697a656400000000000000000000000000000000000081525060200191505060405180910390fd5b600260009054906101000a900473ffffffffffffffffffffffffffffffffffffffff1673ffffffffffffffffffffffffffffffffffffffff168273ffffffffffffffffffffffffffffffffffffffff1614156133b6576040517f08c379a000000000000000000000000000000000000000000000000000000000815260040180806020018281038252601c8152602001807f43616e6e6f7420776974686472617720444149204c5020746f6b656e0000000081525060200191505060405180910390fd5b613403600160009054906101000a900473ffffffffffffffffffffffffffffffffffffffff16828473ffffffffffffffffffffffffffffffffffffffff16614fab9092919063ffffffff16565b7f8c1256b8896378cd5044f80c202f9772b9d77dc85c8a6eb51967210b09bfaa288282604051808373ffffffffffffffffffffffffffffffffffffffff1681526020018281526020019250505060405180910390a15050565b60105481565b600f60009054906101000a900473ffffffffffffffffffffffffffffffffffffffff1681565b61271081565b600b60009054906101000a900473ffffffffffffffffffffffffffffffffffffffff1681565b600160009054906101000a900473ffffffffffffffffffffffffffffffffffffffff1681565b600460009054906101000a900473ffffffffffffffffffffffffffffffffffffffff1681565b3373ffffffffffffffffffffffffffffffffffffffff16601460009054906101000a900473ffffffffffffffffffffffffffffffffffffffff1673ffffffffffffffffffffffffffffffffffffffff1614806135a7575060008054906101000a900473ffffffffffffffffffffffffffffffffffffffff1673ffffffffffffffffffffffffffffffffffffffff163373ffffffffffffffffffffffffffffffffffffffff16145b613619576040517f08c379a000000000000000000000000000000000000000000000000000000000815260040180806020018281038252600e8152602001807f4e6f7420617574686f72697a656400000000000000000000000000000000000081525060200191505060405180910390fd5b600c60009054906101000a900473ffffffffffffffffffffffffffffffffffffffff1673ffffffffffffffffffffffffffffffffffffffff16636ba4c13860136040518263ffffffff1660e01b8152600401808060200182810382528381815481526020019150805480156136ad57602002820191906000526020600020905b815481526020019060010190808311613699575b505092505050600060405180830381600087803b1580156136cd57600080fd5b505af11580156136e1573d6000803e3d6000fd5b505050507f39785eef756f9bc93943558729eb0c93c637051da879bb7524337debd68adf7f60405160405180910390a1565b601560009054906101000a900473ffffffffffffffffffffffffffffffffffffffff1681565b600260009054906101000a900473ffffffffffffffffffffffffffffffffffffffff1681565b3373ffffffffffffffffffffffffffffffffffffffff16601460009054906101000a900473ffffffffffffffffffffffffffffffffffffffff1673ffffffffffffffffffffffffffffffffffffffff161480613806575060008054906101000a900473ffffffffffffffffffffffffffffffffffffffff1673ffffffffffffffffffffffffffffffffffffffff163373ffffffffffffffffffffffffffffffffffffffff16145b613878576040517f08c379a000000000000000000000000000000000000000000000000000000000815260040180806020018281038252600e8152602001807f4e6f7420617574686f72697a656400000000000000000000000000000000000081525060200191505060405180910390fd5b6000600c60009054906101000a900473ffffffffffffffffffffffffffffffffffffffff1673ffffffffffffffffffffffffffffffffffffffff166393f1a40b601054306040518363ffffffff1660e01b8152600401808381526020018273ffffffffffffffffffffffffffffffffffffffff16815260200192505050604080518083038186803b15801561390c57600080fd5b505afa158015613920573d6000803e3d6000fd5b505050506040513d604081101561393657600080fd5b8101908080519060200190929190805190602001909291905050505080915050818110156139af576040517f08c379a00000000000000000000000000000000000000000000000000000000081526004018080602001828103825260248152602001806155606024913960400191505060405180910390fd5b600c60009054906101000a900473ffffffffffffffffffffffffffffffffffffffff1673ffffffffffffffffffffffffffffffffffffffff1663441a3e70601054846040518363ffffffff1660e01b81526004018083815260200182815260200192505050600060405180830381600087803b158015613a2e57600080fd5b505af1158015613a42573d6000803e3d6000fd5b505050507f862f62b448d7253dc6afebd1a94d3fed70796abc517f689f329288fb288e3331826040518082815260200191505060405180910390a15050565b3373ffffffffffffffffffffffffffffffffffffffff16601460009054906101000a900473ffffffffffffffffffffffffffffffffffffffff1673ffffffffffffffffffffffffffffffffffffffff1614613b44576040517f08c379a000000000000000000000000000000000000000000000000000000000815260040180806020018281038252600e8152602001807f4e6f7420417574686f72697a656400000000000000000000000000000000000081525060200191505060405180910390fd5b60006005600160048110613b5457fe5b0160009054906101000a900473ffffffffffffffffffffffffffffffffffffffff1673ffffffffffffffffffffffffffffffffffffffff166370a08231306040518263ffffffff1660e01b8152600401808273ffffffffffffffffffffffffffffffffffffffff16815260200191505060206040518083038186803b158015613bdc57600080fd5b505afa158015613bf0573d6000803e3d6000fd5b505050506040513d6020811015613c0657600080fd5b810190808051906020019092919050505090506000600460009054906101000a900473ffffffffffffffffffffffffffffffffffffffff1673ffffffffffffffffffffffffffffffffffffffff166370a08231306040518263ffffffff1660e01b8152600401808273ffffffffffffffffffffffffffffffffffffffff16815260200191505060206040518083038186803b158015613ca457600080fd5b505afa158015613cb8573d6000803e3d6000fd5b505050506040513d6020811015613cce57600080fd5b81019080805190602001909291905050509050600d60009054906101000a900473ffffffffffffffffffffffffffffffffffffffff1673ffffffffffffffffffffffffffffffffffffffff16633d18b9126040518163ffffffff1660e01b8152600401600060405180830381600087803b158015613d4b57600080fd5b505af1158015613d5f573d6000803e3d6000fd5b5050505060006005600160048110613d7357fe5b0160009054906101000a900473ffffffffffffffffffffffffffffffffffffffff1673ffffffffffffffffffffffffffffffffffffffff166370a08231306040518263ffffffff1660e01b8152600401808273ffffffffffffffffffffffffffffffffffffffff16815260200191505060206040518083038186803b158015613dfb57600080fd5b505afa158015613e0f573d6000803e3d6000fd5b505050506040513d6020811015613e2557600080fd5b810190808051906020019092919050505090506000600460009054906101000a900473ffffffffffffffffffffffffffffffffffffffff1673ffffffffffffffffffffffffffffffffffffffff166370a08231306040518263ffffffff1660e01b8152600401808273ffffffffffffffffffffffffffffffffffffffff16815260200191505060206040518083038186803b158015613ec357600080fd5b505afa158015613ed7573d6000803e3d6000fd5b505050506040513d6020811015613eed57600080fd5b810190808051906020019092919050505090507f157ea1c684cf80492c91d926c5a3baaf21db7ab64b32a864d9106beb3e108397613f34848361504d90919063ffffffff16565b613f47868561504d90919063ffffffff16565b604051808381526020018281526020019250505060405180910390a18415614007576000613f7e848361504d90919063ffffffff16565b111561400657614005600160009054906101000a900473ffffffffffffffffffffffffffffffffffffffff16613fbd858461504d90919063ffffffff16565b600460009054906101000a900473ffffffffffffffffffffffffffffffffffffffff1673ffffffffffffffffffffffffffffffffffffffff16614fab9092919063ffffffff16565b5b5b600061401c858461504d90919063ffffffff16565b11156140b1576140b0600160009054906101000a900473ffffffffffffffffffffffffffffffffffffffff1661405b868561504d90919063ffffffff16565b600560016004811061406957fe5b0160009054906101000a900473ffffffffffffffffffffffffffffffffffffffff1673ffffffffffffffffffffffffffffffffffffffff16614fab9092919063ffffffff16565b5b5050505050565b6000600c60009054906101000a900473ffffffffffffffffffffffffffffffffffffffff1673ffffffffffffffffffffffffffffffffffffffff1663d60b5164601054306040518363ffffffff1660e01b8152600401808381526020018273ffffffffffffffffffffffffffffffffffffffff1681526020019250505060206040518083038186803b15801561414d57600080fd5b505afa158015614161573d6000803e3d6000fd5b505050506040513d602081101561417757600080fd5b8101908080519060200190929190505050905090565b600d60009054906101000a900473ffffffffffffffffffffffffffffffffffffffff1681565b60115481565b3373ffffffffffffffffffffffffffffffffffffffff16601460009054906101000a900473ffffffffffffffffffffffffffffffffffffffff1673ffffffffffffffffffffffffffffffffffffffff161461427c576040517f08c379a000000000000000000000000000000000000000000000000000000000815260040180806020018281038252600e8152602001807f4e6f7420417574686f72697a656400000000000000000000000000000000000081525060200191505060405180910390fd5b8060128190555050565b60008054906101000a900473ffffffffffffffffffffffffffffffffffffffff1673ffffffffffffffffffffffffffffffffffffffff163373ffffffffffffffffffffffffffffffffffffffff1614614347576040517f08c379a000000000000000000000000000000000000000000000000000000000815260040180806020018281038252600e8152602001807f4e6f7420617574686f72697a656400000000000000000000000000000000000081525060200191505060405180910390fd5b600080600090505b600481101561449a57600081146143865761438383826004811061436f57fe5b602002015183614c4f90919063ffffffff16565b91505b614402600b60009054906101000a900473ffffffffffffffffffffffffffffffffffffffff166000600584600481106143bb57fe5b0160009054906101000a900473ffffffffffffffffffffffffffffffffffffffff1673ffffffffffffffffffffffffffffffffffffffff16614de69092919063ffffffff16565b61448d600b60009054906101000a900473ffffffffffffffffffffffffffffffffffffffff1684836004811061443457fe5b60200201516005846004811061444657fe5b0160009054906101000a900473ffffffffffffffffffffffffffffffffffffffff1673ffffffffffffffffffffffffffffffffffffffff16614de69092919063ffffffff16565b808060010191505061434f565b50600061456c600a60009054906101000a900473ffffffffffffffffffffffffffffffffffffffff1673ffffffffffffffffffffffffffffffffffffffff1663bb7b8b806040518163ffffffff1660e01b815260040160206040518083038186803b15801561450857600080fd5b505afa15801561451c573d6000803e3d6000fd5b505050506040513d602081101561453257600080fd5b810190808051906020019092919050505061455e670de0b6b3a764000085614cd790919063ffffffff16565b614d5d90919063ffffffff16565b9050808360006004811061457c57fe5b60200201510191506000614655600960009054906101000a900473ffffffffffffffffffffffffffffffffffffffff1673ffffffffffffffffffffffffffffffffffffffff1663bb7b8b806040518163ffffffff1660e01b815260040160206040518083038186803b1580156145f157600080fd5b505afa158015614605573d6000803e3d6000fd5b505050506040513d602081101561461b57600080fd5b8101908080519060200190929190505050614647670de0b6b3a764000086614cd790919063ffffffff16565b614d5d90919063ffffffff16565b9050600b60009054906101000a900473ffffffffffffffffffffffffffffffffffffffff1673ffffffffffffffffffffffffffffffffffffffff1663029b2f34856146d36127106146c56146b660115461271061504d90919063ffffffff16565b87614cd790919063ffffffff16565b614d5d90919063ffffffff16565b6040518363ffffffff1660e01b81526004018083600460200280838360005b8381101561470d5780820151818401526020810190506146f2565b5050505090500182815260200192505050602060405180830381600087803b15801561473857600080fd5b505af115801561474c573d6000803e3d6000fd5b505050506040513d602081101561476257600080fd5b81019080805190602001909291905050505061477c61103c565b50505050565b3373ffffffffffffffffffffffffffffffffffffffff16601460009054906101000a900473ffffffffffffffffffffffffffffffffffffffff1673ffffffffffffffffffffffffffffffffffffffff1614614845576040517f08c379a000000000000000000000000000000000000000000000000000000000815260040180806020018281038252600e8152602001807f4e6f7420417574686f72697a656400000000000000000000000000000000000081525060200191505060405180910390fd5b806000806101000a81548173ffffffffffffffffffffffffffffffffffffffff021916908373ffffffffffffffffffffffffffffffffffffffff16021790555050565b3373ffffffffffffffffffffffffffffffffffffffff16601460009054906101000a900473ffffffffffffffffffffffffffffffffffffffff1673ffffffffffffffffffffffffffffffffffffffff161461494b576040517f08c379a000000000000000000000000000000000000000000000000000000000815260040180806020018281038252600e8152602001807f4e6f7420417574686f72697a656400000000000000000000000000000000000081525060200191505060405180910390fd5b6000600460009054906101000a900473ffffffffffffffffffffffffffffffffffffffff1673ffffffffffffffffffffffffffffffffffffffff166370a08231306040518263ffffffff1660e01b8152600401808273ffffffffffffffffffffffffffffffffffffffff16815260200191505060206040518083038186803b1580156149d657600080fd5b505afa1580156149ea573d6000803e3d6000fd5b505050506040513d6020811015614a0057600080fd5b81019080805190602001909291905050509050600d60009054906101000a900473ffffffffffffffffffffffffffffffffffffffff1673ffffffffffffffffffffffffffffffffffffffff1663a01c77bc6040518163ffffffff1660e01b8152600401600060405180830381600087803b158015614a7d57600080fd5b505af1158015614a91573d6000803e3d6000fd5b505050506000600460009054906101000a900473ffffffffffffffffffffffffffffffffffffffff1673ffffffffffffffffffffffffffffffffffffffff166370a08231306040518263ffffffff1660e01b8152600401808273ffffffffffffffffffffffffffffffffffffffff16815260200191505060206040518083038186803b158015614b2057600080fd5b505afa158015614b34573d6000803e3d6000fd5b505050506040513d6020811015614b4a57600080fd5b810190808051906020019092919050505090508215614c01576000614b78838361504d90919063ffffffff16565b1115614c0057614bff600160009054906101000a900473ffffffffffffffffffffffffffffffffffffffff16614bb7848461504d90919063ffffffff16565b600460009054906101000a900473ffffffffffffffffffffffffffffffffffffffff1673ffffffffffffffffffffffffffffffffffffffff16614fab9092919063ffffffff16565b5b5b7ff95a2c0596f6385248573dc7680ff0f3be2b017415f97dca3dacb24717f63a26614c35838361504d90919063ffffffff16565b6040518082815260200191505060405180910390a1505050565b600080828401905083811015614ccd576040517f08c379a000000000000000000000000000000000000000000000000000000000815260040180806020018281038252601b8152602001807f536166654d6174683a206164646974696f6e206f766572666c6f77000000000081525060200191505060405180910390fd5b8091505092915050565b600080831415614cea5760009050614d57565b6000828402905082848281614cfb57fe5b0414614d52576040517f08c379a00000000000000000000000000000000000000000000000000000000081526004018080602001828103825260218152602001806155156021913960400191505060405180910390fd5b809150505b92915050565b6000808211614dd4576040517f08c379a000000000000000000000000000000000000000000000000000000000815260040180806020018281038252601a8152602001807f536166654d6174683a206469766973696f6e206279207a65726f00000000000081525060200191505060405180910390fd5b818381614ddd57fe5b04905092915050565b6000811480614eb4575060008373ffffffffffffffffffffffffffffffffffffffff1663dd62ed3e30856040518363ffffffff1660e01b8152600401808373ffffffffffffffffffffffffffffffffffffffff1681526020018273ffffffffffffffffffffffffffffffffffffffff1681526020019250505060206040518083038186803b158015614e7757600080fd5b505afa158015614e8b573d6000803e3d6000fd5b505050506040513d6020811015614ea157600080fd5b8101908080519060200190929190505050145b614f09576040517f08c379a00000000000000000000000000000000000000000000000000000000081526004018080602001828103825260368152602001806155846036913960400191505060405180910390fd5b614fa68363095ea7b360e01b8484604051602401808373ffffffffffffffffffffffffffffffffffffffff16815260200182815260200192505050604051602081830303815290604052907bffffffffffffffffffffffffffffffffffffffffffffffffffffffff19166020820180517bffffffffffffffffffffffffffffffffffffffffffffffffffffffff83818316178352505050506150d0565b505050565b6150488363a9059cbb60e01b8484604051602401808373ffffffffffffffffffffffffffffffffffffffff16815260200182815260200192505050604051602081830303815290604052907bffffffffffffffffffffffffffffffffffffffffffffffffffffffff19166020820180517bffffffffffffffffffffffffffffffffffffffffffffffffffffffff83818316178352505050506150d0565b505050565b6000828211156150c5576040517f08c379a000000000000000000000000000000000000000000000000000000000815260040180806020018281038252601e8152602001807f536166654d6174683a207375627472616374696f6e206f766572666c6f77000081525060200191505060405180910390fd5b818303905092915050565b6060615132826040518060400160405280602081526020017f5361666545524332303a206c6f772d6c6576656c2063616c6c206661696c65648152508573ffffffffffffffffffffffffffffffffffffffff166151bf9092919063ffffffff16565b90506000815111156151ba5780806020019051602081101561515357600080fd5b81019080805190602001909291905050506151b9576040517f08c379a000000000000000000000000000000000000000000000000000000000815260040180806020018281038252602a815260200180615536602a913960400191505060405180910390fd5b5b505050565b60606151ce84846000856151d7565b90509392505050565b606082471015615232576040517f08c379a00000000000000000000000000000000000000000000000000000000081526004018080602001828103825260268152602001806154ef6026913960400191505060405180910390fd5b61523b85615380565b6152ad576040517f08c379a000000000000000000000000000000000000000000000000000000000815260040180806020018281038252601d8152602001807f416464726573733a2063616c6c20746f206e6f6e2d636f6e747261637400000081525060200191505060405180910390fd5b600060608673ffffffffffffffffffffffffffffffffffffffff1685876040518082805190602001908083835b602083106152fd57805182526020820191506020810190506020830392506152da565b6001836020036101000a03801982511681845116808217855250505050505090500191505060006040518083038185875af1925050503d806000811461535f576040519150601f19603f3d011682016040523d82523d6000602084013e615364565b606091505b50915091506153748282866153cb565b92505050949350505050565b60008060007fc5d2460186f7233c927e7db2dcc703c0e500b653ca82273b7bfad8045d85a47060001b9050833f91508082141580156153c257506000801b8214155b92505050919050565b606083156153db57829050615490565b6000835111156153ee5782518084602001fd5b816040517f08c379a00000000000000000000000000000000000000000000000000000000081526004018080602001828103825283818151815260200191508051906020019080838360005b8381101561545557808201518184015260208101905061543a565b50505050905090810190601f1680156154825780820380516001836020036101000a031916815260200191505b509250505060405180910390fd5b9392505050565b604051806080016040528060049060208202803683378082019150509050509056fe596f75206d757374206265206e6f6d696e61746564206265666f726520796f752063616e20616363657074206f776e657273686970416464726573733a20696e73756666696369656e742062616c616e636520666f722063616c6c536166654d6174683a206d756c7469706c69636174696f6e206f766572666c6f775361666545524332303a204552433230206f7065726174696f6e20646964206e6f742073756363656564596f752068617665206e6f74207374616b65642074686174206d75636820616d6f756e745361666545524332303a20617070726f76652066726f6d206e6f6e2d7a65726f20746f206e6f6e2d7a65726f20616c6c6f77616e6365a2646970667358221220445a9436e1acbb523fd7fb34ef4b9c821c2daab4bc8487fc5060dfe4f0aa182e64736f6c634300060c0033",
  "immutableReferences": {},
  "source": "// SPDX-License-Identifier: UNLICENSED\r\npragma solidity ^0.6.0;\r\n\r\nimport './SafeERC20.sol';\r\nimport '../../Interfaces/EllipsisInterface.sol';\r\nimport '../../Interfaces/PancakeInterface.sol';\r\n\r\ncontract poolStrategy{\r\n    \r\n    using SafeERC20 for IERC20;\r\n    using SafeMath for uint256;\r\n    \r\n    address public royaleAddress;   //royale pool address\r\n    address public yieldDistributor;  //account where all yield will be sent\r\n    IERC20 public daiPoolToken;  // DAI pool LP token\r\n    IERC20 public pool3Token;   // 3pool LP token\r\n    IERC20 public epsToken;     //EPS token\r\n    IERC20[N_COINS] public tokens;  // DAI / USDC / USDT / BUSD\r\n    EllipsisDAIPool public daiPool;  //DAI pool address\r\n    Ellipsis3Pool public pool3;     //3pool address\r\n    DepositZap public depositZap;    // DAI pool deposit zap address\r\n    LPStaker public lpStaker;   //LP token staker contract address\r\n    EPSStaker public epsStaker; //EPS token staker contract address\r\n    Pancake public pancake;\r\n    address public WBNB;\r\n    \r\n    uint constant public N_COINS=4;\r\n    \r\n    uint public poolID=4;\r\n    \r\n    uint256 public constant DENOMINATOR = 10000;\r\n\r\n    uint256 public depositSlip = 100;\r\n\r\n    uint256 public withdrawSlip = 100;\r\n    \r\n    uint[]  poolId;\r\n    \r\n    address public wallet;\r\n    address public nominatedWallet;\r\n    \r\n    modifier onlyAuthorized(){\r\n      require(wallet == msg.sender|| msg.sender==royaleAddress, \"Not authorized\");\r\n      _;\r\n    }\r\n\r\n    modifier onlyWallet(){\r\n        require((wallet==msg.sender),\"Not Authorized\");\r\n        _;\r\n    }\r\n\r\n    modifier onlyRoyaleLP() {\r\n        require(msg.sender == royaleAddress, \"Not authorized\");\r\n        _;\r\n    }\r\n    \r\n  \r\n    \r\n    constructor(\r\n         address _wallet,\r\n         IERC20[N_COINS] memory _tokens, \r\n         address _royaleaddress,\r\n         address _yieldDistributor,\r\n         address _daiPoolToken,\r\n         address _pool3Token,\r\n         address _epsToken,\r\n         address _daiPool,\r\n         address _pool3,\r\n         address _depositZap,\r\n         address _lpStaker,\r\n         address _epsStaker,\r\n         address _pancake,\r\n         address _wbnb\r\n         ) public {\r\n        poolId.push(poolID);\r\n        wallet=_wallet;\r\n        tokens = _tokens;\r\n        royaleAddress =_royaleaddress;\r\n        yieldDistributor=_yieldDistributor;\r\n        daiPoolToken=IERC20(_daiPoolToken);\r\n        pool3Token=IERC20(_pool3Token);\r\n        epsToken=IERC20(_epsToken);\r\n        daiPool=EllipsisDAIPool(_daiPool);\r\n        pool3=Ellipsis3Pool(_pool3);\r\n        depositZap=DepositZap(_depositZap);\r\n        lpStaker=LPStaker(_lpStaker);\r\n        epsStaker=EPSStaker(_epsStaker);\r\n        pancake=Pancake(_pancake);\r\n        WBNB=_wbnb;\r\n    }\r\n    \r\n    \r\n    function nominateNewOwner(address _wallet) external onlyWallet {\r\n        nominatedWallet = _wallet;\r\n        emit walletNominated(_wallet);\r\n    }\r\n\r\n    function acceptOwnership() external {\r\n        require(msg.sender == nominatedWallet, \"You must be nominated before you can accept ownership\");\r\n        emit walletChanged(wallet, nominatedWallet);\r\n        wallet = nominatedWallet;\r\n        nominatedWallet = address(0);\r\n    }\r\n    \r\n     function changeRoyaleLP(address _address)external onlyWallet(){\r\n        royaleAddress=_address;\r\n    }\r\n\r\n    function changeYieldDistributor(address _address)external onlyWallet(){\r\n        yieldDistributor=_address;\r\n    }\r\n    \r\n    function changeDepositSlip(uint _value)external onlyWallet(){\r\n        depositSlip=_value;\r\n    }\r\n    \r\n    function changeWithdrawSlip(uint _value)external onlyWallet(){\r\n        withdrawSlip=_value;\r\n    }\r\n    \r\n  \r\n    // deposits stable tokens into the Daipool and stake recived LPtoken\r\n    function deposit(uint[N_COINS] memory amounts) external onlyRoyaleLP(){\r\n        uint currentTotal;\r\n        for(uint i=0;i<N_COINS;i++){\r\n            if(i!=0){\r\n                currentTotal=currentTotal.add(amounts[i]);\r\n            }\r\n            tokens[i].safeApprove(address(depositZap),0);\r\n            tokens[i].safeApprove(address(depositZap),amounts[i]);\r\n        }\r\n        uint minimumMintAmount=currentTotal.mul(1e18).div(pool3.get_virtual_price());\r\n        currentTotal=amounts[0]+minimumMintAmount;\r\n        uint256 mintAmount = currentTotal.mul(1e18).div(daiPool.get_virtual_price());\r\n        depositZap.add_liquidity(amounts,  mintAmount.mul(DENOMINATOR.sub(depositSlip)).div(DENOMINATOR));\r\n        stakeLP();   \r\n    }\r\n    \r\n    //withdraws stable tokens from the 3pool.Unstake required LPtokens and stake LP tokens if not used.\r\n    function withdraw(uint[N_COINS] memory amounts,uint[N_COINS] memory max_burn) external onlyRoyaleLP() {\r\n        uint burnAmount;\r\n        for(uint i=0;i<N_COINS;i++){\r\n             burnAmount = burnAmount.add(max_burn[i]);\r\n        }\r\n        burnAmount=burnAmount.mul(DENOMINATOR.add(withdrawSlip)).div(DENOMINATOR);\r\n        unstakeLP(burnAmount);\r\n        daiPoolToken.safeApprove(address(depositZap),0);\r\n        daiPoolToken.safeApprove(address(depositZap),burnAmount);\r\n        depositZap.remove_liquidity_imbalance(amounts, burnAmount);\r\n        for(uint8 i=0;i<N_COINS;i++){\r\n            if(amounts[i]!=0){\r\n               tokens[i].safeTransfer(royaleAddress, tokens[i].balanceOf(address(this)));\r\n            }\r\n        }\r\n        if(daiPoolToken.balanceOf(address(this))>0){\r\n            stakeLP();\r\n        } \r\n    }\r\n    \r\n    //unstake all the LPtokens and withdraw all the Stable tokens from pool \r\n    function withdrawAll() external onlyRoyaleLP() returns(uint256[N_COINS] memory){\r\n        if(checkClaimableToken()>0){\r\n            claimLPEPS();\r\n        }\r\n        lpStaker.emergencyWithdraw(poolID);\r\n        uint256[N_COINS] memory withdrawAmt;\r\n        daiPoolToken.safeApprove(address(depositZap),0);\r\n        daiPoolToken.safeApprove(address(depositZap),daiPoolToken.balanceOf(address(this)));\r\n        depositZap.remove_liquidity(daiPoolToken.balanceOf(address(this)),withdrawAmt);\r\n        for(uint8 i=0;i<N_COINS;i++){\r\n            if(tokens[i].balanceOf(address(this))!=0){\r\n                withdrawAmt[i]=tokens[i].balanceOf(address(this));\r\n                tokens[i].safeTransfer(royaleAddress,withdrawAmt[i]); \r\n            }\r\n        }\r\n        return withdrawAmt; \r\n    } \r\n    \r\n    \r\n    //Stakes LP token(dai3EPS) into the curve 3pool gauage\r\n    function stakeLP() public onlyAuthorized() {\r\n        uint depositAmt = daiPoolToken.balanceOf(address(this)) ;\r\n        daiPoolToken.safeApprove(address(lpStaker),0);\r\n        daiPoolToken.safeApprove(address(lpStaker), depositAmt);\r\n        lpStaker.deposit(poolID,depositAmt);  \r\n        emit staked(depositAmt);\r\n    }\r\n\r\n    //For unstaking LP tokens(dai3EPS)\r\n    function unstakeLP(uint _amount) public  onlyAuthorized(){\r\n       uint totalStaked;\r\n       (totalStaked,)=lpStaker.userInfo(poolID,address(this));\r\n        require(totalStaked >= _amount,\"You have not staked that much amount\");\r\n        lpStaker.withdraw(poolID,_amount);\r\n        emit unstaked(_amount);\r\n    }\r\n    \r\n     //Checking claimable EPS tokens.\r\n    function checkClaimableToken()public view  returns(uint256){\r\n        return lpStaker.claimableReward(poolID,address(this));\r\n    }\r\n\r\n    //for claiming EPS tokens which accumalates on staking dai3EPS.\r\n    //Vested EPS\r\n    function claimLPEPS() public onlyAuthorized(){\r\n        lpStaker.claim(poolId);\r\n        emit epsVested();\r\n    }\r\n    \r\n    //For staking EPS \r\n    function stakeEPS(uint _amount,bool _lock) external onlyWallet(){\r\n        require(_amount>0,\"can not stake 0\");\r\n        epsToken.safeApprove(address(epsStaker),0);\r\n        epsToken.safeApprove(address(epsStaker),_amount);\r\n        epsStaker.stake(_amount,_lock);\r\n        emit EPSStaked(_amount);\r\n        \r\n    }\r\n    \r\n    //for unstaking EPS and EPS remain in this contract\r\n    function unstakEPS(uint _amount)external onlyWallet(){\r\n        epsStaker.withdraw(_amount);\r\n        emit EPSWithdrawn(_amount);\r\n    }\r\n    \r\n    \r\n    //claim rewards,  _transfer =true for transfering claimed EPS token to be transfered to distributed wallet\r\n    //false in case we don't want to transfer EPS tokens\r\n    //busd will always be transfered\r\n    function claimReward(bool _transfer) external onlyWallet(){\r\n        uint busdAmount=tokens[1].balanceOf(address(this));\r\n        uint epsAmount=epsToken.balanceOf(address(this));\r\n        epsStaker.getReward();\r\n        uint busdAmountAfter=tokens[1].balanceOf(address(this));\r\n        uint epsAmountAfter=epsToken.balanceOf(address(this));\r\n        emit rewardClaimed(epsAmountAfter.sub(epsAmount),busdAmountAfter.sub(busdAmount));\r\n        if(_transfer){\r\n            if((epsAmountAfter.sub(epsAmount))>0){\r\n                epsToken.safeTransfer(yieldDistributor,epsAmountAfter.sub(epsAmount));\r\n            }\r\n        }\r\n        if((busdAmountAfter.sub(busdAmount))>0){\r\n            tokens[1].safeTransfer(yieldDistributor,busdAmountAfter.sub(busdAmount));\r\n        }\r\n    }\r\n    \r\n    //withwithdrawExpiredlockEPS - where lock is expired,  _transfer =true for transfering EPS token to be transfered to distributed wallet\r\n    //false in case we don't want to transfer EPS tokens\r\n    function withdrawExpiredlockEPS(bool _transfer)external onlyWallet(){\r\n        uint epsAmount=epsToken.balanceOf(address(this));\r\n        epsStaker.withdrawExpiredLocks();\r\n        uint epsAmountAfter=epsToken.balanceOf(address(this));\r\n        if(_transfer){\r\n            if((epsAmountAfter.sub(epsAmount))>0){\r\n                 epsToken.safeTransfer(yieldDistributor,epsAmountAfter.sub(epsAmount));\r\n            }\r\n        }\r\n        emit EPSWithdrawn(epsAmountAfter.sub(epsAmount));\r\n    }\r\n    \r\n    //check how much amount is unlocked and able to withdraw\r\n    function checkUnlockedBalance()public view returns(uint){\r\n        return epsStaker.unlockedBalance(address(this));\r\n    }\r\n    \r\n    //Exit all earned EPS(with penalty if applicable) and unlocked EPS \r\n    //claim rewards\r\n    function ExitAllStakedEPS(bool _transfer) external onlyWallet(){\r\n        uint busdAmount=tokens[1].balanceOf(address(this));\r\n        uint epsAmount=epsToken.balanceOf(address(this));\r\n        epsStaker.exit();\r\n        uint busdAmountAfter=tokens[1].balanceOf(address(this));\r\n        uint epsAmountAfter=epsToken.balanceOf(address(this));\r\n        if(_transfer){\r\n            if((epsAmountAfter.sub(epsAmount))>0){\r\n                epsToken.safeTransfer(yieldDistributor,epsAmountAfter.sub(epsAmount));\r\n            }\r\n        }\r\n        if((busdAmountAfter.sub(busdAmount))>0){\r\n            tokens[1].safeTransfer(yieldDistributor,busdAmountAfter.sub(busdAmount));\r\n        }\r\n    }\r\n    \r\n    //_index = 0-DAI , 1-BUSD , 2-USDC , 3-USDT (swap EPS to stable token)\r\n    function swapEPS(uint _amount , uint _index ,uint _minAmount) external onlyWallet(){\r\n        require(epsToken.balanceOf(address(this))>=_amount,\"Insufficient EPS amount\");\r\n        epsToken.safeApprove(address(pancake),0);\r\n        epsToken.safeApprove(address(pancake),_amount);\r\n        address[] memory path;\r\n        path = new address[](3);\r\n        path[0] = address(epsToken);\r\n        path[1] = WBNB;\r\n        path[2] = address(tokens[_index]);\r\n        pancake.swapExactTokensForTokens(\r\n            _amount, \r\n            _minAmount, \r\n            path, \r\n            address(yieldDistributor), \r\n            now + 600\r\n        );\r\n        emit yieldTransfered();\r\n    }\r\n    \r\n   // Added to support recovering tokens\r\n    function recoverERC20(address _tokenAddress, uint256 _tokenAmount) external onlyWallet() {\r\n        require(_tokenAddress != address(daiPoolToken), \"Cannot withdraw DAI LP token\");\r\n        IERC20(_tokenAddress).safeTransfer(address(yieldDistributor), _tokenAmount);\r\n        emit Recovered(_tokenAddress, _tokenAmount);\r\n    }\r\n    \r\n    \r\n    event yieldTransfered();\r\n    event rewardClaimed(uint EPS,uint BUSD);\r\n    event EPSWithdrawn(uint );\r\n    event EPSStaked(uint );\r\n    event epsVested();\r\n    event unstaked(uint);\r\n    event staked(uint);\r\n    event walletNominated(address newOwner);\r\n    event walletChanged(address oldOwner, address newOwner);\r\n    event Recovered(address,uint);\r\n  \r\n}",
  "sourcePath": "C:/Users/vishn/OneDrive/Desktop/codezero2pi/RoyaleBSC/royale-contracts/contracts/Pool/EllipsisStrategy.sol",
  "compiler": {
    "name": "solc",
    "version": "0.6.12+commit.27d51765.Emscripten.clang"
  },
  "schemaVersion": "3.3.2",
  "updatedAt": "2021-05-18T11:47:45.968Z",
  "networkType": "ethereum",
  "devdoc": {
    "kind": "dev",
    "methods": {},
    "version": 1
  },
  "userdoc": {
    "kind": "user",
    "methods": {},
    "version": 1
  }
}