{
  "contractName": "RoyaleLP",
  "abi": [
    {
      "inputs": [
        {
          "internalType": "address[3]",
          "name": "_tokens",
          "type": "address[3]"
        },
        {
          "internalType": "address",
          "name": "_rpToken",
          "type": "address"
        },
        {
          "internalType": "address",
          "name": "_wallet",
          "type": "address"
        }
      ],
      "stateMutability": "nonpayable",
      "type": "constructor"
    },
    {
      "anonymous": false,
      "inputs": [
        {
          "indexed": false,
          "internalType": "address",
          "name": "user",
          "type": "address"
        },
        {
          "indexed": false,
          "internalType": "uint256",
          "name": "amount",
          "type": "uint256"
        },
        {
          "indexed": false,
          "internalType": "uint256",
          "name": "index",
          "type": "uint256"
        }
      ],
      "name": "feesTransfered",
      "type": "event"
    },
    {
      "anonymous": false,
      "inputs": [
        {
          "indexed": false,
          "internalType": "uint256",
          "name": "amount",
          "type": "uint256"
        },
        {
          "indexed": false,
          "internalType": "uint256",
          "name": "index",
          "type": "uint256"
        }
      ],
      "name": "loanRepayed",
      "type": "event"
    },
    {
      "anonymous": false,
      "inputs": [
        {
          "indexed": false,
          "internalType": "address",
          "name": "recipient",
          "type": "address"
        },
        {
          "indexed": false,
          "internalType": "uint256",
          "name": "amount",
          "type": "uint256"
        },
        {
          "indexed": false,
          "internalType": "uint256",
          "name": "index",
          "type": "uint256"
        }
      ],
      "name": "loanTransfered",
      "type": "event"
    },
    {
      "anonymous": false,
      "inputs": [
        {
          "indexed": false,
          "internalType": "address",
          "name": "user",
          "type": "address"
        },
        {
          "indexed": false,
          "internalType": "uint256",
          "name": "amount",
          "type": "uint256"
        },
        {
          "indexed": false,
          "internalType": "uint256",
          "name": "index",
          "type": "uint256"
        }
      ],
      "name": "userAddedToQ",
      "type": "event"
    },
    {
      "anonymous": false,
      "inputs": [
        {
          "indexed": false,
          "internalType": "address",
          "name": "user",
          "type": "address"
        },
        {
          "indexed": false,
          "internalType": "uint256",
          "name": "amount",
          "type": "uint256"
        },
        {
          "indexed": false,
          "internalType": "uint256",
          "name": "index",
          "type": "uint256"
        }
      ],
      "name": "userRecieved",
      "type": "event"
    },
    {
      "anonymous": false,
      "inputs": [
        {
          "indexed": false,
          "internalType": "address",
          "name": "user",
          "type": "address"
        },
        {
          "indexed": false,
          "internalType": "uint256",
          "name": "amount",
          "type": "uint256"
        },
        {
          "indexed": false,
          "internalType": "uint256",
          "name": "index",
          "type": "uint256"
        }
      ],
      "name": "userSupplied",
      "type": "event"
    },
    {
      "anonymous": false,
      "inputs": [
        {
          "indexed": false,
          "internalType": "address",
          "name": "oldOwner",
          "type": "address"
        },
        {
          "indexed": false,
          "internalType": "address",
          "name": "newOwner",
          "type": "address"
        }
      ],
      "name": "walletChanged",
      "type": "event"
    },
    {
      "anonymous": false,
      "inputs": [
        {
          "indexed": false,
          "internalType": "address",
          "name": "newOwner",
          "type": "address"
        }
      ],
      "name": "walletNominated",
      "type": "event"
    },
    {
      "anonymous": false,
      "inputs": [
        {
          "indexed": false,
          "internalType": "uint256",
          "name": "amount",
          "type": "uint256"
        },
        {
          "indexed": false,
          "internalType": "uint256",
          "name": "index",
          "type": "uint256"
        }
      ],
      "name": "yieldAdded",
      "type": "event"
    },
    {
      "inputs": [],
      "name": "DENOMINATOR",
      "outputs": [
        {
          "internalType": "uint256",
          "name": "",
          "type": "uint256"
        }
      ],
      "stateMutability": "view",
      "type": "function"
    },
    {
      "inputs": [],
      "name": "N_COINS",
      "outputs": [
        {
          "internalType": "uint256",
          "name": "",
          "type": "uint256"
        }
      ],
      "stateMutability": "view",
      "type": "function"
    },
    {
      "inputs": [],
      "name": "YieldPoolBalance",
      "outputs": [
        {
          "internalType": "uint256",
          "name": "",
          "type": "uint256"
        }
      ],
      "stateMutability": "view",
      "type": "function"
    },
    {
      "inputs": [
        {
          "internalType": "address",
          "name": "",
          "type": "address"
        },
        {
          "internalType": "uint256",
          "name": "",
          "type": "uint256"
        }
      ],
      "name": "amountBurnt",
      "outputs": [
        {
          "internalType": "uint256",
          "name": "",
          "type": "uint256"
        }
      ],
      "stateMutability": "view",
      "type": "function"
    },
    {
      "inputs": [
        {
          "internalType": "address",
          "name": "",
          "type": "address"
        },
        {
          "internalType": "uint256",
          "name": "",
          "type": "uint256"
        }
      ],
      "name": "amountSupplied",
      "outputs": [
        {
          "internalType": "uint256",
          "name": "index",
          "type": "uint256"
        },
        {
          "internalType": "uint256",
          "name": "amount",
          "type": "uint256"
        },
        {
          "internalType": "uint256",
          "name": "time",
          "type": "uint256"
        },
        {
          "internalType": "uint256",
          "name": "remAmt",
          "type": "uint256"
        }
      ],
      "stateMutability": "view",
      "type": "function"
    },
    {
      "inputs": [
        {
          "internalType": "address",
          "name": "",
          "type": "address"
        },
        {
          "internalType": "uint256",
          "name": "",
          "type": "uint256"
        }
      ],
      "name": "amountWithdraw",
      "outputs": [
        {
          "internalType": "uint256",
          "name": "",
          "type": "uint256"
        }
      ],
      "stateMutability": "view",
      "type": "function"
    },
    {
      "inputs": [],
      "name": "fees",
      "outputs": [
        {
          "internalType": "uint128",
          "name": "",
          "type": "uint128"
        }
      ],
      "stateMutability": "view",
      "type": "function"
    },
    {
      "inputs": [
        {
          "internalType": "address",
          "name": "",
          "type": "address"
        }
      ],
      "name": "isInQ",
      "outputs": [
        {
          "internalType": "bool",
          "name": "",
          "type": "bool"
        }
      ],
      "stateMutability": "view",
      "type": "function"
    },
    {
      "inputs": [],
      "name": "liquidityProvidersAPY",
      "outputs": [
        {
          "internalType": "uint256",
          "name": "",
          "type": "uint256"
        }
      ],
      "stateMutability": "view",
      "type": "function"
    },
    {
      "inputs": [],
      "name": "loanGiven",
      "outputs": [
        {
          "internalType": "uint256",
          "name": "",
          "type": "uint256"
        }
      ],
      "stateMutability": "view",
      "type": "function"
    },
    {
      "inputs": [],
      "name": "loanPart",
      "outputs": [
        {
          "internalType": "uint256",
          "name": "",
          "type": "uint256"
        }
      ],
      "stateMutability": "view",
      "type": "function"
    },
    {
      "inputs": [],
      "name": "lock_period",
      "outputs": [
        {
          "internalType": "uint256",
          "name": "",
          "type": "uint256"
        }
      ],
      "stateMutability": "view",
      "type": "function"
    },
    {
      "inputs": [],
      "name": "maxWithdrawRequests",
      "outputs": [
        {
          "internalType": "uint256",
          "name": "",
          "type": "uint256"
        }
      ],
      "stateMutability": "view",
      "type": "function"
    },
    {
      "inputs": [],
      "name": "nominatedWallet",
      "outputs": [
        {
          "internalType": "address",
          "name": "",
          "type": "address"
        }
      ],
      "stateMutability": "view",
      "type": "function"
    },
    {
      "inputs": [],
      "name": "poolPart",
      "outputs": [
        {
          "internalType": "uint256",
          "name": "",
          "type": "uint256"
        }
      ],
      "stateMutability": "view",
      "type": "function"
    },
    {
      "inputs": [
        {
          "internalType": "uint256",
          "name": "",
          "type": "uint256"
        }
      ],
      "name": "reserveAmount",
      "outputs": [
        {
          "internalType": "uint256",
          "name": "",
          "type": "uint256"
        }
      ],
      "stateMutability": "view",
      "type": "function"
    },
    {
      "inputs": [
        {
          "internalType": "address",
          "name": "",
          "type": "address"
        }
      ],
      "name": "reserveRecipients",
      "outputs": [
        {
          "internalType": "bool",
          "name": "",
          "type": "bool"
        }
      ],
      "stateMutability": "view",
      "type": "function"
    },
    {
      "inputs": [],
      "name": "rpToken",
      "outputs": [
        {
          "internalType": "contract IERC20",
          "name": "",
          "type": "address"
        }
      ],
      "stateMutability": "view",
      "type": "function"
    },
    {
      "inputs": [],
      "name": "selfBalance",
      "outputs": [
        {
          "internalType": "uint256",
          "name": "",
          "type": "uint256"
        }
      ],
      "stateMutability": "view",
      "type": "function"
    },
    {
      "inputs": [
        {
          "internalType": "uint256",
          "name": "",
          "type": "uint256"
        }
      ],
      "name": "storedFees",
      "outputs": [
        {
          "internalType": "uint256",
          "name": "",
          "type": "uint256"
        }
      ],
      "stateMutability": "view",
      "type": "function"
    },
    {
      "inputs": [],
      "name": "strategy",
      "outputs": [
        {
          "internalType": "contract rStrategy",
          "name": "",
          "type": "address"
        }
      ],
      "stateMutability": "view",
      "type": "function"
    },
    {
      "inputs": [
        {
          "internalType": "uint256",
          "name": "",
          "type": "uint256"
        }
      ],
      "name": "tokens",
      "outputs": [
        {
          "internalType": "contract IERC20",
          "name": "",
          "type": "address"
        }
      ],
      "stateMutability": "view",
      "type": "function"
    },
    {
      "inputs": [
        {
          "internalType": "uint256",
          "name": "",
          "type": "uint256"
        }
      ],
      "name": "totalWithdraw",
      "outputs": [
        {
          "internalType": "uint256",
          "name": "",
          "type": "uint256"
        }
      ],
      "stateMutability": "view",
      "type": "function"
    },
    {
      "inputs": [],
      "name": "wallet",
      "outputs": [
        {
          "internalType": "address",
          "name": "",
          "type": "address"
        }
      ],
      "stateMutability": "view",
      "type": "function"
    },
    {
      "inputs": [
        {
          "internalType": "uint256",
          "name": "",
          "type": "uint256"
        }
      ],
      "name": "withdrawRecipients",
      "outputs": [
        {
          "internalType": "address",
          "name": "",
          "type": "address"
        }
      ],
      "stateMutability": "view",
      "type": "function"
    },
    {
      "inputs": [
        {
          "internalType": "address",
          "name": "_wallet",
          "type": "address"
        }
      ],
      "name": "nominateNewOwner",
      "outputs": [],
      "stateMutability": "nonpayable",
      "type": "function"
    },
    {
      "inputs": [],
      "name": "acceptOwnership",
      "outputs": [],
      "stateMutability": "nonpayable",
      "type": "function"
    },
    {
      "inputs": [
        {
          "internalType": "uint256",
          "name": "amount",
          "type": "uint256"
        },
        {
          "internalType": "uint256",
          "name": "_index",
          "type": "uint256"
        }
      ],
      "name": "calcRptAmount",
      "outputs": [
        {
          "internalType": "uint256",
          "name": "",
          "type": "uint256"
        }
      ],
      "stateMutability": "view",
      "type": "function"
    },
    {
      "inputs": [
        {
          "internalType": "address",
          "name": "addr",
          "type": "address"
        },
        {
          "internalType": "uint256",
          "name": "coin",
          "type": "uint256"
        },
        {
          "internalType": "bool",
          "name": "_time",
          "type": "bool"
        }
      ],
      "name": "availableLiquidity",
      "outputs": [
        {
          "internalType": "uint256",
          "name": "token",
          "type": "uint256"
        },
        {
          "internalType": "uint256",
          "name": "RPT",
          "type": "uint256"
        }
      ],
      "stateMutability": "view",
      "type": "function"
    },
    {
      "inputs": [
        {
          "internalType": "bool",
          "name": "_supply",
          "type": "bool"
        }
      ],
      "name": "calculateTotalToken",
      "outputs": [
        {
          "internalType": "uint256",
          "name": "",
          "type": "uint256"
        }
      ],
      "stateMutability": "view",
      "type": "function"
    },
    {
      "inputs": [
        {
          "internalType": "uint256",
          "name": "amount",
          "type": "uint256"
        },
        {
          "internalType": "uint256",
          "name": "_index",
          "type": "uint256"
        }
      ],
      "name": "supply",
      "outputs": [],
      "stateMutability": "nonpayable",
      "type": "function"
    },
    {
      "inputs": [
        {
          "internalType": "uint256",
          "name": "amount",
          "type": "uint256"
        },
        {
          "internalType": "uint256",
          "name": "_index",
          "type": "uint256"
        }
      ],
      "name": "requestWithdrawWithRPT",
      "outputs": [],
      "stateMutability": "nonpayable",
      "type": "function"
    },
    {
      "inputs": [],
      "name": "claimTokens",
      "outputs": [],
      "stateMutability": "nonpayable",
      "type": "function"
    },
    {
      "inputs": [
        {
          "internalType": "uint256",
          "name": "amount",
          "type": "uint256"
        },
        {
          "internalType": "uint256",
          "name": "_index",
          "type": "uint256"
        }
      ],
      "name": "depositYield",
      "outputs": [],
      "stateMutability": "nonpayable",
      "type": "function"
    },
    {
      "inputs": [],
      "name": "deposit",
      "outputs": [],
      "stateMutability": "nonpayable",
      "type": "function"
    },
    {
      "inputs": [
        {
          "internalType": "uint256[3]",
          "name": "max_burn",
          "type": "uint256[3]"
        }
      ],
      "name": "withdraw",
      "outputs": [],
      "stateMutability": "nonpayable",
      "type": "function"
    },
    {
      "inputs": [],
      "name": "withdrawAll",
      "outputs": [],
      "stateMutability": "nonpayable",
      "type": "function"
    },
    {
      "inputs": [
        {
          "internalType": "uint256[3]",
          "name": "max_burn",
          "type": "uint256[3]"
        }
      ],
      "name": "rebalance",
      "outputs": [],
      "stateMutability": "nonpayable",
      "type": "function"
    },
    {
      "inputs": [
        {
          "internalType": "uint256[3]",
          "name": "amounts",
          "type": "uint256[3]"
        },
        {
          "internalType": "address",
          "name": "_recipient",
          "type": "address"
        },
        {
          "internalType": "uint256[3]",
          "name": "max_burn",
          "type": "uint256[3]"
        }
      ],
      "name": "withdrawLoan",
      "outputs": [],
      "stateMutability": "nonpayable",
      "type": "function"
    },
    {
      "inputs": [
        {
          "internalType": "uint256[3]",
          "name": "amounts",
          "type": "uint256[3]"
        }
      ],
      "name": "repayLoan",
      "outputs": [],
      "stateMutability": "nonpayable",
      "type": "function"
    },
    {
      "inputs": [],
      "name": "claimFees",
      "outputs": [],
      "stateMutability": "nonpayable",
      "type": "function"
    },
    {
      "inputs": [
        {
          "internalType": "uint128",
          "name": "_newPoolPart",
          "type": "uint128"
        }
      ],
      "name": "changePoolPart",
      "outputs": [],
      "stateMutability": "nonpayable",
      "type": "function"
    },
    {
      "inputs": [
        {
          "internalType": "address",
          "name": "_strategy",
          "type": "address"
        }
      ],
      "name": "changeStrategy",
      "outputs": [],
      "stateMutability": "nonpayable",
      "type": "function"
    },
    {
      "inputs": [
        {
          "internalType": "uint256",
          "name": "lockperiod",
          "type": "uint256"
        }
      ],
      "name": "setLockPeriod",
      "outputs": [],
      "stateMutability": "nonpayable",
      "type": "function"
    },
    {
      "inputs": [
        {
          "internalType": "uint128",
          "name": "_fees",
          "type": "uint128"
        }
      ],
      "name": "setWithdrawFees",
      "outputs": [],
      "stateMutability": "nonpayable",
      "type": "function"
    },
    {
      "inputs": [
        {
          "internalType": "uint256",
          "name": "_value",
          "type": "uint256"
        }
      ],
      "name": "changeLoanPart",
      "outputs": [],
      "stateMutability": "nonpayable",
      "type": "function"
    },
    {
      "inputs": [
        {
          "internalType": "uint256",
          "name": "_index",
          "type": "uint256"
        }
      ],
      "name": "getBalances",
      "outputs": [
        {
          "internalType": "uint256",
          "name": "",
          "type": "uint256"
        }
      ],
      "stateMutability": "view",
      "type": "function"
    }
  ],
  "bytecode": "0x60806040526019600160006101000a8154816fffffffffffffffffffffffffffffffff02191690836fffffffffffffffffffffffffffffffff1602179055506102ee600255603c600d5560196013556107d0601f553480156200006157600080fd5b5060405162006f8b38038062006f8b8339818101604052810190620000879190620002a6565b6001600081905550600073ffffffffffffffffffffffffffffffffffffffff168173ffffffffffffffffffffffffffffffffffffffff16141562000102576040517f08c379a0000000000000000000000000000000000000000000000000000000008152600401620000f9906200033e565b60405180910390fd5b60005b60038160ff1610156200018557838160ff16600381106200012257fe5b602002015160048260ff16600381106200013857fe5b0160006101000a81548173ffffffffffffffffffffffffffffffffffffffff021916908373ffffffffffffffffffffffffffffffffffffffff160217905550808060010191505062000105565b5081600760006101000a81548173ffffffffffffffffffffffffffffffffffffffff021916908373ffffffffffffffffffffffffffffffffffffffff16021790555080600960006101000a81548173ffffffffffffffffffffffffffffffffffffffff021916908373ffffffffffffffffffffffffffffffffffffffff16021790555050505062000410565b6000815190506200022281620003f6565b92915050565b600082601f8301126200023a57600080fd5b6003620002516200024b826200038e565b62000360565b915081838560208402820111156200026857600080fd5b60005b838110156200029c578162000281888262000211565b8452602084019350602083019250506001810190506200026b565b5050505092915050565b600080600060a08486031215620002bc57600080fd5b6000620002cc8682870162000228565b9350506060620002df8682870162000211565b9250506080620002f28682870162000211565b9150509250925092565b60006200030b601a83620003b1565b91507f57616c6c657420616464726573732063616e6e6f7420626520300000000000006000830152602082019050919050565b600060208201905081810360008301526200035981620002fc565b9050919050565b6000604051905081810181811067ffffffffffffffff821117156200038457600080fd5b8060405250919050565b600067ffffffffffffffff821115620003a657600080fd5b602082029050919050565b600082825260208201905092915050565b6000620003cf82620003d6565b9050919050565b600073ffffffffffffffffffffffffffffffffffffffff82169050919050565b6200040181620003c2565b81146200040d57600080fd5b50565b616b6b80620004206000396000f3fe608060405234801561001057600080fd5b50600436106102955760003560e01c8063905f692e11610167578063bf4b136b116100ce578063db28bfd011610087578063db28bfd0146107a1578063de449839146107d1578063df7ce7e414610802578063e761c7b314610820578063f0dd71c714610850578063f83e9a201461088057610295565b8063bf4b136b146106de578063c23177b21461070e578063c6b93df714610741578063d0e30db014610771578063d294f0931461077b578063daecfa6c1461078557610295565b8063a70200bd11610120578063a70200bd1461061c578063a8c4d3ae14610638578063a8c62e7614610656578063ad6abb0c14610674578063b0bed0ba146106a4578063b1b8f1be146106c257610295565b8063905f692e1461055a578063918f86741461058a57806393f9c552146105a85780639af1d35a146105c45780639d4649d9146105e2578063a0df58081461060057610295565b8063521eb2731161020b5780637a9024bd116101c45780637a9024bd146104ae578063853828b6146104ca578063876171dc146104d45780638d330510146105045780638e9b0326146105205780638f917bf01461053e57610295565b8063521eb273146104005780635cd60cd11461041e5780636b9f1ef61461044e578063779972da1461046a5780637861dae01461048657806379ba5097146104a457610295565b8063293577501161025d578063293577501461032a57806342f1bd5d14610348578063449deb6b1461036657806348c54b9d14610396578063490adbaf146103a05780634f64b2be146103d057610295565b80630100a56b1461029a57806315816bac146102b85780631627540c146102d45780631a09d8e3146102f057806325340b8c1461030c575b600080fd5b6102a261089e565b6040516102af919061681d565b60405180910390f35b6102d260048036038101906102cd9190615ad3565b6108a4565b005b6102ee60048036038101906102e991906158b1565b610a84565b005b61030a600480360381019061030591906159b7565b610b8f565b005b610314610fe6565b604051610321919061681d565b60405180910390f35b610332610fec565b60405161033f919061681d565b60405180910390f35b610350610ff1565b60405161035d91906164ea565b60405180910390f35b610380600480360381019061037b91906158b1565b611017565b60405161038d91906164cf565b60405180910390f35b61039e611037565b005b6103ba60048036038101906103b59190615a81565b611721565b6040516103c7919061681d565b60405180910390f35b6103ea60048036038101906103e59190615a81565b611821565b6040516103f791906164ea565b60405180910390f35b610408611854565b60405161041591906162c7565b60405180910390f35b610438600480360381019061043391906158da565b61187a565b604051610445919061681d565b60405180910390f35b61046860048036038101906104639190615a58565b61189f565b005b610484600480360381019061047f9190615a81565b61196b565b005b61048e611a05565b60405161049b919061681d565b60405180910390f35b6104ac611a0b565b005b6104c860048036038101906104c391906158b1565b611bbf565b005b6104d2611cf5565b005b6104ee60048036038101906104e99190615a81565b612022565b6040516104fb91906162c7565b60405180910390f35b61051e60048036038101906105199190615a81565b61205e565b005b6105286120f8565b604051610535919061681d565b60405180910390f35b61055860048036038101906105539190615965565b6120fe565b005b610574600480360381019061056f91906158b1565b612477565b60405161058191906164cf565b60405180910390f35b610592612497565b60405161059f919061681d565b60405180910390f35b6105c260048036038101906105bd9190615ad3565b61249d565b005b6105cc61291d565b6040516105d99190616802565b60405180910390f35b6105ea61293f565b6040516105f7919061681d565b60405180910390f35b61061a60048036038101906106159190615965565b612945565b005b61063660048036038101906106319190615a58565b612bfb565b005b610640612ca7565b60405161064d91906162c7565b60405180910390f35b61065e612ccd565b60405161066b9190616505565b60405180910390f35b61068e60048036038101906106899190615a06565b612cf3565b60405161069b919061681d565b60405180910390f35b6106ac612f71565b6040516106b9919061681d565b60405180910390f35b6106dc60048036038101906106d79190615965565b612f77565b005b6106f860048036038101906106f39190615ad3565b6130de565b604051610705919061681d565b60405180910390f35b610728600480360381019061072391906158da565b6132b4565b6040516107389493929190616861565b60405180910390f35b61075b600480360381019061075691906158da565b6132fe565b604051610768919061681d565b60405180910390f35b610779613323565b005b61078361365f565b005b61079f600480360381019061079a9190615ad3565b6138e8565b005b6107bb60048036038101906107b69190615a81565b613c6b565b6040516107c8919061681d565b60405180910390f35b6107eb60048036038101906107e69190615916565b613c83565b6040516107f9929190616838565b60405180910390f35b61080a61407a565b604051610817919061681d565b60405180910390f35b61083a60048036038101906108359190615a81565b614080565b604051610847919061681d565b60405180910390f35b61086a60048036038101906108659190615a81565b614098565b604051610877919061681d565b60405180910390f35b6108886140b0565b604051610895919061681d565b60405180910390f35b601e5481565b6000600482600381106108b357fe5b0160009054906101000a900473ffffffffffffffffffffffffffffffffffffffff1673ffffffffffffffffffffffffffffffffffffffff1663313ce5676040518163ffffffff1660e01b815260040160206040518083038186803b15801561091a57600080fd5b505afa15801561092e573d6000803e3d6000fd5b505050506040513d601f19601f820116820180604052508101906109529190615b0f565b60ff16905061099b61098a82600a0a61097c670de0b6b3a7640000876140b690919063ffffffff16565b61412690919063ffffffff16565b60035461417c90919063ffffffff16565b6003819055506109e56109d482600a0a6109c6670de0b6b3a7640000876140b690919063ffffffff16565b61412690919063ffffffff16565b600c5461417c90919063ffffffff16565b600c81905550610a46333085600486600381106109fe57fe5b0160009054906101000a900473ffffffffffffffffffffffffffffffffffffffff1673ffffffffffffffffffffffffffffffffffffffff166141d1909392919063ffffffff16565b7f42b1fbc126fd4214becc710b14aa423482c753e4d6af74679e470354904275da8383604051610a77929190616838565b60405180910390a1505050565b3373ffffffffffffffffffffffffffffffffffffffff16600960009054906101000a900473ffffffffffffffffffffffffffffffffffffffff1673ffffffffffffffffffffffffffffffffffffffff1614610b14576040517f08c379a0000000000000000000000000000000000000000000000000000000008152600401610b0b90616702565b60405180910390fd5b80600a60006101000a81548173ffffffffffffffffffffffffffffffffffffffff021916908373ffffffffffffffffffffffffffffffffffffffff1602179055507f34e5b3a286aa0821b202b74f9fa683c8f56e1f2875caafc853d080382896917881604051610b8491906162c7565b60405180910390a150565b3373ffffffffffffffffffffffffffffffffffffffff16600960009054906101000a900473ffffffffffffffffffffffffffffffffffffffff1673ffffffffffffffffffffffffffffffffffffffff1614610c1f576040517f08c379a0000000000000000000000000000000000000000000000000000000008152600401610c1690616702565b60405180910390fd5b610c288361425a565b610c67576040517f08c379a0000000000000000000000000000000000000000000000000000000008152600401610c5e90616762565b60405180910390fd5b60008060005b6003811015610d885760048160038110610c8357fe5b0160009054906101000a900473ffffffffffffffffffffffffffffffffffffffff1673ffffffffffffffffffffffffffffffffffffffff1663313ce5676040518163ffffffff1660e01b815260040160206040518083038186803b158015610cea57600080fd5b505afa158015610cfe573d6000803e3d6000fd5b505050506040513d601f19601f82011682018060405250810190610d229190615b0f565b60ff169250610d79610d6a84600a0a610d5c670de0b6b3a76400008a8660038110610d4957fe5b60200201516140b690919063ffffffff16565b61412690919063ffffffff16565b8361417c90919063ffffffff16565b91508080600101915050610c6d565b50610dbb612710610dad601f54610d9f6001612cf3565b6140b690919063ffffffff16565b61412690919063ffffffff16565b610dd082601e5461417c90919063ffffffff16565b1115610e11576040517f08c379a0000000000000000000000000000000000000000000000000000000008152600401610e08906166c2565b60405180910390fd5b610e1b6000612cf3565b8110610e5c576040517f08c379a0000000000000000000000000000000000000000000000000000000008152600401610e5390616622565b60405180910390fd5b6000805b6003811015610e9f57610e7281611721565b878260038110610e7e57fe5b60200201511115610e925760019150610e9f565b8080600101915050610e60565b508015610eb157610eb086856142ac565b5b610ec682601e5461417c90919063ffffffff16565b601e81905550610ee18260035461447390919063ffffffff16565b60038190555060005b60038160ff161015610fdd576000878260ff1660038110610f0757fe5b60200201511115610fd057610f8186888360ff1660038110610f2557fe5b602002015160048460ff1660038110610f3a57fe5b0160009054906101000a900473ffffffffffffffffffffffffffffffffffffffff1673ffffffffffffffffffffffffffffffffffffffff166144c39092919063ffffffff16565b7f4a593671bb3dc998e5b52a29c9d1a32c44a34048e4a5c44b2f584bc5eb24e70686888360ff1660038110610fb257fe5b602002015183604051610fc793929190616454565b60405180910390a15b8080600101915050610eea565b50505050505050565b600b5481565b600381565b600760009054906101000a900473ffffffffffffffffffffffffffffffffffffffff1681565b601a6020528060005260406000206000915054906101000a900460ff1681565b6002600054141561107d576040517f08c379a0000000000000000000000000000000000000000000000000000000008152600401611074906167c2565b60405180910390fd5b6002600081905550601a60003373ffffffffffffffffffffffffffffffffffffffff1673ffffffffffffffffffffffffffffffffffffffff16815260200190815260200160002060009054906101000a900460ff16611111576040517f08c379a000000000000000000000000000000000000000000000000000000000815260040161110890616542565b60405180910390fd5b60008060005b60038160ff1610156116b2576000600f60003373ffffffffffffffffffffffffffffffffffffffff1673ffffffffffffffffffffffffffffffffffffffff1681526020019081526020016000208260ff166003811061117257fe5b015411156116a55760048160ff166003811061118a57fe5b0160009054906101000a900473ffffffffffffffffffffffffffffffffffffffff1673ffffffffffffffffffffffffffffffffffffffff1663313ce5676040518163ffffffff1660e01b815260040160206040518083038186803b1580156111f157600080fd5b505afa158015611205573d6000803e3d6000fd5b505050506040513d601f19601f820116820180604052508101906112299190615b0f565b60ff16915060006112d56127106112c7600160009054906101000a90046fffffffffffffffffffffffffffffffff166fffffffffffffffffffffffffffffffff16600f60003373ffffffffffffffffffffffffffffffffffffffff1673ffffffffffffffffffffffffffffffffffffffff1681526020019081526020016000208660ff16600381106112b757fe5b01546140b690919063ffffffff16565b61412690919063ffffffff16565b9050611349600f60003373ffffffffffffffffffffffffffffffffffffffff1673ffffffffffffffffffffffffffffffffffffffff1681526020019081526020016000208360ff166003811061132757fe5b015460178460ff166003811061133957fe5b015461447390919063ffffffff16565b60178360ff166003811061135957fe5b01819055506114026113f184600a0a6113e3670de0b6b3a76400006113d586600f60003373ffffffffffffffffffffffffffffffffffffffff1673ffffffffffffffffffffffffffffffffffffffff1681526020019081526020016000208960ff16600381106113c557fe5b015461447390919063ffffffff16565b6140b690919063ffffffff16565b61412690919063ffffffff16565b60035461447390919063ffffffff16565b600381905550611469601060003373ffffffffffffffffffffffffffffffffffffffff1673ffffffffffffffffffffffffffffffffffffffff1681526020019081526020016000208360ff166003811061145857fe5b01548561417c90919063ffffffff16565b9350611527336114d083600f60003373ffffffffffffffffffffffffffffffffffffffff1673ffffffffffffffffffffffffffffffffffffffff1681526020019081526020016000208660ff16600381106114c057fe5b015461447390919063ffffffff16565b60048560ff16600381106114e057fe5b0160009054906101000a900473ffffffffffffffffffffffffffffffffffffffff1673ffffffffffffffffffffffffffffffffffffffff166144c39092919063ffffffff16565b7f05e94af811ccb220574ce9f299ec388068c5f6cafb7666364479fbb7e30571c6336115aa83600f60003373ffffffffffffffffffffffffffffffffffffffff1673ffffffffffffffffffffffffffffffffffffffff1681526020019081526020016000208660ff166003811061159a57fe5b015461447390919063ffffffff16565b846040516115ba9392919061635d565b60405180910390a16000600f60003373ffffffffffffffffffffffffffffffffffffffff1673ffffffffffffffffffffffffffffffffffffffff1681526020019081526020016000208360ff166003811061161157fe5b01819055506000601060003373ffffffffffffffffffffffffffffffffffffffff1673ffffffffffffffffffffffffffffffffffffffff1681526020019081526020016000208360ff166003811061166557fe5b018190555061168e81601b8460ff166003811061167e57fe5b015461417c90919063ffffffff16565b601b8360ff166003811061169e57fe5b0181905550505b8080600101915050611117565b506116bd3383614549565b6000601a60003373ffffffffffffffffffffffffffffffffffffffff1673ffffffffffffffffffffffffffffffffffffffff16815260200190815260200160002060006101000a81548160ff02191690831515021790555050506001600081905550565b600061181a601b836003811061173357fe5b015461180c6017856003811061174557fe5b01546004866003811061175457fe5b0160009054906101000a900473ffffffffffffffffffffffffffffffffffffffff1673ffffffffffffffffffffffffffffffffffffffff166370a08231306040518263ffffffff1660e01b81526004016117ae91906162c7565b60206040518083038186803b1580156117c657600080fd5b505afa1580156117da573d6000803e3d6000fd5b505050506040513d601f19601f820116820180604052508101906117fe9190615aaa565b61447390919063ffffffff16565b61447390919063ffffffff16565b9050919050565b6004816003811061182e57fe5b016000915054906101000a900473ffffffffffffffffffffffffffffffffffffffff1681565b600960009054906101000a900473ffffffffffffffffffffffffffffffffffffffff1681565b600f602052816000526040600020816003811061189357fe5b01600091509150505481565b3373ffffffffffffffffffffffffffffffffffffffff16600960009054906101000a900473ffffffffffffffffffffffffffffffffffffffff1673ffffffffffffffffffffffffffffffffffffffff161461192f576040517f08c379a000000000000000000000000000000000000000000000000000000000815260040161192690616702565b60405180910390fd5b80600160006101000a8154816fffffffffffffffffffffffffffffffff02191690836fffffffffffffffffffffffffffffffff16021790555050565b3373ffffffffffffffffffffffffffffffffffffffff16600960009054906101000a900473ffffffffffffffffffffffffffffffffffffffff1673ffffffffffffffffffffffffffffffffffffffff16146119fb576040517f08c379a00000000000000000000000000000000000000000000000000000000081526004016119f290616702565b60405180910390fd5b80600d8190555050565b601f5481565b600a60009054906101000a900473ffffffffffffffffffffffffffffffffffffffff1673ffffffffffffffffffffffffffffffffffffffff163373ffffffffffffffffffffffffffffffffffffffff1614611a9b576040517f08c379a0000000000000000000000000000000000000000000000000000000008152600401611a9290616582565b60405180910390fd5b7f6058119c217577f8ad236dec0d66116c29ed9d1f362482f49becdbffe3ae0df1600960009054906101000a900473ffffffffffffffffffffffffffffffffffffffff16600a60009054906101000a900473ffffffffffffffffffffffffffffffffffffffff16604051611b10929190616394565b60405180910390a1600a60009054906101000a900473ffffffffffffffffffffffffffffffffffffffff16600960006101000a81548173ffffffffffffffffffffffffffffffffffffffff021916908373ffffffffffffffffffffffffffffffffffffffff1602179055506000600a60006101000a81548173ffffffffffffffffffffffffffffffffffffffff021916908373ffffffffffffffffffffffffffffffffffffffff160217905550565b3373ffffffffffffffffffffffffffffffffffffffff16600960009054906101000a900473ffffffffffffffffffffffffffffffffffffffff1673ffffffffffffffffffffffffffffffffffffffff1614611c4f576040517f08c379a0000000000000000000000000000000000000000000000000000000008152600401611c4690616702565b60405180910390fd5b60005b60038160ff161015611cb0576000600b5414611ca3576040517f08c379a0000000000000000000000000000000000000000000000000000000008152600401611c9a906166a2565b60405180910390fd5b8080600101915050611c52565b5080600860006101000a81548173ffffffffffffffffffffffffffffffffffffffff021916908373ffffffffffffffffffffffffffffffffffffffff16021790555050565b3373ffffffffffffffffffffffffffffffffffffffff16600960009054906101000a900473ffffffffffffffffffffffffffffffffffffffff1673ffffffffffffffffffffffffffffffffffffffff1614611d85576040517f08c379a0000000000000000000000000000000000000000000000000000000008152600401611d7c90616702565b60405180910390fd5b611d8d615714565b600860009054906101000a900473ffffffffffffffffffffffffffffffffffffffff1673ffffffffffffffffffffffffffffffffffffffff1663853828b66040518163ffffffff1660e01b8152600401606060405180830381600087803b158015611df757600080fd5b505af1158015611e0b573d6000803e3d6000fd5b505050506040513d601f19601f82011682018060405250810190611e2f919061598e565b905060008060038190555060005b60038160ff16101561200d5760048160ff1660038110611e5957fe5b0160009054906101000a900473ffffffffffffffffffffffffffffffffffffffff1673ffffffffffffffffffffffffffffffffffffffff1663313ce5676040518163ffffffff1660e01b815260040160206040518083038186803b158015611ec057600080fd5b505afa158015611ed4573d6000803e3d6000fd5b505050506040513d601f19601f82011682018060405250810190611ef89190615b0f565b60ff169150611ffa611fe983600a0a611fdb670de0b6b3a764000060048660ff1660038110611f2357fe5b0160009054906101000a900473ffffffffffffffffffffffffffffffffffffffff1673ffffffffffffffffffffffffffffffffffffffff166370a08231306040518263ffffffff1660e01b8152600401611f7d91906162c7565b60206040518083038186803b158015611f9557600080fd5b505afa158015611fa9573d6000803e3d6000fd5b505050506040513d601f19601f82011682018060405250810190611fcd9190615aaa565b6140b690919063ffffffff16565b61412690919063ffffffff16565b60035461417c90919063ffffffff16565b6003819055508080600101915050611e3d565b506000600b8190555061201e614838565b5050565b6012818154811061202f57fe5b906000526020600020016000915054906101000a900473ffffffffffffffffffffffffffffffffffffffff1681565b3373ffffffffffffffffffffffffffffffffffffffff16600960009054906101000a900473ffffffffffffffffffffffffffffffffffffffff1673ffffffffffffffffffffffffffffffffffffffff16146120ee576040517f08c379a00000000000000000000000000000000000000000000000000000000081526004016120e590616702565b60405180910390fd5b80601f8190555050565b60025481565b3373ffffffffffffffffffffffffffffffffffffffff16600960009054906101000a900473ffffffffffffffffffffffffffffffffffffffff1673ffffffffffffffffffffffffffffffffffffffff161461218e576040517f08c379a000000000000000000000000000000000000000000000000000000000815260040161218590616702565b60405180910390fd5b6000612198615714565b6121a0615714565b6000806121ad6000612cf3565b915060006121ed6127106121df60036121d1600254886140b690919063ffffffff16565b61412690919063ffffffff16565b61412690919063ffffffff16565b9050600080600090505b60038160ff16101561243b5761220f8160ff16611721565b975060048160ff166003811061222157fe5b0160009054906101000a900473ffffffffffffffffffffffffffffffffffffffff1673ffffffffffffffffffffffffffffffffffffffff1663313ce5676040518163ffffffff1660e01b815260040160206040518083038186803b15801561228857600080fd5b505afa15801561229c573d6000803e3d6000fd5b505050506040513d601f19601f820116820180604052508101906122c09190615b0f565b60ff1693506122f5670de0b6b3a76400006122e786600a0a866140b690919063ffffffff16565b61412690919063ffffffff16565b91508782111561232f57612312888361447390919063ffffffff16565b878260ff166003811061232157fe5b60200201818152505061242e565b878210156123f85761234a828961447390919063ffffffff16565b868260ff166003811061235957fe5b6020020181815250506123f3600860009054906101000a900473ffffffffffffffffffffffffffffffffffffffff16878360ff166003811061239757fe5b602002015160048460ff16600381106123ac57fe5b0160009054906101000a900473ffffffffffffffffffffffffffffffffffffffff1673ffffffffffffffffffffffffffffffffffffffff166144c39092919063ffffffff16565b61242d565b6000878260ff166003811061240957fe5b6020020181815250506000868260ff166003811061242357fe5b6020020181815250505b5b80806001019150506121f7565b506124458561425a565b156124545761245385614a58565b5b61245d8661425a565b1561246d5761246c86896142ac565b5b5050505050505050565b60116020528060005260406000206000915054906101000a900460ff1681565b61271081565b600260005414156124e3576040517f08c379a00000000000000000000000000000000000000000000000000000000081526004016124da906167c2565b60405180910390fd5b6002600081905550816000811161252f576040517f08c379a000000000000000000000000000000000000000000000000000000000815260040161252690616642565b60405180910390fd5b601a60003373ffffffffffffffffffffffffffffffffffffffff1673ffffffffffffffffffffffffffffffffffffffff16815260200190815260200160002060009054906101000a900460ff16156125bc576040517f08c379a00000000000000000000000000000000000000000000000000000000081526004016125b3906167e2565b60405180910390fd5b82600760009054906101000a900473ffffffffffffffffffffffffffffffffffffffff1673ffffffffffffffffffffffffffffffffffffffff166370a08231336040518263ffffffff1660e01b815260040161261891906162e2565b60206040518083038186803b15801561263057600080fd5b505afa158015612644573d6000803e3d6000fd5b505050506040513d601f19601f820116820180604052508101906126689190615aaa565b10156126a9576040517f08c379a00000000000000000000000000000000000000000000000000000000081526004016126a090616722565b60405180910390fd5b60006126b733846001613c83565b915050838110156126fd576040517f08c379a00000000000000000000000000000000000000000000000000000000081526004016126f490616702565b60405180910390fd5b60006127096001612cf3565b905060006127d1600760009054906101000a900473ffffffffffffffffffffffffffffffffffffffff1673ffffffffffffffffffffffffffffffffffffffff166318160ddd6040518163ffffffff1660e01b815260040160206040518083038186803b15801561277857600080fd5b505afa15801561278c573d6000803e3d6000fd5b505050506040513d601f19601f820116820180604052508101906127b09190615aaa565b6127c384896140b690919063ffffffff16565b61412690919063ffffffff16565b90506127dd6000612cf3565b81111561281f576040517f08c379a000000000000000000000000000000000000000000000000000000000815260040161281690616782565b60405180910390fd5b60006004866003811061282e57fe5b0160009054906101000a900473ffffffffffffffffffffffffffffffffffffffff1673ffffffffffffffffffffffffffffffffffffffff1663313ce5676040518163ffffffff1660e01b815260040160206040518083038186803b15801561289557600080fd5b505afa1580156128a9573d6000803e3d6000fd5b505050506040513d601f19601f820116820180604052508101906128cd9190615b0f565b60ff16905061290c612905670de0b6b3a76400006128f784600a0a866140b690919063ffffffff16565b61412690919063ffffffff16565b8888614c1c565b505050505060016000819055505050565b600160009054906101000a90046fffffffffffffffffffffffffffffffff1681565b60135481565b61294e8161425a565b61298d576040517f08c379a000000000000000000000000000000000000000000000000000000000815260040161298490616562565b60405180910390fd5b600080600090505b60038160ff161015612bf6576000838260ff16600381106129b257fe5b60200201511115612be95760048160ff16600381106129cd57fe5b0160009054906101000a900473ffffffffffffffffffffffffffffffffffffffff1673ffffffffffffffffffffffffffffffffffffffff1663313ce5676040518163ffffffff1660e01b815260040160206040518083038186803b158015612a3457600080fd5b505afa158015612a48573d6000803e3d6000fd5b505050506040513d601f19601f82011682018060405250810190612a6c9190615b0f565b60ff169150612ac8612ab783600a0a612aa9670de0b6b3a7640000878660ff1660038110612a9657fe5b60200201516140b690919063ffffffff16565b61412690919063ffffffff16565b601e5461447390919063ffffffff16565b601e81905550612b25612b1483600a0a612b06670de0b6b3a7640000878660ff1660038110612af357fe5b60200201516140b690919063ffffffff16565b61412690919063ffffffff16565b60035461417c90919063ffffffff16565b600381905550612b9c3330858460ff1660038110612b3f57fe5b602002015160048560ff1660038110612b5457fe5b0160009054906101000a900473ffffffffffffffffffffffffffffffffffffffff1673ffffffffffffffffffffffffffffffffffffffff166141d1909392919063ffffffff16565b7ff75674d390f3697fe5cbf47578c7636e7543d80209c291b25dfcac61617b7992838260ff1660038110612bcc57fe5b602002015182604051612be09291906168a6565b60405180910390a15b8080600101915050612995565b505050565b3373ffffffffffffffffffffffffffffffffffffffff16600960009054906101000a900473ffffffffffffffffffffffffffffffffffffffff1673ffffffffffffffffffffffffffffffffffffffff1614612c8b576040517f08c379a0000000000000000000000000000000000000000000000000000000008152600401612c8290616702565b60405180910390fd5b806fffffffffffffffffffffffffffffffff1660028190555050565b600a60009054906101000a900473ffffffffffffffffffffffffffffffffffffffff1681565b600860009054906101000a900473ffffffffffffffffffffffffffffffffffffffff1681565b600080600080600080600090505b60038160ff161015612ecd5760048160ff1660038110612d1d57fe5b0160009054906101000a900473ffffffffffffffffffffffffffffffffffffffff1673ffffffffffffffffffffffffffffffffffffffff1663313ce5676040518163ffffffff1660e01b815260040160206040518083038186803b158015612d8457600080fd5b505afa158015612d98573d6000803e3d6000fd5b505050506040513d601f19601f82011682018060405250810190612dbc9190615b0f565b60ff169450612e14612e0586600a0a612df7670de0b6b3a764000060148660ff1660038110612de757fe5b01546140b690919063ffffffff16565b61412690919063ffffffff16565b8561417c90919063ffffffff16565b9350612e69612e5a86600a0a612e4c670de0b6b3a764000060178660ff1660038110612e3c57fe5b01546140b690919063ffffffff16565b61412690919063ffffffff16565b8461417c90919063ffffffff16565b9250612ebe612eaf86600a0a612ea1670de0b6b3a7640000601b8660ff1660038110612e9157fe5b01546140b690919063ffffffff16565b61412690919063ffffffff16565b8361417c90919063ffffffff16565b91508080600101915050612d01565b508515612f2c57612f21601e54612f1383612f0586612ef78960035461447390919063ffffffff16565b61447390919063ffffffff16565b61447390919063ffffffff16565b61417c90919063ffffffff16565b945050505050612f6c565b612f6581612f5784612f498760035461447390919063ffffffff16565b61447390919063ffffffff16565b61447390919063ffffffff16565b9450505050505b919050565b60035481565b3373ffffffffffffffffffffffffffffffffffffffff16600960009054906101000a900473ffffffffffffffffffffffffffffffffffffffff1673ffffffffffffffffffffffffffffffffffffffff1614613007576040517f08c379a0000000000000000000000000000000000000000000000000000000008152600401612ffe90616702565b60405180910390fd5b61304d6014600380602002604051908101604052809291908260038015613043576020028201915b81548152602001906001019080831161302f575b505050505061425a565b61308c576040517f08c379a000000000000000000000000000000000000000000000000000000000815260040161308390616662565b60405180910390fd5b6130d360146003806020026040519081016040528092919082600380156130c8576020028201915b8154815260200190600101908083116130b4575b5050505050826142ac565b6130db614838565b50565b6000806130eb6001612cf3565b90506000600484600381106130fc57fe5b0160009054906101000a900473ffffffffffffffffffffffffffffffffffffffff1673ffffffffffffffffffffffffffffffffffffffff1663313ce5676040518163ffffffff1660e01b815260040160206040518083038186803b15801561316357600080fd5b505afa158015613177573d6000803e3d6000fd5b505050506040513d601f19601f8201168201806040525081019061319b9190615b0f565b60ff1690506131d081600a0a6131c2670de0b6b3a7640000886140b690919063ffffffff16565b61412690919063ffffffff16565b945060008214156131e55784925050506132ae565b6132a98261329b600760009054906101000a900473ffffffffffffffffffffffffffffffffffffffff1673ffffffffffffffffffffffffffffffffffffffff166318160ddd6040518163ffffffff1660e01b815260040160206040518083038186803b15801561325457600080fd5b505afa158015613268573d6000803e3d6000fd5b505050506040513d601f19601f8201168201806040525081019061328c9190615aaa565b886140b690919063ffffffff16565b61412690919063ffffffff16565b925050505b92915050565b600e60205281600052604060002081815481106132cd57fe5b9060005260206000209060040201600091509150508060000154908060010154908060020154908060030154905084565b6010602052816000526040600020816003811061331757fe5b01600091509150505481565b3373ffffffffffffffffffffffffffffffffffffffff16600960009054906101000a900473ffffffffffffffffffffffffffffffffffffffff1673ffffffffffffffffffffffffffffffffffffffff16146133b3576040517f08c379a00000000000000000000000000000000000000000000000000000000081526004016133aa90616702565b60405180910390fd5b6133bb615714565b6000806133c86000612cf3565b915060006134086127106133fa60036133ec600254886140b690919063ffffffff16565b61412690919063ffffffff16565b61412690919063ffffffff16565b9050600080600090505b60038160ff16101561363f5760048160ff166003811061342e57fe5b0160009054906101000a900473ffffffffffffffffffffffffffffffffffffffff1673ffffffffffffffffffffffffffffffffffffffff1663313ce5676040518163ffffffff1660e01b815260040160206040518083038186803b15801561349557600080fd5b505afa1580156134a9573d6000803e3d6000fd5b505050506040513d601f19601f820116820180604052508101906134cd9190615b0f565b60ff1693506134de8160ff16611721565b868260ff16600381106134ed57fe5b602002018181525050613526670de0b6b3a764000061351886600a0a866140b690919063ffffffff16565b61412690919063ffffffff16565b915081868260ff166003811061353857fe5b602002015111156136175761356982878360ff166003811061355657fe5b602002015161447390919063ffffffff16565b868260ff166003811061357857fe5b602002018181525050613612600860009054906101000a900473ffffffffffffffffffffffffffffffffffffffff16878360ff16600381106135b657fe5b602002015160048460ff16600381106135cb57fe5b0160009054906101000a900473ffffffffffffffffffffffffffffffffffffffff1673ffffffffffffffffffffffffffffffffffffffff166144c39092919063ffffffff16565b613632565b6000868260ff166003811061362857fe5b6020020181815250505b8080600101915050613412565b506136498561425a565b156136585761365785614a58565b5b5050505050565b600260005414156136a5576040517f08c379a000000000000000000000000000000000000000000000000000000000815260040161369c906167c2565b60405180910390fd5b6002600081905550600080600090505b60038110156138dc57600481600381106136cb57fe5b0160009054906101000a900473ffffffffffffffffffffffffffffffffffffffff1673ffffffffffffffffffffffffffffffffffffffff1663313ce5676040518163ffffffff1660e01b815260040160206040518083038186803b15801561373257600080fd5b505afa158015613746573d6000803e3d6000fd5b505050506040513d601f19601f8201168201806040525081019061376a9190615b0f565b60ff1691506137c16137b083600a0a6137a2670de0b6b3a7640000601b866003811061379257fe5b01546140b690919063ffffffff16565b61412690919063ffffffff16565b60035461447390919063ffffffff16565b600381905550613850600960009054906101000a900473ffffffffffffffffffffffffffffffffffffffff16601b83600381106137fa57fe5b01546004846003811061380957fe5b0160009054906101000a900473ffffffffffffffffffffffffffffffffffffffff1673ffffffffffffffffffffffffffffffffffffffff166144c39092919063ffffffff16565b7f7f059ecf8b751d26e68e209ab822cd621da40012e546aa1916a8b1e5511dbe4a600960009054906101000a900473ffffffffffffffffffffffffffffffffffffffff16601b83600381106138a157fe5b0154836040516138b39392919061641d565b60405180910390a16000601b82600381106138ca57fe5b018190555080806001019150506136b5565b50506001600081905550565b6002600054141561392e576040517f08c379a0000000000000000000000000000000000000000000000000000000008152600401613925906167c2565b60405180910390fd5b6002600081905550816000811161397a576040517f08c379a000000000000000000000000000000000000000000000000000000000815260040161397190616642565b60405180910390fd5b60008061398785856130de565b9050600e60003373ffffffffffffffffffffffffffffffffffffffff1673ffffffffffffffffffffffffffffffffffffffff168152602001908152602001600020604051806080016040528086815260200187815260200142815260200183815250908060018154018082558091505060019003906000526020600020906004020160009091909190915060008201518160000155602082015181600101556040820151816002015560608201518160030155505060048460038110613a4957fe5b0160009054906101000a900473ffffffffffffffffffffffffffffffffffffffff1673ffffffffffffffffffffffffffffffffffffffff1663313ce5676040518163ffffffff1660e01b815260040160206040518083038186803b158015613ab057600080fd5b505afa158015613ac4573d6000803e3d6000fd5b505050506040513d601f19601f82011682018060405250810190613ae89190615b0f565b60ff169150613b31613b2083600a0a613b12670de0b6b3a7640000896140b690919063ffffffff16565b61412690919063ffffffff16565b60035461417c90919063ffffffff16565b600381905550613b9233308760048860038110613b4a57fe5b0160009054906101000a900473ffffffffffffffffffffffffffffffffffffffff1673ffffffffffffffffffffffffffffffffffffffff166141d1909392919063ffffffff16565b600760009054906101000a900473ffffffffffffffffffffffffffffffffffffffff1673ffffffffffffffffffffffffffffffffffffffff166340c10f1933836040518363ffffffff1660e01b8152600401613bef9291906162fd565b600060405180830381600087803b158015613c0957600080fd5b505af1158015613c1d573d6000803e3d6000fd5b505050507f6a318e08f56ca4947ef3e059b135e10469334e86784af20b1d4c8d93f84ab436338686604051613c5493929190616326565b60405180910390a150505060016000819055505050565b60148160038110613c7857fe5b016000915090505481565b6000806000805b600e60008873ffffffffffffffffffffffffffffffffffffffff1673ffffffffffffffffffffffffffffffffffffffff168152602001908152602001600020805490508160ff161015613e3557841580613d455750600d54600e60008973ffffffffffffffffffffffffffffffffffffffff1673ffffffffffffffffffffffffffffffffffffffff1681526020019081526020016000208260ff1681548110613d2f57fe5b9060005260206000209060040201600201544203115b8015613daf57506000600e60008973ffffffffffffffffffffffffffffffffffffffff1673ffffffffffffffffffffffffffffffffffffffff1681526020019081526020016000208260ff1681548110613d9b57fe5b906000526020600020906004020160030154115b15613e2857613e25600e60008973ffffffffffffffffffffffffffffffffffffffff1673ffffffffffffffffffffffffffffffffffffffff1681526020019081526020016000208260ff1681548110613e0457fe5b9060005260206000209060040201600301548361417c90919063ffffffff16565b91505b8080600101915050613c8a565b5060005b60038160ff161015613eb557613ea6601060008973ffffffffffffffffffffffffffffffffffffffff1673ffffffffffffffffffffffffffffffffffffffff1681526020019081526020016000208260ff1660038110613e9557fe5b01548361447390919063ffffffff16565b91508080600101915050613e39565b506000613ec26001612cf3565b9050600060048760038110613ed357fe5b0160009054906101000a900473ffffffffffffffffffffffffffffffffffffffff1673ffffffffffffffffffffffffffffffffffffffff1663313ce5676040518163ffffffff1660e01b815260040160206040518083038186803b158015613f3a57600080fd5b505afa158015613f4e573d6000803e3d6000fd5b505050506040513d601f19601f82011682018060405250810190613f729190615b0f565b60ff16905061406a670de0b6b3a764000061405c600760009054906101000a900473ffffffffffffffffffffffffffffffffffffffff1673ffffffffffffffffffffffffffffffffffffffff166318160ddd6040518163ffffffff1660e01b815260040160206040518083038186803b158015613fee57600080fd5b505afa158015614002573d6000803e3d6000fd5b505050506040513d601f19601f820116820180604052508101906140269190615aaa565b61404e85600a0a614040888a6140b690919063ffffffff16565b6140b690919063ffffffff16565b61412690919063ffffffff16565b61412690919063ffffffff16565b8394509450505050935093915050565b600c5481565b601b816003811061408d57fe5b016000915090505481565b601781600381106140a557fe5b016000915090505481565b600d5481565b6000808314156140c95760009050614120565b60008284029050828482816140da57fe5b041461411b576040517f08c379a0000000000000000000000000000000000000000000000000000000008152600401614112906166e2565b60405180910390fd5b809150505b92915050565b600080821161416a576040517f08c379a000000000000000000000000000000000000000000000000000000000815260040161416190616602565b60405180910390fd5b81838161417357fe5b04905092915050565b6000808284019050838110156141c7576040517f08c379a00000000000000000000000000000000000000000000000000000000081526004016141be906165a2565b60405180910390fd5b8091505092915050565b614254846323b872dd60e01b8585856040516024016141f2939291906163bd565b604051602081830303815290604052907bffffffffffffffffffffffffffffffffffffffffffffffffffffffff19166020820180517bffffffffffffffffffffffffffffffffffffffffffffffffffffffff838183161783525050505061500f565b50505050565b600080600090505b60038160ff1610156142a1576000838260ff166003811061427f57fe5b602002015111156142945760019150506142a7565b8080600101915050614262565b50600090505b919050565b600860009054906101000a900473ffffffffffffffffffffffffffffffffffffffff1673ffffffffffffffffffffffffffffffffffffffff1663e68403e883836040518363ffffffff1660e01b81526004016143099291906164a6565b600060405180830381600087803b15801561432357600080fd5b505af1158015614337573d6000803e3d6000fd5b50505050600080600090505b60038160ff16101561446d5760048160ff166003811061435f57fe5b0160009054906101000a900473ffffffffffffffffffffffffffffffffffffffff1673ffffffffffffffffffffffffffffffffffffffff1663313ce5676040518163ffffffff1660e01b815260040160206040518083038186803b1580156143c657600080fd5b505afa1580156143da573d6000803e3d6000fd5b505050506040513d601f19601f820116820180604052508101906143fe9190615b0f565b60ff16915061445a61444983600a0a61443b670de0b6b3a7640000888660ff166003811061442857fe5b60200201516140b690919063ffffffff16565b61412690919063ffffffff16565b600b5461447390919063ffffffff16565b600b819055508080600101915050614343565b50505050565b6000828211156144b8576040517f08c379a00000000000000000000000000000000000000000000000000000000081526004016144af906165c2565b60405180910390fd5b818303905092915050565b6145448363a9059cbb60e01b84846040516024016144e29291906163f4565b604051602081830303815290604052907bffffffffffffffffffffffffffffffffffffffffffffffffffffffff19166020820180517bffffffffffffffffffffffffffffffffffffffffffffffffffffffff838183161783525050505061500f565b505050565b60005b600e60008473ffffffffffffffffffffffffffffffffffffffff1673ffffffffffffffffffffffffffffffffffffffff168152602001908152602001600020805490508160ff161015614833576000600e60008573ffffffffffffffffffffffffffffffffffffffff1673ffffffffffffffffffffffffffffffffffffffff1681526020019081526020016000208260ff16815481106145e857fe5b9060005260206000209060040201600301541180156146075750600082115b1561482657600e60008473ffffffffffffffffffffffffffffffffffffffff1673ffffffffffffffffffffffffffffffffffffffff1681526020019081526020016000208160ff168154811061465957fe5b906000526020600020906004020160030154821061474d576146e2600e60008573ffffffffffffffffffffffffffffffffffffffff1673ffffffffffffffffffffffffffffffffffffffff1681526020019081526020016000208260ff16815481106146c157fe5b9060005260206000209060040201600301548361447390919063ffffffff16565b91506000600e60008573ffffffffffffffffffffffffffffffffffffffff1673ffffffffffffffffffffffffffffffffffffffff1681526020019081526020016000208260ff168154811061473357fe5b906000526020600020906004020160030181905550614825565b6147be82600e60008673ffffffffffffffffffffffffffffffffffffffff1673ffffffffffffffffffffffffffffffffffffffff1681526020019081526020016000208360ff168154811061479e57fe5b90600052602060002090600402016003015461447390919063ffffffff16565b600e60008573ffffffffffffffffffffffffffffffffffffffff1673ffffffffffffffffffffffffffffffffffffffff1681526020019081526020016000208260ff168154811061480b57fe5b906000526020600020906004020160030181905550600091505b5b808060010191505061454c565b505050565b60005b60038160ff1610156148b55761487c60148260ff166003811061485a57fe5b015460178360ff166003811061486c57fe5b015461417c90919063ffffffff16565b60178260ff166003811061488c57fe5b0181905550600060148260ff16600381106148a357fe5b0181905550808060010191505061483b565b5060005b6012805490508110156149f1576001601a6000601284815481106148d957fe5b9060005260206000200160009054906101000a900473ffffffffffffffffffffffffffffffffffffffff1673ffffffffffffffffffffffffffffffffffffffff1673ffffffffffffffffffffffffffffffffffffffff16815260200190815260200160002060006101000a81548160ff0219169083151502179055506000601160006012848154811061496857fe5b9060005260206000200160009054906101000a900473ffffffffffffffffffffffffffffffffffffffff1673ffffffffffffffffffffffffffffffffffffffff1673ffffffffffffffffffffffffffffffffffffffff16815260200190815260200160002060006101000a81548160ff02191690831515021790555080806001019150506148b9565b506000601280549050905060005b81811015614a54576012805480614a1257fe5b6001900381819060005260206000200160006101000a81549073ffffffffffffffffffffffffffffffffffffffff0219169055905580806001019150506149ff565b5050565b600860009054906101000a900473ffffffffffffffffffffffffffffffffffffffff1673ffffffffffffffffffffffffffffffffffffffff1663d4e20b01826040518263ffffffff1660e01b8152600401614ab3919061648b565b600060405180830381600087803b158015614acd57600080fd5b505af1158015614ae1573d6000803e3d6000fd5b50505050600080600090505b60038160ff161015614c175760048160ff1660038110614b0957fe5b0160009054906101000a900473ffffffffffffffffffffffffffffffffffffffff1673ffffffffffffffffffffffffffffffffffffffff1663313ce5676040518163ffffffff1660e01b815260040160206040518083038186803b158015614b7057600080fd5b505afa158015614b84573d6000803e3d6000fd5b505050506040513d601f19601f82011682018060405250810190614ba89190615b0f565b60ff169150614c04614bf383600a0a614be5670de0b6b3a7640000878660ff1660038110614bd257fe5b60200201516140b690919063ffffffff16565b61412690919063ffffffff16565b600b5461417c90919063ffffffff16565b600b819055508080600101915050614aed565b505050565b6000614c2782611721565b9050600760009054906101000a900473ffffffffffffffffffffffffffffffffffffffff1673ffffffffffffffffffffffffffffffffffffffff16639dc29fac33856040518363ffffffff1660e01b8152600401614c869291906162fd565b600060405180830381600087803b158015614ca057600080fd5b505af1158015614cb4573d6000803e3d6000fd5b50505050808411614f2557600060048360038110614cce57fe5b0160009054906101000a900473ffffffffffffffffffffffffffffffffffffffff1673ffffffffffffffffffffffffffffffffffffffff1663313ce5676040518163ffffffff1660e01b815260040160206040518083038186803b158015614d3557600080fd5b505afa158015614d49573d6000803e3d6000fd5b505050506040513d601f19601f82011682018060405250810190614d6d9190615b0f565b60ff1690506000614dcb612710614dbd600160009054906101000a90046fffffffffffffffffffffffffffffffff166fffffffffffffffffffffffffffffffff16896140b690919063ffffffff16565b61412690919063ffffffff16565b9050614e23614e1283600a0a614e04670de0b6b3a7640000614df6868c61447390919063ffffffff16565b6140b690919063ffffffff16565b61412690919063ffffffff16565b60035461447390919063ffffffff16565b600381905550614e333386614549565b614e9e33614e4a838961447390919063ffffffff16565b60048760038110614e5757fe5b0160009054906101000a900473ffffffffffffffffffffffffffffffffffffffff1673ffffffffffffffffffffffffffffffffffffffff166144c39092919063ffffffff16565b7f05e94af811ccb220574ce9f299ec388068c5f6cafb7666364479fbb7e30571c633614ed3838961447390919063ffffffff16565b86604051614ee393929190616326565b60405180910390a1614f0c81601b8660038110614efc57fe5b015461417c90919063ffffffff16565b601b8560038110614f1957fe5b01819055505050615009565b6013546012805490501080614f835750601160003373ffffffffffffffffffffffffffffffffffffffff1673ffffffffffffffffffffffffffffffffffffffff16815260200190815260200160002060009054906101000a900460ff165b614fc2576040517f08c379a0000000000000000000000000000000000000000000000000000000008152600401614fb990616682565b60405180910390fd5b614fcd8484846150d6565b7f8a2144818f0af982468c746133b0dc23424c3b48c50e5cdbb88fdf294d03188e33858460405161500093929190616326565b60405180910390a15b50505050565b6060615071826040518060400160405280602081526020017f5361666545524332303a206c6f772d6c6576656c2063616c6c206661696c65648152508573ffffffffffffffffffffffffffffffffffffffff166155359092919063ffffffff16565b90506000815111156150d157808060200190518101906150919190615a2f565b6150d0576040517f08c379a00000000000000000000000000000000000000000000000000000000081526004016150c7906167a2565b60405180910390fd5b5b505050565b61513483600f60003373ffffffffffffffffffffffffffffffffffffffff1673ffffffffffffffffffffffffffffffffffffffff168152602001908152602001600020836003811061512457fe5b015461417c90919063ffffffff16565b600f60003373ffffffffffffffffffffffffffffffffffffffff1673ffffffffffffffffffffffffffffffffffffffff168152602001908152602001600020826003811061517e57fe5b01819055506151e182601060003373ffffffffffffffffffffffffffffffffffffffff1673ffffffffffffffffffffffffffffffffffffffff16815260200190815260200160002083600381106151d157fe5b015461417c90919063ffffffff16565b601060003373ffffffffffffffffffffffffffffffffffffffff1673ffffffffffffffffffffffffffffffffffffffff168152602001908152602001600020826003811061522b57fe5b0181905550600061523b82611721565b90506000615252828661447390919063ffffffff16565b9050615275826017856003811061526557fe5b015461417c90919063ffffffff16565b6017846003811061528257fe5b01819055506152a8816014856003811061529857fe5b015461417c90919063ffffffff16565b601484600381106152b557fe5b018190555060008060005b60038110156153d957600481600381106152d657fe5b0160009054906101000a900473ffffffffffffffffffffffffffffffffffffffff1673ffffffffffffffffffffffffffffffffffffffff1663313ce5676040518163ffffffff1660e01b815260040160206040518083038186803b15801561533d57600080fd5b505afa158015615351573d6000803e3d6000fd5b505050506040513d601f19601f820116820180604052508101906153759190615b0f565b60ff1691506153ca6153bb83600a0a6153ad670de0b6b3a76400006014866003811061539d57fe5b01546140b690919063ffffffff16565b61412690919063ffffffff16565b8461417c90919063ffffffff16565b925080806001019150506152c0565b50600b5482111561541f576040517f08c379a000000000000000000000000000000000000000000000000000000000815260040161541690616622565b60405180910390fd5b601160003373ffffffffffffffffffffffffffffffffffffffff1673ffffffffffffffffffffffffffffffffffffffff16815260200190815260200160002060009054906101000a900460ff1661552c576001601160003373ffffffffffffffffffffffffffffffffffffffff1673ffffffffffffffffffffffffffffffffffffffff16815260200190815260200160002060006101000a81548160ff0219169083151502179055506012339080600181540180825580915050600190039060005260206000200160009091909190916101000a81548173ffffffffffffffffffffffffffffffffffffffff021916908373ffffffffffffffffffffffffffffffffffffffff1602179055505b50505050505050565b6060615544848460008561554d565b90509392505050565b606082471015615592576040517f08c379a0000000000000000000000000000000000000000000000000000000008152600401615589906165e2565b60405180910390fd5b61559b85615662565b6155da576040517f08c379a00000000000000000000000000000000000000000000000000000000081526004016155d190616742565b60405180910390fd5b600060608673ffffffffffffffffffffffffffffffffffffffff16858760405161560491906162b0565b60006040518083038185875af1925050503d8060008114615641576040519150601f19603f3d011682016040523d82523d6000602084013e615646565b606091505b50915091506156568282866156ad565b92505050949350505050565b60008060007fc5d2460186f7233c927e7db2dcc703c0e500b653ca82273b7bfad8045d85a47060001b9050833f91508082141580156156a457506000801b8214155b92505050919050565b606083156156bd5782905061570d565b6000835111156156d05782518084602001fd5b816040517f08c379a00000000000000000000000000000000000000000000000000000000081526004016157049190616520565b60405180910390fd5b9392505050565b6040518060600160405280600390602082028036833780820191505090505090565b60008135905061574581616ac2565b92915050565b600082601f83011261575c57600080fd5b600361576f61576a826168fc565b6168cf565b9150818385602084028201111561578557600080fd5b60005b838110156157b5578161579b8882615872565b845260208401935060208301925050600181019050615788565b5050505092915050565b600082601f8301126157d057600080fd5b60036157e36157de826168fc565b6168cf565b915081838560208402820111156157f957600080fd5b60005b83811015615829578161580f8882615887565b8452602084019350602083019250506001810190506157fc565b5050505092915050565b60008135905061584281616ad9565b92915050565b60008151905061585781616ad9565b92915050565b60008135905061586c81616af0565b92915050565b60008135905061588181616b07565b92915050565b60008151905061589681616b07565b92915050565b6000815190506158ab81616b1e565b92915050565b6000602082840312156158c357600080fd5b60006158d184828501615736565b91505092915050565b600080604083850312156158ed57600080fd5b60006158fb85828601615736565b925050602061590c85828601615872565b9150509250929050565b60008060006060848603121561592b57600080fd5b600061593986828701615736565b935050602061594a86828701615872565b925050604061595b86828701615833565b9150509250925092565b60006060828403121561597757600080fd5b60006159858482850161574b565b91505092915050565b6000606082840312156159a057600080fd5b60006159ae848285016157bf565b91505092915050565b600080600060e084860312156159cc57600080fd5b60006159da8682870161574b565b93505060606159eb86828701615736565b92505060806159fc8682870161574b565b9150509250925092565b600060208284031215615a1857600080fd5b6000615a2684828501615833565b91505092915050565b600060208284031215615a4157600080fd5b6000615a4f84828501615848565b91505092915050565b600060208284031215615a6a57600080fd5b6000615a788482850161585d565b91505092915050565b600060208284031215615a9357600080fd5b6000615aa184828501615872565b91505092915050565b600060208284031215615abc57600080fd5b6000615aca84828501615887565b91505092915050565b60008060408385031215615ae657600080fd5b6000615af485828601615872565b9250506020615b0585828601615872565b9150509250929050565b600060208284031215615b2157600080fd5b6000615b2f8482850161589c565b91505092915050565b6000615b448383616283565b60208301905092915050565b615b59816169ee565b82525050565b615b688161697d565b82525050565b615b7781616928565b615b818184616956565b9250615b8c8261691e565b8060005b83811015615bbd578151615ba48782615b38565b9650615baf83616949565b925050600181019050615b90565b505050505050565b615bce8161698f565b82525050565b6000615bdf82616933565b615be98185616961565b9350615bf9818560208601616a7e565b80840191505092915050565b615c0e81616a00565b82525050565b615c1d81616a24565b82525050565b6000615c2e8261693e565b615c38818561696c565b9350615c48818560208601616a7e565b615c5181616ab1565b840191505092915050565b6000615c6960168361696c565b91507f72657175657374207769746864726177206669727374000000000000000000006000830152602082019050919050565b6000615ca960148361696c565b91507f616d6f756e742063616e2774206265207a65726f0000000000000000000000006000830152602082019050919050565b6000615ce960358361696c565b91507f596f75206d757374206265206e6f6d696e61746564206265666f726520796f7560008301527f2063616e20616363657074206f776e65727368697000000000000000000000006020830152604082019050919050565b6000615d4f601b8361696c565b91507f536166654d6174683a206164646974696f6e206f766572666c6f7700000000006000830152602082019050919050565b6000615d8f601e8361696c565b91507f536166654d6174683a207375627472616374696f6e206f766572666c6f7700006000830152602082019050919050565b6000615dcf60268361696c565b91507f416464726573733a20696e73756666696369656e742062616c616e636520666f60008301527f722063616c6c00000000000000000000000000000000000000000000000000006020830152604082019050919050565b6000615e35601a8361696c565b91507f536166654d6174683a206469766973696f6e206279207a65726f0000000000006000830152602082019050919050565b6000615e7560128361696c565b91507f4e6f7420656e6f7567682062616c616e636500000000000000000000000000006000830152602082019050919050565b6000615eb560028361696c565b91507f4e560000000000000000000000000000000000000000000000000000000000006000830152602082019050919050565b6000615ef5600b8361696c565b91507f717565756520656d7074790000000000000000000000000000000000000000006000830152602082019050919050565b6000615f3560178361696c565b91507f7265717565737473206c696d69742045786365656465640000000000000000006000830152602082019050919050565b6000615f75601f8361696c565b91507f43616c6c207769746864726177416c6c2066756e6374696f6e206669727374006000830152602082019050919050565b6000615fb5600c8361696c565b91507f457863656564206c696d697400000000000000000000000000000000000000006000830152602082019050919050565b6000615ff560218361696c565b91507f536166654d6174683a206d756c7469706c69636174696f6e206f766572666c6f60008301527f77000000000000000000000000000000000000000000000000000000000000006020830152604082019050919050565b600061605b60028361696c565b91507f4e410000000000000000000000000000000000000000000000000000000000006000830152602082019050919050565b600061609b60078361696c565b91507f6c6f7720525054000000000000000000000000000000000000000000000000006000830152602082019050919050565b60006160db601d8361696c565b91507f416464726573733a2063616c6c20746f206e6f6e2d636f6e74726163740000006000830152602082019050919050565b600061611b60138361696c565b91507f616d6f756e742063616e206e6f74207a65726f000000000000000000000000006000830152602082019050919050565b600061615b60178361696c565b91507f4e6f7420456e6f75676820506f6f6c2062616c616e63650000000000000000006000830152602082019050919050565b600061619b602a8361696c565b91507f5361666545524332303a204552433230206f7065726174696f6e20646964206e60008301527f6f742073756363656564000000000000000000000000000000000000000000006020830152604082019050919050565b6000616201601f8361696c565b91507f5265656e7472616e637947756172643a207265656e7472616e742063616c6c006000830152602082019050919050565b6000616241600b8361696c565b91507f436c61696d2066697273740000000000000000000000000000000000000000006000830152602082019050919050565b61627d8161699b565b82525050565b61628c816169d7565b82525050565b61629b816169d7565b82525050565b6162aa81616a6c565b82525050565b60006162bc8284615bd4565b915081905092915050565b60006020820190506162dc6000830184615b5f565b92915050565b60006020820190506162f76000830184615b50565b92915050565b60006040820190506163126000830185615b50565b61631f6020830184616292565b9392505050565b600060608201905061633b6000830186615b50565b6163486020830185616292565b6163556040830184616292565b949350505050565b60006060820190506163726000830186615b50565b61637f6020830185616292565b61638c60408301846162a1565b949350505050565b60006040820190506163a96000830185615b5f565b6163b66020830184615b5f565b9392505050565b60006060820190506163d26000830186615b5f565b6163df6020830185615b5f565b6163ec6040830184616292565b949350505050565b60006040820190506164096000830185615b5f565b6164166020830184616292565b9392505050565b60006060820190506164326000830186615b5f565b61643f6020830185616292565b61644c6040830184616292565b949350505050565b60006060820190506164696000830186615b5f565b6164766020830185616292565b61648360408301846162a1565b949350505050565b60006060820190506164a06000830184615b6e565b92915050565b600060c0820190506164bb6000830185615b6e565b6164c86060830184615b6e565b9392505050565b60006020820190506164e46000830184615bc5565b92915050565b60006020820190506164ff6000830184615c05565b92915050565b600060208201905061651a6000830184615c14565b92915050565b6000602082019050818103600083015261653a8184615c23565b905092915050565b6000602082019050818103600083015261655b81615c5c565b9050919050565b6000602082019050818103600083015261657b81615c9c565b9050919050565b6000602082019050818103600083015261659b81615cdc565b9050919050565b600060208201905081810360008301526165bb81615d42565b9050919050565b600060208201905081810360008301526165db81615d82565b9050919050565b600060208201905081810360008301526165fb81615dc2565b9050919050565b6000602082019050818103600083015261661b81615e28565b9050919050565b6000602082019050818103600083015261663b81615e68565b9050919050565b6000602082019050818103600083015261665b81615ea8565b9050919050565b6000602082019050818103600083015261667b81615ee8565b9050919050565b6000602082019050818103600083015261669b81615f28565b9050919050565b600060208201905081810360008301526166bb81615f68565b9050919050565b600060208201905081810360008301526166db81615fa8565b9050919050565b600060208201905081810360008301526166fb81615fe8565b9050919050565b6000602082019050818103600083015261671b8161604e565b9050919050565b6000602082019050818103600083015261673b8161608e565b9050919050565b6000602082019050818103600083015261675b816160ce565b9050919050565b6000602082019050818103600083015261677b8161610e565b9050919050565b6000602082019050818103600083015261679b8161614e565b9050919050565b600060208201905081810360008301526167bb8161618e565b9050919050565b600060208201905081810360008301526167db816161f4565b9050919050565b600060208201905081810360008301526167fb81616234565b9050919050565b60006020820190506168176000830184616274565b92915050565b60006020820190506168326000830184616292565b92915050565b600060408201905061684d6000830185616292565b61685a6020830184616292565b9392505050565b60006080820190506168766000830187616292565b6168836020830186616292565b6168906040830185616292565b61689d6060830184616292565b95945050505050565b60006040820190506168bb6000830185616292565b6168c860208301846162a1565b9392505050565b6000604051905081810181811067ffffffffffffffff821117156168f257600080fd5b8060405250919050565b600067ffffffffffffffff82111561691357600080fd5b602082029050919050565b6000819050919050565b600060039050919050565b600081519050919050565b600081519050919050565b6000602082019050919050565b600081905092915050565b600081905092915050565b600082825260208201905092915050565b6000616988826169b7565b9050919050565b60008115159050919050565b60006fffffffffffffffffffffffffffffffff82169050919050565b600073ffffffffffffffffffffffffffffffffffffffff82169050919050565b6000819050919050565b600060ff82169050919050565b60006169f982616a48565b9050919050565b6000616a0b82616a12565b9050919050565b6000616a1d826169b7565b9050919050565b6000616a2f82616a36565b9050919050565b6000616a41826169b7565b9050919050565b6000616a5382616a5a565b9050919050565b6000616a65826169b7565b9050919050565b6000616a77826169e1565b9050919050565b60005b83811015616a9c578082015181840152602081019050616a81565b83811115616aab576000848401525b50505050565b6000601f19601f8301169050919050565b616acb8161697d565b8114616ad657600080fd5b50565b616ae28161698f565b8114616aed57600080fd5b50565b616af98161699b565b8114616b0457600080fd5b50565b616b10816169d7565b8114616b1b57600080fd5b50565b616b27816169e1565b8114616b3257600080fd5b5056fea26469706673582212205c587534fdaafe08ab34fc5b2d3d2c7cbd8775b0dd4cca2392393d3e73dad7dc64736f6c634300060c0033",
  "immutableReferences": {},
  "source": "// SPDX-License-Identifier: UNLICENSED\r\npragma solidity ^0.6.0;\r\npragma experimental ABIEncoderV2;\r\n\r\n\r\nimport '../../Interfaces/StrategyInterface.sol';\r\nimport \"@openzeppelin/contracts/utils/ReentrancyGuard.sol\";\r\nimport './SafeERC20.sol';\r\n\r\ncontract RoyaleLP is ReentrancyGuard {\r\n    using SafeERC20 for IERC20;\r\n    using SafeMath for uint256;\r\n\r\n    uint256 constant public N_COINS=3;\r\n    \r\n    uint256 public constant DENOMINATOR = 10000;\r\n\r\n    uint128 public fees = 25; // for .25% fee, for 1.75% fee => 175\r\n\r\n    uint256 public poolPart = 750 ; // 7.5% of total Liquidity will remain in the pool\r\n\r\n    uint256 public selfBalance;\r\n\r\n    IERC20[N_COINS] public tokens;\r\n\r\n    IERC20 public rpToken;\r\n\r\n    rStrategy public strategy;\r\n    \r\n    address public wallet;\r\n    \r\n    address public nominatedWallet;\r\n\r\n    uint public YieldPoolBalance;\r\n    uint public liquidityProvidersAPY;\r\n\r\n    //storage for user related to supply and withdraw\r\n    \r\n    uint256 public lock_period = 1 minutes;\r\n\r\n    struct depositDetails {\r\n        uint index;\r\n        uint amount;\r\n        uint256 time;\r\n        uint256 remAmt;\r\n    }\r\n    \r\n    mapping(address => depositDetails[]) public amountSupplied;\r\n    mapping(address => uint256[N_COINS]) public amountWithdraw;\r\n    mapping(address => uint256[N_COINS]) public amountBurnt;\r\n    \r\n    mapping(address => bool) public isInQ;\r\n    \r\n    address[] public withdrawRecipients;\r\n    \r\n    uint public maxWithdrawRequests=25;\r\n    \r\n    uint256[N_COINS] public totalWithdraw;\r\n    \r\n    uint[N_COINS] public reserveAmount;\r\n    mapping(address => bool)public reserveRecipients;\r\n\r\n\r\n    uint[N_COINS] public storedFees;\r\n    \r\n    //storage to store total loan given\r\n    uint256 public loanGiven;\r\n    \r\n    uint public loanPart=2000;\r\n    \r\n  \r\n    modifier onlyWallet(){\r\n      require(wallet ==msg.sender, \"NA\");\r\n      _;\r\n    }\r\n  \r\n     modifier validAmount(uint amount){\r\n      require(amount > 0 , \"NV\");\r\n      _;\r\n    }\r\n    \r\n    // EVENTS \r\n    event userSupplied(address user,uint amount,uint index);\r\n    event userRecieved(address user,uint amount,uint index);\r\n    event userAddedToQ(address user,uint amount,uint index);\r\n    event feesTransfered(address user,uint amount,uint index);\r\n    event loanTransfered(address recipient,uint amount,uint index);\r\n    event loanRepayed(uint amount,uint index);\r\n    event yieldAdded(uint amount,uint index);\r\n    event walletNominated(address newOwner);\r\n    event walletChanged(address oldOwner, address newOwner);\r\n   \r\n    \r\n    constructor(address[N_COINS] memory _tokens,address _rpToken,address _wallet) public {\r\n        require(_wallet != address(0), \"Wallet address cannot be 0\");\r\n        for(uint8 i=0; i<N_COINS; i++) {\r\n            tokens[i] = IERC20(_tokens[i]);\r\n        }\r\n        rpToken = IERC20(_rpToken);\r\n        wallet=_wallet;\r\n    }\r\n    \r\n    function nominateNewOwner(address _wallet) external onlyWallet {\r\n        nominatedWallet = _wallet;\r\n        emit walletNominated(_wallet);\r\n    }\r\n\r\n    function acceptOwnership() external {\r\n        require(msg.sender == nominatedWallet, \"You must be nominated before you can accept ownership\");\r\n        emit walletChanged(wallet, nominatedWallet);\r\n        wallet = nominatedWallet;\r\n        nominatedWallet = address(0);\r\n    }\r\n\r\n\r\n    /* INTERNAL FUNCTIONS */\r\n   \r\n    \r\n    //For checking whether array contains any non zero elements or not.\r\n    function checkValidArray(uint256[N_COINS] memory amounts)internal pure returns(bool){\r\n        for(uint8 i=0;i<N_COINS;i++){\r\n            if(amounts[i]>0){\r\n                return true;\r\n            }\r\n        }\r\n        return false;\r\n    }\r\n\r\n    // This function deposits the liquidity to yield generation pool using yield Strategy contract\r\n    function _deposit(uint256[N_COINS] memory amounts) internal {\r\n        strategy.deposit(amounts);\r\n        uint decimal;\r\n        for(uint8 i=0;i<N_COINS;i++){\r\n            decimal=tokens[i].decimals();\r\n            YieldPoolBalance =YieldPoolBalance.add(amounts[i].mul(10**18).div(10**decimal));\r\n        }\r\n    }\r\n   \r\n\r\n    //This function is used to updating the array of user's individual deposit , called when users withdraw/claim tokens.\r\n    function updateLockedRPT(address recipient,uint256 amount) internal{\r\n        for(uint8 j=0; j<amountSupplied[recipient].length; j++) {\r\n            if(amountSupplied[recipient][j].remAmt > 0 && amount > 0 ) {\r\n                if(amount >= amountSupplied[recipient][j].remAmt) {\r\n                        amount = amount.sub( amountSupplied[recipient][j].remAmt);\r\n                        amountSupplied[recipient][j].remAmt = 0;\r\n                }\r\n                else {\r\n                        amountSupplied[recipient][j].remAmt =(amountSupplied[recipient][j].remAmt).sub(amount);\r\n                        amount = 0;\r\n                }\r\n            }\r\n        }\r\n     }\r\n\r\n    //Funtion determines whether requested withdrawl amount is available in the pool or not.\r\n    //If yes then fulfills withdraw request \r\n    //and if no then put the request into the withdraw queue.\r\n    function checkWithdraw(uint256 amount,uint256 burnAmt,uint _index) internal{\r\n        uint256 poolBalance;\r\n        poolBalance = getBalances(_index);\r\n        rpToken.burn(msg.sender, burnAmt);\r\n        if(amount <= poolBalance) {\r\n            uint decimal;\r\n            decimal=tokens[_index].decimals();\r\n            uint temp = amount.mul(fees).div(DENOMINATOR);\r\n            selfBalance=selfBalance.sub((amount.sub(temp)).mul(10**18).div(10**decimal));\r\n            updateLockedRPT(msg.sender,burnAmt);\r\n            tokens[_index].safeTransfer(msg.sender, amount.sub(temp));\r\n            emit userRecieved(msg.sender, amount.sub(temp),_index);\r\n            storedFees[_index] =storedFees[_index].add(temp);    \r\n        }\r\n         else {\r\n             require(withdrawRecipients.length<maxWithdrawRequests || isInQ[msg.sender],\"requests limit Exceeded\");\r\n            _takeBackQ(amount,burnAmt,_index);\r\n            emit userAddedToQ(msg.sender, amount,_index);\r\n        }\r\n    }\r\n\r\n\r\n\r\n    // this will add unfulfilled withdraw requests to the withdrawl queue\r\n    function _takeBackQ(uint256 amount,uint256 _burnAmount,uint256 _index) internal {\r\n        amountWithdraw[msg.sender][_index] =amountWithdraw[msg.sender][_index].add( amount);\r\n        amountBurnt[msg.sender][_index]=amountBurnt[msg.sender][_index].add(_burnAmount);\r\n        uint currentPoolAmount=getBalances(_index);\r\n        uint withdrawAmount=amount.sub(currentPoolAmount);\r\n        reserveAmount[_index] = reserveAmount[_index].add(currentPoolAmount);\r\n        totalWithdraw[_index]=totalWithdraw[_index].add(withdrawAmount);\r\n        uint total;\r\n        uint decimal;\r\n        for(uint i=0;i<N_COINS;i++){\r\n            decimal=tokens[i].decimals();\r\n            total = total.add(totalWithdraw[i].mul(10**18).div(10**decimal));\r\n        }\r\n        require(total<=YieldPoolBalance,\"Not enough balance\");\r\n        if(!isInQ[msg.sender]) {\r\n            isInQ[msg.sender] = true;\r\n            withdrawRecipients.push(msg.sender);\r\n            \r\n        }\r\n\r\n    }\r\n\r\n\r\n    //this function is called when Royale Govenance withdrawl from yield generation pool.It add all the withdrawl amount in the reserve amount.\r\n    //All the users who requested for the withdrawl are added to the reserveRecipients.\r\n    function updateWithdrawQueue() internal{\r\n        for(uint8 i=0;i<N_COINS;i++){\r\n            reserveAmount[i]=reserveAmount[i].add(totalWithdraw[i]);\r\n            totalWithdraw[i]=0;\r\n        }\r\n        for(uint i=0; i<withdrawRecipients.length; i++) {\r\n            reserveRecipients[withdrawRecipients[i]]=true;\r\n            isInQ[withdrawRecipients[i]]=false;\r\n        }\r\n        uint count=withdrawRecipients.length;\r\n        for(uint i=0;i<count;i++){\r\n            withdrawRecipients.pop();\r\n        }\r\n    }\r\n\r\n    // this will withdraw Liquidity from yield genaration pool using yield Strategy\r\n    function _withdraw(uint256[N_COINS] memory amounts , uint[N_COINS] memory max_burn) internal {\r\n        strategy.withdraw(amounts,max_burn);\r\n        uint decimal;\r\n        for(uint8 i=0;i<N_COINS;i++){\r\n            decimal=tokens[i].decimals();\r\n            YieldPoolBalance =YieldPoolBalance.sub(amounts[i].mul(10**18).div(10**decimal));\r\n        }\r\n    }\r\n\r\n    //This function calculate RPT to be mint or burn\r\n    //amount parameter is amount of token\r\n    //_index can be 0/1/2 \r\n    //0-DAI\r\n    //1-USDC\r\n    //2-USDT\r\n    function calcRptAmount(uint256 amount,uint _index) public view returns(uint256) {\r\n        uint256 total = calculateTotalToken(true);\r\n        uint256 decimal = 0;\r\n        decimal=tokens[_index].decimals();\r\n        amount=amount.mul(1e18).div(10**decimal);\r\n        if(total==0){\r\n            return amount;\r\n        }\r\n        else{\r\n          return (amount.mul(rpToken.totalSupply()).div(total)); \r\n        }\r\n    }\r\n\r\n\r\n\r\n    //function to check available amount to withdraw for user\r\n    function availableLiquidity(address addr, uint coin,bool _time) public view returns(uint256 token,uint256 RPT) {\r\n        uint256 amount=0;\r\n        for(uint8 j=0; j<amountSupplied[addr].length; j++) {\r\n                if( (!_time || (now - amountSupplied[addr][j].time)  > lock_period)&&amountSupplied[addr][j].remAmt >0)   {\r\n                        amount =amount.add(amountSupplied[addr][j].remAmt);\r\n                }\r\n        }\r\n        for(uint8 i=0;i<N_COINS;i++){\r\n            amount =amount.sub(amountBurnt[addr][i]);\r\n        }\r\n        uint256 total=calculateTotalToken(true);\r\n        uint256 decimal;\r\n        decimal=tokens[coin].decimals();\r\n        return ((amount.mul(total).mul(10**decimal).div(rpToken.totalSupply())).div(10**18),amount);\r\n    }\r\n    \r\n\r\n    //calculated available total tokens in the pool by substracting withdrawal, reserve amount.\r\n    //In case supply is true , it adds total loan given.\r\n    function calculateTotalToken(bool _supply)public view returns(uint256){\r\n        uint256 decimal;\r\n        uint withdrawTotal;\r\n        uint reserveTotal;\r\n        uint storedFeesTotal;\r\n        for(uint8 i=0; i<N_COINS; i++) {\r\n            decimal = tokens[i].decimals();\r\n            withdrawTotal=withdrawTotal.add(totalWithdraw[i].mul(1e18).div(10**decimal));\r\n            reserveTotal=reserveTotal.add(reserveAmount[i].mul(1e18).div(10**decimal));\r\n            storedFeesTotal=storedFeesTotal.add(storedFees[i].mul(1e18).div(10**decimal));\r\n        } \r\n        if(_supply){\r\n            return selfBalance.sub(withdrawTotal).sub(reserveTotal).sub(storedFeesTotal).add(loanGiven);\r\n        }\r\n        else{\r\n            return selfBalance.sub(withdrawTotal).sub(reserveTotal).sub(storedFeesTotal);\r\n        }\r\n        \r\n    }\r\n    \r\n    /* USER FUNCTIONS (exposed to frontend) */\r\n   \r\n    //For depositing liquidity to the pool.\r\n    //_index will be 0/1/2     0-DAI , 1-USDC , 2-USDT\r\n    function supply(uint256 amount,uint256 _index) external nonReentrant  validAmount(amount){\r\n        uint decimal;\r\n        uint256 mintAmount=calcRptAmount(amount,_index);\r\n        amountSupplied[msg.sender].push(depositDetails(_index,amount,now,mintAmount));\r\n        decimal=tokens[_index].decimals();\r\n        selfBalance=selfBalance.add(amount.mul(10**18).div(10**decimal));\r\n        tokens[_index].safeTransferFrom(msg.sender, address(this), amount);\r\n        rpToken.mint(msg.sender, mintAmount);\r\n        emit userSupplied(msg.sender, amount,_index);\r\n    }\r\n\r\n    \r\n    //for withdrawing the liquidity\r\n    //First Parameter is amount of RPT\r\n    //Second is which token to be withdrawal with this RPT.\r\n    function requestWithdrawWithRPT(uint256 amount,uint256 _index) external nonReentrant validAmount(amount){\r\n        require(!reserveRecipients[msg.sender],\"Claim first\");\r\n        require(rpToken.balanceOf(msg.sender) >= amount, \"low RPT\");\r\n        (,uint availableRPT)=availableLiquidity(msg.sender,_index,true );\r\n        require(availableRPT>=amount,\"NA\");\r\n        uint256 total = calculateTotalToken(true);\r\n        uint256 tokenAmount;\r\n        tokenAmount=amount.mul(total).div(rpToken.totalSupply());\r\n        require(tokenAmount <= calculateTotalToken(false),\"Not Enough Pool balance\");\r\n        uint decimal;\r\n        decimal=tokens[_index].decimals();\r\n        checkWithdraw(tokenAmount.mul(10**decimal).div(10**18),amount,_index);  \r\n    }\r\n    \r\n    //For claiming withdrawal after user added to the reserve recipient.\r\n    function claimTokens() external  nonReentrant{\r\n        require(reserveRecipients[msg.sender] , \"request withdraw first\");\r\n        uint totalBurnt;\r\n        uint decimal;\r\n        for(uint8 i=0; i<N_COINS; i++) {\r\n            if(amountWithdraw[msg.sender][i] > 0) {\r\n                decimal=tokens[i].decimals();\r\n                uint temp = (amountWithdraw[msg.sender][i].mul(fees)).div(DENOMINATOR);\r\n                reserveAmount[i] =reserveAmount[i].sub(amountWithdraw[msg.sender][i]);\r\n                selfBalance = selfBalance.sub((amountWithdraw[msg.sender][i].sub(temp)).mul(1e18).div(10**decimal));\r\n                totalBurnt =totalBurnt.add(amountBurnt[msg.sender][i]);\r\n                tokens[i].safeTransfer(msg.sender, amountWithdraw[msg.sender][i].sub(temp));\r\n                emit userRecieved(msg.sender,amountWithdraw[msg.sender][i].sub(temp),i);\r\n                amountWithdraw[msg.sender][i] = 0;\r\n                amountBurnt[msg.sender][i]=0;\r\n                storedFees[i] =storedFees[i].add(temp);\r\n               \r\n            }\r\n        }\r\n        updateLockedRPT(msg.sender,totalBurnt);\r\n        reserveRecipients[msg.sender] = false;\r\n    }\r\n\r\n    // this function deposits without minting RPT.\r\n    //Used to deposit Yield\r\n    function depositYield(uint256 amount,uint _index) external{\r\n        uint decimal;\r\n        decimal=tokens[_index].decimals();\r\n        selfBalance=selfBalance.add(amount.mul(1e18).div(10**decimal));\r\n        liquidityProvidersAPY=liquidityProvidersAPY.add(amount.mul(1e18).div(10**decimal));\r\n        tokens[_index].safeTransferFrom(msg.sender,address(this),amount);\r\n        emit yieldAdded(amount,_index);\r\n    }\r\n\r\n\r\n    /* CORE FUNCTIONS (called by owner only) */\r\n\r\n    //Transfer token z`1   o rStrategy by maintaining pool ratio.\r\n    function deposit() onlyWallet() external  {\r\n        uint256[N_COINS] memory amounts;\r\n        uint256 totalAmount;\r\n        uint256 decimal;\r\n        totalAmount=calculateTotalToken(false);\r\n        uint balanceAmount=totalAmount.mul(poolPart).div(N_COINS).div(DENOMINATOR);\r\n        uint tokenBalance;\r\n        for(uint8 i=0;i<N_COINS;i++){\r\n            decimal=tokens[i].decimals();\r\n            amounts[i]=getBalances(i);\r\n            tokenBalance=balanceAmount.mul(10**decimal).div(10**18);\r\n            if(amounts[i]>tokenBalance) {\r\n                amounts[i]=amounts[i].sub(tokenBalance);\r\n                tokens[i].safeTransfer(address(strategy),amounts[i]);\r\n            }\r\n            else{\r\n                amounts[i]=0;\r\n            }\r\n        }\r\n        if(checkValidArray(amounts)){\r\n            _deposit(amounts);\r\n        }\r\n    }\r\n    \r\n\r\n    //Withdraw from Yield genaration pool.\r\n    function withdraw(uint[N_COINS] memory max_burn) onlyWallet() external  {\r\n        require(checkValidArray(totalWithdraw), \"queue empty\");\r\n        _withdraw(totalWithdraw,max_burn);\r\n        updateWithdrawQueue();\r\n    }\r\n\r\n   //Withdraw total liquidity from yield generation pool\r\n    function withdrawAll() external onlyWallet() {\r\n        uint[N_COINS] memory amounts;\r\n        amounts=strategy.withdrawAll();\r\n        uint decimal;\r\n        selfBalance=0;\r\n        for(uint8 i=0;i<N_COINS;i++){\r\n            decimal=tokens[i].decimals();\r\n            selfBalance=selfBalance.add((tokens[i].balanceOf(address(this))).mul(1e18).div(10**decimal));\r\n        }\r\n        YieldPoolBalance=0;\r\n        updateWithdrawQueue();\r\n    }\r\n\r\n\r\n    //function for rebalancing royale pool(ratio)       \r\n    function rebalance(uint[N_COINS] memory max_burn) onlyWallet() external {\r\n        uint256 currentAmount;\r\n        uint256[N_COINS] memory amountToWithdraw;\r\n        uint256[N_COINS] memory amountToDeposit;\r\n        uint totalAmount;\r\n        uint256 decimal;\r\n        totalAmount=calculateTotalToken(false);\r\n        uint balanceAmount=totalAmount.mul(poolPart).div(N_COINS).div(DENOMINATOR);\r\n        uint tokenBalance;\r\n        for(uint8 i=0;i<N_COINS;i++) {\r\n           currentAmount=getBalances(i);\r\n           decimal=tokens[i].decimals();\r\n           tokenBalance=balanceAmount.mul(10**decimal).div(10**18);\r\n           if(tokenBalance > currentAmount) {\r\n              amountToWithdraw[i] = tokenBalance.sub(currentAmount);\r\n           }\r\n           else if(tokenBalance < currentAmount) {\r\n               amountToDeposit[i] = currentAmount.sub(tokenBalance);\r\n               tokens[i].safeTransfer(address(strategy), amountToDeposit[i]);\r\n               \r\n           }\r\n           else {\r\n               amountToWithdraw[i] = 0;\r\n               amountToDeposit[i] = 0;\r\n           }\r\n        }\r\n        if(checkValidArray(amountToDeposit)){\r\n             _deposit(amountToDeposit);\r\n             \r\n        }\r\n        if(checkValidArray(amountToWithdraw)) {\r\n            _withdraw(amountToWithdraw,max_burn);\r\n            \r\n        }\r\n\r\n    }\r\n    \r\n    //For withdrawing loan from the royale Pool\r\n    function withdrawLoan(uint[N_COINS] memory amounts,address _recipient,uint[N_COINS] memory max_burn)external onlyWallet(){\r\n        require(checkValidArray(amounts),\"amount can not zero\");\r\n        uint decimal;\r\n        uint total;\r\n        for(uint i=0;i<N_COINS;i++){\r\n           decimal=tokens[i].decimals();\r\n           total=total.add(amounts[i].mul(1e18).div(10**decimal));\r\n        }\r\n        require(loanGiven.add(total)<=(calculateTotalToken(true).mul(loanPart).div(DENOMINATOR)),\"Exceed limit\");\r\n        require(total<calculateTotalToken(false),\"Not enough balance\");\r\n        bool strategyWithdraw=false;\r\n        for(uint i=0;i<N_COINS;i++){\r\n            if(amounts[i]>getBalances(i)){\r\n                strategyWithdraw=true;\r\n                break;\r\n            }\r\n        }\r\n        if(strategyWithdraw){\r\n           _withdraw(amounts,max_burn); \r\n        }\r\n        loanGiven =loanGiven.add(total);\r\n        selfBalance=selfBalance.sub(total);\r\n        for(uint8 i=0; i<N_COINS; i++) {\r\n            if(amounts[i] > 0) {\r\n                tokens[i].safeTransfer(_recipient, amounts[i]);\r\n                emit loanTransfered(_recipient,amounts[i],i);\r\n            }\r\n        }\r\n        \r\n    }\r\n    \r\n   // For repaying the loan to the royale Pool.\r\n    function repayLoan(uint[N_COINS] memory amounts)external {\r\n        require(checkValidArray(amounts),\"amount can't be zero\");\r\n        uint decimal;\r\n        for(uint8 i=0; i<N_COINS; i++) {\r\n            if(amounts[i] > 0) {\r\n                decimal=tokens[i].decimals();\r\n                loanGiven =loanGiven.sub(amounts[i].mul(1e18).div(10**decimal));\r\n                selfBalance=selfBalance.add(amounts[i].mul(1e18).div(10**decimal));\r\n                tokens[i].safeTransferFrom(msg.sender,address(this),amounts[i]);\r\n                emit loanRepayed(amounts[i],i);\r\n            }\r\n        }\r\n    }\r\n\r\n    \r\n    function claimFees() external nonReentrant{\r\n        uint decimal;\r\n        for(uint i=0;i<N_COINS;i++){\r\n            decimal=tokens[i].decimals();\r\n            selfBalance = selfBalance.sub(storedFees[i].mul(1e18).div(10**decimal));\r\n            tokens[i].safeTransfer(wallet,storedFees[i]);\r\n            emit feesTransfered(wallet,storedFees[i],i);\r\n            storedFees[i]=0;\r\n        }\r\n    }\r\n    \r\n\r\n    //for changing pool ratio\r\n    function changePoolPart(uint128 _newPoolPart) external onlyWallet()  {\r\n        poolPart = _newPoolPart;\r\n        \r\n    }\r\n\r\n   //For changing yield Strategy\r\n    function changeStrategy(address _strategy) onlyWallet() external  {\r\n        for(uint8 i=0;i<N_COINS;i++){\r\n            require(YieldPoolBalance==0, \"Call withdrawAll function first\");\r\n        } \r\n        strategy=rStrategy(_strategy);\r\n        \r\n    }\r\n\r\n    function setLockPeriod(uint256 lockperiod) onlyWallet() external  {\r\n        lock_period = lockperiod;\r\n        \r\n    }\r\n\r\n     // for changing withdrawal fees  \r\n    function setWithdrawFees(uint128 _fees) onlyWallet() external {\r\n        fees = _fees;\r\n\r\n    }\r\n    \r\n    function changeLoanPart(uint256 _value)onlyWallet() external{\r\n        loanPart=_value;\r\n    } \r\n    \r\n    function getBalances(uint _index) public view returns(uint256) {\r\n        return (tokens[_index].balanceOf(address(this)).sub(reserveAmount[_index]).sub(storedFees[_index]));\r\n    }\r\n}",
  "sourcePath": "C:/Users/vishn/OneDrive/Desktop/codezero2pi/RoyaleMatic/royale-contracts/contracts/Pool/RoyaleLP.sol",
  "compiler": {
    "name": "solc",
    "version": "0.6.12+commit.27d51765.Emscripten.clang"
  },
  "schemaVersion": "3.3.2",
  "updatedAt": "2021-06-01T10:29:59.101Z",
  "devdoc": {
    "kind": "dev",
    "methods": {},
    "version": 1
  },
  "userdoc": {
    "kind": "user",
    "methods": {},
    "version": 1
  }
}