{
  "contractName": "RoyaleLP",
  "abi": [
    {
      "inputs": [
        {
          "internalType": "address[3]",
          "name": "_tokens",
          "type": "address[3]"
        },
        {
          "internalType": "address",
          "name": "_rpToken",
          "type": "address"
        },
        {
          "internalType": "address",
          "name": "_wallet",
          "type": "address"
        }
      ],
      "stateMutability": "nonpayable",
      "type": "constructor"
    },
    {
      "anonymous": false,
      "inputs": [
        {
          "indexed": false,
          "internalType": "address",
          "name": "user",
          "type": "address"
        },
        {
          "indexed": false,
          "internalType": "uint256",
          "name": "amount",
          "type": "uint256"
        },
        {
          "indexed": false,
          "internalType": "uint256",
          "name": "index",
          "type": "uint256"
        }
      ],
      "name": "feesTransfered",
      "type": "event"
    },
    {
      "anonymous": false,
      "inputs": [
        {
          "indexed": false,
          "internalType": "uint256",
          "name": "amount",
          "type": "uint256"
        },
        {
          "indexed": false,
          "internalType": "uint256",
          "name": "index",
          "type": "uint256"
        }
      ],
      "name": "loanRepayed",
      "type": "event"
    },
    {
      "anonymous": false,
      "inputs": [
        {
          "indexed": false,
          "internalType": "address",
          "name": "recipient",
          "type": "address"
        },
        {
          "indexed": false,
          "internalType": "uint256",
          "name": "amount",
          "type": "uint256"
        },
        {
          "indexed": false,
          "internalType": "uint256",
          "name": "index",
          "type": "uint256"
        }
      ],
      "name": "loanTransfered",
      "type": "event"
    },
    {
      "anonymous": false,
      "inputs": [
        {
          "indexed": false,
          "internalType": "address",
          "name": "user",
          "type": "address"
        },
        {
          "indexed": false,
          "internalType": "uint256",
          "name": "amount",
          "type": "uint256"
        },
        {
          "indexed": false,
          "internalType": "uint256",
          "name": "index",
          "type": "uint256"
        }
      ],
      "name": "userAddedToQ",
      "type": "event"
    },
    {
      "anonymous": false,
      "inputs": [
        {
          "indexed": false,
          "internalType": "address",
          "name": "user",
          "type": "address"
        },
        {
          "indexed": false,
          "internalType": "uint256",
          "name": "amount",
          "type": "uint256"
        },
        {
          "indexed": false,
          "internalType": "uint256",
          "name": "index",
          "type": "uint256"
        }
      ],
      "name": "userRecieved",
      "type": "event"
    },
    {
      "anonymous": false,
      "inputs": [
        {
          "indexed": false,
          "internalType": "address",
          "name": "user",
          "type": "address"
        },
        {
          "indexed": false,
          "internalType": "uint256",
          "name": "amount",
          "type": "uint256"
        },
        {
          "indexed": false,
          "internalType": "uint256",
          "name": "index",
          "type": "uint256"
        }
      ],
      "name": "userSupplied",
      "type": "event"
    },
    {
      "anonymous": false,
      "inputs": [
        {
          "indexed": false,
          "internalType": "address",
          "name": "oldOwner",
          "type": "address"
        },
        {
          "indexed": false,
          "internalType": "address",
          "name": "newOwner",
          "type": "address"
        }
      ],
      "name": "walletChanged",
      "type": "event"
    },
    {
      "anonymous": false,
      "inputs": [
        {
          "indexed": false,
          "internalType": "address",
          "name": "newOwner",
          "type": "address"
        }
      ],
      "name": "walletNominated",
      "type": "event"
    },
    {
      "anonymous": false,
      "inputs": [
        {
          "indexed": false,
          "internalType": "uint256",
          "name": "amount",
          "type": "uint256"
        },
        {
          "indexed": false,
          "internalType": "uint256",
          "name": "index",
          "type": "uint256"
        }
      ],
      "name": "yieldAdded",
      "type": "event"
    },
    {
      "inputs": [],
      "name": "DENOMINATOR",
      "outputs": [
        {
          "internalType": "uint256",
          "name": "",
          "type": "uint256"
        }
      ],
      "stateMutability": "view",
      "type": "function"
    },
    {
      "inputs": [],
      "name": "YieldPoolBalance",
      "outputs": [
        {
          "internalType": "uint256",
          "name": "",
          "type": "uint256"
        }
      ],
      "stateMutability": "view",
      "type": "function"
    },
    {
      "inputs": [
        {
          "internalType": "address",
          "name": "",
          "type": "address"
        },
        {
          "internalType": "uint256",
          "name": "",
          "type": "uint256"
        }
      ],
      "name": "amountBurnt",
      "outputs": [
        {
          "internalType": "uint256",
          "name": "",
          "type": "uint256"
        }
      ],
      "stateMutability": "view",
      "type": "function"
    },
    {
      "inputs": [
        {
          "internalType": "address",
          "name": "",
          "type": "address"
        },
        {
          "internalType": "uint256",
          "name": "",
          "type": "uint256"
        }
      ],
      "name": "amountSupplied",
      "outputs": [
        {
          "internalType": "uint256",
          "name": "index",
          "type": "uint256"
        },
        {
          "internalType": "uint256",
          "name": "amount",
          "type": "uint256"
        },
        {
          "internalType": "uint256",
          "name": "time",
          "type": "uint256"
        },
        {
          "internalType": "uint256",
          "name": "remAmt",
          "type": "uint256"
        }
      ],
      "stateMutability": "view",
      "type": "function"
    },
    {
      "inputs": [
        {
          "internalType": "address",
          "name": "",
          "type": "address"
        },
        {
          "internalType": "uint256",
          "name": "",
          "type": "uint256"
        }
      ],
      "name": "amountWithdraw",
      "outputs": [
        {
          "internalType": "uint256",
          "name": "",
          "type": "uint256"
        }
      ],
      "stateMutability": "view",
      "type": "function"
    },
    {
      "inputs": [],
      "name": "fees",
      "outputs": [
        {
          "internalType": "uint128",
          "name": "",
          "type": "uint128"
        }
      ],
      "stateMutability": "view",
      "type": "function"
    },
    {
      "inputs": [
        {
          "internalType": "address",
          "name": "",
          "type": "address"
        }
      ],
      "name": "isInQ",
      "outputs": [
        {
          "internalType": "bool",
          "name": "",
          "type": "bool"
        }
      ],
      "stateMutability": "view",
      "type": "function"
    },
    {
      "inputs": [],
      "name": "liquidityProvidersAPY",
      "outputs": [
        {
          "internalType": "uint256",
          "name": "",
          "type": "uint256"
        }
      ],
      "stateMutability": "view",
      "type": "function"
    },
    {
      "inputs": [],
      "name": "loanGiven",
      "outputs": [
        {
          "internalType": "uint256",
          "name": "",
          "type": "uint256"
        }
      ],
      "stateMutability": "view",
      "type": "function"
    },
    {
      "inputs": [],
      "name": "loanPart",
      "outputs": [
        {
          "internalType": "uint256",
          "name": "",
          "type": "uint256"
        }
      ],
      "stateMutability": "view",
      "type": "function"
    },
    {
      "inputs": [],
      "name": "lock_period",
      "outputs": [
        {
          "internalType": "uint256",
          "name": "",
          "type": "uint256"
        }
      ],
      "stateMutability": "view",
      "type": "function"
    },
    {
      "inputs": [],
      "name": "maxWithdrawRequests",
      "outputs": [
        {
          "internalType": "uint256",
          "name": "",
          "type": "uint256"
        }
      ],
      "stateMutability": "view",
      "type": "function"
    },
    {
      "inputs": [],
      "name": "nominatedWallet",
      "outputs": [
        {
          "internalType": "address",
          "name": "",
          "type": "address"
        }
      ],
      "stateMutability": "view",
      "type": "function"
    },
    {
      "inputs": [],
      "name": "poolPart",
      "outputs": [
        {
          "internalType": "uint256",
          "name": "",
          "type": "uint256"
        }
      ],
      "stateMutability": "view",
      "type": "function"
    },
    {
      "inputs": [
        {
          "internalType": "uint256",
          "name": "",
          "type": "uint256"
        }
      ],
      "name": "reserveAmount",
      "outputs": [
        {
          "internalType": "uint256",
          "name": "",
          "type": "uint256"
        }
      ],
      "stateMutability": "view",
      "type": "function"
    },
    {
      "inputs": [
        {
          "internalType": "address",
          "name": "",
          "type": "address"
        }
      ],
      "name": "reserveRecipients",
      "outputs": [
        {
          "internalType": "bool",
          "name": "",
          "type": "bool"
        }
      ],
      "stateMutability": "view",
      "type": "function"
    },
    {
      "inputs": [],
      "name": "rpToken",
      "outputs": [
        {
          "internalType": "contract IERC20",
          "name": "",
          "type": "address"
        }
      ],
      "stateMutability": "view",
      "type": "function"
    },
    {
      "inputs": [],
      "name": "selfBalance",
      "outputs": [
        {
          "internalType": "uint256",
          "name": "",
          "type": "uint256"
        }
      ],
      "stateMutability": "view",
      "type": "function"
    },
    {
      "inputs": [],
      "name": "strategy",
      "outputs": [
        {
          "internalType": "contract rStrategy",
          "name": "",
          "type": "address"
        }
      ],
      "stateMutability": "view",
      "type": "function"
    },
    {
      "inputs": [
        {
          "internalType": "uint256",
          "name": "",
          "type": "uint256"
        }
      ],
      "name": "tokens",
      "outputs": [
        {
          "internalType": "contract IERC20",
          "name": "",
          "type": "address"
        }
      ],
      "stateMutability": "view",
      "type": "function"
    },
    {
      "inputs": [
        {
          "internalType": "uint256",
          "name": "",
          "type": "uint256"
        }
      ],
      "name": "totalWithdraw",
      "outputs": [
        {
          "internalType": "uint256",
          "name": "",
          "type": "uint256"
        }
      ],
      "stateMutability": "view",
      "type": "function"
    },
    {
      "inputs": [],
      "name": "wallet",
      "outputs": [
        {
          "internalType": "address",
          "name": "",
          "type": "address"
        }
      ],
      "stateMutability": "view",
      "type": "function"
    },
    {
      "inputs": [
        {
          "internalType": "uint256",
          "name": "",
          "type": "uint256"
        }
      ],
      "name": "withdrawRecipients",
      "outputs": [
        {
          "internalType": "address",
          "name": "",
          "type": "address"
        }
      ],
      "stateMutability": "view",
      "type": "function"
    },
    {
      "inputs": [
        {
          "internalType": "address",
          "name": "_wallet",
          "type": "address"
        }
      ],
      "name": "nominateNewOwner",
      "outputs": [],
      "stateMutability": "nonpayable",
      "type": "function"
    },
    {
      "inputs": [],
      "name": "acceptOwnership",
      "outputs": [],
      "stateMutability": "nonpayable",
      "type": "function"
    },
    {
      "inputs": [
        {
          "internalType": "uint256",
          "name": "amount",
          "type": "uint256"
        },
        {
          "internalType": "uint256",
          "name": "_index",
          "type": "uint256"
        }
      ],
      "name": "calcRptAmount",
      "outputs": [
        {
          "internalType": "uint256",
          "name": "",
          "type": "uint256"
        }
      ],
      "stateMutability": "view",
      "type": "function"
    },
    {
      "inputs": [
        {
          "internalType": "address",
          "name": "addr",
          "type": "address"
        },
        {
          "internalType": "uint256",
          "name": "coin",
          "type": "uint256"
        },
        {
          "internalType": "bool",
          "name": "_time",
          "type": "bool"
        }
      ],
      "name": "availableLiquidity",
      "outputs": [
        {
          "internalType": "uint256",
          "name": "token",
          "type": "uint256"
        },
        {
          "internalType": "uint256",
          "name": "RPT",
          "type": "uint256"
        }
      ],
      "stateMutability": "view",
      "type": "function"
    },
    {
      "inputs": [
        {
          "internalType": "bool",
          "name": "_supply",
          "type": "bool"
        }
      ],
      "name": "calculateTotalToken",
      "outputs": [
        {
          "internalType": "uint256",
          "name": "",
          "type": "uint256"
        }
      ],
      "stateMutability": "view",
      "type": "function"
    },
    {
      "inputs": [
        {
          "internalType": "uint256",
          "name": "amount",
          "type": "uint256"
        },
        {
          "internalType": "uint256",
          "name": "_index",
          "type": "uint256"
        }
      ],
      "name": "supply",
      "outputs": [],
      "stateMutability": "nonpayable",
      "type": "function"
    },
    {
      "inputs": [
        {
          "internalType": "uint256",
          "name": "amount",
          "type": "uint256"
        },
        {
          "internalType": "uint256",
          "name": "_index",
          "type": "uint256"
        }
      ],
      "name": "requestWithdrawWithRPT",
      "outputs": [],
      "stateMutability": "nonpayable",
      "type": "function"
    },
    {
      "inputs": [],
      "name": "claimTokens",
      "outputs": [],
      "stateMutability": "nonpayable",
      "type": "function"
    },
    {
      "inputs": [
        {
          "internalType": "uint256",
          "name": "amount",
          "type": "uint256"
        },
        {
          "internalType": "uint256",
          "name": "_index",
          "type": "uint256"
        }
      ],
      "name": "depositYield",
      "outputs": [],
      "stateMutability": "nonpayable",
      "type": "function"
    },
    {
      "inputs": [],
      "name": "deposit",
      "outputs": [],
      "stateMutability": "nonpayable",
      "type": "function"
    },
    {
      "inputs": [
        {
          "internalType": "uint256[3]",
          "name": "max_burn",
          "type": "uint256[3]"
        }
      ],
      "name": "withdraw",
      "outputs": [],
      "stateMutability": "nonpayable",
      "type": "function"
    },
    {
      "inputs": [],
      "name": "withdrawAll",
      "outputs": [],
      "stateMutability": "nonpayable",
      "type": "function"
    },
    {
      "inputs": [
        {
          "internalType": "uint256[3]",
          "name": "max_burn",
          "type": "uint256[3]"
        }
      ],
      "name": "rebalance",
      "outputs": [],
      "stateMutability": "nonpayable",
      "type": "function"
    },
    {
      "inputs": [
        {
          "internalType": "uint256[3]",
          "name": "amounts",
          "type": "uint256[3]"
        },
        {
          "internalType": "address",
          "name": "_recipient",
          "type": "address"
        },
        {
          "internalType": "uint256[3]",
          "name": "max_burn",
          "type": "uint256[3]"
        }
      ],
      "name": "withdrawLoan",
      "outputs": [],
      "stateMutability": "nonpayable",
      "type": "function"
    },
    {
      "inputs": [
        {
          "internalType": "uint256[3]",
          "name": "amounts",
          "type": "uint256[3]"
        }
      ],
      "name": "repayLoan",
      "outputs": [],
      "stateMutability": "nonpayable",
      "type": "function"
    },
    {
      "inputs": [
        {
          "internalType": "uint128",
          "name": "_newPoolPart",
          "type": "uint128"
        }
      ],
      "name": "changePoolPart",
      "outputs": [],
      "stateMutability": "nonpayable",
      "type": "function"
    },
    {
      "inputs": [
        {
          "internalType": "address",
          "name": "_strategy",
          "type": "address"
        }
      ],
      "name": "changeStrategy",
      "outputs": [],
      "stateMutability": "nonpayable",
      "type": "function"
    },
    {
      "inputs": [
        {
          "internalType": "uint256",
          "name": "lockperiod",
          "type": "uint256"
        }
      ],
      "name": "setLockPeriod",
      "outputs": [],
      "stateMutability": "nonpayable",
      "type": "function"
    },
    {
      "inputs": [
        {
          "internalType": "uint128",
          "name": "_fees",
          "type": "uint128"
        }
      ],
      "name": "setWithdrawFees",
      "outputs": [],
      "stateMutability": "nonpayable",
      "type": "function"
    },
    {
      "inputs": [
        {
          "internalType": "uint256",
          "name": "_value",
          "type": "uint256"
        }
      ],
      "name": "changeLoanPart",
      "outputs": [],
      "stateMutability": "nonpayable",
      "type": "function"
    },
    {
      "inputs": [
        {
          "internalType": "uint256",
          "name": "_index",
          "type": "uint256"
        }
      ],
      "name": "getBalances",
      "outputs": [
        {
          "internalType": "uint256",
          "name": "",
          "type": "uint256"
        }
      ],
      "stateMutability": "view",
      "type": "function"
    }
  ],
  "bytecode": "0x60806040526019600160006101000a8154816fffffffffffffffffffffffffffffffff02191690836fffffffffffffffffffffffffffffffff1602179055506102ee600255603c600d5560196013556107d0601c553480156200006157600080fd5b5060405162006c4338038062006c438339818101604052810190620000879190620002a6565b6001600081905550600073ffffffffffffffffffffffffffffffffffffffff168173ffffffffffffffffffffffffffffffffffffffff16141562000102576040517f08c379a0000000000000000000000000000000000000000000000000000000008152600401620000f9906200033e565b60405180910390fd5b60005b60038160ff1610156200018557838160ff16600381106200012257fe5b602002015160048260ff16600381106200013857fe5b0160006101000a81548173ffffffffffffffffffffffffffffffffffffffff021916908373ffffffffffffffffffffffffffffffffffffffff160217905550808060010191505062000105565b5081600760006101000a81548173ffffffffffffffffffffffffffffffffffffffff021916908373ffffffffffffffffffffffffffffffffffffffff16021790555080600960006101000a81548173ffffffffffffffffffffffffffffffffffffffff021916908373ffffffffffffffffffffffffffffffffffffffff16021790555050505062000410565b6000815190506200022281620003f6565b92915050565b600082601f8301126200023a57600080fd5b6003620002516200024b826200038e565b62000360565b915081838560208402820111156200026857600080fd5b60005b838110156200029c578162000281888262000211565b8452602084019350602083019250506001810190506200026b565b5050505092915050565b600080600060a08486031215620002bc57600080fd5b6000620002cc8682870162000228565b9350506060620002df8682870162000211565b9250506080620002f28682870162000211565b9150509250925092565b60006200030b601a83620003b1565b91507f57616c6c657420616464726573732063616e6e6f7420626520300000000000006000830152602082019050919050565b600060208201905081810360008301526200035981620002fc565b9050919050565b6000604051905081810181811067ffffffffffffffff821117156200038457600080fd5b8060405250919050565b600067ffffffffffffffff821115620003a657600080fd5b602082029050919050565b600082825260208201905092915050565b6000620003cf82620003d6565b9050919050565b600073ffffffffffffffffffffffffffffffffffffffff82169050919050565b6200040181620003c2565b81146200040d57600080fd5b50565b61682380620004206000396000f3fe608060405234801561001057600080fd5b50600436106102745760003560e01c8063905f692e11610151578063b1b8f1be116100c3578063daecfa6c11610087578063daecfa6c1461073c578063db28bfd014610758578063de44983914610788578063df7ce7e4146107b9578063f0dd71c7146107d7578063f83e9a201461080757610274565b8063b1b8f1be14610683578063bf4b136b1461069f578063c23177b2146106cf578063c6b93df714610702578063d0e30db01461073257610274565b8063a0df580811610115578063a0df5808146105c1578063a70200bd146105dd578063a8c4d3ae146105f9578063a8c62e7614610617578063ad6abb0c14610635578063b0bed0ba1461066557610274565b8063905f692e1461051b578063918f86741461054b57806393f9c552146105695780639af1d35a146105855780639d4649d9146105a357610274565b80635cd60cd1116101ea5780637a9024bd116101ae5780637a9024bd1461046f578063853828b61461048b578063876171dc146104955780638d330510146104c55780638e9b0326146104e15780638f917bf0146104ff57610274565b80635cd60cd1146103df5780636b9f1ef61461040f578063779972da1461042b5780637861dae01461044757806379ba50971461046557610274565b806342f1bd5d1161023c57806342f1bd5d14610309578063449deb6b1461032757806348c54b9d14610357578063490adbaf146103615780634f64b2be14610391578063521eb273146103c157610274565b80630100a56b1461027957806315816bac146102975780631627540c146102b35780631a09d8e3146102cf57806325340b8c146102eb575b600080fd5b610281610825565b60405161028e91906164d5565b60405180910390f35b6102b160048036038101906102ac919061578b565b61082b565b005b6102cd60048036038101906102c89190615569565b610a0b565b005b6102e960048036038101906102e4919061566f565b610b16565b005b6102f3610f6d565b60405161030091906164d5565b60405180910390f35b610311610f73565b60405161031e91906161a2565b60405180910390f35b610341600480360381019061033c9190615569565b610f99565b60405161034e9190616187565b60405180910390f35b61035f610fb9565b005b61037b60048036038101906103769190615739565b611733565b60405161038891906164d5565b60405180910390f35b6103ab60048036038101906103a69190615739565b611813565b6040516103b891906161a2565b60405180910390f35b6103c9611846565b6040516103d69190615f7f565b60405180910390f35b6103f960048036038101906103f49190615592565b61186c565b60405161040691906164d5565b60405180910390f35b61042960048036038101906104249190615710565b611891565b005b61044560048036038101906104409190615739565b61195d565b005b61044f6119f7565b60405161045c91906164d5565b60405180910390f35b61046d6119fd565b005b61048960048036038101906104849190615569565b611bb1565b005b610493611ce7565b005b6104af60048036038101906104aa9190615739565b612014565b6040516104bc9190615f7f565b60405180910390f35b6104df60048036038101906104da9190615739565b612050565b005b6104e96120ea565b6040516104f691906164d5565b60405180910390f35b6105196004803603810190610514919061561d565b6120f0565b005b61053560048036038101906105309190615569565b612469565b6040516105429190616187565b60405180910390f35b610553612489565b60405161056091906164d5565b60405180910390f35b610583600480360381019061057e919061578b565b61248f565b005b61058d61290f565b60405161059a91906164ba565b60405180910390f35b6105ab612931565b6040516105b891906164d5565b60405180910390f35b6105db60048036038101906105d6919061561d565b612937565b005b6105f760048036038101906105f29190615710565b612bed565b005b610601612c99565b60405161060e9190615f7f565b60405180910390f35b61061f612cbf565b60405161062c91906161bd565b60405180910390f35b61064f600480360381019061064a91906156be565b612ce5565b60405161065c91906164d5565b60405180910390f35b61066d612ee3565b60405161067a91906164d5565b60405180910390f35b61069d6004803603810190610698919061561d565b612ee9565b005b6106b960048036038101906106b4919061578b565b613050565b6040516106c691906164d5565b60405180910390f35b6106e960048036038101906106e49190615592565b613226565b6040516106f99493929190616519565b60405180910390f35b61071c60048036038101906107179190615592565b613270565b60405161072991906164d5565b60405180910390f35b61073a613295565b005b6107566004803603810190610751919061578b565b6135d1565b005b610772600480360381019061076d9190615739565b613954565b60405161077f91906164d5565b60405180910390f35b6107a2600480360381019061079d91906155ce565b61396c565b6040516107b09291906164f0565b60405180910390f35b6107c1613d63565b6040516107ce91906164d5565b60405180910390f35b6107f160048036038101906107ec9190615739565b613d69565b6040516107fe91906164d5565b60405180910390f35b61080f613d81565b60405161081c91906164d5565b60405180910390f35b601b5481565b60006004826003811061083a57fe5b0160009054906101000a900473ffffffffffffffffffffffffffffffffffffffff1673ffffffffffffffffffffffffffffffffffffffff1663313ce5676040518163ffffffff1660e01b815260040160206040518083038186803b1580156108a157600080fd5b505afa1580156108b5573d6000803e3d6000fd5b505050506040513d601f19601f820116820180604052508101906108d991906157c7565b60ff16905061092261091182600a0a610903670de0b6b3a764000087613d8790919063ffffffff16565b613df790919063ffffffff16565b600354613e4d90919063ffffffff16565b60038190555061096c61095b82600a0a61094d670de0b6b3a764000087613d8790919063ffffffff16565b613df790919063ffffffff16565b600c54613e4d90919063ffffffff16565b600c819055506109cd3330856004866003811061098557fe5b0160009054906101000a900473ffffffffffffffffffffffffffffffffffffffff1673ffffffffffffffffffffffffffffffffffffffff16613ea2909392919063ffffffff16565b7f42b1fbc126fd4214becc710b14aa423482c753e4d6af74679e470354904275da83836040516109fe9291906164f0565b60405180910390a1505050565b3373ffffffffffffffffffffffffffffffffffffffff16600960009054906101000a900473ffffffffffffffffffffffffffffffffffffffff1673ffffffffffffffffffffffffffffffffffffffff1614610a9b576040517f08c379a0000000000000000000000000000000000000000000000000000000008152600401610a92906163ba565b60405180910390fd5b80600a60006101000a81548173ffffffffffffffffffffffffffffffffffffffff021916908373ffffffffffffffffffffffffffffffffffffffff1602179055507f34e5b3a286aa0821b202b74f9fa683c8f56e1f2875caafc853d080382896917881604051610b0b9190615f7f565b60405180910390a150565b3373ffffffffffffffffffffffffffffffffffffffff16600960009054906101000a900473ffffffffffffffffffffffffffffffffffffffff1673ffffffffffffffffffffffffffffffffffffffff1614610ba6576040517f08c379a0000000000000000000000000000000000000000000000000000000008152600401610b9d906163ba565b60405180910390fd5b610baf83613f2b565b610bee576040517f08c379a0000000000000000000000000000000000000000000000000000000008152600401610be59061641a565b60405180910390fd5b60008060005b6003811015610d0f5760048160038110610c0a57fe5b0160009054906101000a900473ffffffffffffffffffffffffffffffffffffffff1673ffffffffffffffffffffffffffffffffffffffff1663313ce5676040518163ffffffff1660e01b815260040160206040518083038186803b158015610c7157600080fd5b505afa158015610c85573d6000803e3d6000fd5b505050506040513d601f19601f82011682018060405250810190610ca991906157c7565b60ff169250610d00610cf184600a0a610ce3670de0b6b3a76400008a8660038110610cd057fe5b6020020151613d8790919063ffffffff16565b613df790919063ffffffff16565b83613e4d90919063ffffffff16565b91508080600101915050610bf4565b50610d42612710610d34601c54610d266001612ce5565b613d8790919063ffffffff16565b613df790919063ffffffff16565b610d5782601b54613e4d90919063ffffffff16565b1115610d98576040517f08c379a0000000000000000000000000000000000000000000000000000000008152600401610d8f9061637a565b60405180910390fd5b610da26000612ce5565b8110610de3576040517f08c379a0000000000000000000000000000000000000000000000000000000008152600401610dda906162da565b60405180910390fd5b6000805b6003811015610e2657610df981611733565b878260038110610e0557fe5b60200201511115610e195760019150610e26565b8080600101915050610de7565b508015610e3857610e378685613f7d565b5b610e4d82601b54613e4d90919063ffffffff16565b601b81905550610e688260035461414490919063ffffffff16565b60038190555060005b60038160ff161015610f64576000878260ff1660038110610e8e57fe5b60200201511115610f5757610f0886888360ff1660038110610eac57fe5b602002015160048460ff1660038110610ec157fe5b0160009054906101000a900473ffffffffffffffffffffffffffffffffffffffff1673ffffffffffffffffffffffffffffffffffffffff166141949092919063ffffffff16565b7f4a593671bb3dc998e5b52a29c9d1a32c44a34048e4a5c44b2f584bc5eb24e70686888360ff1660038110610f3957fe5b602002015183604051610f4e9392919061610c565b60405180910390a15b8080600101915050610e71565b50505050505050565b600b5481565b600760009054906101000a900473ffffffffffffffffffffffffffffffffffffffff1681565b601a6020528060005260406000206000915054906101000a900460ff1681565b60026000541415610fff576040517f08c379a0000000000000000000000000000000000000000000000000000000008152600401610ff69061647a565b60405180910390fd5b6002600081905550601a60003373ffffffffffffffffffffffffffffffffffffffff1673ffffffffffffffffffffffffffffffffffffffff16815260200190815260200160002060009054906101000a900460ff16611093576040517f08c379a000000000000000000000000000000000000000000000000000000000815260040161108a906161fa565b60405180910390fd5b60008060005b60038160ff1610156116c4576000600f60003373ffffffffffffffffffffffffffffffffffffffff1673ffffffffffffffffffffffffffffffffffffffff1681526020019081526020016000208260ff16600381106110f457fe5b015411156116b75760048160ff166003811061110c57fe5b0160009054906101000a900473ffffffffffffffffffffffffffffffffffffffff1673ffffffffffffffffffffffffffffffffffffffff1663313ce5676040518163ffffffff1660e01b815260040160206040518083038186803b15801561117357600080fd5b505afa158015611187573d6000803e3d6000fd5b505050506040513d601f19601f820116820180604052508101906111ab91906157c7565b60ff1691506000611257612710611249600160009054906101000a90046fffffffffffffffffffffffffffffffff166fffffffffffffffffffffffffffffffff16600f60003373ffffffffffffffffffffffffffffffffffffffff1673ffffffffffffffffffffffffffffffffffffffff1681526020019081526020016000208660ff166003811061123957fe5b0154613d8790919063ffffffff16565b613df790919063ffffffff16565b90506112cb600f60003373ffffffffffffffffffffffffffffffffffffffff1673ffffffffffffffffffffffffffffffffffffffff1681526020019081526020016000208360ff16600381106112a957fe5b015460178460ff16600381106112bb57fe5b015461414490919063ffffffff16565b60178360ff16600381106112db57fe5b018190555061137261136184600a0a611353670de0b6b3a7640000600f60003373ffffffffffffffffffffffffffffffffffffffff1673ffffffffffffffffffffffffffffffffffffffff1681526020019081526020016000208760ff166003811061134357fe5b0154613d8790919063ffffffff16565b613df790919063ffffffff16565b60035461414490919063ffffffff16565b6003819055506113d9601060003373ffffffffffffffffffffffffffffffffffffffff1673ffffffffffffffffffffffffffffffffffffffff1681526020019081526020016000208360ff16600381106113c857fe5b015485613e4d90919063ffffffff16565b93506114973361144083600f60003373ffffffffffffffffffffffffffffffffffffffff1673ffffffffffffffffffffffffffffffffffffffff1681526020019081526020016000208660ff166003811061143057fe5b015461414490919063ffffffff16565b60048560ff166003811061145057fe5b0160009054906101000a900473ffffffffffffffffffffffffffffffffffffffff1673ffffffffffffffffffffffffffffffffffffffff166141949092919063ffffffff16565b7f05e94af811ccb220574ce9f299ec388068c5f6cafb7666364479fbb7e30571c63361151a83600f60003373ffffffffffffffffffffffffffffffffffffffff1673ffffffffffffffffffffffffffffffffffffffff1681526020019081526020016000208660ff166003811061150a57fe5b015461414490919063ffffffff16565b8460405161152a93929190616015565b60405180910390a16000600f60003373ffffffffffffffffffffffffffffffffffffffff1673ffffffffffffffffffffffffffffffffffffffff1681526020019081526020016000208360ff166003811061158157fe5b01819055506000601060003373ffffffffffffffffffffffffffffffffffffffff1673ffffffffffffffffffffffffffffffffffffffff1681526020019081526020016000208360ff16600381106115d557fe5b0181905550611658600960009054906101000a900473ffffffffffffffffffffffffffffffffffffffff168260048560ff166003811061161157fe5b0160009054906101000a900473ffffffffffffffffffffffffffffffffffffffff1673ffffffffffffffffffffffffffffffffffffffff166141949092919063ffffffff16565b7f7f059ecf8b751d26e68e209ab822cd621da40012e546aa1916a8b1e5511dbe4a600960009054906101000a900473ffffffffffffffffffffffffffffffffffffffff1682846040516116ad9392919061610c565b60405180910390a1505b8080600101915050611099565b506116cf338361421a565b6000601a60003373ffffffffffffffffffffffffffffffffffffffff1673ffffffffffffffffffffffffffffffffffffffff16815260200190815260200160002060006101000a81548160ff02191690831515021790555050506001600081905550565b600061180c6017836003811061174557fe5b01546004846003811061175457fe5b0160009054906101000a900473ffffffffffffffffffffffffffffffffffffffff1673ffffffffffffffffffffffffffffffffffffffff166370a08231306040518263ffffffff1660e01b81526004016117ae9190615f7f565b60206040518083038186803b1580156117c657600080fd5b505afa1580156117da573d6000803e3d6000fd5b505050506040513d601f19601f820116820180604052508101906117fe9190615762565b61414490919063ffffffff16565b9050919050565b6004816003811061182057fe5b016000915054906101000a900473ffffffffffffffffffffffffffffffffffffffff1681565b600960009054906101000a900473ffffffffffffffffffffffffffffffffffffffff1681565b600f602052816000526040600020816003811061188557fe5b01600091509150505481565b3373ffffffffffffffffffffffffffffffffffffffff16600960009054906101000a900473ffffffffffffffffffffffffffffffffffffffff1673ffffffffffffffffffffffffffffffffffffffff1614611921576040517f08c379a0000000000000000000000000000000000000000000000000000000008152600401611918906163ba565b60405180910390fd5b80600160006101000a8154816fffffffffffffffffffffffffffffffff02191690836fffffffffffffffffffffffffffffffff16021790555050565b3373ffffffffffffffffffffffffffffffffffffffff16600960009054906101000a900473ffffffffffffffffffffffffffffffffffffffff1673ffffffffffffffffffffffffffffffffffffffff16146119ed576040517f08c379a00000000000000000000000000000000000000000000000000000000081526004016119e4906163ba565b60405180910390fd5b80600d8190555050565b601c5481565b600a60009054906101000a900473ffffffffffffffffffffffffffffffffffffffff1673ffffffffffffffffffffffffffffffffffffffff163373ffffffffffffffffffffffffffffffffffffffff1614611a8d576040517f08c379a0000000000000000000000000000000000000000000000000000000008152600401611a849061623a565b60405180910390fd5b7f6058119c217577f8ad236dec0d66116c29ed9d1f362482f49becdbffe3ae0df1600960009054906101000a900473ffffffffffffffffffffffffffffffffffffffff16600a60009054906101000a900473ffffffffffffffffffffffffffffffffffffffff16604051611b0292919061604c565b60405180910390a1600a60009054906101000a900473ffffffffffffffffffffffffffffffffffffffff16600960006101000a81548173ffffffffffffffffffffffffffffffffffffffff021916908373ffffffffffffffffffffffffffffffffffffffff1602179055506000600a60006101000a81548173ffffffffffffffffffffffffffffffffffffffff021916908373ffffffffffffffffffffffffffffffffffffffff160217905550565b3373ffffffffffffffffffffffffffffffffffffffff16600960009054906101000a900473ffffffffffffffffffffffffffffffffffffffff1673ffffffffffffffffffffffffffffffffffffffff1614611c41576040517f08c379a0000000000000000000000000000000000000000000000000000000008152600401611c38906163ba565b60405180910390fd5b60005b60038160ff161015611ca2576000600b5414611c95576040517f08c379a0000000000000000000000000000000000000000000000000000000008152600401611c8c9061635a565b60405180910390fd5b8080600101915050611c44565b5080600860006101000a81548173ffffffffffffffffffffffffffffffffffffffff021916908373ffffffffffffffffffffffffffffffffffffffff16021790555050565b3373ffffffffffffffffffffffffffffffffffffffff16600960009054906101000a900473ffffffffffffffffffffffffffffffffffffffff1673ffffffffffffffffffffffffffffffffffffffff1614611d77576040517f08c379a0000000000000000000000000000000000000000000000000000000008152600401611d6e906163ba565b60405180910390fd5b611d7f6153cc565b600860009054906101000a900473ffffffffffffffffffffffffffffffffffffffff1673ffffffffffffffffffffffffffffffffffffffff1663853828b66040518163ffffffff1660e01b8152600401606060405180830381600087803b158015611de957600080fd5b505af1158015611dfd573d6000803e3d6000fd5b505050506040513d601f19601f82011682018060405250810190611e219190615646565b905060008060038190555060005b60038160ff161015611fff5760048160ff1660038110611e4b57fe5b0160009054906101000a900473ffffffffffffffffffffffffffffffffffffffff1673ffffffffffffffffffffffffffffffffffffffff1663313ce5676040518163ffffffff1660e01b815260040160206040518083038186803b158015611eb257600080fd5b505afa158015611ec6573d6000803e3d6000fd5b505050506040513d601f19601f82011682018060405250810190611eea91906157c7565b60ff169150611fec611fdb83600a0a611fcd670de0b6b3a764000060048660ff1660038110611f1557fe5b0160009054906101000a900473ffffffffffffffffffffffffffffffffffffffff1673ffffffffffffffffffffffffffffffffffffffff166370a08231306040518263ffffffff1660e01b8152600401611f6f9190615f7f565b60206040518083038186803b158015611f8757600080fd5b505afa158015611f9b573d6000803e3d6000fd5b505050506040513d601f19601f82011682018060405250810190611fbf9190615762565b613d8790919063ffffffff16565b613df790919063ffffffff16565b600354613e4d90919063ffffffff16565b6003819055508080600101915050611e2f565b506000600b81905550612010614509565b5050565b6012818154811061202157fe5b906000526020600020016000915054906101000a900473ffffffffffffffffffffffffffffffffffffffff1681565b3373ffffffffffffffffffffffffffffffffffffffff16600960009054906101000a900473ffffffffffffffffffffffffffffffffffffffff1673ffffffffffffffffffffffffffffffffffffffff16146120e0576040517f08c379a00000000000000000000000000000000000000000000000000000000081526004016120d7906163ba565b60405180910390fd5b80601c8190555050565b60025481565b3373ffffffffffffffffffffffffffffffffffffffff16600960009054906101000a900473ffffffffffffffffffffffffffffffffffffffff1673ffffffffffffffffffffffffffffffffffffffff1614612180576040517f08c379a0000000000000000000000000000000000000000000000000000000008152600401612177906163ba565b60405180910390fd5b600061218a6153cc565b6121926153cc565b60008061219f6000612ce5565b915060006121df6127106121d16121c26003600254613df790919063ffffffff16565b86613d8790919063ffffffff16565b613df790919063ffffffff16565b9050600080600090505b60038160ff16101561242d576122018160ff16611733565b975060048160ff166003811061221357fe5b0160009054906101000a900473ffffffffffffffffffffffffffffffffffffffff1673ffffffffffffffffffffffffffffffffffffffff1663313ce5676040518163ffffffff1660e01b815260040160206040518083038186803b15801561227a57600080fd5b505afa15801561228e573d6000803e3d6000fd5b505050506040513d601f19601f820116820180604052508101906122b291906157c7565b60ff1693506122e7670de0b6b3a76400006122d986600a0a86613d8790919063ffffffff16565b613df790919063ffffffff16565b91508782111561232157612304888361414490919063ffffffff16565b878260ff166003811061231357fe5b602002018181525050612420565b878210156123ea5761233c828961414490919063ffffffff16565b868260ff166003811061234b57fe5b6020020181815250506123e5600860009054906101000a900473ffffffffffffffffffffffffffffffffffffffff16878360ff166003811061238957fe5b602002015160048460ff166003811061239e57fe5b0160009054906101000a900473ffffffffffffffffffffffffffffffffffffffff1673ffffffffffffffffffffffffffffffffffffffff166141949092919063ffffffff16565b61241f565b6000878260ff16600381106123fb57fe5b6020020181815250506000868260ff166003811061241557fe5b6020020181815250505b5b80806001019150506121e9565b5061243785613f2b565b156124465761244585614729565b5b61244f86613f2b565b1561245f5761245e8689613f7d565b5b5050505050505050565b60116020528060005260406000206000915054906101000a900460ff1681565b61271081565b600260005414156124d5576040517f08c379a00000000000000000000000000000000000000000000000000000000081526004016124cc9061647a565b60405180910390fd5b60026000819055508160008111612521576040517f08c379a0000000000000000000000000000000000000000000000000000000008152600401612518906162fa565b60405180910390fd5b601a60003373ffffffffffffffffffffffffffffffffffffffff1673ffffffffffffffffffffffffffffffffffffffff16815260200190815260200160002060009054906101000a900460ff16156125ae576040517f08c379a00000000000000000000000000000000000000000000000000000000081526004016125a59061649a565b60405180910390fd5b82600760009054906101000a900473ffffffffffffffffffffffffffffffffffffffff1673ffffffffffffffffffffffffffffffffffffffff166370a08231336040518263ffffffff1660e01b815260040161260a9190615f9a565b60206040518083038186803b15801561262257600080fd5b505afa158015612636573d6000803e3d6000fd5b505050506040513d601f19601f8201168201806040525081019061265a9190615762565b101561269b576040517f08c379a0000000000000000000000000000000000000000000000000000000008152600401612692906163da565b60405180910390fd5b60006126a93384600161396c565b915050838110156126ef576040517f08c379a00000000000000000000000000000000000000000000000000000000081526004016126e6906163ba565b60405180910390fd5b60006126fb6001612ce5565b905060006127c3600760009054906101000a900473ffffffffffffffffffffffffffffffffffffffff1673ffffffffffffffffffffffffffffffffffffffff166318160ddd6040518163ffffffff1660e01b815260040160206040518083038186803b15801561276a57600080fd5b505afa15801561277e573d6000803e3d6000fd5b505050506040513d601f19601f820116820180604052508101906127a29190615762565b6127b58489613d8790919063ffffffff16565b613df790919063ffffffff16565b90506127cf6000612ce5565b811115612811576040517f08c379a00000000000000000000000000000000000000000000000000000000081526004016128089061643a565b60405180910390fd5b60006004866003811061282057fe5b0160009054906101000a900473ffffffffffffffffffffffffffffffffffffffff1673ffffffffffffffffffffffffffffffffffffffff1663313ce5676040518163ffffffff1660e01b815260040160206040518083038186803b15801561288757600080fd5b505afa15801561289b573d6000803e3d6000fd5b505050506040513d601f19601f820116820180604052508101906128bf91906157c7565b60ff1690506128fe6128f7670de0b6b3a76400006128e984600a0a86613d8790919063ffffffff16565b613df790919063ffffffff16565b88886148ed565b505050505060016000819055505050565b600160009054906101000a90046fffffffffffffffffffffffffffffffff1681565b60135481565b61294081613f2b565b61297f576040517f08c379a00000000000000000000000000000000000000000000000000000000081526004016129769061621a565b60405180910390fd5b600080600090505b60038160ff161015612be8576000838260ff16600381106129a457fe5b60200201511115612bdb5760048160ff16600381106129bf57fe5b0160009054906101000a900473ffffffffffffffffffffffffffffffffffffffff1673ffffffffffffffffffffffffffffffffffffffff1663313ce5676040518163ffffffff1660e01b815260040160206040518083038186803b158015612a2657600080fd5b505afa158015612a3a573d6000803e3d6000fd5b505050506040513d601f19601f82011682018060405250810190612a5e91906157c7565b60ff169150612aba612aa983600a0a612a9b670de0b6b3a7640000878660ff1660038110612a8857fe5b6020020151613d8790919063ffffffff16565b613df790919063ffffffff16565b601b5461414490919063ffffffff16565b601b81905550612b17612b0683600a0a612af8670de0b6b3a7640000878660ff1660038110612ae557fe5b6020020151613d8790919063ffffffff16565b613df790919063ffffffff16565b600354613e4d90919063ffffffff16565b600381905550612b8e3330858460ff1660038110612b3157fe5b602002015160048560ff1660038110612b4657fe5b0160009054906101000a900473ffffffffffffffffffffffffffffffffffffffff1673ffffffffffffffffffffffffffffffffffffffff16613ea2909392919063ffffffff16565b7ff75674d390f3697fe5cbf47578c7636e7543d80209c291b25dfcac61617b7992838260ff1660038110612bbe57fe5b602002015182604051612bd292919061655e565b60405180910390a15b8080600101915050612987565b505050565b3373ffffffffffffffffffffffffffffffffffffffff16600960009054906101000a900473ffffffffffffffffffffffffffffffffffffffff1673ffffffffffffffffffffffffffffffffffffffff1614612c7d576040517f08c379a0000000000000000000000000000000000000000000000000000000008152600401612c74906163ba565b60405180910390fd5b806fffffffffffffffffffffffffffffffff1660028190555050565b600a60009054906101000a900473ffffffffffffffffffffffffffffffffffffffff1681565b600860009054906101000a900473ffffffffffffffffffffffffffffffffffffffff1681565b60008060008060005b60038160ff161015612e655760048160ff1660038110612d0a57fe5b0160009054906101000a900473ffffffffffffffffffffffffffffffffffffffff1673ffffffffffffffffffffffffffffffffffffffff1663313ce5676040518163ffffffff1660e01b815260040160206040518083038186803b158015612d7157600080fd5b505afa158015612d85573d6000803e3d6000fd5b505050506040513d601f19601f82011682018060405250810190612da991906157c7565b60ff169350612e01612df285600a0a612de4670de0b6b3a764000060148660ff1660038110612dd457fe5b0154613d8790919063ffffffff16565b613df790919063ffffffff16565b84613e4d90919063ffffffff16565b9250612e56612e4785600a0a612e39670de0b6b3a764000060178660ff1660038110612e2957fe5b0154613d8790919063ffffffff16565b613df790919063ffffffff16565b83613e4d90919063ffffffff16565b91508080600101915050612cee565b508415612eb157612ea7601b54612e9983612e8b8660035461414490919063ffffffff16565b61414490919063ffffffff16565b613e4d90919063ffffffff16565b9350505050612ede565b612ed881612eca8460035461414490919063ffffffff16565b61414490919063ffffffff16565b93505050505b919050565b60035481565b3373ffffffffffffffffffffffffffffffffffffffff16600960009054906101000a900473ffffffffffffffffffffffffffffffffffffffff1673ffffffffffffffffffffffffffffffffffffffff1614612f79576040517f08c379a0000000000000000000000000000000000000000000000000000000008152600401612f70906163ba565b60405180910390fd5b612fbf6014600380602002604051908101604052809291908260038015612fb5576020028201915b815481526020019060010190808311612fa1575b5050505050613f2b565b612ffe576040517f08c379a0000000000000000000000000000000000000000000000000000000008152600401612ff59061631a565b60405180910390fd5b613045601460038060200260405190810160405280929190826003801561303a576020028201915b815481526020019060010190808311613026575b505050505082613f7d565b61304d614509565b50565b60008061305d6001612ce5565b905060006004846003811061306e57fe5b0160009054906101000a900473ffffffffffffffffffffffffffffffffffffffff1673ffffffffffffffffffffffffffffffffffffffff1663313ce5676040518163ffffffff1660e01b815260040160206040518083038186803b1580156130d557600080fd5b505afa1580156130e9573d6000803e3d6000fd5b505050506040513d601f19601f8201168201806040525081019061310d91906157c7565b60ff16905061314281600a0a613134670de0b6b3a764000088613d8790919063ffffffff16565b613df790919063ffffffff16565b94506000821415613157578492505050613220565b61321b8261320d600760009054906101000a900473ffffffffffffffffffffffffffffffffffffffff1673ffffffffffffffffffffffffffffffffffffffff166318160ddd6040518163ffffffff1660e01b815260040160206040518083038186803b1580156131c657600080fd5b505afa1580156131da573d6000803e3d6000fd5b505050506040513d601f19601f820116820180604052508101906131fe9190615762565b88613d8790919063ffffffff16565b613df790919063ffffffff16565b925050505b92915050565b600e602052816000526040600020818154811061323f57fe5b9060005260206000209060040201600091509150508060000154908060010154908060020154908060030154905084565b6010602052816000526040600020816003811061328957fe5b01600091509150505481565b3373ffffffffffffffffffffffffffffffffffffffff16600960009054906101000a900473ffffffffffffffffffffffffffffffffffffffff1673ffffffffffffffffffffffffffffffffffffffff1614613325576040517f08c379a000000000000000000000000000000000000000000000000000000000815260040161331c906163ba565b60405180910390fd5b61332d6153cc565b60008061333a6000612ce5565b9150600061337a61271061336c61335d6003600254613df790919063ffffffff16565b86613d8790919063ffffffff16565b613df790919063ffffffff16565b9050600080600090505b60038160ff1610156135b15760048160ff16600381106133a057fe5b0160009054906101000a900473ffffffffffffffffffffffffffffffffffffffff1673ffffffffffffffffffffffffffffffffffffffff1663313ce5676040518163ffffffff1660e01b815260040160206040518083038186803b15801561340757600080fd5b505afa15801561341b573d6000803e3d6000fd5b505050506040513d601f19601f8201168201806040525081019061343f91906157c7565b60ff1693506134508160ff16611733565b868260ff166003811061345f57fe5b602002018181525050613498670de0b6b3a764000061348a86600a0a86613d8790919063ffffffff16565b613df790919063ffffffff16565b915081868260ff16600381106134aa57fe5b60200201511115613589576134db82878360ff16600381106134c857fe5b602002015161414490919063ffffffff16565b868260ff16600381106134ea57fe5b602002018181525050613584600860009054906101000a900473ffffffffffffffffffffffffffffffffffffffff16878360ff166003811061352857fe5b602002015160048460ff166003811061353d57fe5b0160009054906101000a900473ffffffffffffffffffffffffffffffffffffffff1673ffffffffffffffffffffffffffffffffffffffff166141949092919063ffffffff16565b6135a4565b6000868260ff166003811061359a57fe5b6020020181815250505b8080600101915050613384565b506135bb85613f2b565b156135ca576135c985614729565b5b5050505050565b60026000541415613617576040517f08c379a000000000000000000000000000000000000000000000000000000000815260040161360e9061647a565b60405180910390fd5b60026000819055508160008111613663576040517f08c379a000000000000000000000000000000000000000000000000000000000815260040161365a906162fa565b60405180910390fd5b6000806136708585613050565b9050600e60003373ffffffffffffffffffffffffffffffffffffffff1673ffffffffffffffffffffffffffffffffffffffff16815260200190815260200160002060405180608001604052808681526020018781526020014281526020018381525090806001815401808255809150506001900390600052602060002090600402016000909190919091506000820151816000015560208201518160010155604082015181600201556060820151816003015550506004846003811061373257fe5b0160009054906101000a900473ffffffffffffffffffffffffffffffffffffffff1673ffffffffffffffffffffffffffffffffffffffff1663313ce5676040518163ffffffff1660e01b815260040160206040518083038186803b15801561379957600080fd5b505afa1580156137ad573d6000803e3d6000fd5b505050506040513d601f19601f820116820180604052508101906137d191906157c7565b60ff16915061381a61380983600a0a6137fb670de0b6b3a764000089613d8790919063ffffffff16565b613df790919063ffffffff16565b600354613e4d90919063ffffffff16565b60038190555061387b3330876004886003811061383357fe5b0160009054906101000a900473ffffffffffffffffffffffffffffffffffffffff1673ffffffffffffffffffffffffffffffffffffffff16613ea2909392919063ffffffff16565b600760009054906101000a900473ffffffffffffffffffffffffffffffffffffffff1673ffffffffffffffffffffffffffffffffffffffff166340c10f1933836040518363ffffffff1660e01b81526004016138d8929190615fb5565b600060405180830381600087803b1580156138f257600080fd5b505af1158015613906573d6000803e3d6000fd5b505050507f6a318e08f56ca4947ef3e059b135e10469334e86784af20b1d4c8d93f84ab43633868660405161393d93929190615fde565b60405180910390a150505060016000819055505050565b6014816003811061396157fe5b016000915090505481565b6000806000805b600e60008873ffffffffffffffffffffffffffffffffffffffff1673ffffffffffffffffffffffffffffffffffffffff168152602001908152602001600020805490508160ff161015613b1e57841580613a2e5750600d54600e60008973ffffffffffffffffffffffffffffffffffffffff1673ffffffffffffffffffffffffffffffffffffffff1681526020019081526020016000208260ff1681548110613a1857fe5b9060005260206000209060040201600201544203115b8015613a9857506000600e60008973ffffffffffffffffffffffffffffffffffffffff1673ffffffffffffffffffffffffffffffffffffffff1681526020019081526020016000208260ff1681548110613a8457fe5b906000526020600020906004020160030154115b15613b1157613b0e600e60008973ffffffffffffffffffffffffffffffffffffffff1673ffffffffffffffffffffffffffffffffffffffff1681526020019081526020016000208260ff1681548110613aed57fe5b90600052602060002090600402016003015483613e4d90919063ffffffff16565b91505b8080600101915050613973565b5060005b60038160ff161015613b9e57613b8f601060008973ffffffffffffffffffffffffffffffffffffffff1673ffffffffffffffffffffffffffffffffffffffff1681526020019081526020016000208260ff1660038110613b7e57fe5b01548361414490919063ffffffff16565b91508080600101915050613b22565b506000613bab6001612ce5565b9050600060048760038110613bbc57fe5b0160009054906101000a900473ffffffffffffffffffffffffffffffffffffffff1673ffffffffffffffffffffffffffffffffffffffff1663313ce5676040518163ffffffff1660e01b815260040160206040518083038186803b158015613c2357600080fd5b505afa158015613c37573d6000803e3d6000fd5b505050506040513d601f19601f82011682018060405250810190613c5b91906157c7565b60ff169050613d53670de0b6b3a7640000613d45600760009054906101000a900473ffffffffffffffffffffffffffffffffffffffff1673ffffffffffffffffffffffffffffffffffffffff166318160ddd6040518163ffffffff1660e01b815260040160206040518083038186803b158015613cd757600080fd5b505afa158015613ceb573d6000803e3d6000fd5b505050506040513d601f19601f82011682018060405250810190613d0f9190615762565b613d3785600a0a613d29888a613d8790919063ffffffff16565b613d8790919063ffffffff16565b613df790919063ffffffff16565b613df790919063ffffffff16565b8394509450505050935093915050565b600c5481565b60178160038110613d7657fe5b016000915090505481565b600d5481565b600080831415613d9a5760009050613df1565b6000828402905082848281613dab57fe5b0414613dec576040517f08c379a0000000000000000000000000000000000000000000000000000000008152600401613de39061639a565b60405180910390fd5b809150505b92915050565b6000808211613e3b576040517f08c379a0000000000000000000000000000000000000000000000000000000008152600401613e32906162ba565b60405180910390fd5b818381613e4457fe5b04905092915050565b600080828401905083811015613e98576040517f08c379a0000000000000000000000000000000000000000000000000000000008152600401613e8f9061625a565b60405180910390fd5b8091505092915050565b613f25846323b872dd60e01b858585604051602401613ec393929190616075565b604051602081830303815290604052907bffffffffffffffffffffffffffffffffffffffffffffffffffffffff19166020820180517bffffffffffffffffffffffffffffffffffffffffffffffffffffffff8381831617835250505050614d73565b50505050565b600080600090505b60038160ff161015613f72576000838260ff1660038110613f5057fe5b60200201511115613f65576001915050613f78565b8080600101915050613f33565b50600090505b919050565b600860009054906101000a900473ffffffffffffffffffffffffffffffffffffffff1673ffffffffffffffffffffffffffffffffffffffff1663e68403e883836040518363ffffffff1660e01b8152600401613fda92919061615e565b600060405180830381600087803b158015613ff457600080fd5b505af1158015614008573d6000803e3d6000fd5b50505050600080600090505b60038160ff16101561413e5760048160ff166003811061403057fe5b0160009054906101000a900473ffffffffffffffffffffffffffffffffffffffff1673ffffffffffffffffffffffffffffffffffffffff1663313ce5676040518163ffffffff1660e01b815260040160206040518083038186803b15801561409757600080fd5b505afa1580156140ab573d6000803e3d6000fd5b505050506040513d601f19601f820116820180604052508101906140cf91906157c7565b60ff16915061412b61411a83600a0a61410c670de0b6b3a7640000888660ff16600381106140f957fe5b6020020151613d8790919063ffffffff16565b613df790919063ffffffff16565b600b5461414490919063ffffffff16565b600b819055508080600101915050614014565b50505050565b600082821115614189576040517f08c379a00000000000000000000000000000000000000000000000000000000081526004016141809061627a565b60405180910390fd5b818303905092915050565b6142158363a9059cbb60e01b84846040516024016141b39291906160ac565b604051602081830303815290604052907bffffffffffffffffffffffffffffffffffffffffffffffffffffffff19166020820180517bffffffffffffffffffffffffffffffffffffffffffffffffffffffff8381831617835250505050614d73565b505050565b60005b600e60008473ffffffffffffffffffffffffffffffffffffffff1673ffffffffffffffffffffffffffffffffffffffff168152602001908152602001600020805490508160ff161015614504576000600e60008573ffffffffffffffffffffffffffffffffffffffff1673ffffffffffffffffffffffffffffffffffffffff1681526020019081526020016000208260ff16815481106142b957fe5b9060005260206000209060040201600301541180156142d85750600082115b156144f757600e60008473ffffffffffffffffffffffffffffffffffffffff1673ffffffffffffffffffffffffffffffffffffffff1681526020019081526020016000208160ff168154811061432a57fe5b906000526020600020906004020160030154821061441e576143b3600e60008573ffffffffffffffffffffffffffffffffffffffff1673ffffffffffffffffffffffffffffffffffffffff1681526020019081526020016000208260ff168154811061439257fe5b9060005260206000209060040201600301548361414490919063ffffffff16565b91506000600e60008573ffffffffffffffffffffffffffffffffffffffff1673ffffffffffffffffffffffffffffffffffffffff1681526020019081526020016000208260ff168154811061440457fe5b9060005260206000209060040201600301819055506144f6565b61448f82600e60008673ffffffffffffffffffffffffffffffffffffffff1673ffffffffffffffffffffffffffffffffffffffff1681526020019081526020016000208360ff168154811061446f57fe5b90600052602060002090600402016003015461414490919063ffffffff16565b600e60008573ffffffffffffffffffffffffffffffffffffffff1673ffffffffffffffffffffffffffffffffffffffff1681526020019081526020016000208260ff16815481106144dc57fe5b906000526020600020906004020160030181905550600091505b5b808060010191505061421d565b505050565b60005b60038160ff1610156145865761454d60148260ff166003811061452b57fe5b015460178360ff166003811061453d57fe5b0154613e4d90919063ffffffff16565b60178260ff166003811061455d57fe5b0181905550600060148260ff166003811061457457fe5b0181905550808060010191505061450c565b5060005b6012805490508110156146c2576001601a6000601284815481106145aa57fe5b9060005260206000200160009054906101000a900473ffffffffffffffffffffffffffffffffffffffff1673ffffffffffffffffffffffffffffffffffffffff1673ffffffffffffffffffffffffffffffffffffffff16815260200190815260200160002060006101000a81548160ff0219169083151502179055506000601160006012848154811061463957fe5b9060005260206000200160009054906101000a900473ffffffffffffffffffffffffffffffffffffffff1673ffffffffffffffffffffffffffffffffffffffff1673ffffffffffffffffffffffffffffffffffffffff16815260200190815260200160002060006101000a81548160ff021916908315150217905550808060010191505061458a565b506000601280549050905060005b818110156147255760128054806146e357fe5b6001900381819060005260206000200160006101000a81549073ffffffffffffffffffffffffffffffffffffffff0219169055905580806001019150506146d0565b5050565b600860009054906101000a900473ffffffffffffffffffffffffffffffffffffffff1673ffffffffffffffffffffffffffffffffffffffff1663d4e20b01826040518263ffffffff1660e01b81526004016147849190616143565b600060405180830381600087803b15801561479e57600080fd5b505af11580156147b2573d6000803e3d6000fd5b50505050600080600090505b60038160ff1610156148e85760048160ff16600381106147da57fe5b0160009054906101000a900473ffffffffffffffffffffffffffffffffffffffff1673ffffffffffffffffffffffffffffffffffffffff1663313ce5676040518163ffffffff1660e01b815260040160206040518083038186803b15801561484157600080fd5b505afa158015614855573d6000803e3d6000fd5b505050506040513d601f19601f8201168201806040525081019061487991906157c7565b60ff1691506148d56148c483600a0a6148b6670de0b6b3a7640000878660ff16600381106148a357fe5b6020020151613d8790919063ffffffff16565b613df790919063ffffffff16565b600b54613e4d90919063ffffffff16565b600b8190555080806001019150506147be565b505050565b60006148f882611733565b9050600760009054906101000a900473ffffffffffffffffffffffffffffffffffffffff1673ffffffffffffffffffffffffffffffffffffffff16639dc29fac33856040518363ffffffff1660e01b8152600401614957929190615fb5565b600060405180830381600087803b15801561497157600080fd5b505af1158015614985573d6000803e3d6000fd5b50505050808411614c895760006004836003811061499f57fe5b0160009054906101000a900473ffffffffffffffffffffffffffffffffffffffff1673ffffffffffffffffffffffffffffffffffffffff1663313ce5676040518163ffffffff1660e01b815260040160206040518083038186803b158015614a0657600080fd5b505afa158015614a1a573d6000803e3d6000fd5b505050506040513d601f19601f82011682018060405250810190614a3e91906157c7565b60ff1690506000614a9c612710614a8e600160009054906101000a90046fffffffffffffffffffffffffffffffff166fffffffffffffffffffffffffffffffff1689613d8790919063ffffffff16565b613df790919063ffffffff16565b9050614ae2614ad183600a0a614ac3670de0b6b3a76400008a613d8790919063ffffffff16565b613df790919063ffffffff16565b60035461414490919063ffffffff16565b600381905550614af2338661421a565b614b5d33614b09838961414490919063ffffffff16565b60048760038110614b1657fe5b0160009054906101000a900473ffffffffffffffffffffffffffffffffffffffff1673ffffffffffffffffffffffffffffffffffffffff166141949092919063ffffffff16565b7f05e94af811ccb220574ce9f299ec388068c5f6cafb7666364479fbb7e30571c633614b92838961414490919063ffffffff16565b86604051614ba293929190615fde565b60405180910390a1614c25600960009054906101000a900473ffffffffffffffffffffffffffffffffffffffff168260048760038110614bde57fe5b0160009054906101000a900473ffffffffffffffffffffffffffffffffffffffff1673ffffffffffffffffffffffffffffffffffffffff166141949092919063ffffffff16565b7f7f059ecf8b751d26e68e209ab822cd621da40012e546aa1916a8b1e5511dbe4a600960009054906101000a900473ffffffffffffffffffffffffffffffffffffffff168286604051614c7a939291906160d5565b60405180910390a15050614d6d565b6013546012805490501080614ce75750601160003373ffffffffffffffffffffffffffffffffffffffff1673ffffffffffffffffffffffffffffffffffffffff16815260200190815260200160002060009054906101000a900460ff165b614d26576040517f08c379a0000000000000000000000000000000000000000000000000000000008152600401614d1d9061633a565b60405180910390fd5b614d31848484614e3a565b7f8a2144818f0af982468c746133b0dc23424c3b48c50e5cdbb88fdf294d03188e338584604051614d6493929190615fde565b60405180910390a15b50505050565b6060614dd5826040518060400160405280602081526020017f5361666545524332303a206c6f772d6c6576656c2063616c6c206661696c65648152508573ffffffffffffffffffffffffffffffffffffffff166151ed9092919063ffffffff16565b9050600081511115614e355780806020019051810190614df591906156e7565b614e34576040517f08c379a0000000000000000000000000000000000000000000000000000000008152600401614e2b9061645a565b60405180910390fd5b5b505050565b614e9883600f60003373ffffffffffffffffffffffffffffffffffffffff1673ffffffffffffffffffffffffffffffffffffffff1681526020019081526020016000208360038110614e8857fe5b0154613e4d90919063ffffffff16565b600f60003373ffffffffffffffffffffffffffffffffffffffff1673ffffffffffffffffffffffffffffffffffffffff1681526020019081526020016000208260038110614ee257fe5b0181905550614f4582601060003373ffffffffffffffffffffffffffffffffffffffff1673ffffffffffffffffffffffffffffffffffffffff1681526020019081526020016000208360038110614f3557fe5b0154613e4d90919063ffffffff16565b601060003373ffffffffffffffffffffffffffffffffffffffff1673ffffffffffffffffffffffffffffffffffffffff1681526020019081526020016000208260038110614f8f57fe5b01819055506000614f9f82611733565b90506000614fb6828661414490919063ffffffff16565b9050614fd98260178560038110614fc957fe5b0154613e4d90919063ffffffff16565b60178460038110614fe657fe5b018190555061500c8160148560038110614ffc57fe5b0154613e4d90919063ffffffff16565b6014846003811061501957fe5b01819055506000615080620f4240615072670de0b6b3a7640000615064601460026003811061504457fe5b0154601460016003811061505457fe5b0154613e4d90919063ffffffff16565b613d8790919063ffffffff16565b613df790919063ffffffff16565b9050600b5481601460006003811061509457fe5b01540111156150d8576040517f08c379a00000000000000000000000000000000000000000000000000000000081526004016150cf906162da565b60405180910390fd5b601160003373ffffffffffffffffffffffffffffffffffffffff1673ffffffffffffffffffffffffffffffffffffffff16815260200190815260200160002060009054906101000a900460ff166151e5576001601160003373ffffffffffffffffffffffffffffffffffffffff1673ffffffffffffffffffffffffffffffffffffffff16815260200190815260200160002060006101000a81548160ff0219169083151502179055506012339080600181540180825580915050600190039060005260206000200160009091909190916101000a81548173ffffffffffffffffffffffffffffffffffffffff021916908373ffffffffffffffffffffffffffffffffffffffff1602179055505b505050505050565b60606151fc8484600085615205565b90509392505050565b60608247101561524a576040517f08c379a00000000000000000000000000000000000000000000000000000000081526004016152419061629a565b60405180910390fd5b6152538561531a565b615292576040517f08c379a0000000000000000000000000000000000000000000000000000000008152600401615289906163fa565b60405180910390fd5b600060608673ffffffffffffffffffffffffffffffffffffffff1685876040516152bc9190615f68565b60006040518083038185875af1925050503d80600081146152f9576040519150601f19603f3d011682016040523d82523d6000602084013e6152fe565b606091505b509150915061530e828286615365565b92505050949350505050565b60008060007fc5d2460186f7233c927e7db2dcc703c0e500b653ca82273b7bfad8045d85a47060001b9050833f915080821415801561535c57506000801b8214155b92505050919050565b60608315615375578290506153c5565b6000835111156153885782518084602001fd5b816040517f08c379a00000000000000000000000000000000000000000000000000000000081526004016153bc91906161d8565b60405180910390fd5b9392505050565b6040518060600160405280600390602082028036833780820191505090505090565b6000813590506153fd8161677a565b92915050565b600082601f83011261541457600080fd5b6003615427615422826165b4565b616587565b9150818385602084028201111561543d57600080fd5b60005b8381101561546d5781615453888261552a565b845260208401935060208301925050600181019050615440565b5050505092915050565b600082601f83011261548857600080fd5b600361549b615496826165b4565b616587565b915081838560208402820111156154b157600080fd5b60005b838110156154e157816154c7888261553f565b8452602084019350602083019250506001810190506154b4565b5050505092915050565b6000813590506154fa81616791565b92915050565b60008151905061550f81616791565b92915050565b600081359050615524816167a8565b92915050565b600081359050615539816167bf565b92915050565b60008151905061554e816167bf565b92915050565b600081519050615563816167d6565b92915050565b60006020828403121561557b57600080fd5b6000615589848285016153ee565b91505092915050565b600080604083850312156155a557600080fd5b60006155b3858286016153ee565b92505060206155c48582860161552a565b9150509250929050565b6000806000606084860312156155e357600080fd5b60006155f1868287016153ee565b93505060206156028682870161552a565b9250506040615613868287016154eb565b9150509250925092565b60006060828403121561562f57600080fd5b600061563d84828501615403565b91505092915050565b60006060828403121561565857600080fd5b600061566684828501615477565b91505092915050565b600080600060e0848603121561568457600080fd5b600061569286828701615403565b93505060606156a3868287016153ee565b92505060806156b486828701615403565b9150509250925092565b6000602082840312156156d057600080fd5b60006156de848285016154eb565b91505092915050565b6000602082840312156156f957600080fd5b600061570784828501615500565b91505092915050565b60006020828403121561572257600080fd5b600061573084828501615515565b91505092915050565b60006020828403121561574b57600080fd5b60006157598482850161552a565b91505092915050565b60006020828403121561577457600080fd5b60006157828482850161553f565b91505092915050565b6000806040838503121561579e57600080fd5b60006157ac8582860161552a565b92505060206157bd8582860161552a565b9150509250929050565b6000602082840312156157d957600080fd5b60006157e784828501615554565b91505092915050565b60006157fc8383615f3b565b60208301905092915050565b615811816166a6565b82525050565b61582081616635565b82525050565b61582f816165e0565b615839818461660e565b9250615844826165d6565b8060005b8381101561587557815161585c87826157f0565b965061586783616601565b925050600181019050615848565b505050505050565b61588681616647565b82525050565b6000615897826165eb565b6158a18185616619565b93506158b1818560208601616736565b80840191505092915050565b6158c6816166b8565b82525050565b6158d5816166dc565b82525050565b60006158e6826165f6565b6158f08185616624565b9350615900818560208601616736565b61590981616769565b840191505092915050565b6000615921601683616624565b91507f72657175657374207769746864726177206669727374000000000000000000006000830152602082019050919050565b6000615961601483616624565b91507f616d6f756e742063616e2774206265207a65726f0000000000000000000000006000830152602082019050919050565b60006159a1603583616624565b91507f596f75206d757374206265206e6f6d696e61746564206265666f726520796f7560008301527f2063616e20616363657074206f776e65727368697000000000000000000000006020830152604082019050919050565b6000615a07601b83616624565b91507f536166654d6174683a206164646974696f6e206f766572666c6f7700000000006000830152602082019050919050565b6000615a47601e83616624565b91507f536166654d6174683a207375627472616374696f6e206f766572666c6f7700006000830152602082019050919050565b6000615a87602683616624565b91507f416464726573733a20696e73756666696369656e742062616c616e636520666f60008301527f722063616c6c00000000000000000000000000000000000000000000000000006020830152604082019050919050565b6000615aed601a83616624565b91507f536166654d6174683a206469766973696f6e206279207a65726f0000000000006000830152602082019050919050565b6000615b2d601283616624565b91507f4e6f7420656e6f7567682062616c616e636500000000000000000000000000006000830152602082019050919050565b6000615b6d600283616624565b91507f4e560000000000000000000000000000000000000000000000000000000000006000830152602082019050919050565b6000615bad600b83616624565b91507f717565756520656d7074790000000000000000000000000000000000000000006000830152602082019050919050565b6000615bed601783616624565b91507f7265717565737473206c696d69742045786365656465640000000000000000006000830152602082019050919050565b6000615c2d601f83616624565b91507f43616c6c207769746864726177416c6c2066756e6374696f6e206669727374006000830152602082019050919050565b6000615c6d600c83616624565b91507f457863656564206c696d697400000000000000000000000000000000000000006000830152602082019050919050565b6000615cad602183616624565b91507f536166654d6174683a206d756c7469706c69636174696f6e206f766572666c6f60008301527f77000000000000000000000000000000000000000000000000000000000000006020830152604082019050919050565b6000615d13600283616624565b91507f4e410000000000000000000000000000000000000000000000000000000000006000830152602082019050919050565b6000615d53600783616624565b91507f6c6f7720525054000000000000000000000000000000000000000000000000006000830152602082019050919050565b6000615d93601d83616624565b91507f416464726573733a2063616c6c20746f206e6f6e2d636f6e74726163740000006000830152602082019050919050565b6000615dd3601383616624565b91507f616d6f756e742063616e206e6f74207a65726f000000000000000000000000006000830152602082019050919050565b6000615e13601783616624565b91507f4e6f7420456e6f75676820506f6f6c2062616c616e63650000000000000000006000830152602082019050919050565b6000615e53602a83616624565b91507f5361666545524332303a204552433230206f7065726174696f6e20646964206e60008301527f6f742073756363656564000000000000000000000000000000000000000000006020830152604082019050919050565b6000615eb9601f83616624565b91507f5265656e7472616e637947756172643a207265656e7472616e742063616c6c006000830152602082019050919050565b6000615ef9600b83616624565b91507f436c61696d2066697273740000000000000000000000000000000000000000006000830152602082019050919050565b615f3581616653565b82525050565b615f448161668f565b82525050565b615f538161668f565b82525050565b615f6281616724565b82525050565b6000615f74828461588c565b915081905092915050565b6000602082019050615f946000830184615817565b92915050565b6000602082019050615faf6000830184615808565b92915050565b6000604082019050615fca6000830185615808565b615fd76020830184615f4a565b9392505050565b6000606082019050615ff36000830186615808565b6160006020830185615f4a565b61600d6040830184615f4a565b949350505050565b600060608201905061602a6000830186615808565b6160376020830185615f4a565b6160446040830184615f59565b949350505050565b60006040820190506160616000830185615817565b61606e6020830184615817565b9392505050565b600060608201905061608a6000830186615817565b6160976020830185615817565b6160a46040830184615f4a565b949350505050565b60006040820190506160c16000830185615817565b6160ce6020830184615f4a565b9392505050565b60006060820190506160ea6000830186615817565b6160f76020830185615f4a565b6161046040830184615f4a565b949350505050565b60006060820190506161216000830186615817565b61612e6020830185615f4a565b61613b6040830184615f59565b949350505050565b60006060820190506161586000830184615826565b92915050565b600060c0820190506161736000830185615826565b6161806060830184615826565b9392505050565b600060208201905061619c600083018461587d565b92915050565b60006020820190506161b760008301846158bd565b92915050565b60006020820190506161d260008301846158cc565b92915050565b600060208201905081810360008301526161f281846158db565b905092915050565b6000602082019050818103600083015261621381615914565b9050919050565b6000602082019050818103600083015261623381615954565b9050919050565b6000602082019050818103600083015261625381615994565b9050919050565b60006020820190508181036000830152616273816159fa565b9050919050565b6000602082019050818103600083015261629381615a3a565b9050919050565b600060208201905081810360008301526162b381615a7a565b9050919050565b600060208201905081810360008301526162d381615ae0565b9050919050565b600060208201905081810360008301526162f381615b20565b9050919050565b6000602082019050818103600083015261631381615b60565b9050919050565b6000602082019050818103600083015261633381615ba0565b9050919050565b6000602082019050818103600083015261635381615be0565b9050919050565b6000602082019050818103600083015261637381615c20565b9050919050565b6000602082019050818103600083015261639381615c60565b9050919050565b600060208201905081810360008301526163b381615ca0565b9050919050565b600060208201905081810360008301526163d381615d06565b9050919050565b600060208201905081810360008301526163f381615d46565b9050919050565b6000602082019050818103600083015261641381615d86565b9050919050565b6000602082019050818103600083015261643381615dc6565b9050919050565b6000602082019050818103600083015261645381615e06565b9050919050565b6000602082019050818103600083015261647381615e46565b9050919050565b6000602082019050818103600083015261649381615eac565b9050919050565b600060208201905081810360008301526164b381615eec565b9050919050565b60006020820190506164cf6000830184615f2c565b92915050565b60006020820190506164ea6000830184615f4a565b92915050565b60006040820190506165056000830185615f4a565b6165126020830184615f4a565b9392505050565b600060808201905061652e6000830187615f4a565b61653b6020830186615f4a565b6165486040830185615f4a565b6165556060830184615f4a565b95945050505050565b60006040820190506165736000830185615f4a565b6165806020830184615f59565b9392505050565b6000604051905081810181811067ffffffffffffffff821117156165aa57600080fd5b8060405250919050565b600067ffffffffffffffff8211156165cb57600080fd5b602082029050919050565b6000819050919050565b600060039050919050565b600081519050919050565b600081519050919050565b6000602082019050919050565b600081905092915050565b600081905092915050565b600082825260208201905092915050565b60006166408261666f565b9050919050565b60008115159050919050565b60006fffffffffffffffffffffffffffffffff82169050919050565b600073ffffffffffffffffffffffffffffffffffffffff82169050919050565b6000819050919050565b600060ff82169050919050565b60006166b182616700565b9050919050565b60006166c3826166ca565b9050919050565b60006166d58261666f565b9050919050565b60006166e7826166ee565b9050919050565b60006166f98261666f565b9050919050565b600061670b82616712565b9050919050565b600061671d8261666f565b9050919050565b600061672f82616699565b9050919050565b60005b83811015616754578082015181840152602081019050616739565b83811115616763576000848401525b50505050565b6000601f19601f8301169050919050565b61678381616635565b811461678e57600080fd5b50565b61679a81616647565b81146167a557600080fd5b50565b6167b181616653565b81146167bc57600080fd5b50565b6167c88161668f565b81146167d357600080fd5b50565b6167df81616699565b81146167ea57600080fd5b5056fea26469706673582212202a0b5dde2c2ada92dc36d6ba7ad434a0ca546b46bb867e1240a0588a30c1cc6764736f6c634300060c0033",
  "immutableReferences": {},
  "source": "// SPDX-License-Identifier: UNLICENSED\r\npragma solidity ^0.6.0;\r\npragma experimental ABIEncoderV2;\r\n\r\n\r\nimport '../../Interfaces/StrategyInterface.sol';\r\nimport \"@openzeppelin/contracts/utils/ReentrancyGuard.sol\";\r\nimport './SafeERC20.sol';\r\n\r\ncontract RoyaleLP is ReentrancyGuard {\r\n    using SafeERC20 for IERC20;\r\n    using SafeMath for uint256;\r\n    \r\n    uint256 public constant DENOMINATOR = 10000;\r\n\r\n    uint128 public fees = 25; // for .25% fee, for 1.75% fee => 175\r\n\r\n    uint256 public poolPart = 750 ; // 7.5% of total Liquidity will remain in the pool\r\n\r\n    uint256 public selfBalance;\r\n\r\n    IERC20[3] public tokens;\r\n\r\n    IERC20 public rpToken;\r\n\r\n    rStrategy public strategy;\r\n    \r\n    address public wallet;\r\n    \r\n    address public nominatedWallet;\r\n\r\n    uint public YieldPoolBalance;\r\n    uint public liquidityProvidersAPY;\r\n\r\n    //storage for user related to supply and withdraw\r\n    \r\n    uint256 public lock_period = 1 minutes;\r\n\r\n    struct depositDetails {\r\n        uint index;\r\n        uint amount;\r\n        uint256 time;\r\n        uint256 remAmt;\r\n    }\r\n    \r\n    mapping(address => depositDetails[]) public amountSupplied;\r\n    mapping(address => uint256[3]) public amountWithdraw;\r\n    mapping(address => uint256[3]) public amountBurnt;\r\n    \r\n    mapping(address => bool) public isInQ;\r\n    \r\n    address[] public withdrawRecipients;\r\n    \r\n    uint public maxWithdrawRequests=25;\r\n    \r\n    uint256[3] public totalWithdraw;\r\n    \r\n    uint[3] public reserveAmount;\r\n    mapping(address => bool)public reserveRecipients;\r\n    \r\n    //storage to store total loan given\r\n    uint256 public loanGiven;\r\n    \r\n    uint public loanPart=2000;\r\n    \r\n  \r\n    modifier onlyWallet(){\r\n      require(wallet ==msg.sender, \"NA\");\r\n      _;\r\n    }\r\n  \r\n     modifier validAmount(uint amount){\r\n      require(amount > 0 , \"NV\");\r\n      _;\r\n    }\r\n    \r\n    // EVENTS \r\n    event userSupplied(address user,uint amount,uint index);\r\n    event userRecieved(address user,uint amount,uint index);\r\n    event userAddedToQ(address user,uint amount,uint index);\r\n    event feesTransfered(address user,uint amount,uint index);\r\n    event loanTransfered(address recipient,uint amount,uint index);\r\n    event loanRepayed(uint amount,uint index);\r\n    event yieldAdded(uint amount,uint index);\r\n    event walletNominated(address newOwner);\r\n    event walletChanged(address oldOwner, address newOwner);\r\n   \r\n    \r\n    constructor(address[3] memory _tokens,address _rpToken,address _wallet) public {\r\n        require(_wallet != address(0), \"Wallet address cannot be 0\");\r\n        for(uint8 i=0; i<3; i++) {\r\n            tokens[i] = IERC20(_tokens[i]);\r\n        }\r\n        rpToken = IERC20(_rpToken);\r\n        wallet=_wallet;\r\n    }\r\n    \r\n    function nominateNewOwner(address _wallet) external onlyWallet {\r\n        nominatedWallet = _wallet;\r\n        emit walletNominated(_wallet);\r\n    }\r\n\r\n    function acceptOwnership() external {\r\n        require(msg.sender == nominatedWallet, \"You must be nominated before you can accept ownership\");\r\n        emit walletChanged(wallet, nominatedWallet);\r\n        wallet = nominatedWallet;\r\n        nominatedWallet = address(0);\r\n    }\r\n\r\n\r\n    /* INTERNAL FUNCTIONS */\r\n   \r\n    \r\n    //For checking whether array contains any non zero elements or not.\r\n    function checkValidArray(uint256[3] memory amounts)internal pure returns(bool){\r\n        for(uint8 i=0;i<3;i++){\r\n            if(amounts[i]>0){\r\n                return true;\r\n            }\r\n        }\r\n        return false;\r\n    }\r\n\r\n    // This function deposits the liquidity to yield generation pool using yield Strategy contract\r\n    function _deposit(uint256[3] memory amounts) internal {\r\n        strategy.deposit(amounts);\r\n        uint decimal;\r\n        for(uint8 i=0;i<3;i++){\r\n            decimal=tokens[i].decimals();\r\n            YieldPoolBalance =YieldPoolBalance.add(amounts[i].mul(10**18).div(10**decimal));\r\n        }\r\n    }\r\n   \r\n\r\n    //This function is used to updating the array of user's individual deposit , called when users withdraw/claim tokens.\r\n    function updateLockedRPT(address recipient,uint256 amount) internal{\r\n        for(uint8 j=0; j<amountSupplied[recipient].length; j++) {\r\n            if(amountSupplied[recipient][j].remAmt > 0 && amount > 0 ) {\r\n                if(amount >= amountSupplied[recipient][j].remAmt) {\r\n                        amount = amount.sub( amountSupplied[recipient][j].remAmt);\r\n                        amountSupplied[recipient][j].remAmt = 0;\r\n                }\r\n                else {\r\n                        amountSupplied[recipient][j].remAmt =(amountSupplied[recipient][j].remAmt).sub(amount);\r\n                        amount = 0;\r\n                }\r\n            }\r\n        }\r\n     }\r\n\r\n    //Funtion determines whether requested withdrawl amount is available in the pool or not.\r\n    //If yes then fulfills withdraw request \r\n    //and if no then put the request into the withdraw queue.\r\n    function checkWithdraw(uint256 amount,uint256 burnAmt,uint _index) internal{\r\n        uint256 poolBalance;\r\n        poolBalance = getBalances(_index);\r\n        rpToken.burn(msg.sender, burnAmt);\r\n        if(amount <= poolBalance) {\r\n            uint decimal;\r\n            decimal=tokens[_index].decimals();\r\n            uint temp = amount.mul(fees).div(DENOMINATOR);\r\n            selfBalance=selfBalance.sub(amount.mul(10**18).div(10**decimal));\r\n            updateLockedRPT(msg.sender,burnAmt);\r\n            tokens[_index].safeTransfer(msg.sender, amount.sub(temp));\r\n            emit userRecieved(msg.sender, amount.sub(temp),_index); \r\n            tokens[_index].safeTransfer(wallet,temp);\r\n            emit feesTransfered(wallet,temp,_index);\r\n            \r\n         }\r\n         else {\r\n             require(withdrawRecipients.length<maxWithdrawRequests || isInQ[msg.sender],\"requests limit Exceeded\");\r\n            _takeBackQ(amount,burnAmt,_index);\r\n            emit userAddedToQ(msg.sender, amount,_index);\r\n        }\r\n    }\r\n\r\n\r\n\r\n    // this will add unfulfilled withdraw requests to the withdrawl queue\r\n    function _takeBackQ(uint256 amount,uint256 _burnAmount,uint256 _index) internal {\r\n        amountWithdraw[msg.sender][_index] =amountWithdraw[msg.sender][_index].add( amount);\r\n        amountBurnt[msg.sender][_index]=amountBurnt[msg.sender][_index].add(_burnAmount);\r\n        uint currentPoolAmount=getBalances(_index);\r\n        uint withdrawAmount=amount.sub(currentPoolAmount);\r\n        reserveAmount[_index] = reserveAmount[_index].add(currentPoolAmount);\r\n        totalWithdraw[_index]=totalWithdraw[_index].add(withdrawAmount);\r\n        uint total;\r\n        total=(totalWithdraw[1].add(totalWithdraw[2])).mul(1e18).div(10**6);\r\n        require((totalWithdraw[0]+total)<=YieldPoolBalance,\"Not enough balance\");\r\n        if(!isInQ[msg.sender]) {\r\n            isInQ[msg.sender] = true;\r\n            withdrawRecipients.push(msg.sender);\r\n            \r\n        }\r\n\r\n    }\r\n\r\n\r\n    //this function is called when Royale Govenance withdrawl from yield generation pool.It add all the withdrawl amount in the reserve amount.\r\n    //All the users who requested for the withdrawl are added to the reserveRecipients.\r\n    function updateWithdrawQueue() internal{\r\n        for(uint8 i=0;i<3;i++){\r\n            reserveAmount[i]=reserveAmount[i].add(totalWithdraw[i]);\r\n            totalWithdraw[i]=0;\r\n        }\r\n        for(uint i=0; i<withdrawRecipients.length; i++) {\r\n            reserveRecipients[withdrawRecipients[i]]=true;\r\n            isInQ[withdrawRecipients[i]]=false;\r\n        }\r\n        uint count=withdrawRecipients.length;\r\n        for(uint i=0;i<count;i++){\r\n            withdrawRecipients.pop();\r\n        }\r\n    }\r\n\r\n    // this will withdraw Liquidity from yield genaration pool using yield Strategy\r\n    function _withdraw(uint256[3] memory amounts , uint[3] memory max_burn) internal {\r\n        strategy.withdraw(amounts,max_burn);\r\n        uint decimal;\r\n        for(uint8 i=0;i<3;i++){\r\n            decimal=tokens[i].decimals();\r\n            YieldPoolBalance =YieldPoolBalance.sub(amounts[i].mul(10**18).div(10**decimal));\r\n        }\r\n    }\r\n\r\n    //This function calculate RPT to be mint or burn\r\n    //amount parameter is amount of token\r\n    //_index can be 0/1/2 \r\n    //0-DAI\r\n    //1-USDC\r\n    //2-USDT\r\n    function calcRptAmount(uint256 amount,uint _index) public view returns(uint256) {\r\n        uint256 total = calculateTotalToken(true);\r\n        uint256 decimal = 0;\r\n        decimal=tokens[_index].decimals();\r\n        amount=amount.mul(1e18).div(10**decimal);\r\n        if(total==0){\r\n            return amount;\r\n        }\r\n        else{\r\n          return (amount.mul(rpToken.totalSupply()).div(total)); \r\n        }\r\n    }\r\n\r\n\r\n\r\n    //function to check available amount to withdraw for user\r\n    function availableLiquidity(address addr, uint coin,bool _time) public view returns(uint256 token,uint256 RPT) {\r\n        uint256 amount=0;\r\n        for(uint8 j=0; j<amountSupplied[addr].length; j++) {\r\n                if( (!_time || (now - amountSupplied[addr][j].time)  > lock_period)&&amountSupplied[addr][j].remAmt >0)   {\r\n                        amount =amount.add(amountSupplied[addr][j].remAmt);\r\n                }\r\n        }\r\n        for(uint8 i=0;i<3;i++){\r\n            amount =amount.sub(amountBurnt[addr][i]);\r\n        }\r\n        uint256 total=calculateTotalToken(true);\r\n        uint256 decimal;\r\n        decimal=tokens[coin].decimals();\r\n        return ((amount.mul(total).mul(10**decimal).div(rpToken.totalSupply())).div(10**18),amount);\r\n    }\r\n    \r\n\r\n    //calculated available total tokens in the pool by substracting withdrawal, reserve amount.\r\n    //In case supply is true , it adds total loan given.\r\n    function calculateTotalToken(bool _supply)public view returns(uint256){\r\n        uint256 decimal;\r\n        uint withdrawTotal;\r\n        uint reserveTotal;\r\n        for(uint8 i=0; i<3; i++) {\r\n            decimal = tokens[i].decimals();\r\n            withdrawTotal=withdrawTotal.add(totalWithdraw[i].mul(1e18).div(10**decimal));\r\n            reserveTotal=reserveTotal.add(reserveAmount[i].mul(1e18).div(10**decimal));\r\n        } \r\n        if(_supply){\r\n            return selfBalance.sub(withdrawTotal).sub(reserveTotal).add(loanGiven);\r\n        }\r\n        else{\r\n            return selfBalance.sub(withdrawTotal).sub(reserveTotal);\r\n        }\r\n        \r\n    }\r\n    \r\n    /* USER FUNCTIONS (exposed to frontend) */\r\n   \r\n    //For depositing liquidity to the pool.\r\n    //_index will be 0/1/2     0-DAI , 1-USDC , 2-USDT\r\n    function supply(uint256 amount,uint256 _index) external nonReentrant  validAmount(amount){\r\n        uint decimal;\r\n        uint256 mintAmount=calcRptAmount(amount,_index);\r\n        amountSupplied[msg.sender].push(depositDetails(_index,amount,now,mintAmount));\r\n        decimal=tokens[_index].decimals();\r\n        selfBalance=selfBalance.add(amount.mul(10**18).div(10**decimal));\r\n        tokens[_index].safeTransferFrom(msg.sender, address(this), amount);\r\n        rpToken.mint(msg.sender, mintAmount);\r\n        emit userSupplied(msg.sender, amount,_index);\r\n    }\r\n\r\n    \r\n    //for withdrawing the liquidity\r\n    //First Parameter is amount of RPT\r\n    //Second is which token to be withdrawal with this RPT.\r\n    function requestWithdrawWithRPT(uint256 amount,uint256 _index) external nonReentrant validAmount(amount){\r\n        require(!reserveRecipients[msg.sender],\"Claim first\");\r\n        require(rpToken.balanceOf(msg.sender) >= amount, \"low RPT\");\r\n        (,uint availableRPT)=availableLiquidity(msg.sender,_index,true );\r\n        require(availableRPT>=amount,\"NA\");\r\n        uint256 total = calculateTotalToken(true);\r\n        uint256 tokenAmount;\r\n        tokenAmount=amount.mul(total).div(rpToken.totalSupply());\r\n        require(tokenAmount <= calculateTotalToken(false),\"Not Enough Pool balance\");\r\n        uint decimal;\r\n        decimal=tokens[_index].decimals();\r\n        checkWithdraw(tokenAmount.mul(10**decimal).div(10**18),amount,_index);  \r\n    }\r\n    \r\n    //For claiming withdrawal after user added to the reserve recipient.\r\n    function claimTokens() external  nonReentrant{\r\n        require(reserveRecipients[msg.sender] , \"request withdraw first\");\r\n        uint totalBurnt;\r\n        uint decimal;\r\n        for(uint8 i=0; i<3; i++) {\r\n            if(amountWithdraw[msg.sender][i] > 0) {\r\n                decimal=tokens[i].decimals();\r\n                uint temp = (amountWithdraw[msg.sender][i].mul(fees)).div(DENOMINATOR);\r\n                reserveAmount[i] =reserveAmount[i].sub(amountWithdraw[msg.sender][i]);\r\n                selfBalance = selfBalance.sub(amountWithdraw[msg.sender][i].mul(1e18).div(10**decimal));\r\n                totalBurnt =totalBurnt.add(amountBurnt[msg.sender][i]);\r\n                tokens[i].safeTransfer(msg.sender, amountWithdraw[msg.sender][i].sub(temp));\r\n                emit userRecieved(msg.sender,amountWithdraw[msg.sender][i].sub(temp),i);\r\n                amountWithdraw[msg.sender][i] = 0;\r\n                amountBurnt[msg.sender][i]=0;\r\n                tokens[i].safeTransfer(wallet,temp);\r\n                emit feesTransfered(wallet,temp,i);\r\n            }\r\n        }\r\n        updateLockedRPT(msg.sender,totalBurnt);\r\n        reserveRecipients[msg.sender] = false;\r\n    }\r\n\r\n    // this function deposits without minting RPT.\r\n    //Used to deposit Yield\r\n    function depositYield(uint256 amount,uint _index) external{\r\n        uint decimal;\r\n        decimal=tokens[_index].decimals();\r\n        selfBalance=selfBalance.add(amount.mul(1e18).div(10**decimal));\r\n        liquidityProvidersAPY=liquidityProvidersAPY.add(amount.mul(1e18).div(10**decimal));\r\n        tokens[_index].safeTransferFrom(msg.sender,address(this),amount);\r\n        emit yieldAdded(amount,_index);\r\n    }\r\n\r\n\r\n    /* CORE FUNCTIONS (called by owner only) */\r\n\r\n    //Transfer token z`1   o rStrategy by maintaining pool ratio.\r\n    function deposit() onlyWallet() external  {\r\n        uint256[3] memory amounts;\r\n        uint256 totalAmount;\r\n        uint256 decimal;\r\n        totalAmount=calculateTotalToken(false);\r\n        uint balanceAmount=totalAmount.mul(poolPart.div(3)).div(DENOMINATOR);\r\n        uint tokenBalance;\r\n        for(uint8 i=0;i<3;i++){\r\n            decimal=tokens[i].decimals();\r\n            amounts[i]=getBalances(i);\r\n            tokenBalance=balanceAmount.mul(10**decimal).div(10**18);\r\n            if(amounts[i]>tokenBalance) {\r\n                amounts[i]=amounts[i].sub(tokenBalance);\r\n                tokens[i].safeTransfer(address(strategy),amounts[i]);\r\n            }\r\n            else{\r\n                amounts[i]=0;\r\n            }\r\n        }\r\n        if(checkValidArray(amounts)){\r\n            _deposit(amounts);\r\n        }\r\n    }\r\n    \r\n\r\n    //Withdraw from Yield genaration pool.\r\n    function withdraw(uint[3] memory max_burn) onlyWallet() external  {\r\n        require(checkValidArray(totalWithdraw), \"queue empty\");\r\n        _withdraw(totalWithdraw,max_burn);\r\n        updateWithdrawQueue();\r\n    }\r\n\r\n   //Withdraw total liquidity from yield generation pool\r\n    function withdrawAll() external onlyWallet() {\r\n        uint[3] memory amounts;\r\n        amounts=strategy.withdrawAll();\r\n        uint decimal;\r\n        selfBalance=0;\r\n        for(uint8 i=0;i<3;i++){\r\n            decimal=tokens[i].decimals();\r\n            selfBalance=selfBalance.add((tokens[i].balanceOf(address(this))).mul(1e18).div(10**decimal));\r\n        }\r\n        YieldPoolBalance=0;\r\n        updateWithdrawQueue();\r\n    }\r\n\r\n\r\n    //function for rebalancing royale pool(ratio)       \r\n    function rebalance(uint[3] memory max_burn) onlyWallet() external {\r\n        uint256 currentAmount;\r\n        uint256[3] memory amountToWithdraw;\r\n        uint256[3] memory amountToDeposit;\r\n        uint totalAmount;\r\n        uint256 decimal;\r\n        totalAmount=calculateTotalToken(false);\r\n        uint balanceAmount=totalAmount.mul(poolPart.div(3)).div(DENOMINATOR);\r\n        uint tokenBalance;\r\n        for(uint8 i=0;i<3;i++) {\r\n           currentAmount=getBalances(i);\r\n           decimal=tokens[i].decimals();\r\n           tokenBalance=balanceAmount.mul(10**decimal).div(10**18);\r\n           if(tokenBalance > currentAmount) {\r\n              amountToWithdraw[i] = tokenBalance.sub(currentAmount);\r\n           }\r\n           else if(tokenBalance < currentAmount) {\r\n               amountToDeposit[i] = currentAmount.sub(tokenBalance);\r\n               tokens[i].safeTransfer(address(strategy), amountToDeposit[i]);\r\n               \r\n           }\r\n           else {\r\n               amountToWithdraw[i] = 0;\r\n               amountToDeposit[i] = 0;\r\n           }\r\n        }\r\n        if(checkValidArray(amountToDeposit)){\r\n             _deposit(amountToDeposit);\r\n             \r\n        }\r\n        if(checkValidArray(amountToWithdraw)) {\r\n            _withdraw(amountToWithdraw,max_burn);\r\n            \r\n        }\r\n\r\n    }\r\n    \r\n    //For withdrawing loan from the royale Pool\r\n    function withdrawLoan(uint[3] memory amounts,address _recipient,uint[3] memory max_burn)external onlyWallet(){\r\n        require(checkValidArray(amounts),\"amount can not zero\");\r\n        uint decimal;\r\n        uint total;\r\n        for(uint i=0;i<3;i++){\r\n           decimal=tokens[i].decimals();\r\n           total=total.add(amounts[i].mul(1e18).div(10**decimal));\r\n        }\r\n        require(loanGiven.add(total)<=(calculateTotalToken(true).mul(loanPart).div(DENOMINATOR)),\"Exceed limit\");\r\n        require(total<calculateTotalToken(false),\"Not enough balance\");\r\n        bool strategyWithdraw=false;\r\n        for(uint i=0;i<3;i++){\r\n            if(amounts[i]>getBalances(i)){\r\n                strategyWithdraw=true;\r\n                break;\r\n            }\r\n        }\r\n        if(strategyWithdraw){\r\n           _withdraw(amounts,max_burn); \r\n        }\r\n        loanGiven =loanGiven.add(total);\r\n        selfBalance=selfBalance.sub(total);\r\n        for(uint8 i=0; i<3; i++) {\r\n            if(amounts[i] > 0) {\r\n                tokens[i].safeTransfer(_recipient, amounts[i]);\r\n                emit loanTransfered(_recipient,amounts[i],i);\r\n            }\r\n        }\r\n        \r\n    }\r\n    \r\n   // For repaying the loan to the royale Pool.\r\n    function repayLoan(uint[3] memory amounts)external {\r\n        require(checkValidArray(amounts),\"amount can't be zero\");\r\n        uint decimal;\r\n        for(uint8 i=0; i<3; i++) {\r\n            if(amounts[i] > 0) {\r\n                decimal=tokens[i].decimals();\r\n                loanGiven =loanGiven.sub(amounts[i].mul(1e18).div(10**decimal));\r\n                selfBalance=selfBalance.add(amounts[i].mul(1e18).div(10**decimal));\r\n                tokens[i].safeTransferFrom(msg.sender,address(this),amounts[i]);\r\n                emit loanRepayed(amounts[i],i);\r\n            }\r\n        }\r\n    }\r\n    \r\n\r\n    //for changing pool ratio\r\n    function changePoolPart(uint128 _newPoolPart) external onlyWallet()  {\r\n        poolPart = _newPoolPart;\r\n        \r\n    }\r\n\r\n   //For changing yield Strategy\r\n    function changeStrategy(address _strategy) onlyWallet() external  {\r\n        for(uint8 i=0;i<3;i++){\r\n            require(YieldPoolBalance==0, \"Call withdrawAll function first\");\r\n        } \r\n        strategy=rStrategy(_strategy);\r\n        \r\n    }\r\n\r\n    function setLockPeriod(uint256 lockperiod) onlyWallet() external  {\r\n        lock_period = lockperiod;\r\n        \r\n    }\r\n\r\n     // for changing withdrawal fees  \r\n    function setWithdrawFees(uint128 _fees) onlyWallet() external {\r\n        fees = _fees;\r\n\r\n    }\r\n    \r\n    function changeLoanPart(uint256 _value)onlyWallet() external{\r\n        loanPart=_value;\r\n    } \r\n    \r\n    function getBalances(uint _index) public view returns(uint256) {\r\n        return (tokens[_index].balanceOf(address(this)).sub(reserveAmount[_index]));\r\n    }\r\n}",
  "sourcePath": "C:/Users/vishn/OneDrive/Desktop/codezero2pi/royaleSecondAudit/royale-contracts/contracts/Pool/RoyaleLP.sol",
  "compiler": {
    "name": "solc",
    "version": "0.6.12+commit.27d51765.Emscripten.clang"
  },
  "schemaVersion": "3.3.2",
  "updatedAt": "2021-05-04T14:20:40.137Z",
  "devdoc": {
    "kind": "dev",
    "methods": {},
    "version": 1
  },
  "userdoc": {
    "kind": "user",
    "methods": {},
    "version": 1
  }
}