{
  "contractName": "RoyaleLP",
  "abi": [
    {
      "inputs": [
        {
          "internalType": "address[4]",
          "name": "_tokens",
          "type": "address[4]"
        },
        {
          "internalType": "address",
          "name": "_rpToken",
          "type": "address"
        },
        {
          "internalType": "address",
          "name": "_wallet",
          "type": "address"
        }
      ],
      "stateMutability": "nonpayable",
      "type": "constructor"
    },
    {
      "anonymous": false,
      "inputs": [
        {
          "indexed": false,
          "internalType": "address",
          "name": "user",
          "type": "address"
        },
        {
          "indexed": false,
          "internalType": "uint256",
          "name": "amount",
          "type": "uint256"
        },
        {
          "indexed": false,
          "internalType": "uint256",
          "name": "index",
          "type": "uint256"
        }
      ],
      "name": "feesTransfered",
      "type": "event"
    },
    {
      "anonymous": false,
      "inputs": [
        {
          "indexed": false,
          "internalType": "uint256",
          "name": "amount",
          "type": "uint256"
        },
        {
          "indexed": false,
          "internalType": "uint256",
          "name": "index",
          "type": "uint256"
        }
      ],
      "name": "loanRepayed",
      "type": "event"
    },
    {
      "anonymous": false,
      "inputs": [
        {
          "indexed": false,
          "internalType": "address",
          "name": "recipient",
          "type": "address"
        },
        {
          "indexed": false,
          "internalType": "uint256",
          "name": "amount",
          "type": "uint256"
        },
        {
          "indexed": false,
          "internalType": "uint256",
          "name": "index",
          "type": "uint256"
        }
      ],
      "name": "loanTransfered",
      "type": "event"
    },
    {
      "anonymous": false,
      "inputs": [
        {
          "indexed": false,
          "internalType": "address",
          "name": "user",
          "type": "address"
        },
        {
          "indexed": false,
          "internalType": "uint256",
          "name": "amount",
          "type": "uint256"
        },
        {
          "indexed": false,
          "internalType": "uint256",
          "name": "index",
          "type": "uint256"
        }
      ],
      "name": "userAddedToQ",
      "type": "event"
    },
    {
      "anonymous": false,
      "inputs": [
        {
          "indexed": false,
          "internalType": "address",
          "name": "user",
          "type": "address"
        },
        {
          "indexed": false,
          "internalType": "uint256",
          "name": "amount",
          "type": "uint256"
        },
        {
          "indexed": false,
          "internalType": "uint256",
          "name": "index",
          "type": "uint256"
        }
      ],
      "name": "userRecieved",
      "type": "event"
    },
    {
      "anonymous": false,
      "inputs": [
        {
          "indexed": false,
          "internalType": "address",
          "name": "user",
          "type": "address"
        },
        {
          "indexed": false,
          "internalType": "uint256",
          "name": "amount",
          "type": "uint256"
        },
        {
          "indexed": false,
          "internalType": "uint256",
          "name": "index",
          "type": "uint256"
        }
      ],
      "name": "userSupplied",
      "type": "event"
    },
    {
      "anonymous": false,
      "inputs": [
        {
          "indexed": false,
          "internalType": "address",
          "name": "oldOwner",
          "type": "address"
        },
        {
          "indexed": false,
          "internalType": "address",
          "name": "newOwner",
          "type": "address"
        }
      ],
      "name": "walletChanged",
      "type": "event"
    },
    {
      "anonymous": false,
      "inputs": [
        {
          "indexed": false,
          "internalType": "address",
          "name": "newOwner",
          "type": "address"
        }
      ],
      "name": "walletNominated",
      "type": "event"
    },
    {
      "anonymous": false,
      "inputs": [
        {
          "indexed": false,
          "internalType": "uint256",
          "name": "amount",
          "type": "uint256"
        },
        {
          "indexed": false,
          "internalType": "uint256",
          "name": "index",
          "type": "uint256"
        }
      ],
      "name": "yieldAdded",
      "type": "event"
    },
    {
      "inputs": [],
      "name": "DENOMINATOR",
      "outputs": [
        {
          "internalType": "uint256",
          "name": "",
          "type": "uint256"
        }
      ],
      "stateMutability": "view",
      "type": "function"
    },
    {
      "inputs": [],
      "name": "N_COINS",
      "outputs": [
        {
          "internalType": "uint256",
          "name": "",
          "type": "uint256"
        }
      ],
      "stateMutability": "view",
      "type": "function"
    },
    {
      "inputs": [],
      "name": "YieldPoolBalance",
      "outputs": [
        {
          "internalType": "uint256",
          "name": "",
          "type": "uint256"
        }
      ],
      "stateMutability": "view",
      "type": "function"
    },
    {
      "inputs": [
        {
          "internalType": "address",
          "name": "",
          "type": "address"
        },
        {
          "internalType": "uint256",
          "name": "",
          "type": "uint256"
        }
      ],
      "name": "amountBurnt",
      "outputs": [
        {
          "internalType": "uint256",
          "name": "",
          "type": "uint256"
        }
      ],
      "stateMutability": "view",
      "type": "function"
    },
    {
      "inputs": [
        {
          "internalType": "address",
          "name": "",
          "type": "address"
        },
        {
          "internalType": "uint256",
          "name": "",
          "type": "uint256"
        }
      ],
      "name": "amountSupplied",
      "outputs": [
        {
          "internalType": "uint256",
          "name": "index",
          "type": "uint256"
        },
        {
          "internalType": "uint256",
          "name": "amount",
          "type": "uint256"
        },
        {
          "internalType": "uint256",
          "name": "time",
          "type": "uint256"
        },
        {
          "internalType": "uint256",
          "name": "remAmt",
          "type": "uint256"
        }
      ],
      "stateMutability": "view",
      "type": "function"
    },
    {
      "inputs": [
        {
          "internalType": "address",
          "name": "",
          "type": "address"
        },
        {
          "internalType": "uint256",
          "name": "",
          "type": "uint256"
        }
      ],
      "name": "amountWithdraw",
      "outputs": [
        {
          "internalType": "uint256",
          "name": "",
          "type": "uint256"
        }
      ],
      "stateMutability": "view",
      "type": "function"
    },
    {
      "inputs": [],
      "name": "fees",
      "outputs": [
        {
          "internalType": "uint128",
          "name": "",
          "type": "uint128"
        }
      ],
      "stateMutability": "view",
      "type": "function"
    },
    {
      "inputs": [
        {
          "internalType": "address",
          "name": "",
          "type": "address"
        }
      ],
      "name": "isInQ",
      "outputs": [
        {
          "internalType": "bool",
          "name": "",
          "type": "bool"
        }
      ],
      "stateMutability": "view",
      "type": "function"
    },
    {
      "inputs": [],
      "name": "liquidityProvidersAPY",
      "outputs": [
        {
          "internalType": "uint256",
          "name": "",
          "type": "uint256"
        }
      ],
      "stateMutability": "view",
      "type": "function"
    },
    {
      "inputs": [],
      "name": "loanGiven",
      "outputs": [
        {
          "internalType": "uint256",
          "name": "",
          "type": "uint256"
        }
      ],
      "stateMutability": "view",
      "type": "function"
    },
    {
      "inputs": [],
      "name": "loanPart",
      "outputs": [
        {
          "internalType": "uint256",
          "name": "",
          "type": "uint256"
        }
      ],
      "stateMutability": "view",
      "type": "function"
    },
    {
      "inputs": [],
      "name": "lock_period",
      "outputs": [
        {
          "internalType": "uint256",
          "name": "",
          "type": "uint256"
        }
      ],
      "stateMutability": "view",
      "type": "function"
    },
    {
      "inputs": [],
      "name": "maxWithdrawRequests",
      "outputs": [
        {
          "internalType": "uint256",
          "name": "",
          "type": "uint256"
        }
      ],
      "stateMutability": "view",
      "type": "function"
    },
    {
      "inputs": [],
      "name": "nominatedWallet",
      "outputs": [
        {
          "internalType": "address",
          "name": "",
          "type": "address"
        }
      ],
      "stateMutability": "view",
      "type": "function"
    },
    {
      "inputs": [],
      "name": "poolPart",
      "outputs": [
        {
          "internalType": "uint256",
          "name": "",
          "type": "uint256"
        }
      ],
      "stateMutability": "view",
      "type": "function"
    },
    {
      "inputs": [
        {
          "internalType": "uint256",
          "name": "",
          "type": "uint256"
        }
      ],
      "name": "reserveAmount",
      "outputs": [
        {
          "internalType": "uint256",
          "name": "",
          "type": "uint256"
        }
      ],
      "stateMutability": "view",
      "type": "function"
    },
    {
      "inputs": [
        {
          "internalType": "address",
          "name": "",
          "type": "address"
        }
      ],
      "name": "reserveRecipients",
      "outputs": [
        {
          "internalType": "bool",
          "name": "",
          "type": "bool"
        }
      ],
      "stateMutability": "view",
      "type": "function"
    },
    {
      "inputs": [],
      "name": "rpToken",
      "outputs": [
        {
          "internalType": "contract IERC20",
          "name": "",
          "type": "address"
        }
      ],
      "stateMutability": "view",
      "type": "function"
    },
    {
      "inputs": [],
      "name": "selfBalance",
      "outputs": [
        {
          "internalType": "uint256",
          "name": "",
          "type": "uint256"
        }
      ],
      "stateMutability": "view",
      "type": "function"
    },
    {
      "inputs": [
        {
          "internalType": "uint256",
          "name": "",
          "type": "uint256"
        }
      ],
      "name": "storedFees",
      "outputs": [
        {
          "internalType": "uint256",
          "name": "",
          "type": "uint256"
        }
      ],
      "stateMutability": "view",
      "type": "function"
    },
    {
      "inputs": [],
      "name": "strategy",
      "outputs": [
        {
          "internalType": "contract rStrategy",
          "name": "",
          "type": "address"
        }
      ],
      "stateMutability": "view",
      "type": "function"
    },
    {
      "inputs": [
        {
          "internalType": "uint256",
          "name": "",
          "type": "uint256"
        }
      ],
      "name": "tokens",
      "outputs": [
        {
          "internalType": "contract IERC20",
          "name": "",
          "type": "address"
        }
      ],
      "stateMutability": "view",
      "type": "function"
    },
    {
      "inputs": [
        {
          "internalType": "uint256",
          "name": "",
          "type": "uint256"
        }
      ],
      "name": "totalWithdraw",
      "outputs": [
        {
          "internalType": "uint256",
          "name": "",
          "type": "uint256"
        }
      ],
      "stateMutability": "view",
      "type": "function"
    },
    {
      "inputs": [],
      "name": "wallet",
      "outputs": [
        {
          "internalType": "address",
          "name": "",
          "type": "address"
        }
      ],
      "stateMutability": "view",
      "type": "function"
    },
    {
      "inputs": [
        {
          "internalType": "uint256",
          "name": "",
          "type": "uint256"
        }
      ],
      "name": "withdrawRecipients",
      "outputs": [
        {
          "internalType": "address",
          "name": "",
          "type": "address"
        }
      ],
      "stateMutability": "view",
      "type": "function"
    },
    {
      "inputs": [
        {
          "internalType": "address",
          "name": "_wallet",
          "type": "address"
        }
      ],
      "name": "nominateNewOwner",
      "outputs": [],
      "stateMutability": "nonpayable",
      "type": "function"
    },
    {
      "inputs": [],
      "name": "acceptOwnership",
      "outputs": [],
      "stateMutability": "nonpayable",
      "type": "function"
    },
    {
      "inputs": [
        {
          "internalType": "uint256",
          "name": "amount",
          "type": "uint256"
        },
        {
          "internalType": "uint256",
          "name": "_index",
          "type": "uint256"
        }
      ],
      "name": "calcRptAmount",
      "outputs": [
        {
          "internalType": "uint256",
          "name": "",
          "type": "uint256"
        }
      ],
      "stateMutability": "view",
      "type": "function"
    },
    {
      "inputs": [
        {
          "internalType": "address",
          "name": "addr",
          "type": "address"
        },
        {
          "internalType": "uint256",
          "name": "coin",
          "type": "uint256"
        },
        {
          "internalType": "bool",
          "name": "_time",
          "type": "bool"
        }
      ],
      "name": "availableLiquidity",
      "outputs": [
        {
          "internalType": "uint256",
          "name": "token",
          "type": "uint256"
        },
        {
          "internalType": "uint256",
          "name": "RPT",
          "type": "uint256"
        }
      ],
      "stateMutability": "view",
      "type": "function"
    },
    {
      "inputs": [
        {
          "internalType": "bool",
          "name": "_supply",
          "type": "bool"
        }
      ],
      "name": "calculateTotalToken",
      "outputs": [
        {
          "internalType": "uint256",
          "name": "",
          "type": "uint256"
        }
      ],
      "stateMutability": "view",
      "type": "function"
    },
    {
      "inputs": [
        {
          "internalType": "uint256",
          "name": "amount",
          "type": "uint256"
        },
        {
          "internalType": "uint256",
          "name": "_index",
          "type": "uint256"
        }
      ],
      "name": "supply",
      "outputs": [],
      "stateMutability": "nonpayable",
      "type": "function"
    },
    {
      "inputs": [
        {
          "internalType": "uint256",
          "name": "amount",
          "type": "uint256"
        },
        {
          "internalType": "uint256",
          "name": "_index",
          "type": "uint256"
        }
      ],
      "name": "requestWithdrawWithRPT",
      "outputs": [],
      "stateMutability": "nonpayable",
      "type": "function"
    },
    {
      "inputs": [],
      "name": "claimTokens",
      "outputs": [],
      "stateMutability": "nonpayable",
      "type": "function"
    },
    {
      "inputs": [
        {
          "internalType": "uint256",
          "name": "amount",
          "type": "uint256"
        },
        {
          "internalType": "uint256",
          "name": "_index",
          "type": "uint256"
        }
      ],
      "name": "depositYield",
      "outputs": [],
      "stateMutability": "nonpayable",
      "type": "function"
    },
    {
      "inputs": [],
      "name": "deposit",
      "outputs": [],
      "stateMutability": "nonpayable",
      "type": "function"
    },
    {
      "inputs": [
        {
          "internalType": "uint256[4]",
          "name": "max_burn",
          "type": "uint256[4]"
        }
      ],
      "name": "withdraw",
      "outputs": [],
      "stateMutability": "nonpayable",
      "type": "function"
    },
    {
      "inputs": [],
      "name": "withdrawAll",
      "outputs": [],
      "stateMutability": "nonpayable",
      "type": "function"
    },
    {
      "inputs": [
        {
          "internalType": "uint256[4]",
          "name": "max_burn",
          "type": "uint256[4]"
        }
      ],
      "name": "rebalance",
      "outputs": [],
      "stateMutability": "nonpayable",
      "type": "function"
    },
    {
      "inputs": [
        {
          "internalType": "uint256[4]",
          "name": "amounts",
          "type": "uint256[4]"
        },
        {
          "internalType": "address",
          "name": "_recipient",
          "type": "address"
        },
        {
          "internalType": "uint256[4]",
          "name": "max_burn",
          "type": "uint256[4]"
        }
      ],
      "name": "withdrawLoan",
      "outputs": [],
      "stateMutability": "nonpayable",
      "type": "function"
    },
    {
      "inputs": [
        {
          "internalType": "uint256[4]",
          "name": "amounts",
          "type": "uint256[4]"
        }
      ],
      "name": "repayLoan",
      "outputs": [],
      "stateMutability": "nonpayable",
      "type": "function"
    },
    {
      "inputs": [],
      "name": "claimFees",
      "outputs": [],
      "stateMutability": "nonpayable",
      "type": "function"
    },
    {
      "inputs": [
        {
          "internalType": "uint128",
          "name": "_newPoolPart",
          "type": "uint128"
        }
      ],
      "name": "changePoolPart",
      "outputs": [],
      "stateMutability": "nonpayable",
      "type": "function"
    },
    {
      "inputs": [
        {
          "internalType": "address",
          "name": "_strategy",
          "type": "address"
        }
      ],
      "name": "changeStrategy",
      "outputs": [],
      "stateMutability": "nonpayable",
      "type": "function"
    },
    {
      "inputs": [
        {
          "internalType": "uint256",
          "name": "lockperiod",
          "type": "uint256"
        }
      ],
      "name": "setLockPeriod",
      "outputs": [],
      "stateMutability": "nonpayable",
      "type": "function"
    },
    {
      "inputs": [
        {
          "internalType": "uint128",
          "name": "_fees",
          "type": "uint128"
        }
      ],
      "name": "setWithdrawFees",
      "outputs": [],
      "stateMutability": "nonpayable",
      "type": "function"
    },
    {
      "inputs": [
        {
          "internalType": "uint256",
          "name": "_value",
          "type": "uint256"
        }
      ],
      "name": "changeLoanPart",
      "outputs": [],
      "stateMutability": "nonpayable",
      "type": "function"
    },
    {
      "inputs": [
        {
          "internalType": "uint256",
          "name": "_index",
          "type": "uint256"
        }
      ],
      "name": "getBalances",
      "outputs": [
        {
          "internalType": "uint256",
          "name": "",
          "type": "uint256"
        }
      ],
      "stateMutability": "view",
      "type": "function"
    }
  ],
  "bytecode": "0x60806040526019600160006101000a8154816fffffffffffffffffffffffffffffffff02191690836fffffffffffffffffffffffffffffffff1602179055506102ee600255603c600e5560196014556107d06023553480156200006157600080fd5b5060405162006f8d38038062006f8d8339818101604052810190620000879190620002a6565b6001600081905550600073ffffffffffffffffffffffffffffffffffffffff168173ffffffffffffffffffffffffffffffffffffffff16141562000102576040517f08c379a0000000000000000000000000000000000000000000000000000000008152600401620000f9906200033e565b60405180910390fd5b60005b60048160ff1610156200018557838160ff16600481106200012257fe5b602002015160048260ff16600481106200013857fe5b0160006101000a81548173ffffffffffffffffffffffffffffffffffffffff021916908373ffffffffffffffffffffffffffffffffffffffff160217905550808060010191505062000105565b5081600860006101000a81548173ffffffffffffffffffffffffffffffffffffffff021916908373ffffffffffffffffffffffffffffffffffffffff16021790555080600a60006101000a81548173ffffffffffffffffffffffffffffffffffffffff021916908373ffffffffffffffffffffffffffffffffffffffff16021790555050505062000410565b6000815190506200022281620003f6565b92915050565b600082601f8301126200023a57600080fd5b6004620002516200024b826200038e565b62000360565b915081838560208402820111156200026857600080fd5b60005b838110156200029c578162000281888262000211565b8452602084019350602083019250506001810190506200026b565b5050505092915050565b600080600060c08486031215620002bc57600080fd5b6000620002cc8682870162000228565b9350506080620002df8682870162000211565b92505060a0620002f28682870162000211565b9150509250925092565b60006200030b601a83620003b1565b91507f57616c6c657420616464726573732063616e6e6f7420626520300000000000006000830152602082019050919050565b600060208201905081810360008301526200035981620002fc565b9050919050565b6000604051905081810181811067ffffffffffffffff821117156200038457600080fd5b8060405250919050565b600067ffffffffffffffff821115620003a657600080fd5b602082029050919050565b600082825260208201905092915050565b6000620003cf82620003d6565b9050919050565b600073ffffffffffffffffffffffffffffffffffffffff82169050919050565b6200040181620003c2565b81146200040d57600080fd5b50565b616b6d80620004206000396000f3fe608060405234801561001057600080fd5b50600436106102955760003560e01c80638e9b032611610167578063c23177b2116100ce578063de44983911610087578063de449839146107b5578063df7ce7e4146107e6578063e761c7b314610804578063f0dd71c714610834578063f1dc893e14610864578063f83e9a201461088057610295565b8063c23177b2146106f2578063c6b93df714610725578063d0e30db014610755578063d294f0931461075f578063daecfa6c14610769578063db28bfd01461078557610295565b8063a70200bd11610120578063a70200bd1461061c578063a8c4d3ae14610638578063a8c62e7614610656578063ad6abb0c14610674578063b0bed0ba146106a4578063bf4b136b146106c257610295565b80638e9b032614610558578063905f692e14610576578063918f8674146105a657806393f9c552146105c45780639af1d35a146105e05780639d4649d9146105fe57610295565b8063521eb2731161020b5780637861dae0116101c45780637861dae0146104be57806379ba5097146104dc5780637a9024bd146104e6578063853828b614610502578063876171dc1461050c5780638d3305101461053c57610295565b8063521eb273146104005780635525f5d41461041e5780635cd60cd11461043a5780636b9f1ef61461046a5780636c847a7f14610486578063779972da146104a257610295565b8063293577501161025d578063293577501461032a57806342f1bd5d14610348578063449deb6b1461036657806348c54b9d14610396578063490adbaf146103a05780634f64b2be146103d057610295565b80630100a56b1461029a57806315816bac146102b85780631627540c146102d45780631f28e142146102f057806325340b8c1461030c575b600080fd5b6102a261089e565b6040516102af919061681f565b60405180910390f35b6102d260048036038101906102cd9190615ad4565b6108a4565b005b6102ee60048036038101906102e991906158b1565b610a84565b005b61030a600480360381019061030591906159b7565b610b8f565b005b610314610fe6565b604051610321919061681f565b60405180910390f35b610332610fec565b60405161033f919061681f565b60405180910390f35b610350610ff1565b60405161035d91906164ec565b60405180910390f35b610380600480360381019061037b91906158b1565b611017565b60405161038d91906164d1565b60405180910390f35b61039e611037565b005b6103ba60048036038101906103b59190615a82565b611721565b6040516103c7919061681f565b60405180910390f35b6103ea60048036038101906103e59190615a82565b611821565b6040516103f791906164ec565b60405180910390f35b610408611854565b60405161041591906162c8565b60405180910390f35b61043860048036038101906104339190615965565b61187a565b005b610454600480360381019061044f91906158da565b6119e1565b604051610461919061681f565b60405180910390f35b610484600480360381019061047f9190615a59565b611a06565b005b6104a0600480360381019061049b9190615965565b611ad2565b005b6104bc60048036038101906104b79190615a82565b611e4b565b005b6104c6611ee5565b6040516104d3919061681f565b60405180910390f35b6104e4611eeb565b005b61050060048036038101906104fb91906158b1565b61209f565b005b61050a6121d5565b005b61052660048036038101906105219190615a82565b612502565b60405161053391906162c8565b60405180910390f35b61055660048036038101906105519190615a82565b61253e565b005b6105606125d8565b60405161056d919061681f565b60405180910390f35b610590600480360381019061058b91906158b1565b6125de565b60405161059d91906164d1565b60405180910390f35b6105ae6125fe565b6040516105bb919061681f565b60405180910390f35b6105de60048036038101906105d99190615ad4565b612604565b005b6105e8612a84565b6040516105f59190616804565b60405180910390f35b610606612aa6565b604051610613919061681f565b60405180910390f35b61063660048036038101906106319190615a59565b612aac565b005b610640612b58565b60405161064d91906162c8565b60405180910390f35b61065e612b7e565b60405161066b9190616507565b60405180910390f35b61068e60048036038101906106899190615a07565b612ba4565b60405161069b919061681f565b60405180910390f35b6106ac612e22565b6040516106b9919061681f565b60405180910390f35b6106dc60048036038101906106d79190615ad4565b612e28565b6040516106e9919061681f565b60405180910390f35b61070c600480360381019061070791906158da565b612ffe565b60405161071c9493929190616863565b60405180910390f35b61073f600480360381019061073a91906158da565b613048565b60405161074c919061681f565b60405180910390f35b61075d61306d565b005b6107676133a9565b005b610783600480360381019061077e9190615ad4565b613632565b005b61079f600480360381019061079a9190615a82565b6139b5565b6040516107ac919061681f565b60405180910390f35b6107cf60048036038101906107ca9190615916565b6139cd565b6040516107dd92919061683a565b60405180910390f35b6107ee613dc4565b6040516107fb919061681f565b60405180910390f35b61081e60048036038101906108199190615a82565b613dca565b60405161082b919061681f565b60405180910390f35b61084e60048036038101906108499190615a82565b613de2565b60405161085b919061681f565b60405180910390f35b61087e60048036038101906108799190615965565b613dfa565b005b6108886140b0565b604051610895919061681f565b60405180910390f35b60225481565b6000600482600481106108b357fe5b0160009054906101000a900473ffffffffffffffffffffffffffffffffffffffff1673ffffffffffffffffffffffffffffffffffffffff1663313ce5676040518163ffffffff1660e01b815260040160206040518083038186803b15801561091a57600080fd5b505afa15801561092e573d6000803e3d6000fd5b505050506040513d601f19601f820116820180604052508101906109529190615b10565b60ff16905061099b61098a82600a0a61097c670de0b6b3a7640000876140b690919063ffffffff16565b61412690919063ffffffff16565b60035461417c90919063ffffffff16565b6003819055506109e56109d482600a0a6109c6670de0b6b3a7640000876140b690919063ffffffff16565b61412690919063ffffffff16565b600d5461417c90919063ffffffff16565b600d81905550610a46333085600486600481106109fe57fe5b0160009054906101000a900473ffffffffffffffffffffffffffffffffffffffff1673ffffffffffffffffffffffffffffffffffffffff166141d1909392919063ffffffff16565b7f42b1fbc126fd4214becc710b14aa423482c753e4d6af74679e470354904275da8383604051610a7792919061683a565b60405180910390a1505050565b3373ffffffffffffffffffffffffffffffffffffffff16600a60009054906101000a900473ffffffffffffffffffffffffffffffffffffffff1673ffffffffffffffffffffffffffffffffffffffff1614610b14576040517f08c379a0000000000000000000000000000000000000000000000000000000008152600401610b0b90616704565b60405180910390fd5b80600b60006101000a81548173ffffffffffffffffffffffffffffffffffffffff021916908373ffffffffffffffffffffffffffffffffffffffff1602179055507f34e5b3a286aa0821b202b74f9fa683c8f56e1f2875caafc853d080382896917881604051610b8491906162c8565b60405180910390a150565b3373ffffffffffffffffffffffffffffffffffffffff16600a60009054906101000a900473ffffffffffffffffffffffffffffffffffffffff1673ffffffffffffffffffffffffffffffffffffffff1614610c1f576040517f08c379a0000000000000000000000000000000000000000000000000000000008152600401610c1690616704565b60405180910390fd5b610c288361425a565b610c67576040517f08c379a0000000000000000000000000000000000000000000000000000000008152600401610c5e90616764565b60405180910390fd5b60008060005b6004811015610d885760048160048110610c8357fe5b0160009054906101000a900473ffffffffffffffffffffffffffffffffffffffff1673ffffffffffffffffffffffffffffffffffffffff1663313ce5676040518163ffffffff1660e01b815260040160206040518083038186803b158015610cea57600080fd5b505afa158015610cfe573d6000803e3d6000fd5b505050506040513d601f19601f82011682018060405250810190610d229190615b10565b60ff169250610d79610d6a84600a0a610d5c670de0b6b3a76400008a8660048110610d4957fe5b60200201516140b690919063ffffffff16565b61412690919063ffffffff16565b8361417c90919063ffffffff16565b91508080600101915050610c6d565b50610dbb612710610dad602354610d9f6001612ba4565b6140b690919063ffffffff16565b61412690919063ffffffff16565b610dd08260225461417c90919063ffffffff16565b1115610e11576040517f08c379a0000000000000000000000000000000000000000000000000000000008152600401610e08906166c4565b60405180910390fd5b610e1b6000612ba4565b8110610e5c576040517f08c379a0000000000000000000000000000000000000000000000000000000008152600401610e5390616624565b60405180910390fd5b6000805b6004811015610e9f57610e7281611721565b878260048110610e7e57fe5b60200201511115610e925760019150610e9f565b8080600101915050610e60565b508015610eb157610eb086856142ac565b5b610ec68260225461417c90919063ffffffff16565b602281905550610ee18260035461447390919063ffffffff16565b60038190555060005b60048160ff161015610fdd576000878260ff1660048110610f0757fe5b60200201511115610fd057610f8186888360ff1660048110610f2557fe5b602002015160048460ff1660048110610f3a57fe5b0160009054906101000a900473ffffffffffffffffffffffffffffffffffffffff1673ffffffffffffffffffffffffffffffffffffffff166144c39092919063ffffffff16565b7f4a593671bb3dc998e5b52a29c9d1a32c44a34048e4a5c44b2f584bc5eb24e70686888360ff1660048110610fb257fe5b602002015183604051610fc793929190616455565b60405180910390a15b8080600101915050610eea565b50505050505050565b600c5481565b600481565b600860009054906101000a900473ffffffffffffffffffffffffffffffffffffffff1681565b601d6020528060005260406000206000915054906101000a900460ff1681565b6002600054141561107d576040517f08c379a0000000000000000000000000000000000000000000000000000000008152600401611074906167c4565b60405180910390fd5b6002600081905550601d60003373ffffffffffffffffffffffffffffffffffffffff1673ffffffffffffffffffffffffffffffffffffffff16815260200190815260200160002060009054906101000a900460ff16611111576040517f08c379a000000000000000000000000000000000000000000000000000000000815260040161110890616544565b60405180910390fd5b60008060005b60048160ff1610156116b2576000601060003373ffffffffffffffffffffffffffffffffffffffff1673ffffffffffffffffffffffffffffffffffffffff1681526020019081526020016000208260ff166004811061117257fe5b015411156116a55760048160ff166004811061118a57fe5b0160009054906101000a900473ffffffffffffffffffffffffffffffffffffffff1673ffffffffffffffffffffffffffffffffffffffff1663313ce5676040518163ffffffff1660e01b815260040160206040518083038186803b1580156111f157600080fd5b505afa158015611205573d6000803e3d6000fd5b505050506040513d601f19601f820116820180604052508101906112299190615b10565b60ff16915060006112d56127106112c7600160009054906101000a90046fffffffffffffffffffffffffffffffff166fffffffffffffffffffffffffffffffff16601060003373ffffffffffffffffffffffffffffffffffffffff1673ffffffffffffffffffffffffffffffffffffffff1681526020019081526020016000208660ff16600481106112b757fe5b01546140b690919063ffffffff16565b61412690919063ffffffff16565b9050611349601060003373ffffffffffffffffffffffffffffffffffffffff1673ffffffffffffffffffffffffffffffffffffffff1681526020019081526020016000208360ff166004811061132757fe5b015460198460ff166004811061133957fe5b015461447390919063ffffffff16565b60198360ff166004811061135957fe5b01819055506114026113f184600a0a6113e3670de0b6b3a76400006113d586601060003373ffffffffffffffffffffffffffffffffffffffff1673ffffffffffffffffffffffffffffffffffffffff1681526020019081526020016000208960ff16600481106113c557fe5b015461447390919063ffffffff16565b6140b690919063ffffffff16565b61412690919063ffffffff16565b60035461447390919063ffffffff16565b600381905550611469601160003373ffffffffffffffffffffffffffffffffffffffff1673ffffffffffffffffffffffffffffffffffffffff1681526020019081526020016000208360ff166004811061145857fe5b01548561417c90919063ffffffff16565b9350611527336114d083601060003373ffffffffffffffffffffffffffffffffffffffff1673ffffffffffffffffffffffffffffffffffffffff1681526020019081526020016000208660ff16600481106114c057fe5b015461447390919063ffffffff16565b60048560ff16600481106114e057fe5b0160009054906101000a900473ffffffffffffffffffffffffffffffffffffffff1673ffffffffffffffffffffffffffffffffffffffff166144c39092919063ffffffff16565b7f05e94af811ccb220574ce9f299ec388068c5f6cafb7666364479fbb7e30571c6336115aa83601060003373ffffffffffffffffffffffffffffffffffffffff1673ffffffffffffffffffffffffffffffffffffffff1681526020019081526020016000208660ff166004811061159a57fe5b015461447390919063ffffffff16565b846040516115ba9392919061635e565b60405180910390a16000601060003373ffffffffffffffffffffffffffffffffffffffff1673ffffffffffffffffffffffffffffffffffffffff1681526020019081526020016000208360ff166004811061161157fe5b01819055506000601160003373ffffffffffffffffffffffffffffffffffffffff1673ffffffffffffffffffffffffffffffffffffffff1681526020019081526020016000208360ff166004811061166557fe5b018190555061168e81601e8460ff166004811061167e57fe5b015461417c90919063ffffffff16565b601e8360ff166004811061169e57fe5b0181905550505b8080600101915050611117565b506116bd3383614549565b6000601d60003373ffffffffffffffffffffffffffffffffffffffff1673ffffffffffffffffffffffffffffffffffffffff16815260200190815260200160002060006101000a81548160ff02191690831515021790555050506001600081905550565b600061181a601e836004811061173357fe5b015461180c6019856004811061174557fe5b01546004866004811061175457fe5b0160009054906101000a900473ffffffffffffffffffffffffffffffffffffffff1673ffffffffffffffffffffffffffffffffffffffff166370a08231306040518263ffffffff1660e01b81526004016117ae91906162c8565b60206040518083038186803b1580156117c657600080fd5b505afa1580156117da573d6000803e3d6000fd5b505050506040513d601f19601f820116820180604052508101906117fe9190615aab565b61447390919063ffffffff16565b61447390919063ffffffff16565b9050919050565b6004816004811061182e57fe5b016000915054906101000a900473ffffffffffffffffffffffffffffffffffffffff1681565b600a60009054906101000a900473ffffffffffffffffffffffffffffffffffffffff1681565b3373ffffffffffffffffffffffffffffffffffffffff16600a60009054906101000a900473ffffffffffffffffffffffffffffffffffffffff1673ffffffffffffffffffffffffffffffffffffffff161461190a576040517f08c379a000000000000000000000000000000000000000000000000000000000815260040161190190616704565b60405180910390fd5b6119506015600480602002604051908101604052809291908260048015611946576020028201915b815481526020019060010190808311611932575b505050505061425a565b61198f576040517f08c379a000000000000000000000000000000000000000000000000000000000815260040161198690616664565b60405180910390fd5b6119d660156004806020026040519081016040528092919082600480156119cb576020028201915b8154815260200190600101908083116119b7575b5050505050826142ac565b6119de614838565b50565b601060205281600052604060002081600481106119fa57fe5b01600091509150505481565b3373ffffffffffffffffffffffffffffffffffffffff16600a60009054906101000a900473ffffffffffffffffffffffffffffffffffffffff1673ffffffffffffffffffffffffffffffffffffffff1614611a96576040517f08c379a0000000000000000000000000000000000000000000000000000000008152600401611a8d90616704565b60405180910390fd5b80600160006101000a8154816fffffffffffffffffffffffffffffffff02191690836fffffffffffffffffffffffffffffffff16021790555050565b3373ffffffffffffffffffffffffffffffffffffffff16600a60009054906101000a900473ffffffffffffffffffffffffffffffffffffffff1673ffffffffffffffffffffffffffffffffffffffff1614611b62576040517f08c379a0000000000000000000000000000000000000000000000000000000008152600401611b5990616704565b60405180910390fd5b6000611b6c615714565b611b74615714565b600080611b816000612ba4565b91506000611bc1612710611bb36004611ba5600254886140b690919063ffffffff16565b61412690919063ffffffff16565b61412690919063ffffffff16565b9050600080600090505b60048160ff161015611e0f57611be38160ff16611721565b975060048160ff1660048110611bf557fe5b0160009054906101000a900473ffffffffffffffffffffffffffffffffffffffff1673ffffffffffffffffffffffffffffffffffffffff1663313ce5676040518163ffffffff1660e01b815260040160206040518083038186803b158015611c5c57600080fd5b505afa158015611c70573d6000803e3d6000fd5b505050506040513d601f19601f82011682018060405250810190611c949190615b10565b60ff169350611cc9670de0b6b3a7640000611cbb86600a0a866140b690919063ffffffff16565b61412690919063ffffffff16565b915087821115611d0357611ce6888361447390919063ffffffff16565b878260ff1660048110611cf557fe5b602002018181525050611e02565b87821015611dcc57611d1e828961447390919063ffffffff16565b868260ff1660048110611d2d57fe5b602002018181525050611dc7600960009054906101000a900473ffffffffffffffffffffffffffffffffffffffff16878360ff1660048110611d6b57fe5b602002015160048460ff1660048110611d8057fe5b0160009054906101000a900473ffffffffffffffffffffffffffffffffffffffff1673ffffffffffffffffffffffffffffffffffffffff166144c39092919063ffffffff16565b611e01565b6000878260ff1660048110611ddd57fe5b6020020181815250506000868260ff1660048110611df757fe5b6020020181815250505b5b8080600101915050611bcb565b50611e198561425a565b15611e2857611e2785614a58565b5b611e318661425a565b15611e4157611e4086896142ac565b5b5050505050505050565b3373ffffffffffffffffffffffffffffffffffffffff16600a60009054906101000a900473ffffffffffffffffffffffffffffffffffffffff1673ffffffffffffffffffffffffffffffffffffffff1614611edb576040517f08c379a0000000000000000000000000000000000000000000000000000000008152600401611ed290616704565b60405180910390fd5b80600e8190555050565b60235481565b600b60009054906101000a900473ffffffffffffffffffffffffffffffffffffffff1673ffffffffffffffffffffffffffffffffffffffff163373ffffffffffffffffffffffffffffffffffffffff1614611f7b576040517f08c379a0000000000000000000000000000000000000000000000000000000008152600401611f7290616584565b60405180910390fd5b7f6058119c217577f8ad236dec0d66116c29ed9d1f362482f49becdbffe3ae0df1600a60009054906101000a900473ffffffffffffffffffffffffffffffffffffffff16600b60009054906101000a900473ffffffffffffffffffffffffffffffffffffffff16604051611ff0929190616395565b60405180910390a1600b60009054906101000a900473ffffffffffffffffffffffffffffffffffffffff16600a60006101000a81548173ffffffffffffffffffffffffffffffffffffffff021916908373ffffffffffffffffffffffffffffffffffffffff1602179055506000600b60006101000a81548173ffffffffffffffffffffffffffffffffffffffff021916908373ffffffffffffffffffffffffffffffffffffffff160217905550565b3373ffffffffffffffffffffffffffffffffffffffff16600a60009054906101000a900473ffffffffffffffffffffffffffffffffffffffff1673ffffffffffffffffffffffffffffffffffffffff161461212f576040517f08c379a000000000000000000000000000000000000000000000000000000000815260040161212690616704565b60405180910390fd5b60005b60048160ff161015612190576000600c5414612183576040517f08c379a000000000000000000000000000000000000000000000000000000000815260040161217a906166a4565b60405180910390fd5b8080600101915050612132565b5080600960006101000a81548173ffffffffffffffffffffffffffffffffffffffff021916908373ffffffffffffffffffffffffffffffffffffffff16021790555050565b3373ffffffffffffffffffffffffffffffffffffffff16600a60009054906101000a900473ffffffffffffffffffffffffffffffffffffffff1673ffffffffffffffffffffffffffffffffffffffff1614612265576040517f08c379a000000000000000000000000000000000000000000000000000000000815260040161225c90616704565b60405180910390fd5b61226d615714565b600960009054906101000a900473ffffffffffffffffffffffffffffffffffffffff1673ffffffffffffffffffffffffffffffffffffffff1663853828b66040518163ffffffff1660e01b8152600401608060405180830381600087803b1580156122d757600080fd5b505af11580156122eb573d6000803e3d6000fd5b505050506040513d601f19601f8201168201806040525081019061230f919061598e565b905060008060038190555060005b60048160ff1610156124ed5760048160ff166004811061233957fe5b0160009054906101000a900473ffffffffffffffffffffffffffffffffffffffff1673ffffffffffffffffffffffffffffffffffffffff1663313ce5676040518163ffffffff1660e01b815260040160206040518083038186803b1580156123a057600080fd5b505afa1580156123b4573d6000803e3d6000fd5b505050506040513d601f19601f820116820180604052508101906123d89190615b10565b60ff1691506124da6124c983600a0a6124bb670de0b6b3a764000060048660ff166004811061240357fe5b0160009054906101000a900473ffffffffffffffffffffffffffffffffffffffff1673ffffffffffffffffffffffffffffffffffffffff166370a08231306040518263ffffffff1660e01b815260040161245d91906162c8565b60206040518083038186803b15801561247557600080fd5b505afa158015612489573d6000803e3d6000fd5b505050506040513d601f19601f820116820180604052508101906124ad9190615aab565b6140b690919063ffffffff16565b61412690919063ffffffff16565b60035461417c90919063ffffffff16565b600381905550808060010191505061231d565b506000600c819055506124fe614838565b5050565b6013818154811061250f57fe5b906000526020600020016000915054906101000a900473ffffffffffffffffffffffffffffffffffffffff1681565b3373ffffffffffffffffffffffffffffffffffffffff16600a60009054906101000a900473ffffffffffffffffffffffffffffffffffffffff1673ffffffffffffffffffffffffffffffffffffffff16146125ce576040517f08c379a00000000000000000000000000000000000000000000000000000000081526004016125c590616704565b60405180910390fd5b8060238190555050565b60025481565b60126020528060005260406000206000915054906101000a900460ff1681565b61271081565b6002600054141561264a576040517f08c379a0000000000000000000000000000000000000000000000000000000008152600401612641906167c4565b60405180910390fd5b60026000819055508160008111612696576040517f08c379a000000000000000000000000000000000000000000000000000000000815260040161268d90616644565b60405180910390fd5b601d60003373ffffffffffffffffffffffffffffffffffffffff1673ffffffffffffffffffffffffffffffffffffffff16815260200190815260200160002060009054906101000a900460ff1615612723576040517f08c379a000000000000000000000000000000000000000000000000000000000815260040161271a906167e4565b60405180910390fd5b82600860009054906101000a900473ffffffffffffffffffffffffffffffffffffffff1673ffffffffffffffffffffffffffffffffffffffff166370a08231336040518263ffffffff1660e01b815260040161277f91906162e3565b60206040518083038186803b15801561279757600080fd5b505afa1580156127ab573d6000803e3d6000fd5b505050506040513d601f19601f820116820180604052508101906127cf9190615aab565b1015612810576040517f08c379a000000000000000000000000000000000000000000000000000000000815260040161280790616724565b60405180910390fd5b600061281e338460016139cd565b91505083811015612864576040517f08c379a000000000000000000000000000000000000000000000000000000000815260040161285b90616704565b60405180910390fd5b60006128706001612ba4565b90506000612938600860009054906101000a900473ffffffffffffffffffffffffffffffffffffffff1673ffffffffffffffffffffffffffffffffffffffff166318160ddd6040518163ffffffff1660e01b815260040160206040518083038186803b1580156128df57600080fd5b505afa1580156128f3573d6000803e3d6000fd5b505050506040513d601f19601f820116820180604052508101906129179190615aab565b61292a84896140b690919063ffffffff16565b61412690919063ffffffff16565b90506129446000612ba4565b811115612986576040517f08c379a000000000000000000000000000000000000000000000000000000000815260040161297d90616784565b60405180910390fd5b60006004866004811061299557fe5b0160009054906101000a900473ffffffffffffffffffffffffffffffffffffffff1673ffffffffffffffffffffffffffffffffffffffff1663313ce5676040518163ffffffff1660e01b815260040160206040518083038186803b1580156129fc57600080fd5b505afa158015612a10573d6000803e3d6000fd5b505050506040513d601f19601f82011682018060405250810190612a349190615b10565b60ff169050612a73612a6c670de0b6b3a7640000612a5e84600a0a866140b690919063ffffffff16565b61412690919063ffffffff16565b8888614c1c565b505050505060016000819055505050565b600160009054906101000a90046fffffffffffffffffffffffffffffffff1681565b60145481565b3373ffffffffffffffffffffffffffffffffffffffff16600a60009054906101000a900473ffffffffffffffffffffffffffffffffffffffff1673ffffffffffffffffffffffffffffffffffffffff1614612b3c576040517f08c379a0000000000000000000000000000000000000000000000000000000008152600401612b3390616704565b60405180910390fd5b806fffffffffffffffffffffffffffffffff1660028190555050565b600b60009054906101000a900473ffffffffffffffffffffffffffffffffffffffff1681565b600960009054906101000a900473ffffffffffffffffffffffffffffffffffffffff1681565b600080600080600080600090505b60048160ff161015612d7e5760048160ff1660048110612bce57fe5b0160009054906101000a900473ffffffffffffffffffffffffffffffffffffffff1673ffffffffffffffffffffffffffffffffffffffff1663313ce5676040518163ffffffff1660e01b815260040160206040518083038186803b158015612c3557600080fd5b505afa158015612c49573d6000803e3d6000fd5b505050506040513d601f19601f82011682018060405250810190612c6d9190615b10565b60ff169450612cc5612cb686600a0a612ca8670de0b6b3a764000060158660ff1660048110612c9857fe5b01546140b690919063ffffffff16565b61412690919063ffffffff16565b8561417c90919063ffffffff16565b9350612d1a612d0b86600a0a612cfd670de0b6b3a764000060198660ff1660048110612ced57fe5b01546140b690919063ffffffff16565b61412690919063ffffffff16565b8461417c90919063ffffffff16565b9250612d6f612d6086600a0a612d52670de0b6b3a7640000601e8660ff1660048110612d4257fe5b01546140b690919063ffffffff16565b61412690919063ffffffff16565b8361417c90919063ffffffff16565b91508080600101915050612bb2565b508515612ddd57612dd2602254612dc483612db686612da88960035461447390919063ffffffff16565b61447390919063ffffffff16565b61447390919063ffffffff16565b61417c90919063ffffffff16565b945050505050612e1d565b612e1681612e0884612dfa8760035461447390919063ffffffff16565b61447390919063ffffffff16565b61447390919063ffffffff16565b9450505050505b919050565b60035481565b600080612e356001612ba4565b9050600060048460048110612e4657fe5b0160009054906101000a900473ffffffffffffffffffffffffffffffffffffffff1673ffffffffffffffffffffffffffffffffffffffff1663313ce5676040518163ffffffff1660e01b815260040160206040518083038186803b158015612ead57600080fd5b505afa158015612ec1573d6000803e3d6000fd5b505050506040513d601f19601f82011682018060405250810190612ee59190615b10565b60ff169050612f1a81600a0a612f0c670de0b6b3a7640000886140b690919063ffffffff16565b61412690919063ffffffff16565b94506000821415612f2f578492505050612ff8565b612ff382612fe5600860009054906101000a900473ffffffffffffffffffffffffffffffffffffffff1673ffffffffffffffffffffffffffffffffffffffff166318160ddd6040518163ffffffff1660e01b815260040160206040518083038186803b158015612f9e57600080fd5b505afa158015612fb2573d6000803e3d6000fd5b505050506040513d601f19601f82011682018060405250810190612fd69190615aab565b886140b690919063ffffffff16565b61412690919063ffffffff16565b925050505b92915050565b600f602052816000526040600020818154811061301757fe5b9060005260206000209060040201600091509150508060000154908060010154908060020154908060030154905084565b6011602052816000526040600020816004811061306157fe5b01600091509150505481565b3373ffffffffffffffffffffffffffffffffffffffff16600a60009054906101000a900473ffffffffffffffffffffffffffffffffffffffff1673ffffffffffffffffffffffffffffffffffffffff16146130fd576040517f08c379a00000000000000000000000000000000000000000000000000000000081526004016130f490616704565b60405180910390fd5b613105615714565b6000806131126000612ba4565b915060006131526127106131446004613136600254886140b690919063ffffffff16565b61412690919063ffffffff16565b61412690919063ffffffff16565b9050600080600090505b60048160ff1610156133895760048160ff166004811061317857fe5b0160009054906101000a900473ffffffffffffffffffffffffffffffffffffffff1673ffffffffffffffffffffffffffffffffffffffff1663313ce5676040518163ffffffff1660e01b815260040160206040518083038186803b1580156131df57600080fd5b505afa1580156131f3573d6000803e3d6000fd5b505050506040513d601f19601f820116820180604052508101906132179190615b10565b60ff1693506132288160ff16611721565b868260ff166004811061323757fe5b602002018181525050613270670de0b6b3a764000061326286600a0a866140b690919063ffffffff16565b61412690919063ffffffff16565b915081868260ff166004811061328257fe5b60200201511115613361576132b382878360ff16600481106132a057fe5b602002015161447390919063ffffffff16565b868260ff16600481106132c257fe5b60200201818152505061335c600960009054906101000a900473ffffffffffffffffffffffffffffffffffffffff16878360ff166004811061330057fe5b602002015160048460ff166004811061331557fe5b0160009054906101000a900473ffffffffffffffffffffffffffffffffffffffff1673ffffffffffffffffffffffffffffffffffffffff166144c39092919063ffffffff16565b61337c565b6000868260ff166004811061337257fe5b6020020181815250505b808060010191505061315c565b506133938561425a565b156133a2576133a185614a58565b5b5050505050565b600260005414156133ef576040517f08c379a00000000000000000000000000000000000000000000000000000000081526004016133e6906167c4565b60405180910390fd5b6002600081905550600080600090505b6004811015613626576004816004811061341557fe5b0160009054906101000a900473ffffffffffffffffffffffffffffffffffffffff1673ffffffffffffffffffffffffffffffffffffffff1663313ce5676040518163ffffffff1660e01b815260040160206040518083038186803b15801561347c57600080fd5b505afa158015613490573d6000803e3d6000fd5b505050506040513d601f19601f820116820180604052508101906134b49190615b10565b60ff16915061350b6134fa83600a0a6134ec670de0b6b3a7640000601e86600481106134dc57fe5b01546140b690919063ffffffff16565b61412690919063ffffffff16565b60035461447390919063ffffffff16565b60038190555061359a600a60009054906101000a900473ffffffffffffffffffffffffffffffffffffffff16601e836004811061354457fe5b01546004846004811061355357fe5b0160009054906101000a900473ffffffffffffffffffffffffffffffffffffffff1673ffffffffffffffffffffffffffffffffffffffff166144c39092919063ffffffff16565b7f7f059ecf8b751d26e68e209ab822cd621da40012e546aa1916a8b1e5511dbe4a600a60009054906101000a900473ffffffffffffffffffffffffffffffffffffffff16601e83600481106135eb57fe5b0154836040516135fd9392919061641e565b60405180910390a16000601e826004811061361457fe5b018190555080806001019150506133ff565b50506001600081905550565b60026000541415613678576040517f08c379a000000000000000000000000000000000000000000000000000000000815260040161366f906167c4565b60405180910390fd5b600260008190555081600081116136c4576040517f08c379a00000000000000000000000000000000000000000000000000000000081526004016136bb90616644565b60405180910390fd5b6000806136d18585612e28565b9050600f60003373ffffffffffffffffffffffffffffffffffffffff1673ffffffffffffffffffffffffffffffffffffffff16815260200190815260200160002060405180608001604052808681526020018781526020014281526020018381525090806001815401808255809150506001900390600052602060002090600402016000909190919091506000820151816000015560208201518160010155604082015181600201556060820151816003015550506004846004811061379357fe5b0160009054906101000a900473ffffffffffffffffffffffffffffffffffffffff1673ffffffffffffffffffffffffffffffffffffffff1663313ce5676040518163ffffffff1660e01b815260040160206040518083038186803b1580156137fa57600080fd5b505afa15801561380e573d6000803e3d6000fd5b505050506040513d601f19601f820116820180604052508101906138329190615b10565b60ff16915061387b61386a83600a0a61385c670de0b6b3a7640000896140b690919063ffffffff16565b61412690919063ffffffff16565b60035461417c90919063ffffffff16565b6003819055506138dc3330876004886004811061389457fe5b0160009054906101000a900473ffffffffffffffffffffffffffffffffffffffff1673ffffffffffffffffffffffffffffffffffffffff166141d1909392919063ffffffff16565b600860009054906101000a900473ffffffffffffffffffffffffffffffffffffffff1673ffffffffffffffffffffffffffffffffffffffff166340c10f1933836040518363ffffffff1660e01b81526004016139399291906162fe565b600060405180830381600087803b15801561395357600080fd5b505af1158015613967573d6000803e3d6000fd5b505050507f6a318e08f56ca4947ef3e059b135e10469334e86784af20b1d4c8d93f84ab43633868660405161399e93929190616327565b60405180910390a150505060016000819055505050565b601581600481106139c257fe5b016000915090505481565b6000806000805b600f60008873ffffffffffffffffffffffffffffffffffffffff1673ffffffffffffffffffffffffffffffffffffffff168152602001908152602001600020805490508160ff161015613b7f57841580613a8f5750600e54600f60008973ffffffffffffffffffffffffffffffffffffffff1673ffffffffffffffffffffffffffffffffffffffff1681526020019081526020016000208260ff1681548110613a7957fe5b9060005260206000209060040201600201544203115b8015613af957506000600f60008973ffffffffffffffffffffffffffffffffffffffff1673ffffffffffffffffffffffffffffffffffffffff1681526020019081526020016000208260ff1681548110613ae557fe5b906000526020600020906004020160030154115b15613b7257613b6f600f60008973ffffffffffffffffffffffffffffffffffffffff1673ffffffffffffffffffffffffffffffffffffffff1681526020019081526020016000208260ff1681548110613b4e57fe5b9060005260206000209060040201600301548361417c90919063ffffffff16565b91505b80806001019150506139d4565b5060005b60048160ff161015613bff57613bf0601160008973ffffffffffffffffffffffffffffffffffffffff1673ffffffffffffffffffffffffffffffffffffffff1681526020019081526020016000208260ff1660048110613bdf57fe5b01548361447390919063ffffffff16565b91508080600101915050613b83565b506000613c0c6001612ba4565b9050600060048760048110613c1d57fe5b0160009054906101000a900473ffffffffffffffffffffffffffffffffffffffff1673ffffffffffffffffffffffffffffffffffffffff1663313ce5676040518163ffffffff1660e01b815260040160206040518083038186803b158015613c8457600080fd5b505afa158015613c98573d6000803e3d6000fd5b505050506040513d601f19601f82011682018060405250810190613cbc9190615b10565b60ff169050613db4670de0b6b3a7640000613da6600860009054906101000a900473ffffffffffffffffffffffffffffffffffffffff1673ffffffffffffffffffffffffffffffffffffffff166318160ddd6040518163ffffffff1660e01b815260040160206040518083038186803b158015613d3857600080fd5b505afa158015613d4c573d6000803e3d6000fd5b505050506040513d601f19601f82011682018060405250810190613d709190615aab565b613d9885600a0a613d8a888a6140b690919063ffffffff16565b6140b690919063ffffffff16565b61412690919063ffffffff16565b61412690919063ffffffff16565b8394509450505050935093915050565b600d5481565b601e8160048110613dd757fe5b016000915090505481565b60198160048110613def57fe5b016000915090505481565b613e038161425a565b613e42576040517f08c379a0000000000000000000000000000000000000000000000000000000008152600401613e3990616564565b60405180910390fd5b600080600090505b60048160ff1610156140ab576000838260ff1660048110613e6757fe5b6020020151111561409e5760048160ff1660048110613e8257fe5b0160009054906101000a900473ffffffffffffffffffffffffffffffffffffffff1673ffffffffffffffffffffffffffffffffffffffff1663313ce5676040518163ffffffff1660e01b815260040160206040518083038186803b158015613ee957600080fd5b505afa158015613efd573d6000803e3d6000fd5b505050506040513d601f19601f82011682018060405250810190613f219190615b10565b60ff169150613f7d613f6c83600a0a613f5e670de0b6b3a7640000878660ff1660048110613f4b57fe5b60200201516140b690919063ffffffff16565b61412690919063ffffffff16565b60225461447390919063ffffffff16565b602281905550613fda613fc983600a0a613fbb670de0b6b3a7640000878660ff1660048110613fa857fe5b60200201516140b690919063ffffffff16565b61412690919063ffffffff16565b60035461417c90919063ffffffff16565b6003819055506140513330858460ff1660048110613ff457fe5b602002015160048560ff166004811061400957fe5b0160009054906101000a900473ffffffffffffffffffffffffffffffffffffffff1673ffffffffffffffffffffffffffffffffffffffff166141d1909392919063ffffffff16565b7ff75674d390f3697fe5cbf47578c7636e7543d80209c291b25dfcac61617b7992838260ff166004811061408157fe5b6020020151826040516140959291906168a8565b60405180910390a15b8080600101915050613e4a565b505050565b600e5481565b6000808314156140c95760009050614120565b60008284029050828482816140da57fe5b041461411b576040517f08c379a0000000000000000000000000000000000000000000000000000000008152600401614112906166e4565b60405180910390fd5b809150505b92915050565b600080821161416a576040517f08c379a000000000000000000000000000000000000000000000000000000000815260040161416190616604565b60405180910390fd5b81838161417357fe5b04905092915050565b6000808284019050838110156141c7576040517f08c379a00000000000000000000000000000000000000000000000000000000081526004016141be906165a4565b60405180910390fd5b8091505092915050565b614254846323b872dd60e01b8585856040516024016141f2939291906163be565b604051602081830303815290604052907bffffffffffffffffffffffffffffffffffffffffffffffffffffffff19166020820180517bffffffffffffffffffffffffffffffffffffffffffffffffffffffff838183161783525050505061500f565b50505050565b600080600090505b60048160ff1610156142a1576000838260ff166004811061427f57fe5b602002015111156142945760019150506142a7565b8080600101915050614262565b50600090505b919050565b600960009054906101000a900473ffffffffffffffffffffffffffffffffffffffff1673ffffffffffffffffffffffffffffffffffffffff16630817e28383836040518363ffffffff1660e01b81526004016143099291906164a7565b600060405180830381600087803b15801561432357600080fd5b505af1158015614337573d6000803e3d6000fd5b50505050600080600090505b60048160ff16101561446d5760048160ff166004811061435f57fe5b0160009054906101000a900473ffffffffffffffffffffffffffffffffffffffff1673ffffffffffffffffffffffffffffffffffffffff1663313ce5676040518163ffffffff1660e01b815260040160206040518083038186803b1580156143c657600080fd5b505afa1580156143da573d6000803e3d6000fd5b505050506040513d601f19601f820116820180604052508101906143fe9190615b10565b60ff16915061445a61444983600a0a61443b670de0b6b3a7640000888660ff166004811061442857fe5b60200201516140b690919063ffffffff16565b61412690919063ffffffff16565b600c5461447390919063ffffffff16565b600c819055508080600101915050614343565b50505050565b6000828211156144b8576040517f08c379a00000000000000000000000000000000000000000000000000000000081526004016144af906165c4565b60405180910390fd5b818303905092915050565b6145448363a9059cbb60e01b84846040516024016144e29291906163f5565b604051602081830303815290604052907bffffffffffffffffffffffffffffffffffffffffffffffffffffffff19166020820180517bffffffffffffffffffffffffffffffffffffffffffffffffffffffff838183161783525050505061500f565b505050565b60005b600f60008473ffffffffffffffffffffffffffffffffffffffff1673ffffffffffffffffffffffffffffffffffffffff168152602001908152602001600020805490508160ff161015614833576000600f60008573ffffffffffffffffffffffffffffffffffffffff1673ffffffffffffffffffffffffffffffffffffffff1681526020019081526020016000208260ff16815481106145e857fe5b9060005260206000209060040201600301541180156146075750600082115b1561482657600f60008473ffffffffffffffffffffffffffffffffffffffff1673ffffffffffffffffffffffffffffffffffffffff1681526020019081526020016000208160ff168154811061465957fe5b906000526020600020906004020160030154821061474d576146e2600f60008573ffffffffffffffffffffffffffffffffffffffff1673ffffffffffffffffffffffffffffffffffffffff1681526020019081526020016000208260ff16815481106146c157fe5b9060005260206000209060040201600301548361447390919063ffffffff16565b91506000600f60008573ffffffffffffffffffffffffffffffffffffffff1673ffffffffffffffffffffffffffffffffffffffff1681526020019081526020016000208260ff168154811061473357fe5b906000526020600020906004020160030181905550614825565b6147be82600f60008673ffffffffffffffffffffffffffffffffffffffff1673ffffffffffffffffffffffffffffffffffffffff1681526020019081526020016000208360ff168154811061479e57fe5b90600052602060002090600402016003015461447390919063ffffffff16565b600f60008573ffffffffffffffffffffffffffffffffffffffff1673ffffffffffffffffffffffffffffffffffffffff1681526020019081526020016000208260ff168154811061480b57fe5b906000526020600020906004020160030181905550600091505b5b808060010191505061454c565b505050565b60005b60048160ff1610156148b55761487c60158260ff166004811061485a57fe5b015460198360ff166004811061486c57fe5b015461417c90919063ffffffff16565b60198260ff166004811061488c57fe5b0181905550600060158260ff16600481106148a357fe5b0181905550808060010191505061483b565b5060005b6013805490508110156149f1576001601d6000601384815481106148d957fe5b9060005260206000200160009054906101000a900473ffffffffffffffffffffffffffffffffffffffff1673ffffffffffffffffffffffffffffffffffffffff1673ffffffffffffffffffffffffffffffffffffffff16815260200190815260200160002060006101000a81548160ff0219169083151502179055506000601260006013848154811061496857fe5b9060005260206000200160009054906101000a900473ffffffffffffffffffffffffffffffffffffffff1673ffffffffffffffffffffffffffffffffffffffff1673ffffffffffffffffffffffffffffffffffffffff16815260200190815260200160002060006101000a81548160ff02191690831515021790555080806001019150506148b9565b506000601380549050905060005b81811015614a54576013805480614a1257fe5b6001900381819060005260206000200160006101000a81549073ffffffffffffffffffffffffffffffffffffffff0219169055905580806001019150506149ff565b5050565b600960009054906101000a900473ffffffffffffffffffffffffffffffffffffffff1673ffffffffffffffffffffffffffffffffffffffff1663ebcb12f6826040518263ffffffff1660e01b8152600401614ab3919061648c565b600060405180830381600087803b158015614acd57600080fd5b505af1158015614ae1573d6000803e3d6000fd5b50505050600080600090505b60048160ff161015614c175760048160ff1660048110614b0957fe5b0160009054906101000a900473ffffffffffffffffffffffffffffffffffffffff1673ffffffffffffffffffffffffffffffffffffffff1663313ce5676040518163ffffffff1660e01b815260040160206040518083038186803b158015614b7057600080fd5b505afa158015614b84573d6000803e3d6000fd5b505050506040513d601f19601f82011682018060405250810190614ba89190615b10565b60ff169150614c04614bf383600a0a614be5670de0b6b3a7640000878660ff1660048110614bd257fe5b60200201516140b690919063ffffffff16565b61412690919063ffffffff16565b600c5461417c90919063ffffffff16565b600c819055508080600101915050614aed565b505050565b6000614c2782611721565b9050600860009054906101000a900473ffffffffffffffffffffffffffffffffffffffff1673ffffffffffffffffffffffffffffffffffffffff16639dc29fac33856040518363ffffffff1660e01b8152600401614c869291906162fe565b600060405180830381600087803b158015614ca057600080fd5b505af1158015614cb4573d6000803e3d6000fd5b50505050808411614f2557600060048360048110614cce57fe5b0160009054906101000a900473ffffffffffffffffffffffffffffffffffffffff1673ffffffffffffffffffffffffffffffffffffffff1663313ce5676040518163ffffffff1660e01b815260040160206040518083038186803b158015614d3557600080fd5b505afa158015614d49573d6000803e3d6000fd5b505050506040513d601f19601f82011682018060405250810190614d6d9190615b10565b60ff1690506000614dcb612710614dbd600160009054906101000a90046fffffffffffffffffffffffffffffffff166fffffffffffffffffffffffffffffffff16896140b690919063ffffffff16565b61412690919063ffffffff16565b9050614e23614e1283600a0a614e04670de0b6b3a7640000614df6868c61447390919063ffffffff16565b6140b690919063ffffffff16565b61412690919063ffffffff16565b60035461447390919063ffffffff16565b600381905550614e333386614549565b614e9e33614e4a838961447390919063ffffffff16565b60048760048110614e5757fe5b0160009054906101000a900473ffffffffffffffffffffffffffffffffffffffff1673ffffffffffffffffffffffffffffffffffffffff166144c39092919063ffffffff16565b7f05e94af811ccb220574ce9f299ec388068c5f6cafb7666364479fbb7e30571c633614ed3838961447390919063ffffffff16565b86604051614ee393929190616327565b60405180910390a1614f0c81601e8660048110614efc57fe5b015461417c90919063ffffffff16565b601e8560048110614f1957fe5b01819055505050615009565b6014546013805490501080614f835750601260003373ffffffffffffffffffffffffffffffffffffffff1673ffffffffffffffffffffffffffffffffffffffff16815260200190815260200160002060009054906101000a900460ff165b614fc2576040517f08c379a0000000000000000000000000000000000000000000000000000000008152600401614fb990616684565b60405180910390fd5b614fcd8484846150d6565b7f8a2144818f0af982468c746133b0dc23424c3b48c50e5cdbb88fdf294d03188e33858460405161500093929190616327565b60405180910390a15b50505050565b6060615071826040518060400160405280602081526020017f5361666545524332303a206c6f772d6c6576656c2063616c6c206661696c65648152508573ffffffffffffffffffffffffffffffffffffffff166155359092919063ffffffff16565b90506000815111156150d157808060200190518101906150919190615a30565b6150d0576040517f08c379a00000000000000000000000000000000000000000000000000000000081526004016150c7906167a4565b60405180910390fd5b5b505050565b61513483601060003373ffffffffffffffffffffffffffffffffffffffff1673ffffffffffffffffffffffffffffffffffffffff168152602001908152602001600020836004811061512457fe5b015461417c90919063ffffffff16565b601060003373ffffffffffffffffffffffffffffffffffffffff1673ffffffffffffffffffffffffffffffffffffffff168152602001908152602001600020826004811061517e57fe5b01819055506151e182601160003373ffffffffffffffffffffffffffffffffffffffff1673ffffffffffffffffffffffffffffffffffffffff16815260200190815260200160002083600481106151d157fe5b015461417c90919063ffffffff16565b601160003373ffffffffffffffffffffffffffffffffffffffff1673ffffffffffffffffffffffffffffffffffffffff168152602001908152602001600020826004811061522b57fe5b0181905550600061523b82611721565b90506000615252828661447390919063ffffffff16565b9050615275826019856004811061526557fe5b015461417c90919063ffffffff16565b6019846004811061528257fe5b01819055506152a8816015856004811061529857fe5b015461417c90919063ffffffff16565b601584600481106152b557fe5b018190555060008060005b60048110156153d957600481600481106152d657fe5b0160009054906101000a900473ffffffffffffffffffffffffffffffffffffffff1673ffffffffffffffffffffffffffffffffffffffff1663313ce5676040518163ffffffff1660e01b815260040160206040518083038186803b15801561533d57600080fd5b505afa158015615351573d6000803e3d6000fd5b505050506040513d601f19601f820116820180604052508101906153759190615b10565b60ff1691506153ca6153bb83600a0a6153ad670de0b6b3a76400006015866004811061539d57fe5b01546140b690919063ffffffff16565b61412690919063ffffffff16565b8461417c90919063ffffffff16565b925080806001019150506152c0565b50600c5482111561541f576040517f08c379a000000000000000000000000000000000000000000000000000000000815260040161541690616624565b60405180910390fd5b601260003373ffffffffffffffffffffffffffffffffffffffff1673ffffffffffffffffffffffffffffffffffffffff16815260200190815260200160002060009054906101000a900460ff1661552c576001601260003373ffffffffffffffffffffffffffffffffffffffff1673ffffffffffffffffffffffffffffffffffffffff16815260200190815260200160002060006101000a81548160ff0219169083151502179055506013339080600181540180825580915050600190039060005260206000200160009091909190916101000a81548173ffffffffffffffffffffffffffffffffffffffff021916908373ffffffffffffffffffffffffffffffffffffffff1602179055505b50505050505050565b6060615544848460008561554d565b90509392505050565b606082471015615592576040517f08c379a0000000000000000000000000000000000000000000000000000000008152600401615589906165e4565b60405180910390fd5b61559b85615662565b6155da576040517f08c379a00000000000000000000000000000000000000000000000000000000081526004016155d190616744565b60405180910390fd5b600060608673ffffffffffffffffffffffffffffffffffffffff16858760405161560491906162b1565b60006040518083038185875af1925050503d8060008114615641576040519150601f19603f3d011682016040523d82523d6000602084013e615646565b606091505b50915091506156568282866156ad565b92505050949350505050565b60008060007fc5d2460186f7233c927e7db2dcc703c0e500b653ca82273b7bfad8045d85a47060001b9050833f91508082141580156156a457506000801b8214155b92505050919050565b606083156156bd5782905061570d565b6000835111156156d05782518084602001fd5b816040517f08c379a00000000000000000000000000000000000000000000000000000000081526004016157049190616522565b60405180910390fd5b9392505050565b6040518060800160405280600490602082028036833780820191505090505090565b60008135905061574581616ac4565b92915050565b600082601f83011261575c57600080fd5b600461576f61576a826168fe565b6168d1565b9150818385602084028201111561578557600080fd5b60005b838110156157b5578161579b8882615872565b845260208401935060208301925050600181019050615788565b5050505092915050565b600082601f8301126157d057600080fd5b60046157e36157de826168fe565b6168d1565b915081838560208402820111156157f957600080fd5b60005b83811015615829578161580f8882615887565b8452602084019350602083019250506001810190506157fc565b5050505092915050565b60008135905061584281616adb565b92915050565b60008151905061585781616adb565b92915050565b60008135905061586c81616af2565b92915050565b60008135905061588181616b09565b92915050565b60008151905061589681616b09565b92915050565b6000815190506158ab81616b20565b92915050565b6000602082840312156158c357600080fd5b60006158d184828501615736565b91505092915050565b600080604083850312156158ed57600080fd5b60006158fb85828601615736565b925050602061590c85828601615872565b9150509250929050565b60008060006060848603121561592b57600080fd5b600061593986828701615736565b935050602061594a86828701615872565b925050604061595b86828701615833565b9150509250925092565b60006080828403121561597757600080fd5b60006159858482850161574b565b91505092915050565b6000608082840312156159a057600080fd5b60006159ae848285016157bf565b91505092915050565b600080600061012084860312156159cd57600080fd5b60006159db8682870161574b565b93505060806159ec86828701615736565b92505060a06159fd8682870161574b565b9150509250925092565b600060208284031215615a1957600080fd5b6000615a2784828501615833565b91505092915050565b600060208284031215615a4257600080fd5b6000615a5084828501615848565b91505092915050565b600060208284031215615a6b57600080fd5b6000615a798482850161585d565b91505092915050565b600060208284031215615a9457600080fd5b6000615aa284828501615872565b91505092915050565b600060208284031215615abd57600080fd5b6000615acb84828501615887565b91505092915050565b60008060408385031215615ae757600080fd5b6000615af585828601615872565b9250506020615b0685828601615872565b9150509250929050565b600060208284031215615b2257600080fd5b6000615b308482850161589c565b91505092915050565b6000615b458383616284565b60208301905092915050565b615b5a816169f0565b82525050565b615b698161697f565b82525050565b615b788161692a565b615b828184616958565b9250615b8d82616920565b8060005b83811015615bbe578151615ba58782615b39565b9650615bb08361694b565b925050600181019050615b91565b505050505050565b615bcf81616991565b82525050565b6000615be082616935565b615bea8185616963565b9350615bfa818560208601616a80565b80840191505092915050565b615c0f81616a02565b82525050565b615c1e81616a26565b82525050565b6000615c2f82616940565b615c39818561696e565b9350615c49818560208601616a80565b615c5281616ab3565b840191505092915050565b6000615c6a60168361696e565b91507f72657175657374207769746864726177206669727374000000000000000000006000830152602082019050919050565b6000615caa60148361696e565b91507f616d6f756e742063616e2774206265207a65726f0000000000000000000000006000830152602082019050919050565b6000615cea60358361696e565b91507f596f75206d757374206265206e6f6d696e61746564206265666f726520796f7560008301527f2063616e20616363657074206f776e65727368697000000000000000000000006020830152604082019050919050565b6000615d50601b8361696e565b91507f536166654d6174683a206164646974696f6e206f766572666c6f7700000000006000830152602082019050919050565b6000615d90601e8361696e565b91507f536166654d6174683a207375627472616374696f6e206f766572666c6f7700006000830152602082019050919050565b6000615dd060268361696e565b91507f416464726573733a20696e73756666696369656e742062616c616e636520666f60008301527f722063616c6c00000000000000000000000000000000000000000000000000006020830152604082019050919050565b6000615e36601a8361696e565b91507f536166654d6174683a206469766973696f6e206279207a65726f0000000000006000830152602082019050919050565b6000615e7660128361696e565b91507f4e6f7420656e6f7567682062616c616e636500000000000000000000000000006000830152602082019050919050565b6000615eb660028361696e565b91507f4e560000000000000000000000000000000000000000000000000000000000006000830152602082019050919050565b6000615ef6600b8361696e565b91507f717565756520656d7074790000000000000000000000000000000000000000006000830152602082019050919050565b6000615f3660178361696e565b91507f7265717565737473206c696d69742045786365656465640000000000000000006000830152602082019050919050565b6000615f76601f8361696e565b91507f43616c6c207769746864726177416c6c2066756e6374696f6e206669727374006000830152602082019050919050565b6000615fb6600c8361696e565b91507f457863656564206c696d697400000000000000000000000000000000000000006000830152602082019050919050565b6000615ff660218361696e565b91507f536166654d6174683a206d756c7469706c69636174696f6e206f766572666c6f60008301527f77000000000000000000000000000000000000000000000000000000000000006020830152604082019050919050565b600061605c60028361696e565b91507f4e410000000000000000000000000000000000000000000000000000000000006000830152602082019050919050565b600061609c60078361696e565b91507f6c6f7720525054000000000000000000000000000000000000000000000000006000830152602082019050919050565b60006160dc601d8361696e565b91507f416464726573733a2063616c6c20746f206e6f6e2d636f6e74726163740000006000830152602082019050919050565b600061611c60138361696e565b91507f616d6f756e742063616e206e6f74207a65726f000000000000000000000000006000830152602082019050919050565b600061615c60178361696e565b91507f4e6f7420456e6f75676820506f6f6c2062616c616e63650000000000000000006000830152602082019050919050565b600061619c602a8361696e565b91507f5361666545524332303a204552433230206f7065726174696f6e20646964206e60008301527f6f742073756363656564000000000000000000000000000000000000000000006020830152604082019050919050565b6000616202601f8361696e565b91507f5265656e7472616e637947756172643a207265656e7472616e742063616c6c006000830152602082019050919050565b6000616242600b8361696e565b91507f436c61696d2066697273740000000000000000000000000000000000000000006000830152602082019050919050565b61627e8161699d565b82525050565b61628d816169d9565b82525050565b61629c816169d9565b82525050565b6162ab81616a6e565b82525050565b60006162bd8284615bd5565b915081905092915050565b60006020820190506162dd6000830184615b60565b92915050565b60006020820190506162f86000830184615b51565b92915050565b60006040820190506163136000830185615b51565b6163206020830184616293565b9392505050565b600060608201905061633c6000830186615b51565b6163496020830185616293565b6163566040830184616293565b949350505050565b60006060820190506163736000830186615b51565b6163806020830185616293565b61638d60408301846162a2565b949350505050565b60006040820190506163aa6000830185615b60565b6163b76020830184615b60565b9392505050565b60006060820190506163d36000830186615b60565b6163e06020830185615b60565b6163ed6040830184616293565b949350505050565b600060408201905061640a6000830185615b60565b6164176020830184616293565b9392505050565b60006060820190506164336000830186615b60565b6164406020830185616293565b61644d6040830184616293565b949350505050565b600060608201905061646a6000830186615b60565b6164776020830185616293565b61648460408301846162a2565b949350505050565b60006080820190506164a16000830184615b6f565b92915050565b6000610100820190506164bd6000830185615b6f565b6164ca6080830184615b6f565b9392505050565b60006020820190506164e66000830184615bc6565b92915050565b60006020820190506165016000830184615c06565b92915050565b600060208201905061651c6000830184615c15565b92915050565b6000602082019050818103600083015261653c8184615c24565b905092915050565b6000602082019050818103600083015261655d81615c5d565b9050919050565b6000602082019050818103600083015261657d81615c9d565b9050919050565b6000602082019050818103600083015261659d81615cdd565b9050919050565b600060208201905081810360008301526165bd81615d43565b9050919050565b600060208201905081810360008301526165dd81615d83565b9050919050565b600060208201905081810360008301526165fd81615dc3565b9050919050565b6000602082019050818103600083015261661d81615e29565b9050919050565b6000602082019050818103600083015261663d81615e69565b9050919050565b6000602082019050818103600083015261665d81615ea9565b9050919050565b6000602082019050818103600083015261667d81615ee9565b9050919050565b6000602082019050818103600083015261669d81615f29565b9050919050565b600060208201905081810360008301526166bd81615f69565b9050919050565b600060208201905081810360008301526166dd81615fa9565b9050919050565b600060208201905081810360008301526166fd81615fe9565b9050919050565b6000602082019050818103600083015261671d8161604f565b9050919050565b6000602082019050818103600083015261673d8161608f565b9050919050565b6000602082019050818103600083015261675d816160cf565b9050919050565b6000602082019050818103600083015261677d8161610f565b9050919050565b6000602082019050818103600083015261679d8161614f565b9050919050565b600060208201905081810360008301526167bd8161618f565b9050919050565b600060208201905081810360008301526167dd816161f5565b9050919050565b600060208201905081810360008301526167fd81616235565b9050919050565b60006020820190506168196000830184616275565b92915050565b60006020820190506168346000830184616293565b92915050565b600060408201905061684f6000830185616293565b61685c6020830184616293565b9392505050565b60006080820190506168786000830187616293565b6168856020830186616293565b6168926040830185616293565b61689f6060830184616293565b95945050505050565b60006040820190506168bd6000830185616293565b6168ca60208301846162a2565b9392505050565b6000604051905081810181811067ffffffffffffffff821117156168f457600080fd5b8060405250919050565b600067ffffffffffffffff82111561691557600080fd5b602082029050919050565b6000819050919050565b600060049050919050565b600081519050919050565b600081519050919050565b6000602082019050919050565b600081905092915050565b600081905092915050565b600082825260208201905092915050565b600061698a826169b9565b9050919050565b60008115159050919050565b60006fffffffffffffffffffffffffffffffff82169050919050565b600073ffffffffffffffffffffffffffffffffffffffff82169050919050565b6000819050919050565b600060ff82169050919050565b60006169fb82616a4a565b9050919050565b6000616a0d82616a14565b9050919050565b6000616a1f826169b9565b9050919050565b6000616a3182616a38565b9050919050565b6000616a43826169b9565b9050919050565b6000616a5582616a5c565b9050919050565b6000616a67826169b9565b9050919050565b6000616a79826169e3565b9050919050565b60005b83811015616a9e578082015181840152602081019050616a83565b83811115616aad576000848401525b50505050565b6000601f19601f8301169050919050565b616acd8161697f565b8114616ad857600080fd5b50565b616ae481616991565b8114616aef57600080fd5b50565b616afb8161699d565b8114616b0657600080fd5b50565b616b12816169d9565b8114616b1d57600080fd5b50565b616b29816169e3565b8114616b3457600080fd5b5056fea26469706673582212201c4aab0a8b7bde9a008a708358ba2c743675ef26eb52911d67f75f24462098a964736f6c634300060c0033",
  "immutableReferences": {},
  "source": "// SPDX-License-Identifier: UNLICENSED\r\npragma solidity ^0.6.0;\r\npragma experimental ABIEncoderV2;\r\n\r\n\r\nimport '../../Interfaces/StrategyInterface.sol';\r\nimport \"@openzeppelin/contracts/utils/ReentrancyGuard.sol\";\r\nimport './SafeERC20.sol';\r\n\r\ncontract RoyaleLP is ReentrancyGuard {\r\n    using SafeERC20 for IERC20;\r\n    using SafeMath for uint256;\r\n\r\n    uint256 constant public N_COINS=4;\r\n    \r\n    uint256 public constant DENOMINATOR = 10000;\r\n\r\n    uint128 public fees = 25; // for .25% fee, for 1.75% fee => 175\r\n\r\n    uint256 public poolPart = 750 ; // 7.5% of total Liquidity will remain in the pool\r\n\r\n    uint256 public selfBalance;\r\n\r\n    IERC20[N_COINS] public tokens;\r\n\r\n    IERC20 public rpToken;\r\n\r\n    rStrategy public strategy;\r\n    \r\n    address public wallet;\r\n    \r\n    address public nominatedWallet;\r\n\r\n    uint public YieldPoolBalance;\r\n    uint public liquidityProvidersAPY;\r\n\r\n    //storage for user related to supply and withdraw\r\n    \r\n    uint256 public lock_period = 1 minutes;\r\n\r\n    struct depositDetails {\r\n        uint index;\r\n        uint amount;\r\n        uint256 time;\r\n        uint256 remAmt;\r\n    }\r\n    \r\n    mapping(address => depositDetails[]) public amountSupplied;\r\n    mapping(address => uint256[N_COINS]) public amountWithdraw;\r\n    mapping(address => uint256[N_COINS]) public amountBurnt;\r\n    \r\n    mapping(address => bool) public isInQ;\r\n    \r\n    address[] public withdrawRecipients;\r\n    \r\n    uint public maxWithdrawRequests=25;\r\n    \r\n    uint256[N_COINS] public totalWithdraw;\r\n    \r\n    uint[N_COINS] public reserveAmount;\r\n    mapping(address => bool)public reserveRecipients;\r\n\r\n\r\n    uint[N_COINS] public storedFees;\r\n    \r\n    //storage to store total loan given\r\n    uint256 public loanGiven;\r\n    \r\n    uint public loanPart=2000;\r\n    \r\n  \r\n    modifier onlyWallet(){\r\n      require(wallet ==msg.sender, \"NA\");\r\n      _;\r\n    }\r\n  \r\n     modifier validAmount(uint amount){\r\n      require(amount > 0 , \"NV\");\r\n      _;\r\n    }\r\n    \r\n    // EVENTS \r\n    event userSupplied(address user,uint amount,uint index);\r\n    event userRecieved(address user,uint amount,uint index);\r\n    event userAddedToQ(address user,uint amount,uint index);\r\n    event feesTransfered(address user,uint amount,uint index);\r\n    event loanTransfered(address recipient,uint amount,uint index);\r\n    event loanRepayed(uint amount,uint index);\r\n    event yieldAdded(uint amount,uint index);\r\n    event walletNominated(address newOwner);\r\n    event walletChanged(address oldOwner, address newOwner);\r\n   \r\n    \r\n    constructor(address[N_COINS] memory _tokens,address _rpToken,address _wallet) public {\r\n        require(_wallet != address(0), \"Wallet address cannot be 0\");\r\n        for(uint8 i=0; i<N_COINS; i++) {\r\n            tokens[i] = IERC20(_tokens[i]);\r\n        }\r\n        rpToken = IERC20(_rpToken);\r\n        wallet=_wallet;\r\n    }\r\n    \r\n    function nominateNewOwner(address _wallet) external onlyWallet {\r\n        nominatedWallet = _wallet;\r\n        emit walletNominated(_wallet);\r\n    }\r\n\r\n    function acceptOwnership() external {\r\n        require(msg.sender == nominatedWallet, \"You must be nominated before you can accept ownership\");\r\n        emit walletChanged(wallet, nominatedWallet);\r\n        wallet = nominatedWallet;\r\n        nominatedWallet = address(0);\r\n    }\r\n\r\n\r\n    /* INTERNAL FUNCTIONS */\r\n   \r\n    \r\n    //For checking whether array contains any non zero elements or not.\r\n    function checkValidArray(uint256[N_COINS] memory amounts)internal pure returns(bool){\r\n        for(uint8 i=0;i<N_COINS;i++){\r\n            if(amounts[i]>0){\r\n                return true;\r\n            }\r\n        }\r\n        return false;\r\n    }\r\n\r\n    // This function deposits the liquidity to yield generation pool using yield Strategy contract\r\n    function _deposit(uint256[N_COINS] memory amounts) internal {\r\n        strategy.deposit(amounts);\r\n        uint decimal;\r\n        for(uint8 i=0;i<N_COINS;i++){\r\n            decimal=tokens[i].decimals();\r\n            YieldPoolBalance =YieldPoolBalance.add(amounts[i].mul(10**18).div(10**decimal));\r\n        }\r\n    }\r\n   \r\n\r\n    //This function is used to updating the array of user's individual deposit , called when users withdraw/claim tokens.\r\n    function updateLockedRPT(address recipient,uint256 amount) internal{\r\n        for(uint8 j=0; j<amountSupplied[recipient].length; j++) {\r\n            if(amountSupplied[recipient][j].remAmt > 0 && amount > 0 ) {\r\n                if(amount >= amountSupplied[recipient][j].remAmt) {\r\n                        amount = amount.sub( amountSupplied[recipient][j].remAmt);\r\n                        amountSupplied[recipient][j].remAmt = 0;\r\n                }\r\n                else {\r\n                        amountSupplied[recipient][j].remAmt =(amountSupplied[recipient][j].remAmt).sub(amount);\r\n                        amount = 0;\r\n                }\r\n            }\r\n        }\r\n     }\r\n\r\n    //Funtion determines whether requested withdrawl amount is available in the pool or not.\r\n    //If yes then fulfills withdraw request \r\n    //and if no then put the request into the withdraw queue.\r\n    function checkWithdraw(uint256 amount,uint256 burnAmt,uint _index) internal{\r\n        uint256 poolBalance;\r\n        poolBalance = getBalances(_index);\r\n        rpToken.burn(msg.sender, burnAmt);\r\n        if(amount <= poolBalance) {\r\n            uint decimal;\r\n            decimal=tokens[_index].decimals();\r\n            uint temp = amount.mul(fees).div(DENOMINATOR);\r\n            selfBalance=selfBalance.sub((amount.sub(temp)).mul(10**18).div(10**decimal));\r\n            updateLockedRPT(msg.sender,burnAmt);\r\n            tokens[_index].safeTransfer(msg.sender, amount.sub(temp));\r\n            emit userRecieved(msg.sender, amount.sub(temp),_index);\r\n            storedFees[_index] =storedFees[_index].add(temp);    \r\n        }\r\n         else {\r\n             require(withdrawRecipients.length<maxWithdrawRequests || isInQ[msg.sender],\"requests limit Exceeded\");\r\n            _takeBackQ(amount,burnAmt,_index);\r\n            emit userAddedToQ(msg.sender, amount,_index);\r\n        }\r\n    }\r\n\r\n\r\n\r\n    // this will add unfulfilled withdraw requests to the withdrawl queue\r\n    function _takeBackQ(uint256 amount,uint256 _burnAmount,uint256 _index) internal {\r\n        amountWithdraw[msg.sender][_index] =amountWithdraw[msg.sender][_index].add( amount);\r\n        amountBurnt[msg.sender][_index]=amountBurnt[msg.sender][_index].add(_burnAmount);\r\n        uint currentPoolAmount=getBalances(_index);\r\n        uint withdrawAmount=amount.sub(currentPoolAmount);\r\n        reserveAmount[_index] = reserveAmount[_index].add(currentPoolAmount);\r\n        totalWithdraw[_index]=totalWithdraw[_index].add(withdrawAmount);\r\n        uint total;\r\n        uint decimal;\r\n        for(uint i=0;i<N_COINS;i++){\r\n            decimal=tokens[i].decimals();\r\n            total = total.add(totalWithdraw[i].mul(10**18).div(10**decimal));\r\n        }\r\n        require(total<=YieldPoolBalance,\"Not enough balance\");\r\n        if(!isInQ[msg.sender]) {\r\n            isInQ[msg.sender] = true;\r\n            withdrawRecipients.push(msg.sender);\r\n            \r\n        }\r\n\r\n    }\r\n\r\n\r\n    //this function is called when Royale Govenance withdrawl from yield generation pool.It add all the withdrawl amount in the reserve amount.\r\n    //All the users who requested for the withdrawl are added to the reserveRecipients.\r\n    function updateWithdrawQueue() internal{\r\n        for(uint8 i=0;i<N_COINS;i++){\r\n            reserveAmount[i]=reserveAmount[i].add(totalWithdraw[i]);\r\n            totalWithdraw[i]=0;\r\n        }\r\n        for(uint i=0; i<withdrawRecipients.length; i++) {\r\n            reserveRecipients[withdrawRecipients[i]]=true;\r\n            isInQ[withdrawRecipients[i]]=false;\r\n        }\r\n        uint count=withdrawRecipients.length;\r\n        for(uint i=0;i<count;i++){\r\n            withdrawRecipients.pop();\r\n        }\r\n    }\r\n\r\n    // this will withdraw Liquidity from yield genaration pool using yield Strategy\r\n    function _withdraw(uint256[N_COINS] memory amounts , uint[N_COINS] memory max_burn) internal {\r\n        strategy.withdraw(amounts,max_burn);\r\n        uint decimal;\r\n        for(uint8 i=0;i<N_COINS;i++){\r\n            decimal=tokens[i].decimals();\r\n            YieldPoolBalance =YieldPoolBalance.sub(amounts[i].mul(10**18).div(10**decimal));\r\n        }\r\n    }\r\n\r\n    //This function calculate RPT to be mint or burn\r\n    //amount parameter is amount of token\r\n    //_index can be 0/1/2 \r\n    //0-DAI\r\n    //1-USDC\r\n    //2-USDT\r\n    function calcRptAmount(uint256 amount,uint _index) public view returns(uint256) {\r\n        uint256 total = calculateTotalToken(true);\r\n        uint256 decimal = 0;\r\n        decimal=tokens[_index].decimals();\r\n        amount=amount.mul(1e18).div(10**decimal);\r\n        if(total==0){\r\n            return amount;\r\n        }\r\n        else{\r\n          return (amount.mul(rpToken.totalSupply()).div(total)); \r\n        }\r\n    }\r\n\r\n\r\n\r\n    //function to check available amount to withdraw for user\r\n    function availableLiquidity(address addr, uint coin,bool _time) public view returns(uint256 token,uint256 RPT) {\r\n        uint256 amount=0;\r\n        for(uint8 j=0; j<amountSupplied[addr].length; j++) {\r\n                if( (!_time || (now - amountSupplied[addr][j].time)  > lock_period)&&amountSupplied[addr][j].remAmt >0)   {\r\n                        amount =amount.add(amountSupplied[addr][j].remAmt);\r\n                }\r\n        }\r\n        for(uint8 i=0;i<N_COINS;i++){\r\n            amount =amount.sub(amountBurnt[addr][i]);\r\n        }\r\n        uint256 total=calculateTotalToken(true);\r\n        uint256 decimal;\r\n        decimal=tokens[coin].decimals();\r\n        return ((amount.mul(total).mul(10**decimal).div(rpToken.totalSupply())).div(10**18),amount);\r\n    }\r\n    \r\n\r\n    //calculated available total tokens in the pool by substracting withdrawal, reserve amount.\r\n    //In case supply is true , it adds total loan given.\r\n    function calculateTotalToken(bool _supply)public view returns(uint256){\r\n        uint256 decimal;\r\n        uint withdrawTotal;\r\n        uint reserveTotal;\r\n        uint storedFeesTotal;\r\n        for(uint8 i=0; i<N_COINS; i++) {\r\n            decimal = tokens[i].decimals();\r\n            withdrawTotal=withdrawTotal.add(totalWithdraw[i].mul(1e18).div(10**decimal));\r\n            reserveTotal=reserveTotal.add(reserveAmount[i].mul(1e18).div(10**decimal));\r\n            storedFeesTotal=storedFeesTotal.add(storedFees[i].mul(1e18).div(10**decimal));\r\n        } \r\n        if(_supply){\r\n            return selfBalance.sub(withdrawTotal).sub(reserveTotal).sub(storedFeesTotal).add(loanGiven);\r\n        }\r\n        else{\r\n            return selfBalance.sub(withdrawTotal).sub(reserveTotal).sub(storedFeesTotal);\r\n        }\r\n        \r\n    }\r\n    \r\n    /* USER FUNCTIONS (exposed to frontend) */\r\n   \r\n    //For depositing liquidity to the pool.\r\n    //_index will be 0/1/2     0-DAI , 1-USDC , 2-USDT\r\n    function supply(uint256 amount,uint256 _index) external nonReentrant  validAmount(amount){\r\n        uint decimal;\r\n        uint256 mintAmount=calcRptAmount(amount,_index);\r\n        amountSupplied[msg.sender].push(depositDetails(_index,amount,now,mintAmount));\r\n        decimal=tokens[_index].decimals();\r\n        selfBalance=selfBalance.add(amount.mul(10**18).div(10**decimal));\r\n        tokens[_index].safeTransferFrom(msg.sender, address(this), amount);\r\n        rpToken.mint(msg.sender, mintAmount);\r\n        emit userSupplied(msg.sender, amount,_index);\r\n    }\r\n\r\n    \r\n    //for withdrawing the liquidity\r\n    //First Parameter is amount of RPT\r\n    //Second is which token to be withdrawal with this RPT.\r\n    function requestWithdrawWithRPT(uint256 amount,uint256 _index) external nonReentrant validAmount(amount){\r\n        require(!reserveRecipients[msg.sender],\"Claim first\");\r\n        require(rpToken.balanceOf(msg.sender) >= amount, \"low RPT\");\r\n        (,uint availableRPT)=availableLiquidity(msg.sender,_index,true );\r\n        require(availableRPT>=amount,\"NA\");\r\n        uint256 total = calculateTotalToken(true);\r\n        uint256 tokenAmount;\r\n        tokenAmount=amount.mul(total).div(rpToken.totalSupply());\r\n        require(tokenAmount <= calculateTotalToken(false),\"Not Enough Pool balance\");\r\n        uint decimal;\r\n        decimal=tokens[_index].decimals();\r\n        checkWithdraw(tokenAmount.mul(10**decimal).div(10**18),amount,_index);  \r\n    }\r\n    \r\n    //For claiming withdrawal after user added to the reserve recipient.\r\n    function claimTokens() external  nonReentrant{\r\n        require(reserveRecipients[msg.sender] , \"request withdraw first\");\r\n        uint totalBurnt;\r\n        uint decimal;\r\n        for(uint8 i=0; i<N_COINS; i++) {\r\n            if(amountWithdraw[msg.sender][i] > 0) {\r\n                decimal=tokens[i].decimals();\r\n                uint temp = (amountWithdraw[msg.sender][i].mul(fees)).div(DENOMINATOR);\r\n                reserveAmount[i] =reserveAmount[i].sub(amountWithdraw[msg.sender][i]);\r\n                selfBalance = selfBalance.sub((amountWithdraw[msg.sender][i].sub(temp)).mul(1e18).div(10**decimal));\r\n                totalBurnt =totalBurnt.add(amountBurnt[msg.sender][i]);\r\n                tokens[i].safeTransfer(msg.sender, amountWithdraw[msg.sender][i].sub(temp));\r\n                emit userRecieved(msg.sender,amountWithdraw[msg.sender][i].sub(temp),i);\r\n                amountWithdraw[msg.sender][i] = 0;\r\n                amountBurnt[msg.sender][i]=0;\r\n                storedFees[i] =storedFees[i].add(temp);\r\n               \r\n            }\r\n        }\r\n        updateLockedRPT(msg.sender,totalBurnt);\r\n        reserveRecipients[msg.sender] = false;\r\n    }\r\n\r\n    // this function deposits without minting RPT.\r\n    //Used to deposit Yield\r\n    function depositYield(uint256 amount,uint _index) external{\r\n        uint decimal;\r\n        decimal=tokens[_index].decimals();\r\n        selfBalance=selfBalance.add(amount.mul(1e18).div(10**decimal));\r\n        liquidityProvidersAPY=liquidityProvidersAPY.add(amount.mul(1e18).div(10**decimal));\r\n        tokens[_index].safeTransferFrom(msg.sender,address(this),amount);\r\n        emit yieldAdded(amount,_index);\r\n    }\r\n\r\n\r\n    /* CORE FUNCTIONS (called by owner only) */\r\n\r\n    //Transfer token z`1   o rStrategy by maintaining pool ratio.\r\n    function deposit() onlyWallet() external  {\r\n        uint256[N_COINS] memory amounts;\r\n        uint256 totalAmount;\r\n        uint256 decimal;\r\n        totalAmount=calculateTotalToken(false);\r\n        uint balanceAmount=totalAmount.mul(poolPart).div(N_COINS).div(DENOMINATOR);\r\n        uint tokenBalance;\r\n        for(uint8 i=0;i<N_COINS;i++){\r\n            decimal=tokens[i].decimals();\r\n            amounts[i]=getBalances(i);\r\n            tokenBalance=balanceAmount.mul(10**decimal).div(10**18);\r\n            if(amounts[i]>tokenBalance) {\r\n                amounts[i]=amounts[i].sub(tokenBalance);\r\n                tokens[i].safeTransfer(address(strategy),amounts[i]);\r\n            }\r\n            else{\r\n                amounts[i]=0;\r\n            }\r\n        }\r\n        if(checkValidArray(amounts)){\r\n            _deposit(amounts);\r\n        }\r\n    }\r\n    \r\n\r\n    //Withdraw from Yield genaration pool.\r\n    function withdraw(uint[N_COINS] memory max_burn) onlyWallet() external  {\r\n        require(checkValidArray(totalWithdraw), \"queue empty\");\r\n        _withdraw(totalWithdraw,max_burn);\r\n        updateWithdrawQueue();\r\n    }\r\n\r\n   //Withdraw total liquidity from yield generation pool\r\n    function withdrawAll() external onlyWallet() {\r\n        uint[N_COINS] memory amounts;\r\n        amounts=strategy.withdrawAll();\r\n        uint decimal;\r\n        selfBalance=0;\r\n        for(uint8 i=0;i<N_COINS;i++){\r\n            decimal=tokens[i].decimals();\r\n            selfBalance=selfBalance.add((tokens[i].balanceOf(address(this))).mul(1e18).div(10**decimal));\r\n        }\r\n        YieldPoolBalance=0;\r\n        updateWithdrawQueue();\r\n    }\r\n\r\n\r\n    //function for rebalancing royale pool(ratio)       \r\n    function rebalance(uint[N_COINS] memory max_burn) onlyWallet() external {\r\n        uint256 currentAmount;\r\n        uint256[N_COINS] memory amountToWithdraw;\r\n        uint256[N_COINS] memory amountToDeposit;\r\n        uint totalAmount;\r\n        uint256 decimal;\r\n        totalAmount=calculateTotalToken(false);\r\n        uint balanceAmount=totalAmount.mul(poolPart).div(N_COINS).div(DENOMINATOR);\r\n        uint tokenBalance;\r\n        for(uint8 i=0;i<N_COINS;i++) {\r\n           currentAmount=getBalances(i);\r\n           decimal=tokens[i].decimals();\r\n           tokenBalance=balanceAmount.mul(10**decimal).div(10**18);\r\n           if(tokenBalance > currentAmount) {\r\n              amountToWithdraw[i] = tokenBalance.sub(currentAmount);\r\n           }\r\n           else if(tokenBalance < currentAmount) {\r\n               amountToDeposit[i] = currentAmount.sub(tokenBalance);\r\n               tokens[i].safeTransfer(address(strategy), amountToDeposit[i]);\r\n               \r\n           }\r\n           else {\r\n               amountToWithdraw[i] = 0;\r\n               amountToDeposit[i] = 0;\r\n           }\r\n        }\r\n        if(checkValidArray(amountToDeposit)){\r\n             _deposit(amountToDeposit);\r\n             \r\n        }\r\n        if(checkValidArray(amountToWithdraw)) {\r\n            _withdraw(amountToWithdraw,max_burn);\r\n            \r\n        }\r\n\r\n    }\r\n    \r\n    //For withdrawing loan from the royale Pool\r\n    function withdrawLoan(uint[N_COINS] memory amounts,address _recipient,uint[N_COINS] memory max_burn)external onlyWallet(){\r\n        require(checkValidArray(amounts),\"amount can not zero\");\r\n        uint decimal;\r\n        uint total;\r\n        for(uint i=0;i<N_COINS;i++){\r\n           decimal=tokens[i].decimals();\r\n           total=total.add(amounts[i].mul(1e18).div(10**decimal));\r\n        }\r\n        require(loanGiven.add(total)<=(calculateTotalToken(true).mul(loanPart).div(DENOMINATOR)),\"Exceed limit\");\r\n        require(total<calculateTotalToken(false),\"Not enough balance\");\r\n        bool strategyWithdraw=false;\r\n        for(uint i=0;i<N_COINS;i++){\r\n            if(amounts[i]>getBalances(i)){\r\n                strategyWithdraw=true;\r\n                break;\r\n            }\r\n        }\r\n        if(strategyWithdraw){\r\n           _withdraw(amounts,max_burn); \r\n        }\r\n        loanGiven =loanGiven.add(total);\r\n        selfBalance=selfBalance.sub(total);\r\n        for(uint8 i=0; i<N_COINS; i++) {\r\n            if(amounts[i] > 0) {\r\n                tokens[i].safeTransfer(_recipient, amounts[i]);\r\n                emit loanTransfered(_recipient,amounts[i],i);\r\n            }\r\n        }\r\n        \r\n    }\r\n    \r\n   // For repaying the loan to the royale Pool.\r\n    function repayLoan(uint[N_COINS] memory amounts)external {\r\n        require(checkValidArray(amounts),\"amount can't be zero\");\r\n        uint decimal;\r\n        for(uint8 i=0; i<N_COINS; i++) {\r\n            if(amounts[i] > 0) {\r\n                decimal=tokens[i].decimals();\r\n                loanGiven =loanGiven.sub(amounts[i].mul(1e18).div(10**decimal));\r\n                selfBalance=selfBalance.add(amounts[i].mul(1e18).div(10**decimal));\r\n                tokens[i].safeTransferFrom(msg.sender,address(this),amounts[i]);\r\n                emit loanRepayed(amounts[i],i);\r\n            }\r\n        }\r\n    }\r\n\r\n    \r\n    function claimFees() external nonReentrant{\r\n        uint decimal;\r\n        for(uint i=0;i<N_COINS;i++){\r\n            decimal=tokens[i].decimals();\r\n            selfBalance = selfBalance.sub(storedFees[i].mul(1e18).div(10**decimal));\r\n            tokens[i].safeTransfer(wallet,storedFees[i]);\r\n            emit feesTransfered(wallet,storedFees[i],i);\r\n            storedFees[i]=0;\r\n        }\r\n    }\r\n    \r\n\r\n    //for changing pool ratio\r\n    function changePoolPart(uint128 _newPoolPart) external onlyWallet()  {\r\n        poolPart = _newPoolPart;\r\n        \r\n    }\r\n\r\n   //For changing yield Strategy\r\n    function changeStrategy(address _strategy) onlyWallet() external  {\r\n        for(uint8 i=0;i<N_COINS;i++){\r\n            require(YieldPoolBalance==0, \"Call withdrawAll function first\");\r\n        } \r\n        strategy=rStrategy(_strategy);\r\n        \r\n    }\r\n\r\n    function setLockPeriod(uint256 lockperiod) onlyWallet() external  {\r\n        lock_period = lockperiod;\r\n        \r\n    }\r\n\r\n     // for changing withdrawal fees  \r\n    function setWithdrawFees(uint128 _fees) onlyWallet() external {\r\n        fees = _fees;\r\n\r\n    }\r\n    \r\n    function changeLoanPart(uint256 _value)onlyWallet() external{\r\n        loanPart=_value;\r\n    } \r\n    \r\n    function getBalances(uint _index) public view returns(uint256) {\r\n        return (tokens[_index].balanceOf(address(this)).sub(reserveAmount[_index]).sub(storedFees[_index]));\r\n    }\r\n}",
  "sourcePath": "C:/Users/vishn/OneDrive/Desktop/codezero2pi/RoyaleBSC/royale-contracts/contracts/Pool/RoyaleLP.sol",
  "compiler": {
    "name": "solc",
    "version": "0.6.12+commit.27d51765.Emscripten.clang"
  },
  "schemaVersion": "3.3.2",
  "updatedAt": "2021-05-18T11:46:55.024Z",
  "devdoc": {
    "kind": "dev",
    "methods": {},
    "version": 1
  },
  "userdoc": {
    "kind": "user",
    "methods": {},
    "version": 1
  }
}