{
  "contractName": "StakedRoya",
  "abi": [
    {
      "inputs": [
        {
          "internalType": "contract IERC20",
          "name": "stakedToken",
          "type": "address"
        },
        {
          "internalType": "contract IERC20",
          "name": "rewardToken",
          "type": "address"
        },
        {
          "internalType": "uint256",
          "name": "cooldownSeconds",
          "type": "uint256"
        },
        {
          "internalType": "uint256",
          "name": "unstakeWindow",
          "type": "uint256"
        },
        {
          "internalType": "address",
          "name": "rewardsVault",
          "type": "address"
        },
        {
          "internalType": "address",
          "name": "emissionManager",
          "type": "address"
        },
        {
          "internalType": "uint128",
          "name": "distributionDuration",
          "type": "uint128"
        }
      ],
      "stateMutability": "nonpayable",
      "type": "constructor"
    },
    {
      "anonymous": false,
      "inputs": [
        {
          "indexed": true,
          "internalType": "address",
          "name": "owner",
          "type": "address"
        },
        {
          "indexed": true,
          "internalType": "address",
          "name": "spender",
          "type": "address"
        },
        {
          "indexed": false,
          "internalType": "uint256",
          "name": "value",
          "type": "uint256"
        }
      ],
      "name": "Approval",
      "type": "event"
    },
    {
      "anonymous": false,
      "inputs": [
        {
          "indexed": true,
          "internalType": "address",
          "name": "asset",
          "type": "address"
        },
        {
          "indexed": false,
          "internalType": "uint256",
          "name": "emission",
          "type": "uint256"
        }
      ],
      "name": "AssetConfigUpdated",
      "type": "event"
    },
    {
      "anonymous": false,
      "inputs": [
        {
          "indexed": true,
          "internalType": "address",
          "name": "asset",
          "type": "address"
        },
        {
          "indexed": false,
          "internalType": "uint256",
          "name": "index",
          "type": "uint256"
        }
      ],
      "name": "AssetIndexUpdated",
      "type": "event"
    },
    {
      "anonymous": false,
      "inputs": [
        {
          "indexed": true,
          "internalType": "address",
          "name": "user",
          "type": "address"
        }
      ],
      "name": "Cooldown",
      "type": "event"
    },
    {
      "anonymous": false,
      "inputs": [
        {
          "indexed": true,
          "internalType": "address",
          "name": "from",
          "type": "address"
        },
        {
          "indexed": true,
          "internalType": "address",
          "name": "to",
          "type": "address"
        },
        {
          "indexed": false,
          "internalType": "uint256",
          "name": "amount",
          "type": "uint256"
        }
      ],
      "name": "Redeem",
      "type": "event"
    },
    {
      "anonymous": false,
      "inputs": [
        {
          "indexed": false,
          "internalType": "address",
          "name": "user",
          "type": "address"
        },
        {
          "indexed": false,
          "internalType": "uint256",
          "name": "amount",
          "type": "uint256"
        }
      ],
      "name": "RewardsAccrued",
      "type": "event"
    },
    {
      "anonymous": false,
      "inputs": [
        {
          "indexed": true,
          "internalType": "address",
          "name": "from",
          "type": "address"
        },
        {
          "indexed": true,
          "internalType": "address",
          "name": "to",
          "type": "address"
        },
        {
          "indexed": false,
          "internalType": "uint256",
          "name": "amount",
          "type": "uint256"
        }
      ],
      "name": "RewardsClaimed",
      "type": "event"
    },
    {
      "anonymous": false,
      "inputs": [
        {
          "indexed": false,
          "internalType": "address",
          "name": "owner",
          "type": "address"
        },
        {
          "indexed": false,
          "internalType": "uint128",
          "name": "oldValue",
          "type": "uint128"
        },
        {
          "indexed": false,
          "internalType": "uint128",
          "name": "newValue",
          "type": "uint128"
        }
      ],
      "name": "SnapshotDone",
      "type": "event"
    },
    {
      "anonymous": false,
      "inputs": [
        {
          "indexed": true,
          "internalType": "address",
          "name": "from",
          "type": "address"
        },
        {
          "indexed": true,
          "internalType": "address",
          "name": "onBehalfOf",
          "type": "address"
        },
        {
          "indexed": false,
          "internalType": "uint256",
          "name": "amount",
          "type": "uint256"
        }
      ],
      "name": "Staked",
      "type": "event"
    },
    {
      "anonymous": false,
      "inputs": [
        {
          "indexed": true,
          "internalType": "address",
          "name": "from",
          "type": "address"
        },
        {
          "indexed": true,
          "internalType": "address",
          "name": "to",
          "type": "address"
        },
        {
          "indexed": false,
          "internalType": "uint256",
          "name": "value",
          "type": "uint256"
        }
      ],
      "name": "Transfer",
      "type": "event"
    },
    {
      "anonymous": false,
      "inputs": [
        {
          "indexed": true,
          "internalType": "address",
          "name": "user",
          "type": "address"
        },
        {
          "indexed": true,
          "internalType": "address",
          "name": "asset",
          "type": "address"
        },
        {
          "indexed": false,
          "internalType": "uint256",
          "name": "index",
          "type": "uint256"
        }
      ],
      "name": "UserIndexUpdated",
      "type": "event"
    },
    {
      "inputs": [],
      "name": "COOLDOWN_SECONDS",
      "outputs": [
        {
          "internalType": "uint256",
          "name": "",
          "type": "uint256"
        }
      ],
      "stateMutability": "view",
      "type": "function"
    },
    {
      "inputs": [],
      "name": "DISTRIBUTION_END",
      "outputs": [
        {
          "internalType": "uint256",
          "name": "",
          "type": "uint256"
        }
      ],
      "stateMutability": "view",
      "type": "function"
    },
    {
      "inputs": [],
      "name": "EMISSION_MANAGER",
      "outputs": [
        {
          "internalType": "address",
          "name": "",
          "type": "address"
        }
      ],
      "stateMutability": "view",
      "type": "function"
    },
    {
      "inputs": [],
      "name": "PRECISION",
      "outputs": [
        {
          "internalType": "uint8",
          "name": "",
          "type": "uint8"
        }
      ],
      "stateMutability": "view",
      "type": "function"
    },
    {
      "inputs": [],
      "name": "REVISION",
      "outputs": [
        {
          "internalType": "uint256",
          "name": "",
          "type": "uint256"
        }
      ],
      "stateMutability": "view",
      "type": "function"
    },
    {
      "inputs": [],
      "name": "REWARDS_VAULT",
      "outputs": [
        {
          "internalType": "address",
          "name": "",
          "type": "address"
        }
      ],
      "stateMutability": "view",
      "type": "function"
    },
    {
      "inputs": [],
      "name": "REWARD_TOKEN",
      "outputs": [
        {
          "internalType": "contract IERC20",
          "name": "",
          "type": "address"
        }
      ],
      "stateMutability": "view",
      "type": "function"
    },
    {
      "inputs": [],
      "name": "STAKED_TOKEN",
      "outputs": [
        {
          "internalType": "contract IERC20",
          "name": "",
          "type": "address"
        }
      ],
      "stateMutability": "view",
      "type": "function"
    },
    {
      "inputs": [],
      "name": "UNSTAKE_WINDOW",
      "outputs": [
        {
          "internalType": "uint256",
          "name": "",
          "type": "uint256"
        }
      ],
      "stateMutability": "view",
      "type": "function"
    },
    {
      "inputs": [
        {
          "internalType": "address",
          "name": "",
          "type": "address"
        }
      ],
      "name": "_countsSnapshots",
      "outputs": [
        {
          "internalType": "uint256",
          "name": "",
          "type": "uint256"
        }
      ],
      "stateMutability": "view",
      "type": "function"
    },
    {
      "inputs": [],
      "name": "_royaGovernance",
      "outputs": [
        {
          "internalType": "contract ITransferHook",
          "name": "",
          "type": "address"
        }
      ],
      "stateMutability": "view",
      "type": "function"
    },
    {
      "inputs": [
        {
          "internalType": "address",
          "name": "",
          "type": "address"
        },
        {
          "internalType": "uint256",
          "name": "",
          "type": "uint256"
        }
      ],
      "name": "_snapshots",
      "outputs": [
        {
          "internalType": "uint128",
          "name": "blockNumber",
          "type": "uint128"
        },
        {
          "internalType": "uint128",
          "name": "value",
          "type": "uint128"
        }
      ],
      "stateMutability": "view",
      "type": "function"
    },
    {
      "inputs": [
        {
          "internalType": "address",
          "name": "owner",
          "type": "address"
        },
        {
          "internalType": "address",
          "name": "spender",
          "type": "address"
        }
      ],
      "name": "allowance",
      "outputs": [
        {
          "internalType": "uint256",
          "name": "",
          "type": "uint256"
        }
      ],
      "stateMutability": "view",
      "type": "function"
    },
    {
      "inputs": [
        {
          "internalType": "address",
          "name": "spender",
          "type": "address"
        },
        {
          "internalType": "uint256",
          "name": "amount",
          "type": "uint256"
        }
      ],
      "name": "approve",
      "outputs": [
        {
          "internalType": "bool",
          "name": "",
          "type": "bool"
        }
      ],
      "stateMutability": "nonpayable",
      "type": "function"
    },
    {
      "inputs": [
        {
          "internalType": "address",
          "name": "",
          "type": "address"
        }
      ],
      "name": "assets",
      "outputs": [
        {
          "internalType": "uint128",
          "name": "emissionPerSecond",
          "type": "uint128"
        },
        {
          "internalType": "uint128",
          "name": "lastUpdateTimestamp",
          "type": "uint128"
        },
        {
          "internalType": "uint256",
          "name": "index",
          "type": "uint256"
        }
      ],
      "stateMutability": "view",
      "type": "function"
    },
    {
      "inputs": [
        {
          "internalType": "address",
          "name": "account",
          "type": "address"
        }
      ],
      "name": "balanceOf",
      "outputs": [
        {
          "internalType": "uint256",
          "name": "",
          "type": "uint256"
        }
      ],
      "stateMutability": "view",
      "type": "function"
    },
    {
      "inputs": [
        {
          "internalType": "address",
          "name": "to",
          "type": "address"
        },
        {
          "internalType": "uint256",
          "name": "amount",
          "type": "uint256"
        }
      ],
      "name": "claimRewards",
      "outputs": [],
      "stateMutability": "nonpayable",
      "type": "function"
    },
    {
      "inputs": [
        {
          "components": [
            {
              "internalType": "uint128",
              "name": "emissionPerSecond",
              "type": "uint128"
            },
            {
              "internalType": "uint256",
              "name": "totalStaked",
              "type": "uint256"
            },
            {
              "internalType": "address",
              "name": "underlyingAsset",
              "type": "address"
            }
          ],
          "internalType": "struct DistributionTypes.AssetConfigInput[]",
          "name": "assetsConfigInput",
          "type": "tuple[]"
        }
      ],
      "name": "configureAssets",
      "outputs": [],
      "stateMutability": "nonpayable",
      "type": "function"
    },
    {
      "inputs": [],
      "name": "cooldown",
      "outputs": [],
      "stateMutability": "nonpayable",
      "type": "function"
    },
    {
      "inputs": [],
      "name": "decimals",
      "outputs": [
        {
          "internalType": "uint8",
          "name": "",
          "type": "uint8"
        }
      ],
      "stateMutability": "view",
      "type": "function"
    },
    {
      "inputs": [
        {
          "internalType": "address",
          "name": "spender",
          "type": "address"
        },
        {
          "internalType": "uint256",
          "name": "subtractedValue",
          "type": "uint256"
        }
      ],
      "name": "decreaseAllowance",
      "outputs": [
        {
          "internalType": "bool",
          "name": "",
          "type": "bool"
        }
      ],
      "stateMutability": "nonpayable",
      "type": "function"
    },
    {
      "inputs": [
        {
          "internalType": "uint256",
          "name": "fromCooldownTimestamp",
          "type": "uint256"
        },
        {
          "internalType": "uint256",
          "name": "amountToReceive",
          "type": "uint256"
        },
        {
          "internalType": "address",
          "name": "toAddress",
          "type": "address"
        },
        {
          "internalType": "uint256",
          "name": "toBalance",
          "type": "uint256"
        }
      ],
      "name": "getNextCooldownTimestamp",
      "outputs": [
        {
          "internalType": "uint256",
          "name": "",
          "type": "uint256"
        }
      ],
      "stateMutability": "view",
      "type": "function"
    },
    {
      "inputs": [
        {
          "internalType": "address",
          "name": "user",
          "type": "address"
        }
      ],
      "name": "getStakersCooldowns",
      "outputs": [
        {
          "internalType": "uint256",
          "name": "",
          "type": "uint256"
        }
      ],
      "stateMutability": "view",
      "type": "function"
    },
    {
      "inputs": [
        {
          "internalType": "address",
          "name": "staker",
          "type": "address"
        }
      ],
      "name": "getTotalRewardsBalance",
      "outputs": [
        {
          "internalType": "uint256",
          "name": "",
          "type": "uint256"
        }
      ],
      "stateMutability": "view",
      "type": "function"
    },
    {
      "inputs": [
        {
          "internalType": "address",
          "name": "user",
          "type": "address"
        },
        {
          "internalType": "address",
          "name": "asset",
          "type": "address"
        }
      ],
      "name": "getUserAssetData",
      "outputs": [
        {
          "internalType": "uint256",
          "name": "",
          "type": "uint256"
        }
      ],
      "stateMutability": "view",
      "type": "function"
    },
    {
      "inputs": [
        {
          "internalType": "address",
          "name": "spender",
          "type": "address"
        },
        {
          "internalType": "uint256",
          "name": "addedValue",
          "type": "uint256"
        }
      ],
      "name": "increaseAllowance",
      "outputs": [
        {
          "internalType": "bool",
          "name": "",
          "type": "bool"
        }
      ],
      "stateMutability": "nonpayable",
      "type": "function"
    },
    {
      "inputs": [
        {
          "internalType": "contract ITransferHook",
          "name": "royaGovernance",
          "type": "address"
        },
        {
          "internalType": "string",
          "name": "name",
          "type": "string"
        },
        {
          "internalType": "string",
          "name": "symbol",
          "type": "string"
        },
        {
          "internalType": "uint8",
          "name": "decimals",
          "type": "uint8"
        }
      ],
      "name": "initialize",
      "outputs": [],
      "stateMutability": "nonpayable",
      "type": "function"
    },
    {
      "inputs": [],
      "name": "name",
      "outputs": [
        {
          "internalType": "string",
          "name": "",
          "type": "string"
        }
      ],
      "stateMutability": "view",
      "type": "function"
    },
    {
      "inputs": [
        {
          "internalType": "address",
          "name": "to",
          "type": "address"
        },
        {
          "internalType": "uint256",
          "name": "amount",
          "type": "uint256"
        }
      ],
      "name": "redeem",
      "outputs": [],
      "stateMutability": "nonpayable",
      "type": "function"
    },
    {
      "inputs": [
        {
          "internalType": "address",
          "name": "onBehalfOf",
          "type": "address"
        },
        {
          "internalType": "uint256",
          "name": "amount",
          "type": "uint256"
        }
      ],
      "name": "stake",
      "outputs": [],
      "stateMutability": "nonpayable",
      "type": "function"
    },
    {
      "inputs": [
        {
          "internalType": "address",
          "name": "",
          "type": "address"
        }
      ],
      "name": "stakerRewardsToClaim",
      "outputs": [
        {
          "internalType": "uint256",
          "name": "",
          "type": "uint256"
        }
      ],
      "stateMutability": "view",
      "type": "function"
    },
    {
      "inputs": [
        {
          "internalType": "address",
          "name": "",
          "type": "address"
        }
      ],
      "name": "stakersCooldowns",
      "outputs": [
        {
          "internalType": "uint256",
          "name": "",
          "type": "uint256"
        }
      ],
      "stateMutability": "view",
      "type": "function"
    },
    {
      "inputs": [],
      "name": "symbol",
      "outputs": [
        {
          "internalType": "string",
          "name": "",
          "type": "string"
        }
      ],
      "stateMutability": "view",
      "type": "function"
    },
    {
      "inputs": [],
      "name": "totalSupply",
      "outputs": [
        {
          "internalType": "uint256",
          "name": "",
          "type": "uint256"
        }
      ],
      "stateMutability": "view",
      "type": "function"
    },
    {
      "inputs": [
        {
          "internalType": "address",
          "name": "recipient",
          "type": "address"
        },
        {
          "internalType": "uint256",
          "name": "amount",
          "type": "uint256"
        }
      ],
      "name": "transfer",
      "outputs": [
        {
          "internalType": "bool",
          "name": "",
          "type": "bool"
        }
      ],
      "stateMutability": "nonpayable",
      "type": "function"
    },
    {
      "inputs": [
        {
          "internalType": "address",
          "name": "sender",
          "type": "address"
        },
        {
          "internalType": "address",
          "name": "recipient",
          "type": "address"
        },
        {
          "internalType": "uint256",
          "name": "amount",
          "type": "uint256"
        }
      ],
      "name": "transferFrom",
      "outputs": [
        {
          "internalType": "bool",
          "name": "",
          "type": "bool"
        }
      ],
      "stateMutability": "nonpayable",
      "type": "function"
    }
  ],
  "bytecode": "0x61016060405260006009553480156200001757600080fd5b5060405162004f4838038062004f4883398181016040528101906200003d9190620003a2565b868686868686866040518060400160405280600b81526020017f5374616b656420526f79610000000000000000000000000000000000000000008152506040518060400160405280600781526020017f73746b526f796100000000000000000000000000000000000000000000000000815250601284846fffffffffffffffffffffffffffffffff168484848282828260039080519060200190620000e4929190620002a0565b508160049080519060200190620000fd929190620002a0565b5080600560006101000a81548160ff021916908360ff1602179055505050505050506200013981426200024860201b62001d911790919060201c565b608081815250508173ffffffffffffffffffffffffffffffffffffffff1660a08173ffffffffffffffffffffffffffffffffffffffff1660601b8152505050508973ffffffffffffffffffffffffffffffffffffffff1660c08173ffffffffffffffffffffffffffffffffffffffff1660601b815250508873ffffffffffffffffffffffffffffffffffffffff1660e08173ffffffffffffffffffffffffffffffffffffffff1660601b815250508761010081815250508661012081815250508573ffffffffffffffffffffffffffffffffffffffff166101408173ffffffffffffffffffffffffffffffffffffffff1660601b8152505050505050505050505050505050505050506200059a565b60008082840190508381101562000296576040517f08c379a00000000000000000000000000000000000000000000000000000000081526004016200028d9062000491565b60405180910390fd5b8091505092915050565b828054600181600116156101000203166002900490600052602060002090601f016020900481019282601f10620002e357805160ff191683800117855562000314565b8280016001018555821562000314579182015b8281111562000313578251825591602001919060010190620002f6565b5b50905062000323919062000327565b5090565b5b808211156200034257600081600090555060010162000328565b5090565b600081519050620003578162000532565b92915050565b6000815190506200036e816200054c565b92915050565b600081519050620003858162000566565b92915050565b6000815190506200039c8162000580565b92915050565b600080600080600080600060e0888a031215620003be57600080fd5b6000620003ce8a828b016200035d565b9750506020620003e18a828b016200035d565b9650506040620003f48a828b016200038b565b9550506060620004078a828b016200038b565b94505060806200041a8a828b0162000346565b93505060a06200042d8a828b0162000346565b92505060c0620004408a828b0162000374565b91505092959891949750929550565b60006200045e601b83620004b3565b91507f536166654d6174683a206164646974696f6e206f766572666c6f7700000000006000830152602082019050919050565b60006020820190508181036000830152620004ac816200044f565b9050919050565b600082825260208201905092915050565b6000620004d18262000508565b9050919050565b6000620004e582620004c4565b9050919050565b60006fffffffffffffffffffffffffffffffff82169050919050565b600073ffffffffffffffffffffffffffffffffffffffff82169050919050565b6000819050919050565b6200053d81620004c4565b81146200054957600080fd5b50565b6200055781620004d8565b81146200056357600080fd5b50565b6200057181620004ec565b81146200057d57600080fd5b50565b6200058b8162000528565b81146200059757600080fd5b50565b60805160a05160601c60c05160601c60e05160601c61010051610120516101405160601c6148fe6200064a600039806110bb528061128052508061093e5280610d3b5280611a765280611d135250806108cd52806109655280610e5a5280611a9a5280611cd25280611d3a52508061118152806112a3525080610a825280610c7652806115e452508061169652806118e152508061109752806132a852806132ee528061331b52506148fe6000f3fe608060405234801561001057600080fd5b506004361061021c5760003560e01c8063919cd40f11610125578063b2a5dbfa116100ad578063dde43cba1161007c578063dde43cba14610692578063f11b8188146106b0578063f1cc432a146106e2578063f6d2ee8614610712578063fec2105b1461072e5761021c565b8063b2a5dbfa1461060a578063cbcbb50714610626578063d38a3d3c14610644578063dd62ed3e146106625761021c565b80639a99b4f0116100f45780639a99b4f014610554578063a457c2d714610570578063a9059cbb146105a0578063aaf5eb68146105d0578063adc9772e146105ee5761021c565b8063919cd40f146104dc578063946776cd146104fa57806395d89b411461051857806399248ea7146105365761021c565b80633373ee4c116101a857806372b49d631161017757806372b49d6314610424578063787a08a6146104425780637e90d7ef1461044c5780638779588c1461047c5780638dbefee2146104ac5761021c565b80633373ee4c14610376578063359c4a96146103a657806339509351146103c457806370a08231146103f45761021c565b80631e9a6950116101ef5780631e9a6950146102bd57806323b872dd146102d95780632acbf82314610309578063312f6b831461033a578063313ce567146103585761021c565b806306fdde0314610221578063091030c31461023f578063095ea7b31461026f57806318160ddd1461029f575b600080fd5b61022961075e565b6040516102369190614363565b60405180910390f35b61025960048036038101906102549190613972565b610800565b6040516102669190614620565b60405180910390f35b61028960048036038101906102849190613a26565b610818565b6040516102969190614312565b60405180910390f35b6102a7610836565b6040516102b49190614620565b60405180910390f35b6102d760048036038101906102d29190613a26565b610840565b005b6102f360048036038101906102ee91906139d7565b610b32565b6040516103009190614312565b60405180910390f35b610323600480360381019061031e9190613a26565b610c0b565b6040516103319291906145c0565b60405180910390f35b610342610c74565b60405161034f919061432d565b60405180910390f35b610360610c98565b60405161036d919061463b565b60405180910390f35b610390600480360381019061038b919061399b565b610caf565b60405161039d9190614620565b60405180910390f35b6103ae610d39565b6040516103bb9190614620565b60405180910390f35b6103de60048036038101906103d99190613a26565b610d5d565b6040516103eb9190614312565b60405180910390f35b61040e60048036038101906104099190613972565b610e10565b60405161041b9190614620565b60405180910390f35b61042c610e58565b6040516104399190614620565b60405180910390f35b61044a610e7c565b005b61046660048036038101906104619190613972565b610f51565b6040516104739190614620565b60405180910390f35b61049660048036038101906104919190613972565b610f69565b6040516104a39190614620565b60405180910390f35b6104c660048036038101906104c19190613972565b610f81565b6040516104d39190614620565b60405180910390f35b6104e4611095565b6040516104f19190614620565b60405180910390f35b6105026110b9565b60405161050f9190614260565b60405180910390f35b6105206110dd565b60405161052d9190614363565b60405180910390f35b61053e61117f565b60405161054b919061432d565b60405180910390f35b61056e60048036038101906105699190613a26565b6111a3565b005b61058a60048036038101906105859190613a26565b611353565b6040516105979190614312565b60405180910390f35b6105ba60048036038101906105b59190613a26565b611420565b6040516105c79190614312565b60405180910390f35b6105d861143e565b6040516105e5919061463b565b60405180910390f35b61060860048036038101906106039190613a26565b611443565b005b610624600480360381019061061f9190613a62565b611694565b005b61062e6118df565b60405161063b9190614260565b60405180910390f35b61064c611903565b6040516106599190614348565b60405180910390f35b61067c6004803603810190610677919061399b565b611929565b6040516106899190614620565b60405180910390f35b61069a6119b0565b6040516106a79190614620565b60405180910390f35b6106ca60048036038101906106c59190613972565b6119b5565b6040516106d9939291906145e9565b60405180910390f35b6106fc60048036038101906106f79190613b94565b611a17565b6040516107099190614620565b60405180910390f35b61072c60048036038101906107279190613ad0565b611b7c565b005b61074860048036038101906107439190613972565b611c88565b6040516107559190614620565b60405180910390f35b606060038054600181600116156101000203166002900480601f0160208091040260200160405190810160405280929190818152602001828054600181600116156101000203166002900480156107f65780601f106107cb576101008083540402835291602001916107f6565b820191906000526020600020905b8154815290600101906020018083116107d957829003601f168201915b5050505050905090565b603e6020528060005260406000206000915090505481565b600061082c610825611de6565b8484611dee565b6001905092915050565b6000600254905090565b6000811415610884576040517f08c379a000000000000000000000000000000000000000000000000000000000815260040161087b906143e5565b60405180910390fd5b6000603e60003373ffffffffffffffffffffffffffffffffffffffff1673ffffffffffffffffffffffffffffffffffffffff1681526020019081526020016000205490506108fb7f000000000000000000000000000000000000000000000000000000000000000082611d9190919063ffffffff16565b421161093c576040517f08c379a000000000000000000000000000000000000000000000000000000000815260040161093390614425565b60405180910390fd5b7f00000000000000000000000000000000000000000000000000000000000000006109a26109937f000000000000000000000000000000000000000000000000000000000000000084611d9190919063ffffffff16565b42611fb990919063ffffffff16565b11156109e3576040517f08c379a00000000000000000000000000000000000000000000000000000000081526004016109da906144e5565b60405180910390fd5b60006109ee33610e10565b905060008184116109ff5783610a01565b815b9050610a0f33836001612003565b50610a1a338261210a565b6000610a2f8284611fb990919063ffffffff16565b1415610a7b576000603e60003373ffffffffffffffffffffffffffffffffffffffff1673ffffffffffffffffffffffffffffffffffffffff168152602001908152602001600020819055505b610ac685827f000000000000000000000000000000000000000000000000000000000000000073ffffffffffffffffffffffffffffffffffffffff166122b89092919063ffffffff16565b8473ffffffffffffffffffffffffffffffffffffffff163373ffffffffffffffffffffffffffffffffffffffff167fd12200efa34901b99367694174c3b0d32c99585fdf37c7c26892136ddd0836d983604051610b239190614620565b60405180910390a35050505050565b6000610b3f84848461233e565b610c0084610b4b611de6565b610bfb8560405180606001604052806028815260200161487c60289139600160008b73ffffffffffffffffffffffffffffffffffffffff1673ffffffffffffffffffffffffffffffffffffffff1681526020019081526020016000206000610bb1611de6565b73ffffffffffffffffffffffffffffffffffffffff1673ffffffffffffffffffffffffffffffffffffffff168152602001908152602001600020546124a79092919063ffffffff16565b611dee565b600190509392505050565b6006602052816000526040600020602052806000526040600020600091509150508060000160009054906101000a90046fffffffffffffffffffffffffffffffff16908060000160109054906101000a90046fffffffffffffffffffffffffffffffff16905082565b7f000000000000000000000000000000000000000000000000000000000000000081565b6000600560009054906101000a900460ff16905090565b6000603c60008373ffffffffffffffffffffffffffffffffffffffff1673ffffffffffffffffffffffffffffffffffffffff16815260200190815260200160002060020160008473ffffffffffffffffffffffffffffffffffffffff1673ffffffffffffffffffffffffffffffffffffffff16815260200190815260200160002054905092915050565b7f000000000000000000000000000000000000000000000000000000000000000081565b6000610e06610d6a611de6565b84610e018560016000610d7b611de6565b73ffffffffffffffffffffffffffffffffffffffff1673ffffffffffffffffffffffffffffffffffffffff16815260200190815260200160002060008973ffffffffffffffffffffffffffffffffffffffff1673ffffffffffffffffffffffffffffffffffffffff16815260200190815260200160002054611d9190919063ffffffff16565b611dee565b6001905092915050565b60008060008373ffffffffffffffffffffffffffffffffffffffff1673ffffffffffffffffffffffffffffffffffffffff168152602001908152602001600020549050919050565b7f000000000000000000000000000000000000000000000000000000000000000081565b6000610e8733610e10565b1415610ec8576040517f08c379a0000000000000000000000000000000000000000000000000000000008152600401610ebf90614545565b60405180910390fd5b42603e60003373ffffffffffffffffffffffffffffffffffffffff1673ffffffffffffffffffffffffffffffffffffffff168152602001908152602001600020819055503373ffffffffffffffffffffffffffffffffffffffff167ff52f50426b32362d3e6bb8cb36b7074756b224622def6352a59eac7f66ebe6e860405160405180910390a2565b603d6020528060005260406000206000915090505481565b60076020528060005260406000206000915090505481565b60006060600167ffffffffffffffff81118015610f9d57600080fd5b50604051908082528060200260200182016040528015610fd757816020015b610fc461378c565b815260200190600190039081610fbc5790505b50905060405180606001604052803073ffffffffffffffffffffffffffffffffffffffff16815260200161100a85610e10565b8152602001611017610836565b8152508160008151811061102757fe5b602002602001018190525061108d61103f8483612502565b603d60008673ffffffffffffffffffffffffffffffffffffffff1673ffffffffffffffffffffffffffffffffffffffff16815260200190815260200160002054611d9190919063ffffffff16565b915050919050565b7f000000000000000000000000000000000000000000000000000000000000000081565b7f000000000000000000000000000000000000000000000000000000000000000081565b606060048054600181600116156101000203166002900480601f0160208091040260200160405190810160405280929190818152602001828054600181600116156101000203166002900480156111755780601f1061114a57610100808354040283529160200191611175565b820191906000526020600020905b81548152906001019060200180831161115857829003601f168201915b5050505050905090565b7f000000000000000000000000000000000000000000000000000000000000000081565b60006111b9336111b233610e10565b6000612003565b905060007fffffffffffffffffffffffffffffffffffffffffffffffffffffffffffffffff83146111ea57826111ec565b815b9050611238816040518060400160405280600e81526020017f494e56414c49445f414d4f554e54000000000000000000000000000000000000815250846124a79092919063ffffffff16565b603d60003373ffffffffffffffffffffffffffffffffffffffff1673ffffffffffffffffffffffffffffffffffffffff168152602001908152602001600020819055506112e87f000000000000000000000000000000000000000000000000000000000000000085837f000000000000000000000000000000000000000000000000000000000000000073ffffffffffffffffffffffffffffffffffffffff1661267d909392919063ffffffff16565b8373ffffffffffffffffffffffffffffffffffffffff163373ffffffffffffffffffffffffffffffffffffffff167f9310ccfcb8de723f578a9e4282ea9f521f05ae40dc08f3068dfad528a65ee3c7836040516113459190614620565b60405180910390a350505050565b6000611416611360611de6565b84611411856040518060600160405280602581526020016148a4602591396001600061138a611de6565b73ffffffffffffffffffffffffffffffffffffffff1673ffffffffffffffffffffffffffffffffffffffff16815260200190815260200160002060008a73ffffffffffffffffffffffffffffffffffffffff1673ffffffffffffffffffffffffffffffffffffffff168152602001908152602001600020546124a79092919063ffffffff16565b611dee565b6001905092915050565b600061143461142d611de6565b848461233e565b6001905092915050565b601281565b6000811415611487576040517f08c379a000000000000000000000000000000000000000000000000000000000815260040161147e906143e5565b60405180910390fd5b600061149283610e10565b905060006114a98430846114a4610836565b612706565b905060008114611582577f2468f9268c60ad90e2d49edb0032c8a001e733ae888b3ab8e982edf535be1a7684826040516114e49291906142e9565b60405180910390a161153e81603d60008773ffffffffffffffffffffffffffffffffffffffff1673ffffffffffffffffffffffffffffffffffffffff16815260200190815260200160002054611d9190919063ffffffff16565b603d60008673ffffffffffffffffffffffffffffffffffffffff1673ffffffffffffffffffffffffffffffffffffffff168152602001908152602001600020819055505b61158f6000848685611a17565b603e60008673ffffffffffffffffffffffffffffffffffffffff1673ffffffffffffffffffffffffffffffffffffffff168152602001908152602001600020819055506115dc8484612878565b6116293330857f000000000000000000000000000000000000000000000000000000000000000073ffffffffffffffffffffffffffffffffffffffff1661267d909392919063ffffffff16565b8373ffffffffffffffffffffffffffffffffffffffff163373ffffffffffffffffffffffffffffffffffffffff167f5dac0c1b1112564a045ba943c9d50270893e8e826c49be8e7073adc713ab7bd7856040516116869190614620565b60405180910390a350505050565b7f000000000000000000000000000000000000000000000000000000000000000073ffffffffffffffffffffffffffffffffffffffff163373ffffffffffffffffffffffffffffffffffffffff1614611722576040517f08c379a000000000000000000000000000000000000000000000000000000000815260040161171990614485565b60405180910390fd5b60005b828290508110156118da576000603c600085858581811061174257fe5b905060600201604001602081019061175a9190613972565b73ffffffffffffffffffffffffffffffffffffffff1673ffffffffffffffffffffffffffffffffffffffff16815260200190815260200160002090506117d98484848181106117a557fe5b90506060020160400160208101906117bd9190613972565b828686868181106117ca57fe5b90506060020160200135612a0c565b508383838181106117e657fe5b90506060020160000160208101906117fe9190613b6b565b8160000160006101000a8154816fffffffffffffffffffffffffffffffff02191690836fffffffffffffffffffffffffffffffff16021790555083838381811061184457fe5b905060600201604001602081019061185c9190613972565b73ffffffffffffffffffffffffffffffffffffffff167f87fa03892a0556cb6b8f97e6d533a150d4d55fcbf275fff5fa003fa636bcc7fa85858581811061189f57fe5b90506060020160000160208101906118b79190613b6b565b6040516118c491906145a5565b60405180910390a2508080600101915050611725565b505050565b7f000000000000000000000000000000000000000000000000000000000000000081565b600860009054906101000a900473ffffffffffffffffffffffffffffffffffffffff1681565b6000600160008473ffffffffffffffffffffffffffffffffffffffff1673ffffffffffffffffffffffffffffffffffffffff16815260200190815260200160002060008373ffffffffffffffffffffffffffffffffffffffff1673ffffffffffffffffffffffffffffffffffffffff16815260200190815260200160002054905092915050565b600181565b603c6020528060005260406000206000915090508060000160009054906101000a90046fffffffffffffffffffffffffffffffff16908060000160109054906101000a90046fffffffffffffffffffffffffffffffff16908060010154905083565b600080603e60008573ffffffffffffffffffffffffffffffffffffffff1673ffffffffffffffffffffffffffffffffffffffff1681526020019081526020016000205490506000811415611a6f576000915050611b74565b6000611ad67f0000000000000000000000000000000000000000000000000000000000000000611ac87f000000000000000000000000000000000000000000000000000000000000000042611fb990919063ffffffff16565b611fb990919063ffffffff16565b905081811115611ae95760009150611b6e565b6000878211611af85787611afa565b425b905082811015611b0f57829350505050611b74565b611b6a611b258689611d9190919063ffffffff16565b611b5c611b3b8689612b4990919063ffffffff16565b611b4e858c612b4990919063ffffffff16565b611d9190919063ffffffff16565b612bb990919063ffffffff16565b9250505b81925050505b949350505050565b6000611b86612c03565b90506009548111611bcc576040517f08c379a0000000000000000000000000000000000000000000000000000000008152600401611bc390614465565b60405180910390fd5b80600981905550611c2086868080601f016020809104026020016040519081016040528093929190818152602001838380828437600081840152601f19601f82011690508083019250505050505050612c0c565b611c6d84848080601f016020809104026020016040519081016040528093929190818152602001838380828437600081840152601f19601f82011690508083019250505050505050612c26565b611c7682612c40565b611c7f87612c5e565b50505050505050565b600080603e60008473ffffffffffffffffffffffffffffffffffffffff1673ffffffffffffffffffffffffffffffffffffffff168152602001908152602001600020549050611d007f000000000000000000000000000000000000000000000000000000000000000082611d9190919063ffffffff16565b421015611d11576001915050611d8c565b7f0000000000000000000000000000000000000000000000000000000000000000611d77611d687f000000000000000000000000000000000000000000000000000000000000000084611d9190919063ffffffff16565b42611fb990919063ffffffff16565b11611d86576002915050611d8c565b60009150505b919050565b600080828401905083811015611ddc576040517f08c379a0000000000000000000000000000000000000000000000000000000008152600401611dd3906143c5565b60405180910390fd5b8091505092915050565b600033905090565b600073ffffffffffffffffffffffffffffffffffffffff168373ffffffffffffffffffffffffffffffffffffffff161415611e5e576040517f08c379a0000000000000000000000000000000000000000000000000000000008152600401611e5590614505565b60405180910390fd5b600073ffffffffffffffffffffffffffffffffffffffff168273ffffffffffffffffffffffffffffffffffffffff161415611ece576040517f08c379a0000000000000000000000000000000000000000000000000000000008152600401611ec5906143a5565b60405180910390fd5b80600160008573ffffffffffffffffffffffffffffffffffffffff1673ffffffffffffffffffffffffffffffffffffffff16815260200190815260200160002060008473ffffffffffffffffffffffffffffffffffffffff1673ffffffffffffffffffffffffffffffffffffffff168152602001908152602001600020819055508173ffffffffffffffffffffffffffffffffffffffff168373ffffffffffffffffffffffffffffffffffffffff167f8c5be1e5ebec7d5bd14f71427d1e84f3dd0314c0f7b2291e5b200ac8c7c3b92583604051611fac9190614620565b60405180910390a3505050565b6000611ffb83836040518060400160405280601e81526020017f536166654d6174683a207375627472616374696f6e206f766572666c6f7700008152506124a7565b905092915050565b600080612019853086612014610836565b612706565b9050600061206f82603d60008973ffffffffffffffffffffffffffffffffffffffff1673ffffffffffffffffffffffffffffffffffffffff16815260200190815260200160002054611d9190919063ffffffff16565b9050600082146120fe5783156120c45780603d60008873ffffffffffffffffffffffffffffffffffffffff1673ffffffffffffffffffffffffffffffffffffffff168152602001908152602001600020819055505b7f2468f9268c60ad90e2d49edb0032c8a001e733ae888b3ab8e982edf535be1a7686836040516120f59291906142e9565b60405180910390a15b80925050509392505050565b600073ffffffffffffffffffffffffffffffffffffffff168273ffffffffffffffffffffffffffffffffffffffff16141561217a576040517f08c379a0000000000000000000000000000000000000000000000000000000008152600401612171906144a5565b60405180910390fd5b61218682600083612ca2565b6121f181604051806060016040528060228152602001614834602291396000808673ffffffffffffffffffffffffffffffffffffffff1673ffffffffffffffffffffffffffffffffffffffff168152602001908152602001600020546124a79092919063ffffffff16565b6000808473ffffffffffffffffffffffffffffffffffffffff1673ffffffffffffffffffffffffffffffffffffffff1681526020019081526020016000208190555061224881600254611fb990919063ffffffff16565b600281905550600073ffffffffffffffffffffffffffffffffffffffff168273ffffffffffffffffffffffffffffffffffffffff167fddf252ad1be2c89b69c2b068fc378daa952ba7f163c4a11628f55a4df523b3ef836040516122ac9190614620565b60405180910390a35050565b6123398363a9059cbb60e01b84846040516024016122d79291906142e9565b604051602081830303815290604052907bffffffffffffffffffffffffffffffffffffffffffffffffffffffff19166020820180517bffffffffffffffffffffffffffffffffffffffffffffffffffffffff8381831617835250505050612e6d565b505050565b600061234984610e10565b905061235784826001612003565b508273ffffffffffffffffffffffffffffffffffffffff168473ffffffffffffffffffffffffffffffffffffffff161461249657600061239684610e10565b90506123a484826001612003565b506000603e60008773ffffffffffffffffffffffffffffffffffffffff1673ffffffffffffffffffffffffffffffffffffffff1681526020019081526020016000205490506123f581858785611a17565b603e60008773ffffffffffffffffffffffffffffffffffffffff1673ffffffffffffffffffffffffffffffffffffffff168152602001908152602001600020819055508383148015612448575060008114155b15612493576000603e60008873ffffffffffffffffffffffffffffffffffffffff1673ffffffffffffffffffffffffffffffffffffffff168152602001908152602001600020819055505b50505b6124a1848484612fdf565b50505050565b60008383111582906124ef576040517f08c379a00000000000000000000000000000000000000000000000000000000081526004016124e69190614363565b60405180910390fd5b5060008385039050809150509392505050565b6000806000905060005b8351811015612672576000603c600086848151811061252757fe5b60200260200101516000015173ffffffffffffffffffffffffffffffffffffffff1673ffffffffffffffffffffffffffffffffffffffff168152602001908152602001600020905060006125ea82600101548360000160009054906101000a90046fffffffffffffffffffffffffffffffff166fffffffffffffffffffffffffffffffff168460000160109054906101000a90046fffffffffffffffffffffffffffffffff168987815181106125d957fe5b602002602001015160400151613274565b90506126616126528785815181106125fe57fe5b602002602001015160200151838560020160008c73ffffffffffffffffffffffffffffffffffffffff1673ffffffffffffffffffffffffffffffffffffffff168152602001908152602001600020546133c3565b85611d9190919063ffffffff16565b93505050808060010191505061250c565b508091505092915050565b612700846323b872dd60e01b85858560405160240161269e9392919061427b565b604051602081830303815290604052907bffffffffffffffffffffffffffffffffffffffffffffffffffffffff19166020820180517bffffffffffffffffffffffffffffffffffffffffffffffffffffffff8381831617835250505050612e6d565b50505050565b600080603c60008673ffffffffffffffffffffffffffffffffffffffff1673ffffffffffffffffffffffffffffffffffffffff168152602001908152602001600020905060008160020160008873ffffffffffffffffffffffffffffffffffffffff1673ffffffffffffffffffffffffffffffffffffffff16815260200190815260200160002054905060008061279e888588612a0c565b905080831461286957600087146127bd576127ba8782856133c3565b91505b808460020160008b73ffffffffffffffffffffffffffffffffffffffff1673ffffffffffffffffffffffffffffffffffffffff168152602001908152602001600020819055508773ffffffffffffffffffffffffffffffffffffffff168973ffffffffffffffffffffffffffffffffffffffff167fbb123b5c06d5408bbea3c4fef481578175cfb432e3b482c6186f02ed9086585b836040516128609190614620565b60405180910390a35b81945050505050949350505050565b600073ffffffffffffffffffffffffffffffffffffffff168273ffffffffffffffffffffffffffffffffffffffff1614156128e8576040517f08c379a00000000000000000000000000000000000000000000000000000000081526004016128df90614585565b60405180910390fd5b6128f460008383612ca2565b61290981600254611d9190919063ffffffff16565b600281905550612960816000808573ffffffffffffffffffffffffffffffffffffffff1673ffffffffffffffffffffffffffffffffffffffff16815260200190815260200160002054611d9190919063ffffffff16565b6000808473ffffffffffffffffffffffffffffffffffffffff1673ffffffffffffffffffffffffffffffffffffffff168152602001908152602001600020819055508173ffffffffffffffffffffffffffffffffffffffff16600073ffffffffffffffffffffffffffffffffffffffff167fddf252ad1be2c89b69c2b068fc378daa952ba7f163c4a11628f55a4df523b3ef83604051612a009190614620565b60405180910390a35050565b6000808360010154905060008460000160109054906101000a90046fffffffffffffffffffffffffffffffff169050806fffffffffffffffffffffffffffffffff16421415612a5f578192505050612b42565b6000612a9f838760000160009054906101000a90046fffffffffffffffffffffffffffffffff166fffffffffffffffffffffffffffffffff168488613274565b9050828114612b00578086600101819055508673ffffffffffffffffffffffffffffffffffffffff167f5777ca300dfe5bead41006fbce4389794dbc0ed8d6cccebfaf94630aa04184bc82604051612af79190614620565b60405180910390a25b428660000160106101000a8154816fffffffffffffffffffffffffffffffff02191690836fffffffffffffffffffffffffffffffff1602179055508093505050505b9392505050565b600080831415612b5c5760009050612bb3565b6000828402905082848281612b6d57fe5b0414612bae576040517f08c379a0000000000000000000000000000000000000000000000000000000008152600401612ba590614445565b60405180910390fd5b809150505b92915050565b6000612bfb83836040518060400160405280601a81526020017f536166654d6174683a206469766973696f6e206279207a65726f00000000000081525061340c565b905092915050565b60006001905090565b8060039080519060200190612c229291906137c3565b5050565b8060049080519060200190612c3c9291906137c3565b5050565b80600560006101000a81548160ff021916908360ff16021790555050565b80600860006101000a81548173ffffffffffffffffffffffffffffffffffffffff021916908373ffffffffffffffffffffffffffffffffffffffff16021790555050565b8173ffffffffffffffffffffffffffffffffffffffff168373ffffffffffffffffffffffffffffffffffffffff161415612cdb57612e68565b600073ffffffffffffffffffffffffffffffffffffffff168373ffffffffffffffffffffffffffffffffffffffff1614612d3b576000612d1a84610e10565b9050612d398482612d348585611fb990919063ffffffff16565b61346d565b505b600073ffffffffffffffffffffffffffffffffffffffff168273ffffffffffffffffffffffffffffffffffffffff1614612d9b576000612d7a83610e10565b9050612d998382612d948585611d9190919063ffffffff16565b61346d565b505b6000600860009054906101000a900473ffffffffffffffffffffffffffffffffffffffff169050600073ffffffffffffffffffffffffffffffffffffffff168173ffffffffffffffffffffffffffffffffffffffff1614612e66578073ffffffffffffffffffffffffffffffffffffffff16634a3931498585856040518463ffffffff1660e01b8152600401612e339392919061427b565b600060405180830381600087803b158015612e4d57600080fd5b505af1158015612e61573d6000803e3d6000fd5b505050505b505b505050565b612e8c8273ffffffffffffffffffffffffffffffffffffffff16613741565b612ecb576040517f08c379a0000000000000000000000000000000000000000000000000000000008152600401612ec290614565565b60405180910390fd5b600060608373ffffffffffffffffffffffffffffffffffffffff1683604051612ef49190614249565b6000604051808303816000865af19150503d8060008114612f31576040519150601f19603f3d011682016040523d82523d6000602084013e612f36565b606091505b509150915081612f7b576040517f08c379a0000000000000000000000000000000000000000000000000000000008152600401612f7290614405565b60405180910390fd5b600081511115612fd95780806020019051810190612f999190613aa7565b612fd8576040517f08c379a0000000000000000000000000000000000000000000000000000000008152600401612fcf90614525565b60405180910390fd5b5b50505050565b600073ffffffffffffffffffffffffffffffffffffffff168373ffffffffffffffffffffffffffffffffffffffff16141561304f576040517f08c379a0000000000000000000000000000000000000000000000000000000008152600401613046906144c5565b60405180910390fd5b600073ffffffffffffffffffffffffffffffffffffffff168273ffffffffffffffffffffffffffffffffffffffff1614156130bf576040517f08c379a00000000000000000000000000000000000000000000000000000000081526004016130b690614385565b60405180910390fd5b6130ca838383612ca2565b61313581604051806060016040528060268152602001614856602691396000808773ffffffffffffffffffffffffffffffffffffffff1673ffffffffffffffffffffffffffffffffffffffff168152602001908152602001600020546124a79092919063ffffffff16565b6000808573ffffffffffffffffffffffffffffffffffffffff1673ffffffffffffffffffffffffffffffffffffffff168152602001908152602001600020819055506131c8816000808573ffffffffffffffffffffffffffffffffffffffff1673ffffffffffffffffffffffffffffffffffffffff16815260200190815260200160002054611d9190919063ffffffff16565b6000808473ffffffffffffffffffffffffffffffffffffffff1673ffffffffffffffffffffffffffffffffffffffff168152602001908152602001600020819055508173ffffffffffffffffffffffffffffffffffffffff168373ffffffffffffffffffffffffffffffffffffffff167fddf252ad1be2c89b69c2b068fc378daa952ba7f163c4a11628f55a4df523b3ef836040516132679190614620565b60405180910390a3505050565b6000808414806132845750600082145b806132a0575042836fffffffffffffffffffffffffffffffff16145b806132dd57507f0000000000000000000000000000000000000000000000000000000000000000836fffffffffffffffffffffffffffffffff1610155b156132ea578490506133bb565b60007f00000000000000000000000000000000000000000000000000000000000000004211613319574261333b565b7f00000000000000000000000000000000000000000000000000000000000000005b90506000613364856fffffffffffffffffffffffffffffffff1683611fb990919063ffffffff16565b90506133b6876133a88661339a601260ff16600a0a61338c878d612b4990919063ffffffff16565b612b4990919063ffffffff16565b612bb990919063ffffffff16565b611d9190919063ffffffff16565b925050505b949350505050565b6000613403601260ff16600a0a6133f56133e68587611fb990919063ffffffff16565b87612b4990919063ffffffff16565b612bb990919063ffffffff16565b90509392505050565b60008083118290613453576040517f08c379a000000000000000000000000000000000000000000000000000000000815260040161344a9190614363565b60405180910390fd5b50600083858161345f57fe5b049050809150509392505050565b60004390506000600760008673ffffffffffffffffffffffffffffffffffffffff1673ffffffffffffffffffffffffffffffffffffffff1681526020019081526020016000205490506000600660008773ffffffffffffffffffffffffffffffffffffffff1673ffffffffffffffffffffffffffffffffffffffff1681526020019081526020016000209050600082141580156135715750826fffffffffffffffffffffffffffffffff1681600061352f600186611fb990919063ffffffff16565b815260200190815260200160002060000160009054906101000a90046fffffffffffffffffffffffffffffffff166fffffffffffffffffffffffffffffffff16145b156135da578381600061358e600186611fb990919063ffffffff16565b815260200190815260200160002060000160106101000a8154816fffffffffffffffffffffffffffffffff02191690836fffffffffffffffffffffffffffffffff1602179055506136fe565b6040518060400160405280846fffffffffffffffffffffffffffffffff168152602001856fffffffffffffffffffffffffffffffff1681525081600084815260200190815260200160002060008201518160000160006101000a8154816fffffffffffffffffffffffffffffffff02191690836fffffffffffffffffffffffffffffffff16021790555060208201518160000160106101000a8154816fffffffffffffffffffffffffffffffff02191690836fffffffffffffffffffffffffffffffff1602179055509050506136ba600183611d9190919063ffffffff16565b600760008873ffffffffffffffffffffffffffffffffffffffff1673ffffffffffffffffffffffffffffffffffffffff168152602001908152602001600020819055505b7f2cd3c83ddac2953ee75f53265d9ea4463eaf05030e5459a1b7e63819b7ce88f7868686604051613731939291906142b2565b60405180910390a1505050505050565b60008060007fc5d2460186f7233c927e7db2dcc703c0e500b653ca82273b7bfad8045d85a47060001b9050833f915080821415801561378357506000801b8214155b92505050919050565b6040518060600160405280600073ffffffffffffffffffffffffffffffffffffffff16815260200160008152602001600081525090565b828054600181600116156101000203166002900490600052602060002090601f016020900481019282601f1061380457805160ff1916838001178555613832565b82800160010185558215613832579182015b82811115613831578251825591602001919060010190613816565b5b50905061383f9190613843565b5090565b5b8082111561385c576000816000905550600101613844565b5090565b60008135905061386f816147a9565b92915050565b60008083601f84011261388757600080fd5b8235905067ffffffffffffffff8111156138a057600080fd5b6020830191508360608202830111156138b857600080fd5b9250929050565b6000815190506138ce816147c0565b92915050565b6000813590506138e3816147d7565b92915050565b60008083601f8401126138fb57600080fd5b8235905067ffffffffffffffff81111561391457600080fd5b60208301915083600182028301111561392c57600080fd5b9250929050565b600081359050613942816147ee565b92915050565b60008135905061395781614805565b92915050565b60008135905061396c8161481c565b92915050565b60006020828403121561398457600080fd5b600061399284828501613860565b91505092915050565b600080604083850312156139ae57600080fd5b60006139bc85828601613860565b92505060206139cd85828601613860565b9150509250929050565b6000806000606084860312156139ec57600080fd5b60006139fa86828701613860565b9350506020613a0b86828701613860565b9250506040613a1c86828701613948565b9150509250925092565b60008060408385031215613a3957600080fd5b6000613a4785828601613860565b9250506020613a5885828601613948565b9150509250929050565b60008060208385031215613a7557600080fd5b600083013567ffffffffffffffff811115613a8f57600080fd5b613a9b85828601613875565b92509250509250929050565b600060208284031215613ab957600080fd5b6000613ac7848285016138bf565b91505092915050565b60008060008060008060808789031215613ae957600080fd5b6000613af789828a016138d4565b965050602087013567ffffffffffffffff811115613b1457600080fd5b613b2089828a016138e9565b9550955050604087013567ffffffffffffffff811115613b3f57600080fd5b613b4b89828a016138e9565b93509350506060613b5e89828a0161395d565b9150509295509295509295565b600060208284031215613b7d57600080fd5b6000613b8b84828501613933565b91505092915050565b60008060008060808587031215613baa57600080fd5b6000613bb887828801613948565b9450506020613bc987828801613948565b9350506040613bda87828801613860565b9250506060613beb87828801613948565b91505092959194509250565b613c0081614688565b82525050565b613c0f8161469a565b82525050565b6000613c2082614656565b613c2a818561466c565b9350613c3a818560208601614765565b80840191505092915050565b613c4f8161470b565b82525050565b613c5e8161472f565b82525050565b6000613c6f82614661565b613c798185614677565b9350613c89818560208601614765565b613c9281614798565b840191505092915050565b6000613caa602383614677565b91507f45524332303a207472616e7366657220746f20746865207a65726f206164647260008301527f65737300000000000000000000000000000000000000000000000000000000006020830152604082019050919050565b6000613d10602283614677565b91507f45524332303a20617070726f766520746f20746865207a65726f20616464726560008301527f73730000000000000000000000000000000000000000000000000000000000006020830152604082019050919050565b6000613d76601b83614677565b91507f536166654d6174683a206164646974696f6e206f766572666c6f7700000000006000830152602082019050919050565b6000613db6601383614677565b91507f494e56414c49445f5a45524f5f414d4f554e54000000000000000000000000006000830152602082019050919050565b6000613df6602083614677565b91507f5361666545524332303a206c6f772d6c6576656c2063616c6c206661696c65646000830152602082019050919050565b6000613e36601583614677565b91507f494e53554646494349454e545f434f4f4c444f574e00000000000000000000006000830152602082019050919050565b6000613e76602183614677565b91507f536166654d6174683a206d756c7469706c69636174696f6e206f766572666c6f60008301527f77000000000000000000000000000000000000000000000000000000000000006020830152604082019050919050565b6000613edc602e83614677565b91507f436f6e747261637420696e7374616e63652068617320616c726561647920626560008301527f656e20696e697469616c697a65640000000000000000000000000000000000006020830152604082019050919050565b6000613f42601583614677565b91507f4f4e4c595f454d495353494f4e5f4d414e4147455200000000000000000000006000830152602082019050919050565b6000613f82602183614677565b91507f45524332303a206275726e2066726f6d20746865207a65726f2061646472657360008301527f73000000000000000000000000000000000000000000000000000000000000006020830152604082019050919050565b6000613fe8602583614677565b91507f45524332303a207472616e736665722066726f6d20746865207a65726f20616460008301527f64726573730000000000000000000000000000000000000000000000000000006020830152604082019050919050565b600061404e601783614677565b91507f554e5354414b455f57494e444f575f46494e49534845440000000000000000006000830152602082019050919050565b600061408e602483614677565b91507f45524332303a20617070726f76652066726f6d20746865207a65726f2061646460008301527f72657373000000000000000000000000000000000000000000000000000000006020830152604082019050919050565b60006140f4602a83614677565b91507f5361666545524332303a204552433230206f7065726174696f6e20646964206e60008301527f6f742073756363656564000000000000000000000000000000000000000000006020830152604082019050919050565b600061415a601b83614677565b91507f494e56414c49445f42414c414e43455f4f4e5f434f4f4c444f574e00000000006000830152602082019050919050565b600061419a601f83614677565b91507f5361666545524332303a2063616c6c20746f206e6f6e2d636f6e7472616374006000830152602082019050919050565b60006141da601f83614677565b91507f45524332303a206d696e7420746f20746865207a65726f2061646472657373006000830152602082019050919050565b614216816146b8565b82525050565b61422581614753565b82525050565b614234816146f4565b82525050565b614243816146fe565b82525050565b60006142558284613c15565b915081905092915050565b60006020820190506142756000830184613bf7565b92915050565b60006060820190506142906000830186613bf7565b61429d6020830185613bf7565b6142aa604083018461422b565b949350505050565b60006060820190506142c76000830186613bf7565b6142d4602083018561420d565b6142e1604083018461420d565b949350505050565b60006040820190506142fe6000830185613bf7565b61430b602083018461422b565b9392505050565b60006020820190506143276000830184613c06565b92915050565b60006020820190506143426000830184613c46565b92915050565b600060208201905061435d6000830184613c55565b92915050565b6000602082019050818103600083015261437d8184613c64565b905092915050565b6000602082019050818103600083015261439e81613c9d565b9050919050565b600060208201905081810360008301526143be81613d03565b9050919050565b600060208201905081810360008301526143de81613d69565b9050919050565b600060208201905081810360008301526143fe81613da9565b9050919050565b6000602082019050818103600083015261441e81613de9565b9050919050565b6000602082019050818103600083015261443e81613e29565b9050919050565b6000602082019050818103600083015261445e81613e69565b9050919050565b6000602082019050818103600083015261447e81613ecf565b9050919050565b6000602082019050818103600083015261449e81613f35565b9050919050565b600060208201905081810360008301526144be81613f75565b9050919050565b600060208201905081810360008301526144de81613fdb565b9050919050565b600060208201905081810360008301526144fe81614041565b9050919050565b6000602082019050818103600083015261451e81614081565b9050919050565b6000602082019050818103600083015261453e816140e7565b9050919050565b6000602082019050818103600083015261455e8161414d565b9050919050565b6000602082019050818103600083015261457e8161418d565b9050919050565b6000602082019050818103600083015261459e816141cd565b9050919050565b60006020820190506145ba600083018461421c565b92915050565b60006040820190506145d5600083018561420d565b6145e2602083018461420d565b9392505050565b60006060820190506145fe600083018661420d565b61460b602083018561420d565b614618604083018461422b565b949350505050565b6000602082019050614635600083018461422b565b92915050565b6000602082019050614650600083018461423a565b92915050565b600081519050919050565b600081519050919050565b600081905092915050565b600082825260208201905092915050565b6000614693826146d4565b9050919050565b60008115159050919050565b60006146b182614688565b9050919050565b60006fffffffffffffffffffffffffffffffff82169050919050565b600073ffffffffffffffffffffffffffffffffffffffff82169050919050565b6000819050919050565b600060ff82169050919050565b60006147168261471d565b9050919050565b6000614728826146d4565b9050919050565b600061473a82614741565b9050919050565b600061474c826146d4565b9050919050565b600061475e826146b8565b9050919050565b60005b83811015614783578082015181840152602081019050614768565b83811115614792576000848401525b50505050565b6000601f19601f8301169050919050565b6147b281614688565b81146147bd57600080fd5b50565b6147c98161469a565b81146147d457600080fd5b50565b6147e0816146a6565b81146147eb57600080fd5b50565b6147f7816146b8565b811461480257600080fd5b50565b61480e816146f4565b811461481957600080fd5b50565b614825816146fe565b811461483057600080fd5b5056fe45524332303a206275726e20616d6f756e7420657863656564732062616c616e636545524332303a207472616e7366657220616d6f756e7420657863656564732062616c616e636545524332303a207472616e7366657220616d6f756e74206578636565647320616c6c6f77616e636545524332303a2064656372656173656420616c6c6f77616e63652062656c6f77207a65726fa26469706673582212203250cdabd08d4635aeea9c4f23350c058e50aa3fc21269ae3f2b1fc845a2966264736f6c634300060c0033",
  "immutableReferences": {
    "8838": [
      {
        "length": 32,
        "start": 4247
      },
      {
        "length": 32,
        "start": 12968
      },
      {
        "length": 32,
        "start": 13038
      },
      {
        "length": 32,
        "start": 13083
      }
    ],
    "8840": [
      {
        "length": 32,
        "start": 5782
      },
      {
        "length": 32,
        "start": 6369
      }
    ],
    "9363": [
      {
        "length": 32,
        "start": 2690
      },
      {
        "length": 32,
        "start": 3190
      },
      {
        "length": 32,
        "start": 5604
      }
    ],
    "9365": [
      {
        "length": 32,
        "start": 4481
      },
      {
        "length": 32,
        "start": 4771
      }
    ],
    "9367": [
      {
        "length": 32,
        "start": 2253
      },
      {
        "length": 32,
        "start": 2405
      },
      {
        "length": 32,
        "start": 3674
      },
      {
        "length": 32,
        "start": 6810
      },
      {
        "length": 32,
        "start": 7378
      },
      {
        "length": 32,
        "start": 7482
      }
    ],
    "9370": [
      {
        "length": 32,
        "start": 2366
      },
      {
        "length": 32,
        "start": 3387
      },
      {
        "length": 32,
        "start": 6774
      },
      {
        "length": 32,
        "start": 7443
      }
    ],
    "9373": [
      {
        "length": 32,
        "start": 4283
      },
      {
        "length": 32,
        "start": 4736
      }
    ]
  },
  "source": "// SPDX-License-Identifier: agpl-3.0\r\npragma solidity 0.6.12;\r\npragma experimental ABIEncoderV2;\r\n\r\n\r\n\r\n/**\r\n * @dev Interface of the ERC20 standard as defined in the EIP.\r\n * From https://github.com/OpenZeppelin/openzeppelin-contracts\r\n */\r\ninterface IERC20 {\r\n  /**\r\n   * @dev Returns the amount of tokens in existence.\r\n   */\r\n  function totalSupply() external view returns (uint256);\r\n\r\n  /**\r\n   * @dev Returns the amount of tokens owned by `account`.\r\n   */\r\n  function balanceOf(address account) external view returns (uint256);\r\n\r\n  /**\r\n   * \r\n   * @dev Moves `amount` tokens from the caller's account to `recipient`.\r\n   *\r\n   * Returns a boolean value indicating whether the operation succeeded.\r\n   *\r\n   * Emits a {Transfer} event.\r\n   */\r\n  function transfer(address recipient, uint256 amount) external returns (bool);\r\n\r\n  /**\r\n   * @dev Returns the remaining number of tokens that `spender` will be\r\n   * allowed to spend on behalf of `owner` through {transferFrom}. This is\r\n   * zero by default.\r\n   *\r\n   * This value changes when {approve} or {transferFrom} are called.\r\n   */\r\n  function allowance(address owner, address spender) external view returns (uint256);\r\n\r\n  /**\r\n   * @dev Sets `amount` as the allowance of `spender` over the caller's tokens.\r\n   *\r\n   * Returns a boolean value indicating whether the operation succeeded.\r\n   *\r\n   * IMPORTANT: Beware that changing an allowance with this method brings the risk\r\n   * that someone may use both the old and the new allowance by unfortunate\r\n   * transaction ordering. One possible solution to mitigate this race\r\n   * condition is to first reduce the spender's allowance to 0 and set the\r\n   * desired value afterwards:\r\n   * https://github.com/ethereum/EIPs/issues/20#issuecomment-263524729\r\n   *\r\n   * Emits an {Approval} event.\r\n   */\r\n  function approve(address spender, uint256 amount) external returns (bool);\r\n\r\n  /**\r\n   * @dev Moves `amount` tokens from `sender` to `recipient` using the\r\n   * allowance mechanism. `amount` is then deducted from the caller's\r\n   * allowance.\r\n   *\r\n   * Returns a boolean value indicating whether the operation succeeded.\r\n   *\r\n   * Emits a {Transfer} event.\r\n   */\r\n  function transferFrom(\r\n    address sender,\r\n    address recipient,\r\n    uint256 amount\r\n  ) external returns (bool);\r\n\r\n  /**\r\n   * @dev Emitted when `value` tokens are moved from one account (`from`) to\r\n   * another (`to`).\r\n   *\r\n   * Note that `value` may be zero.\r\n   */\r\n  event Transfer(address indexed from, address indexed to, uint256 value);\r\n\r\n  /**\r\n   * @dev Emitted when the allowance of a `spender` for an `owner` is set by\r\n   * a call to {approve}. `value` is the new allowance.\r\n   */\r\n  event Approval(address indexed owner, address indexed spender, uint256 value);\r\n}\r\n\r\n// File: contracts/interfaces/IStakedRoya.sol\r\n\r\n\r\npragma solidity 0.6.12;\r\n\r\ninterface IStakedRoya {\r\n  function stake(address to, uint256 amount) external;\r\n\r\n  function redeem(address to, uint256 amount) external;\r\n\r\n  function cooldown() external;\r\n\r\n  function claimRewards(address to, uint256 amount) external;\r\n}\r\n\r\n// File: contracts/interfaces/ITransferHook.sol\r\n\r\n\r\npragma solidity 0.6.12;\r\n\r\ninterface ITransferHook {\r\n    function onTransfer(address from, address to, uint256 amount) external;\r\n}\r\n\r\n// File: contracts/lib/Context.sol\r\n\r\n\r\n\r\npragma solidity 0.6.12;\r\n\r\n/**\r\n * @dev From https://github.com/OpenZeppelin/openzeppelin-contracts\r\n * Provides information about the current execution context, including the\r\n * sender of the transaction and its data. While these are generally available\r\n * via msg.sender and msg.data, they should not be accessed in such a direct\r\n * manner, since when dealing with GSN meta-transactions the account sending and\r\n * paying for execution may not be the actual sender (as far as an application\r\n * is concerned).\r\n *\r\n * This contract is only required for intermediate, library-like contracts.\r\n */\r\nabstract contract Context {\r\n    function _msgSender() internal virtual view returns (address payable) {\r\n        return msg.sender;\r\n    }\r\n\r\n    function _msgData() internal virtual view returns (bytes memory) {\r\n        this; // silence state mutability warning without generating bytecode - see https://github.com/ethereum/solidity/issues/2691\r\n        return msg.data;\r\n    }\r\n}\r\n\r\n// File: contracts/interfaces/IERC20Detailed.sol\r\n\r\n\r\npragma solidity 0.6.12;\r\n\r\n\r\n/**\r\n * @dev Interface for ERC20 including metadata\r\n **/\r\ninterface IERC20Detailed is IERC20 {\r\n    function name() external view returns (string memory);\r\n    function symbol() external view returns (string memory);\r\n    function decimals() external view returns (uint8);\r\n}\r\n\r\n// File: contracts/lib/SafeMath.sol\r\n\r\n\r\npragma solidity 0.6.12;\r\n\r\n/**\r\n * @dev From https://github.com/OpenZeppelin/openzeppelin-contracts\r\n * Wrappers over Solidity's arithmetic operations with added overflow\r\n * checks.\r\n *\r\n * Arithmetic operations in Solidity wrap on overflow. This can easily result\r\n * in bugs, because programmers usually assume that an overflow raises an\r\n * error, which is the standard behavior in high level programming languages.\r\n * `SafeMath` restores this intuition by reverting the transaction when an\r\n * operation overflows.\r\n *\r\n * Using this library instead of the unchecked operations eliminates an entire\r\n * class of bugs, so it's recommended to use it always.\r\n */\r\nlibrary SafeMath {\r\n    /**\r\n     * @dev Returns the addition of two unsigned integers, reverting on\r\n     * overflow.\r\n     *\r\n     * Counterpart to Solidity's `+` operator.\r\n     *\r\n     * Requirements:\r\n     * - Addition cannot overflow.\r\n     */\r\n    function add(uint256 a, uint256 b) internal pure returns (uint256) {\r\n        uint256 c = a + b;\r\n        require(c >= a, 'SafeMath: addition overflow');\r\n\r\n        return c;\r\n    }\r\n\r\n    /**\r\n     * @dev Returns the subtraction of two unsigned integers, reverting on\r\n     * overflow (when the result is negative).\r\n     *\r\n     * Counterpart to Solidity's `-` operator.\r\n     *\r\n     * Requirements:\r\n     * - Subtraction cannot overflow.\r\n     */\r\n    function sub(uint256 a, uint256 b) internal pure returns (uint256) {\r\n        return sub(a, b, 'SafeMath: subtraction overflow');\r\n    }\r\n\r\n    /**\r\n     * @dev Returns the subtraction of two unsigned integers, reverting with custom message on\r\n     * overflow (when the result is negative).\r\n     *\r\n     * Counterpart to Solidity's `-` operator.\r\n     *\r\n     * Requirements:\r\n     * - Subtraction cannot overflow.\r\n     */\r\n    function sub(\r\n        uint256 a,\r\n        uint256 b,\r\n        string memory errorMessage\r\n    ) internal pure returns (uint256) {\r\n        require(b <= a, errorMessage);\r\n        uint256 c = a - b;\r\n\r\n        return c;\r\n    }\r\n\r\n    /**\r\n     * @dev Returns the multiplication of two unsigned integers, reverting on\r\n     * overflow.\r\n     *\r\n     * Counterpart to Solidity's `*` operator.\r\n     *\r\n     * Requirements:\r\n     * - Multiplication cannot overflow.\r\n     */\r\n    function mul(uint256 a, uint256 b) internal pure returns (uint256) {\r\n        // Gas optimization: this is cheaper than requiring 'a' not being zero, but the\r\n        // benefit is lost if 'b' is also tested.\r\n        // See: https://github.com/OpenZeppelin/openzeppelin-contracts/pull/522\r\n        if (a == 0) {\r\n            return 0;\r\n        }\r\n\r\n        uint256 c = a * b;\r\n        require(c / a == b, 'SafeMath: multiplication overflow');\r\n\r\n        return c;\r\n    }\r\n\r\n    /**\r\n     * @dev Returns the integer division of two unsigned integers. Reverts on\r\n     * division by zero. The result is rounded towards zero.\r\n     *\r\n     * Counterpart to Solidity's `/` operator. Note: this function uses a\r\n     * `revert` opcode (which leaves remaining gas untouched) while Solidity\r\n     * uses an invalid opcode to revert (consuming all remaining gas).\r\n     *\r\n     * Requirements:\r\n     * - The divisor cannot be zero.\r\n     */\r\n    function div(uint256 a, uint256 b) internal pure returns (uint256) {\r\n        return div(a, b, 'SafeMath: division by zero');\r\n    }\r\n\r\n    /**\r\n     * @dev Returns the integer division of two unsigned integers. Reverts with custom message on\r\n     * division by zero. The result is rounded towards zero.\r\n     *\r\n     * Counterpart to Solidity's `/` operator. Note: this function uses a\r\n     * `revert` opcode (which leaves remaining gas untouched) while Solidity\r\n     * uses an invalid opcode to revert (consuming all remaining gas).\r\n     *\r\n     * Requirements:\r\n     * - The divisor cannot be zero.\r\n     */\r\n    function div(\r\n        uint256 a,\r\n        uint256 b,\r\n        string memory errorMessage\r\n    ) internal pure returns (uint256) {\r\n        // Solidity only automatically asserts when dividing by 0\r\n        require(b > 0, errorMessage);\r\n        uint256 c = a / b;\r\n        // assert(a == b * c + a % b); // There is no case in which this doesn't hold\r\n\r\n        return c;\r\n    }\r\n\r\n    /**\r\n     * @dev Returns the remainder of dividing two unsigned integers. (unsigned integer modulo),\r\n     * Reverts when dividing by zero.\r\n     *\r\n     * Counterpart to Solidity's `%` operator. This function uses a `revert`\r\n     * opcode (which leaves remaining gas untouched) while Solidity uses an\r\n     * invalid opcode to revert (consuming all remaining gas).\r\n     *\r\n     * Requirements:\r\n     * - The divisor cannot be zero.\r\n     */\r\n    function mod(uint256 a, uint256 b) internal pure returns (uint256) {\r\n        return mod(a, b, 'SafeMath: modulo by zero');\r\n    }\r\n\r\n    /**\r\n     * @dev Returns the remainder of dividing two unsigned integers. (unsigned integer modulo),\r\n     * Reverts with custom message when dividing by zero.\r\n     *\r\n     * Counterpart to Solidity's `%` operator. This function uses a `revert`\r\n     * opcode (which leaves remaining gas untouched) while Solidity uses an\r\n     * invalid opcode to revert (consuming all remaining gas).\r\n     *\r\n     * Requirements:\r\n     * - The divisor cannot be zero.\r\n     */\r\n    function mod(\r\n        uint256 a,\r\n        uint256 b,\r\n        string memory errorMessage\r\n    ) internal pure returns (uint256) {\r\n        require(b != 0, errorMessage);\r\n        return a % b;\r\n    }\r\n}\r\n\r\n// File: contracts/lib/ERC20.sol\r\n\r\n\r\npragma solidity 0.6.12;\r\n\r\n\r\n\r\n\r\n\r\n/**\r\n * @title ERC20\r\n * @notice Basic ERC20 implementation\r\n * @author Roya\r\n **/\r\ncontract ERC20 is Context, IERC20, IERC20Detailed {\r\n  using SafeMath for uint256;\r\n\r\n  mapping(address => uint256) private _balances;\r\n  mapping(address => mapping(address => uint256)) private _allowances;\r\n  uint256 private _totalSupply;\r\n  string private _name;\r\n  string private _symbol;\r\n  uint8 private _decimals;\r\n\r\n  constructor(\r\n    string memory name,\r\n    string memory symbol,\r\n    uint8 decimals\r\n  ) public {\r\n    _name = name;\r\n    _symbol = symbol;\r\n    _decimals = decimals;\r\n  }\r\n\r\n  /**\r\n   * @return the name of the token\r\n   **/\r\n  function name() public override view returns (string memory) {\r\n    return _name;\r\n  }\r\n\r\n  /**\r\n   * @return the symbol of the token\r\n   **/\r\n  function symbol() public override view returns (string memory) {\r\n    return _symbol;\r\n  }\r\n\r\n  /**\r\n   * @return the decimals of the token\r\n   **/\r\n  function decimals() public override view returns (uint8) {\r\n    return _decimals;\r\n  }\r\n\r\n  /**\r\n   * @return the total supply of the token\r\n   **/\r\n  function totalSupply() public override view returns (uint256) {\r\n    return _totalSupply;\r\n  }\r\n\r\n  /**\r\n   * @return the balance of the token\r\n   **/\r\n  function balanceOf(address account) public override view returns (uint256) {\r\n    return _balances[account];\r\n  }\r\n\r\n  /**\r\n   * @dev executes a transfer of tokens from msg.sender to recipient\r\n   * @param recipient the recipient of the tokens\r\n   * @param amount the amount of tokens being transferred\r\n   * @return true if the transfer succeeds, false otherwise\r\n   **/\r\n  function transfer(address recipient, uint256 amount) public virtual override returns (bool) {\r\n    _transfer(_msgSender(), recipient, amount);\r\n    return true;\r\n  }\r\n\r\n  /**\r\n   * @dev returns the allowance of spender on the tokens owned by owner\r\n   * @param owner the owner of the tokens\r\n   * @param spender the user allowed to spend the owner's tokens\r\n   * @return the amount of owner's tokens spender is allowed to spend\r\n   **/\r\n  function allowance(address owner, address spender)\r\n    public\r\n    virtual\r\n    override\r\n    view\r\n    returns (uint256)\r\n  {\r\n    return _allowances[owner][spender];\r\n  }\r\n\r\n  /**\r\n   * @dev allows spender to spend the tokens owned by msg.sender\r\n   * @param spender the user allowed to spend msg.sender tokens\r\n   * @return true\r\n   **/\r\n  function approve(address spender, uint256 amount) public virtual override returns (bool) {\r\n    _approve(_msgSender(), spender, amount);\r\n    return true;\r\n  }\r\n\r\n  /**\r\n   * @dev executes a transfer of token from sender to recipient, if msg.sender is allowed to do so\r\n   * @param sender the owner of the tokens\r\n   * @param recipient the recipient of the tokens\r\n   * @param amount the amount of tokens being transferred\r\n   * @return true if the transfer succeeds, false otherwise\r\n   **/\r\n  function transferFrom(\r\n    address sender,\r\n    address recipient,\r\n    uint256 amount\r\n  ) public virtual override returns (bool) {\r\n    _transfer(sender, recipient, amount);\r\n    _approve(\r\n      sender,\r\n      _msgSender(),\r\n      _allowances[sender][_msgSender()].sub(amount, 'ERC20: transfer amount exceeds allowance')\r\n    );\r\n    return true;\r\n  }\r\n\r\n  /**\r\n   * @dev increases the allowance of spender to spend msg.sender tokens\r\n   * @param spender the user allowed to spend on behalf of msg.sender\r\n   * @param addedValue the amount being added to the allowance\r\n   * @return true\r\n   **/\r\n  function increaseAllowance(address spender, uint256 addedValue) public virtual returns (bool) {\r\n    _approve(_msgSender(), spender, _allowances[_msgSender()][spender].add(addedValue));\r\n    return true;\r\n  }\r\n\r\n  /**\r\n   * @dev decreases the allowance of spender to spend msg.sender tokens\r\n   * @param spender the user allowed to spend on behalf of msg.sender\r\n   * @param subtractedValue the amount being subtracted to the allowance\r\n   * @return true\r\n   **/\r\n  function decreaseAllowance(address spender, uint256 subtractedValue)\r\n    public\r\n    virtual\r\n    returns (bool)\r\n  {\r\n    _approve(\r\n      _msgSender(),\r\n      spender,\r\n      _allowances[_msgSender()][spender].sub(\r\n        subtractedValue,\r\n        'ERC20: decreased allowance below zero'\r\n      )\r\n    );\r\n    return true;\r\n  }\r\n\r\n  function _transfer(\r\n    address sender,\r\n    address recipient,\r\n    uint256 amount\r\n  ) internal virtual {\r\n    require(sender != address(0), 'ERC20: transfer from the zero address');\r\n    require(recipient != address(0), 'ERC20: transfer to the zero address');\r\n\r\n    _beforeTokenTransfer(sender, recipient, amount);\r\n\r\n    _balances[sender] = _balances[sender].sub(amount, 'ERC20: transfer amount exceeds balance');\r\n    _balances[recipient] = _balances[recipient].add(amount);\r\n    emit Transfer(sender, recipient, amount);\r\n  }\r\n\r\n  function _mint(address account, uint256 amount) internal virtual {\r\n    require(account != address(0), 'ERC20: mint to the zero address');\r\n\r\n    _beforeTokenTransfer(address(0), account, amount);\r\n\r\n    _totalSupply = _totalSupply.add(amount);\r\n    _balances[account] = _balances[account].add(amount);\r\n    emit Transfer(address(0), account, amount);\r\n  }\r\n\r\n  function _burn(address account, uint256 amount) internal virtual {\r\n    require(account != address(0), 'ERC20: burn from the zero address');\r\n\r\n    _beforeTokenTransfer(account, address(0), amount);\r\n\r\n    _balances[account] = _balances[account].sub(amount, 'ERC20: burn amount exceeds balance');\r\n    _totalSupply = _totalSupply.sub(amount);\r\n    emit Transfer(account, address(0), amount);\r\n  }\r\n\r\n  function _approve(\r\n    address owner,\r\n    address spender,\r\n    uint256 amount\r\n  ) internal virtual {\r\n    require(owner != address(0), 'ERC20: approve from the zero address');\r\n    require(spender != address(0), 'ERC20: approve to the zero address');\r\n\r\n    _allowances[owner][spender] = amount;\r\n    emit Approval(owner, spender, amount);\r\n  }\r\n\r\n  function _setName(string memory newName) internal {\r\n    _name = newName;\r\n  }\r\n\r\n  function _setSymbol(string memory newSymbol) internal {\r\n    _symbol = newSymbol;\r\n  }\r\n\r\n  function _setDecimals(uint8 newDecimals) internal {\r\n    _decimals = newDecimals;\r\n  }\r\n\r\n  function _beforeTokenTransfer(\r\n    address from,\r\n    address to,\r\n    uint256 amount\r\n  ) internal virtual {}\r\n}\r\n\r\n// File: contracts/lib/ERC20WithSnapshot.sol\r\n\r\n\r\npragma solidity 0.6.12;\r\n\r\n\r\n\r\n/**\r\n * @title ERC20WithSnapshot\r\n * @notice ERC20 including snapshots of balances on transfer-related actions\r\n * @author Roya\r\n **/\r\ncontract ERC20WithSnapshot is ERC20 {\r\n\r\n    /// @dev snapshot of a value on a specific block, used for balances\r\n    struct Snapshot {\r\n        uint128 blockNumber;\r\n        uint128 value;\r\n    }\r\n\r\n    mapping (address => mapping (uint256 => Snapshot)) public _snapshots;\r\n    mapping (address => uint256) public _countsSnapshots;\r\n    /// @dev reference to the Roya governance contract to call (if initialized) on _beforeTokenTransfer\r\n    /// !!! IMPORTANT The Roya governance is considered a trustable contract, being its responsibility\r\n    /// to control all potential reentrancies by calling back the this contract\r\n    ITransferHook public _royaGovernance;\r\n\r\n    event SnapshotDone(address owner, uint128 oldValue, uint128 newValue);\r\n\r\n    constructor(string memory name, string memory symbol, uint8 decimals) public ERC20(name, symbol, decimals) {}\r\n\r\n    function _setRoyaGovernance(ITransferHook royaGovernance) internal virtual {\r\n        _royaGovernance = royaGovernance;\r\n    }\r\n\r\n    /**\r\n    * @dev Writes a snapshot for an owner of tokens\r\n    * @param owner The owner of the tokens\r\n    * @param oldValue The value before the operation that is gonna be executed after the snapshot\r\n    * @param newValue The value after the operation\r\n    */\r\n    function _writeSnapshot(address owner, uint128 oldValue, uint128 newValue) internal virtual {\r\n        uint128 currentBlock = uint128(block.number);\r\n\r\n        uint256 ownerCountOfSnapshots = _countsSnapshots[owner];\r\n        mapping (uint256 => Snapshot) storage snapshotsOwner = _snapshots[owner];\r\n\r\n        // Doing multiple operations in the same block\r\n        if (ownerCountOfSnapshots != 0 && snapshotsOwner[ownerCountOfSnapshots.sub(1)].blockNumber == currentBlock) {\r\n            snapshotsOwner[ownerCountOfSnapshots.sub(1)].value = newValue;\r\n        } else {\r\n            snapshotsOwner[ownerCountOfSnapshots] = Snapshot(currentBlock, newValue);\r\n            _countsSnapshots[owner] = ownerCountOfSnapshots.add(1);\r\n        }\r\n\r\n        emit SnapshotDone(owner, oldValue, newValue);\r\n    }\r\n\r\n    /**\r\n    * @dev Writes a snapshot before any operation involving transfer of value: _transfer, _mint and _burn\r\n    * - On _transfer, it writes snapshots for both \"from\" and \"to\"\r\n    * - On _mint, only for _to\r\n    * - On _burn, only for _from\r\n    * @param from the from address\r\n    * @param to the to address\r\n    * @param amount the amount to transfer\r\n    */\r\n    function _beforeTokenTransfer(address from, address to, uint256 amount) internal override {\r\n        if (from == to) {\r\n            return;\r\n        }\r\n\r\n        if (from != address(0)) {\r\n            uint256 fromBalance = balanceOf(from);\r\n            _writeSnapshot(from, uint128(fromBalance), uint128(fromBalance.sub(amount)));\r\n        }\r\n        if (to != address(0)) {\r\n            uint256 toBalance = balanceOf(to);\r\n            _writeSnapshot(to, uint128(toBalance), uint128(toBalance.add(amount)));\r\n        }\r\n\r\n        // caching the roya governance address to avoid multiple state loads\r\n        ITransferHook royaGovernance = _royaGovernance;\r\n        if (royaGovernance != ITransferHook(0)) {\r\n            royaGovernance.onTransfer(from, to, amount);\r\n        }\r\n    }\r\n}\r\n\r\n// File: contracts/lib/Address.sol\r\n\r\n\r\npragma solidity 0.6.12;\r\n\r\n/**\r\n * @dev Collection of functions related to the address type\r\n * From https://github.com/OpenZeppelin/openzeppelin-contracts\r\n */\r\nlibrary Address {\r\n    /**\r\n     * @dev Returns true if `account` is a contract.\r\n     *\r\n     * [IMPORTANT]\r\n     * ====\r\n     * It is unsafe to assume that an address for which this function returns\r\n     * false is an externally-owned account (EOA) and not a contract.\r\n     *\r\n     * Among others, `isContract` will return false for the following\r\n     * types of addresses:\r\n     *\r\n     *  - an externally-owned account\r\n     *  - a contract in construction\r\n     *  - an address where a contract will be created\r\n     *  - an address where a contract lived, but was destroyed\r\n     * ====\r\n     */\r\n    function isContract(address account) internal view returns (bool) {\r\n        // According to EIP-1052, 0x0 is the value returned for not-yet created accounts\r\n        // and 0xc5d2460186f7233c927e7db2dcc703c0e500b653ca82273b7bfad8045d85a470 is returned\r\n        // for accounts without code, i.e. `keccak256('')`\r\n        bytes32 codehash;\r\n        bytes32 accountHash = 0xc5d2460186f7233c927e7db2dcc703c0e500b653ca82273b7bfad8045d85a470;\r\n        // solhint-disable-next-line no-inline-assembly\r\n        assembly {\r\n            codehash := extcodehash(account)\r\n        }\r\n        return (codehash != accountHash && codehash != 0x0);\r\n    }\r\n\r\n    /**\r\n     * @dev Replacement for Solidity's `transfer`: sends `amount` wei to\r\n     * `recipient`, forwarding all available gas and reverting on errors.\r\n     *\r\n     * https://eips.ethereum.org/EIPS/eip-1884[EIP1884] increases the gas cost\r\n     * of certain opcodes, possibly making contracts go over the 2300 gas limit\r\n     * imposed by `transfer`, making them unable to receive funds via\r\n     * `transfer`. {sendValue} removes this limitation.\r\n     *\r\n     * https://diligence.consensys.net/posts/2019/09/stop-using-soliditys-transfer-now/[Learn more].\r\n     *\r\n     * IMPORTANT: because control is transferred to `recipient`, care must be\r\n     * taken to not create reentrancy vulnerabilities. Consider using\r\n     * {ReentrancyGuard} or the\r\n     * https://solidity.readthedocs.io/en/v0.5.11/security-considerations.html#use-the-checks-effects-interactions-pattern[checks-effects-interactions pattern].\r\n     */\r\n    function sendValue(address payable recipient, uint256 amount) internal {\r\n        require(address(this).balance >= amount, 'Address: insufficient balance');\r\n\r\n        // solhint-disable-next-line avoid-low-level-calls, avoid-call-value\r\n        (bool success, ) = recipient.call{value: amount}('');\r\n        require(success, 'Address: unable to send value, recipient may have reverted');\r\n    }\r\n}\r\n\r\n// File: contracts/lib/SafeERC20.sol\r\n\r\n\r\n\r\npragma solidity 0.6.12;\r\n\r\n\r\n\r\n\r\n/**\r\n * @title SafeERC20\r\n * @dev From https://github.com/OpenZeppelin/openzeppelin-contracts\r\n * Wrappers around ERC20 operations that throw on failure (when the token\r\n * contract returns false). Tokens that return no value (and instead revert or\r\n * throw on failure) are also supported, non-reverting calls are assumed to be\r\n * successful.\r\n * To use this library you can add a `using SafeERC20 for IERC20;` statement to your contract,\r\n * which allows you to call the safe operations as `token.safeTransfer(...)`, etc.\r\n */\r\nlibrary SafeERC20 {\r\n    using SafeMath for uint256;\r\n    using Address for address;\r\n\r\n    function safeTransfer(IERC20 token, address to, uint256 value) internal {\r\n        callOptionalReturn(token, abi.encodeWithSelector(token.transfer.selector, to, value));\r\n    }\r\n\r\n    function safeTransferFrom(IERC20 token, address from, address to, uint256 value) internal {\r\n        callOptionalReturn(token, abi.encodeWithSelector(token.transferFrom.selector, from, to, value));\r\n    }\r\n\r\n    function safeApprove(IERC20 token, address spender, uint256 value) internal {\r\n        require((value == 0) || (token.allowance(address(this), spender) == 0),\r\n            \"SafeERC20: approve from non-zero to non-zero allowance\"\r\n        );\r\n        callOptionalReturn(token, abi.encodeWithSelector(token.approve.selector, spender, value));\r\n    }\r\n    \r\n    function callOptionalReturn(IERC20 token, bytes memory data) private {\r\n        require(address(token).isContract(), \"SafeERC20: call to non-contract\");\r\n\r\n        // solhint-disable-next-line avoid-low-level-calls\r\n        (bool success, bytes memory returndata) = address(token).call(data);\r\n        require(success, \"SafeERC20: low-level call failed\");\r\n\r\n        if (returndata.length > 0) { // Return data is optional\r\n            // solhint-disable-next-line max-line-length\r\n            require(abi.decode(returndata, (bool)), \"SafeERC20: ERC20 operation did not succeed\");\r\n        }\r\n    }\r\n}\r\n\r\n// File: contracts/utils/VersionedInitializable.sol\r\n\r\n\r\npragma solidity 0.6.12;\r\n\r\n/**\r\n * @title VersionedInitializable\r\n *\r\n * @dev Helper contract to support initializer functions. To use it, replace\r\n * the constructor with a function that has the `initializer` modifier.\r\n * WARNING: Unlike constructors, initializer functions must be manually\r\n * invoked. This applies both to deploying an Initializable contract, as well\r\n * as extending an Initializable contract via inheritance.\r\n * WARNING: When used with inheritance, manual care must be taken to not invoke\r\n * a parent initializer twice, or ensure that all initializers are idempotent,\r\n * because this is not dealt with automatically as with constructors.\r\n *\r\n * @author Roya, inspired by the OpenZeppelin Initializable contract\r\n */\r\nabstract contract VersionedInitializable {\r\n    /**\r\n     * @dev Indicates that the contract has been initialized.\r\n     */\r\n    uint256 internal lastInitializedRevision = 0;\r\n\r\n    /**\r\n     * @dev Modifier to use in the initializer function of a contract.\r\n     */\r\n    modifier initializer() {\r\n        uint256 revision = getRevision();\r\n        require(\r\n            revision > lastInitializedRevision,\r\n            'Contract instance has already been initialized'\r\n        );\r\n\r\n        lastInitializedRevision = revision;\r\n\r\n        _;\r\n    }\r\n\r\n    /// @dev returns the revision number of the contract.\r\n    /// Needs to be defined in the inherited class as a constant.\r\n    function getRevision() internal virtual pure returns (uint256);\r\n\r\n    // Reserved storage space to allow for layout changes in the future.\r\n    uint256[50] private ______gap;\r\n}\r\n\r\n// File: contracts/lib/DistributionTypes.sol\r\n\r\n\r\npragma solidity 0.6.12;\r\n\r\n\r\nlibrary DistributionTypes {\r\n  struct AssetConfigInput {\r\n    uint128 emissionPerSecond;\r\n    uint256 totalStaked;\r\n    address underlyingAsset;\r\n  }\r\n\r\n  struct UserStakeInput {\r\n    address underlyingAsset;\r\n    uint256 stakedByUser;\r\n    uint256 totalStaked;\r\n  }\r\n}\r\n\r\n// File: contracts/interfaces/IRoyaDistributionManager.sol\r\n\r\n\r\npragma solidity 0.6.12;\r\n\r\n\r\n\r\ninterface IRoyaDistributionManager {\r\n  function configureAssets(DistributionTypes.AssetConfigInput[] calldata assetsConfigInput) external;\r\n}\r\n\r\n// File: contracts/stake/RoyaDistributionManager.sol\r\n\r\n\r\npragma solidity 0.6.12;\r\n\r\n\r\n\r\n\r\n\r\n/**\r\n * @title RoyaDistributionManager\r\n * @notice Accounting contract to manage multiple staking distributions\r\n * @author Roya\r\n **/\r\ncontract RoyaDistributionManager is IRoyaDistributionManager {\r\n  using SafeMath for uint256;\r\n\r\n  struct AssetData {\r\n    uint128 emissionPerSecond;\r\n    uint128 lastUpdateTimestamp;\r\n    uint256 index;\r\n    mapping(address => uint256) users;\r\n  }\r\n\r\n  uint256 public immutable DISTRIBUTION_END;\r\n\r\n  address public immutable EMISSION_MANAGER;\r\n\r\n  uint8 public constant PRECISION = 18;\r\n\r\n  mapping(address => AssetData) public assets;\r\n\r\n  event AssetConfigUpdated(address indexed asset, uint256 emission);\r\n  event AssetIndexUpdated(address indexed asset, uint256 index);\r\n  event UserIndexUpdated(address indexed user, address indexed asset, uint256 index);\r\n\r\n  constructor(address emissionManager, uint256 distributionDuration) public {\r\n    DISTRIBUTION_END = block.timestamp.add(distributionDuration);\r\n    EMISSION_MANAGER = emissionManager;\r\n  }\r\n\r\n  /**\r\n   * @dev Configures the distribution of rewards for a list of assets\r\n   * @param assetsConfigInput The list of configurations to apply\r\n   **/\r\n  function configureAssets(DistributionTypes.AssetConfigInput[] calldata assetsConfigInput) external override {\r\n    require(msg.sender == EMISSION_MANAGER, 'ONLY_EMISSION_MANAGER');\r\n\r\n    for (uint256 i = 0; i < assetsConfigInput.length; i++) {\r\n      AssetData storage assetConfig = assets[assetsConfigInput[i].underlyingAsset];\r\n\r\n      _updateAssetStateInternal(\r\n        assetsConfigInput[i].underlyingAsset,\r\n        assetConfig,\r\n        assetsConfigInput[i].totalStaked\r\n      );\r\n\r\n      assetConfig.emissionPerSecond = assetsConfigInput[i].emissionPerSecond;\r\n\r\n      emit AssetConfigUpdated(\r\n        assetsConfigInput[i].underlyingAsset,\r\n        assetsConfigInput[i].emissionPerSecond\r\n      );\r\n    }\r\n  }\r\n\r\n  /**\r\n   * @dev Updates the state of one distribution, mainly rewards index and timestamp\r\n   * @param underlyingAsset The address used as key in the distribution, for example sAAVE or the aTokens addresses on Roya\r\n   * @param assetConfig Storage pointer to the distribution's config\r\n   * @param totalStaked Current total of staked assets for this distribution\r\n   * @return The new distribution index\r\n   **/\r\n  function _updateAssetStateInternal(\r\n    address underlyingAsset,\r\n    AssetData storage assetConfig,\r\n    uint256 totalStaked\r\n  ) internal returns (uint256) {\r\n    uint256 oldIndex = assetConfig.index;\r\n    uint128 lastUpdateTimestamp = assetConfig.lastUpdateTimestamp;\r\n\r\n    if (block.timestamp == lastUpdateTimestamp) {\r\n      return oldIndex;\r\n    }\r\n\r\n    uint256 newIndex = _getAssetIndex(\r\n      oldIndex,\r\n      assetConfig.emissionPerSecond,\r\n      lastUpdateTimestamp,\r\n      totalStaked\r\n    );\r\n\r\n    if (newIndex != oldIndex) {\r\n      assetConfig.index = newIndex;\r\n      emit AssetIndexUpdated(underlyingAsset, newIndex);\r\n    }\r\n\r\n    assetConfig.lastUpdateTimestamp = uint128(block.timestamp);\r\n\r\n    return newIndex;\r\n  }\r\n\r\n  /**\r\n   * @dev Updates the state of an user in a distribution\r\n   * @param user The user's address\r\n   * @param asset The address of the reference asset of the distribution\r\n   * @param stakedByUser Amount of tokens staked by the user in the distribution at the moment\r\n   * @param totalStaked Total tokens staked in the distribution\r\n   * @return The accrued rewards for the user until the moment\r\n   **/\r\n  function _updateUserAssetInternal(\r\n    address user,\r\n    address asset,\r\n    uint256 stakedByUser,\r\n    uint256 totalStaked\r\n  ) internal returns (uint256) {\r\n    AssetData storage assetData = assets[asset];\r\n    uint256 userIndex = assetData.users[user];\r\n    uint256 accruedRewards = 0;\r\n\r\n    uint256 newIndex = _updateAssetStateInternal(asset, assetData, totalStaked);\r\n\r\n    if (userIndex != newIndex) {\r\n      if (stakedByUser != 0) {\r\n        accruedRewards = _getRewards(stakedByUser, newIndex, userIndex);\r\n      }\r\n\r\n      assetData.users[user] = newIndex;\r\n      emit UserIndexUpdated(user, asset, newIndex);\r\n    }\r\n\r\n    return accruedRewards;\r\n  }\r\n\r\n  /**\r\n   * @dev Used by \"frontend\" stake contracts to update the data of an user when claiming rewards from there\r\n   * @param user The address of the user\r\n   * @param stakes List of structs of the user data related with his stake\r\n   * @return The accrued rewards for the user until the moment\r\n   **/\r\n  function _claimRewards(address user, DistributionTypes.UserStakeInput[] memory stakes)\r\n    internal\r\n    returns (uint256)\r\n  {\r\n    uint256 accruedRewards = 0;\r\n\r\n    for (uint256 i = 0; i < stakes.length; i++) {\r\n      accruedRewards = accruedRewards.add(\r\n        _updateUserAssetInternal(\r\n          user,\r\n          stakes[i].underlyingAsset,\r\n          stakes[i].stakedByUser,\r\n          stakes[i].totalStaked\r\n        )\r\n      );\r\n    }\r\n\r\n    return accruedRewards;\r\n  }\r\n\r\n  /**\r\n   * @dev Return the accrued rewards for an user over a list of distribution\r\n   * @param user The address of the user\r\n   * @param stakes List of structs of the user data related with his stake\r\n   * @return The accrued rewards for the user until the moment\r\n   **/\r\n  function _getUnclaimedRewards(address user, DistributionTypes.UserStakeInput[] memory stakes)\r\n    internal\r\n    view\r\n    returns (uint256)\r\n  {\r\n    uint256 accruedRewards = 0;\r\n\r\n    for (uint256 i = 0; i < stakes.length; i++) {\r\n      AssetData storage assetConfig = assets[stakes[i].underlyingAsset];\r\n      uint256 assetIndex = _getAssetIndex(\r\n        assetConfig.index,\r\n        assetConfig.emissionPerSecond,\r\n        assetConfig.lastUpdateTimestamp,\r\n        stakes[i].totalStaked\r\n      );\r\n\r\n      accruedRewards = accruedRewards.add(\r\n        _getRewards(stakes[i].stakedByUser, assetIndex, assetConfig.users[user])\r\n      );\r\n    }\r\n    return accruedRewards;\r\n  }\r\n\r\n  /**\r\n   * @dev Internal function for the calculation of user's rewards on a distribution\r\n   * @param principalUserBalance Amount staked by the user on a distribution\r\n   * @param reserveIndex Current index of the distribution\r\n   * @param userIndex Index stored for the user, representation his staking moment\r\n   * @return The rewards\r\n   **/\r\n  function _getRewards(\r\n    uint256 principalUserBalance,\r\n    uint256 reserveIndex,\r\n    uint256 userIndex\r\n  ) internal pure returns (uint256) {\r\n    return principalUserBalance.mul(reserveIndex.sub(userIndex)).div(10**uint256(PRECISION));\r\n  }\r\n\r\n  /**\r\n   * @dev Calculates the next value of an specific distribution index, with validations\r\n   * @param currentIndex Current index of the distribution\r\n   * @param emissionPerSecond Representing the total rewards distributed per second per asset unit, on the distribution\r\n   * @param lastUpdateTimestamp Last moment this distribution was updated\r\n   * @param totalBalance of tokens considered for the distribution\r\n   * @return The new index.\r\n   **/\r\n  function _getAssetIndex(\r\n    uint256 currentIndex,\r\n    uint256 emissionPerSecond,\r\n    uint128 lastUpdateTimestamp,\r\n    uint256 totalBalance\r\n  ) internal view returns (uint256) {\r\n    if (\r\n      emissionPerSecond == 0 ||\r\n      totalBalance == 0 ||\r\n      lastUpdateTimestamp == block.timestamp ||\r\n      lastUpdateTimestamp >= DISTRIBUTION_END\r\n    ) {\r\n      return currentIndex;\r\n    }\r\n\r\n    uint256 currentTimestamp = block.timestamp > DISTRIBUTION_END\r\n      ? DISTRIBUTION_END\r\n      : block.timestamp;\r\n    uint256 timeDelta = currentTimestamp.sub(lastUpdateTimestamp);\r\n    return\r\n      emissionPerSecond.mul(timeDelta).mul(10**uint256(PRECISION)).div(totalBalance).add(\r\n        currentIndex\r\n      );\r\n  }\r\n\r\n  /**\r\n   * @dev Returns the data of an user on a distribution\r\n   * @param user Address of the user\r\n   * @param asset The address of the reference asset of the distribution\r\n   * @return The new index\r\n   **/\r\n  function getUserAssetData(address user, address asset) public view returns (uint256) {\r\n    return assets[asset].users[user];\r\n  }\r\n}\r\n\r\n// File: contracts/stake/StakedToken.sol\r\n\r\n\r\npragma solidity 0.6.12;\r\n\r\n\r\n\r\n\r\n\r\n\r\n\r\n\r\n\r\n\r\n/**\r\n * @title StakedToken\r\n * @notice Contract to stake Roya token, tokenize the position and get rewards, inheriting from a distribution manager contract\r\n * @author Roya\r\n **/\r\ncontract StakedToken is IStakedRoya, ERC20WithSnapshot, VersionedInitializable, RoyaDistributionManager {\r\n  using SafeERC20 for IERC20;\r\n\r\n  uint256 public constant REVISION = 1;\r\n\r\n  IERC20 public immutable STAKED_TOKEN;\r\n  IERC20 public immutable REWARD_TOKEN;\r\n  uint256 public immutable COOLDOWN_SECONDS;\r\n\r\n  /// @notice Seconds available to redeem once the cooldown period is fullfilled\r\n  uint256 public immutable UNSTAKE_WINDOW;\r\n\r\n  /// @notice Address to pull from the rewards, needs to have approved this contract\r\n  address public immutable REWARDS_VAULT;\r\n\r\n  mapping(address => uint256) public stakerRewardsToClaim;\r\n  mapping(address => uint256) public stakersCooldowns;\r\n\r\n  event Staked(address indexed from, address indexed onBehalfOf, uint256 amount);\r\n  event Redeem(address indexed from, address indexed to, uint256 amount);\r\n\r\n  event RewardsAccrued(address user, uint256 amount);\r\n  event RewardsClaimed(address indexed from, address indexed to, uint256 amount);\r\n\r\n  event Cooldown(address indexed user);\r\n\r\n  constructor(\r\n    IERC20 stakedToken,\r\n    IERC20 rewardToken,\r\n    uint256 cooldownSeconds,\r\n    uint256 unstakeWindow,\r\n    address rewardsVault,\r\n    address emissionManager,\r\n    uint128 distributionDuration,\r\n    string memory name,\r\n    string memory symbol,\r\n    uint8 decimals\r\n  ) public ERC20WithSnapshot(name, symbol, decimals) RoyaDistributionManager(emissionManager, distributionDuration) {\r\n    STAKED_TOKEN = stakedToken;\r\n    REWARD_TOKEN = rewardToken;\r\n    COOLDOWN_SECONDS = cooldownSeconds;\r\n    UNSTAKE_WINDOW = unstakeWindow;\r\n    REWARDS_VAULT = rewardsVault;\r\n  }\r\n\r\n  /**\r\n   * @dev Called by the proxy contract\r\n   **/\r\n  function initialize(ITransferHook royaGovernance, string calldata name, string calldata symbol, uint8 decimals) external initializer {\r\n    _setName(name);\r\n    _setSymbol(symbol);\r\n    _setDecimals(decimals);\r\n    _setRoyaGovernance(royaGovernance);\r\n  }\r\n\r\n  function getStakersCooldowns(address user) public view returns(uint256){\r\n    uint256 cooldownStartTimestamp = stakersCooldowns[user];\r\n    if (block.timestamp < cooldownStartTimestamp.add(COOLDOWN_SECONDS))\r\n        return 1;\r\n    else if (block.timestamp.sub(cooldownStartTimestamp.add(COOLDOWN_SECONDS)) <= UNSTAKE_WINDOW)\r\n        return 2;\r\n    else \r\n        return 0;\r\n  }\r\n\r\n  function stake(address onBehalfOf, uint256 amount) external override {\r\n    require(amount != 0, 'INVALID_ZERO_AMOUNT');\r\n    uint256 balanceOfUser = balanceOf(onBehalfOf);\r\n\r\n    uint256 accruedRewards = _updateUserAssetInternal(\r\n      onBehalfOf,\r\n      address(this),\r\n      balanceOfUser,\r\n      totalSupply()\r\n    );\r\n    if (accruedRewards != 0) {\r\n      emit RewardsAccrued(onBehalfOf, accruedRewards);\r\n      stakerRewardsToClaim[onBehalfOf] = stakerRewardsToClaim[onBehalfOf].add(accruedRewards);\r\n    }\r\n\r\n    stakersCooldowns[onBehalfOf] = getNextCooldownTimestamp(0, amount, onBehalfOf, balanceOfUser);\r\n\r\n    _mint(onBehalfOf, amount);\r\n    IERC20(STAKED_TOKEN).safeTransferFrom(msg.sender, address(this), amount);\r\n\r\n    emit Staked(msg.sender, onBehalfOf, amount);\r\n  }\r\n\r\n  /**\r\n   * @dev Redeems staked tokens, and stop earning rewards\r\n   * @param to Address to redeem to\r\n   * @param amount Amount to redeem\r\n   **/\r\n  function redeem(address to, uint256 amount) external override {\r\n    require(amount != 0, 'INVALID_ZERO_AMOUNT');\r\n    //solium-disable-next-line\r\n    uint256 cooldownStartTimestamp = stakersCooldowns[msg.sender];\r\n    require(\r\n      block.timestamp > cooldownStartTimestamp.add(COOLDOWN_SECONDS),\r\n      'INSUFFICIENT_COOLDOWN'\r\n    );\r\n    require(\r\n      block.timestamp.sub(cooldownStartTimestamp.add(COOLDOWN_SECONDS)) <= UNSTAKE_WINDOW,\r\n      'UNSTAKE_WINDOW_FINISHED'\r\n    );\r\n    uint256 balanceOfMessageSender = balanceOf(msg.sender);\r\n\r\n    uint256 amountToRedeem = (amount > balanceOfMessageSender) ? balanceOfMessageSender : amount;\r\n\r\n    _updateCurrentUnclaimedRewards(msg.sender, balanceOfMessageSender, true);\r\n\r\n    _burn(msg.sender, amountToRedeem);\r\n\r\n    if (balanceOfMessageSender.sub(amountToRedeem) == 0) {\r\n      stakersCooldowns[msg.sender] = 0;\r\n    }\r\n\r\n    IERC20(STAKED_TOKEN).safeTransfer(to, amountToRedeem);\r\n\r\n    emit Redeem(msg.sender, to, amountToRedeem);\r\n  }\r\n\r\n  /**\r\n   * @dev Activates the cooldown period to unstake\r\n   * - It can't be called if the user is not staking\r\n   **/\r\n  function cooldown() external override {\r\n    require(balanceOf(msg.sender) != 0, \"INVALID_BALANCE_ON_COOLDOWN\");\r\n    //solium-disable-next-line\r\n    stakersCooldowns[msg.sender] = block.timestamp;\r\n\r\n    emit Cooldown(msg.sender);\r\n  }\r\n\r\n  /**\r\n   * @dev Claims an `amount` of `REWARD_TOKEN` to the address `to`\r\n   * @param to Address to stake for\r\n   * @param amount Amount to stake\r\n   **/\r\n  function claimRewards(address to, uint256 amount) external override {\r\n    uint256 newTotalRewards = _updateCurrentUnclaimedRewards(\r\n      msg.sender,\r\n      balanceOf(msg.sender),\r\n      false\r\n    );\r\n    uint256 amountToClaim = (amount == type(uint256).max) ? newTotalRewards : amount;\r\n\r\n    stakerRewardsToClaim[msg.sender] = newTotalRewards.sub(amountToClaim, \"INVALID_AMOUNT\");\r\n\r\n    REWARD_TOKEN.safeTransferFrom(REWARDS_VAULT, to, amountToClaim);\r\n\r\n    emit RewardsClaimed(msg.sender, to, amountToClaim);\r\n  }\r\n\r\n  /**\r\n   * @dev Internal ERC20 _transfer of the tokenized staked tokens\r\n   * @param from Address to transfer from\r\n   * @param to Address to transfer to\r\n   * @param amount Amount to transfer\r\n   **/\r\n  function _transfer(\r\n    address from,\r\n    address to,\r\n    uint256 amount\r\n  ) internal override {\r\n    uint256 balanceOfFrom = balanceOf(from);\r\n    // Sender\r\n    _updateCurrentUnclaimedRewards(from, balanceOfFrom, true);\r\n\r\n    // Recipient\r\n    if (from != to) {\r\n      uint256 balanceOfTo = balanceOf(to);\r\n      _updateCurrentUnclaimedRewards(to, balanceOfTo, true);\r\n\r\n      uint256 previousSenderCooldown = stakersCooldowns[from];\r\n      stakersCooldowns[to] = getNextCooldownTimestamp(previousSenderCooldown, amount, to, balanceOfTo);\r\n      // if cooldown was set and whole balance of sender was transferred - clear cooldown\r\n      if (balanceOfFrom == amount && previousSenderCooldown != 0) {\r\n        stakersCooldowns[from] = 0;\r\n      }\r\n    }\r\n\r\n    super._transfer(from, to, amount);\r\n  }\r\n\r\n  /**\r\n   * @dev Updates the user state related with his accrued rewards\r\n   * @param user Address of the user\r\n   * @param userBalance The current balance of the user\r\n   * @param updateStorage Boolean flag used to update or not the stakerRewardsToClaim of the user\r\n   * @return The unclaimed rewards that were added to the total accrued\r\n   **/\r\n  function _updateCurrentUnclaimedRewards(\r\n    address user,\r\n    uint256 userBalance,\r\n    bool updateStorage\r\n  ) internal returns (uint256) {\r\n    uint256 accruedRewards = _updateUserAssetInternal(\r\n      user,\r\n      address(this),\r\n      userBalance,\r\n      totalSupply()\r\n    );\r\n    uint256 unclaimedRewards = stakerRewardsToClaim[user].add(accruedRewards);\r\n\r\n    if (accruedRewards != 0) {\r\n      if (updateStorage) {\r\n        stakerRewardsToClaim[user] = unclaimedRewards;\r\n      }\r\n      emit RewardsAccrued(user, accruedRewards);\r\n    }\r\n\r\n    return unclaimedRewards;\r\n  }\r\n\r\n  /**\r\n   * @dev Calculates the how is gonna be a new cooldown timestamp depending on the sender/receiver situation\r\n   *  - If the timestamp of the sender is \"better\" or the timestamp of the recipient is 0, we take the one of the recipient\r\n   *  - Weighted average of from/to cooldown timestamps if:\r\n   *    # The sender doesn't have the cooldown activated (timestamp 0).\r\n   *    # The sender timestamp is expired\r\n   *    # The sender has a \"worse\" timestamp\r\n   *  - If the receiver's cooldown timestamp expired (too old), the next is 0\r\n   * @param fromCooldownTimestamp Cooldown timestamp of the sender\r\n   * @param amountToReceive Amount\r\n   * @param toAddress Address of the recipient\r\n   * @param toBalance Current balance of the receiver\r\n   * @return The new cooldown timestamp\r\n   **/\r\n  function getNextCooldownTimestamp(\r\n    uint256 fromCooldownTimestamp,\r\n    uint256 amountToReceive,\r\n    address toAddress,\r\n    uint256 toBalance\r\n  ) public view returns (uint256) {\r\n    uint256 toCooldownTimestamp = stakersCooldowns[toAddress];\r\n    if (toCooldownTimestamp == 0) {\r\n      return 0;\r\n    }\r\n\r\n    uint256 minimalValidCooldownTimestamp = block.timestamp.sub(COOLDOWN_SECONDS).sub(\r\n      UNSTAKE_WINDOW\r\n    );\r\n\r\n    if (minimalValidCooldownTimestamp > toCooldownTimestamp) {\r\n      toCooldownTimestamp = 0;\r\n    } else {\r\n      uint256 fromCooldownTimestamp = (minimalValidCooldownTimestamp > fromCooldownTimestamp)\r\n        ? block.timestamp\r\n        : fromCooldownTimestamp;\r\n\r\n      if (fromCooldownTimestamp < toCooldownTimestamp) {\r\n        return toCooldownTimestamp;\r\n      } else {\r\n        toCooldownTimestamp = (\r\n          amountToReceive.mul(fromCooldownTimestamp).add(toBalance.mul(toCooldownTimestamp))\r\n        )\r\n          .div(amountToReceive.add(toBalance));\r\n      }\r\n    }\r\n    //stakersCooldowns[toAddress] = toCooldownTimestamp;\r\n\r\n    return toCooldownTimestamp;\r\n  }\r\n\r\n  /**\r\n   * @dev Return the total rewards pending to claim by an staker\r\n   * @param staker The staker address\r\n   * @return The rewards\r\n   */\r\n  function getTotalRewardsBalance(address staker) external view returns (uint256) {\r\n\r\n      DistributionTypes.UserStakeInput[] memory userStakeInputs\r\n     = new DistributionTypes.UserStakeInput[](1);\r\n    userStakeInputs[0] = DistributionTypes.UserStakeInput({\r\n      underlyingAsset: address(this),\r\n      stakedByUser: balanceOf(staker),\r\n      totalStaked: totalSupply()\r\n    });\r\n    return stakerRewardsToClaim[staker].add(_getUnclaimedRewards(staker, userStakeInputs));\r\n  }\r\n\r\n  /**\r\n   * @dev returns the revision of the implementation contract\r\n   * @return The revision\r\n   */\r\n  function getRevision() internal override pure returns (uint256) {\r\n    return REVISION;\r\n  }\r\n}\r\n\r\n// File: contracts/stake/StakedRoya.sol\r\n\r\n\r\npragma solidity 0.6.12;\r\n\r\n\r\n\r\n\r\n/**\r\n * @title StakedRoya\r\n * @notice StakedToken with AAVE token as staked token\r\n * @author Roya\r\n **/\r\ncontract StakedRoya is StakedToken {\r\n  string internal constant NAME = 'Staked Roya';\r\n  string internal constant SYMBOL = 'stkRoya';\r\n  uint8 internal constant DECIMALS = 18;\r\n  \r\n  constructor(\r\n    IERC20 stakedToken,\r\n    IERC20 rewardToken,\r\n    uint256 cooldownSeconds,\r\n    uint256 unstakeWindow,\r\n    address rewardsVault,\r\n    address emissionManager,\r\n    uint128 distributionDuration\r\n  ) public StakedToken(\r\n    stakedToken,\r\n    rewardToken,\r\n    cooldownSeconds,\r\n    unstakeWindow,\r\n    rewardsVault,\r\n    emissionManager,\r\n    distributionDuration,\r\n    NAME,\r\n    SYMBOL,\r\n    DECIMALS) {}\r\n}",
  "sourcePath": "C:/Users/vishn/OneDrive/Desktop/codezero2pi/RoyaleBSC/royale-contracts/contracts/RoyaleUtility/Reserve.sol",
  "compiler": {
    "name": "solc",
    "version": "0.6.12+commit.27d51765.Emscripten.clang"
  },
  "schemaVersion": "3.3.2",
  "updatedAt": "2021-05-18T11:46:55.655Z",
  "devdoc": {
    "author": "Roya*",
    "kind": "dev",
    "methods": {
      "allowance(address,address)": {
        "details": "returns the allowance of spender on the tokens owned by owner",
        "params": {
          "owner": "the owner of the tokens",
          "spender": "the user allowed to spend the owner's tokens"
        },
        "returns": {
          "_0": "the amount of owner's tokens spender is allowed to spend*"
        }
      },
      "approve(address,uint256)": {
        "details": "allows spender to spend the tokens owned by msg.sender",
        "params": {
          "spender": "the user allowed to spend msg.sender tokens"
        },
        "returns": {
          "_0": "true*"
        }
      },
      "balanceOf(address)": {
        "returns": {
          "_0": "the balance of the token*"
        }
      },
      "claimRewards(address,uint256)": {
        "details": "Claims an `amount` of `REWARD_TOKEN` to the address `to`",
        "params": {
          "amount": "Amount to stake*",
          "to": "Address to stake for"
        }
      },
      "configureAssets((uint128,uint256,address)[])": {
        "details": "Configures the distribution of rewards for a list of assets",
        "params": {
          "assetsConfigInput": "The list of configurations to apply*"
        }
      },
      "cooldown()": {
        "details": "Activates the cooldown period to unstake - It can't be called if the user is not staking*"
      },
      "decimals()": {
        "returns": {
          "_0": "the decimals of the token*"
        }
      },
      "decreaseAllowance(address,uint256)": {
        "details": "decreases the allowance of spender to spend msg.sender tokens",
        "params": {
          "spender": "the user allowed to spend on behalf of msg.sender",
          "subtractedValue": "the amount being subtracted to the allowance"
        },
        "returns": {
          "_0": "true*"
        }
      },
      "getNextCooldownTimestamp(uint256,uint256,address,uint256)": {
        "details": "Calculates the how is gonna be a new cooldown timestamp depending on the sender/receiver situation  - If the timestamp of the sender is \"better\" or the timestamp of the recipient is 0, we take the one of the recipient  - Weighted average of from/to cooldown timestamps if:    # The sender doesn't have the cooldown activated (timestamp 0).    # The sender timestamp is expired    # The sender has a \"worse\" timestamp  - If the receiver's cooldown timestamp expired (too old), the next is 0",
        "params": {
          "amountToReceive": "Amount",
          "fromCooldownTimestamp": "Cooldown timestamp of the sender",
          "toAddress": "Address of the recipient",
          "toBalance": "Current balance of the receiver"
        },
        "returns": {
          "_0": "The new cooldown timestamp*"
        }
      },
      "getTotalRewardsBalance(address)": {
        "details": "Return the total rewards pending to claim by an staker",
        "params": {
          "staker": "The staker address"
        },
        "returns": {
          "_0": "The rewards"
        }
      },
      "getUserAssetData(address,address)": {
        "details": "Returns the data of an user on a distribution",
        "params": {
          "asset": "The address of the reference asset of the distribution",
          "user": "Address of the user"
        },
        "returns": {
          "_0": "The new index*"
        }
      },
      "increaseAllowance(address,uint256)": {
        "details": "increases the allowance of spender to spend msg.sender tokens",
        "params": {
          "addedValue": "the amount being added to the allowance",
          "spender": "the user allowed to spend on behalf of msg.sender"
        },
        "returns": {
          "_0": "true*"
        }
      },
      "initialize(address,string,string,uint8)": {
        "details": "Called by the proxy contract*"
      },
      "name()": {
        "returns": {
          "_0": "the name of the token*"
        }
      },
      "redeem(address,uint256)": {
        "details": "Redeems staked tokens, and stop earning rewards",
        "params": {
          "amount": "Amount to redeem*",
          "to": "Address to redeem to"
        }
      },
      "symbol()": {
        "returns": {
          "_0": "the symbol of the token*"
        }
      },
      "totalSupply()": {
        "returns": {
          "_0": "the total supply of the token*"
        }
      },
      "transfer(address,uint256)": {
        "details": "executes a transfer of tokens from msg.sender to recipient",
        "params": {
          "amount": "the amount of tokens being transferred",
          "recipient": "the recipient of the tokens"
        },
        "returns": {
          "_0": "true if the transfer succeeds, false otherwise*"
        }
      },
      "transferFrom(address,address,uint256)": {
        "details": "executes a transfer of token from sender to recipient, if msg.sender is allowed to do so",
        "params": {
          "amount": "the amount of tokens being transferred",
          "recipient": "the recipient of the tokens",
          "sender": "the owner of the tokens"
        },
        "returns": {
          "_0": "true if the transfer succeeds, false otherwise*"
        }
      }
    },
    "title": "StakedRoya",
    "version": 1
  },
  "userdoc": {
    "kind": "user",
    "methods": {
      "REWARDS_VAULT()": {
        "notice": "Address to pull from the rewards, needs to have approved this contract"
      },
      "UNSTAKE_WINDOW()": {
        "notice": "Seconds available to redeem once the cooldown period is fullfilled"
      }
    },
    "notice": "StakedToken with AAVE token as staked token",
    "version": 1
  }
}